{
	"cuimianMaster/TimeLock.sol": {
		"TimeLock": {
			"abi": [
				{
					"inputs": [],
					"stateMutability": "nonpayable",
					"type": "constructor"
				},
				{
					"inputs": [
						{
							"internalType": "bytes32",
							"name": "txId",
							"type": "bytes32"
						}
					],
					"name": "NotExistOrCancled",
					"type": "error"
				},
				{
					"inputs": [
						{
							"internalType": "bytes32",
							"name": "txId",
							"type": "bytes32"
						}
					],
					"name": "NotQueuedError",
					"type": "error"
				},
				{
					"inputs": [],
					"name": "TimestampExpiredError",
					"type": "error"
				},
				{
					"inputs": [
						{
							"internalType": "uint256",
							"name": "timestamp",
							"type": "uint256"
						},
						{
							"internalType": "uint256",
							"name": "blocktimestamp",
							"type": "uint256"
						}
					],
					"name": "TimestampNotInRangeError",
					"type": "error"
				},
				{
					"inputs": [
						{
							"internalType": "bytes32",
							"name": "txId",
							"type": "bytes32"
						}
					],
					"name": "TxAlreadyExist",
					"type": "error"
				},
				{
					"inputs": [
						{
							"internalType": "bytes32",
							"name": "txId",
							"type": "bytes32"
						}
					],
					"name": "TxFailedError",
					"type": "error"
				},
				{
					"anonymous": false,
					"inputs": [
						{
							"indexed": true,
							"internalType": "bytes32",
							"name": "txId",
							"type": "bytes32"
						}
					],
					"name": "Cancle",
					"type": "event"
				},
				{
					"anonymous": false,
					"inputs": [
						{
							"indexed": false,
							"internalType": "bytes32",
							"name": "txId",
							"type": "bytes32"
						},
						{
							"indexed": false,
							"internalType": "address",
							"name": "target",
							"type": "address"
						},
						{
							"indexed": false,
							"internalType": "uint256",
							"name": "value",
							"type": "uint256"
						},
						{
							"indexed": false,
							"internalType": "string",
							"name": "func",
							"type": "string"
						},
						{
							"indexed": false,
							"internalType": "bytes",
							"name": "data",
							"type": "bytes"
						}
					],
					"name": "Execute",
					"type": "event"
				},
				{
					"anonymous": false,
					"inputs": [
						{
							"indexed": true,
							"internalType": "bytes32",
							"name": "txId",
							"type": "bytes32"
						},
						{
							"indexed": true,
							"internalType": "address",
							"name": "target",
							"type": "address"
						},
						{
							"indexed": false,
							"internalType": "uint256",
							"name": "value",
							"type": "uint256"
						},
						{
							"indexed": false,
							"internalType": "string",
							"name": "func",
							"type": "string"
						},
						{
							"indexed": false,
							"internalType": "bytes",
							"name": "data",
							"type": "bytes"
						},
						{
							"indexed": false,
							"internalType": "uint256",
							"name": "timestamp",
							"type": "uint256"
						}
					],
					"name": "TaskInQueue",
					"type": "event"
				},
				{
					"inputs": [],
					"name": "GRACE_PER100",
					"outputs": [
						{
							"internalType": "uint256",
							"name": "",
							"type": "uint256"
						}
					],
					"stateMutability": "view",
					"type": "function"
				},
				{
					"inputs": [],
					"name": "MAX_DELAY",
					"outputs": [
						{
							"internalType": "uint256",
							"name": "",
							"type": "uint256"
						}
					],
					"stateMutability": "view",
					"type": "function"
				},
				{
					"inputs": [],
					"name": "MIN_DELAY",
					"outputs": [
						{
							"internalType": "uint256",
							"name": "",
							"type": "uint256"
						}
					],
					"stateMutability": "view",
					"type": "function"
				},
				{
					"inputs": [
						{
							"internalType": "bytes32",
							"name": "txId",
							"type": "bytes32"
						}
					],
					"name": "cancle",
					"outputs": [],
					"stateMutability": "nonpayable",
					"type": "function"
				},
				{
					"inputs": [
						{
							"internalType": "address",
							"name": "_target",
							"type": "address"
						},
						{
							"internalType": "uint256",
							"name": "_value",
							"type": "uint256"
						},
						{
							"internalType": "string",
							"name": "_func",
							"type": "string"
						},
						{
							"internalType": "bytes",
							"name": "_params",
							"type": "bytes"
						},
						{
							"internalType": "uint256",
							"name": "_timestamp",
							"type": "uint256"
						}
					],
					"name": "execute",
					"outputs": [
						{
							"internalType": "bytes",
							"name": "",
							"type": "bytes"
						}
					],
					"stateMutability": "payable",
					"type": "function"
				},
				{
					"inputs": [],
					"name": "owner",
					"outputs": [
						{
							"internalType": "address",
							"name": "",
							"type": "address"
						}
					],
					"stateMutability": "view",
					"type": "function"
				},
				{
					"inputs": [
						{
							"internalType": "address",
							"name": "_target",
							"type": "address"
						},
						{
							"internalType": "uint256",
							"name": "_value",
							"type": "uint256"
						},
						{
							"internalType": "string",
							"name": "_func",
							"type": "string"
						},
						{
							"internalType": "bytes",
							"name": "_params",
							"type": "bytes"
						},
						{
							"internalType": "uint256",
							"name": "_timestamp",
							"type": "uint256"
						}
					],
					"name": "queue",
					"outputs": [],
					"stateMutability": "nonpayable",
					"type": "function"
				},
				{
					"stateMutability": "payable",
					"type": "receive"
				}
			],
			"devdoc": {
				"kind": "dev",
				"methods": {},
				"version": 1
			},
			"evm": {
				"assembly": "    /* \"cuimianMaster/TimeLock.sol\":60:3713  contract TimeLock {... */\n  mstore(0x40, 0x80)\n    /* \"cuimianMaster/TimeLock.sol\":642:644  10 */\n  0x0a\n    /* \"cuimianMaster/TimeLock.sol\":618:644  uint public MIN_DELAY = 10 */\n  0x00\n  sstore\n    /* \"cuimianMaster/TimeLock.sol\":675:679  1000 */\n  0x03e8\n    /* \"cuimianMaster/TimeLock.sol\":651:679  uint public MAX_DELAY = 1000 */\n  0x01\n  sstore\n    /* \"cuimianMaster/TimeLock.sol\":713:717  1000 */\n  0x03e8\n    /* \"cuimianMaster/TimeLock.sol\":686:717  uint public GRACE_PER100 = 1000 */\n  0x02\n  sstore\n    /* \"cuimianMaster/TimeLock.sol\":851:902  constructor() {... */\n  callvalue\n  dup1\n  iszero\n  tag_1\n  jumpi\n  0x00\n  dup1\n  revert\ntag_1:\n  pop\n    /* \"cuimianMaster/TimeLock.sol\":884:894  msg.sender */\n  caller\n    /* \"cuimianMaster/TimeLock.sol\":876:881  owner */\n  0x03\n  0x00\n    /* \"cuimianMaster/TimeLock.sol\":876:894  owner = msg.sender */\n  0x0100\n  exp\n  dup2\n  sload\n  dup2\n  0xffffffffffffffffffffffffffffffffffffffff\n  mul\n  not\n  and\n  swap1\n  dup4\n  0xffffffffffffffffffffffffffffffffffffffff\n  and\n  mul\n  or\n  swap1\n  sstore\n  pop\n    /* \"cuimianMaster/TimeLock.sol\":60:3713  contract TimeLock {... */\n  dataSize(sub_0)\n  dup1\n  dataOffset(sub_0)\n  0x00\n  codecopy\n  0x00\n  return\nstop\n\nsub_0: assembly {\n        /* \"cuimianMaster/TimeLock.sol\":60:3713  contract TimeLock {... */\n      mstore(0x40, 0x80)\n      jumpi(tag_1, lt(calldatasize, 0x04))\n      shr(0xe0, calldataload(0x00))\n      dup1\n      0x9f81aed7\n      gt\n      tag_10\n      jumpi\n      dup1\n      0x9f81aed7\n      eq\n      tag_6\n      jumpi\n      dup1\n      0xb0f8b142\n      eq\n      tag_7\n      jumpi\n      dup1\n      0xe0237232\n      eq\n      tag_8\n      jumpi\n      dup1\n      0xe342d4e3\n      eq\n      tag_9\n      jumpi\n      jump(tag_2)\n    tag_10:\n      dup1\n      0x4125ff90\n      eq\n      tag_3\n      jumpi\n      dup1\n      0x4b9915a5\n      eq\n      tag_4\n      jumpi\n      dup1\n      0x8da5cb5b\n      eq\n      tag_5\n      jumpi\n      jump(tag_2)\n    tag_1:\n      jumpi(tag_2, calldatasize)\n      stop\n    tag_2:\n      0x00\n      dup1\n      revert\n        /* \"cuimianMaster/TimeLock.sol\":651:679  uint public MAX_DELAY = 1000 */\n    tag_3:\n      callvalue\n      dup1\n      iszero\n      tag_13\n      jumpi\n      0x00\n      dup1\n      revert\n    tag_13:\n      pop\n      tag_14\n      tag_15\n      jump\t// in\n    tag_14:\n      mload(0x40)\n      tag_16\n      swap2\n      swap1\n      tag_17\n      jump\t// in\n    tag_16:\n      mload(0x40)\n      dup1\n      swap2\n      sub\n      swap1\n      return\n        /* \"cuimianMaster/TimeLock.sol\":1463:2264  function queue(... */\n    tag_4:\n      callvalue\n      dup1\n      iszero\n      tag_18\n      jumpi\n      0x00\n      dup1\n      revert\n    tag_18:\n      pop\n      tag_19\n      0x04\n      dup1\n      calldatasize\n      sub\n      dup2\n      add\n      swap1\n      tag_20\n      swap2\n      swap1\n      tag_21\n      jump\t// in\n    tag_20:\n      tag_22\n      jump\t// in\n    tag_19:\n      stop\n        /* \"cuimianMaster/TimeLock.sol\":726:746  address public owner */\n    tag_5:\n      callvalue\n      dup1\n      iszero\n      tag_23\n      jumpi\n      0x00\n      dup1\n      revert\n    tag_23:\n      pop\n      tag_24\n      tag_25\n      jump\t// in\n    tag_24:\n      mload(0x40)\n      tag_26\n      swap2\n      swap1\n      tag_27\n      jump\t// in\n    tag_26:\n      mload(0x40)\n      dup1\n      swap2\n      sub\n      swap1\n      return\n        /* \"cuimianMaster/TimeLock.sol\":618:644  uint public MIN_DELAY = 10 */\n    tag_6:\n      callvalue\n      dup1\n      iszero\n      tag_28\n      jumpi\n      0x00\n      dup1\n      revert\n    tag_28:\n      pop\n      tag_29\n      tag_30\n      jump\t// in\n    tag_29:\n      mload(0x40)\n      tag_31\n      swap2\n      swap1\n      tag_17\n      jump\t// in\n    tag_31:\n      mload(0x40)\n      dup1\n      swap2\n      sub\n      swap1\n      return\n        /* \"cuimianMaster/TimeLock.sol\":2272:3499  function execute(... */\n    tag_7:\n      tag_32\n      0x04\n      dup1\n      calldatasize\n      sub\n      dup2\n      add\n      swap1\n      tag_33\n      swap2\n      swap1\n      tag_21\n      jump\t// in\n    tag_33:\n      tag_34\n      jump\t// in\n    tag_32:\n      mload(0x40)\n      tag_35\n      swap2\n      swap1\n      tag_36\n      jump\t// in\n    tag_35:\n      mload(0x40)\n      dup1\n      swap2\n      sub\n      swap1\n      return\n        /* \"cuimianMaster/TimeLock.sol\":686:717  uint public GRACE_PER100 = 1000 */\n    tag_8:\n      callvalue\n      dup1\n      iszero\n      tag_37\n      jumpi\n      0x00\n      dup1\n      revert\n    tag_37:\n      pop\n      tag_38\n      tag_39\n      jump\t// in\n    tag_38:\n      mload(0x40)\n      tag_40\n      swap2\n      swap1\n      tag_17\n      jump\t// in\n    tag_40:\n      mload(0x40)\n      dup1\n      swap2\n      sub\n      swap1\n      return\n        /* \"cuimianMaster/TimeLock.sol\":3507:3710  function cancle(bytes32 txId) external {... */\n    tag_9:\n      callvalue\n      dup1\n      iszero\n      tag_41\n      jumpi\n      0x00\n      dup1\n      revert\n    tag_41:\n      pop\n      tag_42\n      0x04\n      dup1\n      calldatasize\n      sub\n      dup2\n      add\n      swap1\n      tag_43\n      swap2\n      swap1\n      tag_44\n      jump\t// in\n    tag_43:\n      tag_45\n      jump\t// in\n    tag_42:\n      stop\n        /* \"cuimianMaster/TimeLock.sol\":651:679  uint public MAX_DELAY = 1000 */\n    tag_15:\n      sload(0x01)\n      dup2\n      jump\t// out\n        /* \"cuimianMaster/TimeLock.sol\":1463:2264  function queue(... */\n    tag_22:\n        /* \"cuimianMaster/TimeLock.sol\":1001:1006  owner */\n      0x03\n      0x00\n      swap1\n      sload\n      swap1\n      0x0100\n      exp\n      swap1\n      div\n      0xffffffffffffffffffffffffffffffffffffffff\n      and\n        /* \"cuimianMaster/TimeLock.sol\":987:1006  msg.sender == owner */\n      0xffffffffffffffffffffffffffffffffffffffff\n      and\n        /* \"cuimianMaster/TimeLock.sol\":987:997  msg.sender */\n      caller\n        /* \"cuimianMaster/TimeLock.sol\":987:1006  msg.sender == owner */\n      0xffffffffffffffffffffffffffffffffffffffff\n      and\n      eq\n        /* \"cuimianMaster/TimeLock.sol\":979:1026  require(msg.sender == owner, \"Not Owner Error\") */\n      tag_47\n      jumpi\n      mload(0x40)\n      0x08c379a000000000000000000000000000000000000000000000000000000000\n      dup2\n      mstore\n      0x04\n      add\n      tag_48\n      swap1\n      tag_49\n      jump\t// in\n    tag_48:\n      mload(0x40)\n      dup1\n      swap2\n      sub\n      swap1\n      revert\n    tag_47:\n        /* \"cuimianMaster/TimeLock.sol\":1806:1818  bytes32 txId */\n      0x00\n        /* \"cuimianMaster/TimeLock.sol\":1821:1873  getTxId(_target, _value, _func, _params, _timestamp) */\n      tag_51\n        /* \"cuimianMaster/TimeLock.sol\":1829:1836  _target */\n      dup9\n        /* \"cuimianMaster/TimeLock.sol\":1838:1844  _value */\n      dup9\n        /* \"cuimianMaster/TimeLock.sol\":1846:1851  _func */\n      dup9\n      dup9\n        /* \"cuimianMaster/TimeLock.sol\":1853:1860  _params */\n      dup9\n      dup9\n        /* \"cuimianMaster/TimeLock.sol\":1862:1872  _timestamp */\n      dup9\n        /* \"cuimianMaster/TimeLock.sol\":1821:1828  getTxId */\n      tag_52\n        /* \"cuimianMaster/TimeLock.sol\":1821:1873  getTxId(_target, _value, _func, _params, _timestamp) */\n      jump\t// in\n    tag_51:\n        /* \"cuimianMaster/TimeLock.sol\":1806:1873  bytes32 txId = getTxId(_target, _value, _func, _params, _timestamp) */\n      swap1\n      pop\n        /* \"cuimianMaster/TimeLock.sol\":1888:1894  queued */\n      0x04\n        /* \"cuimianMaster/TimeLock.sol\":1888:1900  queued[txId] */\n      0x00\n        /* \"cuimianMaster/TimeLock.sol\":1895:1899  txId */\n      dup3\n        /* \"cuimianMaster/TimeLock.sol\":1888:1900  queued[txId] */\n      dup2\n      mstore\n      0x20\n      add\n      swap1\n      dup2\n      mstore\n      0x20\n      add\n      0x00\n      keccak256\n      0x00\n      swap1\n      sload\n      swap1\n      0x0100\n      exp\n      swap1\n      div\n      0xff\n      and\n        /* \"cuimianMaster/TimeLock.sol\":1884:1956  if (queued[txId]) {... */\n      iszero\n      tag_53\n      jumpi\n        /* \"cuimianMaster/TimeLock.sol\":1939:1943  txId */\n      dup1\n        /* \"cuimianMaster/TimeLock.sol\":1924:1944  TxAlreadyExist(txId) */\n      mload(0x40)\n      0xf465c6cb00000000000000000000000000000000000000000000000000000000\n      dup2\n      mstore\n      0x04\n      add\n      tag_54\n      swap2\n      swap1\n      tag_55\n      jump\t// in\n    tag_54:\n      mload(0x40)\n      dup1\n      swap2\n      sub\n      swap1\n      revert\n        /* \"cuimianMaster/TimeLock.sol\":1884:1956  if (queued[txId]) {... */\n    tag_53:\n        /* \"cuimianMaster/TimeLock.sol\":2003:2012  MIN_DELAY */\n      sload(0x00)\n        /* \"cuimianMaster/TimeLock.sol\":1985:2000  block.timestamp */\n      timestamp\n        /* \"cuimianMaster/TimeLock.sol\":1985:2012  block.timestamp + MIN_DELAY */\n      tag_56\n      swap2\n      swap1\n      tag_57\n      jump\t// in\n    tag_56:\n        /* \"cuimianMaster/TimeLock.sol\":1972:1982  _timestamp */\n      dup3\n        /* \"cuimianMaster/TimeLock.sol\":1972:2012  _timestamp < block.timestamp + MIN_DELAY */\n      lt\n        /* \"cuimianMaster/TimeLock.sol\":1972:2056  _timestamp < block.timestamp + MIN_DELAY || _timestamp > block.timestamp + MAX_DELAY */\n      dup1\n      tag_58\n      jumpi\n      pop\n        /* \"cuimianMaster/TimeLock.sol\":2047:2056  MAX_DELAY */\n      sload(0x01)\n        /* \"cuimianMaster/TimeLock.sol\":2029:2044  block.timestamp */\n      timestamp\n        /* \"cuimianMaster/TimeLock.sol\":2029:2056  block.timestamp + MAX_DELAY */\n      tag_59\n      swap2\n      swap1\n      tag_57\n      jump\t// in\n    tag_59:\n        /* \"cuimianMaster/TimeLock.sol\":2016:2026  _timestamp */\n      dup3\n        /* \"cuimianMaster/TimeLock.sol\":2016:2056  _timestamp > block.timestamp + MAX_DELAY */\n      gt\n        /* \"cuimianMaster/TimeLock.sol\":1972:2056  _timestamp < block.timestamp + MIN_DELAY || _timestamp > block.timestamp + MAX_DELAY */\n    tag_58:\n        /* \"cuimianMaster/TimeLock.sol\":1968:2145  if (_timestamp < block.timestamp + MIN_DELAY || _timestamp > block.timestamp + MAX_DELAY) {... */\n      iszero\n      tag_60\n      jumpi\n        /* \"cuimianMaster/TimeLock.sol\":2105:2115  _timestamp */\n      dup2\n        /* \"cuimianMaster/TimeLock.sol\":2117:2132  block.timestamp */\n      timestamp\n        /* \"cuimianMaster/TimeLock.sol\":2080:2133  TimestampNotInRangeError(_timestamp, block.timestamp) */\n      mload(0x40)\n      0x1a9616c200000000000000000000000000000000000000000000000000000000\n      dup2\n      mstore\n      0x04\n      add\n      tag_61\n      swap3\n      swap2\n      swap1\n      tag_62\n      jump\t// in\n    tag_61:\n      mload(0x40)\n      dup1\n      swap2\n      sub\n      swap1\n      revert\n        /* \"cuimianMaster/TimeLock.sol\":1968:2145  if (_timestamp < block.timestamp + MIN_DELAY || _timestamp > block.timestamp + MAX_DELAY) {... */\n    tag_60:\n        /* \"cuimianMaster/TimeLock.sol\":2172:2176  true */\n      0x01\n        /* \"cuimianMaster/TimeLock.sol\":2157:2163  queued */\n      0x04\n        /* \"cuimianMaster/TimeLock.sol\":2157:2169  queued[txId] */\n      0x00\n        /* \"cuimianMaster/TimeLock.sol\":2164:2168  txId */\n      dup4\n        /* \"cuimianMaster/TimeLock.sol\":2157:2169  queued[txId] */\n      dup2\n      mstore\n      0x20\n      add\n      swap1\n      dup2\n      mstore\n      0x20\n      add\n      0x00\n      keccak256\n      0x00\n        /* \"cuimianMaster/TimeLock.sol\":2157:2176  queued[txId] = true */\n      0x0100\n      exp\n      dup2\n      sload\n      dup2\n      0xff\n      mul\n      not\n      and\n      swap1\n      dup4\n      iszero\n      iszero\n      mul\n      or\n      swap1\n      sstore\n      pop\n        /* \"cuimianMaster/TimeLock.sol\":2212:2219  _target */\n      dup8\n        /* \"cuimianMaster/TimeLock.sol\":2194:2256  TaskInQueue(txId, _target, _value, _func, _params, _timestamp) */\n      0xffffffffffffffffffffffffffffffffffffffff\n      and\n        /* \"cuimianMaster/TimeLock.sol\":2206:2210  txId */\n      dup2\n        /* \"cuimianMaster/TimeLock.sol\":2194:2256  TaskInQueue(txId, _target, _value, _func, _params, _timestamp) */\n      0x69f39bf47f0d2b6b52c87b967f3fe6e8e799ddd0d6bffc303bc2cbee66d6c9a3\n        /* \"cuimianMaster/TimeLock.sol\":2221:2227  _value */\n      dup10\n        /* \"cuimianMaster/TimeLock.sol\":2229:2234  _func */\n      dup10\n      dup10\n        /* \"cuimianMaster/TimeLock.sol\":2236:2243  _params */\n      dup10\n      dup10\n        /* \"cuimianMaster/TimeLock.sol\":2245:2255  _timestamp */\n      dup10\n        /* \"cuimianMaster/TimeLock.sol\":2194:2256  TaskInQueue(txId, _target, _value, _func, _params, _timestamp) */\n      mload(0x40)\n      tag_63\n      swap7\n      swap6\n      swap5\n      swap4\n      swap3\n      swap2\n      swap1\n      tag_64\n      jump\t// in\n    tag_63:\n      mload(0x40)\n      dup1\n      swap2\n      sub\n      swap1\n      log3\n        /* \"cuimianMaster/TimeLock.sol\":1795:2264  {... */\n      pop\n        /* \"cuimianMaster/TimeLock.sol\":1463:2264  function queue(... */\n      pop\n      pop\n      pop\n      pop\n      pop\n      pop\n      pop\n      jump\t// out\n        /* \"cuimianMaster/TimeLock.sol\":726:746  address public owner */\n    tag_25:\n      0x03\n      0x00\n      swap1\n      sload\n      swap1\n      0x0100\n      exp\n      swap1\n      div\n      0xffffffffffffffffffffffffffffffffffffffff\n      and\n      dup2\n      jump\t// out\n        /* \"cuimianMaster/TimeLock.sol\":618:644  uint public MIN_DELAY = 10 */\n    tag_30:\n      sload(0x00)\n      dup2\n      jump\t// out\n        /* \"cuimianMaster/TimeLock.sol\":2272:3499  function execute(... */\n    tag_34:\n        /* \"cuimianMaster/TimeLock.sol\":2621:2633  bytes memory */\n      0x60\n        /* \"cuimianMaster/TimeLock.sol\":1001:1006  owner */\n      0x03\n      0x00\n      swap1\n      sload\n      swap1\n      0x0100\n      exp\n      swap1\n      div\n      0xffffffffffffffffffffffffffffffffffffffff\n      and\n        /* \"cuimianMaster/TimeLock.sol\":987:1006  msg.sender == owner */\n      0xffffffffffffffffffffffffffffffffffffffff\n      and\n        /* \"cuimianMaster/TimeLock.sol\":987:997  msg.sender */\n      caller\n        /* \"cuimianMaster/TimeLock.sol\":987:1006  msg.sender == owner */\n      0xffffffffffffffffffffffffffffffffffffffff\n      and\n      eq\n        /* \"cuimianMaster/TimeLock.sol\":979:1026  require(msg.sender == owner, \"Not Owner Error\") */\n      tag_66\n      jumpi\n      mload(0x40)\n      0x08c379a000000000000000000000000000000000000000000000000000000000\n      dup2\n      mstore\n      0x04\n      add\n      tag_67\n      swap1\n      tag_49\n      jump\t// in\n    tag_67:\n      mload(0x40)\n      dup1\n      swap2\n      sub\n      swap1\n      revert\n    tag_66:\n        /* \"cuimianMaster/TimeLock.sol\":2651:2663  bytes32 txId */\n      0x00\n        /* \"cuimianMaster/TimeLock.sol\":2666:2718  getTxId(_target, _value, _func, _params, _timestamp) */\n      tag_69\n        /* \"cuimianMaster/TimeLock.sol\":2674:2681  _target */\n      dup10\n        /* \"cuimianMaster/TimeLock.sol\":2683:2689  _value */\n      dup10\n        /* \"cuimianMaster/TimeLock.sol\":2691:2696  _func */\n      dup10\n      dup10\n        /* \"cuimianMaster/TimeLock.sol\":2698:2705  _params */\n      dup10\n      dup10\n        /* \"cuimianMaster/TimeLock.sol\":2707:2717  _timestamp */\n      dup10\n        /* \"cuimianMaster/TimeLock.sol\":2666:2673  getTxId */\n      tag_52\n        /* \"cuimianMaster/TimeLock.sol\":2666:2718  getTxId(_target, _value, _func, _params, _timestamp) */\n      jump\t// in\n    tag_69:\n        /* \"cuimianMaster/TimeLock.sol\":2651:2718  bytes32 txId = getTxId(_target, _value, _func, _params, _timestamp) */\n      swap1\n      pop\n        /* \"cuimianMaster/TimeLock.sol\":2734:2740  queued */\n      0x04\n        /* \"cuimianMaster/TimeLock.sol\":2734:2746  queued[txId] */\n      0x00\n        /* \"cuimianMaster/TimeLock.sol\":2741:2745  txId */\n      dup3\n        /* \"cuimianMaster/TimeLock.sol\":2734:2746  queued[txId] */\n      dup2\n      mstore\n      0x20\n      add\n      swap1\n      dup2\n      mstore\n      0x20\n      add\n      0x00\n      keccak256\n      0x00\n      swap1\n      sload\n      swap1\n      0x0100\n      exp\n      swap1\n      div\n      0xff\n      and\n        /* \"cuimianMaster/TimeLock.sol\":2729:2802  if (!queued[txId]) {... */\n      tag_70\n      jumpi\n        /* \"cuimianMaster/TimeLock.sol\":2785:2789  txId */\n      dup1\n        /* \"cuimianMaster/TimeLock.sol\":2770:2790  NotQueuedError(txId) */\n      mload(0x40)\n      0x0995c9d500000000000000000000000000000000000000000000000000000000\n      dup2\n      mstore\n      0x04\n      add\n      tag_71\n      swap2\n      swap1\n      tag_55\n      jump\t// in\n    tag_71:\n      mload(0x40)\n      dup1\n      swap2\n      sub\n      swap1\n      revert\n        /* \"cuimianMaster/TimeLock.sol\":2729:2802  if (!queued[txId]) {... */\n    tag_70:\n        /* \"cuimianMaster/TimeLock.sol\":2844:2854  _timestamp */\n      dup3\n        /* \"cuimianMaster/TimeLock.sol\":2826:2841  block.timestamp */\n      timestamp\n        /* \"cuimianMaster/TimeLock.sol\":2826:2854  block.timestamp < _timestamp */\n      lt\n        /* \"cuimianMaster/TimeLock.sol\":2826:2901  block.timestamp < _timestamp || block.timestamp > _timestamp + GRACE_PER100 */\n      dup1\n      tag_72\n      jumpi\n      pop\n        /* \"cuimianMaster/TimeLock.sol\":2889:2901  GRACE_PER100 */\n      sload(0x02)\n        /* \"cuimianMaster/TimeLock.sol\":2876:2886  _timestamp */\n      dup4\n        /* \"cuimianMaster/TimeLock.sol\":2876:2901  _timestamp + GRACE_PER100 */\n      tag_73\n      swap2\n      swap1\n      tag_57\n      jump\t// in\n    tag_73:\n        /* \"cuimianMaster/TimeLock.sol\":2858:2873  block.timestamp */\n      timestamp\n        /* \"cuimianMaster/TimeLock.sol\":2858:2901  block.timestamp > _timestamp + GRACE_PER100 */\n      gt\n        /* \"cuimianMaster/TimeLock.sol\":2826:2901  block.timestamp < _timestamp || block.timestamp > _timestamp + GRACE_PER100 */\n    tag_72:\n        /* \"cuimianMaster/TimeLock.sol\":2822:2960  if (block.timestamp < _timestamp || block.timestamp > _timestamp + GRACE_PER100) {... */\n      iszero\n      tag_74\n      jumpi\n        /* \"cuimianMaster/TimeLock.sol\":2925:2948  TimestampExpiredError() */\n      mload(0x40)\n      0x0e39156900000000000000000000000000000000000000000000000000000000\n      dup2\n      mstore\n      0x04\n      add\n      mload(0x40)\n      dup1\n      swap2\n      sub\n      swap1\n      revert\n        /* \"cuimianMaster/TimeLock.sol\":2822:2960  if (block.timestamp < _timestamp || block.timestamp > _timestamp + GRACE_PER100) {... */\n    tag_74:\n        /* \"cuimianMaster/TimeLock.sol\":2987:2992  false */\n      0x00\n        /* \"cuimianMaster/TimeLock.sol\":2972:2978  queued */\n      0x04\n        /* \"cuimianMaster/TimeLock.sol\":2972:2984  queued[txId] */\n      0x00\n        /* \"cuimianMaster/TimeLock.sol\":2979:2983  txId */\n      dup4\n        /* \"cuimianMaster/TimeLock.sol\":2972:2984  queued[txId] */\n      dup2\n      mstore\n      0x20\n      add\n      swap1\n      dup2\n      mstore\n      0x20\n      add\n      0x00\n      keccak256\n      0x00\n        /* \"cuimianMaster/TimeLock.sol\":2972:2992  queued[txId] = false */\n      0x0100\n      exp\n      dup2\n      sload\n      dup2\n      0xff\n      mul\n      not\n      and\n      swap1\n      dup4\n      iszero\n      iszero\n      mul\n      or\n      swap1\n      sstore\n      pop\n        /* \"cuimianMaster/TimeLock.sol\":3005:3022  bytes memory data */\n      0x60\n        /* \"cuimianMaster/TimeLock.sol\":3117:3118  0 */\n      0x00\n        /* \"cuimianMaster/TimeLock.sol\":3101:3106  _func */\n      dup9\n      dup9\n        /* \"cuimianMaster/TimeLock.sol\":3095:3114  bytes(_func).length */\n      swap1\n      pop\n        /* \"cuimianMaster/TimeLock.sol\":3095:3118  bytes(_func).length > 0 */\n      gt\n        /* \"cuimianMaster/TimeLock.sol\":3091:3259  if (bytes(_func).length > 0) {... */\n      iszero\n      tag_75\n      jumpi\n        /* \"cuimianMaster/TimeLock.sol\":3182:3187  _func */\n      dup8\n      dup8\n        /* \"cuimianMaster/TimeLock.sol\":3166:3189  keccak256(bytes(_func)) */\n      mload(0x40)\n      tag_76\n      swap3\n      swap2\n      swap1\n      tag_77\n      jump\t// in\n    tag_76:\n      mload(0x40)\n      dup1\n      swap2\n      sub\n      swap1\n      keccak256\n        /* \"cuimianMaster/TimeLock.sol\":3192:3199  _params */\n      dup7\n      dup7\n        /* \"cuimianMaster/TimeLock.sol\":3142:3200  abi.encodePacked(bytes4(keccak256(bytes(_func))), _params) */\n      add(0x20, mload(0x40))\n      tag_78\n      swap4\n      swap3\n      swap2\n      swap1\n      tag_79\n      jump\t// in\n    tag_78:\n      mload(0x40)\n      0x20\n      dup2\n      dup4\n      sub\n      sub\n      dup2\n      mstore\n      swap1\n      0x40\n      mstore\n        /* \"cuimianMaster/TimeLock.sol\":3135:3200  data = abi.encodePacked(bytes4(keccak256(bytes(_func))), _params) */\n      swap1\n      pop\n        /* \"cuimianMaster/TimeLock.sol\":3091:3259  if (bytes(_func).length > 0) {... */\n      jump(tag_80)\n    tag_75:\n        /* \"cuimianMaster/TimeLock.sol\":3240:3247  _params */\n      dup6\n      dup6\n        /* \"cuimianMaster/TimeLock.sol\":3233:3247  data = _params */\n      dup1\n      dup1\n      0x1f\n      add\n      0x20\n      dup1\n      swap2\n      div\n      mul\n      0x20\n      add\n      mload(0x40)\n      swap1\n      dup2\n      add\n      0x40\n      mstore\n      dup1\n      swap4\n      swap3\n      swap2\n      swap1\n      dup2\n      dup2\n      mstore\n      0x20\n      add\n      dup4\n      dup4\n      dup1\n      dup3\n      dup5\n      calldatacopy\n      0x00\n      dup2\n      dup5\n      add\n      mstore\n      not(0x1f)\n      0x1f\n      dup3\n      add\n      and\n      swap1\n      pop\n      dup1\n      dup4\n      add\n      swap3\n      pop\n      pop\n      pop\n      pop\n      pop\n      pop\n      pop\n      swap1\n      pop\n        /* \"cuimianMaster/TimeLock.sol\":3091:3259  if (bytes(_func).length > 0) {... */\n    tag_80:\n        /* \"cuimianMaster/TimeLock.sol\":3272:3279  bool ok */\n      0x00\n        /* \"cuimianMaster/TimeLock.sol\":3281:3297  bytes memory res */\n      dup1\n        /* \"cuimianMaster/TimeLock.sol\":3301:3308  _target */\n      dup12\n        /* \"cuimianMaster/TimeLock.sol\":3301:3313  _target.call */\n      0xffffffffffffffffffffffffffffffffffffffff\n      and\n        /* \"cuimianMaster/TimeLock.sol\":3321:3327  _value */\n      dup12\n        /* \"cuimianMaster/TimeLock.sol\":3329:3333  data */\n      dup5\n        /* \"cuimianMaster/TimeLock.sol\":3301:3334  _target.call{value: _value}(data) */\n      mload(0x40)\n      tag_81\n      swap2\n      swap1\n      tag_82\n      jump\t// in\n    tag_81:\n      0x00\n      mload(0x40)\n      dup1\n      dup4\n      sub\n      dup2\n      dup6\n      dup8\n      gas\n      call\n      swap3\n      pop\n      pop\n      pop\n      returndatasize\n      dup1\n      0x00\n      dup2\n      eq\n      tag_85\n      jumpi\n      mload(0x40)\n      swap2\n      pop\n      and(add(returndatasize, 0x3f), not(0x1f))\n      dup3\n      add\n      0x40\n      mstore\n      returndatasize\n      dup3\n      mstore\n      returndatasize\n      0x00\n      0x20\n      dup5\n      add\n      returndatacopy\n      jump(tag_84)\n    tag_85:\n      0x60\n      swap2\n      pop\n    tag_84:\n      pop\n        /* \"cuimianMaster/TimeLock.sol\":3271:3334  (bool ok, bytes memory res) = _target.call{value: _value}(data) */\n      swap2\n      pop\n      swap2\n      pop\n        /* \"cuimianMaster/TimeLock.sol\":3350:3352  ok */\n      dup2\n        /* \"cuimianMaster/TimeLock.sol\":3345:3407  if (!ok) {... */\n      tag_86\n      jumpi\n        /* \"cuimianMaster/TimeLock.sol\":3390:3394  txId */\n      dup4\n        /* \"cuimianMaster/TimeLock.sol\":3376:3395  TxFailedError(txId) */\n      mload(0x40)\n      0xa31ec5c900000000000000000000000000000000000000000000000000000000\n      dup2\n      mstore\n      0x04\n      add\n      tag_87\n      swap2\n      swap1\n      tag_55\n      jump\t// in\n    tag_87:\n      mload(0x40)\n      dup1\n      swap2\n      sub\n      swap1\n      revert\n        /* \"cuimianMaster/TimeLock.sol\":3345:3407  if (!ok) {... */\n    tag_86:\n        /* \"cuimianMaster/TimeLock.sol\":3424:3470  Execute(txId, _target, _value, _func, _params) */\n      0xee37b0d985fab62aae799ed13a895817831f11250d6bf9153f1dac519bbdfc1d\n        /* \"cuimianMaster/TimeLock.sol\":3432:3436  txId */\n      dup5\n        /* \"cuimianMaster/TimeLock.sol\":3438:3445  _target */\n      dup14\n        /* \"cuimianMaster/TimeLock.sol\":3447:3453  _value */\n      dup14\n        /* \"cuimianMaster/TimeLock.sol\":3455:3460  _func */\n      dup14\n      dup14\n        /* \"cuimianMaster/TimeLock.sol\":3462:3469  _params */\n      dup14\n      dup14\n        /* \"cuimianMaster/TimeLock.sol\":3424:3470  Execute(txId, _target, _value, _func, _params) */\n      mload(0x40)\n      tag_88\n      swap8\n      swap7\n      swap6\n      swap5\n      swap4\n      swap3\n      swap2\n      swap1\n      tag_89\n      jump\t// in\n    tag_88:\n      mload(0x40)\n      dup1\n      swap2\n      sub\n      swap1\n      log1\n        /* \"cuimianMaster/TimeLock.sol\":3488:3491  res */\n      dup1\n        /* \"cuimianMaster/TimeLock.sol\":3481:3491  return res */\n      swap5\n      pop\n      pop\n      pop\n      pop\n      pop\n        /* \"cuimianMaster/TimeLock.sol\":2272:3499  function execute(... */\n      swap8\n      swap7\n      pop\n      pop\n      pop\n      pop\n      pop\n      pop\n      pop\n      jump\t// out\n        /* \"cuimianMaster/TimeLock.sol\":686:717  uint public GRACE_PER100 = 1000 */\n    tag_39:\n      sload(0x02)\n      dup2\n      jump\t// out\n        /* \"cuimianMaster/TimeLock.sol\":3507:3710  function cancle(bytes32 txId) external {... */\n    tag_45:\n        /* \"cuimianMaster/TimeLock.sol\":3561:3567  queued */\n      0x04\n        /* \"cuimianMaster/TimeLock.sol\":3561:3573  queued[txId] */\n      0x00\n        /* \"cuimianMaster/TimeLock.sol\":3568:3572  txId */\n      dup3\n        /* \"cuimianMaster/TimeLock.sol\":3561:3573  queued[txId] */\n      dup2\n      mstore\n      0x20\n      add\n      swap1\n      dup2\n      mstore\n      0x20\n      add\n      0x00\n      keccak256\n      0x00\n      swap1\n      sload\n      swap1\n      0x0100\n      exp\n      swap1\n      div\n      0xff\n      and\n        /* \"cuimianMaster/TimeLock.sol\":3557:3632  if (queued[txId]) {... */\n      iszero\n      tag_91\n      jumpi\n        /* \"cuimianMaster/TimeLock.sol\":3615:3619  txId */\n      dup1\n        /* \"cuimianMaster/TimeLock.sol\":3597:3620  NotExistOrCancled(txId) */\n      mload(0x40)\n      0x8b40522700000000000000000000000000000000000000000000000000000000\n      dup2\n      mstore\n      0x04\n      add\n      tag_92\n      swap2\n      swap1\n      tag_55\n      jump\t// in\n    tag_92:\n      mload(0x40)\n      dup1\n      swap2\n      sub\n      swap1\n      revert\n        /* \"cuimianMaster/TimeLock.sol\":3557:3632  if (queued[txId]) {... */\n    tag_91:\n        /* \"cuimianMaster/TimeLock.sol\":3659:3664  false */\n      0x00\n        /* \"cuimianMaster/TimeLock.sol\":3644:3650  queued */\n      0x04\n        /* \"cuimianMaster/TimeLock.sol\":3644:3656  queued[txId] */\n      0x00\n        /* \"cuimianMaster/TimeLock.sol\":3651:3655  txId */\n      dup4\n        /* \"cuimianMaster/TimeLock.sol\":3644:3656  queued[txId] */\n      dup2\n      mstore\n      0x20\n      add\n      swap1\n      dup2\n      mstore\n      0x20\n      add\n      0x00\n      keccak256\n      0x00\n        /* \"cuimianMaster/TimeLock.sol\":3644:3664  queued[txId] = false */\n      0x0100\n      exp\n      dup2\n      sload\n      dup2\n      0xff\n      mul\n      not\n      and\n      swap1\n      dup4\n      iszero\n      iszero\n      mul\n      or\n      swap1\n      sstore\n      pop\n        /* \"cuimianMaster/TimeLock.sol\":3697:3701  txId */\n      dup1\n        /* \"cuimianMaster/TimeLock.sol\":3690:3702  Cancle(txId) */\n      0x8c570826f4854b55b08216ad61ee8b10c0ac3cacca9ea587b985cbd8abe6ad7b\n      mload(0x40)\n      mload(0x40)\n      dup1\n      swap2\n      sub\n      swap1\n      log2\n        /* \"cuimianMaster/TimeLock.sol\":3507:3710  function cancle(bytes32 txId) external {... */\n      pop\n      jump\t// out\n        /* \"cuimianMaster/TimeLock.sol\":1054:1455  function getTxId(... */\n    tag_52:\n        /* \"cuimianMaster/TimeLock.sol\":1348:1355  bytes32 */\n      0x00\n        /* \"cuimianMaster/TimeLock.sol\":1402:1409  _target */\n      dup8\n        /* \"cuimianMaster/TimeLock.sol\":1411:1417  _value */\n      dup8\n        /* \"cuimianMaster/TimeLock.sol\":1419:1424  _func */\n      dup8\n      dup8\n        /* \"cuimianMaster/TimeLock.sol\":1426:1433  _params */\n      dup8\n      dup8\n        /* \"cuimianMaster/TimeLock.sol\":1435:1445  _timestamp */\n      dup8\n        /* \"cuimianMaster/TimeLock.sol\":1391:1446  abi.encode(_target, _value, _func, _params, _timestamp) */\n      add(0x20, mload(0x40))\n      tag_94\n      swap8\n      swap7\n      swap6\n      swap5\n      swap4\n      swap3\n      swap2\n      swap1\n      tag_95\n      jump\t// in\n    tag_94:\n      mload(0x40)\n      0x20\n      dup2\n      dup4\n      sub\n      sub\n      dup2\n      mstore\n      swap1\n      0x40\n      mstore\n        /* \"cuimianMaster/TimeLock.sol\":1381:1447  keccak256(abi.encode(_target, _value, _func, _params, _timestamp)) */\n      dup1\n      mload\n      swap1\n      0x20\n      add\n      keccak256\n        /* \"cuimianMaster/TimeLock.sol\":1374:1447  return keccak256(abi.encode(_target, _value, _func, _params, _timestamp)) */\n      swap1\n      pop\n        /* \"cuimianMaster/TimeLock.sol\":1054:1455  function getTxId(... */\n      swap8\n      swap7\n      pop\n      pop\n      pop\n      pop\n      pop\n      pop\n      pop\n      jump\t// out\n        /* \"#utility.yul\":7:84   */\n    tag_96:\n        /* \"#utility.yul\":44:51   */\n      0x00\n        /* \"#utility.yul\":73:78   */\n      dup2\n        /* \"#utility.yul\":62:78   */\n      swap1\n      pop\n        /* \"#utility.yul\":7:84   */\n      swap2\n      swap1\n      pop\n      jump\t// out\n        /* \"#utility.yul\":90:208   */\n    tag_97:\n        /* \"#utility.yul\":177:201   */\n      tag_138\n        /* \"#utility.yul\":195:200   */\n      dup2\n        /* \"#utility.yul\":177:201   */\n      tag_96\n      jump\t// in\n    tag_138:\n        /* \"#utility.yul\":172:175   */\n      dup3\n        /* \"#utility.yul\":165:202   */\n      mstore\n        /* \"#utility.yul\":90:208   */\n      pop\n      pop\n      jump\t// out\n        /* \"#utility.yul\":214:436   */\n    tag_17:\n        /* \"#utility.yul\":307:311   */\n      0x00\n        /* \"#utility.yul\":345:347   */\n      0x20\n        /* \"#utility.yul\":334:343   */\n      dup3\n        /* \"#utility.yul\":330:348   */\n      add\n        /* \"#utility.yul\":322:348   */\n      swap1\n      pop\n        /* \"#utility.yul\":358:429   */\n      tag_140\n        /* \"#utility.yul\":426:427   */\n      0x00\n        /* \"#utility.yul\":415:424   */\n      dup4\n        /* \"#utility.yul\":411:428   */\n      add\n        /* \"#utility.yul\":402:408   */\n      dup5\n        /* \"#utility.yul\":358:429   */\n      tag_97\n      jump\t// in\n    tag_140:\n        /* \"#utility.yul\":214:436   */\n      swap3\n      swap2\n      pop\n      pop\n      jump\t// out\n        /* \"#utility.yul\":523:640   */\n    tag_99:\n        /* \"#utility.yul\":632:633   */\n      0x00\n        /* \"#utility.yul\":629:630   */\n      dup1\n        /* \"#utility.yul\":622:634   */\n      revert\n        /* \"#utility.yul\":646:763   */\n    tag_100:\n        /* \"#utility.yul\":755:756   */\n      0x00\n        /* \"#utility.yul\":752:753   */\n      dup1\n        /* \"#utility.yul\":745:757   */\n      revert\n        /* \"#utility.yul\":769:895   */\n    tag_101:\n        /* \"#utility.yul\":806:813   */\n      0x00\n        /* \"#utility.yul\":846:888   */\n      0xffffffffffffffffffffffffffffffffffffffff\n        /* \"#utility.yul\":839:844   */\n      dup3\n        /* \"#utility.yul\":835:889   */\n      and\n        /* \"#utility.yul\":824:889   */\n      swap1\n      pop\n        /* \"#utility.yul\":769:895   */\n      swap2\n      swap1\n      pop\n      jump\t// out\n        /* \"#utility.yul\":901:997   */\n    tag_102:\n        /* \"#utility.yul\":938:945   */\n      0x00\n        /* \"#utility.yul\":967:991   */\n      tag_146\n        /* \"#utility.yul\":985:990   */\n      dup3\n        /* \"#utility.yul\":967:991   */\n      tag_101\n      jump\t// in\n    tag_146:\n        /* \"#utility.yul\":956:991   */\n      swap1\n      pop\n        /* \"#utility.yul\":901:997   */\n      swap2\n      swap1\n      pop\n      jump\t// out\n        /* \"#utility.yul\":1003:1125   */\n    tag_103:\n        /* \"#utility.yul\":1076:1100   */\n      tag_148\n        /* \"#utility.yul\":1094:1099   */\n      dup2\n        /* \"#utility.yul\":1076:1100   */\n      tag_102\n      jump\t// in\n    tag_148:\n        /* \"#utility.yul\":1069:1074   */\n      dup2\n        /* \"#utility.yul\":1066:1101   */\n      eq\n        /* \"#utility.yul\":1056:1119   */\n      tag_149\n      jumpi\n        /* \"#utility.yul\":1115:1116   */\n      0x00\n        /* \"#utility.yul\":1112:1113   */\n      dup1\n        /* \"#utility.yul\":1105:1117   */\n      revert\n        /* \"#utility.yul\":1056:1119   */\n    tag_149:\n        /* \"#utility.yul\":1003:1125   */\n      pop\n      jump\t// out\n        /* \"#utility.yul\":1131:1270   */\n    tag_104:\n        /* \"#utility.yul\":1177:1182   */\n      0x00\n        /* \"#utility.yul\":1215:1221   */\n      dup2\n        /* \"#utility.yul\":1202:1222   */\n      calldataload\n        /* \"#utility.yul\":1193:1222   */\n      swap1\n      pop\n        /* \"#utility.yul\":1231:1264   */\n      tag_151\n        /* \"#utility.yul\":1258:1263   */\n      dup2\n        /* \"#utility.yul\":1231:1264   */\n      tag_103\n      jump\t// in\n    tag_151:\n        /* \"#utility.yul\":1131:1270   */\n      swap3\n      swap2\n      pop\n      pop\n      jump\t// out\n        /* \"#utility.yul\":1276:1398   */\n    tag_105:\n        /* \"#utility.yul\":1349:1373   */\n      tag_153\n        /* \"#utility.yul\":1367:1372   */\n      dup2\n        /* \"#utility.yul\":1349:1373   */\n      tag_96\n      jump\t// in\n    tag_153:\n        /* \"#utility.yul\":1342:1347   */\n      dup2\n        /* \"#utility.yul\":1339:1374   */\n      eq\n        /* \"#utility.yul\":1329:1392   */\n      tag_154\n      jumpi\n        /* \"#utility.yul\":1388:1389   */\n      0x00\n        /* \"#utility.yul\":1385:1386   */\n      dup1\n        /* \"#utility.yul\":1378:1390   */\n      revert\n        /* \"#utility.yul\":1329:1392   */\n    tag_154:\n        /* \"#utility.yul\":1276:1398   */\n      pop\n      jump\t// out\n        /* \"#utility.yul\":1404:1543   */\n    tag_106:\n        /* \"#utility.yul\":1450:1455   */\n      0x00\n        /* \"#utility.yul\":1488:1494   */\n      dup2\n        /* \"#utility.yul\":1475:1495   */\n      calldataload\n        /* \"#utility.yul\":1466:1495   */\n      swap1\n      pop\n        /* \"#utility.yul\":1504:1537   */\n      tag_156\n        /* \"#utility.yul\":1531:1536   */\n      dup2\n        /* \"#utility.yul\":1504:1537   */\n      tag_105\n      jump\t// in\n    tag_156:\n        /* \"#utility.yul\":1404:1543   */\n      swap3\n      swap2\n      pop\n      pop\n      jump\t// out\n        /* \"#utility.yul\":1549:1666   */\n    tag_107:\n        /* \"#utility.yul\":1658:1659   */\n      0x00\n        /* \"#utility.yul\":1655:1656   */\n      dup1\n        /* \"#utility.yul\":1648:1660   */\n      revert\n        /* \"#utility.yul\":1672:1789   */\n    tag_108:\n        /* \"#utility.yul\":1781:1782   */\n      0x00\n        /* \"#utility.yul\":1778:1779   */\n      dup1\n        /* \"#utility.yul\":1771:1783   */\n      revert\n        /* \"#utility.yul\":1795:1912   */\n    tag_109:\n        /* \"#utility.yul\":1904:1905   */\n      0x00\n        /* \"#utility.yul\":1901:1902   */\n      dup1\n        /* \"#utility.yul\":1894:1906   */\n      revert\n        /* \"#utility.yul\":1932:2485   */\n    tag_110:\n        /* \"#utility.yul\":1990:1998   */\n      0x00\n        /* \"#utility.yul\":2000:2006   */\n      dup1\n        /* \"#utility.yul\":2050:2053   */\n      dup4\n        /* \"#utility.yul\":2043:2047   */\n      0x1f\n        /* \"#utility.yul\":2035:2041   */\n      dup5\n        /* \"#utility.yul\":2031:2048   */\n      add\n        /* \"#utility.yul\":2027:2054   */\n      slt\n        /* \"#utility.yul\":2017:2139   */\n      tag_161\n      jumpi\n        /* \"#utility.yul\":2058:2137   */\n      tag_162\n      tag_107\n      jump\t// in\n    tag_162:\n        /* \"#utility.yul\":2017:2139   */\n    tag_161:\n        /* \"#utility.yul\":2171:2177   */\n      dup3\n        /* \"#utility.yul\":2158:2178   */\n      calldataload\n        /* \"#utility.yul\":2148:2178   */\n      swap1\n      pop\n        /* \"#utility.yul\":2201:2219   */\n      0xffffffffffffffff\n        /* \"#utility.yul\":2193:2199   */\n      dup2\n        /* \"#utility.yul\":2190:2220   */\n      gt\n        /* \"#utility.yul\":2187:2304   */\n      iszero\n      tag_163\n      jumpi\n        /* \"#utility.yul\":2223:2302   */\n      tag_164\n      tag_108\n      jump\t// in\n    tag_164:\n        /* \"#utility.yul\":2187:2304   */\n    tag_163:\n        /* \"#utility.yul\":2337:2341   */\n      0x20\n        /* \"#utility.yul\":2329:2335   */\n      dup4\n        /* \"#utility.yul\":2325:2342   */\n      add\n        /* \"#utility.yul\":2313:2342   */\n      swap2\n      pop\n        /* \"#utility.yul\":2391:2394   */\n      dup4\n        /* \"#utility.yul\":2383:2387   */\n      0x01\n        /* \"#utility.yul\":2375:2381   */\n      dup3\n        /* \"#utility.yul\":2371:2388   */\n      mul\n        /* \"#utility.yul\":2361:2369   */\n      dup4\n        /* \"#utility.yul\":2357:2389   */\n      add\n        /* \"#utility.yul\":2354:2395   */\n      gt\n        /* \"#utility.yul\":2351:2479   */\n      iszero\n      tag_165\n      jumpi\n        /* \"#utility.yul\":2398:2477   */\n      tag_166\n      tag_109\n      jump\t// in\n    tag_166:\n        /* \"#utility.yul\":2351:2479   */\n    tag_165:\n        /* \"#utility.yul\":1932:2485   */\n      swap3\n      pop\n      swap3\n      swap1\n      pop\n      jump\t// out\n        /* \"#utility.yul\":2504:3056   */\n    tag_111:\n        /* \"#utility.yul\":2561:2569   */\n      0x00\n        /* \"#utility.yul\":2571:2577   */\n      dup1\n        /* \"#utility.yul\":2621:2624   */\n      dup4\n        /* \"#utility.yul\":2614:2618   */\n      0x1f\n        /* \"#utility.yul\":2606:2612   */\n      dup5\n        /* \"#utility.yul\":2602:2619   */\n      add\n        /* \"#utility.yul\":2598:2625   */\n      slt\n        /* \"#utility.yul\":2588:2710   */\n      tag_168\n      jumpi\n        /* \"#utility.yul\":2629:2708   */\n      tag_169\n      tag_107\n      jump\t// in\n    tag_169:\n        /* \"#utility.yul\":2588:2710   */\n    tag_168:\n        /* \"#utility.yul\":2742:2748   */\n      dup3\n        /* \"#utility.yul\":2729:2749   */\n      calldataload\n        /* \"#utility.yul\":2719:2749   */\n      swap1\n      pop\n        /* \"#utility.yul\":2772:2790   */\n      0xffffffffffffffff\n        /* \"#utility.yul\":2764:2770   */\n      dup2\n        /* \"#utility.yul\":2761:2791   */\n      gt\n        /* \"#utility.yul\":2758:2875   */\n      iszero\n      tag_170\n      jumpi\n        /* \"#utility.yul\":2794:2873   */\n      tag_171\n      tag_108\n      jump\t// in\n    tag_171:\n        /* \"#utility.yul\":2758:2875   */\n    tag_170:\n        /* \"#utility.yul\":2908:2912   */\n      0x20\n        /* \"#utility.yul\":2900:2906   */\n      dup4\n        /* \"#utility.yul\":2896:2913   */\n      add\n        /* \"#utility.yul\":2884:2913   */\n      swap2\n      pop\n        /* \"#utility.yul\":2962:2965   */\n      dup4\n        /* \"#utility.yul\":2954:2958   */\n      0x01\n        /* \"#utility.yul\":2946:2952   */\n      dup3\n        /* \"#utility.yul\":2942:2959   */\n      mul\n        /* \"#utility.yul\":2932:2940   */\n      dup4\n        /* \"#utility.yul\":2928:2960   */\n      add\n        /* \"#utility.yul\":2925:2966   */\n      gt\n        /* \"#utility.yul\":2922:3050   */\n      iszero\n      tag_172\n      jumpi\n        /* \"#utility.yul\":2969:3048   */\n      tag_173\n      tag_109\n      jump\t// in\n    tag_173:\n        /* \"#utility.yul\":2922:3050   */\n    tag_172:\n        /* \"#utility.yul\":2504:3056   */\n      swap3\n      pop\n      swap3\n      swap1\n      pop\n      jump\t// out\n        /* \"#utility.yul\":3062:4371   */\n    tag_21:\n        /* \"#utility.yul\":3180:3186   */\n      0x00\n        /* \"#utility.yul\":3188:3194   */\n      dup1\n        /* \"#utility.yul\":3196:3202   */\n      0x00\n        /* \"#utility.yul\":3204:3210   */\n      dup1\n        /* \"#utility.yul\":3212:3218   */\n      0x00\n        /* \"#utility.yul\":3220:3226   */\n      dup1\n        /* \"#utility.yul\":3228:3234   */\n      0x00\n        /* \"#utility.yul\":3277:3280   */\n      0xa0\n        /* \"#utility.yul\":3265:3274   */\n      dup9\n        /* \"#utility.yul\":3256:3263   */\n      dup11\n        /* \"#utility.yul\":3252:3275   */\n      sub\n        /* \"#utility.yul\":3248:3281   */\n      slt\n        /* \"#utility.yul\":3245:3365   */\n      iszero\n      tag_175\n      jumpi\n        /* \"#utility.yul\":3284:3363   */\n      tag_176\n      tag_99\n      jump\t// in\n    tag_176:\n        /* \"#utility.yul\":3245:3365   */\n    tag_175:\n        /* \"#utility.yul\":3404:3405   */\n      0x00\n        /* \"#utility.yul\":3429:3482   */\n      tag_177\n        /* \"#utility.yul\":3474:3481   */\n      dup11\n        /* \"#utility.yul\":3465:3471   */\n      dup3\n        /* \"#utility.yul\":3454:3463   */\n      dup12\n        /* \"#utility.yul\":3450:3472   */\n      add\n        /* \"#utility.yul\":3429:3482   */\n      tag_104\n      jump\t// in\n    tag_177:\n        /* \"#utility.yul\":3419:3482   */\n      swap8\n      pop\n        /* \"#utility.yul\":3375:3492   */\n      pop\n        /* \"#utility.yul\":3531:3533   */\n      0x20\n        /* \"#utility.yul\":3557:3610   */\n      tag_178\n        /* \"#utility.yul\":3602:3609   */\n      dup11\n        /* \"#utility.yul\":3593:3599   */\n      dup3\n        /* \"#utility.yul\":3582:3591   */\n      dup12\n        /* \"#utility.yul\":3578:3600   */\n      add\n        /* \"#utility.yul\":3557:3610   */\n      tag_106\n      jump\t// in\n    tag_178:\n        /* \"#utility.yul\":3547:3610   */\n      swap7\n      pop\n        /* \"#utility.yul\":3502:3620   */\n      pop\n        /* \"#utility.yul\":3687:3689   */\n      0x40\n        /* \"#utility.yul\":3676:3685   */\n      dup9\n        /* \"#utility.yul\":3672:3690   */\n      add\n        /* \"#utility.yul\":3659:3691   */\n      calldataload\n        /* \"#utility.yul\":3718:3736   */\n      0xffffffffffffffff\n        /* \"#utility.yul\":3710:3716   */\n      dup2\n        /* \"#utility.yul\":3707:3737   */\n      gt\n        /* \"#utility.yul\":3704:3821   */\n      iszero\n      tag_179\n      jumpi\n        /* \"#utility.yul\":3740:3819   */\n      tag_180\n      tag_100\n      jump\t// in\n    tag_180:\n        /* \"#utility.yul\":3704:3821   */\n    tag_179:\n        /* \"#utility.yul\":3853:3918   */\n      tag_181\n        /* \"#utility.yul\":3910:3917   */\n      dup11\n        /* \"#utility.yul\":3901:3907   */\n      dup3\n        /* \"#utility.yul\":3890:3899   */\n      dup12\n        /* \"#utility.yul\":3886:3908   */\n      add\n        /* \"#utility.yul\":3853:3918   */\n      tag_110\n      jump\t// in\n    tag_181:\n        /* \"#utility.yul\":3835:3918   */\n      swap6\n      pop\n      swap6\n      pop\n        /* \"#utility.yul\":3630:3928   */\n      pop\n        /* \"#utility.yul\":3995:3997   */\n      0x60\n        /* \"#utility.yul\":3984:3993   */\n      dup9\n        /* \"#utility.yul\":3980:3998   */\n      add\n        /* \"#utility.yul\":3967:3999   */\n      calldataload\n        /* \"#utility.yul\":4026:4044   */\n      0xffffffffffffffff\n        /* \"#utility.yul\":4018:4024   */\n      dup2\n        /* \"#utility.yul\":4015:4045   */\n      gt\n        /* \"#utility.yul\":4012:4129   */\n      iszero\n      tag_182\n      jumpi\n        /* \"#utility.yul\":4048:4127   */\n      tag_183\n      tag_100\n      jump\t// in\n    tag_183:\n        /* \"#utility.yul\":4012:4129   */\n    tag_182:\n        /* \"#utility.yul\":4161:4225   */\n      tag_184\n        /* \"#utility.yul\":4217:4224   */\n      dup11\n        /* \"#utility.yul\":4208:4214   */\n      dup3\n        /* \"#utility.yul\":4197:4206   */\n      dup12\n        /* \"#utility.yul\":4193:4215   */\n      add\n        /* \"#utility.yul\":4161:4225   */\n      tag_111\n      jump\t// in\n    tag_184:\n        /* \"#utility.yul\":4143:4225   */\n      swap4\n      pop\n      swap4\n      pop\n        /* \"#utility.yul\":3938:4235   */\n      pop\n        /* \"#utility.yul\":4274:4277   */\n      0x80\n        /* \"#utility.yul\":4301:4354   */\n      tag_185\n        /* \"#utility.yul\":4346:4353   */\n      dup11\n        /* \"#utility.yul\":4337:4343   */\n      dup3\n        /* \"#utility.yul\":4326:4335   */\n      dup12\n        /* \"#utility.yul\":4322:4344   */\n      add\n        /* \"#utility.yul\":4301:4354   */\n      tag_106\n      jump\t// in\n    tag_185:\n        /* \"#utility.yul\":4291:4354   */\n      swap2\n      pop\n        /* \"#utility.yul\":4245:4364   */\n      pop\n        /* \"#utility.yul\":3062:4371   */\n      swap3\n      swap6\n      swap9\n      swap2\n      swap5\n      swap8\n      pop\n      swap3\n      swap6\n      pop\n      jump\t// out\n        /* \"#utility.yul\":4377:4495   */\n    tag_112:\n        /* \"#utility.yul\":4464:4488   */\n      tag_187\n        /* \"#utility.yul\":4482:4487   */\n      dup2\n        /* \"#utility.yul\":4464:4488   */\n      tag_102\n      jump\t// in\n    tag_187:\n        /* \"#utility.yul\":4459:4462   */\n      dup3\n        /* \"#utility.yul\":4452:4489   */\n      mstore\n        /* \"#utility.yul\":4377:4495   */\n      pop\n      pop\n      jump\t// out\n        /* \"#utility.yul\":4501:4723   */\n    tag_27:\n        /* \"#utility.yul\":4594:4598   */\n      0x00\n        /* \"#utility.yul\":4632:4634   */\n      0x20\n        /* \"#utility.yul\":4621:4630   */\n      dup3\n        /* \"#utility.yul\":4617:4635   */\n      add\n        /* \"#utility.yul\":4609:4635   */\n      swap1\n      pop\n        /* \"#utility.yul\":4645:4716   */\n      tag_189\n        /* \"#utility.yul\":4713:4714   */\n      0x00\n        /* \"#utility.yul\":4702:4711   */\n      dup4\n        /* \"#utility.yul\":4698:4715   */\n      add\n        /* \"#utility.yul\":4689:4695   */\n      dup5\n        /* \"#utility.yul\":4645:4716   */\n      tag_112\n      jump\t// in\n    tag_189:\n        /* \"#utility.yul\":4501:4723   */\n      swap3\n      swap2\n      pop\n      pop\n      jump\t// out\n        /* \"#utility.yul\":4729:4827   */\n    tag_113:\n        /* \"#utility.yul\":4780:4786   */\n      0x00\n        /* \"#utility.yul\":4814:4819   */\n      dup2\n        /* \"#utility.yul\":4808:4820   */\n      mload\n        /* \"#utility.yul\":4798:4820   */\n      swap1\n      pop\n        /* \"#utility.yul\":4729:4827   */\n      swap2\n      swap1\n      pop\n      jump\t// out\n        /* \"#utility.yul\":4833:5001   */\n    tag_114:\n        /* \"#utility.yul\":4916:4927   */\n      0x00\n        /* \"#utility.yul\":4950:4956   */\n      dup3\n        /* \"#utility.yul\":4945:4948   */\n      dup3\n        /* \"#utility.yul\":4938:4957   */\n      mstore\n        /* \"#utility.yul\":4990:4994   */\n      0x20\n        /* \"#utility.yul\":4985:4988   */\n      dup3\n        /* \"#utility.yul\":4981:4995   */\n      add\n        /* \"#utility.yul\":4966:4995   */\n      swap1\n      pop\n        /* \"#utility.yul\":4833:5001   */\n      swap3\n      swap2\n      pop\n      pop\n      jump\t// out\n        /* \"#utility.yul\":5007:5253   */\n    tag_115:\n        /* \"#utility.yul\":5088:5089   */\n      0x00\n        /* \"#utility.yul\":5098:5211   */\n    tag_193:\n        /* \"#utility.yul\":5112:5118   */\n      dup4\n        /* \"#utility.yul\":5109:5110   */\n      dup2\n        /* \"#utility.yul\":5106:5119   */\n      lt\n        /* \"#utility.yul\":5098:5211   */\n      iszero\n      tag_195\n      jumpi\n        /* \"#utility.yul\":5197:5198   */\n      dup1\n        /* \"#utility.yul\":5192:5195   */\n      dup3\n        /* \"#utility.yul\":5188:5199   */\n      add\n        /* \"#utility.yul\":5182:5200   */\n      mload\n        /* \"#utility.yul\":5178:5179   */\n      dup2\n        /* \"#utility.yul\":5173:5176   */\n      dup5\n        /* \"#utility.yul\":5169:5180   */\n      add\n        /* \"#utility.yul\":5162:5201   */\n      mstore\n        /* \"#utility.yul\":5134:5136   */\n      0x20\n        /* \"#utility.yul\":5131:5132   */\n      dup2\n        /* \"#utility.yul\":5127:5137   */\n      add\n        /* \"#utility.yul\":5122:5137   */\n      swap1\n      pop\n        /* \"#utility.yul\":5098:5211   */\n      jump(tag_193)\n    tag_195:\n        /* \"#utility.yul\":5245:5246   */\n      0x00\n        /* \"#utility.yul\":5236:5242   */\n      dup5\n        /* \"#utility.yul\":5231:5234   */\n      dup5\n        /* \"#utility.yul\":5227:5243   */\n      add\n        /* \"#utility.yul\":5220:5247   */\n      mstore\n        /* \"#utility.yul\":5069:5253   */\n      pop\n        /* \"#utility.yul\":5007:5253   */\n      pop\n      pop\n      pop\n      jump\t// out\n        /* \"#utility.yul\":5259:5361   */\n    tag_116:\n        /* \"#utility.yul\":5300:5306   */\n      0x00\n        /* \"#utility.yul\":5351:5353   */\n      0x1f\n        /* \"#utility.yul\":5347:5354   */\n      not\n        /* \"#utility.yul\":5342:5344   */\n      0x1f\n        /* \"#utility.yul\":5335:5340   */\n      dup4\n        /* \"#utility.yul\":5331:5345   */\n      add\n        /* \"#utility.yul\":5327:5355   */\n      and\n        /* \"#utility.yul\":5317:5355   */\n      swap1\n      pop\n        /* \"#utility.yul\":5259:5361   */\n      swap2\n      swap1\n      pop\n      jump\t// out\n        /* \"#utility.yul\":5367:5740   */\n    tag_117:\n        /* \"#utility.yul\":5453:5456   */\n      0x00\n        /* \"#utility.yul\":5481:5519   */\n      tag_198\n        /* \"#utility.yul\":5513:5518   */\n      dup3\n        /* \"#utility.yul\":5481:5519   */\n      tag_113\n      jump\t// in\n    tag_198:\n        /* \"#utility.yul\":5535:5605   */\n      tag_199\n        /* \"#utility.yul\":5598:5604   */\n      dup2\n        /* \"#utility.yul\":5593:5596   */\n      dup6\n        /* \"#utility.yul\":5535:5605   */\n      tag_114\n      jump\t// in\n    tag_199:\n        /* \"#utility.yul\":5528:5605   */\n      swap4\n      pop\n        /* \"#utility.yul\":5614:5679   */\n      tag_200\n        /* \"#utility.yul\":5672:5678   */\n      dup2\n        /* \"#utility.yul\":5667:5670   */\n      dup6\n        /* \"#utility.yul\":5660:5664   */\n      0x20\n        /* \"#utility.yul\":5653:5658   */\n      dup7\n        /* \"#utility.yul\":5649:5665   */\n      add\n        /* \"#utility.yul\":5614:5679   */\n      tag_115\n      jump\t// in\n    tag_200:\n        /* \"#utility.yul\":5704:5733   */\n      tag_201\n        /* \"#utility.yul\":5726:5732   */\n      dup2\n        /* \"#utility.yul\":5704:5733   */\n      tag_116\n      jump\t// in\n    tag_201:\n        /* \"#utility.yul\":5699:5702   */\n      dup5\n        /* \"#utility.yul\":5695:5734   */\n      add\n        /* \"#utility.yul\":5688:5734   */\n      swap2\n      pop\n        /* \"#utility.yul\":5457:5740   */\n      pop\n        /* \"#utility.yul\":5367:5740   */\n      swap3\n      swap2\n      pop\n      pop\n      jump\t// out\n        /* \"#utility.yul\":5746:6055   */\n    tag_36:\n        /* \"#utility.yul\":5857:5861   */\n      0x00\n        /* \"#utility.yul\":5895:5897   */\n      0x20\n        /* \"#utility.yul\":5884:5893   */\n      dup3\n        /* \"#utility.yul\":5880:5898   */\n      add\n        /* \"#utility.yul\":5872:5898   */\n      swap1\n      pop\n        /* \"#utility.yul\":5944:5953   */\n      dup2\n        /* \"#utility.yul\":5938:5942   */\n      dup2\n        /* \"#utility.yul\":5934:5954   */\n      sub\n        /* \"#utility.yul\":5930:5931   */\n      0x00\n        /* \"#utility.yul\":5919:5928   */\n      dup4\n        /* \"#utility.yul\":5915:5932   */\n      add\n        /* \"#utility.yul\":5908:5955   */\n      mstore\n        /* \"#utility.yul\":5972:6048   */\n      tag_203\n        /* \"#utility.yul\":6043:6047   */\n      dup2\n        /* \"#utility.yul\":6034:6040   */\n      dup5\n        /* \"#utility.yul\":5972:6048   */\n      tag_117\n      jump\t// in\n    tag_203:\n        /* \"#utility.yul\":5964:6048   */\n      swap1\n      pop\n        /* \"#utility.yul\":5746:6055   */\n      swap3\n      swap2\n      pop\n      pop\n      jump\t// out\n        /* \"#utility.yul\":6061:6138   */\n    tag_118:\n        /* \"#utility.yul\":6098:6105   */\n      0x00\n        /* \"#utility.yul\":6127:6132   */\n      dup2\n        /* \"#utility.yul\":6116:6132   */\n      swap1\n      pop\n        /* \"#utility.yul\":6061:6138   */\n      swap2\n      swap1\n      pop\n      jump\t// out\n        /* \"#utility.yul\":6144:6266   */\n    tag_119:\n        /* \"#utility.yul\":6217:6241   */\n      tag_206\n        /* \"#utility.yul\":6235:6240   */\n      dup2\n        /* \"#utility.yul\":6217:6241   */\n      tag_118\n      jump\t// in\n    tag_206:\n        /* \"#utility.yul\":6210:6215   */\n      dup2\n        /* \"#utility.yul\":6207:6242   */\n      eq\n        /* \"#utility.yul\":6197:6260   */\n      tag_207\n      jumpi\n        /* \"#utility.yul\":6256:6257   */\n      0x00\n        /* \"#utility.yul\":6253:6254   */\n      dup1\n        /* \"#utility.yul\":6246:6258   */\n      revert\n        /* \"#utility.yul\":6197:6260   */\n    tag_207:\n        /* \"#utility.yul\":6144:6266   */\n      pop\n      jump\t// out\n        /* \"#utility.yul\":6272:6411   */\n    tag_120:\n        /* \"#utility.yul\":6318:6323   */\n      0x00\n        /* \"#utility.yul\":6356:6362   */\n      dup2\n        /* \"#utility.yul\":6343:6363   */\n      calldataload\n        /* \"#utility.yul\":6334:6363   */\n      swap1\n      pop\n        /* \"#utility.yul\":6372:6405   */\n      tag_209\n        /* \"#utility.yul\":6399:6404   */\n      dup2\n        /* \"#utility.yul\":6372:6405   */\n      tag_119\n      jump\t// in\n    tag_209:\n        /* \"#utility.yul\":6272:6411   */\n      swap3\n      swap2\n      pop\n      pop\n      jump\t// out\n        /* \"#utility.yul\":6417:6746   */\n    tag_44:\n        /* \"#utility.yul\":6476:6482   */\n      0x00\n        /* \"#utility.yul\":6525:6527   */\n      0x20\n        /* \"#utility.yul\":6513:6522   */\n      dup3\n        /* \"#utility.yul\":6504:6511   */\n      dup5\n        /* \"#utility.yul\":6500:6523   */\n      sub\n        /* \"#utility.yul\":6496:6528   */\n      slt\n        /* \"#utility.yul\":6493:6612   */\n      iszero\n      tag_211\n      jumpi\n        /* \"#utility.yul\":6531:6610   */\n      tag_212\n      tag_99\n      jump\t// in\n    tag_212:\n        /* \"#utility.yul\":6493:6612   */\n    tag_211:\n        /* \"#utility.yul\":6651:6652   */\n      0x00\n        /* \"#utility.yul\":6676:6729   */\n      tag_213\n        /* \"#utility.yul\":6721:6728   */\n      dup5\n        /* \"#utility.yul\":6712:6718   */\n      dup3\n        /* \"#utility.yul\":6701:6710   */\n      dup6\n        /* \"#utility.yul\":6697:6719   */\n      add\n        /* \"#utility.yul\":6676:6729   */\n      tag_120\n      jump\t// in\n    tag_213:\n        /* \"#utility.yul\":6666:6729   */\n      swap2\n      pop\n        /* \"#utility.yul\":6622:6739   */\n      pop\n        /* \"#utility.yul\":6417:6746   */\n      swap3\n      swap2\n      pop\n      pop\n      jump\t// out\n        /* \"#utility.yul\":6752:6921   */\n    tag_121:\n        /* \"#utility.yul\":6836:6847   */\n      0x00\n        /* \"#utility.yul\":6870:6876   */\n      dup3\n        /* \"#utility.yul\":6865:6868   */\n      dup3\n        /* \"#utility.yul\":6858:6877   */\n      mstore\n        /* \"#utility.yul\":6910:6914   */\n      0x20\n        /* \"#utility.yul\":6905:6908   */\n      dup3\n        /* \"#utility.yul\":6901:6915   */\n      add\n        /* \"#utility.yul\":6886:6915   */\n      swap1\n      pop\n        /* \"#utility.yul\":6752:6921   */\n      swap3\n      swap2\n      pop\n      pop\n      jump\t// out\n        /* \"#utility.yul\":6927:7092   */\n    tag_122:\n        /* \"#utility.yul\":7067:7084   */\n      0x4e6f74204f776e6572204572726f720000000000000000000000000000000000\n        /* \"#utility.yul\":7063:7064   */\n      0x00\n        /* \"#utility.yul\":7055:7061   */\n      dup3\n        /* \"#utility.yul\":7051:7065   */\n      add\n        /* \"#utility.yul\":7044:7085   */\n      mstore\n        /* \"#utility.yul\":6927:7092   */\n      pop\n      jump\t// out\n        /* \"#utility.yul\":7098:7464   */\n    tag_123:\n        /* \"#utility.yul\":7240:7243   */\n      0x00\n        /* \"#utility.yul\":7261:7328   */\n      tag_217\n        /* \"#utility.yul\":7325:7327   */\n      0x0f\n        /* \"#utility.yul\":7320:7323   */\n      dup4\n        /* \"#utility.yul\":7261:7328   */\n      tag_121\n      jump\t// in\n    tag_217:\n        /* \"#utility.yul\":7254:7328   */\n      swap2\n      pop\n        /* \"#utility.yul\":7337:7430   */\n      tag_218\n        /* \"#utility.yul\":7426:7429   */\n      dup3\n        /* \"#utility.yul\":7337:7430   */\n      tag_122\n      jump\t// in\n    tag_218:\n        /* \"#utility.yul\":7455:7457   */\n      0x20\n        /* \"#utility.yul\":7450:7453   */\n      dup3\n        /* \"#utility.yul\":7446:7458   */\n      add\n        /* \"#utility.yul\":7439:7458   */\n      swap1\n      pop\n        /* \"#utility.yul\":7098:7464   */\n      swap2\n      swap1\n      pop\n      jump\t// out\n        /* \"#utility.yul\":7470:7889   */\n    tag_49:\n        /* \"#utility.yul\":7636:7640   */\n      0x00\n        /* \"#utility.yul\":7674:7676   */\n      0x20\n        /* \"#utility.yul\":7663:7672   */\n      dup3\n        /* \"#utility.yul\":7659:7677   */\n      add\n        /* \"#utility.yul\":7651:7677   */\n      swap1\n      pop\n        /* \"#utility.yul\":7723:7732   */\n      dup2\n        /* \"#utility.yul\":7717:7721   */\n      dup2\n        /* \"#utility.yul\":7713:7733   */\n      sub\n        /* \"#utility.yul\":7709:7710   */\n      0x00\n        /* \"#utility.yul\":7698:7707   */\n      dup4\n        /* \"#utility.yul\":7694:7711   */\n      add\n        /* \"#utility.yul\":7687:7734   */\n      mstore\n        /* \"#utility.yul\":7751:7882   */\n      tag_220\n        /* \"#utility.yul\":7877:7881   */\n      dup2\n        /* \"#utility.yul\":7751:7882   */\n      tag_123\n      jump\t// in\n    tag_220:\n        /* \"#utility.yul\":7743:7882   */\n      swap1\n      pop\n        /* \"#utility.yul\":7470:7889   */\n      swap2\n      swap1\n      pop\n      jump\t// out\n        /* \"#utility.yul\":7895:8013   */\n    tag_124:\n        /* \"#utility.yul\":7982:8006   */\n      tag_222\n        /* \"#utility.yul\":8000:8005   */\n      dup2\n        /* \"#utility.yul\":7982:8006   */\n      tag_118\n      jump\t// in\n    tag_222:\n        /* \"#utility.yul\":7977:7980   */\n      dup3\n        /* \"#utility.yul\":7970:8007   */\n      mstore\n        /* \"#utility.yul\":7895:8013   */\n      pop\n      pop\n      jump\t// out\n        /* \"#utility.yul\":8019:8241   */\n    tag_55:\n        /* \"#utility.yul\":8112:8116   */\n      0x00\n        /* \"#utility.yul\":8150:8152   */\n      0x20\n        /* \"#utility.yul\":8139:8148   */\n      dup3\n        /* \"#utility.yul\":8135:8153   */\n      add\n        /* \"#utility.yul\":8127:8153   */\n      swap1\n      pop\n        /* \"#utility.yul\":8163:8234   */\n      tag_224\n        /* \"#utility.yul\":8231:8232   */\n      0x00\n        /* \"#utility.yul\":8220:8229   */\n      dup4\n        /* \"#utility.yul\":8216:8233   */\n      add\n        /* \"#utility.yul\":8207:8213   */\n      dup5\n        /* \"#utility.yul\":8163:8234   */\n      tag_124\n      jump\t// in\n    tag_224:\n        /* \"#utility.yul\":8019:8241   */\n      swap3\n      swap2\n      pop\n      pop\n      jump\t// out\n        /* \"#utility.yul\":8247:8427   */\n    tag_125:\n        /* \"#utility.yul\":8295:8372   */\n      0x4e487b7100000000000000000000000000000000000000000000000000000000\n        /* \"#utility.yul\":8292:8293   */\n      0x00\n        /* \"#utility.yul\":8285:8373   */\n      mstore\n        /* \"#utility.yul\":8392:8396   */\n      0x11\n        /* \"#utility.yul\":8389:8390   */\n      0x04\n        /* \"#utility.yul\":8382:8397   */\n      mstore\n        /* \"#utility.yul\":8416:8420   */\n      0x24\n        /* \"#utility.yul\":8413:8414   */\n      0x00\n        /* \"#utility.yul\":8406:8421   */\n      revert\n        /* \"#utility.yul\":8433:8624   */\n    tag_57:\n        /* \"#utility.yul\":8473:8476   */\n      0x00\n        /* \"#utility.yul\":8492:8512   */\n      tag_227\n        /* \"#utility.yul\":8510:8511   */\n      dup3\n        /* \"#utility.yul\":8492:8512   */\n      tag_96\n      jump\t// in\n    tag_227:\n        /* \"#utility.yul\":8487:8512   */\n      swap2\n      pop\n        /* \"#utility.yul\":8526:8546   */\n      tag_228\n        /* \"#utility.yul\":8544:8545   */\n      dup4\n        /* \"#utility.yul\":8526:8546   */\n      tag_96\n      jump\t// in\n    tag_228:\n        /* \"#utility.yul\":8521:8546   */\n      swap3\n      pop\n        /* \"#utility.yul\":8569:8570   */\n      dup3\n        /* \"#utility.yul\":8566:8567   */\n      dup3\n        /* \"#utility.yul\":8562:8571   */\n      add\n        /* \"#utility.yul\":8555:8571   */\n      swap1\n      pop\n        /* \"#utility.yul\":8590:8593   */\n      dup1\n        /* \"#utility.yul\":8587:8588   */\n      dup3\n        /* \"#utility.yul\":8584:8594   */\n      gt\n        /* \"#utility.yul\":8581:8617   */\n      iszero\n      tag_229\n      jumpi\n        /* \"#utility.yul\":8597:8615   */\n      tag_230\n      tag_125\n      jump\t// in\n    tag_230:\n        /* \"#utility.yul\":8581:8617   */\n    tag_229:\n        /* \"#utility.yul\":8433:8624   */\n      swap3\n      swap2\n      pop\n      pop\n      jump\t// out\n        /* \"#utility.yul\":8630:8962   */\n    tag_62:\n        /* \"#utility.yul\":8751:8755   */\n      0x00\n        /* \"#utility.yul\":8789:8791   */\n      0x40\n        /* \"#utility.yul\":8778:8787   */\n      dup3\n        /* \"#utility.yul\":8774:8792   */\n      add\n        /* \"#utility.yul\":8766:8792   */\n      swap1\n      pop\n        /* \"#utility.yul\":8802:8873   */\n      tag_232\n        /* \"#utility.yul\":8870:8871   */\n      0x00\n        /* \"#utility.yul\":8859:8868   */\n      dup4\n        /* \"#utility.yul\":8855:8872   */\n      add\n        /* \"#utility.yul\":8846:8852   */\n      dup6\n        /* \"#utility.yul\":8802:8873   */\n      tag_97\n      jump\t// in\n    tag_232:\n        /* \"#utility.yul\":8883:8955   */\n      tag_233\n        /* \"#utility.yul\":8951:8953   */\n      0x20\n        /* \"#utility.yul\":8940:8949   */\n      dup4\n        /* \"#utility.yul\":8936:8954   */\n      add\n        /* \"#utility.yul\":8927:8933   */\n      dup5\n        /* \"#utility.yul\":8883:8955   */\n      tag_97\n      jump\t// in\n    tag_233:\n        /* \"#utility.yul\":8630:8962   */\n      swap4\n      swap3\n      pop\n      pop\n      pop\n      jump\t// out\n        /* \"#utility.yul\":8968:9114   */\n    tag_126:\n        /* \"#utility.yul\":9065:9071   */\n      dup3\n        /* \"#utility.yul\":9060:9063   */\n      dup2\n        /* \"#utility.yul\":9055:9058   */\n      dup4\n        /* \"#utility.yul\":9042:9072   */\n      calldatacopy\n        /* \"#utility.yul\":9106:9107   */\n      0x00\n        /* \"#utility.yul\":9097:9103   */\n      dup4\n        /* \"#utility.yul\":9092:9095   */\n      dup4\n        /* \"#utility.yul\":9088:9104   */\n      add\n        /* \"#utility.yul\":9081:9108   */\n      mstore\n        /* \"#utility.yul\":8968:9114   */\n      pop\n      pop\n      pop\n      jump\t// out\n        /* \"#utility.yul\":9144:9461   */\n    tag_127:\n        /* \"#utility.yul\":9242:9245   */\n      0x00\n        /* \"#utility.yul\":9263:9334   */\n      tag_236\n        /* \"#utility.yul\":9327:9333   */\n      dup4\n        /* \"#utility.yul\":9322:9325   */\n      dup6\n        /* \"#utility.yul\":9263:9334   */\n      tag_121\n      jump\t// in\n    tag_236:\n        /* \"#utility.yul\":9256:9334   */\n      swap4\n      pop\n        /* \"#utility.yul\":9344:9400   */\n      tag_237\n        /* \"#utility.yul\":9393:9399   */\n      dup4\n        /* \"#utility.yul\":9388:9391   */\n      dup6\n        /* \"#utility.yul\":9381:9386   */\n      dup5\n        /* \"#utility.yul\":9344:9400   */\n      tag_126\n      jump\t// in\n    tag_237:\n        /* \"#utility.yul\":9425:9454   */\n      tag_238\n        /* \"#utility.yul\":9447:9453   */\n      dup4\n        /* \"#utility.yul\":9425:9454   */\n      tag_116\n      jump\t// in\n    tag_238:\n        /* \"#utility.yul\":9420:9423   */\n      dup5\n        /* \"#utility.yul\":9416:9455   */\n      add\n        /* \"#utility.yul\":9409:9455   */\n      swap1\n      pop\n        /* \"#utility.yul\":9144:9461   */\n      swap4\n      swap3\n      pop\n      pop\n      pop\n      jump\t// out\n        /* \"#utility.yul\":9489:9803   */\n    tag_128:\n        /* \"#utility.yul\":9585:9588   */\n      0x00\n        /* \"#utility.yul\":9606:9676   */\n      tag_240\n        /* \"#utility.yul\":9669:9675   */\n      dup4\n        /* \"#utility.yul\":9664:9667   */\n      dup6\n        /* \"#utility.yul\":9606:9676   */\n      tag_114\n      jump\t// in\n    tag_240:\n        /* \"#utility.yul\":9599:9676   */\n      swap4\n      pop\n        /* \"#utility.yul\":9686:9742   */\n      tag_241\n        /* \"#utility.yul\":9735:9741   */\n      dup4\n        /* \"#utility.yul\":9730:9733   */\n      dup6\n        /* \"#utility.yul\":9723:9728   */\n      dup5\n        /* \"#utility.yul\":9686:9742   */\n      tag_126\n      jump\t// in\n    tag_241:\n        /* \"#utility.yul\":9767:9796   */\n      tag_242\n        /* \"#utility.yul\":9789:9795   */\n      dup4\n        /* \"#utility.yul\":9767:9796   */\n      tag_116\n      jump\t// in\n    tag_242:\n        /* \"#utility.yul\":9762:9765   */\n      dup5\n        /* \"#utility.yul\":9758:9797   */\n      add\n        /* \"#utility.yul\":9751:9797   */\n      swap1\n      pop\n        /* \"#utility.yul\":9489:9803   */\n      swap4\n      swap3\n      pop\n      pop\n      pop\n      jump\t// out\n        /* \"#utility.yul\":9809:10580   */\n    tag_64:\n        /* \"#utility.yul\":10044:10048   */\n      0x00\n        /* \"#utility.yul\":10082:10085   */\n      0x80\n        /* \"#utility.yul\":10071:10080   */\n      dup3\n        /* \"#utility.yul\":10067:10086   */\n      add\n        /* \"#utility.yul\":10059:10086   */\n      swap1\n      pop\n        /* \"#utility.yul\":10096:10167   */\n      tag_244\n        /* \"#utility.yul\":10164:10165   */\n      0x00\n        /* \"#utility.yul\":10153:10162   */\n      dup4\n        /* \"#utility.yul\":10149:10166   */\n      add\n        /* \"#utility.yul\":10140:10146   */\n      dup10\n        /* \"#utility.yul\":10096:10167   */\n      tag_97\n      jump\t// in\n    tag_244:\n        /* \"#utility.yul\":10214:10223   */\n      dup2\n        /* \"#utility.yul\":10208:10212   */\n      dup2\n        /* \"#utility.yul\":10204:10224   */\n      sub\n        /* \"#utility.yul\":10199:10201   */\n      0x20\n        /* \"#utility.yul\":10188:10197   */\n      dup4\n        /* \"#utility.yul\":10184:10202   */\n      add\n        /* \"#utility.yul\":10177:10225   */\n      mstore\n        /* \"#utility.yul\":10242:10330   */\n      tag_245\n        /* \"#utility.yul\":10325:10329   */\n      dup2\n        /* \"#utility.yul\":10316:10322   */\n      dup8\n        /* \"#utility.yul\":10308:10314   */\n      dup10\n        /* \"#utility.yul\":10242:10330   */\n      tag_127\n      jump\t// in\n    tag_245:\n        /* \"#utility.yul\":10234:10330   */\n      swap1\n      pop\n        /* \"#utility.yul\":10377:10386   */\n      dup2\n        /* \"#utility.yul\":10371:10375   */\n      dup2\n        /* \"#utility.yul\":10367:10387   */\n      sub\n        /* \"#utility.yul\":10362:10364   */\n      0x40\n        /* \"#utility.yul\":10351:10360   */\n      dup4\n        /* \"#utility.yul\":10347:10365   */\n      add\n        /* \"#utility.yul\":10340:10388   */\n      mstore\n        /* \"#utility.yul\":10405:10491   */\n      tag_246\n        /* \"#utility.yul\":10486:10490   */\n      dup2\n        /* \"#utility.yul\":10477:10483   */\n      dup6\n        /* \"#utility.yul\":10469:10475   */\n      dup8\n        /* \"#utility.yul\":10405:10491   */\n      tag_128\n      jump\t// in\n    tag_246:\n        /* \"#utility.yul\":10397:10491   */\n      swap1\n      pop\n        /* \"#utility.yul\":10501:10573   */\n      tag_247\n        /* \"#utility.yul\":10569:10571   */\n      0x60\n        /* \"#utility.yul\":10558:10567   */\n      dup4\n        /* \"#utility.yul\":10554:10572   */\n      add\n        /* \"#utility.yul\":10545:10551   */\n      dup5\n        /* \"#utility.yul\":10501:10573   */\n      tag_97\n      jump\t// in\n    tag_247:\n        /* \"#utility.yul\":9809:10580   */\n      swap8\n      swap7\n      pop\n      pop\n      pop\n      pop\n      pop\n      pop\n      pop\n      jump\t// out\n        /* \"#utility.yul\":10586:10733   */\n    tag_129:\n        /* \"#utility.yul\":10687:10698   */\n      0x00\n        /* \"#utility.yul\":10724:10727   */\n      dup2\n        /* \"#utility.yul\":10709:10727   */\n      swap1\n      pop\n        /* \"#utility.yul\":10586:10733   */\n      swap3\n      swap2\n      pop\n      pop\n      jump\t// out\n        /* \"#utility.yul\":10761:11088   */\n    tag_130:\n        /* \"#utility.yul\":10875:10878   */\n      0x00\n        /* \"#utility.yul\":10896:10984   */\n      tag_250\n        /* \"#utility.yul\":10977:10983   */\n      dup4\n        /* \"#utility.yul\":10972:10975   */\n      dup6\n        /* \"#utility.yul\":10896:10984   */\n      tag_129\n      jump\t// in\n    tag_250:\n        /* \"#utility.yul\":10889:10984   */\n      swap4\n      pop\n        /* \"#utility.yul\":10994:11050   */\n      tag_251\n        /* \"#utility.yul\":11043:11049   */\n      dup4\n        /* \"#utility.yul\":11038:11041   */\n      dup6\n        /* \"#utility.yul\":11031:11036   */\n      dup5\n        /* \"#utility.yul\":10994:11050   */\n      tag_126\n      jump\t// in\n    tag_251:\n        /* \"#utility.yul\":11075:11081   */\n      dup3\n        /* \"#utility.yul\":11070:11073   */\n      dup5\n        /* \"#utility.yul\":11066:11082   */\n      add\n        /* \"#utility.yul\":11059:11082   */\n      swap1\n      pop\n        /* \"#utility.yul\":10761:11088   */\n      swap4\n      swap3\n      pop\n      pop\n      pop\n      jump\t// out\n        /* \"#utility.yul\":11094:11385   */\n    tag_77:\n        /* \"#utility.yul\":11234:11237   */\n      0x00\n        /* \"#utility.yul\":11256:11359   */\n      tag_253\n        /* \"#utility.yul\":11355:11358   */\n      dup3\n        /* \"#utility.yul\":11346:11352   */\n      dup5\n        /* \"#utility.yul\":11338:11344   */\n      dup7\n        /* \"#utility.yul\":11256:11359   */\n      tag_130\n      jump\t// in\n    tag_253:\n        /* \"#utility.yul\":11249:11359   */\n      swap2\n      pop\n        /* \"#utility.yul\":11376:11379   */\n      dup2\n        /* \"#utility.yul\":11369:11379   */\n      swap1\n      pop\n        /* \"#utility.yul\":11094:11385   */\n      swap4\n      swap3\n      pop\n      pop\n      pop\n      jump\t// out\n        /* \"#utility.yul\":11391:11540   */\n    tag_131:\n        /* \"#utility.yul\":11427:11434   */\n      0x00\n        /* \"#utility.yul\":11467:11533   */\n      0xffffffff00000000000000000000000000000000000000000000000000000000\n        /* \"#utility.yul\":11460:11465   */\n      dup3\n        /* \"#utility.yul\":11456:11534   */\n      and\n        /* \"#utility.yul\":11445:11534   */\n      swap1\n      pop\n        /* \"#utility.yul\":11391:11540   */\n      swap2\n      swap1\n      pop\n      jump\t// out\n        /* \"#utility.yul\":11546:11624   */\n    tag_132:\n        /* \"#utility.yul\":11584:11591   */\n      0x00\n        /* \"#utility.yul\":11613:11618   */\n      dup2\n        /* \"#utility.yul\":11602:11618   */\n      swap1\n      pop\n        /* \"#utility.yul\":11546:11624   */\n      swap2\n      swap1\n      pop\n      jump\t// out\n        /* \"#utility.yul\":11630:11783   */\n    tag_133:\n        /* \"#utility.yul\":11733:11776   */\n      tag_257\n        /* \"#utility.yul\":11752:11775   */\n      tag_258\n        /* \"#utility.yul\":11769:11774   */\n      dup3\n        /* \"#utility.yul\":11752:11775   */\n      tag_131\n      jump\t// in\n    tag_258:\n        /* \"#utility.yul\":11733:11776   */\n      tag_132\n      jump\t// in\n    tag_257:\n        /* \"#utility.yul\":11728:11731   */\n      dup3\n        /* \"#utility.yul\":11721:11777   */\n      mstore\n        /* \"#utility.yul\":11630:11783   */\n      pop\n      pop\n      jump\t// out\n        /* \"#utility.yul\":11789:12216   */\n    tag_79:\n        /* \"#utility.yul\":11955:11958   */\n      0x00\n        /* \"#utility.yul\":11970:12043   */\n      tag_260\n        /* \"#utility.yul\":12039:12042   */\n      dup3\n        /* \"#utility.yul\":12030:12036   */\n      dup7\n        /* \"#utility.yul\":11970:12043   */\n      tag_133\n      jump\t// in\n    tag_260:\n        /* \"#utility.yul\":12068:12069   */\n      0x04\n        /* \"#utility.yul\":12063:12066   */\n      dup3\n        /* \"#utility.yul\":12059:12070   */\n      add\n        /* \"#utility.yul\":12052:12070   */\n      swap2\n      pop\n        /* \"#utility.yul\":12087:12190   */\n      tag_261\n        /* \"#utility.yul\":12186:12189   */\n      dup3\n        /* \"#utility.yul\":12177:12183   */\n      dup5\n        /* \"#utility.yul\":12169:12175   */\n      dup7\n        /* \"#utility.yul\":12087:12190   */\n      tag_130\n      jump\t// in\n    tag_261:\n        /* \"#utility.yul\":12080:12190   */\n      swap2\n      pop\n        /* \"#utility.yul\":12207:12210   */\n      dup2\n        /* \"#utility.yul\":12200:12210   */\n      swap1\n      pop\n        /* \"#utility.yul\":11789:12216   */\n      swap5\n      swap4\n      pop\n      pop\n      pop\n      pop\n      jump\t// out\n        /* \"#utility.yul\":12222:12608   */\n    tag_134:\n        /* \"#utility.yul\":12326:12329   */\n      0x00\n        /* \"#utility.yul\":12354:12392   */\n      tag_263\n        /* \"#utility.yul\":12386:12391   */\n      dup3\n        /* \"#utility.yul\":12354:12392   */\n      tag_113\n      jump\t// in\n    tag_263:\n        /* \"#utility.yul\":12408:12496   */\n      tag_264\n        /* \"#utility.yul\":12489:12495   */\n      dup2\n        /* \"#utility.yul\":12484:12487   */\n      dup6\n        /* \"#utility.yul\":12408:12496   */\n      tag_129\n      jump\t// in\n    tag_264:\n        /* \"#utility.yul\":12401:12496   */\n      swap4\n      pop\n        /* \"#utility.yul\":12505:12570   */\n      tag_265\n        /* \"#utility.yul\":12563:12569   */\n      dup2\n        /* \"#utility.yul\":12558:12561   */\n      dup6\n        /* \"#utility.yul\":12551:12555   */\n      0x20\n        /* \"#utility.yul\":12544:12549   */\n      dup7\n        /* \"#utility.yul\":12540:12556   */\n      add\n        /* \"#utility.yul\":12505:12570   */\n      tag_115\n      jump\t// in\n    tag_265:\n        /* \"#utility.yul\":12595:12601   */\n      dup1\n        /* \"#utility.yul\":12590:12593   */\n      dup5\n        /* \"#utility.yul\":12586:12602   */\n      add\n        /* \"#utility.yul\":12579:12602   */\n      swap2\n      pop\n        /* \"#utility.yul\":12330:12608   */\n      pop\n        /* \"#utility.yul\":12222:12608   */\n      swap3\n      swap2\n      pop\n      pop\n      jump\t// out\n        /* \"#utility.yul\":12614:12885   */\n    tag_82:\n        /* \"#utility.yul\":12744:12747   */\n      0x00\n        /* \"#utility.yul\":12766:12859   */\n      tag_267\n        /* \"#utility.yul\":12855:12858   */\n      dup3\n        /* \"#utility.yul\":12846:12852   */\n      dup5\n        /* \"#utility.yul\":12766:12859   */\n      tag_134\n      jump\t// in\n    tag_267:\n        /* \"#utility.yul\":12759:12859   */\n      swap2\n      pop\n        /* \"#utility.yul\":12876:12879   */\n      dup2\n        /* \"#utility.yul\":12869:12879   */\n      swap1\n      pop\n        /* \"#utility.yul\":12614:12885   */\n      swap3\n      swap2\n      pop\n      pop\n      jump\t// out\n        /* \"#utility.yul\":12891:13773   */\n    tag_89:\n        /* \"#utility.yul\":13154:13158   */\n      0x00\n        /* \"#utility.yul\":13192:13195   */\n      0xa0\n        /* \"#utility.yul\":13181:13190   */\n      dup3\n        /* \"#utility.yul\":13177:13196   */\n      add\n        /* \"#utility.yul\":13169:13196   */\n      swap1\n      pop\n        /* \"#utility.yul\":13206:13277   */\n      tag_269\n        /* \"#utility.yul\":13274:13275   */\n      0x00\n        /* \"#utility.yul\":13263:13272   */\n      dup4\n        /* \"#utility.yul\":13259:13276   */\n      add\n        /* \"#utility.yul\":13250:13256   */\n      dup11\n        /* \"#utility.yul\":13206:13277   */\n      tag_124\n      jump\t// in\n    tag_269:\n        /* \"#utility.yul\":13287:13359   */\n      tag_270\n        /* \"#utility.yul\":13355:13357   */\n      0x20\n        /* \"#utility.yul\":13344:13353   */\n      dup4\n        /* \"#utility.yul\":13340:13358   */\n      add\n        /* \"#utility.yul\":13331:13337   */\n      dup10\n        /* \"#utility.yul\":13287:13359   */\n      tag_112\n      jump\t// in\n    tag_270:\n        /* \"#utility.yul\":13369:13441   */\n      tag_271\n        /* \"#utility.yul\":13437:13439   */\n      0x40\n        /* \"#utility.yul\":13426:13435   */\n      dup4\n        /* \"#utility.yul\":13422:13440   */\n      add\n        /* \"#utility.yul\":13413:13419   */\n      dup9\n        /* \"#utility.yul\":13369:13441   */\n      tag_97\n      jump\t// in\n    tag_271:\n        /* \"#utility.yul\":13488:13497   */\n      dup2\n        /* \"#utility.yul\":13482:13486   */\n      dup2\n        /* \"#utility.yul\":13478:13498   */\n      sub\n        /* \"#utility.yul\":13473:13475   */\n      0x60\n        /* \"#utility.yul\":13462:13471   */\n      dup4\n        /* \"#utility.yul\":13458:13476   */\n      add\n        /* \"#utility.yul\":13451:13499   */\n      mstore\n        /* \"#utility.yul\":13516:13604   */\n      tag_272\n        /* \"#utility.yul\":13599:13603   */\n      dup2\n        /* \"#utility.yul\":13590:13596   */\n      dup7\n        /* \"#utility.yul\":13582:13588   */\n      dup9\n        /* \"#utility.yul\":13516:13604   */\n      tag_127\n      jump\t// in\n    tag_272:\n        /* \"#utility.yul\":13508:13604   */\n      swap1\n      pop\n        /* \"#utility.yul\":13652:13661   */\n      dup2\n        /* \"#utility.yul\":13646:13650   */\n      dup2\n        /* \"#utility.yul\":13642:13662   */\n      sub\n        /* \"#utility.yul\":13636:13639   */\n      0x80\n        /* \"#utility.yul\":13625:13634   */\n      dup4\n        /* \"#utility.yul\":13621:13640   */\n      add\n        /* \"#utility.yul\":13614:13663   */\n      mstore\n        /* \"#utility.yul\":13680:13766   */\n      tag_273\n        /* \"#utility.yul\":13761:13765   */\n      dup2\n        /* \"#utility.yul\":13752:13758   */\n      dup5\n        /* \"#utility.yul\":13744:13750   */\n      dup7\n        /* \"#utility.yul\":13680:13766   */\n      tag_128\n      jump\t// in\n    tag_273:\n        /* \"#utility.yul\":13672:13766   */\n      swap1\n      pop\n        /* \"#utility.yul\":12891:13773   */\n      swap9\n      swap8\n      pop\n      pop\n      pop\n      pop\n      pop\n      pop\n      pop\n      pop\n      jump\t// out\n        /* \"#utility.yul\":13779:14661   */\n    tag_95:\n        /* \"#utility.yul\":14042:14046   */\n      0x00\n        /* \"#utility.yul\":14080:14083   */\n      0xa0\n        /* \"#utility.yul\":14069:14078   */\n      dup3\n        /* \"#utility.yul\":14065:14084   */\n      add\n        /* \"#utility.yul\":14057:14084   */\n      swap1\n      pop\n        /* \"#utility.yul\":14094:14165   */\n      tag_275\n        /* \"#utility.yul\":14162:14163   */\n      0x00\n        /* \"#utility.yul\":14151:14160   */\n      dup4\n        /* \"#utility.yul\":14147:14164   */\n      add\n        /* \"#utility.yul\":14138:14144   */\n      dup11\n        /* \"#utility.yul\":14094:14165   */\n      tag_112\n      jump\t// in\n    tag_275:\n        /* \"#utility.yul\":14175:14247   */\n      tag_276\n        /* \"#utility.yul\":14243:14245   */\n      0x20\n        /* \"#utility.yul\":14232:14241   */\n      dup4\n        /* \"#utility.yul\":14228:14246   */\n      add\n        /* \"#utility.yul\":14219:14225   */\n      dup10\n        /* \"#utility.yul\":14175:14247   */\n      tag_97\n      jump\t// in\n    tag_276:\n        /* \"#utility.yul\":14294:14303   */\n      dup2\n        /* \"#utility.yul\":14288:14292   */\n      dup2\n        /* \"#utility.yul\":14284:14304   */\n      sub\n        /* \"#utility.yul\":14279:14281   */\n      0x40\n        /* \"#utility.yul\":14268:14277   */\n      dup4\n        /* \"#utility.yul\":14264:14282   */\n      add\n        /* \"#utility.yul\":14257:14305   */\n      mstore\n        /* \"#utility.yul\":14322:14410   */\n      tag_277\n        /* \"#utility.yul\":14405:14409   */\n      dup2\n        /* \"#utility.yul\":14396:14402   */\n      dup8\n        /* \"#utility.yul\":14388:14394   */\n      dup10\n        /* \"#utility.yul\":14322:14410   */\n      tag_127\n      jump\t// in\n    tag_277:\n        /* \"#utility.yul\":14314:14410   */\n      swap1\n      pop\n        /* \"#utility.yul\":14457:14466   */\n      dup2\n        /* \"#utility.yul\":14451:14455   */\n      dup2\n        /* \"#utility.yul\":14447:14467   */\n      sub\n        /* \"#utility.yul\":14442:14444   */\n      0x60\n        /* \"#utility.yul\":14431:14440   */\n      dup4\n        /* \"#utility.yul\":14427:14445   */\n      add\n        /* \"#utility.yul\":14420:14468   */\n      mstore\n        /* \"#utility.yul\":14485:14571   */\n      tag_278\n        /* \"#utility.yul\":14566:14570   */\n      dup2\n        /* \"#utility.yul\":14557:14563   */\n      dup6\n        /* \"#utility.yul\":14549:14555   */\n      dup8\n        /* \"#utility.yul\":14485:14571   */\n      tag_128\n      jump\t// in\n    tag_278:\n        /* \"#utility.yul\":14477:14571   */\n      swap1\n      pop\n        /* \"#utility.yul\":14581:14654   */\n      tag_279\n        /* \"#utility.yul\":14649:14652   */\n      0x80\n        /* \"#utility.yul\":14638:14647   */\n      dup4\n        /* \"#utility.yul\":14634:14653   */\n      add\n        /* \"#utility.yul\":14625:14631   */\n      dup5\n        /* \"#utility.yul\":14581:14654   */\n      tag_97\n      jump\t// in\n    tag_279:\n        /* \"#utility.yul\":13779:14661   */\n      swap9\n      swap8\n      pop\n      pop\n      pop\n      pop\n      pop\n      pop\n      pop\n      pop\n      jump\t// out\n\n    auxdata: 0xa2646970667358221220fff5cf0e3293a229a8fdfdb232c9ceb3758b36495f27f86ed5f42a865045884d64736f6c63430008120033\n}\n",
				"bytecode": {
					"linkReferences": {},
					"object": "6080604052600a6000556103e86001556103e860025534801561002157600080fd5b5033600360006101000a81548173ffffffffffffffffffffffffffffffffffffffff021916908373ffffffffffffffffffffffffffffffffffffffff160217905550610f83806100726000396000f3fe6080604052600436106100745760003560e01c80639f81aed71161004e5780639f81aed7146100ff578063b0f8b1421461012a578063e02372321461015a578063e342d4e3146101855761007b565b80634125ff90146100805780634b9915a5146100ab5780638da5cb5b146100d45761007b565b3661007b57005b600080fd5b34801561008c57600080fd5b506100956101ae565b6040516100a29190610823565b60405180910390f35b3480156100b757600080fd5b506100d260048036038101906100cd919061098d565b6101b4565b005b3480156100e057600080fd5b506100e96103b4565b6040516100f69190610a58565b60405180910390f35b34801561010b57600080fd5b506101146103da565b6040516101219190610823565b60405180910390f35b610144600480360381019061013f919061098d565b6103e0565b6040516101519190610b03565b60405180910390f35b34801561016657600080fd5b5061016f610703565b60405161017c9190610823565b60405180910390f35b34801561019157600080fd5b506101ac60048036038101906101a79190610b5b565b610709565b005b60015481565b600360009054906101000a900473ffffffffffffffffffffffffffffffffffffffff1673ffffffffffffffffffffffffffffffffffffffff163373ffffffffffffffffffffffffffffffffffffffff1614610244576040517f08c379a000000000000000000000000000000000000000000000000000000000815260040161023b90610be5565b60405180910390fd5b6000610255888888888888886107c8565b90506004600082815260200190815260200160002060009054906101000a900460ff16156102ba57806040517ff465c6cb0000000000000000000000000000000000000000000000000000000081526004016102b19190610c14565b60405180910390fd5b600054426102c89190610c5e565b8210806102e15750600154426102de9190610c5e565b82115b156103255781426040517f1a9616c200000000000000000000000000000000000000000000000000000000815260040161031c929190610c92565b60405180910390fd5b60016004600083815260200190815260200160002060006101000a81548160ff0219169083151502179055508773ffffffffffffffffffffffffffffffffffffffff16817f69f39bf47f0d2b6b52c87b967f3fe6e8e799ddd0d6bffc303bc2cbee66d6c9a38989898989896040516103a296959493929190610d24565b60405180910390a35050505050505050565b600360009054906101000a900473ffffffffffffffffffffffffffffffffffffffff1681565b60005481565b6060600360009054906101000a900473ffffffffffffffffffffffffffffffffffffffff1673ffffffffffffffffffffffffffffffffffffffff163373ffffffffffffffffffffffffffffffffffffffff1614610472576040517f08c379a000000000000000000000000000000000000000000000000000000000815260040161046990610be5565b60405180910390fd5b6000610483898989898989896107c8565b90506004600082815260200190815260200160002060009054906101000a900460ff166104e757806040517f0995c9d50000000000000000000000000000000000000000000000000000000081526004016104de9190610c14565b60405180910390fd5b824210806105015750600254836104fe9190610c5e565b42115b15610538576040517f0e39156900000000000000000000000000000000000000000000000000000000815260040160405180910390fd5b60006004600083815260200190815260200160002060006101000a81548160ff021916908315150217905550606060008888905011156105b4578787604051610582929190610dab565b6040518091039020868660405160200161059e93929190610e11565b60405160208183030381529060405290506105fc565b85858080601f016020809104026020016040519081016040528093929190818152602001838380828437600081840152601f19601f8201169050808301925050505050505090505b6000808b73ffffffffffffffffffffffffffffffffffffffff168b846040516106259190610e6c565b60006040518083038185875af1925050503d8060008114610662576040519150601f19603f3d011682016040523d82523d6000602084013e610667565b606091505b5091509150816106ae57836040517fa31ec5c90000000000000000000000000000000000000000000000000000000081526004016106a59190610c14565b60405180910390fd5b7fee37b0d985fab62aae799ed13a895817831f11250d6bf9153f1dac519bbdfc1d848d8d8d8d8d8d6040516106e99796959493929190610e83565b60405180910390a180945050505050979650505050505050565b60025481565b6004600082815260200190815260200160002060009054906101000a900460ff161561076c57806040517f8b4052270000000000000000000000000000000000000000000000000000000081526004016107639190610c14565b60405180910390fd5b60006004600083815260200190815260200160002060006101000a81548160ff021916908315150217905550807f8c570826f4854b55b08216ad61ee8b10c0ac3cacca9ea587b985cbd8abe6ad7b60405160405180910390a250565b6000878787878787876040516020016107e79796959493929190610ee8565b604051602081830303815290604052805190602001209050979650505050505050565b6000819050919050565b61081d8161080a565b82525050565b60006020820190506108386000830184610814565b92915050565b600080fd5b600080fd5b600073ffffffffffffffffffffffffffffffffffffffff82169050919050565b600061087382610848565b9050919050565b61088381610868565b811461088e57600080fd5b50565b6000813590506108a08161087a565b92915050565b6108af8161080a565b81146108ba57600080fd5b50565b6000813590506108cc816108a6565b92915050565b600080fd5b600080fd5b600080fd5b60008083601f8401126108f7576108f66108d2565b5b8235905067ffffffffffffffff811115610914576109136108d7565b5b6020830191508360018202830111156109305761092f6108dc565b5b9250929050565b60008083601f84011261094d5761094c6108d2565b5b8235905067ffffffffffffffff81111561096a576109696108d7565b5b602083019150836001820283011115610986576109856108dc565b5b9250929050565b600080600080600080600060a0888a0312156109ac576109ab61083e565b5b60006109ba8a828b01610891565b97505060206109cb8a828b016108bd565b965050604088013567ffffffffffffffff8111156109ec576109eb610843565b5b6109f88a828b016108e1565b9550955050606088013567ffffffffffffffff811115610a1b57610a1a610843565b5b610a278a828b01610937565b93509350506080610a3a8a828b016108bd565b91505092959891949750929550565b610a5281610868565b82525050565b6000602082019050610a6d6000830184610a49565b92915050565b600081519050919050565b600082825260208201905092915050565b60005b83811015610aad578082015181840152602081019050610a92565b60008484015250505050565b6000601f19601f8301169050919050565b6000610ad582610a73565b610adf8185610a7e565b9350610aef818560208601610a8f565b610af881610ab9565b840191505092915050565b60006020820190508181036000830152610b1d8184610aca565b905092915050565b6000819050919050565b610b3881610b25565b8114610b4357600080fd5b50565b600081359050610b5581610b2f565b92915050565b600060208284031215610b7157610b7061083e565b5b6000610b7f84828501610b46565b91505092915050565b600082825260208201905092915050565b7f4e6f74204f776e6572204572726f720000000000000000000000000000000000600082015250565b6000610bcf600f83610b88565b9150610bda82610b99565b602082019050919050565b60006020820190508181036000830152610bfe81610bc2565b9050919050565b610c0e81610b25565b82525050565b6000602082019050610c296000830184610c05565b92915050565b7f4e487b7100000000000000000000000000000000000000000000000000000000600052601160045260246000fd5b6000610c698261080a565b9150610c748361080a565b9250828201905080821115610c8c57610c8b610c2f565b5b92915050565b6000604082019050610ca76000830185610814565b610cb46020830184610814565b9392505050565b82818337600083830152505050565b6000610cd68385610b88565b9350610ce3838584610cbb565b610cec83610ab9565b840190509392505050565b6000610d038385610a7e565b9350610d10838584610cbb565b610d1983610ab9565b840190509392505050565b6000608082019050610d396000830189610814565b8181036020830152610d4c818789610cca565b90508181036040830152610d61818587610cf7565b9050610d706060830184610814565b979650505050505050565b600081905092915050565b6000610d928385610d7b565b9350610d9f838584610cbb565b82840190509392505050565b6000610db8828486610d86565b91508190509392505050565b60007fffffffff0000000000000000000000000000000000000000000000000000000082169050919050565b6000819050919050565b610e0b610e0682610dc4565b610df0565b82525050565b6000610e1d8286610dfa565b600482019150610e2e828486610d86565b9150819050949350505050565b6000610e4682610a73565b610e508185610d7b565b9350610e60818560208601610a8f565b80840191505092915050565b6000610e788284610e3b565b915081905092915050565b600060a082019050610e98600083018a610c05565b610ea56020830189610a49565b610eb26040830188610814565b8181036060830152610ec5818688610cca565b90508181036080830152610eda818486610cf7565b905098975050505050505050565b600060a082019050610efd600083018a610a49565b610f0a6020830189610814565b8181036040830152610f1d818789610cca565b90508181036060830152610f32818587610cf7565b9050610f416080830184610814565b9897505050505050505056fea2646970667358221220fff5cf0e3293a229a8fdfdb232c9ceb3758b36495f27f86ed5f42a865045884d64736f6c63430008120033",
					"opcodes": "PUSH1 0x80 PUSH1 0x40 MSTORE PUSH1 0xA PUSH1 0x0 SSTORE PUSH2 0x3E8 PUSH1 0x1 SSTORE PUSH2 0x3E8 PUSH1 0x2 SSTORE CALLVALUE DUP1 ISZERO PUSH2 0x21 JUMPI PUSH1 0x0 DUP1 REVERT JUMPDEST POP CALLER PUSH1 0x3 PUSH1 0x0 PUSH2 0x100 EXP DUP2 SLOAD DUP2 PUSH20 0xFFFFFFFFFFFFFFFFFFFFFFFFFFFFFFFFFFFFFFFF MUL NOT AND SWAP1 DUP4 PUSH20 0xFFFFFFFFFFFFFFFFFFFFFFFFFFFFFFFFFFFFFFFF AND MUL OR SWAP1 SSTORE POP PUSH2 0xF83 DUP1 PUSH2 0x72 PUSH1 0x0 CODECOPY PUSH1 0x0 RETURN INVALID PUSH1 0x80 PUSH1 0x40 MSTORE PUSH1 0x4 CALLDATASIZE LT PUSH2 0x74 JUMPI PUSH1 0x0 CALLDATALOAD PUSH1 0xE0 SHR DUP1 PUSH4 0x9F81AED7 GT PUSH2 0x4E JUMPI DUP1 PUSH4 0x9F81AED7 EQ PUSH2 0xFF JUMPI DUP1 PUSH4 0xB0F8B142 EQ PUSH2 0x12A JUMPI DUP1 PUSH4 0xE0237232 EQ PUSH2 0x15A JUMPI DUP1 PUSH4 0xE342D4E3 EQ PUSH2 0x185 JUMPI PUSH2 0x7B JUMP JUMPDEST DUP1 PUSH4 0x4125FF90 EQ PUSH2 0x80 JUMPI DUP1 PUSH4 0x4B9915A5 EQ PUSH2 0xAB JUMPI DUP1 PUSH4 0x8DA5CB5B EQ PUSH2 0xD4 JUMPI PUSH2 0x7B JUMP JUMPDEST CALLDATASIZE PUSH2 0x7B JUMPI STOP JUMPDEST PUSH1 0x0 DUP1 REVERT JUMPDEST CALLVALUE DUP1 ISZERO PUSH2 0x8C JUMPI PUSH1 0x0 DUP1 REVERT JUMPDEST POP PUSH2 0x95 PUSH2 0x1AE JUMP JUMPDEST PUSH1 0x40 MLOAD PUSH2 0xA2 SWAP2 SWAP1 PUSH2 0x823 JUMP JUMPDEST PUSH1 0x40 MLOAD DUP1 SWAP2 SUB SWAP1 RETURN JUMPDEST CALLVALUE DUP1 ISZERO PUSH2 0xB7 JUMPI PUSH1 0x0 DUP1 REVERT JUMPDEST POP PUSH2 0xD2 PUSH1 0x4 DUP1 CALLDATASIZE SUB DUP2 ADD SWAP1 PUSH2 0xCD SWAP2 SWAP1 PUSH2 0x98D JUMP JUMPDEST PUSH2 0x1B4 JUMP JUMPDEST STOP JUMPDEST CALLVALUE DUP1 ISZERO PUSH2 0xE0 JUMPI PUSH1 0x0 DUP1 REVERT JUMPDEST POP PUSH2 0xE9 PUSH2 0x3B4 JUMP JUMPDEST PUSH1 0x40 MLOAD PUSH2 0xF6 SWAP2 SWAP1 PUSH2 0xA58 JUMP JUMPDEST PUSH1 0x40 MLOAD DUP1 SWAP2 SUB SWAP1 RETURN JUMPDEST CALLVALUE DUP1 ISZERO PUSH2 0x10B JUMPI PUSH1 0x0 DUP1 REVERT JUMPDEST POP PUSH2 0x114 PUSH2 0x3DA JUMP JUMPDEST PUSH1 0x40 MLOAD PUSH2 0x121 SWAP2 SWAP1 PUSH2 0x823 JUMP JUMPDEST PUSH1 0x40 MLOAD DUP1 SWAP2 SUB SWAP1 RETURN JUMPDEST PUSH2 0x144 PUSH1 0x4 DUP1 CALLDATASIZE SUB DUP2 ADD SWAP1 PUSH2 0x13F SWAP2 SWAP1 PUSH2 0x98D JUMP JUMPDEST PUSH2 0x3E0 JUMP JUMPDEST PUSH1 0x40 MLOAD PUSH2 0x151 SWAP2 SWAP1 PUSH2 0xB03 JUMP JUMPDEST PUSH1 0x40 MLOAD DUP1 SWAP2 SUB SWAP1 RETURN JUMPDEST CALLVALUE DUP1 ISZERO PUSH2 0x166 JUMPI PUSH1 0x0 DUP1 REVERT JUMPDEST POP PUSH2 0x16F PUSH2 0x703 JUMP JUMPDEST PUSH1 0x40 MLOAD PUSH2 0x17C SWAP2 SWAP1 PUSH2 0x823 JUMP JUMPDEST PUSH1 0x40 MLOAD DUP1 SWAP2 SUB SWAP1 RETURN JUMPDEST CALLVALUE DUP1 ISZERO PUSH2 0x191 JUMPI PUSH1 0x0 DUP1 REVERT JUMPDEST POP PUSH2 0x1AC PUSH1 0x4 DUP1 CALLDATASIZE SUB DUP2 ADD SWAP1 PUSH2 0x1A7 SWAP2 SWAP1 PUSH2 0xB5B JUMP JUMPDEST PUSH2 0x709 JUMP JUMPDEST STOP JUMPDEST PUSH1 0x1 SLOAD DUP2 JUMP JUMPDEST PUSH1 0x3 PUSH1 0x0 SWAP1 SLOAD SWAP1 PUSH2 0x100 EXP SWAP1 DIV PUSH20 0xFFFFFFFFFFFFFFFFFFFFFFFFFFFFFFFFFFFFFFFF AND PUSH20 0xFFFFFFFFFFFFFFFFFFFFFFFFFFFFFFFFFFFFFFFF AND CALLER PUSH20 0xFFFFFFFFFFFFFFFFFFFFFFFFFFFFFFFFFFFFFFFF AND EQ PUSH2 0x244 JUMPI PUSH1 0x40 MLOAD PUSH32 0x8C379A000000000000000000000000000000000000000000000000000000000 DUP2 MSTORE PUSH1 0x4 ADD PUSH2 0x23B SWAP1 PUSH2 0xBE5 JUMP JUMPDEST PUSH1 0x40 MLOAD DUP1 SWAP2 SUB SWAP1 REVERT JUMPDEST PUSH1 0x0 PUSH2 0x255 DUP9 DUP9 DUP9 DUP9 DUP9 DUP9 DUP9 PUSH2 0x7C8 JUMP JUMPDEST SWAP1 POP PUSH1 0x4 PUSH1 0x0 DUP3 DUP2 MSTORE PUSH1 0x20 ADD SWAP1 DUP2 MSTORE PUSH1 0x20 ADD PUSH1 0x0 KECCAK256 PUSH1 0x0 SWAP1 SLOAD SWAP1 PUSH2 0x100 EXP SWAP1 DIV PUSH1 0xFF AND ISZERO PUSH2 0x2BA JUMPI DUP1 PUSH1 0x40 MLOAD PUSH32 0xF465C6CB00000000000000000000000000000000000000000000000000000000 DUP2 MSTORE PUSH1 0x4 ADD PUSH2 0x2B1 SWAP2 SWAP1 PUSH2 0xC14 JUMP JUMPDEST PUSH1 0x40 MLOAD DUP1 SWAP2 SUB SWAP1 REVERT JUMPDEST PUSH1 0x0 SLOAD TIMESTAMP PUSH2 0x2C8 SWAP2 SWAP1 PUSH2 0xC5E JUMP JUMPDEST DUP3 LT DUP1 PUSH2 0x2E1 JUMPI POP PUSH1 0x1 SLOAD TIMESTAMP PUSH2 0x2DE SWAP2 SWAP1 PUSH2 0xC5E JUMP JUMPDEST DUP3 GT JUMPDEST ISZERO PUSH2 0x325 JUMPI DUP2 TIMESTAMP PUSH1 0x40 MLOAD PUSH32 0x1A9616C200000000000000000000000000000000000000000000000000000000 DUP2 MSTORE PUSH1 0x4 ADD PUSH2 0x31C SWAP3 SWAP2 SWAP1 PUSH2 0xC92 JUMP JUMPDEST PUSH1 0x40 MLOAD DUP1 SWAP2 SUB SWAP1 REVERT JUMPDEST PUSH1 0x1 PUSH1 0x4 PUSH1 0x0 DUP4 DUP2 MSTORE PUSH1 0x20 ADD SWAP1 DUP2 MSTORE PUSH1 0x20 ADD PUSH1 0x0 KECCAK256 PUSH1 0x0 PUSH2 0x100 EXP DUP2 SLOAD DUP2 PUSH1 0xFF MUL NOT AND SWAP1 DUP4 ISZERO ISZERO MUL OR SWAP1 SSTORE POP DUP8 PUSH20 0xFFFFFFFFFFFFFFFFFFFFFFFFFFFFFFFFFFFFFFFF AND DUP2 PUSH32 0x69F39BF47F0D2B6B52C87B967F3FE6E8E799DDD0D6BFFC303BC2CBEE66D6C9A3 DUP10 DUP10 DUP10 DUP10 DUP10 DUP10 PUSH1 0x40 MLOAD PUSH2 0x3A2 SWAP7 SWAP6 SWAP5 SWAP4 SWAP3 SWAP2 SWAP1 PUSH2 0xD24 JUMP JUMPDEST PUSH1 0x40 MLOAD DUP1 SWAP2 SUB SWAP1 LOG3 POP POP POP POP POP POP POP POP JUMP JUMPDEST PUSH1 0x3 PUSH1 0x0 SWAP1 SLOAD SWAP1 PUSH2 0x100 EXP SWAP1 DIV PUSH20 0xFFFFFFFFFFFFFFFFFFFFFFFFFFFFFFFFFFFFFFFF AND DUP2 JUMP JUMPDEST PUSH1 0x0 SLOAD DUP2 JUMP JUMPDEST PUSH1 0x60 PUSH1 0x3 PUSH1 0x0 SWAP1 SLOAD SWAP1 PUSH2 0x100 EXP SWAP1 DIV PUSH20 0xFFFFFFFFFFFFFFFFFFFFFFFFFFFFFFFFFFFFFFFF AND PUSH20 0xFFFFFFFFFFFFFFFFFFFFFFFFFFFFFFFFFFFFFFFF AND CALLER PUSH20 0xFFFFFFFFFFFFFFFFFFFFFFFFFFFFFFFFFFFFFFFF AND EQ PUSH2 0x472 JUMPI PUSH1 0x40 MLOAD PUSH32 0x8C379A000000000000000000000000000000000000000000000000000000000 DUP2 MSTORE PUSH1 0x4 ADD PUSH2 0x469 SWAP1 PUSH2 0xBE5 JUMP JUMPDEST PUSH1 0x40 MLOAD DUP1 SWAP2 SUB SWAP1 REVERT JUMPDEST PUSH1 0x0 PUSH2 0x483 DUP10 DUP10 DUP10 DUP10 DUP10 DUP10 DUP10 PUSH2 0x7C8 JUMP JUMPDEST SWAP1 POP PUSH1 0x4 PUSH1 0x0 DUP3 DUP2 MSTORE PUSH1 0x20 ADD SWAP1 DUP2 MSTORE PUSH1 0x20 ADD PUSH1 0x0 KECCAK256 PUSH1 0x0 SWAP1 SLOAD SWAP1 PUSH2 0x100 EXP SWAP1 DIV PUSH1 0xFF AND PUSH2 0x4E7 JUMPI DUP1 PUSH1 0x40 MLOAD PUSH32 0x995C9D500000000000000000000000000000000000000000000000000000000 DUP2 MSTORE PUSH1 0x4 ADD PUSH2 0x4DE SWAP2 SWAP1 PUSH2 0xC14 JUMP JUMPDEST PUSH1 0x40 MLOAD DUP1 SWAP2 SUB SWAP1 REVERT JUMPDEST DUP3 TIMESTAMP LT DUP1 PUSH2 0x501 JUMPI POP PUSH1 0x2 SLOAD DUP4 PUSH2 0x4FE SWAP2 SWAP1 PUSH2 0xC5E JUMP JUMPDEST TIMESTAMP GT JUMPDEST ISZERO PUSH2 0x538 JUMPI PUSH1 0x40 MLOAD PUSH32 0xE39156900000000000000000000000000000000000000000000000000000000 DUP2 MSTORE PUSH1 0x4 ADD PUSH1 0x40 MLOAD DUP1 SWAP2 SUB SWAP1 REVERT JUMPDEST PUSH1 0x0 PUSH1 0x4 PUSH1 0x0 DUP4 DUP2 MSTORE PUSH1 0x20 ADD SWAP1 DUP2 MSTORE PUSH1 0x20 ADD PUSH1 0x0 KECCAK256 PUSH1 0x0 PUSH2 0x100 EXP DUP2 SLOAD DUP2 PUSH1 0xFF MUL NOT AND SWAP1 DUP4 ISZERO ISZERO MUL OR SWAP1 SSTORE POP PUSH1 0x60 PUSH1 0x0 DUP9 DUP9 SWAP1 POP GT ISZERO PUSH2 0x5B4 JUMPI DUP8 DUP8 PUSH1 0x40 MLOAD PUSH2 0x582 SWAP3 SWAP2 SWAP1 PUSH2 0xDAB JUMP JUMPDEST PUSH1 0x40 MLOAD DUP1 SWAP2 SUB SWAP1 KECCAK256 DUP7 DUP7 PUSH1 0x40 MLOAD PUSH1 0x20 ADD PUSH2 0x59E SWAP4 SWAP3 SWAP2 SWAP1 PUSH2 0xE11 JUMP JUMPDEST PUSH1 0x40 MLOAD PUSH1 0x20 DUP2 DUP4 SUB SUB DUP2 MSTORE SWAP1 PUSH1 0x40 MSTORE SWAP1 POP PUSH2 0x5FC JUMP JUMPDEST DUP6 DUP6 DUP1 DUP1 PUSH1 0x1F ADD PUSH1 0x20 DUP1 SWAP2 DIV MUL PUSH1 0x20 ADD PUSH1 0x40 MLOAD SWAP1 DUP2 ADD PUSH1 0x40 MSTORE DUP1 SWAP4 SWAP3 SWAP2 SWAP1 DUP2 DUP2 MSTORE PUSH1 0x20 ADD DUP4 DUP4 DUP1 DUP3 DUP5 CALLDATACOPY PUSH1 0x0 DUP2 DUP5 ADD MSTORE PUSH1 0x1F NOT PUSH1 0x1F DUP3 ADD AND SWAP1 POP DUP1 DUP4 ADD SWAP3 POP POP POP POP POP POP POP SWAP1 POP JUMPDEST PUSH1 0x0 DUP1 DUP12 PUSH20 0xFFFFFFFFFFFFFFFFFFFFFFFFFFFFFFFFFFFFFFFF AND DUP12 DUP5 PUSH1 0x40 MLOAD PUSH2 0x625 SWAP2 SWAP1 PUSH2 0xE6C JUMP JUMPDEST PUSH1 0x0 PUSH1 0x40 MLOAD DUP1 DUP4 SUB DUP2 DUP6 DUP8 GAS CALL SWAP3 POP POP POP RETURNDATASIZE DUP1 PUSH1 0x0 DUP2 EQ PUSH2 0x662 JUMPI PUSH1 0x40 MLOAD SWAP2 POP PUSH1 0x1F NOT PUSH1 0x3F RETURNDATASIZE ADD AND DUP3 ADD PUSH1 0x40 MSTORE RETURNDATASIZE DUP3 MSTORE RETURNDATASIZE PUSH1 0x0 PUSH1 0x20 DUP5 ADD RETURNDATACOPY PUSH2 0x667 JUMP JUMPDEST PUSH1 0x60 SWAP2 POP JUMPDEST POP SWAP2 POP SWAP2 POP DUP2 PUSH2 0x6AE JUMPI DUP4 PUSH1 0x40 MLOAD PUSH32 0xA31EC5C900000000000000000000000000000000000000000000000000000000 DUP2 MSTORE PUSH1 0x4 ADD PUSH2 0x6A5 SWAP2 SWAP1 PUSH2 0xC14 JUMP JUMPDEST PUSH1 0x40 MLOAD DUP1 SWAP2 SUB SWAP1 REVERT JUMPDEST PUSH32 0xEE37B0D985FAB62AAE799ED13A895817831F11250D6BF9153F1DAC519BBDFC1D DUP5 DUP14 DUP14 DUP14 DUP14 DUP14 DUP14 PUSH1 0x40 MLOAD PUSH2 0x6E9 SWAP8 SWAP7 SWAP6 SWAP5 SWAP4 SWAP3 SWAP2 SWAP1 PUSH2 0xE83 JUMP JUMPDEST PUSH1 0x40 MLOAD DUP1 SWAP2 SUB SWAP1 LOG1 DUP1 SWAP5 POP POP POP POP POP SWAP8 SWAP7 POP POP POP POP POP POP POP JUMP JUMPDEST PUSH1 0x2 SLOAD DUP2 JUMP JUMPDEST PUSH1 0x4 PUSH1 0x0 DUP3 DUP2 MSTORE PUSH1 0x20 ADD SWAP1 DUP2 MSTORE PUSH1 0x20 ADD PUSH1 0x0 KECCAK256 PUSH1 0x0 SWAP1 SLOAD SWAP1 PUSH2 0x100 EXP SWAP1 DIV PUSH1 0xFF AND ISZERO PUSH2 0x76C JUMPI DUP1 PUSH1 0x40 MLOAD PUSH32 0x8B40522700000000000000000000000000000000000000000000000000000000 DUP2 MSTORE PUSH1 0x4 ADD PUSH2 0x763 SWAP2 SWAP1 PUSH2 0xC14 JUMP JUMPDEST PUSH1 0x40 MLOAD DUP1 SWAP2 SUB SWAP1 REVERT JUMPDEST PUSH1 0x0 PUSH1 0x4 PUSH1 0x0 DUP4 DUP2 MSTORE PUSH1 0x20 ADD SWAP1 DUP2 MSTORE PUSH1 0x20 ADD PUSH1 0x0 KECCAK256 PUSH1 0x0 PUSH2 0x100 EXP DUP2 SLOAD DUP2 PUSH1 0xFF MUL NOT AND SWAP1 DUP4 ISZERO ISZERO MUL OR SWAP1 SSTORE POP DUP1 PUSH32 0x8C570826F4854B55B08216AD61EE8B10C0AC3CACCA9EA587B985CBD8ABE6AD7B PUSH1 0x40 MLOAD PUSH1 0x40 MLOAD DUP1 SWAP2 SUB SWAP1 LOG2 POP JUMP JUMPDEST PUSH1 0x0 DUP8 DUP8 DUP8 DUP8 DUP8 DUP8 DUP8 PUSH1 0x40 MLOAD PUSH1 0x20 ADD PUSH2 0x7E7 SWAP8 SWAP7 SWAP6 SWAP5 SWAP4 SWAP3 SWAP2 SWAP1 PUSH2 0xEE8 JUMP JUMPDEST PUSH1 0x40 MLOAD PUSH1 0x20 DUP2 DUP4 SUB SUB DUP2 MSTORE SWAP1 PUSH1 0x40 MSTORE DUP1 MLOAD SWAP1 PUSH1 0x20 ADD KECCAK256 SWAP1 POP SWAP8 SWAP7 POP POP POP POP POP POP POP JUMP JUMPDEST PUSH1 0x0 DUP2 SWAP1 POP SWAP2 SWAP1 POP JUMP JUMPDEST PUSH2 0x81D DUP2 PUSH2 0x80A JUMP JUMPDEST DUP3 MSTORE POP POP JUMP JUMPDEST PUSH1 0x0 PUSH1 0x20 DUP3 ADD SWAP1 POP PUSH2 0x838 PUSH1 0x0 DUP4 ADD DUP5 PUSH2 0x814 JUMP JUMPDEST SWAP3 SWAP2 POP POP JUMP JUMPDEST PUSH1 0x0 DUP1 REVERT JUMPDEST PUSH1 0x0 DUP1 REVERT JUMPDEST PUSH1 0x0 PUSH20 0xFFFFFFFFFFFFFFFFFFFFFFFFFFFFFFFFFFFFFFFF DUP3 AND SWAP1 POP SWAP2 SWAP1 POP JUMP JUMPDEST PUSH1 0x0 PUSH2 0x873 DUP3 PUSH2 0x848 JUMP JUMPDEST SWAP1 POP SWAP2 SWAP1 POP JUMP JUMPDEST PUSH2 0x883 DUP2 PUSH2 0x868 JUMP JUMPDEST DUP2 EQ PUSH2 0x88E JUMPI PUSH1 0x0 DUP1 REVERT JUMPDEST POP JUMP JUMPDEST PUSH1 0x0 DUP2 CALLDATALOAD SWAP1 POP PUSH2 0x8A0 DUP2 PUSH2 0x87A JUMP JUMPDEST SWAP3 SWAP2 POP POP JUMP JUMPDEST PUSH2 0x8AF DUP2 PUSH2 0x80A JUMP JUMPDEST DUP2 EQ PUSH2 0x8BA JUMPI PUSH1 0x0 DUP1 REVERT JUMPDEST POP JUMP JUMPDEST PUSH1 0x0 DUP2 CALLDATALOAD SWAP1 POP PUSH2 0x8CC DUP2 PUSH2 0x8A6 JUMP JUMPDEST SWAP3 SWAP2 POP POP JUMP JUMPDEST PUSH1 0x0 DUP1 REVERT JUMPDEST PUSH1 0x0 DUP1 REVERT JUMPDEST PUSH1 0x0 DUP1 REVERT JUMPDEST PUSH1 0x0 DUP1 DUP4 PUSH1 0x1F DUP5 ADD SLT PUSH2 0x8F7 JUMPI PUSH2 0x8F6 PUSH2 0x8D2 JUMP JUMPDEST JUMPDEST DUP3 CALLDATALOAD SWAP1 POP PUSH8 0xFFFFFFFFFFFFFFFF DUP2 GT ISZERO PUSH2 0x914 JUMPI PUSH2 0x913 PUSH2 0x8D7 JUMP JUMPDEST JUMPDEST PUSH1 0x20 DUP4 ADD SWAP2 POP DUP4 PUSH1 0x1 DUP3 MUL DUP4 ADD GT ISZERO PUSH2 0x930 JUMPI PUSH2 0x92F PUSH2 0x8DC JUMP JUMPDEST JUMPDEST SWAP3 POP SWAP3 SWAP1 POP JUMP JUMPDEST PUSH1 0x0 DUP1 DUP4 PUSH1 0x1F DUP5 ADD SLT PUSH2 0x94D JUMPI PUSH2 0x94C PUSH2 0x8D2 JUMP JUMPDEST JUMPDEST DUP3 CALLDATALOAD SWAP1 POP PUSH8 0xFFFFFFFFFFFFFFFF DUP2 GT ISZERO PUSH2 0x96A JUMPI PUSH2 0x969 PUSH2 0x8D7 JUMP JUMPDEST JUMPDEST PUSH1 0x20 DUP4 ADD SWAP2 POP DUP4 PUSH1 0x1 DUP3 MUL DUP4 ADD GT ISZERO PUSH2 0x986 JUMPI PUSH2 0x985 PUSH2 0x8DC JUMP JUMPDEST JUMPDEST SWAP3 POP SWAP3 SWAP1 POP JUMP JUMPDEST PUSH1 0x0 DUP1 PUSH1 0x0 DUP1 PUSH1 0x0 DUP1 PUSH1 0x0 PUSH1 0xA0 DUP9 DUP11 SUB SLT ISZERO PUSH2 0x9AC JUMPI PUSH2 0x9AB PUSH2 0x83E JUMP JUMPDEST JUMPDEST PUSH1 0x0 PUSH2 0x9BA DUP11 DUP3 DUP12 ADD PUSH2 0x891 JUMP JUMPDEST SWAP8 POP POP PUSH1 0x20 PUSH2 0x9CB DUP11 DUP3 DUP12 ADD PUSH2 0x8BD JUMP JUMPDEST SWAP7 POP POP PUSH1 0x40 DUP9 ADD CALLDATALOAD PUSH8 0xFFFFFFFFFFFFFFFF DUP2 GT ISZERO PUSH2 0x9EC JUMPI PUSH2 0x9EB PUSH2 0x843 JUMP JUMPDEST JUMPDEST PUSH2 0x9F8 DUP11 DUP3 DUP12 ADD PUSH2 0x8E1 JUMP JUMPDEST SWAP6 POP SWAP6 POP POP PUSH1 0x60 DUP9 ADD CALLDATALOAD PUSH8 0xFFFFFFFFFFFFFFFF DUP2 GT ISZERO PUSH2 0xA1B JUMPI PUSH2 0xA1A PUSH2 0x843 JUMP JUMPDEST JUMPDEST PUSH2 0xA27 DUP11 DUP3 DUP12 ADD PUSH2 0x937 JUMP JUMPDEST SWAP4 POP SWAP4 POP POP PUSH1 0x80 PUSH2 0xA3A DUP11 DUP3 DUP12 ADD PUSH2 0x8BD JUMP JUMPDEST SWAP2 POP POP SWAP3 SWAP6 SWAP9 SWAP2 SWAP5 SWAP8 POP SWAP3 SWAP6 POP JUMP JUMPDEST PUSH2 0xA52 DUP2 PUSH2 0x868 JUMP JUMPDEST DUP3 MSTORE POP POP JUMP JUMPDEST PUSH1 0x0 PUSH1 0x20 DUP3 ADD SWAP1 POP PUSH2 0xA6D PUSH1 0x0 DUP4 ADD DUP5 PUSH2 0xA49 JUMP JUMPDEST SWAP3 SWAP2 POP POP JUMP JUMPDEST PUSH1 0x0 DUP2 MLOAD SWAP1 POP SWAP2 SWAP1 POP JUMP JUMPDEST PUSH1 0x0 DUP3 DUP3 MSTORE PUSH1 0x20 DUP3 ADD SWAP1 POP SWAP3 SWAP2 POP POP JUMP JUMPDEST PUSH1 0x0 JUMPDEST DUP4 DUP2 LT ISZERO PUSH2 0xAAD JUMPI DUP1 DUP3 ADD MLOAD DUP2 DUP5 ADD MSTORE PUSH1 0x20 DUP2 ADD SWAP1 POP PUSH2 0xA92 JUMP JUMPDEST PUSH1 0x0 DUP5 DUP5 ADD MSTORE POP POP POP POP JUMP JUMPDEST PUSH1 0x0 PUSH1 0x1F NOT PUSH1 0x1F DUP4 ADD AND SWAP1 POP SWAP2 SWAP1 POP JUMP JUMPDEST PUSH1 0x0 PUSH2 0xAD5 DUP3 PUSH2 0xA73 JUMP JUMPDEST PUSH2 0xADF DUP2 DUP6 PUSH2 0xA7E JUMP JUMPDEST SWAP4 POP PUSH2 0xAEF DUP2 DUP6 PUSH1 0x20 DUP7 ADD PUSH2 0xA8F JUMP JUMPDEST PUSH2 0xAF8 DUP2 PUSH2 0xAB9 JUMP JUMPDEST DUP5 ADD SWAP2 POP POP SWAP3 SWAP2 POP POP JUMP JUMPDEST PUSH1 0x0 PUSH1 0x20 DUP3 ADD SWAP1 POP DUP2 DUP2 SUB PUSH1 0x0 DUP4 ADD MSTORE PUSH2 0xB1D DUP2 DUP5 PUSH2 0xACA JUMP JUMPDEST SWAP1 POP SWAP3 SWAP2 POP POP JUMP JUMPDEST PUSH1 0x0 DUP2 SWAP1 POP SWAP2 SWAP1 POP JUMP JUMPDEST PUSH2 0xB38 DUP2 PUSH2 0xB25 JUMP JUMPDEST DUP2 EQ PUSH2 0xB43 JUMPI PUSH1 0x0 DUP1 REVERT JUMPDEST POP JUMP JUMPDEST PUSH1 0x0 DUP2 CALLDATALOAD SWAP1 POP PUSH2 0xB55 DUP2 PUSH2 0xB2F JUMP JUMPDEST SWAP3 SWAP2 POP POP JUMP JUMPDEST PUSH1 0x0 PUSH1 0x20 DUP3 DUP5 SUB SLT ISZERO PUSH2 0xB71 JUMPI PUSH2 0xB70 PUSH2 0x83E JUMP JUMPDEST JUMPDEST PUSH1 0x0 PUSH2 0xB7F DUP5 DUP3 DUP6 ADD PUSH2 0xB46 JUMP JUMPDEST SWAP2 POP POP SWAP3 SWAP2 POP POP JUMP JUMPDEST PUSH1 0x0 DUP3 DUP3 MSTORE PUSH1 0x20 DUP3 ADD SWAP1 POP SWAP3 SWAP2 POP POP JUMP JUMPDEST PUSH32 0x4E6F74204F776E6572204572726F720000000000000000000000000000000000 PUSH1 0x0 DUP3 ADD MSTORE POP JUMP JUMPDEST PUSH1 0x0 PUSH2 0xBCF PUSH1 0xF DUP4 PUSH2 0xB88 JUMP JUMPDEST SWAP2 POP PUSH2 0xBDA DUP3 PUSH2 0xB99 JUMP JUMPDEST PUSH1 0x20 DUP3 ADD SWAP1 POP SWAP2 SWAP1 POP JUMP JUMPDEST PUSH1 0x0 PUSH1 0x20 DUP3 ADD SWAP1 POP DUP2 DUP2 SUB PUSH1 0x0 DUP4 ADD MSTORE PUSH2 0xBFE DUP2 PUSH2 0xBC2 JUMP JUMPDEST SWAP1 POP SWAP2 SWAP1 POP JUMP JUMPDEST PUSH2 0xC0E DUP2 PUSH2 0xB25 JUMP JUMPDEST DUP3 MSTORE POP POP JUMP JUMPDEST PUSH1 0x0 PUSH1 0x20 DUP3 ADD SWAP1 POP PUSH2 0xC29 PUSH1 0x0 DUP4 ADD DUP5 PUSH2 0xC05 JUMP JUMPDEST SWAP3 SWAP2 POP POP JUMP JUMPDEST PUSH32 0x4E487B7100000000000000000000000000000000000000000000000000000000 PUSH1 0x0 MSTORE PUSH1 0x11 PUSH1 0x4 MSTORE PUSH1 0x24 PUSH1 0x0 REVERT JUMPDEST PUSH1 0x0 PUSH2 0xC69 DUP3 PUSH2 0x80A JUMP JUMPDEST SWAP2 POP PUSH2 0xC74 DUP4 PUSH2 0x80A JUMP JUMPDEST SWAP3 POP DUP3 DUP3 ADD SWAP1 POP DUP1 DUP3 GT ISZERO PUSH2 0xC8C JUMPI PUSH2 0xC8B PUSH2 0xC2F JUMP JUMPDEST JUMPDEST SWAP3 SWAP2 POP POP JUMP JUMPDEST PUSH1 0x0 PUSH1 0x40 DUP3 ADD SWAP1 POP PUSH2 0xCA7 PUSH1 0x0 DUP4 ADD DUP6 PUSH2 0x814 JUMP JUMPDEST PUSH2 0xCB4 PUSH1 0x20 DUP4 ADD DUP5 PUSH2 0x814 JUMP JUMPDEST SWAP4 SWAP3 POP POP POP JUMP JUMPDEST DUP3 DUP2 DUP4 CALLDATACOPY PUSH1 0x0 DUP4 DUP4 ADD MSTORE POP POP POP JUMP JUMPDEST PUSH1 0x0 PUSH2 0xCD6 DUP4 DUP6 PUSH2 0xB88 JUMP JUMPDEST SWAP4 POP PUSH2 0xCE3 DUP4 DUP6 DUP5 PUSH2 0xCBB JUMP JUMPDEST PUSH2 0xCEC DUP4 PUSH2 0xAB9 JUMP JUMPDEST DUP5 ADD SWAP1 POP SWAP4 SWAP3 POP POP POP JUMP JUMPDEST PUSH1 0x0 PUSH2 0xD03 DUP4 DUP6 PUSH2 0xA7E JUMP JUMPDEST SWAP4 POP PUSH2 0xD10 DUP4 DUP6 DUP5 PUSH2 0xCBB JUMP JUMPDEST PUSH2 0xD19 DUP4 PUSH2 0xAB9 JUMP JUMPDEST DUP5 ADD SWAP1 POP SWAP4 SWAP3 POP POP POP JUMP JUMPDEST PUSH1 0x0 PUSH1 0x80 DUP3 ADD SWAP1 POP PUSH2 0xD39 PUSH1 0x0 DUP4 ADD DUP10 PUSH2 0x814 JUMP JUMPDEST DUP2 DUP2 SUB PUSH1 0x20 DUP4 ADD MSTORE PUSH2 0xD4C DUP2 DUP8 DUP10 PUSH2 0xCCA JUMP JUMPDEST SWAP1 POP DUP2 DUP2 SUB PUSH1 0x40 DUP4 ADD MSTORE PUSH2 0xD61 DUP2 DUP6 DUP8 PUSH2 0xCF7 JUMP JUMPDEST SWAP1 POP PUSH2 0xD70 PUSH1 0x60 DUP4 ADD DUP5 PUSH2 0x814 JUMP JUMPDEST SWAP8 SWAP7 POP POP POP POP POP POP POP JUMP JUMPDEST PUSH1 0x0 DUP2 SWAP1 POP SWAP3 SWAP2 POP POP JUMP JUMPDEST PUSH1 0x0 PUSH2 0xD92 DUP4 DUP6 PUSH2 0xD7B JUMP JUMPDEST SWAP4 POP PUSH2 0xD9F DUP4 DUP6 DUP5 PUSH2 0xCBB JUMP JUMPDEST DUP3 DUP5 ADD SWAP1 POP SWAP4 SWAP3 POP POP POP JUMP JUMPDEST PUSH1 0x0 PUSH2 0xDB8 DUP3 DUP5 DUP7 PUSH2 0xD86 JUMP JUMPDEST SWAP2 POP DUP2 SWAP1 POP SWAP4 SWAP3 POP POP POP JUMP JUMPDEST PUSH1 0x0 PUSH32 0xFFFFFFFF00000000000000000000000000000000000000000000000000000000 DUP3 AND SWAP1 POP SWAP2 SWAP1 POP JUMP JUMPDEST PUSH1 0x0 DUP2 SWAP1 POP SWAP2 SWAP1 POP JUMP JUMPDEST PUSH2 0xE0B PUSH2 0xE06 DUP3 PUSH2 0xDC4 JUMP JUMPDEST PUSH2 0xDF0 JUMP JUMPDEST DUP3 MSTORE POP POP JUMP JUMPDEST PUSH1 0x0 PUSH2 0xE1D DUP3 DUP7 PUSH2 0xDFA JUMP JUMPDEST PUSH1 0x4 DUP3 ADD SWAP2 POP PUSH2 0xE2E DUP3 DUP5 DUP7 PUSH2 0xD86 JUMP JUMPDEST SWAP2 POP DUP2 SWAP1 POP SWAP5 SWAP4 POP POP POP POP JUMP JUMPDEST PUSH1 0x0 PUSH2 0xE46 DUP3 PUSH2 0xA73 JUMP JUMPDEST PUSH2 0xE50 DUP2 DUP6 PUSH2 0xD7B JUMP JUMPDEST SWAP4 POP PUSH2 0xE60 DUP2 DUP6 PUSH1 0x20 DUP7 ADD PUSH2 0xA8F JUMP JUMPDEST DUP1 DUP5 ADD SWAP2 POP POP SWAP3 SWAP2 POP POP JUMP JUMPDEST PUSH1 0x0 PUSH2 0xE78 DUP3 DUP5 PUSH2 0xE3B JUMP JUMPDEST SWAP2 POP DUP2 SWAP1 POP SWAP3 SWAP2 POP POP JUMP JUMPDEST PUSH1 0x0 PUSH1 0xA0 DUP3 ADD SWAP1 POP PUSH2 0xE98 PUSH1 0x0 DUP4 ADD DUP11 PUSH2 0xC05 JUMP JUMPDEST PUSH2 0xEA5 PUSH1 0x20 DUP4 ADD DUP10 PUSH2 0xA49 JUMP JUMPDEST PUSH2 0xEB2 PUSH1 0x40 DUP4 ADD DUP9 PUSH2 0x814 JUMP JUMPDEST DUP2 DUP2 SUB PUSH1 0x60 DUP4 ADD MSTORE PUSH2 0xEC5 DUP2 DUP7 DUP9 PUSH2 0xCCA JUMP JUMPDEST SWAP1 POP DUP2 DUP2 SUB PUSH1 0x80 DUP4 ADD MSTORE PUSH2 0xEDA DUP2 DUP5 DUP7 PUSH2 0xCF7 JUMP JUMPDEST SWAP1 POP SWAP9 SWAP8 POP POP POP POP POP POP POP POP JUMP JUMPDEST PUSH1 0x0 PUSH1 0xA0 DUP3 ADD SWAP1 POP PUSH2 0xEFD PUSH1 0x0 DUP4 ADD DUP11 PUSH2 0xA49 JUMP JUMPDEST PUSH2 0xF0A PUSH1 0x20 DUP4 ADD DUP10 PUSH2 0x814 JUMP JUMPDEST DUP2 DUP2 SUB PUSH1 0x40 DUP4 ADD MSTORE PUSH2 0xF1D DUP2 DUP8 DUP10 PUSH2 0xCCA JUMP JUMPDEST SWAP1 POP DUP2 DUP2 SUB PUSH1 0x60 DUP4 ADD MSTORE PUSH2 0xF32 DUP2 DUP6 DUP8 PUSH2 0xCF7 JUMP JUMPDEST SWAP1 POP PUSH2 0xF41 PUSH1 0x80 DUP4 ADD DUP5 PUSH2 0x814 JUMP JUMPDEST SWAP9 SWAP8 POP POP POP POP POP POP POP POP JUMP INVALID LOG2 PUSH5 0x6970667358 0x22 SLT KECCAK256 SELFDESTRUCT CREATE2 0xCF 0xE ORIGIN SWAP4 LOG2 0x29 0xA8 REVERT REVERT 0xB2 ORIGIN 0xC9 0xCE 0xB3 PUSH22 0x8B36495F27F86ED5F42A865045884D64736F6C634300 ADDMOD SLT STOP CALLER "
				},
				"gasEstimates": {
					"creation": {
						"codeDepositCost": "794200",
						"executionCost": "91415",
						"totalCost": "885615"
					},
					"external": {
						"GRACE_PER100()": "2473",
						"MAX_DELAY()": "2430",
						"MIN_DELAY()": "2429",
						"cancle(bytes32)": "infinite",
						"execute(address,uint256,string,bytes,uint256)": "infinite",
						"owner()": "2559",
						"queue(address,uint256,string,bytes,uint256)": "infinite"
					},
					"internal": {
						"getTxId(address,uint256,string calldata,bytes calldata,uint256)": "infinite"
					}
				},
				"methodIdentifiers": {
					"GRACE_PER100()": "e0237232",
					"MAX_DELAY()": "4125ff90",
					"MIN_DELAY()": "9f81aed7",
					"cancle(bytes32)": "e342d4e3",
					"execute(address,uint256,string,bytes,uint256)": "b0f8b142",
					"owner()": "8da5cb5b",
					"queue(address,uint256,string,bytes,uint256)": "4b9915a5"
				}
			},
			"storageLayout": {
				"storage": [
					{
						"astId": 58,
						"contract": "cuimianMaster/TimeLock.sol:TimeLock",
						"label": "MIN_DELAY",
						"offset": 0,
						"slot": "0",
						"type": "t_uint256"
					},
					{
						"astId": 61,
						"contract": "cuimianMaster/TimeLock.sol:TimeLock",
						"label": "MAX_DELAY",
						"offset": 0,
						"slot": "1",
						"type": "t_uint256"
					},
					{
						"astId": 64,
						"contract": "cuimianMaster/TimeLock.sol:TimeLock",
						"label": "GRACE_PER100",
						"offset": 0,
						"slot": "2",
						"type": "t_uint256"
					},
					{
						"astId": 66,
						"contract": "cuimianMaster/TimeLock.sol:TimeLock",
						"label": "owner",
						"offset": 0,
						"slot": "3",
						"type": "t_address"
					},
					{
						"astId": 70,
						"contract": "cuimianMaster/TimeLock.sol:TimeLock",
						"label": "queued",
						"offset": 0,
						"slot": "4",
						"type": "t_mapping(t_bytes32,t_bool)"
					}
				],
				"types": {
					"t_address": {
						"encoding": "inplace",
						"label": "address",
						"numberOfBytes": "20"
					},
					"t_bool": {
						"encoding": "inplace",
						"label": "bool",
						"numberOfBytes": "1"
					},
					"t_bytes32": {
						"encoding": "inplace",
						"label": "bytes32",
						"numberOfBytes": "32"
					},
					"t_mapping(t_bytes32,t_bool)": {
						"encoding": "mapping",
						"key": "t_bytes32",
						"label": "mapping(bytes32 => bool)",
						"numberOfBytes": "32",
						"value": "t_bool"
					},
					"t_uint256": {
						"encoding": "inplace",
						"label": "uint256",
						"numberOfBytes": "32"
					}
				}
			},
			"userdoc": {
				"kind": "user",
				"methods": {},
				"version": 1
			}
		}
	}
}