{
	"cuimianMaster/Visibility.sol": {
		"VisibilityChild": {
			"abi": [
				{
					"inputs": [],
					"name": "examples",
					"outputs": [],
					"stateMutability": "view",
					"type": "function"
				},
				{
					"inputs": [],
					"name": "examples2",
					"outputs": [],
					"stateMutability": "view",
					"type": "function"
				},
				{
					"inputs": [],
					"name": "externalFun",
					"outputs": [
						{
							"internalType": "uint256",
							"name": "",
							"type": "uint256"
						}
					],
					"stateMutability": "pure",
					"type": "function"
				},
				{
					"inputs": [],
					"name": "n",
					"outputs": [
						{
							"internalType": "uint256",
							"name": "",
							"type": "uint256"
						}
					],
					"stateMutability": "view",
					"type": "function"
				},
				{
					"inputs": [],
					"name": "publicFun",
					"outputs": [
						{
							"internalType": "uint256",
							"name": "",
							"type": "uint256"
						}
					],
					"stateMutability": "pure",
					"type": "function"
				}
			],
			"devdoc": {
				"kind": "dev",
				"methods": {},
				"version": 1
			},
			"evm": {
				"assembly": "    /* \"cuimianMaster/Visibility.sol\":3159:3505  contract VisibilityChild is VisibilityBase {... */\n  mstore(0x40, 0x80)\n    /* \"cuimianMaster/Visibility.sol\":1092:1093  0 */\n  0x00\n    /* \"cuimianMaster/Visibility.sol\":1075:1093  uint private x = 0 */\n  dup1\n  sstore\n    /* \"cuimianMaster/Visibility.sol\":1118:1119  1 */\n  0x01\n    /* \"cuimianMaster/Visibility.sol\":1100:1119  uint internal y = 1 */\n  dup1\n  sstore\n    /* \"cuimianMaster/Visibility.sol\":2336:2337  3 */\n  0x03\n    /* \"cuimianMaster/Visibility.sol\":2320:2337  uint public n = 3 */\n  0x02\n  sstore\n    /* \"cuimianMaster/Visibility.sol\":3159:3505  contract VisibilityChild is VisibilityBase {... */\n  callvalue\n  dup1\n  iszero\n  tag_1\n  jumpi\n  0x00\n  dup1\n  revert\ntag_1:\n  pop\n  dataSize(sub_0)\n  dup1\n  dataOffset(sub_0)\n  0x00\n  codecopy\n  0x00\n  return\nstop\n\nsub_0: assembly {\n        /* \"cuimianMaster/Visibility.sol\":3159:3505  contract VisibilityChild is VisibilityBase {... */\n      mstore(0x40, 0x80)\n      callvalue\n      dup1\n      iszero\n      tag_1\n      jumpi\n      0x00\n      dup1\n      revert\n    tag_1:\n      pop\n      jumpi(tag_2, lt(calldatasize, 0x04))\n      shr(0xe0, calldataload(0x00))\n      dup1\n      0x2e52d606\n      eq\n      tag_3\n      jumpi\n      dup1\n      0x335d00c2\n      eq\n      tag_4\n      jumpi\n      dup1\n      0x4c816d9f\n      eq\n      tag_5\n      jumpi\n      dup1\n      0xb7372fab\n      eq\n      tag_6\n      jumpi\n      dup1\n      0xc3be8e2c\n      eq\n      tag_7\n      jumpi\n    tag_2:\n      0x00\n      dup1\n      revert\n        /* \"cuimianMaster/Visibility.sol\":2320:2337  uint public n = 3 */\n    tag_3:\n      tag_8\n      tag_9\n      jump\t// in\n    tag_8:\n      mload(0x40)\n      tag_10\n      swap2\n      swap1\n      tag_11\n      jump\t// in\n    tag_10:\n      mload(0x40)\n      dup1\n      swap2\n      sub\n      swap1\n      return\n        /* \"cuimianMaster/Visibility.sol\":2690:3152  function examples() public view {... */\n    tag_4:\n      tag_12\n      tag_13\n      jump\t// in\n    tag_12:\n      stop\n        /* \"cuimianMaster/Visibility.sol\":2520:2599  function externalFun() external pure returns (uint) {... */\n    tag_5:\n      tag_14\n      tag_15\n      jump\t// in\n    tag_14:\n      mload(0x40)\n      tag_16\n      swap2\n      swap1\n      tag_11\n      jump\t// in\n    tag_16:\n      mload(0x40)\n      dup1\n      swap2\n      sub\n      swap1\n      return\n        /* \"cuimianMaster/Visibility.sol\":2607:2682  function publicFun() public pure returns (uint) {... */\n    tag_6:\n      tag_17\n      tag_18\n      jump\t// in\n    tag_17:\n      mload(0x40)\n      tag_19\n      swap2\n      swap1\n      tag_11\n      jump\t// in\n    tag_19:\n      mload(0x40)\n      dup1\n      swap2\n      sub\n      swap1\n      return\n        /* \"cuimianMaster/Visibility.sol\":3209:3502  function examples2() public view {... */\n    tag_7:\n      tag_20\n      tag_21\n      jump\t// in\n    tag_20:\n      stop\n        /* \"cuimianMaster/Visibility.sol\":2320:2337  uint public n = 3 */\n    tag_9:\n      sload(0x02)\n      dup2\n      jump\t// out\n        /* \"cuimianMaster/Visibility.sol\":2690:3152  function examples() public view {... */\n    tag_13:\n        /* \"cuimianMaster/Visibility.sol\":2741:2742  n */\n      sload(0x02)\n        /* \"cuimianMaster/Visibility.sol\":2737:2738  y */\n      sload(0x01)\n        /* \"cuimianMaster/Visibility.sol\":2733:2734  x */\n      sload(0x00)\n        /* \"cuimianMaster/Visibility.sol\":2733:2738  x + y */\n      tag_23\n      swap2\n      swap1\n      tag_24\n      jump\t// in\n    tag_23:\n        /* \"cuimianMaster/Visibility.sol\":2733:2742  x + y + n */\n      tag_25\n      swap2\n      swap1\n      tag_24\n      jump\t// in\n    tag_25:\n      pop\n        /* \"cuimianMaster/Visibility.sol\":2755:2767  privateFun() */\n      tag_26\n        /* \"cuimianMaster/Visibility.sol\":2755:2765  privateFun */\n      tag_27\n        /* \"cuimianMaster/Visibility.sol\":2755:2767  privateFun() */\n      jump\t// in\n    tag_26:\n      pop\n        /* \"cuimianMaster/Visibility.sol\":2778:2791  internalFun() */\n      tag_28\n        /* \"cuimianMaster/Visibility.sol\":2778:2789  internalFun */\n      tag_29\n        /* \"cuimianMaster/Visibility.sol\":2778:2791  internalFun() */\n      jump\t// in\n    tag_28:\n      pop\n        /* \"cuimianMaster/Visibility.sol\":2802:2813  publicFun() */\n      tag_30\n        /* \"cuimianMaster/Visibility.sol\":2802:2811  publicFun */\n      tag_18\n        /* \"cuimianMaster/Visibility.sol\":2802:2813  publicFun() */\n      jump\t// in\n    tag_30:\n      pop\n        /* \"cuimianMaster/Visibility.sol\":3126:3130  this */\n      address\n        /* \"cuimianMaster/Visibility.sol\":3126:3142  this.externalFun */\n      0xffffffffffffffffffffffffffffffffffffffff\n      and\n      0x4c816d9f\n        /* \"cuimianMaster/Visibility.sol\":3126:3144  this.externalFun() */\n      mload(0x40)\n      dup2\n      0xffffffff\n      and\n      0xe0\n      shl\n      dup2\n      mstore\n      0x04\n      add\n      0x20\n      mload(0x40)\n      dup1\n      dup4\n      sub\n      dup2\n      dup7\n      gas\n      staticcall\n      iszero\n      dup1\n      iszero\n      tag_32\n      jumpi\n      returndatasize\n      0x00\n      dup1\n      returndatacopy\n      revert(0x00, returndatasize)\n    tag_32:\n      pop\n      pop\n      pop\n      pop\n      mload(0x40)\n      returndatasize\n      not(0x1f)\n      0x1f\n      dup3\n      add\n      and\n      dup3\n      add\n      dup1\n      0x40\n      mstore\n      pop\n      dup2\n      add\n      swap1\n      tag_33\n      swap2\n      swap1\n      tag_34\n      jump\t// in\n    tag_33:\n      pop\n        /* \"cuimianMaster/Visibility.sol\":2690:3152  function examples() public view {... */\n      jump\t// out\n        /* \"cuimianMaster/Visibility.sol\":2520:2599  function externalFun() external pure returns (uint) {... */\n    tag_15:\n        /* \"cuimianMaster/Visibility.sol\":2566:2570  uint */\n      0x00\n        /* \"cuimianMaster/Visibility.sol\":2520:2599  function externalFun() external pure returns (uint) {... */\n      swap1\n      jump\t// out\n        /* \"cuimianMaster/Visibility.sol\":2607:2682  function publicFun() public pure returns (uint) {... */\n    tag_18:\n        /* \"cuimianMaster/Visibility.sol\":2649:2653  uint */\n      0x00\n        /* \"cuimianMaster/Visibility.sol\":2607:2682  function publicFun() public pure returns (uint) {... */\n      swap1\n      jump\t// out\n        /* \"cuimianMaster/Visibility.sol\":3209:3502  function examples2() public view {... */\n    tag_21:\n        /* \"cuimianMaster/Visibility.sol\":3272:3273  n */\n      sload(0x02)\n        /* \"cuimianMaster/Visibility.sol\":3268:3269  y */\n      sload(0x01)\n        /* \"cuimianMaster/Visibility.sol\":3268:3273  y + n */\n      tag_38\n      swap2\n      swap1\n      tag_24\n      jump\t// in\n    tag_38:\n      pop\n        /* \"cuimianMaster/Visibility.sol\":3312:3325  internalFun() */\n      tag_39\n        /* \"cuimianMaster/Visibility.sol\":3312:3323  internalFun */\n      tag_29\n        /* \"cuimianMaster/Visibility.sol\":3312:3325  internalFun() */\n      jump\t// in\n    tag_39:\n      pop\n        /* \"cuimianMaster/Visibility.sol\":3336:3347  publicFun() */\n      tag_40\n        /* \"cuimianMaster/Visibility.sol\":3336:3345  publicFun */\n      tag_18\n        /* \"cuimianMaster/Visibility.sol\":3336:3347  publicFun() */\n      jump\t// in\n    tag_40:\n      pop\n        /* \"cuimianMaster/Visibility.sol\":3209:3502  function examples2() public view {... */\n      jump\t// out\n        /* \"cuimianMaster/Visibility.sol\":2348:2425  function privateFun() private pure returns (uint) {... */\n    tag_27:\n        /* \"cuimianMaster/Visibility.sol\":2392:2396  uint */\n      0x00\n        /* \"cuimianMaster/Visibility.sol\":2348:2425  function privateFun() private pure returns (uint) {... */\n      swap1\n      jump\t// out\n        /* \"cuimianMaster/Visibility.sol\":2433:2512  function internalFun() internal pure returns (uint) {... */\n    tag_29:\n        /* \"cuimianMaster/Visibility.sol\":2479:2483  uint */\n      0x00\n        /* \"cuimianMaster/Visibility.sol\":2433:2512  function internalFun() internal pure returns (uint) {... */\n      swap1\n      jump\t// out\n        /* \"#utility.yul\":7:84   */\n    tag_43:\n        /* \"#utility.yul\":44:51   */\n      0x00\n        /* \"#utility.yul\":73:78   */\n      dup2\n        /* \"#utility.yul\":62:78   */\n      swap1\n      pop\n        /* \"#utility.yul\":7:84   */\n      swap2\n      swap1\n      pop\n      jump\t// out\n        /* \"#utility.yul\":90:208   */\n    tag_44:\n        /* \"#utility.yul\":177:201   */\n      tag_54\n        /* \"#utility.yul\":195:200   */\n      dup2\n        /* \"#utility.yul\":177:201   */\n      tag_43\n      jump\t// in\n    tag_54:\n        /* \"#utility.yul\":172:175   */\n      dup3\n        /* \"#utility.yul\":165:202   */\n      mstore\n        /* \"#utility.yul\":90:208   */\n      pop\n      pop\n      jump\t// out\n        /* \"#utility.yul\":214:436   */\n    tag_11:\n        /* \"#utility.yul\":307:311   */\n      0x00\n        /* \"#utility.yul\":345:347   */\n      0x20\n        /* \"#utility.yul\":334:343   */\n      dup3\n        /* \"#utility.yul\":330:348   */\n      add\n        /* \"#utility.yul\":322:348   */\n      swap1\n      pop\n        /* \"#utility.yul\":358:429   */\n      tag_56\n        /* \"#utility.yul\":426:427   */\n      0x00\n        /* \"#utility.yul\":415:424   */\n      dup4\n        /* \"#utility.yul\":411:428   */\n      add\n        /* \"#utility.yul\":402:408   */\n      dup5\n        /* \"#utility.yul\":358:429   */\n      tag_44\n      jump\t// in\n    tag_56:\n        /* \"#utility.yul\":214:436   */\n      swap3\n      swap2\n      pop\n      pop\n      jump\t// out\n        /* \"#utility.yul\":442:622   */\n    tag_45:\n        /* \"#utility.yul\":490:567   */\n      0x4e487b7100000000000000000000000000000000000000000000000000000000\n        /* \"#utility.yul\":487:488   */\n      0x00\n        /* \"#utility.yul\":480:568   */\n      mstore\n        /* \"#utility.yul\":587:591   */\n      0x11\n        /* \"#utility.yul\":584:585   */\n      0x04\n        /* \"#utility.yul\":577:592   */\n      mstore\n        /* \"#utility.yul\":611:615   */\n      0x24\n        /* \"#utility.yul\":608:609   */\n      0x00\n        /* \"#utility.yul\":601:616   */\n      revert\n        /* \"#utility.yul\":628:819   */\n    tag_24:\n        /* \"#utility.yul\":668:671   */\n      0x00\n        /* \"#utility.yul\":687:707   */\n      tag_59\n        /* \"#utility.yul\":705:706   */\n      dup3\n        /* \"#utility.yul\":687:707   */\n      tag_43\n      jump\t// in\n    tag_59:\n        /* \"#utility.yul\":682:707   */\n      swap2\n      pop\n        /* \"#utility.yul\":721:741   */\n      tag_60\n        /* \"#utility.yul\":739:740   */\n      dup4\n        /* \"#utility.yul\":721:741   */\n      tag_43\n      jump\t// in\n    tag_60:\n        /* \"#utility.yul\":716:741   */\n      swap3\n      pop\n        /* \"#utility.yul\":764:765   */\n      dup3\n        /* \"#utility.yul\":761:762   */\n      dup3\n        /* \"#utility.yul\":757:766   */\n      add\n        /* \"#utility.yul\":750:766   */\n      swap1\n      pop\n        /* \"#utility.yul\":785:788   */\n      dup1\n        /* \"#utility.yul\":782:783   */\n      dup3\n        /* \"#utility.yul\":779:789   */\n      gt\n        /* \"#utility.yul\":776:812   */\n      iszero\n      tag_61\n      jumpi\n        /* \"#utility.yul\":792:810   */\n      tag_62\n      tag_45\n      jump\t// in\n    tag_62:\n        /* \"#utility.yul\":776:812   */\n    tag_61:\n        /* \"#utility.yul\":628:819   */\n      swap3\n      swap2\n      pop\n      pop\n      jump\t// out\n        /* \"#utility.yul\":906:1023   */\n    tag_47:\n        /* \"#utility.yul\":1015:1016   */\n      0x00\n        /* \"#utility.yul\":1012:1013   */\n      dup1\n        /* \"#utility.yul\":1005:1017   */\n      revert\n        /* \"#utility.yul\":1152:1274   */\n    tag_49:\n        /* \"#utility.yul\":1225:1249   */\n      tag_67\n        /* \"#utility.yul\":1243:1248   */\n      dup2\n        /* \"#utility.yul\":1225:1249   */\n      tag_43\n      jump\t// in\n    tag_67:\n        /* \"#utility.yul\":1218:1223   */\n      dup2\n        /* \"#utility.yul\":1215:1250   */\n      eq\n        /* \"#utility.yul\":1205:1268   */\n      tag_68\n      jumpi\n        /* \"#utility.yul\":1264:1265   */\n      0x00\n        /* \"#utility.yul\":1261:1262   */\n      dup1\n        /* \"#utility.yul\":1254:1266   */\n      revert\n        /* \"#utility.yul\":1205:1268   */\n    tag_68:\n        /* \"#utility.yul\":1152:1274   */\n      pop\n      jump\t// out\n        /* \"#utility.yul\":1280:1423   */\n    tag_50:\n        /* \"#utility.yul\":1337:1342   */\n      0x00\n        /* \"#utility.yul\":1368:1374   */\n      dup2\n        /* \"#utility.yul\":1362:1375   */\n      mload\n        /* \"#utility.yul\":1353:1375   */\n      swap1\n      pop\n        /* \"#utility.yul\":1384:1417   */\n      tag_70\n        /* \"#utility.yul\":1411:1416   */\n      dup2\n        /* \"#utility.yul\":1384:1417   */\n      tag_49\n      jump\t// in\n    tag_70:\n        /* \"#utility.yul\":1280:1423   */\n      swap3\n      swap2\n      pop\n      pop\n      jump\t// out\n        /* \"#utility.yul\":1429:1780   */\n    tag_34:\n        /* \"#utility.yul\":1499:1505   */\n      0x00\n        /* \"#utility.yul\":1548:1550   */\n      0x20\n        /* \"#utility.yul\":1536:1545   */\n      dup3\n        /* \"#utility.yul\":1527:1534   */\n      dup5\n        /* \"#utility.yul\":1523:1546   */\n      sub\n        /* \"#utility.yul\":1519:1551   */\n      slt\n        /* \"#utility.yul\":1516:1635   */\n      iszero\n      tag_72\n      jumpi\n        /* \"#utility.yul\":1554:1633   */\n      tag_73\n      tag_47\n      jump\t// in\n    tag_73:\n        /* \"#utility.yul\":1516:1635   */\n    tag_72:\n        /* \"#utility.yul\":1674:1675   */\n      0x00\n        /* \"#utility.yul\":1699:1763   */\n      tag_74\n        /* \"#utility.yul\":1755:1762   */\n      dup5\n        /* \"#utility.yul\":1746:1752   */\n      dup3\n        /* \"#utility.yul\":1735:1744   */\n      dup6\n        /* \"#utility.yul\":1731:1753   */\n      add\n        /* \"#utility.yul\":1699:1763   */\n      tag_50\n      jump\t// in\n    tag_74:\n        /* \"#utility.yul\":1689:1763   */\n      swap2\n      pop\n        /* \"#utility.yul\":1645:1773   */\n      pop\n        /* \"#utility.yul\":1429:1780   */\n      swap3\n      swap2\n      pop\n      pop\n      jump\t// out\n\n    auxdata: 0xa2646970667358221220c020fe4f0c31d8c469512306f5c04d758319e5b1df7a0389b8d0af55cb9dad8364736f6c63430008120033\n}\n",
				"bytecode": {
					"linkReferences": {},
					"object": "60806040526000805560018055600360025534801561001d57600080fd5b506102df8061002d6000396000f3fe608060405234801561001057600080fd5b50600436106100575760003560e01c80632e52d6061461005c578063335d00c21461007a5780634c816d9f14610084578063b7372fab146100a2578063c3be8e2c146100c0575b600080fd5b6100646100ca565b60405161007191906101cd565b60405180910390f35b6100826100d0565b005b61008c61017b565b60405161009991906101cd565b60405180910390f35b6100aa610180565b6040516100b791906101cd565b60405180910390f35b6100c8610185565b005b60025481565b6002546001546000546100e39190610217565b6100ed9190610217565b506100f66101aa565b506100ff6101af565b50610108610180565b503073ffffffffffffffffffffffffffffffffffffffff16634c816d9f6040518163ffffffff1660e01b8152600401602060405180830381865afa158015610154573d6000803e3d6000fd5b505050506040513d601f19601f82011682018060405250810190610178919061027c565b50565b600090565b600090565b6002546001546101959190610217565b5061019e6101af565b506101a7610180565b50565b600090565b600090565b6000819050919050565b6101c7816101b4565b82525050565b60006020820190506101e260008301846101be565b92915050565b7f4e487b7100000000000000000000000000000000000000000000000000000000600052601160045260246000fd5b6000610222826101b4565b915061022d836101b4565b9250828201905080821115610245576102446101e8565b5b92915050565b600080fd5b610259816101b4565b811461026457600080fd5b50565b60008151905061027681610250565b92915050565b6000602082840312156102925761029161024b565b5b60006102a084828501610267565b9150509291505056fea2646970667358221220c020fe4f0c31d8c469512306f5c04d758319e5b1df7a0389b8d0af55cb9dad8364736f6c63430008120033",
					"opcodes": "PUSH1 0x80 PUSH1 0x40 MSTORE PUSH1 0x0 DUP1 SSTORE PUSH1 0x1 DUP1 SSTORE PUSH1 0x3 PUSH1 0x2 SSTORE CALLVALUE DUP1 ISZERO PUSH2 0x1D JUMPI PUSH1 0x0 DUP1 REVERT JUMPDEST POP PUSH2 0x2DF DUP1 PUSH2 0x2D PUSH1 0x0 CODECOPY PUSH1 0x0 RETURN INVALID PUSH1 0x80 PUSH1 0x40 MSTORE CALLVALUE DUP1 ISZERO PUSH2 0x10 JUMPI PUSH1 0x0 DUP1 REVERT JUMPDEST POP PUSH1 0x4 CALLDATASIZE LT PUSH2 0x57 JUMPI PUSH1 0x0 CALLDATALOAD PUSH1 0xE0 SHR DUP1 PUSH4 0x2E52D606 EQ PUSH2 0x5C JUMPI DUP1 PUSH4 0x335D00C2 EQ PUSH2 0x7A JUMPI DUP1 PUSH4 0x4C816D9F EQ PUSH2 0x84 JUMPI DUP1 PUSH4 0xB7372FAB EQ PUSH2 0xA2 JUMPI DUP1 PUSH4 0xC3BE8E2C EQ PUSH2 0xC0 JUMPI JUMPDEST PUSH1 0x0 DUP1 REVERT JUMPDEST PUSH2 0x64 PUSH2 0xCA JUMP JUMPDEST PUSH1 0x40 MLOAD PUSH2 0x71 SWAP2 SWAP1 PUSH2 0x1CD JUMP JUMPDEST PUSH1 0x40 MLOAD DUP1 SWAP2 SUB SWAP1 RETURN JUMPDEST PUSH2 0x82 PUSH2 0xD0 JUMP JUMPDEST STOP JUMPDEST PUSH2 0x8C PUSH2 0x17B JUMP JUMPDEST PUSH1 0x40 MLOAD PUSH2 0x99 SWAP2 SWAP1 PUSH2 0x1CD JUMP JUMPDEST PUSH1 0x40 MLOAD DUP1 SWAP2 SUB SWAP1 RETURN JUMPDEST PUSH2 0xAA PUSH2 0x180 JUMP JUMPDEST PUSH1 0x40 MLOAD PUSH2 0xB7 SWAP2 SWAP1 PUSH2 0x1CD JUMP JUMPDEST PUSH1 0x40 MLOAD DUP1 SWAP2 SUB SWAP1 RETURN JUMPDEST PUSH2 0xC8 PUSH2 0x185 JUMP JUMPDEST STOP JUMPDEST PUSH1 0x2 SLOAD DUP2 JUMP JUMPDEST PUSH1 0x2 SLOAD PUSH1 0x1 SLOAD PUSH1 0x0 SLOAD PUSH2 0xE3 SWAP2 SWAP1 PUSH2 0x217 JUMP JUMPDEST PUSH2 0xED SWAP2 SWAP1 PUSH2 0x217 JUMP JUMPDEST POP PUSH2 0xF6 PUSH2 0x1AA JUMP JUMPDEST POP PUSH2 0xFF PUSH2 0x1AF JUMP JUMPDEST POP PUSH2 0x108 PUSH2 0x180 JUMP JUMPDEST POP ADDRESS PUSH20 0xFFFFFFFFFFFFFFFFFFFFFFFFFFFFFFFFFFFFFFFF AND PUSH4 0x4C816D9F PUSH1 0x40 MLOAD DUP2 PUSH4 0xFFFFFFFF AND PUSH1 0xE0 SHL DUP2 MSTORE PUSH1 0x4 ADD PUSH1 0x20 PUSH1 0x40 MLOAD DUP1 DUP4 SUB DUP2 DUP7 GAS STATICCALL ISZERO DUP1 ISZERO PUSH2 0x154 JUMPI RETURNDATASIZE PUSH1 0x0 DUP1 RETURNDATACOPY RETURNDATASIZE PUSH1 0x0 REVERT JUMPDEST POP POP POP POP PUSH1 0x40 MLOAD RETURNDATASIZE PUSH1 0x1F NOT PUSH1 0x1F DUP3 ADD AND DUP3 ADD DUP1 PUSH1 0x40 MSTORE POP DUP2 ADD SWAP1 PUSH2 0x178 SWAP2 SWAP1 PUSH2 0x27C JUMP JUMPDEST POP JUMP JUMPDEST PUSH1 0x0 SWAP1 JUMP JUMPDEST PUSH1 0x0 SWAP1 JUMP JUMPDEST PUSH1 0x2 SLOAD PUSH1 0x1 SLOAD PUSH2 0x195 SWAP2 SWAP1 PUSH2 0x217 JUMP JUMPDEST POP PUSH2 0x19E PUSH2 0x1AF JUMP JUMPDEST POP PUSH2 0x1A7 PUSH2 0x180 JUMP JUMPDEST POP JUMP JUMPDEST PUSH1 0x0 SWAP1 JUMP JUMPDEST PUSH1 0x0 SWAP1 JUMP JUMPDEST PUSH1 0x0 DUP2 SWAP1 POP SWAP2 SWAP1 POP JUMP JUMPDEST PUSH2 0x1C7 DUP2 PUSH2 0x1B4 JUMP JUMPDEST DUP3 MSTORE POP POP JUMP JUMPDEST PUSH1 0x0 PUSH1 0x20 DUP3 ADD SWAP1 POP PUSH2 0x1E2 PUSH1 0x0 DUP4 ADD DUP5 PUSH2 0x1BE JUMP JUMPDEST SWAP3 SWAP2 POP POP JUMP JUMPDEST PUSH32 0x4E487B7100000000000000000000000000000000000000000000000000000000 PUSH1 0x0 MSTORE PUSH1 0x11 PUSH1 0x4 MSTORE PUSH1 0x24 PUSH1 0x0 REVERT JUMPDEST PUSH1 0x0 PUSH2 0x222 DUP3 PUSH2 0x1B4 JUMP JUMPDEST SWAP2 POP PUSH2 0x22D DUP4 PUSH2 0x1B4 JUMP JUMPDEST SWAP3 POP DUP3 DUP3 ADD SWAP1 POP DUP1 DUP3 GT ISZERO PUSH2 0x245 JUMPI PUSH2 0x244 PUSH2 0x1E8 JUMP JUMPDEST JUMPDEST SWAP3 SWAP2 POP POP JUMP JUMPDEST PUSH1 0x0 DUP1 REVERT JUMPDEST PUSH2 0x259 DUP2 PUSH2 0x1B4 JUMP JUMPDEST DUP2 EQ PUSH2 0x264 JUMPI PUSH1 0x0 DUP1 REVERT JUMPDEST POP JUMP JUMPDEST PUSH1 0x0 DUP2 MLOAD SWAP1 POP PUSH2 0x276 DUP2 PUSH2 0x250 JUMP JUMPDEST SWAP3 SWAP2 POP POP JUMP JUMPDEST PUSH1 0x0 PUSH1 0x20 DUP3 DUP5 SUB SLT ISZERO PUSH2 0x292 JUMPI PUSH2 0x291 PUSH2 0x24B JUMP JUMPDEST JUMPDEST PUSH1 0x0 PUSH2 0x2A0 DUP5 DUP3 DUP6 ADD PUSH2 0x267 JUMP JUMPDEST SWAP2 POP POP SWAP3 SWAP2 POP POP JUMP INVALID LOG2 PUSH5 0x6970667358 0x22 SLT KECCAK256 0xC0 KECCAK256 INVALID 0x4F 0xC BALANCE 0xD8 0xC4 PUSH10 0x512306F5C04D758319E5 0xB1 0xDF PUSH27 0x389B8D0AF55CB9DAD8364736F6C63430008120033000000000000 "
				},
				"gasEstimates": {
					"creation": {
						"codeDepositCost": "147000",
						"executionCost": "49408",
						"totalCost": "196408"
					},
					"external": {
						"examples()": "infinite",
						"examples2()": "infinite",
						"externalFun()": "351",
						"n()": "2407",
						"publicFun()": "373"
					}
				},
				"methodIdentifiers": {
					"examples()": "335d00c2",
					"examples2()": "c3be8e2c",
					"externalFun()": "4c816d9f",
					"n()": "2e52d606",
					"publicFun()": "b7372fab"
				}
			},
			"storageLayout": {
				"storage": [
					{
						"astId": 10,
						"contract": "cuimianMaster/Visibility.sol:VisibilityChild",
						"label": "x",
						"offset": 0,
						"slot": "0",
						"type": "t_uint256"
					},
					{
						"astId": 13,
						"contract": "cuimianMaster/Visibility.sol:VisibilityChild",
						"label": "y",
						"offset": 0,
						"slot": "1",
						"type": "t_uint256"
					},
					{
						"astId": 16,
						"contract": "cuimianMaster/Visibility.sol:VisibilityChild",
						"label": "n",
						"offset": 0,
						"slot": "2",
						"type": "t_uint256"
					}
				],
				"types": {
					"t_uint256": {
						"encoding": "inplace",
						"label": "uint256",
						"numberOfBytes": "32"
					}
				}
			},
			"userdoc": {
				"kind": "user",
				"methods": {},
				"version": 1
			}
		}
	}
}