{
	"cuimianMaster/Copy_Visibility.sol": {
		"VisibilityBase": {
			"abi": [
				{
					"inputs": [],
					"name": "examples",
					"outputs": [],
					"stateMutability": "view",
					"type": "function"
				},
				{
					"inputs": [],
					"name": "externalFun",
					"outputs": [
						{
							"internalType": "uint256",
							"name": "",
							"type": "uint256"
						}
					],
					"stateMutability": "pure",
					"type": "function"
				},
				{
					"inputs": [],
					"name": "n",
					"outputs": [
						{
							"internalType": "uint256",
							"name": "",
							"type": "uint256"
						}
					],
					"stateMutability": "view",
					"type": "function"
				},
				{
					"inputs": [],
					"name": "publicFun",
					"outputs": [
						{
							"internalType": "uint256",
							"name": "",
							"type": "uint256"
						}
					],
					"stateMutability": "pure",
					"type": "function"
				}
			],
			"devdoc": {
				"kind": "dev",
				"methods": {},
				"version": 1
			},
			"evm": {
				"assembly": "    /* \"cuimianMaster/Copy_Visibility.sol\":791:2929  contract VisibilityBase {... */\n  mstore(0x40, 0x80)\n    /* \"cuimianMaster/Copy_Visibility.sol\":866:867  0 */\n  0x00\n    /* \"cuimianMaster/Copy_Visibility.sol\":849:867  uint private x = 0 */\n  dup1\n  sstore\n    /* \"cuimianMaster/Copy_Visibility.sol\":892:893  1 */\n  0x01\n    /* \"cuimianMaster/Copy_Visibility.sol\":874:893  uint internal y = 1 */\n  dup1\n  sstore\n    /* \"cuimianMaster/Copy_Visibility.sol\":2110:2111  3 */\n  0x03\n    /* \"cuimianMaster/Copy_Visibility.sol\":2094:2111  uint public n = 3 */\n  0x02\n  sstore\n    /* \"cuimianMaster/Copy_Visibility.sol\":791:2929  contract VisibilityBase {... */\n  callvalue\n  dup1\n  iszero\n  tag_1\n  jumpi\n  0x00\n  dup1\n  revert\ntag_1:\n  pop\n  dataSize(sub_0)\n  dup1\n  dataOffset(sub_0)\n  0x00\n  codecopy\n  0x00\n  return\nstop\n\nsub_0: assembly {\n        /* \"cuimianMaster/Copy_Visibility.sol\":791:2929  contract VisibilityBase {... */\n      mstore(0x40, 0x80)\n      callvalue\n      dup1\n      iszero\n      tag_1\n      jumpi\n      0x00\n      dup1\n      revert\n    tag_1:\n      pop\n      jumpi(tag_2, lt(calldatasize, 0x04))\n      shr(0xe0, calldataload(0x00))\n      dup1\n      0x2e52d606\n      eq\n      tag_3\n      jumpi\n      dup1\n      0x335d00c2\n      eq\n      tag_4\n      jumpi\n      dup1\n      0x4c816d9f\n      eq\n      tag_5\n      jumpi\n      dup1\n      0xb7372fab\n      eq\n      tag_6\n      jumpi\n    tag_2:\n      0x00\n      dup1\n      revert\n        /* \"cuimianMaster/Copy_Visibility.sol\":2094:2111  uint public n = 3 */\n    tag_3:\n      tag_7\n      tag_8\n      jump\t// in\n    tag_7:\n      mload(0x40)\n      tag_9\n      swap2\n      swap1\n      tag_10\n      jump\t// in\n    tag_9:\n      mload(0x40)\n      dup1\n      swap2\n      sub\n      swap1\n      return\n        /* \"cuimianMaster/Copy_Visibility.sol\":2464:2926  function examples() public view {... */\n    tag_4:\n      tag_11\n      tag_12\n      jump\t// in\n    tag_11:\n      stop\n        /* \"cuimianMaster/Copy_Visibility.sol\":2294:2373  function externalFun() external pure returns (uint) {... */\n    tag_5:\n      tag_13\n      tag_14\n      jump\t// in\n    tag_13:\n      mload(0x40)\n      tag_15\n      swap2\n      swap1\n      tag_10\n      jump\t// in\n    tag_15:\n      mload(0x40)\n      dup1\n      swap2\n      sub\n      swap1\n      return\n        /* \"cuimianMaster/Copy_Visibility.sol\":2381:2456  function publicFun() public pure returns (uint) {... */\n    tag_6:\n      tag_16\n      tag_17\n      jump\t// in\n    tag_16:\n      mload(0x40)\n      tag_18\n      swap2\n      swap1\n      tag_10\n      jump\t// in\n    tag_18:\n      mload(0x40)\n      dup1\n      swap2\n      sub\n      swap1\n      return\n        /* \"cuimianMaster/Copy_Visibility.sol\":2094:2111  uint public n = 3 */\n    tag_8:\n      sload(0x02)\n      dup2\n      jump\t// out\n        /* \"cuimianMaster/Copy_Visibility.sol\":2464:2926  function examples() public view {... */\n    tag_12:\n        /* \"cuimianMaster/Copy_Visibility.sol\":2515:2516  n */\n      sload(0x02)\n        /* \"cuimianMaster/Copy_Visibility.sol\":2511:2512  y */\n      sload(0x01)\n        /* \"cuimianMaster/Copy_Visibility.sol\":2507:2508  x */\n      sload(0x00)\n        /* \"cuimianMaster/Copy_Visibility.sol\":2507:2512  x + y */\n      tag_20\n      swap2\n      swap1\n      tag_21\n      jump\t// in\n    tag_20:\n        /* \"cuimianMaster/Copy_Visibility.sol\":2507:2516  x + y + n */\n      tag_22\n      swap2\n      swap1\n      tag_21\n      jump\t// in\n    tag_22:\n      pop\n        /* \"cuimianMaster/Copy_Visibility.sol\":2529:2541  privateFun() */\n      tag_23\n        /* \"cuimianMaster/Copy_Visibility.sol\":2529:2539  privateFun */\n      tag_24\n        /* \"cuimianMaster/Copy_Visibility.sol\":2529:2541  privateFun() */\n      jump\t// in\n    tag_23:\n      pop\n        /* \"cuimianMaster/Copy_Visibility.sol\":2552:2565  internalFun() */\n      tag_25\n        /* \"cuimianMaster/Copy_Visibility.sol\":2552:2563  internalFun */\n      tag_26\n        /* \"cuimianMaster/Copy_Visibility.sol\":2552:2565  internalFun() */\n      jump\t// in\n    tag_25:\n      pop\n        /* \"cuimianMaster/Copy_Visibility.sol\":2576:2587  publicFun() */\n      tag_27\n        /* \"cuimianMaster/Copy_Visibility.sol\":2576:2585  publicFun */\n      tag_17\n        /* \"cuimianMaster/Copy_Visibility.sol\":2576:2587  publicFun() */\n      jump\t// in\n    tag_27:\n      pop\n        /* \"cuimianMaster/Copy_Visibility.sol\":2900:2904  this */\n      address\n        /* \"cuimianMaster/Copy_Visibility.sol\":2900:2916  this.externalFun */\n      0xffffffffffffffffffffffffffffffffffffffff\n      and\n      0x4c816d9f\n        /* \"cuimianMaster/Copy_Visibility.sol\":2900:2918  this.externalFun() */\n      mload(0x40)\n      dup2\n      0xffffffff\n      and\n      0xe0\n      shl\n      dup2\n      mstore\n      0x04\n      add\n      0x20\n      mload(0x40)\n      dup1\n      dup4\n      sub\n      dup2\n      dup7\n      gas\n      staticcall\n      iszero\n      dup1\n      iszero\n      tag_29\n      jumpi\n      returndatasize\n      0x00\n      dup1\n      returndatacopy\n      revert(0x00, returndatasize)\n    tag_29:\n      pop\n      pop\n      pop\n      pop\n      mload(0x40)\n      returndatasize\n      not(0x1f)\n      0x1f\n      dup3\n      add\n      and\n      dup3\n      add\n      dup1\n      0x40\n      mstore\n      pop\n      dup2\n      add\n      swap1\n      tag_30\n      swap2\n      swap1\n      tag_31\n      jump\t// in\n    tag_30:\n      pop\n        /* \"cuimianMaster/Copy_Visibility.sol\":2464:2926  function examples() public view {... */\n      jump\t// out\n        /* \"cuimianMaster/Copy_Visibility.sol\":2294:2373  function externalFun() external pure returns (uint) {... */\n    tag_14:\n        /* \"cuimianMaster/Copy_Visibility.sol\":2340:2344  uint */\n      0x00\n        /* \"cuimianMaster/Copy_Visibility.sol\":2294:2373  function externalFun() external pure returns (uint) {... */\n      swap1\n      jump\t// out\n        /* \"cuimianMaster/Copy_Visibility.sol\":2381:2456  function publicFun() public pure returns (uint) {... */\n    tag_17:\n        /* \"cuimianMaster/Copy_Visibility.sol\":2423:2427  uint */\n      0x00\n        /* \"cuimianMaster/Copy_Visibility.sol\":2381:2456  function publicFun() public pure returns (uint) {... */\n      swap1\n      jump\t// out\n        /* \"cuimianMaster/Copy_Visibility.sol\":2122:2199  function privateFun() private pure returns (uint) {... */\n    tag_24:\n        /* \"cuimianMaster/Copy_Visibility.sol\":2166:2170  uint */\n      0x00\n        /* \"cuimianMaster/Copy_Visibility.sol\":2122:2199  function privateFun() private pure returns (uint) {... */\n      swap1\n      jump\t// out\n        /* \"cuimianMaster/Copy_Visibility.sol\":2207:2286  function internalFun() internal pure returns (uint) {... */\n    tag_26:\n        /* \"cuimianMaster/Copy_Visibility.sol\":2253:2257  uint */\n      0x00\n        /* \"cuimianMaster/Copy_Visibility.sol\":2207:2286  function internalFun() internal pure returns (uint) {... */\n      swap1\n      jump\t// out\n        /* \"#utility.yul\":7:84   */\n    tag_36:\n        /* \"#utility.yul\":44:51   */\n      0x00\n        /* \"#utility.yul\":73:78   */\n      dup2\n        /* \"#utility.yul\":62:78   */\n      swap1\n      pop\n        /* \"#utility.yul\":7:84   */\n      swap2\n      swap1\n      pop\n      jump\t// out\n        /* \"#utility.yul\":90:208   */\n    tag_37:\n        /* \"#utility.yul\":177:201   */\n      tag_47\n        /* \"#utility.yul\":195:200   */\n      dup2\n        /* \"#utility.yul\":177:201   */\n      tag_36\n      jump\t// in\n    tag_47:\n        /* \"#utility.yul\":172:175   */\n      dup3\n        /* \"#utility.yul\":165:202   */\n      mstore\n        /* \"#utility.yul\":90:208   */\n      pop\n      pop\n      jump\t// out\n        /* \"#utility.yul\":214:436   */\n    tag_10:\n        /* \"#utility.yul\":307:311   */\n      0x00\n        /* \"#utility.yul\":345:347   */\n      0x20\n        /* \"#utility.yul\":334:343   */\n      dup3\n        /* \"#utility.yul\":330:348   */\n      add\n        /* \"#utility.yul\":322:348   */\n      swap1\n      pop\n        /* \"#utility.yul\":358:429   */\n      tag_49\n        /* \"#utility.yul\":426:427   */\n      0x00\n        /* \"#utility.yul\":415:424   */\n      dup4\n        /* \"#utility.yul\":411:428   */\n      add\n        /* \"#utility.yul\":402:408   */\n      dup5\n        /* \"#utility.yul\":358:429   */\n      tag_37\n      jump\t// in\n    tag_49:\n        /* \"#utility.yul\":214:436   */\n      swap3\n      swap2\n      pop\n      pop\n      jump\t// out\n        /* \"#utility.yul\":442:622   */\n    tag_38:\n        /* \"#utility.yul\":490:567   */\n      0x4e487b7100000000000000000000000000000000000000000000000000000000\n        /* \"#utility.yul\":487:488   */\n      0x00\n        /* \"#utility.yul\":480:568   */\n      mstore\n        /* \"#utility.yul\":587:591   */\n      0x11\n        /* \"#utility.yul\":584:585   */\n      0x04\n        /* \"#utility.yul\":577:592   */\n      mstore\n        /* \"#utility.yul\":611:615   */\n      0x24\n        /* \"#utility.yul\":608:609   */\n      0x00\n        /* \"#utility.yul\":601:616   */\n      revert\n        /* \"#utility.yul\":628:819   */\n    tag_21:\n        /* \"#utility.yul\":668:671   */\n      0x00\n        /* \"#utility.yul\":687:707   */\n      tag_52\n        /* \"#utility.yul\":705:706   */\n      dup3\n        /* \"#utility.yul\":687:707   */\n      tag_36\n      jump\t// in\n    tag_52:\n        /* \"#utility.yul\":682:707   */\n      swap2\n      pop\n        /* \"#utility.yul\":721:741   */\n      tag_53\n        /* \"#utility.yul\":739:740   */\n      dup4\n        /* \"#utility.yul\":721:741   */\n      tag_36\n      jump\t// in\n    tag_53:\n        /* \"#utility.yul\":716:741   */\n      swap3\n      pop\n        /* \"#utility.yul\":764:765   */\n      dup3\n        /* \"#utility.yul\":761:762   */\n      dup3\n        /* \"#utility.yul\":757:766   */\n      add\n        /* \"#utility.yul\":750:766   */\n      swap1\n      pop\n        /* \"#utility.yul\":785:788   */\n      dup1\n        /* \"#utility.yul\":782:783   */\n      dup3\n        /* \"#utility.yul\":779:789   */\n      gt\n        /* \"#utility.yul\":776:812   */\n      iszero\n      tag_54\n      jumpi\n        /* \"#utility.yul\":792:810   */\n      tag_55\n      tag_38\n      jump\t// in\n    tag_55:\n        /* \"#utility.yul\":776:812   */\n    tag_54:\n        /* \"#utility.yul\":628:819   */\n      swap3\n      swap2\n      pop\n      pop\n      jump\t// out\n        /* \"#utility.yul\":906:1023   */\n    tag_40:\n        /* \"#utility.yul\":1015:1016   */\n      0x00\n        /* \"#utility.yul\":1012:1013   */\n      dup1\n        /* \"#utility.yul\":1005:1017   */\n      revert\n        /* \"#utility.yul\":1152:1274   */\n    tag_42:\n        /* \"#utility.yul\":1225:1249   */\n      tag_60\n        /* \"#utility.yul\":1243:1248   */\n      dup2\n        /* \"#utility.yul\":1225:1249   */\n      tag_36\n      jump\t// in\n    tag_60:\n        /* \"#utility.yul\":1218:1223   */\n      dup2\n        /* \"#utility.yul\":1215:1250   */\n      eq\n        /* \"#utility.yul\":1205:1268   */\n      tag_61\n      jumpi\n        /* \"#utility.yul\":1264:1265   */\n      0x00\n        /* \"#utility.yul\":1261:1262   */\n      dup1\n        /* \"#utility.yul\":1254:1266   */\n      revert\n        /* \"#utility.yul\":1205:1268   */\n    tag_61:\n        /* \"#utility.yul\":1152:1274   */\n      pop\n      jump\t// out\n        /* \"#utility.yul\":1280:1423   */\n    tag_43:\n        /* \"#utility.yul\":1337:1342   */\n      0x00\n        /* \"#utility.yul\":1368:1374   */\n      dup2\n        /* \"#utility.yul\":1362:1375   */\n      mload\n        /* \"#utility.yul\":1353:1375   */\n      swap1\n      pop\n        /* \"#utility.yul\":1384:1417   */\n      tag_63\n        /* \"#utility.yul\":1411:1416   */\n      dup2\n        /* \"#utility.yul\":1384:1417   */\n      tag_42\n      jump\t// in\n    tag_63:\n        /* \"#utility.yul\":1280:1423   */\n      swap3\n      swap2\n      pop\n      pop\n      jump\t// out\n        /* \"#utility.yul\":1429:1780   */\n    tag_31:\n        /* \"#utility.yul\":1499:1505   */\n      0x00\n        /* \"#utility.yul\":1548:1550   */\n      0x20\n        /* \"#utility.yul\":1536:1545   */\n      dup3\n        /* \"#utility.yul\":1527:1534   */\n      dup5\n        /* \"#utility.yul\":1523:1546   */\n      sub\n        /* \"#utility.yul\":1519:1551   */\n      slt\n        /* \"#utility.yul\":1516:1635   */\n      iszero\n      tag_65\n      jumpi\n        /* \"#utility.yul\":1554:1633   */\n      tag_66\n      tag_40\n      jump\t// in\n    tag_66:\n        /* \"#utility.yul\":1516:1635   */\n    tag_65:\n        /* \"#utility.yul\":1674:1675   */\n      0x00\n        /* \"#utility.yul\":1699:1763   */\n      tag_67\n        /* \"#utility.yul\":1755:1762   */\n      dup5\n        /* \"#utility.yul\":1746:1752   */\n      dup3\n        /* \"#utility.yul\":1735:1744   */\n      dup6\n        /* \"#utility.yul\":1731:1753   */\n      add\n        /* \"#utility.yul\":1699:1763   */\n      tag_43\n      jump\t// in\n    tag_67:\n        /* \"#utility.yul\":1689:1763   */\n      swap2\n      pop\n        /* \"#utility.yul\":1645:1773   */\n      pop\n        /* \"#utility.yul\":1429:1780   */\n      swap3\n      swap2\n      pop\n      pop\n      jump\t// out\n\n    auxdata: 0xa2646970667358221220284de89cbdbdc7b72cc12a888e811854be5d3bb6430127a937f54179562b80a364736f6c63430008120033\n}\n",
				"bytecode": {
					"linkReferences": {},
					"object": "60806040526000805560018055600360025534801561001d57600080fd5b506102a58061002d6000396000f3fe608060405234801561001057600080fd5b506004361061004c5760003560e01c80632e52d60614610051578063335d00c21461006f5780634c816d9f14610079578063b7372fab14610097575b600080fd5b6100596100b5565b6040516100669190610193565b60405180910390f35b6100776100bb565b005b610081610166565b60405161008e9190610193565b60405180910390f35b61009f61016b565b6040516100ac9190610193565b60405180910390f35b60025481565b6002546001546000546100ce91906101dd565b6100d891906101dd565b506100e1610170565b506100ea610175565b506100f361016b565b503073ffffffffffffffffffffffffffffffffffffffff16634c816d9f6040518163ffffffff1660e01b8152600401602060405180830381865afa15801561013f573d6000803e3d6000fd5b505050506040513d601f19601f820116820180604052508101906101639190610242565b50565b600090565b600090565b600090565b600090565b6000819050919050565b61018d8161017a565b82525050565b60006020820190506101a86000830184610184565b92915050565b7f4e487b7100000000000000000000000000000000000000000000000000000000600052601160045260246000fd5b60006101e88261017a565b91506101f38361017a565b925082820190508082111561020b5761020a6101ae565b5b92915050565b600080fd5b61021f8161017a565b811461022a57600080fd5b50565b60008151905061023c81610216565b92915050565b60006020828403121561025857610257610211565b5b60006102668482850161022d565b9150509291505056fea2646970667358221220284de89cbdbdc7b72cc12a888e811854be5d3bb6430127a937f54179562b80a364736f6c63430008120033",
					"opcodes": "PUSH1 0x80 PUSH1 0x40 MSTORE PUSH1 0x0 DUP1 SSTORE PUSH1 0x1 DUP1 SSTORE PUSH1 0x3 PUSH1 0x2 SSTORE CALLVALUE DUP1 ISZERO PUSH2 0x1D JUMPI PUSH1 0x0 DUP1 REVERT JUMPDEST POP PUSH2 0x2A5 DUP1 PUSH2 0x2D PUSH1 0x0 CODECOPY PUSH1 0x0 RETURN INVALID PUSH1 0x80 PUSH1 0x40 MSTORE CALLVALUE DUP1 ISZERO PUSH2 0x10 JUMPI PUSH1 0x0 DUP1 REVERT JUMPDEST POP PUSH1 0x4 CALLDATASIZE LT PUSH2 0x4C JUMPI PUSH1 0x0 CALLDATALOAD PUSH1 0xE0 SHR DUP1 PUSH4 0x2E52D606 EQ PUSH2 0x51 JUMPI DUP1 PUSH4 0x335D00C2 EQ PUSH2 0x6F JUMPI DUP1 PUSH4 0x4C816D9F EQ PUSH2 0x79 JUMPI DUP1 PUSH4 0xB7372FAB EQ PUSH2 0x97 JUMPI JUMPDEST PUSH1 0x0 DUP1 REVERT JUMPDEST PUSH2 0x59 PUSH2 0xB5 JUMP JUMPDEST PUSH1 0x40 MLOAD PUSH2 0x66 SWAP2 SWAP1 PUSH2 0x193 JUMP JUMPDEST PUSH1 0x40 MLOAD DUP1 SWAP2 SUB SWAP1 RETURN JUMPDEST PUSH2 0x77 PUSH2 0xBB JUMP JUMPDEST STOP JUMPDEST PUSH2 0x81 PUSH2 0x166 JUMP JUMPDEST PUSH1 0x40 MLOAD PUSH2 0x8E SWAP2 SWAP1 PUSH2 0x193 JUMP JUMPDEST PUSH1 0x40 MLOAD DUP1 SWAP2 SUB SWAP1 RETURN JUMPDEST PUSH2 0x9F PUSH2 0x16B JUMP JUMPDEST PUSH1 0x40 MLOAD PUSH2 0xAC SWAP2 SWAP1 PUSH2 0x193 JUMP JUMPDEST PUSH1 0x40 MLOAD DUP1 SWAP2 SUB SWAP1 RETURN JUMPDEST PUSH1 0x2 SLOAD DUP2 JUMP JUMPDEST PUSH1 0x2 SLOAD PUSH1 0x1 SLOAD PUSH1 0x0 SLOAD PUSH2 0xCE SWAP2 SWAP1 PUSH2 0x1DD JUMP JUMPDEST PUSH2 0xD8 SWAP2 SWAP1 PUSH2 0x1DD JUMP JUMPDEST POP PUSH2 0xE1 PUSH2 0x170 JUMP JUMPDEST POP PUSH2 0xEA PUSH2 0x175 JUMP JUMPDEST POP PUSH2 0xF3 PUSH2 0x16B JUMP JUMPDEST POP ADDRESS PUSH20 0xFFFFFFFFFFFFFFFFFFFFFFFFFFFFFFFFFFFFFFFF AND PUSH4 0x4C816D9F PUSH1 0x40 MLOAD DUP2 PUSH4 0xFFFFFFFF AND PUSH1 0xE0 SHL DUP2 MSTORE PUSH1 0x4 ADD PUSH1 0x20 PUSH1 0x40 MLOAD DUP1 DUP4 SUB DUP2 DUP7 GAS STATICCALL ISZERO DUP1 ISZERO PUSH2 0x13F JUMPI RETURNDATASIZE PUSH1 0x0 DUP1 RETURNDATACOPY RETURNDATASIZE PUSH1 0x0 REVERT JUMPDEST POP POP POP POP PUSH1 0x40 MLOAD RETURNDATASIZE PUSH1 0x1F NOT PUSH1 0x1F DUP3 ADD AND DUP3 ADD DUP1 PUSH1 0x40 MSTORE POP DUP2 ADD SWAP1 PUSH2 0x163 SWAP2 SWAP1 PUSH2 0x242 JUMP JUMPDEST POP JUMP JUMPDEST PUSH1 0x0 SWAP1 JUMP JUMPDEST PUSH1 0x0 SWAP1 JUMP JUMPDEST PUSH1 0x0 SWAP1 JUMP JUMPDEST PUSH1 0x0 SWAP1 JUMP JUMPDEST PUSH1 0x0 DUP2 SWAP1 POP SWAP2 SWAP1 POP JUMP JUMPDEST PUSH2 0x18D DUP2 PUSH2 0x17A JUMP JUMPDEST DUP3 MSTORE POP POP JUMP JUMPDEST PUSH1 0x0 PUSH1 0x20 DUP3 ADD SWAP1 POP PUSH2 0x1A8 PUSH1 0x0 DUP4 ADD DUP5 PUSH2 0x184 JUMP JUMPDEST SWAP3 SWAP2 POP POP JUMP JUMPDEST PUSH32 0x4E487B7100000000000000000000000000000000000000000000000000000000 PUSH1 0x0 MSTORE PUSH1 0x11 PUSH1 0x4 MSTORE PUSH1 0x24 PUSH1 0x0 REVERT JUMPDEST PUSH1 0x0 PUSH2 0x1E8 DUP3 PUSH2 0x17A JUMP JUMPDEST SWAP2 POP PUSH2 0x1F3 DUP4 PUSH2 0x17A JUMP JUMPDEST SWAP3 POP DUP3 DUP3 ADD SWAP1 POP DUP1 DUP3 GT ISZERO PUSH2 0x20B JUMPI PUSH2 0x20A PUSH2 0x1AE JUMP JUMPDEST JUMPDEST SWAP3 SWAP2 POP POP JUMP JUMPDEST PUSH1 0x0 DUP1 REVERT JUMPDEST PUSH2 0x21F DUP2 PUSH2 0x17A JUMP JUMPDEST DUP2 EQ PUSH2 0x22A JUMPI PUSH1 0x0 DUP1 REVERT JUMPDEST POP JUMP JUMPDEST PUSH1 0x0 DUP2 MLOAD SWAP1 POP PUSH2 0x23C DUP2 PUSH2 0x216 JUMP JUMPDEST SWAP3 SWAP2 POP POP JUMP JUMPDEST PUSH1 0x0 PUSH1 0x20 DUP3 DUP5 SUB SLT ISZERO PUSH2 0x258 JUMPI PUSH2 0x257 PUSH2 0x211 JUMP JUMPDEST JUMPDEST PUSH1 0x0 PUSH2 0x266 DUP5 DUP3 DUP6 ADD PUSH2 0x22D JUMP JUMPDEST SWAP2 POP POP SWAP3 SWAP2 POP POP JUMP INVALID LOG2 PUSH5 0x6970667358 0x22 SLT KECCAK256 0x28 0x4D 0xE8 SWAP13 0xBD 0xBD 0xC7 0xB7 0x2C 0xC1 0x2A DUP9 DUP15 DUP2 XOR SLOAD 0xBE 0x5D EXTCODESIZE 0xB6 NUMBER ADD 0x27 0xA9 CALLDATACOPY CREATE2 COINBASE PUSH26 0x562B80A364736F6C634300081200330000000000000000000000 "
				},
				"gasEstimates": {
					"creation": {
						"codeDepositCost": "135400",
						"executionCost": "49401",
						"totalCost": "184801"
					},
					"external": {
						"examples()": "infinite",
						"externalFun()": "351",
						"n()": "2407",
						"publicFun()": "373"
					},
					"internal": {
						"internalFun()": "15",
						"privateFun()": "15"
					}
				},
				"methodIdentifiers": {
					"examples()": "335d00c2",
					"externalFun()": "4c816d9f",
					"n()": "2e52d606",
					"publicFun()": "b7372fab"
				}
			},
			"storageLayout": {
				"storage": [
					{
						"astId": 4,
						"contract": "cuimianMaster/Copy_Visibility.sol:VisibilityBase",
						"label": "x",
						"offset": 0,
						"slot": "0",
						"type": "t_uint256"
					},
					{
						"astId": 7,
						"contract": "cuimianMaster/Copy_Visibility.sol:VisibilityBase",
						"label": "y",
						"offset": 0,
						"slot": "1",
						"type": "t_uint256"
					},
					{
						"astId": 10,
						"contract": "cuimianMaster/Copy_Visibility.sol:VisibilityBase",
						"label": "n",
						"offset": 0,
						"slot": "2",
						"type": "t_uint256"
					}
				],
				"types": {
					"t_uint256": {
						"encoding": "inplace",
						"label": "uint256",
						"numberOfBytes": "32"
					}
				}
			},
			"userdoc": {
				"kind": "user",
				"methods": {},
				"version": 1
			}
		}
	}
}