{
	"cuimianMaster/NFT.sol": {
		"ERC721": {
			"abi": [
				{
					"anonymous": false,
					"inputs": [
						{
							"indexed": true,
							"internalType": "address",
							"name": "owner",
							"type": "address"
						},
						{
							"indexed": true,
							"internalType": "address",
							"name": "approved",
							"type": "address"
						},
						{
							"indexed": true,
							"internalType": "uint256",
							"name": "tokenId",
							"type": "uint256"
						}
					],
					"name": "Approval",
					"type": "event"
				},
				{
					"anonymous": false,
					"inputs": [
						{
							"indexed": true,
							"internalType": "address",
							"name": "owner",
							"type": "address"
						},
						{
							"indexed": true,
							"internalType": "address",
							"name": "operator",
							"type": "address"
						},
						{
							"indexed": false,
							"internalType": "bool",
							"name": "approved",
							"type": "bool"
						}
					],
					"name": "ApprovalForAll",
					"type": "event"
				},
				{
					"anonymous": false,
					"inputs": [
						{
							"indexed": true,
							"internalType": "address",
							"name": "from",
							"type": "address"
						},
						{
							"indexed": true,
							"internalType": "address",
							"name": "to",
							"type": "address"
						},
						{
							"indexed": true,
							"internalType": "uint256",
							"name": "tokenId",
							"type": "uint256"
						}
					],
					"name": "Transfer",
					"type": "event"
				},
				{
					"inputs": [
						{
							"internalType": "address",
							"name": "to",
							"type": "address"
						},
						{
							"internalType": "uint256",
							"name": "tokenId",
							"type": "uint256"
						}
					],
					"name": "approve",
					"outputs": [],
					"stateMutability": "nonpayable",
					"type": "function"
				},
				{
					"inputs": [
						{
							"internalType": "address",
							"name": "owner",
							"type": "address"
						}
					],
					"name": "balanceOf",
					"outputs": [
						{
							"internalType": "uint256",
							"name": "",
							"type": "uint256"
						}
					],
					"stateMutability": "view",
					"type": "function"
				},
				{
					"inputs": [
						{
							"internalType": "uint256",
							"name": "tokenId",
							"type": "uint256"
						}
					],
					"name": "burn",
					"outputs": [],
					"stateMutability": "nonpayable",
					"type": "function"
				},
				{
					"inputs": [
						{
							"internalType": "uint256",
							"name": "tokenId",
							"type": "uint256"
						}
					],
					"name": "getApproved",
					"outputs": [
						{
							"internalType": "address",
							"name": "",
							"type": "address"
						}
					],
					"stateMutability": "view",
					"type": "function"
				},
				{
					"inputs": [
						{
							"internalType": "address",
							"name": "owner",
							"type": "address"
						},
						{
							"internalType": "address",
							"name": "operator",
							"type": "address"
						}
					],
					"name": "isApprovedForAll",
					"outputs": [
						{
							"internalType": "bool",
							"name": "",
							"type": "bool"
						}
					],
					"stateMutability": "view",
					"type": "function"
				},
				{
					"inputs": [
						{
							"internalType": "address",
							"name": "to",
							"type": "address"
						},
						{
							"internalType": "uint256",
							"name": "tokenId",
							"type": "uint256"
						}
					],
					"name": "mint",
					"outputs": [],
					"stateMutability": "nonpayable",
					"type": "function"
				},
				{
					"inputs": [
						{
							"internalType": "uint256",
							"name": "tokenId",
							"type": "uint256"
						}
					],
					"name": "ownerOf",
					"outputs": [
						{
							"internalType": "address",
							"name": "owner",
							"type": "address"
						}
					],
					"stateMutability": "view",
					"type": "function"
				},
				{
					"inputs": [
						{
							"internalType": "address",
							"name": "from",
							"type": "address"
						},
						{
							"internalType": "address",
							"name": "to",
							"type": "address"
						},
						{
							"internalType": "uint256",
							"name": "tokenId",
							"type": "uint256"
						}
					],
					"name": "safeTransferFrom",
					"outputs": [],
					"stateMutability": "nonpayable",
					"type": "function"
				},
				{
					"inputs": [
						{
							"internalType": "address",
							"name": "from",
							"type": "address"
						},
						{
							"internalType": "address",
							"name": "to",
							"type": "address"
						},
						{
							"internalType": "uint256",
							"name": "tokenId",
							"type": "uint256"
						},
						{
							"internalType": "bytes",
							"name": "_data",
							"type": "bytes"
						}
					],
					"name": "safeTransferFrom",
					"outputs": [],
					"stateMutability": "nonpayable",
					"type": "function"
				},
				{
					"inputs": [
						{
							"internalType": "address",
							"name": "operator",
							"type": "address"
						},
						{
							"internalType": "bool",
							"name": "approved",
							"type": "bool"
						}
					],
					"name": "setApprovalForAll",
					"outputs": [],
					"stateMutability": "nonpayable",
					"type": "function"
				},
				{
					"inputs": [
						{
							"internalType": "bytes4",
							"name": "interfaceId",
							"type": "bytes4"
						}
					],
					"name": "supportsInterface",
					"outputs": [
						{
							"internalType": "bool",
							"name": "",
							"type": "bool"
						}
					],
					"stateMutability": "pure",
					"type": "function"
				},
				{
					"inputs": [
						{
							"internalType": "address",
							"name": "from",
							"type": "address"
						},
						{
							"internalType": "address",
							"name": "to",
							"type": "address"
						},
						{
							"internalType": "uint256",
							"name": "tokenId",
							"type": "uint256"
						}
					],
					"name": "transferFrom",
					"outputs": [],
					"stateMutability": "nonpayable",
					"type": "function"
				}
			],
			"devdoc": {
				"kind": "dev",
				"methods": {},
				"version": 1
			},
			"evm": {
				"assembly": "    /* \"cuimianMaster/NFT.sol\":1283:7825  contract ERC721 is IERC721 {... */\n  mstore(0x40, 0x80)\n  callvalue\n  dup1\n  iszero\n  tag_1\n  jumpi\n  0x00\n  dup1\n  revert\ntag_1:\n  pop\n  dataSize(sub_0)\n  dup1\n  dataOffset(sub_0)\n  0x00\n  codecopy\n  0x00\n  return\nstop\n\nsub_0: assembly {\n        /* \"cuimianMaster/NFT.sol\":1283:7825  contract ERC721 is IERC721 {... */\n      mstore(0x40, 0x80)\n      callvalue\n      dup1\n      iszero\n      tag_1\n      jumpi\n      0x00\n      dup1\n      revert\n    tag_1:\n      pop\n      jumpi(tag_2, lt(calldatasize, 0x04))\n      shr(0xe0, calldataload(0x00))\n      dup1\n      0x42966c68\n      gt\n      tag_15\n      jumpi\n      dup1\n      0x42966c68\n      eq\n      tag_9\n      jumpi\n      dup1\n      0x6352211e\n      eq\n      tag_10\n      jumpi\n      dup1\n      0x70a08231\n      eq\n      tag_11\n      jumpi\n      dup1\n      0xa22cb465\n      eq\n      tag_12\n      jumpi\n      dup1\n      0xb88d4fde\n      eq\n      tag_13\n      jumpi\n      dup1\n      0xe985e9c5\n      eq\n      tag_14\n      jumpi\n      jump(tag_2)\n    tag_15:\n      dup1\n      0x01ffc9a7\n      eq\n      tag_3\n      jumpi\n      dup1\n      0x081812fc\n      eq\n      tag_4\n      jumpi\n      dup1\n      0x095ea7b3\n      eq\n      tag_5\n      jumpi\n      dup1\n      0x23b872dd\n      eq\n      tag_6\n      jumpi\n      dup1\n      0x40c10f19\n      eq\n      tag_7\n      jumpi\n      dup1\n      0x42842e0e\n      eq\n      tag_8\n      jumpi\n    tag_2:\n      0x00\n      dup1\n      revert\n        /* \"cuimianMaster/NFT.sol\":2243:2505  function supportsInterface(bytes4 interfaceId)... */\n    tag_3:\n      tag_16\n      0x04\n      dup1\n      calldatasize\n      sub\n      dup2\n      add\n      swap1\n      tag_17\n      swap2\n      swap1\n      tag_18\n      jump\t// in\n    tag_17:\n      tag_19\n      jump\t// in\n    tag_16:\n      mload(0x40)\n      tag_20\n      swap2\n      swap1\n      tag_21\n      jump\t// in\n    tag_20:\n      mload(0x40)\n      dup1\n      swap2\n      sub\n      swap1\n      return\n        /* \"cuimianMaster/NFT.sol\":3360:3559  function getApproved(uint tokenId) external view override returns (address) {... */\n    tag_4:\n      tag_22\n      0x04\n      dup1\n      calldatasize\n      sub\n      dup2\n      add\n      swap1\n      tag_23\n      swap2\n      swap1\n      tag_24\n      jump\t// in\n    tag_23:\n      tag_25\n      jump\t// in\n    tag_22:\n      mload(0x40)\n      tag_26\n      swap2\n      swap1\n      tag_27\n      jump\t// in\n    tag_26:\n      mload(0x40)\n      dup1\n      swap2\n      sub\n      swap1\n      return\n        /* \"cuimianMaster/NFT.sol\":3922:4340  function approve(address to, uint tokenId) external override {... */\n    tag_5:\n      tag_28\n      0x04\n      dup1\n      calldatasize\n      sub\n      dup2\n      add\n      swap1\n      tag_29\n      swap2\n      swap1\n      tag_30\n      jump\t// in\n    tag_29:\n      tag_31\n      jump\t// in\n    tag_28:\n      stop\n        /* \"cuimianMaster/NFT.sol\":5386:5726  function transferFrom(... */\n    tag_6:\n      tag_32\n      0x04\n      dup1\n      calldatasize\n      sub\n      dup2\n      add\n      swap1\n      tag_33\n      swap2\n      swap1\n      tag_34\n      jump\t// in\n    tag_33:\n      tag_35\n      jump\t// in\n    tag_32:\n      stop\n        /* \"cuimianMaster/NFT.sol\":7250:7555  function mint(address to, uint tokenId) external {... */\n    tag_7:\n      tag_36\n      0x04\n      dup1\n      calldatasize\n      sub\n      dup2\n      add\n      swap1\n      tag_37\n      swap2\n      swap1\n      tag_30\n      jump\t// in\n    tag_37:\n      tag_38\n      jump\t// in\n    tag_36:\n      stop\n        /* \"cuimianMaster/NFT.sol\":6952:7128  function safeTransferFrom(... */\n    tag_8:\n      tag_39\n      0x04\n      dup1\n      calldatasize\n      sub\n      dup2\n      add\n      swap1\n      tag_40\n      swap2\n      swap1\n      tag_34\n      jump\t// in\n    tag_40:\n      tag_41\n      jump\t// in\n    tag_39:\n      stop\n        /* \"cuimianMaster/NFT.sol\":7563:7822  function burn(uint tokenId) external {... */\n    tag_9:\n      tag_42\n      0x04\n      dup1\n      calldatasize\n      sub\n      dup2\n      add\n      swap1\n      tag_43\n      swap2\n      swap1\n      tag_24\n      jump\t// in\n    tag_43:\n      tag_44\n      jump\t// in\n    tag_42:\n      stop\n        /* \"cuimianMaster/NFT.sol\":2746:2927  function ownerOf(uint tokenId) public view override returns (address owner) {... */\n    tag_10:\n      tag_45\n      0x04\n      dup1\n      calldatasize\n      sub\n      dup2\n      add\n      swap1\n      tag_46\n      swap2\n      swap1\n      tag_24\n      jump\t// in\n    tag_46:\n      tag_47\n      jump\t// in\n    tag_45:\n      mload(0x40)\n      tag_48\n      swap2\n      swap1\n      tag_27\n      jump\t// in\n    tag_48:\n      mload(0x40)\n      dup1\n      swap2\n      sub\n      swap1\n      return\n        /* \"cuimianMaster/NFT.sol\":2535:2712  function balanceOf(address owner) external view override returns (uint) {... */\n    tag_11:\n      tag_49\n      0x04\n      dup1\n      calldatasize\n      sub\n      dup2\n      add\n      swap1\n      tag_50\n      swap2\n      swap1\n      tag_51\n      jump\t// in\n    tag_50:\n      tag_52\n      jump\t// in\n    tag_49:\n      mload(0x40)\n      tag_53\n      swap2\n      swap1\n      tag_54\n      jump\t// in\n    tag_53:\n      mload(0x40)\n      dup1\n      swap2\n      sub\n      swap1\n      return\n        /* \"cuimianMaster/NFT.sol\":3142:3352  function setApprovalForAll(address operator, bool approved) external override {... */\n    tag_12:\n      tag_55\n      0x04\n      dup1\n      calldatasize\n      sub\n      dup2\n      add\n      swap1\n      tag_56\n      swap2\n      swap1\n      tag_57\n      jump\t// in\n    tag_56:\n      tag_58\n      jump\t// in\n    tag_55:\n      stop\n        /* \"cuimianMaster/NFT.sol\":6562:6944  function safeTransferFrom(... */\n    tag_13:\n      tag_59\n      0x04\n      dup1\n      calldatasize\n      sub\n      dup2\n      add\n      swap1\n      tag_60\n      swap2\n      swap1\n      tag_61\n      jump\t// in\n    tag_60:\n      tag_62\n      jump\t// in\n    tag_59:\n      stop\n        /* \"cuimianMaster/NFT.sol\":2935:3134  function isApprovedForAll(address owner, address operator)... */\n    tag_14:\n      tag_63\n      0x04\n      dup1\n      calldatasize\n      sub\n      dup2\n      add\n      swap1\n      tag_64\n      swap2\n      swap1\n      tag_65\n      jump\t// in\n    tag_64:\n      tag_66\n      jump\t// in\n    tag_63:\n      mload(0x40)\n      tag_67\n      swap2\n      swap1\n      tag_21\n      jump\t// in\n    tag_67:\n      mload(0x40)\n      dup1\n      swap2\n      sub\n      swap1\n      return\n        /* \"cuimianMaster/NFT.sol\":2243:2505  function supportsInterface(bytes4 interfaceId)... */\n    tag_19:\n        /* \"cuimianMaster/NFT.sol\":2358:2362  bool */\n      0x00\n        /* \"cuimianMaster/NFT.sol\":2415:2440  type(IERC721).interfaceId */\n      0x80ac58cd00000000000000000000000000000000000000000000000000000000\n        /* \"cuimianMaster/NFT.sol\":2400:2440  interfaceId == type(IERC721).interfaceId */\n      not(0xffffffffffffffffffffffffffffffffffffffffffffffffffffffff)\n      and\n        /* \"cuimianMaster/NFT.sol\":2400:2411  interfaceId */\n      dup3\n        /* \"cuimianMaster/NFT.sol\":2400:2440  interfaceId == type(IERC721).interfaceId */\n      not(0xffffffffffffffffffffffffffffffffffffffffffffffffffffffff)\n      and\n      eq\n        /* \"cuimianMaster/NFT.sol\":2400:2497  interfaceId == type(IERC721).interfaceId ||... */\n      dup1\n      tag_69\n      jumpi\n      pop\n        /* \"cuimianMaster/NFT.sol\":2472:2497  type(IERC165).interfaceId */\n      0x01ffc9a700000000000000000000000000000000000000000000000000000000\n        /* \"cuimianMaster/NFT.sol\":2457:2497  interfaceId == type(IERC165).interfaceId */\n      not(0xffffffffffffffffffffffffffffffffffffffffffffffffffffffff)\n      and\n        /* \"cuimianMaster/NFT.sol\":2457:2468  interfaceId */\n      dup3\n        /* \"cuimianMaster/NFT.sol\":2457:2497  interfaceId == type(IERC165).interfaceId */\n      not(0xffffffffffffffffffffffffffffffffffffffffffffffffffffffff)\n      and\n      eq\n        /* \"cuimianMaster/NFT.sol\":2400:2497  interfaceId == type(IERC721).interfaceId ||... */\n    tag_69:\n        /* \"cuimianMaster/NFT.sol\":2380:2497  return... */\n      swap1\n      pop\n        /* \"cuimianMaster/NFT.sol\":2243:2505  function supportsInterface(bytes4 interfaceId)... */\n      swap2\n      swap1\n      pop\n      jump\t// out\n        /* \"cuimianMaster/NFT.sol\":3360:3559  function getApproved(uint tokenId) external view override returns (address) {... */\n    tag_25:\n        /* \"cuimianMaster/NFT.sol\":3427:3434  address */\n      0x00\n        /* \"cuimianMaster/NFT.sol\":3483:3484  0 */\n      dup1\n        /* \"cuimianMaster/NFT.sol\":3455:3485  _owners[tokenId] != address(0) */\n      0xffffffffffffffffffffffffffffffffffffffff\n      and\n        /* \"cuimianMaster/NFT.sol\":3455:3462  _owners */\n      0x00\n        /* \"cuimianMaster/NFT.sol\":3455:3471  _owners[tokenId] */\n      dup1\n        /* \"cuimianMaster/NFT.sol\":3463:3470  tokenId */\n      dup5\n        /* \"cuimianMaster/NFT.sol\":3455:3471  _owners[tokenId] */\n      dup2\n      mstore\n      0x20\n      add\n      swap1\n      dup2\n      mstore\n      0x20\n      add\n      0x00\n      keccak256\n      0x00\n      swap1\n      sload\n      swap1\n      0x0100\n      exp\n      swap1\n      div\n      0xffffffffffffffffffffffffffffffffffffffff\n      and\n        /* \"cuimianMaster/NFT.sol\":3455:3485  _owners[tokenId] != address(0) */\n      0xffffffffffffffffffffffffffffffffffffffff\n      and\n      sub\n        /* \"cuimianMaster/NFT.sol\":3447:3509  require(_owners[tokenId] != address(0), \"token doesn't exist\") */\n      tag_71\n      jumpi\n      mload(0x40)\n      0x08c379a000000000000000000000000000000000000000000000000000000000\n      dup2\n      mstore\n      0x04\n      add\n      tag_72\n      swap1\n      tag_73\n      jump\t// in\n    tag_72:\n      mload(0x40)\n      dup1\n      swap2\n      sub\n      swap1\n      revert\n    tag_71:\n        /* \"cuimianMaster/NFT.sol\":3527:3542  _tokenApprovals */\n      0x02\n        /* \"cuimianMaster/NFT.sol\":3527:3551  _tokenApprovals[tokenId] */\n      0x00\n        /* \"cuimianMaster/NFT.sol\":3543:3550  tokenId */\n      dup4\n        /* \"cuimianMaster/NFT.sol\":3527:3551  _tokenApprovals[tokenId] */\n      dup2\n      mstore\n      0x20\n      add\n      swap1\n      dup2\n      mstore\n      0x20\n      add\n      0x00\n      keccak256\n      0x00\n      swap1\n      sload\n      swap1\n      0x0100\n      exp\n      swap1\n      div\n      0xffffffffffffffffffffffffffffffffffffffff\n      and\n        /* \"cuimianMaster/NFT.sol\":3520:3551  return _tokenApprovals[tokenId] */\n      swap1\n      pop\n        /* \"cuimianMaster/NFT.sol\":3360:3559  function getApproved(uint tokenId) external view override returns (address) {... */\n      swap2\n      swap1\n      pop\n      jump\t// out\n        /* \"cuimianMaster/NFT.sol\":3922:4340  function approve(address to, uint tokenId) external override {... */\n    tag_31:\n        /* \"cuimianMaster/NFT.sol\":3994:4007  address owner */\n      0x00\n        /* \"cuimianMaster/NFT.sol\":4010:4017  _owners */\n      dup1\n        /* \"cuimianMaster/NFT.sol\":4010:4026  _owners[tokenId] */\n      0x00\n        /* \"cuimianMaster/NFT.sol\":4018:4025  tokenId */\n      dup4\n        /* \"cuimianMaster/NFT.sol\":4010:4026  _owners[tokenId] */\n      dup2\n      mstore\n      0x20\n      add\n      swap1\n      dup2\n      mstore\n      0x20\n      add\n      0x00\n      keccak256\n      0x00\n      swap1\n      sload\n      swap1\n      0x0100\n      exp\n      swap1\n      div\n      0xffffffffffffffffffffffffffffffffffffffff\n      and\n        /* \"cuimianMaster/NFT.sol\":3994:4026  address owner = _owners[tokenId] */\n      swap1\n      pop\n        /* \"cuimianMaster/NFT.sol\":4189:4194  owner */\n      dup1\n        /* \"cuimianMaster/NFT.sol\":4175:4194  msg.sender == owner */\n      0xffffffffffffffffffffffffffffffffffffffff\n      and\n        /* \"cuimianMaster/NFT.sol\":4175:4185  msg.sender */\n      caller\n        /* \"cuimianMaster/NFT.sol\":4175:4194  msg.sender == owner */\n      0xffffffffffffffffffffffffffffffffffffffff\n      and\n      eq\n        /* \"cuimianMaster/NFT.sol\":4175:4235  msg.sender == owner || _operatorApprovals[owner][msg.sender] */\n      dup1\n      tag_75\n      jumpi\n      pop\n        /* \"cuimianMaster/NFT.sol\":4198:4216  _operatorApprovals */\n      0x03\n        /* \"cuimianMaster/NFT.sol\":4198:4223  _operatorApprovals[owner] */\n      0x00\n        /* \"cuimianMaster/NFT.sol\":4217:4222  owner */\n      dup3\n        /* \"cuimianMaster/NFT.sol\":4198:4223  _operatorApprovals[owner] */\n      0xffffffffffffffffffffffffffffffffffffffff\n      and\n      0xffffffffffffffffffffffffffffffffffffffff\n      and\n      dup2\n      mstore\n      0x20\n      add\n      swap1\n      dup2\n      mstore\n      0x20\n      add\n      0x00\n      keccak256\n        /* \"cuimianMaster/NFT.sol\":4198:4235  _operatorApprovals[owner][msg.sender] */\n      0x00\n        /* \"cuimianMaster/NFT.sol\":4224:4234  msg.sender */\n      caller\n        /* \"cuimianMaster/NFT.sol\":4198:4235  _operatorApprovals[owner][msg.sender] */\n      0xffffffffffffffffffffffffffffffffffffffff\n      and\n      0xffffffffffffffffffffffffffffffffffffffff\n      and\n      dup2\n      mstore\n      0x20\n      add\n      swap1\n      dup2\n      mstore\n      0x20\n      add\n      0x00\n      keccak256\n      0x00\n      swap1\n      sload\n      swap1\n      0x0100\n      exp\n      swap1\n      div\n      0xff\n      and\n        /* \"cuimianMaster/NFT.sol\":4175:4235  msg.sender == owner || _operatorApprovals[owner][msg.sender] */\n    tag_75:\n        /* \"cuimianMaster/NFT.sol\":4037:4293  require(... */\n      tag_76\n      jumpi\n      mload(0x40)\n      0x08c379a000000000000000000000000000000000000000000000000000000000\n      dup2\n      mstore\n      0x04\n      add\n      tag_77\n      swap1\n      tag_78\n      jump\t// in\n    tag_77:\n      mload(0x40)\n      dup1\n      swap2\n      sub\n      swap1\n      revert\n    tag_76:\n        /* \"cuimianMaster/NFT.sol\":4304:4332  _approve(owner, to, tokenId) */\n      tag_79\n        /* \"cuimianMaster/NFT.sol\":4313:4318  owner */\n      dup2\n        /* \"cuimianMaster/NFT.sol\":4320:4322  to */\n      dup5\n        /* \"cuimianMaster/NFT.sol\":4324:4331  tokenId */\n      dup5\n        /* \"cuimianMaster/NFT.sol\":4304:4312  _approve */\n      tag_80\n        /* \"cuimianMaster/NFT.sol\":4304:4332  _approve(owner, to, tokenId) */\n      jump\t// in\n    tag_79:\n        /* \"cuimianMaster/NFT.sol\":3983:4340  {... */\n      pop\n        /* \"cuimianMaster/NFT.sol\":3922:4340  function approve(address to, uint tokenId) external override {... */\n      pop\n      pop\n      jump\t// out\n        /* \"cuimianMaster/NFT.sol\":5386:5726  function transferFrom(... */\n    tag_35:\n        /* \"cuimianMaster/NFT.sol\":5511:5524  address owner */\n      0x00\n        /* \"cuimianMaster/NFT.sol\":5527:5543  ownerOf(tokenId) */\n      tag_82\n        /* \"cuimianMaster/NFT.sol\":5535:5542  tokenId */\n      dup3\n        /* \"cuimianMaster/NFT.sol\":5527:5534  ownerOf */\n      tag_47\n        /* \"cuimianMaster/NFT.sol\":5527:5543  ownerOf(tokenId) */\n      jump\t// in\n    tag_82:\n        /* \"cuimianMaster/NFT.sol\":5511:5543  address owner = ownerOf(tokenId) */\n      swap1\n      pop\n        /* \"cuimianMaster/NFT.sol\":5576:5622  _isApprovedOrOwner(owner, msg.sender, tokenId) */\n      tag_83\n        /* \"cuimianMaster/NFT.sol\":5595:5600  owner */\n      dup2\n        /* \"cuimianMaster/NFT.sol\":5602:5612  msg.sender */\n      caller\n        /* \"cuimianMaster/NFT.sol\":5614:5621  tokenId */\n      dup5\n        /* \"cuimianMaster/NFT.sol\":5576:5594  _isApprovedOrOwner */\n      tag_84\n        /* \"cuimianMaster/NFT.sol\":5576:5622  _isApprovedOrOwner(owner, msg.sender, tokenId) */\n      jump\t// in\n    tag_83:\n        /* \"cuimianMaster/NFT.sol\":5554:5672  require(... */\n      tag_85\n      jumpi\n      mload(0x40)\n      0x08c379a000000000000000000000000000000000000000000000000000000000\n      dup2\n      mstore\n      0x04\n      add\n      tag_86\n      swap1\n      tag_87\n      jump\t// in\n    tag_86:\n      mload(0x40)\n      dup1\n      swap2\n      sub\n      swap1\n      revert\n    tag_85:\n        /* \"cuimianMaster/NFT.sol\":5683:5718  _transfer(owner, from, to, tokenId) */\n      tag_88\n        /* \"cuimianMaster/NFT.sol\":5693:5698  owner */\n      dup2\n        /* \"cuimianMaster/NFT.sol\":5700:5704  from */\n      dup6\n        /* \"cuimianMaster/NFT.sol\":5706:5708  to */\n      dup6\n        /* \"cuimianMaster/NFT.sol\":5710:5717  tokenId */\n      dup6\n        /* \"cuimianMaster/NFT.sol\":5683:5692  _transfer */\n      tag_89\n        /* \"cuimianMaster/NFT.sol\":5683:5718  _transfer(owner, from, to, tokenId) */\n      jump\t// in\n    tag_88:\n        /* \"cuimianMaster/NFT.sol\":5500:5726  {... */\n      pop\n        /* \"cuimianMaster/NFT.sol\":5386:5726  function transferFrom(... */\n      pop\n      pop\n      pop\n      jump\t// out\n        /* \"cuimianMaster/NFT.sol\":7250:7555  function mint(address to, uint tokenId) external {... */\n    tag_38:\n        /* \"cuimianMaster/NFT.sol\":7332:7333  0 */\n      0x00\n        /* \"cuimianMaster/NFT.sol\":7318:7334  to != address(0) */\n      0xffffffffffffffffffffffffffffffffffffffff\n      and\n        /* \"cuimianMaster/NFT.sol\":7318:7320  to */\n      dup3\n        /* \"cuimianMaster/NFT.sol\":7318:7334  to != address(0) */\n      0xffffffffffffffffffffffffffffffffffffffff\n      and\n      sub\n        /* \"cuimianMaster/NFT.sol\":7310:7359  require(to != address(0), \"mint to zero address\") */\n      tag_91\n      jumpi\n      mload(0x40)\n      0x08c379a000000000000000000000000000000000000000000000000000000000\n      dup2\n      mstore\n      0x04\n      add\n      tag_92\n      swap1\n      tag_93\n      jump\t// in\n    tag_92:\n      mload(0x40)\n      dup1\n      swap2\n      sub\n      swap1\n      revert\n    tag_91:\n        /* \"cuimianMaster/NFT.sol\":7406:7407  0 */\n      0x00\n        /* \"cuimianMaster/NFT.sol\":7378:7408  _owners[tokenId] == address(0) */\n      0xffffffffffffffffffffffffffffffffffffffff\n      and\n        /* \"cuimianMaster/NFT.sol\":7378:7385  _owners */\n      0x00\n        /* \"cuimianMaster/NFT.sol\":7378:7394  _owners[tokenId] */\n      dup1\n        /* \"cuimianMaster/NFT.sol\":7386:7393  tokenId */\n      dup4\n        /* \"cuimianMaster/NFT.sol\":7378:7394  _owners[tokenId] */\n      dup2\n      mstore\n      0x20\n      add\n      swap1\n      dup2\n      mstore\n      0x20\n      add\n      0x00\n      keccak256\n      0x00\n      swap1\n      sload\n      swap1\n      0x0100\n      exp\n      swap1\n      div\n      0xffffffffffffffffffffffffffffffffffffffff\n      and\n        /* \"cuimianMaster/NFT.sol\":7378:7408  _owners[tokenId] == address(0) */\n      0xffffffffffffffffffffffffffffffffffffffff\n      and\n      eq\n        /* \"cuimianMaster/NFT.sol\":7370:7433  require(_owners[tokenId] == address(0), \"token already minted\") */\n      tag_94\n      jumpi\n      mload(0x40)\n      0x08c379a000000000000000000000000000000000000000000000000000000000\n      dup2\n      mstore\n      0x04\n      add\n      tag_95\n      swap1\n      tag_96\n      jump\t// in\n    tag_95:\n      mload(0x40)\n      dup1\n      swap2\n      sub\n      swap1\n      revert\n    tag_94:\n        /* \"cuimianMaster/NFT.sol\":7463:7464  1 */\n      0x01\n        /* \"cuimianMaster/NFT.sol\":7446:7455  _balances */\n      dup1\n        /* \"cuimianMaster/NFT.sol\":7446:7459  _balances[to] */\n      0x00\n        /* \"cuimianMaster/NFT.sol\":7456:7458  to */\n      dup5\n        /* \"cuimianMaster/NFT.sol\":7446:7459  _balances[to] */\n      0xffffffffffffffffffffffffffffffffffffffff\n      and\n      0xffffffffffffffffffffffffffffffffffffffff\n      and\n      dup2\n      mstore\n      0x20\n      add\n      swap1\n      dup2\n      mstore\n      0x20\n      add\n      0x00\n      keccak256\n      0x00\n        /* \"cuimianMaster/NFT.sol\":7446:7464  _balances[to] += 1 */\n      dup3\n      dup3\n      sload\n      tag_97\n      swap2\n      swap1\n      tag_98\n      jump\t// in\n    tag_97:\n      swap3\n      pop\n      pop\n      dup2\n      swap1\n      sstore\n      pop\n        /* \"cuimianMaster/NFT.sol\":7494:7496  to */\n      dup2\n        /* \"cuimianMaster/NFT.sol\":7475:7482  _owners */\n      0x00\n        /* \"cuimianMaster/NFT.sol\":7475:7491  _owners[tokenId] */\n      dup1\n        /* \"cuimianMaster/NFT.sol\":7483:7490  tokenId */\n      dup4\n        /* \"cuimianMaster/NFT.sol\":7475:7491  _owners[tokenId] */\n      dup2\n      mstore\n      0x20\n      add\n      swap1\n      dup2\n      mstore\n      0x20\n      add\n      0x00\n      keccak256\n      0x00\n        /* \"cuimianMaster/NFT.sol\":7475:7496  _owners[tokenId] = to */\n      0x0100\n      exp\n      dup2\n      sload\n      dup2\n      0xffffffffffffffffffffffffffffffffffffffff\n      mul\n      not\n      and\n      swap1\n      dup4\n      0xffffffffffffffffffffffffffffffffffffffff\n      and\n      mul\n      or\n      swap1\n      sstore\n      pop\n        /* \"cuimianMaster/NFT.sol\":7539:7546  tokenId */\n      dup1\n        /* \"cuimianMaster/NFT.sol\":7535:7537  to */\n      dup3\n        /* \"cuimianMaster/NFT.sol\":7514:7547  Transfer(address(0), to, tokenId) */\n      0xffffffffffffffffffffffffffffffffffffffff\n      and\n        /* \"cuimianMaster/NFT.sol\":7531:7532  0 */\n      0x00\n        /* \"cuimianMaster/NFT.sol\":7514:7547  Transfer(address(0), to, tokenId) */\n      0xffffffffffffffffffffffffffffffffffffffff\n      and\n      0xddf252ad1be2c89b69c2b068fc378daa952ba7f163c4a11628f55a4df523b3ef\n      mload(0x40)\n      mload(0x40)\n      dup1\n      swap2\n      sub\n      swap1\n      log4\n        /* \"cuimianMaster/NFT.sol\":7250:7555  function mint(address to, uint tokenId) external {... */\n      pop\n      pop\n      jump\t// out\n        /* \"cuimianMaster/NFT.sol\":6952:7128  function safeTransferFrom(... */\n    tag_41:\n        /* \"cuimianMaster/NFT.sol\":7081:7120  safeTransferFrom(from, to, tokenId, \"\") */\n      tag_100\n        /* \"cuimianMaster/NFT.sol\":7098:7102  from */\n      dup4\n        /* \"cuimianMaster/NFT.sol\":7104:7106  to */\n      dup4\n        /* \"cuimianMaster/NFT.sol\":7108:7115  tokenId */\n      dup4\n        /* \"cuimianMaster/NFT.sol\":7081:7120  safeTransferFrom(from, to, tokenId, \"\") */\n      mload(0x40)\n      dup1\n      0x20\n      add\n      0x40\n      mstore\n      dup1\n      0x00\n      dup2\n      mstore\n      pop\n        /* \"cuimianMaster/NFT.sol\":7081:7097  safeTransferFrom */\n      tag_62\n        /* \"cuimianMaster/NFT.sol\":7081:7120  safeTransferFrom(from, to, tokenId, \"\") */\n      jump\t// in\n    tag_100:\n        /* \"cuimianMaster/NFT.sol\":6952:7128  function safeTransferFrom(... */\n      pop\n      pop\n      pop\n      jump\t// out\n        /* \"cuimianMaster/NFT.sol\":7563:7822  function burn(uint tokenId) external {... */\n    tag_44:\n        /* \"cuimianMaster/NFT.sol\":7611:7624  address owner */\n      0x00\n        /* \"cuimianMaster/NFT.sol\":7627:7643  ownerOf(tokenId) */\n      tag_102\n        /* \"cuimianMaster/NFT.sol\":7635:7642  tokenId */\n      dup3\n        /* \"cuimianMaster/NFT.sol\":7627:7634  ownerOf */\n      tag_47\n        /* \"cuimianMaster/NFT.sol\":7627:7643  ownerOf(tokenId) */\n      jump\t// in\n    tag_102:\n        /* \"cuimianMaster/NFT.sol\":7611:7643  address owner = ownerOf(tokenId) */\n      swap1\n      pop\n        /* \"cuimianMaster/NFT.sol\":7656:7692  _approve(owner, address(0), tokenId) */\n      tag_103\n        /* \"cuimianMaster/NFT.sol\":7665:7670  owner */\n      dup2\n        /* \"cuimianMaster/NFT.sol\":7680:7681  0 */\n      0x00\n        /* \"cuimianMaster/NFT.sol\":7684:7691  tokenId */\n      dup5\n        /* \"cuimianMaster/NFT.sol\":7656:7664  _approve */\n      tag_80\n        /* \"cuimianMaster/NFT.sol\":7656:7692  _approve(owner, address(0), tokenId) */\n      jump\t// in\n    tag_103:\n        /* \"cuimianMaster/NFT.sol\":7725:7726  1 */\n      0x01\n        /* \"cuimianMaster/NFT.sol\":7705:7714  _balances */\n      dup1\n        /* \"cuimianMaster/NFT.sol\":7705:7721  _balances[owner] */\n      0x00\n        /* \"cuimianMaster/NFT.sol\":7715:7720  owner */\n      dup4\n        /* \"cuimianMaster/NFT.sol\":7705:7721  _balances[owner] */\n      0xffffffffffffffffffffffffffffffffffffffff\n      and\n      0xffffffffffffffffffffffffffffffffffffffff\n      and\n      dup2\n      mstore\n      0x20\n      add\n      swap1\n      dup2\n      mstore\n      0x20\n      add\n      0x00\n      keccak256\n      0x00\n        /* \"cuimianMaster/NFT.sol\":7705:7726  _balances[owner] -= 1 */\n      dup3\n      dup3\n      sload\n      tag_104\n      swap2\n      swap1\n      tag_105\n      jump\t// in\n    tag_104:\n      swap3\n      pop\n      pop\n      dup2\n      swap1\n      sstore\n      pop\n        /* \"cuimianMaster/NFT.sol\":7744:7751  _owners */\n      0x00\n        /* \"cuimianMaster/NFT.sol\":7744:7760  _owners[tokenId] */\n      dup1\n        /* \"cuimianMaster/NFT.sol\":7752:7759  tokenId */\n      dup4\n        /* \"cuimianMaster/NFT.sol\":7744:7760  _owners[tokenId] */\n      dup2\n      mstore\n      0x20\n      add\n      swap1\n      dup2\n      mstore\n      0x20\n      add\n      0x00\n      keccak256\n      0x00\n        /* \"cuimianMaster/NFT.sol\":7737:7760  delete _owners[tokenId] */\n      0x0100\n      exp\n      dup2\n      sload\n      swap1\n      0xffffffffffffffffffffffffffffffffffffffff\n      mul\n      not\n      and\n      swap1\n      sstore\n        /* \"cuimianMaster/NFT.sol\":7806:7813  tokenId */\n      dup2\n        /* \"cuimianMaster/NFT.sol\":7802:7803  0 */\n      0x00\n        /* \"cuimianMaster/NFT.sol\":7778:7814  Transfer(owner, address(0), tokenId) */\n      0xffffffffffffffffffffffffffffffffffffffff\n      and\n        /* \"cuimianMaster/NFT.sol\":7787:7792  owner */\n      dup3\n        /* \"cuimianMaster/NFT.sol\":7778:7814  Transfer(owner, address(0), tokenId) */\n      0xffffffffffffffffffffffffffffffffffffffff\n      and\n      0xddf252ad1be2c89b69c2b068fc378daa952ba7f163c4a11628f55a4df523b3ef\n      mload(0x40)\n      mload(0x40)\n      dup1\n      swap2\n      sub\n      swap1\n      log4\n        /* \"cuimianMaster/NFT.sol\":7600:7822  {... */\n      pop\n        /* \"cuimianMaster/NFT.sol\":7563:7822  function burn(uint tokenId) external {... */\n      pop\n      jump\t// out\n        /* \"cuimianMaster/NFT.sol\":2746:2927  function ownerOf(uint tokenId) public view override returns (address owner) {... */\n    tag_47:\n        /* \"cuimianMaster/NFT.sol\":2807:2820  address owner */\n      0x00\n        /* \"cuimianMaster/NFT.sol\":2841:2848  _owners */\n      dup1\n        /* \"cuimianMaster/NFT.sol\":2841:2857  _owners[tokenId] */\n      0x00\n        /* \"cuimianMaster/NFT.sol\":2849:2856  tokenId */\n      dup4\n        /* \"cuimianMaster/NFT.sol\":2841:2857  _owners[tokenId] */\n      dup2\n      mstore\n      0x20\n      add\n      swap1\n      dup2\n      mstore\n      0x20\n      add\n      0x00\n      keccak256\n      0x00\n      swap1\n      sload\n      swap1\n      0x0100\n      exp\n      swap1\n      div\n      0xffffffffffffffffffffffffffffffffffffffff\n      and\n        /* \"cuimianMaster/NFT.sol\":2833:2857  owner = _owners[tokenId] */\n      swap1\n      pop\n        /* \"cuimianMaster/NFT.sol\":2893:2894  0 */\n      0x00\n        /* \"cuimianMaster/NFT.sol\":2876:2895  owner != address(0) */\n      0xffffffffffffffffffffffffffffffffffffffff\n      and\n        /* \"cuimianMaster/NFT.sol\":2876:2881  owner */\n      dup2\n        /* \"cuimianMaster/NFT.sol\":2876:2895  owner != address(0) */\n      0xffffffffffffffffffffffffffffffffffffffff\n      and\n      sub\n        /* \"cuimianMaster/NFT.sol\":2868:2919  require(owner != address(0), \"token doesn't exist\") */\n      tag_107\n      jumpi\n      mload(0x40)\n      0x08c379a000000000000000000000000000000000000000000000000000000000\n      dup2\n      mstore\n      0x04\n      add\n      tag_108\n      swap1\n      tag_73\n      jump\t// in\n    tag_108:\n      mload(0x40)\n      dup1\n      swap2\n      sub\n      swap1\n      revert\n    tag_107:\n        /* \"cuimianMaster/NFT.sol\":2746:2927  function ownerOf(uint tokenId) public view override returns (address owner) {... */\n      swap2\n      swap1\n      pop\n      jump\t// out\n        /* \"cuimianMaster/NFT.sol\":2535:2712  function balanceOf(address owner) external view override returns (uint) {... */\n    tag_52:\n        /* \"cuimianMaster/NFT.sol\":2601:2605  uint */\n      0x00\n        /* \"cuimianMaster/NFT.sol\":2643:2644  0 */\n      dup1\n        /* \"cuimianMaster/NFT.sol\":2626:2645  owner != address(0) */\n      0xffffffffffffffffffffffffffffffffffffffff\n      and\n        /* \"cuimianMaster/NFT.sol\":2626:2631  owner */\n      dup3\n        /* \"cuimianMaster/NFT.sol\":2626:2645  owner != address(0) */\n      0xffffffffffffffffffffffffffffffffffffffff\n      and\n      sub\n        /* \"cuimianMaster/NFT.sol\":2618:2670  require(owner != address(0), \"owner = zero address\") */\n      tag_110\n      jumpi\n      mload(0x40)\n      0x08c379a000000000000000000000000000000000000000000000000000000000\n      dup2\n      mstore\n      0x04\n      add\n      tag_111\n      swap1\n      tag_112\n      jump\t// in\n    tag_111:\n      mload(0x40)\n      dup1\n      swap2\n      sub\n      swap1\n      revert\n    tag_110:\n        /* \"cuimianMaster/NFT.sol\":2688:2697  _balances */\n      0x01\n        /* \"cuimianMaster/NFT.sol\":2688:2704  _balances[owner] */\n      0x00\n        /* \"cuimianMaster/NFT.sol\":2698:2703  owner */\n      dup4\n        /* \"cuimianMaster/NFT.sol\":2688:2704  _balances[owner] */\n      0xffffffffffffffffffffffffffffffffffffffff\n      and\n      0xffffffffffffffffffffffffffffffffffffffff\n      and\n      dup2\n      mstore\n      0x20\n      add\n      swap1\n      dup2\n      mstore\n      0x20\n      add\n      0x00\n      keccak256\n      sload\n        /* \"cuimianMaster/NFT.sol\":2681:2704  return _balances[owner] */\n      swap1\n      pop\n        /* \"cuimianMaster/NFT.sol\":2535:2712  function balanceOf(address owner) external view override returns (uint) {... */\n      swap2\n      swap1\n      pop\n      jump\t// out\n        /* \"cuimianMaster/NFT.sol\":3142:3352  function setApprovalForAll(address operator, bool approved) external override {... */\n    tag_58:\n        /* \"cuimianMaster/NFT.sol\":3274:3282  approved */\n      dup1\n        /* \"cuimianMaster/NFT.sol\":3231:3249  _operatorApprovals */\n      0x03\n        /* \"cuimianMaster/NFT.sol\":3231:3261  _operatorApprovals[msg.sender] */\n      0x00\n        /* \"cuimianMaster/NFT.sol\":3250:3260  msg.sender */\n      caller\n        /* \"cuimianMaster/NFT.sol\":3231:3261  _operatorApprovals[msg.sender] */\n      0xffffffffffffffffffffffffffffffffffffffff\n      and\n      0xffffffffffffffffffffffffffffffffffffffff\n      and\n      dup2\n      mstore\n      0x20\n      add\n      swap1\n      dup2\n      mstore\n      0x20\n      add\n      0x00\n      keccak256\n        /* \"cuimianMaster/NFT.sol\":3231:3271  _operatorApprovals[msg.sender][operator] */\n      0x00\n        /* \"cuimianMaster/NFT.sol\":3262:3270  operator */\n      dup5\n        /* \"cuimianMaster/NFT.sol\":3231:3271  _operatorApprovals[msg.sender][operator] */\n      0xffffffffffffffffffffffffffffffffffffffff\n      and\n      0xffffffffffffffffffffffffffffffffffffffff\n      and\n      dup2\n      mstore\n      0x20\n      add\n      swap1\n      dup2\n      mstore\n      0x20\n      add\n      0x00\n      keccak256\n      0x00\n        /* \"cuimianMaster/NFT.sol\":3231:3282  _operatorApprovals[msg.sender][operator] = approved */\n      0x0100\n      exp\n      dup2\n      sload\n      dup2\n      0xff\n      mul\n      not\n      and\n      swap1\n      dup4\n      iszero\n      iszero\n      mul\n      or\n      swap1\n      sstore\n      pop\n        /* \"cuimianMaster/NFT.sol\":3325:3333  operator */\n      dup2\n        /* \"cuimianMaster/NFT.sol\":3298:3344  ApprovalForAll(msg.sender, operator, approved) */\n      0xffffffffffffffffffffffffffffffffffffffff\n      and\n        /* \"cuimianMaster/NFT.sol\":3313:3323  msg.sender */\n      caller\n        /* \"cuimianMaster/NFT.sol\":3298:3344  ApprovalForAll(msg.sender, operator, approved) */\n      0xffffffffffffffffffffffffffffffffffffffff\n      and\n      0x17307eab39ab6107e8899845ad3d59bd9653f200f220920489ca2b5937696c31\n        /* \"cuimianMaster/NFT.sol\":3335:3343  approved */\n      dup4\n        /* \"cuimianMaster/NFT.sol\":3298:3344  ApprovalForAll(msg.sender, operator, approved) */\n      mload(0x40)\n      tag_114\n      swap2\n      swap1\n      tag_21\n      jump\t// in\n    tag_114:\n      mload(0x40)\n      dup1\n      swap2\n      sub\n      swap1\n      log3\n        /* \"cuimianMaster/NFT.sol\":3142:3352  function setApprovalForAll(address operator, bool approved) external override {... */\n      pop\n      pop\n      jump\t// out\n        /* \"cuimianMaster/NFT.sol\":6562:6944  function safeTransferFrom(... */\n    tag_62:\n        /* \"cuimianMaster/NFT.sol\":6718:6731  address owner */\n      0x00\n        /* \"cuimianMaster/NFT.sol\":6734:6750  ownerOf(tokenId) */\n      tag_116\n        /* \"cuimianMaster/NFT.sol\":6742:6749  tokenId */\n      dup4\n        /* \"cuimianMaster/NFT.sol\":6734:6741  ownerOf */\n      tag_47\n        /* \"cuimianMaster/NFT.sol\":6734:6750  ownerOf(tokenId) */\n      jump\t// in\n    tag_116:\n        /* \"cuimianMaster/NFT.sol\":6718:6750  address owner = ownerOf(tokenId) */\n      swap1\n      pop\n        /* \"cuimianMaster/NFT.sol\":6783:6829  _isApprovedOrOwner(owner, msg.sender, tokenId) */\n      tag_117\n        /* \"cuimianMaster/NFT.sol\":6802:6807  owner */\n      dup2\n        /* \"cuimianMaster/NFT.sol\":6809:6819  msg.sender */\n      caller\n        /* \"cuimianMaster/NFT.sol\":6821:6828  tokenId */\n      dup6\n        /* \"cuimianMaster/NFT.sol\":6783:6801  _isApprovedOrOwner */\n      tag_84\n        /* \"cuimianMaster/NFT.sol\":6783:6829  _isApprovedOrOwner(owner, msg.sender, tokenId) */\n      jump\t// in\n    tag_117:\n        /* \"cuimianMaster/NFT.sol\":6761:6879  require(... */\n      tag_118\n      jumpi\n      mload(0x40)\n      0x08c379a000000000000000000000000000000000000000000000000000000000\n      dup2\n      mstore\n      0x04\n      add\n      tag_119\n      swap1\n      tag_87\n      jump\t// in\n    tag_119:\n      mload(0x40)\n      dup1\n      swap2\n      sub\n      swap1\n      revert\n    tag_118:\n        /* \"cuimianMaster/NFT.sol\":6890:6936  _safeTransfer(owner, from, to, tokenId, _data) */\n      tag_120\n        /* \"cuimianMaster/NFT.sol\":6904:6909  owner */\n      dup2\n        /* \"cuimianMaster/NFT.sol\":6911:6915  from */\n      dup7\n        /* \"cuimianMaster/NFT.sol\":6917:6919  to */\n      dup7\n        /* \"cuimianMaster/NFT.sol\":6921:6928  tokenId */\n      dup7\n        /* \"cuimianMaster/NFT.sol\":6930:6935  _data */\n      dup7\n        /* \"cuimianMaster/NFT.sol\":6890:6903  _safeTransfer */\n      tag_121\n        /* \"cuimianMaster/NFT.sol\":6890:6936  _safeTransfer(owner, from, to, tokenId, _data) */\n      jump\t// in\n    tag_120:\n        /* \"cuimianMaster/NFT.sol\":6707:6944  {... */\n      pop\n        /* \"cuimianMaster/NFT.sol\":6562:6944  function safeTransferFrom(... */\n      pop\n      pop\n      pop\n      pop\n      jump\t// out\n        /* \"cuimianMaster/NFT.sol\":2935:3134  function isApprovedForAll(address owner, address operator)... */\n    tag_66:\n        /* \"cuimianMaster/NFT.sol\":3062:3066  bool */\n      0x00\n        /* \"cuimianMaster/NFT.sol\":3091:3109  _operatorApprovals */\n      0x03\n        /* \"cuimianMaster/NFT.sol\":3091:3116  _operatorApprovals[owner] */\n      0x00\n        /* \"cuimianMaster/NFT.sol\":3110:3115  owner */\n      dup5\n        /* \"cuimianMaster/NFT.sol\":3091:3116  _operatorApprovals[owner] */\n      0xffffffffffffffffffffffffffffffffffffffff\n      and\n      0xffffffffffffffffffffffffffffffffffffffff\n      and\n      dup2\n      mstore\n      0x20\n      add\n      swap1\n      dup2\n      mstore\n      0x20\n      add\n      0x00\n      keccak256\n        /* \"cuimianMaster/NFT.sol\":3091:3126  _operatorApprovals[owner][operator] */\n      0x00\n        /* \"cuimianMaster/NFT.sol\":3117:3125  operator */\n      dup4\n        /* \"cuimianMaster/NFT.sol\":3091:3126  _operatorApprovals[owner][operator] */\n      0xffffffffffffffffffffffffffffffffffffffff\n      and\n      0xffffffffffffffffffffffffffffffffffffffff\n      and\n      dup2\n      mstore\n      0x20\n      add\n      swap1\n      dup2\n      mstore\n      0x20\n      add\n      0x00\n      keccak256\n      0x00\n      swap1\n      sload\n      swap1\n      0x0100\n      exp\n      swap1\n      div\n      0xff\n      and\n        /* \"cuimianMaster/NFT.sol\":3084:3126  return _operatorApprovals[owner][operator] */\n      swap1\n      pop\n        /* \"cuimianMaster/NFT.sol\":2935:3134  function isApprovedForAll(address owner, address operator)... */\n      swap3\n      swap2\n      pop\n      pop\n      jump\t// out\n        /* \"cuimianMaster/NFT.sol\":3567:3760  function _approve(... */\n    tag_80:\n        /* \"cuimianMaster/NFT.sol\":3706:3708  to */\n      dup2\n        /* \"cuimianMaster/NFT.sol\":3679:3694  _tokenApprovals */\n      0x02\n        /* \"cuimianMaster/NFT.sol\":3679:3703  _tokenApprovals[tokenId] */\n      0x00\n        /* \"cuimianMaster/NFT.sol\":3695:3702  tokenId */\n      dup4\n        /* \"cuimianMaster/NFT.sol\":3679:3703  _tokenApprovals[tokenId] */\n      dup2\n      mstore\n      0x20\n      add\n      swap1\n      dup2\n      mstore\n      0x20\n      add\n      0x00\n      keccak256\n      0x00\n        /* \"cuimianMaster/NFT.sol\":3679:3708  _tokenApprovals[tokenId] = to */\n      0x0100\n      exp\n      dup2\n      sload\n      dup2\n      0xffffffffffffffffffffffffffffffffffffffff\n      mul\n      not\n      and\n      swap1\n      dup4\n      0xffffffffffffffffffffffffffffffffffffffff\n      and\n      mul\n      or\n      swap1\n      sstore\n      pop\n        /* \"cuimianMaster/NFT.sol\":3744:3751  tokenId */\n      dup1\n        /* \"cuimianMaster/NFT.sol\":3740:3742  to */\n      dup3\n        /* \"cuimianMaster/NFT.sol\":3724:3752  Approval(owner, to, tokenId) */\n      0xffffffffffffffffffffffffffffffffffffffff\n      and\n        /* \"cuimianMaster/NFT.sol\":3733:3738  owner */\n      dup5\n        /* \"cuimianMaster/NFT.sol\":3724:3752  Approval(owner, to, tokenId) */\n      0xffffffffffffffffffffffffffffffffffffffff\n      and\n      0x8c5be1e5ebec7d5bd14f71427d1e84f3dd0314c0f7b2291e5b200ac8c7c3b925\n      mload(0x40)\n      mload(0x40)\n      dup1\n      swap2\n      sub\n      swap1\n      log4\n        /* \"cuimianMaster/NFT.sol\":3567:3760  function _approve(... */\n      pop\n      pop\n      pop\n      jump\t// out\n        /* \"cuimianMaster/NFT.sol\":4398:4860  function _isApprovedOrOwner(... */\n    tag_84:\n        /* \"cuimianMaster/NFT.sol\":4528:4532  bool */\n      0x00\n        /* \"cuimianMaster/NFT.sol\":4603:4608  owner */\n      dup4\n        /* \"cuimianMaster/NFT.sol\":4592:4608  spender == owner */\n      0xffffffffffffffffffffffffffffffffffffffff\n      and\n        /* \"cuimianMaster/NFT.sol\":4592:4599  spender */\n      dup4\n        /* \"cuimianMaster/NFT.sol\":4592:4608  spender == owner */\n      0xffffffffffffffffffffffffffffffffffffffff\n      and\n      eq\n        /* \"cuimianMaster/NFT.sol\":4592:4729  spender == owner ||... */\n      dup1\n      tag_125\n      jumpi\n      pop\n        /* \"cuimianMaster/NFT.sol\":4722:4729  spender */\n      dup3\n        /* \"cuimianMaster/NFT.sol\":4694:4729  _tokenApprovals[tokenId] == spender */\n      0xffffffffffffffffffffffffffffffffffffffff\n      and\n        /* \"cuimianMaster/NFT.sol\":4694:4709  _tokenApprovals */\n      0x02\n        /* \"cuimianMaster/NFT.sol\":4694:4718  _tokenApprovals[tokenId] */\n      0x00\n        /* \"cuimianMaster/NFT.sol\":4710:4717  tokenId */\n      dup5\n        /* \"cuimianMaster/NFT.sol\":4694:4718  _tokenApprovals[tokenId] */\n      dup2\n      mstore\n      0x20\n      add\n      swap1\n      dup2\n      mstore\n      0x20\n      add\n      0x00\n      keccak256\n      0x00\n      swap1\n      sload\n      swap1\n      0x0100\n      exp\n      swap1\n      div\n      0xffffffffffffffffffffffffffffffffffffffff\n      and\n        /* \"cuimianMaster/NFT.sol\":4694:4729  _tokenApprovals[tokenId] == spender */\n      0xffffffffffffffffffffffffffffffffffffffff\n      and\n      eq\n        /* \"cuimianMaster/NFT.sol\":4592:4729  spender == owner ||... */\n    tag_125:\n        /* \"cuimianMaster/NFT.sol\":4592:4851  spender == owner ||... */\n      dup1\n      tag_126\n      jumpi\n      pop\n        /* \"cuimianMaster/NFT.sol\":4817:4835  _operatorApprovals */\n      0x03\n        /* \"cuimianMaster/NFT.sol\":4817:4842  _operatorApprovals[owner] */\n      0x00\n        /* \"cuimianMaster/NFT.sol\":4836:4841  owner */\n      dup6\n        /* \"cuimianMaster/NFT.sol\":4817:4842  _operatorApprovals[owner] */\n      0xffffffffffffffffffffffffffffffffffffffff\n      and\n      0xffffffffffffffffffffffffffffffffffffffff\n      and\n      dup2\n      mstore\n      0x20\n      add\n      swap1\n      dup2\n      mstore\n      0x20\n      add\n      0x00\n      keccak256\n        /* \"cuimianMaster/NFT.sol\":4817:4851  _operatorApprovals[owner][spender] */\n      0x00\n        /* \"cuimianMaster/NFT.sol\":4843:4850  spender */\n      dup5\n        /* \"cuimianMaster/NFT.sol\":4817:4851  _operatorApprovals[owner][spender] */\n      0xffffffffffffffffffffffffffffffffffffffff\n      and\n      0xffffffffffffffffffffffffffffffffffffffff\n      and\n      dup2\n      mstore\n      0x20\n      add\n      swap1\n      dup2\n      mstore\n      0x20\n      add\n      0x00\n      keccak256\n      0x00\n      swap1\n      sload\n      swap1\n      0x0100\n      exp\n      swap1\n      div\n      0xff\n      and\n        /* \"cuimianMaster/NFT.sol\":4592:4851  spender == owner ||... */\n    tag_126:\n        /* \"cuimianMaster/NFT.sol\":4584:4852  return (spender == owner ||... */\n      swap1\n      pop\n        /* \"cuimianMaster/NFT.sol\":4398:4860  function _isApprovedOrOwner(... */\n      swap4\n      swap3\n      pop\n      pop\n      pop\n      jump\t// out\n        /* \"cuimianMaster/NFT.sol\":4868:5378  function _transfer(... */\n    tag_89:\n        /* \"cuimianMaster/NFT.sol\":5095:5100  owner */\n      dup4\n        /* \"cuimianMaster/NFT.sol\":5087:5100  from == owner */\n      0xffffffffffffffffffffffffffffffffffffffff\n      and\n        /* \"cuimianMaster/NFT.sol\":5087:5091  from */\n      dup4\n        /* \"cuimianMaster/NFT.sol\":5087:5100  from == owner */\n      0xffffffffffffffffffffffffffffffffffffffff\n      and\n      eq\n        /* \"cuimianMaster/NFT.sol\":5079:5114  require(from == owner, \"not owner\") */\n      tag_128\n      jumpi\n      mload(0x40)\n      0x08c379a000000000000000000000000000000000000000000000000000000000\n      dup2\n      mstore\n      0x04\n      add\n      tag_129\n      swap1\n      tag_130\n      jump\t// in\n    tag_129:\n      mload(0x40)\n      dup1\n      swap2\n      sub\n      swap1\n      revert\n    tag_128:\n        /* \"cuimianMaster/NFT.sol\":5147:5148  0 */\n      0x00\n        /* \"cuimianMaster/NFT.sol\":5133:5149  to != address(0) */\n      0xffffffffffffffffffffffffffffffffffffffff\n      and\n        /* \"cuimianMaster/NFT.sol\":5133:5135  to */\n      dup3\n        /* \"cuimianMaster/NFT.sol\":5133:5149  to != address(0) */\n      0xffffffffffffffffffffffffffffffffffffffff\n      and\n      sub\n        /* \"cuimianMaster/NFT.sol\":5125:5182  require(to != address(0), \"transfer to the zero address\") */\n      tag_131\n      jumpi\n      mload(0x40)\n      0x08c379a000000000000000000000000000000000000000000000000000000000\n      dup2\n      mstore\n      0x04\n      add\n      tag_132\n      swap1\n      tag_133\n      jump\t// in\n    tag_132:\n      mload(0x40)\n      dup1\n      swap2\n      sub\n      swap1\n      revert\n    tag_131:\n        /* \"cuimianMaster/NFT.sol\":5195:5231  _approve(owner, address(0), tokenId) */\n      tag_134\n        /* \"cuimianMaster/NFT.sol\":5204:5209  owner */\n      dup5\n        /* \"cuimianMaster/NFT.sol\":5219:5220  0 */\n      0x00\n        /* \"cuimianMaster/NFT.sol\":5223:5230  tokenId */\n      dup4\n        /* \"cuimianMaster/NFT.sol\":5195:5203  _approve */\n      tag_80\n        /* \"cuimianMaster/NFT.sol\":5195:5231  _approve(owner, address(0), tokenId) */\n      jump\t// in\n    tag_134:\n        /* \"cuimianMaster/NFT.sol\":5263:5264  1 */\n      0x01\n        /* \"cuimianMaster/NFT.sol\":5244:5253  _balances */\n      dup1\n        /* \"cuimianMaster/NFT.sol\":5244:5259  _balances[from] */\n      0x00\n        /* \"cuimianMaster/NFT.sol\":5254:5258  from */\n      dup6\n        /* \"cuimianMaster/NFT.sol\":5244:5259  _balances[from] */\n      0xffffffffffffffffffffffffffffffffffffffff\n      and\n      0xffffffffffffffffffffffffffffffffffffffff\n      and\n      dup2\n      mstore\n      0x20\n      add\n      swap1\n      dup2\n      mstore\n      0x20\n      add\n      0x00\n      keccak256\n      0x00\n        /* \"cuimianMaster/NFT.sol\":5244:5264  _balances[from] -= 1 */\n      dup3\n      dup3\n      sload\n      tag_135\n      swap2\n      swap1\n      tag_105\n      jump\t// in\n    tag_135:\n      swap3\n      pop\n      pop\n      dup2\n      swap1\n      sstore\n      pop\n        /* \"cuimianMaster/NFT.sol\":5292:5293  1 */\n      0x01\n        /* \"cuimianMaster/NFT.sol\":5275:5284  _balances */\n      dup1\n        /* \"cuimianMaster/NFT.sol\":5275:5288  _balances[to] */\n      0x00\n        /* \"cuimianMaster/NFT.sol\":5285:5287  to */\n      dup5\n        /* \"cuimianMaster/NFT.sol\":5275:5288  _balances[to] */\n      0xffffffffffffffffffffffffffffffffffffffff\n      and\n      0xffffffffffffffffffffffffffffffffffffffff\n      and\n      dup2\n      mstore\n      0x20\n      add\n      swap1\n      dup2\n      mstore\n      0x20\n      add\n      0x00\n      keccak256\n      0x00\n        /* \"cuimianMaster/NFT.sol\":5275:5293  _balances[to] += 1 */\n      dup3\n      dup3\n      sload\n      tag_136\n      swap2\n      swap1\n      tag_98\n      jump\t// in\n    tag_136:\n      swap3\n      pop\n      pop\n      dup2\n      swap1\n      sstore\n      pop\n        /* \"cuimianMaster/NFT.sol\":5323:5325  to */\n      dup2\n        /* \"cuimianMaster/NFT.sol\":5304:5311  _owners */\n      0x00\n        /* \"cuimianMaster/NFT.sol\":5304:5320  _owners[tokenId] */\n      dup1\n        /* \"cuimianMaster/NFT.sol\":5312:5319  tokenId */\n      dup4\n        /* \"cuimianMaster/NFT.sol\":5304:5320  _owners[tokenId] */\n      dup2\n      mstore\n      0x20\n      add\n      swap1\n      dup2\n      mstore\n      0x20\n      add\n      0x00\n      keccak256\n      0x00\n        /* \"cuimianMaster/NFT.sol\":5304:5325  _owners[tokenId] = to */\n      0x0100\n      exp\n      dup2\n      sload\n      dup2\n      0xffffffffffffffffffffffffffffffffffffffff\n      mul\n      not\n      and\n      swap1\n      dup4\n      0xffffffffffffffffffffffffffffffffffffffff\n      and\n      mul\n      or\n      swap1\n      sstore\n      pop\n        /* \"cuimianMaster/NFT.sol\":5362:5369  tokenId */\n      dup1\n        /* \"cuimianMaster/NFT.sol\":5358:5360  to */\n      dup3\n        /* \"cuimianMaster/NFT.sol\":5343:5370  Transfer(from, to, tokenId) */\n      0xffffffffffffffffffffffffffffffffffffffff\n      and\n        /* \"cuimianMaster/NFT.sol\":5352:5356  from */\n      dup5\n        /* \"cuimianMaster/NFT.sol\":5343:5370  Transfer(from, to, tokenId) */\n      0xffffffffffffffffffffffffffffffffffffffff\n      and\n      0xddf252ad1be2c89b69c2b068fc378daa952ba7f163c4a11628f55a4df523b3ef\n      mload(0x40)\n      mload(0x40)\n      dup1\n      swap2\n      sub\n      swap1\n      log4\n        /* \"cuimianMaster/NFT.sol\":4868:5378  function _transfer(... */\n      pop\n      pop\n      pop\n      pop\n      jump\t// out\n        /* \"cuimianMaster/NFT.sol\":6252:6554  function _safeTransfer(... */\n    tag_121:\n        /* \"cuimianMaster/NFT.sol\":6421:6456  _transfer(owner, from, to, tokenId) */\n      tag_138\n        /* \"cuimianMaster/NFT.sol\":6431:6436  owner */\n      dup6\n        /* \"cuimianMaster/NFT.sol\":6438:6442  from */\n      dup6\n        /* \"cuimianMaster/NFT.sol\":6444:6446  to */\n      dup6\n        /* \"cuimianMaster/NFT.sol\":6448:6455  tokenId */\n      dup6\n        /* \"cuimianMaster/NFT.sol\":6421:6430  _transfer */\n      tag_89\n        /* \"cuimianMaster/NFT.sol\":6421:6456  _transfer(owner, from, to, tokenId) */\n      jump\t// in\n    tag_138:\n        /* \"cuimianMaster/NFT.sol\":6475:6523  _checkOnERC721Received(from, to, tokenId, _data) */\n      tag_139\n        /* \"cuimianMaster/NFT.sol\":6498:6502  from */\n      dup5\n        /* \"cuimianMaster/NFT.sol\":6504:6506  to */\n      dup5\n        /* \"cuimianMaster/NFT.sol\":6508:6515  tokenId */\n      dup5\n        /* \"cuimianMaster/NFT.sol\":6517:6522  _data */\n      dup5\n        /* \"cuimianMaster/NFT.sol\":6475:6497  _checkOnERC721Received */\n      tag_140\n        /* \"cuimianMaster/NFT.sol\":6475:6523  _checkOnERC721Received(from, to, tokenId, _data) */\n      jump\t// in\n    tag_139:\n        /* \"cuimianMaster/NFT.sol\":6467:6546  require(_checkOnERC721Received(from, to, tokenId, _data), \"not ERC721Receiver\") */\n      tag_141\n      jumpi\n      mload(0x40)\n      0x08c379a000000000000000000000000000000000000000000000000000000000\n      dup2\n      mstore\n      0x04\n      add\n      tag_142\n      swap1\n      tag_143\n      jump\t// in\n    tag_142:\n      mload(0x40)\n      dup1\n      swap2\n      sub\n      swap1\n      revert\n    tag_141:\n        /* \"cuimianMaster/NFT.sol\":6252:6554  function _safeTransfer(... */\n      pop\n      pop\n      pop\n      pop\n      pop\n      jump\t// out\n        /* \"cuimianMaster/NFT.sol\":5734:6244  function _checkOnERC721Received(... */\n    tag_140:\n        /* \"cuimianMaster/NFT.sol\":5886:5890  bool */\n      0x00\n        /* \"cuimianMaster/NFT.sol\":5907:5922  to.isContract() */\n      tag_145\n        /* \"cuimianMaster/NFT.sol\":5907:5909  to */\n      dup5\n        /* \"cuimianMaster/NFT.sol\":5907:5920  to.isContract */\n      0xffffffffffffffffffffffffffffffffffffffff\n      and\n      tag_146\n        /* \"cuimianMaster/NFT.sol\":5907:5922  to.isContract() */\n      jump\t// in\n    tag_145:\n        /* \"cuimianMaster/NFT.sol\":5903:6237  if (to.isContract()) {... */\n      iszero\n      tag_147\n      jumpi\n        /* \"cuimianMaster/NFT.sol\":6140:6181  IERC721Receiver.onERC721Received.selector */\n      shl(0xe0, 0x150b7a02)\n        /* \"cuimianMaster/NFT.sol\":5963:6181  IERC721Receiver(to).onERC721Received(... */\n      not(0xffffffffffffffffffffffffffffffffffffffffffffffffffffffff)\n      and\n        /* \"cuimianMaster/NFT.sol\":5979:5981  to */\n      dup5\n        /* \"cuimianMaster/NFT.sol\":5963:5999  IERC721Receiver(to).onERC721Received */\n      0xffffffffffffffffffffffffffffffffffffffff\n      and\n      0x150b7a02\n        /* \"cuimianMaster/NFT.sol\":6022:6032  msg.sender */\n      caller\n        /* \"cuimianMaster/NFT.sol\":6055:6059  from */\n      dup9\n        /* \"cuimianMaster/NFT.sol\":6082:6089  tokenId */\n      dup8\n        /* \"cuimianMaster/NFT.sol\":6112:6117  _data */\n      dup8\n        /* \"cuimianMaster/NFT.sol\":5963:6136  IERC721Receiver(to).onERC721Received(... */\n      mload(0x40)\n      dup6\n      0xffffffff\n      and\n      0xe0\n      shl\n      dup2\n      mstore\n      0x04\n      add\n      tag_148\n      swap5\n      swap4\n      swap3\n      swap2\n      swap1\n      tag_149\n      jump\t// in\n    tag_148:\n      0x20\n      mload(0x40)\n      dup1\n      dup4\n      sub\n      dup2\n      0x00\n      dup8\n      gas\n      call\n      iszero\n      dup1\n      iszero\n      tag_151\n      jumpi\n      returndatasize\n      0x00\n      dup1\n      returndatacopy\n      revert(0x00, returndatasize)\n    tag_151:\n      pop\n      pop\n      pop\n      pop\n      mload(0x40)\n      returndatasize\n      not(0x1f)\n      0x1f\n      dup3\n      add\n      and\n      dup3\n      add\n      dup1\n      0x40\n      mstore\n      pop\n      dup2\n      add\n      swap1\n      tag_152\n      swap2\n      swap1\n      tag_153\n      jump\t// in\n    tag_152:\n        /* \"cuimianMaster/NFT.sol\":5963:6181  IERC721Receiver(to).onERC721Received(... */\n      not(0xffffffffffffffffffffffffffffffffffffffffffffffffffffffff)\n      and\n      eq\n        /* \"cuimianMaster/NFT.sol\":5939:6181  return... */\n      swap1\n      pop\n      jump(tag_144)\n        /* \"cuimianMaster/NFT.sol\":5903:6237  if (to.isContract()) {... */\n    tag_147:\n        /* \"cuimianMaster/NFT.sol\":6221:6225  true */\n      0x01\n        /* \"cuimianMaster/NFT.sol\":6214:6225  return true */\n      swap1\n      pop\n        /* \"cuimianMaster/NFT.sol\":5734:6244  function _checkOnERC721Received(... */\n    tag_144:\n      swap5\n      swap4\n      pop\n      pop\n      pop\n      pop\n      jump\t// out\n        /* \"cuimianMaster/NFT.sol\":7852:8045  function isContract(address account) internal view returns (bool) {... */\n    tag_146:\n        /* \"cuimianMaster/NFT.sol\":7912:7916  bool */\n      0x00\n        /* \"cuimianMaster/NFT.sol\":7929:7938  uint size */\n      dup1\n        /* \"cuimianMaster/NFT.sol\":7993:8000  account */\n      dup3\n        /* \"cuimianMaster/NFT.sol\":7981:8001  extcodesize(account) */\n      extcodesize\n        /* \"cuimianMaster/NFT.sol\":7973:8001  size := extcodesize(account) */\n      swap1\n      pop\n        /* \"cuimianMaster/NFT.sol\":8036:8037  0 */\n      0x00\n        /* \"cuimianMaster/NFT.sol\":8029:8033  size */\n      dup2\n        /* \"cuimianMaster/NFT.sol\":8029:8037  size > 0 */\n      gt\n        /* \"cuimianMaster/NFT.sol\":8022:8037  return size > 0 */\n      swap2\n      pop\n      pop\n        /* \"cuimianMaster/NFT.sol\":7852:8045  function isContract(address account) internal view returns (bool) {... */\n      swap2\n      swap1\n      pop\n      jump\t// out\n        /* \"#utility.yul\":7:82   */\n    tag_156:\n        /* \"#utility.yul\":40:46   */\n      0x00\n        /* \"#utility.yul\":73:75   */\n      0x40\n        /* \"#utility.yul\":67:76   */\n      mload\n        /* \"#utility.yul\":57:76   */\n      swap1\n      pop\n        /* \"#utility.yul\":7:82   */\n      swap1\n      jump\t// out\n        /* \"#utility.yul\":88:205   */\n    tag_157:\n        /* \"#utility.yul\":197:198   */\n      0x00\n        /* \"#utility.yul\":194:195   */\n      dup1\n        /* \"#utility.yul\":187:199   */\n      revert\n        /* \"#utility.yul\":211:328   */\n    tag_158:\n        /* \"#utility.yul\":320:321   */\n      0x00\n        /* \"#utility.yul\":317:318   */\n      dup1\n        /* \"#utility.yul\":310:322   */\n      revert\n        /* \"#utility.yul\":334:483   */\n    tag_159:\n        /* \"#utility.yul\":370:377   */\n      0x00\n        /* \"#utility.yul\":410:476   */\n      0xffffffff00000000000000000000000000000000000000000000000000000000\n        /* \"#utility.yul\":403:408   */\n      dup3\n        /* \"#utility.yul\":399:477   */\n      and\n        /* \"#utility.yul\":388:477   */\n      swap1\n      pop\n        /* \"#utility.yul\":334:483   */\n      swap2\n      swap1\n      pop\n      jump\t// out\n        /* \"#utility.yul\":489:609   */\n    tag_160:\n        /* \"#utility.yul\":561:584   */\n      tag_216\n        /* \"#utility.yul\":578:583   */\n      dup2\n        /* \"#utility.yul\":561:584   */\n      tag_159\n      jump\t// in\n    tag_216:\n        /* \"#utility.yul\":554:559   */\n      dup2\n        /* \"#utility.yul\":551:585   */\n      eq\n        /* \"#utility.yul\":541:603   */\n      tag_217\n      jumpi\n        /* \"#utility.yul\":599:600   */\n      0x00\n        /* \"#utility.yul\":596:597   */\n      dup1\n        /* \"#utility.yul\":589:601   */\n      revert\n        /* \"#utility.yul\":541:603   */\n    tag_217:\n        /* \"#utility.yul\":489:609   */\n      pop\n      jump\t// out\n        /* \"#utility.yul\":615:752   */\n    tag_161:\n        /* \"#utility.yul\":660:665   */\n      0x00\n        /* \"#utility.yul\":698:704   */\n      dup2\n        /* \"#utility.yul\":685:705   */\n      calldataload\n        /* \"#utility.yul\":676:705   */\n      swap1\n      pop\n        /* \"#utility.yul\":714:746   */\n      tag_219\n        /* \"#utility.yul\":740:745   */\n      dup2\n        /* \"#utility.yul\":714:746   */\n      tag_160\n      jump\t// in\n    tag_219:\n        /* \"#utility.yul\":615:752   */\n      swap3\n      swap2\n      pop\n      pop\n      jump\t// out\n        /* \"#utility.yul\":758:1085   */\n    tag_18:\n        /* \"#utility.yul\":816:822   */\n      0x00\n        /* \"#utility.yul\":865:867   */\n      0x20\n        /* \"#utility.yul\":853:862   */\n      dup3\n        /* \"#utility.yul\":844:851   */\n      dup5\n        /* \"#utility.yul\":840:863   */\n      sub\n        /* \"#utility.yul\":836:868   */\n      slt\n        /* \"#utility.yul\":833:952   */\n      iszero\n      tag_221\n      jumpi\n        /* \"#utility.yul\":871:950   */\n      tag_222\n      tag_157\n      jump\t// in\n    tag_222:\n        /* \"#utility.yul\":833:952   */\n    tag_221:\n        /* \"#utility.yul\":991:992   */\n      0x00\n        /* \"#utility.yul\":1016:1068   */\n      tag_223\n        /* \"#utility.yul\":1060:1067   */\n      dup5\n        /* \"#utility.yul\":1051:1057   */\n      dup3\n        /* \"#utility.yul\":1040:1049   */\n      dup6\n        /* \"#utility.yul\":1036:1058   */\n      add\n        /* \"#utility.yul\":1016:1068   */\n      tag_161\n      jump\t// in\n    tag_223:\n        /* \"#utility.yul\":1006:1068   */\n      swap2\n      pop\n        /* \"#utility.yul\":962:1078   */\n      pop\n        /* \"#utility.yul\":758:1085   */\n      swap3\n      swap2\n      pop\n      pop\n      jump\t// out\n        /* \"#utility.yul\":1091:1181   */\n    tag_162:\n        /* \"#utility.yul\":1125:1132   */\n      0x00\n        /* \"#utility.yul\":1168:1173   */\n      dup2\n        /* \"#utility.yul\":1161:1174   */\n      iszero\n        /* \"#utility.yul\":1154:1175   */\n      iszero\n        /* \"#utility.yul\":1143:1175   */\n      swap1\n      pop\n        /* \"#utility.yul\":1091:1181   */\n      swap2\n      swap1\n      pop\n      jump\t// out\n        /* \"#utility.yul\":1187:1296   */\n    tag_163:\n        /* \"#utility.yul\":1268:1289   */\n      tag_226\n        /* \"#utility.yul\":1283:1288   */\n      dup2\n        /* \"#utility.yul\":1268:1289   */\n      tag_162\n      jump\t// in\n    tag_226:\n        /* \"#utility.yul\":1263:1266   */\n      dup3\n        /* \"#utility.yul\":1256:1290   */\n      mstore\n        /* \"#utility.yul\":1187:1296   */\n      pop\n      pop\n      jump\t// out\n        /* \"#utility.yul\":1302:1512   */\n    tag_21:\n        /* \"#utility.yul\":1389:1393   */\n      0x00\n        /* \"#utility.yul\":1427:1429   */\n      0x20\n        /* \"#utility.yul\":1416:1425   */\n      dup3\n        /* \"#utility.yul\":1412:1430   */\n      add\n        /* \"#utility.yul\":1404:1430   */\n      swap1\n      pop\n        /* \"#utility.yul\":1440:1505   */\n      tag_228\n        /* \"#utility.yul\":1502:1503   */\n      0x00\n        /* \"#utility.yul\":1491:1500   */\n      dup4\n        /* \"#utility.yul\":1487:1504   */\n      add\n        /* \"#utility.yul\":1478:1484   */\n      dup5\n        /* \"#utility.yul\":1440:1505   */\n      tag_163\n      jump\t// in\n    tag_228:\n        /* \"#utility.yul\":1302:1512   */\n      swap3\n      swap2\n      pop\n      pop\n      jump\t// out\n        /* \"#utility.yul\":1518:1595   */\n    tag_164:\n        /* \"#utility.yul\":1555:1562   */\n      0x00\n        /* \"#utility.yul\":1584:1589   */\n      dup2\n        /* \"#utility.yul\":1573:1589   */\n      swap1\n      pop\n        /* \"#utility.yul\":1518:1595   */\n      swap2\n      swap1\n      pop\n      jump\t// out\n        /* \"#utility.yul\":1601:1723   */\n    tag_165:\n        /* \"#utility.yul\":1674:1698   */\n      tag_231\n        /* \"#utility.yul\":1692:1697   */\n      dup2\n        /* \"#utility.yul\":1674:1698   */\n      tag_164\n      jump\t// in\n    tag_231:\n        /* \"#utility.yul\":1667:1672   */\n      dup2\n        /* \"#utility.yul\":1664:1699   */\n      eq\n        /* \"#utility.yul\":1654:1717   */\n      tag_232\n      jumpi\n        /* \"#utility.yul\":1713:1714   */\n      0x00\n        /* \"#utility.yul\":1710:1711   */\n      dup1\n        /* \"#utility.yul\":1703:1715   */\n      revert\n        /* \"#utility.yul\":1654:1717   */\n    tag_232:\n        /* \"#utility.yul\":1601:1723   */\n      pop\n      jump\t// out\n        /* \"#utility.yul\":1729:1868   */\n    tag_166:\n        /* \"#utility.yul\":1775:1780   */\n      0x00\n        /* \"#utility.yul\":1813:1819   */\n      dup2\n        /* \"#utility.yul\":1800:1820   */\n      calldataload\n        /* \"#utility.yul\":1791:1820   */\n      swap1\n      pop\n        /* \"#utility.yul\":1829:1862   */\n      tag_234\n        /* \"#utility.yul\":1856:1861   */\n      dup2\n        /* \"#utility.yul\":1829:1862   */\n      tag_165\n      jump\t// in\n    tag_234:\n        /* \"#utility.yul\":1729:1868   */\n      swap3\n      swap2\n      pop\n      pop\n      jump\t// out\n        /* \"#utility.yul\":1874:2203   */\n    tag_24:\n        /* \"#utility.yul\":1933:1939   */\n      0x00\n        /* \"#utility.yul\":1982:1984   */\n      0x20\n        /* \"#utility.yul\":1970:1979   */\n      dup3\n        /* \"#utility.yul\":1961:1968   */\n      dup5\n        /* \"#utility.yul\":1957:1980   */\n      sub\n        /* \"#utility.yul\":1953:1985   */\n      slt\n        /* \"#utility.yul\":1950:2069   */\n      iszero\n      tag_236\n      jumpi\n        /* \"#utility.yul\":1988:2067   */\n      tag_237\n      tag_157\n      jump\t// in\n    tag_237:\n        /* \"#utility.yul\":1950:2069   */\n    tag_236:\n        /* \"#utility.yul\":2108:2109   */\n      0x00\n        /* \"#utility.yul\":2133:2186   */\n      tag_238\n        /* \"#utility.yul\":2178:2185   */\n      dup5\n        /* \"#utility.yul\":2169:2175   */\n      dup3\n        /* \"#utility.yul\":2158:2167   */\n      dup6\n        /* \"#utility.yul\":2154:2176   */\n      add\n        /* \"#utility.yul\":2133:2186   */\n      tag_166\n      jump\t// in\n    tag_238:\n        /* \"#utility.yul\":2123:2186   */\n      swap2\n      pop\n        /* \"#utility.yul\":2079:2196   */\n      pop\n        /* \"#utility.yul\":1874:2203   */\n      swap3\n      swap2\n      pop\n      pop\n      jump\t// out\n        /* \"#utility.yul\":2209:2335   */\n    tag_167:\n        /* \"#utility.yul\":2246:2253   */\n      0x00\n        /* \"#utility.yul\":2286:2328   */\n      0xffffffffffffffffffffffffffffffffffffffff\n        /* \"#utility.yul\":2279:2284   */\n      dup3\n        /* \"#utility.yul\":2275:2329   */\n      and\n        /* \"#utility.yul\":2264:2329   */\n      swap1\n      pop\n        /* \"#utility.yul\":2209:2335   */\n      swap2\n      swap1\n      pop\n      jump\t// out\n        /* \"#utility.yul\":2341:2437   */\n    tag_168:\n        /* \"#utility.yul\":2378:2385   */\n      0x00\n        /* \"#utility.yul\":2407:2431   */\n      tag_241\n        /* \"#utility.yul\":2425:2430   */\n      dup3\n        /* \"#utility.yul\":2407:2431   */\n      tag_167\n      jump\t// in\n    tag_241:\n        /* \"#utility.yul\":2396:2431   */\n      swap1\n      pop\n        /* \"#utility.yul\":2341:2437   */\n      swap2\n      swap1\n      pop\n      jump\t// out\n        /* \"#utility.yul\":2443:2561   */\n    tag_169:\n        /* \"#utility.yul\":2530:2554   */\n      tag_243\n        /* \"#utility.yul\":2548:2553   */\n      dup2\n        /* \"#utility.yul\":2530:2554   */\n      tag_168\n      jump\t// in\n    tag_243:\n        /* \"#utility.yul\":2525:2528   */\n      dup3\n        /* \"#utility.yul\":2518:2555   */\n      mstore\n        /* \"#utility.yul\":2443:2561   */\n      pop\n      pop\n      jump\t// out\n        /* \"#utility.yul\":2567:2789   */\n    tag_27:\n        /* \"#utility.yul\":2660:2664   */\n      0x00\n        /* \"#utility.yul\":2698:2700   */\n      0x20\n        /* \"#utility.yul\":2687:2696   */\n      dup3\n        /* \"#utility.yul\":2683:2701   */\n      add\n        /* \"#utility.yul\":2675:2701   */\n      swap1\n      pop\n        /* \"#utility.yul\":2711:2782   */\n      tag_245\n        /* \"#utility.yul\":2779:2780   */\n      0x00\n        /* \"#utility.yul\":2768:2777   */\n      dup4\n        /* \"#utility.yul\":2764:2781   */\n      add\n        /* \"#utility.yul\":2755:2761   */\n      dup5\n        /* \"#utility.yul\":2711:2782   */\n      tag_169\n      jump\t// in\n    tag_245:\n        /* \"#utility.yul\":2567:2789   */\n      swap3\n      swap2\n      pop\n      pop\n      jump\t// out\n        /* \"#utility.yul\":2795:2917   */\n    tag_170:\n        /* \"#utility.yul\":2868:2892   */\n      tag_247\n        /* \"#utility.yul\":2886:2891   */\n      dup2\n        /* \"#utility.yul\":2868:2892   */\n      tag_168\n      jump\t// in\n    tag_247:\n        /* \"#utility.yul\":2861:2866   */\n      dup2\n        /* \"#utility.yul\":2858:2893   */\n      eq\n        /* \"#utility.yul\":2848:2911   */\n      tag_248\n      jumpi\n        /* \"#utility.yul\":2907:2908   */\n      0x00\n        /* \"#utility.yul\":2904:2905   */\n      dup1\n        /* \"#utility.yul\":2897:2909   */\n      revert\n        /* \"#utility.yul\":2848:2911   */\n    tag_248:\n        /* \"#utility.yul\":2795:2917   */\n      pop\n      jump\t// out\n        /* \"#utility.yul\":2923:3062   */\n    tag_171:\n        /* \"#utility.yul\":2969:2974   */\n      0x00\n        /* \"#utility.yul\":3007:3013   */\n      dup2\n        /* \"#utility.yul\":2994:3014   */\n      calldataload\n        /* \"#utility.yul\":2985:3014   */\n      swap1\n      pop\n        /* \"#utility.yul\":3023:3056   */\n      tag_250\n        /* \"#utility.yul\":3050:3055   */\n      dup2\n        /* \"#utility.yul\":3023:3056   */\n      tag_170\n      jump\t// in\n    tag_250:\n        /* \"#utility.yul\":2923:3062   */\n      swap3\n      swap2\n      pop\n      pop\n      jump\t// out\n        /* \"#utility.yul\":3068:3542   */\n    tag_30:\n        /* \"#utility.yul\":3136:3142   */\n      0x00\n        /* \"#utility.yul\":3144:3150   */\n      dup1\n        /* \"#utility.yul\":3193:3195   */\n      0x40\n        /* \"#utility.yul\":3181:3190   */\n      dup4\n        /* \"#utility.yul\":3172:3179   */\n      dup6\n        /* \"#utility.yul\":3168:3191   */\n      sub\n        /* \"#utility.yul\":3164:3196   */\n      slt\n        /* \"#utility.yul\":3161:3280   */\n      iszero\n      tag_252\n      jumpi\n        /* \"#utility.yul\":3199:3278   */\n      tag_253\n      tag_157\n      jump\t// in\n    tag_253:\n        /* \"#utility.yul\":3161:3280   */\n    tag_252:\n        /* \"#utility.yul\":3319:3320   */\n      0x00\n        /* \"#utility.yul\":3344:3397   */\n      tag_254\n        /* \"#utility.yul\":3389:3396   */\n      dup6\n        /* \"#utility.yul\":3380:3386   */\n      dup3\n        /* \"#utility.yul\":3369:3378   */\n      dup7\n        /* \"#utility.yul\":3365:3387   */\n      add\n        /* \"#utility.yul\":3344:3397   */\n      tag_171\n      jump\t// in\n    tag_254:\n        /* \"#utility.yul\":3334:3397   */\n      swap3\n      pop\n        /* \"#utility.yul\":3290:3407   */\n      pop\n        /* \"#utility.yul\":3446:3448   */\n      0x20\n        /* \"#utility.yul\":3472:3525   */\n      tag_255\n        /* \"#utility.yul\":3517:3524   */\n      dup6\n        /* \"#utility.yul\":3508:3514   */\n      dup3\n        /* \"#utility.yul\":3497:3506   */\n      dup7\n        /* \"#utility.yul\":3493:3515   */\n      add\n        /* \"#utility.yul\":3472:3525   */\n      tag_166\n      jump\t// in\n    tag_255:\n        /* \"#utility.yul\":3462:3525   */\n      swap2\n      pop\n        /* \"#utility.yul\":3417:3535   */\n      pop\n        /* \"#utility.yul\":3068:3542   */\n      swap3\n      pop\n      swap3\n      swap1\n      pop\n      jump\t// out\n        /* \"#utility.yul\":3548:4167   */\n    tag_34:\n        /* \"#utility.yul\":3625:3631   */\n      0x00\n        /* \"#utility.yul\":3633:3639   */\n      dup1\n        /* \"#utility.yul\":3641:3647   */\n      0x00\n        /* \"#utility.yul\":3690:3692   */\n      0x60\n        /* \"#utility.yul\":3678:3687   */\n      dup5\n        /* \"#utility.yul\":3669:3676   */\n      dup7\n        /* \"#utility.yul\":3665:3688   */\n      sub\n        /* \"#utility.yul\":3661:3693   */\n      slt\n        /* \"#utility.yul\":3658:3777   */\n      iszero\n      tag_257\n      jumpi\n        /* \"#utility.yul\":3696:3775   */\n      tag_258\n      tag_157\n      jump\t// in\n    tag_258:\n        /* \"#utility.yul\":3658:3777   */\n    tag_257:\n        /* \"#utility.yul\":3816:3817   */\n      0x00\n        /* \"#utility.yul\":3841:3894   */\n      tag_259\n        /* \"#utility.yul\":3886:3893   */\n      dup7\n        /* \"#utility.yul\":3877:3883   */\n      dup3\n        /* \"#utility.yul\":3866:3875   */\n      dup8\n        /* \"#utility.yul\":3862:3884   */\n      add\n        /* \"#utility.yul\":3841:3894   */\n      tag_171\n      jump\t// in\n    tag_259:\n        /* \"#utility.yul\":3831:3894   */\n      swap4\n      pop\n        /* \"#utility.yul\":3787:3904   */\n      pop\n        /* \"#utility.yul\":3943:3945   */\n      0x20\n        /* \"#utility.yul\":3969:4022   */\n      tag_260\n        /* \"#utility.yul\":4014:4021   */\n      dup7\n        /* \"#utility.yul\":4005:4011   */\n      dup3\n        /* \"#utility.yul\":3994:4003   */\n      dup8\n        /* \"#utility.yul\":3990:4012   */\n      add\n        /* \"#utility.yul\":3969:4022   */\n      tag_171\n      jump\t// in\n    tag_260:\n        /* \"#utility.yul\":3959:4022   */\n      swap3\n      pop\n        /* \"#utility.yul\":3914:4032   */\n      pop\n        /* \"#utility.yul\":4071:4073   */\n      0x40\n        /* \"#utility.yul\":4097:4150   */\n      tag_261\n        /* \"#utility.yul\":4142:4149   */\n      dup7\n        /* \"#utility.yul\":4133:4139   */\n      dup3\n        /* \"#utility.yul\":4122:4131   */\n      dup8\n        /* \"#utility.yul\":4118:4140   */\n      add\n        /* \"#utility.yul\":4097:4150   */\n      tag_166\n      jump\t// in\n    tag_261:\n        /* \"#utility.yul\":4087:4150   */\n      swap2\n      pop\n        /* \"#utility.yul\":4042:4160   */\n      pop\n        /* \"#utility.yul\":3548:4167   */\n      swap3\n      pop\n      swap3\n      pop\n      swap3\n      jump\t// out\n        /* \"#utility.yul\":4173:4502   */\n    tag_51:\n        /* \"#utility.yul\":4232:4238   */\n      0x00\n        /* \"#utility.yul\":4281:4283   */\n      0x20\n        /* \"#utility.yul\":4269:4278   */\n      dup3\n        /* \"#utility.yul\":4260:4267   */\n      dup5\n        /* \"#utility.yul\":4256:4279   */\n      sub\n        /* \"#utility.yul\":4252:4284   */\n      slt\n        /* \"#utility.yul\":4249:4368   */\n      iszero\n      tag_263\n      jumpi\n        /* \"#utility.yul\":4287:4366   */\n      tag_264\n      tag_157\n      jump\t// in\n    tag_264:\n        /* \"#utility.yul\":4249:4368   */\n    tag_263:\n        /* \"#utility.yul\":4407:4408   */\n      0x00\n        /* \"#utility.yul\":4432:4485   */\n      tag_265\n        /* \"#utility.yul\":4477:4484   */\n      dup5\n        /* \"#utility.yul\":4468:4474   */\n      dup3\n        /* \"#utility.yul\":4457:4466   */\n      dup6\n        /* \"#utility.yul\":4453:4475   */\n      add\n        /* \"#utility.yul\":4432:4485   */\n      tag_171\n      jump\t// in\n    tag_265:\n        /* \"#utility.yul\":4422:4485   */\n      swap2\n      pop\n        /* \"#utility.yul\":4378:4495   */\n      pop\n        /* \"#utility.yul\":4173:4502   */\n      swap3\n      swap2\n      pop\n      pop\n      jump\t// out\n        /* \"#utility.yul\":4508:4626   */\n    tag_172:\n        /* \"#utility.yul\":4595:4619   */\n      tag_267\n        /* \"#utility.yul\":4613:4618   */\n      dup2\n        /* \"#utility.yul\":4595:4619   */\n      tag_164\n      jump\t// in\n    tag_267:\n        /* \"#utility.yul\":4590:4593   */\n      dup3\n        /* \"#utility.yul\":4583:4620   */\n      mstore\n        /* \"#utility.yul\":4508:4626   */\n      pop\n      pop\n      jump\t// out\n        /* \"#utility.yul\":4632:4854   */\n    tag_54:\n        /* \"#utility.yul\":4725:4729   */\n      0x00\n        /* \"#utility.yul\":4763:4765   */\n      0x20\n        /* \"#utility.yul\":4752:4761   */\n      dup3\n        /* \"#utility.yul\":4748:4766   */\n      add\n        /* \"#utility.yul\":4740:4766   */\n      swap1\n      pop\n        /* \"#utility.yul\":4776:4847   */\n      tag_269\n        /* \"#utility.yul\":4844:4845   */\n      0x00\n        /* \"#utility.yul\":4833:4842   */\n      dup4\n        /* \"#utility.yul\":4829:4846   */\n      add\n        /* \"#utility.yul\":4820:4826   */\n      dup5\n        /* \"#utility.yul\":4776:4847   */\n      tag_172\n      jump\t// in\n    tag_269:\n        /* \"#utility.yul\":4632:4854   */\n      swap3\n      swap2\n      pop\n      pop\n      jump\t// out\n        /* \"#utility.yul\":4860:4976   */\n    tag_173:\n        /* \"#utility.yul\":4930:4951   */\n      tag_271\n        /* \"#utility.yul\":4945:4950   */\n      dup2\n        /* \"#utility.yul\":4930:4951   */\n      tag_162\n      jump\t// in\n    tag_271:\n        /* \"#utility.yul\":4923:4928   */\n      dup2\n        /* \"#utility.yul\":4920:4952   */\n      eq\n        /* \"#utility.yul\":4910:4970   */\n      tag_272\n      jumpi\n        /* \"#utility.yul\":4966:4967   */\n      0x00\n        /* \"#utility.yul\":4963:4964   */\n      dup1\n        /* \"#utility.yul\":4956:4968   */\n      revert\n        /* \"#utility.yul\":4910:4970   */\n    tag_272:\n        /* \"#utility.yul\":4860:4976   */\n      pop\n      jump\t// out\n        /* \"#utility.yul\":4982:5115   */\n    tag_174:\n        /* \"#utility.yul\":5025:5030   */\n      0x00\n        /* \"#utility.yul\":5063:5069   */\n      dup2\n        /* \"#utility.yul\":5050:5070   */\n      calldataload\n        /* \"#utility.yul\":5041:5070   */\n      swap1\n      pop\n        /* \"#utility.yul\":5079:5109   */\n      tag_274\n        /* \"#utility.yul\":5103:5108   */\n      dup2\n        /* \"#utility.yul\":5079:5109   */\n      tag_173\n      jump\t// in\n    tag_274:\n        /* \"#utility.yul\":4982:5115   */\n      swap3\n      swap2\n      pop\n      pop\n      jump\t// out\n        /* \"#utility.yul\":5121:5589   */\n    tag_57:\n        /* \"#utility.yul\":5186:5192   */\n      0x00\n        /* \"#utility.yul\":5194:5200   */\n      dup1\n        /* \"#utility.yul\":5243:5245   */\n      0x40\n        /* \"#utility.yul\":5231:5240   */\n      dup4\n        /* \"#utility.yul\":5222:5229   */\n      dup6\n        /* \"#utility.yul\":5218:5241   */\n      sub\n        /* \"#utility.yul\":5214:5246   */\n      slt\n        /* \"#utility.yul\":5211:5330   */\n      iszero\n      tag_276\n      jumpi\n        /* \"#utility.yul\":5249:5328   */\n      tag_277\n      tag_157\n      jump\t// in\n    tag_277:\n        /* \"#utility.yul\":5211:5330   */\n    tag_276:\n        /* \"#utility.yul\":5369:5370   */\n      0x00\n        /* \"#utility.yul\":5394:5447   */\n      tag_278\n        /* \"#utility.yul\":5439:5446   */\n      dup6\n        /* \"#utility.yul\":5430:5436   */\n      dup3\n        /* \"#utility.yul\":5419:5428   */\n      dup7\n        /* \"#utility.yul\":5415:5437   */\n      add\n        /* \"#utility.yul\":5394:5447   */\n      tag_171\n      jump\t// in\n    tag_278:\n        /* \"#utility.yul\":5384:5447   */\n      swap3\n      pop\n        /* \"#utility.yul\":5340:5457   */\n      pop\n        /* \"#utility.yul\":5496:5498   */\n      0x20\n        /* \"#utility.yul\":5522:5572   */\n      tag_279\n        /* \"#utility.yul\":5564:5571   */\n      dup6\n        /* \"#utility.yul\":5555:5561   */\n      dup3\n        /* \"#utility.yul\":5544:5553   */\n      dup7\n        /* \"#utility.yul\":5540:5562   */\n      add\n        /* \"#utility.yul\":5522:5572   */\n      tag_174\n      jump\t// in\n    tag_279:\n        /* \"#utility.yul\":5512:5572   */\n      swap2\n      pop\n        /* \"#utility.yul\":5467:5582   */\n      pop\n        /* \"#utility.yul\":5121:5589   */\n      swap3\n      pop\n      swap3\n      swap1\n      pop\n      jump\t// out\n        /* \"#utility.yul\":5595:5712   */\n    tag_175:\n        /* \"#utility.yul\":5704:5705   */\n      0x00\n        /* \"#utility.yul\":5701:5702   */\n      dup1\n        /* \"#utility.yul\":5694:5706   */\n      revert\n        /* \"#utility.yul\":5718:5835   */\n    tag_176:\n        /* \"#utility.yul\":5827:5828   */\n      0x00\n        /* \"#utility.yul\":5824:5825   */\n      dup1\n        /* \"#utility.yul\":5817:5829   */\n      revert\n        /* \"#utility.yul\":5841:5943   */\n    tag_177:\n        /* \"#utility.yul\":5882:5888   */\n      0x00\n        /* \"#utility.yul\":5933:5935   */\n      0x1f\n        /* \"#utility.yul\":5929:5936   */\n      not\n        /* \"#utility.yul\":5924:5926   */\n      0x1f\n        /* \"#utility.yul\":5917:5922   */\n      dup4\n        /* \"#utility.yul\":5913:5927   */\n      add\n        /* \"#utility.yul\":5909:5937   */\n      and\n        /* \"#utility.yul\":5899:5937   */\n      swap1\n      pop\n        /* \"#utility.yul\":5841:5943   */\n      swap2\n      swap1\n      pop\n      jump\t// out\n        /* \"#utility.yul\":5949:6129   */\n    tag_178:\n        /* \"#utility.yul\":5997:6074   */\n      0x4e487b7100000000000000000000000000000000000000000000000000000000\n        /* \"#utility.yul\":5994:5995   */\n      0x00\n        /* \"#utility.yul\":5987:6075   */\n      mstore\n        /* \"#utility.yul\":6094:6098   */\n      0x41\n        /* \"#utility.yul\":6091:6092   */\n      0x04\n        /* \"#utility.yul\":6084:6099   */\n      mstore\n        /* \"#utility.yul\":6118:6122   */\n      0x24\n        /* \"#utility.yul\":6115:6116   */\n      0x00\n        /* \"#utility.yul\":6108:6123   */\n      revert\n        /* \"#utility.yul\":6135:6416   */\n    tag_179:\n        /* \"#utility.yul\":6218:6245   */\n      tag_285\n        /* \"#utility.yul\":6240:6244   */\n      dup3\n        /* \"#utility.yul\":6218:6245   */\n      tag_177\n      jump\t// in\n    tag_285:\n        /* \"#utility.yul\":6210:6216   */\n      dup2\n        /* \"#utility.yul\":6206:6246   */\n      add\n        /* \"#utility.yul\":6348:6354   */\n      dup2\n        /* \"#utility.yul\":6336:6346   */\n      dup2\n        /* \"#utility.yul\":6333:6355   */\n      lt\n        /* \"#utility.yul\":6312:6330   */\n      0xffffffffffffffff\n        /* \"#utility.yul\":6300:6310   */\n      dup3\n        /* \"#utility.yul\":6297:6331   */\n      gt\n        /* \"#utility.yul\":6294:6356   */\n      or\n        /* \"#utility.yul\":6291:6379   */\n      iszero\n      tag_286\n      jumpi\n        /* \"#utility.yul\":6359:6377   */\n      tag_287\n      tag_178\n      jump\t// in\n    tag_287:\n        /* \"#utility.yul\":6291:6379   */\n    tag_286:\n        /* \"#utility.yul\":6399:6409   */\n      dup1\n        /* \"#utility.yul\":6395:6397   */\n      0x40\n        /* \"#utility.yul\":6388:6410   */\n      mstore\n        /* \"#utility.yul\":6178:6416   */\n      pop\n        /* \"#utility.yul\":6135:6416   */\n      pop\n      pop\n      jump\t// out\n        /* \"#utility.yul\":6422:6551   */\n    tag_180:\n        /* \"#utility.yul\":6456:6462   */\n      0x00\n        /* \"#utility.yul\":6483:6503   */\n      tag_289\n      tag_156\n      jump\t// in\n    tag_289:\n        /* \"#utility.yul\":6473:6503   */\n      swap1\n      pop\n        /* \"#utility.yul\":6512:6545   */\n      tag_290\n        /* \"#utility.yul\":6540:6544   */\n      dup3\n        /* \"#utility.yul\":6532:6538   */\n      dup3\n        /* \"#utility.yul\":6512:6545   */\n      tag_179\n      jump\t// in\n    tag_290:\n        /* \"#utility.yul\":6422:6551   */\n      swap2\n      swap1\n      pop\n      jump\t// out\n        /* \"#utility.yul\":6557:6864   */\n    tag_181:\n        /* \"#utility.yul\":6618:6622   */\n      0x00\n        /* \"#utility.yul\":6708:6726   */\n      0xffffffffffffffff\n        /* \"#utility.yul\":6700:6706   */\n      dup3\n        /* \"#utility.yul\":6697:6727   */\n      gt\n        /* \"#utility.yul\":6694:6750   */\n      iszero\n      tag_292\n      jumpi\n        /* \"#utility.yul\":6730:6748   */\n      tag_293\n      tag_178\n      jump\t// in\n    tag_293:\n        /* \"#utility.yul\":6694:6750   */\n    tag_292:\n        /* \"#utility.yul\":6768:6797   */\n      tag_294\n        /* \"#utility.yul\":6790:6796   */\n      dup3\n        /* \"#utility.yul\":6768:6797   */\n      tag_177\n      jump\t// in\n    tag_294:\n        /* \"#utility.yul\":6760:6797   */\n      swap1\n      pop\n        /* \"#utility.yul\":6852:6856   */\n      0x20\n        /* \"#utility.yul\":6846:6850   */\n      dup2\n        /* \"#utility.yul\":6842:6857   */\n      add\n        /* \"#utility.yul\":6834:6857   */\n      swap1\n      pop\n        /* \"#utility.yul\":6557:6864   */\n      swap2\n      swap1\n      pop\n      jump\t// out\n        /* \"#utility.yul\":6870:7016   */\n    tag_182:\n        /* \"#utility.yul\":6967:6973   */\n      dup3\n        /* \"#utility.yul\":6962:6965   */\n      dup2\n        /* \"#utility.yul\":6957:6960   */\n      dup4\n        /* \"#utility.yul\":6944:6974   */\n      calldatacopy\n        /* \"#utility.yul\":7008:7009   */\n      0x00\n        /* \"#utility.yul\":6999:7005   */\n      dup4\n        /* \"#utility.yul\":6994:6997   */\n      dup4\n        /* \"#utility.yul\":6990:7006   */\n      add\n        /* \"#utility.yul\":6983:7010   */\n      mstore\n        /* \"#utility.yul\":6870:7016   */\n      pop\n      pop\n      pop\n      jump\t// out\n        /* \"#utility.yul\":7022:7445   */\n    tag_183:\n        /* \"#utility.yul\":7099:7104   */\n      0x00\n        /* \"#utility.yul\":7124:7189   */\n      tag_297\n        /* \"#utility.yul\":7140:7188   */\n      tag_298\n        /* \"#utility.yul\":7181:7187   */\n      dup5\n        /* \"#utility.yul\":7140:7188   */\n      tag_181\n      jump\t// in\n    tag_298:\n        /* \"#utility.yul\":7124:7189   */\n      tag_180\n      jump\t// in\n    tag_297:\n        /* \"#utility.yul\":7115:7189   */\n      swap1\n      pop\n        /* \"#utility.yul\":7212:7218   */\n      dup3\n        /* \"#utility.yul\":7205:7210   */\n      dup2\n        /* \"#utility.yul\":7198:7219   */\n      mstore\n        /* \"#utility.yul\":7250:7254   */\n      0x20\n        /* \"#utility.yul\":7243:7248   */\n      dup2\n        /* \"#utility.yul\":7239:7255   */\n      add\n        /* \"#utility.yul\":7288:7291   */\n      dup5\n        /* \"#utility.yul\":7279:7285   */\n      dup5\n        /* \"#utility.yul\":7274:7277   */\n      dup5\n        /* \"#utility.yul\":7270:7286   */\n      add\n        /* \"#utility.yul\":7267:7292   */\n      gt\n        /* \"#utility.yul\":7264:7376   */\n      iszero\n      tag_299\n      jumpi\n        /* \"#utility.yul\":7295:7374   */\n      tag_300\n      tag_176\n      jump\t// in\n    tag_300:\n        /* \"#utility.yul\":7264:7376   */\n    tag_299:\n        /* \"#utility.yul\":7385:7439   */\n      tag_301\n        /* \"#utility.yul\":7432:7438   */\n      dup5\n        /* \"#utility.yul\":7427:7430   */\n      dup3\n        /* \"#utility.yul\":7422:7425   */\n      dup6\n        /* \"#utility.yul\":7385:7439   */\n      tag_182\n      jump\t// in\n    tag_301:\n        /* \"#utility.yul\":7105:7445   */\n      pop\n        /* \"#utility.yul\":7022:7445   */\n      swap4\n      swap3\n      pop\n      pop\n      pop\n      jump\t// out\n        /* \"#utility.yul\":7464:7802   */\n    tag_184:\n        /* \"#utility.yul\":7519:7524   */\n      0x00\n        /* \"#utility.yul\":7568:7571   */\n      dup3\n        /* \"#utility.yul\":7561:7565   */\n      0x1f\n        /* \"#utility.yul\":7553:7559   */\n      dup4\n        /* \"#utility.yul\":7549:7566   */\n      add\n        /* \"#utility.yul\":7545:7572   */\n      slt\n        /* \"#utility.yul\":7535:7657   */\n      tag_303\n      jumpi\n        /* \"#utility.yul\":7576:7655   */\n      tag_304\n      tag_175\n      jump\t// in\n    tag_304:\n        /* \"#utility.yul\":7535:7657   */\n    tag_303:\n        /* \"#utility.yul\":7693:7699   */\n      dup2\n        /* \"#utility.yul\":7680:7700   */\n      calldataload\n        /* \"#utility.yul\":7718:7796   */\n      tag_305\n        /* \"#utility.yul\":7792:7795   */\n      dup5\n        /* \"#utility.yul\":7784:7790   */\n      dup3\n        /* \"#utility.yul\":7777:7781   */\n      0x20\n        /* \"#utility.yul\":7769:7775   */\n      dup7\n        /* \"#utility.yul\":7765:7782   */\n      add\n        /* \"#utility.yul\":7718:7796   */\n      tag_183\n      jump\t// in\n    tag_305:\n        /* \"#utility.yul\":7709:7796   */\n      swap2\n      pop\n        /* \"#utility.yul\":7525:7802   */\n      pop\n        /* \"#utility.yul\":7464:7802   */\n      swap3\n      swap2\n      pop\n      pop\n      jump\t// out\n        /* \"#utility.yul\":7808:8751   */\n    tag_61:\n        /* \"#utility.yul\":7903:7909   */\n      0x00\n        /* \"#utility.yul\":7911:7917   */\n      dup1\n        /* \"#utility.yul\":7919:7925   */\n      0x00\n        /* \"#utility.yul\":7927:7933   */\n      dup1\n        /* \"#utility.yul\":7976:7979   */\n      0x80\n        /* \"#utility.yul\":7964:7973   */\n      dup6\n        /* \"#utility.yul\":7955:7962   */\n      dup8\n        /* \"#utility.yul\":7951:7974   */\n      sub\n        /* \"#utility.yul\":7947:7980   */\n      slt\n        /* \"#utility.yul\":7944:8064   */\n      iszero\n      tag_307\n      jumpi\n        /* \"#utility.yul\":7983:8062   */\n      tag_308\n      tag_157\n      jump\t// in\n    tag_308:\n        /* \"#utility.yul\":7944:8064   */\n    tag_307:\n        /* \"#utility.yul\":8103:8104   */\n      0x00\n        /* \"#utility.yul\":8128:8181   */\n      tag_309\n        /* \"#utility.yul\":8173:8180   */\n      dup8\n        /* \"#utility.yul\":8164:8170   */\n      dup3\n        /* \"#utility.yul\":8153:8162   */\n      dup9\n        /* \"#utility.yul\":8149:8171   */\n      add\n        /* \"#utility.yul\":8128:8181   */\n      tag_171\n      jump\t// in\n    tag_309:\n        /* \"#utility.yul\":8118:8181   */\n      swap5\n      pop\n        /* \"#utility.yul\":8074:8191   */\n      pop\n        /* \"#utility.yul\":8230:8232   */\n      0x20\n        /* \"#utility.yul\":8256:8309   */\n      tag_310\n        /* \"#utility.yul\":8301:8308   */\n      dup8\n        /* \"#utility.yul\":8292:8298   */\n      dup3\n        /* \"#utility.yul\":8281:8290   */\n      dup9\n        /* \"#utility.yul\":8277:8299   */\n      add\n        /* \"#utility.yul\":8256:8309   */\n      tag_171\n      jump\t// in\n    tag_310:\n        /* \"#utility.yul\":8246:8309   */\n      swap4\n      pop\n        /* \"#utility.yul\":8201:8319   */\n      pop\n        /* \"#utility.yul\":8358:8360   */\n      0x40\n        /* \"#utility.yul\":8384:8437   */\n      tag_311\n        /* \"#utility.yul\":8429:8436   */\n      dup8\n        /* \"#utility.yul\":8420:8426   */\n      dup3\n        /* \"#utility.yul\":8409:8418   */\n      dup9\n        /* \"#utility.yul\":8405:8427   */\n      add\n        /* \"#utility.yul\":8384:8437   */\n      tag_166\n      jump\t// in\n    tag_311:\n        /* \"#utility.yul\":8374:8437   */\n      swap3\n      pop\n        /* \"#utility.yul\":8329:8447   */\n      pop\n        /* \"#utility.yul\":8514:8516   */\n      0x60\n        /* \"#utility.yul\":8503:8512   */\n      dup6\n        /* \"#utility.yul\":8499:8517   */\n      add\n        /* \"#utility.yul\":8486:8518   */\n      calldataload\n        /* \"#utility.yul\":8545:8563   */\n      0xffffffffffffffff\n        /* \"#utility.yul\":8537:8543   */\n      dup2\n        /* \"#utility.yul\":8534:8564   */\n      gt\n        /* \"#utility.yul\":8531:8648   */\n      iszero\n      tag_312\n      jumpi\n        /* \"#utility.yul\":8567:8646   */\n      tag_313\n      tag_158\n      jump\t// in\n    tag_313:\n        /* \"#utility.yul\":8531:8648   */\n    tag_312:\n        /* \"#utility.yul\":8672:8734   */\n      tag_314\n        /* \"#utility.yul\":8726:8733   */\n      dup8\n        /* \"#utility.yul\":8717:8723   */\n      dup3\n        /* \"#utility.yul\":8706:8715   */\n      dup9\n        /* \"#utility.yul\":8702:8724   */\n      add\n        /* \"#utility.yul\":8672:8734   */\n      tag_184\n      jump\t// in\n    tag_314:\n        /* \"#utility.yul\":8662:8734   */\n      swap2\n      pop\n        /* \"#utility.yul\":8457:8744   */\n      pop\n        /* \"#utility.yul\":7808:8751   */\n      swap3\n      swap6\n      swap2\n      swap5\n      pop\n      swap3\n      pop\n      jump\t// out\n        /* \"#utility.yul\":8757:9231   */\n    tag_65:\n        /* \"#utility.yul\":8825:8831   */\n      0x00\n        /* \"#utility.yul\":8833:8839   */\n      dup1\n        /* \"#utility.yul\":8882:8884   */\n      0x40\n        /* \"#utility.yul\":8870:8879   */\n      dup4\n        /* \"#utility.yul\":8861:8868   */\n      dup6\n        /* \"#utility.yul\":8857:8880   */\n      sub\n        /* \"#utility.yul\":8853:8885   */\n      slt\n        /* \"#utility.yul\":8850:8969   */\n      iszero\n      tag_316\n      jumpi\n        /* \"#utility.yul\":8888:8967   */\n      tag_317\n      tag_157\n      jump\t// in\n    tag_317:\n        /* \"#utility.yul\":8850:8969   */\n    tag_316:\n        /* \"#utility.yul\":9008:9009   */\n      0x00\n        /* \"#utility.yul\":9033:9086   */\n      tag_318\n        /* \"#utility.yul\":9078:9085   */\n      dup6\n        /* \"#utility.yul\":9069:9075   */\n      dup3\n        /* \"#utility.yul\":9058:9067   */\n      dup7\n        /* \"#utility.yul\":9054:9076   */\n      add\n        /* \"#utility.yul\":9033:9086   */\n      tag_171\n      jump\t// in\n    tag_318:\n        /* \"#utility.yul\":9023:9086   */\n      swap3\n      pop\n        /* \"#utility.yul\":8979:9096   */\n      pop\n        /* \"#utility.yul\":9135:9137   */\n      0x20\n        /* \"#utility.yul\":9161:9214   */\n      tag_319\n        /* \"#utility.yul\":9206:9213   */\n      dup6\n        /* \"#utility.yul\":9197:9203   */\n      dup3\n        /* \"#utility.yul\":9186:9195   */\n      dup7\n        /* \"#utility.yul\":9182:9204   */\n      add\n        /* \"#utility.yul\":9161:9214   */\n      tag_171\n      jump\t// in\n    tag_319:\n        /* \"#utility.yul\":9151:9214   */\n      swap2\n      pop\n        /* \"#utility.yul\":9106:9224   */\n      pop\n        /* \"#utility.yul\":8757:9231   */\n      swap3\n      pop\n      swap3\n      swap1\n      pop\n      jump\t// out\n        /* \"#utility.yul\":9237:9406   */\n    tag_185:\n        /* \"#utility.yul\":9321:9332   */\n      0x00\n        /* \"#utility.yul\":9355:9361   */\n      dup3\n        /* \"#utility.yul\":9350:9353   */\n      dup3\n        /* \"#utility.yul\":9343:9362   */\n      mstore\n        /* \"#utility.yul\":9395:9399   */\n      0x20\n        /* \"#utility.yul\":9390:9393   */\n      dup3\n        /* \"#utility.yul\":9386:9400   */\n      add\n        /* \"#utility.yul\":9371:9400   */\n      swap1\n      pop\n        /* \"#utility.yul\":9237:9406   */\n      swap3\n      swap2\n      pop\n      pop\n      jump\t// out\n        /* \"#utility.yul\":9412:9581   */\n    tag_186:\n        /* \"#utility.yul\":9552:9573   */\n      0x746f6b656e20646f65736e277420657869737400000000000000000000000000\n        /* \"#utility.yul\":9548:9549   */\n      0x00\n        /* \"#utility.yul\":9540:9546   */\n      dup3\n        /* \"#utility.yul\":9536:9550   */\n      add\n        /* \"#utility.yul\":9529:9574   */\n      mstore\n        /* \"#utility.yul\":9412:9581   */\n      pop\n      jump\t// out\n        /* \"#utility.yul\":9587:9953   */\n    tag_187:\n        /* \"#utility.yul\":9729:9732   */\n      0x00\n        /* \"#utility.yul\":9750:9817   */\n      tag_323\n        /* \"#utility.yul\":9814:9816   */\n      0x13\n        /* \"#utility.yul\":9809:9812   */\n      dup4\n        /* \"#utility.yul\":9750:9817   */\n      tag_185\n      jump\t// in\n    tag_323:\n        /* \"#utility.yul\":9743:9817   */\n      swap2\n      pop\n        /* \"#utility.yul\":9826:9919   */\n      tag_324\n        /* \"#utility.yul\":9915:9918   */\n      dup3\n        /* \"#utility.yul\":9826:9919   */\n      tag_186\n      jump\t// in\n    tag_324:\n        /* \"#utility.yul\":9944:9946   */\n      0x20\n        /* \"#utility.yul\":9939:9942   */\n      dup3\n        /* \"#utility.yul\":9935:9947   */\n      add\n        /* \"#utility.yul\":9928:9947   */\n      swap1\n      pop\n        /* \"#utility.yul\":9587:9953   */\n      swap2\n      swap1\n      pop\n      jump\t// out\n        /* \"#utility.yul\":9959:10378   */\n    tag_73:\n        /* \"#utility.yul\":10125:10129   */\n      0x00\n        /* \"#utility.yul\":10163:10165   */\n      0x20\n        /* \"#utility.yul\":10152:10161   */\n      dup3\n        /* \"#utility.yul\":10148:10166   */\n      add\n        /* \"#utility.yul\":10140:10166   */\n      swap1\n      pop\n        /* \"#utility.yul\":10212:10221   */\n      dup2\n        /* \"#utility.yul\":10206:10210   */\n      dup2\n        /* \"#utility.yul\":10202:10222   */\n      sub\n        /* \"#utility.yul\":10198:10199   */\n      0x00\n        /* \"#utility.yul\":10187:10196   */\n      dup4\n        /* \"#utility.yul\":10183:10200   */\n      add\n        /* \"#utility.yul\":10176:10223   */\n      mstore\n        /* \"#utility.yul\":10240:10371   */\n      tag_326\n        /* \"#utility.yul\":10366:10370   */\n      dup2\n        /* \"#utility.yul\":10240:10371   */\n      tag_187\n      jump\t// in\n    tag_326:\n        /* \"#utility.yul\":10232:10371   */\n      swap1\n      pop\n        /* \"#utility.yul\":9959:10378   */\n      swap2\n      swap1\n      pop\n      jump\t// out\n        /* \"#utility.yul\":10384:10564   */\n    tag_188:\n        /* \"#utility.yul\":10524:10556   */\n      0x6e6f74206f776e6572206e6f7220617070726f76656420666f7220616c6c0000\n        /* \"#utility.yul\":10520:10521   */\n      0x00\n        /* \"#utility.yul\":10512:10518   */\n      dup3\n        /* \"#utility.yul\":10508:10522   */\n      add\n        /* \"#utility.yul\":10501:10557   */\n      mstore\n        /* \"#utility.yul\":10384:10564   */\n      pop\n      jump\t// out\n        /* \"#utility.yul\":10570:10936   */\n    tag_189:\n        /* \"#utility.yul\":10712:10715   */\n      0x00\n        /* \"#utility.yul\":10733:10800   */\n      tag_329\n        /* \"#utility.yul\":10797:10799   */\n      0x1e\n        /* \"#utility.yul\":10792:10795   */\n      dup4\n        /* \"#utility.yul\":10733:10800   */\n      tag_185\n      jump\t// in\n    tag_329:\n        /* \"#utility.yul\":10726:10800   */\n      swap2\n      pop\n        /* \"#utility.yul\":10809:10902   */\n      tag_330\n        /* \"#utility.yul\":10898:10901   */\n      dup3\n        /* \"#utility.yul\":10809:10902   */\n      tag_188\n      jump\t// in\n    tag_330:\n        /* \"#utility.yul\":10927:10929   */\n      0x20\n        /* \"#utility.yul\":10922:10925   */\n      dup3\n        /* \"#utility.yul\":10918:10930   */\n      add\n        /* \"#utility.yul\":10911:10930   */\n      swap1\n      pop\n        /* \"#utility.yul\":10570:10936   */\n      swap2\n      swap1\n      pop\n      jump\t// out\n        /* \"#utility.yul\":10942:11361   */\n    tag_78:\n        /* \"#utility.yul\":11108:11112   */\n      0x00\n        /* \"#utility.yul\":11146:11148   */\n      0x20\n        /* \"#utility.yul\":11135:11144   */\n      dup3\n        /* \"#utility.yul\":11131:11149   */\n      add\n        /* \"#utility.yul\":11123:11149   */\n      swap1\n      pop\n        /* \"#utility.yul\":11195:11204   */\n      dup2\n        /* \"#utility.yul\":11189:11193   */\n      dup2\n        /* \"#utility.yul\":11185:11205   */\n      sub\n        /* \"#utility.yul\":11181:11182   */\n      0x00\n        /* \"#utility.yul\":11170:11179   */\n      dup4\n        /* \"#utility.yul\":11166:11183   */\n      add\n        /* \"#utility.yul\":11159:11206   */\n      mstore\n        /* \"#utility.yul\":11223:11354   */\n      tag_332\n        /* \"#utility.yul\":11349:11353   */\n      dup2\n        /* \"#utility.yul\":11223:11354   */\n      tag_189\n      jump\t// in\n    tag_332:\n        /* \"#utility.yul\":11215:11354   */\n      swap1\n      pop\n        /* \"#utility.yul\":10942:11361   */\n      swap2\n      swap1\n      pop\n      jump\t// out\n        /* \"#utility.yul\":11367:11539   */\n    tag_190:\n        /* \"#utility.yul\":11507:11531   */\n      0x6e6f74206f776e6572206e6f7220617070726f76656400000000000000000000\n        /* \"#utility.yul\":11503:11504   */\n      0x00\n        /* \"#utility.yul\":11495:11501   */\n      dup3\n        /* \"#utility.yul\":11491:11505   */\n      add\n        /* \"#utility.yul\":11484:11532   */\n      mstore\n        /* \"#utility.yul\":11367:11539   */\n      pop\n      jump\t// out\n        /* \"#utility.yul\":11545:11911   */\n    tag_191:\n        /* \"#utility.yul\":11687:11690   */\n      0x00\n        /* \"#utility.yul\":11708:11775   */\n      tag_335\n        /* \"#utility.yul\":11772:11774   */\n      0x16\n        /* \"#utility.yul\":11767:11770   */\n      dup4\n        /* \"#utility.yul\":11708:11775   */\n      tag_185\n      jump\t// in\n    tag_335:\n        /* \"#utility.yul\":11701:11775   */\n      swap2\n      pop\n        /* \"#utility.yul\":11784:11877   */\n      tag_336\n        /* \"#utility.yul\":11873:11876   */\n      dup3\n        /* \"#utility.yul\":11784:11877   */\n      tag_190\n      jump\t// in\n    tag_336:\n        /* \"#utility.yul\":11902:11904   */\n      0x20\n        /* \"#utility.yul\":11897:11900   */\n      dup3\n        /* \"#utility.yul\":11893:11905   */\n      add\n        /* \"#utility.yul\":11886:11905   */\n      swap1\n      pop\n        /* \"#utility.yul\":11545:11911   */\n      swap2\n      swap1\n      pop\n      jump\t// out\n        /* \"#utility.yul\":11917:12336   */\n    tag_87:\n        /* \"#utility.yul\":12083:12087   */\n      0x00\n        /* \"#utility.yul\":12121:12123   */\n      0x20\n        /* \"#utility.yul\":12110:12119   */\n      dup3\n        /* \"#utility.yul\":12106:12124   */\n      add\n        /* \"#utility.yul\":12098:12124   */\n      swap1\n      pop\n        /* \"#utility.yul\":12170:12179   */\n      dup2\n        /* \"#utility.yul\":12164:12168   */\n      dup2\n        /* \"#utility.yul\":12160:12180   */\n      sub\n        /* \"#utility.yul\":12156:12157   */\n      0x00\n        /* \"#utility.yul\":12145:12154   */\n      dup4\n        /* \"#utility.yul\":12141:12158   */\n      add\n        /* \"#utility.yul\":12134:12181   */\n      mstore\n        /* \"#utility.yul\":12198:12329   */\n      tag_338\n        /* \"#utility.yul\":12324:12328   */\n      dup2\n        /* \"#utility.yul\":12198:12329   */\n      tag_191\n      jump\t// in\n    tag_338:\n        /* \"#utility.yul\":12190:12329   */\n      swap1\n      pop\n        /* \"#utility.yul\":11917:12336   */\n      swap2\n      swap1\n      pop\n      jump\t// out\n        /* \"#utility.yul\":12342:12512   */\n    tag_192:\n        /* \"#utility.yul\":12482:12504   */\n      0x6d696e7420746f207a65726f2061646472657373000000000000000000000000\n        /* \"#utility.yul\":12478:12479   */\n      0x00\n        /* \"#utility.yul\":12470:12476   */\n      dup3\n        /* \"#utility.yul\":12466:12480   */\n      add\n        /* \"#utility.yul\":12459:12505   */\n      mstore\n        /* \"#utility.yul\":12342:12512   */\n      pop\n      jump\t// out\n        /* \"#utility.yul\":12518:12884   */\n    tag_193:\n        /* \"#utility.yul\":12660:12663   */\n      0x00\n        /* \"#utility.yul\":12681:12748   */\n      tag_341\n        /* \"#utility.yul\":12745:12747   */\n      0x14\n        /* \"#utility.yul\":12740:12743   */\n      dup4\n        /* \"#utility.yul\":12681:12748   */\n      tag_185\n      jump\t// in\n    tag_341:\n        /* \"#utility.yul\":12674:12748   */\n      swap2\n      pop\n        /* \"#utility.yul\":12757:12850   */\n      tag_342\n        /* \"#utility.yul\":12846:12849   */\n      dup3\n        /* \"#utility.yul\":12757:12850   */\n      tag_192\n      jump\t// in\n    tag_342:\n        /* \"#utility.yul\":12875:12877   */\n      0x20\n        /* \"#utility.yul\":12870:12873   */\n      dup3\n        /* \"#utility.yul\":12866:12878   */\n      add\n        /* \"#utility.yul\":12859:12878   */\n      swap1\n      pop\n        /* \"#utility.yul\":12518:12884   */\n      swap2\n      swap1\n      pop\n      jump\t// out\n        /* \"#utility.yul\":12890:13309   */\n    tag_93:\n        /* \"#utility.yul\":13056:13060   */\n      0x00\n        /* \"#utility.yul\":13094:13096   */\n      0x20\n        /* \"#utility.yul\":13083:13092   */\n      dup3\n        /* \"#utility.yul\":13079:13097   */\n      add\n        /* \"#utility.yul\":13071:13097   */\n      swap1\n      pop\n        /* \"#utility.yul\":13143:13152   */\n      dup2\n        /* \"#utility.yul\":13137:13141   */\n      dup2\n        /* \"#utility.yul\":13133:13153   */\n      sub\n        /* \"#utility.yul\":13129:13130   */\n      0x00\n        /* \"#utility.yul\":13118:13127   */\n      dup4\n        /* \"#utility.yul\":13114:13131   */\n      add\n        /* \"#utility.yul\":13107:13154   */\n      mstore\n        /* \"#utility.yul\":13171:13302   */\n      tag_344\n        /* \"#utility.yul\":13297:13301   */\n      dup2\n        /* \"#utility.yul\":13171:13302   */\n      tag_193\n      jump\t// in\n    tag_344:\n        /* \"#utility.yul\":13163:13302   */\n      swap1\n      pop\n        /* \"#utility.yul\":12890:13309   */\n      swap2\n      swap1\n      pop\n      jump\t// out\n        /* \"#utility.yul\":13315:13485   */\n    tag_194:\n        /* \"#utility.yul\":13455:13477   */\n      0x746f6b656e20616c7265616479206d696e746564000000000000000000000000\n        /* \"#utility.yul\":13451:13452   */\n      0x00\n        /* \"#utility.yul\":13443:13449   */\n      dup3\n        /* \"#utility.yul\":13439:13453   */\n      add\n        /* \"#utility.yul\":13432:13478   */\n      mstore\n        /* \"#utility.yul\":13315:13485   */\n      pop\n      jump\t// out\n        /* \"#utility.yul\":13491:13857   */\n    tag_195:\n        /* \"#utility.yul\":13633:13636   */\n      0x00\n        /* \"#utility.yul\":13654:13721   */\n      tag_347\n        /* \"#utility.yul\":13718:13720   */\n      0x14\n        /* \"#utility.yul\":13713:13716   */\n      dup4\n        /* \"#utility.yul\":13654:13721   */\n      tag_185\n      jump\t// in\n    tag_347:\n        /* \"#utility.yul\":13647:13721   */\n      swap2\n      pop\n        /* \"#utility.yul\":13730:13823   */\n      tag_348\n        /* \"#utility.yul\":13819:13822   */\n      dup3\n        /* \"#utility.yul\":13730:13823   */\n      tag_194\n      jump\t// in\n    tag_348:\n        /* \"#utility.yul\":13848:13850   */\n      0x20\n        /* \"#utility.yul\":13843:13846   */\n      dup3\n        /* \"#utility.yul\":13839:13851   */\n      add\n        /* \"#utility.yul\":13832:13851   */\n      swap1\n      pop\n        /* \"#utility.yul\":13491:13857   */\n      swap2\n      swap1\n      pop\n      jump\t// out\n        /* \"#utility.yul\":13863:14282   */\n    tag_96:\n        /* \"#utility.yul\":14029:14033   */\n      0x00\n        /* \"#utility.yul\":14067:14069   */\n      0x20\n        /* \"#utility.yul\":14056:14065   */\n      dup3\n        /* \"#utility.yul\":14052:14070   */\n      add\n        /* \"#utility.yul\":14044:14070   */\n      swap1\n      pop\n        /* \"#utility.yul\":14116:14125   */\n      dup2\n        /* \"#utility.yul\":14110:14114   */\n      dup2\n        /* \"#utility.yul\":14106:14126   */\n      sub\n        /* \"#utility.yul\":14102:14103   */\n      0x00\n        /* \"#utility.yul\":14091:14100   */\n      dup4\n        /* \"#utility.yul\":14087:14104   */\n      add\n        /* \"#utility.yul\":14080:14127   */\n      mstore\n        /* \"#utility.yul\":14144:14275   */\n      tag_350\n        /* \"#utility.yul\":14270:14274   */\n      dup2\n        /* \"#utility.yul\":14144:14275   */\n      tag_195\n      jump\t// in\n    tag_350:\n        /* \"#utility.yul\":14136:14275   */\n      swap1\n      pop\n        /* \"#utility.yul\":13863:14282   */\n      swap2\n      swap1\n      pop\n      jump\t// out\n        /* \"#utility.yul\":14288:14468   */\n    tag_196:\n        /* \"#utility.yul\":14336:14413   */\n      0x4e487b7100000000000000000000000000000000000000000000000000000000\n        /* \"#utility.yul\":14333:14334   */\n      0x00\n        /* \"#utility.yul\":14326:14414   */\n      mstore\n        /* \"#utility.yul\":14433:14437   */\n      0x11\n        /* \"#utility.yul\":14430:14431   */\n      0x04\n        /* \"#utility.yul\":14423:14438   */\n      mstore\n        /* \"#utility.yul\":14457:14461   */\n      0x24\n        /* \"#utility.yul\":14454:14455   */\n      0x00\n        /* \"#utility.yul\":14447:14462   */\n      revert\n        /* \"#utility.yul\":14474:14665   */\n    tag_98:\n        /* \"#utility.yul\":14514:14517   */\n      0x00\n        /* \"#utility.yul\":14533:14553   */\n      tag_353\n        /* \"#utility.yul\":14551:14552   */\n      dup3\n        /* \"#utility.yul\":14533:14553   */\n      tag_164\n      jump\t// in\n    tag_353:\n        /* \"#utility.yul\":14528:14553   */\n      swap2\n      pop\n        /* \"#utility.yul\":14567:14587   */\n      tag_354\n        /* \"#utility.yul\":14585:14586   */\n      dup4\n        /* \"#utility.yul\":14567:14587   */\n      tag_164\n      jump\t// in\n    tag_354:\n        /* \"#utility.yul\":14562:14587   */\n      swap3\n      pop\n        /* \"#utility.yul\":14610:14611   */\n      dup3\n        /* \"#utility.yul\":14607:14608   */\n      dup3\n        /* \"#utility.yul\":14603:14612   */\n      add\n        /* \"#utility.yul\":14596:14612   */\n      swap1\n      pop\n        /* \"#utility.yul\":14631:14634   */\n      dup1\n        /* \"#utility.yul\":14628:14629   */\n      dup3\n        /* \"#utility.yul\":14625:14635   */\n      gt\n        /* \"#utility.yul\":14622:14658   */\n      iszero\n      tag_355\n      jumpi\n        /* \"#utility.yul\":14638:14656   */\n      tag_356\n      tag_196\n      jump\t// in\n    tag_356:\n        /* \"#utility.yul\":14622:14658   */\n    tag_355:\n        /* \"#utility.yul\":14474:14665   */\n      swap3\n      swap2\n      pop\n      pop\n      jump\t// out\n        /* \"#utility.yul\":14671:14865   */\n    tag_105:\n        /* \"#utility.yul\":14711:14715   */\n      0x00\n        /* \"#utility.yul\":14731:14751   */\n      tag_358\n        /* \"#utility.yul\":14749:14750   */\n      dup3\n        /* \"#utility.yul\":14731:14751   */\n      tag_164\n      jump\t// in\n    tag_358:\n        /* \"#utility.yul\":14726:14751   */\n      swap2\n      pop\n        /* \"#utility.yul\":14765:14785   */\n      tag_359\n        /* \"#utility.yul\":14783:14784   */\n      dup4\n        /* \"#utility.yul\":14765:14785   */\n      tag_164\n      jump\t// in\n    tag_359:\n        /* \"#utility.yul\":14760:14785   */\n      swap3\n      pop\n        /* \"#utility.yul\":14809:14810   */\n      dup3\n        /* \"#utility.yul\":14806:14807   */\n      dup3\n        /* \"#utility.yul\":14802:14811   */\n      sub\n        /* \"#utility.yul\":14794:14811   */\n      swap1\n      pop\n        /* \"#utility.yul\":14833:14834   */\n      dup2\n        /* \"#utility.yul\":14827:14831   */\n      dup2\n        /* \"#utility.yul\":14824:14835   */\n      gt\n        /* \"#utility.yul\":14821:14858   */\n      iszero\n      tag_360\n      jumpi\n        /* \"#utility.yul\":14838:14856   */\n      tag_361\n      tag_196\n      jump\t// in\n    tag_361:\n        /* \"#utility.yul\":14821:14858   */\n    tag_360:\n        /* \"#utility.yul\":14671:14865   */\n      swap3\n      swap2\n      pop\n      pop\n      jump\t// out\n        /* \"#utility.yul\":14871:15041   */\n    tag_197:\n        /* \"#utility.yul\":15011:15033   */\n      0x6f776e6572203d207a65726f2061646472657373000000000000000000000000\n        /* \"#utility.yul\":15007:15008   */\n      0x00\n        /* \"#utility.yul\":14999:15005   */\n      dup3\n        /* \"#utility.yul\":14995:15009   */\n      add\n        /* \"#utility.yul\":14988:15034   */\n      mstore\n        /* \"#utility.yul\":14871:15041   */\n      pop\n      jump\t// out\n        /* \"#utility.yul\":15047:15413   */\n    tag_198:\n        /* \"#utility.yul\":15189:15192   */\n      0x00\n        /* \"#utility.yul\":15210:15277   */\n      tag_364\n        /* \"#utility.yul\":15274:15276   */\n      0x14\n        /* \"#utility.yul\":15269:15272   */\n      dup4\n        /* \"#utility.yul\":15210:15277   */\n      tag_185\n      jump\t// in\n    tag_364:\n        /* \"#utility.yul\":15203:15277   */\n      swap2\n      pop\n        /* \"#utility.yul\":15286:15379   */\n      tag_365\n        /* \"#utility.yul\":15375:15378   */\n      dup3\n        /* \"#utility.yul\":15286:15379   */\n      tag_197\n      jump\t// in\n    tag_365:\n        /* \"#utility.yul\":15404:15406   */\n      0x20\n        /* \"#utility.yul\":15399:15402   */\n      dup3\n        /* \"#utility.yul\":15395:15407   */\n      add\n        /* \"#utility.yul\":15388:15407   */\n      swap1\n      pop\n        /* \"#utility.yul\":15047:15413   */\n      swap2\n      swap1\n      pop\n      jump\t// out\n        /* \"#utility.yul\":15419:15838   */\n    tag_112:\n        /* \"#utility.yul\":15585:15589   */\n      0x00\n        /* \"#utility.yul\":15623:15625   */\n      0x20\n        /* \"#utility.yul\":15612:15621   */\n      dup3\n        /* \"#utility.yul\":15608:15626   */\n      add\n        /* \"#utility.yul\":15600:15626   */\n      swap1\n      pop\n        /* \"#utility.yul\":15672:15681   */\n      dup2\n        /* \"#utility.yul\":15666:15670   */\n      dup2\n        /* \"#utility.yul\":15662:15682   */\n      sub\n        /* \"#utility.yul\":15658:15659   */\n      0x00\n        /* \"#utility.yul\":15647:15656   */\n      dup4\n        /* \"#utility.yul\":15643:15660   */\n      add\n        /* \"#utility.yul\":15636:15683   */\n      mstore\n        /* \"#utility.yul\":15700:15831   */\n      tag_367\n        /* \"#utility.yul\":15826:15830   */\n      dup2\n        /* \"#utility.yul\":15700:15831   */\n      tag_198\n      jump\t// in\n    tag_367:\n        /* \"#utility.yul\":15692:15831   */\n      swap1\n      pop\n        /* \"#utility.yul\":15419:15838   */\n      swap2\n      swap1\n      pop\n      jump\t// out\n        /* \"#utility.yul\":15844:16003   */\n    tag_199:\n        /* \"#utility.yul\":15984:15995   */\n      0x6e6f74206f776e65720000000000000000000000000000000000000000000000\n        /* \"#utility.yul\":15980:15981   */\n      0x00\n        /* \"#utility.yul\":15972:15978   */\n      dup3\n        /* \"#utility.yul\":15968:15982   */\n      add\n        /* \"#utility.yul\":15961:15996   */\n      mstore\n        /* \"#utility.yul\":15844:16003   */\n      pop\n      jump\t// out\n        /* \"#utility.yul\":16009:16374   */\n    tag_200:\n        /* \"#utility.yul\":16151:16154   */\n      0x00\n        /* \"#utility.yul\":16172:16238   */\n      tag_370\n        /* \"#utility.yul\":16236:16237   */\n      0x09\n        /* \"#utility.yul\":16231:16234   */\n      dup4\n        /* \"#utility.yul\":16172:16238   */\n      tag_185\n      jump\t// in\n    tag_370:\n        /* \"#utility.yul\":16165:16238   */\n      swap2\n      pop\n        /* \"#utility.yul\":16247:16340   */\n      tag_371\n        /* \"#utility.yul\":16336:16339   */\n      dup3\n        /* \"#utility.yul\":16247:16340   */\n      tag_199\n      jump\t// in\n    tag_371:\n        /* \"#utility.yul\":16365:16367   */\n      0x20\n        /* \"#utility.yul\":16360:16363   */\n      dup3\n        /* \"#utility.yul\":16356:16368   */\n      add\n        /* \"#utility.yul\":16349:16368   */\n      swap1\n      pop\n        /* \"#utility.yul\":16009:16374   */\n      swap2\n      swap1\n      pop\n      jump\t// out\n        /* \"#utility.yul\":16380:16799   */\n    tag_130:\n        /* \"#utility.yul\":16546:16550   */\n      0x00\n        /* \"#utility.yul\":16584:16586   */\n      0x20\n        /* \"#utility.yul\":16573:16582   */\n      dup3\n        /* \"#utility.yul\":16569:16587   */\n      add\n        /* \"#utility.yul\":16561:16587   */\n      swap1\n      pop\n        /* \"#utility.yul\":16633:16642   */\n      dup2\n        /* \"#utility.yul\":16627:16631   */\n      dup2\n        /* \"#utility.yul\":16623:16643   */\n      sub\n        /* \"#utility.yul\":16619:16620   */\n      0x00\n        /* \"#utility.yul\":16608:16617   */\n      dup4\n        /* \"#utility.yul\":16604:16621   */\n      add\n        /* \"#utility.yul\":16597:16644   */\n      mstore\n        /* \"#utility.yul\":16661:16792   */\n      tag_373\n        /* \"#utility.yul\":16787:16791   */\n      dup2\n        /* \"#utility.yul\":16661:16792   */\n      tag_200\n      jump\t// in\n    tag_373:\n        /* \"#utility.yul\":16653:16792   */\n      swap1\n      pop\n        /* \"#utility.yul\":16380:16799   */\n      swap2\n      swap1\n      pop\n      jump\t// out\n        /* \"#utility.yul\":16805:16983   */\n    tag_201:\n        /* \"#utility.yul\":16945:16975   */\n      0x7472616e7366657220746f20746865207a65726f206164647265737300000000\n        /* \"#utility.yul\":16941:16942   */\n      0x00\n        /* \"#utility.yul\":16933:16939   */\n      dup3\n        /* \"#utility.yul\":16929:16943   */\n      add\n        /* \"#utility.yul\":16922:16976   */\n      mstore\n        /* \"#utility.yul\":16805:16983   */\n      pop\n      jump\t// out\n        /* \"#utility.yul\":16989:17355   */\n    tag_202:\n        /* \"#utility.yul\":17131:17134   */\n      0x00\n        /* \"#utility.yul\":17152:17219   */\n      tag_376\n        /* \"#utility.yul\":17216:17218   */\n      0x1c\n        /* \"#utility.yul\":17211:17214   */\n      dup4\n        /* \"#utility.yul\":17152:17219   */\n      tag_185\n      jump\t// in\n    tag_376:\n        /* \"#utility.yul\":17145:17219   */\n      swap2\n      pop\n        /* \"#utility.yul\":17228:17321   */\n      tag_377\n        /* \"#utility.yul\":17317:17320   */\n      dup3\n        /* \"#utility.yul\":17228:17321   */\n      tag_201\n      jump\t// in\n    tag_377:\n        /* \"#utility.yul\":17346:17348   */\n      0x20\n        /* \"#utility.yul\":17341:17344   */\n      dup3\n        /* \"#utility.yul\":17337:17349   */\n      add\n        /* \"#utility.yul\":17330:17349   */\n      swap1\n      pop\n        /* \"#utility.yul\":16989:17355   */\n      swap2\n      swap1\n      pop\n      jump\t// out\n        /* \"#utility.yul\":17361:17780   */\n    tag_133:\n        /* \"#utility.yul\":17527:17531   */\n      0x00\n        /* \"#utility.yul\":17565:17567   */\n      0x20\n        /* \"#utility.yul\":17554:17563   */\n      dup3\n        /* \"#utility.yul\":17550:17568   */\n      add\n        /* \"#utility.yul\":17542:17568   */\n      swap1\n      pop\n        /* \"#utility.yul\":17614:17623   */\n      dup2\n        /* \"#utility.yul\":17608:17612   */\n      dup2\n        /* \"#utility.yul\":17604:17624   */\n      sub\n        /* \"#utility.yul\":17600:17601   */\n      0x00\n        /* \"#utility.yul\":17589:17598   */\n      dup4\n        /* \"#utility.yul\":17585:17602   */\n      add\n        /* \"#utility.yul\":17578:17625   */\n      mstore\n        /* \"#utility.yul\":17642:17773   */\n      tag_379\n        /* \"#utility.yul\":17768:17772   */\n      dup2\n        /* \"#utility.yul\":17642:17773   */\n      tag_202\n      jump\t// in\n    tag_379:\n        /* \"#utility.yul\":17634:17773   */\n      swap1\n      pop\n        /* \"#utility.yul\":17361:17780   */\n      swap2\n      swap1\n      pop\n      jump\t// out\n        /* \"#utility.yul\":17786:17954   */\n    tag_203:\n        /* \"#utility.yul\":17926:17946   */\n      0x6e6f742045524337323152656365697665720000000000000000000000000000\n        /* \"#utility.yul\":17922:17923   */\n      0x00\n        /* \"#utility.yul\":17914:17920   */\n      dup3\n        /* \"#utility.yul\":17910:17924   */\n      add\n        /* \"#utility.yul\":17903:17947   */\n      mstore\n        /* \"#utility.yul\":17786:17954   */\n      pop\n      jump\t// out\n        /* \"#utility.yul\":17960:18326   */\n    tag_204:\n        /* \"#utility.yul\":18102:18105   */\n      0x00\n        /* \"#utility.yul\":18123:18190   */\n      tag_382\n        /* \"#utility.yul\":18187:18189   */\n      0x12\n        /* \"#utility.yul\":18182:18185   */\n      dup4\n        /* \"#utility.yul\":18123:18190   */\n      tag_185\n      jump\t// in\n    tag_382:\n        /* \"#utility.yul\":18116:18190   */\n      swap2\n      pop\n        /* \"#utility.yul\":18199:18292   */\n      tag_383\n        /* \"#utility.yul\":18288:18291   */\n      dup3\n        /* \"#utility.yul\":18199:18292   */\n      tag_203\n      jump\t// in\n    tag_383:\n        /* \"#utility.yul\":18317:18319   */\n      0x20\n        /* \"#utility.yul\":18312:18315   */\n      dup3\n        /* \"#utility.yul\":18308:18320   */\n      add\n        /* \"#utility.yul\":18301:18320   */\n      swap1\n      pop\n        /* \"#utility.yul\":17960:18326   */\n      swap2\n      swap1\n      pop\n      jump\t// out\n        /* \"#utility.yul\":18332:18751   */\n    tag_143:\n        /* \"#utility.yul\":18498:18502   */\n      0x00\n        /* \"#utility.yul\":18536:18538   */\n      0x20\n        /* \"#utility.yul\":18525:18534   */\n      dup3\n        /* \"#utility.yul\":18521:18539   */\n      add\n        /* \"#utility.yul\":18513:18539   */\n      swap1\n      pop\n        /* \"#utility.yul\":18585:18594   */\n      dup2\n        /* \"#utility.yul\":18579:18583   */\n      dup2\n        /* \"#utility.yul\":18575:18595   */\n      sub\n        /* \"#utility.yul\":18571:18572   */\n      0x00\n        /* \"#utility.yul\":18560:18569   */\n      dup4\n        /* \"#utility.yul\":18556:18573   */\n      add\n        /* \"#utility.yul\":18549:18596   */\n      mstore\n        /* \"#utility.yul\":18613:18744   */\n      tag_385\n        /* \"#utility.yul\":18739:18743   */\n      dup2\n        /* \"#utility.yul\":18613:18744   */\n      tag_204\n      jump\t// in\n    tag_385:\n        /* \"#utility.yul\":18605:18744   */\n      swap1\n      pop\n        /* \"#utility.yul\":18332:18751   */\n      swap2\n      swap1\n      pop\n      jump\t// out\n        /* \"#utility.yul\":18757:18855   */\n    tag_205:\n        /* \"#utility.yul\":18808:18814   */\n      0x00\n        /* \"#utility.yul\":18842:18847   */\n      dup2\n        /* \"#utility.yul\":18836:18848   */\n      mload\n        /* \"#utility.yul\":18826:18848   */\n      swap1\n      pop\n        /* \"#utility.yul\":18757:18855   */\n      swap2\n      swap1\n      pop\n      jump\t// out\n        /* \"#utility.yul\":18861:19029   */\n    tag_206:\n        /* \"#utility.yul\":18944:18955   */\n      0x00\n        /* \"#utility.yul\":18978:18984   */\n      dup3\n        /* \"#utility.yul\":18973:18976   */\n      dup3\n        /* \"#utility.yul\":18966:18985   */\n      mstore\n        /* \"#utility.yul\":19018:19022   */\n      0x20\n        /* \"#utility.yul\":19013:19016   */\n      dup3\n        /* \"#utility.yul\":19009:19023   */\n      add\n        /* \"#utility.yul\":18994:19023   */\n      swap1\n      pop\n        /* \"#utility.yul\":18861:19029   */\n      swap3\n      swap2\n      pop\n      pop\n      jump\t// out\n        /* \"#utility.yul\":19035:19281   */\n    tag_207:\n        /* \"#utility.yul\":19116:19117   */\n      0x00\n        /* \"#utility.yul\":19126:19239   */\n    tag_389:\n        /* \"#utility.yul\":19140:19146   */\n      dup4\n        /* \"#utility.yul\":19137:19138   */\n      dup2\n        /* \"#utility.yul\":19134:19147   */\n      lt\n        /* \"#utility.yul\":19126:19239   */\n      iszero\n      tag_391\n      jumpi\n        /* \"#utility.yul\":19225:19226   */\n      dup1\n        /* \"#utility.yul\":19220:19223   */\n      dup3\n        /* \"#utility.yul\":19216:19227   */\n      add\n        /* \"#utility.yul\":19210:19228   */\n      mload\n        /* \"#utility.yul\":19206:19207   */\n      dup2\n        /* \"#utility.yul\":19201:19204   */\n      dup5\n        /* \"#utility.yul\":19197:19208   */\n      add\n        /* \"#utility.yul\":19190:19229   */\n      mstore\n        /* \"#utility.yul\":19162:19164   */\n      0x20\n        /* \"#utility.yul\":19159:19160   */\n      dup2\n        /* \"#utility.yul\":19155:19165   */\n      add\n        /* \"#utility.yul\":19150:19165   */\n      swap1\n      pop\n        /* \"#utility.yul\":19126:19239   */\n      jump(tag_389)\n    tag_391:\n        /* \"#utility.yul\":19273:19274   */\n      0x00\n        /* \"#utility.yul\":19264:19270   */\n      dup5\n        /* \"#utility.yul\":19259:19262   */\n      dup5\n        /* \"#utility.yul\":19255:19271   */\n      add\n        /* \"#utility.yul\":19248:19275   */\n      mstore\n        /* \"#utility.yul\":19097:19281   */\n      pop\n        /* \"#utility.yul\":19035:19281   */\n      pop\n      pop\n      pop\n      jump\t// out\n        /* \"#utility.yul\":19287:19660   */\n    tag_208:\n        /* \"#utility.yul\":19373:19376   */\n      0x00\n        /* \"#utility.yul\":19401:19439   */\n      tag_393\n        /* \"#utility.yul\":19433:19438   */\n      dup3\n        /* \"#utility.yul\":19401:19439   */\n      tag_205\n      jump\t// in\n    tag_393:\n        /* \"#utility.yul\":19455:19525   */\n      tag_394\n        /* \"#utility.yul\":19518:19524   */\n      dup2\n        /* \"#utility.yul\":19513:19516   */\n      dup6\n        /* \"#utility.yul\":19455:19525   */\n      tag_206\n      jump\t// in\n    tag_394:\n        /* \"#utility.yul\":19448:19525   */\n      swap4\n      pop\n        /* \"#utility.yul\":19534:19599   */\n      tag_395\n        /* \"#utility.yul\":19592:19598   */\n      dup2\n        /* \"#utility.yul\":19587:19590   */\n      dup6\n        /* \"#utility.yul\":19580:19584   */\n      0x20\n        /* \"#utility.yul\":19573:19578   */\n      dup7\n        /* \"#utility.yul\":19569:19585   */\n      add\n        /* \"#utility.yul\":19534:19599   */\n      tag_207\n      jump\t// in\n    tag_395:\n        /* \"#utility.yul\":19624:19653   */\n      tag_396\n        /* \"#utility.yul\":19646:19652   */\n      dup2\n        /* \"#utility.yul\":19624:19653   */\n      tag_177\n      jump\t// in\n    tag_396:\n        /* \"#utility.yul\":19619:19622   */\n      dup5\n        /* \"#utility.yul\":19615:19654   */\n      add\n        /* \"#utility.yul\":19608:19654   */\n      swap2\n      pop\n        /* \"#utility.yul\":19377:19660   */\n      pop\n        /* \"#utility.yul\":19287:19660   */\n      swap3\n      swap2\n      pop\n      pop\n      jump\t// out\n        /* \"#utility.yul\":19666:20306   */\n    tag_149:\n        /* \"#utility.yul\":19861:19865   */\n      0x00\n        /* \"#utility.yul\":19899:19902   */\n      0x80\n        /* \"#utility.yul\":19888:19897   */\n      dup3\n        /* \"#utility.yul\":19884:19903   */\n      add\n        /* \"#utility.yul\":19876:19903   */\n      swap1\n      pop\n        /* \"#utility.yul\":19913:19984   */\n      tag_398\n        /* \"#utility.yul\":19981:19982   */\n      0x00\n        /* \"#utility.yul\":19970:19979   */\n      dup4\n        /* \"#utility.yul\":19966:19983   */\n      add\n        /* \"#utility.yul\":19957:19963   */\n      dup8\n        /* \"#utility.yul\":19913:19984   */\n      tag_169\n      jump\t// in\n    tag_398:\n        /* \"#utility.yul\":19994:20066   */\n      tag_399\n        /* \"#utility.yul\":20062:20064   */\n      0x20\n        /* \"#utility.yul\":20051:20060   */\n      dup4\n        /* \"#utility.yul\":20047:20065   */\n      add\n        /* \"#utility.yul\":20038:20044   */\n      dup7\n        /* \"#utility.yul\":19994:20066   */\n      tag_169\n      jump\t// in\n    tag_399:\n        /* \"#utility.yul\":20076:20148   */\n      tag_400\n        /* \"#utility.yul\":20144:20146   */\n      0x40\n        /* \"#utility.yul\":20133:20142   */\n      dup4\n        /* \"#utility.yul\":20129:20147   */\n      add\n        /* \"#utility.yul\":20120:20126   */\n      dup6\n        /* \"#utility.yul\":20076:20148   */\n      tag_172\n      jump\t// in\n    tag_400:\n        /* \"#utility.yul\":20195:20204   */\n      dup2\n        /* \"#utility.yul\":20189:20193   */\n      dup2\n        /* \"#utility.yul\":20185:20205   */\n      sub\n        /* \"#utility.yul\":20180:20182   */\n      0x60\n        /* \"#utility.yul\":20169:20178   */\n      dup4\n        /* \"#utility.yul\":20165:20183   */\n      add\n        /* \"#utility.yul\":20158:20206   */\n      mstore\n        /* \"#utility.yul\":20223:20299   */\n      tag_401\n        /* \"#utility.yul\":20294:20298   */\n      dup2\n        /* \"#utility.yul\":20285:20291   */\n      dup5\n        /* \"#utility.yul\":20223:20299   */\n      tag_208\n      jump\t// in\n    tag_401:\n        /* \"#utility.yul\":20215:20299   */\n      swap1\n      pop\n        /* \"#utility.yul\":19666:20306   */\n      swap6\n      swap5\n      pop\n      pop\n      pop\n      pop\n      pop\n      jump\t// out\n        /* \"#utility.yul\":20312:20453   */\n    tag_209:\n        /* \"#utility.yul\":20368:20373   */\n      0x00\n        /* \"#utility.yul\":20399:20405   */\n      dup2\n        /* \"#utility.yul\":20393:20406   */\n      mload\n        /* \"#utility.yul\":20384:20406   */\n      swap1\n      pop\n        /* \"#utility.yul\":20415:20447   */\n      tag_403\n        /* \"#utility.yul\":20441:20446   */\n      dup2\n        /* \"#utility.yul\":20415:20447   */\n      tag_160\n      jump\t// in\n    tag_403:\n        /* \"#utility.yul\":20312:20453   */\n      swap3\n      swap2\n      pop\n      pop\n      jump\t// out\n        /* \"#utility.yul\":20459:20808   */\n    tag_153:\n        /* \"#utility.yul\":20528:20534   */\n      0x00\n        /* \"#utility.yul\":20577:20579   */\n      0x20\n        /* \"#utility.yul\":20565:20574   */\n      dup3\n        /* \"#utility.yul\":20556:20563   */\n      dup5\n        /* \"#utility.yul\":20552:20575   */\n      sub\n        /* \"#utility.yul\":20548:20580   */\n      slt\n        /* \"#utility.yul\":20545:20664   */\n      iszero\n      tag_405\n      jumpi\n        /* \"#utility.yul\":20583:20662   */\n      tag_406\n      tag_157\n      jump\t// in\n    tag_406:\n        /* \"#utility.yul\":20545:20664   */\n    tag_405:\n        /* \"#utility.yul\":20703:20704   */\n      0x00\n        /* \"#utility.yul\":20728:20791   */\n      tag_407\n        /* \"#utility.yul\":20783:20790   */\n      dup5\n        /* \"#utility.yul\":20774:20780   */\n      dup3\n        /* \"#utility.yul\":20763:20772   */\n      dup6\n        /* \"#utility.yul\":20759:20781   */\n      add\n        /* \"#utility.yul\":20728:20791   */\n      tag_209\n      jump\t// in\n    tag_407:\n        /* \"#utility.yul\":20718:20791   */\n      swap2\n      pop\n        /* \"#utility.yul\":20674:20801   */\n      pop\n        /* \"#utility.yul\":20459:20808   */\n      swap3\n      swap2\n      pop\n      pop\n      jump\t// out\n\n    auxdata: 0xa26469706673582212204b98f08286089fde9451aadc9f9d1849ce551c8f051824a0ab2d56f7d045828164736f6c63430008120033\n}\n",
				"bytecode": {
					"linkReferences": {},
					"object": "608060405234801561001057600080fd5b50611cd5806100206000396000f3fe608060405234801561001057600080fd5b50600436106100b45760003560e01c806342966c681161007157806342966c68146101895780636352211e146101a557806370a08231146101d5578063a22cb46514610205578063b88d4fde14610221578063e985e9c51461023d576100b4565b806301ffc9a7146100b9578063081812fc146100e9578063095ea7b31461011957806323b872dd1461013557806340c10f191461015157806342842e0e1461016d575b600080fd5b6100d360048036038101906100ce9190611271565b61026d565b6040516100e091906112b9565b60405180910390f35b61010360048036038101906100fe919061130a565b61033f565b6040516101109190611378565b60405180910390f35b610133600480360381019061012e91906113bf565b61041c565b005b61014f600480360381019061014a91906113ff565b610562565b005b61016b600480360381019061016691906113bf565b6105cb565b005b610187600480360381019061018291906113ff565b6107e2565b005b6101a3600480360381019061019e919061130a565b610802565b005b6101bf60048036038101906101ba919061130a565b610906565b6040516101cc9190611378565b60405180910390f35b6101ef60048036038101906101ea9190611452565b6109b1565b6040516101fc919061148e565b60405180910390f35b61021f600480360381019061021a91906114d5565b610a68565b005b61023b6004803603810190610236919061165b565b610b65565b005b610257600480360381019061025291906116de565b610bd0565b60405161026491906112b9565b60405180910390f35b60007f80ac58cd000000000000000000000000000000000000000000000000000000007bffffffffffffffffffffffffffffffffffffffffffffffffffffffff1916827bffffffffffffffffffffffffffffffffffffffffffffffffffffffff1916148061033857507f01ffc9a7000000000000000000000000000000000000000000000000000000007bffffffffffffffffffffffffffffffffffffffffffffffffffffffff1916827bffffffffffffffffffffffffffffffffffffffffffffffffffffffff1916145b9050919050565b60008073ffffffffffffffffffffffffffffffffffffffff1660008084815260200190815260200160002060009054906101000a900473ffffffffffffffffffffffffffffffffffffffff1673ffffffffffffffffffffffffffffffffffffffff16036103e1576040517f08c379a00000000000000000000000000000000000000000000000000000000081526004016103d89061177b565b60405180910390fd5b6002600083815260200190815260200160002060009054906101000a900473ffffffffffffffffffffffffffffffffffffffff169050919050565b600080600083815260200190815260200160002060009054906101000a900473ffffffffffffffffffffffffffffffffffffffff1690508073ffffffffffffffffffffffffffffffffffffffff163373ffffffffffffffffffffffffffffffffffffffff1614806105135750600360008273ffffffffffffffffffffffffffffffffffffffff1673ffffffffffffffffffffffffffffffffffffffff16815260200190815260200160002060003373ffffffffffffffffffffffffffffffffffffffff1673ffffffffffffffffffffffffffffffffffffffff16815260200190815260200160002060009054906101000a900460ff165b610552576040517f08c379a0000000000000000000000000000000000000000000000000000000008152600401610549906117e7565b60405180910390fd5b61055d818484610c64565b505050565b600061056d82610906565b905061057a813384610d16565b6105b9576040517f08c379a00000000000000000000000000000000000000000000000000000000081526004016105b090611853565b60405180910390fd5b6105c581858585610e4a565b50505050565b600073ffffffffffffffffffffffffffffffffffffffff168273ffffffffffffffffffffffffffffffffffffffff160361063a576040517f08c379a0000000000000000000000000000000000000000000000000000000008152600401610631906118bf565b60405180910390fd5b600073ffffffffffffffffffffffffffffffffffffffff1660008083815260200190815260200160002060009054906101000a900473ffffffffffffffffffffffffffffffffffffffff1673ffffffffffffffffffffffffffffffffffffffff16146106db576040517f08c379a00000000000000000000000000000000000000000000000000000000081526004016106d29061192b565b60405180910390fd5b60018060008473ffffffffffffffffffffffffffffffffffffffff1673ffffffffffffffffffffffffffffffffffffffff168152602001908152602001600020600082825461072a919061197a565b925050819055508160008083815260200190815260200160002060006101000a81548173ffffffffffffffffffffffffffffffffffffffff021916908373ffffffffffffffffffffffffffffffffffffffff160217905550808273ffffffffffffffffffffffffffffffffffffffff16600073ffffffffffffffffffffffffffffffffffffffff167fddf252ad1be2c89b69c2b068fc378daa952ba7f163c4a11628f55a4df523b3ef60405160405180910390a45050565b6107fd83838360405180602001604052806000815250610b65565b505050565b600061080d82610906565b905061081b81600084610c64565b60018060008373ffffffffffffffffffffffffffffffffffffffff1673ffffffffffffffffffffffffffffffffffffffff168152602001908152602001600020600082825461086a91906119ae565b9250508190555060008083815260200190815260200160002060006101000a81549073ffffffffffffffffffffffffffffffffffffffff021916905581600073ffffffffffffffffffffffffffffffffffffffff168273ffffffffffffffffffffffffffffffffffffffff167fddf252ad1be2c89b69c2b068fc378daa952ba7f163c4a11628f55a4df523b3ef60405160405180910390a45050565b600080600083815260200190815260200160002060009054906101000a900473ffffffffffffffffffffffffffffffffffffffff169050600073ffffffffffffffffffffffffffffffffffffffff168173ffffffffffffffffffffffffffffffffffffffff16036109ac576040517f08c379a00000000000000000000000000000000000000000000000000000000081526004016109a39061177b565b60405180910390fd5b919050565b60008073ffffffffffffffffffffffffffffffffffffffff168273ffffffffffffffffffffffffffffffffffffffff1603610a21576040517f08c379a0000000000000000000000000000000000000000000000000000000008152600401610a1890611a2e565b60405180910390fd5b600160008373ffffffffffffffffffffffffffffffffffffffff1673ffffffffffffffffffffffffffffffffffffffff168152602001908152602001600020549050919050565b80600360003373ffffffffffffffffffffffffffffffffffffffff1673ffffffffffffffffffffffffffffffffffffffff16815260200190815260200160002060008473ffffffffffffffffffffffffffffffffffffffff1673ffffffffffffffffffffffffffffffffffffffff16815260200190815260200160002060006101000a81548160ff0219169083151502179055508173ffffffffffffffffffffffffffffffffffffffff163373ffffffffffffffffffffffffffffffffffffffff167f17307eab39ab6107e8899845ad3d59bd9653f200f220920489ca2b5937696c3183604051610b5991906112b9565b60405180910390a35050565b6000610b7083610906565b9050610b7d813385610d16565b610bbc576040517f08c379a0000000000000000000000000000000000000000000000000000000008152600401610bb390611853565b60405180910390fd5b610bc98186868686611091565b5050505050565b6000600360008473ffffffffffffffffffffffffffffffffffffffff1673ffffffffffffffffffffffffffffffffffffffff16815260200190815260200160002060008373ffffffffffffffffffffffffffffffffffffffff1673ffffffffffffffffffffffffffffffffffffffff16815260200190815260200160002060009054906101000a900460ff16905092915050565b816002600083815260200190815260200160002060006101000a81548173ffffffffffffffffffffffffffffffffffffffff021916908373ffffffffffffffffffffffffffffffffffffffff160217905550808273ffffffffffffffffffffffffffffffffffffffff168473ffffffffffffffffffffffffffffffffffffffff167f8c5be1e5ebec7d5bd14f71427d1e84f3dd0314c0f7b2291e5b200ac8c7c3b92560405160405180910390a4505050565b60008373ffffffffffffffffffffffffffffffffffffffff168373ffffffffffffffffffffffffffffffffffffffff161480610db057508273ffffffffffffffffffffffffffffffffffffffff166002600084815260200190815260200160002060009054906101000a900473ffffffffffffffffffffffffffffffffffffffff1673ffffffffffffffffffffffffffffffffffffffff16145b80610e415750600360008573ffffffffffffffffffffffffffffffffffffffff1673ffffffffffffffffffffffffffffffffffffffff16815260200190815260200160002060008473ffffffffffffffffffffffffffffffffffffffff1673ffffffffffffffffffffffffffffffffffffffff16815260200190815260200160002060009054906101000a900460ff165b90509392505050565b8373ffffffffffffffffffffffffffffffffffffffff168373ffffffffffffffffffffffffffffffffffffffff1614610eb8576040517f08c379a0000000000000000000000000000000000000000000000000000000008152600401610eaf90611a9a565b60405180910390fd5b600073ffffffffffffffffffffffffffffffffffffffff168273ffffffffffffffffffffffffffffffffffffffff1603610f27576040517f08c379a0000000000000000000000000000000000000000000000000000000008152600401610f1e90611b06565b60405180910390fd5b610f3384600083610c64565b60018060008573ffffffffffffffffffffffffffffffffffffffff1673ffffffffffffffffffffffffffffffffffffffff1681526020019081526020016000206000828254610f8291906119ae565b9250508190555060018060008473ffffffffffffffffffffffffffffffffffffffff1673ffffffffffffffffffffffffffffffffffffffff1681526020019081526020016000206000828254610fd8919061197a565b925050819055508160008083815260200190815260200160002060006101000a81548173ffffffffffffffffffffffffffffffffffffffff021916908373ffffffffffffffffffffffffffffffffffffffff160217905550808273ffffffffffffffffffffffffffffffffffffffff168473ffffffffffffffffffffffffffffffffffffffff167fddf252ad1be2c89b69c2b068fc378daa952ba7f163c4a11628f55a4df523b3ef60405160405180910390a450505050565b61109d85858585610e4a565b6110a9848484846110ef565b6110e8576040517f08c379a00000000000000000000000000000000000000000000000000000000081526004016110df90611b72565b60405180910390fd5b5050505050565b60006111108473ffffffffffffffffffffffffffffffffffffffff166111f2565b156111e55763150b7a0260e01b7bffffffffffffffffffffffffffffffffffffffffffffffffffffffff19168473ffffffffffffffffffffffffffffffffffffffff1663150b7a02338887876040518563ffffffff1660e01b815260040161117b9493929190611c11565b6020604051808303816000875af115801561119a573d6000803e3d6000fd5b505050506040513d601f19601f820116820180604052508101906111be9190611c72565b7bffffffffffffffffffffffffffffffffffffffffffffffffffffffff19161490506111ea565b600190505b949350505050565b600080823b905060008111915050919050565b6000604051905090565b600080fd5b600080fd5b60007fffffffff0000000000000000000000000000000000000000000000000000000082169050919050565b61124e81611219565b811461125957600080fd5b50565b60008135905061126b81611245565b92915050565b6000602082840312156112875761128661120f565b5b60006112958482850161125c565b91505092915050565b60008115159050919050565b6112b38161129e565b82525050565b60006020820190506112ce60008301846112aa565b92915050565b6000819050919050565b6112e7816112d4565b81146112f257600080fd5b50565b600081359050611304816112de565b92915050565b6000602082840312156113205761131f61120f565b5b600061132e848285016112f5565b91505092915050565b600073ffffffffffffffffffffffffffffffffffffffff82169050919050565b600061136282611337565b9050919050565b61137281611357565b82525050565b600060208201905061138d6000830184611369565b92915050565b61139c81611357565b81146113a757600080fd5b50565b6000813590506113b981611393565b92915050565b600080604083850312156113d6576113d561120f565b5b60006113e4858286016113aa565b92505060206113f5858286016112f5565b9150509250929050565b6000806000606084860312156114185761141761120f565b5b6000611426868287016113aa565b9350506020611437868287016113aa565b9250506040611448868287016112f5565b9150509250925092565b6000602082840312156114685761146761120f565b5b6000611476848285016113aa565b91505092915050565b611488816112d4565b82525050565b60006020820190506114a3600083018461147f565b92915050565b6114b28161129e565b81146114bd57600080fd5b50565b6000813590506114cf816114a9565b92915050565b600080604083850312156114ec576114eb61120f565b5b60006114fa858286016113aa565b925050602061150b858286016114c0565b9150509250929050565b600080fd5b600080fd5b6000601f19601f8301169050919050565b7f4e487b7100000000000000000000000000000000000000000000000000000000600052604160045260246000fd5b6115688261151f565b810181811067ffffffffffffffff8211171561158757611586611530565b5b80604052505050565b600061159a611205565b90506115a6828261155f565b919050565b600067ffffffffffffffff8211156115c6576115c5611530565b5b6115cf8261151f565b9050602081019050919050565b82818337600083830152505050565b60006115fe6115f9846115ab565b611590565b90508281526020810184848401111561161a5761161961151a565b5b6116258482856115dc565b509392505050565b600082601f83011261164257611641611515565b5b81356116528482602086016115eb565b91505092915050565b600080600080608085870312156116755761167461120f565b5b6000611683878288016113aa565b9450506020611694878288016113aa565b93505060406116a5878288016112f5565b925050606085013567ffffffffffffffff8111156116c6576116c5611214565b5b6116d28782880161162d565b91505092959194509250565b600080604083850312156116f5576116f461120f565b5b6000611703858286016113aa565b9250506020611714858286016113aa565b9150509250929050565b600082825260208201905092915050565b7f746f6b656e20646f65736e277420657869737400000000000000000000000000600082015250565b600061176560138361171e565b91506117708261172f565b602082019050919050565b6000602082019050818103600083015261179481611758565b9050919050565b7f6e6f74206f776e6572206e6f7220617070726f76656420666f7220616c6c0000600082015250565b60006117d1601e8361171e565b91506117dc8261179b565b602082019050919050565b60006020820190508181036000830152611800816117c4565b9050919050565b7f6e6f74206f776e6572206e6f7220617070726f76656400000000000000000000600082015250565b600061183d60168361171e565b915061184882611807565b602082019050919050565b6000602082019050818103600083015261186c81611830565b9050919050565b7f6d696e7420746f207a65726f2061646472657373000000000000000000000000600082015250565b60006118a960148361171e565b91506118b482611873565b602082019050919050565b600060208201905081810360008301526118d88161189c565b9050919050565b7f746f6b656e20616c7265616479206d696e746564000000000000000000000000600082015250565b600061191560148361171e565b9150611920826118df565b602082019050919050565b6000602082019050818103600083015261194481611908565b9050919050565b7f4e487b7100000000000000000000000000000000000000000000000000000000600052601160045260246000fd5b6000611985826112d4565b9150611990836112d4565b92508282019050808211156119a8576119a761194b565b5b92915050565b60006119b9826112d4565b91506119c4836112d4565b92508282039050818111156119dc576119db61194b565b5b92915050565b7f6f776e6572203d207a65726f2061646472657373000000000000000000000000600082015250565b6000611a1860148361171e565b9150611a23826119e2565b602082019050919050565b60006020820190508181036000830152611a4781611a0b565b9050919050565b7f6e6f74206f776e65720000000000000000000000000000000000000000000000600082015250565b6000611a8460098361171e565b9150611a8f82611a4e565b602082019050919050565b60006020820190508181036000830152611ab381611a77565b9050919050565b7f7472616e7366657220746f20746865207a65726f206164647265737300000000600082015250565b6000611af0601c8361171e565b9150611afb82611aba565b602082019050919050565b60006020820190508181036000830152611b1f81611ae3565b9050919050565b7f6e6f742045524337323152656365697665720000000000000000000000000000600082015250565b6000611b5c60128361171e565b9150611b6782611b26565b602082019050919050565b60006020820190508181036000830152611b8b81611b4f565b9050919050565b600081519050919050565b600082825260208201905092915050565b60005b83811015611bcc578082015181840152602081019050611bb1565b60008484015250505050565b6000611be382611b92565b611bed8185611b9d565b9350611bfd818560208601611bae565b611c068161151f565b840191505092915050565b6000608082019050611c266000830187611369565b611c336020830186611369565b611c40604083018561147f565b8181036060830152611c528184611bd8565b905095945050505050565b600081519050611c6c81611245565b92915050565b600060208284031215611c8857611c8761120f565b5b6000611c9684828501611c5d565b9150509291505056fea26469706673582212204b98f08286089fde9451aadc9f9d1849ce551c8f051824a0ab2d56f7d045828164736f6c63430008120033",
					"opcodes": "PUSH1 0x80 PUSH1 0x40 MSTORE CALLVALUE DUP1 ISZERO PUSH2 0x10 JUMPI PUSH1 0x0 DUP1 REVERT JUMPDEST POP PUSH2 0x1CD5 DUP1 PUSH2 0x20 PUSH1 0x0 CODECOPY PUSH1 0x0 RETURN INVALID PUSH1 0x80 PUSH1 0x40 MSTORE CALLVALUE DUP1 ISZERO PUSH2 0x10 JUMPI PUSH1 0x0 DUP1 REVERT JUMPDEST POP PUSH1 0x4 CALLDATASIZE LT PUSH2 0xB4 JUMPI PUSH1 0x0 CALLDATALOAD PUSH1 0xE0 SHR DUP1 PUSH4 0x42966C68 GT PUSH2 0x71 JUMPI DUP1 PUSH4 0x42966C68 EQ PUSH2 0x189 JUMPI DUP1 PUSH4 0x6352211E EQ PUSH2 0x1A5 JUMPI DUP1 PUSH4 0x70A08231 EQ PUSH2 0x1D5 JUMPI DUP1 PUSH4 0xA22CB465 EQ PUSH2 0x205 JUMPI DUP1 PUSH4 0xB88D4FDE EQ PUSH2 0x221 JUMPI DUP1 PUSH4 0xE985E9C5 EQ PUSH2 0x23D JUMPI PUSH2 0xB4 JUMP JUMPDEST DUP1 PUSH4 0x1FFC9A7 EQ PUSH2 0xB9 JUMPI DUP1 PUSH4 0x81812FC EQ PUSH2 0xE9 JUMPI DUP1 PUSH4 0x95EA7B3 EQ PUSH2 0x119 JUMPI DUP1 PUSH4 0x23B872DD EQ PUSH2 0x135 JUMPI DUP1 PUSH4 0x40C10F19 EQ PUSH2 0x151 JUMPI DUP1 PUSH4 0x42842E0E EQ PUSH2 0x16D JUMPI JUMPDEST PUSH1 0x0 DUP1 REVERT JUMPDEST PUSH2 0xD3 PUSH1 0x4 DUP1 CALLDATASIZE SUB DUP2 ADD SWAP1 PUSH2 0xCE SWAP2 SWAP1 PUSH2 0x1271 JUMP JUMPDEST PUSH2 0x26D JUMP JUMPDEST PUSH1 0x40 MLOAD PUSH2 0xE0 SWAP2 SWAP1 PUSH2 0x12B9 JUMP JUMPDEST PUSH1 0x40 MLOAD DUP1 SWAP2 SUB SWAP1 RETURN JUMPDEST PUSH2 0x103 PUSH1 0x4 DUP1 CALLDATASIZE SUB DUP2 ADD SWAP1 PUSH2 0xFE SWAP2 SWAP1 PUSH2 0x130A JUMP JUMPDEST PUSH2 0x33F JUMP JUMPDEST PUSH1 0x40 MLOAD PUSH2 0x110 SWAP2 SWAP1 PUSH2 0x1378 JUMP JUMPDEST PUSH1 0x40 MLOAD DUP1 SWAP2 SUB SWAP1 RETURN JUMPDEST PUSH2 0x133 PUSH1 0x4 DUP1 CALLDATASIZE SUB DUP2 ADD SWAP1 PUSH2 0x12E SWAP2 SWAP1 PUSH2 0x13BF JUMP JUMPDEST PUSH2 0x41C JUMP JUMPDEST STOP JUMPDEST PUSH2 0x14F PUSH1 0x4 DUP1 CALLDATASIZE SUB DUP2 ADD SWAP1 PUSH2 0x14A SWAP2 SWAP1 PUSH2 0x13FF JUMP JUMPDEST PUSH2 0x562 JUMP JUMPDEST STOP JUMPDEST PUSH2 0x16B PUSH1 0x4 DUP1 CALLDATASIZE SUB DUP2 ADD SWAP1 PUSH2 0x166 SWAP2 SWAP1 PUSH2 0x13BF JUMP JUMPDEST PUSH2 0x5CB JUMP JUMPDEST STOP JUMPDEST PUSH2 0x187 PUSH1 0x4 DUP1 CALLDATASIZE SUB DUP2 ADD SWAP1 PUSH2 0x182 SWAP2 SWAP1 PUSH2 0x13FF JUMP JUMPDEST PUSH2 0x7E2 JUMP JUMPDEST STOP JUMPDEST PUSH2 0x1A3 PUSH1 0x4 DUP1 CALLDATASIZE SUB DUP2 ADD SWAP1 PUSH2 0x19E SWAP2 SWAP1 PUSH2 0x130A JUMP JUMPDEST PUSH2 0x802 JUMP JUMPDEST STOP JUMPDEST PUSH2 0x1BF PUSH1 0x4 DUP1 CALLDATASIZE SUB DUP2 ADD SWAP1 PUSH2 0x1BA SWAP2 SWAP1 PUSH2 0x130A JUMP JUMPDEST PUSH2 0x906 JUMP JUMPDEST PUSH1 0x40 MLOAD PUSH2 0x1CC SWAP2 SWAP1 PUSH2 0x1378 JUMP JUMPDEST PUSH1 0x40 MLOAD DUP1 SWAP2 SUB SWAP1 RETURN JUMPDEST PUSH2 0x1EF PUSH1 0x4 DUP1 CALLDATASIZE SUB DUP2 ADD SWAP1 PUSH2 0x1EA SWAP2 SWAP1 PUSH2 0x1452 JUMP JUMPDEST PUSH2 0x9B1 JUMP JUMPDEST PUSH1 0x40 MLOAD PUSH2 0x1FC SWAP2 SWAP1 PUSH2 0x148E JUMP JUMPDEST PUSH1 0x40 MLOAD DUP1 SWAP2 SUB SWAP1 RETURN JUMPDEST PUSH2 0x21F PUSH1 0x4 DUP1 CALLDATASIZE SUB DUP2 ADD SWAP1 PUSH2 0x21A SWAP2 SWAP1 PUSH2 0x14D5 JUMP JUMPDEST PUSH2 0xA68 JUMP JUMPDEST STOP JUMPDEST PUSH2 0x23B PUSH1 0x4 DUP1 CALLDATASIZE SUB DUP2 ADD SWAP1 PUSH2 0x236 SWAP2 SWAP1 PUSH2 0x165B JUMP JUMPDEST PUSH2 0xB65 JUMP JUMPDEST STOP JUMPDEST PUSH2 0x257 PUSH1 0x4 DUP1 CALLDATASIZE SUB DUP2 ADD SWAP1 PUSH2 0x252 SWAP2 SWAP1 PUSH2 0x16DE JUMP JUMPDEST PUSH2 0xBD0 JUMP JUMPDEST PUSH1 0x40 MLOAD PUSH2 0x264 SWAP2 SWAP1 PUSH2 0x12B9 JUMP JUMPDEST PUSH1 0x40 MLOAD DUP1 SWAP2 SUB SWAP1 RETURN JUMPDEST PUSH1 0x0 PUSH32 0x80AC58CD00000000000000000000000000000000000000000000000000000000 PUSH28 0xFFFFFFFFFFFFFFFFFFFFFFFFFFFFFFFFFFFFFFFFFFFFFFFFFFFFFFFF NOT AND DUP3 PUSH28 0xFFFFFFFFFFFFFFFFFFFFFFFFFFFFFFFFFFFFFFFFFFFFFFFFFFFFFFFF NOT AND EQ DUP1 PUSH2 0x338 JUMPI POP PUSH32 0x1FFC9A700000000000000000000000000000000000000000000000000000000 PUSH28 0xFFFFFFFFFFFFFFFFFFFFFFFFFFFFFFFFFFFFFFFFFFFFFFFFFFFFFFFF NOT AND DUP3 PUSH28 0xFFFFFFFFFFFFFFFFFFFFFFFFFFFFFFFFFFFFFFFFFFFFFFFFFFFFFFFF NOT AND EQ JUMPDEST SWAP1 POP SWAP2 SWAP1 POP JUMP JUMPDEST PUSH1 0x0 DUP1 PUSH20 0xFFFFFFFFFFFFFFFFFFFFFFFFFFFFFFFFFFFFFFFF AND PUSH1 0x0 DUP1 DUP5 DUP2 MSTORE PUSH1 0x20 ADD SWAP1 DUP2 MSTORE PUSH1 0x20 ADD PUSH1 0x0 KECCAK256 PUSH1 0x0 SWAP1 SLOAD SWAP1 PUSH2 0x100 EXP SWAP1 DIV PUSH20 0xFFFFFFFFFFFFFFFFFFFFFFFFFFFFFFFFFFFFFFFF AND PUSH20 0xFFFFFFFFFFFFFFFFFFFFFFFFFFFFFFFFFFFFFFFF AND SUB PUSH2 0x3E1 JUMPI PUSH1 0x40 MLOAD PUSH32 0x8C379A000000000000000000000000000000000000000000000000000000000 DUP2 MSTORE PUSH1 0x4 ADD PUSH2 0x3D8 SWAP1 PUSH2 0x177B JUMP JUMPDEST PUSH1 0x40 MLOAD DUP1 SWAP2 SUB SWAP1 REVERT JUMPDEST PUSH1 0x2 PUSH1 0x0 DUP4 DUP2 MSTORE PUSH1 0x20 ADD SWAP1 DUP2 MSTORE PUSH1 0x20 ADD PUSH1 0x0 KECCAK256 PUSH1 0x0 SWAP1 SLOAD SWAP1 PUSH2 0x100 EXP SWAP1 DIV PUSH20 0xFFFFFFFFFFFFFFFFFFFFFFFFFFFFFFFFFFFFFFFF AND SWAP1 POP SWAP2 SWAP1 POP JUMP JUMPDEST PUSH1 0x0 DUP1 PUSH1 0x0 DUP4 DUP2 MSTORE PUSH1 0x20 ADD SWAP1 DUP2 MSTORE PUSH1 0x20 ADD PUSH1 0x0 KECCAK256 PUSH1 0x0 SWAP1 SLOAD SWAP1 PUSH2 0x100 EXP SWAP1 DIV PUSH20 0xFFFFFFFFFFFFFFFFFFFFFFFFFFFFFFFFFFFFFFFF AND SWAP1 POP DUP1 PUSH20 0xFFFFFFFFFFFFFFFFFFFFFFFFFFFFFFFFFFFFFFFF AND CALLER PUSH20 0xFFFFFFFFFFFFFFFFFFFFFFFFFFFFFFFFFFFFFFFF AND EQ DUP1 PUSH2 0x513 JUMPI POP PUSH1 0x3 PUSH1 0x0 DUP3 PUSH20 0xFFFFFFFFFFFFFFFFFFFFFFFFFFFFFFFFFFFFFFFF AND PUSH20 0xFFFFFFFFFFFFFFFFFFFFFFFFFFFFFFFFFFFFFFFF AND DUP2 MSTORE PUSH1 0x20 ADD SWAP1 DUP2 MSTORE PUSH1 0x20 ADD PUSH1 0x0 KECCAK256 PUSH1 0x0 CALLER PUSH20 0xFFFFFFFFFFFFFFFFFFFFFFFFFFFFFFFFFFFFFFFF AND PUSH20 0xFFFFFFFFFFFFFFFFFFFFFFFFFFFFFFFFFFFFFFFF AND DUP2 MSTORE PUSH1 0x20 ADD SWAP1 DUP2 MSTORE PUSH1 0x20 ADD PUSH1 0x0 KECCAK256 PUSH1 0x0 SWAP1 SLOAD SWAP1 PUSH2 0x100 EXP SWAP1 DIV PUSH1 0xFF AND JUMPDEST PUSH2 0x552 JUMPI PUSH1 0x40 MLOAD PUSH32 0x8C379A000000000000000000000000000000000000000000000000000000000 DUP2 MSTORE PUSH1 0x4 ADD PUSH2 0x549 SWAP1 PUSH2 0x17E7 JUMP JUMPDEST PUSH1 0x40 MLOAD DUP1 SWAP2 SUB SWAP1 REVERT JUMPDEST PUSH2 0x55D DUP2 DUP5 DUP5 PUSH2 0xC64 JUMP JUMPDEST POP POP POP JUMP JUMPDEST PUSH1 0x0 PUSH2 0x56D DUP3 PUSH2 0x906 JUMP JUMPDEST SWAP1 POP PUSH2 0x57A DUP2 CALLER DUP5 PUSH2 0xD16 JUMP JUMPDEST PUSH2 0x5B9 JUMPI PUSH1 0x40 MLOAD PUSH32 0x8C379A000000000000000000000000000000000000000000000000000000000 DUP2 MSTORE PUSH1 0x4 ADD PUSH2 0x5B0 SWAP1 PUSH2 0x1853 JUMP JUMPDEST PUSH1 0x40 MLOAD DUP1 SWAP2 SUB SWAP1 REVERT JUMPDEST PUSH2 0x5C5 DUP2 DUP6 DUP6 DUP6 PUSH2 0xE4A JUMP JUMPDEST POP POP POP POP JUMP JUMPDEST PUSH1 0x0 PUSH20 0xFFFFFFFFFFFFFFFFFFFFFFFFFFFFFFFFFFFFFFFF AND DUP3 PUSH20 0xFFFFFFFFFFFFFFFFFFFFFFFFFFFFFFFFFFFFFFFF AND SUB PUSH2 0x63A JUMPI PUSH1 0x40 MLOAD PUSH32 0x8C379A000000000000000000000000000000000000000000000000000000000 DUP2 MSTORE PUSH1 0x4 ADD PUSH2 0x631 SWAP1 PUSH2 0x18BF JUMP JUMPDEST PUSH1 0x40 MLOAD DUP1 SWAP2 SUB SWAP1 REVERT JUMPDEST PUSH1 0x0 PUSH20 0xFFFFFFFFFFFFFFFFFFFFFFFFFFFFFFFFFFFFFFFF AND PUSH1 0x0 DUP1 DUP4 DUP2 MSTORE PUSH1 0x20 ADD SWAP1 DUP2 MSTORE PUSH1 0x20 ADD PUSH1 0x0 KECCAK256 PUSH1 0x0 SWAP1 SLOAD SWAP1 PUSH2 0x100 EXP SWAP1 DIV PUSH20 0xFFFFFFFFFFFFFFFFFFFFFFFFFFFFFFFFFFFFFFFF AND PUSH20 0xFFFFFFFFFFFFFFFFFFFFFFFFFFFFFFFFFFFFFFFF AND EQ PUSH2 0x6DB JUMPI PUSH1 0x40 MLOAD PUSH32 0x8C379A000000000000000000000000000000000000000000000000000000000 DUP2 MSTORE PUSH1 0x4 ADD PUSH2 0x6D2 SWAP1 PUSH2 0x192B JUMP JUMPDEST PUSH1 0x40 MLOAD DUP1 SWAP2 SUB SWAP1 REVERT JUMPDEST PUSH1 0x1 DUP1 PUSH1 0x0 DUP5 PUSH20 0xFFFFFFFFFFFFFFFFFFFFFFFFFFFFFFFFFFFFFFFF AND PUSH20 0xFFFFFFFFFFFFFFFFFFFFFFFFFFFFFFFFFFFFFFFF AND DUP2 MSTORE PUSH1 0x20 ADD SWAP1 DUP2 MSTORE PUSH1 0x20 ADD PUSH1 0x0 KECCAK256 PUSH1 0x0 DUP3 DUP3 SLOAD PUSH2 0x72A SWAP2 SWAP1 PUSH2 0x197A JUMP JUMPDEST SWAP3 POP POP DUP2 SWAP1 SSTORE POP DUP2 PUSH1 0x0 DUP1 DUP4 DUP2 MSTORE PUSH1 0x20 ADD SWAP1 DUP2 MSTORE PUSH1 0x20 ADD PUSH1 0x0 KECCAK256 PUSH1 0x0 PUSH2 0x100 EXP DUP2 SLOAD DUP2 PUSH20 0xFFFFFFFFFFFFFFFFFFFFFFFFFFFFFFFFFFFFFFFF MUL NOT AND SWAP1 DUP4 PUSH20 0xFFFFFFFFFFFFFFFFFFFFFFFFFFFFFFFFFFFFFFFF AND MUL OR SWAP1 SSTORE POP DUP1 DUP3 PUSH20 0xFFFFFFFFFFFFFFFFFFFFFFFFFFFFFFFFFFFFFFFF AND PUSH1 0x0 PUSH20 0xFFFFFFFFFFFFFFFFFFFFFFFFFFFFFFFFFFFFFFFF AND PUSH32 0xDDF252AD1BE2C89B69C2B068FC378DAA952BA7F163C4A11628F55A4DF523B3EF PUSH1 0x40 MLOAD PUSH1 0x40 MLOAD DUP1 SWAP2 SUB SWAP1 LOG4 POP POP JUMP JUMPDEST PUSH2 0x7FD DUP4 DUP4 DUP4 PUSH1 0x40 MLOAD DUP1 PUSH1 0x20 ADD PUSH1 0x40 MSTORE DUP1 PUSH1 0x0 DUP2 MSTORE POP PUSH2 0xB65 JUMP JUMPDEST POP POP POP JUMP JUMPDEST PUSH1 0x0 PUSH2 0x80D DUP3 PUSH2 0x906 JUMP JUMPDEST SWAP1 POP PUSH2 0x81B DUP2 PUSH1 0x0 DUP5 PUSH2 0xC64 JUMP JUMPDEST PUSH1 0x1 DUP1 PUSH1 0x0 DUP4 PUSH20 0xFFFFFFFFFFFFFFFFFFFFFFFFFFFFFFFFFFFFFFFF AND PUSH20 0xFFFFFFFFFFFFFFFFFFFFFFFFFFFFFFFFFFFFFFFF AND DUP2 MSTORE PUSH1 0x20 ADD SWAP1 DUP2 MSTORE PUSH1 0x20 ADD PUSH1 0x0 KECCAK256 PUSH1 0x0 DUP3 DUP3 SLOAD PUSH2 0x86A SWAP2 SWAP1 PUSH2 0x19AE JUMP JUMPDEST SWAP3 POP POP DUP2 SWAP1 SSTORE POP PUSH1 0x0 DUP1 DUP4 DUP2 MSTORE PUSH1 0x20 ADD SWAP1 DUP2 MSTORE PUSH1 0x20 ADD PUSH1 0x0 KECCAK256 PUSH1 0x0 PUSH2 0x100 EXP DUP2 SLOAD SWAP1 PUSH20 0xFFFFFFFFFFFFFFFFFFFFFFFFFFFFFFFFFFFFFFFF MUL NOT AND SWAP1 SSTORE DUP2 PUSH1 0x0 PUSH20 0xFFFFFFFFFFFFFFFFFFFFFFFFFFFFFFFFFFFFFFFF AND DUP3 PUSH20 0xFFFFFFFFFFFFFFFFFFFFFFFFFFFFFFFFFFFFFFFF AND PUSH32 0xDDF252AD1BE2C89B69C2B068FC378DAA952BA7F163C4A11628F55A4DF523B3EF PUSH1 0x40 MLOAD PUSH1 0x40 MLOAD DUP1 SWAP2 SUB SWAP1 LOG4 POP POP JUMP JUMPDEST PUSH1 0x0 DUP1 PUSH1 0x0 DUP4 DUP2 MSTORE PUSH1 0x20 ADD SWAP1 DUP2 MSTORE PUSH1 0x20 ADD PUSH1 0x0 KECCAK256 PUSH1 0x0 SWAP1 SLOAD SWAP1 PUSH2 0x100 EXP SWAP1 DIV PUSH20 0xFFFFFFFFFFFFFFFFFFFFFFFFFFFFFFFFFFFFFFFF AND SWAP1 POP PUSH1 0x0 PUSH20 0xFFFFFFFFFFFFFFFFFFFFFFFFFFFFFFFFFFFFFFFF AND DUP2 PUSH20 0xFFFFFFFFFFFFFFFFFFFFFFFFFFFFFFFFFFFFFFFF AND SUB PUSH2 0x9AC JUMPI PUSH1 0x40 MLOAD PUSH32 0x8C379A000000000000000000000000000000000000000000000000000000000 DUP2 MSTORE PUSH1 0x4 ADD PUSH2 0x9A3 SWAP1 PUSH2 0x177B JUMP JUMPDEST PUSH1 0x40 MLOAD DUP1 SWAP2 SUB SWAP1 REVERT JUMPDEST SWAP2 SWAP1 POP JUMP JUMPDEST PUSH1 0x0 DUP1 PUSH20 0xFFFFFFFFFFFFFFFFFFFFFFFFFFFFFFFFFFFFFFFF AND DUP3 PUSH20 0xFFFFFFFFFFFFFFFFFFFFFFFFFFFFFFFFFFFFFFFF AND SUB PUSH2 0xA21 JUMPI PUSH1 0x40 MLOAD PUSH32 0x8C379A000000000000000000000000000000000000000000000000000000000 DUP2 MSTORE PUSH1 0x4 ADD PUSH2 0xA18 SWAP1 PUSH2 0x1A2E JUMP JUMPDEST PUSH1 0x40 MLOAD DUP1 SWAP2 SUB SWAP1 REVERT JUMPDEST PUSH1 0x1 PUSH1 0x0 DUP4 PUSH20 0xFFFFFFFFFFFFFFFFFFFFFFFFFFFFFFFFFFFFFFFF AND PUSH20 0xFFFFFFFFFFFFFFFFFFFFFFFFFFFFFFFFFFFFFFFF AND DUP2 MSTORE PUSH1 0x20 ADD SWAP1 DUP2 MSTORE PUSH1 0x20 ADD PUSH1 0x0 KECCAK256 SLOAD SWAP1 POP SWAP2 SWAP1 POP JUMP JUMPDEST DUP1 PUSH1 0x3 PUSH1 0x0 CALLER PUSH20 0xFFFFFFFFFFFFFFFFFFFFFFFFFFFFFFFFFFFFFFFF AND PUSH20 0xFFFFFFFFFFFFFFFFFFFFFFFFFFFFFFFFFFFFFFFF AND DUP2 MSTORE PUSH1 0x20 ADD SWAP1 DUP2 MSTORE PUSH1 0x20 ADD PUSH1 0x0 KECCAK256 PUSH1 0x0 DUP5 PUSH20 0xFFFFFFFFFFFFFFFFFFFFFFFFFFFFFFFFFFFFFFFF AND PUSH20 0xFFFFFFFFFFFFFFFFFFFFFFFFFFFFFFFFFFFFFFFF AND DUP2 MSTORE PUSH1 0x20 ADD SWAP1 DUP2 MSTORE PUSH1 0x20 ADD PUSH1 0x0 KECCAK256 PUSH1 0x0 PUSH2 0x100 EXP DUP2 SLOAD DUP2 PUSH1 0xFF MUL NOT AND SWAP1 DUP4 ISZERO ISZERO MUL OR SWAP1 SSTORE POP DUP2 PUSH20 0xFFFFFFFFFFFFFFFFFFFFFFFFFFFFFFFFFFFFFFFF AND CALLER PUSH20 0xFFFFFFFFFFFFFFFFFFFFFFFFFFFFFFFFFFFFFFFF AND PUSH32 0x17307EAB39AB6107E8899845AD3D59BD9653F200F220920489CA2B5937696C31 DUP4 PUSH1 0x40 MLOAD PUSH2 0xB59 SWAP2 SWAP1 PUSH2 0x12B9 JUMP JUMPDEST PUSH1 0x40 MLOAD DUP1 SWAP2 SUB SWAP1 LOG3 POP POP JUMP JUMPDEST PUSH1 0x0 PUSH2 0xB70 DUP4 PUSH2 0x906 JUMP JUMPDEST SWAP1 POP PUSH2 0xB7D DUP2 CALLER DUP6 PUSH2 0xD16 JUMP JUMPDEST PUSH2 0xBBC JUMPI PUSH1 0x40 MLOAD PUSH32 0x8C379A000000000000000000000000000000000000000000000000000000000 DUP2 MSTORE PUSH1 0x4 ADD PUSH2 0xBB3 SWAP1 PUSH2 0x1853 JUMP JUMPDEST PUSH1 0x40 MLOAD DUP1 SWAP2 SUB SWAP1 REVERT JUMPDEST PUSH2 0xBC9 DUP2 DUP7 DUP7 DUP7 DUP7 PUSH2 0x1091 JUMP JUMPDEST POP POP POP POP POP JUMP JUMPDEST PUSH1 0x0 PUSH1 0x3 PUSH1 0x0 DUP5 PUSH20 0xFFFFFFFFFFFFFFFFFFFFFFFFFFFFFFFFFFFFFFFF AND PUSH20 0xFFFFFFFFFFFFFFFFFFFFFFFFFFFFFFFFFFFFFFFF AND DUP2 MSTORE PUSH1 0x20 ADD SWAP1 DUP2 MSTORE PUSH1 0x20 ADD PUSH1 0x0 KECCAK256 PUSH1 0x0 DUP4 PUSH20 0xFFFFFFFFFFFFFFFFFFFFFFFFFFFFFFFFFFFFFFFF AND PUSH20 0xFFFFFFFFFFFFFFFFFFFFFFFFFFFFFFFFFFFFFFFF AND DUP2 MSTORE PUSH1 0x20 ADD SWAP1 DUP2 MSTORE PUSH1 0x20 ADD PUSH1 0x0 KECCAK256 PUSH1 0x0 SWAP1 SLOAD SWAP1 PUSH2 0x100 EXP SWAP1 DIV PUSH1 0xFF AND SWAP1 POP SWAP3 SWAP2 POP POP JUMP JUMPDEST DUP2 PUSH1 0x2 PUSH1 0x0 DUP4 DUP2 MSTORE PUSH1 0x20 ADD SWAP1 DUP2 MSTORE PUSH1 0x20 ADD PUSH1 0x0 KECCAK256 PUSH1 0x0 PUSH2 0x100 EXP DUP2 SLOAD DUP2 PUSH20 0xFFFFFFFFFFFFFFFFFFFFFFFFFFFFFFFFFFFFFFFF MUL NOT AND SWAP1 DUP4 PUSH20 0xFFFFFFFFFFFFFFFFFFFFFFFFFFFFFFFFFFFFFFFF AND MUL OR SWAP1 SSTORE POP DUP1 DUP3 PUSH20 0xFFFFFFFFFFFFFFFFFFFFFFFFFFFFFFFFFFFFFFFF AND DUP5 PUSH20 0xFFFFFFFFFFFFFFFFFFFFFFFFFFFFFFFFFFFFFFFF AND PUSH32 0x8C5BE1E5EBEC7D5BD14F71427D1E84F3DD0314C0F7B2291E5B200AC8C7C3B925 PUSH1 0x40 MLOAD PUSH1 0x40 MLOAD DUP1 SWAP2 SUB SWAP1 LOG4 POP POP POP JUMP JUMPDEST PUSH1 0x0 DUP4 PUSH20 0xFFFFFFFFFFFFFFFFFFFFFFFFFFFFFFFFFFFFFFFF AND DUP4 PUSH20 0xFFFFFFFFFFFFFFFFFFFFFFFFFFFFFFFFFFFFFFFF AND EQ DUP1 PUSH2 0xDB0 JUMPI POP DUP3 PUSH20 0xFFFFFFFFFFFFFFFFFFFFFFFFFFFFFFFFFFFFFFFF AND PUSH1 0x2 PUSH1 0x0 DUP5 DUP2 MSTORE PUSH1 0x20 ADD SWAP1 DUP2 MSTORE PUSH1 0x20 ADD PUSH1 0x0 KECCAK256 PUSH1 0x0 SWAP1 SLOAD SWAP1 PUSH2 0x100 EXP SWAP1 DIV PUSH20 0xFFFFFFFFFFFFFFFFFFFFFFFFFFFFFFFFFFFFFFFF AND PUSH20 0xFFFFFFFFFFFFFFFFFFFFFFFFFFFFFFFFFFFFFFFF AND EQ JUMPDEST DUP1 PUSH2 0xE41 JUMPI POP PUSH1 0x3 PUSH1 0x0 DUP6 PUSH20 0xFFFFFFFFFFFFFFFFFFFFFFFFFFFFFFFFFFFFFFFF AND PUSH20 0xFFFFFFFFFFFFFFFFFFFFFFFFFFFFFFFFFFFFFFFF AND DUP2 MSTORE PUSH1 0x20 ADD SWAP1 DUP2 MSTORE PUSH1 0x20 ADD PUSH1 0x0 KECCAK256 PUSH1 0x0 DUP5 PUSH20 0xFFFFFFFFFFFFFFFFFFFFFFFFFFFFFFFFFFFFFFFF AND PUSH20 0xFFFFFFFFFFFFFFFFFFFFFFFFFFFFFFFFFFFFFFFF AND DUP2 MSTORE PUSH1 0x20 ADD SWAP1 DUP2 MSTORE PUSH1 0x20 ADD PUSH1 0x0 KECCAK256 PUSH1 0x0 SWAP1 SLOAD SWAP1 PUSH2 0x100 EXP SWAP1 DIV PUSH1 0xFF AND JUMPDEST SWAP1 POP SWAP4 SWAP3 POP POP POP JUMP JUMPDEST DUP4 PUSH20 0xFFFFFFFFFFFFFFFFFFFFFFFFFFFFFFFFFFFFFFFF AND DUP4 PUSH20 0xFFFFFFFFFFFFFFFFFFFFFFFFFFFFFFFFFFFFFFFF AND EQ PUSH2 0xEB8 JUMPI PUSH1 0x40 MLOAD PUSH32 0x8C379A000000000000000000000000000000000000000000000000000000000 DUP2 MSTORE PUSH1 0x4 ADD PUSH2 0xEAF SWAP1 PUSH2 0x1A9A JUMP JUMPDEST PUSH1 0x40 MLOAD DUP1 SWAP2 SUB SWAP1 REVERT JUMPDEST PUSH1 0x0 PUSH20 0xFFFFFFFFFFFFFFFFFFFFFFFFFFFFFFFFFFFFFFFF AND DUP3 PUSH20 0xFFFFFFFFFFFFFFFFFFFFFFFFFFFFFFFFFFFFFFFF AND SUB PUSH2 0xF27 JUMPI PUSH1 0x40 MLOAD PUSH32 0x8C379A000000000000000000000000000000000000000000000000000000000 DUP2 MSTORE PUSH1 0x4 ADD PUSH2 0xF1E SWAP1 PUSH2 0x1B06 JUMP JUMPDEST PUSH1 0x40 MLOAD DUP1 SWAP2 SUB SWAP1 REVERT JUMPDEST PUSH2 0xF33 DUP5 PUSH1 0x0 DUP4 PUSH2 0xC64 JUMP JUMPDEST PUSH1 0x1 DUP1 PUSH1 0x0 DUP6 PUSH20 0xFFFFFFFFFFFFFFFFFFFFFFFFFFFFFFFFFFFFFFFF AND PUSH20 0xFFFFFFFFFFFFFFFFFFFFFFFFFFFFFFFFFFFFFFFF AND DUP2 MSTORE PUSH1 0x20 ADD SWAP1 DUP2 MSTORE PUSH1 0x20 ADD PUSH1 0x0 KECCAK256 PUSH1 0x0 DUP3 DUP3 SLOAD PUSH2 0xF82 SWAP2 SWAP1 PUSH2 0x19AE JUMP JUMPDEST SWAP3 POP POP DUP2 SWAP1 SSTORE POP PUSH1 0x1 DUP1 PUSH1 0x0 DUP5 PUSH20 0xFFFFFFFFFFFFFFFFFFFFFFFFFFFFFFFFFFFFFFFF AND PUSH20 0xFFFFFFFFFFFFFFFFFFFFFFFFFFFFFFFFFFFFFFFF AND DUP2 MSTORE PUSH1 0x20 ADD SWAP1 DUP2 MSTORE PUSH1 0x20 ADD PUSH1 0x0 KECCAK256 PUSH1 0x0 DUP3 DUP3 SLOAD PUSH2 0xFD8 SWAP2 SWAP1 PUSH2 0x197A JUMP JUMPDEST SWAP3 POP POP DUP2 SWAP1 SSTORE POP DUP2 PUSH1 0x0 DUP1 DUP4 DUP2 MSTORE PUSH1 0x20 ADD SWAP1 DUP2 MSTORE PUSH1 0x20 ADD PUSH1 0x0 KECCAK256 PUSH1 0x0 PUSH2 0x100 EXP DUP2 SLOAD DUP2 PUSH20 0xFFFFFFFFFFFFFFFFFFFFFFFFFFFFFFFFFFFFFFFF MUL NOT AND SWAP1 DUP4 PUSH20 0xFFFFFFFFFFFFFFFFFFFFFFFFFFFFFFFFFFFFFFFF AND MUL OR SWAP1 SSTORE POP DUP1 DUP3 PUSH20 0xFFFFFFFFFFFFFFFFFFFFFFFFFFFFFFFFFFFFFFFF AND DUP5 PUSH20 0xFFFFFFFFFFFFFFFFFFFFFFFFFFFFFFFFFFFFFFFF AND PUSH32 0xDDF252AD1BE2C89B69C2B068FC378DAA952BA7F163C4A11628F55A4DF523B3EF PUSH1 0x40 MLOAD PUSH1 0x40 MLOAD DUP1 SWAP2 SUB SWAP1 LOG4 POP POP POP POP JUMP JUMPDEST PUSH2 0x109D DUP6 DUP6 DUP6 DUP6 PUSH2 0xE4A JUMP JUMPDEST PUSH2 0x10A9 DUP5 DUP5 DUP5 DUP5 PUSH2 0x10EF JUMP JUMPDEST PUSH2 0x10E8 JUMPI PUSH1 0x40 MLOAD PUSH32 0x8C379A000000000000000000000000000000000000000000000000000000000 DUP2 MSTORE PUSH1 0x4 ADD PUSH2 0x10DF SWAP1 PUSH2 0x1B72 JUMP JUMPDEST PUSH1 0x40 MLOAD DUP1 SWAP2 SUB SWAP1 REVERT JUMPDEST POP POP POP POP POP JUMP JUMPDEST PUSH1 0x0 PUSH2 0x1110 DUP5 PUSH20 0xFFFFFFFFFFFFFFFFFFFFFFFFFFFFFFFFFFFFFFFF AND PUSH2 0x11F2 JUMP JUMPDEST ISZERO PUSH2 0x11E5 JUMPI PUSH4 0x150B7A02 PUSH1 0xE0 SHL PUSH28 0xFFFFFFFFFFFFFFFFFFFFFFFFFFFFFFFFFFFFFFFFFFFFFFFFFFFFFFFF NOT AND DUP5 PUSH20 0xFFFFFFFFFFFFFFFFFFFFFFFFFFFFFFFFFFFFFFFF AND PUSH4 0x150B7A02 CALLER DUP9 DUP8 DUP8 PUSH1 0x40 MLOAD DUP6 PUSH4 0xFFFFFFFF AND PUSH1 0xE0 SHL DUP2 MSTORE PUSH1 0x4 ADD PUSH2 0x117B SWAP5 SWAP4 SWAP3 SWAP2 SWAP1 PUSH2 0x1C11 JUMP JUMPDEST PUSH1 0x20 PUSH1 0x40 MLOAD DUP1 DUP4 SUB DUP2 PUSH1 0x0 DUP8 GAS CALL ISZERO DUP1 ISZERO PUSH2 0x119A JUMPI RETURNDATASIZE PUSH1 0x0 DUP1 RETURNDATACOPY RETURNDATASIZE PUSH1 0x0 REVERT JUMPDEST POP POP POP POP PUSH1 0x40 MLOAD RETURNDATASIZE PUSH1 0x1F NOT PUSH1 0x1F DUP3 ADD AND DUP3 ADD DUP1 PUSH1 0x40 MSTORE POP DUP2 ADD SWAP1 PUSH2 0x11BE SWAP2 SWAP1 PUSH2 0x1C72 JUMP JUMPDEST PUSH28 0xFFFFFFFFFFFFFFFFFFFFFFFFFFFFFFFFFFFFFFFFFFFFFFFFFFFFFFFF NOT AND EQ SWAP1 POP PUSH2 0x11EA JUMP JUMPDEST PUSH1 0x1 SWAP1 POP JUMPDEST SWAP5 SWAP4 POP POP POP POP JUMP JUMPDEST PUSH1 0x0 DUP1 DUP3 EXTCODESIZE SWAP1 POP PUSH1 0x0 DUP2 GT SWAP2 POP POP SWAP2 SWAP1 POP JUMP JUMPDEST PUSH1 0x0 PUSH1 0x40 MLOAD SWAP1 POP SWAP1 JUMP JUMPDEST PUSH1 0x0 DUP1 REVERT JUMPDEST PUSH1 0x0 DUP1 REVERT JUMPDEST PUSH1 0x0 PUSH32 0xFFFFFFFF00000000000000000000000000000000000000000000000000000000 DUP3 AND SWAP1 POP SWAP2 SWAP1 POP JUMP JUMPDEST PUSH2 0x124E DUP2 PUSH2 0x1219 JUMP JUMPDEST DUP2 EQ PUSH2 0x1259 JUMPI PUSH1 0x0 DUP1 REVERT JUMPDEST POP JUMP JUMPDEST PUSH1 0x0 DUP2 CALLDATALOAD SWAP1 POP PUSH2 0x126B DUP2 PUSH2 0x1245 JUMP JUMPDEST SWAP3 SWAP2 POP POP JUMP JUMPDEST PUSH1 0x0 PUSH1 0x20 DUP3 DUP5 SUB SLT ISZERO PUSH2 0x1287 JUMPI PUSH2 0x1286 PUSH2 0x120F JUMP JUMPDEST JUMPDEST PUSH1 0x0 PUSH2 0x1295 DUP5 DUP3 DUP6 ADD PUSH2 0x125C JUMP JUMPDEST SWAP2 POP POP SWAP3 SWAP2 POP POP JUMP JUMPDEST PUSH1 0x0 DUP2 ISZERO ISZERO SWAP1 POP SWAP2 SWAP1 POP JUMP JUMPDEST PUSH2 0x12B3 DUP2 PUSH2 0x129E JUMP JUMPDEST DUP3 MSTORE POP POP JUMP JUMPDEST PUSH1 0x0 PUSH1 0x20 DUP3 ADD SWAP1 POP PUSH2 0x12CE PUSH1 0x0 DUP4 ADD DUP5 PUSH2 0x12AA JUMP JUMPDEST SWAP3 SWAP2 POP POP JUMP JUMPDEST PUSH1 0x0 DUP2 SWAP1 POP SWAP2 SWAP1 POP JUMP JUMPDEST PUSH2 0x12E7 DUP2 PUSH2 0x12D4 JUMP JUMPDEST DUP2 EQ PUSH2 0x12F2 JUMPI PUSH1 0x0 DUP1 REVERT JUMPDEST POP JUMP JUMPDEST PUSH1 0x0 DUP2 CALLDATALOAD SWAP1 POP PUSH2 0x1304 DUP2 PUSH2 0x12DE JUMP JUMPDEST SWAP3 SWAP2 POP POP JUMP JUMPDEST PUSH1 0x0 PUSH1 0x20 DUP3 DUP5 SUB SLT ISZERO PUSH2 0x1320 JUMPI PUSH2 0x131F PUSH2 0x120F JUMP JUMPDEST JUMPDEST PUSH1 0x0 PUSH2 0x132E DUP5 DUP3 DUP6 ADD PUSH2 0x12F5 JUMP JUMPDEST SWAP2 POP POP SWAP3 SWAP2 POP POP JUMP JUMPDEST PUSH1 0x0 PUSH20 0xFFFFFFFFFFFFFFFFFFFFFFFFFFFFFFFFFFFFFFFF DUP3 AND SWAP1 POP SWAP2 SWAP1 POP JUMP JUMPDEST PUSH1 0x0 PUSH2 0x1362 DUP3 PUSH2 0x1337 JUMP JUMPDEST SWAP1 POP SWAP2 SWAP1 POP JUMP JUMPDEST PUSH2 0x1372 DUP2 PUSH2 0x1357 JUMP JUMPDEST DUP3 MSTORE POP POP JUMP JUMPDEST PUSH1 0x0 PUSH1 0x20 DUP3 ADD SWAP1 POP PUSH2 0x138D PUSH1 0x0 DUP4 ADD DUP5 PUSH2 0x1369 JUMP JUMPDEST SWAP3 SWAP2 POP POP JUMP JUMPDEST PUSH2 0x139C DUP2 PUSH2 0x1357 JUMP JUMPDEST DUP2 EQ PUSH2 0x13A7 JUMPI PUSH1 0x0 DUP1 REVERT JUMPDEST POP JUMP JUMPDEST PUSH1 0x0 DUP2 CALLDATALOAD SWAP1 POP PUSH2 0x13B9 DUP2 PUSH2 0x1393 JUMP JUMPDEST SWAP3 SWAP2 POP POP JUMP JUMPDEST PUSH1 0x0 DUP1 PUSH1 0x40 DUP4 DUP6 SUB SLT ISZERO PUSH2 0x13D6 JUMPI PUSH2 0x13D5 PUSH2 0x120F JUMP JUMPDEST JUMPDEST PUSH1 0x0 PUSH2 0x13E4 DUP6 DUP3 DUP7 ADD PUSH2 0x13AA JUMP JUMPDEST SWAP3 POP POP PUSH1 0x20 PUSH2 0x13F5 DUP6 DUP3 DUP7 ADD PUSH2 0x12F5 JUMP JUMPDEST SWAP2 POP POP SWAP3 POP SWAP3 SWAP1 POP JUMP JUMPDEST PUSH1 0x0 DUP1 PUSH1 0x0 PUSH1 0x60 DUP5 DUP7 SUB SLT ISZERO PUSH2 0x1418 JUMPI PUSH2 0x1417 PUSH2 0x120F JUMP JUMPDEST JUMPDEST PUSH1 0x0 PUSH2 0x1426 DUP7 DUP3 DUP8 ADD PUSH2 0x13AA JUMP JUMPDEST SWAP4 POP POP PUSH1 0x20 PUSH2 0x1437 DUP7 DUP3 DUP8 ADD PUSH2 0x13AA JUMP JUMPDEST SWAP3 POP POP PUSH1 0x40 PUSH2 0x1448 DUP7 DUP3 DUP8 ADD PUSH2 0x12F5 JUMP JUMPDEST SWAP2 POP POP SWAP3 POP SWAP3 POP SWAP3 JUMP JUMPDEST PUSH1 0x0 PUSH1 0x20 DUP3 DUP5 SUB SLT ISZERO PUSH2 0x1468 JUMPI PUSH2 0x1467 PUSH2 0x120F JUMP JUMPDEST JUMPDEST PUSH1 0x0 PUSH2 0x1476 DUP5 DUP3 DUP6 ADD PUSH2 0x13AA JUMP JUMPDEST SWAP2 POP POP SWAP3 SWAP2 POP POP JUMP JUMPDEST PUSH2 0x1488 DUP2 PUSH2 0x12D4 JUMP JUMPDEST DUP3 MSTORE POP POP JUMP JUMPDEST PUSH1 0x0 PUSH1 0x20 DUP3 ADD SWAP1 POP PUSH2 0x14A3 PUSH1 0x0 DUP4 ADD DUP5 PUSH2 0x147F JUMP JUMPDEST SWAP3 SWAP2 POP POP JUMP JUMPDEST PUSH2 0x14B2 DUP2 PUSH2 0x129E JUMP JUMPDEST DUP2 EQ PUSH2 0x14BD JUMPI PUSH1 0x0 DUP1 REVERT JUMPDEST POP JUMP JUMPDEST PUSH1 0x0 DUP2 CALLDATALOAD SWAP1 POP PUSH2 0x14CF DUP2 PUSH2 0x14A9 JUMP JUMPDEST SWAP3 SWAP2 POP POP JUMP JUMPDEST PUSH1 0x0 DUP1 PUSH1 0x40 DUP4 DUP6 SUB SLT ISZERO PUSH2 0x14EC JUMPI PUSH2 0x14EB PUSH2 0x120F JUMP JUMPDEST JUMPDEST PUSH1 0x0 PUSH2 0x14FA DUP6 DUP3 DUP7 ADD PUSH2 0x13AA JUMP JUMPDEST SWAP3 POP POP PUSH1 0x20 PUSH2 0x150B DUP6 DUP3 DUP7 ADD PUSH2 0x14C0 JUMP JUMPDEST SWAP2 POP POP SWAP3 POP SWAP3 SWAP1 POP JUMP JUMPDEST PUSH1 0x0 DUP1 REVERT JUMPDEST PUSH1 0x0 DUP1 REVERT JUMPDEST PUSH1 0x0 PUSH1 0x1F NOT PUSH1 0x1F DUP4 ADD AND SWAP1 POP SWAP2 SWAP1 POP JUMP JUMPDEST PUSH32 0x4E487B7100000000000000000000000000000000000000000000000000000000 PUSH1 0x0 MSTORE PUSH1 0x41 PUSH1 0x4 MSTORE PUSH1 0x24 PUSH1 0x0 REVERT JUMPDEST PUSH2 0x1568 DUP3 PUSH2 0x151F JUMP JUMPDEST DUP2 ADD DUP2 DUP2 LT PUSH8 0xFFFFFFFFFFFFFFFF DUP3 GT OR ISZERO PUSH2 0x1587 JUMPI PUSH2 0x1586 PUSH2 0x1530 JUMP JUMPDEST JUMPDEST DUP1 PUSH1 0x40 MSTORE POP POP POP JUMP JUMPDEST PUSH1 0x0 PUSH2 0x159A PUSH2 0x1205 JUMP JUMPDEST SWAP1 POP PUSH2 0x15A6 DUP3 DUP3 PUSH2 0x155F JUMP JUMPDEST SWAP2 SWAP1 POP JUMP JUMPDEST PUSH1 0x0 PUSH8 0xFFFFFFFFFFFFFFFF DUP3 GT ISZERO PUSH2 0x15C6 JUMPI PUSH2 0x15C5 PUSH2 0x1530 JUMP JUMPDEST JUMPDEST PUSH2 0x15CF DUP3 PUSH2 0x151F JUMP JUMPDEST SWAP1 POP PUSH1 0x20 DUP2 ADD SWAP1 POP SWAP2 SWAP1 POP JUMP JUMPDEST DUP3 DUP2 DUP4 CALLDATACOPY PUSH1 0x0 DUP4 DUP4 ADD MSTORE POP POP POP JUMP JUMPDEST PUSH1 0x0 PUSH2 0x15FE PUSH2 0x15F9 DUP5 PUSH2 0x15AB JUMP JUMPDEST PUSH2 0x1590 JUMP JUMPDEST SWAP1 POP DUP3 DUP2 MSTORE PUSH1 0x20 DUP2 ADD DUP5 DUP5 DUP5 ADD GT ISZERO PUSH2 0x161A JUMPI PUSH2 0x1619 PUSH2 0x151A JUMP JUMPDEST JUMPDEST PUSH2 0x1625 DUP5 DUP3 DUP6 PUSH2 0x15DC JUMP JUMPDEST POP SWAP4 SWAP3 POP POP POP JUMP JUMPDEST PUSH1 0x0 DUP3 PUSH1 0x1F DUP4 ADD SLT PUSH2 0x1642 JUMPI PUSH2 0x1641 PUSH2 0x1515 JUMP JUMPDEST JUMPDEST DUP2 CALLDATALOAD PUSH2 0x1652 DUP5 DUP3 PUSH1 0x20 DUP7 ADD PUSH2 0x15EB JUMP JUMPDEST SWAP2 POP POP SWAP3 SWAP2 POP POP JUMP JUMPDEST PUSH1 0x0 DUP1 PUSH1 0x0 DUP1 PUSH1 0x80 DUP6 DUP8 SUB SLT ISZERO PUSH2 0x1675 JUMPI PUSH2 0x1674 PUSH2 0x120F JUMP JUMPDEST JUMPDEST PUSH1 0x0 PUSH2 0x1683 DUP8 DUP3 DUP9 ADD PUSH2 0x13AA JUMP JUMPDEST SWAP5 POP POP PUSH1 0x20 PUSH2 0x1694 DUP8 DUP3 DUP9 ADD PUSH2 0x13AA JUMP JUMPDEST SWAP4 POP POP PUSH1 0x40 PUSH2 0x16A5 DUP8 DUP3 DUP9 ADD PUSH2 0x12F5 JUMP JUMPDEST SWAP3 POP POP PUSH1 0x60 DUP6 ADD CALLDATALOAD PUSH8 0xFFFFFFFFFFFFFFFF DUP2 GT ISZERO PUSH2 0x16C6 JUMPI PUSH2 0x16C5 PUSH2 0x1214 JUMP JUMPDEST JUMPDEST PUSH2 0x16D2 DUP8 DUP3 DUP9 ADD PUSH2 0x162D JUMP JUMPDEST SWAP2 POP POP SWAP3 SWAP6 SWAP2 SWAP5 POP SWAP3 POP JUMP JUMPDEST PUSH1 0x0 DUP1 PUSH1 0x40 DUP4 DUP6 SUB SLT ISZERO PUSH2 0x16F5 JUMPI PUSH2 0x16F4 PUSH2 0x120F JUMP JUMPDEST JUMPDEST PUSH1 0x0 PUSH2 0x1703 DUP6 DUP3 DUP7 ADD PUSH2 0x13AA JUMP JUMPDEST SWAP3 POP POP PUSH1 0x20 PUSH2 0x1714 DUP6 DUP3 DUP7 ADD PUSH2 0x13AA JUMP JUMPDEST SWAP2 POP POP SWAP3 POP SWAP3 SWAP1 POP JUMP JUMPDEST PUSH1 0x0 DUP3 DUP3 MSTORE PUSH1 0x20 DUP3 ADD SWAP1 POP SWAP3 SWAP2 POP POP JUMP JUMPDEST PUSH32 0x746F6B656E20646F65736E277420657869737400000000000000000000000000 PUSH1 0x0 DUP3 ADD MSTORE POP JUMP JUMPDEST PUSH1 0x0 PUSH2 0x1765 PUSH1 0x13 DUP4 PUSH2 0x171E JUMP JUMPDEST SWAP2 POP PUSH2 0x1770 DUP3 PUSH2 0x172F JUMP JUMPDEST PUSH1 0x20 DUP3 ADD SWAP1 POP SWAP2 SWAP1 POP JUMP JUMPDEST PUSH1 0x0 PUSH1 0x20 DUP3 ADD SWAP1 POP DUP2 DUP2 SUB PUSH1 0x0 DUP4 ADD MSTORE PUSH2 0x1794 DUP2 PUSH2 0x1758 JUMP JUMPDEST SWAP1 POP SWAP2 SWAP1 POP JUMP JUMPDEST PUSH32 0x6E6F74206F776E6572206E6F7220617070726F76656420666F7220616C6C0000 PUSH1 0x0 DUP3 ADD MSTORE POP JUMP JUMPDEST PUSH1 0x0 PUSH2 0x17D1 PUSH1 0x1E DUP4 PUSH2 0x171E JUMP JUMPDEST SWAP2 POP PUSH2 0x17DC DUP3 PUSH2 0x179B JUMP JUMPDEST PUSH1 0x20 DUP3 ADD SWAP1 POP SWAP2 SWAP1 POP JUMP JUMPDEST PUSH1 0x0 PUSH1 0x20 DUP3 ADD SWAP1 POP DUP2 DUP2 SUB PUSH1 0x0 DUP4 ADD MSTORE PUSH2 0x1800 DUP2 PUSH2 0x17C4 JUMP JUMPDEST SWAP1 POP SWAP2 SWAP1 POP JUMP JUMPDEST PUSH32 0x6E6F74206F776E6572206E6F7220617070726F76656400000000000000000000 PUSH1 0x0 DUP3 ADD MSTORE POP JUMP JUMPDEST PUSH1 0x0 PUSH2 0x183D PUSH1 0x16 DUP4 PUSH2 0x171E JUMP JUMPDEST SWAP2 POP PUSH2 0x1848 DUP3 PUSH2 0x1807 JUMP JUMPDEST PUSH1 0x20 DUP3 ADD SWAP1 POP SWAP2 SWAP1 POP JUMP JUMPDEST PUSH1 0x0 PUSH1 0x20 DUP3 ADD SWAP1 POP DUP2 DUP2 SUB PUSH1 0x0 DUP4 ADD MSTORE PUSH2 0x186C DUP2 PUSH2 0x1830 JUMP JUMPDEST SWAP1 POP SWAP2 SWAP1 POP JUMP JUMPDEST PUSH32 0x6D696E7420746F207A65726F2061646472657373000000000000000000000000 PUSH1 0x0 DUP3 ADD MSTORE POP JUMP JUMPDEST PUSH1 0x0 PUSH2 0x18A9 PUSH1 0x14 DUP4 PUSH2 0x171E JUMP JUMPDEST SWAP2 POP PUSH2 0x18B4 DUP3 PUSH2 0x1873 JUMP JUMPDEST PUSH1 0x20 DUP3 ADD SWAP1 POP SWAP2 SWAP1 POP JUMP JUMPDEST PUSH1 0x0 PUSH1 0x20 DUP3 ADD SWAP1 POP DUP2 DUP2 SUB PUSH1 0x0 DUP4 ADD MSTORE PUSH2 0x18D8 DUP2 PUSH2 0x189C JUMP JUMPDEST SWAP1 POP SWAP2 SWAP1 POP JUMP JUMPDEST PUSH32 0x746F6B656E20616C7265616479206D696E746564000000000000000000000000 PUSH1 0x0 DUP3 ADD MSTORE POP JUMP JUMPDEST PUSH1 0x0 PUSH2 0x1915 PUSH1 0x14 DUP4 PUSH2 0x171E JUMP JUMPDEST SWAP2 POP PUSH2 0x1920 DUP3 PUSH2 0x18DF JUMP JUMPDEST PUSH1 0x20 DUP3 ADD SWAP1 POP SWAP2 SWAP1 POP JUMP JUMPDEST PUSH1 0x0 PUSH1 0x20 DUP3 ADD SWAP1 POP DUP2 DUP2 SUB PUSH1 0x0 DUP4 ADD MSTORE PUSH2 0x1944 DUP2 PUSH2 0x1908 JUMP JUMPDEST SWAP1 POP SWAP2 SWAP1 POP JUMP JUMPDEST PUSH32 0x4E487B7100000000000000000000000000000000000000000000000000000000 PUSH1 0x0 MSTORE PUSH1 0x11 PUSH1 0x4 MSTORE PUSH1 0x24 PUSH1 0x0 REVERT JUMPDEST PUSH1 0x0 PUSH2 0x1985 DUP3 PUSH2 0x12D4 JUMP JUMPDEST SWAP2 POP PUSH2 0x1990 DUP4 PUSH2 0x12D4 JUMP JUMPDEST SWAP3 POP DUP3 DUP3 ADD SWAP1 POP DUP1 DUP3 GT ISZERO PUSH2 0x19A8 JUMPI PUSH2 0x19A7 PUSH2 0x194B JUMP JUMPDEST JUMPDEST SWAP3 SWAP2 POP POP JUMP JUMPDEST PUSH1 0x0 PUSH2 0x19B9 DUP3 PUSH2 0x12D4 JUMP JUMPDEST SWAP2 POP PUSH2 0x19C4 DUP4 PUSH2 0x12D4 JUMP JUMPDEST SWAP3 POP DUP3 DUP3 SUB SWAP1 POP DUP2 DUP2 GT ISZERO PUSH2 0x19DC JUMPI PUSH2 0x19DB PUSH2 0x194B JUMP JUMPDEST JUMPDEST SWAP3 SWAP2 POP POP JUMP JUMPDEST PUSH32 0x6F776E6572203D207A65726F2061646472657373000000000000000000000000 PUSH1 0x0 DUP3 ADD MSTORE POP JUMP JUMPDEST PUSH1 0x0 PUSH2 0x1A18 PUSH1 0x14 DUP4 PUSH2 0x171E JUMP JUMPDEST SWAP2 POP PUSH2 0x1A23 DUP3 PUSH2 0x19E2 JUMP JUMPDEST PUSH1 0x20 DUP3 ADD SWAP1 POP SWAP2 SWAP1 POP JUMP JUMPDEST PUSH1 0x0 PUSH1 0x20 DUP3 ADD SWAP1 POP DUP2 DUP2 SUB PUSH1 0x0 DUP4 ADD MSTORE PUSH2 0x1A47 DUP2 PUSH2 0x1A0B JUMP JUMPDEST SWAP1 POP SWAP2 SWAP1 POP JUMP JUMPDEST PUSH32 0x6E6F74206F776E65720000000000000000000000000000000000000000000000 PUSH1 0x0 DUP3 ADD MSTORE POP JUMP JUMPDEST PUSH1 0x0 PUSH2 0x1A84 PUSH1 0x9 DUP4 PUSH2 0x171E JUMP JUMPDEST SWAP2 POP PUSH2 0x1A8F DUP3 PUSH2 0x1A4E JUMP JUMPDEST PUSH1 0x20 DUP3 ADD SWAP1 POP SWAP2 SWAP1 POP JUMP JUMPDEST PUSH1 0x0 PUSH1 0x20 DUP3 ADD SWAP1 POP DUP2 DUP2 SUB PUSH1 0x0 DUP4 ADD MSTORE PUSH2 0x1AB3 DUP2 PUSH2 0x1A77 JUMP JUMPDEST SWAP1 POP SWAP2 SWAP1 POP JUMP JUMPDEST PUSH32 0x7472616E7366657220746F20746865207A65726F206164647265737300000000 PUSH1 0x0 DUP3 ADD MSTORE POP JUMP JUMPDEST PUSH1 0x0 PUSH2 0x1AF0 PUSH1 0x1C DUP4 PUSH2 0x171E JUMP JUMPDEST SWAP2 POP PUSH2 0x1AFB DUP3 PUSH2 0x1ABA JUMP JUMPDEST PUSH1 0x20 DUP3 ADD SWAP1 POP SWAP2 SWAP1 POP JUMP JUMPDEST PUSH1 0x0 PUSH1 0x20 DUP3 ADD SWAP1 POP DUP2 DUP2 SUB PUSH1 0x0 DUP4 ADD MSTORE PUSH2 0x1B1F DUP2 PUSH2 0x1AE3 JUMP JUMPDEST SWAP1 POP SWAP2 SWAP1 POP JUMP JUMPDEST PUSH32 0x6E6F742045524337323152656365697665720000000000000000000000000000 PUSH1 0x0 DUP3 ADD MSTORE POP JUMP JUMPDEST PUSH1 0x0 PUSH2 0x1B5C PUSH1 0x12 DUP4 PUSH2 0x171E JUMP JUMPDEST SWAP2 POP PUSH2 0x1B67 DUP3 PUSH2 0x1B26 JUMP JUMPDEST PUSH1 0x20 DUP3 ADD SWAP1 POP SWAP2 SWAP1 POP JUMP JUMPDEST PUSH1 0x0 PUSH1 0x20 DUP3 ADD SWAP1 POP DUP2 DUP2 SUB PUSH1 0x0 DUP4 ADD MSTORE PUSH2 0x1B8B DUP2 PUSH2 0x1B4F JUMP JUMPDEST SWAP1 POP SWAP2 SWAP1 POP JUMP JUMPDEST PUSH1 0x0 DUP2 MLOAD SWAP1 POP SWAP2 SWAP1 POP JUMP JUMPDEST PUSH1 0x0 DUP3 DUP3 MSTORE PUSH1 0x20 DUP3 ADD SWAP1 POP SWAP3 SWAP2 POP POP JUMP JUMPDEST PUSH1 0x0 JUMPDEST DUP4 DUP2 LT ISZERO PUSH2 0x1BCC JUMPI DUP1 DUP3 ADD MLOAD DUP2 DUP5 ADD MSTORE PUSH1 0x20 DUP2 ADD SWAP1 POP PUSH2 0x1BB1 JUMP JUMPDEST PUSH1 0x0 DUP5 DUP5 ADD MSTORE POP POP POP POP JUMP JUMPDEST PUSH1 0x0 PUSH2 0x1BE3 DUP3 PUSH2 0x1B92 JUMP JUMPDEST PUSH2 0x1BED DUP2 DUP6 PUSH2 0x1B9D JUMP JUMPDEST SWAP4 POP PUSH2 0x1BFD DUP2 DUP6 PUSH1 0x20 DUP7 ADD PUSH2 0x1BAE JUMP JUMPDEST PUSH2 0x1C06 DUP2 PUSH2 0x151F JUMP JUMPDEST DUP5 ADD SWAP2 POP POP SWAP3 SWAP2 POP POP JUMP JUMPDEST PUSH1 0x0 PUSH1 0x80 DUP3 ADD SWAP1 POP PUSH2 0x1C26 PUSH1 0x0 DUP4 ADD DUP8 PUSH2 0x1369 JUMP JUMPDEST PUSH2 0x1C33 PUSH1 0x20 DUP4 ADD DUP7 PUSH2 0x1369 JUMP JUMPDEST PUSH2 0x1C40 PUSH1 0x40 DUP4 ADD DUP6 PUSH2 0x147F JUMP JUMPDEST DUP2 DUP2 SUB PUSH1 0x60 DUP4 ADD MSTORE PUSH2 0x1C52 DUP2 DUP5 PUSH2 0x1BD8 JUMP JUMPDEST SWAP1 POP SWAP6 SWAP5 POP POP POP POP POP JUMP JUMPDEST PUSH1 0x0 DUP2 MLOAD SWAP1 POP PUSH2 0x1C6C DUP2 PUSH2 0x1245 JUMP JUMPDEST SWAP3 SWAP2 POP POP JUMP JUMPDEST PUSH1 0x0 PUSH1 0x20 DUP3 DUP5 SUB SLT ISZERO PUSH2 0x1C88 JUMPI PUSH2 0x1C87 PUSH2 0x120F JUMP JUMPDEST JUMPDEST PUSH1 0x0 PUSH2 0x1C96 DUP5 DUP3 DUP6 ADD PUSH2 0x1C5D JUMP JUMPDEST SWAP2 POP POP SWAP3 SWAP2 POP POP JUMP INVALID LOG2 PUSH5 0x6970667358 0x22 SLT KECCAK256 0x4B SWAP9 CREATE DUP3 DUP7 ADDMOD SWAP16 0xDE SWAP5 MLOAD 0xAA 0xDC SWAP16 SWAP14 XOR 0x49 0xCE SSTORE SHR DUP16 SDIV XOR 0x24 LOG0 0xAB 0x2D JUMP 0xF7 0xD0 GASLIMIT DUP3 DUP2 PUSH5 0x736F6C6343 STOP ADDMOD SLT STOP CALLER "
				},
				"gasEstimates": {
					"creation": {
						"codeDepositCost": "1476200",
						"executionCost": "1541",
						"totalCost": "1477741"
					},
					"external": {
						"approve(address,uint256)": "31578",
						"balanceOf(address)": "2920",
						"burn(uint256)": "infinite",
						"getApproved(uint256)": "5137",
						"isApprovedForAll(address,address)": "infinite",
						"mint(address,uint256)": "infinite",
						"ownerOf(uint256)": "2975",
						"safeTransferFrom(address,address,uint256)": "infinite",
						"safeTransferFrom(address,address,uint256,bytes)": "infinite",
						"setApprovalForAll(address,bool)": "infinite",
						"supportsInterface(bytes4)": "685",
						"transferFrom(address,address,uint256)": "infinite"
					},
					"internal": {
						"_approve(address,address,uint256)": "26292",
						"_checkOnERC721Received(address,address,uint256,bytes memory)": "infinite",
						"_isApprovedOrOwner(address,address,uint256)": "4648",
						"_safeTransfer(address,address,address,uint256,bytes memory)": "infinite",
						"_transfer(address,address,address,uint256)": "infinite"
					}
				},
				"methodIdentifiers": {
					"approve(address,uint256)": "095ea7b3",
					"balanceOf(address)": "70a08231",
					"burn(uint256)": "42966c68",
					"getApproved(uint256)": "081812fc",
					"isApprovedForAll(address,address)": "e985e9c5",
					"mint(address,uint256)": "40c10f19",
					"ownerOf(uint256)": "6352211e",
					"safeTransferFrom(address,address,uint256)": "42842e0e",
					"safeTransferFrom(address,address,uint256,bytes)": "b88d4fde",
					"setApprovalForAll(address,bool)": "a22cb465",
					"supportsInterface(bytes4)": "01ffc9a7",
					"transferFrom(address,address,uint256)": "23b872dd"
				}
			},
			"storageLayout": {
				"storage": [
					{
						"astId": 132,
						"contract": "cuimianMaster/NFT.sol:ERC721",
						"label": "_owners",
						"offset": 0,
						"slot": "0",
						"type": "t_mapping(t_uint256,t_address)"
					},
					{
						"astId": 136,
						"contract": "cuimianMaster/NFT.sol:ERC721",
						"label": "_balances",
						"offset": 0,
						"slot": "1",
						"type": "t_mapping(t_address,t_uint256)"
					},
					{
						"astId": 140,
						"contract": "cuimianMaster/NFT.sol:ERC721",
						"label": "_tokenApprovals",
						"offset": 0,
						"slot": "2",
						"type": "t_mapping(t_uint256,t_address)"
					},
					{
						"astId": 146,
						"contract": "cuimianMaster/NFT.sol:ERC721",
						"label": "_operatorApprovals",
						"offset": 0,
						"slot": "3",
						"type": "t_mapping(t_address,t_mapping(t_address,t_bool))"
					}
				],
				"types": {
					"t_address": {
						"encoding": "inplace",
						"label": "address",
						"numberOfBytes": "20"
					},
					"t_bool": {
						"encoding": "inplace",
						"label": "bool",
						"numberOfBytes": "1"
					},
					"t_mapping(t_address,t_bool)": {
						"encoding": "mapping",
						"key": "t_address",
						"label": "mapping(address => bool)",
						"numberOfBytes": "32",
						"value": "t_bool"
					},
					"t_mapping(t_address,t_mapping(t_address,t_bool))": {
						"encoding": "mapping",
						"key": "t_address",
						"label": "mapping(address => mapping(address => bool))",
						"numberOfBytes": "32",
						"value": "t_mapping(t_address,t_bool)"
					},
					"t_mapping(t_address,t_uint256)": {
						"encoding": "mapping",
						"key": "t_address",
						"label": "mapping(address => uint256)",
						"numberOfBytes": "32",
						"value": "t_uint256"
					},
					"t_mapping(t_uint256,t_address)": {
						"encoding": "mapping",
						"key": "t_uint256",
						"label": "mapping(uint256 => address)",
						"numberOfBytes": "32",
						"value": "t_address"
					},
					"t_uint256": {
						"encoding": "inplace",
						"label": "uint256",
						"numberOfBytes": "32"
					}
				}
			},
			"userdoc": {
				"kind": "user",
				"methods": {},
				"version": 1
			}
		}
	}
}