{
	"cuimianMaster/Sig.sol": {
		"VerifySig": {
			"abi": [
				{
					"inputs": [
						{
							"internalType": "string",
							"name": "_message",
							"type": "string"
						}
					],
					"name": "getMessageHash",
					"outputs": [
						{
							"internalType": "bytes32",
							"name": "",
							"type": "bytes32"
						}
					],
					"stateMutability": "pure",
					"type": "function"
				},
				{
					"inputs": [
						{
							"internalType": "address",
							"name": "_signer",
							"type": "address"
						},
						{
							"internalType": "string",
							"name": "_message",
							"type": "string"
						},
						{
							"internalType": "bytes",
							"name": "_sig",
							"type": "bytes"
						}
					],
					"name": "verify",
					"outputs": [
						{
							"internalType": "bool",
							"name": "",
							"type": "bool"
						}
					],
					"stateMutability": "pure",
					"type": "function"
				}
			],
			"devdoc": {
				"kind": "dev",
				"methods": {},
				"version": 1
			},
			"evm": {
				"assembly": "    /* \"cuimianMaster/Sig.sol\":794:2536  contract VerifySig {... */\n  mstore(0x40, 0x80)\n  callvalue\n  dup1\n  iszero\n  tag_1\n  jumpi\n  0x00\n  dup1\n  revert\ntag_1:\n  pop\n  dataSize(sub_0)\n  dup1\n  dataOffset(sub_0)\n  0x00\n  codecopy\n  0x00\n  return\nstop\n\nsub_0: assembly {\n        /* \"cuimianMaster/Sig.sol\":794:2536  contract VerifySig {... */\n      mstore(0x40, 0x80)\n      callvalue\n      dup1\n      iszero\n      tag_1\n      jumpi\n      0x00\n      dup1\n      revert\n    tag_1:\n      pop\n      jumpi(tag_2, lt(calldatasize, 0x04))\n      shr(0xe0, calldataload(0x00))\n      dup1\n      0x2dd34f0f\n      eq\n      tag_3\n      jumpi\n      dup1\n      0xb446f3b2\n      eq\n      tag_4\n      jumpi\n    tag_2:\n      0x00\n      dup1\n      revert\n        /* \"cuimianMaster/Sig.sol\":1126:1449  function verify(address _signer, string memory _message, bytes memory _sig)... */\n    tag_3:\n      tag_5\n      0x04\n      dup1\n      calldatasize\n      sub\n      dup2\n      add\n      swap1\n      tag_6\n      swap2\n      swap1\n      tag_7\n      jump\t// in\n    tag_6:\n      tag_8\n      jump\t// in\n    tag_5:\n      mload(0x40)\n      tag_9\n      swap2\n      swap1\n      tag_10\n      jump\t// in\n    tag_9:\n      mload(0x40)\n      dup1\n      swap2\n      sub\n      swap1\n      return\n        /* \"cuimianMaster/Sig.sol\":1457:1598  function getMessageHash(string memory _message) public pure returns (bytes32) {... */\n    tag_4:\n      tag_11\n      0x04\n      dup1\n      calldatasize\n      sub\n      dup2\n      add\n      swap1\n      tag_12\n      swap2\n      swap1\n      tag_13\n      jump\t// in\n    tag_12:\n      tag_14\n      jump\t// in\n    tag_11:\n      mload(0x40)\n      tag_15\n      swap2\n      swap1\n      tag_16\n      jump\t// in\n    tag_15:\n      mload(0x40)\n      dup1\n      swap2\n      sub\n      swap1\n      return\n        /* \"cuimianMaster/Sig.sol\":1126:1449  function verify(address _signer, string memory _message, bytes memory _sig)... */\n    tag_8:\n        /* \"cuimianMaster/Sig.sol\":1234:1238  bool */\n      0x00\n        /* \"cuimianMaster/Sig.sol\":1251:1270  bytes32 messageHash */\n      dup1\n        /* \"cuimianMaster/Sig.sol\":1273:1297  getMessageHash(_message) */\n      tag_18\n        /* \"cuimianMaster/Sig.sol\":1288:1296  _message */\n      dup5\n        /* \"cuimianMaster/Sig.sol\":1273:1287  getMessageHash */\n      tag_14\n        /* \"cuimianMaster/Sig.sol\":1273:1297  getMessageHash(_message) */\n      jump\t// in\n    tag_18:\n        /* \"cuimianMaster/Sig.sol\":1251:1297  bytes32 messageHash = getMessageHash(_message) */\n      swap1\n      pop\n        /* \"cuimianMaster/Sig.sol\":1308:1336  bytes32 ethSignedMessageHash */\n      0x00\n        /* \"cuimianMaster/Sig.sol\":1339:1375  getEthSignedMessageHash(messageHash) */\n      tag_19\n        /* \"cuimianMaster/Sig.sol\":1363:1374  messageHash */\n      dup3\n        /* \"cuimianMaster/Sig.sol\":1339:1362  getEthSignedMessageHash */\n      tag_20\n        /* \"cuimianMaster/Sig.sol\":1339:1375  getEthSignedMessageHash(messageHash) */\n      jump\t// in\n    tag_19:\n        /* \"cuimianMaster/Sig.sol\":1308:1375  bytes32 ethSignedMessageHash = getEthSignedMessageHash(messageHash) */\n      swap1\n      pop\n        /* \"cuimianMaster/Sig.sol\":1434:1441  _signer */\n      dup6\n        /* \"cuimianMaster/Sig.sol\":1395:1441  recover(ethSignedMessageHash, _sig) == _signer */\n      0xffffffffffffffffffffffffffffffffffffffff\n      and\n        /* \"cuimianMaster/Sig.sol\":1395:1430  recover(ethSignedMessageHash, _sig) */\n      tag_21\n        /* \"cuimianMaster/Sig.sol\":1403:1423  ethSignedMessageHash */\n      dup3\n        /* \"cuimianMaster/Sig.sol\":1425:1429  _sig */\n      dup7\n        /* \"cuimianMaster/Sig.sol\":1395:1402  recover */\n      tag_22\n        /* \"cuimianMaster/Sig.sol\":1395:1430  recover(ethSignedMessageHash, _sig) */\n      jump\t// in\n    tag_21:\n        /* \"cuimianMaster/Sig.sol\":1395:1441  recover(ethSignedMessageHash, _sig) == _signer */\n      0xffffffffffffffffffffffffffffffffffffffff\n      and\n      eq\n        /* \"cuimianMaster/Sig.sol\":1388:1441  return recover(ethSignedMessageHash, _sig) == _signer */\n      swap3\n      pop\n      pop\n      pop\n        /* \"cuimianMaster/Sig.sol\":1126:1449  function verify(address _signer, string memory _message, bytes memory _sig)... */\n      swap4\n      swap3\n      pop\n      pop\n      pop\n      jump\t// out\n        /* \"cuimianMaster/Sig.sol\":1457:1598  function getMessageHash(string memory _message) public pure returns (bytes32) {... */\n    tag_14:\n        /* \"cuimianMaster/Sig.sol\":1526:1533  bytes32 */\n      0x00\n        /* \"cuimianMaster/Sig.sol\":1580:1588  _message */\n      dup2\n        /* \"cuimianMaster/Sig.sol\":1563:1589  abi.encodePacked(_message) */\n      add(0x20, mload(0x40))\n      tag_24\n      swap2\n      swap1\n      tag_25\n      jump\t// in\n    tag_24:\n      mload(0x40)\n      0x20\n      dup2\n      dup4\n      sub\n      sub\n      dup2\n      mstore\n      swap1\n      0x40\n      mstore\n        /* \"cuimianMaster/Sig.sol\":1553:1590  keccak256(abi.encodePacked(_message)) */\n      dup1\n      mload\n      swap1\n      0x20\n      add\n      keccak256\n        /* \"cuimianMaster/Sig.sol\":1546:1590  return keccak256(abi.encodePacked(_message)) */\n      swap1\n      pop\n        /* \"cuimianMaster/Sig.sol\":1457:1598  function getMessageHash(string memory _message) public pure returns (bytes32) {... */\n      swap2\n      swap1\n      pop\n      jump\t// out\n        /* \"cuimianMaster/Sig.sol\":1606:1823  function getEthSignedMessageHash(bytes32 _messageHash) internal pure returns (bytes32) {... */\n    tag_20:\n        /* \"cuimianMaster/Sig.sol\":1684:1691  bytes32 */\n      0x00\n        /* \"cuimianMaster/Sig.sol\":1801:1813  _messageHash */\n      dup2\n        /* \"cuimianMaster/Sig.sol\":1721:1814  abi.encodePacked(... */\n      add(0x20, mload(0x40))\n      tag_27\n      swap2\n      swap1\n      tag_28\n      jump\t// in\n    tag_27:\n      mload(0x40)\n      0x20\n      dup2\n      dup4\n      sub\n      sub\n      dup2\n      mstore\n      swap1\n      0x40\n      mstore\n        /* \"cuimianMaster/Sig.sol\":1711:1815  keccak256(abi.encodePacked(... */\n      dup1\n      mload\n      swap1\n      0x20\n      add\n      keccak256\n        /* \"cuimianMaster/Sig.sol\":1704:1815  return keccak256(abi.encodePacked(... */\n      swap1\n      pop\n        /* \"cuimianMaster/Sig.sol\":1606:1823  function getEthSignedMessageHash(bytes32 _messageHash) internal pure returns (bytes32) {... */\n      swap2\n      swap1\n      pop\n      jump\t// out\n        /* \"cuimianMaster/Sig.sol\":1831:2054  function recover(bytes32 _ethSignedMessageHash, bytes memory _sig) internal pure returns (address) {... */\n    tag_22:\n        /* \"cuimianMaster/Sig.sol\":1921:1928  address */\n      0x00\n        /* \"cuimianMaster/Sig.sol\":1942:1951  bytes32 r */\n      dup1\n        /* \"cuimianMaster/Sig.sol\":1953:1962  bytes32 s */\n      0x00\n        /* \"cuimianMaster/Sig.sol\":1964:1971  uint8 v */\n      dup1\n        /* \"cuimianMaster/Sig.sol\":1975:1987  _split(_sig) */\n      tag_30\n        /* \"cuimianMaster/Sig.sol\":1982:1986  _sig */\n      dup6\n        /* \"cuimianMaster/Sig.sol\":1975:1981  _split */\n      tag_31\n        /* \"cuimianMaster/Sig.sol\":1975:1987  _split(_sig) */\n      jump\t// in\n    tag_30:\n        /* \"cuimianMaster/Sig.sol\":1941:1987  (bytes32 r, bytes32 s, uint8 v) = _split(_sig) */\n      swap3\n      pop\n      swap3\n      pop\n      swap3\n      pop\n        /* \"cuimianMaster/Sig.sol\":2005:2046  ecrecover(_ethSignedMessageHash, v, r, s) */\n      0x01\n        /* \"cuimianMaster/Sig.sol\":2015:2036  _ethSignedMessageHash */\n      dup7\n        /* \"cuimianMaster/Sig.sol\":2038:2039  v */\n      dup3\n        /* \"cuimianMaster/Sig.sol\":2041:2042  r */\n      dup6\n        /* \"cuimianMaster/Sig.sol\":2044:2045  s */\n      dup6\n        /* \"cuimianMaster/Sig.sol\":2005:2046  ecrecover(_ethSignedMessageHash, v, r, s) */\n      mload(0x40)\n      0x00\n      dup2\n      mstore\n      0x20\n      add\n      0x40\n      mstore\n      mload(0x40)\n      tag_32\n      swap5\n      swap4\n      swap3\n      swap2\n      swap1\n      tag_33\n      jump\t// in\n    tag_32:\n      0x20\n      mload(0x40)\n      0x20\n      dup2\n      sub\n      swap1\n      dup1\n      dup5\n      sub\n      swap1\n      dup6\n      gas\n      staticcall\n      iszero\n      dup1\n      iszero\n      tag_35\n      jumpi\n      returndatasize\n      0x00\n      dup1\n      returndatacopy\n      revert(0x00, returndatasize)\n    tag_35:\n      pop\n      pop\n      pop\n      mload(sub(mload(0x40), 0x20))\n        /* \"cuimianMaster/Sig.sol\":1998:2046  return ecrecover(_ethSignedMessageHash, v, r, s) */\n      swap4\n      pop\n      pop\n      pop\n      pop\n        /* \"cuimianMaster/Sig.sol\":1831:2054  function recover(bytes32 _ethSignedMessageHash, bytes memory _sig) internal pure returns (address) {... */\n      swap3\n      swap2\n      pop\n      pop\n      jump\t// out\n        /* \"cuimianMaster/Sig.sol\":2212:2533  function _split(bytes memory _sig) internal pure returns (bytes32 r, bytes32 s, uint8 v) {... */\n    tag_31:\n        /* \"cuimianMaster/Sig.sol\":2270:2279  bytes32 r */\n      0x00\n        /* \"cuimianMaster/Sig.sol\":2281:2290  bytes32 s */\n      dup1\n        /* \"cuimianMaster/Sig.sol\":2292:2299  uint8 v */\n      0x00\n        /* \"cuimianMaster/Sig.sol\":2335:2337  65 */\n      0x41\n        /* \"cuimianMaster/Sig.sol\":2320:2324  _sig */\n      dup5\n        /* \"cuimianMaster/Sig.sol\":2320:2331  _sig.length */\n      mload\n        /* \"cuimianMaster/Sig.sol\":2320:2337  _sig.length == 65 */\n      eq\n        /* \"cuimianMaster/Sig.sol\":2312:2366  require(_sig.length == 65, \"invalid signature length\") */\n      tag_37\n      jumpi\n      mload(0x40)\n      0x08c379a000000000000000000000000000000000000000000000000000000000\n      dup2\n      mstore\n      0x04\n      add\n      tag_38\n      swap1\n      tag_39\n      jump\t// in\n    tag_38:\n      mload(0x40)\n      dup1\n      swap2\n      sub\n      swap1\n      revert\n    tag_37:\n        /* \"cuimianMaster/Sig.sol\":2424:2426  32 */\n      0x20\n        /* \"cuimianMaster/Sig.sol\":2418:2422  _sig */\n      dup5\n        /* \"cuimianMaster/Sig.sol\":2414:2427  add(_sig, 32) */\n      add\n        /* \"cuimianMaster/Sig.sol\":2408:2428  mload(add(_sig, 32)) */\n      mload\n        /* \"cuimianMaster/Sig.sol\":2403:2428  r := mload(add(_sig, 32)) */\n      swap3\n      pop\n        /* \"cuimianMaster/Sig.sol\":2463:2465  64 */\n      0x40\n        /* \"cuimianMaster/Sig.sol\":2457:2461  _sig */\n      dup5\n        /* \"cuimianMaster/Sig.sol\":2453:2466  add(_sig, 64) */\n      add\n        /* \"cuimianMaster/Sig.sol\":2447:2467  mload(add(_sig, 64)) */\n      mload\n        /* \"cuimianMaster/Sig.sol\":2442:2467  s := mload(add(_sig, 64)) */\n      swap2\n      pop\n        /* \"cuimianMaster/Sig.sol\":2510:2512  96 */\n      0x60\n        /* \"cuimianMaster/Sig.sol\":2504:2508  _sig */\n      dup5\n        /* \"cuimianMaster/Sig.sol\":2500:2513  add(_sig, 96) */\n      add\n        /* \"cuimianMaster/Sig.sol\":2494:2514  mload(add(_sig, 96)) */\n      mload\n        /* \"cuimianMaster/Sig.sol\":2491:2492  0 */\n      0x00\n        /* \"cuimianMaster/Sig.sol\":2486:2515  byte(0, mload(add(_sig, 96))) */\n      byte\n        /* \"cuimianMaster/Sig.sol\":2481:2515  v := byte(0, mload(add(_sig, 96))) */\n      swap1\n      pop\n        /* \"cuimianMaster/Sig.sol\":2212:2533  function _split(bytes memory _sig) internal pure returns (bytes32 r, bytes32 s, uint8 v) {... */\n      swap2\n      swap4\n      swap1\n      swap3\n      pop\n      jump\t// out\n        /* \"#utility.yul\":7:82   */\n    tag_40:\n        /* \"#utility.yul\":40:46   */\n      0x00\n        /* \"#utility.yul\":73:75   */\n      0x40\n        /* \"#utility.yul\":67:76   */\n      mload\n        /* \"#utility.yul\":57:76   */\n      swap1\n      pop\n        /* \"#utility.yul\":7:82   */\n      swap1\n      jump\t// out\n        /* \"#utility.yul\":88:205   */\n    tag_41:\n        /* \"#utility.yul\":197:198   */\n      0x00\n        /* \"#utility.yul\":194:195   */\n      dup1\n        /* \"#utility.yul\":187:199   */\n      revert\n        /* \"#utility.yul\":211:328   */\n    tag_42:\n        /* \"#utility.yul\":320:321   */\n      0x00\n        /* \"#utility.yul\":317:318   */\n      dup1\n        /* \"#utility.yul\":310:322   */\n      revert\n        /* \"#utility.yul\":334:460   */\n    tag_43:\n        /* \"#utility.yul\":371:378   */\n      0x00\n        /* \"#utility.yul\":411:453   */\n      0xffffffffffffffffffffffffffffffffffffffff\n        /* \"#utility.yul\":404:409   */\n      dup3\n        /* \"#utility.yul\":400:454   */\n      and\n        /* \"#utility.yul\":389:454   */\n      swap1\n      pop\n        /* \"#utility.yul\":334:460   */\n      swap2\n      swap1\n      pop\n      jump\t// out\n        /* \"#utility.yul\":466:562   */\n    tag_44:\n        /* \"#utility.yul\":503:510   */\n      0x00\n        /* \"#utility.yul\":532:556   */\n      tag_83\n        /* \"#utility.yul\":550:555   */\n      dup3\n        /* \"#utility.yul\":532:556   */\n      tag_43\n      jump\t// in\n    tag_83:\n        /* \"#utility.yul\":521:556   */\n      swap1\n      pop\n        /* \"#utility.yul\":466:562   */\n      swap2\n      swap1\n      pop\n      jump\t// out\n        /* \"#utility.yul\":568:690   */\n    tag_45:\n        /* \"#utility.yul\":641:665   */\n      tag_85\n        /* \"#utility.yul\":659:664   */\n      dup2\n        /* \"#utility.yul\":641:665   */\n      tag_44\n      jump\t// in\n    tag_85:\n        /* \"#utility.yul\":634:639   */\n      dup2\n        /* \"#utility.yul\":631:666   */\n      eq\n        /* \"#utility.yul\":621:684   */\n      tag_86\n      jumpi\n        /* \"#utility.yul\":680:681   */\n      0x00\n        /* \"#utility.yul\":677:678   */\n      dup1\n        /* \"#utility.yul\":670:682   */\n      revert\n        /* \"#utility.yul\":621:684   */\n    tag_86:\n        /* \"#utility.yul\":568:690   */\n      pop\n      jump\t// out\n        /* \"#utility.yul\":696:835   */\n    tag_46:\n        /* \"#utility.yul\":742:747   */\n      0x00\n        /* \"#utility.yul\":780:786   */\n      dup2\n        /* \"#utility.yul\":767:787   */\n      calldataload\n        /* \"#utility.yul\":758:787   */\n      swap1\n      pop\n        /* \"#utility.yul\":796:829   */\n      tag_88\n        /* \"#utility.yul\":823:828   */\n      dup2\n        /* \"#utility.yul\":796:829   */\n      tag_45\n      jump\t// in\n    tag_88:\n        /* \"#utility.yul\":696:835   */\n      swap3\n      swap2\n      pop\n      pop\n      jump\t// out\n        /* \"#utility.yul\":841:958   */\n    tag_47:\n        /* \"#utility.yul\":950:951   */\n      0x00\n        /* \"#utility.yul\":947:948   */\n      dup1\n        /* \"#utility.yul\":940:952   */\n      revert\n        /* \"#utility.yul\":964:1081   */\n    tag_48:\n        /* \"#utility.yul\":1073:1074   */\n      0x00\n        /* \"#utility.yul\":1070:1071   */\n      dup1\n        /* \"#utility.yul\":1063:1075   */\n      revert\n        /* \"#utility.yul\":1087:1189   */\n    tag_49:\n        /* \"#utility.yul\":1128:1134   */\n      0x00\n        /* \"#utility.yul\":1179:1181   */\n      0x1f\n        /* \"#utility.yul\":1175:1182   */\n      not\n        /* \"#utility.yul\":1170:1172   */\n      0x1f\n        /* \"#utility.yul\":1163:1168   */\n      dup4\n        /* \"#utility.yul\":1159:1173   */\n      add\n        /* \"#utility.yul\":1155:1183   */\n      and\n        /* \"#utility.yul\":1145:1183   */\n      swap1\n      pop\n        /* \"#utility.yul\":1087:1189   */\n      swap2\n      swap1\n      pop\n      jump\t// out\n        /* \"#utility.yul\":1195:1375   */\n    tag_50:\n        /* \"#utility.yul\":1243:1320   */\n      0x4e487b7100000000000000000000000000000000000000000000000000000000\n        /* \"#utility.yul\":1240:1241   */\n      0x00\n        /* \"#utility.yul\":1233:1321   */\n      mstore\n        /* \"#utility.yul\":1340:1344   */\n      0x41\n        /* \"#utility.yul\":1337:1338   */\n      0x04\n        /* \"#utility.yul\":1330:1345   */\n      mstore\n        /* \"#utility.yul\":1364:1368   */\n      0x24\n        /* \"#utility.yul\":1361:1362   */\n      0x00\n        /* \"#utility.yul\":1354:1369   */\n      revert\n        /* \"#utility.yul\":1381:1662   */\n    tag_51:\n        /* \"#utility.yul\":1464:1491   */\n      tag_94\n        /* \"#utility.yul\":1486:1490   */\n      dup3\n        /* \"#utility.yul\":1464:1491   */\n      tag_49\n      jump\t// in\n    tag_94:\n        /* \"#utility.yul\":1456:1462   */\n      dup2\n        /* \"#utility.yul\":1452:1492   */\n      add\n        /* \"#utility.yul\":1594:1600   */\n      dup2\n        /* \"#utility.yul\":1582:1592   */\n      dup2\n        /* \"#utility.yul\":1579:1601   */\n      lt\n        /* \"#utility.yul\":1558:1576   */\n      0xffffffffffffffff\n        /* \"#utility.yul\":1546:1556   */\n      dup3\n        /* \"#utility.yul\":1543:1577   */\n      gt\n        /* \"#utility.yul\":1540:1602   */\n      or\n        /* \"#utility.yul\":1537:1625   */\n      iszero\n      tag_95\n      jumpi\n        /* \"#utility.yul\":1605:1623   */\n      tag_96\n      tag_50\n      jump\t// in\n    tag_96:\n        /* \"#utility.yul\":1537:1625   */\n    tag_95:\n        /* \"#utility.yul\":1645:1655   */\n      dup1\n        /* \"#utility.yul\":1641:1643   */\n      0x40\n        /* \"#utility.yul\":1634:1656   */\n      mstore\n        /* \"#utility.yul\":1424:1662   */\n      pop\n        /* \"#utility.yul\":1381:1662   */\n      pop\n      pop\n      jump\t// out\n        /* \"#utility.yul\":1668:1797   */\n    tag_52:\n        /* \"#utility.yul\":1702:1708   */\n      0x00\n        /* \"#utility.yul\":1729:1749   */\n      tag_98\n      tag_40\n      jump\t// in\n    tag_98:\n        /* \"#utility.yul\":1719:1749   */\n      swap1\n      pop\n        /* \"#utility.yul\":1758:1791   */\n      tag_99\n        /* \"#utility.yul\":1786:1790   */\n      dup3\n        /* \"#utility.yul\":1778:1784   */\n      dup3\n        /* \"#utility.yul\":1758:1791   */\n      tag_51\n      jump\t// in\n    tag_99:\n        /* \"#utility.yul\":1668:1797   */\n      swap2\n      swap1\n      pop\n      jump\t// out\n        /* \"#utility.yul\":1803:2111   */\n    tag_53:\n        /* \"#utility.yul\":1865:1869   */\n      0x00\n        /* \"#utility.yul\":1955:1973   */\n      0xffffffffffffffff\n        /* \"#utility.yul\":1947:1953   */\n      dup3\n        /* \"#utility.yul\":1944:1974   */\n      gt\n        /* \"#utility.yul\":1941:1997   */\n      iszero\n      tag_101\n      jumpi\n        /* \"#utility.yul\":1977:1995   */\n      tag_102\n      tag_50\n      jump\t// in\n    tag_102:\n        /* \"#utility.yul\":1941:1997   */\n    tag_101:\n        /* \"#utility.yul\":2015:2044   */\n      tag_103\n        /* \"#utility.yul\":2037:2043   */\n      dup3\n        /* \"#utility.yul\":2015:2044   */\n      tag_49\n      jump\t// in\n    tag_103:\n        /* \"#utility.yul\":2007:2044   */\n      swap1\n      pop\n        /* \"#utility.yul\":2099:2103   */\n      0x20\n        /* \"#utility.yul\":2093:2097   */\n      dup2\n        /* \"#utility.yul\":2089:2104   */\n      add\n        /* \"#utility.yul\":2081:2104   */\n      swap1\n      pop\n        /* \"#utility.yul\":1803:2111   */\n      swap2\n      swap1\n      pop\n      jump\t// out\n        /* \"#utility.yul\":2117:2263   */\n    tag_54:\n        /* \"#utility.yul\":2214:2220   */\n      dup3\n        /* \"#utility.yul\":2209:2212   */\n      dup2\n        /* \"#utility.yul\":2204:2207   */\n      dup4\n        /* \"#utility.yul\":2191:2221   */\n      calldatacopy\n        /* \"#utility.yul\":2255:2256   */\n      0x00\n        /* \"#utility.yul\":2246:2252   */\n      dup4\n        /* \"#utility.yul\":2241:2244   */\n      dup4\n        /* \"#utility.yul\":2237:2253   */\n      add\n        /* \"#utility.yul\":2230:2257   */\n      mstore\n        /* \"#utility.yul\":2117:2263   */\n      pop\n      pop\n      pop\n      jump\t// out\n        /* \"#utility.yul\":2269:2694   */\n    tag_55:\n        /* \"#utility.yul\":2347:2352   */\n      0x00\n        /* \"#utility.yul\":2372:2438   */\n      tag_106\n        /* \"#utility.yul\":2388:2437   */\n      tag_107\n        /* \"#utility.yul\":2430:2436   */\n      dup5\n        /* \"#utility.yul\":2388:2437   */\n      tag_53\n      jump\t// in\n    tag_107:\n        /* \"#utility.yul\":2372:2438   */\n      tag_52\n      jump\t// in\n    tag_106:\n        /* \"#utility.yul\":2363:2438   */\n      swap1\n      pop\n        /* \"#utility.yul\":2461:2467   */\n      dup3\n        /* \"#utility.yul\":2454:2459   */\n      dup2\n        /* \"#utility.yul\":2447:2468   */\n      mstore\n        /* \"#utility.yul\":2499:2503   */\n      0x20\n        /* \"#utility.yul\":2492:2497   */\n      dup2\n        /* \"#utility.yul\":2488:2504   */\n      add\n        /* \"#utility.yul\":2537:2540   */\n      dup5\n        /* \"#utility.yul\":2528:2534   */\n      dup5\n        /* \"#utility.yul\":2523:2526   */\n      dup5\n        /* \"#utility.yul\":2519:2535   */\n      add\n        /* \"#utility.yul\":2516:2541   */\n      gt\n        /* \"#utility.yul\":2513:2625   */\n      iszero\n      tag_108\n      jumpi\n        /* \"#utility.yul\":2544:2623   */\n      tag_109\n      tag_48\n      jump\t// in\n    tag_109:\n        /* \"#utility.yul\":2513:2625   */\n    tag_108:\n        /* \"#utility.yul\":2634:2688   */\n      tag_110\n        /* \"#utility.yul\":2681:2687   */\n      dup5\n        /* \"#utility.yul\":2676:2679   */\n      dup3\n        /* \"#utility.yul\":2671:2674   */\n      dup6\n        /* \"#utility.yul\":2634:2688   */\n      tag_54\n      jump\t// in\n    tag_110:\n        /* \"#utility.yul\":2353:2694   */\n      pop\n        /* \"#utility.yul\":2269:2694   */\n      swap4\n      swap3\n      pop\n      pop\n      pop\n      jump\t// out\n        /* \"#utility.yul\":2714:3054   */\n    tag_56:\n        /* \"#utility.yul\":2770:2775   */\n      0x00\n        /* \"#utility.yul\":2819:2822   */\n      dup3\n        /* \"#utility.yul\":2812:2816   */\n      0x1f\n        /* \"#utility.yul\":2804:2810   */\n      dup4\n        /* \"#utility.yul\":2800:2817   */\n      add\n        /* \"#utility.yul\":2796:2823   */\n      slt\n        /* \"#utility.yul\":2786:2908   */\n      tag_112\n      jumpi\n        /* \"#utility.yul\":2827:2906   */\n      tag_113\n      tag_47\n      jump\t// in\n    tag_113:\n        /* \"#utility.yul\":2786:2908   */\n    tag_112:\n        /* \"#utility.yul\":2944:2950   */\n      dup2\n        /* \"#utility.yul\":2931:2951   */\n      calldataload\n        /* \"#utility.yul\":2969:3048   */\n      tag_114\n        /* \"#utility.yul\":3044:3047   */\n      dup5\n        /* \"#utility.yul\":3036:3042   */\n      dup3\n        /* \"#utility.yul\":3029:3033   */\n      0x20\n        /* \"#utility.yul\":3021:3027   */\n      dup7\n        /* \"#utility.yul\":3017:3034   */\n      add\n        /* \"#utility.yul\":2969:3048   */\n      tag_55\n      jump\t// in\n    tag_114:\n        /* \"#utility.yul\":2960:3048   */\n      swap2\n      pop\n        /* \"#utility.yul\":2776:3054   */\n      pop\n        /* \"#utility.yul\":2714:3054   */\n      swap3\n      swap2\n      pop\n      pop\n      jump\t// out\n        /* \"#utility.yul\":3060:3367   */\n    tag_57:\n        /* \"#utility.yul\":3121:3125   */\n      0x00\n        /* \"#utility.yul\":3211:3229   */\n      0xffffffffffffffff\n        /* \"#utility.yul\":3203:3209   */\n      dup3\n        /* \"#utility.yul\":3200:3230   */\n      gt\n        /* \"#utility.yul\":3197:3253   */\n      iszero\n      tag_116\n      jumpi\n        /* \"#utility.yul\":3233:3251   */\n      tag_117\n      tag_50\n      jump\t// in\n    tag_117:\n        /* \"#utility.yul\":3197:3253   */\n    tag_116:\n        /* \"#utility.yul\":3271:3300   */\n      tag_118\n        /* \"#utility.yul\":3293:3299   */\n      dup3\n        /* \"#utility.yul\":3271:3300   */\n      tag_49\n      jump\t// in\n    tag_118:\n        /* \"#utility.yul\":3263:3300   */\n      swap1\n      pop\n        /* \"#utility.yul\":3355:3359   */\n      0x20\n        /* \"#utility.yul\":3349:3353   */\n      dup2\n        /* \"#utility.yul\":3345:3360   */\n      add\n        /* \"#utility.yul\":3337:3360   */\n      swap1\n      pop\n        /* \"#utility.yul\":3060:3367   */\n      swap2\n      swap1\n      pop\n      jump\t// out\n        /* \"#utility.yul\":3373:3796   */\n    tag_58:\n        /* \"#utility.yul\":3450:3455   */\n      0x00\n        /* \"#utility.yul\":3475:3540   */\n      tag_120\n        /* \"#utility.yul\":3491:3539   */\n      tag_121\n        /* \"#utility.yul\":3532:3538   */\n      dup5\n        /* \"#utility.yul\":3491:3539   */\n      tag_57\n      jump\t// in\n    tag_121:\n        /* \"#utility.yul\":3475:3540   */\n      tag_52\n      jump\t// in\n    tag_120:\n        /* \"#utility.yul\":3466:3540   */\n      swap1\n      pop\n        /* \"#utility.yul\":3563:3569   */\n      dup3\n        /* \"#utility.yul\":3556:3561   */\n      dup2\n        /* \"#utility.yul\":3549:3570   */\n      mstore\n        /* \"#utility.yul\":3601:3605   */\n      0x20\n        /* \"#utility.yul\":3594:3599   */\n      dup2\n        /* \"#utility.yul\":3590:3606   */\n      add\n        /* \"#utility.yul\":3639:3642   */\n      dup5\n        /* \"#utility.yul\":3630:3636   */\n      dup5\n        /* \"#utility.yul\":3625:3628   */\n      dup5\n        /* \"#utility.yul\":3621:3637   */\n      add\n        /* \"#utility.yul\":3618:3643   */\n      gt\n        /* \"#utility.yul\":3615:3727   */\n      iszero\n      tag_122\n      jumpi\n        /* \"#utility.yul\":3646:3725   */\n      tag_123\n      tag_48\n      jump\t// in\n    tag_123:\n        /* \"#utility.yul\":3615:3727   */\n    tag_122:\n        /* \"#utility.yul\":3736:3790   */\n      tag_124\n        /* \"#utility.yul\":3783:3789   */\n      dup5\n        /* \"#utility.yul\":3778:3781   */\n      dup3\n        /* \"#utility.yul\":3773:3776   */\n      dup6\n        /* \"#utility.yul\":3736:3790   */\n      tag_54\n      jump\t// in\n    tag_124:\n        /* \"#utility.yul\":3456:3796   */\n      pop\n        /* \"#utility.yul\":3373:3796   */\n      swap4\n      swap3\n      pop\n      pop\n      pop\n      jump\t// out\n        /* \"#utility.yul\":3815:4153   */\n    tag_59:\n        /* \"#utility.yul\":3870:3875   */\n      0x00\n        /* \"#utility.yul\":3919:3922   */\n      dup3\n        /* \"#utility.yul\":3912:3916   */\n      0x1f\n        /* \"#utility.yul\":3904:3910   */\n      dup4\n        /* \"#utility.yul\":3900:3917   */\n      add\n        /* \"#utility.yul\":3896:3923   */\n      slt\n        /* \"#utility.yul\":3886:4008   */\n      tag_126\n      jumpi\n        /* \"#utility.yul\":3927:4006   */\n      tag_127\n      tag_47\n      jump\t// in\n    tag_127:\n        /* \"#utility.yul\":3886:4008   */\n    tag_126:\n        /* \"#utility.yul\":4044:4050   */\n      dup2\n        /* \"#utility.yul\":4031:4051   */\n      calldataload\n        /* \"#utility.yul\":4069:4147   */\n      tag_128\n        /* \"#utility.yul\":4143:4146   */\n      dup5\n        /* \"#utility.yul\":4135:4141   */\n      dup3\n        /* \"#utility.yul\":4128:4132   */\n      0x20\n        /* \"#utility.yul\":4120:4126   */\n      dup7\n        /* \"#utility.yul\":4116:4133   */\n      add\n        /* \"#utility.yul\":4069:4147   */\n      tag_58\n      jump\t// in\n    tag_128:\n        /* \"#utility.yul\":4060:4147   */\n      swap2\n      pop\n        /* \"#utility.yul\":3876:4153   */\n      pop\n        /* \"#utility.yul\":3815:4153   */\n      swap3\n      swap2\n      pop\n      pop\n      jump\t// out\n        /* \"#utility.yul\":4159:5136   */\n    tag_7:\n        /* \"#utility.yul\":4255:4261   */\n      0x00\n        /* \"#utility.yul\":4263:4269   */\n      dup1\n        /* \"#utility.yul\":4271:4277   */\n      0x00\n        /* \"#utility.yul\":4320:4322   */\n      0x60\n        /* \"#utility.yul\":4308:4317   */\n      dup5\n        /* \"#utility.yul\":4299:4306   */\n      dup7\n        /* \"#utility.yul\":4295:4318   */\n      sub\n        /* \"#utility.yul\":4291:4323   */\n      slt\n        /* \"#utility.yul\":4288:4407   */\n      iszero\n      tag_130\n      jumpi\n        /* \"#utility.yul\":4326:4405   */\n      tag_131\n      tag_41\n      jump\t// in\n    tag_131:\n        /* \"#utility.yul\":4288:4407   */\n    tag_130:\n        /* \"#utility.yul\":4446:4447   */\n      0x00\n        /* \"#utility.yul\":4471:4524   */\n      tag_132\n        /* \"#utility.yul\":4516:4523   */\n      dup7\n        /* \"#utility.yul\":4507:4513   */\n      dup3\n        /* \"#utility.yul\":4496:4505   */\n      dup8\n        /* \"#utility.yul\":4492:4514   */\n      add\n        /* \"#utility.yul\":4471:4524   */\n      tag_46\n      jump\t// in\n    tag_132:\n        /* \"#utility.yul\":4461:4524   */\n      swap4\n      pop\n        /* \"#utility.yul\":4417:4534   */\n      pop\n        /* \"#utility.yul\":4601:4603   */\n      0x20\n        /* \"#utility.yul\":4590:4599   */\n      dup5\n        /* \"#utility.yul\":4586:4604   */\n      add\n        /* \"#utility.yul\":4573:4605   */\n      calldataload\n        /* \"#utility.yul\":4632:4650   */\n      0xffffffffffffffff\n        /* \"#utility.yul\":4624:4630   */\n      dup2\n        /* \"#utility.yul\":4621:4651   */\n      gt\n        /* \"#utility.yul\":4618:4735   */\n      iszero\n      tag_133\n      jumpi\n        /* \"#utility.yul\":4654:4733   */\n      tag_134\n      tag_42\n      jump\t// in\n    tag_134:\n        /* \"#utility.yul\":4618:4735   */\n    tag_133:\n        /* \"#utility.yul\":4759:4822   */\n      tag_135\n        /* \"#utility.yul\":4814:4821   */\n      dup7\n        /* \"#utility.yul\":4805:4811   */\n      dup3\n        /* \"#utility.yul\":4794:4803   */\n      dup8\n        /* \"#utility.yul\":4790:4812   */\n      add\n        /* \"#utility.yul\":4759:4822   */\n      tag_56\n      jump\t// in\n    tag_135:\n        /* \"#utility.yul\":4749:4822   */\n      swap3\n      pop\n        /* \"#utility.yul\":4544:4832   */\n      pop\n        /* \"#utility.yul\":4899:4901   */\n      0x40\n        /* \"#utility.yul\":4888:4897   */\n      dup5\n        /* \"#utility.yul\":4884:4902   */\n      add\n        /* \"#utility.yul\":4871:4903   */\n      calldataload\n        /* \"#utility.yul\":4930:4948   */\n      0xffffffffffffffff\n        /* \"#utility.yul\":4922:4928   */\n      dup2\n        /* \"#utility.yul\":4919:4949   */\n      gt\n        /* \"#utility.yul\":4916:5033   */\n      iszero\n      tag_136\n      jumpi\n        /* \"#utility.yul\":4952:5031   */\n      tag_137\n      tag_42\n      jump\t// in\n    tag_137:\n        /* \"#utility.yul\":4916:5033   */\n    tag_136:\n        /* \"#utility.yul\":5057:5119   */\n      tag_138\n        /* \"#utility.yul\":5111:5118   */\n      dup7\n        /* \"#utility.yul\":5102:5108   */\n      dup3\n        /* \"#utility.yul\":5091:5100   */\n      dup8\n        /* \"#utility.yul\":5087:5109   */\n      add\n        /* \"#utility.yul\":5057:5119   */\n      tag_59\n      jump\t// in\n    tag_138:\n        /* \"#utility.yul\":5047:5119   */\n      swap2\n      pop\n        /* \"#utility.yul\":4842:5129   */\n      pop\n        /* \"#utility.yul\":4159:5136   */\n      swap3\n      pop\n      swap3\n      pop\n      swap3\n      jump\t// out\n        /* \"#utility.yul\":5142:5232   */\n    tag_60:\n        /* \"#utility.yul\":5176:5183   */\n      0x00\n        /* \"#utility.yul\":5219:5224   */\n      dup2\n        /* \"#utility.yul\":5212:5225   */\n      iszero\n        /* \"#utility.yul\":5205:5226   */\n      iszero\n        /* \"#utility.yul\":5194:5226   */\n      swap1\n      pop\n        /* \"#utility.yul\":5142:5232   */\n      swap2\n      swap1\n      pop\n      jump\t// out\n        /* \"#utility.yul\":5238:5347   */\n    tag_61:\n        /* \"#utility.yul\":5319:5340   */\n      tag_141\n        /* \"#utility.yul\":5334:5339   */\n      dup2\n        /* \"#utility.yul\":5319:5340   */\n      tag_60\n      jump\t// in\n    tag_141:\n        /* \"#utility.yul\":5314:5317   */\n      dup3\n        /* \"#utility.yul\":5307:5341   */\n      mstore\n        /* \"#utility.yul\":5238:5347   */\n      pop\n      pop\n      jump\t// out\n        /* \"#utility.yul\":5353:5563   */\n    tag_10:\n        /* \"#utility.yul\":5440:5444   */\n      0x00\n        /* \"#utility.yul\":5478:5480   */\n      0x20\n        /* \"#utility.yul\":5467:5476   */\n      dup3\n        /* \"#utility.yul\":5463:5481   */\n      add\n        /* \"#utility.yul\":5455:5481   */\n      swap1\n      pop\n        /* \"#utility.yul\":5491:5556   */\n      tag_143\n        /* \"#utility.yul\":5553:5554   */\n      0x00\n        /* \"#utility.yul\":5542:5551   */\n      dup4\n        /* \"#utility.yul\":5538:5555   */\n      add\n        /* \"#utility.yul\":5529:5535   */\n      dup5\n        /* \"#utility.yul\":5491:5556   */\n      tag_61\n      jump\t// in\n    tag_143:\n        /* \"#utility.yul\":5353:5563   */\n      swap3\n      swap2\n      pop\n      pop\n      jump\t// out\n        /* \"#utility.yul\":5569:6078   */\n    tag_13:\n        /* \"#utility.yul\":5638:5644   */\n      0x00\n        /* \"#utility.yul\":5687:5689   */\n      0x20\n        /* \"#utility.yul\":5675:5684   */\n      dup3\n        /* \"#utility.yul\":5666:5673   */\n      dup5\n        /* \"#utility.yul\":5662:5685   */\n      sub\n        /* \"#utility.yul\":5658:5690   */\n      slt\n        /* \"#utility.yul\":5655:5774   */\n      iszero\n      tag_145\n      jumpi\n        /* \"#utility.yul\":5693:5772   */\n      tag_146\n      tag_41\n      jump\t// in\n    tag_146:\n        /* \"#utility.yul\":5655:5774   */\n    tag_145:\n        /* \"#utility.yul\":5841:5842   */\n      0x00\n        /* \"#utility.yul\":5830:5839   */\n      dup3\n        /* \"#utility.yul\":5826:5843   */\n      add\n        /* \"#utility.yul\":5813:5844   */\n      calldataload\n        /* \"#utility.yul\":5871:5889   */\n      0xffffffffffffffff\n        /* \"#utility.yul\":5863:5869   */\n      dup2\n        /* \"#utility.yul\":5860:5890   */\n      gt\n        /* \"#utility.yul\":5857:5974   */\n      iszero\n      tag_147\n      jumpi\n        /* \"#utility.yul\":5893:5972   */\n      tag_148\n      tag_42\n      jump\t// in\n    tag_148:\n        /* \"#utility.yul\":5857:5974   */\n    tag_147:\n        /* \"#utility.yul\":5998:6061   */\n      tag_149\n        /* \"#utility.yul\":6053:6060   */\n      dup5\n        /* \"#utility.yul\":6044:6050   */\n      dup3\n        /* \"#utility.yul\":6033:6042   */\n      dup6\n        /* \"#utility.yul\":6029:6051   */\n      add\n        /* \"#utility.yul\":5998:6061   */\n      tag_56\n      jump\t// in\n    tag_149:\n        /* \"#utility.yul\":5988:6061   */\n      swap2\n      pop\n        /* \"#utility.yul\":5784:6071   */\n      pop\n        /* \"#utility.yul\":5569:6078   */\n      swap3\n      swap2\n      pop\n      pop\n      jump\t// out\n        /* \"#utility.yul\":6084:6161   */\n    tag_62:\n        /* \"#utility.yul\":6121:6128   */\n      0x00\n        /* \"#utility.yul\":6150:6155   */\n      dup2\n        /* \"#utility.yul\":6139:6155   */\n      swap1\n      pop\n        /* \"#utility.yul\":6084:6161   */\n      swap2\n      swap1\n      pop\n      jump\t// out\n        /* \"#utility.yul\":6167:6285   */\n    tag_63:\n        /* \"#utility.yul\":6254:6278   */\n      tag_152\n        /* \"#utility.yul\":6272:6277   */\n      dup2\n        /* \"#utility.yul\":6254:6278   */\n      tag_62\n      jump\t// in\n    tag_152:\n        /* \"#utility.yul\":6249:6252   */\n      dup3\n        /* \"#utility.yul\":6242:6279   */\n      mstore\n        /* \"#utility.yul\":6167:6285   */\n      pop\n      pop\n      jump\t// out\n        /* \"#utility.yul\":6291:6513   */\n    tag_16:\n        /* \"#utility.yul\":6384:6388   */\n      0x00\n        /* \"#utility.yul\":6422:6424   */\n      0x20\n        /* \"#utility.yul\":6411:6420   */\n      dup3\n        /* \"#utility.yul\":6407:6425   */\n      add\n        /* \"#utility.yul\":6399:6425   */\n      swap1\n      pop\n        /* \"#utility.yul\":6435:6506   */\n      tag_154\n        /* \"#utility.yul\":6503:6504   */\n      0x00\n        /* \"#utility.yul\":6492:6501   */\n      dup4\n        /* \"#utility.yul\":6488:6505   */\n      add\n        /* \"#utility.yul\":6479:6485   */\n      dup5\n        /* \"#utility.yul\":6435:6506   */\n      tag_63\n      jump\t// in\n    tag_154:\n        /* \"#utility.yul\":6291:6513   */\n      swap3\n      swap2\n      pop\n      pop\n      jump\t// out\n        /* \"#utility.yul\":6519:6618   */\n    tag_64:\n        /* \"#utility.yul\":6571:6577   */\n      0x00\n        /* \"#utility.yul\":6605:6610   */\n      dup2\n        /* \"#utility.yul\":6599:6611   */\n      mload\n        /* \"#utility.yul\":6589:6611   */\n      swap1\n      pop\n        /* \"#utility.yul\":6519:6618   */\n      swap2\n      swap1\n      pop\n      jump\t// out\n        /* \"#utility.yul\":6624:6772   */\n    tag_65:\n        /* \"#utility.yul\":6726:6737   */\n      0x00\n        /* \"#utility.yul\":6763:6766   */\n      dup2\n        /* \"#utility.yul\":6748:6766   */\n      swap1\n      pop\n        /* \"#utility.yul\":6624:6772   */\n      swap3\n      swap2\n      pop\n      pop\n      jump\t// out\n        /* \"#utility.yul\":6778:7024   */\n    tag_66:\n        /* \"#utility.yul\":6859:6860   */\n      0x00\n        /* \"#utility.yul\":6869:6982   */\n    tag_158:\n        /* \"#utility.yul\":6883:6889   */\n      dup4\n        /* \"#utility.yul\":6880:6881   */\n      dup2\n        /* \"#utility.yul\":6877:6890   */\n      lt\n        /* \"#utility.yul\":6869:6982   */\n      iszero\n      tag_160\n      jumpi\n        /* \"#utility.yul\":6968:6969   */\n      dup1\n        /* \"#utility.yul\":6963:6966   */\n      dup3\n        /* \"#utility.yul\":6959:6970   */\n      add\n        /* \"#utility.yul\":6953:6971   */\n      mload\n        /* \"#utility.yul\":6949:6950   */\n      dup2\n        /* \"#utility.yul\":6944:6947   */\n      dup5\n        /* \"#utility.yul\":6940:6951   */\n      add\n        /* \"#utility.yul\":6933:6972   */\n      mstore\n        /* \"#utility.yul\":6905:6907   */\n      0x20\n        /* \"#utility.yul\":6902:6903   */\n      dup2\n        /* \"#utility.yul\":6898:6908   */\n      add\n        /* \"#utility.yul\":6893:6908   */\n      swap1\n      pop\n        /* \"#utility.yul\":6869:6982   */\n      jump(tag_158)\n    tag_160:\n        /* \"#utility.yul\":7016:7017   */\n      0x00\n        /* \"#utility.yul\":7007:7013   */\n      dup5\n        /* \"#utility.yul\":7002:7005   */\n      dup5\n        /* \"#utility.yul\":6998:7014   */\n      add\n        /* \"#utility.yul\":6991:7018   */\n      mstore\n        /* \"#utility.yul\":6840:7024   */\n      pop\n        /* \"#utility.yul\":6778:7024   */\n      pop\n      pop\n      pop\n      jump\t// out\n        /* \"#utility.yul\":7030:7420   */\n    tag_67:\n        /* \"#utility.yul\":7136:7139   */\n      0x00\n        /* \"#utility.yul\":7164:7203   */\n      tag_162\n        /* \"#utility.yul\":7197:7202   */\n      dup3\n        /* \"#utility.yul\":7164:7203   */\n      tag_64\n      jump\t// in\n    tag_162:\n        /* \"#utility.yul\":7219:7308   */\n      tag_163\n        /* \"#utility.yul\":7301:7307   */\n      dup2\n        /* \"#utility.yul\":7296:7299   */\n      dup6\n        /* \"#utility.yul\":7219:7308   */\n      tag_65\n      jump\t// in\n    tag_163:\n        /* \"#utility.yul\":7212:7308   */\n      swap4\n      pop\n        /* \"#utility.yul\":7317:7382   */\n      tag_164\n        /* \"#utility.yul\":7375:7381   */\n      dup2\n        /* \"#utility.yul\":7370:7373   */\n      dup6\n        /* \"#utility.yul\":7363:7367   */\n      0x20\n        /* \"#utility.yul\":7356:7361   */\n      dup7\n        /* \"#utility.yul\":7352:7368   */\n      add\n        /* \"#utility.yul\":7317:7382   */\n      tag_66\n      jump\t// in\n    tag_164:\n        /* \"#utility.yul\":7407:7413   */\n      dup1\n        /* \"#utility.yul\":7402:7405   */\n      dup5\n        /* \"#utility.yul\":7398:7414   */\n      add\n        /* \"#utility.yul\":7391:7414   */\n      swap2\n      pop\n        /* \"#utility.yul\":7140:7420   */\n      pop\n        /* \"#utility.yul\":7030:7420   */\n      swap3\n      swap2\n      pop\n      pop\n      jump\t// out\n        /* \"#utility.yul\":7426:7701   */\n    tag_25:\n        /* \"#utility.yul\":7558:7561   */\n      0x00\n        /* \"#utility.yul\":7580:7675   */\n      tag_166\n        /* \"#utility.yul\":7671:7674   */\n      dup3\n        /* \"#utility.yul\":7662:7668   */\n      dup5\n        /* \"#utility.yul\":7580:7675   */\n      tag_67\n      jump\t// in\n    tag_166:\n        /* \"#utility.yul\":7573:7675   */\n      swap2\n      pop\n        /* \"#utility.yul\":7692:7695   */\n      dup2\n        /* \"#utility.yul\":7685:7695   */\n      swap1\n      pop\n        /* \"#utility.yul\":7426:7701   */\n      swap3\n      swap2\n      pop\n      pop\n      jump\t// out\n        /* \"#utility.yul\":7707:7921   */\n    tag_68:\n        /* \"#utility.yul\":7847:7913   */\n      0x19457468657265756d205369676e6564204d6573736167653a0a333200000000\n        /* \"#utility.yul\":7843:7844   */\n      0x00\n        /* \"#utility.yul\":7835:7841   */\n      dup3\n        /* \"#utility.yul\":7831:7845   */\n      add\n        /* \"#utility.yul\":7824:7914   */\n      mstore\n        /* \"#utility.yul\":7707:7921   */\n      pop\n      jump\t// out\n        /* \"#utility.yul\":7927:8329   */\n    tag_69:\n        /* \"#utility.yul\":8087:8090   */\n      0x00\n        /* \"#utility.yul\":8108:8193   */\n      tag_169\n        /* \"#utility.yul\":8190:8192   */\n      0x1c\n        /* \"#utility.yul\":8185:8188   */\n      dup4\n        /* \"#utility.yul\":8108:8193   */\n      tag_65\n      jump\t// in\n    tag_169:\n        /* \"#utility.yul\":8101:8193   */\n      swap2\n      pop\n        /* \"#utility.yul\":8202:8295   */\n      tag_170\n        /* \"#utility.yul\":8291:8294   */\n      dup3\n        /* \"#utility.yul\":8202:8295   */\n      tag_68\n      jump\t// in\n    tag_170:\n        /* \"#utility.yul\":8320:8322   */\n      0x1c\n        /* \"#utility.yul\":8315:8318   */\n      dup3\n        /* \"#utility.yul\":8311:8323   */\n      add\n        /* \"#utility.yul\":8304:8323   */\n      swap1\n      pop\n        /* \"#utility.yul\":7927:8329   */\n      swap2\n      swap1\n      pop\n      jump\t// out\n        /* \"#utility.yul\":8335:8414   */\n    tag_70:\n        /* \"#utility.yul\":8374:8381   */\n      0x00\n        /* \"#utility.yul\":8403:8408   */\n      dup2\n        /* \"#utility.yul\":8392:8408   */\n      swap1\n      pop\n        /* \"#utility.yul\":8335:8414   */\n      swap2\n      swap1\n      pop\n      jump\t// out\n        /* \"#utility.yul\":8420:8577   */\n    tag_71:\n        /* \"#utility.yul\":8525:8570   */\n      tag_173\n        /* \"#utility.yul\":8545:8569   */\n      tag_174\n        /* \"#utility.yul\":8563:8568   */\n      dup3\n        /* \"#utility.yul\":8545:8569   */\n      tag_62\n      jump\t// in\n    tag_174:\n        /* \"#utility.yul\":8525:8570   */\n      tag_70\n      jump\t// in\n    tag_173:\n        /* \"#utility.yul\":8520:8523   */\n      dup3\n        /* \"#utility.yul\":8513:8571   */\n      mstore\n        /* \"#utility.yul\":8420:8577   */\n      pop\n      pop\n      jump\t// out\n        /* \"#utility.yul\":8583:9105   */\n    tag_28:\n        /* \"#utility.yul\":8796:8799   */\n      0x00\n        /* \"#utility.yul\":8818:8966   */\n      tag_176\n        /* \"#utility.yul\":8962:8965   */\n      dup3\n        /* \"#utility.yul\":8818:8966   */\n      tag_69\n      jump\t// in\n    tag_176:\n        /* \"#utility.yul\":8811:8966   */\n      swap2\n      pop\n        /* \"#utility.yul\":8976:9051   */\n      tag_177\n        /* \"#utility.yul\":9047:9050   */\n      dup3\n        /* \"#utility.yul\":9038:9044   */\n      dup5\n        /* \"#utility.yul\":8976:9051   */\n      tag_71\n      jump\t// in\n    tag_177:\n        /* \"#utility.yul\":9076:9078   */\n      0x20\n        /* \"#utility.yul\":9071:9074   */\n      dup3\n        /* \"#utility.yul\":9067:9079   */\n      add\n        /* \"#utility.yul\":9060:9079   */\n      swap2\n      pop\n        /* \"#utility.yul\":9096:9099   */\n      dup2\n        /* \"#utility.yul\":9089:9099   */\n      swap1\n      pop\n        /* \"#utility.yul\":8583:9105   */\n      swap3\n      swap2\n      pop\n      pop\n      jump\t// out\n        /* \"#utility.yul\":9111:9197   */\n    tag_72:\n        /* \"#utility.yul\":9146:9153   */\n      0x00\n        /* \"#utility.yul\":9186:9190   */\n      0xff\n        /* \"#utility.yul\":9179:9184   */\n      dup3\n        /* \"#utility.yul\":9175:9191   */\n      and\n        /* \"#utility.yul\":9164:9191   */\n      swap1\n      pop\n        /* \"#utility.yul\":9111:9197   */\n      swap2\n      swap1\n      pop\n      jump\t// out\n        /* \"#utility.yul\":9203:9315   */\n    tag_73:\n        /* \"#utility.yul\":9286:9308   */\n      tag_180\n        /* \"#utility.yul\":9302:9307   */\n      dup2\n        /* \"#utility.yul\":9286:9308   */\n      tag_72\n      jump\t// in\n    tag_180:\n        /* \"#utility.yul\":9281:9284   */\n      dup3\n        /* \"#utility.yul\":9274:9309   */\n      mstore\n        /* \"#utility.yul\":9203:9315   */\n      pop\n      pop\n      jump\t// out\n        /* \"#utility.yul\":9321:9866   */\n    tag_33:\n        /* \"#utility.yul\":9494:9498   */\n      0x00\n        /* \"#utility.yul\":9532:9535   */\n      0x80\n        /* \"#utility.yul\":9521:9530   */\n      dup3\n        /* \"#utility.yul\":9517:9536   */\n      add\n        /* \"#utility.yul\":9509:9536   */\n      swap1\n      pop\n        /* \"#utility.yul\":9546:9617   */\n      tag_182\n        /* \"#utility.yul\":9614:9615   */\n      0x00\n        /* \"#utility.yul\":9603:9612   */\n      dup4\n        /* \"#utility.yul\":9599:9616   */\n      add\n        /* \"#utility.yul\":9590:9596   */\n      dup8\n        /* \"#utility.yul\":9546:9617   */\n      tag_63\n      jump\t// in\n    tag_182:\n        /* \"#utility.yul\":9627:9695   */\n      tag_183\n        /* \"#utility.yul\":9691:9693   */\n      0x20\n        /* \"#utility.yul\":9680:9689   */\n      dup4\n        /* \"#utility.yul\":9676:9694   */\n      add\n        /* \"#utility.yul\":9667:9673   */\n      dup7\n        /* \"#utility.yul\":9627:9695   */\n      tag_73\n      jump\t// in\n    tag_183:\n        /* \"#utility.yul\":9705:9777   */\n      tag_184\n        /* \"#utility.yul\":9773:9775   */\n      0x40\n        /* \"#utility.yul\":9762:9771   */\n      dup4\n        /* \"#utility.yul\":9758:9776   */\n      add\n        /* \"#utility.yul\":9749:9755   */\n      dup6\n        /* \"#utility.yul\":9705:9777   */\n      tag_63\n      jump\t// in\n    tag_184:\n        /* \"#utility.yul\":9787:9859   */\n      tag_185\n        /* \"#utility.yul\":9855:9857   */\n      0x60\n        /* \"#utility.yul\":9844:9853   */\n      dup4\n        /* \"#utility.yul\":9840:9858   */\n      add\n        /* \"#utility.yul\":9831:9837   */\n      dup5\n        /* \"#utility.yul\":9787:9859   */\n      tag_63\n      jump\t// in\n    tag_185:\n        /* \"#utility.yul\":9321:9866   */\n      swap6\n      swap5\n      pop\n      pop\n      pop\n      pop\n      pop\n      jump\t// out\n        /* \"#utility.yul\":9872:10041   */\n    tag_74:\n        /* \"#utility.yul\":9956:9967   */\n      0x00\n        /* \"#utility.yul\":9990:9996   */\n      dup3\n        /* \"#utility.yul\":9985:9988   */\n      dup3\n        /* \"#utility.yul\":9978:9997   */\n      mstore\n        /* \"#utility.yul\":10030:10034   */\n      0x20\n        /* \"#utility.yul\":10025:10028   */\n      dup3\n        /* \"#utility.yul\":10021:10035   */\n      add\n        /* \"#utility.yul\":10006:10035   */\n      swap1\n      pop\n        /* \"#utility.yul\":9872:10041   */\n      swap3\n      swap2\n      pop\n      pop\n      jump\t// out\n        /* \"#utility.yul\":10047:10221   */\n    tag_75:\n        /* \"#utility.yul\":10187:10213   */\n      0x696e76616c6964207369676e6174757265206c656e6774680000000000000000\n        /* \"#utility.yul\":10183:10184   */\n      0x00\n        /* \"#utility.yul\":10175:10181   */\n      dup3\n        /* \"#utility.yul\":10171:10185   */\n      add\n        /* \"#utility.yul\":10164:10214   */\n      mstore\n        /* \"#utility.yul\":10047:10221   */\n      pop\n      jump\t// out\n        /* \"#utility.yul\":10227:10593   */\n    tag_76:\n        /* \"#utility.yul\":10369:10372   */\n      0x00\n        /* \"#utility.yul\":10390:10457   */\n      tag_189\n        /* \"#utility.yul\":10454:10456   */\n      0x18\n        /* \"#utility.yul\":10449:10452   */\n      dup4\n        /* \"#utility.yul\":10390:10457   */\n      tag_74\n      jump\t// in\n    tag_189:\n        /* \"#utility.yul\":10383:10457   */\n      swap2\n      pop\n        /* \"#utility.yul\":10466:10559   */\n      tag_190\n        /* \"#utility.yul\":10555:10558   */\n      dup3\n        /* \"#utility.yul\":10466:10559   */\n      tag_75\n      jump\t// in\n    tag_190:\n        /* \"#utility.yul\":10584:10586   */\n      0x20\n        /* \"#utility.yul\":10579:10582   */\n      dup3\n        /* \"#utility.yul\":10575:10587   */\n      add\n        /* \"#utility.yul\":10568:10587   */\n      swap1\n      pop\n        /* \"#utility.yul\":10227:10593   */\n      swap2\n      swap1\n      pop\n      jump\t// out\n        /* \"#utility.yul\":10599:11018   */\n    tag_39:\n        /* \"#utility.yul\":10765:10769   */\n      0x00\n        /* \"#utility.yul\":10803:10805   */\n      0x20\n        /* \"#utility.yul\":10792:10801   */\n      dup3\n        /* \"#utility.yul\":10788:10806   */\n      add\n        /* \"#utility.yul\":10780:10806   */\n      swap1\n      pop\n        /* \"#utility.yul\":10852:10861   */\n      dup2\n        /* \"#utility.yul\":10846:10850   */\n      dup2\n        /* \"#utility.yul\":10842:10862   */\n      sub\n        /* \"#utility.yul\":10838:10839   */\n      0x00\n        /* \"#utility.yul\":10827:10836   */\n      dup4\n        /* \"#utility.yul\":10823:10840   */\n      add\n        /* \"#utility.yul\":10816:10863   */\n      mstore\n        /* \"#utility.yul\":10880:11011   */\n      tag_192\n        /* \"#utility.yul\":11006:11010   */\n      dup2\n        /* \"#utility.yul\":10880:11011   */\n      tag_76\n      jump\t// in\n    tag_192:\n        /* \"#utility.yul\":10872:11011   */\n      swap1\n      pop\n        /* \"#utility.yul\":10599:11018   */\n      swap2\n      swap1\n      pop\n      jump\t// out\n\n    auxdata: 0xa2646970667358221220363e4c49117b88ed5dfcb6c7bae9932ffbee0e0de9c18773bcef40097b57e5d064736f6c63430008120033\n}\n",
				"bytecode": {
					"linkReferences": {},
					"object": "608060405234801561001057600080fd5b506107f6806100206000396000f3fe608060405234801561001057600080fd5b50600436106100365760003560e01c80632dd34f0f1461003b578063b446f3b21461006b575b600080fd5b61005560048036038101906100509190610489565b61009b565b604051610062919061052f565b60405180910390f35b6100856004803603810190610080919061054a565b6100f9565b60405161009291906105ac565b60405180910390f35b6000806100a7846100f9565b905060006100b482610129565b90508573ffffffffffffffffffffffffffffffffffffffff166100d78286610159565b73ffffffffffffffffffffffffffffffffffffffff1614925050509392505050565b60008160405160200161010c9190610638565b604051602081830303815290604052805190602001209050919050565b60008160405160200161013c91906106bc565b604051602081830303815290604052805190602001209050919050565b600080600080610168856101c8565b9250925092506001868285856040516000815260200160405260405161019194939291906106fe565b6020604051602081039080840390855afa1580156101b3573d6000803e3d6000fd5b50505060206040510351935050505092915050565b60008060006041845114610211576040517f08c379a0000000000000000000000000000000000000000000000000000000008152600401610208906107a0565b60405180910390fd5b6020840151925060408401519150606084015160001a90509193909250565b6000604051905090565b600080fd5b600080fd5b600073ffffffffffffffffffffffffffffffffffffffff82169050919050565b600061026f82610244565b9050919050565b61027f81610264565b811461028a57600080fd5b50565b60008135905061029c81610276565b92915050565b600080fd5b600080fd5b6000601f19601f8301169050919050565b7f4e487b7100000000000000000000000000000000000000000000000000000000600052604160045260246000fd5b6102f5826102ac565b810181811067ffffffffffffffff82111715610314576103136102bd565b5b80604052505050565b6000610327610230565b905061033382826102ec565b919050565b600067ffffffffffffffff821115610353576103526102bd565b5b61035c826102ac565b9050602081019050919050565b82818337600083830152505050565b600061038b61038684610338565b61031d565b9050828152602081018484840111156103a7576103a66102a7565b5b6103b2848285610369565b509392505050565b600082601f8301126103cf576103ce6102a2565b5b81356103df848260208601610378565b91505092915050565b600067ffffffffffffffff821115610403576104026102bd565b5b61040c826102ac565b9050602081019050919050565b600061042c610427846103e8565b61031d565b905082815260208101848484011115610448576104476102a7565b5b610453848285610369565b509392505050565b600082601f8301126104705761046f6102a2565b5b8135610480848260208601610419565b91505092915050565b6000806000606084860312156104a2576104a161023a565b5b60006104b08682870161028d565b935050602084013567ffffffffffffffff8111156104d1576104d061023f565b5b6104dd868287016103ba565b925050604084013567ffffffffffffffff8111156104fe576104fd61023f565b5b61050a8682870161045b565b9150509250925092565b60008115159050919050565b61052981610514565b82525050565b60006020820190506105446000830184610520565b92915050565b6000602082840312156105605761055f61023a565b5b600082013567ffffffffffffffff81111561057e5761057d61023f565b5b61058a848285016103ba565b91505092915050565b6000819050919050565b6105a681610593565b82525050565b60006020820190506105c1600083018461059d565b92915050565b600081519050919050565b600081905092915050565b60005b838110156105fb5780820151818401526020810190506105e0565b60008484015250505050565b6000610612826105c7565b61061c81856105d2565b935061062c8185602086016105dd565b80840191505092915050565b60006106448284610607565b915081905092915050565b7f19457468657265756d205369676e6564204d6573736167653a0a333200000000600082015250565b6000610685601c836105d2565b91506106908261064f565b601c82019050919050565b6000819050919050565b6106b66106b182610593565b61069b565b82525050565b60006106c782610678565b91506106d382846106a5565b60208201915081905092915050565b600060ff82169050919050565b6106f8816106e2565b82525050565b6000608082019050610713600083018761059d565b61072060208301866106ef565b61072d604083018561059d565b61073a606083018461059d565b95945050505050565b600082825260208201905092915050565b7f696e76616c6964207369676e6174757265206c656e6774680000000000000000600082015250565b600061078a601883610743565b915061079582610754565b602082019050919050565b600060208201905081810360008301526107b98161077d565b905091905056fea2646970667358221220363e4c49117b88ed5dfcb6c7bae9932ffbee0e0de9c18773bcef40097b57e5d064736f6c63430008120033",
					"opcodes": "PUSH1 0x80 PUSH1 0x40 MSTORE CALLVALUE DUP1 ISZERO PUSH2 0x10 JUMPI PUSH1 0x0 DUP1 REVERT JUMPDEST POP PUSH2 0x7F6 DUP1 PUSH2 0x20 PUSH1 0x0 CODECOPY PUSH1 0x0 RETURN INVALID PUSH1 0x80 PUSH1 0x40 MSTORE CALLVALUE DUP1 ISZERO PUSH2 0x10 JUMPI PUSH1 0x0 DUP1 REVERT JUMPDEST POP PUSH1 0x4 CALLDATASIZE LT PUSH2 0x36 JUMPI PUSH1 0x0 CALLDATALOAD PUSH1 0xE0 SHR DUP1 PUSH4 0x2DD34F0F EQ PUSH2 0x3B JUMPI DUP1 PUSH4 0xB446F3B2 EQ PUSH2 0x6B JUMPI JUMPDEST PUSH1 0x0 DUP1 REVERT JUMPDEST PUSH2 0x55 PUSH1 0x4 DUP1 CALLDATASIZE SUB DUP2 ADD SWAP1 PUSH2 0x50 SWAP2 SWAP1 PUSH2 0x489 JUMP JUMPDEST PUSH2 0x9B JUMP JUMPDEST PUSH1 0x40 MLOAD PUSH2 0x62 SWAP2 SWAP1 PUSH2 0x52F JUMP JUMPDEST PUSH1 0x40 MLOAD DUP1 SWAP2 SUB SWAP1 RETURN JUMPDEST PUSH2 0x85 PUSH1 0x4 DUP1 CALLDATASIZE SUB DUP2 ADD SWAP1 PUSH2 0x80 SWAP2 SWAP1 PUSH2 0x54A JUMP JUMPDEST PUSH2 0xF9 JUMP JUMPDEST PUSH1 0x40 MLOAD PUSH2 0x92 SWAP2 SWAP1 PUSH2 0x5AC JUMP JUMPDEST PUSH1 0x40 MLOAD DUP1 SWAP2 SUB SWAP1 RETURN JUMPDEST PUSH1 0x0 DUP1 PUSH2 0xA7 DUP5 PUSH2 0xF9 JUMP JUMPDEST SWAP1 POP PUSH1 0x0 PUSH2 0xB4 DUP3 PUSH2 0x129 JUMP JUMPDEST SWAP1 POP DUP6 PUSH20 0xFFFFFFFFFFFFFFFFFFFFFFFFFFFFFFFFFFFFFFFF AND PUSH2 0xD7 DUP3 DUP7 PUSH2 0x159 JUMP JUMPDEST PUSH20 0xFFFFFFFFFFFFFFFFFFFFFFFFFFFFFFFFFFFFFFFF AND EQ SWAP3 POP POP POP SWAP4 SWAP3 POP POP POP JUMP JUMPDEST PUSH1 0x0 DUP2 PUSH1 0x40 MLOAD PUSH1 0x20 ADD PUSH2 0x10C SWAP2 SWAP1 PUSH2 0x638 JUMP JUMPDEST PUSH1 0x40 MLOAD PUSH1 0x20 DUP2 DUP4 SUB SUB DUP2 MSTORE SWAP1 PUSH1 0x40 MSTORE DUP1 MLOAD SWAP1 PUSH1 0x20 ADD KECCAK256 SWAP1 POP SWAP2 SWAP1 POP JUMP JUMPDEST PUSH1 0x0 DUP2 PUSH1 0x40 MLOAD PUSH1 0x20 ADD PUSH2 0x13C SWAP2 SWAP1 PUSH2 0x6BC JUMP JUMPDEST PUSH1 0x40 MLOAD PUSH1 0x20 DUP2 DUP4 SUB SUB DUP2 MSTORE SWAP1 PUSH1 0x40 MSTORE DUP1 MLOAD SWAP1 PUSH1 0x20 ADD KECCAK256 SWAP1 POP SWAP2 SWAP1 POP JUMP JUMPDEST PUSH1 0x0 DUP1 PUSH1 0x0 DUP1 PUSH2 0x168 DUP6 PUSH2 0x1C8 JUMP JUMPDEST SWAP3 POP SWAP3 POP SWAP3 POP PUSH1 0x1 DUP7 DUP3 DUP6 DUP6 PUSH1 0x40 MLOAD PUSH1 0x0 DUP2 MSTORE PUSH1 0x20 ADD PUSH1 0x40 MSTORE PUSH1 0x40 MLOAD PUSH2 0x191 SWAP5 SWAP4 SWAP3 SWAP2 SWAP1 PUSH2 0x6FE JUMP JUMPDEST PUSH1 0x20 PUSH1 0x40 MLOAD PUSH1 0x20 DUP2 SUB SWAP1 DUP1 DUP5 SUB SWAP1 DUP6 GAS STATICCALL ISZERO DUP1 ISZERO PUSH2 0x1B3 JUMPI RETURNDATASIZE PUSH1 0x0 DUP1 RETURNDATACOPY RETURNDATASIZE PUSH1 0x0 REVERT JUMPDEST POP POP POP PUSH1 0x20 PUSH1 0x40 MLOAD SUB MLOAD SWAP4 POP POP POP POP SWAP3 SWAP2 POP POP JUMP JUMPDEST PUSH1 0x0 DUP1 PUSH1 0x0 PUSH1 0x41 DUP5 MLOAD EQ PUSH2 0x211 JUMPI PUSH1 0x40 MLOAD PUSH32 0x8C379A000000000000000000000000000000000000000000000000000000000 DUP2 MSTORE PUSH1 0x4 ADD PUSH2 0x208 SWAP1 PUSH2 0x7A0 JUMP JUMPDEST PUSH1 0x40 MLOAD DUP1 SWAP2 SUB SWAP1 REVERT JUMPDEST PUSH1 0x20 DUP5 ADD MLOAD SWAP3 POP PUSH1 0x40 DUP5 ADD MLOAD SWAP2 POP PUSH1 0x60 DUP5 ADD MLOAD PUSH1 0x0 BYTE SWAP1 POP SWAP2 SWAP4 SWAP1 SWAP3 POP JUMP JUMPDEST PUSH1 0x0 PUSH1 0x40 MLOAD SWAP1 POP SWAP1 JUMP JUMPDEST PUSH1 0x0 DUP1 REVERT JUMPDEST PUSH1 0x0 DUP1 REVERT JUMPDEST PUSH1 0x0 PUSH20 0xFFFFFFFFFFFFFFFFFFFFFFFFFFFFFFFFFFFFFFFF DUP3 AND SWAP1 POP SWAP2 SWAP1 POP JUMP JUMPDEST PUSH1 0x0 PUSH2 0x26F DUP3 PUSH2 0x244 JUMP JUMPDEST SWAP1 POP SWAP2 SWAP1 POP JUMP JUMPDEST PUSH2 0x27F DUP2 PUSH2 0x264 JUMP JUMPDEST DUP2 EQ PUSH2 0x28A JUMPI PUSH1 0x0 DUP1 REVERT JUMPDEST POP JUMP JUMPDEST PUSH1 0x0 DUP2 CALLDATALOAD SWAP1 POP PUSH2 0x29C DUP2 PUSH2 0x276 JUMP JUMPDEST SWAP3 SWAP2 POP POP JUMP JUMPDEST PUSH1 0x0 DUP1 REVERT JUMPDEST PUSH1 0x0 DUP1 REVERT JUMPDEST PUSH1 0x0 PUSH1 0x1F NOT PUSH1 0x1F DUP4 ADD AND SWAP1 POP SWAP2 SWAP1 POP JUMP JUMPDEST PUSH32 0x4E487B7100000000000000000000000000000000000000000000000000000000 PUSH1 0x0 MSTORE PUSH1 0x41 PUSH1 0x4 MSTORE PUSH1 0x24 PUSH1 0x0 REVERT JUMPDEST PUSH2 0x2F5 DUP3 PUSH2 0x2AC JUMP JUMPDEST DUP2 ADD DUP2 DUP2 LT PUSH8 0xFFFFFFFFFFFFFFFF DUP3 GT OR ISZERO PUSH2 0x314 JUMPI PUSH2 0x313 PUSH2 0x2BD JUMP JUMPDEST JUMPDEST DUP1 PUSH1 0x40 MSTORE POP POP POP JUMP JUMPDEST PUSH1 0x0 PUSH2 0x327 PUSH2 0x230 JUMP JUMPDEST SWAP1 POP PUSH2 0x333 DUP3 DUP3 PUSH2 0x2EC JUMP JUMPDEST SWAP2 SWAP1 POP JUMP JUMPDEST PUSH1 0x0 PUSH8 0xFFFFFFFFFFFFFFFF DUP3 GT ISZERO PUSH2 0x353 JUMPI PUSH2 0x352 PUSH2 0x2BD JUMP JUMPDEST JUMPDEST PUSH2 0x35C DUP3 PUSH2 0x2AC JUMP JUMPDEST SWAP1 POP PUSH1 0x20 DUP2 ADD SWAP1 POP SWAP2 SWAP1 POP JUMP JUMPDEST DUP3 DUP2 DUP4 CALLDATACOPY PUSH1 0x0 DUP4 DUP4 ADD MSTORE POP POP POP JUMP JUMPDEST PUSH1 0x0 PUSH2 0x38B PUSH2 0x386 DUP5 PUSH2 0x338 JUMP JUMPDEST PUSH2 0x31D JUMP JUMPDEST SWAP1 POP DUP3 DUP2 MSTORE PUSH1 0x20 DUP2 ADD DUP5 DUP5 DUP5 ADD GT ISZERO PUSH2 0x3A7 JUMPI PUSH2 0x3A6 PUSH2 0x2A7 JUMP JUMPDEST JUMPDEST PUSH2 0x3B2 DUP5 DUP3 DUP6 PUSH2 0x369 JUMP JUMPDEST POP SWAP4 SWAP3 POP POP POP JUMP JUMPDEST PUSH1 0x0 DUP3 PUSH1 0x1F DUP4 ADD SLT PUSH2 0x3CF JUMPI PUSH2 0x3CE PUSH2 0x2A2 JUMP JUMPDEST JUMPDEST DUP2 CALLDATALOAD PUSH2 0x3DF DUP5 DUP3 PUSH1 0x20 DUP7 ADD PUSH2 0x378 JUMP JUMPDEST SWAP2 POP POP SWAP3 SWAP2 POP POP JUMP JUMPDEST PUSH1 0x0 PUSH8 0xFFFFFFFFFFFFFFFF DUP3 GT ISZERO PUSH2 0x403 JUMPI PUSH2 0x402 PUSH2 0x2BD JUMP JUMPDEST JUMPDEST PUSH2 0x40C DUP3 PUSH2 0x2AC JUMP JUMPDEST SWAP1 POP PUSH1 0x20 DUP2 ADD SWAP1 POP SWAP2 SWAP1 POP JUMP JUMPDEST PUSH1 0x0 PUSH2 0x42C PUSH2 0x427 DUP5 PUSH2 0x3E8 JUMP JUMPDEST PUSH2 0x31D JUMP JUMPDEST SWAP1 POP DUP3 DUP2 MSTORE PUSH1 0x20 DUP2 ADD DUP5 DUP5 DUP5 ADD GT ISZERO PUSH2 0x448 JUMPI PUSH2 0x447 PUSH2 0x2A7 JUMP JUMPDEST JUMPDEST PUSH2 0x453 DUP5 DUP3 DUP6 PUSH2 0x369 JUMP JUMPDEST POP SWAP4 SWAP3 POP POP POP JUMP JUMPDEST PUSH1 0x0 DUP3 PUSH1 0x1F DUP4 ADD SLT PUSH2 0x470 JUMPI PUSH2 0x46F PUSH2 0x2A2 JUMP JUMPDEST JUMPDEST DUP2 CALLDATALOAD PUSH2 0x480 DUP5 DUP3 PUSH1 0x20 DUP7 ADD PUSH2 0x419 JUMP JUMPDEST SWAP2 POP POP SWAP3 SWAP2 POP POP JUMP JUMPDEST PUSH1 0x0 DUP1 PUSH1 0x0 PUSH1 0x60 DUP5 DUP7 SUB SLT ISZERO PUSH2 0x4A2 JUMPI PUSH2 0x4A1 PUSH2 0x23A JUMP JUMPDEST JUMPDEST PUSH1 0x0 PUSH2 0x4B0 DUP7 DUP3 DUP8 ADD PUSH2 0x28D JUMP JUMPDEST SWAP4 POP POP PUSH1 0x20 DUP5 ADD CALLDATALOAD PUSH8 0xFFFFFFFFFFFFFFFF DUP2 GT ISZERO PUSH2 0x4D1 JUMPI PUSH2 0x4D0 PUSH2 0x23F JUMP JUMPDEST JUMPDEST PUSH2 0x4DD DUP7 DUP3 DUP8 ADD PUSH2 0x3BA JUMP JUMPDEST SWAP3 POP POP PUSH1 0x40 DUP5 ADD CALLDATALOAD PUSH8 0xFFFFFFFFFFFFFFFF DUP2 GT ISZERO PUSH2 0x4FE JUMPI PUSH2 0x4FD PUSH2 0x23F JUMP JUMPDEST JUMPDEST PUSH2 0x50A DUP7 DUP3 DUP8 ADD PUSH2 0x45B JUMP JUMPDEST SWAP2 POP POP SWAP3 POP SWAP3 POP SWAP3 JUMP JUMPDEST PUSH1 0x0 DUP2 ISZERO ISZERO SWAP1 POP SWAP2 SWAP1 POP JUMP JUMPDEST PUSH2 0x529 DUP2 PUSH2 0x514 JUMP JUMPDEST DUP3 MSTORE POP POP JUMP JUMPDEST PUSH1 0x0 PUSH1 0x20 DUP3 ADD SWAP1 POP PUSH2 0x544 PUSH1 0x0 DUP4 ADD DUP5 PUSH2 0x520 JUMP JUMPDEST SWAP3 SWAP2 POP POP JUMP JUMPDEST PUSH1 0x0 PUSH1 0x20 DUP3 DUP5 SUB SLT ISZERO PUSH2 0x560 JUMPI PUSH2 0x55F PUSH2 0x23A JUMP JUMPDEST JUMPDEST PUSH1 0x0 DUP3 ADD CALLDATALOAD PUSH8 0xFFFFFFFFFFFFFFFF DUP2 GT ISZERO PUSH2 0x57E JUMPI PUSH2 0x57D PUSH2 0x23F JUMP JUMPDEST JUMPDEST PUSH2 0x58A DUP5 DUP3 DUP6 ADD PUSH2 0x3BA JUMP JUMPDEST SWAP2 POP POP SWAP3 SWAP2 POP POP JUMP JUMPDEST PUSH1 0x0 DUP2 SWAP1 POP SWAP2 SWAP1 POP JUMP JUMPDEST PUSH2 0x5A6 DUP2 PUSH2 0x593 JUMP JUMPDEST DUP3 MSTORE POP POP JUMP JUMPDEST PUSH1 0x0 PUSH1 0x20 DUP3 ADD SWAP1 POP PUSH2 0x5C1 PUSH1 0x0 DUP4 ADD DUP5 PUSH2 0x59D JUMP JUMPDEST SWAP3 SWAP2 POP POP JUMP JUMPDEST PUSH1 0x0 DUP2 MLOAD SWAP1 POP SWAP2 SWAP1 POP JUMP JUMPDEST PUSH1 0x0 DUP2 SWAP1 POP SWAP3 SWAP2 POP POP JUMP JUMPDEST PUSH1 0x0 JUMPDEST DUP4 DUP2 LT ISZERO PUSH2 0x5FB JUMPI DUP1 DUP3 ADD MLOAD DUP2 DUP5 ADD MSTORE PUSH1 0x20 DUP2 ADD SWAP1 POP PUSH2 0x5E0 JUMP JUMPDEST PUSH1 0x0 DUP5 DUP5 ADD MSTORE POP POP POP POP JUMP JUMPDEST PUSH1 0x0 PUSH2 0x612 DUP3 PUSH2 0x5C7 JUMP JUMPDEST PUSH2 0x61C DUP2 DUP6 PUSH2 0x5D2 JUMP JUMPDEST SWAP4 POP PUSH2 0x62C DUP2 DUP6 PUSH1 0x20 DUP7 ADD PUSH2 0x5DD JUMP JUMPDEST DUP1 DUP5 ADD SWAP2 POP POP SWAP3 SWAP2 POP POP JUMP JUMPDEST PUSH1 0x0 PUSH2 0x644 DUP3 DUP5 PUSH2 0x607 JUMP JUMPDEST SWAP2 POP DUP2 SWAP1 POP SWAP3 SWAP2 POP POP JUMP JUMPDEST PUSH32 0x19457468657265756D205369676E6564204D6573736167653A0A333200000000 PUSH1 0x0 DUP3 ADD MSTORE POP JUMP JUMPDEST PUSH1 0x0 PUSH2 0x685 PUSH1 0x1C DUP4 PUSH2 0x5D2 JUMP JUMPDEST SWAP2 POP PUSH2 0x690 DUP3 PUSH2 0x64F JUMP JUMPDEST PUSH1 0x1C DUP3 ADD SWAP1 POP SWAP2 SWAP1 POP JUMP JUMPDEST PUSH1 0x0 DUP2 SWAP1 POP SWAP2 SWAP1 POP JUMP JUMPDEST PUSH2 0x6B6 PUSH2 0x6B1 DUP3 PUSH2 0x593 JUMP JUMPDEST PUSH2 0x69B JUMP JUMPDEST DUP3 MSTORE POP POP JUMP JUMPDEST PUSH1 0x0 PUSH2 0x6C7 DUP3 PUSH2 0x678 JUMP JUMPDEST SWAP2 POP PUSH2 0x6D3 DUP3 DUP5 PUSH2 0x6A5 JUMP JUMPDEST PUSH1 0x20 DUP3 ADD SWAP2 POP DUP2 SWAP1 POP SWAP3 SWAP2 POP POP JUMP JUMPDEST PUSH1 0x0 PUSH1 0xFF DUP3 AND SWAP1 POP SWAP2 SWAP1 POP JUMP JUMPDEST PUSH2 0x6F8 DUP2 PUSH2 0x6E2 JUMP JUMPDEST DUP3 MSTORE POP POP JUMP JUMPDEST PUSH1 0x0 PUSH1 0x80 DUP3 ADD SWAP1 POP PUSH2 0x713 PUSH1 0x0 DUP4 ADD DUP8 PUSH2 0x59D JUMP JUMPDEST PUSH2 0x720 PUSH1 0x20 DUP4 ADD DUP7 PUSH2 0x6EF JUMP JUMPDEST PUSH2 0x72D PUSH1 0x40 DUP4 ADD DUP6 PUSH2 0x59D JUMP JUMPDEST PUSH2 0x73A PUSH1 0x60 DUP4 ADD DUP5 PUSH2 0x59D JUMP JUMPDEST SWAP6 SWAP5 POP POP POP POP POP JUMP JUMPDEST PUSH1 0x0 DUP3 DUP3 MSTORE PUSH1 0x20 DUP3 ADD SWAP1 POP SWAP3 SWAP2 POP POP JUMP JUMPDEST PUSH32 0x696E76616C6964207369676E6174757265206C656E6774680000000000000000 PUSH1 0x0 DUP3 ADD MSTORE POP JUMP JUMPDEST PUSH1 0x0 PUSH2 0x78A PUSH1 0x18 DUP4 PUSH2 0x743 JUMP JUMPDEST SWAP2 POP PUSH2 0x795 DUP3 PUSH2 0x754 JUMP JUMPDEST PUSH1 0x20 DUP3 ADD SWAP1 POP SWAP2 SWAP1 POP JUMP JUMPDEST PUSH1 0x0 PUSH1 0x20 DUP3 ADD SWAP1 POP DUP2 DUP2 SUB PUSH1 0x0 DUP4 ADD MSTORE PUSH2 0x7B9 DUP2 PUSH2 0x77D JUMP JUMPDEST SWAP1 POP SWAP2 SWAP1 POP JUMP INVALID LOG2 PUSH5 0x6970667358 0x22 SLT KECCAK256 CALLDATASIZE RETURNDATACOPY 0x4C 0x49 GT PUSH28 0x88ED5DFCB6C7BAE9932FFBEE0E0DE9C18773BCEF40097B57E5D06473 PUSH16 0x6C634300081200330000000000000000 "
				},
				"gasEstimates": {
					"creation": {
						"codeDepositCost": "407600",
						"executionCost": "443",
						"totalCost": "408043"
					},
					"external": {
						"getMessageHash(string)": "infinite",
						"verify(address,string,bytes)": "infinite"
					},
					"internal": {
						"_split(bytes memory)": "infinite",
						"getEthSignedMessageHash(bytes32)": "infinite",
						"recover(bytes32,bytes memory)": "infinite"
					}
				},
				"methodIdentifiers": {
					"getMessageHash(string)": "b446f3b2",
					"verify(address,string,bytes)": "2dd34f0f"
				}
			},
			"storageLayout": {
				"storage": [],
				"types": null
			},
			"userdoc": {
				"kind": "user",
				"methods": {},
				"version": 1
			}
		}
	}
}