{
	"cuimianMaster/GasGolf.sol": {
		"GasGolf": {
			"abi": [
				{
					"inputs": [
						{
							"internalType": "uint256[]",
							"name": "arr",
							"type": "uint256[]"
						}
					],
					"name": "calSum1",
					"outputs": [],
					"stateMutability": "nonpayable",
					"type": "function"
				},
				{
					"inputs": [
						{
							"internalType": "uint256[]",
							"name": "arr",
							"type": "uint256[]"
						}
					],
					"name": "calSum2",
					"outputs": [],
					"stateMutability": "nonpayable",
					"type": "function"
				},
				{
					"inputs": [
						{
							"internalType": "uint256[]",
							"name": "arr",
							"type": "uint256[]"
						}
					],
					"name": "calSum3",
					"outputs": [],
					"stateMutability": "nonpayable",
					"type": "function"
				},
				{
					"inputs": [
						{
							"internalType": "uint256[]",
							"name": "arr",
							"type": "uint256[]"
						}
					],
					"name": "calSum4",
					"outputs": [],
					"stateMutability": "nonpayable",
					"type": "function"
				},
				{
					"inputs": [
						{
							"internalType": "uint256[]",
							"name": "arr",
							"type": "uint256[]"
						}
					],
					"name": "calSum5",
					"outputs": [],
					"stateMutability": "nonpayable",
					"type": "function"
				},
				{
					"inputs": [
						{
							"internalType": "uint256[]",
							"name": "arr",
							"type": "uint256[]"
						}
					],
					"name": "calSum6",
					"outputs": [],
					"stateMutability": "nonpayable",
					"type": "function"
				},
				{
					"inputs": [
						{
							"internalType": "uint256[]",
							"name": "arr",
							"type": "uint256[]"
						}
					],
					"name": "calSum7",
					"outputs": [],
					"stateMutability": "nonpayable",
					"type": "function"
				},
				{
					"inputs": [],
					"name": "total",
					"outputs": [
						{
							"internalType": "uint256",
							"name": "",
							"type": "uint256"
						}
					],
					"stateMutability": "view",
					"type": "function"
				}
			],
			"devdoc": {
				"kind": "dev",
				"methods": {},
				"version": 1
			},
			"evm": {
				"assembly": "    /* \"cuimianMaster/GasGolf.sol\":60:2966  contract GasGolf {... */\n  mstore(0x40, 0x80)\n  callvalue\n  dup1\n  iszero\n  tag_1\n  jumpi\n  0x00\n  dup1\n  revert\ntag_1:\n  pop\n  dataSize(sub_0)\n  dup1\n  dataOffset(sub_0)\n  0x00\n  codecopy\n  0x00\n  return\nstop\n\nsub_0: assembly {\n        /* \"cuimianMaster/GasGolf.sol\":60:2966  contract GasGolf {... */\n      mstore(0x40, 0x80)\n      callvalue\n      dup1\n      iszero\n      tag_1\n      jumpi\n      0x00\n      dup1\n      revert\n    tag_1:\n      pop\n      jumpi(tag_2, lt(calldatasize, 0x04))\n      shr(0xe0, calldataload(0x00))\n      dup1\n      0x9acb58a2\n      gt\n      tag_11\n      jumpi\n      dup1\n      0x9acb58a2\n      eq\n      tag_7\n      jumpi\n      dup1\n      0xa7a61238\n      eq\n      tag_8\n      jumpi\n      dup1\n      0xaef76e2a\n      eq\n      tag_9\n      jumpi\n      dup1\n      0xc658014b\n      eq\n      tag_10\n      jumpi\n      jump(tag_2)\n    tag_11:\n      dup1\n      0x223fb4e7\n      eq\n      tag_3\n      jumpi\n      dup1\n      0x2574b7c1\n      eq\n      tag_4\n      jumpi\n      dup1\n      0x2ddbd13a\n      eq\n      tag_5\n      jumpi\n      dup1\n      0x4934d2db\n      eq\n      tag_6\n      jumpi\n    tag_2:\n      0x00\n      dup1\n      revert\n        /* \"cuimianMaster/GasGolf.sol\":2107:2485  function calSum6(uint[] calldata arr) public {... */\n    tag_3:\n      tag_12\n      0x04\n      dup1\n      calldatasize\n      sub\n      dup2\n      add\n      swap1\n      tag_13\n      swap2\n      swap1\n      tag_14\n      jump\t// in\n    tag_13:\n      tag_15\n      jump\t// in\n    tag_12:\n      stop\n        /* \"cuimianMaster/GasGolf.sol\":1032:1374  function calSum3(uint[] calldata arr) public {... */\n    tag_4:\n      tag_16\n      0x04\n      dup1\n      calldatasize\n      sub\n      dup2\n      add\n      swap1\n      tag_17\n      swap2\n      swap1\n      tag_14\n      jump\t// in\n    tag_17:\n      tag_18\n      jump\t// in\n    tag_16:\n      stop\n        /* \"cuimianMaster/GasGolf.sol\":383:400  uint public total */\n    tag_5:\n      tag_19\n      tag_20\n      jump\t// in\n    tag_19:\n      mload(0x40)\n      tag_21\n      swap2\n      swap1\n      tag_22\n      jump\t// in\n    tag_21:\n      mload(0x40)\n      dup1\n      swap2\n      sub\n      swap1\n      return\n        /* \"cuimianMaster/GasGolf.sol\":1746:2099  function calSum5(uint[] calldata arr) public {... */\n    tag_6:\n      tag_23\n      0x04\n      dup1\n      calldatasize\n      sub\n      dup2\n      add\n      swap1\n      tag_24\n      swap2\n      swap1\n      tag_14\n      jump\t// in\n    tag_24:\n      tag_25\n      jump\t// in\n    tag_23:\n      stop\n        /* \"cuimianMaster/GasGolf.sol\":730:1024  function calSum2(uint[] calldata arr) public {... */\n    tag_7:\n      tag_26\n      0x04\n      dup1\n      calldatasize\n      sub\n      dup2\n      add\n      swap1\n      tag_27\n      swap2\n      swap1\n      tag_14\n      jump\t// in\n    tag_27:\n      tag_28\n      jump\t// in\n    tag_26:\n      stop\n        /* \"cuimianMaster/GasGolf.sol\":1382:1738  function calSum4(uint[] calldata arr) public {... */\n    tag_8:\n      tag_29\n      0x04\n      dup1\n      calldatasize\n      sub\n      dup2\n      add\n      swap1\n      tag_30\n      swap2\n      swap1\n      tag_14\n      jump\t// in\n    tag_30:\n      tag_31\n      jump\t// in\n    tag_29:\n      stop\n        /* \"cuimianMaster/GasGolf.sol\":2493:2963  function calSum7(uint[] calldata arr) public {... */\n    tag_9:\n      tag_32\n      0x04\n      dup1\n      calldatasize\n      sub\n      dup2\n      add\n      swap1\n      tag_33\n      swap2\n      swap1\n      tag_14\n      jump\t// in\n    tag_33:\n      tag_34\n      jump\t// in\n    tag_32:\n      stop\n        /* \"cuimianMaster/GasGolf.sol\":430:722  function calSum1(uint[] memory arr) public {... */\n    tag_10:\n      tag_35\n      0x04\n      dup1\n      calldatasize\n      sub\n      dup2\n      add\n      swap1\n      tag_36\n      swap2\n      swap1\n      tag_37\n      jump\t// in\n    tag_36:\n      tag_38\n      jump\t// in\n    tag_35:\n      stop\n        /* \"cuimianMaster/GasGolf.sol\":2107:2485  function calSum6(uint[] calldata arr) public {... */\n    tag_15:\n        /* \"cuimianMaster/GasGolf.sol\":2163:2174  uint _total */\n      0x00\n        /* \"cuimianMaster/GasGolf.sol\":2185:2193  uint len */\n      dup1\n        /* \"cuimianMaster/GasGolf.sol\":2196:2199  arr */\n      dup4\n      dup4\n        /* \"cuimianMaster/GasGolf.sol\":2196:2206  arr.length */\n      swap1\n      pop\n        /* \"cuimianMaster/GasGolf.sol\":2185:2206  uint len = arr.length */\n      swap1\n      pop\n        /* \"cuimianMaster/GasGolf.sol\":2222:2228  uint i */\n      0x00\n        /* \"cuimianMaster/GasGolf.sol\":2217:2453  for (uint i; i < len; ++i) {... */\n    tag_40:\n        /* \"cuimianMaster/GasGolf.sol\":2234:2237  len */\n      dup2\n        /* \"cuimianMaster/GasGolf.sol\":2230:2231  i */\n      dup2\n        /* \"cuimianMaster/GasGolf.sol\":2230:2237  i < len */\n      lt\n        /* \"cuimianMaster/GasGolf.sol\":2217:2453  for (uint i; i < len; ++i) {... */\n      iszero\n      tag_41\n      jumpi\n        /* \"cuimianMaster/GasGolf.sol\":2373:2374  0 */\n      0x00\n        /* \"cuimianMaster/GasGolf.sol\":2368:2369  2 */\n      0x02\n        /* \"cuimianMaster/GasGolf.sol\":2359:2362  arr */\n      dup7\n      dup7\n        /* \"cuimianMaster/GasGolf.sol\":2363:2364  i */\n      dup5\n        /* \"cuimianMaster/GasGolf.sol\":2359:2365  arr[i] */\n      dup2\n      dup2\n      lt\n      tag_43\n      jumpi\n      tag_44\n      tag_45\n      jump\t// in\n    tag_44:\n    tag_43:\n      swap1\n      pop\n      0x20\n      mul\n      add\n      calldataload\n        /* \"cuimianMaster/GasGolf.sol\":2359:2369  arr[i] % 2 */\n      tag_46\n      swap2\n      swap1\n      tag_47\n      jump\t// in\n    tag_46:\n        /* \"cuimianMaster/GasGolf.sol\":2359:2374  arr[i] % 2 == 0 */\n      eq\n        /* \"cuimianMaster/GasGolf.sol\":2359:2389  arr[i] % 2 == 0 && arr[i] < 99 */\n      dup1\n      iszero\n      tag_48\n      jumpi\n      pop\n        /* \"cuimianMaster/GasGolf.sol\":2387:2389  99 */\n      0x63\n        /* \"cuimianMaster/GasGolf.sol\":2378:2381  arr */\n      dup6\n      dup6\n        /* \"cuimianMaster/GasGolf.sol\":2382:2383  i */\n      dup4\n        /* \"cuimianMaster/GasGolf.sol\":2378:2384  arr[i] */\n      dup2\n      dup2\n      lt\n      tag_49\n      jumpi\n      tag_50\n      tag_45\n      jump\t// in\n    tag_50:\n    tag_49:\n      swap1\n      pop\n      0x20\n      mul\n      add\n      calldataload\n        /* \"cuimianMaster/GasGolf.sol\":2378:2389  arr[i] < 99 */\n      lt\n        /* \"cuimianMaster/GasGolf.sol\":2359:2389  arr[i] % 2 == 0 && arr[i] < 99 */\n    tag_48:\n        /* \"cuimianMaster/GasGolf.sol\":2355:2442  if (arr[i] % 2 == 0 && arr[i] < 99) {... */\n      iszero\n      tag_51\n      jumpi\n        /* \"cuimianMaster/GasGolf.sol\":2420:2423  arr */\n      dup5\n      dup5\n        /* \"cuimianMaster/GasGolf.sol\":2424:2425  i */\n      dup3\n        /* \"cuimianMaster/GasGolf.sol\":2420:2426  arr[i] */\n      dup2\n      dup2\n      lt\n      tag_52\n      jumpi\n      tag_53\n      tag_45\n      jump\t// in\n    tag_53:\n    tag_52:\n      swap1\n      pop\n      0x20\n      mul\n      add\n      calldataload\n        /* \"cuimianMaster/GasGolf.sol\":2410:2426  _total += arr[i] */\n      dup4\n      tag_54\n      swap2\n      swap1\n      tag_55\n      jump\t// in\n    tag_54:\n      swap3\n      pop\n        /* \"cuimianMaster/GasGolf.sol\":2355:2442  if (arr[i] % 2 == 0 && arr[i] < 99) {... */\n    tag_51:\n        /* \"cuimianMaster/GasGolf.sol\":2239:2242  ++i */\n      dup1\n      tag_56\n      swap1\n      tag_57\n      jump\t// in\n    tag_56:\n      swap1\n      pop\n        /* \"cuimianMaster/GasGolf.sol\":2217:2453  for (uint i; i < len; ++i) {... */\n      jump(tag_40)\n    tag_41:\n      pop\n        /* \"cuimianMaster/GasGolf.sol\":2471:2477  _total */\n      dup2\n        /* \"cuimianMaster/GasGolf.sol\":2463:2468  total */\n      0x00\n        /* \"cuimianMaster/GasGolf.sol\":2463:2477  total = _total */\n      dup2\n      swap1\n      sstore\n      pop\n        /* \"cuimianMaster/GasGolf.sol\":2152:2485  {... */\n      pop\n      pop\n        /* \"cuimianMaster/GasGolf.sol\":2107:2485  function calSum6(uint[] calldata arr) public {... */\n      pop\n      pop\n      jump\t// out\n        /* \"cuimianMaster/GasGolf.sol\":1032:1374  function calSum3(uint[] calldata arr) public {... */\n    tag_18:\n        /* \"cuimianMaster/GasGolf.sol\":1088:1099  uint _total */\n      0x00\n        /* \"cuimianMaster/GasGolf.sol\":1115:1121  uint i */\n      dup1\n        /* \"cuimianMaster/GasGolf.sol\":1110:1342  for (uint i; i < arr.length; i += 1) {... */\n    tag_59:\n        /* \"cuimianMaster/GasGolf.sol\":1127:1130  arr */\n      dup4\n      dup4\n        /* \"cuimianMaster/GasGolf.sol\":1127:1137  arr.length */\n      swap1\n      pop\n        /* \"cuimianMaster/GasGolf.sol\":1123:1124  i */\n      dup2\n        /* \"cuimianMaster/GasGolf.sol\":1123:1137  i < arr.length */\n      lt\n        /* \"cuimianMaster/GasGolf.sol\":1110:1342  for (uint i; i < arr.length; i += 1) {... */\n      iszero\n      tag_60\n      jumpi\n        /* \"cuimianMaster/GasGolf.sol\":1162:1173  bool isEven */\n      0x00\n        /* \"cuimianMaster/GasGolf.sol\":1190:1191  0 */\n      dup1\n        /* \"cuimianMaster/GasGolf.sol\":1185:1186  2 */\n      0x02\n        /* \"cuimianMaster/GasGolf.sol\":1176:1179  arr */\n      dup7\n      dup7\n        /* \"cuimianMaster/GasGolf.sol\":1180:1181  i */\n      dup6\n        /* \"cuimianMaster/GasGolf.sol\":1176:1182  arr[i] */\n      dup2\n      dup2\n      lt\n      tag_62\n      jumpi\n      tag_63\n      tag_45\n      jump\t// in\n    tag_63:\n    tag_62:\n      swap1\n      pop\n      0x20\n      mul\n      add\n      calldataload\n        /* \"cuimianMaster/GasGolf.sol\":1176:1186  arr[i] % 2 */\n      tag_64\n      swap2\n      swap1\n      tag_47\n      jump\t// in\n    tag_64:\n        /* \"cuimianMaster/GasGolf.sol\":1176:1191  arr[i] % 2 == 0 */\n      eq\n        /* \"cuimianMaster/GasGolf.sol\":1162:1191  bool isEven = arr[i] % 2 == 0 */\n      swap1\n      pop\n        /* \"cuimianMaster/GasGolf.sol\":1206:1223  bool isLessThan99 */\n      0x00\n        /* \"cuimianMaster/GasGolf.sol\":1235:1237  99 */\n      0x63\n        /* \"cuimianMaster/GasGolf.sol\":1226:1229  arr */\n      dup7\n      dup7\n        /* \"cuimianMaster/GasGolf.sol\":1230:1231  i */\n      dup6\n        /* \"cuimianMaster/GasGolf.sol\":1226:1232  arr[i] */\n      dup2\n      dup2\n      lt\n      tag_65\n      jumpi\n      tag_66\n      tag_45\n      jump\t// in\n    tag_66:\n    tag_65:\n      swap1\n      pop\n      0x20\n      mul\n      add\n      calldataload\n        /* \"cuimianMaster/GasGolf.sol\":1226:1237  arr[i] < 99 */\n      lt\n        /* \"cuimianMaster/GasGolf.sol\":1206:1237  bool isLessThan99 = arr[i] < 99 */\n      swap1\n      pop\n        /* \"cuimianMaster/GasGolf.sol\":1256:1262  isEven */\n      dup2\n        /* \"cuimianMaster/GasGolf.sol\":1256:1278  isEven && isLessThan99 */\n      dup1\n      iszero\n      tag_67\n      jumpi\n      pop\n        /* \"cuimianMaster/GasGolf.sol\":1266:1278  isLessThan99 */\n      dup1\n        /* \"cuimianMaster/GasGolf.sol\":1256:1278  isEven && isLessThan99 */\n    tag_67:\n        /* \"cuimianMaster/GasGolf.sol\":1252:1331  if (isEven && isLessThan99) {... */\n      iszero\n      tag_68\n      jumpi\n        /* \"cuimianMaster/GasGolf.sol\":1309:1312  arr */\n      dup6\n      dup6\n        /* \"cuimianMaster/GasGolf.sol\":1313:1314  i */\n      dup5\n        /* \"cuimianMaster/GasGolf.sol\":1309:1315  arr[i] */\n      dup2\n      dup2\n      lt\n      tag_69\n      jumpi\n      tag_70\n      tag_45\n      jump\t// in\n    tag_70:\n    tag_69:\n      swap1\n      pop\n      0x20\n      mul\n      add\n      calldataload\n        /* \"cuimianMaster/GasGolf.sol\":1299:1315  _total += arr[i] */\n      dup5\n      tag_71\n      swap2\n      swap1\n      tag_55\n      jump\t// in\n    tag_71:\n      swap4\n      pop\n        /* \"cuimianMaster/GasGolf.sol\":1252:1331  if (isEven && isLessThan99) {... */\n    tag_68:\n        /* \"cuimianMaster/GasGolf.sol\":1147:1342  {... */\n      pop\n      pop\n        /* \"cuimianMaster/GasGolf.sol\":1144:1145  1 */\n      0x01\n        /* \"cuimianMaster/GasGolf.sol\":1139:1145  i += 1 */\n      dup2\n      tag_72\n      swap2\n      swap1\n      tag_55\n      jump\t// in\n    tag_72:\n      swap1\n      pop\n        /* \"cuimianMaster/GasGolf.sol\":1110:1342  for (uint i; i < arr.length; i += 1) {... */\n      jump(tag_59)\n    tag_60:\n      pop\n        /* \"cuimianMaster/GasGolf.sol\":1360:1366  _total */\n      dup1\n        /* \"cuimianMaster/GasGolf.sol\":1352:1357  total */\n      0x00\n        /* \"cuimianMaster/GasGolf.sol\":1352:1366  total = _total */\n      dup2\n      swap1\n      sstore\n      pop\n        /* \"cuimianMaster/GasGolf.sol\":1077:1374  {... */\n      pop\n        /* \"cuimianMaster/GasGolf.sol\":1032:1374  function calSum3(uint[] calldata arr) public {... */\n      pop\n      pop\n      jump\t// out\n        /* \"cuimianMaster/GasGolf.sol\":383:400  uint public total */\n    tag_20:\n      sload(0x00)\n      dup2\n      jump\t// out\n        /* \"cuimianMaster/GasGolf.sol\":1746:2099  function calSum5(uint[] calldata arr) public {... */\n    tag_25:\n        /* \"cuimianMaster/GasGolf.sol\":1802:1813  uint _total */\n      0x00\n        /* \"cuimianMaster/GasGolf.sol\":1829:1835  uint i */\n      dup1\n        /* \"cuimianMaster/GasGolf.sol\":1824:2067  for (uint i; i < arr.length; ++i) {... */\n    tag_74:\n        /* \"cuimianMaster/GasGolf.sol\":1841:1844  arr */\n      dup4\n      dup4\n        /* \"cuimianMaster/GasGolf.sol\":1841:1851  arr.length */\n      swap1\n      pop\n        /* \"cuimianMaster/GasGolf.sol\":1837:1838  i */\n      dup2\n        /* \"cuimianMaster/GasGolf.sol\":1837:1851  i < arr.length */\n      lt\n        /* \"cuimianMaster/GasGolf.sol\":1824:2067  for (uint i; i < arr.length; ++i) {... */\n      iszero\n      tag_75\n      jumpi\n        /* \"cuimianMaster/GasGolf.sol\":1987:1988  0 */\n      0x00\n        /* \"cuimianMaster/GasGolf.sol\":1982:1983  2 */\n      0x02\n        /* \"cuimianMaster/GasGolf.sol\":1973:1976  arr */\n      dup6\n      dup6\n        /* \"cuimianMaster/GasGolf.sol\":1977:1978  i */\n      dup5\n        /* \"cuimianMaster/GasGolf.sol\":1973:1979  arr[i] */\n      dup2\n      dup2\n      lt\n      tag_77\n      jumpi\n      tag_78\n      tag_45\n      jump\t// in\n    tag_78:\n    tag_77:\n      swap1\n      pop\n      0x20\n      mul\n      add\n      calldataload\n        /* \"cuimianMaster/GasGolf.sol\":1973:1983  arr[i] % 2 */\n      tag_79\n      swap2\n      swap1\n      tag_47\n      jump\t// in\n    tag_79:\n        /* \"cuimianMaster/GasGolf.sol\":1973:1988  arr[i] % 2 == 0 */\n      eq\n        /* \"cuimianMaster/GasGolf.sol\":1973:2003  arr[i] % 2 == 0 && arr[i] < 99 */\n      dup1\n      iszero\n      tag_80\n      jumpi\n      pop\n        /* \"cuimianMaster/GasGolf.sol\":2001:2003  99 */\n      0x63\n        /* \"cuimianMaster/GasGolf.sol\":1992:1995  arr */\n      dup5\n      dup5\n        /* \"cuimianMaster/GasGolf.sol\":1996:1997  i */\n      dup4\n        /* \"cuimianMaster/GasGolf.sol\":1992:1998  arr[i] */\n      dup2\n      dup2\n      lt\n      tag_81\n      jumpi\n      tag_82\n      tag_45\n      jump\t// in\n    tag_82:\n    tag_81:\n      swap1\n      pop\n      0x20\n      mul\n      add\n      calldataload\n        /* \"cuimianMaster/GasGolf.sol\":1992:2003  arr[i] < 99 */\n      lt\n        /* \"cuimianMaster/GasGolf.sol\":1973:2003  arr[i] % 2 == 0 && arr[i] < 99 */\n    tag_80:\n        /* \"cuimianMaster/GasGolf.sol\":1969:2056  if (arr[i] % 2 == 0 && arr[i] < 99) {... */\n      iszero\n      tag_83\n      jumpi\n        /* \"cuimianMaster/GasGolf.sol\":2034:2037  arr */\n      dup4\n      dup4\n        /* \"cuimianMaster/GasGolf.sol\":2038:2039  i */\n      dup3\n        /* \"cuimianMaster/GasGolf.sol\":2034:2040  arr[i] */\n      dup2\n      dup2\n      lt\n      tag_84\n      jumpi\n      tag_85\n      tag_45\n      jump\t// in\n    tag_85:\n    tag_84:\n      swap1\n      pop\n      0x20\n      mul\n      add\n      calldataload\n        /* \"cuimianMaster/GasGolf.sol\":2024:2040  _total += arr[i] */\n      dup3\n      tag_86\n      swap2\n      swap1\n      tag_55\n      jump\t// in\n    tag_86:\n      swap2\n      pop\n        /* \"cuimianMaster/GasGolf.sol\":1969:2056  if (arr[i] % 2 == 0 && arr[i] < 99) {... */\n    tag_83:\n        /* \"cuimianMaster/GasGolf.sol\":1853:1856  ++i */\n      dup1\n      tag_87\n      swap1\n      tag_57\n      jump\t// in\n    tag_87:\n      swap1\n      pop\n        /* \"cuimianMaster/GasGolf.sol\":1824:2067  for (uint i; i < arr.length; ++i) {... */\n      jump(tag_74)\n    tag_75:\n      pop\n        /* \"cuimianMaster/GasGolf.sol\":2085:2091  _total */\n      dup1\n        /* \"cuimianMaster/GasGolf.sol\":2077:2082  total */\n      0x00\n        /* \"cuimianMaster/GasGolf.sol\":2077:2091  total = _total */\n      dup2\n      swap1\n      sstore\n      pop\n        /* \"cuimianMaster/GasGolf.sol\":1791:2099  {... */\n      pop\n        /* \"cuimianMaster/GasGolf.sol\":1746:2099  function calSum5(uint[] calldata arr) public {... */\n      pop\n      pop\n      jump\t// out\n        /* \"cuimianMaster/GasGolf.sol\":730:1024  function calSum2(uint[] calldata arr) public {... */\n    tag_28:\n        /* \"cuimianMaster/GasGolf.sol\":791:797  uint i */\n      0x00\n        /* \"cuimianMaster/GasGolf.sol\":786:1017  for (uint i; i < arr.length; i += 1) {... */\n    tag_89:\n        /* \"cuimianMaster/GasGolf.sol\":803:806  arr */\n      dup3\n      dup3\n        /* \"cuimianMaster/GasGolf.sol\":803:813  arr.length */\n      swap1\n      pop\n        /* \"cuimianMaster/GasGolf.sol\":799:800  i */\n      dup2\n        /* \"cuimianMaster/GasGolf.sol\":799:813  i < arr.length */\n      lt\n        /* \"cuimianMaster/GasGolf.sol\":786:1017  for (uint i; i < arr.length; i += 1) {... */\n      iszero\n      tag_90\n      jumpi\n        /* \"cuimianMaster/GasGolf.sol\":838:849  bool isEven */\n      0x00\n        /* \"cuimianMaster/GasGolf.sol\":866:867  0 */\n      dup1\n        /* \"cuimianMaster/GasGolf.sol\":861:862  2 */\n      0x02\n        /* \"cuimianMaster/GasGolf.sol\":852:855  arr */\n      dup6\n      dup6\n        /* \"cuimianMaster/GasGolf.sol\":856:857  i */\n      dup6\n        /* \"cuimianMaster/GasGolf.sol\":852:858  arr[i] */\n      dup2\n      dup2\n      lt\n      tag_92\n      jumpi\n      tag_93\n      tag_45\n      jump\t// in\n    tag_93:\n    tag_92:\n      swap1\n      pop\n      0x20\n      mul\n      add\n      calldataload\n        /* \"cuimianMaster/GasGolf.sol\":852:862  arr[i] % 2 */\n      tag_94\n      swap2\n      swap1\n      tag_47\n      jump\t// in\n    tag_94:\n        /* \"cuimianMaster/GasGolf.sol\":852:867  arr[i] % 2 == 0 */\n      eq\n        /* \"cuimianMaster/GasGolf.sol\":838:867  bool isEven = arr[i] % 2 == 0 */\n      swap1\n      pop\n        /* \"cuimianMaster/GasGolf.sol\":882:899  bool isLessThan99 */\n      0x00\n        /* \"cuimianMaster/GasGolf.sol\":911:913  99 */\n      0x63\n        /* \"cuimianMaster/GasGolf.sol\":902:905  arr */\n      dup6\n      dup6\n        /* \"cuimianMaster/GasGolf.sol\":906:907  i */\n      dup6\n        /* \"cuimianMaster/GasGolf.sol\":902:908  arr[i] */\n      dup2\n      dup2\n      lt\n      tag_95\n      jumpi\n      tag_96\n      tag_45\n      jump\t// in\n    tag_96:\n    tag_95:\n      swap1\n      pop\n      0x20\n      mul\n      add\n      calldataload\n        /* \"cuimianMaster/GasGolf.sol\":902:913  arr[i] < 99 */\n      lt\n        /* \"cuimianMaster/GasGolf.sol\":882:913  bool isLessThan99 = arr[i] < 99 */\n      swap1\n      pop\n        /* \"cuimianMaster/GasGolf.sol\":932:938  isEven */\n      dup2\n        /* \"cuimianMaster/GasGolf.sol\":932:954  isEven && isLessThan99 */\n      dup1\n      iszero\n      tag_97\n      jumpi\n      pop\n        /* \"cuimianMaster/GasGolf.sol\":942:954  isLessThan99 */\n      dup1\n        /* \"cuimianMaster/GasGolf.sol\":932:954  isEven && isLessThan99 */\n    tag_97:\n        /* \"cuimianMaster/GasGolf.sol\":928:1006  if (isEven && isLessThan99) {... */\n      iszero\n      tag_98\n      jumpi\n        /* \"cuimianMaster/GasGolf.sol\":984:987  arr */\n      dup5\n      dup5\n        /* \"cuimianMaster/GasGolf.sol\":988:989  i */\n      dup5\n        /* \"cuimianMaster/GasGolf.sol\":984:990  arr[i] */\n      dup2\n      dup2\n      lt\n      tag_99\n      jumpi\n      tag_100\n      tag_45\n      jump\t// in\n    tag_100:\n    tag_99:\n      swap1\n      pop\n      0x20\n      mul\n      add\n      calldataload\n        /* \"cuimianMaster/GasGolf.sol\":975:980  total */\n      0x00\n      dup1\n        /* \"cuimianMaster/GasGolf.sol\":975:990  total += arr[i] */\n      dup3\n      dup3\n      sload\n      tag_101\n      swap2\n      swap1\n      tag_55\n      jump\t// in\n    tag_101:\n      swap3\n      pop\n      pop\n      dup2\n      swap1\n      sstore\n      pop\n        /* \"cuimianMaster/GasGolf.sol\":928:1006  if (isEven && isLessThan99) {... */\n    tag_98:\n        /* \"cuimianMaster/GasGolf.sol\":823:1017  {... */\n      pop\n      pop\n        /* \"cuimianMaster/GasGolf.sol\":820:821  1 */\n      0x01\n        /* \"cuimianMaster/GasGolf.sol\":815:821  i += 1 */\n      dup2\n      tag_102\n      swap2\n      swap1\n      tag_55\n      jump\t// in\n    tag_102:\n      swap1\n      pop\n        /* \"cuimianMaster/GasGolf.sol\":786:1017  for (uint i; i < arr.length; i += 1) {... */\n      jump(tag_89)\n    tag_90:\n      pop\n        /* \"cuimianMaster/GasGolf.sol\":730:1024  function calSum2(uint[] calldata arr) public {... */\n      pop\n      pop\n      jump\t// out\n        /* \"cuimianMaster/GasGolf.sol\":1382:1738  function calSum4(uint[] calldata arr) public {... */\n    tag_31:\n        /* \"cuimianMaster/GasGolf.sol\":1438:1449  uint _total */\n      0x00\n        /* \"cuimianMaster/GasGolf.sol\":1465:1471  uint i */\n      dup1\n        /* \"cuimianMaster/GasGolf.sol\":1460:1706  for (uint i; i < arr.length; i += 1) {... */\n    tag_104:\n        /* \"cuimianMaster/GasGolf.sol\":1477:1480  arr */\n      dup4\n      dup4\n        /* \"cuimianMaster/GasGolf.sol\":1477:1487  arr.length */\n      swap1\n      pop\n        /* \"cuimianMaster/GasGolf.sol\":1473:1474  i */\n      dup2\n        /* \"cuimianMaster/GasGolf.sol\":1473:1487  i < arr.length */\n      lt\n        /* \"cuimianMaster/GasGolf.sol\":1460:1706  for (uint i; i < arr.length; i += 1) {... */\n      iszero\n      tag_105\n      jumpi\n        /* \"cuimianMaster/GasGolf.sol\":1626:1627  0 */\n      0x00\n        /* \"cuimianMaster/GasGolf.sol\":1621:1622  2 */\n      0x02\n        /* \"cuimianMaster/GasGolf.sol\":1612:1615  arr */\n      dup6\n      dup6\n        /* \"cuimianMaster/GasGolf.sol\":1616:1617  i */\n      dup5\n        /* \"cuimianMaster/GasGolf.sol\":1612:1618  arr[i] */\n      dup2\n      dup2\n      lt\n      tag_107\n      jumpi\n      tag_108\n      tag_45\n      jump\t// in\n    tag_108:\n    tag_107:\n      swap1\n      pop\n      0x20\n      mul\n      add\n      calldataload\n        /* \"cuimianMaster/GasGolf.sol\":1612:1622  arr[i] % 2 */\n      tag_109\n      swap2\n      swap1\n      tag_47\n      jump\t// in\n    tag_109:\n        /* \"cuimianMaster/GasGolf.sol\":1612:1627  arr[i] % 2 == 0 */\n      eq\n        /* \"cuimianMaster/GasGolf.sol\":1612:1642  arr[i] % 2 == 0 && arr[i] < 99 */\n      dup1\n      iszero\n      tag_110\n      jumpi\n      pop\n        /* \"cuimianMaster/GasGolf.sol\":1640:1642  99 */\n      0x63\n        /* \"cuimianMaster/GasGolf.sol\":1631:1634  arr */\n      dup5\n      dup5\n        /* \"cuimianMaster/GasGolf.sol\":1635:1636  i */\n      dup4\n        /* \"cuimianMaster/GasGolf.sol\":1631:1637  arr[i] */\n      dup2\n      dup2\n      lt\n      tag_111\n      jumpi\n      tag_112\n      tag_45\n      jump\t// in\n    tag_112:\n    tag_111:\n      swap1\n      pop\n      0x20\n      mul\n      add\n      calldataload\n        /* \"cuimianMaster/GasGolf.sol\":1631:1642  arr[i] < 99 */\n      lt\n        /* \"cuimianMaster/GasGolf.sol\":1612:1642  arr[i] % 2 == 0 && arr[i] < 99 */\n    tag_110:\n        /* \"cuimianMaster/GasGolf.sol\":1608:1695  if (arr[i] % 2 == 0 && arr[i] < 99) {... */\n      iszero\n      tag_113\n      jumpi\n        /* \"cuimianMaster/GasGolf.sol\":1673:1676  arr */\n      dup4\n      dup4\n        /* \"cuimianMaster/GasGolf.sol\":1677:1678  i */\n      dup3\n        /* \"cuimianMaster/GasGolf.sol\":1673:1679  arr[i] */\n      dup2\n      dup2\n      lt\n      tag_114\n      jumpi\n      tag_115\n      tag_45\n      jump\t// in\n    tag_115:\n    tag_114:\n      swap1\n      pop\n      0x20\n      mul\n      add\n      calldataload\n        /* \"cuimianMaster/GasGolf.sol\":1663:1679  _total += arr[i] */\n      dup3\n      tag_116\n      swap2\n      swap1\n      tag_55\n      jump\t// in\n    tag_116:\n      swap2\n      pop\n        /* \"cuimianMaster/GasGolf.sol\":1608:1695  if (arr[i] % 2 == 0 && arr[i] < 99) {... */\n    tag_113:\n        /* \"cuimianMaster/GasGolf.sol\":1494:1495  1 */\n      0x01\n        /* \"cuimianMaster/GasGolf.sol\":1489:1495  i += 1 */\n      dup2\n      tag_117\n      swap2\n      swap1\n      tag_55\n      jump\t// in\n    tag_117:\n      swap1\n      pop\n        /* \"cuimianMaster/GasGolf.sol\":1460:1706  for (uint i; i < arr.length; i += 1) {... */\n      jump(tag_104)\n    tag_105:\n      pop\n        /* \"cuimianMaster/GasGolf.sol\":1724:1730  _total */\n      dup1\n        /* \"cuimianMaster/GasGolf.sol\":1716:1721  total */\n      0x00\n        /* \"cuimianMaster/GasGolf.sol\":1716:1730  total = _total */\n      dup2\n      swap1\n      sstore\n      pop\n        /* \"cuimianMaster/GasGolf.sol\":1427:1738  {... */\n      pop\n        /* \"cuimianMaster/GasGolf.sol\":1382:1738  function calSum4(uint[] calldata arr) public {... */\n      pop\n      pop\n      jump\t// out\n        /* \"cuimianMaster/GasGolf.sol\":2493:2963  function calSum7(uint[] calldata arr) public {... */\n    tag_34:\n        /* \"cuimianMaster/GasGolf.sol\":2549:2560  uint _total */\n      0x00\n        /* \"cuimianMaster/GasGolf.sol\":2571:2579  uint len */\n      dup1\n        /* \"cuimianMaster/GasGolf.sol\":2582:2585  arr */\n      dup4\n      dup4\n        /* \"cuimianMaster/GasGolf.sol\":2582:2592  arr.length */\n      swap1\n      pop\n        /* \"cuimianMaster/GasGolf.sol\":2571:2592  uint len = arr.length */\n      swap1\n      pop\n        /* \"cuimianMaster/GasGolf.sol\":2608:2614  uint i */\n      0x00\n        /* \"cuimianMaster/GasGolf.sol\":2603:2931  for (uint i; i < len; ++i) {... */\n    tag_119:\n        /* \"cuimianMaster/GasGolf.sol\":2620:2623  len */\n      dup2\n        /* \"cuimianMaster/GasGolf.sol\":2616:2617  i */\n      dup2\n        /* \"cuimianMaster/GasGolf.sol\":2616:2623  i < len */\n      lt\n        /* \"cuimianMaster/GasGolf.sol\":2603:2931  for (uint i; i < len; ++i) {... */\n      iszero\n      tag_120\n      jumpi\n        /* \"cuimianMaster/GasGolf.sol\":2795:2807  uint element */\n      0x00\n        /* \"cuimianMaster/GasGolf.sol\":2810:2813  arr */\n      dup6\n      dup6\n        /* \"cuimianMaster/GasGolf.sol\":2814:2815  i */\n      dup4\n        /* \"cuimianMaster/GasGolf.sol\":2810:2816  arr[i] */\n      dup2\n      dup2\n      lt\n      tag_122\n      jumpi\n      tag_123\n      tag_45\n      jump\t// in\n    tag_123:\n    tag_122:\n      swap1\n      pop\n      0x20\n      mul\n      add\n      calldataload\n        /* \"cuimianMaster/GasGolf.sol\":2795:2816  uint element = arr[i] */\n      swap1\n      pop\n        /* \"cuimianMaster/GasGolf.sol\":2850:2851  0 */\n      0x00\n        /* \"cuimianMaster/GasGolf.sol\":2845:2846  2 */\n      0x02\n        /* \"cuimianMaster/GasGolf.sol\":2835:2842  element */\n      dup3\n        /* \"cuimianMaster/GasGolf.sol\":2835:2846  element % 2 */\n      tag_124\n      swap2\n      swap1\n      tag_47\n      jump\t// in\n    tag_124:\n        /* \"cuimianMaster/GasGolf.sol\":2835:2851  element % 2 == 0 */\n      eq\n        /* \"cuimianMaster/GasGolf.sol\":2835:2867  element % 2 == 0 && element < 99 */\n      dup1\n      iszero\n      tag_125\n      jumpi\n      pop\n        /* \"cuimianMaster/GasGolf.sol\":2865:2867  99 */\n      0x63\n        /* \"cuimianMaster/GasGolf.sol\":2855:2862  element */\n      dup2\n        /* \"cuimianMaster/GasGolf.sol\":2855:2867  element < 99 */\n      lt\n        /* \"cuimianMaster/GasGolf.sol\":2835:2867  element % 2 == 0 && element < 99 */\n    tag_125:\n        /* \"cuimianMaster/GasGolf.sol\":2831:2920  if (element % 2 == 0 && element < 99) {... */\n      iszero\n      tag_126\n      jumpi\n        /* \"cuimianMaster/GasGolf.sol\":2898:2901  arr */\n      dup6\n      dup6\n        /* \"cuimianMaster/GasGolf.sol\":2902:2903  i */\n      dup4\n        /* \"cuimianMaster/GasGolf.sol\":2898:2904  arr[i] */\n      dup2\n      dup2\n      lt\n      tag_127\n      jumpi\n      tag_128\n      tag_45\n      jump\t// in\n    tag_128:\n    tag_127:\n      swap1\n      pop\n      0x20\n      mul\n      add\n      calldataload\n        /* \"cuimianMaster/GasGolf.sol\":2888:2904  _total += arr[i] */\n      dup5\n      tag_129\n      swap2\n      swap1\n      tag_55\n      jump\t// in\n    tag_129:\n      swap4\n      pop\n        /* \"cuimianMaster/GasGolf.sol\":2831:2920  if (element % 2 == 0 && element < 99) {... */\n    tag_126:\n        /* \"cuimianMaster/GasGolf.sol\":2630:2931  {... */\n      pop\n        /* \"cuimianMaster/GasGolf.sol\":2625:2628  ++i */\n      dup1\n      tag_130\n      swap1\n      tag_57\n      jump\t// in\n    tag_130:\n      swap1\n      pop\n        /* \"cuimianMaster/GasGolf.sol\":2603:2931  for (uint i; i < len; ++i) {... */\n      jump(tag_119)\n    tag_120:\n      pop\n        /* \"cuimianMaster/GasGolf.sol\":2949:2955  _total */\n      dup2\n        /* \"cuimianMaster/GasGolf.sol\":2941:2946  total */\n      0x00\n        /* \"cuimianMaster/GasGolf.sol\":2941:2955  total = _total */\n      dup2\n      swap1\n      sstore\n      pop\n        /* \"cuimianMaster/GasGolf.sol\":2538:2963  {... */\n      pop\n      pop\n        /* \"cuimianMaster/GasGolf.sol\":2493:2963  function calSum7(uint[] calldata arr) public {... */\n      pop\n      pop\n      jump\t// out\n        /* \"cuimianMaster/GasGolf.sol\":430:722  function calSum1(uint[] memory arr) public {... */\n    tag_38:\n        /* \"cuimianMaster/GasGolf.sol\":489:495  uint i */\n      0x00\n        /* \"cuimianMaster/GasGolf.sol\":484:715  for (uint i; i < arr.length; i += 1) {... */\n    tag_132:\n        /* \"cuimianMaster/GasGolf.sol\":501:504  arr */\n      dup2\n        /* \"cuimianMaster/GasGolf.sol\":501:511  arr.length */\n      mload\n        /* \"cuimianMaster/GasGolf.sol\":497:498  i */\n      dup2\n        /* \"cuimianMaster/GasGolf.sol\":497:511  i < arr.length */\n      lt\n        /* \"cuimianMaster/GasGolf.sol\":484:715  for (uint i; i < arr.length; i += 1) {... */\n      iszero\n      tag_133\n      jumpi\n        /* \"cuimianMaster/GasGolf.sol\":536:547  bool isEven */\n      0x00\n        /* \"cuimianMaster/GasGolf.sol\":564:565  0 */\n      dup1\n        /* \"cuimianMaster/GasGolf.sol\":559:560  2 */\n      0x02\n        /* \"cuimianMaster/GasGolf.sol\":550:553  arr */\n      dup5\n        /* \"cuimianMaster/GasGolf.sol\":554:555  i */\n      dup5\n        /* \"cuimianMaster/GasGolf.sol\":550:556  arr[i] */\n      dup2\n      mload\n      dup2\n      lt\n      tag_135\n      jumpi\n      tag_136\n      tag_45\n      jump\t// in\n    tag_136:\n    tag_135:\n      0x20\n      mul\n      0x20\n      add\n      add\n      mload\n        /* \"cuimianMaster/GasGolf.sol\":550:560  arr[i] % 2 */\n      tag_137\n      swap2\n      swap1\n      tag_47\n      jump\t// in\n    tag_137:\n        /* \"cuimianMaster/GasGolf.sol\":550:565  arr[i] % 2 == 0 */\n      eq\n        /* \"cuimianMaster/GasGolf.sol\":536:565  bool isEven = arr[i] % 2 == 0 */\n      swap1\n      pop\n        /* \"cuimianMaster/GasGolf.sol\":580:597  bool isLessThan99 */\n      0x00\n        /* \"cuimianMaster/GasGolf.sol\":609:611  99 */\n      0x63\n        /* \"cuimianMaster/GasGolf.sol\":600:603  arr */\n      dup5\n        /* \"cuimianMaster/GasGolf.sol\":604:605  i */\n      dup5\n        /* \"cuimianMaster/GasGolf.sol\":600:606  arr[i] */\n      dup2\n      mload\n      dup2\n      lt\n      tag_138\n      jumpi\n      tag_139\n      tag_45\n      jump\t// in\n    tag_139:\n    tag_138:\n      0x20\n      mul\n      0x20\n      add\n      add\n      mload\n        /* \"cuimianMaster/GasGolf.sol\":600:611  arr[i] < 99 */\n      lt\n        /* \"cuimianMaster/GasGolf.sol\":580:611  bool isLessThan99 = arr[i] < 99 */\n      swap1\n      pop\n        /* \"cuimianMaster/GasGolf.sol\":630:636  isEven */\n      dup2\n        /* \"cuimianMaster/GasGolf.sol\":630:652  isEven && isLessThan99 */\n      dup1\n      iszero\n      tag_140\n      jumpi\n      pop\n        /* \"cuimianMaster/GasGolf.sol\":640:652  isLessThan99 */\n      dup1\n        /* \"cuimianMaster/GasGolf.sol\":630:652  isEven && isLessThan99 */\n    tag_140:\n        /* \"cuimianMaster/GasGolf.sol\":626:704  if (isEven && isLessThan99) {... */\n      iszero\n      tag_141\n      jumpi\n        /* \"cuimianMaster/GasGolf.sol\":682:685  arr */\n      dup4\n        /* \"cuimianMaster/GasGolf.sol\":686:687  i */\n      dup4\n        /* \"cuimianMaster/GasGolf.sol\":682:688  arr[i] */\n      dup2\n      mload\n      dup2\n      lt\n      tag_142\n      jumpi\n      tag_143\n      tag_45\n      jump\t// in\n    tag_143:\n    tag_142:\n      0x20\n      mul\n      0x20\n      add\n      add\n      mload\n        /* \"cuimianMaster/GasGolf.sol\":673:678  total */\n      0x00\n      dup1\n        /* \"cuimianMaster/GasGolf.sol\":673:688  total += arr[i] */\n      dup3\n      dup3\n      sload\n      tag_144\n      swap2\n      swap1\n      tag_55\n      jump\t// in\n    tag_144:\n      swap3\n      pop\n      pop\n      dup2\n      swap1\n      sstore\n      pop\n        /* \"cuimianMaster/GasGolf.sol\":626:704  if (isEven && isLessThan99) {... */\n    tag_141:\n        /* \"cuimianMaster/GasGolf.sol\":521:715  {... */\n      pop\n      pop\n        /* \"cuimianMaster/GasGolf.sol\":518:519  1 */\n      0x01\n        /* \"cuimianMaster/GasGolf.sol\":513:519  i += 1 */\n      dup2\n      tag_145\n      swap2\n      swap1\n      tag_55\n      jump\t// in\n    tag_145:\n      swap1\n      pop\n        /* \"cuimianMaster/GasGolf.sol\":484:715  for (uint i; i < arr.length; i += 1) {... */\n      jump(tag_132)\n    tag_133:\n      pop\n        /* \"cuimianMaster/GasGolf.sol\":430:722  function calSum1(uint[] memory arr) public {... */\n      pop\n      jump\t// out\n        /* \"#utility.yul\":7:82   */\n    tag_146:\n        /* \"#utility.yul\":40:46   */\n      0x00\n        /* \"#utility.yul\":73:75   */\n      0x40\n        /* \"#utility.yul\":67:76   */\n      mload\n        /* \"#utility.yul\":57:76   */\n      swap1\n      pop\n        /* \"#utility.yul\":7:82   */\n      swap1\n      jump\t// out\n        /* \"#utility.yul\":88:205   */\n    tag_147:\n        /* \"#utility.yul\":197:198   */\n      0x00\n        /* \"#utility.yul\":194:195   */\n      dup1\n        /* \"#utility.yul\":187:199   */\n      revert\n        /* \"#utility.yul\":211:328   */\n    tag_148:\n        /* \"#utility.yul\":320:321   */\n      0x00\n        /* \"#utility.yul\":317:318   */\n      dup1\n        /* \"#utility.yul\":310:322   */\n      revert\n        /* \"#utility.yul\":334:451   */\n    tag_149:\n        /* \"#utility.yul\":443:444   */\n      0x00\n        /* \"#utility.yul\":440:441   */\n      dup1\n        /* \"#utility.yul\":433:445   */\n      revert\n        /* \"#utility.yul\":457:574   */\n    tag_150:\n        /* \"#utility.yul\":566:567   */\n      0x00\n        /* \"#utility.yul\":563:564   */\n      dup1\n        /* \"#utility.yul\":556:568   */\n      revert\n        /* \"#utility.yul\":580:697   */\n    tag_151:\n        /* \"#utility.yul\":689:690   */\n      0x00\n        /* \"#utility.yul\":686:687   */\n      dup1\n        /* \"#utility.yul\":679:691   */\n      revert\n        /* \"#utility.yul\":720:1288   */\n    tag_152:\n        /* \"#utility.yul\":793:801   */\n      0x00\n        /* \"#utility.yul\":803:809   */\n      dup1\n        /* \"#utility.yul\":853:856   */\n      dup4\n        /* \"#utility.yul\":846:850   */\n      0x1f\n        /* \"#utility.yul\":838:844   */\n      dup5\n        /* \"#utility.yul\":834:851   */\n      add\n        /* \"#utility.yul\":830:857   */\n      slt\n        /* \"#utility.yul\":820:942   */\n      tag_174\n      jumpi\n        /* \"#utility.yul\":861:940   */\n      tag_175\n      tag_149\n      jump\t// in\n    tag_175:\n        /* \"#utility.yul\":820:942   */\n    tag_174:\n        /* \"#utility.yul\":974:980   */\n      dup3\n        /* \"#utility.yul\":961:981   */\n      calldataload\n        /* \"#utility.yul\":951:981   */\n      swap1\n      pop\n        /* \"#utility.yul\":1004:1022   */\n      0xffffffffffffffff\n        /* \"#utility.yul\":996:1002   */\n      dup2\n        /* \"#utility.yul\":993:1023   */\n      gt\n        /* \"#utility.yul\":990:1107   */\n      iszero\n      tag_176\n      jumpi\n        /* \"#utility.yul\":1026:1105   */\n      tag_177\n      tag_150\n      jump\t// in\n    tag_177:\n        /* \"#utility.yul\":990:1107   */\n    tag_176:\n        /* \"#utility.yul\":1140:1144   */\n      0x20\n        /* \"#utility.yul\":1132:1138   */\n      dup4\n        /* \"#utility.yul\":1128:1145   */\n      add\n        /* \"#utility.yul\":1116:1145   */\n      swap2\n      pop\n        /* \"#utility.yul\":1194:1197   */\n      dup4\n        /* \"#utility.yul\":1186:1190   */\n      0x20\n        /* \"#utility.yul\":1178:1184   */\n      dup3\n        /* \"#utility.yul\":1174:1191   */\n      mul\n        /* \"#utility.yul\":1164:1172   */\n      dup4\n        /* \"#utility.yul\":1160:1192   */\n      add\n        /* \"#utility.yul\":1157:1198   */\n      gt\n        /* \"#utility.yul\":1154:1282   */\n      iszero\n      tag_178\n      jumpi\n        /* \"#utility.yul\":1201:1280   */\n      tag_179\n      tag_151\n      jump\t// in\n    tag_179:\n        /* \"#utility.yul\":1154:1282   */\n    tag_178:\n        /* \"#utility.yul\":720:1288   */\n      swap3\n      pop\n      swap3\n      swap1\n      pop\n      jump\t// out\n        /* \"#utility.yul\":1294:1853   */\n    tag_14:\n        /* \"#utility.yul\":1380:1386   */\n      0x00\n        /* \"#utility.yul\":1388:1394   */\n      dup1\n        /* \"#utility.yul\":1437:1439   */\n      0x20\n        /* \"#utility.yul\":1425:1434   */\n      dup4\n        /* \"#utility.yul\":1416:1423   */\n      dup6\n        /* \"#utility.yul\":1412:1435   */\n      sub\n        /* \"#utility.yul\":1408:1440   */\n      slt\n        /* \"#utility.yul\":1405:1524   */\n      iszero\n      tag_181\n      jumpi\n        /* \"#utility.yul\":1443:1522   */\n      tag_182\n      tag_147\n      jump\t// in\n    tag_182:\n        /* \"#utility.yul\":1405:1524   */\n    tag_181:\n        /* \"#utility.yul\":1591:1592   */\n      0x00\n        /* \"#utility.yul\":1580:1589   */\n      dup4\n        /* \"#utility.yul\":1576:1593   */\n      add\n        /* \"#utility.yul\":1563:1594   */\n      calldataload\n        /* \"#utility.yul\":1621:1639   */\n      0xffffffffffffffff\n        /* \"#utility.yul\":1613:1619   */\n      dup2\n        /* \"#utility.yul\":1610:1640   */\n      gt\n        /* \"#utility.yul\":1607:1724   */\n      iszero\n      tag_183\n      jumpi\n        /* \"#utility.yul\":1643:1722   */\n      tag_184\n      tag_148\n      jump\t// in\n    tag_184:\n        /* \"#utility.yul\":1607:1724   */\n    tag_183:\n        /* \"#utility.yul\":1756:1836   */\n      tag_185\n        /* \"#utility.yul\":1828:1835   */\n      dup6\n        /* \"#utility.yul\":1819:1825   */\n      dup3\n        /* \"#utility.yul\":1808:1817   */\n      dup7\n        /* \"#utility.yul\":1804:1826   */\n      add\n        /* \"#utility.yul\":1756:1836   */\n      tag_152\n      jump\t// in\n    tag_185:\n        /* \"#utility.yul\":1738:1836   */\n      swap3\n      pop\n      swap3\n      pop\n        /* \"#utility.yul\":1534:1846   */\n      pop\n        /* \"#utility.yul\":1294:1853   */\n      swap3\n      pop\n      swap3\n      swap1\n      pop\n      jump\t// out\n        /* \"#utility.yul\":1859:1936   */\n    tag_153:\n        /* \"#utility.yul\":1896:1903   */\n      0x00\n        /* \"#utility.yul\":1925:1930   */\n      dup2\n        /* \"#utility.yul\":1914:1930   */\n      swap1\n      pop\n        /* \"#utility.yul\":1859:1936   */\n      swap2\n      swap1\n      pop\n      jump\t// out\n        /* \"#utility.yul\":1942:2060   */\n    tag_154:\n        /* \"#utility.yul\":2029:2053   */\n      tag_188\n        /* \"#utility.yul\":2047:2052   */\n      dup2\n        /* \"#utility.yul\":2029:2053   */\n      tag_153\n      jump\t// in\n    tag_188:\n        /* \"#utility.yul\":2024:2027   */\n      dup3\n        /* \"#utility.yul\":2017:2054   */\n      mstore\n        /* \"#utility.yul\":1942:2060   */\n      pop\n      pop\n      jump\t// out\n        /* \"#utility.yul\":2066:2288   */\n    tag_22:\n        /* \"#utility.yul\":2159:2163   */\n      0x00\n        /* \"#utility.yul\":2197:2199   */\n      0x20\n        /* \"#utility.yul\":2186:2195   */\n      dup3\n        /* \"#utility.yul\":2182:2200   */\n      add\n        /* \"#utility.yul\":2174:2200   */\n      swap1\n      pop\n        /* \"#utility.yul\":2210:2281   */\n      tag_190\n        /* \"#utility.yul\":2278:2279   */\n      0x00\n        /* \"#utility.yul\":2267:2276   */\n      dup4\n        /* \"#utility.yul\":2263:2280   */\n      add\n        /* \"#utility.yul\":2254:2260   */\n      dup5\n        /* \"#utility.yul\":2210:2281   */\n      tag_154\n      jump\t// in\n    tag_190:\n        /* \"#utility.yul\":2066:2288   */\n      swap3\n      swap2\n      pop\n      pop\n      jump\t// out\n        /* \"#utility.yul\":2294:2396   */\n    tag_155:\n        /* \"#utility.yul\":2335:2341   */\n      0x00\n        /* \"#utility.yul\":2386:2388   */\n      0x1f\n        /* \"#utility.yul\":2382:2389   */\n      not\n        /* \"#utility.yul\":2377:2379   */\n      0x1f\n        /* \"#utility.yul\":2370:2375   */\n      dup4\n        /* \"#utility.yul\":2366:2380   */\n      add\n        /* \"#utility.yul\":2362:2390   */\n      and\n        /* \"#utility.yul\":2352:2390   */\n      swap1\n      pop\n        /* \"#utility.yul\":2294:2396   */\n      swap2\n      swap1\n      pop\n      jump\t// out\n        /* \"#utility.yul\":2402:2582   */\n    tag_156:\n        /* \"#utility.yul\":2450:2527   */\n      0x4e487b7100000000000000000000000000000000000000000000000000000000\n        /* \"#utility.yul\":2447:2448   */\n      0x00\n        /* \"#utility.yul\":2440:2528   */\n      mstore\n        /* \"#utility.yul\":2547:2551   */\n      0x41\n        /* \"#utility.yul\":2544:2545   */\n      0x04\n        /* \"#utility.yul\":2537:2552   */\n      mstore\n        /* \"#utility.yul\":2571:2575   */\n      0x24\n        /* \"#utility.yul\":2568:2569   */\n      0x00\n        /* \"#utility.yul\":2561:2576   */\n      revert\n        /* \"#utility.yul\":2588:2869   */\n    tag_157:\n        /* \"#utility.yul\":2671:2698   */\n      tag_194\n        /* \"#utility.yul\":2693:2697   */\n      dup3\n        /* \"#utility.yul\":2671:2698   */\n      tag_155\n      jump\t// in\n    tag_194:\n        /* \"#utility.yul\":2663:2669   */\n      dup2\n        /* \"#utility.yul\":2659:2699   */\n      add\n        /* \"#utility.yul\":2801:2807   */\n      dup2\n        /* \"#utility.yul\":2789:2799   */\n      dup2\n        /* \"#utility.yul\":2786:2808   */\n      lt\n        /* \"#utility.yul\":2765:2783   */\n      0xffffffffffffffff\n        /* \"#utility.yul\":2753:2763   */\n      dup3\n        /* \"#utility.yul\":2750:2784   */\n      gt\n        /* \"#utility.yul\":2747:2809   */\n      or\n        /* \"#utility.yul\":2744:2832   */\n      iszero\n      tag_195\n      jumpi\n        /* \"#utility.yul\":2812:2830   */\n      tag_196\n      tag_156\n      jump\t// in\n    tag_196:\n        /* \"#utility.yul\":2744:2832   */\n    tag_195:\n        /* \"#utility.yul\":2852:2862   */\n      dup1\n        /* \"#utility.yul\":2848:2850   */\n      0x40\n        /* \"#utility.yul\":2841:2863   */\n      mstore\n        /* \"#utility.yul\":2631:2869   */\n      pop\n        /* \"#utility.yul\":2588:2869   */\n      pop\n      pop\n      jump\t// out\n        /* \"#utility.yul\":2875:3004   */\n    tag_158:\n        /* \"#utility.yul\":2909:2915   */\n      0x00\n        /* \"#utility.yul\":2936:2956   */\n      tag_198\n      tag_146\n      jump\t// in\n    tag_198:\n        /* \"#utility.yul\":2926:2956   */\n      swap1\n      pop\n        /* \"#utility.yul\":2965:2998   */\n      tag_199\n        /* \"#utility.yul\":2993:2997   */\n      dup3\n        /* \"#utility.yul\":2985:2991   */\n      dup3\n        /* \"#utility.yul\":2965:2998   */\n      tag_157\n      jump\t// in\n    tag_199:\n        /* \"#utility.yul\":2875:3004   */\n      swap2\n      swap1\n      pop\n      jump\t// out\n        /* \"#utility.yul\":3010:3321   */\n    tag_159:\n        /* \"#utility.yul\":3087:3091   */\n      0x00\n        /* \"#utility.yul\":3177:3195   */\n      0xffffffffffffffff\n        /* \"#utility.yul\":3169:3175   */\n      dup3\n        /* \"#utility.yul\":3166:3196   */\n      gt\n        /* \"#utility.yul\":3163:3219   */\n      iszero\n      tag_201\n      jumpi\n        /* \"#utility.yul\":3199:3217   */\n      tag_202\n      tag_156\n      jump\t// in\n    tag_202:\n        /* \"#utility.yul\":3163:3219   */\n    tag_201:\n        /* \"#utility.yul\":3249:3253   */\n      0x20\n        /* \"#utility.yul\":3241:3247   */\n      dup3\n        /* \"#utility.yul\":3237:3254   */\n      mul\n        /* \"#utility.yul\":3229:3254   */\n      swap1\n      pop\n        /* \"#utility.yul\":3309:3313   */\n      0x20\n        /* \"#utility.yul\":3303:3307   */\n      dup2\n        /* \"#utility.yul\":3299:3314   */\n      add\n        /* \"#utility.yul\":3291:3314   */\n      swap1\n      pop\n        /* \"#utility.yul\":3010:3321   */\n      swap2\n      swap1\n      pop\n      jump\t// out\n        /* \"#utility.yul\":3327:3449   */\n    tag_160:\n        /* \"#utility.yul\":3400:3424   */\n      tag_204\n        /* \"#utility.yul\":3418:3423   */\n      dup2\n        /* \"#utility.yul\":3400:3424   */\n      tag_153\n      jump\t// in\n    tag_204:\n        /* \"#utility.yul\":3393:3398   */\n      dup2\n        /* \"#utility.yul\":3390:3425   */\n      eq\n        /* \"#utility.yul\":3380:3443   */\n      tag_205\n      jumpi\n        /* \"#utility.yul\":3439:3440   */\n      0x00\n        /* \"#utility.yul\":3436:3437   */\n      dup1\n        /* \"#utility.yul\":3429:3441   */\n      revert\n        /* \"#utility.yul\":3380:3443   */\n    tag_205:\n        /* \"#utility.yul\":3327:3449   */\n      pop\n      jump\t// out\n        /* \"#utility.yul\":3455:3594   */\n    tag_161:\n        /* \"#utility.yul\":3501:3506   */\n      0x00\n        /* \"#utility.yul\":3539:3545   */\n      dup2\n        /* \"#utility.yul\":3526:3546   */\n      calldataload\n        /* \"#utility.yul\":3517:3546   */\n      swap1\n      pop\n        /* \"#utility.yul\":3555:3588   */\n      tag_207\n        /* \"#utility.yul\":3582:3587   */\n      dup2\n        /* \"#utility.yul\":3555:3588   */\n      tag_160\n      jump\t// in\n    tag_207:\n        /* \"#utility.yul\":3455:3594   */\n      swap3\n      swap2\n      pop\n      pop\n      jump\t// out\n        /* \"#utility.yul\":3617:4327   */\n    tag_162:\n        /* \"#utility.yul\":3713:3718   */\n      0x00\n        /* \"#utility.yul\":3738:3819   */\n      tag_209\n        /* \"#utility.yul\":3754:3818   */\n      tag_210\n        /* \"#utility.yul\":3811:3817   */\n      dup5\n        /* \"#utility.yul\":3754:3818   */\n      tag_159\n      jump\t// in\n    tag_210:\n        /* \"#utility.yul\":3738:3819   */\n      tag_158\n      jump\t// in\n    tag_209:\n        /* \"#utility.yul\":3729:3819   */\n      swap1\n      pop\n        /* \"#utility.yul\":3839:3844   */\n      dup1\n        /* \"#utility.yul\":3868:3874   */\n      dup4\n        /* \"#utility.yul\":3861:3866   */\n      dup3\n        /* \"#utility.yul\":3854:3875   */\n      mstore\n        /* \"#utility.yul\":3902:3906   */\n      0x20\n        /* \"#utility.yul\":3895:3900   */\n      dup3\n        /* \"#utility.yul\":3891:3907   */\n      add\n        /* \"#utility.yul\":3884:3907   */\n      swap1\n      pop\n        /* \"#utility.yul\":3955:3959   */\n      0x20\n        /* \"#utility.yul\":3947:3953   */\n      dup5\n        /* \"#utility.yul\":3943:3960   */\n      mul\n        /* \"#utility.yul\":3935:3941   */\n      dup4\n        /* \"#utility.yul\":3931:3961   */\n      add\n        /* \"#utility.yul\":3984:3987   */\n      dup6\n        /* \"#utility.yul\":3976:3982   */\n      dup2\n        /* \"#utility.yul\":3973:3988   */\n      gt\n        /* \"#utility.yul\":3970:4092   */\n      iszero\n      tag_211\n      jumpi\n        /* \"#utility.yul\":4003:4082   */\n      tag_212\n      tag_151\n      jump\t// in\n    tag_212:\n        /* \"#utility.yul\":3970:4092   */\n    tag_211:\n        /* \"#utility.yul\":4118:4124   */\n      dup4\n        /* \"#utility.yul\":4101:4321   */\n    tag_213:\n        /* \"#utility.yul\":4135:4141   */\n      dup2\n        /* \"#utility.yul\":4130:4133   */\n      dup2\n        /* \"#utility.yul\":4127:4142   */\n      lt\n        /* \"#utility.yul\":4101:4321   */\n      iszero\n      tag_215\n      jumpi\n        /* \"#utility.yul\":4210:4213   */\n      dup1\n        /* \"#utility.yul\":4239:4276   */\n      tag_216\n        /* \"#utility.yul\":4272:4275   */\n      dup9\n        /* \"#utility.yul\":4260:4270   */\n      dup3\n        /* \"#utility.yul\":4239:4276   */\n      tag_161\n      jump\t// in\n    tag_216:\n        /* \"#utility.yul\":4234:4237   */\n      dup5\n        /* \"#utility.yul\":4227:4277   */\n      mstore\n        /* \"#utility.yul\":4306:4310   */\n      0x20\n        /* \"#utility.yul\":4301:4304   */\n      dup5\n        /* \"#utility.yul\":4297:4311   */\n      add\n        /* \"#utility.yul\":4290:4311   */\n      swap4\n      pop\n        /* \"#utility.yul\":4177:4321   */\n      pop\n        /* \"#utility.yul\":4161:4165   */\n      0x20\n        /* \"#utility.yul\":4156:4159   */\n      dup2\n        /* \"#utility.yul\":4152:4166   */\n      add\n        /* \"#utility.yul\":4145:4166   */\n      swap1\n      pop\n        /* \"#utility.yul\":4101:4321   */\n      jump(tag_213)\n    tag_215:\n        /* \"#utility.yul\":4105:4126   */\n      pop\n        /* \"#utility.yul\":3719:4327   */\n      pop\n      pop\n        /* \"#utility.yul\":3617:4327   */\n      swap4\n      swap3\n      pop\n      pop\n      pop\n      jump\t// out\n        /* \"#utility.yul\":4350:4720   */\n    tag_163:\n        /* \"#utility.yul\":4421:4426   */\n      0x00\n        /* \"#utility.yul\":4470:4473   */\n      dup3\n        /* \"#utility.yul\":4463:4467   */\n      0x1f\n        /* \"#utility.yul\":4455:4461   */\n      dup4\n        /* \"#utility.yul\":4451:4468   */\n      add\n        /* \"#utility.yul\":4447:4474   */\n      slt\n        /* \"#utility.yul\":4437:4559   */\n      tag_218\n      jumpi\n        /* \"#utility.yul\":4478:4557   */\n      tag_219\n      tag_149\n      jump\t// in\n    tag_219:\n        /* \"#utility.yul\":4437:4559   */\n    tag_218:\n        /* \"#utility.yul\":4595:4601   */\n      dup2\n        /* \"#utility.yul\":4582:4602   */\n      calldataload\n        /* \"#utility.yul\":4620:4714   */\n      tag_220\n        /* \"#utility.yul\":4710:4713   */\n      dup5\n        /* \"#utility.yul\":4702:4708   */\n      dup3\n        /* \"#utility.yul\":4695:4699   */\n      0x20\n        /* \"#utility.yul\":4687:4693   */\n      dup7\n        /* \"#utility.yul\":4683:4700   */\n      add\n        /* \"#utility.yul\":4620:4714   */\n      tag_162\n      jump\t// in\n    tag_220:\n        /* \"#utility.yul\":4611:4714   */\n      swap2\n      pop\n        /* \"#utility.yul\":4427:4720   */\n      pop\n        /* \"#utility.yul\":4350:4720   */\n      swap3\n      swap2\n      pop\n      pop\n      jump\t// out\n        /* \"#utility.yul\":4726:5265   */\n    tag_37:\n        /* \"#utility.yul\":4810:4816   */\n      0x00\n        /* \"#utility.yul\":4859:4861   */\n      0x20\n        /* \"#utility.yul\":4847:4856   */\n      dup3\n        /* \"#utility.yul\":4838:4845   */\n      dup5\n        /* \"#utility.yul\":4834:4857   */\n      sub\n        /* \"#utility.yul\":4830:4862   */\n      slt\n        /* \"#utility.yul\":4827:4946   */\n      iszero\n      tag_222\n      jumpi\n        /* \"#utility.yul\":4865:4944   */\n      tag_223\n      tag_147\n      jump\t// in\n    tag_223:\n        /* \"#utility.yul\":4827:4946   */\n    tag_222:\n        /* \"#utility.yul\":5013:5014   */\n      0x00\n        /* \"#utility.yul\":5002:5011   */\n      dup3\n        /* \"#utility.yul\":4998:5015   */\n      add\n        /* \"#utility.yul\":4985:5016   */\n      calldataload\n        /* \"#utility.yul\":5043:5061   */\n      0xffffffffffffffff\n        /* \"#utility.yul\":5035:5041   */\n      dup2\n        /* \"#utility.yul\":5032:5062   */\n      gt\n        /* \"#utility.yul\":5029:5146   */\n      iszero\n      tag_224\n      jumpi\n        /* \"#utility.yul\":5065:5144   */\n      tag_225\n      tag_148\n      jump\t// in\n    tag_225:\n        /* \"#utility.yul\":5029:5146   */\n    tag_224:\n        /* \"#utility.yul\":5170:5248   */\n      tag_226\n        /* \"#utility.yul\":5240:5247   */\n      dup5\n        /* \"#utility.yul\":5231:5237   */\n      dup3\n        /* \"#utility.yul\":5220:5229   */\n      dup6\n        /* \"#utility.yul\":5216:5238   */\n      add\n        /* \"#utility.yul\":5170:5248   */\n      tag_163\n      jump\t// in\n    tag_226:\n        /* \"#utility.yul\":5160:5248   */\n      swap2\n      pop\n        /* \"#utility.yul\":4956:5258   */\n      pop\n        /* \"#utility.yul\":4726:5265   */\n      swap3\n      swap2\n      pop\n      pop\n      jump\t// out\n        /* \"#utility.yul\":5271:5451   */\n    tag_45:\n        /* \"#utility.yul\":5319:5396   */\n      0x4e487b7100000000000000000000000000000000000000000000000000000000\n        /* \"#utility.yul\":5316:5317   */\n      0x00\n        /* \"#utility.yul\":5309:5397   */\n      mstore\n        /* \"#utility.yul\":5416:5420   */\n      0x32\n        /* \"#utility.yul\":5413:5414   */\n      0x04\n        /* \"#utility.yul\":5406:5421   */\n      mstore\n        /* \"#utility.yul\":5440:5444   */\n      0x24\n        /* \"#utility.yul\":5437:5438   */\n      0x00\n        /* \"#utility.yul\":5430:5445   */\n      revert\n        /* \"#utility.yul\":5457:5637   */\n    tag_164:\n        /* \"#utility.yul\":5505:5582   */\n      0x4e487b7100000000000000000000000000000000000000000000000000000000\n        /* \"#utility.yul\":5502:5503   */\n      0x00\n        /* \"#utility.yul\":5495:5583   */\n      mstore\n        /* \"#utility.yul\":5602:5606   */\n      0x12\n        /* \"#utility.yul\":5599:5600   */\n      0x04\n        /* \"#utility.yul\":5592:5607   */\n      mstore\n        /* \"#utility.yul\":5626:5630   */\n      0x24\n        /* \"#utility.yul\":5623:5624   */\n      0x00\n        /* \"#utility.yul\":5616:5631   */\n      revert\n        /* \"#utility.yul\":5643:5819   */\n    tag_47:\n        /* \"#utility.yul\":5675:5676   */\n      0x00\n        /* \"#utility.yul\":5692:5712   */\n      tag_230\n        /* \"#utility.yul\":5710:5711   */\n      dup3\n        /* \"#utility.yul\":5692:5712   */\n      tag_153\n      jump\t// in\n    tag_230:\n        /* \"#utility.yul\":5687:5712   */\n      swap2\n      pop\n        /* \"#utility.yul\":5726:5746   */\n      tag_231\n        /* \"#utility.yul\":5744:5745   */\n      dup4\n        /* \"#utility.yul\":5726:5746   */\n      tag_153\n      jump\t// in\n    tag_231:\n        /* \"#utility.yul\":5721:5746   */\n      swap3\n      pop\n        /* \"#utility.yul\":5765:5766   */\n      dup3\n        /* \"#utility.yul\":5755:5790   */\n      tag_232\n      jumpi\n        /* \"#utility.yul\":5770:5788   */\n      tag_233\n      tag_164\n      jump\t// in\n    tag_233:\n        /* \"#utility.yul\":5755:5790   */\n    tag_232:\n        /* \"#utility.yul\":5811:5812   */\n      dup3\n        /* \"#utility.yul\":5808:5809   */\n      dup3\n        /* \"#utility.yul\":5804:5813   */\n      mod\n        /* \"#utility.yul\":5799:5813   */\n      swap1\n      pop\n        /* \"#utility.yul\":5643:5819   */\n      swap3\n      swap2\n      pop\n      pop\n      jump\t// out\n        /* \"#utility.yul\":5825:6005   */\n    tag_165:\n        /* \"#utility.yul\":5873:5950   */\n      0x4e487b7100000000000000000000000000000000000000000000000000000000\n        /* \"#utility.yul\":5870:5871   */\n      0x00\n        /* \"#utility.yul\":5863:5951   */\n      mstore\n        /* \"#utility.yul\":5970:5974   */\n      0x11\n        /* \"#utility.yul\":5967:5968   */\n      0x04\n        /* \"#utility.yul\":5960:5975   */\n      mstore\n        /* \"#utility.yul\":5994:5998   */\n      0x24\n        /* \"#utility.yul\":5991:5992   */\n      0x00\n        /* \"#utility.yul\":5984:5999   */\n      revert\n        /* \"#utility.yul\":6011:6202   */\n    tag_55:\n        /* \"#utility.yul\":6051:6054   */\n      0x00\n        /* \"#utility.yul\":6070:6090   */\n      tag_236\n        /* \"#utility.yul\":6088:6089   */\n      dup3\n        /* \"#utility.yul\":6070:6090   */\n      tag_153\n      jump\t// in\n    tag_236:\n        /* \"#utility.yul\":6065:6090   */\n      swap2\n      pop\n        /* \"#utility.yul\":6104:6124   */\n      tag_237\n        /* \"#utility.yul\":6122:6123   */\n      dup4\n        /* \"#utility.yul\":6104:6124   */\n      tag_153\n      jump\t// in\n    tag_237:\n        /* \"#utility.yul\":6099:6124   */\n      swap3\n      pop\n        /* \"#utility.yul\":6147:6148   */\n      dup3\n        /* \"#utility.yul\":6144:6145   */\n      dup3\n        /* \"#utility.yul\":6140:6149   */\n      add\n        /* \"#utility.yul\":6133:6149   */\n      swap1\n      pop\n        /* \"#utility.yul\":6168:6171   */\n      dup1\n        /* \"#utility.yul\":6165:6166   */\n      dup3\n        /* \"#utility.yul\":6162:6172   */\n      gt\n        /* \"#utility.yul\":6159:6195   */\n      iszero\n      tag_238\n      jumpi\n        /* \"#utility.yul\":6175:6193   */\n      tag_239\n      tag_165\n      jump\t// in\n    tag_239:\n        /* \"#utility.yul\":6159:6195   */\n    tag_238:\n        /* \"#utility.yul\":6011:6202   */\n      swap3\n      swap2\n      pop\n      pop\n      jump\t// out\n        /* \"#utility.yul\":6208:6441   */\n    tag_57:\n        /* \"#utility.yul\":6247:6250   */\n      0x00\n        /* \"#utility.yul\":6270:6294   */\n      tag_241\n        /* \"#utility.yul\":6288:6293   */\n      dup3\n        /* \"#utility.yul\":6270:6294   */\n      tag_153\n      jump\t// in\n    tag_241:\n        /* \"#utility.yul\":6261:6294   */\n      swap2\n      pop\n        /* \"#utility.yul\":6316:6382   */\n      0xffffffffffffffffffffffffffffffffffffffffffffffffffffffffffffffff\n        /* \"#utility.yul\":6309:6314   */\n      dup3\n        /* \"#utility.yul\":6306:6383   */\n      sub\n        /* \"#utility.yul\":6303:6406   */\n      tag_242\n      jumpi\n        /* \"#utility.yul\":6386:6404   */\n      tag_243\n      tag_165\n      jump\t// in\n    tag_243:\n        /* \"#utility.yul\":6303:6406   */\n    tag_242:\n        /* \"#utility.yul\":6433:6434   */\n      0x01\n        /* \"#utility.yul\":6426:6431   */\n      dup3\n        /* \"#utility.yul\":6422:6435   */\n      add\n        /* \"#utility.yul\":6415:6435   */\n      swap1\n      pop\n        /* \"#utility.yul\":6208:6441   */\n      swap2\n      swap1\n      pop\n      jump\t// out\n\n    auxdata: 0xa2646970667358221220379026200cf0fad0710db04729e2875d159b8f1ff5cc634a1a5fb98a1d280acc64736f6c63430008120033\n}\n",
				"bytecode": {
					"linkReferences": {},
					"object": "608060405234801561001057600080fd5b50610a63806100206000396000f3fe608060405234801561001057600080fd5b50600436106100885760003560e01c80639acb58a21161005b5780639acb58a2146100ff578063a7a612381461011b578063aef76e2a14610137578063c658014b1461015357610088565b8063223fb4e71461008d5780632574b7c1146100a95780632ddbd13a146100c55780634934d2db146100e3575b600080fd5b6100a760048036038101906100a291906106ae565b61016f565b005b6100c360048036038101906100be91906106ae565b61021d565b005b6100cd6102d3565b6040516100da9190610714565b60405180910390f35b6100fd60048036038101906100f891906106ae565b6102d9565b005b610119600480360381019061011491906106ae565b610381565b005b610135600480360381019061013091906106ae565b610438565b005b610151600480360381019061014c91906106ae565b6104e3565b005b61016d600480360381019061016891906108aa565b61057e565b005b60008083839050905060005b8181101561020f576000600286868481811061019a576101996108f3565b5b905060200201356101ab9190610951565b1480156101d1575060638585838181106101c8576101c76108f3565b5b90506020020135105b156101fe578484828181106101e9576101e86108f3565b5b90506020020135836101fb91906109b1565b92505b80610208906109e5565b905061017b565b508160008190555050505050565b6000805b838390508110156102c6576000806002868685818110610244576102436108f3565b5b905060200201356102559190610951565b1490506000606386868581811061026f5761026e6108f3565b5b905060200201351090508180156102835750805b156102b05785858481811061029b5761029a6108f3565b5b90506020020135846102ad91906109b1565b93505b50506001816102bf91906109b1565b9050610221565b5080600081905550505050565b60005481565b6000805b8383905081101561037457600060028585848181106102ff576102fe6108f3565b5b905060200201356103109190610951565b1480156103365750606384848381811061032d5761032c6108f3565b5b90506020020135105b156103635783838281811061034e5761034d6108f3565b5b905060200201358261036091906109b1565b91505b8061036d906109e5565b90506102dd565b5080600081905550505050565b60005b828290508110156104335760008060028585858181106103a7576103a66108f3565b5b905060200201356103b89190610951565b149050600060638585858181106103d2576103d16108f3565b5b905060200201351090508180156103e65750805b1561041d578484848181106103fe576103fd6108f3565b5b9050602002013560008082825461041591906109b1565b925050819055505b505060018161042c91906109b1565b9050610384565b505050565b6000805b838390508110156104d6576000600285858481811061045e5761045d6108f3565b5b9050602002013561046f9190610951565b1480156104955750606384848381811061048c5761048b6108f3565b5b90506020020135105b156104c2578383828181106104ad576104ac6108f3565b5b90506020020135826104bf91906109b1565b91505b6001816104cf91906109b1565b905061043c565b5080600081905550505050565b60008083839050905060005b8181101561057057600085858381811061050c5761050b6108f3565b5b90506020020135905060006002826105249190610951565b1480156105315750606381105b1561055e57858583818110610549576105486108f3565b5b905060200201358461055b91906109b1565b93505b5080610569906109e5565b90506104ef565b508160008190555050505050565b60005b81518110156106315760008060028484815181106105a2576105a16108f3565b5b60200260200101516105b49190610951565b149050600060638484815181106105ce576105cd6108f3565b5b60200260200101511090508180156105e35750805b1561061b578383815181106105fb576105fa6108f3565b5b602002602001015160008082825461061391906109b1565b925050819055505b505060018161062a91906109b1565b9050610581565b5050565b6000604051905090565b600080fd5b600080fd5b600080fd5b600080fd5b600080fd5b60008083601f84011261066e5761066d610649565b5b8235905067ffffffffffffffff81111561068b5761068a61064e565b5b6020830191508360208202830111156106a7576106a6610653565b5b9250929050565b600080602083850312156106c5576106c461063f565b5b600083013567ffffffffffffffff8111156106e3576106e2610644565b5b6106ef85828601610658565b92509250509250929050565b6000819050919050565b61070e816106fb565b82525050565b60006020820190506107296000830184610705565b92915050565b6000601f19601f8301169050919050565b7f4e487b7100000000000000000000000000000000000000000000000000000000600052604160045260246000fd5b6107788261072f565b810181811067ffffffffffffffff8211171561079757610796610740565b5b80604052505050565b60006107aa610635565b90506107b6828261076f565b919050565b600067ffffffffffffffff8211156107d6576107d5610740565b5b602082029050602081019050919050565b6107f0816106fb565b81146107fb57600080fd5b50565b60008135905061080d816107e7565b92915050565b6000610826610821846107bb565b6107a0565b9050808382526020820190506020840283018581111561084957610848610653565b5b835b81811015610872578061085e88826107fe565b84526020840193505060208101905061084b565b5050509392505050565b600082601f83011261089157610890610649565b5b81356108a1848260208601610813565b91505092915050565b6000602082840312156108c0576108bf61063f565b5b600082013567ffffffffffffffff8111156108de576108dd610644565b5b6108ea8482850161087c565b91505092915050565b7f4e487b7100000000000000000000000000000000000000000000000000000000600052603260045260246000fd5b7f4e487b7100000000000000000000000000000000000000000000000000000000600052601260045260246000fd5b600061095c826106fb565b9150610967836106fb565b92508261097757610976610922565b5b828206905092915050565b7f4e487b7100000000000000000000000000000000000000000000000000000000600052601160045260246000fd5b60006109bc826106fb565b91506109c7836106fb565b92508282019050808211156109df576109de610982565b5b92915050565b60006109f0826106fb565b91507fffffffffffffffffffffffffffffffffffffffffffffffffffffffffffffffff8203610a2257610a21610982565b5b60018201905091905056fea2646970667358221220379026200cf0fad0710db04729e2875d159b8f1ff5cc634a1a5fb98a1d280acc64736f6c63430008120033",
					"opcodes": "PUSH1 0x80 PUSH1 0x40 MSTORE CALLVALUE DUP1 ISZERO PUSH2 0x10 JUMPI PUSH1 0x0 DUP1 REVERT JUMPDEST POP PUSH2 0xA63 DUP1 PUSH2 0x20 PUSH1 0x0 CODECOPY PUSH1 0x0 RETURN INVALID PUSH1 0x80 PUSH1 0x40 MSTORE CALLVALUE DUP1 ISZERO PUSH2 0x10 JUMPI PUSH1 0x0 DUP1 REVERT JUMPDEST POP PUSH1 0x4 CALLDATASIZE LT PUSH2 0x88 JUMPI PUSH1 0x0 CALLDATALOAD PUSH1 0xE0 SHR DUP1 PUSH4 0x9ACB58A2 GT PUSH2 0x5B JUMPI DUP1 PUSH4 0x9ACB58A2 EQ PUSH2 0xFF JUMPI DUP1 PUSH4 0xA7A61238 EQ PUSH2 0x11B JUMPI DUP1 PUSH4 0xAEF76E2A EQ PUSH2 0x137 JUMPI DUP1 PUSH4 0xC658014B EQ PUSH2 0x153 JUMPI PUSH2 0x88 JUMP JUMPDEST DUP1 PUSH4 0x223FB4E7 EQ PUSH2 0x8D JUMPI DUP1 PUSH4 0x2574B7C1 EQ PUSH2 0xA9 JUMPI DUP1 PUSH4 0x2DDBD13A EQ PUSH2 0xC5 JUMPI DUP1 PUSH4 0x4934D2DB EQ PUSH2 0xE3 JUMPI JUMPDEST PUSH1 0x0 DUP1 REVERT JUMPDEST PUSH2 0xA7 PUSH1 0x4 DUP1 CALLDATASIZE SUB DUP2 ADD SWAP1 PUSH2 0xA2 SWAP2 SWAP1 PUSH2 0x6AE JUMP JUMPDEST PUSH2 0x16F JUMP JUMPDEST STOP JUMPDEST PUSH2 0xC3 PUSH1 0x4 DUP1 CALLDATASIZE SUB DUP2 ADD SWAP1 PUSH2 0xBE SWAP2 SWAP1 PUSH2 0x6AE JUMP JUMPDEST PUSH2 0x21D JUMP JUMPDEST STOP JUMPDEST PUSH2 0xCD PUSH2 0x2D3 JUMP JUMPDEST PUSH1 0x40 MLOAD PUSH2 0xDA SWAP2 SWAP1 PUSH2 0x714 JUMP JUMPDEST PUSH1 0x40 MLOAD DUP1 SWAP2 SUB SWAP1 RETURN JUMPDEST PUSH2 0xFD PUSH1 0x4 DUP1 CALLDATASIZE SUB DUP2 ADD SWAP1 PUSH2 0xF8 SWAP2 SWAP1 PUSH2 0x6AE JUMP JUMPDEST PUSH2 0x2D9 JUMP JUMPDEST STOP JUMPDEST PUSH2 0x119 PUSH1 0x4 DUP1 CALLDATASIZE SUB DUP2 ADD SWAP1 PUSH2 0x114 SWAP2 SWAP1 PUSH2 0x6AE JUMP JUMPDEST PUSH2 0x381 JUMP JUMPDEST STOP JUMPDEST PUSH2 0x135 PUSH1 0x4 DUP1 CALLDATASIZE SUB DUP2 ADD SWAP1 PUSH2 0x130 SWAP2 SWAP1 PUSH2 0x6AE JUMP JUMPDEST PUSH2 0x438 JUMP JUMPDEST STOP JUMPDEST PUSH2 0x151 PUSH1 0x4 DUP1 CALLDATASIZE SUB DUP2 ADD SWAP1 PUSH2 0x14C SWAP2 SWAP1 PUSH2 0x6AE JUMP JUMPDEST PUSH2 0x4E3 JUMP JUMPDEST STOP JUMPDEST PUSH2 0x16D PUSH1 0x4 DUP1 CALLDATASIZE SUB DUP2 ADD SWAP1 PUSH2 0x168 SWAP2 SWAP1 PUSH2 0x8AA JUMP JUMPDEST PUSH2 0x57E JUMP JUMPDEST STOP JUMPDEST PUSH1 0x0 DUP1 DUP4 DUP4 SWAP1 POP SWAP1 POP PUSH1 0x0 JUMPDEST DUP2 DUP2 LT ISZERO PUSH2 0x20F JUMPI PUSH1 0x0 PUSH1 0x2 DUP7 DUP7 DUP5 DUP2 DUP2 LT PUSH2 0x19A JUMPI PUSH2 0x199 PUSH2 0x8F3 JUMP JUMPDEST JUMPDEST SWAP1 POP PUSH1 0x20 MUL ADD CALLDATALOAD PUSH2 0x1AB SWAP2 SWAP1 PUSH2 0x951 JUMP JUMPDEST EQ DUP1 ISZERO PUSH2 0x1D1 JUMPI POP PUSH1 0x63 DUP6 DUP6 DUP4 DUP2 DUP2 LT PUSH2 0x1C8 JUMPI PUSH2 0x1C7 PUSH2 0x8F3 JUMP JUMPDEST JUMPDEST SWAP1 POP PUSH1 0x20 MUL ADD CALLDATALOAD LT JUMPDEST ISZERO PUSH2 0x1FE JUMPI DUP5 DUP5 DUP3 DUP2 DUP2 LT PUSH2 0x1E9 JUMPI PUSH2 0x1E8 PUSH2 0x8F3 JUMP JUMPDEST JUMPDEST SWAP1 POP PUSH1 0x20 MUL ADD CALLDATALOAD DUP4 PUSH2 0x1FB SWAP2 SWAP1 PUSH2 0x9B1 JUMP JUMPDEST SWAP3 POP JUMPDEST DUP1 PUSH2 0x208 SWAP1 PUSH2 0x9E5 JUMP JUMPDEST SWAP1 POP PUSH2 0x17B JUMP JUMPDEST POP DUP2 PUSH1 0x0 DUP2 SWAP1 SSTORE POP POP POP POP POP JUMP JUMPDEST PUSH1 0x0 DUP1 JUMPDEST DUP4 DUP4 SWAP1 POP DUP2 LT ISZERO PUSH2 0x2C6 JUMPI PUSH1 0x0 DUP1 PUSH1 0x2 DUP7 DUP7 DUP6 DUP2 DUP2 LT PUSH2 0x244 JUMPI PUSH2 0x243 PUSH2 0x8F3 JUMP JUMPDEST JUMPDEST SWAP1 POP PUSH1 0x20 MUL ADD CALLDATALOAD PUSH2 0x255 SWAP2 SWAP1 PUSH2 0x951 JUMP JUMPDEST EQ SWAP1 POP PUSH1 0x0 PUSH1 0x63 DUP7 DUP7 DUP6 DUP2 DUP2 LT PUSH2 0x26F JUMPI PUSH2 0x26E PUSH2 0x8F3 JUMP JUMPDEST JUMPDEST SWAP1 POP PUSH1 0x20 MUL ADD CALLDATALOAD LT SWAP1 POP DUP2 DUP1 ISZERO PUSH2 0x283 JUMPI POP DUP1 JUMPDEST ISZERO PUSH2 0x2B0 JUMPI DUP6 DUP6 DUP5 DUP2 DUP2 LT PUSH2 0x29B JUMPI PUSH2 0x29A PUSH2 0x8F3 JUMP JUMPDEST JUMPDEST SWAP1 POP PUSH1 0x20 MUL ADD CALLDATALOAD DUP5 PUSH2 0x2AD SWAP2 SWAP1 PUSH2 0x9B1 JUMP JUMPDEST SWAP4 POP JUMPDEST POP POP PUSH1 0x1 DUP2 PUSH2 0x2BF SWAP2 SWAP1 PUSH2 0x9B1 JUMP JUMPDEST SWAP1 POP PUSH2 0x221 JUMP JUMPDEST POP DUP1 PUSH1 0x0 DUP2 SWAP1 SSTORE POP POP POP POP JUMP JUMPDEST PUSH1 0x0 SLOAD DUP2 JUMP JUMPDEST PUSH1 0x0 DUP1 JUMPDEST DUP4 DUP4 SWAP1 POP DUP2 LT ISZERO PUSH2 0x374 JUMPI PUSH1 0x0 PUSH1 0x2 DUP6 DUP6 DUP5 DUP2 DUP2 LT PUSH2 0x2FF JUMPI PUSH2 0x2FE PUSH2 0x8F3 JUMP JUMPDEST JUMPDEST SWAP1 POP PUSH1 0x20 MUL ADD CALLDATALOAD PUSH2 0x310 SWAP2 SWAP1 PUSH2 0x951 JUMP JUMPDEST EQ DUP1 ISZERO PUSH2 0x336 JUMPI POP PUSH1 0x63 DUP5 DUP5 DUP4 DUP2 DUP2 LT PUSH2 0x32D JUMPI PUSH2 0x32C PUSH2 0x8F3 JUMP JUMPDEST JUMPDEST SWAP1 POP PUSH1 0x20 MUL ADD CALLDATALOAD LT JUMPDEST ISZERO PUSH2 0x363 JUMPI DUP4 DUP4 DUP3 DUP2 DUP2 LT PUSH2 0x34E JUMPI PUSH2 0x34D PUSH2 0x8F3 JUMP JUMPDEST JUMPDEST SWAP1 POP PUSH1 0x20 MUL ADD CALLDATALOAD DUP3 PUSH2 0x360 SWAP2 SWAP1 PUSH2 0x9B1 JUMP JUMPDEST SWAP2 POP JUMPDEST DUP1 PUSH2 0x36D SWAP1 PUSH2 0x9E5 JUMP JUMPDEST SWAP1 POP PUSH2 0x2DD JUMP JUMPDEST POP DUP1 PUSH1 0x0 DUP2 SWAP1 SSTORE POP POP POP POP JUMP JUMPDEST PUSH1 0x0 JUMPDEST DUP3 DUP3 SWAP1 POP DUP2 LT ISZERO PUSH2 0x433 JUMPI PUSH1 0x0 DUP1 PUSH1 0x2 DUP6 DUP6 DUP6 DUP2 DUP2 LT PUSH2 0x3A7 JUMPI PUSH2 0x3A6 PUSH2 0x8F3 JUMP JUMPDEST JUMPDEST SWAP1 POP PUSH1 0x20 MUL ADD CALLDATALOAD PUSH2 0x3B8 SWAP2 SWAP1 PUSH2 0x951 JUMP JUMPDEST EQ SWAP1 POP PUSH1 0x0 PUSH1 0x63 DUP6 DUP6 DUP6 DUP2 DUP2 LT PUSH2 0x3D2 JUMPI PUSH2 0x3D1 PUSH2 0x8F3 JUMP JUMPDEST JUMPDEST SWAP1 POP PUSH1 0x20 MUL ADD CALLDATALOAD LT SWAP1 POP DUP2 DUP1 ISZERO PUSH2 0x3E6 JUMPI POP DUP1 JUMPDEST ISZERO PUSH2 0x41D JUMPI DUP5 DUP5 DUP5 DUP2 DUP2 LT PUSH2 0x3FE JUMPI PUSH2 0x3FD PUSH2 0x8F3 JUMP JUMPDEST JUMPDEST SWAP1 POP PUSH1 0x20 MUL ADD CALLDATALOAD PUSH1 0x0 DUP1 DUP3 DUP3 SLOAD PUSH2 0x415 SWAP2 SWAP1 PUSH2 0x9B1 JUMP JUMPDEST SWAP3 POP POP DUP2 SWAP1 SSTORE POP JUMPDEST POP POP PUSH1 0x1 DUP2 PUSH2 0x42C SWAP2 SWAP1 PUSH2 0x9B1 JUMP JUMPDEST SWAP1 POP PUSH2 0x384 JUMP JUMPDEST POP POP POP JUMP JUMPDEST PUSH1 0x0 DUP1 JUMPDEST DUP4 DUP4 SWAP1 POP DUP2 LT ISZERO PUSH2 0x4D6 JUMPI PUSH1 0x0 PUSH1 0x2 DUP6 DUP6 DUP5 DUP2 DUP2 LT PUSH2 0x45E JUMPI PUSH2 0x45D PUSH2 0x8F3 JUMP JUMPDEST JUMPDEST SWAP1 POP PUSH1 0x20 MUL ADD CALLDATALOAD PUSH2 0x46F SWAP2 SWAP1 PUSH2 0x951 JUMP JUMPDEST EQ DUP1 ISZERO PUSH2 0x495 JUMPI POP PUSH1 0x63 DUP5 DUP5 DUP4 DUP2 DUP2 LT PUSH2 0x48C JUMPI PUSH2 0x48B PUSH2 0x8F3 JUMP JUMPDEST JUMPDEST SWAP1 POP PUSH1 0x20 MUL ADD CALLDATALOAD LT JUMPDEST ISZERO PUSH2 0x4C2 JUMPI DUP4 DUP4 DUP3 DUP2 DUP2 LT PUSH2 0x4AD JUMPI PUSH2 0x4AC PUSH2 0x8F3 JUMP JUMPDEST JUMPDEST SWAP1 POP PUSH1 0x20 MUL ADD CALLDATALOAD DUP3 PUSH2 0x4BF SWAP2 SWAP1 PUSH2 0x9B1 JUMP JUMPDEST SWAP2 POP JUMPDEST PUSH1 0x1 DUP2 PUSH2 0x4CF SWAP2 SWAP1 PUSH2 0x9B1 JUMP JUMPDEST SWAP1 POP PUSH2 0x43C JUMP JUMPDEST POP DUP1 PUSH1 0x0 DUP2 SWAP1 SSTORE POP POP POP POP JUMP JUMPDEST PUSH1 0x0 DUP1 DUP4 DUP4 SWAP1 POP SWAP1 POP PUSH1 0x0 JUMPDEST DUP2 DUP2 LT ISZERO PUSH2 0x570 JUMPI PUSH1 0x0 DUP6 DUP6 DUP4 DUP2 DUP2 LT PUSH2 0x50C JUMPI PUSH2 0x50B PUSH2 0x8F3 JUMP JUMPDEST JUMPDEST SWAP1 POP PUSH1 0x20 MUL ADD CALLDATALOAD SWAP1 POP PUSH1 0x0 PUSH1 0x2 DUP3 PUSH2 0x524 SWAP2 SWAP1 PUSH2 0x951 JUMP JUMPDEST EQ DUP1 ISZERO PUSH2 0x531 JUMPI POP PUSH1 0x63 DUP2 LT JUMPDEST ISZERO PUSH2 0x55E JUMPI DUP6 DUP6 DUP4 DUP2 DUP2 LT PUSH2 0x549 JUMPI PUSH2 0x548 PUSH2 0x8F3 JUMP JUMPDEST JUMPDEST SWAP1 POP PUSH1 0x20 MUL ADD CALLDATALOAD DUP5 PUSH2 0x55B SWAP2 SWAP1 PUSH2 0x9B1 JUMP JUMPDEST SWAP4 POP JUMPDEST POP DUP1 PUSH2 0x569 SWAP1 PUSH2 0x9E5 JUMP JUMPDEST SWAP1 POP PUSH2 0x4EF JUMP JUMPDEST POP DUP2 PUSH1 0x0 DUP2 SWAP1 SSTORE POP POP POP POP POP JUMP JUMPDEST PUSH1 0x0 JUMPDEST DUP2 MLOAD DUP2 LT ISZERO PUSH2 0x631 JUMPI PUSH1 0x0 DUP1 PUSH1 0x2 DUP5 DUP5 DUP2 MLOAD DUP2 LT PUSH2 0x5A2 JUMPI PUSH2 0x5A1 PUSH2 0x8F3 JUMP JUMPDEST JUMPDEST PUSH1 0x20 MUL PUSH1 0x20 ADD ADD MLOAD PUSH2 0x5B4 SWAP2 SWAP1 PUSH2 0x951 JUMP JUMPDEST EQ SWAP1 POP PUSH1 0x0 PUSH1 0x63 DUP5 DUP5 DUP2 MLOAD DUP2 LT PUSH2 0x5CE JUMPI PUSH2 0x5CD PUSH2 0x8F3 JUMP JUMPDEST JUMPDEST PUSH1 0x20 MUL PUSH1 0x20 ADD ADD MLOAD LT SWAP1 POP DUP2 DUP1 ISZERO PUSH2 0x5E3 JUMPI POP DUP1 JUMPDEST ISZERO PUSH2 0x61B JUMPI DUP4 DUP4 DUP2 MLOAD DUP2 LT PUSH2 0x5FB JUMPI PUSH2 0x5FA PUSH2 0x8F3 JUMP JUMPDEST JUMPDEST PUSH1 0x20 MUL PUSH1 0x20 ADD ADD MLOAD PUSH1 0x0 DUP1 DUP3 DUP3 SLOAD PUSH2 0x613 SWAP2 SWAP1 PUSH2 0x9B1 JUMP JUMPDEST SWAP3 POP POP DUP2 SWAP1 SSTORE POP JUMPDEST POP POP PUSH1 0x1 DUP2 PUSH2 0x62A SWAP2 SWAP1 PUSH2 0x9B1 JUMP JUMPDEST SWAP1 POP PUSH2 0x581 JUMP JUMPDEST POP POP JUMP JUMPDEST PUSH1 0x0 PUSH1 0x40 MLOAD SWAP1 POP SWAP1 JUMP JUMPDEST PUSH1 0x0 DUP1 REVERT JUMPDEST PUSH1 0x0 DUP1 REVERT JUMPDEST PUSH1 0x0 DUP1 REVERT JUMPDEST PUSH1 0x0 DUP1 REVERT JUMPDEST PUSH1 0x0 DUP1 REVERT JUMPDEST PUSH1 0x0 DUP1 DUP4 PUSH1 0x1F DUP5 ADD SLT PUSH2 0x66E JUMPI PUSH2 0x66D PUSH2 0x649 JUMP JUMPDEST JUMPDEST DUP3 CALLDATALOAD SWAP1 POP PUSH8 0xFFFFFFFFFFFFFFFF DUP2 GT ISZERO PUSH2 0x68B JUMPI PUSH2 0x68A PUSH2 0x64E JUMP JUMPDEST JUMPDEST PUSH1 0x20 DUP4 ADD SWAP2 POP DUP4 PUSH1 0x20 DUP3 MUL DUP4 ADD GT ISZERO PUSH2 0x6A7 JUMPI PUSH2 0x6A6 PUSH2 0x653 JUMP JUMPDEST JUMPDEST SWAP3 POP SWAP3 SWAP1 POP JUMP JUMPDEST PUSH1 0x0 DUP1 PUSH1 0x20 DUP4 DUP6 SUB SLT ISZERO PUSH2 0x6C5 JUMPI PUSH2 0x6C4 PUSH2 0x63F JUMP JUMPDEST JUMPDEST PUSH1 0x0 DUP4 ADD CALLDATALOAD PUSH8 0xFFFFFFFFFFFFFFFF DUP2 GT ISZERO PUSH2 0x6E3 JUMPI PUSH2 0x6E2 PUSH2 0x644 JUMP JUMPDEST JUMPDEST PUSH2 0x6EF DUP6 DUP3 DUP7 ADD PUSH2 0x658 JUMP JUMPDEST SWAP3 POP SWAP3 POP POP SWAP3 POP SWAP3 SWAP1 POP JUMP JUMPDEST PUSH1 0x0 DUP2 SWAP1 POP SWAP2 SWAP1 POP JUMP JUMPDEST PUSH2 0x70E DUP2 PUSH2 0x6FB JUMP JUMPDEST DUP3 MSTORE POP POP JUMP JUMPDEST PUSH1 0x0 PUSH1 0x20 DUP3 ADD SWAP1 POP PUSH2 0x729 PUSH1 0x0 DUP4 ADD DUP5 PUSH2 0x705 JUMP JUMPDEST SWAP3 SWAP2 POP POP JUMP JUMPDEST PUSH1 0x0 PUSH1 0x1F NOT PUSH1 0x1F DUP4 ADD AND SWAP1 POP SWAP2 SWAP1 POP JUMP JUMPDEST PUSH32 0x4E487B7100000000000000000000000000000000000000000000000000000000 PUSH1 0x0 MSTORE PUSH1 0x41 PUSH1 0x4 MSTORE PUSH1 0x24 PUSH1 0x0 REVERT JUMPDEST PUSH2 0x778 DUP3 PUSH2 0x72F JUMP JUMPDEST DUP2 ADD DUP2 DUP2 LT PUSH8 0xFFFFFFFFFFFFFFFF DUP3 GT OR ISZERO PUSH2 0x797 JUMPI PUSH2 0x796 PUSH2 0x740 JUMP JUMPDEST JUMPDEST DUP1 PUSH1 0x40 MSTORE POP POP POP JUMP JUMPDEST PUSH1 0x0 PUSH2 0x7AA PUSH2 0x635 JUMP JUMPDEST SWAP1 POP PUSH2 0x7B6 DUP3 DUP3 PUSH2 0x76F JUMP JUMPDEST SWAP2 SWAP1 POP JUMP JUMPDEST PUSH1 0x0 PUSH8 0xFFFFFFFFFFFFFFFF DUP3 GT ISZERO PUSH2 0x7D6 JUMPI PUSH2 0x7D5 PUSH2 0x740 JUMP JUMPDEST JUMPDEST PUSH1 0x20 DUP3 MUL SWAP1 POP PUSH1 0x20 DUP2 ADD SWAP1 POP SWAP2 SWAP1 POP JUMP JUMPDEST PUSH2 0x7F0 DUP2 PUSH2 0x6FB JUMP JUMPDEST DUP2 EQ PUSH2 0x7FB JUMPI PUSH1 0x0 DUP1 REVERT JUMPDEST POP JUMP JUMPDEST PUSH1 0x0 DUP2 CALLDATALOAD SWAP1 POP PUSH2 0x80D DUP2 PUSH2 0x7E7 JUMP JUMPDEST SWAP3 SWAP2 POP POP JUMP JUMPDEST PUSH1 0x0 PUSH2 0x826 PUSH2 0x821 DUP5 PUSH2 0x7BB JUMP JUMPDEST PUSH2 0x7A0 JUMP JUMPDEST SWAP1 POP DUP1 DUP4 DUP3 MSTORE PUSH1 0x20 DUP3 ADD SWAP1 POP PUSH1 0x20 DUP5 MUL DUP4 ADD DUP6 DUP2 GT ISZERO PUSH2 0x849 JUMPI PUSH2 0x848 PUSH2 0x653 JUMP JUMPDEST JUMPDEST DUP4 JUMPDEST DUP2 DUP2 LT ISZERO PUSH2 0x872 JUMPI DUP1 PUSH2 0x85E DUP9 DUP3 PUSH2 0x7FE JUMP JUMPDEST DUP5 MSTORE PUSH1 0x20 DUP5 ADD SWAP4 POP POP PUSH1 0x20 DUP2 ADD SWAP1 POP PUSH2 0x84B JUMP JUMPDEST POP POP POP SWAP4 SWAP3 POP POP POP JUMP JUMPDEST PUSH1 0x0 DUP3 PUSH1 0x1F DUP4 ADD SLT PUSH2 0x891 JUMPI PUSH2 0x890 PUSH2 0x649 JUMP JUMPDEST JUMPDEST DUP2 CALLDATALOAD PUSH2 0x8A1 DUP5 DUP3 PUSH1 0x20 DUP7 ADD PUSH2 0x813 JUMP JUMPDEST SWAP2 POP POP SWAP3 SWAP2 POP POP JUMP JUMPDEST PUSH1 0x0 PUSH1 0x20 DUP3 DUP5 SUB SLT ISZERO PUSH2 0x8C0 JUMPI PUSH2 0x8BF PUSH2 0x63F JUMP JUMPDEST JUMPDEST PUSH1 0x0 DUP3 ADD CALLDATALOAD PUSH8 0xFFFFFFFFFFFFFFFF DUP2 GT ISZERO PUSH2 0x8DE JUMPI PUSH2 0x8DD PUSH2 0x644 JUMP JUMPDEST JUMPDEST PUSH2 0x8EA DUP5 DUP3 DUP6 ADD PUSH2 0x87C JUMP JUMPDEST SWAP2 POP POP SWAP3 SWAP2 POP POP JUMP JUMPDEST PUSH32 0x4E487B7100000000000000000000000000000000000000000000000000000000 PUSH1 0x0 MSTORE PUSH1 0x32 PUSH1 0x4 MSTORE PUSH1 0x24 PUSH1 0x0 REVERT JUMPDEST PUSH32 0x4E487B7100000000000000000000000000000000000000000000000000000000 PUSH1 0x0 MSTORE PUSH1 0x12 PUSH1 0x4 MSTORE PUSH1 0x24 PUSH1 0x0 REVERT JUMPDEST PUSH1 0x0 PUSH2 0x95C DUP3 PUSH2 0x6FB JUMP JUMPDEST SWAP2 POP PUSH2 0x967 DUP4 PUSH2 0x6FB JUMP JUMPDEST SWAP3 POP DUP3 PUSH2 0x977 JUMPI PUSH2 0x976 PUSH2 0x922 JUMP JUMPDEST JUMPDEST DUP3 DUP3 MOD SWAP1 POP SWAP3 SWAP2 POP POP JUMP JUMPDEST PUSH32 0x4E487B7100000000000000000000000000000000000000000000000000000000 PUSH1 0x0 MSTORE PUSH1 0x11 PUSH1 0x4 MSTORE PUSH1 0x24 PUSH1 0x0 REVERT JUMPDEST PUSH1 0x0 PUSH2 0x9BC DUP3 PUSH2 0x6FB JUMP JUMPDEST SWAP2 POP PUSH2 0x9C7 DUP4 PUSH2 0x6FB JUMP JUMPDEST SWAP3 POP DUP3 DUP3 ADD SWAP1 POP DUP1 DUP3 GT ISZERO PUSH2 0x9DF JUMPI PUSH2 0x9DE PUSH2 0x982 JUMP JUMPDEST JUMPDEST SWAP3 SWAP2 POP POP JUMP JUMPDEST PUSH1 0x0 PUSH2 0x9F0 DUP3 PUSH2 0x6FB JUMP JUMPDEST SWAP2 POP PUSH32 0xFFFFFFFFFFFFFFFFFFFFFFFFFFFFFFFFFFFFFFFFFFFFFFFFFFFFFFFFFFFFFFFF DUP3 SUB PUSH2 0xA22 JUMPI PUSH2 0xA21 PUSH2 0x982 JUMP JUMPDEST JUMPDEST PUSH1 0x1 DUP3 ADD SWAP1 POP SWAP2 SWAP1 POP JUMP INVALID LOG2 PUSH5 0x6970667358 0x22 SLT KECCAK256 CALLDATACOPY SWAP1 0x26 KECCAK256 0xC CREATE STATICCALL 0xD0 PUSH18 0xDB04729E2875D159B8F1FF5CC634A1A5FB9 DUP11 SAR 0x28 EXP 0xCC PUSH5 0x736F6C6343 STOP ADDMOD SLT STOP CALLER "
				},
				"gasEstimates": {
					"creation": {
						"codeDepositCost": "531800",
						"executionCost": "568",
						"totalCost": "532368"
					},
					"external": {
						"calSum1(uint256[])": "infinite",
						"calSum2(uint256[])": "infinite",
						"calSum3(uint256[])": "infinite",
						"calSum4(uint256[])": "infinite",
						"calSum5(uint256[])": "infinite",
						"calSum6(uint256[])": "infinite",
						"calSum7(uint256[])": "infinite",
						"total()": "2474"
					}
				},
				"methodIdentifiers": {
					"calSum1(uint256[])": "c658014b",
					"calSum2(uint256[])": "9acb58a2",
					"calSum3(uint256[])": "2574b7c1",
					"calSum4(uint256[])": "a7a61238",
					"calSum5(uint256[])": "4934d2db",
					"calSum6(uint256[])": "223fb4e7",
					"calSum7(uint256[])": "aef76e2a",
					"total()": "2ddbd13a"
				}
			},
			"storageLayout": {
				"storage": [
					{
						"astId": 3,
						"contract": "cuimianMaster/GasGolf.sol:GasGolf",
						"label": "total",
						"offset": 0,
						"slot": "0",
						"type": "t_uint256"
					}
				],
				"types": {
					"t_uint256": {
						"encoding": "inplace",
						"label": "uint256",
						"numberOfBytes": "32"
					}
				}
			},
			"userdoc": {
				"kind": "user",
				"methods": {},
				"version": 1
			}
		}
	}
}