{
	"cuimianMaster/MultiSigWallet.sol": {
		"MultiSigWallet": {
			"abi": [
				{
					"inputs": [
						{
							"internalType": "address[]",
							"name": "_owners",
							"type": "address[]"
						},
						{
							"internalType": "uint256",
							"name": "_required",
							"type": "uint256"
						}
					],
					"stateMutability": "nonpayable",
					"type": "constructor"
				},
				{
					"anonymous": false,
					"inputs": [
						{
							"indexed": true,
							"internalType": "address",
							"name": "owner",
							"type": "address"
						},
						{
							"indexed": true,
							"internalType": "uint256",
							"name": "txId",
							"type": "uint256"
						}
					],
					"name": "Approve",
					"type": "event"
				},
				{
					"anonymous": false,
					"inputs": [
						{
							"indexed": true,
							"internalType": "address",
							"name": "sender",
							"type": "address"
						},
						{
							"indexed": false,
							"internalType": "uint256",
							"name": "amount",
							"type": "uint256"
						}
					],
					"name": "Deposit",
					"type": "event"
				},
				{
					"anonymous": false,
					"inputs": [
						{
							"indexed": true,
							"internalType": "uint256",
							"name": "txId",
							"type": "uint256"
						}
					],
					"name": "Execute",
					"type": "event"
				},
				{
					"anonymous": false,
					"inputs": [
						{
							"indexed": true,
							"internalType": "address",
							"name": "owner",
							"type": "address"
						},
						{
							"indexed": true,
							"internalType": "uint256",
							"name": "txId",
							"type": "uint256"
						}
					],
					"name": "Revoke",
					"type": "event"
				},
				{
					"anonymous": false,
					"inputs": [
						{
							"indexed": true,
							"internalType": "uint256",
							"name": "txId",
							"type": "uint256"
						}
					],
					"name": "Submit",
					"type": "event"
				},
				{
					"inputs": [
						{
							"internalType": "uint256",
							"name": "_txId",
							"type": "uint256"
						}
					],
					"name": "approve",
					"outputs": [],
					"stateMutability": "nonpayable",
					"type": "function"
				},
				{
					"inputs": [
						{
							"internalType": "uint256",
							"name": "",
							"type": "uint256"
						},
						{
							"internalType": "address",
							"name": "",
							"type": "address"
						}
					],
					"name": "approvedMap",
					"outputs": [
						{
							"internalType": "bool",
							"name": "",
							"type": "bool"
						}
					],
					"stateMutability": "view",
					"type": "function"
				},
				{
					"inputs": [
						{
							"internalType": "uint256",
							"name": "_txId",
							"type": "uint256"
						}
					],
					"name": "execute",
					"outputs": [],
					"stateMutability": "nonpayable",
					"type": "function"
				},
				{
					"inputs": [
						{
							"internalType": "address",
							"name": "",
							"type": "address"
						}
					],
					"name": "isOwner",
					"outputs": [
						{
							"internalType": "bool",
							"name": "",
							"type": "bool"
						}
					],
					"stateMutability": "view",
					"type": "function"
				},
				{
					"inputs": [
						{
							"internalType": "uint256",
							"name": "",
							"type": "uint256"
						}
					],
					"name": "owners",
					"outputs": [
						{
							"internalType": "address",
							"name": "",
							"type": "address"
						}
					],
					"stateMutability": "view",
					"type": "function"
				},
				{
					"inputs": [],
					"name": "required",
					"outputs": [
						{
							"internalType": "uint256",
							"name": "",
							"type": "uint256"
						}
					],
					"stateMutability": "view",
					"type": "function"
				},
				{
					"inputs": [
						{
							"internalType": "uint256",
							"name": "_txId",
							"type": "uint256"
						}
					],
					"name": "revoke",
					"outputs": [],
					"stateMutability": "nonpayable",
					"type": "function"
				},
				{
					"inputs": [
						{
							"internalType": "address",
							"name": "_to",
							"type": "address"
						},
						{
							"internalType": "uint256",
							"name": "_value",
							"type": "uint256"
						}
					],
					"name": "submit",
					"outputs": [],
					"stateMutability": "nonpayable",
					"type": "function"
				},
				{
					"inputs": [
						{
							"internalType": "uint256",
							"name": "",
							"type": "uint256"
						}
					],
					"name": "transactions",
					"outputs": [
						{
							"internalType": "address",
							"name": "to",
							"type": "address"
						},
						{
							"internalType": "uint256",
							"name": "value",
							"type": "uint256"
						},
						{
							"internalType": "bytes",
							"name": "data",
							"type": "bytes"
						},
						{
							"internalType": "bool",
							"name": "executed",
							"type": "bool"
						}
					],
					"stateMutability": "view",
					"type": "function"
				},
				{
					"stateMutability": "payable",
					"type": "receive"
				}
			],
			"devdoc": {
				"kind": "dev",
				"methods": {},
				"version": 1
			},
			"evm": {
				"assembly": "    /* \"cuimianMaster/MultiSigWallet.sol\":258:4059  contract MultiSigWallet {... */\n  mstore(0x40, 0x80)\n    /* \"cuimianMaster/MultiSigWallet.sol\":1070:1638  constructor(address[] memory _owners, uint _required) {... */\n  callvalue\n  dup1\n  iszero\n  tag_1\n  jumpi\n  0x00\n  dup1\n  revert\ntag_1:\n  pop\n  mload(0x40)\n  sub(codesize, bytecodeSize)\n  dup1\n  bytecodeSize\n  dup4\n  codecopy\n  dup2\n  dup2\n  add\n  0x40\n  mstore\n  dup2\n  add\n  swap1\n  tag_2\n  swap2\n  swap1\n  tag_3\n  jump\t// in\ntag_2:\n    /* \"cuimianMaster/MultiSigWallet.sol\":1160:1161  0 */\n  0x00\n    /* \"cuimianMaster/MultiSigWallet.sol\":1143:1150  _owners */\n  dup3\n    /* \"cuimianMaster/MultiSigWallet.sol\":1143:1157  _owners.length */\n  mload\n    /* \"cuimianMaster/MultiSigWallet.sol\":1143:1161  _owners.length > 0 */\n  gt\n    /* \"cuimianMaster/MultiSigWallet.sol\":1135:1183  require(_owners.length > 0, \"owner is required\") */\n  tag_6\n  jumpi\n  mload(0x40)\n  0x08c379a000000000000000000000000000000000000000000000000000000000\n  dup2\n  mstore\n  0x04\n  add\n  tag_7\n  swap1\n  tag_8\n  jump\t// in\ntag_7:\n  mload(0x40)\n  dup1\n  swap2\n  sub\n  swap1\n  revert\ntag_6:\n    /* \"cuimianMaster/MultiSigWallet.sol\":1214:1215  0 */\n  0x00\n    /* \"cuimianMaster/MultiSigWallet.sol\":1202:1211  _required */\n  dup2\n    /* \"cuimianMaster/MultiSigWallet.sol\":1202:1215  _required > 0 */\n  gt\n    /* \"cuimianMaster/MultiSigWallet.sol\":1202:1246  _required > 0 && _required <= _owners.length */\n  dup1\n  iszero\n  tag_9\n  jumpi\n  pop\n    /* \"cuimianMaster/MultiSigWallet.sol\":1232:1239  _owners */\n  dup2\n    /* \"cuimianMaster/MultiSigWallet.sol\":1232:1246  _owners.length */\n  mload\n    /* \"cuimianMaster/MultiSigWallet.sol\":1219:1228  _required */\n  dup2\n    /* \"cuimianMaster/MultiSigWallet.sol\":1219:1246  _required <= _owners.length */\n  gt\n  iszero\n    /* \"cuimianMaster/MultiSigWallet.sol\":1202:1246  _required > 0 && _required <= _owners.length */\ntag_9:\n    /* \"cuimianMaster/MultiSigWallet.sol\":1194:1284  require(_required > 0 && _required <= _owners.length, \"invalid required number of owners\") */\n  tag_10\n  jumpi\n  mload(0x40)\n  0x08c379a000000000000000000000000000000000000000000000000000000000\n  dup2\n  mstore\n  0x04\n  add\n  tag_11\n  swap1\n  tag_12\n  jump\t// in\ntag_11:\n  mload(0x40)\n  dup1\n  swap2\n  sub\n  swap1\n  revert\ntag_10:\n    /* \"cuimianMaster/MultiSigWallet.sol\":1302:1308  uint i */\n  0x00\n    /* \"cuimianMaster/MultiSigWallet.sol\":1297:1524  for (uint i; i < _owners.length; i++) {... */\ntag_13:\n    /* \"cuimianMaster/MultiSigWallet.sol\":1314:1321  _owners */\n  dup3\n    /* \"cuimianMaster/MultiSigWallet.sol\":1314:1328  _owners.length */\n  mload\n    /* \"cuimianMaster/MultiSigWallet.sol\":1310:1311  i */\n  dup2\n    /* \"cuimianMaster/MultiSigWallet.sol\":1310:1328  i < _owners.length */\n  lt\n    /* \"cuimianMaster/MultiSigWallet.sol\":1297:1524  for (uint i; i < _owners.length; i++) {... */\n  iszero\n  tag_14\n  jumpi\n    /* \"cuimianMaster/MultiSigWallet.sol\":1350:1363  address owner */\n  0x00\n    /* \"cuimianMaster/MultiSigWallet.sol\":1366:1373  _owners */\n  dup4\n    /* \"cuimianMaster/MultiSigWallet.sol\":1374:1375  i */\n  dup3\n    /* \"cuimianMaster/MultiSigWallet.sol\":1366:1376  _owners[i] */\n  dup2\n  mload\n  dup2\n  lt\n  tag_16\n  jumpi\n  tag_17\n  tag_18\n  jump\t// in\ntag_17:\ntag_16:\n  0x20\n  mul\n  0x20\n  add\n  add\n  mload\n    /* \"cuimianMaster/MultiSigWallet.sol\":1350:1376  address owner = _owners[i] */\n  swap1\n  pop\n    /* \"cuimianMaster/MultiSigWallet.sol\":1418:1419  0 */\n  0x00\n    /* \"cuimianMaster/MultiSigWallet.sol\":1401:1420  owner != address(0) */\n  0xffffffffffffffffffffffffffffffffffffffff\n  and\n    /* \"cuimianMaster/MultiSigWallet.sol\":1401:1406  owner */\n  dup2\n    /* \"cuimianMaster/MultiSigWallet.sol\":1401:1420  owner != address(0) */\n  0xffffffffffffffffffffffffffffffffffffffff\n  and\n  sub\n    /* \"cuimianMaster/MultiSigWallet.sol\":1393:1443  require(owner != address(0), \"owner is 0 address\") */\n  tag_19\n  jumpi\n  mload(0x40)\n  0x08c379a000000000000000000000000000000000000000000000000000000000\n  dup2\n  mstore\n  0x04\n  add\n  tag_20\n  swap1\n  tag_21\n  jump\t// in\ntag_20:\n  mload(0x40)\n  dup1\n  swap2\n  sub\n  swap1\n  revert\ntag_19:\n    /* \"cuimianMaster/MultiSigWallet.sol\":1475:1479  true */\n  0x01\n    /* \"cuimianMaster/MultiSigWallet.sol\":1458:1465  isOwner */\n  dup1\n    /* \"cuimianMaster/MultiSigWallet.sol\":1458:1472  isOwner[owner] */\n  0x00\n    /* \"cuimianMaster/MultiSigWallet.sol\":1466:1471  owner */\n  dup4\n    /* \"cuimianMaster/MultiSigWallet.sol\":1458:1472  isOwner[owner] */\n  0xffffffffffffffffffffffffffffffffffffffff\n  and\n  0xffffffffffffffffffffffffffffffffffffffff\n  and\n  dup2\n  mstore\n  0x20\n  add\n  swap1\n  dup2\n  mstore\n  0x20\n  add\n  0x00\n  keccak256\n  0x00\n    /* \"cuimianMaster/MultiSigWallet.sol\":1458:1479  isOwner[owner] = true */\n  0x0100\n  exp\n  dup2\n  sload\n  dup2\n  0xff\n  mul\n  not\n  and\n  swap1\n  dup4\n  iszero\n  iszero\n  mul\n  or\n  swap1\n  sstore\n  pop\n    /* \"cuimianMaster/MultiSigWallet.sol\":1494:1500  owners */\n  0x00\n    /* \"cuimianMaster/MultiSigWallet.sol\":1506:1511  owner */\n  dup2\n    /* \"cuimianMaster/MultiSigWallet.sol\":1494:1512  owners.push(owner) */\n  swap1\n  dup1\n  0x01\n  dup2\n  sload\n  add\n  dup1\n  dup3\n  sstore\n  dup1\n  swap2\n  pop\n  pop\n  0x01\n  swap1\n  sub\n  swap1\n  0x00\n  mstore\n  keccak256(0x00, 0x20)\n  add\n  0x00\n  swap1\n  swap2\n  swap1\n  swap2\n  swap1\n  swap2\n  0x0100\n  exp\n  dup2\n  sload\n  dup2\n  0xffffffffffffffffffffffffffffffffffffffff\n  mul\n  not\n  and\n  swap1\n  dup4\n  0xffffffffffffffffffffffffffffffffffffffff\n  and\n  mul\n  or\n  swap1\n  sstore\n  pop\n    /* \"cuimianMaster/MultiSigWallet.sol\":1335:1524  {... */\n  pop\n    /* \"cuimianMaster/MultiSigWallet.sol\":1330:1333  i++ */\n  dup1\n  dup1\n  tag_23\n  swap1\n  tag_24\n  jump\t// in\ntag_23:\n  swap2\n  pop\n  pop\n    /* \"cuimianMaster/MultiSigWallet.sol\":1297:1524  for (uint i; i < _owners.length; i++) {... */\n  jump(tag_13)\ntag_14:\n  pop\n    /* \"cuimianMaster/MultiSigWallet.sol\":1561:1570  _required */\n  dup1\n    /* \"cuimianMaster/MultiSigWallet.sol\":1544:1550  owners */\n  0x00\n    /* \"cuimianMaster/MultiSigWallet.sol\":1544:1557  owners.length */\n  dup1\n  sload\n  swap1\n  pop\n    /* \"cuimianMaster/MultiSigWallet.sol\":1544:1570  owners.length >= _required */\n  lt\n  iszero\n    /* \"cuimianMaster/MultiSigWallet.sol\":1536:1599  require(owners.length >= _required, \"some of owner is invalid\") */\n  tag_25\n  jumpi\n  mload(0x40)\n  0x08c379a000000000000000000000000000000000000000000000000000000000\n  dup2\n  mstore\n  0x04\n  add\n  tag_26\n  swap1\n  tag_27\n  jump\t// in\ntag_26:\n  mload(0x40)\n  dup1\n  swap2\n  sub\n  swap1\n  revert\ntag_25:\n    /* \"cuimianMaster/MultiSigWallet.sol\":1621:1630  _required */\n  dup1\n    /* \"cuimianMaster/MultiSigWallet.sol\":1610:1618  required */\n  0x02\n    /* \"cuimianMaster/MultiSigWallet.sol\":1610:1630  required = _required */\n  dup2\n  swap1\n  sstore\n  pop\n    /* \"cuimianMaster/MultiSigWallet.sol\":1070:1638  constructor(address[] memory _owners, uint _required) {... */\n  pop\n  pop\n    /* \"cuimianMaster/MultiSigWallet.sol\":258:4059  contract MultiSigWallet {... */\n  jump(tag_28)\n    /* \"#utility.yul\":7:82   */\ntag_29:\n    /* \"#utility.yul\":40:46   */\n  0x00\n    /* \"#utility.yul\":73:75   */\n  0x40\n    /* \"#utility.yul\":67:76   */\n  mload\n    /* \"#utility.yul\":57:76   */\n  swap1\n  pop\n    /* \"#utility.yul\":7:82   */\n  swap1\n  jump\t// out\n    /* \"#utility.yul\":88:205   */\ntag_30:\n    /* \"#utility.yul\":197:198   */\n  0x00\n    /* \"#utility.yul\":194:195   */\n  dup1\n    /* \"#utility.yul\":187:199   */\n  revert\n    /* \"#utility.yul\":211:328   */\ntag_31:\n    /* \"#utility.yul\":320:321   */\n  0x00\n    /* \"#utility.yul\":317:318   */\n  dup1\n    /* \"#utility.yul\":310:322   */\n  revert\n    /* \"#utility.yul\":334:451   */\ntag_32:\n    /* \"#utility.yul\":443:444   */\n  0x00\n    /* \"#utility.yul\":440:441   */\n  dup1\n    /* \"#utility.yul\":433:445   */\n  revert\n    /* \"#utility.yul\":457:559   */\ntag_33:\n    /* \"#utility.yul\":498:504   */\n  0x00\n    /* \"#utility.yul\":549:551   */\n  0x1f\n    /* \"#utility.yul\":545:552   */\n  not\n    /* \"#utility.yul\":540:542   */\n  0x1f\n    /* \"#utility.yul\":533:538   */\n  dup4\n    /* \"#utility.yul\":529:543   */\n  add\n    /* \"#utility.yul\":525:553   */\n  and\n    /* \"#utility.yul\":515:553   */\n  swap1\n  pop\n    /* \"#utility.yul\":457:559   */\n  swap2\n  swap1\n  pop\n  jump\t// out\n    /* \"#utility.yul\":565:745   */\ntag_34:\n    /* \"#utility.yul\":613:690   */\n  0x4e487b7100000000000000000000000000000000000000000000000000000000\n    /* \"#utility.yul\":610:611   */\n  0x00\n    /* \"#utility.yul\":603:691   */\n  mstore\n    /* \"#utility.yul\":710:714   */\n  0x41\n    /* \"#utility.yul\":707:708   */\n  0x04\n    /* \"#utility.yul\":700:715   */\n  mstore\n    /* \"#utility.yul\":734:738   */\n  0x24\n    /* \"#utility.yul\":731:732   */\n  0x00\n    /* \"#utility.yul\":724:739   */\n  revert\n    /* \"#utility.yul\":751:1032   */\ntag_35:\n    /* \"#utility.yul\":834:861   */\n  tag_66\n    /* \"#utility.yul\":856:860   */\n  dup3\n    /* \"#utility.yul\":834:861   */\n  tag_33\n  jump\t// in\ntag_66:\n    /* \"#utility.yul\":826:832   */\n  dup2\n    /* \"#utility.yul\":822:862   */\n  add\n    /* \"#utility.yul\":964:970   */\n  dup2\n    /* \"#utility.yul\":952:962   */\n  dup2\n    /* \"#utility.yul\":949:971   */\n  lt\n    /* \"#utility.yul\":928:946   */\n  0xffffffffffffffff\n    /* \"#utility.yul\":916:926   */\n  dup3\n    /* \"#utility.yul\":913:947   */\n  gt\n    /* \"#utility.yul\":910:972   */\n  or\n    /* \"#utility.yul\":907:995   */\n  iszero\n  tag_67\n  jumpi\n    /* \"#utility.yul\":975:993   */\n  tag_68\n  tag_34\n  jump\t// in\ntag_68:\n    /* \"#utility.yul\":907:995   */\ntag_67:\n    /* \"#utility.yul\":1015:1025   */\n  dup1\n    /* \"#utility.yul\":1011:1013   */\n  0x40\n    /* \"#utility.yul\":1004:1026   */\n  mstore\n    /* \"#utility.yul\":794:1032   */\n  pop\n    /* \"#utility.yul\":751:1032   */\n  pop\n  pop\n  jump\t// out\n    /* \"#utility.yul\":1038:1167   */\ntag_36:\n    /* \"#utility.yul\":1072:1078   */\n  0x00\n    /* \"#utility.yul\":1099:1119   */\n  tag_70\n  tag_29\n  jump\t// in\ntag_70:\n    /* \"#utility.yul\":1089:1119   */\n  swap1\n  pop\n    /* \"#utility.yul\":1128:1161   */\n  tag_71\n    /* \"#utility.yul\":1156:1160   */\n  dup3\n    /* \"#utility.yul\":1148:1154   */\n  dup3\n    /* \"#utility.yul\":1128:1161   */\n  tag_35\n  jump\t// in\ntag_71:\n    /* \"#utility.yul\":1038:1167   */\n  swap2\n  swap1\n  pop\n  jump\t// out\n    /* \"#utility.yul\":1173:1484   */\ntag_37:\n    /* \"#utility.yul\":1250:1254   */\n  0x00\n    /* \"#utility.yul\":1340:1358   */\n  0xffffffffffffffff\n    /* \"#utility.yul\":1332:1338   */\n  dup3\n    /* \"#utility.yul\":1329:1359   */\n  gt\n    /* \"#utility.yul\":1326:1382   */\n  iszero\n  tag_73\n  jumpi\n    /* \"#utility.yul\":1362:1380   */\n  tag_74\n  tag_34\n  jump\t// in\ntag_74:\n    /* \"#utility.yul\":1326:1382   */\ntag_73:\n    /* \"#utility.yul\":1412:1416   */\n  0x20\n    /* \"#utility.yul\":1404:1410   */\n  dup3\n    /* \"#utility.yul\":1400:1417   */\n  mul\n    /* \"#utility.yul\":1392:1417   */\n  swap1\n  pop\n    /* \"#utility.yul\":1472:1476   */\n  0x20\n    /* \"#utility.yul\":1466:1470   */\n  dup2\n    /* \"#utility.yul\":1462:1477   */\n  add\n    /* \"#utility.yul\":1454:1477   */\n  swap1\n  pop\n    /* \"#utility.yul\":1173:1484   */\n  swap2\n  swap1\n  pop\n  jump\t// out\n    /* \"#utility.yul\":1490:1607   */\ntag_38:\n    /* \"#utility.yul\":1599:1600   */\n  0x00\n    /* \"#utility.yul\":1596:1597   */\n  dup1\n    /* \"#utility.yul\":1589:1601   */\n  revert\n    /* \"#utility.yul\":1613:1739   */\ntag_39:\n    /* \"#utility.yul\":1650:1657   */\n  0x00\n    /* \"#utility.yul\":1690:1732   */\n  0xffffffffffffffffffffffffffffffffffffffff\n    /* \"#utility.yul\":1683:1688   */\n  dup3\n    /* \"#utility.yul\":1679:1733   */\n  and\n    /* \"#utility.yul\":1668:1733   */\n  swap1\n  pop\n    /* \"#utility.yul\":1613:1739   */\n  swap2\n  swap1\n  pop\n  jump\t// out\n    /* \"#utility.yul\":1745:1841   */\ntag_40:\n    /* \"#utility.yul\":1782:1789   */\n  0x00\n    /* \"#utility.yul\":1811:1835   */\n  tag_78\n    /* \"#utility.yul\":1829:1834   */\n  dup3\n    /* \"#utility.yul\":1811:1835   */\n  tag_39\n  jump\t// in\ntag_78:\n    /* \"#utility.yul\":1800:1835   */\n  swap1\n  pop\n    /* \"#utility.yul\":1745:1841   */\n  swap2\n  swap1\n  pop\n  jump\t// out\n    /* \"#utility.yul\":1847:1969   */\ntag_41:\n    /* \"#utility.yul\":1920:1944   */\n  tag_80\n    /* \"#utility.yul\":1938:1943   */\n  dup2\n    /* \"#utility.yul\":1920:1944   */\n  tag_40\n  jump\t// in\ntag_80:\n    /* \"#utility.yul\":1913:1918   */\n  dup2\n    /* \"#utility.yul\":1910:1945   */\n  eq\n    /* \"#utility.yul\":1900:1963   */\n  tag_81\n  jumpi\n    /* \"#utility.yul\":1959:1960   */\n  0x00\n    /* \"#utility.yul\":1956:1957   */\n  dup1\n    /* \"#utility.yul\":1949:1961   */\n  revert\n    /* \"#utility.yul\":1900:1963   */\ntag_81:\n    /* \"#utility.yul\":1847:1969   */\n  pop\n  jump\t// out\n    /* \"#utility.yul\":1975:2118   */\ntag_42:\n    /* \"#utility.yul\":2032:2037   */\n  0x00\n    /* \"#utility.yul\":2063:2069   */\n  dup2\n    /* \"#utility.yul\":2057:2070   */\n  mload\n    /* \"#utility.yul\":2048:2070   */\n  swap1\n  pop\n    /* \"#utility.yul\":2079:2112   */\n  tag_83\n    /* \"#utility.yul\":2106:2111   */\n  dup2\n    /* \"#utility.yul\":2079:2112   */\n  tag_41\n  jump\t// in\ntag_83:\n    /* \"#utility.yul\":1975:2118   */\n  swap3\n  swap2\n  pop\n  pop\n  jump\t// out\n    /* \"#utility.yul\":2141:2873   */\ntag_43:\n    /* \"#utility.yul\":2248:2253   */\n  0x00\n    /* \"#utility.yul\":2273:2354   */\n  tag_85\n    /* \"#utility.yul\":2289:2353   */\n  tag_86\n    /* \"#utility.yul\":2346:2352   */\n  dup5\n    /* \"#utility.yul\":2289:2353   */\n  tag_37\n  jump\t// in\ntag_86:\n    /* \"#utility.yul\":2273:2354   */\n  tag_36\n  jump\t// in\ntag_85:\n    /* \"#utility.yul\":2264:2354   */\n  swap1\n  pop\n    /* \"#utility.yul\":2374:2379   */\n  dup1\n    /* \"#utility.yul\":2403:2409   */\n  dup4\n    /* \"#utility.yul\":2396:2401   */\n  dup3\n    /* \"#utility.yul\":2389:2410   */\n  mstore\n    /* \"#utility.yul\":2437:2441   */\n  0x20\n    /* \"#utility.yul\":2430:2435   */\n  dup3\n    /* \"#utility.yul\":2426:2442   */\n  add\n    /* \"#utility.yul\":2419:2442   */\n  swap1\n  pop\n    /* \"#utility.yul\":2490:2494   */\n  0x20\n    /* \"#utility.yul\":2482:2488   */\n  dup5\n    /* \"#utility.yul\":2478:2495   */\n  mul\n    /* \"#utility.yul\":2470:2476   */\n  dup4\n    /* \"#utility.yul\":2466:2496   */\n  add\n    /* \"#utility.yul\":2519:2522   */\n  dup6\n    /* \"#utility.yul\":2511:2517   */\n  dup2\n    /* \"#utility.yul\":2508:2523   */\n  gt\n    /* \"#utility.yul\":2505:2627   */\n  iszero\n  tag_87\n  jumpi\n    /* \"#utility.yul\":2538:2617   */\n  tag_88\n  tag_38\n  jump\t// in\ntag_88:\n    /* \"#utility.yul\":2505:2627   */\ntag_87:\n    /* \"#utility.yul\":2653:2659   */\n  dup4\n    /* \"#utility.yul\":2636:2867   */\ntag_89:\n    /* \"#utility.yul\":2670:2676   */\n  dup2\n    /* \"#utility.yul\":2665:2668   */\n  dup2\n    /* \"#utility.yul\":2662:2677   */\n  lt\n    /* \"#utility.yul\":2636:2867   */\n  iszero\n  tag_91\n  jumpi\n    /* \"#utility.yul\":2745:2748   */\n  dup1\n    /* \"#utility.yul\":2774:2822   */\n  tag_92\n    /* \"#utility.yul\":2818:2821   */\n  dup9\n    /* \"#utility.yul\":2806:2816   */\n  dup3\n    /* \"#utility.yul\":2774:2822   */\n  tag_42\n  jump\t// in\ntag_92:\n    /* \"#utility.yul\":2769:2772   */\n  dup5\n    /* \"#utility.yul\":2762:2823   */\n  mstore\n    /* \"#utility.yul\":2852:2856   */\n  0x20\n    /* \"#utility.yul\":2847:2850   */\n  dup5\n    /* \"#utility.yul\":2843:2857   */\n  add\n    /* \"#utility.yul\":2836:2857   */\n  swap4\n  pop\n    /* \"#utility.yul\":2712:2867   */\n  pop\n    /* \"#utility.yul\":2696:2700   */\n  0x20\n    /* \"#utility.yul\":2691:2694   */\n  dup2\n    /* \"#utility.yul\":2687:2701   */\n  add\n    /* \"#utility.yul\":2680:2701   */\n  swap1\n  pop\n    /* \"#utility.yul\":2636:2867   */\n  jump(tag_89)\ntag_91:\n    /* \"#utility.yul\":2640:2661   */\n  pop\n    /* \"#utility.yul\":2254:2873   */\n  pop\n  pop\n    /* \"#utility.yul\":2141:2873   */\n  swap4\n  swap3\n  pop\n  pop\n  pop\n  jump\t// out\n    /* \"#utility.yul\":2896:3281   */\ntag_44:\n    /* \"#utility.yul\":2978:2983   */\n  0x00\n    /* \"#utility.yul\":3027:3030   */\n  dup3\n    /* \"#utility.yul\":3020:3024   */\n  0x1f\n    /* \"#utility.yul\":3012:3018   */\n  dup4\n    /* \"#utility.yul\":3008:3025   */\n  add\n    /* \"#utility.yul\":3004:3031   */\n  slt\n    /* \"#utility.yul\":2994:3116   */\n  tag_94\n  jumpi\n    /* \"#utility.yul\":3035:3114   */\n  tag_95\n  tag_32\n  jump\t// in\ntag_95:\n    /* \"#utility.yul\":2994:3116   */\ntag_94:\n    /* \"#utility.yul\":3145:3151   */\n  dup2\n    /* \"#utility.yul\":3139:3152   */\n  mload\n    /* \"#utility.yul\":3170:3275   */\n  tag_96\n    /* \"#utility.yul\":3271:3274   */\n  dup5\n    /* \"#utility.yul\":3263:3269   */\n  dup3\n    /* \"#utility.yul\":3256:3260   */\n  0x20\n    /* \"#utility.yul\":3248:3254   */\n  dup7\n    /* \"#utility.yul\":3244:3261   */\n  add\n    /* \"#utility.yul\":3170:3275   */\n  tag_43\n  jump\t// in\ntag_96:\n    /* \"#utility.yul\":3161:3275   */\n  swap2\n  pop\n    /* \"#utility.yul\":2984:3281   */\n  pop\n    /* \"#utility.yul\":2896:3281   */\n  swap3\n  swap2\n  pop\n  pop\n  jump\t// out\n    /* \"#utility.yul\":3287:3364   */\ntag_45:\n    /* \"#utility.yul\":3324:3331   */\n  0x00\n    /* \"#utility.yul\":3353:3358   */\n  dup2\n    /* \"#utility.yul\":3342:3358   */\n  swap1\n  pop\n    /* \"#utility.yul\":3287:3364   */\n  swap2\n  swap1\n  pop\n  jump\t// out\n    /* \"#utility.yul\":3370:3492   */\ntag_46:\n    /* \"#utility.yul\":3443:3467   */\n  tag_99\n    /* \"#utility.yul\":3461:3466   */\n  dup2\n    /* \"#utility.yul\":3443:3467   */\n  tag_45\n  jump\t// in\ntag_99:\n    /* \"#utility.yul\":3436:3441   */\n  dup2\n    /* \"#utility.yul\":3433:3468   */\n  eq\n    /* \"#utility.yul\":3423:3486   */\n  tag_100\n  jumpi\n    /* \"#utility.yul\":3482:3483   */\n  0x00\n    /* \"#utility.yul\":3479:3480   */\n  dup1\n    /* \"#utility.yul\":3472:3484   */\n  revert\n    /* \"#utility.yul\":3423:3486   */\ntag_100:\n    /* \"#utility.yul\":3370:3492   */\n  pop\n  jump\t// out\n    /* \"#utility.yul\":3498:3641   */\ntag_47:\n    /* \"#utility.yul\":3555:3560   */\n  0x00\n    /* \"#utility.yul\":3586:3592   */\n  dup2\n    /* \"#utility.yul\":3580:3593   */\n  mload\n    /* \"#utility.yul\":3571:3593   */\n  swap1\n  pop\n    /* \"#utility.yul\":3602:3635   */\n  tag_102\n    /* \"#utility.yul\":3629:3634   */\n  dup2\n    /* \"#utility.yul\":3602:3635   */\n  tag_46\n  jump\t// in\ntag_102:\n    /* \"#utility.yul\":3498:3641   */\n  swap3\n  swap2\n  pop\n  pop\n  jump\t// out\n    /* \"#utility.yul\":3647:4357   */\ntag_3:\n    /* \"#utility.yul\":3751:3757   */\n  0x00\n    /* \"#utility.yul\":3759:3765   */\n  dup1\n    /* \"#utility.yul\":3808:3810   */\n  0x40\n    /* \"#utility.yul\":3796:3805   */\n  dup4\n    /* \"#utility.yul\":3787:3794   */\n  dup6\n    /* \"#utility.yul\":3783:3806   */\n  sub\n    /* \"#utility.yul\":3779:3811   */\n  slt\n    /* \"#utility.yul\":3776:3895   */\n  iszero\n  tag_104\n  jumpi\n    /* \"#utility.yul\":3814:3893   */\n  tag_105\n  tag_30\n  jump\t// in\ntag_105:\n    /* \"#utility.yul\":3776:3895   */\ntag_104:\n    /* \"#utility.yul\":3955:3956   */\n  0x00\n    /* \"#utility.yul\":3944:3953   */\n  dup4\n    /* \"#utility.yul\":3940:3957   */\n  add\n    /* \"#utility.yul\":3934:3958   */\n  mload\n    /* \"#utility.yul\":3985:4003   */\n  0xffffffffffffffff\n    /* \"#utility.yul\":3977:3983   */\n  dup2\n    /* \"#utility.yul\":3974:4004   */\n  gt\n    /* \"#utility.yul\":3971:4088   */\n  iszero\n  tag_106\n  jumpi\n    /* \"#utility.yul\":4007:4086   */\n  tag_107\n  tag_31\n  jump\t// in\ntag_107:\n    /* \"#utility.yul\":3971:4088   */\ntag_106:\n    /* \"#utility.yul\":4112:4201   */\n  tag_108\n    /* \"#utility.yul\":4193:4200   */\n  dup6\n    /* \"#utility.yul\":4184:4190   */\n  dup3\n    /* \"#utility.yul\":4173:4182   */\n  dup7\n    /* \"#utility.yul\":4169:4191   */\n  add\n    /* \"#utility.yul\":4112:4201   */\n  tag_44\n  jump\t// in\ntag_108:\n    /* \"#utility.yul\":4102:4201   */\n  swap3\n  pop\n    /* \"#utility.yul\":3905:4211   */\n  pop\n    /* \"#utility.yul\":4250:4252   */\n  0x20\n    /* \"#utility.yul\":4276:4340   */\n  tag_109\n    /* \"#utility.yul\":4332:4339   */\n  dup6\n    /* \"#utility.yul\":4323:4329   */\n  dup3\n    /* \"#utility.yul\":4312:4321   */\n  dup7\n    /* \"#utility.yul\":4308:4330   */\n  add\n    /* \"#utility.yul\":4276:4340   */\n  tag_47\n  jump\t// in\ntag_109:\n    /* \"#utility.yul\":4266:4340   */\n  swap2\n  pop\n    /* \"#utility.yul\":4221:4350   */\n  pop\n    /* \"#utility.yul\":3647:4357   */\n  swap3\n  pop\n  swap3\n  swap1\n  pop\n  jump\t// out\n    /* \"#utility.yul\":4363:4532   */\ntag_48:\n    /* \"#utility.yul\":4447:4458   */\n  0x00\n    /* \"#utility.yul\":4481:4487   */\n  dup3\n    /* \"#utility.yul\":4476:4479   */\n  dup3\n    /* \"#utility.yul\":4469:4488   */\n  mstore\n    /* \"#utility.yul\":4521:4525   */\n  0x20\n    /* \"#utility.yul\":4516:4519   */\n  dup3\n    /* \"#utility.yul\":4512:4526   */\n  add\n    /* \"#utility.yul\":4497:4526   */\n  swap1\n  pop\n    /* \"#utility.yul\":4363:4532   */\n  swap3\n  swap2\n  pop\n  pop\n  jump\t// out\n    /* \"#utility.yul\":4538:4705   */\ntag_49:\n    /* \"#utility.yul\":4678:4697   */\n  0x6f776e6572206973207265717569726564000000000000000000000000000000\n    /* \"#utility.yul\":4674:4675   */\n  0x00\n    /* \"#utility.yul\":4666:4672   */\n  dup3\n    /* \"#utility.yul\":4662:4676   */\n  add\n    /* \"#utility.yul\":4655:4698   */\n  mstore\n    /* \"#utility.yul\":4538:4705   */\n  pop\n  jump\t// out\n    /* \"#utility.yul\":4711:5077   */\ntag_50:\n    /* \"#utility.yul\":4853:4856   */\n  0x00\n    /* \"#utility.yul\":4874:4941   */\n  tag_113\n    /* \"#utility.yul\":4938:4940   */\n  0x11\n    /* \"#utility.yul\":4933:4936   */\n  dup4\n    /* \"#utility.yul\":4874:4941   */\n  tag_48\n  jump\t// in\ntag_113:\n    /* \"#utility.yul\":4867:4941   */\n  swap2\n  pop\n    /* \"#utility.yul\":4950:5043   */\n  tag_114\n    /* \"#utility.yul\":5039:5042   */\n  dup3\n    /* \"#utility.yul\":4950:5043   */\n  tag_49\n  jump\t// in\ntag_114:\n    /* \"#utility.yul\":5068:5070   */\n  0x20\n    /* \"#utility.yul\":5063:5066   */\n  dup3\n    /* \"#utility.yul\":5059:5071   */\n  add\n    /* \"#utility.yul\":5052:5071   */\n  swap1\n  pop\n    /* \"#utility.yul\":4711:5077   */\n  swap2\n  swap1\n  pop\n  jump\t// out\n    /* \"#utility.yul\":5083:5502   */\ntag_8:\n    /* \"#utility.yul\":5249:5253   */\n  0x00\n    /* \"#utility.yul\":5287:5289   */\n  0x20\n    /* \"#utility.yul\":5276:5285   */\n  dup3\n    /* \"#utility.yul\":5272:5290   */\n  add\n    /* \"#utility.yul\":5264:5290   */\n  swap1\n  pop\n    /* \"#utility.yul\":5336:5345   */\n  dup2\n    /* \"#utility.yul\":5330:5334   */\n  dup2\n    /* \"#utility.yul\":5326:5346   */\n  sub\n    /* \"#utility.yul\":5322:5323   */\n  0x00\n    /* \"#utility.yul\":5311:5320   */\n  dup4\n    /* \"#utility.yul\":5307:5324   */\n  add\n    /* \"#utility.yul\":5300:5347   */\n  mstore\n    /* \"#utility.yul\":5364:5495   */\n  tag_116\n    /* \"#utility.yul\":5490:5494   */\n  dup2\n    /* \"#utility.yul\":5364:5495   */\n  tag_50\n  jump\t// in\ntag_116:\n    /* \"#utility.yul\":5356:5495   */\n  swap1\n  pop\n    /* \"#utility.yul\":5083:5502   */\n  swap2\n  swap1\n  pop\n  jump\t// out\n    /* \"#utility.yul\":5508:5728   */\ntag_51:\n    /* \"#utility.yul\":5648:5682   */\n  0x696e76616c6964207265717569726564206e756d626572206f66206f776e6572\n    /* \"#utility.yul\":5644:5645   */\n  0x00\n    /* \"#utility.yul\":5636:5642   */\n  dup3\n    /* \"#utility.yul\":5632:5646   */\n  add\n    /* \"#utility.yul\":5625:5683   */\n  mstore\n    /* \"#utility.yul\":5717:5720   */\n  0x7300000000000000000000000000000000000000000000000000000000000000\n    /* \"#utility.yul\":5712:5714   */\n  0x20\n    /* \"#utility.yul\":5704:5710   */\n  dup3\n    /* \"#utility.yul\":5700:5715   */\n  add\n    /* \"#utility.yul\":5693:5721   */\n  mstore\n    /* \"#utility.yul\":5508:5728   */\n  pop\n  jump\t// out\n    /* \"#utility.yul\":5734:6100   */\ntag_52:\n    /* \"#utility.yul\":5876:5879   */\n  0x00\n    /* \"#utility.yul\":5897:5964   */\n  tag_119\n    /* \"#utility.yul\":5961:5963   */\n  0x21\n    /* \"#utility.yul\":5956:5959   */\n  dup4\n    /* \"#utility.yul\":5897:5964   */\n  tag_48\n  jump\t// in\ntag_119:\n    /* \"#utility.yul\":5890:5964   */\n  swap2\n  pop\n    /* \"#utility.yul\":5973:6066   */\n  tag_120\n    /* \"#utility.yul\":6062:6065   */\n  dup3\n    /* \"#utility.yul\":5973:6066   */\n  tag_51\n  jump\t// in\ntag_120:\n    /* \"#utility.yul\":6091:6093   */\n  0x40\n    /* \"#utility.yul\":6086:6089   */\n  dup3\n    /* \"#utility.yul\":6082:6094   */\n  add\n    /* \"#utility.yul\":6075:6094   */\n  swap1\n  pop\n    /* \"#utility.yul\":5734:6100   */\n  swap2\n  swap1\n  pop\n  jump\t// out\n    /* \"#utility.yul\":6106:6525   */\ntag_12:\n    /* \"#utility.yul\":6272:6276   */\n  0x00\n    /* \"#utility.yul\":6310:6312   */\n  0x20\n    /* \"#utility.yul\":6299:6308   */\n  dup3\n    /* \"#utility.yul\":6295:6313   */\n  add\n    /* \"#utility.yul\":6287:6313   */\n  swap1\n  pop\n    /* \"#utility.yul\":6359:6368   */\n  dup2\n    /* \"#utility.yul\":6353:6357   */\n  dup2\n    /* \"#utility.yul\":6349:6369   */\n  sub\n    /* \"#utility.yul\":6345:6346   */\n  0x00\n    /* \"#utility.yul\":6334:6343   */\n  dup4\n    /* \"#utility.yul\":6330:6347   */\n  add\n    /* \"#utility.yul\":6323:6370   */\n  mstore\n    /* \"#utility.yul\":6387:6518   */\n  tag_122\n    /* \"#utility.yul\":6513:6517   */\n  dup2\n    /* \"#utility.yul\":6387:6518   */\n  tag_52\n  jump\t// in\ntag_122:\n    /* \"#utility.yul\":6379:6518   */\n  swap1\n  pop\n    /* \"#utility.yul\":6106:6525   */\n  swap2\n  swap1\n  pop\n  jump\t// out\n    /* \"#utility.yul\":6531:6711   */\ntag_18:\n    /* \"#utility.yul\":6579:6656   */\n  0x4e487b7100000000000000000000000000000000000000000000000000000000\n    /* \"#utility.yul\":6576:6577   */\n  0x00\n    /* \"#utility.yul\":6569:6657   */\n  mstore\n    /* \"#utility.yul\":6676:6680   */\n  0x32\n    /* \"#utility.yul\":6673:6674   */\n  0x04\n    /* \"#utility.yul\":6666:6681   */\n  mstore\n    /* \"#utility.yul\":6700:6704   */\n  0x24\n    /* \"#utility.yul\":6697:6698   */\n  0x00\n    /* \"#utility.yul\":6690:6705   */\n  revert\n    /* \"#utility.yul\":6717:6885   */\ntag_53:\n    /* \"#utility.yul\":6857:6877   */\n  0x6f776e6572206973203020616464726573730000000000000000000000000000\n    /* \"#utility.yul\":6853:6854   */\n  0x00\n    /* \"#utility.yul\":6845:6851   */\n  dup3\n    /* \"#utility.yul\":6841:6855   */\n  add\n    /* \"#utility.yul\":6834:6878   */\n  mstore\n    /* \"#utility.yul\":6717:6885   */\n  pop\n  jump\t// out\n    /* \"#utility.yul\":6891:7257   */\ntag_54:\n    /* \"#utility.yul\":7033:7036   */\n  0x00\n    /* \"#utility.yul\":7054:7121   */\n  tag_126\n    /* \"#utility.yul\":7118:7120   */\n  0x12\n    /* \"#utility.yul\":7113:7116   */\n  dup4\n    /* \"#utility.yul\":7054:7121   */\n  tag_48\n  jump\t// in\ntag_126:\n    /* \"#utility.yul\":7047:7121   */\n  swap2\n  pop\n    /* \"#utility.yul\":7130:7223   */\n  tag_127\n    /* \"#utility.yul\":7219:7222   */\n  dup3\n    /* \"#utility.yul\":7130:7223   */\n  tag_53\n  jump\t// in\ntag_127:\n    /* \"#utility.yul\":7248:7250   */\n  0x20\n    /* \"#utility.yul\":7243:7246   */\n  dup3\n    /* \"#utility.yul\":7239:7251   */\n  add\n    /* \"#utility.yul\":7232:7251   */\n  swap1\n  pop\n    /* \"#utility.yul\":6891:7257   */\n  swap2\n  swap1\n  pop\n  jump\t// out\n    /* \"#utility.yul\":7263:7682   */\ntag_21:\n    /* \"#utility.yul\":7429:7433   */\n  0x00\n    /* \"#utility.yul\":7467:7469   */\n  0x20\n    /* \"#utility.yul\":7456:7465   */\n  dup3\n    /* \"#utility.yul\":7452:7470   */\n  add\n    /* \"#utility.yul\":7444:7470   */\n  swap1\n  pop\n    /* \"#utility.yul\":7516:7525   */\n  dup2\n    /* \"#utility.yul\":7510:7514   */\n  dup2\n    /* \"#utility.yul\":7506:7526   */\n  sub\n    /* \"#utility.yul\":7502:7503   */\n  0x00\n    /* \"#utility.yul\":7491:7500   */\n  dup4\n    /* \"#utility.yul\":7487:7504   */\n  add\n    /* \"#utility.yul\":7480:7527   */\n  mstore\n    /* \"#utility.yul\":7544:7675   */\n  tag_129\n    /* \"#utility.yul\":7670:7674   */\n  dup2\n    /* \"#utility.yul\":7544:7675   */\n  tag_54\n  jump\t// in\ntag_129:\n    /* \"#utility.yul\":7536:7675   */\n  swap1\n  pop\n    /* \"#utility.yul\":7263:7682   */\n  swap2\n  swap1\n  pop\n  jump\t// out\n    /* \"#utility.yul\":7688:7868   */\ntag_55:\n    /* \"#utility.yul\":7736:7813   */\n  0x4e487b7100000000000000000000000000000000000000000000000000000000\n    /* \"#utility.yul\":7733:7734   */\n  0x00\n    /* \"#utility.yul\":7726:7814   */\n  mstore\n    /* \"#utility.yul\":7833:7837   */\n  0x11\n    /* \"#utility.yul\":7830:7831   */\n  0x04\n    /* \"#utility.yul\":7823:7838   */\n  mstore\n    /* \"#utility.yul\":7857:7861   */\n  0x24\n    /* \"#utility.yul\":7854:7855   */\n  0x00\n    /* \"#utility.yul\":7847:7862   */\n  revert\n    /* \"#utility.yul\":7874:8107   */\ntag_24:\n    /* \"#utility.yul\":7913:7916   */\n  0x00\n    /* \"#utility.yul\":7936:7960   */\n  tag_132\n    /* \"#utility.yul\":7954:7959   */\n  dup3\n    /* \"#utility.yul\":7936:7960   */\n  tag_45\n  jump\t// in\ntag_132:\n    /* \"#utility.yul\":7927:7960   */\n  swap2\n  pop\n    /* \"#utility.yul\":7982:8048   */\n  0xffffffffffffffffffffffffffffffffffffffffffffffffffffffffffffffff\n    /* \"#utility.yul\":7975:7980   */\n  dup3\n    /* \"#utility.yul\":7972:8049   */\n  sub\n    /* \"#utility.yul\":7969:8072   */\n  tag_133\n  jumpi\n    /* \"#utility.yul\":8052:8070   */\n  tag_134\n  tag_55\n  jump\t// in\ntag_134:\n    /* \"#utility.yul\":7969:8072   */\ntag_133:\n    /* \"#utility.yul\":8099:8100   */\n  0x01\n    /* \"#utility.yul\":8092:8097   */\n  dup3\n    /* \"#utility.yul\":8088:8101   */\n  add\n    /* \"#utility.yul\":8081:8101   */\n  swap1\n  pop\n    /* \"#utility.yul\":7874:8107   */\n  swap2\n  swap1\n  pop\n  jump\t// out\n    /* \"#utility.yul\":8113:8287   */\ntag_56:\n    /* \"#utility.yul\":8253:8279   */\n  0x736f6d65206f66206f776e657220697320696e76616c69640000000000000000\n    /* \"#utility.yul\":8249:8250   */\n  0x00\n    /* \"#utility.yul\":8241:8247   */\n  dup3\n    /* \"#utility.yul\":8237:8251   */\n  add\n    /* \"#utility.yul\":8230:8280   */\n  mstore\n    /* \"#utility.yul\":8113:8287   */\n  pop\n  jump\t// out\n    /* \"#utility.yul\":8293:8659   */\ntag_57:\n    /* \"#utility.yul\":8435:8438   */\n  0x00\n    /* \"#utility.yul\":8456:8523   */\n  tag_137\n    /* \"#utility.yul\":8520:8522   */\n  0x18\n    /* \"#utility.yul\":8515:8518   */\n  dup4\n    /* \"#utility.yul\":8456:8523   */\n  tag_48\n  jump\t// in\ntag_137:\n    /* \"#utility.yul\":8449:8523   */\n  swap2\n  pop\n    /* \"#utility.yul\":8532:8625   */\n  tag_138\n    /* \"#utility.yul\":8621:8624   */\n  dup3\n    /* \"#utility.yul\":8532:8625   */\n  tag_56\n  jump\t// in\ntag_138:\n    /* \"#utility.yul\":8650:8652   */\n  0x20\n    /* \"#utility.yul\":8645:8648   */\n  dup3\n    /* \"#utility.yul\":8641:8653   */\n  add\n    /* \"#utility.yul\":8634:8653   */\n  swap1\n  pop\n    /* \"#utility.yul\":8293:8659   */\n  swap2\n  swap1\n  pop\n  jump\t// out\n    /* \"#utility.yul\":8665:9084   */\ntag_27:\n    /* \"#utility.yul\":8831:8835   */\n  0x00\n    /* \"#utility.yul\":8869:8871   */\n  0x20\n    /* \"#utility.yul\":8858:8867   */\n  dup3\n    /* \"#utility.yul\":8854:8872   */\n  add\n    /* \"#utility.yul\":8846:8872   */\n  swap1\n  pop\n    /* \"#utility.yul\":8918:8927   */\n  dup2\n    /* \"#utility.yul\":8912:8916   */\n  dup2\n    /* \"#utility.yul\":8908:8928   */\n  sub\n    /* \"#utility.yul\":8904:8905   */\n  0x00\n    /* \"#utility.yul\":8893:8902   */\n  dup4\n    /* \"#utility.yul\":8889:8906   */\n  add\n    /* \"#utility.yul\":8882:8929   */\n  mstore\n    /* \"#utility.yul\":8946:9077   */\n  tag_140\n    /* \"#utility.yul\":9072:9076   */\n  dup2\n    /* \"#utility.yul\":8946:9077   */\n  tag_57\n  jump\t// in\ntag_140:\n    /* \"#utility.yul\":8938:9077   */\n  swap1\n  pop\n    /* \"#utility.yul\":8665:9084   */\n  swap2\n  swap1\n  pop\n  jump\t// out\n    /* \"cuimianMaster/MultiSigWallet.sol\":258:4059  contract MultiSigWallet {... */\ntag_28:\n  dataSize(sub_0)\n  dup1\n  dataOffset(sub_0)\n  0x00\n  codecopy\n  0x00\n  return\nstop\n\nsub_0: assembly {\n        /* \"cuimianMaster/MultiSigWallet.sol\":258:4059  contract MultiSigWallet {... */\n      mstore(0x40, 0x80)\n      jumpi(tag_1, lt(calldatasize, 0x04))\n      shr(0xe0, calldataload(0x00))\n      dup1\n      0x2f54bf6e\n      gt\n      tag_12\n      jumpi\n      dup1\n      0x2f54bf6e\n      eq\n      tag_7\n      jumpi\n      dup1\n      0x9ace38c2\n      eq\n      tag_8\n      jumpi\n      dup1\n      0xb759f954\n      eq\n      tag_9\n      jumpi\n      dup1\n      0xdc8452cd\n      eq\n      tag_10\n      jumpi\n      dup1\n      0xfe0d94c1\n      eq\n      tag_11\n      jumpi\n      jump(tag_2)\n    tag_12:\n      dup1\n      0x025e7c27\n      eq\n      tag_3\n      jumpi\n      dup1\n      0x0949dc07\n      eq\n      tag_4\n      jumpi\n      dup1\n      0x203dd666\n      eq\n      tag_5\n      jumpi\n      dup1\n      0x20c5429b\n      eq\n      tag_6\n      jumpi\n      jump(tag_2)\n    tag_1:\n      jumpi(tag_2, calldatasize)\n        /* \"cuimianMaster/MultiSigWallet.sol\":1697:1707  msg.sender */\n      caller\n        /* \"cuimianMaster/MultiSigWallet.sol\":1689:1719  Deposit(msg.sender, msg.value) */\n      0xffffffffffffffffffffffffffffffffffffffff\n      and\n      0xe1fffcc4923d04b559f4d29a8bfc6cda04eb5b0d3c460751c2402c5c5cc9109c\n        /* \"cuimianMaster/MultiSigWallet.sol\":1709:1718  msg.value */\n      callvalue\n        /* \"cuimianMaster/MultiSigWallet.sol\":1689:1719  Deposit(msg.sender, msg.value) */\n      mload(0x40)\n      tag_15\n      swap2\n      swap1\n      tag_16\n      jump\t// in\n    tag_15:\n      mload(0x40)\n      dup1\n      swap2\n      sub\n      swap1\n      log2\n        /* \"cuimianMaster/MultiSigWallet.sol\":258:4059  contract MultiSigWallet {... */\n      stop\n    tag_2:\n      0x00\n      dup1\n      revert\n        /* \"cuimianMaster/MultiSigWallet.sol\":691:714  address[] public owners */\n    tag_3:\n      callvalue\n      dup1\n      iszero\n      tag_17\n      jumpi\n      0x00\n      dup1\n      revert\n    tag_17:\n      pop\n      tag_18\n      0x04\n      dup1\n      calldatasize\n      sub\n      dup2\n      add\n      swap1\n      tag_19\n      swap2\n      swap1\n      tag_20\n      jump\t// in\n    tag_19:\n      tag_21\n      jump\t// in\n    tag_18:\n      mload(0x40)\n      tag_22\n      swap2\n      swap1\n      tag_23\n      jump\t// in\n    tag_22:\n      mload(0x40)\n      dup1\n      swap2\n      sub\n      swap1\n      return\n        /* \"cuimianMaster/MultiSigWallet.sol\":1001:1061  mapping(uint => mapping(address => bool)) public approvedMap */\n    tag_4:\n      callvalue\n      dup1\n      iszero\n      tag_24\n      jumpi\n      0x00\n      dup1\n      revert\n    tag_24:\n      pop\n      tag_25\n      0x04\n      dup1\n      calldatasize\n      sub\n      dup2\n      add\n      swap1\n      tag_26\n      swap2\n      swap1\n      tag_27\n      jump\t// in\n    tag_26:\n      tag_28\n      jump\t// in\n    tag_25:\n      mload(0x40)\n      tag_29\n      swap2\n      swap1\n      tag_30\n      jump\t// in\n    tag_29:\n      mload(0x40)\n      dup1\n      swap2\n      sub\n      swap1\n      return\n        /* \"cuimianMaster/MultiSigWallet.sol\":2334:2662  function submit(address _to, uint _value) external onlyOwner {... */\n    tag_5:\n      callvalue\n      dup1\n      iszero\n      tag_31\n      jumpi\n      0x00\n      dup1\n      revert\n    tag_31:\n      pop\n      tag_32\n      0x04\n      dup1\n      calldatasize\n      sub\n      dup2\n      add\n      swap1\n      tag_33\n      swap2\n      swap1\n      tag_34\n      jump\t// in\n    tag_33:\n      tag_35\n      jump\t// in\n    tag_32:\n      stop\n        /* \"cuimianMaster/MultiSigWallet.sol\":3782:4056  function revoke(uint _txId) external onlyOwner txIdExist(_txId) notExecuted(_txId) {... */\n    tag_6:\n      callvalue\n      dup1\n      iszero\n      tag_36\n      jumpi\n      0x00\n      dup1\n      revert\n    tag_36:\n      pop\n      tag_37\n      0x04\n      dup1\n      calldatasize\n      sub\n      dup2\n      add\n      swap1\n      tag_38\n      swap2\n      swap1\n      tag_20\n      jump\t// in\n    tag_38:\n      tag_39\n      jump\t// in\n    tag_37:\n      stop\n        /* \"cuimianMaster/MultiSigWallet.sol\":816:855  mapping(address => bool) public isOwner */\n    tag_7:\n      callvalue\n      dup1\n      iszero\n      tag_40\n      jumpi\n      0x00\n      dup1\n      revert\n    tag_40:\n      pop\n      tag_41\n      0x04\n      dup1\n      calldatasize\n      sub\n      dup2\n      add\n      swap1\n      tag_42\n      swap2\n      swap1\n      tag_43\n      jump\t// in\n    tag_42:\n      tag_44\n      jump\t// in\n    tag_41:\n      mload(0x40)\n      tag_45\n      swap2\n      swap1\n      tag_30\n      jump\t// in\n    tag_45:\n      mload(0x40)\n      dup1\n      swap2\n      sub\n      swap1\n      return\n        /* \"cuimianMaster/MultiSigWallet.sol\":915:948  Transaction[] public transactions */\n    tag_8:\n      callvalue\n      dup1\n      iszero\n      tag_46\n      jumpi\n      0x00\n      dup1\n      revert\n    tag_46:\n      pop\n      tag_47\n      0x04\n      dup1\n      calldatasize\n      sub\n      dup2\n      add\n      swap1\n      tag_48\n      swap2\n      swap1\n      tag_20\n      jump\t// in\n    tag_48:\n      tag_49\n      jump\t// in\n    tag_47:\n      mload(0x40)\n      tag_50\n      swap5\n      swap4\n      swap3\n      swap2\n      swap1\n      tag_51\n      jump\t// in\n    tag_50:\n      mload(0x40)\n      dup1\n      swap2\n      sub\n      swap1\n      return\n        /* \"cuimianMaster/MultiSigWallet.sol\":2701:2948  function approve(uint _txId) external ... */\n    tag_9:\n      callvalue\n      dup1\n      iszero\n      tag_52\n      jumpi\n      0x00\n      dup1\n      revert\n    tag_52:\n      pop\n      tag_53\n      0x04\n      dup1\n      calldatasize\n      sub\n      dup2\n      add\n      swap1\n      tag_54\n      swap2\n      swap1\n      tag_20\n      jump\t// in\n    tag_54:\n      tag_55\n      jump\t// in\n    tag_53:\n      stop\n        /* \"cuimianMaster/MultiSigWallet.sol\":862:882  uint public required */\n    tag_10:\n      callvalue\n      dup1\n      iszero\n      tag_56\n      jumpi\n      0x00\n      dup1\n      revert\n    tag_56:\n      pop\n      tag_57\n      tag_58\n      jump\t// in\n    tag_57:\n      mload(0x40)\n      tag_59\n      swap2\n      swap1\n      tag_16\n      jump\t// in\n    tag_59:\n      mload(0x40)\n      dup1\n      swap2\n      sub\n      swap1\n      return\n        /* \"cuimianMaster/MultiSigWallet.sol\":3241:3754  function execute(uint _txId) external txIdExist(_txId) notExecuted(_txId) {... */\n    tag_11:\n      callvalue\n      dup1\n      iszero\n      tag_60\n      jumpi\n      0x00\n      dup1\n      revert\n    tag_60:\n      pop\n      tag_61\n      0x04\n      dup1\n      calldatasize\n      sub\n      dup2\n      add\n      swap1\n      tag_62\n      swap2\n      swap1\n      tag_20\n      jump\t// in\n    tag_62:\n      tag_63\n      jump\t// in\n    tag_61:\n      stop\n        /* \"cuimianMaster/MultiSigWallet.sol\":691:714  address[] public owners */\n    tag_21:\n      0x00\n      dup2\n      dup2\n      sload\n      dup2\n      lt\n      tag_64\n      jumpi\n      0x00\n      dup1\n      revert\n    tag_64:\n      swap1\n      0x00\n      mstore\n      keccak256(0x00, 0x20)\n      add\n      0x00\n      swap2\n      pop\n      sload\n      swap1\n      0x0100\n      exp\n      swap1\n      div\n      0xffffffffffffffffffffffffffffffffffffffff\n      and\n      dup2\n      jump\t// out\n        /* \"cuimianMaster/MultiSigWallet.sol\":1001:1061  mapping(uint => mapping(address => bool)) public approvedMap */\n    tag_28:\n      mstore(0x20, 0x04)\n      dup2\n      0x00\n      mstore\n      mstore(0x20, keccak256(0x00, 0x40))\n      dup1\n      0x00\n      mstore\n      keccak256(0x00, 0x40)\n      0x00\n      swap2\n      pop\n      swap2\n      pop\n      swap1\n      sload\n      swap1\n      0x0100\n      exp\n      swap1\n      div\n      0xff\n      and\n      dup2\n      jump\t// out\n        /* \"cuimianMaster/MultiSigWallet.sol\":2334:2662  function submit(address _to, uint _value) external onlyOwner {... */\n    tag_35:\n        /* \"cuimianMaster/MultiSigWallet.sol\":1775:1782  isOwner */\n      0x01\n        /* \"cuimianMaster/MultiSigWallet.sol\":1775:1794  isOwner[msg.sender] */\n      0x00\n        /* \"cuimianMaster/MultiSigWallet.sol\":1783:1793  msg.sender */\n      caller\n        /* \"cuimianMaster/MultiSigWallet.sol\":1775:1794  isOwner[msg.sender] */\n      0xffffffffffffffffffffffffffffffffffffffff\n      and\n      0xffffffffffffffffffffffffffffffffffffffff\n      and\n      dup2\n      mstore\n      0x20\n      add\n      swap1\n      dup2\n      mstore\n      0x20\n      add\n      0x00\n      keccak256\n      0x00\n      swap1\n      sload\n      swap1\n      0x0100\n      exp\n      swap1\n      div\n      0xff\n      and\n        /* \"cuimianMaster/MultiSigWallet.sol\":1767:1832  require(isOwner[msg.sender], \"only owner can submit transaction\") */\n      tag_67\n      jumpi\n      mload(0x40)\n      0x08c379a000000000000000000000000000000000000000000000000000000000\n      dup2\n      mstore\n      0x04\n      add\n      tag_68\n      swap1\n      tag_69\n      jump\t// in\n    tag_68:\n      mload(0x40)\n      dup1\n      swap2\n      sub\n      swap1\n      revert\n    tag_67:\n        /* \"cuimianMaster/MultiSigWallet.sol\":2406:2418  transactions */\n      0x03\n        /* \"cuimianMaster/MultiSigWallet.sol\":2424:2606  Transaction({... */\n      mload(0x40)\n      dup1\n      0x80\n      add\n      0x40\n      mstore\n      dup1\n        /* \"cuimianMaster/MultiSigWallet.sol\":2455:2458  _to */\n      dup5\n        /* \"cuimianMaster/MultiSigWallet.sol\":2424:2606  Transaction({... */\n      0xffffffffffffffffffffffffffffffffffffffff\n      and\n      dup2\n      mstore\n      0x20\n      add\n        /* \"cuimianMaster/MultiSigWallet.sol\":2481:2487  _value */\n      dup4\n        /* \"cuimianMaster/MultiSigWallet.sol\":2424:2606  Transaction({... */\n      dup2\n      mstore\n      0x20\n      add\n        /* \"cuimianMaster/MultiSigWallet.sol\":2509:2563  abi.encodeWithSignature(\"notExistFun(string)\", \"haha\") */\n      add(0x24, mload(0x40))\n      tag_71\n      swap1\n      tag_72\n      jump\t// in\n    tag_71:\n      mload(0x40)\n      0x20\n      dup2\n      dup4\n      sub\n      sub\n      dup2\n      mstore\n      swap1\n      0x40\n      mstore\n      and(not(0xffffffffffffffffffffffffffffffffffffffffffffffffffffffff), 0x55f9de8200000000000000000000000000000000000000000000000000000000)\n      0x20\n      dup3\n      add\n      dup1\n      mload\n      0xffffffffffffffffffffffffffffffffffffffffffffffffffffffff\n      dup4\n      dup2\n      dup4\n      and\n      or\n      dup4\n      mstore\n      pop\n      pop\n      pop\n      pop\n        /* \"cuimianMaster/MultiSigWallet.sol\":2424:2606  Transaction({... */\n      dup2\n      mstore\n      0x20\n      add\n        /* \"cuimianMaster/MultiSigWallet.sol\":2589:2594  false */\n      0x00\n        /* \"cuimianMaster/MultiSigWallet.sol\":2424:2606  Transaction({... */\n      iszero\n      iszero\n      dup2\n      mstore\n      pop\n        /* \"cuimianMaster/MultiSigWallet.sol\":2406:2607  transactions.push(Transaction({... */\n      swap1\n      dup1\n      0x01\n      dup2\n      sload\n      add\n      dup1\n      dup3\n      sstore\n      dup1\n      swap2\n      pop\n      pop\n      0x01\n      swap1\n      sub\n      swap1\n      0x00\n      mstore\n      keccak256(0x00, 0x20)\n      swap1\n      0x04\n      mul\n      add\n      0x00\n      swap1\n      swap2\n      swap1\n      swap2\n      swap1\n      swap2\n      pop\n      0x00\n      dup3\n      add\n      mload\n      dup2\n      0x00\n      add\n      exp(0x0100, 0x00)\n      dup2\n      sload\n      dup2\n      0xffffffffffffffffffffffffffffffffffffffff\n      mul\n      not\n      and\n      swap1\n      dup4\n      0xffffffffffffffffffffffffffffffffffffffff\n      and\n      mul\n      or\n      swap1\n      sstore\n      pop\n      0x20\n      dup3\n      add\n      mload\n      dup2\n      0x01\n      add\n      sstore\n      0x40\n      dup3\n      add\n      mload\n      dup2\n      0x02\n      add\n      swap1\n      dup2\n      tag_74\n      swap2\n      swap1\n      tag_75\n      jump\t// in\n    tag_74:\n      pop\n      0x60\n      dup3\n      add\n      mload\n      dup2\n      0x03\n      add\n      exp(0x0100, 0x00)\n      dup2\n      sload\n      dup2\n      0xff\n      mul\n      not\n      and\n      swap1\n      dup4\n      iszero\n      iszero\n      mul\n      or\n      swap1\n      sstore\n      pop\n      pop\n      pop\n        /* \"cuimianMaster/MultiSigWallet.sol\":2652:2653  1 */\n      0x01\n        /* \"cuimianMaster/MultiSigWallet.sol\":2630:2642  transactions */\n      0x03\n        /* \"cuimianMaster/MultiSigWallet.sol\":2630:2649  transactions.length */\n      dup1\n      sload\n      swap1\n      pop\n        /* \"cuimianMaster/MultiSigWallet.sol\":2630:2653  transactions.length - 1 */\n      tag_76\n      swap2\n      swap1\n      tag_77\n      jump\t// in\n    tag_76:\n        /* \"cuimianMaster/MultiSigWallet.sol\":2623:2654  Submit(transactions.length - 1) */\n      0x08324b3d745b914e3abd4ffbfead91e3b78391a98c173202129215ab933adfbe\n      mload(0x40)\n      mload(0x40)\n      dup1\n      swap2\n      sub\n      swap1\n      log2\n        /* \"cuimianMaster/MultiSigWallet.sol\":2334:2662  function submit(address _to, uint _value) external onlyOwner {... */\n      pop\n      pop\n      jump\t// out\n        /* \"cuimianMaster/MultiSigWallet.sol\":3782:4056  function revoke(uint _txId) external onlyOwner txIdExist(_txId) notExecuted(_txId) {... */\n    tag_39:\n        /* \"cuimianMaster/MultiSigWallet.sol\":1775:1782  isOwner */\n      0x01\n        /* \"cuimianMaster/MultiSigWallet.sol\":1775:1794  isOwner[msg.sender] */\n      0x00\n        /* \"cuimianMaster/MultiSigWallet.sol\":1783:1793  msg.sender */\n      caller\n        /* \"cuimianMaster/MultiSigWallet.sol\":1775:1794  isOwner[msg.sender] */\n      0xffffffffffffffffffffffffffffffffffffffff\n      and\n      0xffffffffffffffffffffffffffffffffffffffff\n      and\n      dup2\n      mstore\n      0x20\n      add\n      swap1\n      dup2\n      mstore\n      0x20\n      add\n      0x00\n      keccak256\n      0x00\n      swap1\n      sload\n      swap1\n      0x0100\n      exp\n      swap1\n      div\n      0xff\n      and\n        /* \"cuimianMaster/MultiSigWallet.sol\":1767:1832  require(isOwner[msg.sender], \"only owner can submit transaction\") */\n      tag_79\n      jumpi\n      mload(0x40)\n      0x08c379a000000000000000000000000000000000000000000000000000000000\n      dup2\n      mstore\n      0x04\n      add\n      tag_80\n      swap1\n      tag_69\n      jump\t// in\n    tag_80:\n      mload(0x40)\n      dup1\n      swap2\n      sub\n      swap1\n      revert\n    tag_79:\n        /* \"cuimianMaster/MultiSigWallet.sol\":3839:3844  _txId */\n      dup1\n        /* \"cuimianMaster/MultiSigWallet.sol\":1918:1930  transactions */\n      0x03\n        /* \"cuimianMaster/MultiSigWallet.sol\":1918:1937  transactions.length */\n      dup1\n      sload\n      swap1\n      pop\n        /* \"cuimianMaster/MultiSigWallet.sol\":1910:1915  _txId */\n      dup2\n        /* \"cuimianMaster/MultiSigWallet.sol\":1910:1937  _txId < transactions.length */\n      lt\n        /* \"cuimianMaster/MultiSigWallet.sol\":1910:1951  _txId < transactions.length && _txId >= 0 */\n      dup1\n      iszero\n      tag_82\n      jumpi\n      pop\n        /* \"cuimianMaster/MultiSigWallet.sol\":1950:1951  0 */\n      0x00\n        /* \"cuimianMaster/MultiSigWallet.sol\":1941:1946  _txId */\n      dup2\n        /* \"cuimianMaster/MultiSigWallet.sol\":1941:1951  _txId >= 0 */\n      lt\n      iszero\n        /* \"cuimianMaster/MultiSigWallet.sol\":1910:1951  _txId < transactions.length && _txId >= 0 */\n    tag_82:\n        /* \"cuimianMaster/MultiSigWallet.sol\":1902:1980  require(_txId < transactions.length && _txId >= 0, \"transaction is not exist\") */\n      tag_83\n      jumpi\n      mload(0x40)\n      0x08c379a000000000000000000000000000000000000000000000000000000000\n      dup2\n      mstore\n      0x04\n      add\n      tag_84\n      swap1\n      tag_85\n      jump\t// in\n    tag_84:\n      mload(0x40)\n      dup1\n      swap2\n      sub\n      swap1\n      revert\n    tag_83:\n        /* \"cuimianMaster/MultiSigWallet.sol\":3858:3863  _txId */\n      dup2\n        /* \"cuimianMaster/MultiSigWallet.sol\":2204:2216  transactions */\n      0x03\n        /* \"cuimianMaster/MultiSigWallet.sol\":2217:2222  _txId */\n      dup2\n        /* \"cuimianMaster/MultiSigWallet.sol\":2204:2223  transactions[_txId] */\n      dup2\n      sload\n      dup2\n      lt\n      tag_87\n      jumpi\n      tag_88\n      tag_89\n      jump\t// in\n    tag_88:\n    tag_87:\n      swap1\n      0x00\n      mstore\n      keccak256(0x00, 0x20)\n      swap1\n      0x04\n      mul\n      add\n        /* \"cuimianMaster/MultiSigWallet.sol\":2204:2232  transactions[_txId].executed */\n      0x03\n      add\n      0x00\n      swap1\n      sload\n      swap1\n      0x0100\n      exp\n      swap1\n      div\n      0xff\n      and\n        /* \"cuimianMaster/MultiSigWallet.sol\":2203:2232  !transactions[_txId].executed */\n      iszero\n        /* \"cuimianMaster/MultiSigWallet.sol\":2195:2261  require(!transactions[_txId].executed, \"this tx already executed\") */\n      tag_91\n      jumpi\n      mload(0x40)\n      0x08c379a000000000000000000000000000000000000000000000000000000000\n      dup2\n      mstore\n      0x04\n      add\n      tag_92\n      swap1\n      tag_93\n      jump\t// in\n    tag_92:\n      mload(0x40)\n      dup1\n      swap2\n      sub\n      swap1\n      revert\n    tag_91:\n        /* \"cuimianMaster/MultiSigWallet.sol\":3884:3895  approvedMap */\n      0x04\n        /* \"cuimianMaster/MultiSigWallet.sol\":3884:3902  approvedMap[_txId] */\n      0x00\n        /* \"cuimianMaster/MultiSigWallet.sol\":3896:3901  _txId */\n      dup5\n        /* \"cuimianMaster/MultiSigWallet.sol\":3884:3902  approvedMap[_txId] */\n      dup2\n      mstore\n      0x20\n      add\n      swap1\n      dup2\n      mstore\n      0x20\n      add\n      0x00\n      keccak256\n        /* \"cuimianMaster/MultiSigWallet.sol\":3884:3914  approvedMap[_txId][msg.sender] */\n      0x00\n        /* \"cuimianMaster/MultiSigWallet.sol\":3903:3913  msg.sender */\n      caller\n        /* \"cuimianMaster/MultiSigWallet.sol\":3884:3914  approvedMap[_txId][msg.sender] */\n      0xffffffffffffffffffffffffffffffffffffffff\n      and\n      0xffffffffffffffffffffffffffffffffffffffff\n      and\n      dup2\n      mstore\n      0x20\n      add\n      swap1\n      dup2\n      mstore\n      0x20\n      add\n      0x00\n      keccak256\n      0x00\n      swap1\n      sload\n      swap1\n      0x0100\n      exp\n      swap1\n      div\n      0xff\n      and\n        /* \"cuimianMaster/MultiSigWallet.sol\":3876:3934  require(approvedMap[_txId][msg.sender], \"tx not approved\") */\n      tag_95\n      jumpi\n      mload(0x40)\n      0x08c379a000000000000000000000000000000000000000000000000000000000\n      dup2\n      mstore\n      0x04\n      add\n      tag_96\n      swap1\n      tag_97\n      jump\t// in\n    tag_96:\n      mload(0x40)\n      dup1\n      swap2\n      sub\n      swap1\n      revert\n    tag_95:\n        /* \"cuimianMaster/MultiSigWallet.sol\":4002:4007  false */\n      0x00\n        /* \"cuimianMaster/MultiSigWallet.sol\":3969:3980  approvedMap */\n      0x04\n        /* \"cuimianMaster/MultiSigWallet.sol\":3969:3987  approvedMap[_txId] */\n      0x00\n        /* \"cuimianMaster/MultiSigWallet.sol\":3981:3986  _txId */\n      dup6\n        /* \"cuimianMaster/MultiSigWallet.sol\":3969:3987  approvedMap[_txId] */\n      dup2\n      mstore\n      0x20\n      add\n      swap1\n      dup2\n      mstore\n      0x20\n      add\n      0x00\n      keccak256\n        /* \"cuimianMaster/MultiSigWallet.sol\":3969:3999  approvedMap[_txId][msg.sender] */\n      0x00\n        /* \"cuimianMaster/MultiSigWallet.sol\":3988:3998  msg.sender */\n      caller\n        /* \"cuimianMaster/MultiSigWallet.sol\":3969:3999  approvedMap[_txId][msg.sender] */\n      0xffffffffffffffffffffffffffffffffffffffff\n      and\n      0xffffffffffffffffffffffffffffffffffffffff\n      and\n      dup2\n      mstore\n      0x20\n      add\n      swap1\n      dup2\n      mstore\n      0x20\n      add\n      0x00\n      keccak256\n      0x00\n        /* \"cuimianMaster/MultiSigWallet.sol\":3969:4007  approvedMap[_txId][msg.sender] = false */\n      0x0100\n      exp\n      dup2\n      sload\n      dup2\n      0xff\n      mul\n      not\n      and\n      swap1\n      dup4\n      iszero\n      iszero\n      mul\n      or\n      swap1\n      sstore\n      pop\n        /* \"cuimianMaster/MultiSigWallet.sol\":4042:4047  _txId */\n      dup3\n        /* \"cuimianMaster/MultiSigWallet.sol\":4030:4040  msg.sender */\n      caller\n        /* \"cuimianMaster/MultiSigWallet.sol\":4023:4048  Revoke(msg.sender, _txId) */\n      0xffffffffffffffffffffffffffffffffffffffff\n      and\n      0xec9ab91322523c899ede7830ec9bfc992b5981cdcc27b91162fb23de5791117b\n      mload(0x40)\n      mload(0x40)\n      dup1\n      swap2\n      sub\n      swap1\n      log3\n        /* \"cuimianMaster/MultiSigWallet.sol\":1991:1992  _ */\n      pop\n        /* \"cuimianMaster/MultiSigWallet.sol\":1843:1844  _ */\n      pop\n        /* \"cuimianMaster/MultiSigWallet.sol\":3782:4056  function revoke(uint _txId) external onlyOwner txIdExist(_txId) notExecuted(_txId) {... */\n      pop\n      jump\t// out\n        /* \"cuimianMaster/MultiSigWallet.sol\":816:855  mapping(address => bool) public isOwner */\n    tag_44:\n      mstore(0x20, 0x01)\n      dup1\n      0x00\n      mstore\n      keccak256(0x00, 0x40)\n      0x00\n      swap2\n      pop\n      sload\n      swap1\n      0x0100\n      exp\n      swap1\n      div\n      0xff\n      and\n      dup2\n      jump\t// out\n        /* \"cuimianMaster/MultiSigWallet.sol\":915:948  Transaction[] public transactions */\n    tag_49:\n      0x03\n      dup2\n      dup2\n      sload\n      dup2\n      lt\n      tag_98\n      jumpi\n      0x00\n      dup1\n      revert\n    tag_98:\n      swap1\n      0x00\n      mstore\n      keccak256(0x00, 0x20)\n      swap1\n      0x04\n      mul\n      add\n      0x00\n      swap2\n      pop\n      swap1\n      pop\n      dup1\n      0x00\n      add\n      0x00\n      swap1\n      sload\n      swap1\n      0x0100\n      exp\n      swap1\n      div\n      0xffffffffffffffffffffffffffffffffffffffff\n      and\n      swap1\n      dup1\n      0x01\n      add\n      sload\n      swap1\n      dup1\n      0x02\n      add\n      dup1\n      sload\n      tag_100\n      swap1\n      tag_101\n      jump\t// in\n    tag_100:\n      dup1\n      0x1f\n      add\n      0x20\n      dup1\n      swap2\n      div\n      mul\n      0x20\n      add\n      mload(0x40)\n      swap1\n      dup2\n      add\n      0x40\n      mstore\n      dup1\n      swap3\n      swap2\n      swap1\n      dup2\n      dup2\n      mstore\n      0x20\n      add\n      dup3\n      dup1\n      sload\n      tag_102\n      swap1\n      tag_101\n      jump\t// in\n    tag_102:\n      dup1\n      iszero\n      tag_103\n      jumpi\n      dup1\n      0x1f\n      lt\n      tag_104\n      jumpi\n      0x0100\n      dup1\n      dup4\n      sload\n      div\n      mul\n      dup4\n      mstore\n      swap2\n      0x20\n      add\n      swap2\n      jump(tag_103)\n    tag_104:\n      dup3\n      add\n      swap2\n      swap1\n      0x00\n      mstore\n      keccak256(0x00, 0x20)\n      swap1\n    tag_105:\n      dup2\n      sload\n      dup2\n      mstore\n      swap1\n      0x01\n      add\n      swap1\n      0x20\n      add\n      dup1\n      dup4\n      gt\n      tag_105\n      jumpi\n      dup3\n      swap1\n      sub\n      0x1f\n      and\n      dup3\n      add\n      swap2\n    tag_103:\n      pop\n      pop\n      pop\n      pop\n      pop\n      swap1\n      dup1\n      0x03\n      add\n      0x00\n      swap1\n      sload\n      swap1\n      0x0100\n      exp\n      swap1\n      div\n      0xff\n      and\n      swap1\n      pop\n      dup5\n      jump\t// out\n        /* \"cuimianMaster/MultiSigWallet.sol\":2701:2948  function approve(uint _txId) external ... */\n    tag_55:\n        /* \"cuimianMaster/MultiSigWallet.sol\":1775:1782  isOwner */\n      0x01\n        /* \"cuimianMaster/MultiSigWallet.sol\":1775:1794  isOwner[msg.sender] */\n      0x00\n        /* \"cuimianMaster/MultiSigWallet.sol\":1783:1793  msg.sender */\n      caller\n        /* \"cuimianMaster/MultiSigWallet.sol\":1775:1794  isOwner[msg.sender] */\n      0xffffffffffffffffffffffffffffffffffffffff\n      and\n      0xffffffffffffffffffffffffffffffffffffffff\n      and\n      dup2\n      mstore\n      0x20\n      add\n      swap1\n      dup2\n      mstore\n      0x20\n      add\n      0x00\n      keccak256\n      0x00\n      swap1\n      sload\n      swap1\n      0x0100\n      exp\n      swap1\n      div\n      0xff\n      and\n        /* \"cuimianMaster/MultiSigWallet.sol\":1767:1832  require(isOwner[msg.sender], \"only owner can submit transaction\") */\n      tag_107\n      jumpi\n      mload(0x40)\n      0x08c379a000000000000000000000000000000000000000000000000000000000\n      dup2\n      mstore\n      0x04\n      add\n      tag_108\n      swap1\n      tag_69\n      jump\t// in\n    tag_108:\n      mload(0x40)\n      dup1\n      swap2\n      sub\n      swap1\n      revert\n    tag_107:\n        /* \"cuimianMaster/MultiSigWallet.sol\":2779:2784  _txId */\n      dup1\n        /* \"cuimianMaster/MultiSigWallet.sol\":1918:1930  transactions */\n      0x03\n        /* \"cuimianMaster/MultiSigWallet.sol\":1918:1937  transactions.length */\n      dup1\n      sload\n      swap1\n      pop\n        /* \"cuimianMaster/MultiSigWallet.sol\":1910:1915  _txId */\n      dup2\n        /* \"cuimianMaster/MultiSigWallet.sol\":1910:1937  _txId < transactions.length */\n      lt\n        /* \"cuimianMaster/MultiSigWallet.sol\":1910:1951  _txId < transactions.length && _txId >= 0 */\n      dup1\n      iszero\n      tag_110\n      jumpi\n      pop\n        /* \"cuimianMaster/MultiSigWallet.sol\":1950:1951  0 */\n      0x00\n        /* \"cuimianMaster/MultiSigWallet.sol\":1941:1946  _txId */\n      dup2\n        /* \"cuimianMaster/MultiSigWallet.sol\":1941:1951  _txId >= 0 */\n      lt\n      iszero\n        /* \"cuimianMaster/MultiSigWallet.sol\":1910:1951  _txId < transactions.length && _txId >= 0 */\n    tag_110:\n        /* \"cuimianMaster/MultiSigWallet.sol\":1902:1980  require(_txId < transactions.length && _txId >= 0, \"transaction is not exist\") */\n      tag_111\n      jumpi\n      mload(0x40)\n      0x08c379a000000000000000000000000000000000000000000000000000000000\n      dup2\n      mstore\n      0x04\n      add\n      tag_112\n      swap1\n      tag_85\n      jump\t// in\n    tag_112:\n      mload(0x40)\n      dup1\n      swap2\n      sub\n      swap1\n      revert\n    tag_111:\n        /* \"cuimianMaster/MultiSigWallet.sol\":2808:2813  _txId */\n      dup2\n        /* \"cuimianMaster/MultiSigWallet.sol\":2061:2072  approvedMap */\n      0x04\n        /* \"cuimianMaster/MultiSigWallet.sol\":2061:2079  approvedMap[_txId] */\n      0x00\n        /* \"cuimianMaster/MultiSigWallet.sol\":2073:2078  _txId */\n      dup3\n        /* \"cuimianMaster/MultiSigWallet.sol\":2061:2079  approvedMap[_txId] */\n      dup2\n      mstore\n      0x20\n      add\n      swap1\n      dup2\n      mstore\n      0x20\n      add\n      0x00\n      keccak256\n        /* \"cuimianMaster/MultiSigWallet.sol\":2061:2091  approvedMap[_txId][msg.sender] */\n      0x00\n        /* \"cuimianMaster/MultiSigWallet.sol\":2080:2090  msg.sender */\n      caller\n        /* \"cuimianMaster/MultiSigWallet.sol\":2061:2091  approvedMap[_txId][msg.sender] */\n      0xffffffffffffffffffffffffffffffffffffffff\n      and\n      0xffffffffffffffffffffffffffffffffffffffff\n      and\n      dup2\n      mstore\n      0x20\n      add\n      swap1\n      dup2\n      mstore\n      0x20\n      add\n      0x00\n      keccak256\n      0x00\n      swap1\n      sload\n      swap1\n      0x0100\n      exp\n      swap1\n      div\n      0xff\n      and\n        /* \"cuimianMaster/MultiSigWallet.sol\":2060:2091  !approvedMap[_txId][msg.sender] */\n      iszero\n        /* \"cuimianMaster/MultiSigWallet.sol\":2052:2123  require(!approvedMap[_txId][msg.sender], \"this owner already approved\") */\n      tag_114\n      jumpi\n      mload(0x40)\n      0x08c379a000000000000000000000000000000000000000000000000000000000\n      dup2\n      mstore\n      0x04\n      add\n      tag_115\n      swap1\n      tag_116\n      jump\t// in\n    tag_115:\n      mload(0x40)\n      dup1\n      swap2\n      sub\n      swap1\n      revert\n    tag_114:\n        /* \"cuimianMaster/MultiSigWallet.sol\":2837:2842  _txId */\n      dup3\n        /* \"cuimianMaster/MultiSigWallet.sol\":2204:2216  transactions */\n      0x03\n        /* \"cuimianMaster/MultiSigWallet.sol\":2217:2222  _txId */\n      dup2\n        /* \"cuimianMaster/MultiSigWallet.sol\":2204:2223  transactions[_txId] */\n      dup2\n      sload\n      dup2\n      lt\n      tag_118\n      jumpi\n      tag_119\n      tag_89\n      jump\t// in\n    tag_119:\n    tag_118:\n      swap1\n      0x00\n      mstore\n      keccak256(0x00, 0x20)\n      swap1\n      0x04\n      mul\n      add\n        /* \"cuimianMaster/MultiSigWallet.sol\":2204:2232  transactions[_txId].executed */\n      0x03\n      add\n      0x00\n      swap1\n      sload\n      swap1\n      0x0100\n      exp\n      swap1\n      div\n      0xff\n      and\n        /* \"cuimianMaster/MultiSigWallet.sol\":2203:2232  !transactions[_txId].executed */\n      iszero\n        /* \"cuimianMaster/MultiSigWallet.sol\":2195:2261  require(!transactions[_txId].executed, \"this tx already executed\") */\n      tag_121\n      jumpi\n      mload(0x40)\n      0x08c379a000000000000000000000000000000000000000000000000000000000\n      dup2\n      mstore\n      0x04\n      add\n      tag_122\n      swap1\n      tag_93\n      jump\t// in\n    tag_122:\n      mload(0x40)\n      dup1\n      swap2\n      sub\n      swap1\n      revert\n    tag_121:\n        /* \"cuimianMaster/MultiSigWallet.sol\":2894:2898  true */\n      0x01\n        /* \"cuimianMaster/MultiSigWallet.sol\":2861:2872  approvedMap */\n      0x04\n        /* \"cuimianMaster/MultiSigWallet.sol\":2861:2879  approvedMap[_txId] */\n      0x00\n        /* \"cuimianMaster/MultiSigWallet.sol\":2873:2878  _txId */\n      dup7\n        /* \"cuimianMaster/MultiSigWallet.sol\":2861:2879  approvedMap[_txId] */\n      dup2\n      mstore\n      0x20\n      add\n      swap1\n      dup2\n      mstore\n      0x20\n      add\n      0x00\n      keccak256\n        /* \"cuimianMaster/MultiSigWallet.sol\":2861:2891  approvedMap[_txId][msg.sender] */\n      0x00\n        /* \"cuimianMaster/MultiSigWallet.sol\":2880:2890  msg.sender */\n      caller\n        /* \"cuimianMaster/MultiSigWallet.sol\":2861:2891  approvedMap[_txId][msg.sender] */\n      0xffffffffffffffffffffffffffffffffffffffff\n      and\n      0xffffffffffffffffffffffffffffffffffffffff\n      and\n      dup2\n      mstore\n      0x20\n      add\n      swap1\n      dup2\n      mstore\n      0x20\n      add\n      0x00\n      keccak256\n      0x00\n        /* \"cuimianMaster/MultiSigWallet.sol\":2861:2898  approvedMap[_txId][msg.sender] = true */\n      0x0100\n      exp\n      dup2\n      sload\n      dup2\n      0xff\n      mul\n      not\n      and\n      swap1\n      dup4\n      iszero\n      iszero\n      mul\n      or\n      swap1\n      sstore\n      pop\n        /* \"cuimianMaster/MultiSigWallet.sol\":2934:2939  _txId */\n      dup4\n        /* \"cuimianMaster/MultiSigWallet.sol\":2922:2932  msg.sender */\n      caller\n        /* \"cuimianMaster/MultiSigWallet.sol\":2914:2940  Approve(msg.sender, _txId) */\n      0xffffffffffffffffffffffffffffffffffffffff\n      and\n      0x90ec57f18fa7b15c6b8d5e4d1deb90796c74b2ff23d4d0cecad0cb42a96b3128\n      mload(0x40)\n      mload(0x40)\n      dup1\n      swap2\n      sub\n      swap1\n      log3\n        /* \"cuimianMaster/MultiSigWallet.sol\":2134:2135  _ */\n      pop\n        /* \"cuimianMaster/MultiSigWallet.sol\":1991:1992  _ */\n      pop\n        /* \"cuimianMaster/MultiSigWallet.sol\":1843:1844  _ */\n      pop\n        /* \"cuimianMaster/MultiSigWallet.sol\":2701:2948  function approve(uint _txId) external ... */\n      pop\n      jump\t// out\n        /* \"cuimianMaster/MultiSigWallet.sol\":862:882  uint public required */\n    tag_58:\n      sload(0x02)\n      dup2\n      jump\t// out\n        /* \"cuimianMaster/MultiSigWallet.sol\":3241:3754  function execute(uint _txId) external txIdExist(_txId) notExecuted(_txId) {... */\n    tag_63:\n        /* \"cuimianMaster/MultiSigWallet.sol\":3289:3294  _txId */\n      dup1\n        /* \"cuimianMaster/MultiSigWallet.sol\":1918:1930  transactions */\n      0x03\n        /* \"cuimianMaster/MultiSigWallet.sol\":1918:1937  transactions.length */\n      dup1\n      sload\n      swap1\n      pop\n        /* \"cuimianMaster/MultiSigWallet.sol\":1910:1915  _txId */\n      dup2\n        /* \"cuimianMaster/MultiSigWallet.sol\":1910:1937  _txId < transactions.length */\n      lt\n        /* \"cuimianMaster/MultiSigWallet.sol\":1910:1951  _txId < transactions.length && _txId >= 0 */\n      dup1\n      iszero\n      tag_125\n      jumpi\n      pop\n        /* \"cuimianMaster/MultiSigWallet.sol\":1950:1951  0 */\n      0x00\n        /* \"cuimianMaster/MultiSigWallet.sol\":1941:1946  _txId */\n      dup2\n        /* \"cuimianMaster/MultiSigWallet.sol\":1941:1951  _txId >= 0 */\n      lt\n      iszero\n        /* \"cuimianMaster/MultiSigWallet.sol\":1910:1951  _txId < transactions.length && _txId >= 0 */\n    tag_125:\n        /* \"cuimianMaster/MultiSigWallet.sol\":1902:1980  require(_txId < transactions.length && _txId >= 0, \"transaction is not exist\") */\n      tag_126\n      jumpi\n      mload(0x40)\n      0x08c379a000000000000000000000000000000000000000000000000000000000\n      dup2\n      mstore\n      0x04\n      add\n      tag_127\n      swap1\n      tag_85\n      jump\t// in\n    tag_127:\n      mload(0x40)\n      dup1\n      swap2\n      sub\n      swap1\n      revert\n    tag_126:\n        /* \"cuimianMaster/MultiSigWallet.sol\":3308:3313  _txId */\n      dup2\n        /* \"cuimianMaster/MultiSigWallet.sol\":2204:2216  transactions */\n      0x03\n        /* \"cuimianMaster/MultiSigWallet.sol\":2217:2222  _txId */\n      dup2\n        /* \"cuimianMaster/MultiSigWallet.sol\":2204:2223  transactions[_txId] */\n      dup2\n      sload\n      dup2\n      lt\n      tag_129\n      jumpi\n      tag_130\n      tag_89\n      jump\t// in\n    tag_130:\n    tag_129:\n      swap1\n      0x00\n      mstore\n      keccak256(0x00, 0x20)\n      swap1\n      0x04\n      mul\n      add\n        /* \"cuimianMaster/MultiSigWallet.sol\":2204:2232  transactions[_txId].executed */\n      0x03\n      add\n      0x00\n      swap1\n      sload\n      swap1\n      0x0100\n      exp\n      swap1\n      div\n      0xff\n      and\n        /* \"cuimianMaster/MultiSigWallet.sol\":2203:2232  !transactions[_txId].executed */\n      iszero\n        /* \"cuimianMaster/MultiSigWallet.sol\":2195:2261  require(!transactions[_txId].executed, \"this tx already executed\") */\n      tag_132\n      jumpi\n      mload(0x40)\n      0x08c379a000000000000000000000000000000000000000000000000000000000\n      dup2\n      mstore\n      0x04\n      add\n      tag_133\n      swap1\n      tag_93\n      jump\t// in\n    tag_133:\n      mload(0x40)\n      dup1\n      swap2\n      sub\n      swap1\n      revert\n    tag_132:\n        /* \"cuimianMaster/MultiSigWallet.sol\":3362:3370  required */\n      sload(0x02)\n        /* \"cuimianMaster/MultiSigWallet.sol\":3334:3358  _getApprovalCount(_txId) */\n      tag_135\n        /* \"cuimianMaster/MultiSigWallet.sol\":3352:3357  _txId */\n      dup5\n        /* \"cuimianMaster/MultiSigWallet.sol\":3334:3351  _getApprovalCount */\n      tag_136\n        /* \"cuimianMaster/MultiSigWallet.sol\":3334:3358  _getApprovalCount(_txId) */\n      jump\t// in\n    tag_135:\n        /* \"cuimianMaster/MultiSigWallet.sol\":3334:3370  _getApprovalCount(_txId) >= required */\n      lt\n      iszero\n        /* \"cuimianMaster/MultiSigWallet.sol\":3326:3395  require(_getApprovalCount(_txId) >= required, \"approvals < required\") */\n      tag_137\n      jumpi\n      mload(0x40)\n      0x08c379a000000000000000000000000000000000000000000000000000000000\n      dup2\n      mstore\n      0x04\n      add\n      tag_138\n      swap1\n      tag_139\n      jump\t// in\n    tag_138:\n      mload(0x40)\n      dup1\n      swap2\n      sub\n      swap1\n      revert\n    tag_137:\n        /* \"cuimianMaster/MultiSigWallet.sol\":3406:3437  Transaction storage transaction */\n      0x00\n        /* \"cuimianMaster/MultiSigWallet.sol\":3440:3452  transactions */\n      0x03\n        /* \"cuimianMaster/MultiSigWallet.sol\":3453:3458  _txId */\n      dup5\n        /* \"cuimianMaster/MultiSigWallet.sol\":3440:3459  transactions[_txId] */\n      dup2\n      sload\n      dup2\n      lt\n      tag_140\n      jumpi\n      tag_141\n      tag_89\n      jump\t// in\n    tag_141:\n    tag_140:\n      swap1\n      0x00\n      mstore\n      keccak256(0x00, 0x20)\n      swap1\n      0x04\n      mul\n      add\n        /* \"cuimianMaster/MultiSigWallet.sol\":3406:3459  Transaction storage transaction = transactions[_txId] */\n      swap1\n      pop\n        /* \"cuimianMaster/MultiSigWallet.sol\":3565:3569  true */\n      0x01\n        /* \"cuimianMaster/MultiSigWallet.sol\":3542:3553  transaction */\n      dup2\n        /* \"cuimianMaster/MultiSigWallet.sol\":3542:3562  transaction.executed */\n      0x03\n      add\n      0x00\n        /* \"cuimianMaster/MultiSigWallet.sol\":3542:3569  transaction.executed = true */\n      0x0100\n      exp\n      dup2\n      sload\n      dup2\n      0xff\n      mul\n      not\n      and\n      swap1\n      dup4\n      iszero\n      iszero\n      mul\n      or\n      swap1\n      sstore\n      pop\n        /* \"cuimianMaster/MultiSigWallet.sol\":3583:3595  bool success */\n      0x00\n        /* \"cuimianMaster/MultiSigWallet.sol\":3601:3612  transaction */\n      dup2\n        /* \"cuimianMaster/MultiSigWallet.sol\":3601:3615  transaction.to */\n      0x00\n      add\n      0x00\n      swap1\n      sload\n      swap1\n      0x0100\n      exp\n      swap1\n      div\n      0xffffffffffffffffffffffffffffffffffffffff\n      and\n        /* \"cuimianMaster/MultiSigWallet.sol\":3601:3620  transaction.to.call */\n      0xffffffffffffffffffffffffffffffffffffffff\n      and\n        /* \"cuimianMaster/MultiSigWallet.sol\":3629:3640  transaction */\n      dup3\n        /* \"cuimianMaster/MultiSigWallet.sol\":3629:3646  transaction.value */\n      0x01\n      add\n      sload\n        /* \"cuimianMaster/MultiSigWallet.sol\":3648:3659  transaction */\n      dup4\n        /* \"cuimianMaster/MultiSigWallet.sol\":3648:3664  transaction.data */\n      0x02\n      add\n        /* \"cuimianMaster/MultiSigWallet.sol\":3601:3665  transaction.to.call{value : transaction.value}(transaction.data) */\n      mload(0x40)\n      tag_143\n      swap2\n      swap1\n      tag_144\n      jump\t// in\n    tag_143:\n      0x00\n      mload(0x40)\n      dup1\n      dup4\n      sub\n      dup2\n      dup6\n      dup8\n      gas\n      call\n      swap3\n      pop\n      pop\n      pop\n      returndatasize\n      dup1\n      0x00\n      dup2\n      eq\n      tag_147\n      jumpi\n      mload(0x40)\n      swap2\n      pop\n      and(add(returndatasize, 0x3f), not(0x1f))\n      dup3\n      add\n      0x40\n      mstore\n      returndatasize\n      dup3\n      mstore\n      returndatasize\n      0x00\n      0x20\n      dup5\n      add\n      returndatacopy\n      jump(tag_146)\n    tag_147:\n      0x60\n      swap2\n      pop\n    tag_146:\n      pop\n        /* \"cuimianMaster/MultiSigWallet.sol\":3582:3665  (bool success, ) = transaction.to.call{value : transaction.value}(transaction.data) */\n      pop\n      swap1\n      pop\n        /* \"cuimianMaster/MultiSigWallet.sol\":3684:3691  success */\n      dup1\n        /* \"cuimianMaster/MultiSigWallet.sol\":3676:3714  require(success, \"tx executed failed\") */\n      tag_148\n      jumpi\n      mload(0x40)\n      0x08c379a000000000000000000000000000000000000000000000000000000000\n      dup2\n      mstore\n      0x04\n      add\n      tag_149\n      swap1\n      tag_150\n      jump\t// in\n    tag_149:\n      mload(0x40)\n      dup1\n      swap2\n      sub\n      swap1\n      revert\n    tag_148:\n        /* \"cuimianMaster/MultiSigWallet.sol\":3740:3745  _txId */\n      dup5\n        /* \"cuimianMaster/MultiSigWallet.sol\":3732:3746  Execute(_txId) */\n      0xddb556f1d2c1ec821e910b019d3685b229db152a0ecd517ca7e24b8bd7139289\n      mload(0x40)\n      mload(0x40)\n      dup1\n      swap2\n      sub\n      swap1\n      log2\n        /* \"cuimianMaster/MultiSigWallet.sol\":3315:3754  {... */\n      pop\n      pop\n        /* \"cuimianMaster/MultiSigWallet.sol\":1991:1992  _ */\n      pop\n        /* \"cuimianMaster/MultiSigWallet.sol\":3241:3754  function execute(uint _txId) external txIdExist(_txId) notExecuted(_txId) {... */\n      pop\n      pop\n      jump\t// out\n        /* \"cuimianMaster/MultiSigWallet.sol\":2956:3186  function _getApprovalCount(uint _txId) private view returns (uint count) {... */\n    tag_136:\n        /* \"cuimianMaster/MultiSigWallet.sol\":3017:3027  uint count */\n      0x00\n        /* \"cuimianMaster/MultiSigWallet.sol\":3044:3050  uint i */\n      dup1\n        /* \"cuimianMaster/MultiSigWallet.sol\":3040:3179  for(uint i; i < owners.length; i++) {... */\n    tag_152:\n        /* \"cuimianMaster/MultiSigWallet.sol\":3056:3062  owners */\n      0x00\n        /* \"cuimianMaster/MultiSigWallet.sol\":3056:3069  owners.length */\n      dup1\n      sload\n      swap1\n      pop\n        /* \"cuimianMaster/MultiSigWallet.sol\":3052:3053  i */\n      dup2\n        /* \"cuimianMaster/MultiSigWallet.sol\":3052:3069  i < owners.length */\n      lt\n        /* \"cuimianMaster/MultiSigWallet.sol\":3040:3179  for(uint i; i < owners.length; i++) {... */\n      iszero\n      tag_153\n      jumpi\n        /* \"cuimianMaster/MultiSigWallet.sol\":3095:3106  approvedMap */\n      0x04\n        /* \"cuimianMaster/MultiSigWallet.sol\":3095:3113  approvedMap[_txId] */\n      0x00\n        /* \"cuimianMaster/MultiSigWallet.sol\":3107:3112  _txId */\n      dup5\n        /* \"cuimianMaster/MultiSigWallet.sol\":3095:3113  approvedMap[_txId] */\n      dup2\n      mstore\n      0x20\n      add\n      swap1\n      dup2\n      mstore\n      0x20\n      add\n      0x00\n      keccak256\n        /* \"cuimianMaster/MultiSigWallet.sol\":3095:3124  approvedMap[_txId][owners[i]] */\n      0x00\n        /* \"cuimianMaster/MultiSigWallet.sol\":3114:3120  owners */\n      dup1\n        /* \"cuimianMaster/MultiSigWallet.sol\":3121:3122  i */\n      dup4\n        /* \"cuimianMaster/MultiSigWallet.sol\":3114:3123  owners[i] */\n      dup2\n      sload\n      dup2\n      lt\n      tag_155\n      jumpi\n      tag_156\n      tag_89\n      jump\t// in\n    tag_156:\n    tag_155:\n      swap1\n      0x00\n      mstore\n      keccak256(0x00, 0x20)\n      add\n      0x00\n      swap1\n      sload\n      swap1\n      0x0100\n      exp\n      swap1\n      div\n      0xffffffffffffffffffffffffffffffffffffffff\n      and\n        /* \"cuimianMaster/MultiSigWallet.sol\":3095:3124  approvedMap[_txId][owners[i]] */\n      0xffffffffffffffffffffffffffffffffffffffff\n      and\n      0xffffffffffffffffffffffffffffffffffffffff\n      and\n      dup2\n      mstore\n      0x20\n      add\n      swap1\n      dup2\n      mstore\n      0x20\n      add\n      0x00\n      keccak256\n      0x00\n      swap1\n      sload\n      swap1\n      0x0100\n      exp\n      swap1\n      div\n      0xff\n      and\n        /* \"cuimianMaster/MultiSigWallet.sol\":3091:3168  if (approvedMap[_txId][owners[i]]) {... */\n      iszero\n      tag_158\n      jumpi\n        /* \"cuimianMaster/MultiSigWallet.sol\":3145:3152  ++count */\n      dup2\n      tag_159\n      swap1\n      tag_160\n      jump\t// in\n    tag_159:\n      swap2\n      pop\n        /* \"cuimianMaster/MultiSigWallet.sol\":3091:3168  if (approvedMap[_txId][owners[i]]) {... */\n    tag_158:\n        /* \"cuimianMaster/MultiSigWallet.sol\":3071:3074  i++ */\n      dup1\n      dup1\n      tag_161\n      swap1\n      tag_160\n      jump\t// in\n    tag_161:\n      swap2\n      pop\n      pop\n        /* \"cuimianMaster/MultiSigWallet.sol\":3040:3179  for(uint i; i < owners.length; i++) {... */\n      jump(tag_152)\n    tag_153:\n      pop\n        /* \"cuimianMaster/MultiSigWallet.sol\":2956:3186  function _getApprovalCount(uint _txId) private view returns (uint count) {... */\n      swap2\n      swap1\n      pop\n      jump\t// out\n        /* \"#utility.yul\":7:84   */\n    tag_162:\n        /* \"#utility.yul\":44:51   */\n      0x00\n        /* \"#utility.yul\":73:78   */\n      dup2\n        /* \"#utility.yul\":62:78   */\n      swap1\n      pop\n        /* \"#utility.yul\":7:84   */\n      swap2\n      swap1\n      pop\n      jump\t// out\n        /* \"#utility.yul\":90:208   */\n    tag_163:\n        /* \"#utility.yul\":177:201   */\n      tag_221\n        /* \"#utility.yul\":195:200   */\n      dup2\n        /* \"#utility.yul\":177:201   */\n      tag_162\n      jump\t// in\n    tag_221:\n        /* \"#utility.yul\":172:175   */\n      dup3\n        /* \"#utility.yul\":165:202   */\n      mstore\n        /* \"#utility.yul\":90:208   */\n      pop\n      pop\n      jump\t// out\n        /* \"#utility.yul\":214:436   */\n    tag_16:\n        /* \"#utility.yul\":307:311   */\n      0x00\n        /* \"#utility.yul\":345:347   */\n      0x20\n        /* \"#utility.yul\":334:343   */\n      dup3\n        /* \"#utility.yul\":330:348   */\n      add\n        /* \"#utility.yul\":322:348   */\n      swap1\n      pop\n        /* \"#utility.yul\":358:429   */\n      tag_223\n        /* \"#utility.yul\":426:427   */\n      0x00\n        /* \"#utility.yul\":415:424   */\n      dup4\n        /* \"#utility.yul\":411:428   */\n      add\n        /* \"#utility.yul\":402:408   */\n      dup5\n        /* \"#utility.yul\":358:429   */\n      tag_163\n      jump\t// in\n    tag_223:\n        /* \"#utility.yul\":214:436   */\n      swap3\n      swap2\n      pop\n      pop\n      jump\t// out\n        /* \"#utility.yul\":523:640   */\n    tag_165:\n        /* \"#utility.yul\":632:633   */\n      0x00\n        /* \"#utility.yul\":629:630   */\n      dup1\n        /* \"#utility.yul\":622:634   */\n      revert\n        /* \"#utility.yul\":769:891   */\n    tag_167:\n        /* \"#utility.yul\":842:866   */\n      tag_228\n        /* \"#utility.yul\":860:865   */\n      dup2\n        /* \"#utility.yul\":842:866   */\n      tag_162\n      jump\t// in\n    tag_228:\n        /* \"#utility.yul\":835:840   */\n      dup2\n        /* \"#utility.yul\":832:867   */\n      eq\n        /* \"#utility.yul\":822:885   */\n      tag_229\n      jumpi\n        /* \"#utility.yul\":881:882   */\n      0x00\n        /* \"#utility.yul\":878:879   */\n      dup1\n        /* \"#utility.yul\":871:883   */\n      revert\n        /* \"#utility.yul\":822:885   */\n    tag_229:\n        /* \"#utility.yul\":769:891   */\n      pop\n      jump\t// out\n        /* \"#utility.yul\":897:1036   */\n    tag_168:\n        /* \"#utility.yul\":943:948   */\n      0x00\n        /* \"#utility.yul\":981:987   */\n      dup2\n        /* \"#utility.yul\":968:988   */\n      calldataload\n        /* \"#utility.yul\":959:988   */\n      swap1\n      pop\n        /* \"#utility.yul\":997:1030   */\n      tag_231\n        /* \"#utility.yul\":1024:1029   */\n      dup2\n        /* \"#utility.yul\":997:1030   */\n      tag_167\n      jump\t// in\n    tag_231:\n        /* \"#utility.yul\":897:1036   */\n      swap3\n      swap2\n      pop\n      pop\n      jump\t// out\n        /* \"#utility.yul\":1042:1371   */\n    tag_20:\n        /* \"#utility.yul\":1101:1107   */\n      0x00\n        /* \"#utility.yul\":1150:1152   */\n      0x20\n        /* \"#utility.yul\":1138:1147   */\n      dup3\n        /* \"#utility.yul\":1129:1136   */\n      dup5\n        /* \"#utility.yul\":1125:1148   */\n      sub\n        /* \"#utility.yul\":1121:1153   */\n      slt\n        /* \"#utility.yul\":1118:1237   */\n      iszero\n      tag_233\n      jumpi\n        /* \"#utility.yul\":1156:1235   */\n      tag_234\n      tag_165\n      jump\t// in\n    tag_234:\n        /* \"#utility.yul\":1118:1237   */\n    tag_233:\n        /* \"#utility.yul\":1276:1277   */\n      0x00\n        /* \"#utility.yul\":1301:1354   */\n      tag_235\n        /* \"#utility.yul\":1346:1353   */\n      dup5\n        /* \"#utility.yul\":1337:1343   */\n      dup3\n        /* \"#utility.yul\":1326:1335   */\n      dup6\n        /* \"#utility.yul\":1322:1344   */\n      add\n        /* \"#utility.yul\":1301:1354   */\n      tag_168\n      jump\t// in\n    tag_235:\n        /* \"#utility.yul\":1291:1354   */\n      swap2\n      pop\n        /* \"#utility.yul\":1247:1364   */\n      pop\n        /* \"#utility.yul\":1042:1371   */\n      swap3\n      swap2\n      pop\n      pop\n      jump\t// out\n        /* \"#utility.yul\":1377:1503   */\n    tag_169:\n        /* \"#utility.yul\":1414:1421   */\n      0x00\n        /* \"#utility.yul\":1454:1496   */\n      0xffffffffffffffffffffffffffffffffffffffff\n        /* \"#utility.yul\":1447:1452   */\n      dup3\n        /* \"#utility.yul\":1443:1497   */\n      and\n        /* \"#utility.yul\":1432:1497   */\n      swap1\n      pop\n        /* \"#utility.yul\":1377:1503   */\n      swap2\n      swap1\n      pop\n      jump\t// out\n        /* \"#utility.yul\":1509:1605   */\n    tag_170:\n        /* \"#utility.yul\":1546:1553   */\n      0x00\n        /* \"#utility.yul\":1575:1599   */\n      tag_238\n        /* \"#utility.yul\":1593:1598   */\n      dup3\n        /* \"#utility.yul\":1575:1599   */\n      tag_169\n      jump\t// in\n    tag_238:\n        /* \"#utility.yul\":1564:1599   */\n      swap1\n      pop\n        /* \"#utility.yul\":1509:1605   */\n      swap2\n      swap1\n      pop\n      jump\t// out\n        /* \"#utility.yul\":1611:1729   */\n    tag_171:\n        /* \"#utility.yul\":1698:1722   */\n      tag_240\n        /* \"#utility.yul\":1716:1721   */\n      dup2\n        /* \"#utility.yul\":1698:1722   */\n      tag_170\n      jump\t// in\n    tag_240:\n        /* \"#utility.yul\":1693:1696   */\n      dup3\n        /* \"#utility.yul\":1686:1723   */\n      mstore\n        /* \"#utility.yul\":1611:1729   */\n      pop\n      pop\n      jump\t// out\n        /* \"#utility.yul\":1735:1957   */\n    tag_23:\n        /* \"#utility.yul\":1828:1832   */\n      0x00\n        /* \"#utility.yul\":1866:1868   */\n      0x20\n        /* \"#utility.yul\":1855:1864   */\n      dup3\n        /* \"#utility.yul\":1851:1869   */\n      add\n        /* \"#utility.yul\":1843:1869   */\n      swap1\n      pop\n        /* \"#utility.yul\":1879:1950   */\n      tag_242\n        /* \"#utility.yul\":1947:1948   */\n      0x00\n        /* \"#utility.yul\":1936:1945   */\n      dup4\n        /* \"#utility.yul\":1932:1949   */\n      add\n        /* \"#utility.yul\":1923:1929   */\n      dup5\n        /* \"#utility.yul\":1879:1950   */\n      tag_171\n      jump\t// in\n    tag_242:\n        /* \"#utility.yul\":1735:1957   */\n      swap3\n      swap2\n      pop\n      pop\n      jump\t// out\n        /* \"#utility.yul\":1963:2085   */\n    tag_172:\n        /* \"#utility.yul\":2036:2060   */\n      tag_244\n        /* \"#utility.yul\":2054:2059   */\n      dup2\n        /* \"#utility.yul\":2036:2060   */\n      tag_170\n      jump\t// in\n    tag_244:\n        /* \"#utility.yul\":2029:2034   */\n      dup2\n        /* \"#utility.yul\":2026:2061   */\n      eq\n        /* \"#utility.yul\":2016:2079   */\n      tag_245\n      jumpi\n        /* \"#utility.yul\":2075:2076   */\n      0x00\n        /* \"#utility.yul\":2072:2073   */\n      dup1\n        /* \"#utility.yul\":2065:2077   */\n      revert\n        /* \"#utility.yul\":2016:2079   */\n    tag_245:\n        /* \"#utility.yul\":1963:2085   */\n      pop\n      jump\t// out\n        /* \"#utility.yul\":2091:2230   */\n    tag_173:\n        /* \"#utility.yul\":2137:2142   */\n      0x00\n        /* \"#utility.yul\":2175:2181   */\n      dup2\n        /* \"#utility.yul\":2162:2182   */\n      calldataload\n        /* \"#utility.yul\":2153:2182   */\n      swap1\n      pop\n        /* \"#utility.yul\":2191:2224   */\n      tag_247\n        /* \"#utility.yul\":2218:2223   */\n      dup2\n        /* \"#utility.yul\":2191:2224   */\n      tag_172\n      jump\t// in\n    tag_247:\n        /* \"#utility.yul\":2091:2230   */\n      swap3\n      swap2\n      pop\n      pop\n      jump\t// out\n        /* \"#utility.yul\":2236:2710   */\n    tag_27:\n        /* \"#utility.yul\":2304:2310   */\n      0x00\n        /* \"#utility.yul\":2312:2318   */\n      dup1\n        /* \"#utility.yul\":2361:2363   */\n      0x40\n        /* \"#utility.yul\":2349:2358   */\n      dup4\n        /* \"#utility.yul\":2340:2347   */\n      dup6\n        /* \"#utility.yul\":2336:2359   */\n      sub\n        /* \"#utility.yul\":2332:2364   */\n      slt\n        /* \"#utility.yul\":2329:2448   */\n      iszero\n      tag_249\n      jumpi\n        /* \"#utility.yul\":2367:2446   */\n      tag_250\n      tag_165\n      jump\t// in\n    tag_250:\n        /* \"#utility.yul\":2329:2448   */\n    tag_249:\n        /* \"#utility.yul\":2487:2488   */\n      0x00\n        /* \"#utility.yul\":2512:2565   */\n      tag_251\n        /* \"#utility.yul\":2557:2564   */\n      dup6\n        /* \"#utility.yul\":2548:2554   */\n      dup3\n        /* \"#utility.yul\":2537:2546   */\n      dup7\n        /* \"#utility.yul\":2533:2555   */\n      add\n        /* \"#utility.yul\":2512:2565   */\n      tag_168\n      jump\t// in\n    tag_251:\n        /* \"#utility.yul\":2502:2565   */\n      swap3\n      pop\n        /* \"#utility.yul\":2458:2575   */\n      pop\n        /* \"#utility.yul\":2614:2616   */\n      0x20\n        /* \"#utility.yul\":2640:2693   */\n      tag_252\n        /* \"#utility.yul\":2685:2692   */\n      dup6\n        /* \"#utility.yul\":2676:2682   */\n      dup3\n        /* \"#utility.yul\":2665:2674   */\n      dup7\n        /* \"#utility.yul\":2661:2683   */\n      add\n        /* \"#utility.yul\":2640:2693   */\n      tag_173\n      jump\t// in\n    tag_252:\n        /* \"#utility.yul\":2630:2693   */\n      swap2\n      pop\n        /* \"#utility.yul\":2585:2703   */\n      pop\n        /* \"#utility.yul\":2236:2710   */\n      swap3\n      pop\n      swap3\n      swap1\n      pop\n      jump\t// out\n        /* \"#utility.yul\":2716:2806   */\n    tag_174:\n        /* \"#utility.yul\":2750:2757   */\n      0x00\n        /* \"#utility.yul\":2793:2798   */\n      dup2\n        /* \"#utility.yul\":2786:2799   */\n      iszero\n        /* \"#utility.yul\":2779:2800   */\n      iszero\n        /* \"#utility.yul\":2768:2800   */\n      swap1\n      pop\n        /* \"#utility.yul\":2716:2806   */\n      swap2\n      swap1\n      pop\n      jump\t// out\n        /* \"#utility.yul\":2812:2921   */\n    tag_175:\n        /* \"#utility.yul\":2893:2914   */\n      tag_255\n        /* \"#utility.yul\":2908:2913   */\n      dup2\n        /* \"#utility.yul\":2893:2914   */\n      tag_174\n      jump\t// in\n    tag_255:\n        /* \"#utility.yul\":2888:2891   */\n      dup3\n        /* \"#utility.yul\":2881:2915   */\n      mstore\n        /* \"#utility.yul\":2812:2921   */\n      pop\n      pop\n      jump\t// out\n        /* \"#utility.yul\":2927:3137   */\n    tag_30:\n        /* \"#utility.yul\":3014:3018   */\n      0x00\n        /* \"#utility.yul\":3052:3054   */\n      0x20\n        /* \"#utility.yul\":3041:3050   */\n      dup3\n        /* \"#utility.yul\":3037:3055   */\n      add\n        /* \"#utility.yul\":3029:3055   */\n      swap1\n      pop\n        /* \"#utility.yul\":3065:3130   */\n      tag_257\n        /* \"#utility.yul\":3127:3128   */\n      0x00\n        /* \"#utility.yul\":3116:3125   */\n      dup4\n        /* \"#utility.yul\":3112:3129   */\n      add\n        /* \"#utility.yul\":3103:3109   */\n      dup5\n        /* \"#utility.yul\":3065:3130   */\n      tag_175\n      jump\t// in\n    tag_257:\n        /* \"#utility.yul\":2927:3137   */\n      swap3\n      swap2\n      pop\n      pop\n      jump\t// out\n        /* \"#utility.yul\":3143:3617   */\n    tag_34:\n        /* \"#utility.yul\":3211:3217   */\n      0x00\n        /* \"#utility.yul\":3219:3225   */\n      dup1\n        /* \"#utility.yul\":3268:3270   */\n      0x40\n        /* \"#utility.yul\":3256:3265   */\n      dup4\n        /* \"#utility.yul\":3247:3254   */\n      dup6\n        /* \"#utility.yul\":3243:3266   */\n      sub\n        /* \"#utility.yul\":3239:3271   */\n      slt\n        /* \"#utility.yul\":3236:3355   */\n      iszero\n      tag_259\n      jumpi\n        /* \"#utility.yul\":3274:3353   */\n      tag_260\n      tag_165\n      jump\t// in\n    tag_260:\n        /* \"#utility.yul\":3236:3355   */\n    tag_259:\n        /* \"#utility.yul\":3394:3395   */\n      0x00\n        /* \"#utility.yul\":3419:3472   */\n      tag_261\n        /* \"#utility.yul\":3464:3471   */\n      dup6\n        /* \"#utility.yul\":3455:3461   */\n      dup3\n        /* \"#utility.yul\":3444:3453   */\n      dup7\n        /* \"#utility.yul\":3440:3462   */\n      add\n        /* \"#utility.yul\":3419:3472   */\n      tag_173\n      jump\t// in\n    tag_261:\n        /* \"#utility.yul\":3409:3472   */\n      swap3\n      pop\n        /* \"#utility.yul\":3365:3482   */\n      pop\n        /* \"#utility.yul\":3521:3523   */\n      0x20\n        /* \"#utility.yul\":3547:3600   */\n      tag_262\n        /* \"#utility.yul\":3592:3599   */\n      dup6\n        /* \"#utility.yul\":3583:3589   */\n      dup3\n        /* \"#utility.yul\":3572:3581   */\n      dup7\n        /* \"#utility.yul\":3568:3590   */\n      add\n        /* \"#utility.yul\":3547:3600   */\n      tag_168\n      jump\t// in\n    tag_262:\n        /* \"#utility.yul\":3537:3600   */\n      swap2\n      pop\n        /* \"#utility.yul\":3492:3610   */\n      pop\n        /* \"#utility.yul\":3143:3617   */\n      swap3\n      pop\n      swap3\n      swap1\n      pop\n      jump\t// out\n        /* \"#utility.yul\":3623:3952   */\n    tag_43:\n        /* \"#utility.yul\":3682:3688   */\n      0x00\n        /* \"#utility.yul\":3731:3733   */\n      0x20\n        /* \"#utility.yul\":3719:3728   */\n      dup3\n        /* \"#utility.yul\":3710:3717   */\n      dup5\n        /* \"#utility.yul\":3706:3729   */\n      sub\n        /* \"#utility.yul\":3702:3734   */\n      slt\n        /* \"#utility.yul\":3699:3818   */\n      iszero\n      tag_264\n      jumpi\n        /* \"#utility.yul\":3737:3816   */\n      tag_265\n      tag_165\n      jump\t// in\n    tag_265:\n        /* \"#utility.yul\":3699:3818   */\n    tag_264:\n        /* \"#utility.yul\":3857:3858   */\n      0x00\n        /* \"#utility.yul\":3882:3935   */\n      tag_266\n        /* \"#utility.yul\":3927:3934   */\n      dup5\n        /* \"#utility.yul\":3918:3924   */\n      dup3\n        /* \"#utility.yul\":3907:3916   */\n      dup6\n        /* \"#utility.yul\":3903:3925   */\n      add\n        /* \"#utility.yul\":3882:3935   */\n      tag_173\n      jump\t// in\n    tag_266:\n        /* \"#utility.yul\":3872:3935   */\n      swap2\n      pop\n        /* \"#utility.yul\":3828:3945   */\n      pop\n        /* \"#utility.yul\":3623:3952   */\n      swap3\n      swap2\n      pop\n      pop\n      jump\t// out\n        /* \"#utility.yul\":3958:4056   */\n    tag_176:\n        /* \"#utility.yul\":4009:4015   */\n      0x00\n        /* \"#utility.yul\":4043:4048   */\n      dup2\n        /* \"#utility.yul\":4037:4049   */\n      mload\n        /* \"#utility.yul\":4027:4049   */\n      swap1\n      pop\n        /* \"#utility.yul\":3958:4056   */\n      swap2\n      swap1\n      pop\n      jump\t// out\n        /* \"#utility.yul\":4062:4230   */\n    tag_177:\n        /* \"#utility.yul\":4145:4156   */\n      0x00\n        /* \"#utility.yul\":4179:4185   */\n      dup3\n        /* \"#utility.yul\":4174:4177   */\n      dup3\n        /* \"#utility.yul\":4167:4186   */\n      mstore\n        /* \"#utility.yul\":4219:4223   */\n      0x20\n        /* \"#utility.yul\":4214:4217   */\n      dup3\n        /* \"#utility.yul\":4210:4224   */\n      add\n        /* \"#utility.yul\":4195:4224   */\n      swap1\n      pop\n        /* \"#utility.yul\":4062:4230   */\n      swap3\n      swap2\n      pop\n      pop\n      jump\t// out\n        /* \"#utility.yul\":4236:4482   */\n    tag_178:\n        /* \"#utility.yul\":4317:4318   */\n      0x00\n        /* \"#utility.yul\":4327:4440   */\n    tag_270:\n        /* \"#utility.yul\":4341:4347   */\n      dup4\n        /* \"#utility.yul\":4338:4339   */\n      dup2\n        /* \"#utility.yul\":4335:4348   */\n      lt\n        /* \"#utility.yul\":4327:4440   */\n      iszero\n      tag_272\n      jumpi\n        /* \"#utility.yul\":4426:4427   */\n      dup1\n        /* \"#utility.yul\":4421:4424   */\n      dup3\n        /* \"#utility.yul\":4417:4428   */\n      add\n        /* \"#utility.yul\":4411:4429   */\n      mload\n        /* \"#utility.yul\":4407:4408   */\n      dup2\n        /* \"#utility.yul\":4402:4405   */\n      dup5\n        /* \"#utility.yul\":4398:4409   */\n      add\n        /* \"#utility.yul\":4391:4430   */\n      mstore\n        /* \"#utility.yul\":4363:4365   */\n      0x20\n        /* \"#utility.yul\":4360:4361   */\n      dup2\n        /* \"#utility.yul\":4356:4366   */\n      add\n        /* \"#utility.yul\":4351:4366   */\n      swap1\n      pop\n        /* \"#utility.yul\":4327:4440   */\n      jump(tag_270)\n    tag_272:\n        /* \"#utility.yul\":4474:4475   */\n      0x00\n        /* \"#utility.yul\":4465:4471   */\n      dup5\n        /* \"#utility.yul\":4460:4463   */\n      dup5\n        /* \"#utility.yul\":4456:4472   */\n      add\n        /* \"#utility.yul\":4449:4476   */\n      mstore\n        /* \"#utility.yul\":4298:4482   */\n      pop\n        /* \"#utility.yul\":4236:4482   */\n      pop\n      pop\n      pop\n      jump\t// out\n        /* \"#utility.yul\":4488:4590   */\n    tag_179:\n        /* \"#utility.yul\":4529:4535   */\n      0x00\n        /* \"#utility.yul\":4580:4582   */\n      0x1f\n        /* \"#utility.yul\":4576:4583   */\n      not\n        /* \"#utility.yul\":4571:4573   */\n      0x1f\n        /* \"#utility.yul\":4564:4569   */\n      dup4\n        /* \"#utility.yul\":4560:4574   */\n      add\n        /* \"#utility.yul\":4556:4584   */\n      and\n        /* \"#utility.yul\":4546:4584   */\n      swap1\n      pop\n        /* \"#utility.yul\":4488:4590   */\n      swap2\n      swap1\n      pop\n      jump\t// out\n        /* \"#utility.yul\":4596:4969   */\n    tag_180:\n        /* \"#utility.yul\":4682:4685   */\n      0x00\n        /* \"#utility.yul\":4710:4748   */\n      tag_275\n        /* \"#utility.yul\":4742:4747   */\n      dup3\n        /* \"#utility.yul\":4710:4748   */\n      tag_176\n      jump\t// in\n    tag_275:\n        /* \"#utility.yul\":4764:4834   */\n      tag_276\n        /* \"#utility.yul\":4827:4833   */\n      dup2\n        /* \"#utility.yul\":4822:4825   */\n      dup6\n        /* \"#utility.yul\":4764:4834   */\n      tag_177\n      jump\t// in\n    tag_276:\n        /* \"#utility.yul\":4757:4834   */\n      swap4\n      pop\n        /* \"#utility.yul\":4843:4908   */\n      tag_277\n        /* \"#utility.yul\":4901:4907   */\n      dup2\n        /* \"#utility.yul\":4896:4899   */\n      dup6\n        /* \"#utility.yul\":4889:4893   */\n      0x20\n        /* \"#utility.yul\":4882:4887   */\n      dup7\n        /* \"#utility.yul\":4878:4894   */\n      add\n        /* \"#utility.yul\":4843:4908   */\n      tag_178\n      jump\t// in\n    tag_277:\n        /* \"#utility.yul\":4933:4962   */\n      tag_278\n        /* \"#utility.yul\":4955:4961   */\n      dup2\n        /* \"#utility.yul\":4933:4962   */\n      tag_179\n      jump\t// in\n    tag_278:\n        /* \"#utility.yul\":4928:4931   */\n      dup5\n        /* \"#utility.yul\":4924:4963   */\n      add\n        /* \"#utility.yul\":4917:4963   */\n      swap2\n      pop\n        /* \"#utility.yul\":4686:4969   */\n      pop\n        /* \"#utility.yul\":4596:4969   */\n      swap3\n      swap2\n      pop\n      pop\n      jump\t// out\n        /* \"#utility.yul\":4975:5603   */\n    tag_51:\n        /* \"#utility.yul\":5164:5168   */\n      0x00\n        /* \"#utility.yul\":5202:5205   */\n      0x80\n        /* \"#utility.yul\":5191:5200   */\n      dup3\n        /* \"#utility.yul\":5187:5206   */\n      add\n        /* \"#utility.yul\":5179:5206   */\n      swap1\n      pop\n        /* \"#utility.yul\":5216:5287   */\n      tag_280\n        /* \"#utility.yul\":5284:5285   */\n      0x00\n        /* \"#utility.yul\":5273:5282   */\n      dup4\n        /* \"#utility.yul\":5269:5286   */\n      add\n        /* \"#utility.yul\":5260:5266   */\n      dup8\n        /* \"#utility.yul\":5216:5287   */\n      tag_171\n      jump\t// in\n    tag_280:\n        /* \"#utility.yul\":5297:5369   */\n      tag_281\n        /* \"#utility.yul\":5365:5367   */\n      0x20\n        /* \"#utility.yul\":5354:5363   */\n      dup4\n        /* \"#utility.yul\":5350:5368   */\n      add\n        /* \"#utility.yul\":5341:5347   */\n      dup7\n        /* \"#utility.yul\":5297:5369   */\n      tag_163\n      jump\t// in\n    tag_281:\n        /* \"#utility.yul\":5416:5425   */\n      dup2\n        /* \"#utility.yul\":5410:5414   */\n      dup2\n        /* \"#utility.yul\":5406:5426   */\n      sub\n        /* \"#utility.yul\":5401:5403   */\n      0x40\n        /* \"#utility.yul\":5390:5399   */\n      dup4\n        /* \"#utility.yul\":5386:5404   */\n      add\n        /* \"#utility.yul\":5379:5427   */\n      mstore\n        /* \"#utility.yul\":5444:5520   */\n      tag_282\n        /* \"#utility.yul\":5515:5519   */\n      dup2\n        /* \"#utility.yul\":5506:5512   */\n      dup6\n        /* \"#utility.yul\":5444:5520   */\n      tag_180\n      jump\t// in\n    tag_282:\n        /* \"#utility.yul\":5436:5520   */\n      swap1\n      pop\n        /* \"#utility.yul\":5530:5596   */\n      tag_283\n        /* \"#utility.yul\":5592:5594   */\n      0x60\n        /* \"#utility.yul\":5581:5590   */\n      dup4\n        /* \"#utility.yul\":5577:5595   */\n      add\n        /* \"#utility.yul\":5568:5574   */\n      dup5\n        /* \"#utility.yul\":5530:5596   */\n      tag_175\n      jump\t// in\n    tag_283:\n        /* \"#utility.yul\":4975:5603   */\n      swap6\n      swap5\n      pop\n      pop\n      pop\n      pop\n      pop\n      jump\t// out\n        /* \"#utility.yul\":5609:5778   */\n    tag_181:\n        /* \"#utility.yul\":5693:5704   */\n      0x00\n        /* \"#utility.yul\":5727:5733   */\n      dup3\n        /* \"#utility.yul\":5722:5725   */\n      dup3\n        /* \"#utility.yul\":5715:5734   */\n      mstore\n        /* \"#utility.yul\":5767:5771   */\n      0x20\n        /* \"#utility.yul\":5762:5765   */\n      dup3\n        /* \"#utility.yul\":5758:5772   */\n      add\n        /* \"#utility.yul\":5743:5772   */\n      swap1\n      pop\n        /* \"#utility.yul\":5609:5778   */\n      swap3\n      swap2\n      pop\n      pop\n      jump\t// out\n        /* \"#utility.yul\":5784:6004   */\n    tag_182:\n        /* \"#utility.yul\":5924:5958   */\n      0x6f6e6c79206f776e65722063616e207375626d6974207472616e73616374696f\n        /* \"#utility.yul\":5920:5921   */\n      0x00\n        /* \"#utility.yul\":5912:5918   */\n      dup3\n        /* \"#utility.yul\":5908:5922   */\n      add\n        /* \"#utility.yul\":5901:5959   */\n      mstore\n        /* \"#utility.yul\":5993:5996   */\n      0x6e00000000000000000000000000000000000000000000000000000000000000\n        /* \"#utility.yul\":5988:5990   */\n      0x20\n        /* \"#utility.yul\":5980:5986   */\n      dup3\n        /* \"#utility.yul\":5976:5991   */\n      add\n        /* \"#utility.yul\":5969:5997   */\n      mstore\n        /* \"#utility.yul\":5784:6004   */\n      pop\n      jump\t// out\n        /* \"#utility.yul\":6010:6376   */\n    tag_183:\n        /* \"#utility.yul\":6152:6155   */\n      0x00\n        /* \"#utility.yul\":6173:6240   */\n      tag_287\n        /* \"#utility.yul\":6237:6239   */\n      0x21\n        /* \"#utility.yul\":6232:6235   */\n      dup4\n        /* \"#utility.yul\":6173:6240   */\n      tag_181\n      jump\t// in\n    tag_287:\n        /* \"#utility.yul\":6166:6240   */\n      swap2\n      pop\n        /* \"#utility.yul\":6249:6342   */\n      tag_288\n        /* \"#utility.yul\":6338:6341   */\n      dup3\n        /* \"#utility.yul\":6249:6342   */\n      tag_182\n      jump\t// in\n    tag_288:\n        /* \"#utility.yul\":6367:6369   */\n      0x40\n        /* \"#utility.yul\":6362:6365   */\n      dup3\n        /* \"#utility.yul\":6358:6370   */\n      add\n        /* \"#utility.yul\":6351:6370   */\n      swap1\n      pop\n        /* \"#utility.yul\":6010:6376   */\n      swap2\n      swap1\n      pop\n      jump\t// out\n        /* \"#utility.yul\":6382:6801   */\n    tag_69:\n        /* \"#utility.yul\":6548:6552   */\n      0x00\n        /* \"#utility.yul\":6586:6588   */\n      0x20\n        /* \"#utility.yul\":6575:6584   */\n      dup3\n        /* \"#utility.yul\":6571:6589   */\n      add\n        /* \"#utility.yul\":6563:6589   */\n      swap1\n      pop\n        /* \"#utility.yul\":6635:6644   */\n      dup2\n        /* \"#utility.yul\":6629:6633   */\n      dup2\n        /* \"#utility.yul\":6625:6645   */\n      sub\n        /* \"#utility.yul\":6621:6622   */\n      0x00\n        /* \"#utility.yul\":6610:6619   */\n      dup4\n        /* \"#utility.yul\":6606:6623   */\n      add\n        /* \"#utility.yul\":6599:6646   */\n      mstore\n        /* \"#utility.yul\":6663:6794   */\n      tag_290\n        /* \"#utility.yul\":6789:6793   */\n      dup2\n        /* \"#utility.yul\":6663:6794   */\n      tag_183\n      jump\t// in\n    tag_290:\n        /* \"#utility.yul\":6655:6794   */\n      swap1\n      pop\n        /* \"#utility.yul\":6382:6801   */\n      swap2\n      swap1\n      pop\n      jump\t// out\n        /* \"#utility.yul\":6807:6961   */\n    tag_184:\n        /* \"#utility.yul\":6947:6953   */\n      0x6861686100000000000000000000000000000000000000000000000000000000\n        /* \"#utility.yul\":6943:6944   */\n      0x00\n        /* \"#utility.yul\":6935:6941   */\n      dup3\n        /* \"#utility.yul\":6931:6945   */\n      add\n        /* \"#utility.yul\":6924:6954   */\n      mstore\n        /* \"#utility.yul\":6807:6961   */\n      pop\n      jump\t// out\n        /* \"#utility.yul\":6967:7332   */\n    tag_185:\n        /* \"#utility.yul\":7109:7112   */\n      0x00\n        /* \"#utility.yul\":7130:7196   */\n      tag_293\n        /* \"#utility.yul\":7194:7195   */\n      0x04\n        /* \"#utility.yul\":7189:7192   */\n      dup4\n        /* \"#utility.yul\":7130:7196   */\n      tag_181\n      jump\t// in\n    tag_293:\n        /* \"#utility.yul\":7123:7196   */\n      swap2\n      pop\n        /* \"#utility.yul\":7205:7298   */\n      tag_294\n        /* \"#utility.yul\":7294:7297   */\n      dup3\n        /* \"#utility.yul\":7205:7298   */\n      tag_184\n      jump\t// in\n    tag_294:\n        /* \"#utility.yul\":7323:7325   */\n      0x20\n        /* \"#utility.yul\":7318:7321   */\n      dup3\n        /* \"#utility.yul\":7314:7326   */\n      add\n        /* \"#utility.yul\":7307:7326   */\n      swap1\n      pop\n        /* \"#utility.yul\":6967:7332   */\n      swap2\n      swap1\n      pop\n      jump\t// out\n        /* \"#utility.yul\":7338:7757   */\n    tag_72:\n        /* \"#utility.yul\":7504:7508   */\n      0x00\n        /* \"#utility.yul\":7542:7544   */\n      0x20\n        /* \"#utility.yul\":7531:7540   */\n      dup3\n        /* \"#utility.yul\":7527:7545   */\n      add\n        /* \"#utility.yul\":7519:7545   */\n      swap1\n      pop\n        /* \"#utility.yul\":7591:7600   */\n      dup2\n        /* \"#utility.yul\":7585:7589   */\n      dup2\n        /* \"#utility.yul\":7581:7601   */\n      sub\n        /* \"#utility.yul\":7577:7578   */\n      0x00\n        /* \"#utility.yul\":7566:7575   */\n      dup4\n        /* \"#utility.yul\":7562:7579   */\n      add\n        /* \"#utility.yul\":7555:7602   */\n      mstore\n        /* \"#utility.yul\":7619:7750   */\n      tag_296\n        /* \"#utility.yul\":7745:7749   */\n      dup2\n        /* \"#utility.yul\":7619:7750   */\n      tag_185\n      jump\t// in\n    tag_296:\n        /* \"#utility.yul\":7611:7750   */\n      swap1\n      pop\n        /* \"#utility.yul\":7338:7757   */\n      swap2\n      swap1\n      pop\n      jump\t// out\n        /* \"#utility.yul\":7763:7943   */\n    tag_186:\n        /* \"#utility.yul\":7811:7888   */\n      0x4e487b7100000000000000000000000000000000000000000000000000000000\n        /* \"#utility.yul\":7808:7809   */\n      0x00\n        /* \"#utility.yul\":7801:7889   */\n      mstore\n        /* \"#utility.yul\":7908:7912   */\n      0x41\n        /* \"#utility.yul\":7905:7906   */\n      0x04\n        /* \"#utility.yul\":7898:7913   */\n      mstore\n        /* \"#utility.yul\":7932:7936   */\n      0x24\n        /* \"#utility.yul\":7929:7930   */\n      0x00\n        /* \"#utility.yul\":7922:7937   */\n      revert\n        /* \"#utility.yul\":7949:8129   */\n    tag_187:\n        /* \"#utility.yul\":7997:8074   */\n      0x4e487b7100000000000000000000000000000000000000000000000000000000\n        /* \"#utility.yul\":7994:7995   */\n      0x00\n        /* \"#utility.yul\":7987:8075   */\n      mstore\n        /* \"#utility.yul\":8094:8098   */\n      0x22\n        /* \"#utility.yul\":8091:8092   */\n      0x04\n        /* \"#utility.yul\":8084:8099   */\n      mstore\n        /* \"#utility.yul\":8118:8122   */\n      0x24\n        /* \"#utility.yul\":8115:8116   */\n      0x00\n        /* \"#utility.yul\":8108:8123   */\n      revert\n        /* \"#utility.yul\":8135:8455   */\n    tag_101:\n        /* \"#utility.yul\":8179:8185   */\n      0x00\n        /* \"#utility.yul\":8216:8217   */\n      0x02\n        /* \"#utility.yul\":8210:8214   */\n      dup3\n        /* \"#utility.yul\":8206:8218   */\n      div\n        /* \"#utility.yul\":8196:8218   */\n      swap1\n      pop\n        /* \"#utility.yul\":8263:8264   */\n      0x01\n        /* \"#utility.yul\":8257:8261   */\n      dup3\n        /* \"#utility.yul\":8253:8265   */\n      and\n        /* \"#utility.yul\":8284:8302   */\n      dup1\n        /* \"#utility.yul\":8274:8355   */\n      tag_300\n      jumpi\n        /* \"#utility.yul\":8340:8344   */\n      0x7f\n        /* \"#utility.yul\":8332:8338   */\n      dup3\n        /* \"#utility.yul\":8328:8345   */\n      and\n        /* \"#utility.yul\":8318:8345   */\n      swap2\n      pop\n        /* \"#utility.yul\":8274:8355   */\n    tag_300:\n        /* \"#utility.yul\":8402:8404   */\n      0x20\n        /* \"#utility.yul\":8394:8400   */\n      dup3\n        /* \"#utility.yul\":8391:8405   */\n      lt\n        /* \"#utility.yul\":8371:8389   */\n      dup2\n        /* \"#utility.yul\":8368:8406   */\n      sub\n        /* \"#utility.yul\":8365:8449   */\n      tag_301\n      jumpi\n        /* \"#utility.yul\":8421:8439   */\n      tag_302\n      tag_187\n      jump\t// in\n    tag_302:\n        /* \"#utility.yul\":8365:8449   */\n    tag_301:\n        /* \"#utility.yul\":8186:8455   */\n      pop\n        /* \"#utility.yul\":8135:8455   */\n      swap2\n      swap1\n      pop\n      jump\t// out\n        /* \"#utility.yul\":8461:8601   */\n    tag_188:\n        /* \"#utility.yul\":8509:8513   */\n      0x00\n        /* \"#utility.yul\":8532:8535   */\n      dup2\n        /* \"#utility.yul\":8524:8535   */\n      swap1\n      pop\n        /* \"#utility.yul\":8555:8558   */\n      dup2\n        /* \"#utility.yul\":8552:8553   */\n      0x00\n        /* \"#utility.yul\":8545:8559   */\n      mstore\n        /* \"#utility.yul\":8589:8593   */\n      0x20\n        /* \"#utility.yul\":8586:8587   */\n      0x00\n        /* \"#utility.yul\":8576:8594   */\n      keccak256\n        /* \"#utility.yul\":8568:8594   */\n      swap1\n      pop\n        /* \"#utility.yul\":8461:8601   */\n      swap2\n      swap1\n      pop\n      jump\t// out\n        /* \"#utility.yul\":8607:8700   */\n    tag_189:\n        /* \"#utility.yul\":8644:8650   */\n      0x00\n        /* \"#utility.yul\":8691:8693   */\n      0x20\n        /* \"#utility.yul\":8686:8688   */\n      0x1f\n        /* \"#utility.yul\":8679:8684   */\n      dup4\n        /* \"#utility.yul\":8675:8689   */\n      add\n        /* \"#utility.yul\":8671:8694   */\n      div\n        /* \"#utility.yul\":8661:8694   */\n      swap1\n      pop\n        /* \"#utility.yul\":8607:8700   */\n      swap2\n      swap1\n      pop\n      jump\t// out\n        /* \"#utility.yul\":8706:8813   */\n    tag_190:\n        /* \"#utility.yul\":8750:8758   */\n      0x00\n        /* \"#utility.yul\":8800:8805   */\n      dup3\n        /* \"#utility.yul\":8794:8798   */\n      dup3\n        /* \"#utility.yul\":8790:8806   */\n      shl\n        /* \"#utility.yul\":8769:8806   */\n      swap1\n      pop\n        /* \"#utility.yul\":8706:8813   */\n      swap3\n      swap2\n      pop\n      pop\n      jump\t// out\n        /* \"#utility.yul\":8819:9212   */\n    tag_191:\n        /* \"#utility.yul\":8888:8894   */\n      0x00\n        /* \"#utility.yul\":8938:8939   */\n      0x08\n        /* \"#utility.yul\":8926:8936   */\n      dup4\n        /* \"#utility.yul\":8922:8940   */\n      mul\n        /* \"#utility.yul\":8961:9058   */\n      tag_307\n        /* \"#utility.yul\":8991:9057   */\n      0xffffffffffffffffffffffffffffffffffffffffffffffffffffffffffffffff\n        /* \"#utility.yul\":8980:8989   */\n      dup3\n        /* \"#utility.yul\":8961:9058   */\n      tag_190\n      jump\t// in\n    tag_307:\n        /* \"#utility.yul\":9079:9118   */\n      tag_308\n        /* \"#utility.yul\":9109:9117   */\n      dup7\n        /* \"#utility.yul\":9098:9107   */\n      dup4\n        /* \"#utility.yul\":9079:9118   */\n      tag_190\n      jump\t// in\n    tag_308:\n        /* \"#utility.yul\":9067:9118   */\n      swap6\n      pop\n        /* \"#utility.yul\":9151:9155   */\n      dup1\n        /* \"#utility.yul\":9147:9156   */\n      not\n        /* \"#utility.yul\":9140:9145   */\n      dup5\n        /* \"#utility.yul\":9136:9157   */\n      and\n        /* \"#utility.yul\":9127:9157   */\n      swap4\n      pop\n        /* \"#utility.yul\":9200:9204   */\n      dup1\n        /* \"#utility.yul\":9190:9198   */\n      dup7\n        /* \"#utility.yul\":9186:9205   */\n      and\n        /* \"#utility.yul\":9179:9184   */\n      dup5\n        /* \"#utility.yul\":9176:9206   */\n      or\n        /* \"#utility.yul\":9166:9206   */\n      swap3\n      pop\n        /* \"#utility.yul\":8895:9212   */\n      pop\n      pop\n        /* \"#utility.yul\":8819:9212   */\n      swap4\n      swap3\n      pop\n      pop\n      pop\n      jump\t// out\n        /* \"#utility.yul\":9218:9278   */\n    tag_192:\n        /* \"#utility.yul\":9246:9249   */\n      0x00\n        /* \"#utility.yul\":9267:9272   */\n      dup2\n        /* \"#utility.yul\":9260:9272   */\n      swap1\n      pop\n        /* \"#utility.yul\":9218:9278   */\n      swap2\n      swap1\n      pop\n      jump\t// out\n        /* \"#utility.yul\":9284:9426   */\n    tag_193:\n        /* \"#utility.yul\":9334:9343   */\n      0x00\n        /* \"#utility.yul\":9367:9420   */\n      tag_311\n        /* \"#utility.yul\":9385:9419   */\n      tag_312\n        /* \"#utility.yul\":9394:9418   */\n      tag_313\n        /* \"#utility.yul\":9412:9417   */\n      dup5\n        /* \"#utility.yul\":9394:9418   */\n      tag_162\n      jump\t// in\n    tag_313:\n        /* \"#utility.yul\":9385:9419   */\n      tag_192\n      jump\t// in\n    tag_312:\n        /* \"#utility.yul\":9367:9420   */\n      tag_162\n      jump\t// in\n    tag_311:\n        /* \"#utility.yul\":9354:9420   */\n      swap1\n      pop\n        /* \"#utility.yul\":9284:9426   */\n      swap2\n      swap1\n      pop\n      jump\t// out\n        /* \"#utility.yul\":9432:9507   */\n    tag_194:\n        /* \"#utility.yul\":9475:9478   */\n      0x00\n        /* \"#utility.yul\":9496:9501   */\n      dup2\n        /* \"#utility.yul\":9489:9501   */\n      swap1\n      pop\n        /* \"#utility.yul\":9432:9507   */\n      swap2\n      swap1\n      pop\n      jump\t// out\n        /* \"#utility.yul\":9513:9782   */\n    tag_195:\n        /* \"#utility.yul\":9623:9662   */\n      tag_316\n        /* \"#utility.yul\":9654:9661   */\n      dup4\n        /* \"#utility.yul\":9623:9662   */\n      tag_193\n      jump\t// in\n    tag_316:\n        /* \"#utility.yul\":9684:9775   */\n      tag_317\n        /* \"#utility.yul\":9733:9774   */\n      tag_318\n        /* \"#utility.yul\":9757:9773   */\n      dup3\n        /* \"#utility.yul\":9733:9774   */\n      tag_194\n      jump\t// in\n    tag_318:\n        /* \"#utility.yul\":9725:9731   */\n      dup5\n        /* \"#utility.yul\":9718:9722   */\n      dup5\n        /* \"#utility.yul\":9712:9723   */\n      sload\n        /* \"#utility.yul\":9684:9775   */\n      tag_191\n      jump\t// in\n    tag_317:\n        /* \"#utility.yul\":9678:9682   */\n      dup3\n        /* \"#utility.yul\":9671:9776   */\n      sstore\n        /* \"#utility.yul\":9589:9782   */\n      pop\n        /* \"#utility.yul\":9513:9782   */\n      pop\n      pop\n      pop\n      jump\t// out\n        /* \"#utility.yul\":9788:9861   */\n    tag_196:\n        /* \"#utility.yul\":9833:9836   */\n      0x00\n        /* \"#utility.yul\":9788:9861   */\n      swap1\n      jump\t// out\n        /* \"#utility.yul\":9867:10056   */\n    tag_197:\n        /* \"#utility.yul\":9944:9976   */\n      tag_321\n      tag_196\n      jump\t// in\n    tag_321:\n        /* \"#utility.yul\":9985:10050   */\n      tag_322\n        /* \"#utility.yul\":10043:10049   */\n      dup2\n        /* \"#utility.yul\":10035:10041   */\n      dup5\n        /* \"#utility.yul\":10029:10033   */\n      dup5\n        /* \"#utility.yul\":9985:10050   */\n      tag_195\n      jump\t// in\n    tag_322:\n        /* \"#utility.yul\":9920:10056   */\n      pop\n        /* \"#utility.yul\":9867:10056   */\n      pop\n      pop\n      jump\t// out\n        /* \"#utility.yul\":10062:10248   */\n    tag_198:\n        /* \"#utility.yul\":10122:10242   */\n    tag_324:\n        /* \"#utility.yul\":10139:10142   */\n      dup2\n        /* \"#utility.yul\":10132:10137   */\n      dup2\n        /* \"#utility.yul\":10129:10143   */\n      lt\n        /* \"#utility.yul\":10122:10242   */\n      iszero\n      tag_326\n      jumpi\n        /* \"#utility.yul\":10193:10232   */\n      tag_327\n        /* \"#utility.yul\":10230:10231   */\n      0x00\n        /* \"#utility.yul\":10223:10228   */\n      dup3\n        /* \"#utility.yul\":10193:10232   */\n      tag_197\n      jump\t// in\n    tag_327:\n        /* \"#utility.yul\":10166:10167   */\n      0x01\n        /* \"#utility.yul\":10159:10164   */\n      dup2\n        /* \"#utility.yul\":10155:10168   */\n      add\n        /* \"#utility.yul\":10146:10168   */\n      swap1\n      pop\n        /* \"#utility.yul\":10122:10242   */\n      jump(tag_324)\n    tag_326:\n        /* \"#utility.yul\":10062:10248   */\n      pop\n      pop\n      jump\t// out\n        /* \"#utility.yul\":10254:10795   */\n    tag_199:\n        /* \"#utility.yul\":10354:10356   */\n      0x1f\n        /* \"#utility.yul\":10349:10352   */\n      dup3\n        /* \"#utility.yul\":10346:10357   */\n      gt\n        /* \"#utility.yul\":10343:10788   */\n      iszero\n      tag_329\n      jumpi\n        /* \"#utility.yul\":10388:10425   */\n      tag_330\n        /* \"#utility.yul\":10419:10424   */\n      dup2\n        /* \"#utility.yul\":10388:10425   */\n      tag_188\n      jump\t// in\n    tag_330:\n        /* \"#utility.yul\":10471:10500   */\n      tag_331\n        /* \"#utility.yul\":10489:10499   */\n      dup5\n        /* \"#utility.yul\":10471:10500   */\n      tag_189\n      jump\t// in\n    tag_331:\n        /* \"#utility.yul\":10461:10469   */\n      dup2\n        /* \"#utility.yul\":10457:10501   */\n      add\n        /* \"#utility.yul\":10654:10656   */\n      0x20\n        /* \"#utility.yul\":10642:10652   */\n      dup6\n        /* \"#utility.yul\":10639:10657   */\n      lt\n        /* \"#utility.yul\":10636:10685   */\n      iszero\n      tag_332\n      jumpi\n        /* \"#utility.yul\":10675:10683   */\n      dup2\n        /* \"#utility.yul\":10660:10683   */\n      swap1\n      pop\n        /* \"#utility.yul\":10636:10685   */\n    tag_332:\n        /* \"#utility.yul\":10698:10778   */\n      tag_333\n        /* \"#utility.yul\":10754:10776   */\n      tag_334\n        /* \"#utility.yul\":10772:10775   */\n      dup6\n        /* \"#utility.yul\":10754:10776   */\n      tag_189\n      jump\t// in\n    tag_334:\n        /* \"#utility.yul\":10744:10752   */\n      dup4\n        /* \"#utility.yul\":10740:10777   */\n      add\n        /* \"#utility.yul\":10727:10738   */\n      dup3\n        /* \"#utility.yul\":10698:10778   */\n      tag_198\n      jump\t// in\n    tag_333:\n        /* \"#utility.yul\":10358:10788   */\n      pop\n      pop\n        /* \"#utility.yul\":10343:10788   */\n    tag_329:\n        /* \"#utility.yul\":10254:10795   */\n      pop\n      pop\n      pop\n      jump\t// out\n        /* \"#utility.yul\":10801:10918   */\n    tag_200:\n        /* \"#utility.yul\":10855:10863   */\n      0x00\n        /* \"#utility.yul\":10905:10910   */\n      dup3\n        /* \"#utility.yul\":10899:10903   */\n      dup3\n        /* \"#utility.yul\":10895:10911   */\n      shr\n        /* \"#utility.yul\":10874:10911   */\n      swap1\n      pop\n        /* \"#utility.yul\":10801:10918   */\n      swap3\n      swap2\n      pop\n      pop\n      jump\t// out\n        /* \"#utility.yul\":10924:11093   */\n    tag_201:\n        /* \"#utility.yul\":10968:10974   */\n      0x00\n        /* \"#utility.yul\":11001:11052   */\n      tag_337\n        /* \"#utility.yul\":11049:11050   */\n      0x00\n        /* \"#utility.yul\":11045:11051   */\n      not\n        /* \"#utility.yul\":11037:11042   */\n      dup5\n        /* \"#utility.yul\":11034:11035   */\n      0x08\n        /* \"#utility.yul\":11030:11043   */\n      mul\n        /* \"#utility.yul\":11001:11052   */\n      tag_200\n      jump\t// in\n    tag_337:\n        /* \"#utility.yul\":10997:11053   */\n      not\n        /* \"#utility.yul\":11082:11086   */\n      dup1\n        /* \"#utility.yul\":11076:11080   */\n      dup4\n        /* \"#utility.yul\":11072:11087   */\n      and\n        /* \"#utility.yul\":11062:11087   */\n      swap2\n      pop\n        /* \"#utility.yul\":10975:11093   */\n      pop\n        /* \"#utility.yul\":10924:11093   */\n      swap3\n      swap2\n      pop\n      pop\n      jump\t// out\n        /* \"#utility.yul\":11098:11393   */\n    tag_202:\n        /* \"#utility.yul\":11174:11178   */\n      0x00\n        /* \"#utility.yul\":11320:11349   */\n      tag_339\n        /* \"#utility.yul\":11345:11348   */\n      dup4\n        /* \"#utility.yul\":11339:11343   */\n      dup4\n        /* \"#utility.yul\":11320:11349   */\n      tag_201\n      jump\t// in\n    tag_339:\n        /* \"#utility.yul\":11312:11349   */\n      swap2\n      pop\n        /* \"#utility.yul\":11382:11385   */\n      dup3\n        /* \"#utility.yul\":11379:11380   */\n      0x02\n        /* \"#utility.yul\":11375:11386   */\n      mul\n        /* \"#utility.yul\":11369:11373   */\n      dup3\n        /* \"#utility.yul\":11366:11387   */\n      or\n        /* \"#utility.yul\":11358:11387   */\n      swap1\n      pop\n        /* \"#utility.yul\":11098:11393   */\n      swap3\n      swap2\n      pop\n      pop\n      jump\t// out\n        /* \"#utility.yul\":11398:12788   */\n    tag_75:\n        /* \"#utility.yul\":11513:11549   */\n      tag_341\n        /* \"#utility.yul\":11545:11548   */\n      dup3\n        /* \"#utility.yul\":11513:11549   */\n      tag_176\n      jump\t// in\n    tag_341:\n        /* \"#utility.yul\":11614:11632   */\n      0xffffffffffffffff\n        /* \"#utility.yul\":11606:11612   */\n      dup2\n        /* \"#utility.yul\":11603:11633   */\n      gt\n        /* \"#utility.yul\":11600:11656   */\n      iszero\n      tag_342\n      jumpi\n        /* \"#utility.yul\":11636:11654   */\n      tag_343\n      tag_186\n      jump\t// in\n    tag_343:\n        /* \"#utility.yul\":11600:11656   */\n    tag_342:\n        /* \"#utility.yul\":11680:11718   */\n      tag_344\n        /* \"#utility.yul\":11712:11716   */\n      dup3\n        /* \"#utility.yul\":11706:11717   */\n      sload\n        /* \"#utility.yul\":11680:11718   */\n      tag_101\n      jump\t// in\n    tag_344:\n        /* \"#utility.yul\":11765:11831   */\n      tag_345\n        /* \"#utility.yul\":11824:11830   */\n      dup3\n        /* \"#utility.yul\":11816:11822   */\n      dup3\n        /* \"#utility.yul\":11810:11814   */\n      dup6\n        /* \"#utility.yul\":11765:11831   */\n      tag_199\n      jump\t// in\n    tag_345:\n        /* \"#utility.yul\":11858:11859   */\n      0x00\n        /* \"#utility.yul\":11882:11886   */\n      0x20\n        /* \"#utility.yul\":11869:11886   */\n      swap1\n      pop\n        /* \"#utility.yul\":11914:11916   */\n      0x1f\n        /* \"#utility.yul\":11906:11912   */\n      dup4\n        /* \"#utility.yul\":11903:11917   */\n      gt\n        /* \"#utility.yul\":11931:11932   */\n      0x01\n        /* \"#utility.yul\":11926:12543   */\n      dup2\n      eq\n      tag_347\n      jumpi\n        /* \"#utility.yul\":12587:12588   */\n      0x00\n        /* \"#utility.yul\":12604:12610   */\n      dup5\n        /* \"#utility.yul\":12601:12678   */\n      iszero\n      tag_348\n      jumpi\n        /* \"#utility.yul\":12653:12662   */\n      dup3\n        /* \"#utility.yul\":12648:12651   */\n      dup8\n        /* \"#utility.yul\":12644:12663   */\n      add\n        /* \"#utility.yul\":12638:12664   */\n      mload\n        /* \"#utility.yul\":12629:12664   */\n      swap1\n      pop\n        /* \"#utility.yul\":12601:12678   */\n    tag_348:\n        /* \"#utility.yul\":12704:12771   */\n      tag_349\n        /* \"#utility.yul\":12764:12770   */\n      dup6\n        /* \"#utility.yul\":12757:12762   */\n      dup3\n        /* \"#utility.yul\":12704:12771   */\n      tag_202\n      jump\t// in\n    tag_349:\n        /* \"#utility.yul\":12698:12702   */\n      dup7\n        /* \"#utility.yul\":12691:12772   */\n      sstore\n        /* \"#utility.yul\":12560:12782   */\n      pop\n        /* \"#utility.yul\":11896:12782   */\n      jump(tag_346)\n        /* \"#utility.yul\":11926:12543   */\n    tag_347:\n        /* \"#utility.yul\":11978:11982   */\n      0x1f\n        /* \"#utility.yul\":11974:11983   */\n      not\n        /* \"#utility.yul\":11966:11972   */\n      dup5\n        /* \"#utility.yul\":11962:11984   */\n      and\n        /* \"#utility.yul\":12012:12048   */\n      tag_350\n        /* \"#utility.yul\":12043:12047   */\n      dup7\n        /* \"#utility.yul\":12012:12048   */\n      tag_188\n      jump\t// in\n    tag_350:\n        /* \"#utility.yul\":12070:12071   */\n      0x00\n        /* \"#utility.yul\":12084:12292   */\n    tag_351:\n        /* \"#utility.yul\":12098:12105   */\n      dup3\n        /* \"#utility.yul\":12095:12096   */\n      dup2\n        /* \"#utility.yul\":12092:12106   */\n      lt\n        /* \"#utility.yul\":12084:12292   */\n      iszero\n      tag_353\n      jumpi\n        /* \"#utility.yul\":12177:12186   */\n      dup5\n        /* \"#utility.yul\":12172:12175   */\n      dup10\n        /* \"#utility.yul\":12168:12187   */\n      add\n        /* \"#utility.yul\":12162:12188   */\n      mload\n        /* \"#utility.yul\":12154:12160   */\n      dup3\n        /* \"#utility.yul\":12147:12189   */\n      sstore\n        /* \"#utility.yul\":12228:12229   */\n      0x01\n        /* \"#utility.yul\":12220:12226   */\n      dup3\n        /* \"#utility.yul\":12216:12230   */\n      add\n        /* \"#utility.yul\":12206:12230   */\n      swap2\n      pop\n        /* \"#utility.yul\":12275:12277   */\n      0x20\n        /* \"#utility.yul\":12264:12273   */\n      dup6\n        /* \"#utility.yul\":12260:12278   */\n      add\n        /* \"#utility.yul\":12247:12278   */\n      swap5\n      pop\n        /* \"#utility.yul\":12121:12125   */\n      0x20\n        /* \"#utility.yul\":12118:12119   */\n      dup2\n        /* \"#utility.yul\":12114:12126   */\n      add\n        /* \"#utility.yul\":12109:12126   */\n      swap1\n      pop\n        /* \"#utility.yul\":12084:12292   */\n      jump(tag_351)\n    tag_353:\n        /* \"#utility.yul\":12320:12326   */\n      dup7\n        /* \"#utility.yul\":12311:12318   */\n      dup4\n        /* \"#utility.yul\":12308:12327   */\n      lt\n        /* \"#utility.yul\":12305:12484   */\n      iszero\n      tag_354\n      jumpi\n        /* \"#utility.yul\":12378:12387   */\n      dup5\n        /* \"#utility.yul\":12373:12376   */\n      dup10\n        /* \"#utility.yul\":12369:12388   */\n      add\n        /* \"#utility.yul\":12363:12389   */\n      mload\n        /* \"#utility.yul\":12421:12469   */\n      tag_355\n        /* \"#utility.yul\":12463:12467   */\n      0x1f\n        /* \"#utility.yul\":12455:12461   */\n      dup10\n        /* \"#utility.yul\":12451:12468   */\n      and\n        /* \"#utility.yul\":12440:12449   */\n      dup3\n        /* \"#utility.yul\":12421:12469   */\n      tag_201\n      jump\t// in\n    tag_355:\n        /* \"#utility.yul\":12413:12419   */\n      dup4\n        /* \"#utility.yul\":12406:12470   */\n      sstore\n        /* \"#utility.yul\":12328:12484   */\n      pop\n        /* \"#utility.yul\":12305:12484   */\n    tag_354:\n        /* \"#utility.yul\":12530:12531   */\n      0x01\n        /* \"#utility.yul\":12526:12527   */\n      0x02\n        /* \"#utility.yul\":12518:12524   */\n      dup9\n        /* \"#utility.yul\":12514:12528   */\n      mul\n        /* \"#utility.yul\":12510:12532   */\n      add\n        /* \"#utility.yul\":12504:12508   */\n      dup9\n        /* \"#utility.yul\":12497:12533   */\n      sstore\n        /* \"#utility.yul\":11933:12543   */\n      pop\n      pop\n      pop\n        /* \"#utility.yul\":11896:12782   */\n    tag_346:\n      pop\n        /* \"#utility.yul\":11488:12788   */\n      pop\n      pop\n      pop\n        /* \"#utility.yul\":11398:12788   */\n      pop\n      pop\n      jump\t// out\n        /* \"#utility.yul\":12794:12974   */\n    tag_203:\n        /* \"#utility.yul\":12842:12919   */\n      0x4e487b7100000000000000000000000000000000000000000000000000000000\n        /* \"#utility.yul\":12839:12840   */\n      0x00\n        /* \"#utility.yul\":12832:12920   */\n      mstore\n        /* \"#utility.yul\":12939:12943   */\n      0x11\n        /* \"#utility.yul\":12936:12937   */\n      0x04\n        /* \"#utility.yul\":12929:12944   */\n      mstore\n        /* \"#utility.yul\":12963:12967   */\n      0x24\n        /* \"#utility.yul\":12960:12961   */\n      0x00\n        /* \"#utility.yul\":12953:12968   */\n      revert\n        /* \"#utility.yul\":12980:13174   */\n    tag_77:\n        /* \"#utility.yul\":13020:13024   */\n      0x00\n        /* \"#utility.yul\":13040:13060   */\n      tag_358\n        /* \"#utility.yul\":13058:13059   */\n      dup3\n        /* \"#utility.yul\":13040:13060   */\n      tag_162\n      jump\t// in\n    tag_358:\n        /* \"#utility.yul\":13035:13060   */\n      swap2\n      pop\n        /* \"#utility.yul\":13074:13094   */\n      tag_359\n        /* \"#utility.yul\":13092:13093   */\n      dup4\n        /* \"#utility.yul\":13074:13094   */\n      tag_162\n      jump\t// in\n    tag_359:\n        /* \"#utility.yul\":13069:13094   */\n      swap3\n      pop\n        /* \"#utility.yul\":13118:13119   */\n      dup3\n        /* \"#utility.yul\":13115:13116   */\n      dup3\n        /* \"#utility.yul\":13111:13120   */\n      sub\n        /* \"#utility.yul\":13103:13120   */\n      swap1\n      pop\n        /* \"#utility.yul\":13142:13143   */\n      dup2\n        /* \"#utility.yul\":13136:13140   */\n      dup2\n        /* \"#utility.yul\":13133:13144   */\n      gt\n        /* \"#utility.yul\":13130:13167   */\n      iszero\n      tag_360\n      jumpi\n        /* \"#utility.yul\":13147:13165   */\n      tag_361\n      tag_203\n      jump\t// in\n    tag_361:\n        /* \"#utility.yul\":13130:13167   */\n    tag_360:\n        /* \"#utility.yul\":12980:13174   */\n      swap3\n      swap2\n      pop\n      pop\n      jump\t// out\n        /* \"#utility.yul\":13180:13354   */\n    tag_204:\n        /* \"#utility.yul\":13320:13346   */\n      0x7472616e73616374696f6e206973206e6f742065786973740000000000000000\n        /* \"#utility.yul\":13316:13317   */\n      0x00\n        /* \"#utility.yul\":13308:13314   */\n      dup3\n        /* \"#utility.yul\":13304:13318   */\n      add\n        /* \"#utility.yul\":13297:13347   */\n      mstore\n        /* \"#utility.yul\":13180:13354   */\n      pop\n      jump\t// out\n        /* \"#utility.yul\":13360:13726   */\n    tag_205:\n        /* \"#utility.yul\":13502:13505   */\n      0x00\n        /* \"#utility.yul\":13523:13590   */\n      tag_364\n        /* \"#utility.yul\":13587:13589   */\n      0x18\n        /* \"#utility.yul\":13582:13585   */\n      dup4\n        /* \"#utility.yul\":13523:13590   */\n      tag_181\n      jump\t// in\n    tag_364:\n        /* \"#utility.yul\":13516:13590   */\n      swap2\n      pop\n        /* \"#utility.yul\":13599:13692   */\n      tag_365\n        /* \"#utility.yul\":13688:13691   */\n      dup3\n        /* \"#utility.yul\":13599:13692   */\n      tag_204\n      jump\t// in\n    tag_365:\n        /* \"#utility.yul\":13717:13719   */\n      0x20\n        /* \"#utility.yul\":13712:13715   */\n      dup3\n        /* \"#utility.yul\":13708:13720   */\n      add\n        /* \"#utility.yul\":13701:13720   */\n      swap1\n      pop\n        /* \"#utility.yul\":13360:13726   */\n      swap2\n      swap1\n      pop\n      jump\t// out\n        /* \"#utility.yul\":13732:14151   */\n    tag_85:\n        /* \"#utility.yul\":13898:13902   */\n      0x00\n        /* \"#utility.yul\":13936:13938   */\n      0x20\n        /* \"#utility.yul\":13925:13934   */\n      dup3\n        /* \"#utility.yul\":13921:13939   */\n      add\n        /* \"#utility.yul\":13913:13939   */\n      swap1\n      pop\n        /* \"#utility.yul\":13985:13994   */\n      dup2\n        /* \"#utility.yul\":13979:13983   */\n      dup2\n        /* \"#utility.yul\":13975:13995   */\n      sub\n        /* \"#utility.yul\":13971:13972   */\n      0x00\n        /* \"#utility.yul\":13960:13969   */\n      dup4\n        /* \"#utility.yul\":13956:13973   */\n      add\n        /* \"#utility.yul\":13949:13996   */\n      mstore\n        /* \"#utility.yul\":14013:14144   */\n      tag_367\n        /* \"#utility.yul\":14139:14143   */\n      dup2\n        /* \"#utility.yul\":14013:14144   */\n      tag_205\n      jump\t// in\n    tag_367:\n        /* \"#utility.yul\":14005:14144   */\n      swap1\n      pop\n        /* \"#utility.yul\":13732:14151   */\n      swap2\n      swap1\n      pop\n      jump\t// out\n        /* \"#utility.yul\":14157:14337   */\n    tag_89:\n        /* \"#utility.yul\":14205:14282   */\n      0x4e487b7100000000000000000000000000000000000000000000000000000000\n        /* \"#utility.yul\":14202:14203   */\n      0x00\n        /* \"#utility.yul\":14195:14283   */\n      mstore\n        /* \"#utility.yul\":14302:14306   */\n      0x32\n        /* \"#utility.yul\":14299:14300   */\n      0x04\n        /* \"#utility.yul\":14292:14307   */\n      mstore\n        /* \"#utility.yul\":14326:14330   */\n      0x24\n        /* \"#utility.yul\":14323:14324   */\n      0x00\n        /* \"#utility.yul\":14316:14331   */\n      revert\n        /* \"#utility.yul\":14343:14517   */\n    tag_206:\n        /* \"#utility.yul\":14483:14509   */\n      0x7468697320747820616c72656164792065786563757465640000000000000000\n        /* \"#utility.yul\":14479:14480   */\n      0x00\n        /* \"#utility.yul\":14471:14477   */\n      dup3\n        /* \"#utility.yul\":14467:14481   */\n      add\n        /* \"#utility.yul\":14460:14510   */\n      mstore\n        /* \"#utility.yul\":14343:14517   */\n      pop\n      jump\t// out\n        /* \"#utility.yul\":14523:14889   */\n    tag_207:\n        /* \"#utility.yul\":14665:14668   */\n      0x00\n        /* \"#utility.yul\":14686:14753   */\n      tag_371\n        /* \"#utility.yul\":14750:14752   */\n      0x18\n        /* \"#utility.yul\":14745:14748   */\n      dup4\n        /* \"#utility.yul\":14686:14753   */\n      tag_181\n      jump\t// in\n    tag_371:\n        /* \"#utility.yul\":14679:14753   */\n      swap2\n      pop\n        /* \"#utility.yul\":14762:14855   */\n      tag_372\n        /* \"#utility.yul\":14851:14854   */\n      dup3\n        /* \"#utility.yul\":14762:14855   */\n      tag_206\n      jump\t// in\n    tag_372:\n        /* \"#utility.yul\":14880:14882   */\n      0x20\n        /* \"#utility.yul\":14875:14878   */\n      dup3\n        /* \"#utility.yul\":14871:14883   */\n      add\n        /* \"#utility.yul\":14864:14883   */\n      swap1\n      pop\n        /* \"#utility.yul\":14523:14889   */\n      swap2\n      swap1\n      pop\n      jump\t// out\n        /* \"#utility.yul\":14895:15314   */\n    tag_93:\n        /* \"#utility.yul\":15061:15065   */\n      0x00\n        /* \"#utility.yul\":15099:15101   */\n      0x20\n        /* \"#utility.yul\":15088:15097   */\n      dup3\n        /* \"#utility.yul\":15084:15102   */\n      add\n        /* \"#utility.yul\":15076:15102   */\n      swap1\n      pop\n        /* \"#utility.yul\":15148:15157   */\n      dup2\n        /* \"#utility.yul\":15142:15146   */\n      dup2\n        /* \"#utility.yul\":15138:15158   */\n      sub\n        /* \"#utility.yul\":15134:15135   */\n      0x00\n        /* \"#utility.yul\":15123:15132   */\n      dup4\n        /* \"#utility.yul\":15119:15136   */\n      add\n        /* \"#utility.yul\":15112:15159   */\n      mstore\n        /* \"#utility.yul\":15176:15307   */\n      tag_374\n        /* \"#utility.yul\":15302:15306   */\n      dup2\n        /* \"#utility.yul\":15176:15307   */\n      tag_207\n      jump\t// in\n    tag_374:\n        /* \"#utility.yul\":15168:15307   */\n      swap1\n      pop\n        /* \"#utility.yul\":14895:15314   */\n      swap2\n      swap1\n      pop\n      jump\t// out\n        /* \"#utility.yul\":15320:15485   */\n    tag_208:\n        /* \"#utility.yul\":15460:15477   */\n      0x7478206e6f7420617070726f7665640000000000000000000000000000000000\n        /* \"#utility.yul\":15456:15457   */\n      0x00\n        /* \"#utility.yul\":15448:15454   */\n      dup3\n        /* \"#utility.yul\":15444:15458   */\n      add\n        /* \"#utility.yul\":15437:15478   */\n      mstore\n        /* \"#utility.yul\":15320:15485   */\n      pop\n      jump\t// out\n        /* \"#utility.yul\":15491:15857   */\n    tag_209:\n        /* \"#utility.yul\":15633:15636   */\n      0x00\n        /* \"#utility.yul\":15654:15721   */\n      tag_377\n        /* \"#utility.yul\":15718:15720   */\n      0x0f\n        /* \"#utility.yul\":15713:15716   */\n      dup4\n        /* \"#utility.yul\":15654:15721   */\n      tag_181\n      jump\t// in\n    tag_377:\n        /* \"#utility.yul\":15647:15721   */\n      swap2\n      pop\n        /* \"#utility.yul\":15730:15823   */\n      tag_378\n        /* \"#utility.yul\":15819:15822   */\n      dup3\n        /* \"#utility.yul\":15730:15823   */\n      tag_208\n      jump\t// in\n    tag_378:\n        /* \"#utility.yul\":15848:15850   */\n      0x20\n        /* \"#utility.yul\":15843:15846   */\n      dup3\n        /* \"#utility.yul\":15839:15851   */\n      add\n        /* \"#utility.yul\":15832:15851   */\n      swap1\n      pop\n        /* \"#utility.yul\":15491:15857   */\n      swap2\n      swap1\n      pop\n      jump\t// out\n        /* \"#utility.yul\":15863:16282   */\n    tag_97:\n        /* \"#utility.yul\":16029:16033   */\n      0x00\n        /* \"#utility.yul\":16067:16069   */\n      0x20\n        /* \"#utility.yul\":16056:16065   */\n      dup3\n        /* \"#utility.yul\":16052:16070   */\n      add\n        /* \"#utility.yul\":16044:16070   */\n      swap1\n      pop\n        /* \"#utility.yul\":16116:16125   */\n      dup2\n        /* \"#utility.yul\":16110:16114   */\n      dup2\n        /* \"#utility.yul\":16106:16126   */\n      sub\n        /* \"#utility.yul\":16102:16103   */\n      0x00\n        /* \"#utility.yul\":16091:16100   */\n      dup4\n        /* \"#utility.yul\":16087:16104   */\n      add\n        /* \"#utility.yul\":16080:16127   */\n      mstore\n        /* \"#utility.yul\":16144:16275   */\n      tag_380\n        /* \"#utility.yul\":16270:16274   */\n      dup2\n        /* \"#utility.yul\":16144:16275   */\n      tag_209\n      jump\t// in\n    tag_380:\n        /* \"#utility.yul\":16136:16275   */\n      swap1\n      pop\n        /* \"#utility.yul\":15863:16282   */\n      swap2\n      swap1\n      pop\n      jump\t// out\n        /* \"#utility.yul\":16288:16465   */\n    tag_210:\n        /* \"#utility.yul\":16428:16457   */\n      0x74686973206f776e657220616c726561647920617070726f7665640000000000\n        /* \"#utility.yul\":16424:16425   */\n      0x00\n        /* \"#utility.yul\":16416:16422   */\n      dup3\n        /* \"#utility.yul\":16412:16426   */\n      add\n        /* \"#utility.yul\":16405:16458   */\n      mstore\n        /* \"#utility.yul\":16288:16465   */\n      pop\n      jump\t// out\n        /* \"#utility.yul\":16471:16837   */\n    tag_211:\n        /* \"#utility.yul\":16613:16616   */\n      0x00\n        /* \"#utility.yul\":16634:16701   */\n      tag_383\n        /* \"#utility.yul\":16698:16700   */\n      0x1b\n        /* \"#utility.yul\":16693:16696   */\n      dup4\n        /* \"#utility.yul\":16634:16701   */\n      tag_181\n      jump\t// in\n    tag_383:\n        /* \"#utility.yul\":16627:16701   */\n      swap2\n      pop\n        /* \"#utility.yul\":16710:16803   */\n      tag_384\n        /* \"#utility.yul\":16799:16802   */\n      dup3\n        /* \"#utility.yul\":16710:16803   */\n      tag_210\n      jump\t// in\n    tag_384:\n        /* \"#utility.yul\":16828:16830   */\n      0x20\n        /* \"#utility.yul\":16823:16826   */\n      dup3\n        /* \"#utility.yul\":16819:16831   */\n      add\n        /* \"#utility.yul\":16812:16831   */\n      swap1\n      pop\n        /* \"#utility.yul\":16471:16837   */\n      swap2\n      swap1\n      pop\n      jump\t// out\n        /* \"#utility.yul\":16843:17262   */\n    tag_116:\n        /* \"#utility.yul\":17009:17013   */\n      0x00\n        /* \"#utility.yul\":17047:17049   */\n      0x20\n        /* \"#utility.yul\":17036:17045   */\n      dup3\n        /* \"#utility.yul\":17032:17050   */\n      add\n        /* \"#utility.yul\":17024:17050   */\n      swap1\n      pop\n        /* \"#utility.yul\":17096:17105   */\n      dup2\n        /* \"#utility.yul\":17090:17094   */\n      dup2\n        /* \"#utility.yul\":17086:17106   */\n      sub\n        /* \"#utility.yul\":17082:17083   */\n      0x00\n        /* \"#utility.yul\":17071:17080   */\n      dup4\n        /* \"#utility.yul\":17067:17084   */\n      add\n        /* \"#utility.yul\":17060:17107   */\n      mstore\n        /* \"#utility.yul\":17124:17255   */\n      tag_386\n        /* \"#utility.yul\":17250:17254   */\n      dup2\n        /* \"#utility.yul\":17124:17255   */\n      tag_211\n      jump\t// in\n    tag_386:\n        /* \"#utility.yul\":17116:17255   */\n      swap1\n      pop\n        /* \"#utility.yul\":16843:17262   */\n      swap2\n      swap1\n      pop\n      jump\t// out\n        /* \"#utility.yul\":17268:17438   */\n    tag_212:\n        /* \"#utility.yul\":17408:17430   */\n      0x617070726f76616c73203c207265717569726564000000000000000000000000\n        /* \"#utility.yul\":17404:17405   */\n      0x00\n        /* \"#utility.yul\":17396:17402   */\n      dup3\n        /* \"#utility.yul\":17392:17406   */\n      add\n        /* \"#utility.yul\":17385:17431   */\n      mstore\n        /* \"#utility.yul\":17268:17438   */\n      pop\n      jump\t// out\n        /* \"#utility.yul\":17444:17810   */\n    tag_213:\n        /* \"#utility.yul\":17586:17589   */\n      0x00\n        /* \"#utility.yul\":17607:17674   */\n      tag_389\n        /* \"#utility.yul\":17671:17673   */\n      0x14\n        /* \"#utility.yul\":17666:17669   */\n      dup4\n        /* \"#utility.yul\":17607:17674   */\n      tag_181\n      jump\t// in\n    tag_389:\n        /* \"#utility.yul\":17600:17674   */\n      swap2\n      pop\n        /* \"#utility.yul\":17683:17776   */\n      tag_390\n        /* \"#utility.yul\":17772:17775   */\n      dup3\n        /* \"#utility.yul\":17683:17776   */\n      tag_212\n      jump\t// in\n    tag_390:\n        /* \"#utility.yul\":17801:17803   */\n      0x20\n        /* \"#utility.yul\":17796:17799   */\n      dup3\n        /* \"#utility.yul\":17792:17804   */\n      add\n        /* \"#utility.yul\":17785:17804   */\n      swap1\n      pop\n        /* \"#utility.yul\":17444:17810   */\n      swap2\n      swap1\n      pop\n      jump\t// out\n        /* \"#utility.yul\":17816:18235   */\n    tag_139:\n        /* \"#utility.yul\":17982:17986   */\n      0x00\n        /* \"#utility.yul\":18020:18022   */\n      0x20\n        /* \"#utility.yul\":18009:18018   */\n      dup3\n        /* \"#utility.yul\":18005:18023   */\n      add\n        /* \"#utility.yul\":17997:18023   */\n      swap1\n      pop\n        /* \"#utility.yul\":18069:18078   */\n      dup2\n        /* \"#utility.yul\":18063:18067   */\n      dup2\n        /* \"#utility.yul\":18059:18079   */\n      sub\n        /* \"#utility.yul\":18055:18056   */\n      0x00\n        /* \"#utility.yul\":18044:18053   */\n      dup4\n        /* \"#utility.yul\":18040:18057   */\n      add\n        /* \"#utility.yul\":18033:18080   */\n      mstore\n        /* \"#utility.yul\":18097:18228   */\n      tag_392\n        /* \"#utility.yul\":18223:18227   */\n      dup2\n        /* \"#utility.yul\":18097:18228   */\n      tag_213\n      jump\t// in\n    tag_392:\n        /* \"#utility.yul\":18089:18228   */\n      swap1\n      pop\n        /* \"#utility.yul\":17816:18235   */\n      swap2\n      swap1\n      pop\n      jump\t// out\n        /* \"#utility.yul\":18241:18388   */\n    tag_214:\n        /* \"#utility.yul\":18342:18353   */\n      0x00\n        /* \"#utility.yul\":18379:18382   */\n      dup2\n        /* \"#utility.yul\":18364:18382   */\n      swap1\n      pop\n        /* \"#utility.yul\":18241:18388   */\n      swap3\n      swap2\n      pop\n      pop\n      jump\t// out\n        /* \"#utility.yul\":18416:19286   */\n    tag_215:\n        /* \"#utility.yul\":18517:18520   */\n      0x00\n        /* \"#utility.yul\":18554:18559   */\n      dup2\n        /* \"#utility.yul\":18548:18560   */\n      sload\n        /* \"#utility.yul\":18583:18619   */\n      tag_395\n        /* \"#utility.yul\":18609:18618   */\n      dup2\n        /* \"#utility.yul\":18583:18619   */\n      tag_101\n      jump\t// in\n    tag_395:\n        /* \"#utility.yul\":18635:18723   */\n      tag_396\n        /* \"#utility.yul\":18716:18722   */\n      dup2\n        /* \"#utility.yul\":18711:18714   */\n      dup7\n        /* \"#utility.yul\":18635:18723   */\n      tag_214\n      jump\t// in\n    tag_396:\n        /* \"#utility.yul\":18628:18723   */\n      swap5\n      pop\n        /* \"#utility.yul\":18754:18755   */\n      0x01\n        /* \"#utility.yul\":18743:18752   */\n      dup3\n        /* \"#utility.yul\":18739:18756   */\n      and\n        /* \"#utility.yul\":18770:18771   */\n      0x00\n        /* \"#utility.yul\":18765:18931   */\n      dup2\n      eq\n      tag_398\n      jumpi\n        /* \"#utility.yul\":18945:18946   */\n      0x01\n        /* \"#utility.yul\":18940:19280   */\n      dup2\n      eq\n      tag_399\n      jumpi\n        /* \"#utility.yul\":18732:19280   */\n      jump(tag_397)\n        /* \"#utility.yul\":18765:18931   */\n    tag_398:\n        /* \"#utility.yul\":18849:18853   */\n      0xff\n        /* \"#utility.yul\":18845:18854   */\n      not\n        /* \"#utility.yul\":18834:18843   */\n      dup4\n        /* \"#utility.yul\":18830:18855   */\n      and\n        /* \"#utility.yul\":18825:18828   */\n      dup7\n        /* \"#utility.yul\":18818:18856   */\n      mstore\n        /* \"#utility.yul\":18911:18917   */\n      dup2\n        /* \"#utility.yul\":18904:18918   */\n      iszero\n        /* \"#utility.yul\":18897:18919   */\n      iszero\n        /* \"#utility.yul\":18889:18895   */\n      dup3\n        /* \"#utility.yul\":18885:18920   */\n      mul\n        /* \"#utility.yul\":18880:18883   */\n      dup7\n        /* \"#utility.yul\":18876:18921   */\n      add\n        /* \"#utility.yul\":18869:18921   */\n      swap4\n      pop\n        /* \"#utility.yul\":18765:18931   */\n      jump(tag_397)\n        /* \"#utility.yul\":18940:19280   */\n    tag_399:\n        /* \"#utility.yul\":19007:19044   */\n      tag_400\n        /* \"#utility.yul\":19038:19043   */\n      dup6\n        /* \"#utility.yul\":19007:19044   */\n      tag_188\n      jump\t// in\n    tag_400:\n        /* \"#utility.yul\":19066:19067   */\n      0x00\n        /* \"#utility.yul\":19080:19234   */\n    tag_401:\n        /* \"#utility.yul\":19094:19100   */\n      dup4\n        /* \"#utility.yul\":19091:19092   */\n      dup2\n        /* \"#utility.yul\":19088:19101   */\n      lt\n        /* \"#utility.yul\":19080:19234   */\n      iszero\n      tag_403\n      jumpi\n        /* \"#utility.yul\":19168:19175   */\n      dup2\n        /* \"#utility.yul\":19162:19176   */\n      sload\n        /* \"#utility.yul\":19158:19159   */\n      dup2\n        /* \"#utility.yul\":19153:19156   */\n      dup10\n        /* \"#utility.yul\":19149:19160   */\n      add\n        /* \"#utility.yul\":19142:19177   */\n      mstore\n        /* \"#utility.yul\":19218:19219   */\n      0x01\n        /* \"#utility.yul\":19209:19216   */\n      dup3\n        /* \"#utility.yul\":19205:19220   */\n      add\n        /* \"#utility.yul\":19194:19220   */\n      swap2\n      pop\n        /* \"#utility.yul\":19116:19120   */\n      0x20\n        /* \"#utility.yul\":19113:19114   */\n      dup2\n        /* \"#utility.yul\":19109:19121   */\n      add\n        /* \"#utility.yul\":19104:19121   */\n      swap1\n      pop\n        /* \"#utility.yul\":19080:19234   */\n      jump(tag_401)\n    tag_403:\n        /* \"#utility.yul\":19263:19269   */\n      dup4\n        /* \"#utility.yul\":19258:19261   */\n      dup9\n        /* \"#utility.yul\":19254:19270   */\n      add\n        /* \"#utility.yul\":19247:19270   */\n      swap6\n      pop\n        /* \"#utility.yul\":18947:19280   */\n      pop\n      pop\n        /* \"#utility.yul\":18732:19280   */\n    tag_397:\n      pop\n        /* \"#utility.yul\":18521:19286   */\n      pop\n      pop\n        /* \"#utility.yul\":18416:19286   */\n      swap3\n      swap2\n      pop\n      pop\n      jump\t// out\n        /* \"#utility.yul\":19292:19557   */\n    tag_144:\n        /* \"#utility.yul\":19419:19422   */\n      0x00\n        /* \"#utility.yul\":19441:19531   */\n      tag_405\n        /* \"#utility.yul\":19527:19530   */\n      dup3\n        /* \"#utility.yul\":19518:19524   */\n      dup5\n        /* \"#utility.yul\":19441:19531   */\n      tag_215\n      jump\t// in\n    tag_405:\n        /* \"#utility.yul\":19434:19531   */\n      swap2\n      pop\n        /* \"#utility.yul\":19548:19551   */\n      dup2\n        /* \"#utility.yul\":19541:19551   */\n      swap1\n      pop\n        /* \"#utility.yul\":19292:19557   */\n      swap3\n      swap2\n      pop\n      pop\n      jump\t// out\n        /* \"#utility.yul\":19563:19731   */\n    tag_216:\n        /* \"#utility.yul\":19703:19723   */\n      0x7478206578656375746564206661696c65640000000000000000000000000000\n        /* \"#utility.yul\":19699:19700   */\n      0x00\n        /* \"#utility.yul\":19691:19697   */\n      dup3\n        /* \"#utility.yul\":19687:19701   */\n      add\n        /* \"#utility.yul\":19680:19724   */\n      mstore\n        /* \"#utility.yul\":19563:19731   */\n      pop\n      jump\t// out\n        /* \"#utility.yul\":19737:20103   */\n    tag_217:\n        /* \"#utility.yul\":19879:19882   */\n      0x00\n        /* \"#utility.yul\":19900:19967   */\n      tag_408\n        /* \"#utility.yul\":19964:19966   */\n      0x12\n        /* \"#utility.yul\":19959:19962   */\n      dup4\n        /* \"#utility.yul\":19900:19967   */\n      tag_181\n      jump\t// in\n    tag_408:\n        /* \"#utility.yul\":19893:19967   */\n      swap2\n      pop\n        /* \"#utility.yul\":19976:20069   */\n      tag_409\n        /* \"#utility.yul\":20065:20068   */\n      dup3\n        /* \"#utility.yul\":19976:20069   */\n      tag_216\n      jump\t// in\n    tag_409:\n        /* \"#utility.yul\":20094:20096   */\n      0x20\n        /* \"#utility.yul\":20089:20092   */\n      dup3\n        /* \"#utility.yul\":20085:20097   */\n      add\n        /* \"#utility.yul\":20078:20097   */\n      swap1\n      pop\n        /* \"#utility.yul\":19737:20103   */\n      swap2\n      swap1\n      pop\n      jump\t// out\n        /* \"#utility.yul\":20109:20528   */\n    tag_150:\n        /* \"#utility.yul\":20275:20279   */\n      0x00\n        /* \"#utility.yul\":20313:20315   */\n      0x20\n        /* \"#utility.yul\":20302:20311   */\n      dup3\n        /* \"#utility.yul\":20298:20316   */\n      add\n        /* \"#utility.yul\":20290:20316   */\n      swap1\n      pop\n        /* \"#utility.yul\":20362:20371   */\n      dup2\n        /* \"#utility.yul\":20356:20360   */\n      dup2\n        /* \"#utility.yul\":20352:20372   */\n      sub\n        /* \"#utility.yul\":20348:20349   */\n      0x00\n        /* \"#utility.yul\":20337:20346   */\n      dup4\n        /* \"#utility.yul\":20333:20350   */\n      add\n        /* \"#utility.yul\":20326:20373   */\n      mstore\n        /* \"#utility.yul\":20390:20521   */\n      tag_411\n        /* \"#utility.yul\":20516:20520   */\n      dup2\n        /* \"#utility.yul\":20390:20521   */\n      tag_217\n      jump\t// in\n    tag_411:\n        /* \"#utility.yul\":20382:20521   */\n      swap1\n      pop\n        /* \"#utility.yul\":20109:20528   */\n      swap2\n      swap1\n      pop\n      jump\t// out\n        /* \"#utility.yul\":20534:20767   */\n    tag_160:\n        /* \"#utility.yul\":20573:20576   */\n      0x00\n        /* \"#utility.yul\":20596:20620   */\n      tag_413\n        /* \"#utility.yul\":20614:20619   */\n      dup3\n        /* \"#utility.yul\":20596:20620   */\n      tag_162\n      jump\t// in\n    tag_413:\n        /* \"#utility.yul\":20587:20620   */\n      swap2\n      pop\n        /* \"#utility.yul\":20642:20708   */\n      0xffffffffffffffffffffffffffffffffffffffffffffffffffffffffffffffff\n        /* \"#utility.yul\":20635:20640   */\n      dup3\n        /* \"#utility.yul\":20632:20709   */\n      sub\n        /* \"#utility.yul\":20629:20732   */\n      tag_414\n      jumpi\n        /* \"#utility.yul\":20712:20730   */\n      tag_415\n      tag_203\n      jump\t// in\n    tag_415:\n        /* \"#utility.yul\":20629:20732   */\n    tag_414:\n        /* \"#utility.yul\":20759:20760   */\n      0x01\n        /* \"#utility.yul\":20752:20757   */\n      dup3\n        /* \"#utility.yul\":20748:20761   */\n      add\n        /* \"#utility.yul\":20741:20761   */\n      swap1\n      pop\n        /* \"#utility.yul\":20534:20767   */\n      swap2\n      swap1\n      pop\n      jump\t// out\n\n    auxdata: 0xa2646970667358221220e563138367d6bc49e8848ddce58fc45bab2bad02dcdf784627b7b47c39f706f764736f6c63430008120033\n}\n",
				"bytecode": {
					"linkReferences": {},
					"object": "60806040523480156200001157600080fd5b506040516200221c3803806200221c8339818101604052810190620000379190620004c8565b60008251116200007e576040517f08c379a000000000000000000000000000000000000000000000000000000000815260040162000075906200058f565b60405180910390fd5b60008111801562000090575081518111155b620000d2576040517f08c379a0000000000000000000000000000000000000000000000000000000008152600401620000c99062000627565b60405180910390fd5b60005b825181101562000244576000838281518110620000f757620000f662000649565b5b60200260200101519050600073ffffffffffffffffffffffffffffffffffffffff168173ffffffffffffffffffffffffffffffffffffffff160362000173576040517f08c379a00000000000000000000000000000000000000000000000000000000081526004016200016a90620006c8565b60405180910390fd5b60018060008373ffffffffffffffffffffffffffffffffffffffff1673ffffffffffffffffffffffffffffffffffffffff16815260200190815260200160002060006101000a81548160ff0219169083151502179055506000819080600181540180825580915050600190039060005260206000200160009091909190916101000a81548173ffffffffffffffffffffffffffffffffffffffff021916908373ffffffffffffffffffffffffffffffffffffffff1602179055505080806200023b9062000719565b915050620000d5565b5080600080549050101562000290576040517f08c379a00000000000000000000000000000000000000000000000000000000081526004016200028790620007b6565b60405180910390fd5b806002819055505050620007d8565b6000604051905090565b600080fd5b600080fd5b600080fd5b6000601f19601f8301169050919050565b7f4e487b7100000000000000000000000000000000000000000000000000000000600052604160045260246000fd5b6200030382620002b8565b810181811067ffffffffffffffff82111715620003255762000324620002c9565b5b80604052505050565b60006200033a6200029f565b9050620003488282620002f8565b919050565b600067ffffffffffffffff8211156200036b576200036a620002c9565b5b602082029050602081019050919050565b600080fd5b600073ffffffffffffffffffffffffffffffffffffffff82169050919050565b6000620003ae8262000381565b9050919050565b620003c081620003a1565b8114620003cc57600080fd5b50565b600081519050620003e081620003b5565b92915050565b6000620003fd620003f7846200034d565b6200032e565b905080838252602082019050602084028301858111156200042357620004226200037c565b5b835b818110156200045057806200043b8882620003cf565b84526020840193505060208101905062000425565b5050509392505050565b600082601f830112620004725762000471620002b3565b5b815162000484848260208601620003e6565b91505092915050565b6000819050919050565b620004a2816200048d565b8114620004ae57600080fd5b50565b600081519050620004c28162000497565b92915050565b60008060408385031215620004e257620004e1620002a9565b5b600083015167ffffffffffffffff811115620005035762000502620002ae565b5b62000511858286016200045a565b92505060206200052485828601620004b1565b9150509250929050565b600082825260208201905092915050565b7f6f776e6572206973207265717569726564000000000000000000000000000000600082015250565b6000620005776011836200052e565b915062000584826200053f565b602082019050919050565b60006020820190508181036000830152620005aa8162000568565b9050919050565b7f696e76616c6964207265717569726564206e756d626572206f66206f776e657260008201527f7300000000000000000000000000000000000000000000000000000000000000602082015250565b60006200060f6021836200052e565b91506200061c82620005b1565b604082019050919050565b60006020820190508181036000830152620006428162000600565b9050919050565b7f4e487b7100000000000000000000000000000000000000000000000000000000600052603260045260246000fd5b7f6f776e6572206973203020616464726573730000000000000000000000000000600082015250565b6000620006b06012836200052e565b9150620006bd8262000678565b602082019050919050565b60006020820190508181036000830152620006e381620006a1565b9050919050565b7f4e487b7100000000000000000000000000000000000000000000000000000000600052601160045260246000fd5b600062000726826200048d565b91507fffffffffffffffffffffffffffffffffffffffffffffffffffffffffffffffff82036200075b576200075a620006ea565b5b600182019050919050565b7f736f6d65206f66206f776e657220697320696e76616c69640000000000000000600082015250565b60006200079e6018836200052e565b9150620007ab8262000766565b602082019050919050565b60006020820190508181036000830152620007d1816200078f565b9050919050565b611a3480620007e86000396000f3fe60806040526004361061008a5760003560e01c80632f54bf6e116100595780632f54bf6e146101b05780639ace38c2146101ed578063b759f9541461022d578063dc8452cd14610256578063fe0d94c114610281576100df565b8063025e7c27146100e45780630949dc0714610121578063203dd6661461015e57806320c5429b14610187576100df565b366100df573373ffffffffffffffffffffffffffffffffffffffff167fe1fffcc4923d04b559f4d29a8bfc6cda04eb5b0d3c460751c2402c5c5cc9109c346040516100d59190610f1b565b60405180910390a2005b600080fd5b3480156100f057600080fd5b5061010b60048036038101906101069190610f67565b6102aa565b6040516101189190610fd5565b60405180910390f35b34801561012d57600080fd5b506101486004803603810190610143919061101c565b6102e9565b6040516101559190611077565b60405180910390f35b34801561016a57600080fd5b5061018560048036038101906101809190611092565b610318565b005b34801561019357600080fd5b506101ae60048036038101906101a99190610f67565b61055f565b005b3480156101bc57600080fd5b506101d760048036038101906101d291906110d2565b610803565b6040516101e49190611077565b60405180910390f35b3480156101f957600080fd5b50610214600480360381019061020f9190610f67565b610823565b604051610224949392919061118f565b60405180910390f35b34801561023957600080fd5b50610254600480360381019061024f9190610f67565b610918565b005b34801561026257600080fd5b5061026b610bbf565b6040516102789190610f1b565b60405180910390f35b34801561028d57600080fd5b506102a860048036038101906102a39190610f67565b610bc5565b005b600081815481106102ba57600080fd5b906000526020600020016000915054906101000a900473ffffffffffffffffffffffffffffffffffffffff1681565b60046020528160005260406000206020528060005260406000206000915091509054906101000a900460ff1681565b600160003373ffffffffffffffffffffffffffffffffffffffff1673ffffffffffffffffffffffffffffffffffffffff16815260200190815260200160002060009054906101000a900460ff166103a4576040517f08c379a000000000000000000000000000000000000000000000000000000000815260040161039b9061125e565b60405180910390fd5b600360405180608001604052808473ffffffffffffffffffffffffffffffffffffffff1681526020018381526020016040516024016103e2906112ca565b6040516020818303038152906040527f55f9de82000000000000000000000000000000000000000000000000000000007bffffffffffffffffffffffffffffffffffffffffffffffffffffffff19166020820180517bffffffffffffffffffffffffffffffffffffffffffffffffffffffff8381831617835250505050815260200160001515815250908060018154018082558091505060019003906000526020600020906004020160009091909190915060008201518160000160006101000a81548173ffffffffffffffffffffffffffffffffffffffff021916908373ffffffffffffffffffffffffffffffffffffffff1602179055506020820151816001015560408201518160020190816104fa9190611525565b5060608201518160030160006101000a81548160ff0219169083151502179055505050600160038054905061052f9190611626565b7f08324b3d745b914e3abd4ffbfead91e3b78391a98c173202129215ab933adfbe60405160405180910390a25050565b600160003373ffffffffffffffffffffffffffffffffffffffff1673ffffffffffffffffffffffffffffffffffffffff16815260200190815260200160002060009054906101000a900460ff166105eb576040517f08c379a00000000000000000000000000000000000000000000000000000000081526004016105e29061125e565b60405180910390fd5b8060038054905081108015610601575060008110155b610640576040517f08c379a0000000000000000000000000000000000000000000000000000000008152600401610637906116a6565b60405180910390fd5b8160038181548110610655576106546116c6565b5b906000526020600020906004020160030160009054906101000a900460ff16156106b4576040517f08c379a00000000000000000000000000000000000000000000000000000000081526004016106ab90611741565b60405180910390fd5b6004600084815260200190815260200160002060003373ffffffffffffffffffffffffffffffffffffffff1673ffffffffffffffffffffffffffffffffffffffff16815260200190815260200160002060009054906101000a900460ff16610751576040517f08c379a0000000000000000000000000000000000000000000000000000000008152600401610748906117ad565b60405180910390fd5b60006004600085815260200190815260200160002060003373ffffffffffffffffffffffffffffffffffffffff1673ffffffffffffffffffffffffffffffffffffffff16815260200190815260200160002060006101000a81548160ff021916908315150217905550823373ffffffffffffffffffffffffffffffffffffffff167fec9ab91322523c899ede7830ec9bfc992b5981cdcc27b91162fb23de5791117b60405160405180910390a3505050565b60016020528060005260406000206000915054906101000a900460ff1681565b6003818154811061083357600080fd5b90600052602060002090600402016000915090508060000160009054906101000a900473ffffffffffffffffffffffffffffffffffffffff169080600101549080600201805461088290611348565b80601f01602080910402602001604051908101604052809291908181526020018280546108ae90611348565b80156108fb5780601f106108d0576101008083540402835291602001916108fb565b820191906000526020600020905b8154815290600101906020018083116108de57829003601f168201915b5050505050908060030160009054906101000a900460ff16905084565b600160003373ffffffffffffffffffffffffffffffffffffffff1673ffffffffffffffffffffffffffffffffffffffff16815260200190815260200160002060009054906101000a900460ff166109a4576040517f08c379a000000000000000000000000000000000000000000000000000000000815260040161099b9061125e565b60405180910390fd5b80600380549050811080156109ba575060008110155b6109f9576040517f08c379a00000000000000000000000000000000000000000000000000000000081526004016109f0906116a6565b60405180910390fd5b816004600082815260200190815260200160002060003373ffffffffffffffffffffffffffffffffffffffff1673ffffffffffffffffffffffffffffffffffffffff16815260200190815260200160002060009054906101000a900460ff1615610a98576040517f08c379a0000000000000000000000000000000000000000000000000000000008152600401610a8f90611819565b60405180910390fd5b8260038181548110610aad57610aac6116c6565b5b906000526020600020906004020160030160009054906101000a900460ff1615610b0c576040517f08c379a0000000000000000000000000000000000000000000000000000000008152600401610b0390611741565b60405180910390fd5b60016004600086815260200190815260200160002060003373ffffffffffffffffffffffffffffffffffffffff1673ffffffffffffffffffffffffffffffffffffffff16815260200190815260200160002060006101000a81548160ff021916908315150217905550833373ffffffffffffffffffffffffffffffffffffffff167f90ec57f18fa7b15c6b8d5e4d1deb90796c74b2ff23d4d0cecad0cb42a96b312860405160405180910390a350505050565b60025481565b8060038054905081108015610bdb575060008110155b610c1a576040517f08c379a0000000000000000000000000000000000000000000000000000000008152600401610c11906116a6565b60405180910390fd5b8160038181548110610c2f57610c2e6116c6565b5b906000526020600020906004020160030160009054906101000a900460ff1615610c8e576040517f08c379a0000000000000000000000000000000000000000000000000000000008152600401610c8590611741565b60405180910390fd5b600254610c9a84610e2b565b1015610cdb576040517f08c379a0000000000000000000000000000000000000000000000000000000008152600401610cd290611885565b60405180910390fd5b600060038481548110610cf157610cf06116c6565b5b9060005260206000209060040201905060018160030160006101000a81548160ff02191690831515021790555060008160000160009054906101000a900473ffffffffffffffffffffffffffffffffffffffff1673ffffffffffffffffffffffffffffffffffffffff16826001015483600201604051610d719190611933565b60006040518083038185875af1925050503d8060008114610dae576040519150601f19603f3d011682016040523d82523d6000602084013e610db3565b606091505b5050905080610df7576040517f08c379a0000000000000000000000000000000000000000000000000000000008152600401610dee90611996565b60405180910390fd5b847fddb556f1d2c1ec821e910b019d3685b229db152a0ecd517ca7e24b8bd713928960405160405180910390a25050505050565b6000805b600080549050811015610efc57600460008481526020019081526020016000206000808381548110610e6457610e636116c6565b5b9060005260206000200160009054906101000a900473ffffffffffffffffffffffffffffffffffffffff1673ffffffffffffffffffffffffffffffffffffffff1673ffffffffffffffffffffffffffffffffffffffff16815260200190815260200160002060009054906101000a900460ff1615610ee95781610ee6906119b6565b91505b8080610ef4906119b6565b915050610e2f565b50919050565b6000819050919050565b610f1581610f02565b82525050565b6000602082019050610f306000830184610f0c565b92915050565b600080fd5b610f4481610f02565b8114610f4f57600080fd5b50565b600081359050610f6181610f3b565b92915050565b600060208284031215610f7d57610f7c610f36565b5b6000610f8b84828501610f52565b91505092915050565b600073ffffffffffffffffffffffffffffffffffffffff82169050919050565b6000610fbf82610f94565b9050919050565b610fcf81610fb4565b82525050565b6000602082019050610fea6000830184610fc6565b92915050565b610ff981610fb4565b811461100457600080fd5b50565b60008135905061101681610ff0565b92915050565b6000806040838503121561103357611032610f36565b5b600061104185828601610f52565b925050602061105285828601611007565b9150509250929050565b60008115159050919050565b6110718161105c565b82525050565b600060208201905061108c6000830184611068565b92915050565b600080604083850312156110a9576110a8610f36565b5b60006110b785828601611007565b92505060206110c885828601610f52565b9150509250929050565b6000602082840312156110e8576110e7610f36565b5b60006110f684828501611007565b91505092915050565b600081519050919050565b600082825260208201905092915050565b60005b8381101561113957808201518184015260208101905061111e565b60008484015250505050565b6000601f19601f8301169050919050565b6000611161826110ff565b61116b818561110a565b935061117b81856020860161111b565b61118481611145565b840191505092915050565b60006080820190506111a46000830187610fc6565b6111b16020830186610f0c565b81810360408301526111c38185611156565b90506111d26060830184611068565b95945050505050565b600082825260208201905092915050565b7f6f6e6c79206f776e65722063616e207375626d6974207472616e73616374696f60008201527f6e00000000000000000000000000000000000000000000000000000000000000602082015250565b60006112486021836111db565b9150611253826111ec565b604082019050919050565b600060208201905081810360008301526112778161123b565b9050919050565b7f6861686100000000000000000000000000000000000000000000000000000000600082015250565b60006112b46004836111db565b91506112bf8261127e565b602082019050919050565b600060208201905081810360008301526112e3816112a7565b9050919050565b7f4e487b7100000000000000000000000000000000000000000000000000000000600052604160045260246000fd5b7f4e487b7100000000000000000000000000000000000000000000000000000000600052602260045260246000fd5b6000600282049050600182168061136057607f821691505b60208210810361137357611372611319565b5b50919050565b60008190508160005260206000209050919050565b60006020601f8301049050919050565b600082821b905092915050565b6000600883026113db7fffffffffffffffffffffffffffffffffffffffffffffffffffffffffffffffff8261139e565b6113e5868361139e565b95508019841693508086168417925050509392505050565b6000819050919050565b600061142261141d61141884610f02565b6113fd565b610f02565b9050919050565b6000819050919050565b61143c83611407565b61145061144882611429565b8484546113ab565b825550505050565b600090565b611465611458565b611470818484611433565b505050565b5b818110156114945761148960008261145d565b600181019050611476565b5050565b601f8211156114d9576114aa81611379565b6114b38461138e565b810160208510156114c2578190505b6114d66114ce8561138e565b830182611475565b50505b505050565b600082821c905092915050565b60006114fc600019846008026114de565b1980831691505092915050565b600061151583836114eb565b9150826002028217905092915050565b61152e826110ff565b67ffffffffffffffff811115611547576115466112ea565b5b6115518254611348565b61155c828285611498565b600060209050601f83116001811461158f576000841561157d578287015190505b6115878582611509565b8655506115ef565b601f19841661159d86611379565b60005b828110156115c5578489015182556001820191506020850194506020810190506115a0565b868310156115e257848901516115de601f8916826114eb565b8355505b6001600288020188555050505b505050505050565b7f4e487b7100000000000000000000000000000000000000000000000000000000600052601160045260246000fd5b600061163182610f02565b915061163c83610f02565b9250828203905081811115611654576116536115f7565b5b92915050565b7f7472616e73616374696f6e206973206e6f742065786973740000000000000000600082015250565b60006116906018836111db565b915061169b8261165a565b602082019050919050565b600060208201905081810360008301526116bf81611683565b9050919050565b7f4e487b7100000000000000000000000000000000000000000000000000000000600052603260045260246000fd5b7f7468697320747820616c72656164792065786563757465640000000000000000600082015250565b600061172b6018836111db565b9150611736826116f5565b602082019050919050565b6000602082019050818103600083015261175a8161171e565b9050919050565b7f7478206e6f7420617070726f7665640000000000000000000000000000000000600082015250565b6000611797600f836111db565b91506117a282611761565b602082019050919050565b600060208201905081810360008301526117c68161178a565b9050919050565b7f74686973206f776e657220616c726561647920617070726f7665640000000000600082015250565b6000611803601b836111db565b915061180e826117cd565b602082019050919050565b60006020820190508181036000830152611832816117f6565b9050919050565b7f617070726f76616c73203c207265717569726564000000000000000000000000600082015250565b600061186f6014836111db565b915061187a82611839565b602082019050919050565b6000602082019050818103600083015261189e81611862565b9050919050565b600081905092915050565b600081546118bd81611348565b6118c781866118a5565b945060018216600081146118e257600181146118f75761192a565b60ff198316865281151582028601935061192a565b61190085611379565b60005b8381101561192257815481890152600182019150602081019050611903565b838801955050505b50505092915050565b600061193f82846118b0565b915081905092915050565b7f7478206578656375746564206661696c65640000000000000000000000000000600082015250565b60006119806012836111db565b915061198b8261194a565b602082019050919050565b600060208201905081810360008301526119af81611973565b9050919050565b60006119c182610f02565b91507fffffffffffffffffffffffffffffffffffffffffffffffffffffffffffffffff82036119f3576119f26115f7565b5b60018201905091905056fea2646970667358221220e563138367d6bc49e8848ddce58fc45bab2bad02dcdf784627b7b47c39f706f764736f6c63430008120033",
					"opcodes": "PUSH1 0x80 PUSH1 0x40 MSTORE CALLVALUE DUP1 ISZERO PUSH3 0x11 JUMPI PUSH1 0x0 DUP1 REVERT JUMPDEST POP PUSH1 0x40 MLOAD PUSH3 0x221C CODESIZE SUB DUP1 PUSH3 0x221C DUP4 CODECOPY DUP2 DUP2 ADD PUSH1 0x40 MSTORE DUP2 ADD SWAP1 PUSH3 0x37 SWAP2 SWAP1 PUSH3 0x4C8 JUMP JUMPDEST PUSH1 0x0 DUP3 MLOAD GT PUSH3 0x7E JUMPI PUSH1 0x40 MLOAD PUSH32 0x8C379A000000000000000000000000000000000000000000000000000000000 DUP2 MSTORE PUSH1 0x4 ADD PUSH3 0x75 SWAP1 PUSH3 0x58F JUMP JUMPDEST PUSH1 0x40 MLOAD DUP1 SWAP2 SUB SWAP1 REVERT JUMPDEST PUSH1 0x0 DUP2 GT DUP1 ISZERO PUSH3 0x90 JUMPI POP DUP2 MLOAD DUP2 GT ISZERO JUMPDEST PUSH3 0xD2 JUMPI PUSH1 0x40 MLOAD PUSH32 0x8C379A000000000000000000000000000000000000000000000000000000000 DUP2 MSTORE PUSH1 0x4 ADD PUSH3 0xC9 SWAP1 PUSH3 0x627 JUMP JUMPDEST PUSH1 0x40 MLOAD DUP1 SWAP2 SUB SWAP1 REVERT JUMPDEST PUSH1 0x0 JUMPDEST DUP3 MLOAD DUP2 LT ISZERO PUSH3 0x244 JUMPI PUSH1 0x0 DUP4 DUP3 DUP2 MLOAD DUP2 LT PUSH3 0xF7 JUMPI PUSH3 0xF6 PUSH3 0x649 JUMP JUMPDEST JUMPDEST PUSH1 0x20 MUL PUSH1 0x20 ADD ADD MLOAD SWAP1 POP PUSH1 0x0 PUSH20 0xFFFFFFFFFFFFFFFFFFFFFFFFFFFFFFFFFFFFFFFF AND DUP2 PUSH20 0xFFFFFFFFFFFFFFFFFFFFFFFFFFFFFFFFFFFFFFFF AND SUB PUSH3 0x173 JUMPI PUSH1 0x40 MLOAD PUSH32 0x8C379A000000000000000000000000000000000000000000000000000000000 DUP2 MSTORE PUSH1 0x4 ADD PUSH3 0x16A SWAP1 PUSH3 0x6C8 JUMP JUMPDEST PUSH1 0x40 MLOAD DUP1 SWAP2 SUB SWAP1 REVERT JUMPDEST PUSH1 0x1 DUP1 PUSH1 0x0 DUP4 PUSH20 0xFFFFFFFFFFFFFFFFFFFFFFFFFFFFFFFFFFFFFFFF AND PUSH20 0xFFFFFFFFFFFFFFFFFFFFFFFFFFFFFFFFFFFFFFFF AND DUP2 MSTORE PUSH1 0x20 ADD SWAP1 DUP2 MSTORE PUSH1 0x20 ADD PUSH1 0x0 KECCAK256 PUSH1 0x0 PUSH2 0x100 EXP DUP2 SLOAD DUP2 PUSH1 0xFF MUL NOT AND SWAP1 DUP4 ISZERO ISZERO MUL OR SWAP1 SSTORE POP PUSH1 0x0 DUP2 SWAP1 DUP1 PUSH1 0x1 DUP2 SLOAD ADD DUP1 DUP3 SSTORE DUP1 SWAP2 POP POP PUSH1 0x1 SWAP1 SUB SWAP1 PUSH1 0x0 MSTORE PUSH1 0x20 PUSH1 0x0 KECCAK256 ADD PUSH1 0x0 SWAP1 SWAP2 SWAP1 SWAP2 SWAP1 SWAP2 PUSH2 0x100 EXP DUP2 SLOAD DUP2 PUSH20 0xFFFFFFFFFFFFFFFFFFFFFFFFFFFFFFFFFFFFFFFF MUL NOT AND SWAP1 DUP4 PUSH20 0xFFFFFFFFFFFFFFFFFFFFFFFFFFFFFFFFFFFFFFFF AND MUL OR SWAP1 SSTORE POP POP DUP1 DUP1 PUSH3 0x23B SWAP1 PUSH3 0x719 JUMP JUMPDEST SWAP2 POP POP PUSH3 0xD5 JUMP JUMPDEST POP DUP1 PUSH1 0x0 DUP1 SLOAD SWAP1 POP LT ISZERO PUSH3 0x290 JUMPI PUSH1 0x40 MLOAD PUSH32 0x8C379A000000000000000000000000000000000000000000000000000000000 DUP2 MSTORE PUSH1 0x4 ADD PUSH3 0x287 SWAP1 PUSH3 0x7B6 JUMP JUMPDEST PUSH1 0x40 MLOAD DUP1 SWAP2 SUB SWAP1 REVERT JUMPDEST DUP1 PUSH1 0x2 DUP2 SWAP1 SSTORE POP POP POP PUSH3 0x7D8 JUMP JUMPDEST PUSH1 0x0 PUSH1 0x40 MLOAD SWAP1 POP SWAP1 JUMP JUMPDEST PUSH1 0x0 DUP1 REVERT JUMPDEST PUSH1 0x0 DUP1 REVERT JUMPDEST PUSH1 0x0 DUP1 REVERT JUMPDEST PUSH1 0x0 PUSH1 0x1F NOT PUSH1 0x1F DUP4 ADD AND SWAP1 POP SWAP2 SWAP1 POP JUMP JUMPDEST PUSH32 0x4E487B7100000000000000000000000000000000000000000000000000000000 PUSH1 0x0 MSTORE PUSH1 0x41 PUSH1 0x4 MSTORE PUSH1 0x24 PUSH1 0x0 REVERT JUMPDEST PUSH3 0x303 DUP3 PUSH3 0x2B8 JUMP JUMPDEST DUP2 ADD DUP2 DUP2 LT PUSH8 0xFFFFFFFFFFFFFFFF DUP3 GT OR ISZERO PUSH3 0x325 JUMPI PUSH3 0x324 PUSH3 0x2C9 JUMP JUMPDEST JUMPDEST DUP1 PUSH1 0x40 MSTORE POP POP POP JUMP JUMPDEST PUSH1 0x0 PUSH3 0x33A PUSH3 0x29F JUMP JUMPDEST SWAP1 POP PUSH3 0x348 DUP3 DUP3 PUSH3 0x2F8 JUMP JUMPDEST SWAP2 SWAP1 POP JUMP JUMPDEST PUSH1 0x0 PUSH8 0xFFFFFFFFFFFFFFFF DUP3 GT ISZERO PUSH3 0x36B JUMPI PUSH3 0x36A PUSH3 0x2C9 JUMP JUMPDEST JUMPDEST PUSH1 0x20 DUP3 MUL SWAP1 POP PUSH1 0x20 DUP2 ADD SWAP1 POP SWAP2 SWAP1 POP JUMP JUMPDEST PUSH1 0x0 DUP1 REVERT JUMPDEST PUSH1 0x0 PUSH20 0xFFFFFFFFFFFFFFFFFFFFFFFFFFFFFFFFFFFFFFFF DUP3 AND SWAP1 POP SWAP2 SWAP1 POP JUMP JUMPDEST PUSH1 0x0 PUSH3 0x3AE DUP3 PUSH3 0x381 JUMP JUMPDEST SWAP1 POP SWAP2 SWAP1 POP JUMP JUMPDEST PUSH3 0x3C0 DUP2 PUSH3 0x3A1 JUMP JUMPDEST DUP2 EQ PUSH3 0x3CC JUMPI PUSH1 0x0 DUP1 REVERT JUMPDEST POP JUMP JUMPDEST PUSH1 0x0 DUP2 MLOAD SWAP1 POP PUSH3 0x3E0 DUP2 PUSH3 0x3B5 JUMP JUMPDEST SWAP3 SWAP2 POP POP JUMP JUMPDEST PUSH1 0x0 PUSH3 0x3FD PUSH3 0x3F7 DUP5 PUSH3 0x34D JUMP JUMPDEST PUSH3 0x32E JUMP JUMPDEST SWAP1 POP DUP1 DUP4 DUP3 MSTORE PUSH1 0x20 DUP3 ADD SWAP1 POP PUSH1 0x20 DUP5 MUL DUP4 ADD DUP6 DUP2 GT ISZERO PUSH3 0x423 JUMPI PUSH3 0x422 PUSH3 0x37C JUMP JUMPDEST JUMPDEST DUP4 JUMPDEST DUP2 DUP2 LT ISZERO PUSH3 0x450 JUMPI DUP1 PUSH3 0x43B DUP9 DUP3 PUSH3 0x3CF JUMP JUMPDEST DUP5 MSTORE PUSH1 0x20 DUP5 ADD SWAP4 POP POP PUSH1 0x20 DUP2 ADD SWAP1 POP PUSH3 0x425 JUMP JUMPDEST POP POP POP SWAP4 SWAP3 POP POP POP JUMP JUMPDEST PUSH1 0x0 DUP3 PUSH1 0x1F DUP4 ADD SLT PUSH3 0x472 JUMPI PUSH3 0x471 PUSH3 0x2B3 JUMP JUMPDEST JUMPDEST DUP2 MLOAD PUSH3 0x484 DUP5 DUP3 PUSH1 0x20 DUP7 ADD PUSH3 0x3E6 JUMP JUMPDEST SWAP2 POP POP SWAP3 SWAP2 POP POP JUMP JUMPDEST PUSH1 0x0 DUP2 SWAP1 POP SWAP2 SWAP1 POP JUMP JUMPDEST PUSH3 0x4A2 DUP2 PUSH3 0x48D JUMP JUMPDEST DUP2 EQ PUSH3 0x4AE JUMPI PUSH1 0x0 DUP1 REVERT JUMPDEST POP JUMP JUMPDEST PUSH1 0x0 DUP2 MLOAD SWAP1 POP PUSH3 0x4C2 DUP2 PUSH3 0x497 JUMP JUMPDEST SWAP3 SWAP2 POP POP JUMP JUMPDEST PUSH1 0x0 DUP1 PUSH1 0x40 DUP4 DUP6 SUB SLT ISZERO PUSH3 0x4E2 JUMPI PUSH3 0x4E1 PUSH3 0x2A9 JUMP JUMPDEST JUMPDEST PUSH1 0x0 DUP4 ADD MLOAD PUSH8 0xFFFFFFFFFFFFFFFF DUP2 GT ISZERO PUSH3 0x503 JUMPI PUSH3 0x502 PUSH3 0x2AE JUMP JUMPDEST JUMPDEST PUSH3 0x511 DUP6 DUP3 DUP7 ADD PUSH3 0x45A JUMP JUMPDEST SWAP3 POP POP PUSH1 0x20 PUSH3 0x524 DUP6 DUP3 DUP7 ADD PUSH3 0x4B1 JUMP JUMPDEST SWAP2 POP POP SWAP3 POP SWAP3 SWAP1 POP JUMP JUMPDEST PUSH1 0x0 DUP3 DUP3 MSTORE PUSH1 0x20 DUP3 ADD SWAP1 POP SWAP3 SWAP2 POP POP JUMP JUMPDEST PUSH32 0x6F776E6572206973207265717569726564000000000000000000000000000000 PUSH1 0x0 DUP3 ADD MSTORE POP JUMP JUMPDEST PUSH1 0x0 PUSH3 0x577 PUSH1 0x11 DUP4 PUSH3 0x52E JUMP JUMPDEST SWAP2 POP PUSH3 0x584 DUP3 PUSH3 0x53F JUMP JUMPDEST PUSH1 0x20 DUP3 ADD SWAP1 POP SWAP2 SWAP1 POP JUMP JUMPDEST PUSH1 0x0 PUSH1 0x20 DUP3 ADD SWAP1 POP DUP2 DUP2 SUB PUSH1 0x0 DUP4 ADD MSTORE PUSH3 0x5AA DUP2 PUSH3 0x568 JUMP JUMPDEST SWAP1 POP SWAP2 SWAP1 POP JUMP JUMPDEST PUSH32 0x696E76616C6964207265717569726564206E756D626572206F66206F776E6572 PUSH1 0x0 DUP3 ADD MSTORE PUSH32 0x7300000000000000000000000000000000000000000000000000000000000000 PUSH1 0x20 DUP3 ADD MSTORE POP JUMP JUMPDEST PUSH1 0x0 PUSH3 0x60F PUSH1 0x21 DUP4 PUSH3 0x52E JUMP JUMPDEST SWAP2 POP PUSH3 0x61C DUP3 PUSH3 0x5B1 JUMP JUMPDEST PUSH1 0x40 DUP3 ADD SWAP1 POP SWAP2 SWAP1 POP JUMP JUMPDEST PUSH1 0x0 PUSH1 0x20 DUP3 ADD SWAP1 POP DUP2 DUP2 SUB PUSH1 0x0 DUP4 ADD MSTORE PUSH3 0x642 DUP2 PUSH3 0x600 JUMP JUMPDEST SWAP1 POP SWAP2 SWAP1 POP JUMP JUMPDEST PUSH32 0x4E487B7100000000000000000000000000000000000000000000000000000000 PUSH1 0x0 MSTORE PUSH1 0x32 PUSH1 0x4 MSTORE PUSH1 0x24 PUSH1 0x0 REVERT JUMPDEST PUSH32 0x6F776E6572206973203020616464726573730000000000000000000000000000 PUSH1 0x0 DUP3 ADD MSTORE POP JUMP JUMPDEST PUSH1 0x0 PUSH3 0x6B0 PUSH1 0x12 DUP4 PUSH3 0x52E JUMP JUMPDEST SWAP2 POP PUSH3 0x6BD DUP3 PUSH3 0x678 JUMP JUMPDEST PUSH1 0x20 DUP3 ADD SWAP1 POP SWAP2 SWAP1 POP JUMP JUMPDEST PUSH1 0x0 PUSH1 0x20 DUP3 ADD SWAP1 POP DUP2 DUP2 SUB PUSH1 0x0 DUP4 ADD MSTORE PUSH3 0x6E3 DUP2 PUSH3 0x6A1 JUMP JUMPDEST SWAP1 POP SWAP2 SWAP1 POP JUMP JUMPDEST PUSH32 0x4E487B7100000000000000000000000000000000000000000000000000000000 PUSH1 0x0 MSTORE PUSH1 0x11 PUSH1 0x4 MSTORE PUSH1 0x24 PUSH1 0x0 REVERT JUMPDEST PUSH1 0x0 PUSH3 0x726 DUP3 PUSH3 0x48D JUMP JUMPDEST SWAP2 POP PUSH32 0xFFFFFFFFFFFFFFFFFFFFFFFFFFFFFFFFFFFFFFFFFFFFFFFFFFFFFFFFFFFFFFFF DUP3 SUB PUSH3 0x75B JUMPI PUSH3 0x75A PUSH3 0x6EA JUMP JUMPDEST JUMPDEST PUSH1 0x1 DUP3 ADD SWAP1 POP SWAP2 SWAP1 POP JUMP JUMPDEST PUSH32 0x736F6D65206F66206F776E657220697320696E76616C69640000000000000000 PUSH1 0x0 DUP3 ADD MSTORE POP JUMP JUMPDEST PUSH1 0x0 PUSH3 0x79E PUSH1 0x18 DUP4 PUSH3 0x52E JUMP JUMPDEST SWAP2 POP PUSH3 0x7AB DUP3 PUSH3 0x766 JUMP JUMPDEST PUSH1 0x20 DUP3 ADD SWAP1 POP SWAP2 SWAP1 POP JUMP JUMPDEST PUSH1 0x0 PUSH1 0x20 DUP3 ADD SWAP1 POP DUP2 DUP2 SUB PUSH1 0x0 DUP4 ADD MSTORE PUSH3 0x7D1 DUP2 PUSH3 0x78F JUMP JUMPDEST SWAP1 POP SWAP2 SWAP1 POP JUMP JUMPDEST PUSH2 0x1A34 DUP1 PUSH3 0x7E8 PUSH1 0x0 CODECOPY PUSH1 0x0 RETURN INVALID PUSH1 0x80 PUSH1 0x40 MSTORE PUSH1 0x4 CALLDATASIZE LT PUSH2 0x8A JUMPI PUSH1 0x0 CALLDATALOAD PUSH1 0xE0 SHR DUP1 PUSH4 0x2F54BF6E GT PUSH2 0x59 JUMPI DUP1 PUSH4 0x2F54BF6E EQ PUSH2 0x1B0 JUMPI DUP1 PUSH4 0x9ACE38C2 EQ PUSH2 0x1ED JUMPI DUP1 PUSH4 0xB759F954 EQ PUSH2 0x22D JUMPI DUP1 PUSH4 0xDC8452CD EQ PUSH2 0x256 JUMPI DUP1 PUSH4 0xFE0D94C1 EQ PUSH2 0x281 JUMPI PUSH2 0xDF JUMP JUMPDEST DUP1 PUSH4 0x25E7C27 EQ PUSH2 0xE4 JUMPI DUP1 PUSH4 0x949DC07 EQ PUSH2 0x121 JUMPI DUP1 PUSH4 0x203DD666 EQ PUSH2 0x15E JUMPI DUP1 PUSH4 0x20C5429B EQ PUSH2 0x187 JUMPI PUSH2 0xDF JUMP JUMPDEST CALLDATASIZE PUSH2 0xDF JUMPI CALLER PUSH20 0xFFFFFFFFFFFFFFFFFFFFFFFFFFFFFFFFFFFFFFFF AND PUSH32 0xE1FFFCC4923D04B559F4D29A8BFC6CDA04EB5B0D3C460751C2402C5C5CC9109C CALLVALUE PUSH1 0x40 MLOAD PUSH2 0xD5 SWAP2 SWAP1 PUSH2 0xF1B JUMP JUMPDEST PUSH1 0x40 MLOAD DUP1 SWAP2 SUB SWAP1 LOG2 STOP JUMPDEST PUSH1 0x0 DUP1 REVERT JUMPDEST CALLVALUE DUP1 ISZERO PUSH2 0xF0 JUMPI PUSH1 0x0 DUP1 REVERT JUMPDEST POP PUSH2 0x10B PUSH1 0x4 DUP1 CALLDATASIZE SUB DUP2 ADD SWAP1 PUSH2 0x106 SWAP2 SWAP1 PUSH2 0xF67 JUMP JUMPDEST PUSH2 0x2AA JUMP JUMPDEST PUSH1 0x40 MLOAD PUSH2 0x118 SWAP2 SWAP1 PUSH2 0xFD5 JUMP JUMPDEST PUSH1 0x40 MLOAD DUP1 SWAP2 SUB SWAP1 RETURN JUMPDEST CALLVALUE DUP1 ISZERO PUSH2 0x12D JUMPI PUSH1 0x0 DUP1 REVERT JUMPDEST POP PUSH2 0x148 PUSH1 0x4 DUP1 CALLDATASIZE SUB DUP2 ADD SWAP1 PUSH2 0x143 SWAP2 SWAP1 PUSH2 0x101C JUMP JUMPDEST PUSH2 0x2E9 JUMP JUMPDEST PUSH1 0x40 MLOAD PUSH2 0x155 SWAP2 SWAP1 PUSH2 0x1077 JUMP JUMPDEST PUSH1 0x40 MLOAD DUP1 SWAP2 SUB SWAP1 RETURN JUMPDEST CALLVALUE DUP1 ISZERO PUSH2 0x16A JUMPI PUSH1 0x0 DUP1 REVERT JUMPDEST POP PUSH2 0x185 PUSH1 0x4 DUP1 CALLDATASIZE SUB DUP2 ADD SWAP1 PUSH2 0x180 SWAP2 SWAP1 PUSH2 0x1092 JUMP JUMPDEST PUSH2 0x318 JUMP JUMPDEST STOP JUMPDEST CALLVALUE DUP1 ISZERO PUSH2 0x193 JUMPI PUSH1 0x0 DUP1 REVERT JUMPDEST POP PUSH2 0x1AE PUSH1 0x4 DUP1 CALLDATASIZE SUB DUP2 ADD SWAP1 PUSH2 0x1A9 SWAP2 SWAP1 PUSH2 0xF67 JUMP JUMPDEST PUSH2 0x55F JUMP JUMPDEST STOP JUMPDEST CALLVALUE DUP1 ISZERO PUSH2 0x1BC JUMPI PUSH1 0x0 DUP1 REVERT JUMPDEST POP PUSH2 0x1D7 PUSH1 0x4 DUP1 CALLDATASIZE SUB DUP2 ADD SWAP1 PUSH2 0x1D2 SWAP2 SWAP1 PUSH2 0x10D2 JUMP JUMPDEST PUSH2 0x803 JUMP JUMPDEST PUSH1 0x40 MLOAD PUSH2 0x1E4 SWAP2 SWAP1 PUSH2 0x1077 JUMP JUMPDEST PUSH1 0x40 MLOAD DUP1 SWAP2 SUB SWAP1 RETURN JUMPDEST CALLVALUE DUP1 ISZERO PUSH2 0x1F9 JUMPI PUSH1 0x0 DUP1 REVERT JUMPDEST POP PUSH2 0x214 PUSH1 0x4 DUP1 CALLDATASIZE SUB DUP2 ADD SWAP1 PUSH2 0x20F SWAP2 SWAP1 PUSH2 0xF67 JUMP JUMPDEST PUSH2 0x823 JUMP JUMPDEST PUSH1 0x40 MLOAD PUSH2 0x224 SWAP5 SWAP4 SWAP3 SWAP2 SWAP1 PUSH2 0x118F JUMP JUMPDEST PUSH1 0x40 MLOAD DUP1 SWAP2 SUB SWAP1 RETURN JUMPDEST CALLVALUE DUP1 ISZERO PUSH2 0x239 JUMPI PUSH1 0x0 DUP1 REVERT JUMPDEST POP PUSH2 0x254 PUSH1 0x4 DUP1 CALLDATASIZE SUB DUP2 ADD SWAP1 PUSH2 0x24F SWAP2 SWAP1 PUSH2 0xF67 JUMP JUMPDEST PUSH2 0x918 JUMP JUMPDEST STOP JUMPDEST CALLVALUE DUP1 ISZERO PUSH2 0x262 JUMPI PUSH1 0x0 DUP1 REVERT JUMPDEST POP PUSH2 0x26B PUSH2 0xBBF JUMP JUMPDEST PUSH1 0x40 MLOAD PUSH2 0x278 SWAP2 SWAP1 PUSH2 0xF1B JUMP JUMPDEST PUSH1 0x40 MLOAD DUP1 SWAP2 SUB SWAP1 RETURN JUMPDEST CALLVALUE DUP1 ISZERO PUSH2 0x28D JUMPI PUSH1 0x0 DUP1 REVERT JUMPDEST POP PUSH2 0x2A8 PUSH1 0x4 DUP1 CALLDATASIZE SUB DUP2 ADD SWAP1 PUSH2 0x2A3 SWAP2 SWAP1 PUSH2 0xF67 JUMP JUMPDEST PUSH2 0xBC5 JUMP JUMPDEST STOP JUMPDEST PUSH1 0x0 DUP2 DUP2 SLOAD DUP2 LT PUSH2 0x2BA JUMPI PUSH1 0x0 DUP1 REVERT JUMPDEST SWAP1 PUSH1 0x0 MSTORE PUSH1 0x20 PUSH1 0x0 KECCAK256 ADD PUSH1 0x0 SWAP2 POP SLOAD SWAP1 PUSH2 0x100 EXP SWAP1 DIV PUSH20 0xFFFFFFFFFFFFFFFFFFFFFFFFFFFFFFFFFFFFFFFF AND DUP2 JUMP JUMPDEST PUSH1 0x4 PUSH1 0x20 MSTORE DUP2 PUSH1 0x0 MSTORE PUSH1 0x40 PUSH1 0x0 KECCAK256 PUSH1 0x20 MSTORE DUP1 PUSH1 0x0 MSTORE PUSH1 0x40 PUSH1 0x0 KECCAK256 PUSH1 0x0 SWAP2 POP SWAP2 POP SWAP1 SLOAD SWAP1 PUSH2 0x100 EXP SWAP1 DIV PUSH1 0xFF AND DUP2 JUMP JUMPDEST PUSH1 0x1 PUSH1 0x0 CALLER PUSH20 0xFFFFFFFFFFFFFFFFFFFFFFFFFFFFFFFFFFFFFFFF AND PUSH20 0xFFFFFFFFFFFFFFFFFFFFFFFFFFFFFFFFFFFFFFFF AND DUP2 MSTORE PUSH1 0x20 ADD SWAP1 DUP2 MSTORE PUSH1 0x20 ADD PUSH1 0x0 KECCAK256 PUSH1 0x0 SWAP1 SLOAD SWAP1 PUSH2 0x100 EXP SWAP1 DIV PUSH1 0xFF AND PUSH2 0x3A4 JUMPI PUSH1 0x40 MLOAD PUSH32 0x8C379A000000000000000000000000000000000000000000000000000000000 DUP2 MSTORE PUSH1 0x4 ADD PUSH2 0x39B SWAP1 PUSH2 0x125E JUMP JUMPDEST PUSH1 0x40 MLOAD DUP1 SWAP2 SUB SWAP1 REVERT JUMPDEST PUSH1 0x3 PUSH1 0x40 MLOAD DUP1 PUSH1 0x80 ADD PUSH1 0x40 MSTORE DUP1 DUP5 PUSH20 0xFFFFFFFFFFFFFFFFFFFFFFFFFFFFFFFFFFFFFFFF AND DUP2 MSTORE PUSH1 0x20 ADD DUP4 DUP2 MSTORE PUSH1 0x20 ADD PUSH1 0x40 MLOAD PUSH1 0x24 ADD PUSH2 0x3E2 SWAP1 PUSH2 0x12CA JUMP JUMPDEST PUSH1 0x40 MLOAD PUSH1 0x20 DUP2 DUP4 SUB SUB DUP2 MSTORE SWAP1 PUSH1 0x40 MSTORE PUSH32 0x55F9DE8200000000000000000000000000000000000000000000000000000000 PUSH28 0xFFFFFFFFFFFFFFFFFFFFFFFFFFFFFFFFFFFFFFFFFFFFFFFFFFFFFFFF NOT AND PUSH1 0x20 DUP3 ADD DUP1 MLOAD PUSH28 0xFFFFFFFFFFFFFFFFFFFFFFFFFFFFFFFFFFFFFFFFFFFFFFFFFFFFFFFF DUP4 DUP2 DUP4 AND OR DUP4 MSTORE POP POP POP POP DUP2 MSTORE PUSH1 0x20 ADD PUSH1 0x0 ISZERO ISZERO DUP2 MSTORE POP SWAP1 DUP1 PUSH1 0x1 DUP2 SLOAD ADD DUP1 DUP3 SSTORE DUP1 SWAP2 POP POP PUSH1 0x1 SWAP1 SUB SWAP1 PUSH1 0x0 MSTORE PUSH1 0x20 PUSH1 0x0 KECCAK256 SWAP1 PUSH1 0x4 MUL ADD PUSH1 0x0 SWAP1 SWAP2 SWAP1 SWAP2 SWAP1 SWAP2 POP PUSH1 0x0 DUP3 ADD MLOAD DUP2 PUSH1 0x0 ADD PUSH1 0x0 PUSH2 0x100 EXP DUP2 SLOAD DUP2 PUSH20 0xFFFFFFFFFFFFFFFFFFFFFFFFFFFFFFFFFFFFFFFF MUL NOT AND SWAP1 DUP4 PUSH20 0xFFFFFFFFFFFFFFFFFFFFFFFFFFFFFFFFFFFFFFFF AND MUL OR SWAP1 SSTORE POP PUSH1 0x20 DUP3 ADD MLOAD DUP2 PUSH1 0x1 ADD SSTORE PUSH1 0x40 DUP3 ADD MLOAD DUP2 PUSH1 0x2 ADD SWAP1 DUP2 PUSH2 0x4FA SWAP2 SWAP1 PUSH2 0x1525 JUMP JUMPDEST POP PUSH1 0x60 DUP3 ADD MLOAD DUP2 PUSH1 0x3 ADD PUSH1 0x0 PUSH2 0x100 EXP DUP2 SLOAD DUP2 PUSH1 0xFF MUL NOT AND SWAP1 DUP4 ISZERO ISZERO MUL OR SWAP1 SSTORE POP POP POP PUSH1 0x1 PUSH1 0x3 DUP1 SLOAD SWAP1 POP PUSH2 0x52F SWAP2 SWAP1 PUSH2 0x1626 JUMP JUMPDEST PUSH32 0x8324B3D745B914E3ABD4FFBFEAD91E3B78391A98C173202129215AB933ADFBE PUSH1 0x40 MLOAD PUSH1 0x40 MLOAD DUP1 SWAP2 SUB SWAP1 LOG2 POP POP JUMP JUMPDEST PUSH1 0x1 PUSH1 0x0 CALLER PUSH20 0xFFFFFFFFFFFFFFFFFFFFFFFFFFFFFFFFFFFFFFFF AND PUSH20 0xFFFFFFFFFFFFFFFFFFFFFFFFFFFFFFFFFFFFFFFF AND DUP2 MSTORE PUSH1 0x20 ADD SWAP1 DUP2 MSTORE PUSH1 0x20 ADD PUSH1 0x0 KECCAK256 PUSH1 0x0 SWAP1 SLOAD SWAP1 PUSH2 0x100 EXP SWAP1 DIV PUSH1 0xFF AND PUSH2 0x5EB JUMPI PUSH1 0x40 MLOAD PUSH32 0x8C379A000000000000000000000000000000000000000000000000000000000 DUP2 MSTORE PUSH1 0x4 ADD PUSH2 0x5E2 SWAP1 PUSH2 0x125E JUMP JUMPDEST PUSH1 0x40 MLOAD DUP1 SWAP2 SUB SWAP1 REVERT JUMPDEST DUP1 PUSH1 0x3 DUP1 SLOAD SWAP1 POP DUP2 LT DUP1 ISZERO PUSH2 0x601 JUMPI POP PUSH1 0x0 DUP2 LT ISZERO JUMPDEST PUSH2 0x640 JUMPI PUSH1 0x40 MLOAD PUSH32 0x8C379A000000000000000000000000000000000000000000000000000000000 DUP2 MSTORE PUSH1 0x4 ADD PUSH2 0x637 SWAP1 PUSH2 0x16A6 JUMP JUMPDEST PUSH1 0x40 MLOAD DUP1 SWAP2 SUB SWAP1 REVERT JUMPDEST DUP2 PUSH1 0x3 DUP2 DUP2 SLOAD DUP2 LT PUSH2 0x655 JUMPI PUSH2 0x654 PUSH2 0x16C6 JUMP JUMPDEST JUMPDEST SWAP1 PUSH1 0x0 MSTORE PUSH1 0x20 PUSH1 0x0 KECCAK256 SWAP1 PUSH1 0x4 MUL ADD PUSH1 0x3 ADD PUSH1 0x0 SWAP1 SLOAD SWAP1 PUSH2 0x100 EXP SWAP1 DIV PUSH1 0xFF AND ISZERO PUSH2 0x6B4 JUMPI PUSH1 0x40 MLOAD PUSH32 0x8C379A000000000000000000000000000000000000000000000000000000000 DUP2 MSTORE PUSH1 0x4 ADD PUSH2 0x6AB SWAP1 PUSH2 0x1741 JUMP JUMPDEST PUSH1 0x40 MLOAD DUP1 SWAP2 SUB SWAP1 REVERT JUMPDEST PUSH1 0x4 PUSH1 0x0 DUP5 DUP2 MSTORE PUSH1 0x20 ADD SWAP1 DUP2 MSTORE PUSH1 0x20 ADD PUSH1 0x0 KECCAK256 PUSH1 0x0 CALLER PUSH20 0xFFFFFFFFFFFFFFFFFFFFFFFFFFFFFFFFFFFFFFFF AND PUSH20 0xFFFFFFFFFFFFFFFFFFFFFFFFFFFFFFFFFFFFFFFF AND DUP2 MSTORE PUSH1 0x20 ADD SWAP1 DUP2 MSTORE PUSH1 0x20 ADD PUSH1 0x0 KECCAK256 PUSH1 0x0 SWAP1 SLOAD SWAP1 PUSH2 0x100 EXP SWAP1 DIV PUSH1 0xFF AND PUSH2 0x751 JUMPI PUSH1 0x40 MLOAD PUSH32 0x8C379A000000000000000000000000000000000000000000000000000000000 DUP2 MSTORE PUSH1 0x4 ADD PUSH2 0x748 SWAP1 PUSH2 0x17AD JUMP JUMPDEST PUSH1 0x40 MLOAD DUP1 SWAP2 SUB SWAP1 REVERT JUMPDEST PUSH1 0x0 PUSH1 0x4 PUSH1 0x0 DUP6 DUP2 MSTORE PUSH1 0x20 ADD SWAP1 DUP2 MSTORE PUSH1 0x20 ADD PUSH1 0x0 KECCAK256 PUSH1 0x0 CALLER PUSH20 0xFFFFFFFFFFFFFFFFFFFFFFFFFFFFFFFFFFFFFFFF AND PUSH20 0xFFFFFFFFFFFFFFFFFFFFFFFFFFFFFFFFFFFFFFFF AND DUP2 MSTORE PUSH1 0x20 ADD SWAP1 DUP2 MSTORE PUSH1 0x20 ADD PUSH1 0x0 KECCAK256 PUSH1 0x0 PUSH2 0x100 EXP DUP2 SLOAD DUP2 PUSH1 0xFF MUL NOT AND SWAP1 DUP4 ISZERO ISZERO MUL OR SWAP1 SSTORE POP DUP3 CALLER PUSH20 0xFFFFFFFFFFFFFFFFFFFFFFFFFFFFFFFFFFFFFFFF AND PUSH32 0xEC9AB91322523C899EDE7830EC9BFC992B5981CDCC27B91162FB23DE5791117B PUSH1 0x40 MLOAD PUSH1 0x40 MLOAD DUP1 SWAP2 SUB SWAP1 LOG3 POP POP POP JUMP JUMPDEST PUSH1 0x1 PUSH1 0x20 MSTORE DUP1 PUSH1 0x0 MSTORE PUSH1 0x40 PUSH1 0x0 KECCAK256 PUSH1 0x0 SWAP2 POP SLOAD SWAP1 PUSH2 0x100 EXP SWAP1 DIV PUSH1 0xFF AND DUP2 JUMP JUMPDEST PUSH1 0x3 DUP2 DUP2 SLOAD DUP2 LT PUSH2 0x833 JUMPI PUSH1 0x0 DUP1 REVERT JUMPDEST SWAP1 PUSH1 0x0 MSTORE PUSH1 0x20 PUSH1 0x0 KECCAK256 SWAP1 PUSH1 0x4 MUL ADD PUSH1 0x0 SWAP2 POP SWAP1 POP DUP1 PUSH1 0x0 ADD PUSH1 0x0 SWAP1 SLOAD SWAP1 PUSH2 0x100 EXP SWAP1 DIV PUSH20 0xFFFFFFFFFFFFFFFFFFFFFFFFFFFFFFFFFFFFFFFF AND SWAP1 DUP1 PUSH1 0x1 ADD SLOAD SWAP1 DUP1 PUSH1 0x2 ADD DUP1 SLOAD PUSH2 0x882 SWAP1 PUSH2 0x1348 JUMP JUMPDEST DUP1 PUSH1 0x1F ADD PUSH1 0x20 DUP1 SWAP2 DIV MUL PUSH1 0x20 ADD PUSH1 0x40 MLOAD SWAP1 DUP2 ADD PUSH1 0x40 MSTORE DUP1 SWAP3 SWAP2 SWAP1 DUP2 DUP2 MSTORE PUSH1 0x20 ADD DUP3 DUP1 SLOAD PUSH2 0x8AE SWAP1 PUSH2 0x1348 JUMP JUMPDEST DUP1 ISZERO PUSH2 0x8FB JUMPI DUP1 PUSH1 0x1F LT PUSH2 0x8D0 JUMPI PUSH2 0x100 DUP1 DUP4 SLOAD DIV MUL DUP4 MSTORE SWAP2 PUSH1 0x20 ADD SWAP2 PUSH2 0x8FB JUMP JUMPDEST DUP3 ADD SWAP2 SWAP1 PUSH1 0x0 MSTORE PUSH1 0x20 PUSH1 0x0 KECCAK256 SWAP1 JUMPDEST DUP2 SLOAD DUP2 MSTORE SWAP1 PUSH1 0x1 ADD SWAP1 PUSH1 0x20 ADD DUP1 DUP4 GT PUSH2 0x8DE JUMPI DUP3 SWAP1 SUB PUSH1 0x1F AND DUP3 ADD SWAP2 JUMPDEST POP POP POP POP POP SWAP1 DUP1 PUSH1 0x3 ADD PUSH1 0x0 SWAP1 SLOAD SWAP1 PUSH2 0x100 EXP SWAP1 DIV PUSH1 0xFF AND SWAP1 POP DUP5 JUMP JUMPDEST PUSH1 0x1 PUSH1 0x0 CALLER PUSH20 0xFFFFFFFFFFFFFFFFFFFFFFFFFFFFFFFFFFFFFFFF AND PUSH20 0xFFFFFFFFFFFFFFFFFFFFFFFFFFFFFFFFFFFFFFFF AND DUP2 MSTORE PUSH1 0x20 ADD SWAP1 DUP2 MSTORE PUSH1 0x20 ADD PUSH1 0x0 KECCAK256 PUSH1 0x0 SWAP1 SLOAD SWAP1 PUSH2 0x100 EXP SWAP1 DIV PUSH1 0xFF AND PUSH2 0x9A4 JUMPI PUSH1 0x40 MLOAD PUSH32 0x8C379A000000000000000000000000000000000000000000000000000000000 DUP2 MSTORE PUSH1 0x4 ADD PUSH2 0x99B SWAP1 PUSH2 0x125E JUMP JUMPDEST PUSH1 0x40 MLOAD DUP1 SWAP2 SUB SWAP1 REVERT JUMPDEST DUP1 PUSH1 0x3 DUP1 SLOAD SWAP1 POP DUP2 LT DUP1 ISZERO PUSH2 0x9BA JUMPI POP PUSH1 0x0 DUP2 LT ISZERO JUMPDEST PUSH2 0x9F9 JUMPI PUSH1 0x40 MLOAD PUSH32 0x8C379A000000000000000000000000000000000000000000000000000000000 DUP2 MSTORE PUSH1 0x4 ADD PUSH2 0x9F0 SWAP1 PUSH2 0x16A6 JUMP JUMPDEST PUSH1 0x40 MLOAD DUP1 SWAP2 SUB SWAP1 REVERT JUMPDEST DUP2 PUSH1 0x4 PUSH1 0x0 DUP3 DUP2 MSTORE PUSH1 0x20 ADD SWAP1 DUP2 MSTORE PUSH1 0x20 ADD PUSH1 0x0 KECCAK256 PUSH1 0x0 CALLER PUSH20 0xFFFFFFFFFFFFFFFFFFFFFFFFFFFFFFFFFFFFFFFF AND PUSH20 0xFFFFFFFFFFFFFFFFFFFFFFFFFFFFFFFFFFFFFFFF AND DUP2 MSTORE PUSH1 0x20 ADD SWAP1 DUP2 MSTORE PUSH1 0x20 ADD PUSH1 0x0 KECCAK256 PUSH1 0x0 SWAP1 SLOAD SWAP1 PUSH2 0x100 EXP SWAP1 DIV PUSH1 0xFF AND ISZERO PUSH2 0xA98 JUMPI PUSH1 0x40 MLOAD PUSH32 0x8C379A000000000000000000000000000000000000000000000000000000000 DUP2 MSTORE PUSH1 0x4 ADD PUSH2 0xA8F SWAP1 PUSH2 0x1819 JUMP JUMPDEST PUSH1 0x40 MLOAD DUP1 SWAP2 SUB SWAP1 REVERT JUMPDEST DUP3 PUSH1 0x3 DUP2 DUP2 SLOAD DUP2 LT PUSH2 0xAAD JUMPI PUSH2 0xAAC PUSH2 0x16C6 JUMP JUMPDEST JUMPDEST SWAP1 PUSH1 0x0 MSTORE PUSH1 0x20 PUSH1 0x0 KECCAK256 SWAP1 PUSH1 0x4 MUL ADD PUSH1 0x3 ADD PUSH1 0x0 SWAP1 SLOAD SWAP1 PUSH2 0x100 EXP SWAP1 DIV PUSH1 0xFF AND ISZERO PUSH2 0xB0C JUMPI PUSH1 0x40 MLOAD PUSH32 0x8C379A000000000000000000000000000000000000000000000000000000000 DUP2 MSTORE PUSH1 0x4 ADD PUSH2 0xB03 SWAP1 PUSH2 0x1741 JUMP JUMPDEST PUSH1 0x40 MLOAD DUP1 SWAP2 SUB SWAP1 REVERT JUMPDEST PUSH1 0x1 PUSH1 0x4 PUSH1 0x0 DUP7 DUP2 MSTORE PUSH1 0x20 ADD SWAP1 DUP2 MSTORE PUSH1 0x20 ADD PUSH1 0x0 KECCAK256 PUSH1 0x0 CALLER PUSH20 0xFFFFFFFFFFFFFFFFFFFFFFFFFFFFFFFFFFFFFFFF AND PUSH20 0xFFFFFFFFFFFFFFFFFFFFFFFFFFFFFFFFFFFFFFFF AND DUP2 MSTORE PUSH1 0x20 ADD SWAP1 DUP2 MSTORE PUSH1 0x20 ADD PUSH1 0x0 KECCAK256 PUSH1 0x0 PUSH2 0x100 EXP DUP2 SLOAD DUP2 PUSH1 0xFF MUL NOT AND SWAP1 DUP4 ISZERO ISZERO MUL OR SWAP1 SSTORE POP DUP4 CALLER PUSH20 0xFFFFFFFFFFFFFFFFFFFFFFFFFFFFFFFFFFFFFFFF AND PUSH32 0x90EC57F18FA7B15C6B8D5E4D1DEB90796C74B2FF23D4D0CECAD0CB42A96B3128 PUSH1 0x40 MLOAD PUSH1 0x40 MLOAD DUP1 SWAP2 SUB SWAP1 LOG3 POP POP POP POP JUMP JUMPDEST PUSH1 0x2 SLOAD DUP2 JUMP JUMPDEST DUP1 PUSH1 0x3 DUP1 SLOAD SWAP1 POP DUP2 LT DUP1 ISZERO PUSH2 0xBDB JUMPI POP PUSH1 0x0 DUP2 LT ISZERO JUMPDEST PUSH2 0xC1A JUMPI PUSH1 0x40 MLOAD PUSH32 0x8C379A000000000000000000000000000000000000000000000000000000000 DUP2 MSTORE PUSH1 0x4 ADD PUSH2 0xC11 SWAP1 PUSH2 0x16A6 JUMP JUMPDEST PUSH1 0x40 MLOAD DUP1 SWAP2 SUB SWAP1 REVERT JUMPDEST DUP2 PUSH1 0x3 DUP2 DUP2 SLOAD DUP2 LT PUSH2 0xC2F JUMPI PUSH2 0xC2E PUSH2 0x16C6 JUMP JUMPDEST JUMPDEST SWAP1 PUSH1 0x0 MSTORE PUSH1 0x20 PUSH1 0x0 KECCAK256 SWAP1 PUSH1 0x4 MUL ADD PUSH1 0x3 ADD PUSH1 0x0 SWAP1 SLOAD SWAP1 PUSH2 0x100 EXP SWAP1 DIV PUSH1 0xFF AND ISZERO PUSH2 0xC8E JUMPI PUSH1 0x40 MLOAD PUSH32 0x8C379A000000000000000000000000000000000000000000000000000000000 DUP2 MSTORE PUSH1 0x4 ADD PUSH2 0xC85 SWAP1 PUSH2 0x1741 JUMP JUMPDEST PUSH1 0x40 MLOAD DUP1 SWAP2 SUB SWAP1 REVERT JUMPDEST PUSH1 0x2 SLOAD PUSH2 0xC9A DUP5 PUSH2 0xE2B JUMP JUMPDEST LT ISZERO PUSH2 0xCDB JUMPI PUSH1 0x40 MLOAD PUSH32 0x8C379A000000000000000000000000000000000000000000000000000000000 DUP2 MSTORE PUSH1 0x4 ADD PUSH2 0xCD2 SWAP1 PUSH2 0x1885 JUMP JUMPDEST PUSH1 0x40 MLOAD DUP1 SWAP2 SUB SWAP1 REVERT JUMPDEST PUSH1 0x0 PUSH1 0x3 DUP5 DUP2 SLOAD DUP2 LT PUSH2 0xCF1 JUMPI PUSH2 0xCF0 PUSH2 0x16C6 JUMP JUMPDEST JUMPDEST SWAP1 PUSH1 0x0 MSTORE PUSH1 0x20 PUSH1 0x0 KECCAK256 SWAP1 PUSH1 0x4 MUL ADD SWAP1 POP PUSH1 0x1 DUP2 PUSH1 0x3 ADD PUSH1 0x0 PUSH2 0x100 EXP DUP2 SLOAD DUP2 PUSH1 0xFF MUL NOT AND SWAP1 DUP4 ISZERO ISZERO MUL OR SWAP1 SSTORE POP PUSH1 0x0 DUP2 PUSH1 0x0 ADD PUSH1 0x0 SWAP1 SLOAD SWAP1 PUSH2 0x100 EXP SWAP1 DIV PUSH20 0xFFFFFFFFFFFFFFFFFFFFFFFFFFFFFFFFFFFFFFFF AND PUSH20 0xFFFFFFFFFFFFFFFFFFFFFFFFFFFFFFFFFFFFFFFF AND DUP3 PUSH1 0x1 ADD SLOAD DUP4 PUSH1 0x2 ADD PUSH1 0x40 MLOAD PUSH2 0xD71 SWAP2 SWAP1 PUSH2 0x1933 JUMP JUMPDEST PUSH1 0x0 PUSH1 0x40 MLOAD DUP1 DUP4 SUB DUP2 DUP6 DUP8 GAS CALL SWAP3 POP POP POP RETURNDATASIZE DUP1 PUSH1 0x0 DUP2 EQ PUSH2 0xDAE JUMPI PUSH1 0x40 MLOAD SWAP2 POP PUSH1 0x1F NOT PUSH1 0x3F RETURNDATASIZE ADD AND DUP3 ADD PUSH1 0x40 MSTORE RETURNDATASIZE DUP3 MSTORE RETURNDATASIZE PUSH1 0x0 PUSH1 0x20 DUP5 ADD RETURNDATACOPY PUSH2 0xDB3 JUMP JUMPDEST PUSH1 0x60 SWAP2 POP JUMPDEST POP POP SWAP1 POP DUP1 PUSH2 0xDF7 JUMPI PUSH1 0x40 MLOAD PUSH32 0x8C379A000000000000000000000000000000000000000000000000000000000 DUP2 MSTORE PUSH1 0x4 ADD PUSH2 0xDEE SWAP1 PUSH2 0x1996 JUMP JUMPDEST PUSH1 0x40 MLOAD DUP1 SWAP2 SUB SWAP1 REVERT JUMPDEST DUP5 PUSH32 0xDDB556F1D2C1EC821E910B019D3685B229DB152A0ECD517CA7E24B8BD7139289 PUSH1 0x40 MLOAD PUSH1 0x40 MLOAD DUP1 SWAP2 SUB SWAP1 LOG2 POP POP POP POP POP JUMP JUMPDEST PUSH1 0x0 DUP1 JUMPDEST PUSH1 0x0 DUP1 SLOAD SWAP1 POP DUP2 LT ISZERO PUSH2 0xEFC JUMPI PUSH1 0x4 PUSH1 0x0 DUP5 DUP2 MSTORE PUSH1 0x20 ADD SWAP1 DUP2 MSTORE PUSH1 0x20 ADD PUSH1 0x0 KECCAK256 PUSH1 0x0 DUP1 DUP4 DUP2 SLOAD DUP2 LT PUSH2 0xE64 JUMPI PUSH2 0xE63 PUSH2 0x16C6 JUMP JUMPDEST JUMPDEST SWAP1 PUSH1 0x0 MSTORE PUSH1 0x20 PUSH1 0x0 KECCAK256 ADD PUSH1 0x0 SWAP1 SLOAD SWAP1 PUSH2 0x100 EXP SWAP1 DIV PUSH20 0xFFFFFFFFFFFFFFFFFFFFFFFFFFFFFFFFFFFFFFFF AND PUSH20 0xFFFFFFFFFFFFFFFFFFFFFFFFFFFFFFFFFFFFFFFF AND PUSH20 0xFFFFFFFFFFFFFFFFFFFFFFFFFFFFFFFFFFFFFFFF AND DUP2 MSTORE PUSH1 0x20 ADD SWAP1 DUP2 MSTORE PUSH1 0x20 ADD PUSH1 0x0 KECCAK256 PUSH1 0x0 SWAP1 SLOAD SWAP1 PUSH2 0x100 EXP SWAP1 DIV PUSH1 0xFF AND ISZERO PUSH2 0xEE9 JUMPI DUP2 PUSH2 0xEE6 SWAP1 PUSH2 0x19B6 JUMP JUMPDEST SWAP2 POP JUMPDEST DUP1 DUP1 PUSH2 0xEF4 SWAP1 PUSH2 0x19B6 JUMP JUMPDEST SWAP2 POP POP PUSH2 0xE2F JUMP JUMPDEST POP SWAP2 SWAP1 POP JUMP JUMPDEST PUSH1 0x0 DUP2 SWAP1 POP SWAP2 SWAP1 POP JUMP JUMPDEST PUSH2 0xF15 DUP2 PUSH2 0xF02 JUMP JUMPDEST DUP3 MSTORE POP POP JUMP JUMPDEST PUSH1 0x0 PUSH1 0x20 DUP3 ADD SWAP1 POP PUSH2 0xF30 PUSH1 0x0 DUP4 ADD DUP5 PUSH2 0xF0C JUMP JUMPDEST SWAP3 SWAP2 POP POP JUMP JUMPDEST PUSH1 0x0 DUP1 REVERT JUMPDEST PUSH2 0xF44 DUP2 PUSH2 0xF02 JUMP JUMPDEST DUP2 EQ PUSH2 0xF4F JUMPI PUSH1 0x0 DUP1 REVERT JUMPDEST POP JUMP JUMPDEST PUSH1 0x0 DUP2 CALLDATALOAD SWAP1 POP PUSH2 0xF61 DUP2 PUSH2 0xF3B JUMP JUMPDEST SWAP3 SWAP2 POP POP JUMP JUMPDEST PUSH1 0x0 PUSH1 0x20 DUP3 DUP5 SUB SLT ISZERO PUSH2 0xF7D JUMPI PUSH2 0xF7C PUSH2 0xF36 JUMP JUMPDEST JUMPDEST PUSH1 0x0 PUSH2 0xF8B DUP5 DUP3 DUP6 ADD PUSH2 0xF52 JUMP JUMPDEST SWAP2 POP POP SWAP3 SWAP2 POP POP JUMP JUMPDEST PUSH1 0x0 PUSH20 0xFFFFFFFFFFFFFFFFFFFFFFFFFFFFFFFFFFFFFFFF DUP3 AND SWAP1 POP SWAP2 SWAP1 POP JUMP JUMPDEST PUSH1 0x0 PUSH2 0xFBF DUP3 PUSH2 0xF94 JUMP JUMPDEST SWAP1 POP SWAP2 SWAP1 POP JUMP JUMPDEST PUSH2 0xFCF DUP2 PUSH2 0xFB4 JUMP JUMPDEST DUP3 MSTORE POP POP JUMP JUMPDEST PUSH1 0x0 PUSH1 0x20 DUP3 ADD SWAP1 POP PUSH2 0xFEA PUSH1 0x0 DUP4 ADD DUP5 PUSH2 0xFC6 JUMP JUMPDEST SWAP3 SWAP2 POP POP JUMP JUMPDEST PUSH2 0xFF9 DUP2 PUSH2 0xFB4 JUMP JUMPDEST DUP2 EQ PUSH2 0x1004 JUMPI PUSH1 0x0 DUP1 REVERT JUMPDEST POP JUMP JUMPDEST PUSH1 0x0 DUP2 CALLDATALOAD SWAP1 POP PUSH2 0x1016 DUP2 PUSH2 0xFF0 JUMP JUMPDEST SWAP3 SWAP2 POP POP JUMP JUMPDEST PUSH1 0x0 DUP1 PUSH1 0x40 DUP4 DUP6 SUB SLT ISZERO PUSH2 0x1033 JUMPI PUSH2 0x1032 PUSH2 0xF36 JUMP JUMPDEST JUMPDEST PUSH1 0x0 PUSH2 0x1041 DUP6 DUP3 DUP7 ADD PUSH2 0xF52 JUMP JUMPDEST SWAP3 POP POP PUSH1 0x20 PUSH2 0x1052 DUP6 DUP3 DUP7 ADD PUSH2 0x1007 JUMP JUMPDEST SWAP2 POP POP SWAP3 POP SWAP3 SWAP1 POP JUMP JUMPDEST PUSH1 0x0 DUP2 ISZERO ISZERO SWAP1 POP SWAP2 SWAP1 POP JUMP JUMPDEST PUSH2 0x1071 DUP2 PUSH2 0x105C JUMP JUMPDEST DUP3 MSTORE POP POP JUMP JUMPDEST PUSH1 0x0 PUSH1 0x20 DUP3 ADD SWAP1 POP PUSH2 0x108C PUSH1 0x0 DUP4 ADD DUP5 PUSH2 0x1068 JUMP JUMPDEST SWAP3 SWAP2 POP POP JUMP JUMPDEST PUSH1 0x0 DUP1 PUSH1 0x40 DUP4 DUP6 SUB SLT ISZERO PUSH2 0x10A9 JUMPI PUSH2 0x10A8 PUSH2 0xF36 JUMP JUMPDEST JUMPDEST PUSH1 0x0 PUSH2 0x10B7 DUP6 DUP3 DUP7 ADD PUSH2 0x1007 JUMP JUMPDEST SWAP3 POP POP PUSH1 0x20 PUSH2 0x10C8 DUP6 DUP3 DUP7 ADD PUSH2 0xF52 JUMP JUMPDEST SWAP2 POP POP SWAP3 POP SWAP3 SWAP1 POP JUMP JUMPDEST PUSH1 0x0 PUSH1 0x20 DUP3 DUP5 SUB SLT ISZERO PUSH2 0x10E8 JUMPI PUSH2 0x10E7 PUSH2 0xF36 JUMP JUMPDEST JUMPDEST PUSH1 0x0 PUSH2 0x10F6 DUP5 DUP3 DUP6 ADD PUSH2 0x1007 JUMP JUMPDEST SWAP2 POP POP SWAP3 SWAP2 POP POP JUMP JUMPDEST PUSH1 0x0 DUP2 MLOAD SWAP1 POP SWAP2 SWAP1 POP JUMP JUMPDEST PUSH1 0x0 DUP3 DUP3 MSTORE PUSH1 0x20 DUP3 ADD SWAP1 POP SWAP3 SWAP2 POP POP JUMP JUMPDEST PUSH1 0x0 JUMPDEST DUP4 DUP2 LT ISZERO PUSH2 0x1139 JUMPI DUP1 DUP3 ADD MLOAD DUP2 DUP5 ADD MSTORE PUSH1 0x20 DUP2 ADD SWAP1 POP PUSH2 0x111E JUMP JUMPDEST PUSH1 0x0 DUP5 DUP5 ADD MSTORE POP POP POP POP JUMP JUMPDEST PUSH1 0x0 PUSH1 0x1F NOT PUSH1 0x1F DUP4 ADD AND SWAP1 POP SWAP2 SWAP1 POP JUMP JUMPDEST PUSH1 0x0 PUSH2 0x1161 DUP3 PUSH2 0x10FF JUMP JUMPDEST PUSH2 0x116B DUP2 DUP6 PUSH2 0x110A JUMP JUMPDEST SWAP4 POP PUSH2 0x117B DUP2 DUP6 PUSH1 0x20 DUP7 ADD PUSH2 0x111B JUMP JUMPDEST PUSH2 0x1184 DUP2 PUSH2 0x1145 JUMP JUMPDEST DUP5 ADD SWAP2 POP POP SWAP3 SWAP2 POP POP JUMP JUMPDEST PUSH1 0x0 PUSH1 0x80 DUP3 ADD SWAP1 POP PUSH2 0x11A4 PUSH1 0x0 DUP4 ADD DUP8 PUSH2 0xFC6 JUMP JUMPDEST PUSH2 0x11B1 PUSH1 0x20 DUP4 ADD DUP7 PUSH2 0xF0C JUMP JUMPDEST DUP2 DUP2 SUB PUSH1 0x40 DUP4 ADD MSTORE PUSH2 0x11C3 DUP2 DUP6 PUSH2 0x1156 JUMP JUMPDEST SWAP1 POP PUSH2 0x11D2 PUSH1 0x60 DUP4 ADD DUP5 PUSH2 0x1068 JUMP JUMPDEST SWAP6 SWAP5 POP POP POP POP POP JUMP JUMPDEST PUSH1 0x0 DUP3 DUP3 MSTORE PUSH1 0x20 DUP3 ADD SWAP1 POP SWAP3 SWAP2 POP POP JUMP JUMPDEST PUSH32 0x6F6E6C79206F776E65722063616E207375626D6974207472616E73616374696F PUSH1 0x0 DUP3 ADD MSTORE PUSH32 0x6E00000000000000000000000000000000000000000000000000000000000000 PUSH1 0x20 DUP3 ADD MSTORE POP JUMP JUMPDEST PUSH1 0x0 PUSH2 0x1248 PUSH1 0x21 DUP4 PUSH2 0x11DB JUMP JUMPDEST SWAP2 POP PUSH2 0x1253 DUP3 PUSH2 0x11EC JUMP JUMPDEST PUSH1 0x40 DUP3 ADD SWAP1 POP SWAP2 SWAP1 POP JUMP JUMPDEST PUSH1 0x0 PUSH1 0x20 DUP3 ADD SWAP1 POP DUP2 DUP2 SUB PUSH1 0x0 DUP4 ADD MSTORE PUSH2 0x1277 DUP2 PUSH2 0x123B JUMP JUMPDEST SWAP1 POP SWAP2 SWAP1 POP JUMP JUMPDEST PUSH32 0x6861686100000000000000000000000000000000000000000000000000000000 PUSH1 0x0 DUP3 ADD MSTORE POP JUMP JUMPDEST PUSH1 0x0 PUSH2 0x12B4 PUSH1 0x4 DUP4 PUSH2 0x11DB JUMP JUMPDEST SWAP2 POP PUSH2 0x12BF DUP3 PUSH2 0x127E JUMP JUMPDEST PUSH1 0x20 DUP3 ADD SWAP1 POP SWAP2 SWAP1 POP JUMP JUMPDEST PUSH1 0x0 PUSH1 0x20 DUP3 ADD SWAP1 POP DUP2 DUP2 SUB PUSH1 0x0 DUP4 ADD MSTORE PUSH2 0x12E3 DUP2 PUSH2 0x12A7 JUMP JUMPDEST SWAP1 POP SWAP2 SWAP1 POP JUMP JUMPDEST PUSH32 0x4E487B7100000000000000000000000000000000000000000000000000000000 PUSH1 0x0 MSTORE PUSH1 0x41 PUSH1 0x4 MSTORE PUSH1 0x24 PUSH1 0x0 REVERT JUMPDEST PUSH32 0x4E487B7100000000000000000000000000000000000000000000000000000000 PUSH1 0x0 MSTORE PUSH1 0x22 PUSH1 0x4 MSTORE PUSH1 0x24 PUSH1 0x0 REVERT JUMPDEST PUSH1 0x0 PUSH1 0x2 DUP3 DIV SWAP1 POP PUSH1 0x1 DUP3 AND DUP1 PUSH2 0x1360 JUMPI PUSH1 0x7F DUP3 AND SWAP2 POP JUMPDEST PUSH1 0x20 DUP3 LT DUP2 SUB PUSH2 0x1373 JUMPI PUSH2 0x1372 PUSH2 0x1319 JUMP JUMPDEST JUMPDEST POP SWAP2 SWAP1 POP JUMP JUMPDEST PUSH1 0x0 DUP2 SWAP1 POP DUP2 PUSH1 0x0 MSTORE PUSH1 0x20 PUSH1 0x0 KECCAK256 SWAP1 POP SWAP2 SWAP1 POP JUMP JUMPDEST PUSH1 0x0 PUSH1 0x20 PUSH1 0x1F DUP4 ADD DIV SWAP1 POP SWAP2 SWAP1 POP JUMP JUMPDEST PUSH1 0x0 DUP3 DUP3 SHL SWAP1 POP SWAP3 SWAP2 POP POP JUMP JUMPDEST PUSH1 0x0 PUSH1 0x8 DUP4 MUL PUSH2 0x13DB PUSH32 0xFFFFFFFFFFFFFFFFFFFFFFFFFFFFFFFFFFFFFFFFFFFFFFFFFFFFFFFFFFFFFFFF DUP3 PUSH2 0x139E JUMP JUMPDEST PUSH2 0x13E5 DUP7 DUP4 PUSH2 0x139E JUMP JUMPDEST SWAP6 POP DUP1 NOT DUP5 AND SWAP4 POP DUP1 DUP7 AND DUP5 OR SWAP3 POP POP POP SWAP4 SWAP3 POP POP POP JUMP JUMPDEST PUSH1 0x0 DUP2 SWAP1 POP SWAP2 SWAP1 POP JUMP JUMPDEST PUSH1 0x0 PUSH2 0x1422 PUSH2 0x141D PUSH2 0x1418 DUP5 PUSH2 0xF02 JUMP JUMPDEST PUSH2 0x13FD JUMP JUMPDEST PUSH2 0xF02 JUMP JUMPDEST SWAP1 POP SWAP2 SWAP1 POP JUMP JUMPDEST PUSH1 0x0 DUP2 SWAP1 POP SWAP2 SWAP1 POP JUMP JUMPDEST PUSH2 0x143C DUP4 PUSH2 0x1407 JUMP JUMPDEST PUSH2 0x1450 PUSH2 0x1448 DUP3 PUSH2 0x1429 JUMP JUMPDEST DUP5 DUP5 SLOAD PUSH2 0x13AB JUMP JUMPDEST DUP3 SSTORE POP POP POP POP JUMP JUMPDEST PUSH1 0x0 SWAP1 JUMP JUMPDEST PUSH2 0x1465 PUSH2 0x1458 JUMP JUMPDEST PUSH2 0x1470 DUP2 DUP5 DUP5 PUSH2 0x1433 JUMP JUMPDEST POP POP POP JUMP JUMPDEST JUMPDEST DUP2 DUP2 LT ISZERO PUSH2 0x1494 JUMPI PUSH2 0x1489 PUSH1 0x0 DUP3 PUSH2 0x145D JUMP JUMPDEST PUSH1 0x1 DUP2 ADD SWAP1 POP PUSH2 0x1476 JUMP JUMPDEST POP POP JUMP JUMPDEST PUSH1 0x1F DUP3 GT ISZERO PUSH2 0x14D9 JUMPI PUSH2 0x14AA DUP2 PUSH2 0x1379 JUMP JUMPDEST PUSH2 0x14B3 DUP5 PUSH2 0x138E JUMP JUMPDEST DUP2 ADD PUSH1 0x20 DUP6 LT ISZERO PUSH2 0x14C2 JUMPI DUP2 SWAP1 POP JUMPDEST PUSH2 0x14D6 PUSH2 0x14CE DUP6 PUSH2 0x138E JUMP JUMPDEST DUP4 ADD DUP3 PUSH2 0x1475 JUMP JUMPDEST POP POP JUMPDEST POP POP POP JUMP JUMPDEST PUSH1 0x0 DUP3 DUP3 SHR SWAP1 POP SWAP3 SWAP2 POP POP JUMP JUMPDEST PUSH1 0x0 PUSH2 0x14FC PUSH1 0x0 NOT DUP5 PUSH1 0x8 MUL PUSH2 0x14DE JUMP JUMPDEST NOT DUP1 DUP4 AND SWAP2 POP POP SWAP3 SWAP2 POP POP JUMP JUMPDEST PUSH1 0x0 PUSH2 0x1515 DUP4 DUP4 PUSH2 0x14EB JUMP JUMPDEST SWAP2 POP DUP3 PUSH1 0x2 MUL DUP3 OR SWAP1 POP SWAP3 SWAP2 POP POP JUMP JUMPDEST PUSH2 0x152E DUP3 PUSH2 0x10FF JUMP JUMPDEST PUSH8 0xFFFFFFFFFFFFFFFF DUP2 GT ISZERO PUSH2 0x1547 JUMPI PUSH2 0x1546 PUSH2 0x12EA JUMP JUMPDEST JUMPDEST PUSH2 0x1551 DUP3 SLOAD PUSH2 0x1348 JUMP JUMPDEST PUSH2 0x155C DUP3 DUP3 DUP6 PUSH2 0x1498 JUMP JUMPDEST PUSH1 0x0 PUSH1 0x20 SWAP1 POP PUSH1 0x1F DUP4 GT PUSH1 0x1 DUP2 EQ PUSH2 0x158F JUMPI PUSH1 0x0 DUP5 ISZERO PUSH2 0x157D JUMPI DUP3 DUP8 ADD MLOAD SWAP1 POP JUMPDEST PUSH2 0x1587 DUP6 DUP3 PUSH2 0x1509 JUMP JUMPDEST DUP7 SSTORE POP PUSH2 0x15EF JUMP JUMPDEST PUSH1 0x1F NOT DUP5 AND PUSH2 0x159D DUP7 PUSH2 0x1379 JUMP JUMPDEST PUSH1 0x0 JUMPDEST DUP3 DUP2 LT ISZERO PUSH2 0x15C5 JUMPI DUP5 DUP10 ADD MLOAD DUP3 SSTORE PUSH1 0x1 DUP3 ADD SWAP2 POP PUSH1 0x20 DUP6 ADD SWAP5 POP PUSH1 0x20 DUP2 ADD SWAP1 POP PUSH2 0x15A0 JUMP JUMPDEST DUP7 DUP4 LT ISZERO PUSH2 0x15E2 JUMPI DUP5 DUP10 ADD MLOAD PUSH2 0x15DE PUSH1 0x1F DUP10 AND DUP3 PUSH2 0x14EB JUMP JUMPDEST DUP4 SSTORE POP JUMPDEST PUSH1 0x1 PUSH1 0x2 DUP9 MUL ADD DUP9 SSTORE POP POP POP JUMPDEST POP POP POP POP POP POP JUMP JUMPDEST PUSH32 0x4E487B7100000000000000000000000000000000000000000000000000000000 PUSH1 0x0 MSTORE PUSH1 0x11 PUSH1 0x4 MSTORE PUSH1 0x24 PUSH1 0x0 REVERT JUMPDEST PUSH1 0x0 PUSH2 0x1631 DUP3 PUSH2 0xF02 JUMP JUMPDEST SWAP2 POP PUSH2 0x163C DUP4 PUSH2 0xF02 JUMP JUMPDEST SWAP3 POP DUP3 DUP3 SUB SWAP1 POP DUP2 DUP2 GT ISZERO PUSH2 0x1654 JUMPI PUSH2 0x1653 PUSH2 0x15F7 JUMP JUMPDEST JUMPDEST SWAP3 SWAP2 POP POP JUMP JUMPDEST PUSH32 0x7472616E73616374696F6E206973206E6F742065786973740000000000000000 PUSH1 0x0 DUP3 ADD MSTORE POP JUMP JUMPDEST PUSH1 0x0 PUSH2 0x1690 PUSH1 0x18 DUP4 PUSH2 0x11DB JUMP JUMPDEST SWAP2 POP PUSH2 0x169B DUP3 PUSH2 0x165A JUMP JUMPDEST PUSH1 0x20 DUP3 ADD SWAP1 POP SWAP2 SWAP1 POP JUMP JUMPDEST PUSH1 0x0 PUSH1 0x20 DUP3 ADD SWAP1 POP DUP2 DUP2 SUB PUSH1 0x0 DUP4 ADD MSTORE PUSH2 0x16BF DUP2 PUSH2 0x1683 JUMP JUMPDEST SWAP1 POP SWAP2 SWAP1 POP JUMP JUMPDEST PUSH32 0x4E487B7100000000000000000000000000000000000000000000000000000000 PUSH1 0x0 MSTORE PUSH1 0x32 PUSH1 0x4 MSTORE PUSH1 0x24 PUSH1 0x0 REVERT JUMPDEST PUSH32 0x7468697320747820616C72656164792065786563757465640000000000000000 PUSH1 0x0 DUP3 ADD MSTORE POP JUMP JUMPDEST PUSH1 0x0 PUSH2 0x172B PUSH1 0x18 DUP4 PUSH2 0x11DB JUMP JUMPDEST SWAP2 POP PUSH2 0x1736 DUP3 PUSH2 0x16F5 JUMP JUMPDEST PUSH1 0x20 DUP3 ADD SWAP1 POP SWAP2 SWAP1 POP JUMP JUMPDEST PUSH1 0x0 PUSH1 0x20 DUP3 ADD SWAP1 POP DUP2 DUP2 SUB PUSH1 0x0 DUP4 ADD MSTORE PUSH2 0x175A DUP2 PUSH2 0x171E JUMP JUMPDEST SWAP1 POP SWAP2 SWAP1 POP JUMP JUMPDEST PUSH32 0x7478206E6F7420617070726F7665640000000000000000000000000000000000 PUSH1 0x0 DUP3 ADD MSTORE POP JUMP JUMPDEST PUSH1 0x0 PUSH2 0x1797 PUSH1 0xF DUP4 PUSH2 0x11DB JUMP JUMPDEST SWAP2 POP PUSH2 0x17A2 DUP3 PUSH2 0x1761 JUMP JUMPDEST PUSH1 0x20 DUP3 ADD SWAP1 POP SWAP2 SWAP1 POP JUMP JUMPDEST PUSH1 0x0 PUSH1 0x20 DUP3 ADD SWAP1 POP DUP2 DUP2 SUB PUSH1 0x0 DUP4 ADD MSTORE PUSH2 0x17C6 DUP2 PUSH2 0x178A JUMP JUMPDEST SWAP1 POP SWAP2 SWAP1 POP JUMP JUMPDEST PUSH32 0x74686973206F776E657220616C726561647920617070726F7665640000000000 PUSH1 0x0 DUP3 ADD MSTORE POP JUMP JUMPDEST PUSH1 0x0 PUSH2 0x1803 PUSH1 0x1B DUP4 PUSH2 0x11DB JUMP JUMPDEST SWAP2 POP PUSH2 0x180E DUP3 PUSH2 0x17CD JUMP JUMPDEST PUSH1 0x20 DUP3 ADD SWAP1 POP SWAP2 SWAP1 POP JUMP JUMPDEST PUSH1 0x0 PUSH1 0x20 DUP3 ADD SWAP1 POP DUP2 DUP2 SUB PUSH1 0x0 DUP4 ADD MSTORE PUSH2 0x1832 DUP2 PUSH2 0x17F6 JUMP JUMPDEST SWAP1 POP SWAP2 SWAP1 POP JUMP JUMPDEST PUSH32 0x617070726F76616C73203C207265717569726564000000000000000000000000 PUSH1 0x0 DUP3 ADD MSTORE POP JUMP JUMPDEST PUSH1 0x0 PUSH2 0x186F PUSH1 0x14 DUP4 PUSH2 0x11DB JUMP JUMPDEST SWAP2 POP PUSH2 0x187A DUP3 PUSH2 0x1839 JUMP JUMPDEST PUSH1 0x20 DUP3 ADD SWAP1 POP SWAP2 SWAP1 POP JUMP JUMPDEST PUSH1 0x0 PUSH1 0x20 DUP3 ADD SWAP1 POP DUP2 DUP2 SUB PUSH1 0x0 DUP4 ADD MSTORE PUSH2 0x189E DUP2 PUSH2 0x1862 JUMP JUMPDEST SWAP1 POP SWAP2 SWAP1 POP JUMP JUMPDEST PUSH1 0x0 DUP2 SWAP1 POP SWAP3 SWAP2 POP POP JUMP JUMPDEST PUSH1 0x0 DUP2 SLOAD PUSH2 0x18BD DUP2 PUSH2 0x1348 JUMP JUMPDEST PUSH2 0x18C7 DUP2 DUP7 PUSH2 0x18A5 JUMP JUMPDEST SWAP5 POP PUSH1 0x1 DUP3 AND PUSH1 0x0 DUP2 EQ PUSH2 0x18E2 JUMPI PUSH1 0x1 DUP2 EQ PUSH2 0x18F7 JUMPI PUSH2 0x192A JUMP JUMPDEST PUSH1 0xFF NOT DUP4 AND DUP7 MSTORE DUP2 ISZERO ISZERO DUP3 MUL DUP7 ADD SWAP4 POP PUSH2 0x192A JUMP JUMPDEST PUSH2 0x1900 DUP6 PUSH2 0x1379 JUMP JUMPDEST PUSH1 0x0 JUMPDEST DUP4 DUP2 LT ISZERO PUSH2 0x1922 JUMPI DUP2 SLOAD DUP2 DUP10 ADD MSTORE PUSH1 0x1 DUP3 ADD SWAP2 POP PUSH1 0x20 DUP2 ADD SWAP1 POP PUSH2 0x1903 JUMP JUMPDEST DUP4 DUP9 ADD SWAP6 POP POP POP JUMPDEST POP POP POP SWAP3 SWAP2 POP POP JUMP JUMPDEST PUSH1 0x0 PUSH2 0x193F DUP3 DUP5 PUSH2 0x18B0 JUMP JUMPDEST SWAP2 POP DUP2 SWAP1 POP SWAP3 SWAP2 POP POP JUMP JUMPDEST PUSH32 0x7478206578656375746564206661696C65640000000000000000000000000000 PUSH1 0x0 DUP3 ADD MSTORE POP JUMP JUMPDEST PUSH1 0x0 PUSH2 0x1980 PUSH1 0x12 DUP4 PUSH2 0x11DB JUMP JUMPDEST SWAP2 POP PUSH2 0x198B DUP3 PUSH2 0x194A JUMP JUMPDEST PUSH1 0x20 DUP3 ADD SWAP1 POP SWAP2 SWAP1 POP JUMP JUMPDEST PUSH1 0x0 PUSH1 0x20 DUP3 ADD SWAP1 POP DUP2 DUP2 SUB PUSH1 0x0 DUP4 ADD MSTORE PUSH2 0x19AF DUP2 PUSH2 0x1973 JUMP JUMPDEST SWAP1 POP SWAP2 SWAP1 POP JUMP JUMPDEST PUSH1 0x0 PUSH2 0x19C1 DUP3 PUSH2 0xF02 JUMP JUMPDEST SWAP2 POP PUSH32 0xFFFFFFFFFFFFFFFFFFFFFFFFFFFFFFFFFFFFFFFFFFFFFFFFFFFFFFFFFFFFFFFF DUP3 SUB PUSH2 0x19F3 JUMPI PUSH2 0x19F2 PUSH2 0x15F7 JUMP JUMPDEST JUMPDEST PUSH1 0x1 DUP3 ADD SWAP1 POP SWAP2 SWAP1 POP JUMP INVALID LOG2 PUSH5 0x6970667358 0x22 SLT KECCAK256 0xE5 PUSH4 0x138367D6 0xBC 0x49 0xE8 DUP5 DUP14 0xDC 0xE5 DUP16 0xC4 JUMPDEST 0xAB 0x2B 0xAD MUL 0xDC 0xDF PUSH25 0x4627B7B47C39F706F764736F6C634300081200330000000000 "
				},
				"gasEstimates": {
					"creation": {
						"codeDepositCost": "1341600",
						"executionCost": "infinite",
						"totalCost": "infinite"
					},
					"external": {
						"approve(uint256)": "37520",
						"approvedMap(uint256,address)": "3110",
						"execute(uint256)": "infinite",
						"isOwner(address)": "2845",
						"owners(uint256)": "4957",
						"required()": "2495",
						"revoke(uint256)": "37535",
						"submit(address,uint256)": "infinite",
						"transactions(uint256)": "infinite"
					},
					"internal": {
						"_getApprovalCount(uint256)": "infinite"
					}
				},
				"methodIdentifiers": {
					"approve(uint256)": "b759f954",
					"approvedMap(uint256,address)": "0949dc07",
					"execute(uint256)": "fe0d94c1",
					"isOwner(address)": "2f54bf6e",
					"owners(uint256)": "025e7c27",
					"required()": "dc8452cd",
					"revoke(uint256)": "20c5429b",
					"submit(address,uint256)": "203dd666",
					"transactions(uint256)": "9ace38c2"
				}
			},
			"storageLayout": {
				"storage": [
					{
						"astId": 39,
						"contract": "cuimianMaster/MultiSigWallet.sol:MultiSigWallet",
						"label": "owners",
						"offset": 0,
						"slot": "0",
						"type": "t_array(t_address)dyn_storage"
					},
					{
						"astId": 43,
						"contract": "cuimianMaster/MultiSigWallet.sol:MultiSigWallet",
						"label": "isOwner",
						"offset": 0,
						"slot": "1",
						"type": "t_mapping(t_address,t_bool)"
					},
					{
						"astId": 45,
						"contract": "cuimianMaster/MultiSigWallet.sol:MultiSigWallet",
						"label": "required",
						"offset": 0,
						"slot": "2",
						"type": "t_uint256"
					},
					{
						"astId": 49,
						"contract": "cuimianMaster/MultiSigWallet.sol:MultiSigWallet",
						"label": "transactions",
						"offset": 0,
						"slot": "3",
						"type": "t_array(t_struct(Transaction)36_storage)dyn_storage"
					},
					{
						"astId": 55,
						"contract": "cuimianMaster/MultiSigWallet.sol:MultiSigWallet",
						"label": "approvedMap",
						"offset": 0,
						"slot": "4",
						"type": "t_mapping(t_uint256,t_mapping(t_address,t_bool))"
					}
				],
				"types": {
					"t_address": {
						"encoding": "inplace",
						"label": "address",
						"numberOfBytes": "20"
					},
					"t_array(t_address)dyn_storage": {
						"base": "t_address",
						"encoding": "dynamic_array",
						"label": "address[]",
						"numberOfBytes": "32"
					},
					"t_array(t_struct(Transaction)36_storage)dyn_storage": {
						"base": "t_struct(Transaction)36_storage",
						"encoding": "dynamic_array",
						"label": "struct MultiSigWallet.Transaction[]",
						"numberOfBytes": "32"
					},
					"t_bool": {
						"encoding": "inplace",
						"label": "bool",
						"numberOfBytes": "1"
					},
					"t_bytes_storage": {
						"encoding": "bytes",
						"label": "bytes",
						"numberOfBytes": "32"
					},
					"t_mapping(t_address,t_bool)": {
						"encoding": "mapping",
						"key": "t_address",
						"label": "mapping(address => bool)",
						"numberOfBytes": "32",
						"value": "t_bool"
					},
					"t_mapping(t_uint256,t_mapping(t_address,t_bool))": {
						"encoding": "mapping",
						"key": "t_uint256",
						"label": "mapping(uint256 => mapping(address => bool))",
						"numberOfBytes": "32",
						"value": "t_mapping(t_address,t_bool)"
					},
					"t_struct(Transaction)36_storage": {
						"encoding": "inplace",
						"label": "struct MultiSigWallet.Transaction",
						"members": [
							{
								"astId": 29,
								"contract": "cuimianMaster/MultiSigWallet.sol:MultiSigWallet",
								"label": "to",
								"offset": 0,
								"slot": "0",
								"type": "t_address"
							},
							{
								"astId": 31,
								"contract": "cuimianMaster/MultiSigWallet.sol:MultiSigWallet",
								"label": "value",
								"offset": 0,
								"slot": "1",
								"type": "t_uint256"
							},
							{
								"astId": 33,
								"contract": "cuimianMaster/MultiSigWallet.sol:MultiSigWallet",
								"label": "data",
								"offset": 0,
								"slot": "2",
								"type": "t_bytes_storage"
							},
							{
								"astId": 35,
								"contract": "cuimianMaster/MultiSigWallet.sol:MultiSigWallet",
								"label": "executed",
								"offset": 0,
								"slot": "3",
								"type": "t_bool"
							}
						],
						"numberOfBytes": "128"
					},
					"t_uint256": {
						"encoding": "inplace",
						"label": "uint256",
						"numberOfBytes": "32"
					}
				}
			},
			"userdoc": {
				"kind": "user",
				"methods": {},
				"version": 1
			}
		}
	}
}