{
	"cuimianMaster/CrowdFund.sol": {
		"CrowdFund": {
			"abi": [
				{
					"inputs": [
						{
							"internalType": "address",
							"name": "_token",
							"type": "address"
						}
					],
					"stateMutability": "nonpayable",
					"type": "constructor"
				},
				{
					"anonymous": false,
					"inputs": [
						{
							"indexed": false,
							"internalType": "uint256",
							"name": "campaignId",
							"type": "uint256"
						}
					],
					"name": "Cancle",
					"type": "event"
				},
				{
					"anonymous": false,
					"inputs": [
						{
							"indexed": false,
							"internalType": "uint256",
							"name": "_campaignId",
							"type": "uint256"
						}
					],
					"name": "Claim",
					"type": "event"
				},
				{
					"anonymous": false,
					"inputs": [
						{
							"indexed": false,
							"internalType": "uint256",
							"name": "campaignId",
							"type": "uint256"
						},
						{
							"indexed": true,
							"internalType": "address",
							"name": "creator",
							"type": "address"
						},
						{
							"indexed": false,
							"internalType": "uint256",
							"name": "goal",
							"type": "uint256"
						},
						{
							"indexed": false,
							"internalType": "uint32",
							"name": "startAt",
							"type": "uint32"
						},
						{
							"indexed": false,
							"internalType": "uint32",
							"name": "endAt",
							"type": "uint32"
						}
					],
					"name": "Launch",
					"type": "event"
				},
				{
					"anonymous": false,
					"inputs": [
						{
							"indexed": true,
							"internalType": "uint256",
							"name": "_campaignId",
							"type": "uint256"
						},
						{
							"indexed": true,
							"internalType": "address",
							"name": "caller",
							"type": "address"
						},
						{
							"indexed": false,
							"internalType": "uint256",
							"name": "amount",
							"type": "uint256"
						}
					],
					"name": "Pledge",
					"type": "event"
				},
				{
					"anonymous": false,
					"inputs": [
						{
							"indexed": true,
							"internalType": "uint256",
							"name": "_campaignId",
							"type": "uint256"
						},
						{
							"indexed": true,
							"internalType": "address",
							"name": "caller",
							"type": "address"
						},
						{
							"indexed": false,
							"internalType": "uint256",
							"name": "amount",
							"type": "uint256"
						}
					],
					"name": "Refund",
					"type": "event"
				},
				{
					"anonymous": false,
					"inputs": [
						{
							"indexed": true,
							"internalType": "uint256",
							"name": "_campaignId",
							"type": "uint256"
						},
						{
							"indexed": true,
							"internalType": "address",
							"name": "caller",
							"type": "address"
						},
						{
							"indexed": false,
							"internalType": "uint256",
							"name": "amount",
							"type": "uint256"
						}
					],
					"name": "Unpledge",
					"type": "event"
				},
				{
					"inputs": [],
					"name": "campaignId",
					"outputs": [
						{
							"internalType": "uint256",
							"name": "",
							"type": "uint256"
						}
					],
					"stateMutability": "view",
					"type": "function"
				},
				{
					"inputs": [
						{
							"internalType": "uint256",
							"name": "",
							"type": "uint256"
						}
					],
					"name": "campaigns",
					"outputs": [
						{
							"internalType": "address",
							"name": "creator",
							"type": "address"
						},
						{
							"internalType": "uint256",
							"name": "goal",
							"type": "uint256"
						},
						{
							"internalType": "uint256",
							"name": "pledged",
							"type": "uint256"
						},
						{
							"internalType": "uint32",
							"name": "startAt",
							"type": "uint32"
						},
						{
							"internalType": "uint32",
							"name": "endAt",
							"type": "uint32"
						},
						{
							"internalType": "bool",
							"name": "claimed",
							"type": "bool"
						}
					],
					"stateMutability": "view",
					"type": "function"
				},
				{
					"inputs": [
						{
							"internalType": "uint256",
							"name": "_campaignId",
							"type": "uint256"
						}
					],
					"name": "cancel",
					"outputs": [],
					"stateMutability": "nonpayable",
					"type": "function"
				},
				{
					"inputs": [
						{
							"internalType": "uint256",
							"name": "_campaignId",
							"type": "uint256"
						}
					],
					"name": "claim",
					"outputs": [],
					"stateMutability": "nonpayable",
					"type": "function"
				},
				{
					"inputs": [
						{
							"internalType": "uint256",
							"name": "_goal",
							"type": "uint256"
						},
						{
							"internalType": "uint32",
							"name": "_startAt",
							"type": "uint32"
						},
						{
							"internalType": "uint32",
							"name": "_endAt",
							"type": "uint32"
						}
					],
					"name": "launch",
					"outputs": [],
					"stateMutability": "nonpayable",
					"type": "function"
				},
				{
					"inputs": [
						{
							"internalType": "uint256",
							"name": "_campaignId",
							"type": "uint256"
						},
						{
							"internalType": "uint256",
							"name": "_amount",
							"type": "uint256"
						}
					],
					"name": "pledge",
					"outputs": [],
					"stateMutability": "nonpayable",
					"type": "function"
				},
				{
					"inputs": [
						{
							"internalType": "uint256",
							"name": "",
							"type": "uint256"
						},
						{
							"internalType": "address",
							"name": "",
							"type": "address"
						}
					],
					"name": "pledgeAmount",
					"outputs": [
						{
							"internalType": "uint256",
							"name": "",
							"type": "uint256"
						}
					],
					"stateMutability": "view",
					"type": "function"
				},
				{
					"inputs": [
						{
							"internalType": "uint256",
							"name": "_campaignId",
							"type": "uint256"
						}
					],
					"name": "refund",
					"outputs": [],
					"stateMutability": "nonpayable",
					"type": "function"
				},
				{
					"inputs": [],
					"name": "token",
					"outputs": [
						{
							"internalType": "contract IERC20",
							"name": "",
							"type": "address"
						}
					],
					"stateMutability": "view",
					"type": "function"
				},
				{
					"inputs": [
						{
							"internalType": "uint256",
							"name": "_campaignId",
							"type": "uint256"
						},
						{
							"internalType": "uint256",
							"name": "_amount",
							"type": "uint256"
						}
					],
					"name": "unpledge",
					"outputs": [],
					"stateMutability": "nonpayable",
					"type": "function"
				}
			],
			"devdoc": {
				"kind": "dev",
				"methods": {},
				"version": 1
			},
			"evm": {
				"assembly": "    /* \"cuimianMaster/CrowdFund.sol\":99:5324  contract CrowdFund {... */\n  mstore(0x40, 0xa0)\n    /* \"cuimianMaster/CrowdFund.sol\":1272:1341  constructor(address _token) {... */\n  callvalue\n  dup1\n  iszero\n  tag_1\n  jumpi\n  0x00\n  dup1\n  revert\ntag_1:\n  pop\n  mload(0x40)\n  sub(codesize, bytecodeSize)\n  dup1\n  bytecodeSize\n  dup4\n  codecopy\n  dup2\n  dup2\n  add\n  0x40\n  mstore\n  dup2\n  add\n  swap1\n  tag_2\n  swap2\n  swap1\n  tag_3\n  jump\t// in\ntag_2:\n    /* \"cuimianMaster/CrowdFund.sol\":1326:1332  _token */\n  dup1\n    /* \"cuimianMaster/CrowdFund.sol\":1311:1333  token = IERC20(_token) */\n  0xffffffffffffffffffffffffffffffffffffffff\n  and\n  0x80\n  dup2\n  0xffffffffffffffffffffffffffffffffffffffff\n  and\n  dup2\n  mstore\n  pop\n  pop\n    /* \"cuimianMaster/CrowdFund.sol\":1272:1341  constructor(address _token) {... */\n  pop\n    /* \"cuimianMaster/CrowdFund.sol\":99:5324  contract CrowdFund {... */\n  jump(tag_6)\n    /* \"#utility.yul\":88:205   */\ntag_8:\n    /* \"#utility.yul\":197:198   */\n  0x00\n    /* \"#utility.yul\":194:195   */\n  dup1\n    /* \"#utility.yul\":187:199   */\n  revert\n    /* \"#utility.yul\":334:460   */\ntag_10:\n    /* \"#utility.yul\":371:378   */\n  0x00\n    /* \"#utility.yul\":411:453   */\n  0xffffffffffffffffffffffffffffffffffffffff\n    /* \"#utility.yul\":404:409   */\n  dup3\n    /* \"#utility.yul\":400:454   */\n  and\n    /* \"#utility.yul\":389:454   */\n  swap1\n  pop\n    /* \"#utility.yul\":334:460   */\n  swap2\n  swap1\n  pop\n  jump\t// out\n    /* \"#utility.yul\":466:562   */\ntag_11:\n    /* \"#utility.yul\":503:510   */\n  0x00\n    /* \"#utility.yul\":532:556   */\n  tag_20\n    /* \"#utility.yul\":550:555   */\n  dup3\n    /* \"#utility.yul\":532:556   */\n  tag_10\n  jump\t// in\ntag_20:\n    /* \"#utility.yul\":521:556   */\n  swap1\n  pop\n    /* \"#utility.yul\":466:562   */\n  swap2\n  swap1\n  pop\n  jump\t// out\n    /* \"#utility.yul\":568:690   */\ntag_12:\n    /* \"#utility.yul\":641:665   */\n  tag_22\n    /* \"#utility.yul\":659:664   */\n  dup2\n    /* \"#utility.yul\":641:665   */\n  tag_11\n  jump\t// in\ntag_22:\n    /* \"#utility.yul\":634:639   */\n  dup2\n    /* \"#utility.yul\":631:666   */\n  eq\n    /* \"#utility.yul\":621:684   */\n  tag_23\n  jumpi\n    /* \"#utility.yul\":680:681   */\n  0x00\n    /* \"#utility.yul\":677:678   */\n  dup1\n    /* \"#utility.yul\":670:682   */\n  revert\n    /* \"#utility.yul\":621:684   */\ntag_23:\n    /* \"#utility.yul\":568:690   */\n  pop\n  jump\t// out\n    /* \"#utility.yul\":696:839   */\ntag_13:\n    /* \"#utility.yul\":753:758   */\n  0x00\n    /* \"#utility.yul\":784:790   */\n  dup2\n    /* \"#utility.yul\":778:791   */\n  mload\n    /* \"#utility.yul\":769:791   */\n  swap1\n  pop\n    /* \"#utility.yul\":800:833   */\n  tag_25\n    /* \"#utility.yul\":827:832   */\n  dup2\n    /* \"#utility.yul\":800:833   */\n  tag_12\n  jump\t// in\ntag_25:\n    /* \"#utility.yul\":696:839   */\n  swap3\n  swap2\n  pop\n  pop\n  jump\t// out\n    /* \"#utility.yul\":845:1196   */\ntag_3:\n    /* \"#utility.yul\":915:921   */\n  0x00\n    /* \"#utility.yul\":964:966   */\n  0x20\n    /* \"#utility.yul\":952:961   */\n  dup3\n    /* \"#utility.yul\":943:950   */\n  dup5\n    /* \"#utility.yul\":939:962   */\n  sub\n    /* \"#utility.yul\":935:967   */\n  slt\n    /* \"#utility.yul\":932:1051   */\n  iszero\n  tag_27\n  jumpi\n    /* \"#utility.yul\":970:1049   */\n  tag_28\n  tag_8\n  jump\t// in\ntag_28:\n    /* \"#utility.yul\":932:1051   */\ntag_27:\n    /* \"#utility.yul\":1090:1091   */\n  0x00\n    /* \"#utility.yul\":1115:1179   */\n  tag_29\n    /* \"#utility.yul\":1171:1178   */\n  dup5\n    /* \"#utility.yul\":1162:1168   */\n  dup3\n    /* \"#utility.yul\":1151:1160   */\n  dup6\n    /* \"#utility.yul\":1147:1169   */\n  add\n    /* \"#utility.yul\":1115:1179   */\n  tag_13\n  jump\t// in\ntag_29:\n    /* \"#utility.yul\":1105:1179   */\n  swap2\n  pop\n    /* \"#utility.yul\":1061:1189   */\n  pop\n    /* \"#utility.yul\":845:1196   */\n  swap3\n  swap2\n  pop\n  pop\n  jump\t// out\n    /* \"cuimianMaster/CrowdFund.sol\":99:5324  contract CrowdFund {... */\ntag_6:\n  mload(0x80)\n  codecopy(0x00, dataOffset(sub_0), dataSize(sub_0))\n  0x00\n  assignImmutable(\"0xd9670a00d025e59e1bd58d53874bea4ab34fea782716e2c168e89a3c8452d3bb\")\n  return(0x00, dataSize(sub_0))\nstop\n\nsub_0: assembly {\n        /* \"cuimianMaster/CrowdFund.sol\":99:5324  contract CrowdFund {... */\n      mstore(0x40, 0x80)\n      callvalue\n      dup1\n      iszero\n      tag_1\n      jumpi\n      0x00\n      dup1\n      revert\n    tag_1:\n      pop\n      jumpi(tag_2, lt(calldatasize, 0x04))\n      shr(0xe0, calldataload(0x00))\n      dup1\n      0x711853ab\n      gt\n      tag_13\n      jumpi\n      dup1\n      0x711853ab\n      eq\n      tag_8\n      jumpi\n      dup1\n      0x8743ae89\n      eq\n      tag_9\n      jumpi\n      dup1\n      0x8ed5b0fc\n      eq\n      tag_10\n      jumpi\n      dup1\n      0xfc0c546a\n      eq\n      tag_11\n      jumpi\n      dup1\n      0xfde327be\n      eq\n      tag_12\n      jumpi\n      jump(tag_2)\n    tag_13:\n      dup1\n      0x141961bc\n      eq\n      tag_3\n      jumpi\n      dup1\n      0x278ecde1\n      eq\n      tag_4\n      jumpi\n      dup1\n      0x2c63f146\n      eq\n      tag_5\n      jumpi\n      dup1\n      0x379607f5\n      eq\n      tag_6\n      jumpi\n      dup1\n      0x40e58ee5\n      eq\n      tag_7\n      jumpi\n    tag_2:\n      0x00\n      dup1\n      revert\n        /* \"cuimianMaster/CrowdFund.sol\":1108:1150  mapping(uint => Campaign) public campaigns */\n    tag_3:\n      tag_14\n      0x04\n      dup1\n      calldatasize\n      sub\n      dup2\n      add\n      swap1\n      tag_15\n      swap2\n      swap1\n      tag_16\n      jump\t// in\n    tag_15:\n      tag_17\n      jump\t// in\n    tag_14:\n      mload(0x40)\n      tag_18\n      swap7\n      swap6\n      swap5\n      swap4\n      swap3\n      swap2\n      swap1\n      tag_19\n      jump\t// in\n    tag_18:\n      mload(0x40)\n      dup1\n      swap2\n      sub\n      swap1\n      return\n        /* \"cuimianMaster/CrowdFund.sol\":4832:5321  function refund(uint _campaignId) external {... */\n    tag_4:\n      tag_20\n      0x04\n      dup1\n      calldatasize\n      sub\n      dup2\n      add\n      swap1\n      tag_21\n      swap2\n      swap1\n      tag_16\n      jump\t// in\n    tag_21:\n      tag_22\n      jump\t// in\n    tag_20:\n      stop\n        /* \"cuimianMaster/CrowdFund.sol\":1431:2102  function launch(uint _goal, uint32 _startAt, uint32 _endAt) external {... */\n    tag_5:\n      tag_23\n      0x04\n      dup1\n      calldatasize\n      sub\n      dup2\n      add\n      swap1\n      tag_24\n      swap2\n      swap1\n      tag_25\n      jump\t// in\n    tag_24:\n      tag_26\n      jump\t// in\n    tag_23:\n      stop\n        /* \"cuimianMaster/CrowdFund.sol\":4171:4762  function claim(uint _campaignId) external {... */\n    tag_6:\n      tag_27\n      0x04\n      dup1\n      calldatasize\n      sub\n      dup2\n      add\n      swap1\n      tag_28\n      swap2\n      swap1\n      tag_16\n      jump\t// in\n    tag_28:\n      tag_29\n      jump\t// in\n    tag_27:\n      stop\n        /* \"cuimianMaster/CrowdFund.sol\":2189:2619  function cancel(uint _campaignId) external {... */\n    tag_7:\n      tag_30\n      0x04\n      dup1\n      calldatasize\n      sub\n      dup2\n      add\n      swap1\n      tag_31\n      swap2\n      swap1\n      tag_16\n      jump\t// in\n    tag_31:\n      tag_32\n      jump\t// in\n    tag_30:\n      stop\n        /* \"cuimianMaster/CrowdFund.sol\":3645:4098  function unpledge(uint _campaignId, uint _amount) external {... */\n    tag_8:\n      tag_33\n      0x04\n      dup1\n      calldatasize\n      sub\n      dup2\n      add\n      swap1\n      tag_34\n      swap2\n      swap1\n      tag_35\n      jump\t// in\n    tag_34:\n      tag_36\n      jump\t// in\n    tag_33:\n      stop\n        /* \"cuimianMaster/CrowdFund.sol\":1202:1263  mapping(uint => mapping(address => uint)) public pledgeAmount */\n    tag_9:\n      tag_37\n      0x04\n      dup1\n      calldatasize\n      sub\n      dup2\n      add\n      swap1\n      tag_38\n      swap2\n      swap1\n      tag_39\n      jump\t// in\n    tag_38:\n      tag_40\n      jump\t// in\n    tag_37:\n      mload(0x40)\n      tag_41\n      swap2\n      swap1\n      tag_42\n      jump\t// in\n    tag_41:\n      mload(0x40)\n      dup1\n      swap2\n      sub\n      swap1\n      return\n        /* \"cuimianMaster/CrowdFund.sol\":1042:1064  uint public campaignId */\n    tag_10:\n      tag_43\n      tag_44\n      jump\t// in\n    tag_43:\n      mload(0x40)\n      tag_45\n      swap2\n      swap1\n      tag_42\n      jump\t// in\n    tag_45:\n      mload(0x40)\n      dup1\n      swap2\n      sub\n      swap1\n      return\n        /* \"cuimianMaster/CrowdFund.sol\":990:1019  IERC20 public immutable token */\n    tag_11:\n      tag_46\n      tag_47\n      jump\t// in\n    tag_46:\n      mload(0x40)\n      tag_48\n      swap2\n      swap1\n      tag_49\n      jump\t// in\n    tag_48:\n      mload(0x40)\n      dup1\n      swap2\n      sub\n      swap1\n      return\n        /* \"cuimianMaster/CrowdFund.sol\":2653:3397  function pledge(uint _campaignId, uint _amount) external {... */\n    tag_12:\n      tag_50\n      0x04\n      dup1\n      calldatasize\n      sub\n      dup2\n      add\n      swap1\n      tag_51\n      swap2\n      swap1\n      tag_35\n      jump\t// in\n    tag_51:\n      tag_52\n      jump\t// in\n    tag_50:\n      stop\n        /* \"cuimianMaster/CrowdFund.sol\":1108:1150  mapping(uint => Campaign) public campaigns */\n    tag_17:\n      mstore(0x20, 0x01)\n      dup1\n      0x00\n      mstore\n      keccak256(0x00, 0x40)\n      0x00\n      swap2\n      pop\n      swap1\n      pop\n      dup1\n      0x00\n      add\n      0x00\n      swap1\n      sload\n      swap1\n      0x0100\n      exp\n      swap1\n      div\n      0xffffffffffffffffffffffffffffffffffffffff\n      and\n      swap1\n      dup1\n      0x01\n      add\n      sload\n      swap1\n      dup1\n      0x02\n      add\n      sload\n      swap1\n      dup1\n      0x03\n      add\n      0x00\n      swap1\n      sload\n      swap1\n      0x0100\n      exp\n      swap1\n      div\n      0xffffffff\n      and\n      swap1\n      dup1\n      0x03\n      add\n      0x04\n      swap1\n      sload\n      swap1\n      0x0100\n      exp\n      swap1\n      div\n      0xffffffff\n      and\n      swap1\n      dup1\n      0x03\n      add\n      0x08\n      swap1\n      sload\n      swap1\n      0x0100\n      exp\n      swap1\n      div\n      0xff\n      and\n      swap1\n      pop\n      dup7\n      jump\t// out\n        /* \"cuimianMaster/CrowdFund.sol\":4832:5321  function refund(uint _campaignId) external {... */\n    tag_22:\n        /* \"cuimianMaster/CrowdFund.sol\":4886:4911  Campaign storage campaign */\n      0x00\n        /* \"cuimianMaster/CrowdFund.sol\":4914:4923  campaigns */\n      0x01\n        /* \"cuimianMaster/CrowdFund.sol\":4914:4936  campaigns[_campaignId] */\n      0x00\n        /* \"cuimianMaster/CrowdFund.sol\":4924:4935  _campaignId */\n      dup4\n        /* \"cuimianMaster/CrowdFund.sol\":4914:4936  campaigns[_campaignId] */\n      dup2\n      mstore\n      0x20\n      add\n      swap1\n      dup2\n      mstore\n      0x20\n      add\n      0x00\n      keccak256\n        /* \"cuimianMaster/CrowdFund.sol\":4886:4936  Campaign storage campaign = campaigns[_campaignId] */\n      swap1\n      pop\n        /* \"cuimianMaster/CrowdFund.sol\":4973:4981  campaign */\n      dup1\n        /* \"cuimianMaster/CrowdFund.sol\":4973:4987  campaign.endAt */\n      0x03\n      add\n      0x04\n      swap1\n      sload\n      swap1\n      0x0100\n      exp\n      swap1\n      div\n      0xffffffff\n      and\n        /* \"cuimianMaster/CrowdFund.sol\":4955:4987  block.timestamp > campaign.endAt */\n      0xffffffff\n      and\n        /* \"cuimianMaster/CrowdFund.sol\":4955:4970  block.timestamp */\n      timestamp\n        /* \"cuimianMaster/CrowdFund.sol\":4955:4987  block.timestamp > campaign.endAt */\n      gt\n        /* \"cuimianMaster/CrowdFund.sol\":4947:5001  require(block.timestamp > campaign.endAt, \"not ended\") */\n      tag_54\n      jumpi\n      mload(0x40)\n      0x08c379a000000000000000000000000000000000000000000000000000000000\n      dup2\n      mstore\n      0x04\n      add\n      tag_55\n      swap1\n      tag_56\n      jump\t// in\n    tag_55:\n      mload(0x40)\n      dup1\n      swap2\n      sub\n      swap1\n      revert\n    tag_54:\n        /* \"cuimianMaster/CrowdFund.sol\":5039:5047  campaign */\n      dup1\n        /* \"cuimianMaster/CrowdFund.sol\":5039:5052  campaign.goal */\n      0x01\n      add\n      sload\n        /* \"cuimianMaster/CrowdFund.sol\":5020:5028  campaign */\n      dup2\n        /* \"cuimianMaster/CrowdFund.sol\":5020:5036  campaign.pledged */\n      0x02\n      add\n      sload\n        /* \"cuimianMaster/CrowdFund.sol\":5020:5052  campaign.pledged < campaign.goal */\n      lt\n        /* \"cuimianMaster/CrowdFund.sol\":5012:5069  require(campaign.pledged < campaign.goal, \"crowd failed\") */\n      tag_57\n      jumpi\n      mload(0x40)\n      0x08c379a000000000000000000000000000000000000000000000000000000000\n      dup2\n      mstore\n      0x04\n      add\n      tag_58\n      swap1\n      tag_59\n      jump\t// in\n    tag_58:\n      mload(0x40)\n      dup1\n      swap2\n      sub\n      swap1\n      revert\n    tag_57:\n        /* \"cuimianMaster/CrowdFund.sol\":5082:5090  uint bal */\n      0x00\n        /* \"cuimianMaster/CrowdFund.sol\":5093:5105  pledgeAmount */\n      0x02\n        /* \"cuimianMaster/CrowdFund.sol\":5093:5118  pledgeAmount[_campaignId] */\n      0x00\n        /* \"cuimianMaster/CrowdFund.sol\":5106:5117  _campaignId */\n      dup5\n        /* \"cuimianMaster/CrowdFund.sol\":5093:5118  pledgeAmount[_campaignId] */\n      dup2\n      mstore\n      0x20\n      add\n      swap1\n      dup2\n      mstore\n      0x20\n      add\n      0x00\n      keccak256\n        /* \"cuimianMaster/CrowdFund.sol\":5093:5130  pledgeAmount[_campaignId][msg.sender] */\n      0x00\n        /* \"cuimianMaster/CrowdFund.sol\":5119:5129  msg.sender */\n      caller\n        /* \"cuimianMaster/CrowdFund.sol\":5093:5130  pledgeAmount[_campaignId][msg.sender] */\n      0xffffffffffffffffffffffffffffffffffffffff\n      and\n      0xffffffffffffffffffffffffffffffffffffffff\n      and\n      dup2\n      mstore\n      0x20\n      add\n      swap1\n      dup2\n      mstore\n      0x20\n      add\n      0x00\n      keccak256\n      sload\n        /* \"cuimianMaster/CrowdFund.sol\":5082:5130  uint bal = pledgeAmount[_campaignId][msg.sender] */\n      swap1\n      pop\n        /* \"cuimianMaster/CrowdFund.sol\":5181:5182  0 */\n      0x00\n        /* \"cuimianMaster/CrowdFund.sol\":5141:5153  pledgeAmount */\n      0x02\n        /* \"cuimianMaster/CrowdFund.sol\":5141:5166  pledgeAmount[_campaignId] */\n      0x00\n        /* \"cuimianMaster/CrowdFund.sol\":5154:5165  _campaignId */\n      dup6\n        /* \"cuimianMaster/CrowdFund.sol\":5141:5166  pledgeAmount[_campaignId] */\n      dup2\n      mstore\n      0x20\n      add\n      swap1\n      dup2\n      mstore\n      0x20\n      add\n      0x00\n      keccak256\n        /* \"cuimianMaster/CrowdFund.sol\":5141:5178  pledgeAmount[_campaignId][msg.sender] */\n      0x00\n        /* \"cuimianMaster/CrowdFund.sol\":5167:5177  msg.sender */\n      caller\n        /* \"cuimianMaster/CrowdFund.sol\":5141:5178  pledgeAmount[_campaignId][msg.sender] */\n      0xffffffffffffffffffffffffffffffffffffffff\n      and\n      0xffffffffffffffffffffffffffffffffffffffff\n      and\n      dup2\n      mstore\n      0x20\n      add\n      swap1\n      dup2\n      mstore\n      0x20\n      add\n      0x00\n      keccak256\n        /* \"cuimianMaster/CrowdFund.sol\":5141:5182  pledgeAmount[_campaignId][msg.sender] = 0 */\n      dup2\n      swap1\n      sstore\n      pop\n        /* \"cuimianMaster/CrowdFund.sol\":5213:5216  bal */\n      dup1\n        /* \"cuimianMaster/CrowdFund.sol\":5193:5201  campaign */\n      dup3\n        /* \"cuimianMaster/CrowdFund.sol\":5193:5209  campaign.pledged */\n      0x02\n      add\n      0x00\n        /* \"cuimianMaster/CrowdFund.sol\":5193:5216  campaign.pledged -= bal */\n      dup3\n      dup3\n      sload\n      tag_60\n      swap2\n      swap1\n      tag_61\n      jump\t// in\n    tag_60:\n      swap3\n      pop\n      pop\n      dup2\n      swap1\n      sstore\n      pop\n        /* \"cuimianMaster/CrowdFund.sol\":5227:5232  token */\n      immutable(\"0xd9670a00d025e59e1bd58d53874bea4ab34fea782716e2c168e89a3c8452d3bb\")\n        /* \"cuimianMaster/CrowdFund.sol\":5227:5241  token.transfer */\n      0xffffffffffffffffffffffffffffffffffffffff\n      and\n      0xa9059cbb\n        /* \"cuimianMaster/CrowdFund.sol\":5243:5253  msg.sender */\n      caller\n        /* \"cuimianMaster/CrowdFund.sol\":5255:5258  bal */\n      dup4\n        /* \"cuimianMaster/CrowdFund.sol\":5227:5259  token.transfer( msg.sender, bal) */\n      mload(0x40)\n      dup4\n      0xffffffff\n      and\n      0xe0\n      shl\n      dup2\n      mstore\n      0x04\n      add\n      tag_62\n      swap3\n      swap2\n      swap1\n      tag_63\n      jump\t// in\n    tag_62:\n      0x20\n      mload(0x40)\n      dup1\n      dup4\n      sub\n      dup2\n      0x00\n      dup8\n      gas\n      call\n      iszero\n      dup1\n      iszero\n      tag_65\n      jumpi\n      returndatasize\n      0x00\n      dup1\n      returndatacopy\n      revert(0x00, returndatasize)\n    tag_65:\n      pop\n      pop\n      pop\n      pop\n      mload(0x40)\n      returndatasize\n      not(0x1f)\n      0x1f\n      dup3\n      add\n      and\n      dup3\n      add\n      dup1\n      0x40\n      mstore\n      pop\n      dup2\n      add\n      swap1\n      tag_66\n      swap2\n      swap1\n      tag_67\n      jump\t// in\n    tag_66:\n      pop\n        /* \"cuimianMaster/CrowdFund.sol\":5297:5307  msg.sender */\n      caller\n        /* \"cuimianMaster/CrowdFund.sol\":5277:5313  Refund(_campaignId, msg.sender, bal) */\n      0xffffffffffffffffffffffffffffffffffffffff\n      and\n        /* \"cuimianMaster/CrowdFund.sol\":5284:5295  _campaignId */\n      dup4\n        /* \"cuimianMaster/CrowdFund.sol\":5277:5313  Refund(_campaignId, msg.sender, bal) */\n      0x21e12a7cad0da5928167e1084ea4d5fdf8d9af66657a2543a9ac76a0ca081477\n        /* \"cuimianMaster/CrowdFund.sol\":5309:5312  bal */\n      dup4\n        /* \"cuimianMaster/CrowdFund.sol\":5277:5313  Refund(_campaignId, msg.sender, bal) */\n      mload(0x40)\n      tag_68\n      swap2\n      swap1\n      tag_42\n      jump\t// in\n    tag_68:\n      mload(0x40)\n      dup1\n      swap2\n      sub\n      swap1\n      log3\n        /* \"cuimianMaster/CrowdFund.sol\":4875:5321  {... */\n      pop\n      pop\n        /* \"cuimianMaster/CrowdFund.sol\":4832:5321  function refund(uint _campaignId) external {... */\n      pop\n      jump\t// out\n        /* \"cuimianMaster/CrowdFund.sol\":1431:2102  function launch(uint _goal, uint32 _startAt, uint32 _endAt) external {... */\n    tag_26:\n        /* \"cuimianMaster/CrowdFund.sol\":1531:1546  block.timestamp */\n      timestamp\n        /* \"cuimianMaster/CrowdFund.sol\":1519:1527  _startAt */\n      dup3\n        /* \"cuimianMaster/CrowdFund.sol\":1519:1546  _startAt >= block.timestamp */\n      0xffffffff\n      and\n      lt\n      iszero\n        /* \"cuimianMaster/CrowdFund.sol\":1511:1565  require(_startAt >= block.timestamp, \"start at < now\") */\n      tag_70\n      jumpi\n      mload(0x40)\n      0x08c379a000000000000000000000000000000000000000000000000000000000\n      dup2\n      mstore\n      0x04\n      add\n      tag_71\n      swap1\n      tag_72\n      jump\t// in\n    tag_71:\n      mload(0x40)\n      dup1\n      swap2\n      sub\n      swap1\n      revert\n    tag_70:\n        /* \"cuimianMaster/CrowdFund.sol\":1593:1601  _startAt */\n      dup2\n        /* \"cuimianMaster/CrowdFund.sol\":1584:1601  _endAt > _startAt */\n      0xffffffff\n      and\n        /* \"cuimianMaster/CrowdFund.sol\":1584:1590  _endAt */\n      dup2\n        /* \"cuimianMaster/CrowdFund.sol\":1584:1601  _endAt > _startAt */\n      0xffffffff\n      and\n      gt\n        /* \"cuimianMaster/CrowdFund.sol\":1576:1623  require(_endAt > _startAt, \"end at < start at\") */\n      tag_73\n      jumpi\n      mload(0x40)\n      0x08c379a000000000000000000000000000000000000000000000000000000000\n      dup2\n      mstore\n      0x04\n      add\n      tag_74\n      swap1\n      tag_75\n      jump\t// in\n    tag_74:\n      mload(0x40)\n      dup1\n      swap2\n      sub\n      swap1\n      revert\n    tag_73:\n        /* \"cuimianMaster/CrowdFund.sol\":1724:1731  90 days */\n      0x76a700\n        /* \"cuimianMaster/CrowdFund.sol\":1706:1721  block.timestamp */\n      timestamp\n        /* \"cuimianMaster/CrowdFund.sol\":1706:1731  block.timestamp + 90 days */\n      tag_76\n      swap2\n      swap1\n      tag_77\n      jump\t// in\n    tag_76:\n        /* \"cuimianMaster/CrowdFund.sol\":1696:1702  _endAt */\n      dup2\n        /* \"cuimianMaster/CrowdFund.sol\":1696:1731  _endAt <= block.timestamp + 90 days */\n      0xffffffff\n      and\n      gt\n      iszero\n        /* \"cuimianMaster/CrowdFund.sol\":1688:1757  require(_endAt <= block.timestamp + 90 days, \"end at > max duration\") */\n      tag_78\n      jumpi\n      mload(0x40)\n      0x08c379a000000000000000000000000000000000000000000000000000000000\n      dup2\n      mstore\n      0x04\n      add\n      tag_79\n      swap1\n      tag_80\n      jump\t// in\n    tag_79:\n      mload(0x40)\n      dup1\n      swap2\n      sub\n      swap1\n      revert\n    tag_78:\n        /* \"cuimianMaster/CrowdFund.sol\":1784:1785  1 */\n      0x01\n        /* \"cuimianMaster/CrowdFund.sol\":1770:1780  campaignId */\n      0x00\n      dup1\n        /* \"cuimianMaster/CrowdFund.sol\":1770:1785  campaignId += 1 */\n      dup3\n      dup3\n      sload\n      tag_81\n      swap2\n      swap1\n      tag_77\n      jump\t// in\n    tag_81:\n      swap3\n      pop\n      pop\n      dup2\n      swap1\n      sstore\n      pop\n        /* \"cuimianMaster/CrowdFund.sol\":1820:2021  Campaign({... */\n      mload(0x40)\n      dup1\n      0xc0\n      add\n      0x40\n      mstore\n      dup1\n        /* \"cuimianMaster/CrowdFund.sol\":1854:1864  msg.sender */\n      caller\n        /* \"cuimianMaster/CrowdFund.sol\":1820:2021  Campaign({... */\n      0xffffffffffffffffffffffffffffffffffffffff\n      and\n      dup2\n      mstore\n      0x20\n      add\n        /* \"cuimianMaster/CrowdFund.sol\":1886:1891  _goal */\n      dup5\n        /* \"cuimianMaster/CrowdFund.sol\":1820:2021  Campaign({... */\n      dup2\n      mstore\n      0x20\n      add\n        /* \"cuimianMaster/CrowdFund.sol\":1916:1917  0 */\n      0x00\n        /* \"cuimianMaster/CrowdFund.sol\":1820:2021  Campaign({... */\n      dup2\n      mstore\n      0x20\n      add\n        /* \"cuimianMaster/CrowdFund.sol\":1942:1950  _startAt */\n      dup4\n        /* \"cuimianMaster/CrowdFund.sol\":1820:2021  Campaign({... */\n      0xffffffff\n      and\n      dup2\n      mstore\n      0x20\n      add\n        /* \"cuimianMaster/CrowdFund.sol\":1973:1979  _endAt */\n      dup3\n        /* \"cuimianMaster/CrowdFund.sol\":1820:2021  Campaign({... */\n      0xffffffff\n      and\n      dup2\n      mstore\n      0x20\n      add\n        /* \"cuimianMaster/CrowdFund.sol\":2004:2009  false */\n      0x00\n        /* \"cuimianMaster/CrowdFund.sol\":1820:2021  Campaign({... */\n      iszero\n      iszero\n      dup2\n      mstore\n      pop\n        /* \"cuimianMaster/CrowdFund.sol\":1796:1805  campaigns */\n      0x01\n        /* \"cuimianMaster/CrowdFund.sol\":1796:1817  campaigns[campaignId] */\n      0x00\n        /* \"cuimianMaster/CrowdFund.sol\":1806:1816  campaignId */\n      dup1\n      sload\n        /* \"cuimianMaster/CrowdFund.sol\":1796:1817  campaigns[campaignId] */\n      dup2\n      mstore\n      0x20\n      add\n      swap1\n      dup2\n      mstore\n      0x20\n      add\n      0x00\n      keccak256\n        /* \"cuimianMaster/CrowdFund.sol\":1796:2021  campaigns[campaignId] = Campaign({... */\n      0x00\n      dup3\n      add\n      mload\n      dup2\n      0x00\n      add\n      exp(0x0100, 0x00)\n      dup2\n      sload\n      dup2\n      0xffffffffffffffffffffffffffffffffffffffff\n      mul\n      not\n      and\n      swap1\n      dup4\n      0xffffffffffffffffffffffffffffffffffffffff\n      and\n      mul\n      or\n      swap1\n      sstore\n      pop\n      0x20\n      dup3\n      add\n      mload\n      dup2\n      0x01\n      add\n      sstore\n      0x40\n      dup3\n      add\n      mload\n      dup2\n      0x02\n      add\n      sstore\n      0x60\n      dup3\n      add\n      mload\n      dup2\n      0x03\n      add\n      exp(0x0100, 0x00)\n      dup2\n      sload\n      dup2\n      0xffffffff\n      mul\n      not\n      and\n      swap1\n      dup4\n      0xffffffff\n      and\n      mul\n      or\n      swap1\n      sstore\n      pop\n      0x80\n      dup3\n      add\n      mload\n      dup2\n      0x03\n      add\n      exp(0x0100, 0x04)\n      dup2\n      sload\n      dup2\n      0xffffffff\n      mul\n      not\n      and\n      swap1\n      dup4\n      0xffffffff\n      and\n      mul\n      or\n      swap1\n      sstore\n      pop\n      0xa0\n      dup3\n      add\n      mload\n      dup2\n      0x03\n      add\n      exp(0x0100, 0x08)\n      dup2\n      sload\n      dup2\n      0xff\n      mul\n      not\n      and\n      swap1\n      dup4\n      iszero\n      iszero\n      mul\n      or\n      swap1\n      sstore\n      pop\n      swap1\n      pop\n      pop\n        /* \"cuimianMaster/CrowdFund.sol\":2058:2068  msg.sender */\n      caller\n        /* \"cuimianMaster/CrowdFund.sol\":2039:2094  Launch(campaignId, msg.sender, _goal, _startAt, _endAt) */\n      0xffffffffffffffffffffffffffffffffffffffff\n      and\n      0x0601cd0d650b473037e838a2696d41e654433d065b3f56b28d1d3302e44a304f\n        /* \"cuimianMaster/CrowdFund.sol\":2046:2056  campaignId */\n      sload(0x00)\n        /* \"cuimianMaster/CrowdFund.sol\":2070:2075  _goal */\n      dup6\n        /* \"cuimianMaster/CrowdFund.sol\":2077:2085  _startAt */\n      dup6\n        /* \"cuimianMaster/CrowdFund.sol\":2087:2093  _endAt */\n      dup6\n        /* \"cuimianMaster/CrowdFund.sol\":2039:2094  Launch(campaignId, msg.sender, _goal, _startAt, _endAt) */\n      mload(0x40)\n      tag_82\n      swap5\n      swap4\n      swap3\n      swap2\n      swap1\n      tag_83\n      jump\t// in\n    tag_82:\n      mload(0x40)\n      dup1\n      swap2\n      sub\n      swap1\n      log2\n        /* \"cuimianMaster/CrowdFund.sol\":1431:2102  function launch(uint _goal, uint32 _startAt, uint32 _endAt) external {... */\n      pop\n      pop\n      pop\n      jump\t// out\n        /* \"cuimianMaster/CrowdFund.sol\":4171:4762  function claim(uint _campaignId) external {... */\n    tag_29:\n        /* \"cuimianMaster/CrowdFund.sol\":4224:4249  Campaign storage campaign */\n      0x00\n        /* \"cuimianMaster/CrowdFund.sol\":4252:4261  campaigns */\n      0x01\n        /* \"cuimianMaster/CrowdFund.sol\":4252:4274  campaigns[_campaignId] */\n      0x00\n        /* \"cuimianMaster/CrowdFund.sol\":4262:4273  _campaignId */\n      dup4\n        /* \"cuimianMaster/CrowdFund.sol\":4252:4274  campaigns[_campaignId] */\n      dup2\n      mstore\n      0x20\n      add\n      swap1\n      dup2\n      mstore\n      0x20\n      add\n      0x00\n      keccak256\n        /* \"cuimianMaster/CrowdFund.sol\":4224:4274  Campaign storage campaign = campaigns[_campaignId] */\n      swap1\n      pop\n        /* \"cuimianMaster/CrowdFund.sol\":4307:4315  campaign */\n      dup1\n        /* \"cuimianMaster/CrowdFund.sol\":4307:4323  campaign.creator */\n      0x00\n      add\n      0x00\n      swap1\n      sload\n      swap1\n      0x0100\n      exp\n      swap1\n      div\n      0xffffffffffffffffffffffffffffffffffffffff\n      and\n        /* \"cuimianMaster/CrowdFund.sol\":4293:4323  msg.sender == campaign.creator */\n      0xffffffffffffffffffffffffffffffffffffffff\n      and\n        /* \"cuimianMaster/CrowdFund.sol\":4293:4303  msg.sender */\n      caller\n        /* \"cuimianMaster/CrowdFund.sol\":4293:4323  msg.sender == campaign.creator */\n      0xffffffffffffffffffffffffffffffffffffffff\n      and\n      eq\n        /* \"cuimianMaster/CrowdFund.sol\":4285:4339  require(msg.sender == campaign.creator, \"not creatro\") */\n      tag_85\n      jumpi\n      mload(0x40)\n      0x08c379a000000000000000000000000000000000000000000000000000000000\n      dup2\n      mstore\n      0x04\n      add\n      tag_86\n      swap1\n      tag_87\n      jump\t// in\n    tag_86:\n      mload(0x40)\n      dup1\n      swap2\n      sub\n      swap1\n      revert\n    tag_85:\n        /* \"cuimianMaster/CrowdFund.sol\":4376:4384  campaign */\n      dup1\n        /* \"cuimianMaster/CrowdFund.sol\":4376:4390  campaign.endAt */\n      0x03\n      add\n      0x04\n      swap1\n      sload\n      swap1\n      0x0100\n      exp\n      swap1\n      div\n      0xffffffff\n      and\n        /* \"cuimianMaster/CrowdFund.sol\":4358:4390  block.timestamp > campaign.endAt */\n      0xffffffff\n      and\n        /* \"cuimianMaster/CrowdFund.sol\":4358:4373  block.timestamp */\n      timestamp\n        /* \"cuimianMaster/CrowdFund.sol\":4358:4390  block.timestamp > campaign.endAt */\n      gt\n        /* \"cuimianMaster/CrowdFund.sol\":4350:4404  require(block.timestamp > campaign.endAt, \"not ended\") */\n      tag_88\n      jumpi\n      mload(0x40)\n      0x08c379a000000000000000000000000000000000000000000000000000000000\n      dup2\n      mstore\n      0x04\n      add\n      tag_89\n      swap1\n      tag_56\n      jump\t// in\n    tag_89:\n      mload(0x40)\n      dup1\n      swap2\n      sub\n      swap1\n      revert\n    tag_88:\n        /* \"cuimianMaster/CrowdFund.sol\":4443:4451  campaign */\n      dup1\n        /* \"cuimianMaster/CrowdFund.sol\":4443:4456  campaign.goal */\n      0x01\n      add\n      sload\n        /* \"cuimianMaster/CrowdFund.sol\":4423:4431  campaign */\n      dup2\n        /* \"cuimianMaster/CrowdFund.sol\":4423:4439  campaign.pledged */\n      0x02\n      add\n      sload\n        /* \"cuimianMaster/CrowdFund.sol\":4423:4456  campaign.pledged >= campaign.goal */\n      lt\n      iszero\n        /* \"cuimianMaster/CrowdFund.sol\":4415:4475  require(campaign.pledged >= campaign.goal, \"pledged < goal\") */\n      tag_90\n      jumpi\n      mload(0x40)\n      0x08c379a000000000000000000000000000000000000000000000000000000000\n      dup2\n      mstore\n      0x04\n      add\n      tag_91\n      swap1\n      tag_92\n      jump\t// in\n    tag_91:\n      mload(0x40)\n      dup1\n      swap2\n      sub\n      swap1\n      revert\n    tag_90:\n        /* \"cuimianMaster/CrowdFund.sol\":4507:4511  true */\n      0x01\n        /* \"cuimianMaster/CrowdFund.sol\":4488:4496  campaign */\n      dup2\n        /* \"cuimianMaster/CrowdFund.sol\":4488:4504  campaign.claimed */\n      0x03\n      add\n      0x08\n        /* \"cuimianMaster/CrowdFund.sol\":4488:4511  campaign.claimed = true */\n      0x0100\n      exp\n      dup2\n      sload\n      dup2\n      0xff\n      mul\n      not\n      and\n      swap1\n      dup4\n      iszero\n      iszero\n      mul\n      or\n      swap1\n      sstore\n      pop\n        /* \"cuimianMaster/CrowdFund.sol\":4655:4660  token */\n      immutable(\"0xd9670a00d025e59e1bd58d53874bea4ab34fea782716e2c168e89a3c8452d3bb\")\n        /* \"cuimianMaster/CrowdFund.sol\":4655:4673  token.transferFrom */\n      0xffffffffffffffffffffffffffffffffffffffff\n      and\n      0x23b872dd\n        /* \"cuimianMaster/CrowdFund.sol\":4682:4686  this */\n      address\n        /* \"cuimianMaster/CrowdFund.sol\":4689:4699  msg.sender */\n      caller\n        /* \"cuimianMaster/CrowdFund.sol\":4701:4709  campaign */\n      dup5\n        /* \"cuimianMaster/CrowdFund.sol\":4701:4717  campaign.pledged */\n      0x02\n      add\n      sload\n        /* \"cuimianMaster/CrowdFund.sol\":4655:4718  token.transferFrom(address(this), msg.sender, campaign.pledged) */\n      mload(0x40)\n      dup5\n      0xffffffff\n      and\n      0xe0\n      shl\n      dup2\n      mstore\n      0x04\n      add\n      tag_93\n      swap4\n      swap3\n      swap2\n      swap1\n      tag_94\n      jump\t// in\n    tag_93:\n      0x20\n      mload(0x40)\n      dup1\n      dup4\n      sub\n      dup2\n      0x00\n      dup8\n      gas\n      call\n      iszero\n      dup1\n      iszero\n      tag_96\n      jumpi\n      returndatasize\n      0x00\n      dup1\n      returndatacopy\n      revert(0x00, returndatasize)\n    tag_96:\n      pop\n      pop\n      pop\n      pop\n      mload(0x40)\n      returndatasize\n      not(0x1f)\n      0x1f\n      dup3\n      add\n      and\n      dup3\n      add\n      dup1\n      0x40\n      mstore\n      pop\n      dup2\n      add\n      swap1\n      tag_97\n      swap2\n      swap1\n      tag_67\n      jump\t// in\n    tag_97:\n      pop\n        /* \"cuimianMaster/CrowdFund.sol\":4736:4754  Claim(_campaignId) */\n      0x7bb2b3c10797baccb6f8c4791f1edd6ca2f0d028ee0eda64b01a9a57e3a653f7\n        /* \"cuimianMaster/CrowdFund.sol\":4742:4753  _campaignId */\n      dup3\n        /* \"cuimianMaster/CrowdFund.sol\":4736:4754  Claim(_campaignId) */\n      mload(0x40)\n      tag_98\n      swap2\n      swap1\n      tag_42\n      jump\t// in\n    tag_98:\n      mload(0x40)\n      dup1\n      swap2\n      sub\n      swap1\n      log1\n        /* \"cuimianMaster/CrowdFund.sol\":4213:4762  {... */\n      pop\n        /* \"cuimianMaster/CrowdFund.sol\":4171:4762  function claim(uint _campaignId) external {... */\n      pop\n      jump\t// out\n        /* \"cuimianMaster/CrowdFund.sol\":2189:2619  function cancel(uint _campaignId) external {... */\n    tag_32:\n        /* \"cuimianMaster/CrowdFund.sol\":2294:2318  Campaign memory campaign */\n      0x00\n        /* \"cuimianMaster/CrowdFund.sol\":2321:2330  campaigns */\n      0x01\n        /* \"cuimianMaster/CrowdFund.sol\":2321:2343  campaigns[_campaignId] */\n      0x00\n        /* \"cuimianMaster/CrowdFund.sol\":2331:2342  _campaignId */\n      dup4\n        /* \"cuimianMaster/CrowdFund.sol\":2321:2343  campaigns[_campaignId] */\n      dup2\n      mstore\n      0x20\n      add\n      swap1\n      dup2\n      mstore\n      0x20\n      add\n      0x00\n      keccak256\n        /* \"cuimianMaster/CrowdFund.sol\":2294:2343  Campaign memory campaign = campaigns[_campaignId] */\n      mload(0x40)\n      dup1\n      0xc0\n      add\n      0x40\n      mstore\n      swap1\n      dup2\n      0x00\n      dup3\n      add\n      0x00\n      swap1\n      sload\n      swap1\n      0x0100\n      exp\n      swap1\n      div\n      0xffffffffffffffffffffffffffffffffffffffff\n      and\n      0xffffffffffffffffffffffffffffffffffffffff\n      and\n      0xffffffffffffffffffffffffffffffffffffffff\n      and\n      dup2\n      mstore\n      0x20\n      add\n      0x01\n      dup3\n      add\n      sload\n      dup2\n      mstore\n      0x20\n      add\n      0x02\n      dup3\n      add\n      sload\n      dup2\n      mstore\n      0x20\n      add\n      0x03\n      dup3\n      add\n      0x00\n      swap1\n      sload\n      swap1\n      0x0100\n      exp\n      swap1\n      div\n      0xffffffff\n      and\n      0xffffffff\n      and\n      0xffffffff\n      and\n      dup2\n      mstore\n      0x20\n      add\n      0x03\n      dup3\n      add\n      0x04\n      swap1\n      sload\n      swap1\n      0x0100\n      exp\n      swap1\n      div\n      0xffffffff\n      and\n      0xffffffff\n      and\n      0xffffffff\n      and\n      dup2\n      mstore\n      0x20\n      add\n      0x03\n      dup3\n      add\n      0x08\n      swap1\n      sload\n      swap1\n      0x0100\n      exp\n      swap1\n      div\n      0xff\n      and\n      iszero\n      iszero\n      iszero\n      iszero\n      dup2\n      mstore\n      pop\n      pop\n      swap1\n      pop\n        /* \"cuimianMaster/CrowdFund.sol\":2415:2423  campaign */\n      dup1\n        /* \"cuimianMaster/CrowdFund.sol\":2415:2431  campaign.creator */\n      0x00\n      add\n      mload\n        /* \"cuimianMaster/CrowdFund.sol\":2401:2431  msg.sender == campaign.creator */\n      0xffffffffffffffffffffffffffffffffffffffff\n      and\n        /* \"cuimianMaster/CrowdFund.sol\":2401:2411  msg.sender */\n      caller\n        /* \"cuimianMaster/CrowdFund.sol\":2401:2431  msg.sender == campaign.creator */\n      0xffffffffffffffffffffffffffffffffffffffff\n      and\n      eq\n        /* \"cuimianMaster/CrowdFund.sol\":2393:2458  require(msg.sender == campaign.creator, \"not creator, no permit\") */\n      tag_100\n      jumpi\n      mload(0x40)\n      0x08c379a000000000000000000000000000000000000000000000000000000000\n      dup2\n      mstore\n      0x04\n      add\n      tag_101\n      swap1\n      tag_102\n      jump\t// in\n    tag_101:\n      mload(0x40)\n      dup1\n      swap2\n      sub\n      swap1\n      revert\n    tag_100:\n        /* \"cuimianMaster/CrowdFund.sol\":2496:2511  block.timestamp */\n      timestamp\n        /* \"cuimianMaster/CrowdFund.sol\":2477:2485  campaign */\n      dup2\n        /* \"cuimianMaster/CrowdFund.sol\":2477:2493  campaign.startAt */\n      0x60\n      add\n      mload\n        /* \"cuimianMaster/CrowdFund.sol\":2477:2511  campaign.startAt > block.timestamp */\n      0xffffffff\n      and\n      gt\n        /* \"cuimianMaster/CrowdFund.sol\":2469:2538  require(campaign.startAt > block.timestamp, \"crowdFund aready start\") */\n      tag_103\n      jumpi\n      mload(0x40)\n      0x08c379a000000000000000000000000000000000000000000000000000000000\n      dup2\n      mstore\n      0x04\n      add\n      tag_104\n      swap1\n      tag_105\n      jump\t// in\n    tag_104:\n      mload(0x40)\n      dup1\n      swap2\n      sub\n      swap1\n      revert\n    tag_103:\n        /* \"cuimianMaster/CrowdFund.sol\":2556:2565  campaigns */\n      0x01\n        /* \"cuimianMaster/CrowdFund.sol\":2556:2577  campaigns[campaignId] */\n      0x00\n        /* \"cuimianMaster/CrowdFund.sol\":2566:2576  campaignId */\n      dup1\n      sload\n        /* \"cuimianMaster/CrowdFund.sol\":2556:2577  campaigns[campaignId] */\n      dup2\n      mstore\n      0x20\n      add\n      swap1\n      dup2\n      mstore\n      0x20\n      add\n      0x00\n      keccak256\n      0x00\n        /* \"cuimianMaster/CrowdFund.sol\":2549:2577  delete campaigns[campaignId] */\n      dup1\n      dup3\n      add\n      exp(0x0100, 0x00)\n      dup2\n      sload\n      swap1\n      0xffffffffffffffffffffffffffffffffffffffff\n      mul\n      not\n      and\n      swap1\n      sstore\n      0x01\n      dup3\n      add\n      0x00\n      swap1\n      sstore\n      0x02\n      dup3\n      add\n      0x00\n      swap1\n      sstore\n      0x03\n      dup3\n      add\n      exp(0x0100, 0x00)\n      dup2\n      sload\n      swap1\n      0xffffffff\n      mul\n      not\n      and\n      swap1\n      sstore\n      0x03\n      dup3\n      add\n      exp(0x0100, 0x04)\n      dup2\n      sload\n      swap1\n      0xffffffff\n      mul\n      not\n      and\n      swap1\n      sstore\n      0x03\n      dup3\n      add\n      exp(0x0100, 0x08)\n      dup2\n      sload\n      swap1\n      0xff\n      mul\n      not\n      and\n      swap1\n      sstore\n      pop\n      pop\n        /* \"cuimianMaster/CrowdFund.sol\":2593:2611  Cancle(campaignId) */\n      0xb232b8003f267be13dfa13a4524c91d4040f5786eaa74f083d2850d1fc220582\n        /* \"cuimianMaster/CrowdFund.sol\":2600:2610  campaignId */\n      sload(0x00)\n        /* \"cuimianMaster/CrowdFund.sol\":2593:2611  Cancle(campaignId) */\n      mload(0x40)\n      tag_106\n      swap2\n      swap1\n      tag_42\n      jump\t// in\n    tag_106:\n      mload(0x40)\n      dup1\n      swap2\n      sub\n      swap1\n      log1\n        /* \"cuimianMaster/CrowdFund.sol\":2232:2619  {... */\n      pop\n        /* \"cuimianMaster/CrowdFund.sol\":2189:2619  function cancel(uint _campaignId) external {... */\n      pop\n      jump\t// out\n        /* \"cuimianMaster/CrowdFund.sol\":3645:4098  function unpledge(uint _campaignId, uint _amount) external {... */\n    tag_36:\n        /* \"cuimianMaster/CrowdFund.sol\":3715:3740  Campaign storage campaign */\n      0x00\n        /* \"cuimianMaster/CrowdFund.sol\":3743:3752  campaigns */\n      0x01\n        /* \"cuimianMaster/CrowdFund.sol\":3743:3765  campaigns[_campaignId] */\n      0x00\n        /* \"cuimianMaster/CrowdFund.sol\":3753:3764  _campaignId */\n      dup5\n        /* \"cuimianMaster/CrowdFund.sol\":3743:3765  campaigns[_campaignId] */\n      dup2\n      mstore\n      0x20\n      add\n      swap1\n      dup2\n      mstore\n      0x20\n      add\n      0x00\n      keccak256\n        /* \"cuimianMaster/CrowdFund.sol\":3715:3765  Campaign storage campaign = campaigns[_campaignId] */\n      swap1\n      pop\n        /* \"cuimianMaster/CrowdFund.sol\":3802:3810  campaign */\n      dup1\n        /* \"cuimianMaster/CrowdFund.sol\":3802:3816  campaign.endAt */\n      0x03\n      add\n      0x04\n      swap1\n      sload\n      swap1\n      0x0100\n      exp\n      swap1\n      div\n      0xffffffff\n      and\n        /* \"cuimianMaster/CrowdFund.sol\":3784:3816  block.timestamp < campaign.endAt */\n      0xffffffff\n      and\n        /* \"cuimianMaster/CrowdFund.sol\":3784:3799  block.timestamp */\n      timestamp\n        /* \"cuimianMaster/CrowdFund.sol\":3784:3816  block.timestamp < campaign.endAt */\n      lt\n        /* \"cuimianMaster/CrowdFund.sol\":3776:3826  require(block.timestamp < campaign.endAt, \"ended\") */\n      tag_108\n      jumpi\n      mload(0x40)\n      0x08c379a000000000000000000000000000000000000000000000000000000000\n      dup2\n      mstore\n      0x04\n      add\n      tag_109\n      swap1\n      tag_110\n      jump\t// in\n    tag_109:\n      mload(0x40)\n      dup1\n      swap2\n      sub\n      swap1\n      revert\n    tag_108:\n        /* \"cuimianMaster/CrowdFund.sol\":3859:3866  _amount */\n      dup2\n        /* \"cuimianMaster/CrowdFund.sol\":3839:3847  campaign */\n      dup2\n        /* \"cuimianMaster/CrowdFund.sol\":3839:3855  campaign.pledged */\n      0x02\n      add\n      0x00\n        /* \"cuimianMaster/CrowdFund.sol\":3839:3866  campaign.pledged -= _amount */\n      dup3\n      dup3\n      sload\n      tag_111\n      swap2\n      swap1\n      tag_61\n      jump\t// in\n    tag_111:\n      swap3\n      pop\n      pop\n      dup2\n      swap1\n      sstore\n      pop\n        /* \"cuimianMaster/CrowdFund.sol\":3918:3925  _amount */\n      dup2\n        /* \"cuimianMaster/CrowdFund.sol\":3877:3889  pledgeAmount */\n      0x02\n        /* \"cuimianMaster/CrowdFund.sol\":3877:3902  pledgeAmount[_campaignId] */\n      0x00\n        /* \"cuimianMaster/CrowdFund.sol\":3890:3901  _campaignId */\n      dup6\n        /* \"cuimianMaster/CrowdFund.sol\":3877:3902  pledgeAmount[_campaignId] */\n      dup2\n      mstore\n      0x20\n      add\n      swap1\n      dup2\n      mstore\n      0x20\n      add\n      0x00\n      keccak256\n        /* \"cuimianMaster/CrowdFund.sol\":3877:3914  pledgeAmount[_campaignId][msg.sender] */\n      0x00\n        /* \"cuimianMaster/CrowdFund.sol\":3903:3913  msg.sender */\n      caller\n        /* \"cuimianMaster/CrowdFund.sol\":3877:3914  pledgeAmount[_campaignId][msg.sender] */\n      0xffffffffffffffffffffffffffffffffffffffff\n      and\n      0xffffffffffffffffffffffffffffffffffffffff\n      and\n      dup2\n      mstore\n      0x20\n      add\n      swap1\n      dup2\n      mstore\n      0x20\n      add\n      0x00\n      keccak256\n      0x00\n        /* \"cuimianMaster/CrowdFund.sol\":3877:3925  pledgeAmount[_campaignId][msg.sender] -= _amount */\n      dup3\n      dup3\n      sload\n      tag_112\n      swap2\n      swap1\n      tag_61\n      jump\t// in\n    tag_112:\n      swap3\n      pop\n      pop\n      dup2\n      swap1\n      sstore\n      pop\n        /* \"cuimianMaster/CrowdFund.sol\":3993:3998  token */\n      immutable(\"0xd9670a00d025e59e1bd58d53874bea4ab34fea782716e2c168e89a3c8452d3bb\")\n        /* \"cuimianMaster/CrowdFund.sol\":3993:4007  token.transfer */\n      0xffffffffffffffffffffffffffffffffffffffff\n      and\n      0xa9059cbb\n        /* \"cuimianMaster/CrowdFund.sol\":4008:4018  msg.sender */\n      caller\n        /* \"cuimianMaster/CrowdFund.sol\":4020:4027  _amount */\n      dup5\n        /* \"cuimianMaster/CrowdFund.sol\":3993:4028  token.transfer(msg.sender, _amount) */\n      mload(0x40)\n      dup4\n      0xffffffff\n      and\n      0xe0\n      shl\n      dup2\n      mstore\n      0x04\n      add\n      tag_113\n      swap3\n      swap2\n      swap1\n      tag_63\n      jump\t// in\n    tag_113:\n      0x20\n      mload(0x40)\n      dup1\n      dup4\n      sub\n      dup2\n      0x00\n      dup8\n      gas\n      call\n      iszero\n      dup1\n      iszero\n      tag_115\n      jumpi\n      returndatasize\n      0x00\n      dup1\n      returndatacopy\n      revert(0x00, returndatasize)\n    tag_115:\n      pop\n      pop\n      pop\n      pop\n      mload(0x40)\n      returndatasize\n      not(0x1f)\n      0x1f\n      dup3\n      add\n      and\n      dup3\n      add\n      dup1\n      0x40\n      mstore\n      pop\n      dup2\n      add\n      swap1\n      tag_116\n      swap2\n      swap1\n      tag_67\n      jump\t// in\n    tag_116:\n      pop\n        /* \"cuimianMaster/CrowdFund.sol\":4068:4078  msg.sender */\n      caller\n        /* \"cuimianMaster/CrowdFund.sol\":4046:4088  Unpledge(_campaignId, msg.sender, _amount) */\n      0xffffffffffffffffffffffffffffffffffffffff\n      and\n        /* \"cuimianMaster/CrowdFund.sol\":4055:4066  _campaignId */\n      dup4\n        /* \"cuimianMaster/CrowdFund.sol\":4046:4088  Unpledge(_campaignId, msg.sender, _amount) */\n      0x2eeeab891b26a214d1b25749f88a406bdea852bd8c9bfda977e0ef8114c180ba\n        /* \"cuimianMaster/CrowdFund.sol\":4080:4087  _amount */\n      dup5\n        /* \"cuimianMaster/CrowdFund.sol\":4046:4088  Unpledge(_campaignId, msg.sender, _amount) */\n      mload(0x40)\n      tag_117\n      swap2\n      swap1\n      tag_42\n      jump\t// in\n    tag_117:\n      mload(0x40)\n      dup1\n      swap2\n      sub\n      swap1\n      log3\n        /* \"cuimianMaster/CrowdFund.sol\":3704:4098  {... */\n      pop\n        /* \"cuimianMaster/CrowdFund.sol\":3645:4098  function unpledge(uint _campaignId, uint _amount) external {... */\n      pop\n      pop\n      jump\t// out\n        /* \"cuimianMaster/CrowdFund.sol\":1202:1263  mapping(uint => mapping(address => uint)) public pledgeAmount */\n    tag_40:\n      mstore(0x20, 0x02)\n      dup2\n      0x00\n      mstore\n      mstore(0x20, keccak256(0x00, 0x40))\n      dup1\n      0x00\n      mstore\n      keccak256(0x00, 0x40)\n      0x00\n      swap2\n      pop\n      swap2\n      pop\n      pop\n      sload\n      dup2\n      jump\t// out\n        /* \"cuimianMaster/CrowdFund.sol\":1042:1064  uint public campaignId */\n    tag_44:\n      sload(0x00)\n      dup2\n      jump\t// out\n        /* \"cuimianMaster/CrowdFund.sol\":990:1019  IERC20 public immutable token */\n    tag_47:\n      immutable(\"0xd9670a00d025e59e1bd58d53874bea4ab34fea782716e2c168e89a3c8452d3bb\")\n      dup2\n      jump\t// out\n        /* \"cuimianMaster/CrowdFund.sol\":2653:3397  function pledge(uint _campaignId, uint _amount) external {... */\n    tag_52:\n        /* \"cuimianMaster/CrowdFund.sol\":2764:2789  Campaign storage campaign */\n      0x00\n        /* \"cuimianMaster/CrowdFund.sol\":2792:2801  campaigns */\n      0x01\n        /* \"cuimianMaster/CrowdFund.sol\":2792:2814  campaigns[_campaignId] */\n      0x00\n        /* \"cuimianMaster/CrowdFund.sol\":2802:2813  _campaignId */\n      dup5\n        /* \"cuimianMaster/CrowdFund.sol\":2792:2814  campaigns[_campaignId] */\n      dup2\n      mstore\n      0x20\n      add\n      swap1\n      dup2\n      mstore\n      0x20\n      add\n      0x00\n      keccak256\n        /* \"cuimianMaster/CrowdFund.sol\":2764:2814  Campaign storage campaign = campaigns[_campaignId] */\n      swap1\n      pop\n        /* \"cuimianMaster/CrowdFund.sol\":2852:2860  campaign */\n      dup1\n        /* \"cuimianMaster/CrowdFund.sol\":2852:2868  campaign.startAt */\n      0x03\n      add\n      0x00\n      swap1\n      sload\n      swap1\n      0x0100\n      exp\n      swap1\n      div\n      0xffffffff\n      and\n        /* \"cuimianMaster/CrowdFund.sol\":2833:2868  block.timestamp >= campaign.startAt */\n      0xffffffff\n      and\n        /* \"cuimianMaster/CrowdFund.sol\":2833:2848  block.timestamp */\n      timestamp\n        /* \"cuimianMaster/CrowdFund.sol\":2833:2868  block.timestamp >= campaign.startAt */\n      lt\n      iszero\n        /* \"cuimianMaster/CrowdFund.sol\":2825:2882  require(block.timestamp >= campaign.startAt, \"not start\") */\n      tag_119\n      jumpi\n      mload(0x40)\n      0x08c379a000000000000000000000000000000000000000000000000000000000\n      dup2\n      mstore\n      0x04\n      add\n      tag_120\n      swap1\n      tag_121\n      jump\t// in\n    tag_120:\n      mload(0x40)\n      dup1\n      swap2\n      sub\n      swap1\n      revert\n    tag_119:\n        /* \"cuimianMaster/CrowdFund.sol\":2920:2928  campaign */\n      dup1\n        /* \"cuimianMaster/CrowdFund.sol\":2920:2934  campaign.endAt */\n      0x03\n      add\n      0x04\n      swap1\n      sload\n      swap1\n      0x0100\n      exp\n      swap1\n      div\n      0xffffffff\n      and\n        /* \"cuimianMaster/CrowdFund.sol\":2901:2934  block.timestamp <= campaign.endAt */\n      0xffffffff\n      and\n        /* \"cuimianMaster/CrowdFund.sol\":2901:2916  block.timestamp */\n      timestamp\n        /* \"cuimianMaster/CrowdFund.sol\":2901:2934  block.timestamp <= campaign.endAt */\n      gt\n      iszero\n        /* \"cuimianMaster/CrowdFund.sol\":2893:2944  require(block.timestamp <= campaign.endAt, \"ended\") */\n      tag_122\n      jumpi\n      mload(0x40)\n      0x08c379a000000000000000000000000000000000000000000000000000000000\n      dup2\n      mstore\n      0x04\n      add\n      tag_123\n      swap1\n      tag_110\n      jump\t// in\n    tag_123:\n      mload(0x40)\n      dup1\n      swap2\n      sub\n      swap1\n      revert\n    tag_122:\n        /* \"cuimianMaster/CrowdFund.sol\":3015:3022  _amount */\n      dup2\n        /* \"cuimianMaster/CrowdFund.sol\":2995:3003  campaign */\n      dup2\n        /* \"cuimianMaster/CrowdFund.sol\":2995:3011  campaign.pledged */\n      0x02\n      add\n      0x00\n        /* \"cuimianMaster/CrowdFund.sol\":2995:3022  campaign.pledged += _amount */\n      dup3\n      dup3\n      sload\n      tag_124\n      swap2\n      swap1\n      tag_77\n      jump\t// in\n    tag_124:\n      swap3\n      pop\n      pop\n      dup2\n      swap1\n      sstore\n      pop\n        /* \"cuimianMaster/CrowdFund.sol\":3113:3120  _amount */\n      dup2\n        /* \"cuimianMaster/CrowdFund.sol\":3072:3084  pledgeAmount */\n      0x02\n        /* \"cuimianMaster/CrowdFund.sol\":3072:3097  pledgeAmount[_campaignId] */\n      0x00\n        /* \"cuimianMaster/CrowdFund.sol\":3085:3096  _campaignId */\n      dup6\n        /* \"cuimianMaster/CrowdFund.sol\":3072:3097  pledgeAmount[_campaignId] */\n      dup2\n      mstore\n      0x20\n      add\n      swap1\n      dup2\n      mstore\n      0x20\n      add\n      0x00\n      keccak256\n        /* \"cuimianMaster/CrowdFund.sol\":3072:3109  pledgeAmount[_campaignId][msg.sender] */\n      0x00\n        /* \"cuimianMaster/CrowdFund.sol\":3098:3108  msg.sender */\n      caller\n        /* \"cuimianMaster/CrowdFund.sol\":3072:3109  pledgeAmount[_campaignId][msg.sender] */\n      0xffffffffffffffffffffffffffffffffffffffff\n      and\n      0xffffffffffffffffffffffffffffffffffffffff\n      and\n      dup2\n      mstore\n      0x20\n      add\n      swap1\n      dup2\n      mstore\n      0x20\n      add\n      0x00\n      keccak256\n      0x00\n        /* \"cuimianMaster/CrowdFund.sol\":3072:3120  pledgeAmount[_campaignId][msg.sender] += _amount */\n      dup3\n      dup3\n      sload\n      tag_125\n      swap2\n      swap1\n      tag_77\n      jump\t// in\n    tag_125:\n      swap3\n      pop\n      pop\n      dup2\n      swap1\n      sstore\n      pop\n        /* \"cuimianMaster/CrowdFund.sol\":3220:3225  token */\n      immutable(\"0xd9670a00d025e59e1bd58d53874bea4ab34fea782716e2c168e89a3c8452d3bb\")\n        /* \"cuimianMaster/CrowdFund.sol\":3220:3238  token.transferFrom */\n      0xffffffffffffffffffffffffffffffffffffffff\n      and\n      0x23b872dd\n        /* \"cuimianMaster/CrowdFund.sol\":3239:3249  msg.sender */\n      caller\n        /* \"cuimianMaster/CrowdFund.sol\":3259:3263  this */\n      address\n        /* \"cuimianMaster/CrowdFund.sol\":3266:3273  _amount */\n      dup6\n        /* \"cuimianMaster/CrowdFund.sol\":3220:3274  token.transferFrom(msg.sender, address(this), _amount) */\n      mload(0x40)\n      dup5\n      0xffffffff\n      and\n      0xe0\n      shl\n      dup2\n      mstore\n      0x04\n      add\n      tag_126\n      swap4\n      swap3\n      swap2\n      swap1\n      tag_94\n      jump\t// in\n    tag_126:\n      0x20\n      mload(0x40)\n      dup1\n      dup4\n      sub\n      dup2\n      0x00\n      dup8\n      gas\n      call\n      iszero\n      dup1\n      iszero\n      tag_128\n      jumpi\n      returndatasize\n      0x00\n      dup1\n      returndatacopy\n      revert(0x00, returndatasize)\n    tag_128:\n      pop\n      pop\n      pop\n      pop\n      mload(0x40)\n      returndatasize\n      not(0x1f)\n      0x1f\n      dup3\n      add\n      and\n      dup3\n      add\n      dup1\n      0x40\n      mstore\n      pop\n      dup2\n      add\n      swap1\n      tag_129\n      swap2\n      swap1\n      tag_67\n      jump\t// in\n    tag_129:\n      pop\n        /* \"cuimianMaster/CrowdFund.sol\":3369:3379  msg.sender */\n      caller\n        /* \"cuimianMaster/CrowdFund.sol\":3349:3389  Pledge(_campaignId, msg.sender, _amount) */\n      0xffffffffffffffffffffffffffffffffffffffff\n      and\n        /* \"cuimianMaster/CrowdFund.sol\":3356:3367  _campaignId */\n      dup4\n        /* \"cuimianMaster/CrowdFund.sol\":3349:3389  Pledge(_campaignId, msg.sender, _amount) */\n      0x06bdb975df800a73232998e71ed585d536222f1dfeaa622d7f62a23ada686c82\n        /* \"cuimianMaster/CrowdFund.sol\":3381:3388  _amount */\n      dup5\n        /* \"cuimianMaster/CrowdFund.sol\":3349:3389  Pledge(_campaignId, msg.sender, _amount) */\n      mload(0x40)\n      tag_130\n      swap2\n      swap1\n      tag_42\n      jump\t// in\n    tag_130:\n      mload(0x40)\n      dup1\n      swap2\n      sub\n      swap1\n      log3\n        /* \"cuimianMaster/CrowdFund.sol\":2710:3397  {... */\n      pop\n        /* \"cuimianMaster/CrowdFund.sol\":2653:3397  function pledge(uint _campaignId, uint _amount) external {... */\n      pop\n      pop\n      jump\t// out\n        /* \"#utility.yul\":88:205   */\n    tag_132:\n        /* \"#utility.yul\":197:198   */\n      0x00\n        /* \"#utility.yul\":194:195   */\n      dup1\n        /* \"#utility.yul\":187:199   */\n      revert\n        /* \"#utility.yul\":334:411   */\n    tag_134:\n        /* \"#utility.yul\":371:378   */\n      0x00\n        /* \"#utility.yul\":400:405   */\n      dup2\n        /* \"#utility.yul\":389:405   */\n      swap1\n      pop\n        /* \"#utility.yul\":334:411   */\n      swap2\n      swap1\n      pop\n      jump\t// out\n        /* \"#utility.yul\":417:539   */\n    tag_135:\n        /* \"#utility.yul\":490:514   */\n      tag_186\n        /* \"#utility.yul\":508:513   */\n      dup2\n        /* \"#utility.yul\":490:514   */\n      tag_134\n      jump\t// in\n    tag_186:\n        /* \"#utility.yul\":483:488   */\n      dup2\n        /* \"#utility.yul\":480:515   */\n      eq\n        /* \"#utility.yul\":470:533   */\n      tag_187\n      jumpi\n        /* \"#utility.yul\":529:530   */\n      0x00\n        /* \"#utility.yul\":526:527   */\n      dup1\n        /* \"#utility.yul\":519:531   */\n      revert\n        /* \"#utility.yul\":470:533   */\n    tag_187:\n        /* \"#utility.yul\":417:539   */\n      pop\n      jump\t// out\n        /* \"#utility.yul\":545:684   */\n    tag_136:\n        /* \"#utility.yul\":591:596   */\n      0x00\n        /* \"#utility.yul\":629:635   */\n      dup2\n        /* \"#utility.yul\":616:636   */\n      calldataload\n        /* \"#utility.yul\":607:636   */\n      swap1\n      pop\n        /* \"#utility.yul\":645:678   */\n      tag_189\n        /* \"#utility.yul\":672:677   */\n      dup2\n        /* \"#utility.yul\":645:678   */\n      tag_135\n      jump\t// in\n    tag_189:\n        /* \"#utility.yul\":545:684   */\n      swap3\n      swap2\n      pop\n      pop\n      jump\t// out\n        /* \"#utility.yul\":690:1019   */\n    tag_16:\n        /* \"#utility.yul\":749:755   */\n      0x00\n        /* \"#utility.yul\":798:800   */\n      0x20\n        /* \"#utility.yul\":786:795   */\n      dup3\n        /* \"#utility.yul\":777:784   */\n      dup5\n        /* \"#utility.yul\":773:796   */\n      sub\n        /* \"#utility.yul\":769:801   */\n      slt\n        /* \"#utility.yul\":766:885   */\n      iszero\n      tag_191\n      jumpi\n        /* \"#utility.yul\":804:883   */\n      tag_192\n      tag_132\n      jump\t// in\n    tag_192:\n        /* \"#utility.yul\":766:885   */\n    tag_191:\n        /* \"#utility.yul\":924:925   */\n      0x00\n        /* \"#utility.yul\":949:1002   */\n      tag_193\n        /* \"#utility.yul\":994:1001   */\n      dup5\n        /* \"#utility.yul\":985:991   */\n      dup3\n        /* \"#utility.yul\":974:983   */\n      dup6\n        /* \"#utility.yul\":970:992   */\n      add\n        /* \"#utility.yul\":949:1002   */\n      tag_136\n      jump\t// in\n    tag_193:\n        /* \"#utility.yul\":939:1002   */\n      swap2\n      pop\n        /* \"#utility.yul\":895:1012   */\n      pop\n        /* \"#utility.yul\":690:1019   */\n      swap3\n      swap2\n      pop\n      pop\n      jump\t// out\n        /* \"#utility.yul\":1025:1151   */\n    tag_137:\n        /* \"#utility.yul\":1062:1069   */\n      0x00\n        /* \"#utility.yul\":1102:1144   */\n      0xffffffffffffffffffffffffffffffffffffffff\n        /* \"#utility.yul\":1095:1100   */\n      dup3\n        /* \"#utility.yul\":1091:1145   */\n      and\n        /* \"#utility.yul\":1080:1145   */\n      swap1\n      pop\n        /* \"#utility.yul\":1025:1151   */\n      swap2\n      swap1\n      pop\n      jump\t// out\n        /* \"#utility.yul\":1157:1253   */\n    tag_138:\n        /* \"#utility.yul\":1194:1201   */\n      0x00\n        /* \"#utility.yul\":1223:1247   */\n      tag_196\n        /* \"#utility.yul\":1241:1246   */\n      dup3\n        /* \"#utility.yul\":1223:1247   */\n      tag_137\n      jump\t// in\n    tag_196:\n        /* \"#utility.yul\":1212:1247   */\n      swap1\n      pop\n        /* \"#utility.yul\":1157:1253   */\n      swap2\n      swap1\n      pop\n      jump\t// out\n        /* \"#utility.yul\":1259:1377   */\n    tag_139:\n        /* \"#utility.yul\":1346:1370   */\n      tag_198\n        /* \"#utility.yul\":1364:1369   */\n      dup2\n        /* \"#utility.yul\":1346:1370   */\n      tag_138\n      jump\t// in\n    tag_198:\n        /* \"#utility.yul\":1341:1344   */\n      dup3\n        /* \"#utility.yul\":1334:1371   */\n      mstore\n        /* \"#utility.yul\":1259:1377   */\n      pop\n      pop\n      jump\t// out\n        /* \"#utility.yul\":1383:1501   */\n    tag_140:\n        /* \"#utility.yul\":1470:1494   */\n      tag_200\n        /* \"#utility.yul\":1488:1493   */\n      dup2\n        /* \"#utility.yul\":1470:1494   */\n      tag_134\n      jump\t// in\n    tag_200:\n        /* \"#utility.yul\":1465:1468   */\n      dup3\n        /* \"#utility.yul\":1458:1495   */\n      mstore\n        /* \"#utility.yul\":1383:1501   */\n      pop\n      pop\n      jump\t// out\n        /* \"#utility.yul\":1507:1600   */\n    tag_141:\n        /* \"#utility.yul\":1543:1550   */\n      0x00\n        /* \"#utility.yul\":1583:1593   */\n      0xffffffff\n        /* \"#utility.yul\":1576:1581   */\n      dup3\n        /* \"#utility.yul\":1572:1594   */\n      and\n        /* \"#utility.yul\":1561:1594   */\n      swap1\n      pop\n        /* \"#utility.yul\":1507:1600   */\n      swap2\n      swap1\n      pop\n      jump\t// out\n        /* \"#utility.yul\":1606:1721   */\n    tag_142:\n        /* \"#utility.yul\":1691:1714   */\n      tag_203\n        /* \"#utility.yul\":1708:1713   */\n      dup2\n        /* \"#utility.yul\":1691:1714   */\n      tag_141\n      jump\t// in\n    tag_203:\n        /* \"#utility.yul\":1686:1689   */\n      dup3\n        /* \"#utility.yul\":1679:1715   */\n      mstore\n        /* \"#utility.yul\":1606:1721   */\n      pop\n      pop\n      jump\t// out\n        /* \"#utility.yul\":1727:1817   */\n    tag_143:\n        /* \"#utility.yul\":1761:1768   */\n      0x00\n        /* \"#utility.yul\":1804:1809   */\n      dup2\n        /* \"#utility.yul\":1797:1810   */\n      iszero\n        /* \"#utility.yul\":1790:1811   */\n      iszero\n        /* \"#utility.yul\":1779:1811   */\n      swap1\n      pop\n        /* \"#utility.yul\":1727:1817   */\n      swap2\n      swap1\n      pop\n      jump\t// out\n        /* \"#utility.yul\":1823:1932   */\n    tag_144:\n        /* \"#utility.yul\":1904:1925   */\n      tag_206\n        /* \"#utility.yul\":1919:1924   */\n      dup2\n        /* \"#utility.yul\":1904:1925   */\n      tag_143\n      jump\t// in\n    tag_206:\n        /* \"#utility.yul\":1899:1902   */\n      dup3\n        /* \"#utility.yul\":1892:1926   */\n      mstore\n        /* \"#utility.yul\":1823:1932   */\n      pop\n      pop\n      jump\t// out\n        /* \"#utility.yul\":1938:2693   */\n    tag_19:\n        /* \"#utility.yul\":2161:2165   */\n      0x00\n        /* \"#utility.yul\":2199:2202   */\n      0xc0\n        /* \"#utility.yul\":2188:2197   */\n      dup3\n        /* \"#utility.yul\":2184:2203   */\n      add\n        /* \"#utility.yul\":2176:2203   */\n      swap1\n      pop\n        /* \"#utility.yul\":2213:2284   */\n      tag_208\n        /* \"#utility.yul\":2281:2282   */\n      0x00\n        /* \"#utility.yul\":2270:2279   */\n      dup4\n        /* \"#utility.yul\":2266:2283   */\n      add\n        /* \"#utility.yul\":2257:2263   */\n      dup10\n        /* \"#utility.yul\":2213:2284   */\n      tag_139\n      jump\t// in\n    tag_208:\n        /* \"#utility.yul\":2294:2366   */\n      tag_209\n        /* \"#utility.yul\":2362:2364   */\n      0x20\n        /* \"#utility.yul\":2351:2360   */\n      dup4\n        /* \"#utility.yul\":2347:2365   */\n      add\n        /* \"#utility.yul\":2338:2344   */\n      dup9\n        /* \"#utility.yul\":2294:2366   */\n      tag_140\n      jump\t// in\n    tag_209:\n        /* \"#utility.yul\":2376:2448   */\n      tag_210\n        /* \"#utility.yul\":2444:2446   */\n      0x40\n        /* \"#utility.yul\":2433:2442   */\n      dup4\n        /* \"#utility.yul\":2429:2447   */\n      add\n        /* \"#utility.yul\":2420:2426   */\n      dup8\n        /* \"#utility.yul\":2376:2448   */\n      tag_140\n      jump\t// in\n    tag_210:\n        /* \"#utility.yul\":2458:2528   */\n      tag_211\n        /* \"#utility.yul\":2524:2526   */\n      0x60\n        /* \"#utility.yul\":2513:2522   */\n      dup4\n        /* \"#utility.yul\":2509:2527   */\n      add\n        /* \"#utility.yul\":2500:2506   */\n      dup7\n        /* \"#utility.yul\":2458:2528   */\n      tag_142\n      jump\t// in\n    tag_211:\n        /* \"#utility.yul\":2538:2609   */\n      tag_212\n        /* \"#utility.yul\":2604:2607   */\n      0x80\n        /* \"#utility.yul\":2593:2602   */\n      dup4\n        /* \"#utility.yul\":2589:2608   */\n      add\n        /* \"#utility.yul\":2580:2586   */\n      dup6\n        /* \"#utility.yul\":2538:2609   */\n      tag_142\n      jump\t// in\n    tag_212:\n        /* \"#utility.yul\":2619:2686   */\n      tag_213\n        /* \"#utility.yul\":2681:2684   */\n      0xa0\n        /* \"#utility.yul\":2670:2679   */\n      dup4\n        /* \"#utility.yul\":2666:2685   */\n      add\n        /* \"#utility.yul\":2657:2663   */\n      dup5\n        /* \"#utility.yul\":2619:2686   */\n      tag_144\n      jump\t// in\n    tag_213:\n        /* \"#utility.yul\":1938:2693   */\n      swap8\n      swap7\n      pop\n      pop\n      pop\n      pop\n      pop\n      pop\n      pop\n      jump\t// out\n        /* \"#utility.yul\":2699:2819   */\n    tag_145:\n        /* \"#utility.yul\":2771:2794   */\n      tag_215\n        /* \"#utility.yul\":2788:2793   */\n      dup2\n        /* \"#utility.yul\":2771:2794   */\n      tag_141\n      jump\t// in\n    tag_215:\n        /* \"#utility.yul\":2764:2769   */\n      dup2\n        /* \"#utility.yul\":2761:2795   */\n      eq\n        /* \"#utility.yul\":2751:2813   */\n      tag_216\n      jumpi\n        /* \"#utility.yul\":2809:2810   */\n      0x00\n        /* \"#utility.yul\":2806:2807   */\n      dup1\n        /* \"#utility.yul\":2799:2811   */\n      revert\n        /* \"#utility.yul\":2751:2813   */\n    tag_216:\n        /* \"#utility.yul\":2699:2819   */\n      pop\n      jump\t// out\n        /* \"#utility.yul\":2825:2962   */\n    tag_146:\n        /* \"#utility.yul\":2870:2875   */\n      0x00\n        /* \"#utility.yul\":2908:2914   */\n      dup2\n        /* \"#utility.yul\":2895:2915   */\n      calldataload\n        /* \"#utility.yul\":2886:2915   */\n      swap1\n      pop\n        /* \"#utility.yul\":2924:2956   */\n      tag_218\n        /* \"#utility.yul\":2950:2955   */\n      dup2\n        /* \"#utility.yul\":2924:2956   */\n      tag_145\n      jump\t// in\n    tag_218:\n        /* \"#utility.yul\":2825:2962   */\n      swap3\n      swap2\n      pop\n      pop\n      jump\t// out\n        /* \"#utility.yul\":2968:3583   */\n    tag_25:\n        /* \"#utility.yul\":3043:3049   */\n      0x00\n        /* \"#utility.yul\":3051:3057   */\n      dup1\n        /* \"#utility.yul\":3059:3065   */\n      0x00\n        /* \"#utility.yul\":3108:3110   */\n      0x60\n        /* \"#utility.yul\":3096:3105   */\n      dup5\n        /* \"#utility.yul\":3087:3094   */\n      dup7\n        /* \"#utility.yul\":3083:3106   */\n      sub\n        /* \"#utility.yul\":3079:3111   */\n      slt\n        /* \"#utility.yul\":3076:3195   */\n      iszero\n      tag_220\n      jumpi\n        /* \"#utility.yul\":3114:3193   */\n      tag_221\n      tag_132\n      jump\t// in\n    tag_221:\n        /* \"#utility.yul\":3076:3195   */\n    tag_220:\n        /* \"#utility.yul\":3234:3235   */\n      0x00\n        /* \"#utility.yul\":3259:3312   */\n      tag_222\n        /* \"#utility.yul\":3304:3311   */\n      dup7\n        /* \"#utility.yul\":3295:3301   */\n      dup3\n        /* \"#utility.yul\":3284:3293   */\n      dup8\n        /* \"#utility.yul\":3280:3302   */\n      add\n        /* \"#utility.yul\":3259:3312   */\n      tag_136\n      jump\t// in\n    tag_222:\n        /* \"#utility.yul\":3249:3312   */\n      swap4\n      pop\n        /* \"#utility.yul\":3205:3322   */\n      pop\n        /* \"#utility.yul\":3361:3363   */\n      0x20\n        /* \"#utility.yul\":3387:3439   */\n      tag_223\n        /* \"#utility.yul\":3431:3438   */\n      dup7\n        /* \"#utility.yul\":3422:3428   */\n      dup3\n        /* \"#utility.yul\":3411:3420   */\n      dup8\n        /* \"#utility.yul\":3407:3429   */\n      add\n        /* \"#utility.yul\":3387:3439   */\n      tag_146\n      jump\t// in\n    tag_223:\n        /* \"#utility.yul\":3377:3439   */\n      swap3\n      pop\n        /* \"#utility.yul\":3332:3449   */\n      pop\n        /* \"#utility.yul\":3488:3490   */\n      0x40\n        /* \"#utility.yul\":3514:3566   */\n      tag_224\n        /* \"#utility.yul\":3558:3565   */\n      dup7\n        /* \"#utility.yul\":3549:3555   */\n      dup3\n        /* \"#utility.yul\":3538:3547   */\n      dup8\n        /* \"#utility.yul\":3534:3556   */\n      add\n        /* \"#utility.yul\":3514:3566   */\n      tag_146\n      jump\t// in\n    tag_224:\n        /* \"#utility.yul\":3504:3566   */\n      swap2\n      pop\n        /* \"#utility.yul\":3459:3576   */\n      pop\n        /* \"#utility.yul\":2968:3583   */\n      swap3\n      pop\n      swap3\n      pop\n      swap3\n      jump\t// out\n        /* \"#utility.yul\":3589:4063   */\n    tag_35:\n        /* \"#utility.yul\":3657:3663   */\n      0x00\n        /* \"#utility.yul\":3665:3671   */\n      dup1\n        /* \"#utility.yul\":3714:3716   */\n      0x40\n        /* \"#utility.yul\":3702:3711   */\n      dup4\n        /* \"#utility.yul\":3693:3700   */\n      dup6\n        /* \"#utility.yul\":3689:3712   */\n      sub\n        /* \"#utility.yul\":3685:3717   */\n      slt\n        /* \"#utility.yul\":3682:3801   */\n      iszero\n      tag_226\n      jumpi\n        /* \"#utility.yul\":3720:3799   */\n      tag_227\n      tag_132\n      jump\t// in\n    tag_227:\n        /* \"#utility.yul\":3682:3801   */\n    tag_226:\n        /* \"#utility.yul\":3840:3841   */\n      0x00\n        /* \"#utility.yul\":3865:3918   */\n      tag_228\n        /* \"#utility.yul\":3910:3917   */\n      dup6\n        /* \"#utility.yul\":3901:3907   */\n      dup3\n        /* \"#utility.yul\":3890:3899   */\n      dup7\n        /* \"#utility.yul\":3886:3908   */\n      add\n        /* \"#utility.yul\":3865:3918   */\n      tag_136\n      jump\t// in\n    tag_228:\n        /* \"#utility.yul\":3855:3918   */\n      swap3\n      pop\n        /* \"#utility.yul\":3811:3928   */\n      pop\n        /* \"#utility.yul\":3967:3969   */\n      0x20\n        /* \"#utility.yul\":3993:4046   */\n      tag_229\n        /* \"#utility.yul\":4038:4045   */\n      dup6\n        /* \"#utility.yul\":4029:4035   */\n      dup3\n        /* \"#utility.yul\":4018:4027   */\n      dup7\n        /* \"#utility.yul\":4014:4036   */\n      add\n        /* \"#utility.yul\":3993:4046   */\n      tag_136\n      jump\t// in\n    tag_229:\n        /* \"#utility.yul\":3983:4046   */\n      swap2\n      pop\n        /* \"#utility.yul\":3938:4056   */\n      pop\n        /* \"#utility.yul\":3589:4063   */\n      swap3\n      pop\n      swap3\n      swap1\n      pop\n      jump\t// out\n        /* \"#utility.yul\":4069:4191   */\n    tag_147:\n        /* \"#utility.yul\":4142:4166   */\n      tag_231\n        /* \"#utility.yul\":4160:4165   */\n      dup2\n        /* \"#utility.yul\":4142:4166   */\n      tag_138\n      jump\t// in\n    tag_231:\n        /* \"#utility.yul\":4135:4140   */\n      dup2\n        /* \"#utility.yul\":4132:4167   */\n      eq\n        /* \"#utility.yul\":4122:4185   */\n      tag_232\n      jumpi\n        /* \"#utility.yul\":4181:4182   */\n      0x00\n        /* \"#utility.yul\":4178:4179   */\n      dup1\n        /* \"#utility.yul\":4171:4183   */\n      revert\n        /* \"#utility.yul\":4122:4185   */\n    tag_232:\n        /* \"#utility.yul\":4069:4191   */\n      pop\n      jump\t// out\n        /* \"#utility.yul\":4197:4336   */\n    tag_148:\n        /* \"#utility.yul\":4243:4248   */\n      0x00\n        /* \"#utility.yul\":4281:4287   */\n      dup2\n        /* \"#utility.yul\":4268:4288   */\n      calldataload\n        /* \"#utility.yul\":4259:4288   */\n      swap1\n      pop\n        /* \"#utility.yul\":4297:4330   */\n      tag_234\n        /* \"#utility.yul\":4324:4329   */\n      dup2\n        /* \"#utility.yul\":4297:4330   */\n      tag_147\n      jump\t// in\n    tag_234:\n        /* \"#utility.yul\":4197:4336   */\n      swap3\n      swap2\n      pop\n      pop\n      jump\t// out\n        /* \"#utility.yul\":4342:4816   */\n    tag_39:\n        /* \"#utility.yul\":4410:4416   */\n      0x00\n        /* \"#utility.yul\":4418:4424   */\n      dup1\n        /* \"#utility.yul\":4467:4469   */\n      0x40\n        /* \"#utility.yul\":4455:4464   */\n      dup4\n        /* \"#utility.yul\":4446:4453   */\n      dup6\n        /* \"#utility.yul\":4442:4465   */\n      sub\n        /* \"#utility.yul\":4438:4470   */\n      slt\n        /* \"#utility.yul\":4435:4554   */\n      iszero\n      tag_236\n      jumpi\n        /* \"#utility.yul\":4473:4552   */\n      tag_237\n      tag_132\n      jump\t// in\n    tag_237:\n        /* \"#utility.yul\":4435:4554   */\n    tag_236:\n        /* \"#utility.yul\":4593:4594   */\n      0x00\n        /* \"#utility.yul\":4618:4671   */\n      tag_238\n        /* \"#utility.yul\":4663:4670   */\n      dup6\n        /* \"#utility.yul\":4654:4660   */\n      dup3\n        /* \"#utility.yul\":4643:4652   */\n      dup7\n        /* \"#utility.yul\":4639:4661   */\n      add\n        /* \"#utility.yul\":4618:4671   */\n      tag_136\n      jump\t// in\n    tag_238:\n        /* \"#utility.yul\":4608:4671   */\n      swap3\n      pop\n        /* \"#utility.yul\":4564:4681   */\n      pop\n        /* \"#utility.yul\":4720:4722   */\n      0x20\n        /* \"#utility.yul\":4746:4799   */\n      tag_239\n        /* \"#utility.yul\":4791:4798   */\n      dup6\n        /* \"#utility.yul\":4782:4788   */\n      dup3\n        /* \"#utility.yul\":4771:4780   */\n      dup7\n        /* \"#utility.yul\":4767:4789   */\n      add\n        /* \"#utility.yul\":4746:4799   */\n      tag_148\n      jump\t// in\n    tag_239:\n        /* \"#utility.yul\":4736:4799   */\n      swap2\n      pop\n        /* \"#utility.yul\":4691:4809   */\n      pop\n        /* \"#utility.yul\":4342:4816   */\n      swap3\n      pop\n      swap3\n      swap1\n      pop\n      jump\t// out\n        /* \"#utility.yul\":4822:5044   */\n    tag_42:\n        /* \"#utility.yul\":4915:4919   */\n      0x00\n        /* \"#utility.yul\":4953:4955   */\n      0x20\n        /* \"#utility.yul\":4942:4951   */\n      dup3\n        /* \"#utility.yul\":4938:4956   */\n      add\n        /* \"#utility.yul\":4930:4956   */\n      swap1\n      pop\n        /* \"#utility.yul\":4966:5037   */\n      tag_241\n        /* \"#utility.yul\":5034:5035   */\n      0x00\n        /* \"#utility.yul\":5023:5032   */\n      dup4\n        /* \"#utility.yul\":5019:5036   */\n      add\n        /* \"#utility.yul\":5010:5016   */\n      dup5\n        /* \"#utility.yul\":4966:5037   */\n      tag_140\n      jump\t// in\n    tag_241:\n        /* \"#utility.yul\":4822:5044   */\n      swap3\n      swap2\n      pop\n      pop\n      jump\t// out\n        /* \"#utility.yul\":5050:5110   */\n    tag_149:\n        /* \"#utility.yul\":5078:5081   */\n      0x00\n        /* \"#utility.yul\":5099:5104   */\n      dup2\n        /* \"#utility.yul\":5092:5104   */\n      swap1\n      pop\n        /* \"#utility.yul\":5050:5110   */\n      swap2\n      swap1\n      pop\n      jump\t// out\n        /* \"#utility.yul\":5116:5258   */\n    tag_150:\n        /* \"#utility.yul\":5166:5175   */\n      0x00\n        /* \"#utility.yul\":5199:5252   */\n      tag_244\n        /* \"#utility.yul\":5217:5251   */\n      tag_245\n        /* \"#utility.yul\":5226:5250   */\n      tag_246\n        /* \"#utility.yul\":5244:5249   */\n      dup5\n        /* \"#utility.yul\":5226:5250   */\n      tag_137\n      jump\t// in\n    tag_246:\n        /* \"#utility.yul\":5217:5251   */\n      tag_149\n      jump\t// in\n    tag_245:\n        /* \"#utility.yul\":5199:5252   */\n      tag_137\n      jump\t// in\n    tag_244:\n        /* \"#utility.yul\":5186:5252   */\n      swap1\n      pop\n        /* \"#utility.yul\":5116:5258   */\n      swap2\n      swap1\n      pop\n      jump\t// out\n        /* \"#utility.yul\":5264:5390   */\n    tag_151:\n        /* \"#utility.yul\":5314:5323   */\n      0x00\n        /* \"#utility.yul\":5347:5384   */\n      tag_248\n        /* \"#utility.yul\":5378:5383   */\n      dup3\n        /* \"#utility.yul\":5347:5384   */\n      tag_150\n      jump\t// in\n    tag_248:\n        /* \"#utility.yul\":5334:5384   */\n      swap1\n      pop\n        /* \"#utility.yul\":5264:5390   */\n      swap2\n      swap1\n      pop\n      jump\t// out\n        /* \"#utility.yul\":5396:5536   */\n    tag_152:\n        /* \"#utility.yul\":5460:5469   */\n      0x00\n        /* \"#utility.yul\":5493:5530   */\n      tag_250\n        /* \"#utility.yul\":5524:5529   */\n      dup3\n        /* \"#utility.yul\":5493:5530   */\n      tag_151\n      jump\t// in\n    tag_250:\n        /* \"#utility.yul\":5480:5530   */\n      swap1\n      pop\n        /* \"#utility.yul\":5396:5536   */\n      swap2\n      swap1\n      pop\n      jump\t// out\n        /* \"#utility.yul\":5542:5701   */\n    tag_153:\n        /* \"#utility.yul\":5643:5694   */\n      tag_252\n        /* \"#utility.yul\":5688:5693   */\n      dup2\n        /* \"#utility.yul\":5643:5694   */\n      tag_152\n      jump\t// in\n    tag_252:\n        /* \"#utility.yul\":5638:5641   */\n      dup3\n        /* \"#utility.yul\":5631:5695   */\n      mstore\n        /* \"#utility.yul\":5542:5701   */\n      pop\n      pop\n      jump\t// out\n        /* \"#utility.yul\":5707:5957   */\n    tag_49:\n        /* \"#utility.yul\":5814:5818   */\n      0x00\n        /* \"#utility.yul\":5852:5854   */\n      0x20\n        /* \"#utility.yul\":5841:5850   */\n      dup3\n        /* \"#utility.yul\":5837:5855   */\n      add\n        /* \"#utility.yul\":5829:5855   */\n      swap1\n      pop\n        /* \"#utility.yul\":5865:5950   */\n      tag_254\n        /* \"#utility.yul\":5947:5948   */\n      0x00\n        /* \"#utility.yul\":5936:5945   */\n      dup4\n        /* \"#utility.yul\":5932:5949   */\n      add\n        /* \"#utility.yul\":5923:5929   */\n      dup5\n        /* \"#utility.yul\":5865:5950   */\n      tag_153\n      jump\t// in\n    tag_254:\n        /* \"#utility.yul\":5707:5957   */\n      swap3\n      swap2\n      pop\n      pop\n      jump\t// out\n        /* \"#utility.yul\":5963:6132   */\n    tag_154:\n        /* \"#utility.yul\":6047:6058   */\n      0x00\n        /* \"#utility.yul\":6081:6087   */\n      dup3\n        /* \"#utility.yul\":6076:6079   */\n      dup3\n        /* \"#utility.yul\":6069:6088   */\n      mstore\n        /* \"#utility.yul\":6121:6125   */\n      0x20\n        /* \"#utility.yul\":6116:6119   */\n      dup3\n        /* \"#utility.yul\":6112:6126   */\n      add\n        /* \"#utility.yul\":6097:6126   */\n      swap1\n      pop\n        /* \"#utility.yul\":5963:6132   */\n      swap3\n      swap2\n      pop\n      pop\n      jump\t// out\n        /* \"#utility.yul\":6138:6297   */\n    tag_155:\n        /* \"#utility.yul\":6278:6289   */\n      0x6e6f7420656e6465640000000000000000000000000000000000000000000000\n        /* \"#utility.yul\":6274:6275   */\n      0x00\n        /* \"#utility.yul\":6266:6272   */\n      dup3\n        /* \"#utility.yul\":6262:6276   */\n      add\n        /* \"#utility.yul\":6255:6290   */\n      mstore\n        /* \"#utility.yul\":6138:6297   */\n      pop\n      jump\t// out\n        /* \"#utility.yul\":6303:6668   */\n    tag_156:\n        /* \"#utility.yul\":6445:6448   */\n      0x00\n        /* \"#utility.yul\":6466:6532   */\n      tag_258\n        /* \"#utility.yul\":6530:6531   */\n      0x09\n        /* \"#utility.yul\":6525:6528   */\n      dup4\n        /* \"#utility.yul\":6466:6532   */\n      tag_154\n      jump\t// in\n    tag_258:\n        /* \"#utility.yul\":6459:6532   */\n      swap2\n      pop\n        /* \"#utility.yul\":6541:6634   */\n      tag_259\n        /* \"#utility.yul\":6630:6633   */\n      dup3\n        /* \"#utility.yul\":6541:6634   */\n      tag_155\n      jump\t// in\n    tag_259:\n        /* \"#utility.yul\":6659:6661   */\n      0x20\n        /* \"#utility.yul\":6654:6657   */\n      dup3\n        /* \"#utility.yul\":6650:6662   */\n      add\n        /* \"#utility.yul\":6643:6662   */\n      swap1\n      pop\n        /* \"#utility.yul\":6303:6668   */\n      swap2\n      swap1\n      pop\n      jump\t// out\n        /* \"#utility.yul\":6674:7093   */\n    tag_56:\n        /* \"#utility.yul\":6840:6844   */\n      0x00\n        /* \"#utility.yul\":6878:6880   */\n      0x20\n        /* \"#utility.yul\":6867:6876   */\n      dup3\n        /* \"#utility.yul\":6863:6881   */\n      add\n        /* \"#utility.yul\":6855:6881   */\n      swap1\n      pop\n        /* \"#utility.yul\":6927:6936   */\n      dup2\n        /* \"#utility.yul\":6921:6925   */\n      dup2\n        /* \"#utility.yul\":6917:6937   */\n      sub\n        /* \"#utility.yul\":6913:6914   */\n      0x00\n        /* \"#utility.yul\":6902:6911   */\n      dup4\n        /* \"#utility.yul\":6898:6915   */\n      add\n        /* \"#utility.yul\":6891:6938   */\n      mstore\n        /* \"#utility.yul\":6955:7086   */\n      tag_261\n        /* \"#utility.yul\":7081:7085   */\n      dup2\n        /* \"#utility.yul\":6955:7086   */\n      tag_156\n      jump\t// in\n    tag_261:\n        /* \"#utility.yul\":6947:7086   */\n      swap1\n      pop\n        /* \"#utility.yul\":6674:7093   */\n      swap2\n      swap1\n      pop\n      jump\t// out\n        /* \"#utility.yul\":7099:7261   */\n    tag_157:\n        /* \"#utility.yul\":7239:7253   */\n      0x63726f7764206661696c65640000000000000000000000000000000000000000\n        /* \"#utility.yul\":7235:7236   */\n      0x00\n        /* \"#utility.yul\":7227:7233   */\n      dup3\n        /* \"#utility.yul\":7223:7237   */\n      add\n        /* \"#utility.yul\":7216:7254   */\n      mstore\n        /* \"#utility.yul\":7099:7261   */\n      pop\n      jump\t// out\n        /* \"#utility.yul\":7267:7633   */\n    tag_158:\n        /* \"#utility.yul\":7409:7412   */\n      0x00\n        /* \"#utility.yul\":7430:7497   */\n      tag_264\n        /* \"#utility.yul\":7494:7496   */\n      0x0c\n        /* \"#utility.yul\":7489:7492   */\n      dup4\n        /* \"#utility.yul\":7430:7497   */\n      tag_154\n      jump\t// in\n    tag_264:\n        /* \"#utility.yul\":7423:7497   */\n      swap2\n      pop\n        /* \"#utility.yul\":7506:7599   */\n      tag_265\n        /* \"#utility.yul\":7595:7598   */\n      dup3\n        /* \"#utility.yul\":7506:7599   */\n      tag_157\n      jump\t// in\n    tag_265:\n        /* \"#utility.yul\":7624:7626   */\n      0x20\n        /* \"#utility.yul\":7619:7622   */\n      dup3\n        /* \"#utility.yul\":7615:7627   */\n      add\n        /* \"#utility.yul\":7608:7627   */\n      swap1\n      pop\n        /* \"#utility.yul\":7267:7633   */\n      swap2\n      swap1\n      pop\n      jump\t// out\n        /* \"#utility.yul\":7639:8058   */\n    tag_59:\n        /* \"#utility.yul\":7805:7809   */\n      0x00\n        /* \"#utility.yul\":7843:7845   */\n      0x20\n        /* \"#utility.yul\":7832:7841   */\n      dup3\n        /* \"#utility.yul\":7828:7846   */\n      add\n        /* \"#utility.yul\":7820:7846   */\n      swap1\n      pop\n        /* \"#utility.yul\":7892:7901   */\n      dup2\n        /* \"#utility.yul\":7886:7890   */\n      dup2\n        /* \"#utility.yul\":7882:7902   */\n      sub\n        /* \"#utility.yul\":7878:7879   */\n      0x00\n        /* \"#utility.yul\":7867:7876   */\n      dup4\n        /* \"#utility.yul\":7863:7880   */\n      add\n        /* \"#utility.yul\":7856:7903   */\n      mstore\n        /* \"#utility.yul\":7920:8051   */\n      tag_267\n        /* \"#utility.yul\":8046:8050   */\n      dup2\n        /* \"#utility.yul\":7920:8051   */\n      tag_158\n      jump\t// in\n    tag_267:\n        /* \"#utility.yul\":7912:8051   */\n      swap1\n      pop\n        /* \"#utility.yul\":7639:8058   */\n      swap2\n      swap1\n      pop\n      jump\t// out\n        /* \"#utility.yul\":8064:8244   */\n    tag_159:\n        /* \"#utility.yul\":8112:8189   */\n      0x4e487b7100000000000000000000000000000000000000000000000000000000\n        /* \"#utility.yul\":8109:8110   */\n      0x00\n        /* \"#utility.yul\":8102:8190   */\n      mstore\n        /* \"#utility.yul\":8209:8213   */\n      0x11\n        /* \"#utility.yul\":8206:8207   */\n      0x04\n        /* \"#utility.yul\":8199:8214   */\n      mstore\n        /* \"#utility.yul\":8233:8237   */\n      0x24\n        /* \"#utility.yul\":8230:8231   */\n      0x00\n        /* \"#utility.yul\":8223:8238   */\n      revert\n        /* \"#utility.yul\":8250:8444   */\n    tag_61:\n        /* \"#utility.yul\":8290:8294   */\n      0x00\n        /* \"#utility.yul\":8310:8330   */\n      tag_270\n        /* \"#utility.yul\":8328:8329   */\n      dup3\n        /* \"#utility.yul\":8310:8330   */\n      tag_134\n      jump\t// in\n    tag_270:\n        /* \"#utility.yul\":8305:8330   */\n      swap2\n      pop\n        /* \"#utility.yul\":8344:8364   */\n      tag_271\n        /* \"#utility.yul\":8362:8363   */\n      dup4\n        /* \"#utility.yul\":8344:8364   */\n      tag_134\n      jump\t// in\n    tag_271:\n        /* \"#utility.yul\":8339:8364   */\n      swap3\n      pop\n        /* \"#utility.yul\":8388:8389   */\n      dup3\n        /* \"#utility.yul\":8385:8386   */\n      dup3\n        /* \"#utility.yul\":8381:8390   */\n      sub\n        /* \"#utility.yul\":8373:8390   */\n      swap1\n      pop\n        /* \"#utility.yul\":8412:8413   */\n      dup2\n        /* \"#utility.yul\":8406:8410   */\n      dup2\n        /* \"#utility.yul\":8403:8414   */\n      gt\n        /* \"#utility.yul\":8400:8437   */\n      iszero\n      tag_272\n      jumpi\n        /* \"#utility.yul\":8417:8435   */\n      tag_273\n      tag_159\n      jump\t// in\n    tag_273:\n        /* \"#utility.yul\":8400:8437   */\n    tag_272:\n        /* \"#utility.yul\":8250:8444   */\n      swap3\n      swap2\n      pop\n      pop\n      jump\t// out\n        /* \"#utility.yul\":8450:8782   */\n    tag_63:\n        /* \"#utility.yul\":8571:8575   */\n      0x00\n        /* \"#utility.yul\":8609:8611   */\n      0x40\n        /* \"#utility.yul\":8598:8607   */\n      dup3\n        /* \"#utility.yul\":8594:8612   */\n      add\n        /* \"#utility.yul\":8586:8612   */\n      swap1\n      pop\n        /* \"#utility.yul\":8622:8693   */\n      tag_275\n        /* \"#utility.yul\":8690:8691   */\n      0x00\n        /* \"#utility.yul\":8679:8688   */\n      dup4\n        /* \"#utility.yul\":8675:8692   */\n      add\n        /* \"#utility.yul\":8666:8672   */\n      dup6\n        /* \"#utility.yul\":8622:8693   */\n      tag_139\n      jump\t// in\n    tag_275:\n        /* \"#utility.yul\":8703:8775   */\n      tag_276\n        /* \"#utility.yul\":8771:8773   */\n      0x20\n        /* \"#utility.yul\":8760:8769   */\n      dup4\n        /* \"#utility.yul\":8756:8774   */\n      add\n        /* \"#utility.yul\":8747:8753   */\n      dup5\n        /* \"#utility.yul\":8703:8775   */\n      tag_140\n      jump\t// in\n    tag_276:\n        /* \"#utility.yul\":8450:8782   */\n      swap4\n      swap3\n      pop\n      pop\n      pop\n      jump\t// out\n        /* \"#utility.yul\":8788:8904   */\n    tag_160:\n        /* \"#utility.yul\":8858:8879   */\n      tag_278\n        /* \"#utility.yul\":8873:8878   */\n      dup2\n        /* \"#utility.yul\":8858:8879   */\n      tag_143\n      jump\t// in\n    tag_278:\n        /* \"#utility.yul\":8851:8856   */\n      dup2\n        /* \"#utility.yul\":8848:8880   */\n      eq\n        /* \"#utility.yul\":8838:8898   */\n      tag_279\n      jumpi\n        /* \"#utility.yul\":8894:8895   */\n      0x00\n        /* \"#utility.yul\":8891:8892   */\n      dup1\n        /* \"#utility.yul\":8884:8896   */\n      revert\n        /* \"#utility.yul\":8838:8898   */\n    tag_279:\n        /* \"#utility.yul\":8788:8904   */\n      pop\n      jump\t// out\n        /* \"#utility.yul\":8910:9047   */\n    tag_161:\n        /* \"#utility.yul\":8964:8969   */\n      0x00\n        /* \"#utility.yul\":8995:9001   */\n      dup2\n        /* \"#utility.yul\":8989:9002   */\n      mload\n        /* \"#utility.yul\":8980:9002   */\n      swap1\n      pop\n        /* \"#utility.yul\":9011:9041   */\n      tag_281\n        /* \"#utility.yul\":9035:9040   */\n      dup2\n        /* \"#utility.yul\":9011:9041   */\n      tag_160\n      jump\t// in\n    tag_281:\n        /* \"#utility.yul\":8910:9047   */\n      swap3\n      swap2\n      pop\n      pop\n      jump\t// out\n        /* \"#utility.yul\":9053:9398   */\n    tag_67:\n        /* \"#utility.yul\":9120:9126   */\n      0x00\n        /* \"#utility.yul\":9169:9171   */\n      0x20\n        /* \"#utility.yul\":9157:9166   */\n      dup3\n        /* \"#utility.yul\":9148:9155   */\n      dup5\n        /* \"#utility.yul\":9144:9167   */\n      sub\n        /* \"#utility.yul\":9140:9172   */\n      slt\n        /* \"#utility.yul\":9137:9256   */\n      iszero\n      tag_283\n      jumpi\n        /* \"#utility.yul\":9175:9254   */\n      tag_284\n      tag_132\n      jump\t// in\n    tag_284:\n        /* \"#utility.yul\":9137:9256   */\n    tag_283:\n        /* \"#utility.yul\":9295:9296   */\n      0x00\n        /* \"#utility.yul\":9320:9381   */\n      tag_285\n        /* \"#utility.yul\":9373:9380   */\n      dup5\n        /* \"#utility.yul\":9364:9370   */\n      dup3\n        /* \"#utility.yul\":9353:9362   */\n      dup6\n        /* \"#utility.yul\":9349:9371   */\n      add\n        /* \"#utility.yul\":9320:9381   */\n      tag_161\n      jump\t// in\n    tag_285:\n        /* \"#utility.yul\":9310:9381   */\n      swap2\n      pop\n        /* \"#utility.yul\":9266:9391   */\n      pop\n        /* \"#utility.yul\":9053:9398   */\n      swap3\n      swap2\n      pop\n      pop\n      jump\t// out\n        /* \"#utility.yul\":9404:9568   */\n    tag_162:\n        /* \"#utility.yul\":9544:9560   */\n      0x7374617274206174203c206e6f77000000000000000000000000000000000000\n        /* \"#utility.yul\":9540:9541   */\n      0x00\n        /* \"#utility.yul\":9532:9538   */\n      dup3\n        /* \"#utility.yul\":9528:9542   */\n      add\n        /* \"#utility.yul\":9521:9561   */\n      mstore\n        /* \"#utility.yul\":9404:9568   */\n      pop\n      jump\t// out\n        /* \"#utility.yul\":9574:9940   */\n    tag_163:\n        /* \"#utility.yul\":9716:9719   */\n      0x00\n        /* \"#utility.yul\":9737:9804   */\n      tag_288\n        /* \"#utility.yul\":9801:9803   */\n      0x0e\n        /* \"#utility.yul\":9796:9799   */\n      dup4\n        /* \"#utility.yul\":9737:9804   */\n      tag_154\n      jump\t// in\n    tag_288:\n        /* \"#utility.yul\":9730:9804   */\n      swap2\n      pop\n        /* \"#utility.yul\":9813:9906   */\n      tag_289\n        /* \"#utility.yul\":9902:9905   */\n      dup3\n        /* \"#utility.yul\":9813:9906   */\n      tag_162\n      jump\t// in\n    tag_289:\n        /* \"#utility.yul\":9931:9933   */\n      0x20\n        /* \"#utility.yul\":9926:9929   */\n      dup3\n        /* \"#utility.yul\":9922:9934   */\n      add\n        /* \"#utility.yul\":9915:9934   */\n      swap1\n      pop\n        /* \"#utility.yul\":9574:9940   */\n      swap2\n      swap1\n      pop\n      jump\t// out\n        /* \"#utility.yul\":9946:10365   */\n    tag_72:\n        /* \"#utility.yul\":10112:10116   */\n      0x00\n        /* \"#utility.yul\":10150:10152   */\n      0x20\n        /* \"#utility.yul\":10139:10148   */\n      dup3\n        /* \"#utility.yul\":10135:10153   */\n      add\n        /* \"#utility.yul\":10127:10153   */\n      swap1\n      pop\n        /* \"#utility.yul\":10199:10208   */\n      dup2\n        /* \"#utility.yul\":10193:10197   */\n      dup2\n        /* \"#utility.yul\":10189:10209   */\n      sub\n        /* \"#utility.yul\":10185:10186   */\n      0x00\n        /* \"#utility.yul\":10174:10183   */\n      dup4\n        /* \"#utility.yul\":10170:10187   */\n      add\n        /* \"#utility.yul\":10163:10210   */\n      mstore\n        /* \"#utility.yul\":10227:10358   */\n      tag_291\n        /* \"#utility.yul\":10353:10357   */\n      dup2\n        /* \"#utility.yul\":10227:10358   */\n      tag_163\n      jump\t// in\n    tag_291:\n        /* \"#utility.yul\":10219:10358   */\n      swap1\n      pop\n        /* \"#utility.yul\":9946:10365   */\n      swap2\n      swap1\n      pop\n      jump\t// out\n        /* \"#utility.yul\":10371:10538   */\n    tag_164:\n        /* \"#utility.yul\":10511:10530   */\n      0x656e64206174203c207374617274206174000000000000000000000000000000\n        /* \"#utility.yul\":10507:10508   */\n      0x00\n        /* \"#utility.yul\":10499:10505   */\n      dup3\n        /* \"#utility.yul\":10495:10509   */\n      add\n        /* \"#utility.yul\":10488:10531   */\n      mstore\n        /* \"#utility.yul\":10371:10538   */\n      pop\n      jump\t// out\n        /* \"#utility.yul\":10544:10910   */\n    tag_165:\n        /* \"#utility.yul\":10686:10689   */\n      0x00\n        /* \"#utility.yul\":10707:10774   */\n      tag_294\n        /* \"#utility.yul\":10771:10773   */\n      0x11\n        /* \"#utility.yul\":10766:10769   */\n      dup4\n        /* \"#utility.yul\":10707:10774   */\n      tag_154\n      jump\t// in\n    tag_294:\n        /* \"#utility.yul\":10700:10774   */\n      swap2\n      pop\n        /* \"#utility.yul\":10783:10876   */\n      tag_295\n        /* \"#utility.yul\":10872:10875   */\n      dup3\n        /* \"#utility.yul\":10783:10876   */\n      tag_164\n      jump\t// in\n    tag_295:\n        /* \"#utility.yul\":10901:10903   */\n      0x20\n        /* \"#utility.yul\":10896:10899   */\n      dup3\n        /* \"#utility.yul\":10892:10904   */\n      add\n        /* \"#utility.yul\":10885:10904   */\n      swap1\n      pop\n        /* \"#utility.yul\":10544:10910   */\n      swap2\n      swap1\n      pop\n      jump\t// out\n        /* \"#utility.yul\":10916:11335   */\n    tag_75:\n        /* \"#utility.yul\":11082:11086   */\n      0x00\n        /* \"#utility.yul\":11120:11122   */\n      0x20\n        /* \"#utility.yul\":11109:11118   */\n      dup3\n        /* \"#utility.yul\":11105:11123   */\n      add\n        /* \"#utility.yul\":11097:11123   */\n      swap1\n      pop\n        /* \"#utility.yul\":11169:11178   */\n      dup2\n        /* \"#utility.yul\":11163:11167   */\n      dup2\n        /* \"#utility.yul\":11159:11179   */\n      sub\n        /* \"#utility.yul\":11155:11156   */\n      0x00\n        /* \"#utility.yul\":11144:11153   */\n      dup4\n        /* \"#utility.yul\":11140:11157   */\n      add\n        /* \"#utility.yul\":11133:11180   */\n      mstore\n        /* \"#utility.yul\":11197:11328   */\n      tag_297\n        /* \"#utility.yul\":11323:11327   */\n      dup2\n        /* \"#utility.yul\":11197:11328   */\n      tag_165\n      jump\t// in\n    tag_297:\n        /* \"#utility.yul\":11189:11328   */\n      swap1\n      pop\n        /* \"#utility.yul\":10916:11335   */\n      swap2\n      swap1\n      pop\n      jump\t// out\n        /* \"#utility.yul\":11341:11532   */\n    tag_77:\n        /* \"#utility.yul\":11381:11384   */\n      0x00\n        /* \"#utility.yul\":11400:11420   */\n      tag_299\n        /* \"#utility.yul\":11418:11419   */\n      dup3\n        /* \"#utility.yul\":11400:11420   */\n      tag_134\n      jump\t// in\n    tag_299:\n        /* \"#utility.yul\":11395:11420   */\n      swap2\n      pop\n        /* \"#utility.yul\":11434:11454   */\n      tag_300\n        /* \"#utility.yul\":11452:11453   */\n      dup4\n        /* \"#utility.yul\":11434:11454   */\n      tag_134\n      jump\t// in\n    tag_300:\n        /* \"#utility.yul\":11429:11454   */\n      swap3\n      pop\n        /* \"#utility.yul\":11477:11478   */\n      dup3\n        /* \"#utility.yul\":11474:11475   */\n      dup3\n        /* \"#utility.yul\":11470:11479   */\n      add\n        /* \"#utility.yul\":11463:11479   */\n      swap1\n      pop\n        /* \"#utility.yul\":11498:11501   */\n      dup1\n        /* \"#utility.yul\":11495:11496   */\n      dup3\n        /* \"#utility.yul\":11492:11502   */\n      gt\n        /* \"#utility.yul\":11489:11525   */\n      iszero\n      tag_301\n      jumpi\n        /* \"#utility.yul\":11505:11523   */\n      tag_302\n      tag_159\n      jump\t// in\n    tag_302:\n        /* \"#utility.yul\":11489:11525   */\n    tag_301:\n        /* \"#utility.yul\":11341:11532   */\n      swap3\n      swap2\n      pop\n      pop\n      jump\t// out\n        /* \"#utility.yul\":11538:11709   */\n    tag_166:\n        /* \"#utility.yul\":11678:11701   */\n      0x656e64206174203e206d6178206475726174696f6e0000000000000000000000\n        /* \"#utility.yul\":11674:11675   */\n      0x00\n        /* \"#utility.yul\":11666:11672   */\n      dup3\n        /* \"#utility.yul\":11662:11676   */\n      add\n        /* \"#utility.yul\":11655:11702   */\n      mstore\n        /* \"#utility.yul\":11538:11709   */\n      pop\n      jump\t// out\n        /* \"#utility.yul\":11715:12081   */\n    tag_167:\n        /* \"#utility.yul\":11857:11860   */\n      0x00\n        /* \"#utility.yul\":11878:11945   */\n      tag_305\n        /* \"#utility.yul\":11942:11944   */\n      0x15\n        /* \"#utility.yul\":11937:11940   */\n      dup4\n        /* \"#utility.yul\":11878:11945   */\n      tag_154\n      jump\t// in\n    tag_305:\n        /* \"#utility.yul\":11871:11945   */\n      swap2\n      pop\n        /* \"#utility.yul\":11954:12047   */\n      tag_306\n        /* \"#utility.yul\":12043:12046   */\n      dup3\n        /* \"#utility.yul\":11954:12047   */\n      tag_166\n      jump\t// in\n    tag_306:\n        /* \"#utility.yul\":12072:12074   */\n      0x20\n        /* \"#utility.yul\":12067:12070   */\n      dup3\n        /* \"#utility.yul\":12063:12075   */\n      add\n        /* \"#utility.yul\":12056:12075   */\n      swap1\n      pop\n        /* \"#utility.yul\":11715:12081   */\n      swap2\n      swap1\n      pop\n      jump\t// out\n        /* \"#utility.yul\":12087:12506   */\n    tag_80:\n        /* \"#utility.yul\":12253:12257   */\n      0x00\n        /* \"#utility.yul\":12291:12293   */\n      0x20\n        /* \"#utility.yul\":12280:12289   */\n      dup3\n        /* \"#utility.yul\":12276:12294   */\n      add\n        /* \"#utility.yul\":12268:12294   */\n      swap1\n      pop\n        /* \"#utility.yul\":12340:12349   */\n      dup2\n        /* \"#utility.yul\":12334:12338   */\n      dup2\n        /* \"#utility.yul\":12330:12350   */\n      sub\n        /* \"#utility.yul\":12326:12327   */\n      0x00\n        /* \"#utility.yul\":12315:12324   */\n      dup4\n        /* \"#utility.yul\":12311:12328   */\n      add\n        /* \"#utility.yul\":12304:12351   */\n      mstore\n        /* \"#utility.yul\":12368:12499   */\n      tag_308\n        /* \"#utility.yul\":12494:12498   */\n      dup2\n        /* \"#utility.yul\":12368:12499   */\n      tag_167\n      jump\t// in\n    tag_308:\n        /* \"#utility.yul\":12360:12499   */\n      swap1\n      pop\n        /* \"#utility.yul\":12087:12506   */\n      swap2\n      swap1\n      pop\n      jump\t// out\n        /* \"#utility.yul\":12512:13057   */\n    tag_83:\n        /* \"#utility.yul\":12685:12689   */\n      0x00\n        /* \"#utility.yul\":12723:12726   */\n      0x80\n        /* \"#utility.yul\":12712:12721   */\n      dup3\n        /* \"#utility.yul\":12708:12727   */\n      add\n        /* \"#utility.yul\":12700:12727   */\n      swap1\n      pop\n        /* \"#utility.yul\":12737:12808   */\n      tag_310\n        /* \"#utility.yul\":12805:12806   */\n      0x00\n        /* \"#utility.yul\":12794:12803   */\n      dup4\n        /* \"#utility.yul\":12790:12807   */\n      add\n        /* \"#utility.yul\":12781:12787   */\n      dup8\n        /* \"#utility.yul\":12737:12808   */\n      tag_140\n      jump\t// in\n    tag_310:\n        /* \"#utility.yul\":12818:12890   */\n      tag_311\n        /* \"#utility.yul\":12886:12888   */\n      0x20\n        /* \"#utility.yul\":12875:12884   */\n      dup4\n        /* \"#utility.yul\":12871:12889   */\n      add\n        /* \"#utility.yul\":12862:12868   */\n      dup7\n        /* \"#utility.yul\":12818:12890   */\n      tag_140\n      jump\t// in\n    tag_311:\n        /* \"#utility.yul\":12900:12970   */\n      tag_312\n        /* \"#utility.yul\":12966:12968   */\n      0x40\n        /* \"#utility.yul\":12955:12964   */\n      dup4\n        /* \"#utility.yul\":12951:12969   */\n      add\n        /* \"#utility.yul\":12942:12948   */\n      dup6\n        /* \"#utility.yul\":12900:12970   */\n      tag_142\n      jump\t// in\n    tag_312:\n        /* \"#utility.yul\":12980:13050   */\n      tag_313\n        /* \"#utility.yul\":13046:13048   */\n      0x60\n        /* \"#utility.yul\":13035:13044   */\n      dup4\n        /* \"#utility.yul\":13031:13049   */\n      add\n        /* \"#utility.yul\":13022:13028   */\n      dup5\n        /* \"#utility.yul\":12980:13050   */\n      tag_142\n      jump\t// in\n    tag_313:\n        /* \"#utility.yul\":12512:13057   */\n      swap6\n      swap5\n      pop\n      pop\n      pop\n      pop\n      pop\n      jump\t// out\n        /* \"#utility.yul\":13063:13224   */\n    tag_168:\n        /* \"#utility.yul\":13203:13216   */\n      0x6e6f74206372656174726f000000000000000000000000000000000000000000\n        /* \"#utility.yul\":13199:13200   */\n      0x00\n        /* \"#utility.yul\":13191:13197   */\n      dup3\n        /* \"#utility.yul\":13187:13201   */\n      add\n        /* \"#utility.yul\":13180:13217   */\n      mstore\n        /* \"#utility.yul\":13063:13224   */\n      pop\n      jump\t// out\n        /* \"#utility.yul\":13230:13596   */\n    tag_169:\n        /* \"#utility.yul\":13372:13375   */\n      0x00\n        /* \"#utility.yul\":13393:13460   */\n      tag_316\n        /* \"#utility.yul\":13457:13459   */\n      0x0b\n        /* \"#utility.yul\":13452:13455   */\n      dup4\n        /* \"#utility.yul\":13393:13460   */\n      tag_154\n      jump\t// in\n    tag_316:\n        /* \"#utility.yul\":13386:13460   */\n      swap2\n      pop\n        /* \"#utility.yul\":13469:13562   */\n      tag_317\n        /* \"#utility.yul\":13558:13561   */\n      dup3\n        /* \"#utility.yul\":13469:13562   */\n      tag_168\n      jump\t// in\n    tag_317:\n        /* \"#utility.yul\":13587:13589   */\n      0x20\n        /* \"#utility.yul\":13582:13585   */\n      dup3\n        /* \"#utility.yul\":13578:13590   */\n      add\n        /* \"#utility.yul\":13571:13590   */\n      swap1\n      pop\n        /* \"#utility.yul\":13230:13596   */\n      swap2\n      swap1\n      pop\n      jump\t// out\n        /* \"#utility.yul\":13602:14021   */\n    tag_87:\n        /* \"#utility.yul\":13768:13772   */\n      0x00\n        /* \"#utility.yul\":13806:13808   */\n      0x20\n        /* \"#utility.yul\":13795:13804   */\n      dup3\n        /* \"#utility.yul\":13791:13809   */\n      add\n        /* \"#utility.yul\":13783:13809   */\n      swap1\n      pop\n        /* \"#utility.yul\":13855:13864   */\n      dup2\n        /* \"#utility.yul\":13849:13853   */\n      dup2\n        /* \"#utility.yul\":13845:13865   */\n      sub\n        /* \"#utility.yul\":13841:13842   */\n      0x00\n        /* \"#utility.yul\":13830:13839   */\n      dup4\n        /* \"#utility.yul\":13826:13843   */\n      add\n        /* \"#utility.yul\":13819:13866   */\n      mstore\n        /* \"#utility.yul\":13883:14014   */\n      tag_319\n        /* \"#utility.yul\":14009:14013   */\n      dup2\n        /* \"#utility.yul\":13883:14014   */\n      tag_169\n      jump\t// in\n    tag_319:\n        /* \"#utility.yul\":13875:14014   */\n      swap1\n      pop\n        /* \"#utility.yul\":13602:14021   */\n      swap2\n      swap1\n      pop\n      jump\t// out\n        /* \"#utility.yul\":14027:14191   */\n    tag_170:\n        /* \"#utility.yul\":14167:14183   */\n      0x706c6564676564203c20676f616c000000000000000000000000000000000000\n        /* \"#utility.yul\":14163:14164   */\n      0x00\n        /* \"#utility.yul\":14155:14161   */\n      dup3\n        /* \"#utility.yul\":14151:14165   */\n      add\n        /* \"#utility.yul\":14144:14184   */\n      mstore\n        /* \"#utility.yul\":14027:14191   */\n      pop\n      jump\t// out\n        /* \"#utility.yul\":14197:14563   */\n    tag_171:\n        /* \"#utility.yul\":14339:14342   */\n      0x00\n        /* \"#utility.yul\":14360:14427   */\n      tag_322\n        /* \"#utility.yul\":14424:14426   */\n      0x0e\n        /* \"#utility.yul\":14419:14422   */\n      dup4\n        /* \"#utility.yul\":14360:14427   */\n      tag_154\n      jump\t// in\n    tag_322:\n        /* \"#utility.yul\":14353:14427   */\n      swap2\n      pop\n        /* \"#utility.yul\":14436:14529   */\n      tag_323\n        /* \"#utility.yul\":14525:14528   */\n      dup3\n        /* \"#utility.yul\":14436:14529   */\n      tag_170\n      jump\t// in\n    tag_323:\n        /* \"#utility.yul\":14554:14556   */\n      0x20\n        /* \"#utility.yul\":14549:14552   */\n      dup3\n        /* \"#utility.yul\":14545:14557   */\n      add\n        /* \"#utility.yul\":14538:14557   */\n      swap1\n      pop\n        /* \"#utility.yul\":14197:14563   */\n      swap2\n      swap1\n      pop\n      jump\t// out\n        /* \"#utility.yul\":14569:14988   */\n    tag_92:\n        /* \"#utility.yul\":14735:14739   */\n      0x00\n        /* \"#utility.yul\":14773:14775   */\n      0x20\n        /* \"#utility.yul\":14762:14771   */\n      dup3\n        /* \"#utility.yul\":14758:14776   */\n      add\n        /* \"#utility.yul\":14750:14776   */\n      swap1\n      pop\n        /* \"#utility.yul\":14822:14831   */\n      dup2\n        /* \"#utility.yul\":14816:14820   */\n      dup2\n        /* \"#utility.yul\":14812:14832   */\n      sub\n        /* \"#utility.yul\":14808:14809   */\n      0x00\n        /* \"#utility.yul\":14797:14806   */\n      dup4\n        /* \"#utility.yul\":14793:14810   */\n      add\n        /* \"#utility.yul\":14786:14833   */\n      mstore\n        /* \"#utility.yul\":14850:14981   */\n      tag_325\n        /* \"#utility.yul\":14976:14980   */\n      dup2\n        /* \"#utility.yul\":14850:14981   */\n      tag_171\n      jump\t// in\n    tag_325:\n        /* \"#utility.yul\":14842:14981   */\n      swap1\n      pop\n        /* \"#utility.yul\":14569:14988   */\n      swap2\n      swap1\n      pop\n      jump\t// out\n        /* \"#utility.yul\":14994:15436   */\n    tag_94:\n        /* \"#utility.yul\":15143:15147   */\n      0x00\n        /* \"#utility.yul\":15181:15183   */\n      0x60\n        /* \"#utility.yul\":15170:15179   */\n      dup3\n        /* \"#utility.yul\":15166:15184   */\n      add\n        /* \"#utility.yul\":15158:15184   */\n      swap1\n      pop\n        /* \"#utility.yul\":15194:15265   */\n      tag_327\n        /* \"#utility.yul\":15262:15263   */\n      0x00\n        /* \"#utility.yul\":15251:15260   */\n      dup4\n        /* \"#utility.yul\":15247:15264   */\n      add\n        /* \"#utility.yul\":15238:15244   */\n      dup7\n        /* \"#utility.yul\":15194:15265   */\n      tag_139\n      jump\t// in\n    tag_327:\n        /* \"#utility.yul\":15275:15347   */\n      tag_328\n        /* \"#utility.yul\":15343:15345   */\n      0x20\n        /* \"#utility.yul\":15332:15341   */\n      dup4\n        /* \"#utility.yul\":15328:15346   */\n      add\n        /* \"#utility.yul\":15319:15325   */\n      dup6\n        /* \"#utility.yul\":15275:15347   */\n      tag_139\n      jump\t// in\n    tag_328:\n        /* \"#utility.yul\":15357:15429   */\n      tag_329\n        /* \"#utility.yul\":15425:15427   */\n      0x40\n        /* \"#utility.yul\":15414:15423   */\n      dup4\n        /* \"#utility.yul\":15410:15428   */\n      add\n        /* \"#utility.yul\":15401:15407   */\n      dup5\n        /* \"#utility.yul\":15357:15429   */\n      tag_140\n      jump\t// in\n    tag_329:\n        /* \"#utility.yul\":14994:15436   */\n      swap5\n      swap4\n      pop\n      pop\n      pop\n      pop\n      jump\t// out\n        /* \"#utility.yul\":15442:15614   */\n    tag_172:\n        /* \"#utility.yul\":15582:15606   */\n      0x6e6f742063726561746f722c206e6f207065726d697400000000000000000000\n        /* \"#utility.yul\":15578:15579   */\n      0x00\n        /* \"#utility.yul\":15570:15576   */\n      dup3\n        /* \"#utility.yul\":15566:15580   */\n      add\n        /* \"#utility.yul\":15559:15607   */\n      mstore\n        /* \"#utility.yul\":15442:15614   */\n      pop\n      jump\t// out\n        /* \"#utility.yul\":15620:15986   */\n    tag_173:\n        /* \"#utility.yul\":15762:15765   */\n      0x00\n        /* \"#utility.yul\":15783:15850   */\n      tag_332\n        /* \"#utility.yul\":15847:15849   */\n      0x16\n        /* \"#utility.yul\":15842:15845   */\n      dup4\n        /* \"#utility.yul\":15783:15850   */\n      tag_154\n      jump\t// in\n    tag_332:\n        /* \"#utility.yul\":15776:15850   */\n      swap2\n      pop\n        /* \"#utility.yul\":15859:15952   */\n      tag_333\n        /* \"#utility.yul\":15948:15951   */\n      dup3\n        /* \"#utility.yul\":15859:15952   */\n      tag_172\n      jump\t// in\n    tag_333:\n        /* \"#utility.yul\":15977:15979   */\n      0x20\n        /* \"#utility.yul\":15972:15975   */\n      dup3\n        /* \"#utility.yul\":15968:15980   */\n      add\n        /* \"#utility.yul\":15961:15980   */\n      swap1\n      pop\n        /* \"#utility.yul\":15620:15986   */\n      swap2\n      swap1\n      pop\n      jump\t// out\n        /* \"#utility.yul\":15992:16411   */\n    tag_102:\n        /* \"#utility.yul\":16158:16162   */\n      0x00\n        /* \"#utility.yul\":16196:16198   */\n      0x20\n        /* \"#utility.yul\":16185:16194   */\n      dup3\n        /* \"#utility.yul\":16181:16199   */\n      add\n        /* \"#utility.yul\":16173:16199   */\n      swap1\n      pop\n        /* \"#utility.yul\":16245:16254   */\n      dup2\n        /* \"#utility.yul\":16239:16243   */\n      dup2\n        /* \"#utility.yul\":16235:16255   */\n      sub\n        /* \"#utility.yul\":16231:16232   */\n      0x00\n        /* \"#utility.yul\":16220:16229   */\n      dup4\n        /* \"#utility.yul\":16216:16233   */\n      add\n        /* \"#utility.yul\":16209:16256   */\n      mstore\n        /* \"#utility.yul\":16273:16404   */\n      tag_335\n        /* \"#utility.yul\":16399:16403   */\n      dup2\n        /* \"#utility.yul\":16273:16404   */\n      tag_173\n      jump\t// in\n    tag_335:\n        /* \"#utility.yul\":16265:16404   */\n      swap1\n      pop\n        /* \"#utility.yul\":15992:16411   */\n      swap2\n      swap1\n      pop\n      jump\t// out\n        /* \"#utility.yul\":16417:16589   */\n    tag_174:\n        /* \"#utility.yul\":16557:16581   */\n      0x63726f776446756e642061726561647920737461727400000000000000000000\n        /* \"#utility.yul\":16553:16554   */\n      0x00\n        /* \"#utility.yul\":16545:16551   */\n      dup3\n        /* \"#utility.yul\":16541:16555   */\n      add\n        /* \"#utility.yul\":16534:16582   */\n      mstore\n        /* \"#utility.yul\":16417:16589   */\n      pop\n      jump\t// out\n        /* \"#utility.yul\":16595:16961   */\n    tag_175:\n        /* \"#utility.yul\":16737:16740   */\n      0x00\n        /* \"#utility.yul\":16758:16825   */\n      tag_338\n        /* \"#utility.yul\":16822:16824   */\n      0x16\n        /* \"#utility.yul\":16817:16820   */\n      dup4\n        /* \"#utility.yul\":16758:16825   */\n      tag_154\n      jump\t// in\n    tag_338:\n        /* \"#utility.yul\":16751:16825   */\n      swap2\n      pop\n        /* \"#utility.yul\":16834:16927   */\n      tag_339\n        /* \"#utility.yul\":16923:16926   */\n      dup3\n        /* \"#utility.yul\":16834:16927   */\n      tag_174\n      jump\t// in\n    tag_339:\n        /* \"#utility.yul\":16952:16954   */\n      0x20\n        /* \"#utility.yul\":16947:16950   */\n      dup3\n        /* \"#utility.yul\":16943:16955   */\n      add\n        /* \"#utility.yul\":16936:16955   */\n      swap1\n      pop\n        /* \"#utility.yul\":16595:16961   */\n      swap2\n      swap1\n      pop\n      jump\t// out\n        /* \"#utility.yul\":16967:17386   */\n    tag_105:\n        /* \"#utility.yul\":17133:17137   */\n      0x00\n        /* \"#utility.yul\":17171:17173   */\n      0x20\n        /* \"#utility.yul\":17160:17169   */\n      dup3\n        /* \"#utility.yul\":17156:17174   */\n      add\n        /* \"#utility.yul\":17148:17174   */\n      swap1\n      pop\n        /* \"#utility.yul\":17220:17229   */\n      dup2\n        /* \"#utility.yul\":17214:17218   */\n      dup2\n        /* \"#utility.yul\":17210:17230   */\n      sub\n        /* \"#utility.yul\":17206:17207   */\n      0x00\n        /* \"#utility.yul\":17195:17204   */\n      dup4\n        /* \"#utility.yul\":17191:17208   */\n      add\n        /* \"#utility.yul\":17184:17231   */\n      mstore\n        /* \"#utility.yul\":17248:17379   */\n      tag_341\n        /* \"#utility.yul\":17374:17378   */\n      dup2\n        /* \"#utility.yul\":17248:17379   */\n      tag_175\n      jump\t// in\n    tag_341:\n        /* \"#utility.yul\":17240:17379   */\n      swap1\n      pop\n        /* \"#utility.yul\":16967:17386   */\n      swap2\n      swap1\n      pop\n      jump\t// out\n        /* \"#utility.yul\":17392:17547   */\n    tag_176:\n        /* \"#utility.yul\":17532:17539   */\n      0x656e646564000000000000000000000000000000000000000000000000000000\n        /* \"#utility.yul\":17528:17529   */\n      0x00\n        /* \"#utility.yul\":17520:17526   */\n      dup3\n        /* \"#utility.yul\":17516:17530   */\n      add\n        /* \"#utility.yul\":17509:17540   */\n      mstore\n        /* \"#utility.yul\":17392:17547   */\n      pop\n      jump\t// out\n        /* \"#utility.yul\":17553:17918   */\n    tag_177:\n        /* \"#utility.yul\":17695:17698   */\n      0x00\n        /* \"#utility.yul\":17716:17782   */\n      tag_344\n        /* \"#utility.yul\":17780:17781   */\n      0x05\n        /* \"#utility.yul\":17775:17778   */\n      dup4\n        /* \"#utility.yul\":17716:17782   */\n      tag_154\n      jump\t// in\n    tag_344:\n        /* \"#utility.yul\":17709:17782   */\n      swap2\n      pop\n        /* \"#utility.yul\":17791:17884   */\n      tag_345\n        /* \"#utility.yul\":17880:17883   */\n      dup3\n        /* \"#utility.yul\":17791:17884   */\n      tag_176\n      jump\t// in\n    tag_345:\n        /* \"#utility.yul\":17909:17911   */\n      0x20\n        /* \"#utility.yul\":17904:17907   */\n      dup3\n        /* \"#utility.yul\":17900:17912   */\n      add\n        /* \"#utility.yul\":17893:17912   */\n      swap1\n      pop\n        /* \"#utility.yul\":17553:17918   */\n      swap2\n      swap1\n      pop\n      jump\t// out\n        /* \"#utility.yul\":17924:18343   */\n    tag_110:\n        /* \"#utility.yul\":18090:18094   */\n      0x00\n        /* \"#utility.yul\":18128:18130   */\n      0x20\n        /* \"#utility.yul\":18117:18126   */\n      dup3\n        /* \"#utility.yul\":18113:18131   */\n      add\n        /* \"#utility.yul\":18105:18131   */\n      swap1\n      pop\n        /* \"#utility.yul\":18177:18186   */\n      dup2\n        /* \"#utility.yul\":18171:18175   */\n      dup2\n        /* \"#utility.yul\":18167:18187   */\n      sub\n        /* \"#utility.yul\":18163:18164   */\n      0x00\n        /* \"#utility.yul\":18152:18161   */\n      dup4\n        /* \"#utility.yul\":18148:18165   */\n      add\n        /* \"#utility.yul\":18141:18188   */\n      mstore\n        /* \"#utility.yul\":18205:18336   */\n      tag_347\n        /* \"#utility.yul\":18331:18335   */\n      dup2\n        /* \"#utility.yul\":18205:18336   */\n      tag_177\n      jump\t// in\n    tag_347:\n        /* \"#utility.yul\":18197:18336   */\n      swap1\n      pop\n        /* \"#utility.yul\":17924:18343   */\n      swap2\n      swap1\n      pop\n      jump\t// out\n        /* \"#utility.yul\":18349:18508   */\n    tag_178:\n        /* \"#utility.yul\":18489:18500   */\n      0x6e6f742073746172740000000000000000000000000000000000000000000000\n        /* \"#utility.yul\":18485:18486   */\n      0x00\n        /* \"#utility.yul\":18477:18483   */\n      dup3\n        /* \"#utility.yul\":18473:18487   */\n      add\n        /* \"#utility.yul\":18466:18501   */\n      mstore\n        /* \"#utility.yul\":18349:18508   */\n      pop\n      jump\t// out\n        /* \"#utility.yul\":18514:18879   */\n    tag_179:\n        /* \"#utility.yul\":18656:18659   */\n      0x00\n        /* \"#utility.yul\":18677:18743   */\n      tag_350\n        /* \"#utility.yul\":18741:18742   */\n      0x09\n        /* \"#utility.yul\":18736:18739   */\n      dup4\n        /* \"#utility.yul\":18677:18743   */\n      tag_154\n      jump\t// in\n    tag_350:\n        /* \"#utility.yul\":18670:18743   */\n      swap2\n      pop\n        /* \"#utility.yul\":18752:18845   */\n      tag_351\n        /* \"#utility.yul\":18841:18844   */\n      dup3\n        /* \"#utility.yul\":18752:18845   */\n      tag_178\n      jump\t// in\n    tag_351:\n        /* \"#utility.yul\":18870:18872   */\n      0x20\n        /* \"#utility.yul\":18865:18868   */\n      dup3\n        /* \"#utility.yul\":18861:18873   */\n      add\n        /* \"#utility.yul\":18854:18873   */\n      swap1\n      pop\n        /* \"#utility.yul\":18514:18879   */\n      swap2\n      swap1\n      pop\n      jump\t// out\n        /* \"#utility.yul\":18885:19304   */\n    tag_121:\n        /* \"#utility.yul\":19051:19055   */\n      0x00\n        /* \"#utility.yul\":19089:19091   */\n      0x20\n        /* \"#utility.yul\":19078:19087   */\n      dup3\n        /* \"#utility.yul\":19074:19092   */\n      add\n        /* \"#utility.yul\":19066:19092   */\n      swap1\n      pop\n        /* \"#utility.yul\":19138:19147   */\n      dup2\n        /* \"#utility.yul\":19132:19136   */\n      dup2\n        /* \"#utility.yul\":19128:19148   */\n      sub\n        /* \"#utility.yul\":19124:19125   */\n      0x00\n        /* \"#utility.yul\":19113:19122   */\n      dup4\n        /* \"#utility.yul\":19109:19126   */\n      add\n        /* \"#utility.yul\":19102:19149   */\n      mstore\n        /* \"#utility.yul\":19166:19297   */\n      tag_353\n        /* \"#utility.yul\":19292:19296   */\n      dup2\n        /* \"#utility.yul\":19166:19297   */\n      tag_179\n      jump\t// in\n    tag_353:\n        /* \"#utility.yul\":19158:19297   */\n      swap1\n      pop\n        /* \"#utility.yul\":18885:19304   */\n      swap2\n      swap1\n      pop\n      jump\t// out\n\n    auxdata: 0xa26469706673582212202b21d72c2ba7c77572d59a9d52b6aa9392677d62c9710836397de0162dafc3ea64736f6c63430008120033\n}\n",
				"bytecode": {
					"linkReferences": {},
					"object": "60a06040523480156200001157600080fd5b5060405162001ba338038062001ba38339818101604052810190620000379190620000dc565b8073ffffffffffffffffffffffffffffffffffffffff1660808173ffffffffffffffffffffffffffffffffffffffff1681525050506200010e565b600080fd5b600073ffffffffffffffffffffffffffffffffffffffff82169050919050565b6000620000a48262000077565b9050919050565b620000b68162000097565b8114620000c257600080fd5b50565b600081519050620000d681620000ab565b92915050565b600060208284031215620000f557620000f462000072565b5b60006200010584828501620000c5565b91505092915050565b608051611a5d62000146600039600081816103fa015281816108ef01528181610d4201528181610e600152610fd70152611a5d6000f3fe608060405234801561001057600080fd5b506004361061009e5760003560e01c8063711853ab11610066578063711853ab146101485780638743ae89146101645780638ed5b0fc14610194578063fc0c546a146101b2578063fde327be146101d05761009e565b8063141961bc146100a3578063278ecde1146100d85780632c63f146146100f4578063379607f51461011057806340e58ee51461012c575b600080fd5b6100bd60048036038101906100b89190611105565b6101ec565b6040516100cf969594939291906111bc565b60405180910390f35b6100f260048036038101906100ed9190611105565b610275565b005b61010e60048036038101906101099190611249565b6104eb565b005b61012a60048036038101906101259190611105565b610780565b005b61014660048036038101906101419190611105565b6109cd565b005b610162600480360381019061015d919061129c565b610c4b565b005b61017e60048036038101906101799190611308565b610e33565b60405161018b9190611348565b60405180910390f35b61019c610e58565b6040516101a99190611348565b60405180910390f35b6101ba610e5e565b6040516101c791906113c2565b60405180910390f35b6101ea60048036038101906101e5919061129c565b610e82565b005b60016020528060005260406000206000915090508060000160009054906101000a900473ffffffffffffffffffffffffffffffffffffffff16908060010154908060020154908060030160009054906101000a900463ffffffff16908060030160049054906101000a900463ffffffff16908060030160089054906101000a900460ff16905086565b60006001600083815260200190815260200160002090508060030160049054906101000a900463ffffffff1663ffffffff1642116102e8576040517f08c379a00000000000000000000000000000000000000000000000000000000081526004016102df9061143a565b60405180910390fd5b8060010154816002015410610332576040517f08c379a0000000000000000000000000000000000000000000000000000000008152600401610329906114a6565b60405180910390fd5b60006002600084815260200190815260200160002060003373ffffffffffffffffffffffffffffffffffffffff1673ffffffffffffffffffffffffffffffffffffffff16815260200190815260200160002054905060006002600085815260200190815260200160002060003373ffffffffffffffffffffffffffffffffffffffff1673ffffffffffffffffffffffffffffffffffffffff16815260200190815260200160002081905550808260020160008282546103f191906114f5565b925050819055507f000000000000000000000000000000000000000000000000000000000000000073ffffffffffffffffffffffffffffffffffffffff1663a9059cbb33836040518363ffffffff1660e01b8152600401610453929190611529565b6020604051808303816000875af1158015610472573d6000803e3d6000fd5b505050506040513d601f19601f82011682018060405250810190610496919061157e565b503373ffffffffffffffffffffffffffffffffffffffff16837f21e12a7cad0da5928167e1084ea4d5fdf8d9af66657a2543a9ac76a0ca081477836040516104de9190611348565b60405180910390a3505050565b428263ffffffff161015610534576040517f08c379a000000000000000000000000000000000000000000000000000000000815260040161052b906115f7565b60405180910390fd5b8163ffffffff168163ffffffff1611610582576040517f08c379a000000000000000000000000000000000000000000000000000000000815260040161057990611663565b60405180910390fd5b6276a700426105919190611683565b8163ffffffff1611156105d9576040517f08c379a00000000000000000000000000000000000000000000000000000000081526004016105d090611703565b60405180910390fd5b60016000808282546105eb9190611683565b925050819055506040518060c001604052803373ffffffffffffffffffffffffffffffffffffffff168152602001848152602001600081526020018363ffffffff1681526020018263ffffffff16815260200160001515815250600160008054815260200190815260200160002060008201518160000160006101000a81548173ffffffffffffffffffffffffffffffffffffffff021916908373ffffffffffffffffffffffffffffffffffffffff160217905550602082015181600101556040820151816002015560608201518160030160006101000a81548163ffffffff021916908363ffffffff16021790555060808201518160030160046101000a81548163ffffffff021916908363ffffffff16021790555060a08201518160030160086101000a81548160ff0219169083151502179055509050503373ffffffffffffffffffffffffffffffffffffffff167f0601cd0d650b473037e838a2696d41e654433d065b3f56b28d1d3302e44a304f6000548585856040516107739493929190611723565b60405180910390a2505050565b60006001600083815260200190815260200160002090508060000160009054906101000a900473ffffffffffffffffffffffffffffffffffffffff1673ffffffffffffffffffffffffffffffffffffffff163373ffffffffffffffffffffffffffffffffffffffff1614610829576040517f08c379a0000000000000000000000000000000000000000000000000000000008152600401610820906117b4565b60405180910390fd5b8060030160049054906101000a900463ffffffff1663ffffffff164211610885576040517f08c379a000000000000000000000000000000000000000000000000000000000815260040161087c9061143a565b60405180910390fd5b8060010154816002015410156108d0576040517f08c379a00000000000000000000000000000000000000000000000000000000081526004016108c790611820565b60405180910390fd5b60018160030160086101000a81548160ff0219169083151502179055507f000000000000000000000000000000000000000000000000000000000000000073ffffffffffffffffffffffffffffffffffffffff166323b872dd303384600201546040518463ffffffff1660e01b815260040161094e93929190611840565b6020604051808303816000875af115801561096d573d6000803e3d6000fd5b505050506040513d601f19601f82011682018060405250810190610991919061157e565b507f7bb2b3c10797baccb6f8c4791f1edd6ca2f0d028ee0eda64b01a9a57e3a653f7826040516109c19190611348565b60405180910390a15050565b6000600160008381526020019081526020016000206040518060c00160405290816000820160009054906101000a900473ffffffffffffffffffffffffffffffffffffffff1673ffffffffffffffffffffffffffffffffffffffff1673ffffffffffffffffffffffffffffffffffffffff16815260200160018201548152602001600282015481526020016003820160009054906101000a900463ffffffff1663ffffffff1663ffffffff1681526020016003820160049054906101000a900463ffffffff1663ffffffff1663ffffffff1681526020016003820160089054906101000a900460ff1615151515815250509050806000015173ffffffffffffffffffffffffffffffffffffffff163373ffffffffffffffffffffffffffffffffffffffff1614610b32576040517f08c379a0000000000000000000000000000000000000000000000000000000008152600401610b29906118c3565b60405180910390fd5b42816060015163ffffffff1611610b7e576040517f08c379a0000000000000000000000000000000000000000000000000000000008152600401610b759061192f565b60405180910390fd5b6001600080548152602001908152602001600020600080820160006101000a81549073ffffffffffffffffffffffffffffffffffffffff0219169055600182016000905560028201600090556003820160006101000a81549063ffffffff02191690556003820160046101000a81549063ffffffff02191690556003820160086101000a81549060ff021916905550507fb232b8003f267be13dfa13a4524c91d4040f5786eaa74f083d2850d1fc220582600054604051610c3f9190611348565b60405180910390a15050565b60006001600084815260200190815260200160002090508060030160049054906101000a900463ffffffff1663ffffffff164210610cbe576040517f08c379a0000000000000000000000000000000000000000000000000000000008152600401610cb59061199b565b60405180910390fd5b81816002016000828254610cd291906114f5565b92505081905550816002600085815260200190815260200160002060003373ffffffffffffffffffffffffffffffffffffffff1673ffffffffffffffffffffffffffffffffffffffff1681526020019081526020016000206000828254610d3991906114f5565b925050819055507f000000000000000000000000000000000000000000000000000000000000000073ffffffffffffffffffffffffffffffffffffffff1663a9059cbb33846040518363ffffffff1660e01b8152600401610d9b929190611529565b6020604051808303816000875af1158015610dba573d6000803e3d6000fd5b505050506040513d601f19601f82011682018060405250810190610dde919061157e565b503373ffffffffffffffffffffffffffffffffffffffff16837f2eeeab891b26a214d1b25749f88a406bdea852bd8c9bfda977e0ef8114c180ba84604051610e269190611348565b60405180910390a3505050565b6002602052816000526040600020602052806000526040600020600091509150505481565b60005481565b7f000000000000000000000000000000000000000000000000000000000000000081565b60006001600084815260200190815260200160002090508060030160009054906101000a900463ffffffff1663ffffffff16421015610ef6576040517f08c379a0000000000000000000000000000000000000000000000000000000008152600401610eed90611a07565b60405180910390fd5b8060030160049054906101000a900463ffffffff1663ffffffff16421115610f53576040517f08c379a0000000000000000000000000000000000000000000000000000000008152600401610f4a9061199b565b60405180910390fd5b81816002016000828254610f679190611683565b92505081905550816002600085815260200190815260200160002060003373ffffffffffffffffffffffffffffffffffffffff1673ffffffffffffffffffffffffffffffffffffffff1681526020019081526020016000206000828254610fce9190611683565b925050819055507f000000000000000000000000000000000000000000000000000000000000000073ffffffffffffffffffffffffffffffffffffffff166323b872dd3330856040518463ffffffff1660e01b815260040161103293929190611840565b6020604051808303816000875af1158015611051573d6000803e3d6000fd5b505050506040513d601f19601f82011682018060405250810190611075919061157e565b503373ffffffffffffffffffffffffffffffffffffffff16837f06bdb975df800a73232998e71ed585d536222f1dfeaa622d7f62a23ada686c82846040516110bd9190611348565b60405180910390a3505050565b600080fd5b6000819050919050565b6110e2816110cf565b81146110ed57600080fd5b50565b6000813590506110ff816110d9565b92915050565b60006020828403121561111b5761111a6110ca565b5b6000611129848285016110f0565b91505092915050565b600073ffffffffffffffffffffffffffffffffffffffff82169050919050565b600061115d82611132565b9050919050565b61116d81611152565b82525050565b61117c816110cf565b82525050565b600063ffffffff82169050919050565b61119b81611182565b82525050565b60008115159050919050565b6111b6816111a1565b82525050565b600060c0820190506111d16000830189611164565b6111de6020830188611173565b6111eb6040830187611173565b6111f86060830186611192565b6112056080830185611192565b61121260a08301846111ad565b979650505050505050565b61122681611182565b811461123157600080fd5b50565b6000813590506112438161121d565b92915050565b600080600060608486031215611262576112616110ca565b5b6000611270868287016110f0565b935050602061128186828701611234565b925050604061129286828701611234565b9150509250925092565b600080604083850312156112b3576112b26110ca565b5b60006112c1858286016110f0565b92505060206112d2858286016110f0565b9150509250929050565b6112e581611152565b81146112f057600080fd5b50565b600081359050611302816112dc565b92915050565b6000806040838503121561131f5761131e6110ca565b5b600061132d858286016110f0565b925050602061133e858286016112f3565b9150509250929050565b600060208201905061135d6000830184611173565b92915050565b6000819050919050565b600061138861138361137e84611132565b611363565b611132565b9050919050565b600061139a8261136d565b9050919050565b60006113ac8261138f565b9050919050565b6113bc816113a1565b82525050565b60006020820190506113d760008301846113b3565b92915050565b600082825260208201905092915050565b7f6e6f7420656e6465640000000000000000000000000000000000000000000000600082015250565b60006114246009836113dd565b915061142f826113ee565b602082019050919050565b6000602082019050818103600083015261145381611417565b9050919050565b7f63726f7764206661696c65640000000000000000000000000000000000000000600082015250565b6000611490600c836113dd565b915061149b8261145a565b602082019050919050565b600060208201905081810360008301526114bf81611483565b9050919050565b7f4e487b7100000000000000000000000000000000000000000000000000000000600052601160045260246000fd5b6000611500826110cf565b915061150b836110cf565b9250828203905081811115611523576115226114c6565b5b92915050565b600060408201905061153e6000830185611164565b61154b6020830184611173565b9392505050565b61155b816111a1565b811461156657600080fd5b50565b60008151905061157881611552565b92915050565b600060208284031215611594576115936110ca565b5b60006115a284828501611569565b91505092915050565b7f7374617274206174203c206e6f77000000000000000000000000000000000000600082015250565b60006115e1600e836113dd565b91506115ec826115ab565b602082019050919050565b60006020820190508181036000830152611610816115d4565b9050919050565b7f656e64206174203c207374617274206174000000000000000000000000000000600082015250565b600061164d6011836113dd565b915061165882611617565b602082019050919050565b6000602082019050818103600083015261167c81611640565b9050919050565b600061168e826110cf565b9150611699836110cf565b92508282019050808211156116b1576116b06114c6565b5b92915050565b7f656e64206174203e206d6178206475726174696f6e0000000000000000000000600082015250565b60006116ed6015836113dd565b91506116f8826116b7565b602082019050919050565b6000602082019050818103600083015261171c816116e0565b9050919050565b60006080820190506117386000830187611173565b6117456020830186611173565b6117526040830185611192565b61175f6060830184611192565b95945050505050565b7f6e6f74206372656174726f000000000000000000000000000000000000000000600082015250565b600061179e600b836113dd565b91506117a982611768565b602082019050919050565b600060208201905081810360008301526117cd81611791565b9050919050565b7f706c6564676564203c20676f616c000000000000000000000000000000000000600082015250565b600061180a600e836113dd565b9150611815826117d4565b602082019050919050565b60006020820190508181036000830152611839816117fd565b9050919050565b60006060820190506118556000830186611164565b6118626020830185611164565b61186f6040830184611173565b949350505050565b7f6e6f742063726561746f722c206e6f207065726d697400000000000000000000600082015250565b60006118ad6016836113dd565b91506118b882611877565b602082019050919050565b600060208201905081810360008301526118dc816118a0565b9050919050565b7f63726f776446756e642061726561647920737461727400000000000000000000600082015250565b60006119196016836113dd565b9150611924826118e3565b602082019050919050565b600060208201905081810360008301526119488161190c565b9050919050565b7f656e646564000000000000000000000000000000000000000000000000000000600082015250565b60006119856005836113dd565b91506119908261194f565b602082019050919050565b600060208201905081810360008301526119b481611978565b9050919050565b7f6e6f742073746172740000000000000000000000000000000000000000000000600082015250565b60006119f16009836113dd565b91506119fc826119bb565b602082019050919050565b60006020820190508181036000830152611a20816119e4565b905091905056fea26469706673582212202b21d72c2ba7c77572d59a9d52b6aa9392677d62c9710836397de0162dafc3ea64736f6c63430008120033",
					"opcodes": "PUSH1 0xA0 PUSH1 0x40 MSTORE CALLVALUE DUP1 ISZERO PUSH3 0x11 JUMPI PUSH1 0x0 DUP1 REVERT JUMPDEST POP PUSH1 0x40 MLOAD PUSH3 0x1BA3 CODESIZE SUB DUP1 PUSH3 0x1BA3 DUP4 CODECOPY DUP2 DUP2 ADD PUSH1 0x40 MSTORE DUP2 ADD SWAP1 PUSH3 0x37 SWAP2 SWAP1 PUSH3 0xDC JUMP JUMPDEST DUP1 PUSH20 0xFFFFFFFFFFFFFFFFFFFFFFFFFFFFFFFFFFFFFFFF AND PUSH1 0x80 DUP2 PUSH20 0xFFFFFFFFFFFFFFFFFFFFFFFFFFFFFFFFFFFFFFFF AND DUP2 MSTORE POP POP POP PUSH3 0x10E JUMP JUMPDEST PUSH1 0x0 DUP1 REVERT JUMPDEST PUSH1 0x0 PUSH20 0xFFFFFFFFFFFFFFFFFFFFFFFFFFFFFFFFFFFFFFFF DUP3 AND SWAP1 POP SWAP2 SWAP1 POP JUMP JUMPDEST PUSH1 0x0 PUSH3 0xA4 DUP3 PUSH3 0x77 JUMP JUMPDEST SWAP1 POP SWAP2 SWAP1 POP JUMP JUMPDEST PUSH3 0xB6 DUP2 PUSH3 0x97 JUMP JUMPDEST DUP2 EQ PUSH3 0xC2 JUMPI PUSH1 0x0 DUP1 REVERT JUMPDEST POP JUMP JUMPDEST PUSH1 0x0 DUP2 MLOAD SWAP1 POP PUSH3 0xD6 DUP2 PUSH3 0xAB JUMP JUMPDEST SWAP3 SWAP2 POP POP JUMP JUMPDEST PUSH1 0x0 PUSH1 0x20 DUP3 DUP5 SUB SLT ISZERO PUSH3 0xF5 JUMPI PUSH3 0xF4 PUSH3 0x72 JUMP JUMPDEST JUMPDEST PUSH1 0x0 PUSH3 0x105 DUP5 DUP3 DUP6 ADD PUSH3 0xC5 JUMP JUMPDEST SWAP2 POP POP SWAP3 SWAP2 POP POP JUMP JUMPDEST PUSH1 0x80 MLOAD PUSH2 0x1A5D PUSH3 0x146 PUSH1 0x0 CODECOPY PUSH1 0x0 DUP2 DUP2 PUSH2 0x3FA ADD MSTORE DUP2 DUP2 PUSH2 0x8EF ADD MSTORE DUP2 DUP2 PUSH2 0xD42 ADD MSTORE DUP2 DUP2 PUSH2 0xE60 ADD MSTORE PUSH2 0xFD7 ADD MSTORE PUSH2 0x1A5D PUSH1 0x0 RETURN INVALID PUSH1 0x80 PUSH1 0x40 MSTORE CALLVALUE DUP1 ISZERO PUSH2 0x10 JUMPI PUSH1 0x0 DUP1 REVERT JUMPDEST POP PUSH1 0x4 CALLDATASIZE LT PUSH2 0x9E JUMPI PUSH1 0x0 CALLDATALOAD PUSH1 0xE0 SHR DUP1 PUSH4 0x711853AB GT PUSH2 0x66 JUMPI DUP1 PUSH4 0x711853AB EQ PUSH2 0x148 JUMPI DUP1 PUSH4 0x8743AE89 EQ PUSH2 0x164 JUMPI DUP1 PUSH4 0x8ED5B0FC EQ PUSH2 0x194 JUMPI DUP1 PUSH4 0xFC0C546A EQ PUSH2 0x1B2 JUMPI DUP1 PUSH4 0xFDE327BE EQ PUSH2 0x1D0 JUMPI PUSH2 0x9E JUMP JUMPDEST DUP1 PUSH4 0x141961BC EQ PUSH2 0xA3 JUMPI DUP1 PUSH4 0x278ECDE1 EQ PUSH2 0xD8 JUMPI DUP1 PUSH4 0x2C63F146 EQ PUSH2 0xF4 JUMPI DUP1 PUSH4 0x379607F5 EQ PUSH2 0x110 JUMPI DUP1 PUSH4 0x40E58EE5 EQ PUSH2 0x12C JUMPI JUMPDEST PUSH1 0x0 DUP1 REVERT JUMPDEST PUSH2 0xBD PUSH1 0x4 DUP1 CALLDATASIZE SUB DUP2 ADD SWAP1 PUSH2 0xB8 SWAP2 SWAP1 PUSH2 0x1105 JUMP JUMPDEST PUSH2 0x1EC JUMP JUMPDEST PUSH1 0x40 MLOAD PUSH2 0xCF SWAP7 SWAP6 SWAP5 SWAP4 SWAP3 SWAP2 SWAP1 PUSH2 0x11BC JUMP JUMPDEST PUSH1 0x40 MLOAD DUP1 SWAP2 SUB SWAP1 RETURN JUMPDEST PUSH2 0xF2 PUSH1 0x4 DUP1 CALLDATASIZE SUB DUP2 ADD SWAP1 PUSH2 0xED SWAP2 SWAP1 PUSH2 0x1105 JUMP JUMPDEST PUSH2 0x275 JUMP JUMPDEST STOP JUMPDEST PUSH2 0x10E PUSH1 0x4 DUP1 CALLDATASIZE SUB DUP2 ADD SWAP1 PUSH2 0x109 SWAP2 SWAP1 PUSH2 0x1249 JUMP JUMPDEST PUSH2 0x4EB JUMP JUMPDEST STOP JUMPDEST PUSH2 0x12A PUSH1 0x4 DUP1 CALLDATASIZE SUB DUP2 ADD SWAP1 PUSH2 0x125 SWAP2 SWAP1 PUSH2 0x1105 JUMP JUMPDEST PUSH2 0x780 JUMP JUMPDEST STOP JUMPDEST PUSH2 0x146 PUSH1 0x4 DUP1 CALLDATASIZE SUB DUP2 ADD SWAP1 PUSH2 0x141 SWAP2 SWAP1 PUSH2 0x1105 JUMP JUMPDEST PUSH2 0x9CD JUMP JUMPDEST STOP JUMPDEST PUSH2 0x162 PUSH1 0x4 DUP1 CALLDATASIZE SUB DUP2 ADD SWAP1 PUSH2 0x15D SWAP2 SWAP1 PUSH2 0x129C JUMP JUMPDEST PUSH2 0xC4B JUMP JUMPDEST STOP JUMPDEST PUSH2 0x17E PUSH1 0x4 DUP1 CALLDATASIZE SUB DUP2 ADD SWAP1 PUSH2 0x179 SWAP2 SWAP1 PUSH2 0x1308 JUMP JUMPDEST PUSH2 0xE33 JUMP JUMPDEST PUSH1 0x40 MLOAD PUSH2 0x18B SWAP2 SWAP1 PUSH2 0x1348 JUMP JUMPDEST PUSH1 0x40 MLOAD DUP1 SWAP2 SUB SWAP1 RETURN JUMPDEST PUSH2 0x19C PUSH2 0xE58 JUMP JUMPDEST PUSH1 0x40 MLOAD PUSH2 0x1A9 SWAP2 SWAP1 PUSH2 0x1348 JUMP JUMPDEST PUSH1 0x40 MLOAD DUP1 SWAP2 SUB SWAP1 RETURN JUMPDEST PUSH2 0x1BA PUSH2 0xE5E JUMP JUMPDEST PUSH1 0x40 MLOAD PUSH2 0x1C7 SWAP2 SWAP1 PUSH2 0x13C2 JUMP JUMPDEST PUSH1 0x40 MLOAD DUP1 SWAP2 SUB SWAP1 RETURN JUMPDEST PUSH2 0x1EA PUSH1 0x4 DUP1 CALLDATASIZE SUB DUP2 ADD SWAP1 PUSH2 0x1E5 SWAP2 SWAP1 PUSH2 0x129C JUMP JUMPDEST PUSH2 0xE82 JUMP JUMPDEST STOP JUMPDEST PUSH1 0x1 PUSH1 0x20 MSTORE DUP1 PUSH1 0x0 MSTORE PUSH1 0x40 PUSH1 0x0 KECCAK256 PUSH1 0x0 SWAP2 POP SWAP1 POP DUP1 PUSH1 0x0 ADD PUSH1 0x0 SWAP1 SLOAD SWAP1 PUSH2 0x100 EXP SWAP1 DIV PUSH20 0xFFFFFFFFFFFFFFFFFFFFFFFFFFFFFFFFFFFFFFFF AND SWAP1 DUP1 PUSH1 0x1 ADD SLOAD SWAP1 DUP1 PUSH1 0x2 ADD SLOAD SWAP1 DUP1 PUSH1 0x3 ADD PUSH1 0x0 SWAP1 SLOAD SWAP1 PUSH2 0x100 EXP SWAP1 DIV PUSH4 0xFFFFFFFF AND SWAP1 DUP1 PUSH1 0x3 ADD PUSH1 0x4 SWAP1 SLOAD SWAP1 PUSH2 0x100 EXP SWAP1 DIV PUSH4 0xFFFFFFFF AND SWAP1 DUP1 PUSH1 0x3 ADD PUSH1 0x8 SWAP1 SLOAD SWAP1 PUSH2 0x100 EXP SWAP1 DIV PUSH1 0xFF AND SWAP1 POP DUP7 JUMP JUMPDEST PUSH1 0x0 PUSH1 0x1 PUSH1 0x0 DUP4 DUP2 MSTORE PUSH1 0x20 ADD SWAP1 DUP2 MSTORE PUSH1 0x20 ADD PUSH1 0x0 KECCAK256 SWAP1 POP DUP1 PUSH1 0x3 ADD PUSH1 0x4 SWAP1 SLOAD SWAP1 PUSH2 0x100 EXP SWAP1 DIV PUSH4 0xFFFFFFFF AND PUSH4 0xFFFFFFFF AND TIMESTAMP GT PUSH2 0x2E8 JUMPI PUSH1 0x40 MLOAD PUSH32 0x8C379A000000000000000000000000000000000000000000000000000000000 DUP2 MSTORE PUSH1 0x4 ADD PUSH2 0x2DF SWAP1 PUSH2 0x143A JUMP JUMPDEST PUSH1 0x40 MLOAD DUP1 SWAP2 SUB SWAP1 REVERT JUMPDEST DUP1 PUSH1 0x1 ADD SLOAD DUP2 PUSH1 0x2 ADD SLOAD LT PUSH2 0x332 JUMPI PUSH1 0x40 MLOAD PUSH32 0x8C379A000000000000000000000000000000000000000000000000000000000 DUP2 MSTORE PUSH1 0x4 ADD PUSH2 0x329 SWAP1 PUSH2 0x14A6 JUMP JUMPDEST PUSH1 0x40 MLOAD DUP1 SWAP2 SUB SWAP1 REVERT JUMPDEST PUSH1 0x0 PUSH1 0x2 PUSH1 0x0 DUP5 DUP2 MSTORE PUSH1 0x20 ADD SWAP1 DUP2 MSTORE PUSH1 0x20 ADD PUSH1 0x0 KECCAK256 PUSH1 0x0 CALLER PUSH20 0xFFFFFFFFFFFFFFFFFFFFFFFFFFFFFFFFFFFFFFFF AND PUSH20 0xFFFFFFFFFFFFFFFFFFFFFFFFFFFFFFFFFFFFFFFF AND DUP2 MSTORE PUSH1 0x20 ADD SWAP1 DUP2 MSTORE PUSH1 0x20 ADD PUSH1 0x0 KECCAK256 SLOAD SWAP1 POP PUSH1 0x0 PUSH1 0x2 PUSH1 0x0 DUP6 DUP2 MSTORE PUSH1 0x20 ADD SWAP1 DUP2 MSTORE PUSH1 0x20 ADD PUSH1 0x0 KECCAK256 PUSH1 0x0 CALLER PUSH20 0xFFFFFFFFFFFFFFFFFFFFFFFFFFFFFFFFFFFFFFFF AND PUSH20 0xFFFFFFFFFFFFFFFFFFFFFFFFFFFFFFFFFFFFFFFF AND DUP2 MSTORE PUSH1 0x20 ADD SWAP1 DUP2 MSTORE PUSH1 0x20 ADD PUSH1 0x0 KECCAK256 DUP2 SWAP1 SSTORE POP DUP1 DUP3 PUSH1 0x2 ADD PUSH1 0x0 DUP3 DUP3 SLOAD PUSH2 0x3F1 SWAP2 SWAP1 PUSH2 0x14F5 JUMP JUMPDEST SWAP3 POP POP DUP2 SWAP1 SSTORE POP PUSH32 0x0 PUSH20 0xFFFFFFFFFFFFFFFFFFFFFFFFFFFFFFFFFFFFFFFF AND PUSH4 0xA9059CBB CALLER DUP4 PUSH1 0x40 MLOAD DUP4 PUSH4 0xFFFFFFFF AND PUSH1 0xE0 SHL DUP2 MSTORE PUSH1 0x4 ADD PUSH2 0x453 SWAP3 SWAP2 SWAP1 PUSH2 0x1529 JUMP JUMPDEST PUSH1 0x20 PUSH1 0x40 MLOAD DUP1 DUP4 SUB DUP2 PUSH1 0x0 DUP8 GAS CALL ISZERO DUP1 ISZERO PUSH2 0x472 JUMPI RETURNDATASIZE PUSH1 0x0 DUP1 RETURNDATACOPY RETURNDATASIZE PUSH1 0x0 REVERT JUMPDEST POP POP POP POP PUSH1 0x40 MLOAD RETURNDATASIZE PUSH1 0x1F NOT PUSH1 0x1F DUP3 ADD AND DUP3 ADD DUP1 PUSH1 0x40 MSTORE POP DUP2 ADD SWAP1 PUSH2 0x496 SWAP2 SWAP1 PUSH2 0x157E JUMP JUMPDEST POP CALLER PUSH20 0xFFFFFFFFFFFFFFFFFFFFFFFFFFFFFFFFFFFFFFFF AND DUP4 PUSH32 0x21E12A7CAD0DA5928167E1084EA4D5FDF8D9AF66657A2543A9AC76A0CA081477 DUP4 PUSH1 0x40 MLOAD PUSH2 0x4DE SWAP2 SWAP1 PUSH2 0x1348 JUMP JUMPDEST PUSH1 0x40 MLOAD DUP1 SWAP2 SUB SWAP1 LOG3 POP POP POP JUMP JUMPDEST TIMESTAMP DUP3 PUSH4 0xFFFFFFFF AND LT ISZERO PUSH2 0x534 JUMPI PUSH1 0x40 MLOAD PUSH32 0x8C379A000000000000000000000000000000000000000000000000000000000 DUP2 MSTORE PUSH1 0x4 ADD PUSH2 0x52B SWAP1 PUSH2 0x15F7 JUMP JUMPDEST PUSH1 0x40 MLOAD DUP1 SWAP2 SUB SWAP1 REVERT JUMPDEST DUP2 PUSH4 0xFFFFFFFF AND DUP2 PUSH4 0xFFFFFFFF AND GT PUSH2 0x582 JUMPI PUSH1 0x40 MLOAD PUSH32 0x8C379A000000000000000000000000000000000000000000000000000000000 DUP2 MSTORE PUSH1 0x4 ADD PUSH2 0x579 SWAP1 PUSH2 0x1663 JUMP JUMPDEST PUSH1 0x40 MLOAD DUP1 SWAP2 SUB SWAP1 REVERT JUMPDEST PUSH3 0x76A700 TIMESTAMP PUSH2 0x591 SWAP2 SWAP1 PUSH2 0x1683 JUMP JUMPDEST DUP2 PUSH4 0xFFFFFFFF AND GT ISZERO PUSH2 0x5D9 JUMPI PUSH1 0x40 MLOAD PUSH32 0x8C379A000000000000000000000000000000000000000000000000000000000 DUP2 MSTORE PUSH1 0x4 ADD PUSH2 0x5D0 SWAP1 PUSH2 0x1703 JUMP JUMPDEST PUSH1 0x40 MLOAD DUP1 SWAP2 SUB SWAP1 REVERT JUMPDEST PUSH1 0x1 PUSH1 0x0 DUP1 DUP3 DUP3 SLOAD PUSH2 0x5EB SWAP2 SWAP1 PUSH2 0x1683 JUMP JUMPDEST SWAP3 POP POP DUP2 SWAP1 SSTORE POP PUSH1 0x40 MLOAD DUP1 PUSH1 0xC0 ADD PUSH1 0x40 MSTORE DUP1 CALLER PUSH20 0xFFFFFFFFFFFFFFFFFFFFFFFFFFFFFFFFFFFFFFFF AND DUP2 MSTORE PUSH1 0x20 ADD DUP5 DUP2 MSTORE PUSH1 0x20 ADD PUSH1 0x0 DUP2 MSTORE PUSH1 0x20 ADD DUP4 PUSH4 0xFFFFFFFF AND DUP2 MSTORE PUSH1 0x20 ADD DUP3 PUSH4 0xFFFFFFFF AND DUP2 MSTORE PUSH1 0x20 ADD PUSH1 0x0 ISZERO ISZERO DUP2 MSTORE POP PUSH1 0x1 PUSH1 0x0 DUP1 SLOAD DUP2 MSTORE PUSH1 0x20 ADD SWAP1 DUP2 MSTORE PUSH1 0x20 ADD PUSH1 0x0 KECCAK256 PUSH1 0x0 DUP3 ADD MLOAD DUP2 PUSH1 0x0 ADD PUSH1 0x0 PUSH2 0x100 EXP DUP2 SLOAD DUP2 PUSH20 0xFFFFFFFFFFFFFFFFFFFFFFFFFFFFFFFFFFFFFFFF MUL NOT AND SWAP1 DUP4 PUSH20 0xFFFFFFFFFFFFFFFFFFFFFFFFFFFFFFFFFFFFFFFF AND MUL OR SWAP1 SSTORE POP PUSH1 0x20 DUP3 ADD MLOAD DUP2 PUSH1 0x1 ADD SSTORE PUSH1 0x40 DUP3 ADD MLOAD DUP2 PUSH1 0x2 ADD SSTORE PUSH1 0x60 DUP3 ADD MLOAD DUP2 PUSH1 0x3 ADD PUSH1 0x0 PUSH2 0x100 EXP DUP2 SLOAD DUP2 PUSH4 0xFFFFFFFF MUL NOT AND SWAP1 DUP4 PUSH4 0xFFFFFFFF AND MUL OR SWAP1 SSTORE POP PUSH1 0x80 DUP3 ADD MLOAD DUP2 PUSH1 0x3 ADD PUSH1 0x4 PUSH2 0x100 EXP DUP2 SLOAD DUP2 PUSH4 0xFFFFFFFF MUL NOT AND SWAP1 DUP4 PUSH4 0xFFFFFFFF AND MUL OR SWAP1 SSTORE POP PUSH1 0xA0 DUP3 ADD MLOAD DUP2 PUSH1 0x3 ADD PUSH1 0x8 PUSH2 0x100 EXP DUP2 SLOAD DUP2 PUSH1 0xFF MUL NOT AND SWAP1 DUP4 ISZERO ISZERO MUL OR SWAP1 SSTORE POP SWAP1 POP POP CALLER PUSH20 0xFFFFFFFFFFFFFFFFFFFFFFFFFFFFFFFFFFFFFFFF AND PUSH32 0x601CD0D650B473037E838A2696D41E654433D065B3F56B28D1D3302E44A304F PUSH1 0x0 SLOAD DUP6 DUP6 DUP6 PUSH1 0x40 MLOAD PUSH2 0x773 SWAP5 SWAP4 SWAP3 SWAP2 SWAP1 PUSH2 0x1723 JUMP JUMPDEST PUSH1 0x40 MLOAD DUP1 SWAP2 SUB SWAP1 LOG2 POP POP POP JUMP JUMPDEST PUSH1 0x0 PUSH1 0x1 PUSH1 0x0 DUP4 DUP2 MSTORE PUSH1 0x20 ADD SWAP1 DUP2 MSTORE PUSH1 0x20 ADD PUSH1 0x0 KECCAK256 SWAP1 POP DUP1 PUSH1 0x0 ADD PUSH1 0x0 SWAP1 SLOAD SWAP1 PUSH2 0x100 EXP SWAP1 DIV PUSH20 0xFFFFFFFFFFFFFFFFFFFFFFFFFFFFFFFFFFFFFFFF AND PUSH20 0xFFFFFFFFFFFFFFFFFFFFFFFFFFFFFFFFFFFFFFFF AND CALLER PUSH20 0xFFFFFFFFFFFFFFFFFFFFFFFFFFFFFFFFFFFFFFFF AND EQ PUSH2 0x829 JUMPI PUSH1 0x40 MLOAD PUSH32 0x8C379A000000000000000000000000000000000000000000000000000000000 DUP2 MSTORE PUSH1 0x4 ADD PUSH2 0x820 SWAP1 PUSH2 0x17B4 JUMP JUMPDEST PUSH1 0x40 MLOAD DUP1 SWAP2 SUB SWAP1 REVERT JUMPDEST DUP1 PUSH1 0x3 ADD PUSH1 0x4 SWAP1 SLOAD SWAP1 PUSH2 0x100 EXP SWAP1 DIV PUSH4 0xFFFFFFFF AND PUSH4 0xFFFFFFFF AND TIMESTAMP GT PUSH2 0x885 JUMPI PUSH1 0x40 MLOAD PUSH32 0x8C379A000000000000000000000000000000000000000000000000000000000 DUP2 MSTORE PUSH1 0x4 ADD PUSH2 0x87C SWAP1 PUSH2 0x143A JUMP JUMPDEST PUSH1 0x40 MLOAD DUP1 SWAP2 SUB SWAP1 REVERT JUMPDEST DUP1 PUSH1 0x1 ADD SLOAD DUP2 PUSH1 0x2 ADD SLOAD LT ISZERO PUSH2 0x8D0 JUMPI PUSH1 0x40 MLOAD PUSH32 0x8C379A000000000000000000000000000000000000000000000000000000000 DUP2 MSTORE PUSH1 0x4 ADD PUSH2 0x8C7 SWAP1 PUSH2 0x1820 JUMP JUMPDEST PUSH1 0x40 MLOAD DUP1 SWAP2 SUB SWAP1 REVERT JUMPDEST PUSH1 0x1 DUP2 PUSH1 0x3 ADD PUSH1 0x8 PUSH2 0x100 EXP DUP2 SLOAD DUP2 PUSH1 0xFF MUL NOT AND SWAP1 DUP4 ISZERO ISZERO MUL OR SWAP1 SSTORE POP PUSH32 0x0 PUSH20 0xFFFFFFFFFFFFFFFFFFFFFFFFFFFFFFFFFFFFFFFF AND PUSH4 0x23B872DD ADDRESS CALLER DUP5 PUSH1 0x2 ADD SLOAD PUSH1 0x40 MLOAD DUP5 PUSH4 0xFFFFFFFF AND PUSH1 0xE0 SHL DUP2 MSTORE PUSH1 0x4 ADD PUSH2 0x94E SWAP4 SWAP3 SWAP2 SWAP1 PUSH2 0x1840 JUMP JUMPDEST PUSH1 0x20 PUSH1 0x40 MLOAD DUP1 DUP4 SUB DUP2 PUSH1 0x0 DUP8 GAS CALL ISZERO DUP1 ISZERO PUSH2 0x96D JUMPI RETURNDATASIZE PUSH1 0x0 DUP1 RETURNDATACOPY RETURNDATASIZE PUSH1 0x0 REVERT JUMPDEST POP POP POP POP PUSH1 0x40 MLOAD RETURNDATASIZE PUSH1 0x1F NOT PUSH1 0x1F DUP3 ADD AND DUP3 ADD DUP1 PUSH1 0x40 MSTORE POP DUP2 ADD SWAP1 PUSH2 0x991 SWAP2 SWAP1 PUSH2 0x157E JUMP JUMPDEST POP PUSH32 0x7BB2B3C10797BACCB6F8C4791F1EDD6CA2F0D028EE0EDA64B01A9A57E3A653F7 DUP3 PUSH1 0x40 MLOAD PUSH2 0x9C1 SWAP2 SWAP1 PUSH2 0x1348 JUMP JUMPDEST PUSH1 0x40 MLOAD DUP1 SWAP2 SUB SWAP1 LOG1 POP POP JUMP JUMPDEST PUSH1 0x0 PUSH1 0x1 PUSH1 0x0 DUP4 DUP2 MSTORE PUSH1 0x20 ADD SWAP1 DUP2 MSTORE PUSH1 0x20 ADD PUSH1 0x0 KECCAK256 PUSH1 0x40 MLOAD DUP1 PUSH1 0xC0 ADD PUSH1 0x40 MSTORE SWAP1 DUP2 PUSH1 0x0 DUP3 ADD PUSH1 0x0 SWAP1 SLOAD SWAP1 PUSH2 0x100 EXP SWAP1 DIV PUSH20 0xFFFFFFFFFFFFFFFFFFFFFFFFFFFFFFFFFFFFFFFF AND PUSH20 0xFFFFFFFFFFFFFFFFFFFFFFFFFFFFFFFFFFFFFFFF AND PUSH20 0xFFFFFFFFFFFFFFFFFFFFFFFFFFFFFFFFFFFFFFFF AND DUP2 MSTORE PUSH1 0x20 ADD PUSH1 0x1 DUP3 ADD SLOAD DUP2 MSTORE PUSH1 0x20 ADD PUSH1 0x2 DUP3 ADD SLOAD DUP2 MSTORE PUSH1 0x20 ADD PUSH1 0x3 DUP3 ADD PUSH1 0x0 SWAP1 SLOAD SWAP1 PUSH2 0x100 EXP SWAP1 DIV PUSH4 0xFFFFFFFF AND PUSH4 0xFFFFFFFF AND PUSH4 0xFFFFFFFF AND DUP2 MSTORE PUSH1 0x20 ADD PUSH1 0x3 DUP3 ADD PUSH1 0x4 SWAP1 SLOAD SWAP1 PUSH2 0x100 EXP SWAP1 DIV PUSH4 0xFFFFFFFF AND PUSH4 0xFFFFFFFF AND PUSH4 0xFFFFFFFF AND DUP2 MSTORE PUSH1 0x20 ADD PUSH1 0x3 DUP3 ADD PUSH1 0x8 SWAP1 SLOAD SWAP1 PUSH2 0x100 EXP SWAP1 DIV PUSH1 0xFF AND ISZERO ISZERO ISZERO ISZERO DUP2 MSTORE POP POP SWAP1 POP DUP1 PUSH1 0x0 ADD MLOAD PUSH20 0xFFFFFFFFFFFFFFFFFFFFFFFFFFFFFFFFFFFFFFFF AND CALLER PUSH20 0xFFFFFFFFFFFFFFFFFFFFFFFFFFFFFFFFFFFFFFFF AND EQ PUSH2 0xB32 JUMPI PUSH1 0x40 MLOAD PUSH32 0x8C379A000000000000000000000000000000000000000000000000000000000 DUP2 MSTORE PUSH1 0x4 ADD PUSH2 0xB29 SWAP1 PUSH2 0x18C3 JUMP JUMPDEST PUSH1 0x40 MLOAD DUP1 SWAP2 SUB SWAP1 REVERT JUMPDEST TIMESTAMP DUP2 PUSH1 0x60 ADD MLOAD PUSH4 0xFFFFFFFF AND GT PUSH2 0xB7E JUMPI PUSH1 0x40 MLOAD PUSH32 0x8C379A000000000000000000000000000000000000000000000000000000000 DUP2 MSTORE PUSH1 0x4 ADD PUSH2 0xB75 SWAP1 PUSH2 0x192F JUMP JUMPDEST PUSH1 0x40 MLOAD DUP1 SWAP2 SUB SWAP1 REVERT JUMPDEST PUSH1 0x1 PUSH1 0x0 DUP1 SLOAD DUP2 MSTORE PUSH1 0x20 ADD SWAP1 DUP2 MSTORE PUSH1 0x20 ADD PUSH1 0x0 KECCAK256 PUSH1 0x0 DUP1 DUP3 ADD PUSH1 0x0 PUSH2 0x100 EXP DUP2 SLOAD SWAP1 PUSH20 0xFFFFFFFFFFFFFFFFFFFFFFFFFFFFFFFFFFFFFFFF MUL NOT AND SWAP1 SSTORE PUSH1 0x1 DUP3 ADD PUSH1 0x0 SWAP1 SSTORE PUSH1 0x2 DUP3 ADD PUSH1 0x0 SWAP1 SSTORE PUSH1 0x3 DUP3 ADD PUSH1 0x0 PUSH2 0x100 EXP DUP2 SLOAD SWAP1 PUSH4 0xFFFFFFFF MUL NOT AND SWAP1 SSTORE PUSH1 0x3 DUP3 ADD PUSH1 0x4 PUSH2 0x100 EXP DUP2 SLOAD SWAP1 PUSH4 0xFFFFFFFF MUL NOT AND SWAP1 SSTORE PUSH1 0x3 DUP3 ADD PUSH1 0x8 PUSH2 0x100 EXP DUP2 SLOAD SWAP1 PUSH1 0xFF MUL NOT AND SWAP1 SSTORE POP POP PUSH32 0xB232B8003F267BE13DFA13A4524C91D4040F5786EAA74F083D2850D1FC220582 PUSH1 0x0 SLOAD PUSH1 0x40 MLOAD PUSH2 0xC3F SWAP2 SWAP1 PUSH2 0x1348 JUMP JUMPDEST PUSH1 0x40 MLOAD DUP1 SWAP2 SUB SWAP1 LOG1 POP POP JUMP JUMPDEST PUSH1 0x0 PUSH1 0x1 PUSH1 0x0 DUP5 DUP2 MSTORE PUSH1 0x20 ADD SWAP1 DUP2 MSTORE PUSH1 0x20 ADD PUSH1 0x0 KECCAK256 SWAP1 POP DUP1 PUSH1 0x3 ADD PUSH1 0x4 SWAP1 SLOAD SWAP1 PUSH2 0x100 EXP SWAP1 DIV PUSH4 0xFFFFFFFF AND PUSH4 0xFFFFFFFF AND TIMESTAMP LT PUSH2 0xCBE JUMPI PUSH1 0x40 MLOAD PUSH32 0x8C379A000000000000000000000000000000000000000000000000000000000 DUP2 MSTORE PUSH1 0x4 ADD PUSH2 0xCB5 SWAP1 PUSH2 0x199B JUMP JUMPDEST PUSH1 0x40 MLOAD DUP1 SWAP2 SUB SWAP1 REVERT JUMPDEST DUP2 DUP2 PUSH1 0x2 ADD PUSH1 0x0 DUP3 DUP3 SLOAD PUSH2 0xCD2 SWAP2 SWAP1 PUSH2 0x14F5 JUMP JUMPDEST SWAP3 POP POP DUP2 SWAP1 SSTORE POP DUP2 PUSH1 0x2 PUSH1 0x0 DUP6 DUP2 MSTORE PUSH1 0x20 ADD SWAP1 DUP2 MSTORE PUSH1 0x20 ADD PUSH1 0x0 KECCAK256 PUSH1 0x0 CALLER PUSH20 0xFFFFFFFFFFFFFFFFFFFFFFFFFFFFFFFFFFFFFFFF AND PUSH20 0xFFFFFFFFFFFFFFFFFFFFFFFFFFFFFFFFFFFFFFFF AND DUP2 MSTORE PUSH1 0x20 ADD SWAP1 DUP2 MSTORE PUSH1 0x20 ADD PUSH1 0x0 KECCAK256 PUSH1 0x0 DUP3 DUP3 SLOAD PUSH2 0xD39 SWAP2 SWAP1 PUSH2 0x14F5 JUMP JUMPDEST SWAP3 POP POP DUP2 SWAP1 SSTORE POP PUSH32 0x0 PUSH20 0xFFFFFFFFFFFFFFFFFFFFFFFFFFFFFFFFFFFFFFFF AND PUSH4 0xA9059CBB CALLER DUP5 PUSH1 0x40 MLOAD DUP4 PUSH4 0xFFFFFFFF AND PUSH1 0xE0 SHL DUP2 MSTORE PUSH1 0x4 ADD PUSH2 0xD9B SWAP3 SWAP2 SWAP1 PUSH2 0x1529 JUMP JUMPDEST PUSH1 0x20 PUSH1 0x40 MLOAD DUP1 DUP4 SUB DUP2 PUSH1 0x0 DUP8 GAS CALL ISZERO DUP1 ISZERO PUSH2 0xDBA JUMPI RETURNDATASIZE PUSH1 0x0 DUP1 RETURNDATACOPY RETURNDATASIZE PUSH1 0x0 REVERT JUMPDEST POP POP POP POP PUSH1 0x40 MLOAD RETURNDATASIZE PUSH1 0x1F NOT PUSH1 0x1F DUP3 ADD AND DUP3 ADD DUP1 PUSH1 0x40 MSTORE POP DUP2 ADD SWAP1 PUSH2 0xDDE SWAP2 SWAP1 PUSH2 0x157E JUMP JUMPDEST POP CALLER PUSH20 0xFFFFFFFFFFFFFFFFFFFFFFFFFFFFFFFFFFFFFFFF AND DUP4 PUSH32 0x2EEEAB891B26A214D1B25749F88A406BDEA852BD8C9BFDA977E0EF8114C180BA DUP5 PUSH1 0x40 MLOAD PUSH2 0xE26 SWAP2 SWAP1 PUSH2 0x1348 JUMP JUMPDEST PUSH1 0x40 MLOAD DUP1 SWAP2 SUB SWAP1 LOG3 POP POP POP JUMP JUMPDEST PUSH1 0x2 PUSH1 0x20 MSTORE DUP2 PUSH1 0x0 MSTORE PUSH1 0x40 PUSH1 0x0 KECCAK256 PUSH1 0x20 MSTORE DUP1 PUSH1 0x0 MSTORE PUSH1 0x40 PUSH1 0x0 KECCAK256 PUSH1 0x0 SWAP2 POP SWAP2 POP POP SLOAD DUP2 JUMP JUMPDEST PUSH1 0x0 SLOAD DUP2 JUMP JUMPDEST PUSH32 0x0 DUP2 JUMP JUMPDEST PUSH1 0x0 PUSH1 0x1 PUSH1 0x0 DUP5 DUP2 MSTORE PUSH1 0x20 ADD SWAP1 DUP2 MSTORE PUSH1 0x20 ADD PUSH1 0x0 KECCAK256 SWAP1 POP DUP1 PUSH1 0x3 ADD PUSH1 0x0 SWAP1 SLOAD SWAP1 PUSH2 0x100 EXP SWAP1 DIV PUSH4 0xFFFFFFFF AND PUSH4 0xFFFFFFFF AND TIMESTAMP LT ISZERO PUSH2 0xEF6 JUMPI PUSH1 0x40 MLOAD PUSH32 0x8C379A000000000000000000000000000000000000000000000000000000000 DUP2 MSTORE PUSH1 0x4 ADD PUSH2 0xEED SWAP1 PUSH2 0x1A07 JUMP JUMPDEST PUSH1 0x40 MLOAD DUP1 SWAP2 SUB SWAP1 REVERT JUMPDEST DUP1 PUSH1 0x3 ADD PUSH1 0x4 SWAP1 SLOAD SWAP1 PUSH2 0x100 EXP SWAP1 DIV PUSH4 0xFFFFFFFF AND PUSH4 0xFFFFFFFF AND TIMESTAMP GT ISZERO PUSH2 0xF53 JUMPI PUSH1 0x40 MLOAD PUSH32 0x8C379A000000000000000000000000000000000000000000000000000000000 DUP2 MSTORE PUSH1 0x4 ADD PUSH2 0xF4A SWAP1 PUSH2 0x199B JUMP JUMPDEST PUSH1 0x40 MLOAD DUP1 SWAP2 SUB SWAP1 REVERT JUMPDEST DUP2 DUP2 PUSH1 0x2 ADD PUSH1 0x0 DUP3 DUP3 SLOAD PUSH2 0xF67 SWAP2 SWAP1 PUSH2 0x1683 JUMP JUMPDEST SWAP3 POP POP DUP2 SWAP1 SSTORE POP DUP2 PUSH1 0x2 PUSH1 0x0 DUP6 DUP2 MSTORE PUSH1 0x20 ADD SWAP1 DUP2 MSTORE PUSH1 0x20 ADD PUSH1 0x0 KECCAK256 PUSH1 0x0 CALLER PUSH20 0xFFFFFFFFFFFFFFFFFFFFFFFFFFFFFFFFFFFFFFFF AND PUSH20 0xFFFFFFFFFFFFFFFFFFFFFFFFFFFFFFFFFFFFFFFF AND DUP2 MSTORE PUSH1 0x20 ADD SWAP1 DUP2 MSTORE PUSH1 0x20 ADD PUSH1 0x0 KECCAK256 PUSH1 0x0 DUP3 DUP3 SLOAD PUSH2 0xFCE SWAP2 SWAP1 PUSH2 0x1683 JUMP JUMPDEST SWAP3 POP POP DUP2 SWAP1 SSTORE POP PUSH32 0x0 PUSH20 0xFFFFFFFFFFFFFFFFFFFFFFFFFFFFFFFFFFFFFFFF AND PUSH4 0x23B872DD CALLER ADDRESS DUP6 PUSH1 0x40 MLOAD DUP5 PUSH4 0xFFFFFFFF AND PUSH1 0xE0 SHL DUP2 MSTORE PUSH1 0x4 ADD PUSH2 0x1032 SWAP4 SWAP3 SWAP2 SWAP1 PUSH2 0x1840 JUMP JUMPDEST PUSH1 0x20 PUSH1 0x40 MLOAD DUP1 DUP4 SUB DUP2 PUSH1 0x0 DUP8 GAS CALL ISZERO DUP1 ISZERO PUSH2 0x1051 JUMPI RETURNDATASIZE PUSH1 0x0 DUP1 RETURNDATACOPY RETURNDATASIZE PUSH1 0x0 REVERT JUMPDEST POP POP POP POP PUSH1 0x40 MLOAD RETURNDATASIZE PUSH1 0x1F NOT PUSH1 0x1F DUP3 ADD AND DUP3 ADD DUP1 PUSH1 0x40 MSTORE POP DUP2 ADD SWAP1 PUSH2 0x1075 SWAP2 SWAP1 PUSH2 0x157E JUMP JUMPDEST POP CALLER PUSH20 0xFFFFFFFFFFFFFFFFFFFFFFFFFFFFFFFFFFFFFFFF AND DUP4 PUSH32 0x6BDB975DF800A73232998E71ED585D536222F1DFEAA622D7F62A23ADA686C82 DUP5 PUSH1 0x40 MLOAD PUSH2 0x10BD SWAP2 SWAP1 PUSH2 0x1348 JUMP JUMPDEST PUSH1 0x40 MLOAD DUP1 SWAP2 SUB SWAP1 LOG3 POP POP POP JUMP JUMPDEST PUSH1 0x0 DUP1 REVERT JUMPDEST PUSH1 0x0 DUP2 SWAP1 POP SWAP2 SWAP1 POP JUMP JUMPDEST PUSH2 0x10E2 DUP2 PUSH2 0x10CF JUMP JUMPDEST DUP2 EQ PUSH2 0x10ED JUMPI PUSH1 0x0 DUP1 REVERT JUMPDEST POP JUMP JUMPDEST PUSH1 0x0 DUP2 CALLDATALOAD SWAP1 POP PUSH2 0x10FF DUP2 PUSH2 0x10D9 JUMP JUMPDEST SWAP3 SWAP2 POP POP JUMP JUMPDEST PUSH1 0x0 PUSH1 0x20 DUP3 DUP5 SUB SLT ISZERO PUSH2 0x111B JUMPI PUSH2 0x111A PUSH2 0x10CA JUMP JUMPDEST JUMPDEST PUSH1 0x0 PUSH2 0x1129 DUP5 DUP3 DUP6 ADD PUSH2 0x10F0 JUMP JUMPDEST SWAP2 POP POP SWAP3 SWAP2 POP POP JUMP JUMPDEST PUSH1 0x0 PUSH20 0xFFFFFFFFFFFFFFFFFFFFFFFFFFFFFFFFFFFFFFFF DUP3 AND SWAP1 POP SWAP2 SWAP1 POP JUMP JUMPDEST PUSH1 0x0 PUSH2 0x115D DUP3 PUSH2 0x1132 JUMP JUMPDEST SWAP1 POP SWAP2 SWAP1 POP JUMP JUMPDEST PUSH2 0x116D DUP2 PUSH2 0x1152 JUMP JUMPDEST DUP3 MSTORE POP POP JUMP JUMPDEST PUSH2 0x117C DUP2 PUSH2 0x10CF JUMP JUMPDEST DUP3 MSTORE POP POP JUMP JUMPDEST PUSH1 0x0 PUSH4 0xFFFFFFFF DUP3 AND SWAP1 POP SWAP2 SWAP1 POP JUMP JUMPDEST PUSH2 0x119B DUP2 PUSH2 0x1182 JUMP JUMPDEST DUP3 MSTORE POP POP JUMP JUMPDEST PUSH1 0x0 DUP2 ISZERO ISZERO SWAP1 POP SWAP2 SWAP1 POP JUMP JUMPDEST PUSH2 0x11B6 DUP2 PUSH2 0x11A1 JUMP JUMPDEST DUP3 MSTORE POP POP JUMP JUMPDEST PUSH1 0x0 PUSH1 0xC0 DUP3 ADD SWAP1 POP PUSH2 0x11D1 PUSH1 0x0 DUP4 ADD DUP10 PUSH2 0x1164 JUMP JUMPDEST PUSH2 0x11DE PUSH1 0x20 DUP4 ADD DUP9 PUSH2 0x1173 JUMP JUMPDEST PUSH2 0x11EB PUSH1 0x40 DUP4 ADD DUP8 PUSH2 0x1173 JUMP JUMPDEST PUSH2 0x11F8 PUSH1 0x60 DUP4 ADD DUP7 PUSH2 0x1192 JUMP JUMPDEST PUSH2 0x1205 PUSH1 0x80 DUP4 ADD DUP6 PUSH2 0x1192 JUMP JUMPDEST PUSH2 0x1212 PUSH1 0xA0 DUP4 ADD DUP5 PUSH2 0x11AD JUMP JUMPDEST SWAP8 SWAP7 POP POP POP POP POP POP POP JUMP JUMPDEST PUSH2 0x1226 DUP2 PUSH2 0x1182 JUMP JUMPDEST DUP2 EQ PUSH2 0x1231 JUMPI PUSH1 0x0 DUP1 REVERT JUMPDEST POP JUMP JUMPDEST PUSH1 0x0 DUP2 CALLDATALOAD SWAP1 POP PUSH2 0x1243 DUP2 PUSH2 0x121D JUMP JUMPDEST SWAP3 SWAP2 POP POP JUMP JUMPDEST PUSH1 0x0 DUP1 PUSH1 0x0 PUSH1 0x60 DUP5 DUP7 SUB SLT ISZERO PUSH2 0x1262 JUMPI PUSH2 0x1261 PUSH2 0x10CA JUMP JUMPDEST JUMPDEST PUSH1 0x0 PUSH2 0x1270 DUP7 DUP3 DUP8 ADD PUSH2 0x10F0 JUMP JUMPDEST SWAP4 POP POP PUSH1 0x20 PUSH2 0x1281 DUP7 DUP3 DUP8 ADD PUSH2 0x1234 JUMP JUMPDEST SWAP3 POP POP PUSH1 0x40 PUSH2 0x1292 DUP7 DUP3 DUP8 ADD PUSH2 0x1234 JUMP JUMPDEST SWAP2 POP POP SWAP3 POP SWAP3 POP SWAP3 JUMP JUMPDEST PUSH1 0x0 DUP1 PUSH1 0x40 DUP4 DUP6 SUB SLT ISZERO PUSH2 0x12B3 JUMPI PUSH2 0x12B2 PUSH2 0x10CA JUMP JUMPDEST JUMPDEST PUSH1 0x0 PUSH2 0x12C1 DUP6 DUP3 DUP7 ADD PUSH2 0x10F0 JUMP JUMPDEST SWAP3 POP POP PUSH1 0x20 PUSH2 0x12D2 DUP6 DUP3 DUP7 ADD PUSH2 0x10F0 JUMP JUMPDEST SWAP2 POP POP SWAP3 POP SWAP3 SWAP1 POP JUMP JUMPDEST PUSH2 0x12E5 DUP2 PUSH2 0x1152 JUMP JUMPDEST DUP2 EQ PUSH2 0x12F0 JUMPI PUSH1 0x0 DUP1 REVERT JUMPDEST POP JUMP JUMPDEST PUSH1 0x0 DUP2 CALLDATALOAD SWAP1 POP PUSH2 0x1302 DUP2 PUSH2 0x12DC JUMP JUMPDEST SWAP3 SWAP2 POP POP JUMP JUMPDEST PUSH1 0x0 DUP1 PUSH1 0x40 DUP4 DUP6 SUB SLT ISZERO PUSH2 0x131F JUMPI PUSH2 0x131E PUSH2 0x10CA JUMP JUMPDEST JUMPDEST PUSH1 0x0 PUSH2 0x132D DUP6 DUP3 DUP7 ADD PUSH2 0x10F0 JUMP JUMPDEST SWAP3 POP POP PUSH1 0x20 PUSH2 0x133E DUP6 DUP3 DUP7 ADD PUSH2 0x12F3 JUMP JUMPDEST SWAP2 POP POP SWAP3 POP SWAP3 SWAP1 POP JUMP JUMPDEST PUSH1 0x0 PUSH1 0x20 DUP3 ADD SWAP1 POP PUSH2 0x135D PUSH1 0x0 DUP4 ADD DUP5 PUSH2 0x1173 JUMP JUMPDEST SWAP3 SWAP2 POP POP JUMP JUMPDEST PUSH1 0x0 DUP2 SWAP1 POP SWAP2 SWAP1 POP JUMP JUMPDEST PUSH1 0x0 PUSH2 0x1388 PUSH2 0x1383 PUSH2 0x137E DUP5 PUSH2 0x1132 JUMP JUMPDEST PUSH2 0x1363 JUMP JUMPDEST PUSH2 0x1132 JUMP JUMPDEST SWAP1 POP SWAP2 SWAP1 POP JUMP JUMPDEST PUSH1 0x0 PUSH2 0x139A DUP3 PUSH2 0x136D JUMP JUMPDEST SWAP1 POP SWAP2 SWAP1 POP JUMP JUMPDEST PUSH1 0x0 PUSH2 0x13AC DUP3 PUSH2 0x138F JUMP JUMPDEST SWAP1 POP SWAP2 SWAP1 POP JUMP JUMPDEST PUSH2 0x13BC DUP2 PUSH2 0x13A1 JUMP JUMPDEST DUP3 MSTORE POP POP JUMP JUMPDEST PUSH1 0x0 PUSH1 0x20 DUP3 ADD SWAP1 POP PUSH2 0x13D7 PUSH1 0x0 DUP4 ADD DUP5 PUSH2 0x13B3 JUMP JUMPDEST SWAP3 SWAP2 POP POP JUMP JUMPDEST PUSH1 0x0 DUP3 DUP3 MSTORE PUSH1 0x20 DUP3 ADD SWAP1 POP SWAP3 SWAP2 POP POP JUMP JUMPDEST PUSH32 0x6E6F7420656E6465640000000000000000000000000000000000000000000000 PUSH1 0x0 DUP3 ADD MSTORE POP JUMP JUMPDEST PUSH1 0x0 PUSH2 0x1424 PUSH1 0x9 DUP4 PUSH2 0x13DD JUMP JUMPDEST SWAP2 POP PUSH2 0x142F DUP3 PUSH2 0x13EE JUMP JUMPDEST PUSH1 0x20 DUP3 ADD SWAP1 POP SWAP2 SWAP1 POP JUMP JUMPDEST PUSH1 0x0 PUSH1 0x20 DUP3 ADD SWAP1 POP DUP2 DUP2 SUB PUSH1 0x0 DUP4 ADD MSTORE PUSH2 0x1453 DUP2 PUSH2 0x1417 JUMP JUMPDEST SWAP1 POP SWAP2 SWAP1 POP JUMP JUMPDEST PUSH32 0x63726F7764206661696C65640000000000000000000000000000000000000000 PUSH1 0x0 DUP3 ADD MSTORE POP JUMP JUMPDEST PUSH1 0x0 PUSH2 0x1490 PUSH1 0xC DUP4 PUSH2 0x13DD JUMP JUMPDEST SWAP2 POP PUSH2 0x149B DUP3 PUSH2 0x145A JUMP JUMPDEST PUSH1 0x20 DUP3 ADD SWAP1 POP SWAP2 SWAP1 POP JUMP JUMPDEST PUSH1 0x0 PUSH1 0x20 DUP3 ADD SWAP1 POP DUP2 DUP2 SUB PUSH1 0x0 DUP4 ADD MSTORE PUSH2 0x14BF DUP2 PUSH2 0x1483 JUMP JUMPDEST SWAP1 POP SWAP2 SWAP1 POP JUMP JUMPDEST PUSH32 0x4E487B7100000000000000000000000000000000000000000000000000000000 PUSH1 0x0 MSTORE PUSH1 0x11 PUSH1 0x4 MSTORE PUSH1 0x24 PUSH1 0x0 REVERT JUMPDEST PUSH1 0x0 PUSH2 0x1500 DUP3 PUSH2 0x10CF JUMP JUMPDEST SWAP2 POP PUSH2 0x150B DUP4 PUSH2 0x10CF JUMP JUMPDEST SWAP3 POP DUP3 DUP3 SUB SWAP1 POP DUP2 DUP2 GT ISZERO PUSH2 0x1523 JUMPI PUSH2 0x1522 PUSH2 0x14C6 JUMP JUMPDEST JUMPDEST SWAP3 SWAP2 POP POP JUMP JUMPDEST PUSH1 0x0 PUSH1 0x40 DUP3 ADD SWAP1 POP PUSH2 0x153E PUSH1 0x0 DUP4 ADD DUP6 PUSH2 0x1164 JUMP JUMPDEST PUSH2 0x154B PUSH1 0x20 DUP4 ADD DUP5 PUSH2 0x1173 JUMP JUMPDEST SWAP4 SWAP3 POP POP POP JUMP JUMPDEST PUSH2 0x155B DUP2 PUSH2 0x11A1 JUMP JUMPDEST DUP2 EQ PUSH2 0x1566 JUMPI PUSH1 0x0 DUP1 REVERT JUMPDEST POP JUMP JUMPDEST PUSH1 0x0 DUP2 MLOAD SWAP1 POP PUSH2 0x1578 DUP2 PUSH2 0x1552 JUMP JUMPDEST SWAP3 SWAP2 POP POP JUMP JUMPDEST PUSH1 0x0 PUSH1 0x20 DUP3 DUP5 SUB SLT ISZERO PUSH2 0x1594 JUMPI PUSH2 0x1593 PUSH2 0x10CA JUMP JUMPDEST JUMPDEST PUSH1 0x0 PUSH2 0x15A2 DUP5 DUP3 DUP6 ADD PUSH2 0x1569 JUMP JUMPDEST SWAP2 POP POP SWAP3 SWAP2 POP POP JUMP JUMPDEST PUSH32 0x7374617274206174203C206E6F77000000000000000000000000000000000000 PUSH1 0x0 DUP3 ADD MSTORE POP JUMP JUMPDEST PUSH1 0x0 PUSH2 0x15E1 PUSH1 0xE DUP4 PUSH2 0x13DD JUMP JUMPDEST SWAP2 POP PUSH2 0x15EC DUP3 PUSH2 0x15AB JUMP JUMPDEST PUSH1 0x20 DUP3 ADD SWAP1 POP SWAP2 SWAP1 POP JUMP JUMPDEST PUSH1 0x0 PUSH1 0x20 DUP3 ADD SWAP1 POP DUP2 DUP2 SUB PUSH1 0x0 DUP4 ADD MSTORE PUSH2 0x1610 DUP2 PUSH2 0x15D4 JUMP JUMPDEST SWAP1 POP SWAP2 SWAP1 POP JUMP JUMPDEST PUSH32 0x656E64206174203C207374617274206174000000000000000000000000000000 PUSH1 0x0 DUP3 ADD MSTORE POP JUMP JUMPDEST PUSH1 0x0 PUSH2 0x164D PUSH1 0x11 DUP4 PUSH2 0x13DD JUMP JUMPDEST SWAP2 POP PUSH2 0x1658 DUP3 PUSH2 0x1617 JUMP JUMPDEST PUSH1 0x20 DUP3 ADD SWAP1 POP SWAP2 SWAP1 POP JUMP JUMPDEST PUSH1 0x0 PUSH1 0x20 DUP3 ADD SWAP1 POP DUP2 DUP2 SUB PUSH1 0x0 DUP4 ADD MSTORE PUSH2 0x167C DUP2 PUSH2 0x1640 JUMP JUMPDEST SWAP1 POP SWAP2 SWAP1 POP JUMP JUMPDEST PUSH1 0x0 PUSH2 0x168E DUP3 PUSH2 0x10CF JUMP JUMPDEST SWAP2 POP PUSH2 0x1699 DUP4 PUSH2 0x10CF JUMP JUMPDEST SWAP3 POP DUP3 DUP3 ADD SWAP1 POP DUP1 DUP3 GT ISZERO PUSH2 0x16B1 JUMPI PUSH2 0x16B0 PUSH2 0x14C6 JUMP JUMPDEST JUMPDEST SWAP3 SWAP2 POP POP JUMP JUMPDEST PUSH32 0x656E64206174203E206D6178206475726174696F6E0000000000000000000000 PUSH1 0x0 DUP3 ADD MSTORE POP JUMP JUMPDEST PUSH1 0x0 PUSH2 0x16ED PUSH1 0x15 DUP4 PUSH2 0x13DD JUMP JUMPDEST SWAP2 POP PUSH2 0x16F8 DUP3 PUSH2 0x16B7 JUMP JUMPDEST PUSH1 0x20 DUP3 ADD SWAP1 POP SWAP2 SWAP1 POP JUMP JUMPDEST PUSH1 0x0 PUSH1 0x20 DUP3 ADD SWAP1 POP DUP2 DUP2 SUB PUSH1 0x0 DUP4 ADD MSTORE PUSH2 0x171C DUP2 PUSH2 0x16E0 JUMP JUMPDEST SWAP1 POP SWAP2 SWAP1 POP JUMP JUMPDEST PUSH1 0x0 PUSH1 0x80 DUP3 ADD SWAP1 POP PUSH2 0x1738 PUSH1 0x0 DUP4 ADD DUP8 PUSH2 0x1173 JUMP JUMPDEST PUSH2 0x1745 PUSH1 0x20 DUP4 ADD DUP7 PUSH2 0x1173 JUMP JUMPDEST PUSH2 0x1752 PUSH1 0x40 DUP4 ADD DUP6 PUSH2 0x1192 JUMP JUMPDEST PUSH2 0x175F PUSH1 0x60 DUP4 ADD DUP5 PUSH2 0x1192 JUMP JUMPDEST SWAP6 SWAP5 POP POP POP POP POP JUMP JUMPDEST PUSH32 0x6E6F74206372656174726F000000000000000000000000000000000000000000 PUSH1 0x0 DUP3 ADD MSTORE POP JUMP JUMPDEST PUSH1 0x0 PUSH2 0x179E PUSH1 0xB DUP4 PUSH2 0x13DD JUMP JUMPDEST SWAP2 POP PUSH2 0x17A9 DUP3 PUSH2 0x1768 JUMP JUMPDEST PUSH1 0x20 DUP3 ADD SWAP1 POP SWAP2 SWAP1 POP JUMP JUMPDEST PUSH1 0x0 PUSH1 0x20 DUP3 ADD SWAP1 POP DUP2 DUP2 SUB PUSH1 0x0 DUP4 ADD MSTORE PUSH2 0x17CD DUP2 PUSH2 0x1791 JUMP JUMPDEST SWAP1 POP SWAP2 SWAP1 POP JUMP JUMPDEST PUSH32 0x706C6564676564203C20676F616C000000000000000000000000000000000000 PUSH1 0x0 DUP3 ADD MSTORE POP JUMP JUMPDEST PUSH1 0x0 PUSH2 0x180A PUSH1 0xE DUP4 PUSH2 0x13DD JUMP JUMPDEST SWAP2 POP PUSH2 0x1815 DUP3 PUSH2 0x17D4 JUMP JUMPDEST PUSH1 0x20 DUP3 ADD SWAP1 POP SWAP2 SWAP1 POP JUMP JUMPDEST PUSH1 0x0 PUSH1 0x20 DUP3 ADD SWAP1 POP DUP2 DUP2 SUB PUSH1 0x0 DUP4 ADD MSTORE PUSH2 0x1839 DUP2 PUSH2 0x17FD JUMP JUMPDEST SWAP1 POP SWAP2 SWAP1 POP JUMP JUMPDEST PUSH1 0x0 PUSH1 0x60 DUP3 ADD SWAP1 POP PUSH2 0x1855 PUSH1 0x0 DUP4 ADD DUP7 PUSH2 0x1164 JUMP JUMPDEST PUSH2 0x1862 PUSH1 0x20 DUP4 ADD DUP6 PUSH2 0x1164 JUMP JUMPDEST PUSH2 0x186F PUSH1 0x40 DUP4 ADD DUP5 PUSH2 0x1173 JUMP JUMPDEST SWAP5 SWAP4 POP POP POP POP JUMP JUMPDEST PUSH32 0x6E6F742063726561746F722C206E6F207065726D697400000000000000000000 PUSH1 0x0 DUP3 ADD MSTORE POP JUMP JUMPDEST PUSH1 0x0 PUSH2 0x18AD PUSH1 0x16 DUP4 PUSH2 0x13DD JUMP JUMPDEST SWAP2 POP PUSH2 0x18B8 DUP3 PUSH2 0x1877 JUMP JUMPDEST PUSH1 0x20 DUP3 ADD SWAP1 POP SWAP2 SWAP1 POP JUMP JUMPDEST PUSH1 0x0 PUSH1 0x20 DUP3 ADD SWAP1 POP DUP2 DUP2 SUB PUSH1 0x0 DUP4 ADD MSTORE PUSH2 0x18DC DUP2 PUSH2 0x18A0 JUMP JUMPDEST SWAP1 POP SWAP2 SWAP1 POP JUMP JUMPDEST PUSH32 0x63726F776446756E642061726561647920737461727400000000000000000000 PUSH1 0x0 DUP3 ADD MSTORE POP JUMP JUMPDEST PUSH1 0x0 PUSH2 0x1919 PUSH1 0x16 DUP4 PUSH2 0x13DD JUMP JUMPDEST SWAP2 POP PUSH2 0x1924 DUP3 PUSH2 0x18E3 JUMP JUMPDEST PUSH1 0x20 DUP3 ADD SWAP1 POP SWAP2 SWAP1 POP JUMP JUMPDEST PUSH1 0x0 PUSH1 0x20 DUP3 ADD SWAP1 POP DUP2 DUP2 SUB PUSH1 0x0 DUP4 ADD MSTORE PUSH2 0x1948 DUP2 PUSH2 0x190C JUMP JUMPDEST SWAP1 POP SWAP2 SWAP1 POP JUMP JUMPDEST PUSH32 0x656E646564000000000000000000000000000000000000000000000000000000 PUSH1 0x0 DUP3 ADD MSTORE POP JUMP JUMPDEST PUSH1 0x0 PUSH2 0x1985 PUSH1 0x5 DUP4 PUSH2 0x13DD JUMP JUMPDEST SWAP2 POP PUSH2 0x1990 DUP3 PUSH2 0x194F JUMP JUMPDEST PUSH1 0x20 DUP3 ADD SWAP1 POP SWAP2 SWAP1 POP JUMP JUMPDEST PUSH1 0x0 PUSH1 0x20 DUP3 ADD SWAP1 POP DUP2 DUP2 SUB PUSH1 0x0 DUP4 ADD MSTORE PUSH2 0x19B4 DUP2 PUSH2 0x1978 JUMP JUMPDEST SWAP1 POP SWAP2 SWAP1 POP JUMP JUMPDEST PUSH32 0x6E6F742073746172740000000000000000000000000000000000000000000000 PUSH1 0x0 DUP3 ADD MSTORE POP JUMP JUMPDEST PUSH1 0x0 PUSH2 0x19F1 PUSH1 0x9 DUP4 PUSH2 0x13DD JUMP JUMPDEST SWAP2 POP PUSH2 0x19FC DUP3 PUSH2 0x19BB JUMP JUMPDEST PUSH1 0x20 DUP3 ADD SWAP1 POP SWAP2 SWAP1 POP JUMP JUMPDEST PUSH1 0x0 PUSH1 0x20 DUP3 ADD SWAP1 POP DUP2 DUP2 SUB PUSH1 0x0 DUP4 ADD MSTORE PUSH2 0x1A20 DUP2 PUSH2 0x19E4 JUMP JUMPDEST SWAP1 POP SWAP2 SWAP1 POP JUMP INVALID LOG2 PUSH5 0x6970667358 0x22 SLT KECCAK256 0x2B 0x21 0xD7 0x2C 0x2B 0xA7 0xC7 PUSH22 0x72D59A9D52B6AA9392677D62C9710836397DE0162DAF 0xC3 0xEA PUSH5 0x736F6C6343 STOP ADDMOD SLT STOP CALLER "
				},
				"gasEstimates": {
					"creation": {
						"codeDepositCost": "1349800",
						"executionCost": "infinite",
						"totalCost": "infinite"
					},
					"external": {
						"campaignId()": "2473",
						"campaigns(uint256)": "infinite",
						"cancel(uint256)": "infinite",
						"claim(uint256)": "infinite",
						"launch(uint256,uint32,uint32)": "infinite",
						"pledge(uint256,uint256)": "infinite",
						"pledgeAmount(uint256,address)": "infinite",
						"refund(uint256)": "infinite",
						"token()": "infinite",
						"unpledge(uint256,uint256)": "infinite"
					}
				},
				"methodIdentifiers": {
					"campaignId()": "8ed5b0fc",
					"campaigns(uint256)": "141961bc",
					"cancel(uint256)": "40e58ee5",
					"claim(uint256)": "379607f5",
					"launch(uint256,uint32,uint32)": "2c63f146",
					"pledge(uint256,uint256)": "fde327be",
					"pledgeAmount(uint256,address)": "8743ae89",
					"refund(uint256)": "278ecde1",
					"token()": "fc0c546a",
					"unpledge(uint256,uint256)": "711853ab"
				}
			},
			"storageLayout": {
				"storage": [
					{
						"astId": 64,
						"contract": "cuimianMaster/CrowdFund.sol:CrowdFund",
						"label": "campaignId",
						"offset": 0,
						"slot": "0",
						"type": "t_uint256"
					},
					{
						"astId": 69,
						"contract": "cuimianMaster/CrowdFund.sol:CrowdFund",
						"label": "campaigns",
						"offset": 0,
						"slot": "1",
						"type": "t_mapping(t_uint256,t_struct(Campaign)59_storage)"
					},
					{
						"astId": 75,
						"contract": "cuimianMaster/CrowdFund.sol:CrowdFund",
						"label": "pledgeAmount",
						"offset": 0,
						"slot": "2",
						"type": "t_mapping(t_uint256,t_mapping(t_address,t_uint256))"
					}
				],
				"types": {
					"t_address": {
						"encoding": "inplace",
						"label": "address",
						"numberOfBytes": "20"
					},
					"t_bool": {
						"encoding": "inplace",
						"label": "bool",
						"numberOfBytes": "1"
					},
					"t_mapping(t_address,t_uint256)": {
						"encoding": "mapping",
						"key": "t_address",
						"label": "mapping(address => uint256)",
						"numberOfBytes": "32",
						"value": "t_uint256"
					},
					"t_mapping(t_uint256,t_mapping(t_address,t_uint256))": {
						"encoding": "mapping",
						"key": "t_uint256",
						"label": "mapping(uint256 => mapping(address => uint256))",
						"numberOfBytes": "32",
						"value": "t_mapping(t_address,t_uint256)"
					},
					"t_mapping(t_uint256,t_struct(Campaign)59_storage)": {
						"encoding": "mapping",
						"key": "t_uint256",
						"label": "mapping(uint256 => struct CrowdFund.Campaign)",
						"numberOfBytes": "32",
						"value": "t_struct(Campaign)59_storage"
					},
					"t_struct(Campaign)59_storage": {
						"encoding": "inplace",
						"label": "struct CrowdFund.Campaign",
						"members": [
							{
								"astId": 48,
								"contract": "cuimianMaster/CrowdFund.sol:CrowdFund",
								"label": "creator",
								"offset": 0,
								"slot": "0",
								"type": "t_address"
							},
							{
								"astId": 50,
								"contract": "cuimianMaster/CrowdFund.sol:CrowdFund",
								"label": "goal",
								"offset": 0,
								"slot": "1",
								"type": "t_uint256"
							},
							{
								"astId": 52,
								"contract": "cuimianMaster/CrowdFund.sol:CrowdFund",
								"label": "pledged",
								"offset": 0,
								"slot": "2",
								"type": "t_uint256"
							},
							{
								"astId": 54,
								"contract": "cuimianMaster/CrowdFund.sol:CrowdFund",
								"label": "startAt",
								"offset": 0,
								"slot": "3",
								"type": "t_uint32"
							},
							{
								"astId": 56,
								"contract": "cuimianMaster/CrowdFund.sol:CrowdFund",
								"label": "endAt",
								"offset": 4,
								"slot": "3",
								"type": "t_uint32"
							},
							{
								"astId": 58,
								"contract": "cuimianMaster/CrowdFund.sol:CrowdFund",
								"label": "claimed",
								"offset": 8,
								"slot": "3",
								"type": "t_bool"
							}
						],
						"numberOfBytes": "128"
					},
					"t_uint256": {
						"encoding": "inplace",
						"label": "uint256",
						"numberOfBytes": "32"
					},
					"t_uint32": {
						"encoding": "inplace",
						"label": "uint32",
						"numberOfBytes": "4"
					}
				}
			},
			"userdoc": {
				"kind": "user",
				"methods": {},
				"version": 1
			}
		}
	}
}