{
	"cuimianMaster/TestCall.sol": {
		"Call": {
			"abi": [
				{
					"inputs": [
						{
							"internalType": "address",
							"name": "_test",
							"type": "address"
						}
					],
					"name": "callDoesNotExist",
					"outputs": [],
					"stateMutability": "nonpayable",
					"type": "function"
				},
				{
					"inputs": [
						{
							"internalType": "address",
							"name": "_test",
							"type": "address"
						}
					],
					"name": "callFoo",
					"outputs": [],
					"stateMutability": "payable",
					"type": "function"
				},
				{
					"inputs": [],
					"name": "data",
					"outputs": [
						{
							"internalType": "bytes",
							"name": "",
							"type": "bytes"
						}
					],
					"stateMutability": "view",
					"type": "function"
				}
			],
			"devdoc": {
				"kind": "dev",
				"methods": {},
				"version": 1
			},
			"evm": {
				"assembly": "    /* \"cuimianMaster/TestCall.sol\":517:1633  contract Call {... */\n  mstore(0x40, 0x80)\n  callvalue\n  dup1\n  iszero\n  tag_1\n  jumpi\n  0x00\n  dup1\n  revert\ntag_1:\n  pop\n  dataSize(sub_0)\n  dup1\n  dataOffset(sub_0)\n  0x00\n  codecopy\n  0x00\n  return\nstop\n\nsub_0: assembly {\n        /* \"cuimianMaster/TestCall.sol\":517:1633  contract Call {... */\n      mstore(0x40, 0x80)\n      jumpi(tag_1, lt(calldatasize, 0x04))\n      shr(0xe0, calldataload(0x00))\n      dup1\n      0x73d4a13a\n      eq\n      tag_2\n      jumpi\n      dup1\n      0xb0feeff6\n      eq\n      tag_3\n      jumpi\n      dup1\n      0xedcbe76c\n      eq\n      tag_4\n      jumpi\n    tag_1:\n      0x00\n      dup1\n      revert\n        /* \"cuimianMaster/TestCall.sol\":538:555  bytes public data */\n    tag_2:\n      callvalue\n      dup1\n      iszero\n      tag_5\n      jumpi\n      0x00\n      dup1\n      revert\n    tag_5:\n      pop\n      tag_6\n      tag_7\n      jump\t// in\n    tag_6:\n      mload(0x40)\n      tag_8\n      swap2\n      swap1\n      tag_9\n      jump\t// in\n    tag_8:\n      mload(0x40)\n      dup1\n      swap2\n      sub\n      swap1\n      return\n        /* \"cuimianMaster/TestCall.sol\":1460:1626  function callDoesNotExist(address _test) public {... */\n    tag_3:\n      callvalue\n      dup1\n      iszero\n      tag_10\n      jumpi\n      0x00\n      dup1\n      revert\n    tag_10:\n      pop\n      tag_11\n      0x04\n      dup1\n      calldatasize\n      sub\n      dup2\n      add\n      swap1\n      tag_12\n      swap2\n      swap1\n      tag_13\n      jump\t// in\n    tag_12:\n      tag_14\n      jump\t// in\n    tag_11:\n      stop\n        /* \"cuimianMaster/TestCall.sol\":1138:1452  function callFoo(address _test) external payable {... */\n    tag_4:\n      tag_15\n      0x04\n      dup1\n      calldatasize\n      sub\n      dup2\n      add\n      swap1\n      tag_16\n      swap2\n      swap1\n      tag_13\n      jump\t// in\n    tag_16:\n      tag_17\n      jump\t// in\n    tag_15:\n      stop\n        /* \"cuimianMaster/TestCall.sol\":538:555  bytes public data */\n    tag_7:\n      0x00\n      dup1\n      sload\n      tag_18\n      swap1\n      tag_19\n      jump\t// in\n    tag_18:\n      dup1\n      0x1f\n      add\n      0x20\n      dup1\n      swap2\n      div\n      mul\n      0x20\n      add\n      mload(0x40)\n      swap1\n      dup2\n      add\n      0x40\n      mstore\n      dup1\n      swap3\n      swap2\n      swap1\n      dup2\n      dup2\n      mstore\n      0x20\n      add\n      dup3\n      dup1\n      sload\n      tag_20\n      swap1\n      tag_19\n      jump\t// in\n    tag_20:\n      dup1\n      iszero\n      tag_21\n      jumpi\n      dup1\n      0x1f\n      lt\n      tag_22\n      jumpi\n      0x0100\n      dup1\n      dup4\n      sload\n      div\n      mul\n      dup4\n      mstore\n      swap2\n      0x20\n      add\n      swap2\n      jump(tag_21)\n    tag_22:\n      dup3\n      add\n      swap2\n      swap1\n      0x00\n      mstore\n      keccak256(0x00, 0x20)\n      swap1\n    tag_23:\n      dup2\n      sload\n      dup2\n      mstore\n      swap1\n      0x01\n      add\n      swap1\n      0x20\n      add\n      dup1\n      dup4\n      gt\n      tag_23\n      jumpi\n      dup3\n      swap1\n      sub\n      0x1f\n      and\n      dup3\n      add\n      swap2\n    tag_21:\n      pop\n      pop\n      pop\n      pop\n      pop\n      dup2\n      jump\t// out\n        /* \"cuimianMaster/TestCall.sol\":1460:1626  function callDoesNotExist(address _test) public {... */\n    tag_14:\n        /* \"cuimianMaster/TestCall.sol\":1520:1532  bool success */\n      0x00\n        /* \"cuimianMaster/TestCall.sol\":1538:1543  _test */\n      dup2\n        /* \"cuimianMaster/TestCall.sol\":1538:1548  _test.call */\n      0xffffffffffffffffffffffffffffffffffffffff\n      and\n        /* \"cuimianMaster/TestCall.sol\":1549:1590  abi.encodeWithSignature(\"doesNotExist()\") */\n      add(0x24, mload(0x40))\n      mload(0x40)\n      0x20\n      dup2\n      dup4\n      sub\n      sub\n      dup2\n      mstore\n      swap1\n      0x40\n      mstore\n      and(not(0xffffffffffffffffffffffffffffffffffffffffffffffffffffffff), 0x1dcc85ae00000000000000000000000000000000000000000000000000000000)\n      0x20\n      dup3\n      add\n      dup1\n      mload\n      0xffffffffffffffffffffffffffffffffffffffffffffffffffffffff\n      dup4\n      dup2\n      dup4\n      and\n      or\n      dup4\n      mstore\n      pop\n      pop\n      pop\n      pop\n        /* \"cuimianMaster/TestCall.sol\":1538:1591  _test.call(abi.encodeWithSignature(\"doesNotExist()\")) */\n      mload(0x40)\n      tag_25\n      swap2\n      swap1\n      tag_26\n      jump\t// in\n    tag_25:\n      0x00\n      mload(0x40)\n      dup1\n      dup4\n      sub\n      dup2\n      0x00\n      dup7\n      gas\n      call\n      swap2\n      pop\n      pop\n      returndatasize\n      dup1\n      0x00\n      dup2\n      eq\n      tag_29\n      jumpi\n      mload(0x40)\n      swap2\n      pop\n      and(add(returndatasize, 0x3f), not(0x1f))\n      dup3\n      add\n      0x40\n      mstore\n      returndatasize\n      dup3\n      mstore\n      returndatasize\n      0x00\n      0x20\n      dup5\n      add\n      returndatacopy\n      jump(tag_28)\n    tag_29:\n      0x60\n      swap2\n      pop\n    tag_28:\n      pop\n        /* \"cuimianMaster/TestCall.sol\":1519:1591  (bool success, ) = _test.call(abi.encodeWithSignature(\"doesNotExist()\")) */\n      pop\n      swap1\n      pop\n        /* \"cuimianMaster/TestCall.sol\":1610:1617  success */\n      dup1\n        /* \"cuimianMaster/TestCall.sol\":1602:1618  require(success) */\n      tag_30\n      jumpi\n      0x00\n      dup1\n      revert\n    tag_30:\n        /* \"cuimianMaster/TestCall.sol\":1508:1626  {... */\n      pop\n        /* \"cuimianMaster/TestCall.sol\":1460:1626  function callDoesNotExist(address _test) public {... */\n      pop\n      jump\t// out\n        /* \"cuimianMaster/TestCall.sol\":1138:1452  function callFoo(address _test) external payable {... */\n    tag_17:\n        /* \"cuimianMaster/TestCall.sol\":1199:1211  bool success */\n      0x00\n        /* \"cuimianMaster/TestCall.sol\":1213:1231  bytes memory _data */\n      dup1\n        /* \"cuimianMaster/TestCall.sol\":1235:1240  _test */\n      dup3\n        /* \"cuimianMaster/TestCall.sol\":1235:1245  _test.call */\n      0xffffffffffffffffffffffffffffffffffffffff\n      and\n        /* \"cuimianMaster/TestCall.sol\":1252:1253  1 */\n      0x01\n        /* \"cuimianMaster/TestCall.sol\":1347:1350  123 */\n      0x7b\n        /* \"cuimianMaster/TestCall.sol\":1269:1365  abi.encodeWithSignature(... */\n      add(0x24, mload(0x40))\n      tag_32\n      swap2\n      swap1\n      tag_33\n      jump\t// in\n    tag_32:\n      mload(0x40)\n      0x20\n      dup2\n      dup4\n      sub\n      sub\n      dup2\n      mstore\n      swap1\n      0x40\n      mstore\n      and(not(0xffffffffffffffffffffffffffffffffffffffffffffffffffffffff), 0x2fae309d00000000000000000000000000000000000000000000000000000000)\n      0x20\n      dup3\n      add\n      dup1\n      mload\n      0xffffffffffffffffffffffffffffffffffffffffffffffffffffffff\n      dup4\n      dup2\n      dup4\n      and\n      or\n      dup4\n      mstore\n      pop\n      pop\n      pop\n      pop\n        /* \"cuimianMaster/TestCall.sol\":1235:1376  _test.call{value:1}(... */\n      mload(0x40)\n      tag_34\n      swap2\n      swap1\n      tag_26\n      jump\t// in\n    tag_34:\n      0x00\n      mload(0x40)\n      dup1\n      dup4\n      sub\n      dup2\n      dup6\n      dup8\n      gas\n      call\n      swap3\n      pop\n      pop\n      pop\n      returndatasize\n      dup1\n      0x00\n      dup2\n      eq\n      tag_37\n      jumpi\n      mload(0x40)\n      swap2\n      pop\n      and(add(returndatasize, 0x3f), not(0x1f))\n      dup3\n      add\n      0x40\n      mstore\n      returndatasize\n      dup3\n      mstore\n      returndatasize\n      0x00\n      0x20\n      dup5\n      add\n      returndatacopy\n      jump(tag_36)\n    tag_37:\n      0x60\n      swap2\n      pop\n    tag_36:\n      pop\n        /* \"cuimianMaster/TestCall.sol\":1198:1376  (bool success, bytes memory _data) = _test.call{value:1}(... */\n      swap2\n      pop\n      swap2\n      pop\n        /* \"cuimianMaster/TestCall.sol\":1395:1402  success */\n      dup2\n        /* \"cuimianMaster/TestCall.sol\":1387:1421  require(success, \"callfoo failed\") */\n      tag_38\n      jumpi\n      mload(0x40)\n      0x08c379a000000000000000000000000000000000000000000000000000000000\n      dup2\n      mstore\n      0x04\n      add\n      tag_39\n      swap1\n      tag_40\n      jump\t// in\n    tag_39:\n      mload(0x40)\n      dup1\n      swap2\n      sub\n      swap1\n      revert\n    tag_38:\n        /* \"cuimianMaster/TestCall.sol\":1439:1444  _data */\n      dup1\n        /* \"cuimianMaster/TestCall.sol\":1432:1436  data */\n      0x00\n        /* \"cuimianMaster/TestCall.sol\":1432:1444  data = _data */\n      swap1\n      dup2\n      tag_41\n      swap2\n      swap1\n      tag_42\n      jump\t// in\n    tag_41:\n      pop\n        /* \"cuimianMaster/TestCall.sol\":1187:1452  {... */\n      pop\n      pop\n        /* \"cuimianMaster/TestCall.sol\":1138:1452  function callFoo(address _test) external payable {... */\n      pop\n      jump\t// out\n        /* \"#utility.yul\":7:105   */\n    tag_43:\n        /* \"#utility.yul\":58:64   */\n      0x00\n        /* \"#utility.yul\":92:97   */\n      dup2\n        /* \"#utility.yul\":86:98   */\n      mload\n        /* \"#utility.yul\":76:98   */\n      swap1\n      pop\n        /* \"#utility.yul\":7:105   */\n      swap2\n      swap1\n      pop\n      jump\t// out\n        /* \"#utility.yul\":111:279   */\n    tag_44:\n        /* \"#utility.yul\":194:205   */\n      0x00\n        /* \"#utility.yul\":228:234   */\n      dup3\n        /* \"#utility.yul\":223:226   */\n      dup3\n        /* \"#utility.yul\":216:235   */\n      mstore\n        /* \"#utility.yul\":268:272   */\n      0x20\n        /* \"#utility.yul\":263:266   */\n      dup3\n        /* \"#utility.yul\":259:273   */\n      add\n        /* \"#utility.yul\":244:273   */\n      swap1\n      pop\n        /* \"#utility.yul\":111:279   */\n      swap3\n      swap2\n      pop\n      pop\n      jump\t// out\n        /* \"#utility.yul\":285:531   */\n    tag_45:\n        /* \"#utility.yul\":366:367   */\n      0x00\n        /* \"#utility.yul\":376:489   */\n    tag_88:\n        /* \"#utility.yul\":390:396   */\n      dup4\n        /* \"#utility.yul\":387:388   */\n      dup2\n        /* \"#utility.yul\":384:397   */\n      lt\n        /* \"#utility.yul\":376:489   */\n      iszero\n      tag_90\n      jumpi\n        /* \"#utility.yul\":475:476   */\n      dup1\n        /* \"#utility.yul\":470:473   */\n      dup3\n        /* \"#utility.yul\":466:477   */\n      add\n        /* \"#utility.yul\":460:478   */\n      mload\n        /* \"#utility.yul\":456:457   */\n      dup2\n        /* \"#utility.yul\":451:454   */\n      dup5\n        /* \"#utility.yul\":447:458   */\n      add\n        /* \"#utility.yul\":440:479   */\n      mstore\n        /* \"#utility.yul\":412:414   */\n      0x20\n        /* \"#utility.yul\":409:410   */\n      dup2\n        /* \"#utility.yul\":405:415   */\n      add\n        /* \"#utility.yul\":400:415   */\n      swap1\n      pop\n        /* \"#utility.yul\":376:489   */\n      jump(tag_88)\n    tag_90:\n        /* \"#utility.yul\":523:524   */\n      0x00\n        /* \"#utility.yul\":514:520   */\n      dup5\n        /* \"#utility.yul\":509:512   */\n      dup5\n        /* \"#utility.yul\":505:521   */\n      add\n        /* \"#utility.yul\":498:525   */\n      mstore\n        /* \"#utility.yul\":347:531   */\n      pop\n        /* \"#utility.yul\":285:531   */\n      pop\n      pop\n      pop\n      jump\t// out\n        /* \"#utility.yul\":537:639   */\n    tag_46:\n        /* \"#utility.yul\":578:584   */\n      0x00\n        /* \"#utility.yul\":629:631   */\n      0x1f\n        /* \"#utility.yul\":625:632   */\n      not\n        /* \"#utility.yul\":620:622   */\n      0x1f\n        /* \"#utility.yul\":613:618   */\n      dup4\n        /* \"#utility.yul\":609:623   */\n      add\n        /* \"#utility.yul\":605:633   */\n      and\n        /* \"#utility.yul\":595:633   */\n      swap1\n      pop\n        /* \"#utility.yul\":537:639   */\n      swap2\n      swap1\n      pop\n      jump\t// out\n        /* \"#utility.yul\":645:1018   */\n    tag_47:\n        /* \"#utility.yul\":731:734   */\n      0x00\n        /* \"#utility.yul\":759:797   */\n      tag_93\n        /* \"#utility.yul\":791:796   */\n      dup3\n        /* \"#utility.yul\":759:797   */\n      tag_43\n      jump\t// in\n    tag_93:\n        /* \"#utility.yul\":813:883   */\n      tag_94\n        /* \"#utility.yul\":876:882   */\n      dup2\n        /* \"#utility.yul\":871:874   */\n      dup6\n        /* \"#utility.yul\":813:883   */\n      tag_44\n      jump\t// in\n    tag_94:\n        /* \"#utility.yul\":806:883   */\n      swap4\n      pop\n        /* \"#utility.yul\":892:957   */\n      tag_95\n        /* \"#utility.yul\":950:956   */\n      dup2\n        /* \"#utility.yul\":945:948   */\n      dup6\n        /* \"#utility.yul\":938:942   */\n      0x20\n        /* \"#utility.yul\":931:936   */\n      dup7\n        /* \"#utility.yul\":927:943   */\n      add\n        /* \"#utility.yul\":892:957   */\n      tag_45\n      jump\t// in\n    tag_95:\n        /* \"#utility.yul\":982:1011   */\n      tag_96\n        /* \"#utility.yul\":1004:1010   */\n      dup2\n        /* \"#utility.yul\":982:1011   */\n      tag_46\n      jump\t// in\n    tag_96:\n        /* \"#utility.yul\":977:980   */\n      dup5\n        /* \"#utility.yul\":973:1012   */\n      add\n        /* \"#utility.yul\":966:1012   */\n      swap2\n      pop\n        /* \"#utility.yul\":735:1018   */\n      pop\n        /* \"#utility.yul\":645:1018   */\n      swap3\n      swap2\n      pop\n      pop\n      jump\t// out\n        /* \"#utility.yul\":1024:1333   */\n    tag_9:\n        /* \"#utility.yul\":1135:1139   */\n      0x00\n        /* \"#utility.yul\":1173:1175   */\n      0x20\n        /* \"#utility.yul\":1162:1171   */\n      dup3\n        /* \"#utility.yul\":1158:1176   */\n      add\n        /* \"#utility.yul\":1150:1176   */\n      swap1\n      pop\n        /* \"#utility.yul\":1222:1231   */\n      dup2\n        /* \"#utility.yul\":1216:1220   */\n      dup2\n        /* \"#utility.yul\":1212:1232   */\n      sub\n        /* \"#utility.yul\":1208:1209   */\n      0x00\n        /* \"#utility.yul\":1197:1206   */\n      dup4\n        /* \"#utility.yul\":1193:1210   */\n      add\n        /* \"#utility.yul\":1186:1233   */\n      mstore\n        /* \"#utility.yul\":1250:1326   */\n      tag_98\n        /* \"#utility.yul\":1321:1325   */\n      dup2\n        /* \"#utility.yul\":1312:1318   */\n      dup5\n        /* \"#utility.yul\":1250:1326   */\n      tag_47\n      jump\t// in\n    tag_98:\n        /* \"#utility.yul\":1242:1326   */\n      swap1\n      pop\n        /* \"#utility.yul\":1024:1333   */\n      swap3\n      swap2\n      pop\n      pop\n      jump\t// out\n        /* \"#utility.yul\":1420:1537   */\n    tag_49:\n        /* \"#utility.yul\":1529:1530   */\n      0x00\n        /* \"#utility.yul\":1526:1527   */\n      dup1\n        /* \"#utility.yul\":1519:1531   */\n      revert\n        /* \"#utility.yul\":1666:1792   */\n    tag_51:\n        /* \"#utility.yul\":1703:1710   */\n      0x00\n        /* \"#utility.yul\":1743:1785   */\n      0xffffffffffffffffffffffffffffffffffffffff\n        /* \"#utility.yul\":1736:1741   */\n      dup3\n        /* \"#utility.yul\":1732:1786   */\n      and\n        /* \"#utility.yul\":1721:1786   */\n      swap1\n      pop\n        /* \"#utility.yul\":1666:1792   */\n      swap2\n      swap1\n      pop\n      jump\t// out\n        /* \"#utility.yul\":1798:1894   */\n    tag_52:\n        /* \"#utility.yul\":1835:1842   */\n      0x00\n        /* \"#utility.yul\":1864:1888   */\n      tag_104\n        /* \"#utility.yul\":1882:1887   */\n      dup3\n        /* \"#utility.yul\":1864:1888   */\n      tag_51\n      jump\t// in\n    tag_104:\n        /* \"#utility.yul\":1853:1888   */\n      swap1\n      pop\n        /* \"#utility.yul\":1798:1894   */\n      swap2\n      swap1\n      pop\n      jump\t// out\n        /* \"#utility.yul\":1900:2022   */\n    tag_53:\n        /* \"#utility.yul\":1973:1997   */\n      tag_106\n        /* \"#utility.yul\":1991:1996   */\n      dup2\n        /* \"#utility.yul\":1973:1997   */\n      tag_52\n      jump\t// in\n    tag_106:\n        /* \"#utility.yul\":1966:1971   */\n      dup2\n        /* \"#utility.yul\":1963:1998   */\n      eq\n        /* \"#utility.yul\":1953:2016   */\n      tag_107\n      jumpi\n        /* \"#utility.yul\":2012:2013   */\n      0x00\n        /* \"#utility.yul\":2009:2010   */\n      dup1\n        /* \"#utility.yul\":2002:2014   */\n      revert\n        /* \"#utility.yul\":1953:2016   */\n    tag_107:\n        /* \"#utility.yul\":1900:2022   */\n      pop\n      jump\t// out\n        /* \"#utility.yul\":2028:2167   */\n    tag_54:\n        /* \"#utility.yul\":2074:2079   */\n      0x00\n        /* \"#utility.yul\":2112:2118   */\n      dup2\n        /* \"#utility.yul\":2099:2119   */\n      calldataload\n        /* \"#utility.yul\":2090:2119   */\n      swap1\n      pop\n        /* \"#utility.yul\":2128:2161   */\n      tag_109\n        /* \"#utility.yul\":2155:2160   */\n      dup2\n        /* \"#utility.yul\":2128:2161   */\n      tag_53\n      jump\t// in\n    tag_109:\n        /* \"#utility.yul\":2028:2167   */\n      swap3\n      swap2\n      pop\n      pop\n      jump\t// out\n        /* \"#utility.yul\":2173:2502   */\n    tag_13:\n        /* \"#utility.yul\":2232:2238   */\n      0x00\n        /* \"#utility.yul\":2281:2283   */\n      0x20\n        /* \"#utility.yul\":2269:2278   */\n      dup3\n        /* \"#utility.yul\":2260:2267   */\n      dup5\n        /* \"#utility.yul\":2256:2279   */\n      sub\n        /* \"#utility.yul\":2252:2284   */\n      slt\n        /* \"#utility.yul\":2249:2368   */\n      iszero\n      tag_111\n      jumpi\n        /* \"#utility.yul\":2287:2366   */\n      tag_112\n      tag_49\n      jump\t// in\n    tag_112:\n        /* \"#utility.yul\":2249:2368   */\n    tag_111:\n        /* \"#utility.yul\":2407:2408   */\n      0x00\n        /* \"#utility.yul\":2432:2485   */\n      tag_113\n        /* \"#utility.yul\":2477:2484   */\n      dup5\n        /* \"#utility.yul\":2468:2474   */\n      dup3\n        /* \"#utility.yul\":2457:2466   */\n      dup6\n        /* \"#utility.yul\":2453:2475   */\n      add\n        /* \"#utility.yul\":2432:2485   */\n      tag_54\n      jump\t// in\n    tag_113:\n        /* \"#utility.yul\":2422:2485   */\n      swap2\n      pop\n        /* \"#utility.yul\":2378:2495   */\n      pop\n        /* \"#utility.yul\":2173:2502   */\n      swap3\n      swap2\n      pop\n      pop\n      jump\t// out\n        /* \"#utility.yul\":2508:2688   */\n    tag_55:\n        /* \"#utility.yul\":2556:2633   */\n      0x4e487b7100000000000000000000000000000000000000000000000000000000\n        /* \"#utility.yul\":2553:2554   */\n      0x00\n        /* \"#utility.yul\":2546:2634   */\n      mstore\n        /* \"#utility.yul\":2653:2657   */\n      0x22\n        /* \"#utility.yul\":2650:2651   */\n      0x04\n        /* \"#utility.yul\":2643:2658   */\n      mstore\n        /* \"#utility.yul\":2677:2681   */\n      0x24\n        /* \"#utility.yul\":2674:2675   */\n      0x00\n        /* \"#utility.yul\":2667:2682   */\n      revert\n        /* \"#utility.yul\":2694:3014   */\n    tag_19:\n        /* \"#utility.yul\":2738:2744   */\n      0x00\n        /* \"#utility.yul\":2775:2776   */\n      0x02\n        /* \"#utility.yul\":2769:2773   */\n      dup3\n        /* \"#utility.yul\":2765:2777   */\n      div\n        /* \"#utility.yul\":2755:2777   */\n      swap1\n      pop\n        /* \"#utility.yul\":2822:2823   */\n      0x01\n        /* \"#utility.yul\":2816:2820   */\n      dup3\n        /* \"#utility.yul\":2812:2824   */\n      and\n        /* \"#utility.yul\":2843:2861   */\n      dup1\n        /* \"#utility.yul\":2833:2914   */\n      tag_116\n      jumpi\n        /* \"#utility.yul\":2899:2903   */\n      0x7f\n        /* \"#utility.yul\":2891:2897   */\n      dup3\n        /* \"#utility.yul\":2887:2904   */\n      and\n        /* \"#utility.yul\":2877:2904   */\n      swap2\n      pop\n        /* \"#utility.yul\":2833:2914   */\n    tag_116:\n        /* \"#utility.yul\":2961:2963   */\n      0x20\n        /* \"#utility.yul\":2953:2959   */\n      dup3\n        /* \"#utility.yul\":2950:2964   */\n      lt\n        /* \"#utility.yul\":2930:2948   */\n      dup2\n        /* \"#utility.yul\":2927:2965   */\n      sub\n        /* \"#utility.yul\":2924:3008   */\n      tag_117\n      jumpi\n        /* \"#utility.yul\":2980:2998   */\n      tag_118\n      tag_55\n      jump\t// in\n    tag_118:\n        /* \"#utility.yul\":2924:3008   */\n    tag_117:\n        /* \"#utility.yul\":2745:3014   */\n      pop\n        /* \"#utility.yul\":2694:3014   */\n      swap2\n      swap1\n      pop\n      jump\t// out\n        /* \"#utility.yul\":3020:3167   */\n    tag_56:\n        /* \"#utility.yul\":3121:3132   */\n      0x00\n        /* \"#utility.yul\":3158:3161   */\n      dup2\n        /* \"#utility.yul\":3143:3161   */\n      swap1\n      pop\n        /* \"#utility.yul\":3020:3167   */\n      swap3\n      swap2\n      pop\n      pop\n      jump\t// out\n        /* \"#utility.yul\":3173:3559   */\n    tag_57:\n        /* \"#utility.yul\":3277:3280   */\n      0x00\n        /* \"#utility.yul\":3305:3343   */\n      tag_121\n        /* \"#utility.yul\":3337:3342   */\n      dup3\n        /* \"#utility.yul\":3305:3343   */\n      tag_43\n      jump\t// in\n    tag_121:\n        /* \"#utility.yul\":3359:3447   */\n      tag_122\n        /* \"#utility.yul\":3440:3446   */\n      dup2\n        /* \"#utility.yul\":3435:3438   */\n      dup6\n        /* \"#utility.yul\":3359:3447   */\n      tag_56\n      jump\t// in\n    tag_122:\n        /* \"#utility.yul\":3352:3447   */\n      swap4\n      pop\n        /* \"#utility.yul\":3456:3521   */\n      tag_123\n        /* \"#utility.yul\":3514:3520   */\n      dup2\n        /* \"#utility.yul\":3509:3512   */\n      dup6\n        /* \"#utility.yul\":3502:3506   */\n      0x20\n        /* \"#utility.yul\":3495:3500   */\n      dup7\n        /* \"#utility.yul\":3491:3507   */\n      add\n        /* \"#utility.yul\":3456:3521   */\n      tag_45\n      jump\t// in\n    tag_123:\n        /* \"#utility.yul\":3546:3552   */\n      dup1\n        /* \"#utility.yul\":3541:3544   */\n      dup5\n        /* \"#utility.yul\":3537:3553   */\n      add\n        /* \"#utility.yul\":3530:3553   */\n      swap2\n      pop\n        /* \"#utility.yul\":3281:3559   */\n      pop\n        /* \"#utility.yul\":3173:3559   */\n      swap3\n      swap2\n      pop\n      pop\n      jump\t// out\n        /* \"#utility.yul\":3565:3836   */\n    tag_26:\n        /* \"#utility.yul\":3695:3698   */\n      0x00\n        /* \"#utility.yul\":3717:3810   */\n      tag_125\n        /* \"#utility.yul\":3806:3809   */\n      dup3\n        /* \"#utility.yul\":3797:3803   */\n      dup5\n        /* \"#utility.yul\":3717:3810   */\n      tag_57\n      jump\t// in\n    tag_125:\n        /* \"#utility.yul\":3710:3810   */\n      swap2\n      pop\n        /* \"#utility.yul\":3827:3830   */\n      dup2\n        /* \"#utility.yul\":3820:3830   */\n      swap1\n      pop\n        /* \"#utility.yul\":3565:3836   */\n      swap3\n      swap2\n      pop\n      pop\n      jump\t// out\n        /* \"#utility.yul\":3842:4011   */\n    tag_58:\n        /* \"#utility.yul\":3926:3937   */\n      0x00\n        /* \"#utility.yul\":3960:3966   */\n      dup3\n        /* \"#utility.yul\":3955:3958   */\n      dup3\n        /* \"#utility.yul\":3948:3967   */\n      mstore\n        /* \"#utility.yul\":4000:4004   */\n      0x20\n        /* \"#utility.yul\":3995:3998   */\n      dup3\n        /* \"#utility.yul\":3991:4005   */\n      add\n        /* \"#utility.yul\":3976:4005   */\n      swap1\n      pop\n        /* \"#utility.yul\":3842:4011   */\n      swap3\n      swap2\n      pop\n      pop\n      jump\t// out\n        /* \"#utility.yul\":4017:4175   */\n    tag_59:\n        /* \"#utility.yul\":4157:4167   */\n      0x63616c6c20666f6f000000000000000000000000000000000000000000000000\n        /* \"#utility.yul\":4153:4154   */\n      0x00\n        /* \"#utility.yul\":4145:4151   */\n      dup3\n        /* \"#utility.yul\":4141:4155   */\n      add\n        /* \"#utility.yul\":4134:4168   */\n      mstore\n        /* \"#utility.yul\":4017:4175   */\n      pop\n      jump\t// out\n        /* \"#utility.yul\":4181:4546   */\n    tag_60:\n        /* \"#utility.yul\":4323:4326   */\n      0x00\n        /* \"#utility.yul\":4344:4410   */\n      tag_129\n        /* \"#utility.yul\":4408:4409   */\n      0x08\n        /* \"#utility.yul\":4403:4406   */\n      dup4\n        /* \"#utility.yul\":4344:4410   */\n      tag_58\n      jump\t// in\n    tag_129:\n        /* \"#utility.yul\":4337:4410   */\n      swap2\n      pop\n        /* \"#utility.yul\":4419:4512   */\n      tag_130\n        /* \"#utility.yul\":4508:4511   */\n      dup3\n        /* \"#utility.yul\":4419:4512   */\n      tag_59\n      jump\t// in\n    tag_130:\n        /* \"#utility.yul\":4537:4539   */\n      0x20\n        /* \"#utility.yul\":4532:4535   */\n      dup3\n        /* \"#utility.yul\":4528:4540   */\n      add\n        /* \"#utility.yul\":4521:4540   */\n      swap1\n      pop\n        /* \"#utility.yul\":4181:4546   */\n      swap2\n      swap1\n      pop\n      jump\t// out\n        /* \"#utility.yul\":4552:4639   */\n    tag_61:\n        /* \"#utility.yul\":4599:4606   */\n      0x00\n        /* \"#utility.yul\":4628:4633   */\n      dup2\n        /* \"#utility.yul\":4617:4633   */\n      swap1\n      pop\n        /* \"#utility.yul\":4552:4639   */\n      swap2\n      swap1\n      pop\n      jump\t// out\n        /* \"#utility.yul\":4645:4731   */\n    tag_62:\n        /* \"#utility.yul\":4680:4687   */\n      0x00\n        /* \"#utility.yul\":4720:4724   */\n      0xff\n        /* \"#utility.yul\":4713:4718   */\n      dup3\n        /* \"#utility.yul\":4709:4725   */\n      and\n        /* \"#utility.yul\":4698:4725   */\n      swap1\n      pop\n        /* \"#utility.yul\":4645:4731   */\n      swap2\n      swap1\n      pop\n      jump\t// out\n        /* \"#utility.yul\":4737:4797   */\n    tag_63:\n        /* \"#utility.yul\":4765:4768   */\n      0x00\n        /* \"#utility.yul\":4786:4791   */\n      dup2\n        /* \"#utility.yul\":4779:4791   */\n      swap1\n      pop\n        /* \"#utility.yul\":4737:4797   */\n      swap2\n      swap1\n      pop\n      jump\t// out\n        /* \"#utility.yul\":4803:4961   */\n    tag_64:\n        /* \"#utility.yul\":4861:4870   */\n      0x00\n        /* \"#utility.yul\":4894:4955   */\n      tag_135\n        /* \"#utility.yul\":4910:4954   */\n      tag_136\n        /* \"#utility.yul\":4919:4953   */\n      tag_137\n        /* \"#utility.yul\":4947:4952   */\n      dup5\n        /* \"#utility.yul\":4919:4953   */\n      tag_61\n      jump\t// in\n    tag_137:\n        /* \"#utility.yul\":4910:4954   */\n      tag_63\n      jump\t// in\n    tag_136:\n        /* \"#utility.yul\":4894:4955   */\n      tag_62\n      jump\t// in\n    tag_135:\n        /* \"#utility.yul\":4881:4955   */\n      swap1\n      pop\n        /* \"#utility.yul\":4803:4961   */\n      swap2\n      swap1\n      pop\n      jump\t// out\n        /* \"#utility.yul\":4967:5114   */\n    tag_65:\n        /* \"#utility.yul\":5062:5107   */\n      tag_139\n        /* \"#utility.yul\":5101:5106   */\n      dup2\n        /* \"#utility.yul\":5062:5107   */\n      tag_64\n      jump\t// in\n    tag_139:\n        /* \"#utility.yul\":5057:5060   */\n      dup3\n        /* \"#utility.yul\":5050:5108   */\n      mstore\n        /* \"#utility.yul\":4967:5114   */\n      pop\n      pop\n      jump\t// out\n        /* \"#utility.yul\":5120:5665   */\n    tag_33:\n        /* \"#utility.yul\":5322:5326   */\n      0x00\n        /* \"#utility.yul\":5360:5362   */\n      0x40\n        /* \"#utility.yul\":5349:5358   */\n      dup3\n        /* \"#utility.yul\":5345:5363   */\n      add\n        /* \"#utility.yul\":5337:5363   */\n      swap1\n      pop\n        /* \"#utility.yul\":5409:5418   */\n      dup2\n        /* \"#utility.yul\":5403:5407   */\n      dup2\n        /* \"#utility.yul\":5399:5419   */\n      sub\n        /* \"#utility.yul\":5395:5396   */\n      0x00\n        /* \"#utility.yul\":5384:5393   */\n      dup4\n        /* \"#utility.yul\":5380:5397   */\n      add\n        /* \"#utility.yul\":5373:5420   */\n      mstore\n        /* \"#utility.yul\":5437:5568   */\n      tag_141\n        /* \"#utility.yul\":5563:5567   */\n      dup2\n        /* \"#utility.yul\":5437:5568   */\n      tag_60\n      jump\t// in\n    tag_141:\n        /* \"#utility.yul\":5429:5568   */\n      swap1\n      pop\n        /* \"#utility.yul\":5578:5658   */\n      tag_142\n        /* \"#utility.yul\":5654:5656   */\n      0x20\n        /* \"#utility.yul\":5643:5652   */\n      dup4\n        /* \"#utility.yul\":5639:5657   */\n      add\n        /* \"#utility.yul\":5630:5636   */\n      dup5\n        /* \"#utility.yul\":5578:5658   */\n      tag_65\n      jump\t// in\n    tag_142:\n        /* \"#utility.yul\":5120:5665   */\n      swap3\n      swap2\n      pop\n      pop\n      jump\t// out\n        /* \"#utility.yul\":5671:5835   */\n    tag_66:\n        /* \"#utility.yul\":5811:5827   */\n      0x63616c6c666f6f206661696c6564000000000000000000000000000000000000\n        /* \"#utility.yul\":5807:5808   */\n      0x00\n        /* \"#utility.yul\":5799:5805   */\n      dup3\n        /* \"#utility.yul\":5795:5809   */\n      add\n        /* \"#utility.yul\":5788:5828   */\n      mstore\n        /* \"#utility.yul\":5671:5835   */\n      pop\n      jump\t// out\n        /* \"#utility.yul\":5841:6207   */\n    tag_67:\n        /* \"#utility.yul\":5983:5986   */\n      0x00\n        /* \"#utility.yul\":6004:6071   */\n      tag_145\n        /* \"#utility.yul\":6068:6070   */\n      0x0e\n        /* \"#utility.yul\":6063:6066   */\n      dup4\n        /* \"#utility.yul\":6004:6071   */\n      tag_58\n      jump\t// in\n    tag_145:\n        /* \"#utility.yul\":5997:6071   */\n      swap2\n      pop\n        /* \"#utility.yul\":6080:6173   */\n      tag_146\n        /* \"#utility.yul\":6169:6172   */\n      dup3\n        /* \"#utility.yul\":6080:6173   */\n      tag_66\n      jump\t// in\n    tag_146:\n        /* \"#utility.yul\":6198:6200   */\n      0x20\n        /* \"#utility.yul\":6193:6196   */\n      dup3\n        /* \"#utility.yul\":6189:6201   */\n      add\n        /* \"#utility.yul\":6182:6201   */\n      swap1\n      pop\n        /* \"#utility.yul\":5841:6207   */\n      swap2\n      swap1\n      pop\n      jump\t// out\n        /* \"#utility.yul\":6213:6632   */\n    tag_40:\n        /* \"#utility.yul\":6379:6383   */\n      0x00\n        /* \"#utility.yul\":6417:6419   */\n      0x20\n        /* \"#utility.yul\":6406:6415   */\n      dup3\n        /* \"#utility.yul\":6402:6420   */\n      add\n        /* \"#utility.yul\":6394:6420   */\n      swap1\n      pop\n        /* \"#utility.yul\":6466:6475   */\n      dup2\n        /* \"#utility.yul\":6460:6464   */\n      dup2\n        /* \"#utility.yul\":6456:6476   */\n      sub\n        /* \"#utility.yul\":6452:6453   */\n      0x00\n        /* \"#utility.yul\":6441:6450   */\n      dup4\n        /* \"#utility.yul\":6437:6454   */\n      add\n        /* \"#utility.yul\":6430:6477   */\n      mstore\n        /* \"#utility.yul\":6494:6625   */\n      tag_148\n        /* \"#utility.yul\":6620:6624   */\n      dup2\n        /* \"#utility.yul\":6494:6625   */\n      tag_67\n      jump\t// in\n    tag_148:\n        /* \"#utility.yul\":6486:6625   */\n      swap1\n      pop\n        /* \"#utility.yul\":6213:6632   */\n      swap2\n      swap1\n      pop\n      jump\t// out\n        /* \"#utility.yul\":6638:6818   */\n    tag_68:\n        /* \"#utility.yul\":6686:6763   */\n      0x4e487b7100000000000000000000000000000000000000000000000000000000\n        /* \"#utility.yul\":6683:6684   */\n      0x00\n        /* \"#utility.yul\":6676:6764   */\n      mstore\n        /* \"#utility.yul\":6783:6787   */\n      0x41\n        /* \"#utility.yul\":6780:6781   */\n      0x04\n        /* \"#utility.yul\":6773:6788   */\n      mstore\n        /* \"#utility.yul\":6807:6811   */\n      0x24\n        /* \"#utility.yul\":6804:6805   */\n      0x00\n        /* \"#utility.yul\":6797:6812   */\n      revert\n        /* \"#utility.yul\":6824:6964   */\n    tag_69:\n        /* \"#utility.yul\":6872:6876   */\n      0x00\n        /* \"#utility.yul\":6895:6898   */\n      dup2\n        /* \"#utility.yul\":6887:6898   */\n      swap1\n      pop\n        /* \"#utility.yul\":6918:6921   */\n      dup2\n        /* \"#utility.yul\":6915:6916   */\n      0x00\n        /* \"#utility.yul\":6908:6922   */\n      mstore\n        /* \"#utility.yul\":6952:6956   */\n      0x20\n        /* \"#utility.yul\":6949:6950   */\n      0x00\n        /* \"#utility.yul\":6939:6957   */\n      keccak256\n        /* \"#utility.yul\":6931:6957   */\n      swap1\n      pop\n        /* \"#utility.yul\":6824:6964   */\n      swap2\n      swap1\n      pop\n      jump\t// out\n        /* \"#utility.yul\":6970:7063   */\n    tag_70:\n        /* \"#utility.yul\":7007:7013   */\n      0x00\n        /* \"#utility.yul\":7054:7056   */\n      0x20\n        /* \"#utility.yul\":7049:7051   */\n      0x1f\n        /* \"#utility.yul\":7042:7047   */\n      dup4\n        /* \"#utility.yul\":7038:7052   */\n      add\n        /* \"#utility.yul\":7034:7057   */\n      div\n        /* \"#utility.yul\":7024:7057   */\n      swap1\n      pop\n        /* \"#utility.yul\":6970:7063   */\n      swap2\n      swap1\n      pop\n      jump\t// out\n        /* \"#utility.yul\":7069:7176   */\n    tag_71:\n        /* \"#utility.yul\":7113:7121   */\n      0x00\n        /* \"#utility.yul\":7163:7168   */\n      dup3\n        /* \"#utility.yul\":7157:7161   */\n      dup3\n        /* \"#utility.yul\":7153:7169   */\n      shl\n        /* \"#utility.yul\":7132:7169   */\n      swap1\n      pop\n        /* \"#utility.yul\":7069:7176   */\n      swap3\n      swap2\n      pop\n      pop\n      jump\t// out\n        /* \"#utility.yul\":7182:7575   */\n    tag_72:\n        /* \"#utility.yul\":7251:7257   */\n      0x00\n        /* \"#utility.yul\":7301:7302   */\n      0x08\n        /* \"#utility.yul\":7289:7299   */\n      dup4\n        /* \"#utility.yul\":7285:7303   */\n      mul\n        /* \"#utility.yul\":7324:7421   */\n      tag_154\n        /* \"#utility.yul\":7354:7420   */\n      0xffffffffffffffffffffffffffffffffffffffffffffffffffffffffffffffff\n        /* \"#utility.yul\":7343:7352   */\n      dup3\n        /* \"#utility.yul\":7324:7421   */\n      tag_71\n      jump\t// in\n    tag_154:\n        /* \"#utility.yul\":7442:7481   */\n      tag_155\n        /* \"#utility.yul\":7472:7480   */\n      dup7\n        /* \"#utility.yul\":7461:7470   */\n      dup4\n        /* \"#utility.yul\":7442:7481   */\n      tag_71\n      jump\t// in\n    tag_155:\n        /* \"#utility.yul\":7430:7481   */\n      swap6\n      pop\n        /* \"#utility.yul\":7514:7518   */\n      dup1\n        /* \"#utility.yul\":7510:7519   */\n      not\n        /* \"#utility.yul\":7503:7508   */\n      dup5\n        /* \"#utility.yul\":7499:7520   */\n      and\n        /* \"#utility.yul\":7490:7520   */\n      swap4\n      pop\n        /* \"#utility.yul\":7563:7567   */\n      dup1\n        /* \"#utility.yul\":7553:7561   */\n      dup7\n        /* \"#utility.yul\":7549:7568   */\n      and\n        /* \"#utility.yul\":7542:7547   */\n      dup5\n        /* \"#utility.yul\":7539:7569   */\n      or\n        /* \"#utility.yul\":7529:7569   */\n      swap3\n      pop\n        /* \"#utility.yul\":7258:7575   */\n      pop\n      pop\n        /* \"#utility.yul\":7182:7575   */\n      swap4\n      swap3\n      pop\n      pop\n      pop\n      jump\t// out\n        /* \"#utility.yul\":7581:7658   */\n    tag_73:\n        /* \"#utility.yul\":7618:7625   */\n      0x00\n        /* \"#utility.yul\":7647:7652   */\n      dup2\n        /* \"#utility.yul\":7636:7652   */\n      swap1\n      pop\n        /* \"#utility.yul\":7581:7658   */\n      swap2\n      swap1\n      pop\n      jump\t// out\n        /* \"#utility.yul\":7664:7806   */\n    tag_74:\n        /* \"#utility.yul\":7714:7723   */\n      0x00\n        /* \"#utility.yul\":7747:7800   */\n      tag_158\n        /* \"#utility.yul\":7765:7799   */\n      tag_159\n        /* \"#utility.yul\":7774:7798   */\n      tag_160\n        /* \"#utility.yul\":7792:7797   */\n      dup5\n        /* \"#utility.yul\":7774:7798   */\n      tag_73\n      jump\t// in\n    tag_160:\n        /* \"#utility.yul\":7765:7799   */\n      tag_63\n      jump\t// in\n    tag_159:\n        /* \"#utility.yul\":7747:7800   */\n      tag_73\n      jump\t// in\n    tag_158:\n        /* \"#utility.yul\":7734:7800   */\n      swap1\n      pop\n        /* \"#utility.yul\":7664:7806   */\n      swap2\n      swap1\n      pop\n      jump\t// out\n        /* \"#utility.yul\":7812:7887   */\n    tag_75:\n        /* \"#utility.yul\":7855:7858   */\n      0x00\n        /* \"#utility.yul\":7876:7881   */\n      dup2\n        /* \"#utility.yul\":7869:7881   */\n      swap1\n      pop\n        /* \"#utility.yul\":7812:7887   */\n      swap2\n      swap1\n      pop\n      jump\t// out\n        /* \"#utility.yul\":7893:8162   */\n    tag_76:\n        /* \"#utility.yul\":8003:8042   */\n      tag_163\n        /* \"#utility.yul\":8034:8041   */\n      dup4\n        /* \"#utility.yul\":8003:8042   */\n      tag_74\n      jump\t// in\n    tag_163:\n        /* \"#utility.yul\":8064:8155   */\n      tag_164\n        /* \"#utility.yul\":8113:8154   */\n      tag_165\n        /* \"#utility.yul\":8137:8153   */\n      dup3\n        /* \"#utility.yul\":8113:8154   */\n      tag_75\n      jump\t// in\n    tag_165:\n        /* \"#utility.yul\":8105:8111   */\n      dup5\n        /* \"#utility.yul\":8098:8102   */\n      dup5\n        /* \"#utility.yul\":8092:8103   */\n      sload\n        /* \"#utility.yul\":8064:8155   */\n      tag_72\n      jump\t// in\n    tag_164:\n        /* \"#utility.yul\":8058:8062   */\n      dup3\n        /* \"#utility.yul\":8051:8156   */\n      sstore\n        /* \"#utility.yul\":7969:8162   */\n      pop\n        /* \"#utility.yul\":7893:8162   */\n      pop\n      pop\n      pop\n      jump\t// out\n        /* \"#utility.yul\":8168:8241   */\n    tag_77:\n        /* \"#utility.yul\":8213:8216   */\n      0x00\n        /* \"#utility.yul\":8168:8241   */\n      swap1\n      jump\t// out\n        /* \"#utility.yul\":8247:8436   */\n    tag_78:\n        /* \"#utility.yul\":8324:8356   */\n      tag_168\n      tag_77\n      jump\t// in\n    tag_168:\n        /* \"#utility.yul\":8365:8430   */\n      tag_169\n        /* \"#utility.yul\":8423:8429   */\n      dup2\n        /* \"#utility.yul\":8415:8421   */\n      dup5\n        /* \"#utility.yul\":8409:8413   */\n      dup5\n        /* \"#utility.yul\":8365:8430   */\n      tag_76\n      jump\t// in\n    tag_169:\n        /* \"#utility.yul\":8300:8436   */\n      pop\n        /* \"#utility.yul\":8247:8436   */\n      pop\n      pop\n      jump\t// out\n        /* \"#utility.yul\":8442:8628   */\n    tag_79:\n        /* \"#utility.yul\":8502:8622   */\n    tag_171:\n        /* \"#utility.yul\":8519:8522   */\n      dup2\n        /* \"#utility.yul\":8512:8517   */\n      dup2\n        /* \"#utility.yul\":8509:8523   */\n      lt\n        /* \"#utility.yul\":8502:8622   */\n      iszero\n      tag_173\n      jumpi\n        /* \"#utility.yul\":8573:8612   */\n      tag_174\n        /* \"#utility.yul\":8610:8611   */\n      0x00\n        /* \"#utility.yul\":8603:8608   */\n      dup3\n        /* \"#utility.yul\":8573:8612   */\n      tag_78\n      jump\t// in\n    tag_174:\n        /* \"#utility.yul\":8546:8547   */\n      0x01\n        /* \"#utility.yul\":8539:8544   */\n      dup2\n        /* \"#utility.yul\":8535:8548   */\n      add\n        /* \"#utility.yul\":8526:8548   */\n      swap1\n      pop\n        /* \"#utility.yul\":8502:8622   */\n      jump(tag_171)\n    tag_173:\n        /* \"#utility.yul\":8442:8628   */\n      pop\n      pop\n      jump\t// out\n        /* \"#utility.yul\":8634:9175   */\n    tag_80:\n        /* \"#utility.yul\":8734:8736   */\n      0x1f\n        /* \"#utility.yul\":8729:8732   */\n      dup3\n        /* \"#utility.yul\":8726:8737   */\n      gt\n        /* \"#utility.yul\":8723:9168   */\n      iszero\n      tag_176\n      jumpi\n        /* \"#utility.yul\":8768:8805   */\n      tag_177\n        /* \"#utility.yul\":8799:8804   */\n      dup2\n        /* \"#utility.yul\":8768:8805   */\n      tag_69\n      jump\t// in\n    tag_177:\n        /* \"#utility.yul\":8851:8880   */\n      tag_178\n        /* \"#utility.yul\":8869:8879   */\n      dup5\n        /* \"#utility.yul\":8851:8880   */\n      tag_70\n      jump\t// in\n    tag_178:\n        /* \"#utility.yul\":8841:8849   */\n      dup2\n        /* \"#utility.yul\":8837:8881   */\n      add\n        /* \"#utility.yul\":9034:9036   */\n      0x20\n        /* \"#utility.yul\":9022:9032   */\n      dup6\n        /* \"#utility.yul\":9019:9037   */\n      lt\n        /* \"#utility.yul\":9016:9065   */\n      iszero\n      tag_179\n      jumpi\n        /* \"#utility.yul\":9055:9063   */\n      dup2\n        /* \"#utility.yul\":9040:9063   */\n      swap1\n      pop\n        /* \"#utility.yul\":9016:9065   */\n    tag_179:\n        /* \"#utility.yul\":9078:9158   */\n      tag_180\n        /* \"#utility.yul\":9134:9156   */\n      tag_181\n        /* \"#utility.yul\":9152:9155   */\n      dup6\n        /* \"#utility.yul\":9134:9156   */\n      tag_70\n      jump\t// in\n    tag_181:\n        /* \"#utility.yul\":9124:9132   */\n      dup4\n        /* \"#utility.yul\":9120:9157   */\n      add\n        /* \"#utility.yul\":9107:9118   */\n      dup3\n        /* \"#utility.yul\":9078:9158   */\n      tag_79\n      jump\t// in\n    tag_180:\n        /* \"#utility.yul\":8738:9168   */\n      pop\n      pop\n        /* \"#utility.yul\":8723:9168   */\n    tag_176:\n        /* \"#utility.yul\":8634:9175   */\n      pop\n      pop\n      pop\n      jump\t// out\n        /* \"#utility.yul\":9181:9298   */\n    tag_81:\n        /* \"#utility.yul\":9235:9243   */\n      0x00\n        /* \"#utility.yul\":9285:9290   */\n      dup3\n        /* \"#utility.yul\":9279:9283   */\n      dup3\n        /* \"#utility.yul\":9275:9291   */\n      shr\n        /* \"#utility.yul\":9254:9291   */\n      swap1\n      pop\n        /* \"#utility.yul\":9181:9298   */\n      swap3\n      swap2\n      pop\n      pop\n      jump\t// out\n        /* \"#utility.yul\":9304:9473   */\n    tag_82:\n        /* \"#utility.yul\":9348:9354   */\n      0x00\n        /* \"#utility.yul\":9381:9432   */\n      tag_184\n        /* \"#utility.yul\":9429:9430   */\n      0x00\n        /* \"#utility.yul\":9425:9431   */\n      not\n        /* \"#utility.yul\":9417:9422   */\n      dup5\n        /* \"#utility.yul\":9414:9415   */\n      0x08\n        /* \"#utility.yul\":9410:9423   */\n      mul\n        /* \"#utility.yul\":9381:9432   */\n      tag_81\n      jump\t// in\n    tag_184:\n        /* \"#utility.yul\":9377:9433   */\n      not\n        /* \"#utility.yul\":9462:9466   */\n      dup1\n        /* \"#utility.yul\":9456:9460   */\n      dup4\n        /* \"#utility.yul\":9452:9467   */\n      and\n        /* \"#utility.yul\":9442:9467   */\n      swap2\n      pop\n        /* \"#utility.yul\":9355:9473   */\n      pop\n        /* \"#utility.yul\":9304:9473   */\n      swap3\n      swap2\n      pop\n      pop\n      jump\t// out\n        /* \"#utility.yul\":9478:9773   */\n    tag_83:\n        /* \"#utility.yul\":9554:9558   */\n      0x00\n        /* \"#utility.yul\":9700:9729   */\n      tag_186\n        /* \"#utility.yul\":9725:9728   */\n      dup4\n        /* \"#utility.yul\":9719:9723   */\n      dup4\n        /* \"#utility.yul\":9700:9729   */\n      tag_82\n      jump\t// in\n    tag_186:\n        /* \"#utility.yul\":9692:9729   */\n      swap2\n      pop\n        /* \"#utility.yul\":9762:9765   */\n      dup3\n        /* \"#utility.yul\":9759:9760   */\n      0x02\n        /* \"#utility.yul\":9755:9766   */\n      mul\n        /* \"#utility.yul\":9749:9753   */\n      dup3\n        /* \"#utility.yul\":9746:9767   */\n      or\n        /* \"#utility.yul\":9738:9767   */\n      swap1\n      pop\n        /* \"#utility.yul\":9478:9773   */\n      swap3\n      swap2\n      pop\n      pop\n      jump\t// out\n        /* \"#utility.yul\":9778:11168   */\n    tag_42:\n        /* \"#utility.yul\":9893:9929   */\n      tag_188\n        /* \"#utility.yul\":9925:9928   */\n      dup3\n        /* \"#utility.yul\":9893:9929   */\n      tag_43\n      jump\t// in\n    tag_188:\n        /* \"#utility.yul\":9994:10012   */\n      0xffffffffffffffff\n        /* \"#utility.yul\":9986:9992   */\n      dup2\n        /* \"#utility.yul\":9983:10013   */\n      gt\n        /* \"#utility.yul\":9980:10036   */\n      iszero\n      tag_189\n      jumpi\n        /* \"#utility.yul\":10016:10034   */\n      tag_190\n      tag_68\n      jump\t// in\n    tag_190:\n        /* \"#utility.yul\":9980:10036   */\n    tag_189:\n        /* \"#utility.yul\":10060:10098   */\n      tag_191\n        /* \"#utility.yul\":10092:10096   */\n      dup3\n        /* \"#utility.yul\":10086:10097   */\n      sload\n        /* \"#utility.yul\":10060:10098   */\n      tag_19\n      jump\t// in\n    tag_191:\n        /* \"#utility.yul\":10145:10211   */\n      tag_192\n        /* \"#utility.yul\":10204:10210   */\n      dup3\n        /* \"#utility.yul\":10196:10202   */\n      dup3\n        /* \"#utility.yul\":10190:10194   */\n      dup6\n        /* \"#utility.yul\":10145:10211   */\n      tag_80\n      jump\t// in\n    tag_192:\n        /* \"#utility.yul\":10238:10239   */\n      0x00\n        /* \"#utility.yul\":10262:10266   */\n      0x20\n        /* \"#utility.yul\":10249:10266   */\n      swap1\n      pop\n        /* \"#utility.yul\":10294:10296   */\n      0x1f\n        /* \"#utility.yul\":10286:10292   */\n      dup4\n        /* \"#utility.yul\":10283:10297   */\n      gt\n        /* \"#utility.yul\":10311:10312   */\n      0x01\n        /* \"#utility.yul\":10306:10923   */\n      dup2\n      eq\n      tag_194\n      jumpi\n        /* \"#utility.yul\":10967:10968   */\n      0x00\n        /* \"#utility.yul\":10984:10990   */\n      dup5\n        /* \"#utility.yul\":10981:11058   */\n      iszero\n      tag_195\n      jumpi\n        /* \"#utility.yul\":11033:11042   */\n      dup3\n        /* \"#utility.yul\":11028:11031   */\n      dup8\n        /* \"#utility.yul\":11024:11043   */\n      add\n        /* \"#utility.yul\":11018:11044   */\n      mload\n        /* \"#utility.yul\":11009:11044   */\n      swap1\n      pop\n        /* \"#utility.yul\":10981:11058   */\n    tag_195:\n        /* \"#utility.yul\":11084:11151   */\n      tag_196\n        /* \"#utility.yul\":11144:11150   */\n      dup6\n        /* \"#utility.yul\":11137:11142   */\n      dup3\n        /* \"#utility.yul\":11084:11151   */\n      tag_83\n      jump\t// in\n    tag_196:\n        /* \"#utility.yul\":11078:11082   */\n      dup7\n        /* \"#utility.yul\":11071:11152   */\n      sstore\n        /* \"#utility.yul\":10940:11162   */\n      pop\n        /* \"#utility.yul\":10276:11162   */\n      jump(tag_193)\n        /* \"#utility.yul\":10306:10923   */\n    tag_194:\n        /* \"#utility.yul\":10358:10362   */\n      0x1f\n        /* \"#utility.yul\":10354:10363   */\n      not\n        /* \"#utility.yul\":10346:10352   */\n      dup5\n        /* \"#utility.yul\":10342:10364   */\n      and\n        /* \"#utility.yul\":10392:10428   */\n      tag_197\n        /* \"#utility.yul\":10423:10427   */\n      dup7\n        /* \"#utility.yul\":10392:10428   */\n      tag_69\n      jump\t// in\n    tag_197:\n        /* \"#utility.yul\":10450:10451   */\n      0x00\n        /* \"#utility.yul\":10464:10672   */\n    tag_198:\n        /* \"#utility.yul\":10478:10485   */\n      dup3\n        /* \"#utility.yul\":10475:10476   */\n      dup2\n        /* \"#utility.yul\":10472:10486   */\n      lt\n        /* \"#utility.yul\":10464:10672   */\n      iszero\n      tag_200\n      jumpi\n        /* \"#utility.yul\":10557:10566   */\n      dup5\n        /* \"#utility.yul\":10552:10555   */\n      dup10\n        /* \"#utility.yul\":10548:10567   */\n      add\n        /* \"#utility.yul\":10542:10568   */\n      mload\n        /* \"#utility.yul\":10534:10540   */\n      dup3\n        /* \"#utility.yul\":10527:10569   */\n      sstore\n        /* \"#utility.yul\":10608:10609   */\n      0x01\n        /* \"#utility.yul\":10600:10606   */\n      dup3\n        /* \"#utility.yul\":10596:10610   */\n      add\n        /* \"#utility.yul\":10586:10610   */\n      swap2\n      pop\n        /* \"#utility.yul\":10655:10657   */\n      0x20\n        /* \"#utility.yul\":10644:10653   */\n      dup6\n        /* \"#utility.yul\":10640:10658   */\n      add\n        /* \"#utility.yul\":10627:10658   */\n      swap5\n      pop\n        /* \"#utility.yul\":10501:10505   */\n      0x20\n        /* \"#utility.yul\":10498:10499   */\n      dup2\n        /* \"#utility.yul\":10494:10506   */\n      add\n        /* \"#utility.yul\":10489:10506   */\n      swap1\n      pop\n        /* \"#utility.yul\":10464:10672   */\n      jump(tag_198)\n    tag_200:\n        /* \"#utility.yul\":10700:10706   */\n      dup7\n        /* \"#utility.yul\":10691:10698   */\n      dup4\n        /* \"#utility.yul\":10688:10707   */\n      lt\n        /* \"#utility.yul\":10685:10864   */\n      iszero\n      tag_201\n      jumpi\n        /* \"#utility.yul\":10758:10767   */\n      dup5\n        /* \"#utility.yul\":10753:10756   */\n      dup10\n        /* \"#utility.yul\":10749:10768   */\n      add\n        /* \"#utility.yul\":10743:10769   */\n      mload\n        /* \"#utility.yul\":10801:10849   */\n      tag_202\n        /* \"#utility.yul\":10843:10847   */\n      0x1f\n        /* \"#utility.yul\":10835:10841   */\n      dup10\n        /* \"#utility.yul\":10831:10848   */\n      and\n        /* \"#utility.yul\":10820:10829   */\n      dup3\n        /* \"#utility.yul\":10801:10849   */\n      tag_82\n      jump\t// in\n    tag_202:\n        /* \"#utility.yul\":10793:10799   */\n      dup4\n        /* \"#utility.yul\":10786:10850   */\n      sstore\n        /* \"#utility.yul\":10708:10864   */\n      pop\n        /* \"#utility.yul\":10685:10864   */\n    tag_201:\n        /* \"#utility.yul\":10910:10911   */\n      0x01\n        /* \"#utility.yul\":10906:10907   */\n      0x02\n        /* \"#utility.yul\":10898:10904   */\n      dup9\n        /* \"#utility.yul\":10894:10908   */\n      mul\n        /* \"#utility.yul\":10890:10912   */\n      add\n        /* \"#utility.yul\":10884:10888   */\n      dup9\n        /* \"#utility.yul\":10877:10913   */\n      sstore\n        /* \"#utility.yul\":10313:10923   */\n      pop\n      pop\n      pop\n        /* \"#utility.yul\":10276:11162   */\n    tag_193:\n      pop\n        /* \"#utility.yul\":9868:11168   */\n      pop\n      pop\n      pop\n        /* \"#utility.yul\":9778:11168   */\n      pop\n      pop\n      jump\t// out\n\n    auxdata: 0xa264697066735822122074c2c40a8b2221cea504b913c2203ab407f51ba3d9c2c7b7127f79121a01102a64736f6c63430008120033\n}\n",
				"bytecode": {
					"linkReferences": {},
					"object": "608060405234801561001057600080fd5b506109a9806100206000396000f3fe6080604052600436106100345760003560e01c806373d4a13a14610039578063b0feeff614610064578063edcbe76c1461008d575b600080fd5b34801561004557600080fd5b5061004e6100a9565b60405161005b9190610418565b60405180910390f35b34801561007057600080fd5b5061008b6004803603810190610086919061049d565b610137565b005b6100a760048036038101906100a2919061049d565b610234565b005b600080546100b6906104f9565b80601f01602080910402602001604051908101604052809291908181526020018280546100e2906104f9565b801561012f5780601f106101045761010080835404028352916020019161012f565b820191906000526020600020905b81548152906001019060200180831161011257829003601f168201915b505050505081565b60008173ffffffffffffffffffffffffffffffffffffffff166040516024016040516020818303038152906040527f1dcc85ae000000000000000000000000000000000000000000000000000000007bffffffffffffffffffffffffffffffffffffffffffffffffffffffff19166020820180517bffffffffffffffffffffffffffffffffffffffffffffffffffffffff83818316178352505050506040516101e09190610566565b6000604051808303816000865af19150503d806000811461021d576040519150601f19603f3d011682016040523d82523d6000602084013e610222565b606091505b505090508061023057600080fd5b5050565b6000808273ffffffffffffffffffffffffffffffffffffffff166001607b604051602401610262919061062c565b6040516020818303038152906040527f2fae309d000000000000000000000000000000000000000000000000000000007bffffffffffffffffffffffffffffffffffffffffffffffffffffffff19166020820180517bffffffffffffffffffffffffffffffffffffffffffffffffffffffff83818316178352505050506040516102ec9190610566565b60006040518083038185875af1925050503d8060008114610329576040519150601f19603f3d011682016040523d82523d6000602084013e61032e565b606091505b509150915081610373576040517f08c379a000000000000000000000000000000000000000000000000000000000815260040161036a906106a6565b60405180910390fd5b806000908161038291906108a1565b50505050565b600081519050919050565b600082825260208201905092915050565b60005b838110156103c25780820151818401526020810190506103a7565b60008484015250505050565b6000601f19601f8301169050919050565b60006103ea82610388565b6103f48185610393565b93506104048185602086016103a4565b61040d816103ce565b840191505092915050565b6000602082019050818103600083015261043281846103df565b905092915050565b600080fd5b600073ffffffffffffffffffffffffffffffffffffffff82169050919050565b600061046a8261043f565b9050919050565b61047a8161045f565b811461048557600080fd5b50565b60008135905061049781610471565b92915050565b6000602082840312156104b3576104b261043a565b5b60006104c184828501610488565b91505092915050565b7f4e487b7100000000000000000000000000000000000000000000000000000000600052602260045260246000fd5b6000600282049050600182168061051157607f821691505b602082108103610524576105236104ca565b5b50919050565b600081905092915050565b600061054082610388565b61054a818561052a565b935061055a8185602086016103a4565b80840191505092915050565b60006105728284610535565b915081905092915050565b600082825260208201905092915050565b7f63616c6c20666f6f000000000000000000000000000000000000000000000000600082015250565b60006105c460088361057d565b91506105cf8261058e565b602082019050919050565b6000819050919050565b600060ff82169050919050565b6000819050919050565b600061061661061161060c846105da565b6105f1565b6105e4565b9050919050565b610626816105fb565b82525050565b60006040820190508181036000830152610645816105b7565b9050610654602083018461061d565b92915050565b7f63616c6c666f6f206661696c6564000000000000000000000000000000000000600082015250565b6000610690600e8361057d565b915061069b8261065a565b602082019050919050565b600060208201905081810360008301526106bf81610683565b9050919050565b7f4e487b7100000000000000000000000000000000000000000000000000000000600052604160045260246000fd5b60008190508160005260206000209050919050565b60006020601f8301049050919050565b600082821b905092915050565b6000600883026107577fffffffffffffffffffffffffffffffffffffffffffffffffffffffffffffffff8261071a565b610761868361071a565b95508019841693508086168417925050509392505050565b6000819050919050565b600061079e61079961079484610779565b6105f1565b610779565b9050919050565b6000819050919050565b6107b883610783565b6107cc6107c4826107a5565b848454610727565b825550505050565b600090565b6107e16107d4565b6107ec8184846107af565b505050565b5b81811015610810576108056000826107d9565b6001810190506107f2565b5050565b601f82111561085557610826816106f5565b61082f8461070a565b8101602085101561083e578190505b61085261084a8561070a565b8301826107f1565b50505b505050565b600082821c905092915050565b60006108786000198460080261085a565b1980831691505092915050565b60006108918383610867565b9150826002028217905092915050565b6108aa82610388565b67ffffffffffffffff8111156108c3576108c26106c6565b5b6108cd82546104f9565b6108d8828285610814565b600060209050601f83116001811461090b57600084156108f9578287015190505b6109038582610885565b86555061096b565b601f198416610919866106f5565b60005b828110156109415784890151825560018201915060208501945060208101905061091c565b8683101561095e578489015161095a601f891682610867565b8355505b6001600288020188555050505b50505050505056fea264697066735822122074c2c40a8b2221cea504b913c2203ab407f51ba3d9c2c7b7127f79121a01102a64736f6c63430008120033",
					"opcodes": "PUSH1 0x80 PUSH1 0x40 MSTORE CALLVALUE DUP1 ISZERO PUSH2 0x10 JUMPI PUSH1 0x0 DUP1 REVERT JUMPDEST POP PUSH2 0x9A9 DUP1 PUSH2 0x20 PUSH1 0x0 CODECOPY PUSH1 0x0 RETURN INVALID PUSH1 0x80 PUSH1 0x40 MSTORE PUSH1 0x4 CALLDATASIZE LT PUSH2 0x34 JUMPI PUSH1 0x0 CALLDATALOAD PUSH1 0xE0 SHR DUP1 PUSH4 0x73D4A13A EQ PUSH2 0x39 JUMPI DUP1 PUSH4 0xB0FEEFF6 EQ PUSH2 0x64 JUMPI DUP1 PUSH4 0xEDCBE76C EQ PUSH2 0x8D JUMPI JUMPDEST PUSH1 0x0 DUP1 REVERT JUMPDEST CALLVALUE DUP1 ISZERO PUSH2 0x45 JUMPI PUSH1 0x0 DUP1 REVERT JUMPDEST POP PUSH2 0x4E PUSH2 0xA9 JUMP JUMPDEST PUSH1 0x40 MLOAD PUSH2 0x5B SWAP2 SWAP1 PUSH2 0x418 JUMP JUMPDEST PUSH1 0x40 MLOAD DUP1 SWAP2 SUB SWAP1 RETURN JUMPDEST CALLVALUE DUP1 ISZERO PUSH2 0x70 JUMPI PUSH1 0x0 DUP1 REVERT JUMPDEST POP PUSH2 0x8B PUSH1 0x4 DUP1 CALLDATASIZE SUB DUP2 ADD SWAP1 PUSH2 0x86 SWAP2 SWAP1 PUSH2 0x49D JUMP JUMPDEST PUSH2 0x137 JUMP JUMPDEST STOP JUMPDEST PUSH2 0xA7 PUSH1 0x4 DUP1 CALLDATASIZE SUB DUP2 ADD SWAP1 PUSH2 0xA2 SWAP2 SWAP1 PUSH2 0x49D JUMP JUMPDEST PUSH2 0x234 JUMP JUMPDEST STOP JUMPDEST PUSH1 0x0 DUP1 SLOAD PUSH2 0xB6 SWAP1 PUSH2 0x4F9 JUMP JUMPDEST DUP1 PUSH1 0x1F ADD PUSH1 0x20 DUP1 SWAP2 DIV MUL PUSH1 0x20 ADD PUSH1 0x40 MLOAD SWAP1 DUP2 ADD PUSH1 0x40 MSTORE DUP1 SWAP3 SWAP2 SWAP1 DUP2 DUP2 MSTORE PUSH1 0x20 ADD DUP3 DUP1 SLOAD PUSH2 0xE2 SWAP1 PUSH2 0x4F9 JUMP JUMPDEST DUP1 ISZERO PUSH2 0x12F JUMPI DUP1 PUSH1 0x1F LT PUSH2 0x104 JUMPI PUSH2 0x100 DUP1 DUP4 SLOAD DIV MUL DUP4 MSTORE SWAP2 PUSH1 0x20 ADD SWAP2 PUSH2 0x12F JUMP JUMPDEST DUP3 ADD SWAP2 SWAP1 PUSH1 0x0 MSTORE PUSH1 0x20 PUSH1 0x0 KECCAK256 SWAP1 JUMPDEST DUP2 SLOAD DUP2 MSTORE SWAP1 PUSH1 0x1 ADD SWAP1 PUSH1 0x20 ADD DUP1 DUP4 GT PUSH2 0x112 JUMPI DUP3 SWAP1 SUB PUSH1 0x1F AND DUP3 ADD SWAP2 JUMPDEST POP POP POP POP POP DUP2 JUMP JUMPDEST PUSH1 0x0 DUP2 PUSH20 0xFFFFFFFFFFFFFFFFFFFFFFFFFFFFFFFFFFFFFFFF AND PUSH1 0x40 MLOAD PUSH1 0x24 ADD PUSH1 0x40 MLOAD PUSH1 0x20 DUP2 DUP4 SUB SUB DUP2 MSTORE SWAP1 PUSH1 0x40 MSTORE PUSH32 0x1DCC85AE00000000000000000000000000000000000000000000000000000000 PUSH28 0xFFFFFFFFFFFFFFFFFFFFFFFFFFFFFFFFFFFFFFFFFFFFFFFFFFFFFFFF NOT AND PUSH1 0x20 DUP3 ADD DUP1 MLOAD PUSH28 0xFFFFFFFFFFFFFFFFFFFFFFFFFFFFFFFFFFFFFFFFFFFFFFFFFFFFFFFF DUP4 DUP2 DUP4 AND OR DUP4 MSTORE POP POP POP POP PUSH1 0x40 MLOAD PUSH2 0x1E0 SWAP2 SWAP1 PUSH2 0x566 JUMP JUMPDEST PUSH1 0x0 PUSH1 0x40 MLOAD DUP1 DUP4 SUB DUP2 PUSH1 0x0 DUP7 GAS CALL SWAP2 POP POP RETURNDATASIZE DUP1 PUSH1 0x0 DUP2 EQ PUSH2 0x21D JUMPI PUSH1 0x40 MLOAD SWAP2 POP PUSH1 0x1F NOT PUSH1 0x3F RETURNDATASIZE ADD AND DUP3 ADD PUSH1 0x40 MSTORE RETURNDATASIZE DUP3 MSTORE RETURNDATASIZE PUSH1 0x0 PUSH1 0x20 DUP5 ADD RETURNDATACOPY PUSH2 0x222 JUMP JUMPDEST PUSH1 0x60 SWAP2 POP JUMPDEST POP POP SWAP1 POP DUP1 PUSH2 0x230 JUMPI PUSH1 0x0 DUP1 REVERT JUMPDEST POP POP JUMP JUMPDEST PUSH1 0x0 DUP1 DUP3 PUSH20 0xFFFFFFFFFFFFFFFFFFFFFFFFFFFFFFFFFFFFFFFF AND PUSH1 0x1 PUSH1 0x7B PUSH1 0x40 MLOAD PUSH1 0x24 ADD PUSH2 0x262 SWAP2 SWAP1 PUSH2 0x62C JUMP JUMPDEST PUSH1 0x40 MLOAD PUSH1 0x20 DUP2 DUP4 SUB SUB DUP2 MSTORE SWAP1 PUSH1 0x40 MSTORE PUSH32 0x2FAE309D00000000000000000000000000000000000000000000000000000000 PUSH28 0xFFFFFFFFFFFFFFFFFFFFFFFFFFFFFFFFFFFFFFFFFFFFFFFFFFFFFFFF NOT AND PUSH1 0x20 DUP3 ADD DUP1 MLOAD PUSH28 0xFFFFFFFFFFFFFFFFFFFFFFFFFFFFFFFFFFFFFFFFFFFFFFFFFFFFFFFF DUP4 DUP2 DUP4 AND OR DUP4 MSTORE POP POP POP POP PUSH1 0x40 MLOAD PUSH2 0x2EC SWAP2 SWAP1 PUSH2 0x566 JUMP JUMPDEST PUSH1 0x0 PUSH1 0x40 MLOAD DUP1 DUP4 SUB DUP2 DUP6 DUP8 GAS CALL SWAP3 POP POP POP RETURNDATASIZE DUP1 PUSH1 0x0 DUP2 EQ PUSH2 0x329 JUMPI PUSH1 0x40 MLOAD SWAP2 POP PUSH1 0x1F NOT PUSH1 0x3F RETURNDATASIZE ADD AND DUP3 ADD PUSH1 0x40 MSTORE RETURNDATASIZE DUP3 MSTORE RETURNDATASIZE PUSH1 0x0 PUSH1 0x20 DUP5 ADD RETURNDATACOPY PUSH2 0x32E JUMP JUMPDEST PUSH1 0x60 SWAP2 POP JUMPDEST POP SWAP2 POP SWAP2 POP DUP2 PUSH2 0x373 JUMPI PUSH1 0x40 MLOAD PUSH32 0x8C379A000000000000000000000000000000000000000000000000000000000 DUP2 MSTORE PUSH1 0x4 ADD PUSH2 0x36A SWAP1 PUSH2 0x6A6 JUMP JUMPDEST PUSH1 0x40 MLOAD DUP1 SWAP2 SUB SWAP1 REVERT JUMPDEST DUP1 PUSH1 0x0 SWAP1 DUP2 PUSH2 0x382 SWAP2 SWAP1 PUSH2 0x8A1 JUMP JUMPDEST POP POP POP POP JUMP JUMPDEST PUSH1 0x0 DUP2 MLOAD SWAP1 POP SWAP2 SWAP1 POP JUMP JUMPDEST PUSH1 0x0 DUP3 DUP3 MSTORE PUSH1 0x20 DUP3 ADD SWAP1 POP SWAP3 SWAP2 POP POP JUMP JUMPDEST PUSH1 0x0 JUMPDEST DUP4 DUP2 LT ISZERO PUSH2 0x3C2 JUMPI DUP1 DUP3 ADD MLOAD DUP2 DUP5 ADD MSTORE PUSH1 0x20 DUP2 ADD SWAP1 POP PUSH2 0x3A7 JUMP JUMPDEST PUSH1 0x0 DUP5 DUP5 ADD MSTORE POP POP POP POP JUMP JUMPDEST PUSH1 0x0 PUSH1 0x1F NOT PUSH1 0x1F DUP4 ADD AND SWAP1 POP SWAP2 SWAP1 POP JUMP JUMPDEST PUSH1 0x0 PUSH2 0x3EA DUP3 PUSH2 0x388 JUMP JUMPDEST PUSH2 0x3F4 DUP2 DUP6 PUSH2 0x393 JUMP JUMPDEST SWAP4 POP PUSH2 0x404 DUP2 DUP6 PUSH1 0x20 DUP7 ADD PUSH2 0x3A4 JUMP JUMPDEST PUSH2 0x40D DUP2 PUSH2 0x3CE JUMP JUMPDEST DUP5 ADD SWAP2 POP POP SWAP3 SWAP2 POP POP JUMP JUMPDEST PUSH1 0x0 PUSH1 0x20 DUP3 ADD SWAP1 POP DUP2 DUP2 SUB PUSH1 0x0 DUP4 ADD MSTORE PUSH2 0x432 DUP2 DUP5 PUSH2 0x3DF JUMP JUMPDEST SWAP1 POP SWAP3 SWAP2 POP POP JUMP JUMPDEST PUSH1 0x0 DUP1 REVERT JUMPDEST PUSH1 0x0 PUSH20 0xFFFFFFFFFFFFFFFFFFFFFFFFFFFFFFFFFFFFFFFF DUP3 AND SWAP1 POP SWAP2 SWAP1 POP JUMP JUMPDEST PUSH1 0x0 PUSH2 0x46A DUP3 PUSH2 0x43F JUMP JUMPDEST SWAP1 POP SWAP2 SWAP1 POP JUMP JUMPDEST PUSH2 0x47A DUP2 PUSH2 0x45F JUMP JUMPDEST DUP2 EQ PUSH2 0x485 JUMPI PUSH1 0x0 DUP1 REVERT JUMPDEST POP JUMP JUMPDEST PUSH1 0x0 DUP2 CALLDATALOAD SWAP1 POP PUSH2 0x497 DUP2 PUSH2 0x471 JUMP JUMPDEST SWAP3 SWAP2 POP POP JUMP JUMPDEST PUSH1 0x0 PUSH1 0x20 DUP3 DUP5 SUB SLT ISZERO PUSH2 0x4B3 JUMPI PUSH2 0x4B2 PUSH2 0x43A JUMP JUMPDEST JUMPDEST PUSH1 0x0 PUSH2 0x4C1 DUP5 DUP3 DUP6 ADD PUSH2 0x488 JUMP JUMPDEST SWAP2 POP POP SWAP3 SWAP2 POP POP JUMP JUMPDEST PUSH32 0x4E487B7100000000000000000000000000000000000000000000000000000000 PUSH1 0x0 MSTORE PUSH1 0x22 PUSH1 0x4 MSTORE PUSH1 0x24 PUSH1 0x0 REVERT JUMPDEST PUSH1 0x0 PUSH1 0x2 DUP3 DIV SWAP1 POP PUSH1 0x1 DUP3 AND DUP1 PUSH2 0x511 JUMPI PUSH1 0x7F DUP3 AND SWAP2 POP JUMPDEST PUSH1 0x20 DUP3 LT DUP2 SUB PUSH2 0x524 JUMPI PUSH2 0x523 PUSH2 0x4CA JUMP JUMPDEST JUMPDEST POP SWAP2 SWAP1 POP JUMP JUMPDEST PUSH1 0x0 DUP2 SWAP1 POP SWAP3 SWAP2 POP POP JUMP JUMPDEST PUSH1 0x0 PUSH2 0x540 DUP3 PUSH2 0x388 JUMP JUMPDEST PUSH2 0x54A DUP2 DUP6 PUSH2 0x52A JUMP JUMPDEST SWAP4 POP PUSH2 0x55A DUP2 DUP6 PUSH1 0x20 DUP7 ADD PUSH2 0x3A4 JUMP JUMPDEST DUP1 DUP5 ADD SWAP2 POP POP SWAP3 SWAP2 POP POP JUMP JUMPDEST PUSH1 0x0 PUSH2 0x572 DUP3 DUP5 PUSH2 0x535 JUMP JUMPDEST SWAP2 POP DUP2 SWAP1 POP SWAP3 SWAP2 POP POP JUMP JUMPDEST PUSH1 0x0 DUP3 DUP3 MSTORE PUSH1 0x20 DUP3 ADD SWAP1 POP SWAP3 SWAP2 POP POP JUMP JUMPDEST PUSH32 0x63616C6C20666F6F000000000000000000000000000000000000000000000000 PUSH1 0x0 DUP3 ADD MSTORE POP JUMP JUMPDEST PUSH1 0x0 PUSH2 0x5C4 PUSH1 0x8 DUP4 PUSH2 0x57D JUMP JUMPDEST SWAP2 POP PUSH2 0x5CF DUP3 PUSH2 0x58E JUMP JUMPDEST PUSH1 0x20 DUP3 ADD SWAP1 POP SWAP2 SWAP1 POP JUMP JUMPDEST PUSH1 0x0 DUP2 SWAP1 POP SWAP2 SWAP1 POP JUMP JUMPDEST PUSH1 0x0 PUSH1 0xFF DUP3 AND SWAP1 POP SWAP2 SWAP1 POP JUMP JUMPDEST PUSH1 0x0 DUP2 SWAP1 POP SWAP2 SWAP1 POP JUMP JUMPDEST PUSH1 0x0 PUSH2 0x616 PUSH2 0x611 PUSH2 0x60C DUP5 PUSH2 0x5DA JUMP JUMPDEST PUSH2 0x5F1 JUMP JUMPDEST PUSH2 0x5E4 JUMP JUMPDEST SWAP1 POP SWAP2 SWAP1 POP JUMP JUMPDEST PUSH2 0x626 DUP2 PUSH2 0x5FB JUMP JUMPDEST DUP3 MSTORE POP POP JUMP JUMPDEST PUSH1 0x0 PUSH1 0x40 DUP3 ADD SWAP1 POP DUP2 DUP2 SUB PUSH1 0x0 DUP4 ADD MSTORE PUSH2 0x645 DUP2 PUSH2 0x5B7 JUMP JUMPDEST SWAP1 POP PUSH2 0x654 PUSH1 0x20 DUP4 ADD DUP5 PUSH2 0x61D JUMP JUMPDEST SWAP3 SWAP2 POP POP JUMP JUMPDEST PUSH32 0x63616C6C666F6F206661696C6564000000000000000000000000000000000000 PUSH1 0x0 DUP3 ADD MSTORE POP JUMP JUMPDEST PUSH1 0x0 PUSH2 0x690 PUSH1 0xE DUP4 PUSH2 0x57D JUMP JUMPDEST SWAP2 POP PUSH2 0x69B DUP3 PUSH2 0x65A JUMP JUMPDEST PUSH1 0x20 DUP3 ADD SWAP1 POP SWAP2 SWAP1 POP JUMP JUMPDEST PUSH1 0x0 PUSH1 0x20 DUP3 ADD SWAP1 POP DUP2 DUP2 SUB PUSH1 0x0 DUP4 ADD MSTORE PUSH2 0x6BF DUP2 PUSH2 0x683 JUMP JUMPDEST SWAP1 POP SWAP2 SWAP1 POP JUMP JUMPDEST PUSH32 0x4E487B7100000000000000000000000000000000000000000000000000000000 PUSH1 0x0 MSTORE PUSH1 0x41 PUSH1 0x4 MSTORE PUSH1 0x24 PUSH1 0x0 REVERT JUMPDEST PUSH1 0x0 DUP2 SWAP1 POP DUP2 PUSH1 0x0 MSTORE PUSH1 0x20 PUSH1 0x0 KECCAK256 SWAP1 POP SWAP2 SWAP1 POP JUMP JUMPDEST PUSH1 0x0 PUSH1 0x20 PUSH1 0x1F DUP4 ADD DIV SWAP1 POP SWAP2 SWAP1 POP JUMP JUMPDEST PUSH1 0x0 DUP3 DUP3 SHL SWAP1 POP SWAP3 SWAP2 POP POP JUMP JUMPDEST PUSH1 0x0 PUSH1 0x8 DUP4 MUL PUSH2 0x757 PUSH32 0xFFFFFFFFFFFFFFFFFFFFFFFFFFFFFFFFFFFFFFFFFFFFFFFFFFFFFFFFFFFFFFFF DUP3 PUSH2 0x71A JUMP JUMPDEST PUSH2 0x761 DUP7 DUP4 PUSH2 0x71A JUMP JUMPDEST SWAP6 POP DUP1 NOT DUP5 AND SWAP4 POP DUP1 DUP7 AND DUP5 OR SWAP3 POP POP POP SWAP4 SWAP3 POP POP POP JUMP JUMPDEST PUSH1 0x0 DUP2 SWAP1 POP SWAP2 SWAP1 POP JUMP JUMPDEST PUSH1 0x0 PUSH2 0x79E PUSH2 0x799 PUSH2 0x794 DUP5 PUSH2 0x779 JUMP JUMPDEST PUSH2 0x5F1 JUMP JUMPDEST PUSH2 0x779 JUMP JUMPDEST SWAP1 POP SWAP2 SWAP1 POP JUMP JUMPDEST PUSH1 0x0 DUP2 SWAP1 POP SWAP2 SWAP1 POP JUMP JUMPDEST PUSH2 0x7B8 DUP4 PUSH2 0x783 JUMP JUMPDEST PUSH2 0x7CC PUSH2 0x7C4 DUP3 PUSH2 0x7A5 JUMP JUMPDEST DUP5 DUP5 SLOAD PUSH2 0x727 JUMP JUMPDEST DUP3 SSTORE POP POP POP POP JUMP JUMPDEST PUSH1 0x0 SWAP1 JUMP JUMPDEST PUSH2 0x7E1 PUSH2 0x7D4 JUMP JUMPDEST PUSH2 0x7EC DUP2 DUP5 DUP5 PUSH2 0x7AF JUMP JUMPDEST POP POP POP JUMP JUMPDEST JUMPDEST DUP2 DUP2 LT ISZERO PUSH2 0x810 JUMPI PUSH2 0x805 PUSH1 0x0 DUP3 PUSH2 0x7D9 JUMP JUMPDEST PUSH1 0x1 DUP2 ADD SWAP1 POP PUSH2 0x7F2 JUMP JUMPDEST POP POP JUMP JUMPDEST PUSH1 0x1F DUP3 GT ISZERO PUSH2 0x855 JUMPI PUSH2 0x826 DUP2 PUSH2 0x6F5 JUMP JUMPDEST PUSH2 0x82F DUP5 PUSH2 0x70A JUMP JUMPDEST DUP2 ADD PUSH1 0x20 DUP6 LT ISZERO PUSH2 0x83E JUMPI DUP2 SWAP1 POP JUMPDEST PUSH2 0x852 PUSH2 0x84A DUP6 PUSH2 0x70A JUMP JUMPDEST DUP4 ADD DUP3 PUSH2 0x7F1 JUMP JUMPDEST POP POP JUMPDEST POP POP POP JUMP JUMPDEST PUSH1 0x0 DUP3 DUP3 SHR SWAP1 POP SWAP3 SWAP2 POP POP JUMP JUMPDEST PUSH1 0x0 PUSH2 0x878 PUSH1 0x0 NOT DUP5 PUSH1 0x8 MUL PUSH2 0x85A JUMP JUMPDEST NOT DUP1 DUP4 AND SWAP2 POP POP SWAP3 SWAP2 POP POP JUMP JUMPDEST PUSH1 0x0 PUSH2 0x891 DUP4 DUP4 PUSH2 0x867 JUMP JUMPDEST SWAP2 POP DUP3 PUSH1 0x2 MUL DUP3 OR SWAP1 POP SWAP3 SWAP2 POP POP JUMP JUMPDEST PUSH2 0x8AA DUP3 PUSH2 0x388 JUMP JUMPDEST PUSH8 0xFFFFFFFFFFFFFFFF DUP2 GT ISZERO PUSH2 0x8C3 JUMPI PUSH2 0x8C2 PUSH2 0x6C6 JUMP JUMPDEST JUMPDEST PUSH2 0x8CD DUP3 SLOAD PUSH2 0x4F9 JUMP JUMPDEST PUSH2 0x8D8 DUP3 DUP3 DUP6 PUSH2 0x814 JUMP JUMPDEST PUSH1 0x0 PUSH1 0x20 SWAP1 POP PUSH1 0x1F DUP4 GT PUSH1 0x1 DUP2 EQ PUSH2 0x90B JUMPI PUSH1 0x0 DUP5 ISZERO PUSH2 0x8F9 JUMPI DUP3 DUP8 ADD MLOAD SWAP1 POP JUMPDEST PUSH2 0x903 DUP6 DUP3 PUSH2 0x885 JUMP JUMPDEST DUP7 SSTORE POP PUSH2 0x96B JUMP JUMPDEST PUSH1 0x1F NOT DUP5 AND PUSH2 0x919 DUP7 PUSH2 0x6F5 JUMP JUMPDEST PUSH1 0x0 JUMPDEST DUP3 DUP2 LT ISZERO PUSH2 0x941 JUMPI DUP5 DUP10 ADD MLOAD DUP3 SSTORE PUSH1 0x1 DUP3 ADD SWAP2 POP PUSH1 0x20 DUP6 ADD SWAP5 POP PUSH1 0x20 DUP2 ADD SWAP1 POP PUSH2 0x91C JUMP JUMPDEST DUP7 DUP4 LT ISZERO PUSH2 0x95E JUMPI DUP5 DUP10 ADD MLOAD PUSH2 0x95A PUSH1 0x1F DUP10 AND DUP3 PUSH2 0x867 JUMP JUMPDEST DUP4 SSTORE POP JUMPDEST PUSH1 0x1 PUSH1 0x2 DUP9 MUL ADD DUP9 SSTORE POP POP POP JUMPDEST POP POP POP POP POP POP JUMP INVALID LOG2 PUSH5 0x6970667358 0x22 SLT KECCAK256 PUSH21 0xC2C40A8B2221CEA504B913C2203AB407F51BA3D9C2 0xC7 0xB7 SLT PUSH32 0x79121A01102A64736F6C63430008120033000000000000000000000000000000 "
				},
				"gasEstimates": {
					"creation": {
						"codeDepositCost": "494600",
						"executionCost": "530",
						"totalCost": "495130"
					},
					"external": {
						"callDoesNotExist(address)": "infinite",
						"callFoo(address)": "infinite",
						"data()": "infinite"
					}
				},
				"methodIdentifiers": {
					"callDoesNotExist(address)": "b0feeff6",
					"callFoo(address)": "edcbe76c",
					"data()": "73d4a13a"
				}
			},
			"storageLayout": {
				"storage": [
					{
						"astId": 52,
						"contract": "cuimianMaster/TestCall.sol:Call",
						"label": "data",
						"offset": 0,
						"slot": "0",
						"type": "t_bytes_storage"
					}
				],
				"types": {
					"t_bytes_storage": {
						"encoding": "bytes",
						"label": "bytes",
						"numberOfBytes": "32"
					}
				}
			},
			"userdoc": {
				"kind": "user",
				"methods": {},
				"version": 1
			}
		}
	}
}