{
	"cuimianMaster/TestCall.sol": {
		"TestContract": {
			"abi": [
				{
					"anonymous": false,
					"inputs": [
						{
							"indexed": false,
							"internalType": "string",
							"name": "message",
							"type": "string"
						}
					],
					"name": "Log",
					"type": "event"
				},
				{
					"stateMutability": "payable",
					"type": "fallback"
				},
				{
					"inputs": [
						{
							"internalType": "string",
							"name": "_message",
							"type": "string"
						},
						{
							"internalType": "uint256",
							"name": "_x",
							"type": "uint256"
						}
					],
					"name": "foo",
					"outputs": [
						{
							"internalType": "bool",
							"name": "",
							"type": "bool"
						},
						{
							"internalType": "uint256",
							"name": "",
							"type": "uint256"
						}
					],
					"stateMutability": "payable",
					"type": "function"
				},
				{
					"inputs": [],
					"name": "message",
					"outputs": [
						{
							"internalType": "string",
							"name": "",
							"type": "string"
						}
					],
					"stateMutability": "view",
					"type": "function"
				},
				{
					"inputs": [],
					"name": "x",
					"outputs": [
						{
							"internalType": "uint256",
							"name": "",
							"type": "uint256"
						}
					],
					"stateMutability": "view",
					"type": "function"
				},
				{
					"stateMutability": "payable",
					"type": "receive"
				}
			],
			"devdoc": {
				"kind": "dev",
				"methods": {},
				"version": 1
			},
			"evm": {
				"assembly": "    /* \"cuimianMaster/TestCall.sol\":60:513  contract TestContract {... */\n  mstore(0x40, 0x80)\n  callvalue\n  dup1\n  iszero\n  tag_1\n  jumpi\n  0x00\n  dup1\n  revert\ntag_1:\n  pop\n  dataSize(sub_0)\n  dup1\n  dataOffset(sub_0)\n  0x00\n  codecopy\n  0x00\n  return\nstop\n\nsub_0: assembly {\n        /* \"cuimianMaster/TestCall.sol\":60:513  contract TestContract {... */\n      mstore(0x40, 0x80)\n      jumpi(tag_1, lt(calldatasize, 0x04))\n      shr(0xe0, calldataload(0x00))\n      dup1\n      0x0c55699c\n      eq\n      tag_3\n      jumpi\n      dup1\n      0x24ccab8f\n      eq\n      tag_4\n      jumpi\n      dup1\n      0xe21f37ce\n      eq\n      tag_5\n      jumpi\n      jump(tag_2)\n    tag_1:\n      jumpi(tag_2, calldatasize)\n        /* \"cuimianMaster/TestCall.sol\":302:327  Log(\"receive was called\") */\n      0xcf34ef537ac33ee1ac626ca1587a0a7e8e51561e5514f8cb36afa1c5102b3bab\n      mload(0x40)\n      tag_8\n      swap1\n      tag_9\n      jump\t// in\n    tag_8:\n      mload(0x40)\n      dup1\n      swap2\n      sub\n      swap1\n      log1\n        /* \"cuimianMaster/TestCall.sol\":60:513  contract TestContract {... */\n      stop\n    tag_2:\n        /* \"cuimianMaster/TestCall.sol\":217:243  Log(\"fallback was called\") */\n      0xcf34ef537ac33ee1ac626ca1587a0a7e8e51561e5514f8cb36afa1c5102b3bab\n      mload(0x40)\n      tag_12\n      swap1\n      tag_13\n      jump\t// in\n    tag_12:\n      mload(0x40)\n      dup1\n      swap2\n      sub\n      swap1\n      log1\n        /* \"cuimianMaster/TestCall.sol\":60:513  contract TestContract {... */\n      stop\n        /* \"cuimianMaster/TestCall.sol\":117:130  uint public x */\n    tag_3:\n      callvalue\n      dup1\n      iszero\n      tag_14\n      jumpi\n      0x00\n      dup1\n      revert\n    tag_14:\n      pop\n      tag_15\n      tag_16\n      jump\t// in\n    tag_15:\n      mload(0x40)\n      tag_17\n      swap2\n      swap1\n      tag_18\n      jump\t// in\n    tag_17:\n      mload(0x40)\n      dup1\n      swap2\n      sub\n      swap1\n      return\n        /* \"cuimianMaster/TestCall.sol\":343:510  function foo(string memory _message, uint _x) external payable returns (bool, uint) {... */\n    tag_4:\n      tag_19\n      0x04\n      dup1\n      calldatasize\n      sub\n      dup2\n      add\n      swap1\n      tag_20\n      swap2\n      swap1\n      tag_21\n      jump\t// in\n    tag_20:\n      tag_22\n      jump\t// in\n    tag_19:\n      mload(0x40)\n      tag_23\n      swap3\n      swap2\n      swap1\n      tag_24\n      jump\t// in\n    tag_23:\n      mload(0x40)\n      dup1\n      swap2\n      sub\n      swap1\n      return\n        /* \"cuimianMaster/TestCall.sol\":89:110  string public message */\n    tag_5:\n      callvalue\n      dup1\n      iszero\n      tag_25\n      jumpi\n      0x00\n      dup1\n      revert\n    tag_25:\n      pop\n      tag_26\n      tag_27\n      jump\t// in\n    tag_26:\n      mload(0x40)\n      tag_28\n      swap2\n      swap1\n      tag_29\n      jump\t// in\n    tag_28:\n      mload(0x40)\n      dup1\n      swap2\n      sub\n      swap1\n      return\n        /* \"cuimianMaster/TestCall.sol\":117:130  uint public x */\n    tag_16:\n      sload(0x01)\n      dup2\n      jump\t// out\n        /* \"cuimianMaster/TestCall.sol\":343:510  function foo(string memory _message, uint _x) external payable returns (bool, uint) {... */\n    tag_22:\n        /* \"cuimianMaster/TestCall.sol\":415:419  bool */\n      0x00\n        /* \"cuimianMaster/TestCall.sol\":421:425  uint */\n      dup1\n        /* \"cuimianMaster/TestCall.sol\":448:456  _message */\n      dup4\n        /* \"cuimianMaster/TestCall.sol\":438:445  message */\n      0x00\n        /* \"cuimianMaster/TestCall.sol\":438:456  message = _message */\n      swap1\n      dup2\n      tag_31\n      swap2\n      swap1\n      tag_32\n      jump\t// in\n    tag_31:\n      pop\n        /* \"cuimianMaster/TestCall.sol\":471:473  _x */\n      dup3\n        /* \"cuimianMaster/TestCall.sol\":467:468  x */\n      0x01\n        /* \"cuimianMaster/TestCall.sol\":467:473  x = _x */\n      dup2\n      swap1\n      sstore\n      pop\n        /* \"cuimianMaster/TestCall.sol\":492:496  true */\n      0x01\n        /* \"cuimianMaster/TestCall.sol\":498:501  999 */\n      0x03e7\n        /* \"cuimianMaster/TestCall.sol\":484:502  return (true, 999) */\n      swap2\n      pop\n      swap2\n      pop\n        /* \"cuimianMaster/TestCall.sol\":343:510  function foo(string memory _message, uint _x) external payable returns (bool, uint) {... */\n      swap3\n      pop\n      swap3\n      swap1\n      pop\n      jump\t// out\n        /* \"cuimianMaster/TestCall.sol\":89:110  string public message */\n    tag_27:\n      0x00\n      dup1\n      sload\n      tag_33\n      swap1\n      tag_34\n      jump\t// in\n    tag_33:\n      dup1\n      0x1f\n      add\n      0x20\n      dup1\n      swap2\n      div\n      mul\n      0x20\n      add\n      mload(0x40)\n      swap1\n      dup2\n      add\n      0x40\n      mstore\n      dup1\n      swap3\n      swap2\n      swap1\n      dup2\n      dup2\n      mstore\n      0x20\n      add\n      dup3\n      dup1\n      sload\n      tag_35\n      swap1\n      tag_34\n      jump\t// in\n    tag_35:\n      dup1\n      iszero\n      tag_36\n      jumpi\n      dup1\n      0x1f\n      lt\n      tag_37\n      jumpi\n      0x0100\n      dup1\n      dup4\n      sload\n      div\n      mul\n      dup4\n      mstore\n      swap2\n      0x20\n      add\n      swap2\n      jump(tag_36)\n    tag_37:\n      dup3\n      add\n      swap2\n      swap1\n      0x00\n      mstore\n      keccak256(0x00, 0x20)\n      swap1\n    tag_38:\n      dup2\n      sload\n      dup2\n      mstore\n      swap1\n      0x01\n      add\n      swap1\n      0x20\n      add\n      dup1\n      dup4\n      gt\n      tag_38\n      jumpi\n      dup3\n      swap1\n      sub\n      0x1f\n      and\n      dup3\n      add\n      swap2\n    tag_36:\n      pop\n      pop\n      pop\n      pop\n      pop\n      dup2\n      jump\t// out\n        /* \"#utility.yul\":7:176   */\n    tag_39:\n        /* \"#utility.yul\":91:102   */\n      0x00\n        /* \"#utility.yul\":125:131   */\n      dup3\n        /* \"#utility.yul\":120:123   */\n      dup3\n        /* \"#utility.yul\":113:132   */\n      mstore\n        /* \"#utility.yul\":165:169   */\n      0x20\n        /* \"#utility.yul\":160:163   */\n      dup3\n        /* \"#utility.yul\":156:170   */\n      add\n        /* \"#utility.yul\":141:170   */\n      swap1\n      pop\n        /* \"#utility.yul\":7:176   */\n      swap3\n      swap2\n      pop\n      pop\n      jump\t// out\n        /* \"#utility.yul\":182:350   */\n    tag_40:\n        /* \"#utility.yul\":322:342   */\n      0x72656365697665207761732063616c6c65640000000000000000000000000000\n        /* \"#utility.yul\":318:319   */\n      0x00\n        /* \"#utility.yul\":310:316   */\n      dup3\n        /* \"#utility.yul\":306:320   */\n      add\n        /* \"#utility.yul\":299:343   */\n      mstore\n        /* \"#utility.yul\":182:350   */\n      pop\n      jump\t// out\n        /* \"#utility.yul\":356:722   */\n    tag_41:\n        /* \"#utility.yul\":498:501   */\n      0x00\n        /* \"#utility.yul\":519:586   */\n      tag_86\n        /* \"#utility.yul\":583:585   */\n      0x12\n        /* \"#utility.yul\":578:581   */\n      dup4\n        /* \"#utility.yul\":519:586   */\n      tag_39\n      jump\t// in\n    tag_86:\n        /* \"#utility.yul\":512:586   */\n      swap2\n      pop\n        /* \"#utility.yul\":595:688   */\n      tag_87\n        /* \"#utility.yul\":684:687   */\n      dup3\n        /* \"#utility.yul\":595:688   */\n      tag_40\n      jump\t// in\n    tag_87:\n        /* \"#utility.yul\":713:715   */\n      0x20\n        /* \"#utility.yul\":708:711   */\n      dup3\n        /* \"#utility.yul\":704:716   */\n      add\n        /* \"#utility.yul\":697:716   */\n      swap1\n      pop\n        /* \"#utility.yul\":356:722   */\n      swap2\n      swap1\n      pop\n      jump\t// out\n        /* \"#utility.yul\":728:1147   */\n    tag_9:\n        /* \"#utility.yul\":894:898   */\n      0x00\n        /* \"#utility.yul\":932:934   */\n      0x20\n        /* \"#utility.yul\":921:930   */\n      dup3\n        /* \"#utility.yul\":917:935   */\n      add\n        /* \"#utility.yul\":909:935   */\n      swap1\n      pop\n        /* \"#utility.yul\":981:990   */\n      dup2\n        /* \"#utility.yul\":975:979   */\n      dup2\n        /* \"#utility.yul\":971:991   */\n      sub\n        /* \"#utility.yul\":967:968   */\n      0x00\n        /* \"#utility.yul\":956:965   */\n      dup4\n        /* \"#utility.yul\":952:969   */\n      add\n        /* \"#utility.yul\":945:992   */\n      mstore\n        /* \"#utility.yul\":1009:1140   */\n      tag_89\n        /* \"#utility.yul\":1135:1139   */\n      dup2\n        /* \"#utility.yul\":1009:1140   */\n      tag_41\n      jump\t// in\n    tag_89:\n        /* \"#utility.yul\":1001:1140   */\n      swap1\n      pop\n        /* \"#utility.yul\":728:1147   */\n      swap2\n      swap1\n      pop\n      jump\t// out\n        /* \"#utility.yul\":1153:1322   */\n    tag_42:\n        /* \"#utility.yul\":1293:1314   */\n      0x66616c6c6261636b207761732063616c6c656400000000000000000000000000\n        /* \"#utility.yul\":1289:1290   */\n      0x00\n        /* \"#utility.yul\":1281:1287   */\n      dup3\n        /* \"#utility.yul\":1277:1291   */\n      add\n        /* \"#utility.yul\":1270:1315   */\n      mstore\n        /* \"#utility.yul\":1153:1322   */\n      pop\n      jump\t// out\n        /* \"#utility.yul\":1328:1694   */\n    tag_43:\n        /* \"#utility.yul\":1470:1473   */\n      0x00\n        /* \"#utility.yul\":1491:1558   */\n      tag_92\n        /* \"#utility.yul\":1555:1557   */\n      0x13\n        /* \"#utility.yul\":1550:1553   */\n      dup4\n        /* \"#utility.yul\":1491:1558   */\n      tag_39\n      jump\t// in\n    tag_92:\n        /* \"#utility.yul\":1484:1558   */\n      swap2\n      pop\n        /* \"#utility.yul\":1567:1660   */\n      tag_93\n        /* \"#utility.yul\":1656:1659   */\n      dup3\n        /* \"#utility.yul\":1567:1660   */\n      tag_42\n      jump\t// in\n    tag_93:\n        /* \"#utility.yul\":1685:1687   */\n      0x20\n        /* \"#utility.yul\":1680:1683   */\n      dup3\n        /* \"#utility.yul\":1676:1688   */\n      add\n        /* \"#utility.yul\":1669:1688   */\n      swap1\n      pop\n        /* \"#utility.yul\":1328:1694   */\n      swap2\n      swap1\n      pop\n      jump\t// out\n        /* \"#utility.yul\":1700:2119   */\n    tag_13:\n        /* \"#utility.yul\":1866:1870   */\n      0x00\n        /* \"#utility.yul\":1904:1906   */\n      0x20\n        /* \"#utility.yul\":1893:1902   */\n      dup3\n        /* \"#utility.yul\":1889:1907   */\n      add\n        /* \"#utility.yul\":1881:1907   */\n      swap1\n      pop\n        /* \"#utility.yul\":1953:1962   */\n      dup2\n        /* \"#utility.yul\":1947:1951   */\n      dup2\n        /* \"#utility.yul\":1943:1963   */\n      sub\n        /* \"#utility.yul\":1939:1940   */\n      0x00\n        /* \"#utility.yul\":1928:1937   */\n      dup4\n        /* \"#utility.yul\":1924:1941   */\n      add\n        /* \"#utility.yul\":1917:1964   */\n      mstore\n        /* \"#utility.yul\":1981:2112   */\n      tag_95\n        /* \"#utility.yul\":2107:2111   */\n      dup2\n        /* \"#utility.yul\":1981:2112   */\n      tag_43\n      jump\t// in\n    tag_95:\n        /* \"#utility.yul\":1973:2112   */\n      swap1\n      pop\n        /* \"#utility.yul\":1700:2119   */\n      swap2\n      swap1\n      pop\n      jump\t// out\n        /* \"#utility.yul\":2125:2202   */\n    tag_44:\n        /* \"#utility.yul\":2162:2169   */\n      0x00\n        /* \"#utility.yul\":2191:2196   */\n      dup2\n        /* \"#utility.yul\":2180:2196   */\n      swap1\n      pop\n        /* \"#utility.yul\":2125:2202   */\n      swap2\n      swap1\n      pop\n      jump\t// out\n        /* \"#utility.yul\":2208:2326   */\n    tag_45:\n        /* \"#utility.yul\":2295:2319   */\n      tag_98\n        /* \"#utility.yul\":2313:2318   */\n      dup2\n        /* \"#utility.yul\":2295:2319   */\n      tag_44\n      jump\t// in\n    tag_98:\n        /* \"#utility.yul\":2290:2293   */\n      dup3\n        /* \"#utility.yul\":2283:2320   */\n      mstore\n        /* \"#utility.yul\":2208:2326   */\n      pop\n      pop\n      jump\t// out\n        /* \"#utility.yul\":2332:2554   */\n    tag_18:\n        /* \"#utility.yul\":2425:2429   */\n      0x00\n        /* \"#utility.yul\":2463:2465   */\n      0x20\n        /* \"#utility.yul\":2452:2461   */\n      dup3\n        /* \"#utility.yul\":2448:2466   */\n      add\n        /* \"#utility.yul\":2440:2466   */\n      swap1\n      pop\n        /* \"#utility.yul\":2476:2547   */\n      tag_100\n        /* \"#utility.yul\":2544:2545   */\n      0x00\n        /* \"#utility.yul\":2533:2542   */\n      dup4\n        /* \"#utility.yul\":2529:2546   */\n      add\n        /* \"#utility.yul\":2520:2526   */\n      dup5\n        /* \"#utility.yul\":2476:2547   */\n      tag_45\n      jump\t// in\n    tag_100:\n        /* \"#utility.yul\":2332:2554   */\n      swap3\n      swap2\n      pop\n      pop\n      jump\t// out\n        /* \"#utility.yul\":2560:2635   */\n    tag_46:\n        /* \"#utility.yul\":2593:2599   */\n      0x00\n        /* \"#utility.yul\":2626:2628   */\n      0x40\n        /* \"#utility.yul\":2620:2629   */\n      mload\n        /* \"#utility.yul\":2610:2629   */\n      swap1\n      pop\n        /* \"#utility.yul\":2560:2635   */\n      swap1\n      jump\t// out\n        /* \"#utility.yul\":2641:2758   */\n    tag_47:\n        /* \"#utility.yul\":2750:2751   */\n      0x00\n        /* \"#utility.yul\":2747:2748   */\n      dup1\n        /* \"#utility.yul\":2740:2752   */\n      revert\n        /* \"#utility.yul\":2764:2881   */\n    tag_48:\n        /* \"#utility.yul\":2873:2874   */\n      0x00\n        /* \"#utility.yul\":2870:2871   */\n      dup1\n        /* \"#utility.yul\":2863:2875   */\n      revert\n        /* \"#utility.yul\":2887:3004   */\n    tag_49:\n        /* \"#utility.yul\":2996:2997   */\n      0x00\n        /* \"#utility.yul\":2993:2994   */\n      dup1\n        /* \"#utility.yul\":2986:2998   */\n      revert\n        /* \"#utility.yul\":3010:3127   */\n    tag_50:\n        /* \"#utility.yul\":3119:3120   */\n      0x00\n        /* \"#utility.yul\":3116:3117   */\n      dup1\n        /* \"#utility.yul\":3109:3121   */\n      revert\n        /* \"#utility.yul\":3133:3235   */\n    tag_51:\n        /* \"#utility.yul\":3174:3180   */\n      0x00\n        /* \"#utility.yul\":3225:3227   */\n      0x1f\n        /* \"#utility.yul\":3221:3228   */\n      not\n        /* \"#utility.yul\":3216:3218   */\n      0x1f\n        /* \"#utility.yul\":3209:3214   */\n      dup4\n        /* \"#utility.yul\":3205:3219   */\n      add\n        /* \"#utility.yul\":3201:3229   */\n      and\n        /* \"#utility.yul\":3191:3229   */\n      swap1\n      pop\n        /* \"#utility.yul\":3133:3235   */\n      swap2\n      swap1\n      pop\n      jump\t// out\n        /* \"#utility.yul\":3241:3421   */\n    tag_52:\n        /* \"#utility.yul\":3289:3366   */\n      0x4e487b7100000000000000000000000000000000000000000000000000000000\n        /* \"#utility.yul\":3286:3287   */\n      0x00\n        /* \"#utility.yul\":3279:3367   */\n      mstore\n        /* \"#utility.yul\":3386:3390   */\n      0x41\n        /* \"#utility.yul\":3383:3384   */\n      0x04\n        /* \"#utility.yul\":3376:3391   */\n      mstore\n        /* \"#utility.yul\":3410:3414   */\n      0x24\n        /* \"#utility.yul\":3407:3408   */\n      0x00\n        /* \"#utility.yul\":3400:3415   */\n      revert\n        /* \"#utility.yul\":3427:3708   */\n    tag_53:\n        /* \"#utility.yul\":3510:3537   */\n      tag_109\n        /* \"#utility.yul\":3532:3536   */\n      dup3\n        /* \"#utility.yul\":3510:3537   */\n      tag_51\n      jump\t// in\n    tag_109:\n        /* \"#utility.yul\":3502:3508   */\n      dup2\n        /* \"#utility.yul\":3498:3538   */\n      add\n        /* \"#utility.yul\":3640:3646   */\n      dup2\n        /* \"#utility.yul\":3628:3638   */\n      dup2\n        /* \"#utility.yul\":3625:3647   */\n      lt\n        /* \"#utility.yul\":3604:3622   */\n      0xffffffffffffffff\n        /* \"#utility.yul\":3592:3602   */\n      dup3\n        /* \"#utility.yul\":3589:3623   */\n      gt\n        /* \"#utility.yul\":3586:3648   */\n      or\n        /* \"#utility.yul\":3583:3671   */\n      iszero\n      tag_110\n      jumpi\n        /* \"#utility.yul\":3651:3669   */\n      tag_111\n      tag_52\n      jump\t// in\n    tag_111:\n        /* \"#utility.yul\":3583:3671   */\n    tag_110:\n        /* \"#utility.yul\":3691:3701   */\n      dup1\n        /* \"#utility.yul\":3687:3689   */\n      0x40\n        /* \"#utility.yul\":3680:3702   */\n      mstore\n        /* \"#utility.yul\":3470:3708   */\n      pop\n        /* \"#utility.yul\":3427:3708   */\n      pop\n      pop\n      jump\t// out\n        /* \"#utility.yul\":3714:3843   */\n    tag_54:\n        /* \"#utility.yul\":3748:3754   */\n      0x00\n        /* \"#utility.yul\":3775:3795   */\n      tag_113\n      tag_46\n      jump\t// in\n    tag_113:\n        /* \"#utility.yul\":3765:3795   */\n      swap1\n      pop\n        /* \"#utility.yul\":3804:3837   */\n      tag_114\n        /* \"#utility.yul\":3832:3836   */\n      dup3\n        /* \"#utility.yul\":3824:3830   */\n      dup3\n        /* \"#utility.yul\":3804:3837   */\n      tag_53\n      jump\t// in\n    tag_114:\n        /* \"#utility.yul\":3714:3843   */\n      swap2\n      swap1\n      pop\n      jump\t// out\n        /* \"#utility.yul\":3849:4157   */\n    tag_55:\n        /* \"#utility.yul\":3911:3915   */\n      0x00\n        /* \"#utility.yul\":4001:4019   */\n      0xffffffffffffffff\n        /* \"#utility.yul\":3993:3999   */\n      dup3\n        /* \"#utility.yul\":3990:4020   */\n      gt\n        /* \"#utility.yul\":3987:4043   */\n      iszero\n      tag_116\n      jumpi\n        /* \"#utility.yul\":4023:4041   */\n      tag_117\n      tag_52\n      jump\t// in\n    tag_117:\n        /* \"#utility.yul\":3987:4043   */\n    tag_116:\n        /* \"#utility.yul\":4061:4090   */\n      tag_118\n        /* \"#utility.yul\":4083:4089   */\n      dup3\n        /* \"#utility.yul\":4061:4090   */\n      tag_51\n      jump\t// in\n    tag_118:\n        /* \"#utility.yul\":4053:4090   */\n      swap1\n      pop\n        /* \"#utility.yul\":4145:4149   */\n      0x20\n        /* \"#utility.yul\":4139:4143   */\n      dup2\n        /* \"#utility.yul\":4135:4150   */\n      add\n        /* \"#utility.yul\":4127:4150   */\n      swap1\n      pop\n        /* \"#utility.yul\":3849:4157   */\n      swap2\n      swap1\n      pop\n      jump\t// out\n        /* \"#utility.yul\":4163:4309   */\n    tag_56:\n        /* \"#utility.yul\":4260:4266   */\n      dup3\n        /* \"#utility.yul\":4255:4258   */\n      dup2\n        /* \"#utility.yul\":4250:4253   */\n      dup4\n        /* \"#utility.yul\":4237:4267   */\n      calldatacopy\n        /* \"#utility.yul\":4301:4302   */\n      0x00\n        /* \"#utility.yul\":4292:4298   */\n      dup4\n        /* \"#utility.yul\":4287:4290   */\n      dup4\n        /* \"#utility.yul\":4283:4299   */\n      add\n        /* \"#utility.yul\":4276:4303   */\n      mstore\n        /* \"#utility.yul\":4163:4309   */\n      pop\n      pop\n      pop\n      jump\t// out\n        /* \"#utility.yul\":4315:4740   */\n    tag_57:\n        /* \"#utility.yul\":4393:4398   */\n      0x00\n        /* \"#utility.yul\":4418:4484   */\n      tag_121\n        /* \"#utility.yul\":4434:4483   */\n      tag_122\n        /* \"#utility.yul\":4476:4482   */\n      dup5\n        /* \"#utility.yul\":4434:4483   */\n      tag_55\n      jump\t// in\n    tag_122:\n        /* \"#utility.yul\":4418:4484   */\n      tag_54\n      jump\t// in\n    tag_121:\n        /* \"#utility.yul\":4409:4484   */\n      swap1\n      pop\n        /* \"#utility.yul\":4507:4513   */\n      dup3\n        /* \"#utility.yul\":4500:4505   */\n      dup2\n        /* \"#utility.yul\":4493:4514   */\n      mstore\n        /* \"#utility.yul\":4545:4549   */\n      0x20\n        /* \"#utility.yul\":4538:4543   */\n      dup2\n        /* \"#utility.yul\":4534:4550   */\n      add\n        /* \"#utility.yul\":4583:4586   */\n      dup5\n        /* \"#utility.yul\":4574:4580   */\n      dup5\n        /* \"#utility.yul\":4569:4572   */\n      dup5\n        /* \"#utility.yul\":4565:4581   */\n      add\n        /* \"#utility.yul\":4562:4587   */\n      gt\n        /* \"#utility.yul\":4559:4671   */\n      iszero\n      tag_123\n      jumpi\n        /* \"#utility.yul\":4590:4669   */\n      tag_124\n      tag_50\n      jump\t// in\n    tag_124:\n        /* \"#utility.yul\":4559:4671   */\n    tag_123:\n        /* \"#utility.yul\":4680:4734   */\n      tag_125\n        /* \"#utility.yul\":4727:4733   */\n      dup5\n        /* \"#utility.yul\":4722:4725   */\n      dup3\n        /* \"#utility.yul\":4717:4720   */\n      dup6\n        /* \"#utility.yul\":4680:4734   */\n      tag_56\n      jump\t// in\n    tag_125:\n        /* \"#utility.yul\":4399:4740   */\n      pop\n        /* \"#utility.yul\":4315:4740   */\n      swap4\n      swap3\n      pop\n      pop\n      pop\n      jump\t// out\n        /* \"#utility.yul\":4760:5100   */\n    tag_58:\n        /* \"#utility.yul\":4816:4821   */\n      0x00\n        /* \"#utility.yul\":4865:4868   */\n      dup3\n        /* \"#utility.yul\":4858:4862   */\n      0x1f\n        /* \"#utility.yul\":4850:4856   */\n      dup4\n        /* \"#utility.yul\":4846:4863   */\n      add\n        /* \"#utility.yul\":4842:4869   */\n      slt\n        /* \"#utility.yul\":4832:4954   */\n      tag_127\n      jumpi\n        /* \"#utility.yul\":4873:4952   */\n      tag_128\n      tag_49\n      jump\t// in\n    tag_128:\n        /* \"#utility.yul\":4832:4954   */\n    tag_127:\n        /* \"#utility.yul\":4990:4996   */\n      dup2\n        /* \"#utility.yul\":4977:4997   */\n      calldataload\n        /* \"#utility.yul\":5015:5094   */\n      tag_129\n        /* \"#utility.yul\":5090:5093   */\n      dup5\n        /* \"#utility.yul\":5082:5088   */\n      dup3\n        /* \"#utility.yul\":5075:5079   */\n      0x20\n        /* \"#utility.yul\":5067:5073   */\n      dup7\n        /* \"#utility.yul\":5063:5080   */\n      add\n        /* \"#utility.yul\":5015:5094   */\n      tag_57\n      jump\t// in\n    tag_129:\n        /* \"#utility.yul\":5006:5094   */\n      swap2\n      pop\n        /* \"#utility.yul\":4822:5100   */\n      pop\n        /* \"#utility.yul\":4760:5100   */\n      swap3\n      swap2\n      pop\n      pop\n      jump\t// out\n        /* \"#utility.yul\":5106:5228   */\n    tag_59:\n        /* \"#utility.yul\":5179:5203   */\n      tag_131\n        /* \"#utility.yul\":5197:5202   */\n      dup2\n        /* \"#utility.yul\":5179:5203   */\n      tag_44\n      jump\t// in\n    tag_131:\n        /* \"#utility.yul\":5172:5177   */\n      dup2\n        /* \"#utility.yul\":5169:5204   */\n      eq\n        /* \"#utility.yul\":5159:5222   */\n      tag_132\n      jumpi\n        /* \"#utility.yul\":5218:5219   */\n      0x00\n        /* \"#utility.yul\":5215:5216   */\n      dup1\n        /* \"#utility.yul\":5208:5220   */\n      revert\n        /* \"#utility.yul\":5159:5222   */\n    tag_132:\n        /* \"#utility.yul\":5106:5228   */\n      pop\n      jump\t// out\n        /* \"#utility.yul\":5234:5373   */\n    tag_60:\n        /* \"#utility.yul\":5280:5285   */\n      0x00\n        /* \"#utility.yul\":5318:5324   */\n      dup2\n        /* \"#utility.yul\":5305:5325   */\n      calldataload\n        /* \"#utility.yul\":5296:5325   */\n      swap1\n      pop\n        /* \"#utility.yul\":5334:5367   */\n      tag_134\n        /* \"#utility.yul\":5361:5366   */\n      dup2\n        /* \"#utility.yul\":5334:5367   */\n      tag_59\n      jump\t// in\n    tag_134:\n        /* \"#utility.yul\":5234:5373   */\n      swap3\n      swap2\n      pop\n      pop\n      jump\t// out\n        /* \"#utility.yul\":5379:6033   */\n    tag_21:\n        /* \"#utility.yul\":5457:5463   */\n      0x00\n        /* \"#utility.yul\":5465:5471   */\n      dup1\n        /* \"#utility.yul\":5514:5516   */\n      0x40\n        /* \"#utility.yul\":5502:5511   */\n      dup4\n        /* \"#utility.yul\":5493:5500   */\n      dup6\n        /* \"#utility.yul\":5489:5512   */\n      sub\n        /* \"#utility.yul\":5485:5517   */\n      slt\n        /* \"#utility.yul\":5482:5601   */\n      iszero\n      tag_136\n      jumpi\n        /* \"#utility.yul\":5520:5599   */\n      tag_137\n      tag_47\n      jump\t// in\n    tag_137:\n        /* \"#utility.yul\":5482:5601   */\n    tag_136:\n        /* \"#utility.yul\":5668:5669   */\n      0x00\n        /* \"#utility.yul\":5657:5666   */\n      dup4\n        /* \"#utility.yul\":5653:5670   */\n      add\n        /* \"#utility.yul\":5640:5671   */\n      calldataload\n        /* \"#utility.yul\":5698:5716   */\n      0xffffffffffffffff\n        /* \"#utility.yul\":5690:5696   */\n      dup2\n        /* \"#utility.yul\":5687:5717   */\n      gt\n        /* \"#utility.yul\":5684:5801   */\n      iszero\n      tag_138\n      jumpi\n        /* \"#utility.yul\":5720:5799   */\n      tag_139\n      tag_48\n      jump\t// in\n    tag_139:\n        /* \"#utility.yul\":5684:5801   */\n    tag_138:\n        /* \"#utility.yul\":5825:5888   */\n      tag_140\n        /* \"#utility.yul\":5880:5887   */\n      dup6\n        /* \"#utility.yul\":5871:5877   */\n      dup3\n        /* \"#utility.yul\":5860:5869   */\n      dup7\n        /* \"#utility.yul\":5856:5878   */\n      add\n        /* \"#utility.yul\":5825:5888   */\n      tag_58\n      jump\t// in\n    tag_140:\n        /* \"#utility.yul\":5815:5888   */\n      swap3\n      pop\n        /* \"#utility.yul\":5611:5898   */\n      pop\n        /* \"#utility.yul\":5937:5939   */\n      0x20\n        /* \"#utility.yul\":5963:6016   */\n      tag_141\n        /* \"#utility.yul\":6008:6015   */\n      dup6\n        /* \"#utility.yul\":5999:6005   */\n      dup3\n        /* \"#utility.yul\":5988:5997   */\n      dup7\n        /* \"#utility.yul\":5984:6006   */\n      add\n        /* \"#utility.yul\":5963:6016   */\n      tag_60\n      jump\t// in\n    tag_141:\n        /* \"#utility.yul\":5953:6016   */\n      swap2\n      pop\n        /* \"#utility.yul\":5908:6026   */\n      pop\n        /* \"#utility.yul\":5379:6033   */\n      swap3\n      pop\n      swap3\n      swap1\n      pop\n      jump\t// out\n        /* \"#utility.yul\":6039:6129   */\n    tag_61:\n        /* \"#utility.yul\":6073:6080   */\n      0x00\n        /* \"#utility.yul\":6116:6121   */\n      dup2\n        /* \"#utility.yul\":6109:6122   */\n      iszero\n        /* \"#utility.yul\":6102:6123   */\n      iszero\n        /* \"#utility.yul\":6091:6123   */\n      swap1\n      pop\n        /* \"#utility.yul\":6039:6129   */\n      swap2\n      swap1\n      pop\n      jump\t// out\n        /* \"#utility.yul\":6135:6244   */\n    tag_62:\n        /* \"#utility.yul\":6216:6237   */\n      tag_144\n        /* \"#utility.yul\":6231:6236   */\n      dup2\n        /* \"#utility.yul\":6216:6237   */\n      tag_61\n      jump\t// in\n    tag_144:\n        /* \"#utility.yul\":6211:6214   */\n      dup3\n        /* \"#utility.yul\":6204:6238   */\n      mstore\n        /* \"#utility.yul\":6135:6244   */\n      pop\n      pop\n      jump\t// out\n        /* \"#utility.yul\":6250:6570   */\n    tag_24:\n        /* \"#utility.yul\":6365:6369   */\n      0x00\n        /* \"#utility.yul\":6403:6405   */\n      0x40\n        /* \"#utility.yul\":6392:6401   */\n      dup3\n        /* \"#utility.yul\":6388:6406   */\n      add\n        /* \"#utility.yul\":6380:6406   */\n      swap1\n      pop\n        /* \"#utility.yul\":6416:6481   */\n      tag_146\n        /* \"#utility.yul\":6478:6479   */\n      0x00\n        /* \"#utility.yul\":6467:6476   */\n      dup4\n        /* \"#utility.yul\":6463:6480   */\n      add\n        /* \"#utility.yul\":6454:6460   */\n      dup6\n        /* \"#utility.yul\":6416:6481   */\n      tag_62\n      jump\t// in\n    tag_146:\n        /* \"#utility.yul\":6491:6563   */\n      tag_147\n        /* \"#utility.yul\":6559:6561   */\n      0x20\n        /* \"#utility.yul\":6548:6557   */\n      dup4\n        /* \"#utility.yul\":6544:6562   */\n      add\n        /* \"#utility.yul\":6535:6541   */\n      dup5\n        /* \"#utility.yul\":6491:6563   */\n      tag_45\n      jump\t// in\n    tag_147:\n        /* \"#utility.yul\":6250:6570   */\n      swap4\n      swap3\n      pop\n      pop\n      pop\n      jump\t// out\n        /* \"#utility.yul\":6576:6675   */\n    tag_63:\n        /* \"#utility.yul\":6628:6634   */\n      0x00\n        /* \"#utility.yul\":6662:6667   */\n      dup2\n        /* \"#utility.yul\":6656:6668   */\n      mload\n        /* \"#utility.yul\":6646:6668   */\n      swap1\n      pop\n        /* \"#utility.yul\":6576:6675   */\n      swap2\n      swap1\n      pop\n      jump\t// out\n        /* \"#utility.yul\":6681:6927   */\n    tag_64:\n        /* \"#utility.yul\":6762:6763   */\n      0x00\n        /* \"#utility.yul\":6772:6885   */\n    tag_150:\n        /* \"#utility.yul\":6786:6792   */\n      dup4\n        /* \"#utility.yul\":6783:6784   */\n      dup2\n        /* \"#utility.yul\":6780:6793   */\n      lt\n        /* \"#utility.yul\":6772:6885   */\n      iszero\n      tag_152\n      jumpi\n        /* \"#utility.yul\":6871:6872   */\n      dup1\n        /* \"#utility.yul\":6866:6869   */\n      dup3\n        /* \"#utility.yul\":6862:6873   */\n      add\n        /* \"#utility.yul\":6856:6874   */\n      mload\n        /* \"#utility.yul\":6852:6853   */\n      dup2\n        /* \"#utility.yul\":6847:6850   */\n      dup5\n        /* \"#utility.yul\":6843:6854   */\n      add\n        /* \"#utility.yul\":6836:6875   */\n      mstore\n        /* \"#utility.yul\":6808:6810   */\n      0x20\n        /* \"#utility.yul\":6805:6806   */\n      dup2\n        /* \"#utility.yul\":6801:6811   */\n      add\n        /* \"#utility.yul\":6796:6811   */\n      swap1\n      pop\n        /* \"#utility.yul\":6772:6885   */\n      jump(tag_150)\n    tag_152:\n        /* \"#utility.yul\":6919:6920   */\n      0x00\n        /* \"#utility.yul\":6910:6916   */\n      dup5\n        /* \"#utility.yul\":6905:6908   */\n      dup5\n        /* \"#utility.yul\":6901:6917   */\n      add\n        /* \"#utility.yul\":6894:6921   */\n      mstore\n        /* \"#utility.yul\":6743:6927   */\n      pop\n        /* \"#utility.yul\":6681:6927   */\n      pop\n      pop\n      pop\n      jump\t// out\n        /* \"#utility.yul\":6933:7310   */\n    tag_65:\n        /* \"#utility.yul\":7021:7024   */\n      0x00\n        /* \"#utility.yul\":7049:7088   */\n      tag_154\n        /* \"#utility.yul\":7082:7087   */\n      dup3\n        /* \"#utility.yul\":7049:7088   */\n      tag_63\n      jump\t// in\n    tag_154:\n        /* \"#utility.yul\":7104:7175   */\n      tag_155\n        /* \"#utility.yul\":7168:7174   */\n      dup2\n        /* \"#utility.yul\":7163:7166   */\n      dup6\n        /* \"#utility.yul\":7104:7175   */\n      tag_39\n      jump\t// in\n    tag_155:\n        /* \"#utility.yul\":7097:7175   */\n      swap4\n      pop\n        /* \"#utility.yul\":7184:7249   */\n      tag_156\n        /* \"#utility.yul\":7242:7248   */\n      dup2\n        /* \"#utility.yul\":7237:7240   */\n      dup6\n        /* \"#utility.yul\":7230:7234   */\n      0x20\n        /* \"#utility.yul\":7223:7228   */\n      dup7\n        /* \"#utility.yul\":7219:7235   */\n      add\n        /* \"#utility.yul\":7184:7249   */\n      tag_64\n      jump\t// in\n    tag_156:\n        /* \"#utility.yul\":7274:7303   */\n      tag_157\n        /* \"#utility.yul\":7296:7302   */\n      dup2\n        /* \"#utility.yul\":7274:7303   */\n      tag_51\n      jump\t// in\n    tag_157:\n        /* \"#utility.yul\":7269:7272   */\n      dup5\n        /* \"#utility.yul\":7265:7304   */\n      add\n        /* \"#utility.yul\":7258:7304   */\n      swap2\n      pop\n        /* \"#utility.yul\":7025:7310   */\n      pop\n        /* \"#utility.yul\":6933:7310   */\n      swap3\n      swap2\n      pop\n      pop\n      jump\t// out\n        /* \"#utility.yul\":7316:7629   */\n    tag_29:\n        /* \"#utility.yul\":7429:7433   */\n      0x00\n        /* \"#utility.yul\":7467:7469   */\n      0x20\n        /* \"#utility.yul\":7456:7465   */\n      dup3\n        /* \"#utility.yul\":7452:7470   */\n      add\n        /* \"#utility.yul\":7444:7470   */\n      swap1\n      pop\n        /* \"#utility.yul\":7516:7525   */\n      dup2\n        /* \"#utility.yul\":7510:7514   */\n      dup2\n        /* \"#utility.yul\":7506:7526   */\n      sub\n        /* \"#utility.yul\":7502:7503   */\n      0x00\n        /* \"#utility.yul\":7491:7500   */\n      dup4\n        /* \"#utility.yul\":7487:7504   */\n      add\n        /* \"#utility.yul\":7480:7527   */\n      mstore\n        /* \"#utility.yul\":7544:7622   */\n      tag_159\n        /* \"#utility.yul\":7617:7621   */\n      dup2\n        /* \"#utility.yul\":7608:7614   */\n      dup5\n        /* \"#utility.yul\":7544:7622   */\n      tag_65\n      jump\t// in\n    tag_159:\n        /* \"#utility.yul\":7536:7622   */\n      swap1\n      pop\n        /* \"#utility.yul\":7316:7629   */\n      swap3\n      swap2\n      pop\n      pop\n      jump\t// out\n        /* \"#utility.yul\":7635:7815   */\n    tag_66:\n        /* \"#utility.yul\":7683:7760   */\n      0x4e487b7100000000000000000000000000000000000000000000000000000000\n        /* \"#utility.yul\":7680:7681   */\n      0x00\n        /* \"#utility.yul\":7673:7761   */\n      mstore\n        /* \"#utility.yul\":7780:7784   */\n      0x22\n        /* \"#utility.yul\":7777:7778   */\n      0x04\n        /* \"#utility.yul\":7770:7785   */\n      mstore\n        /* \"#utility.yul\":7804:7808   */\n      0x24\n        /* \"#utility.yul\":7801:7802   */\n      0x00\n        /* \"#utility.yul\":7794:7809   */\n      revert\n        /* \"#utility.yul\":7821:8141   */\n    tag_34:\n        /* \"#utility.yul\":7865:7871   */\n      0x00\n        /* \"#utility.yul\":7902:7903   */\n      0x02\n        /* \"#utility.yul\":7896:7900   */\n      dup3\n        /* \"#utility.yul\":7892:7904   */\n      div\n        /* \"#utility.yul\":7882:7904   */\n      swap1\n      pop\n        /* \"#utility.yul\":7949:7950   */\n      0x01\n        /* \"#utility.yul\":7943:7947   */\n      dup3\n        /* \"#utility.yul\":7939:7951   */\n      and\n        /* \"#utility.yul\":7970:7988   */\n      dup1\n        /* \"#utility.yul\":7960:8041   */\n      tag_162\n      jumpi\n        /* \"#utility.yul\":8026:8030   */\n      0x7f\n        /* \"#utility.yul\":8018:8024   */\n      dup3\n        /* \"#utility.yul\":8014:8031   */\n      and\n        /* \"#utility.yul\":8004:8031   */\n      swap2\n      pop\n        /* \"#utility.yul\":7960:8041   */\n    tag_162:\n        /* \"#utility.yul\":8088:8090   */\n      0x20\n        /* \"#utility.yul\":8080:8086   */\n      dup3\n        /* \"#utility.yul\":8077:8091   */\n      lt\n        /* \"#utility.yul\":8057:8075   */\n      dup2\n        /* \"#utility.yul\":8054:8092   */\n      sub\n        /* \"#utility.yul\":8051:8135   */\n      tag_163\n      jumpi\n        /* \"#utility.yul\":8107:8125   */\n      tag_164\n      tag_66\n      jump\t// in\n    tag_164:\n        /* \"#utility.yul\":8051:8135   */\n    tag_163:\n        /* \"#utility.yul\":7872:8141   */\n      pop\n        /* \"#utility.yul\":7821:8141   */\n      swap2\n      swap1\n      pop\n      jump\t// out\n        /* \"#utility.yul\":8147:8288   */\n    tag_67:\n        /* \"#utility.yul\":8196:8200   */\n      0x00\n        /* \"#utility.yul\":8219:8222   */\n      dup2\n        /* \"#utility.yul\":8211:8222   */\n      swap1\n      pop\n        /* \"#utility.yul\":8242:8245   */\n      dup2\n        /* \"#utility.yul\":8239:8240   */\n      0x00\n        /* \"#utility.yul\":8232:8246   */\n      mstore\n        /* \"#utility.yul\":8276:8280   */\n      0x20\n        /* \"#utility.yul\":8273:8274   */\n      0x00\n        /* \"#utility.yul\":8263:8281   */\n      keccak256\n        /* \"#utility.yul\":8255:8281   */\n      swap1\n      pop\n        /* \"#utility.yul\":8147:8288   */\n      swap2\n      swap1\n      pop\n      jump\t// out\n        /* \"#utility.yul\":8294:8387   */\n    tag_68:\n        /* \"#utility.yul\":8331:8337   */\n      0x00\n        /* \"#utility.yul\":8378:8380   */\n      0x20\n        /* \"#utility.yul\":8373:8375   */\n      0x1f\n        /* \"#utility.yul\":8366:8371   */\n      dup4\n        /* \"#utility.yul\":8362:8376   */\n      add\n        /* \"#utility.yul\":8358:8381   */\n      div\n        /* \"#utility.yul\":8348:8381   */\n      swap1\n      pop\n        /* \"#utility.yul\":8294:8387   */\n      swap2\n      swap1\n      pop\n      jump\t// out\n        /* \"#utility.yul\":8393:8500   */\n    tag_69:\n        /* \"#utility.yul\":8437:8445   */\n      0x00\n        /* \"#utility.yul\":8487:8492   */\n      dup3\n        /* \"#utility.yul\":8481:8485   */\n      dup3\n        /* \"#utility.yul\":8477:8493   */\n      shl\n        /* \"#utility.yul\":8456:8493   */\n      swap1\n      pop\n        /* \"#utility.yul\":8393:8500   */\n      swap3\n      swap2\n      pop\n      pop\n      jump\t// out\n        /* \"#utility.yul\":8506:8899   */\n    tag_70:\n        /* \"#utility.yul\":8575:8581   */\n      0x00\n        /* \"#utility.yul\":8625:8626   */\n      0x08\n        /* \"#utility.yul\":8613:8623   */\n      dup4\n        /* \"#utility.yul\":8609:8627   */\n      mul\n        /* \"#utility.yul\":8648:8745   */\n      tag_169\n        /* \"#utility.yul\":8678:8744   */\n      0xffffffffffffffffffffffffffffffffffffffffffffffffffffffffffffffff\n        /* \"#utility.yul\":8667:8676   */\n      dup3\n        /* \"#utility.yul\":8648:8745   */\n      tag_69\n      jump\t// in\n    tag_169:\n        /* \"#utility.yul\":8766:8805   */\n      tag_170\n        /* \"#utility.yul\":8796:8804   */\n      dup7\n        /* \"#utility.yul\":8785:8794   */\n      dup4\n        /* \"#utility.yul\":8766:8805   */\n      tag_69\n      jump\t// in\n    tag_170:\n        /* \"#utility.yul\":8754:8805   */\n      swap6\n      pop\n        /* \"#utility.yul\":8838:8842   */\n      dup1\n        /* \"#utility.yul\":8834:8843   */\n      not\n        /* \"#utility.yul\":8827:8832   */\n      dup5\n        /* \"#utility.yul\":8823:8844   */\n      and\n        /* \"#utility.yul\":8814:8844   */\n      swap4\n      pop\n        /* \"#utility.yul\":8887:8891   */\n      dup1\n        /* \"#utility.yul\":8877:8885   */\n      dup7\n        /* \"#utility.yul\":8873:8892   */\n      and\n        /* \"#utility.yul\":8866:8871   */\n      dup5\n        /* \"#utility.yul\":8863:8893   */\n      or\n        /* \"#utility.yul\":8853:8893   */\n      swap3\n      pop\n        /* \"#utility.yul\":8582:8899   */\n      pop\n      pop\n        /* \"#utility.yul\":8506:8899   */\n      swap4\n      swap3\n      pop\n      pop\n      pop\n      jump\t// out\n        /* \"#utility.yul\":8905:8965   */\n    tag_71:\n        /* \"#utility.yul\":8933:8936   */\n      0x00\n        /* \"#utility.yul\":8954:8959   */\n      dup2\n        /* \"#utility.yul\":8947:8959   */\n      swap1\n      pop\n        /* \"#utility.yul\":8905:8965   */\n      swap2\n      swap1\n      pop\n      jump\t// out\n        /* \"#utility.yul\":8971:9113   */\n    tag_72:\n        /* \"#utility.yul\":9021:9030   */\n      0x00\n        /* \"#utility.yul\":9054:9107   */\n      tag_173\n        /* \"#utility.yul\":9072:9106   */\n      tag_174\n        /* \"#utility.yul\":9081:9105   */\n      tag_175\n        /* \"#utility.yul\":9099:9104   */\n      dup5\n        /* \"#utility.yul\":9081:9105   */\n      tag_44\n      jump\t// in\n    tag_175:\n        /* \"#utility.yul\":9072:9106   */\n      tag_71\n      jump\t// in\n    tag_174:\n        /* \"#utility.yul\":9054:9107   */\n      tag_44\n      jump\t// in\n    tag_173:\n        /* \"#utility.yul\":9041:9107   */\n      swap1\n      pop\n        /* \"#utility.yul\":8971:9113   */\n      swap2\n      swap1\n      pop\n      jump\t// out\n        /* \"#utility.yul\":9119:9194   */\n    tag_73:\n        /* \"#utility.yul\":9162:9165   */\n      0x00\n        /* \"#utility.yul\":9183:9188   */\n      dup2\n        /* \"#utility.yul\":9176:9188   */\n      swap1\n      pop\n        /* \"#utility.yul\":9119:9194   */\n      swap2\n      swap1\n      pop\n      jump\t// out\n        /* \"#utility.yul\":9200:9469   */\n    tag_74:\n        /* \"#utility.yul\":9310:9349   */\n      tag_178\n        /* \"#utility.yul\":9341:9348   */\n      dup4\n        /* \"#utility.yul\":9310:9349   */\n      tag_72\n      jump\t// in\n    tag_178:\n        /* \"#utility.yul\":9371:9462   */\n      tag_179\n        /* \"#utility.yul\":9420:9461   */\n      tag_180\n        /* \"#utility.yul\":9444:9460   */\n      dup3\n        /* \"#utility.yul\":9420:9461   */\n      tag_73\n      jump\t// in\n    tag_180:\n        /* \"#utility.yul\":9412:9418   */\n      dup5\n        /* \"#utility.yul\":9405:9409   */\n      dup5\n        /* \"#utility.yul\":9399:9410   */\n      sload\n        /* \"#utility.yul\":9371:9462   */\n      tag_70\n      jump\t// in\n    tag_179:\n        /* \"#utility.yul\":9365:9369   */\n      dup3\n        /* \"#utility.yul\":9358:9463   */\n      sstore\n        /* \"#utility.yul\":9276:9469   */\n      pop\n        /* \"#utility.yul\":9200:9469   */\n      pop\n      pop\n      pop\n      jump\t// out\n        /* \"#utility.yul\":9475:9548   */\n    tag_75:\n        /* \"#utility.yul\":9520:9523   */\n      0x00\n        /* \"#utility.yul\":9475:9548   */\n      swap1\n      jump\t// out\n        /* \"#utility.yul\":9554:9743   */\n    tag_76:\n        /* \"#utility.yul\":9631:9663   */\n      tag_183\n      tag_75\n      jump\t// in\n    tag_183:\n        /* \"#utility.yul\":9672:9737   */\n      tag_184\n        /* \"#utility.yul\":9730:9736   */\n      dup2\n        /* \"#utility.yul\":9722:9728   */\n      dup5\n        /* \"#utility.yul\":9716:9720   */\n      dup5\n        /* \"#utility.yul\":9672:9737   */\n      tag_74\n      jump\t// in\n    tag_184:\n        /* \"#utility.yul\":9607:9743   */\n      pop\n        /* \"#utility.yul\":9554:9743   */\n      pop\n      pop\n      jump\t// out\n        /* \"#utility.yul\":9749:9935   */\n    tag_77:\n        /* \"#utility.yul\":9809:9929   */\n    tag_186:\n        /* \"#utility.yul\":9826:9829   */\n      dup2\n        /* \"#utility.yul\":9819:9824   */\n      dup2\n        /* \"#utility.yul\":9816:9830   */\n      lt\n        /* \"#utility.yul\":9809:9929   */\n      iszero\n      tag_188\n      jumpi\n        /* \"#utility.yul\":9880:9919   */\n      tag_189\n        /* \"#utility.yul\":9917:9918   */\n      0x00\n        /* \"#utility.yul\":9910:9915   */\n      dup3\n        /* \"#utility.yul\":9880:9919   */\n      tag_76\n      jump\t// in\n    tag_189:\n        /* \"#utility.yul\":9853:9854   */\n      0x01\n        /* \"#utility.yul\":9846:9851   */\n      dup2\n        /* \"#utility.yul\":9842:9855   */\n      add\n        /* \"#utility.yul\":9833:9855   */\n      swap1\n      pop\n        /* \"#utility.yul\":9809:9929   */\n      jump(tag_186)\n    tag_188:\n        /* \"#utility.yul\":9749:9935   */\n      pop\n      pop\n      jump\t// out\n        /* \"#utility.yul\":9941:10484   */\n    tag_78:\n        /* \"#utility.yul\":10042:10044   */\n      0x1f\n        /* \"#utility.yul\":10037:10040   */\n      dup3\n        /* \"#utility.yul\":10034:10045   */\n      gt\n        /* \"#utility.yul\":10031:10477   */\n      iszero\n      tag_191\n      jumpi\n        /* \"#utility.yul\":10076:10114   */\n      tag_192\n        /* \"#utility.yul\":10108:10113   */\n      dup2\n        /* \"#utility.yul\":10076:10114   */\n      tag_67\n      jump\t// in\n    tag_192:\n        /* \"#utility.yul\":10160:10189   */\n      tag_193\n        /* \"#utility.yul\":10178:10188   */\n      dup5\n        /* \"#utility.yul\":10160:10189   */\n      tag_68\n      jump\t// in\n    tag_193:\n        /* \"#utility.yul\":10150:10158   */\n      dup2\n        /* \"#utility.yul\":10146:10190   */\n      add\n        /* \"#utility.yul\":10343:10345   */\n      0x20\n        /* \"#utility.yul\":10331:10341   */\n      dup6\n        /* \"#utility.yul\":10328:10346   */\n      lt\n        /* \"#utility.yul\":10325:10374   */\n      iszero\n      tag_194\n      jumpi\n        /* \"#utility.yul\":10364:10372   */\n      dup2\n        /* \"#utility.yul\":10349:10372   */\n      swap1\n      pop\n        /* \"#utility.yul\":10325:10374   */\n    tag_194:\n        /* \"#utility.yul\":10387:10467   */\n      tag_195\n        /* \"#utility.yul\":10443:10465   */\n      tag_196\n        /* \"#utility.yul\":10461:10464   */\n      dup6\n        /* \"#utility.yul\":10443:10465   */\n      tag_68\n      jump\t// in\n    tag_196:\n        /* \"#utility.yul\":10433:10441   */\n      dup4\n        /* \"#utility.yul\":10429:10466   */\n      add\n        /* \"#utility.yul\":10416:10427   */\n      dup3\n        /* \"#utility.yul\":10387:10467   */\n      tag_77\n      jump\t// in\n    tag_195:\n        /* \"#utility.yul\":10046:10477   */\n      pop\n      pop\n        /* \"#utility.yul\":10031:10477   */\n    tag_191:\n        /* \"#utility.yul\":9941:10484   */\n      pop\n      pop\n      pop\n      jump\t// out\n        /* \"#utility.yul\":10490:10607   */\n    tag_79:\n        /* \"#utility.yul\":10544:10552   */\n      0x00\n        /* \"#utility.yul\":10594:10599   */\n      dup3\n        /* \"#utility.yul\":10588:10592   */\n      dup3\n        /* \"#utility.yul\":10584:10600   */\n      shr\n        /* \"#utility.yul\":10563:10600   */\n      swap1\n      pop\n        /* \"#utility.yul\":10490:10607   */\n      swap3\n      swap2\n      pop\n      pop\n      jump\t// out\n        /* \"#utility.yul\":10613:10782   */\n    tag_80:\n        /* \"#utility.yul\":10657:10663   */\n      0x00\n        /* \"#utility.yul\":10690:10741   */\n      tag_199\n        /* \"#utility.yul\":10738:10739   */\n      0x00\n        /* \"#utility.yul\":10734:10740   */\n      not\n        /* \"#utility.yul\":10726:10731   */\n      dup5\n        /* \"#utility.yul\":10723:10724   */\n      0x08\n        /* \"#utility.yul\":10719:10732   */\n      mul\n        /* \"#utility.yul\":10690:10741   */\n      tag_79\n      jump\t// in\n    tag_199:\n        /* \"#utility.yul\":10686:10742   */\n      not\n        /* \"#utility.yul\":10771:10775   */\n      dup1\n        /* \"#utility.yul\":10765:10769   */\n      dup4\n        /* \"#utility.yul\":10761:10776   */\n      and\n        /* \"#utility.yul\":10751:10776   */\n      swap2\n      pop\n        /* \"#utility.yul\":10664:10782   */\n      pop\n        /* \"#utility.yul\":10613:10782   */\n      swap3\n      swap2\n      pop\n      pop\n      jump\t// out\n        /* \"#utility.yul\":10787:11082   */\n    tag_81:\n        /* \"#utility.yul\":10863:10867   */\n      0x00\n        /* \"#utility.yul\":11009:11038   */\n      tag_201\n        /* \"#utility.yul\":11034:11037   */\n      dup4\n        /* \"#utility.yul\":11028:11032   */\n      dup4\n        /* \"#utility.yul\":11009:11038   */\n      tag_80\n      jump\t// in\n    tag_201:\n        /* \"#utility.yul\":11001:11038   */\n      swap2\n      pop\n        /* \"#utility.yul\":11071:11074   */\n      dup3\n        /* \"#utility.yul\":11068:11069   */\n      0x02\n        /* \"#utility.yul\":11064:11075   */\n      mul\n        /* \"#utility.yul\":11058:11062   */\n      dup3\n        /* \"#utility.yul\":11055:11076   */\n      or\n        /* \"#utility.yul\":11047:11076   */\n      swap1\n      pop\n        /* \"#utility.yul\":10787:11082   */\n      swap3\n      swap2\n      pop\n      pop\n      jump\t// out\n        /* \"#utility.yul\":11087:12482   */\n    tag_32:\n        /* \"#utility.yul\":11204:11241   */\n      tag_203\n        /* \"#utility.yul\":11237:11240   */\n      dup3\n        /* \"#utility.yul\":11204:11241   */\n      tag_63\n      jump\t// in\n    tag_203:\n        /* \"#utility.yul\":11306:11324   */\n      0xffffffffffffffff\n        /* \"#utility.yul\":11298:11304   */\n      dup2\n        /* \"#utility.yul\":11295:11325   */\n      gt\n        /* \"#utility.yul\":11292:11348   */\n      iszero\n      tag_204\n      jumpi\n        /* \"#utility.yul\":11328:11346   */\n      tag_205\n      tag_52\n      jump\t// in\n    tag_205:\n        /* \"#utility.yul\":11292:11348   */\n    tag_204:\n        /* \"#utility.yul\":11372:11410   */\n      tag_206\n        /* \"#utility.yul\":11404:11408   */\n      dup3\n        /* \"#utility.yul\":11398:11409   */\n      sload\n        /* \"#utility.yul\":11372:11410   */\n      tag_34\n      jump\t// in\n    tag_206:\n        /* \"#utility.yul\":11457:11524   */\n      tag_207\n        /* \"#utility.yul\":11517:11523   */\n      dup3\n        /* \"#utility.yul\":11509:11515   */\n      dup3\n        /* \"#utility.yul\":11503:11507   */\n      dup6\n        /* \"#utility.yul\":11457:11524   */\n      tag_78\n      jump\t// in\n    tag_207:\n        /* \"#utility.yul\":11551:11552   */\n      0x00\n        /* \"#utility.yul\":11575:11579   */\n      0x20\n        /* \"#utility.yul\":11562:11579   */\n      swap1\n      pop\n        /* \"#utility.yul\":11607:11609   */\n      0x1f\n        /* \"#utility.yul\":11599:11605   */\n      dup4\n        /* \"#utility.yul\":11596:11610   */\n      gt\n        /* \"#utility.yul\":11624:11625   */\n      0x01\n        /* \"#utility.yul\":11619:12237   */\n      dup2\n      eq\n      tag_209\n      jumpi\n        /* \"#utility.yul\":12281:12282   */\n      0x00\n        /* \"#utility.yul\":12298:12304   */\n      dup5\n        /* \"#utility.yul\":12295:12372   */\n      iszero\n      tag_210\n      jumpi\n        /* \"#utility.yul\":12347:12356   */\n      dup3\n        /* \"#utility.yul\":12342:12345   */\n      dup8\n        /* \"#utility.yul\":12338:12357   */\n      add\n        /* \"#utility.yul\":12332:12358   */\n      mload\n        /* \"#utility.yul\":12323:12358   */\n      swap1\n      pop\n        /* \"#utility.yul\":12295:12372   */\n    tag_210:\n        /* \"#utility.yul\":12398:12465   */\n      tag_211\n        /* \"#utility.yul\":12458:12464   */\n      dup6\n        /* \"#utility.yul\":12451:12456   */\n      dup3\n        /* \"#utility.yul\":12398:12465   */\n      tag_81\n      jump\t// in\n    tag_211:\n        /* \"#utility.yul\":12392:12396   */\n      dup7\n        /* \"#utility.yul\":12385:12466   */\n      sstore\n        /* \"#utility.yul\":12254:12476   */\n      pop\n        /* \"#utility.yul\":11589:12476   */\n      jump(tag_208)\n        /* \"#utility.yul\":11619:12237   */\n    tag_209:\n        /* \"#utility.yul\":11671:11675   */\n      0x1f\n        /* \"#utility.yul\":11667:11676   */\n      not\n        /* \"#utility.yul\":11659:11665   */\n      dup5\n        /* \"#utility.yul\":11655:11677   */\n      and\n        /* \"#utility.yul\":11705:11742   */\n      tag_212\n        /* \"#utility.yul\":11737:11741   */\n      dup7\n        /* \"#utility.yul\":11705:11742   */\n      tag_67\n      jump\t// in\n    tag_212:\n        /* \"#utility.yul\":11764:11765   */\n      0x00\n        /* \"#utility.yul\":11778:11986   */\n    tag_213:\n        /* \"#utility.yul\":11792:11799   */\n      dup3\n        /* \"#utility.yul\":11789:11790   */\n      dup2\n        /* \"#utility.yul\":11786:11800   */\n      lt\n        /* \"#utility.yul\":11778:11986   */\n      iszero\n      tag_215\n      jumpi\n        /* \"#utility.yul\":11871:11880   */\n      dup5\n        /* \"#utility.yul\":11866:11869   */\n      dup10\n        /* \"#utility.yul\":11862:11881   */\n      add\n        /* \"#utility.yul\":11856:11882   */\n      mload\n        /* \"#utility.yul\":11848:11854   */\n      dup3\n        /* \"#utility.yul\":11841:11883   */\n      sstore\n        /* \"#utility.yul\":11922:11923   */\n      0x01\n        /* \"#utility.yul\":11914:11920   */\n      dup3\n        /* \"#utility.yul\":11910:11924   */\n      add\n        /* \"#utility.yul\":11900:11924   */\n      swap2\n      pop\n        /* \"#utility.yul\":11969:11971   */\n      0x20\n        /* \"#utility.yul\":11958:11967   */\n      dup6\n        /* \"#utility.yul\":11954:11972   */\n      add\n        /* \"#utility.yul\":11941:11972   */\n      swap5\n      pop\n        /* \"#utility.yul\":11815:11819   */\n      0x20\n        /* \"#utility.yul\":11812:11813   */\n      dup2\n        /* \"#utility.yul\":11808:11820   */\n      add\n        /* \"#utility.yul\":11803:11820   */\n      swap1\n      pop\n        /* \"#utility.yul\":11778:11986   */\n      jump(tag_213)\n    tag_215:\n        /* \"#utility.yul\":12014:12020   */\n      dup7\n        /* \"#utility.yul\":12005:12012   */\n      dup4\n        /* \"#utility.yul\":12002:12021   */\n      lt\n        /* \"#utility.yul\":11999:12178   */\n      iszero\n      tag_216\n      jumpi\n        /* \"#utility.yul\":12072:12081   */\n      dup5\n        /* \"#utility.yul\":12067:12070   */\n      dup10\n        /* \"#utility.yul\":12063:12082   */\n      add\n        /* \"#utility.yul\":12057:12083   */\n      mload\n        /* \"#utility.yul\":12115:12163   */\n      tag_217\n        /* \"#utility.yul\":12157:12161   */\n      0x1f\n        /* \"#utility.yul\":12149:12155   */\n      dup10\n        /* \"#utility.yul\":12145:12162   */\n      and\n        /* \"#utility.yul\":12134:12143   */\n      dup3\n        /* \"#utility.yul\":12115:12163   */\n      tag_80\n      jump\t// in\n    tag_217:\n        /* \"#utility.yul\":12107:12113   */\n      dup4\n        /* \"#utility.yul\":12100:12164   */\n      sstore\n        /* \"#utility.yul\":12022:12178   */\n      pop\n        /* \"#utility.yul\":11999:12178   */\n    tag_216:\n        /* \"#utility.yul\":12224:12225   */\n      0x01\n        /* \"#utility.yul\":12220:12221   */\n      0x02\n        /* \"#utility.yul\":12212:12218   */\n      dup9\n        /* \"#utility.yul\":12208:12222   */\n      mul\n        /* \"#utility.yul\":12204:12226   */\n      add\n        /* \"#utility.yul\":12198:12202   */\n      dup9\n        /* \"#utility.yul\":12191:12227   */\n      sstore\n        /* \"#utility.yul\":11626:12237   */\n      pop\n      pop\n      pop\n        /* \"#utility.yul\":11589:12476   */\n    tag_208:\n      pop\n        /* \"#utility.yul\":11179:12482   */\n      pop\n      pop\n      pop\n        /* \"#utility.yul\":11087:12482   */\n      pop\n      pop\n      jump\t// out\n\n    auxdata: 0xa2646970667358221220b980e13e11a74e4151e919f0f530559472747aaa3f059c75c576477a6fb3834e64736f6c63430008120033\n}\n",
				"bytecode": {
					"linkReferences": {},
					"object": "608060405234801561001057600080fd5b506108d7806100206000396000f3fe6080604052600436106100385760003560e01c80630c55699c146100ab57806324ccab8f146100d6578063e21f37ce1461010757610074565b36610074577fcf34ef537ac33ee1ac626ca1587a0a7e8e51561e5514f8cb36afa1c5102b3bab60405161006a9061024d565b60405180910390a1005b7fcf34ef537ac33ee1ac626ca1587a0a7e8e51561e5514f8cb36afa1c5102b3bab6040516100a1906102b9565b60405180910390a1005b3480156100b757600080fd5b506100c0610132565b6040516100cd91906102f2565b60405180910390f35b6100f060048036038101906100eb9190610493565b610138565b6040516100fe92919061050a565b60405180910390f35b34801561011357600080fd5b5061011c610162565b60405161012991906105a1565b60405180910390f35b60015481565b600080836000908161014a91906107cf565b508260018190555060016103e7915091509250929050565b6000805461016f906105f2565b80601f016020809104026020016040519081016040528092919081815260200182805461019b906105f2565b80156101e85780601f106101bd576101008083540402835291602001916101e8565b820191906000526020600020905b8154815290600101906020018083116101cb57829003601f168201915b505050505081565b600082825260208201905092915050565b7f72656365697665207761732063616c6c65640000000000000000000000000000600082015250565b60006102376012836101f0565b915061024282610201565b602082019050919050565b600060208201905081810360008301526102668161022a565b9050919050565b7f66616c6c6261636b207761732063616c6c656400000000000000000000000000600082015250565b60006102a36013836101f0565b91506102ae8261026d565b602082019050919050565b600060208201905081810360008301526102d281610296565b9050919050565b6000819050919050565b6102ec816102d9565b82525050565b600060208201905061030760008301846102e3565b92915050565b6000604051905090565b600080fd5b600080fd5b600080fd5b600080fd5b6000601f19601f8301169050919050565b7f4e487b7100000000000000000000000000000000000000000000000000000000600052604160045260246000fd5b6103748261032b565b810181811067ffffffffffffffff821117156103935761039261033c565b5b80604052505050565b60006103a661030d565b90506103b2828261036b565b919050565b600067ffffffffffffffff8211156103d2576103d161033c565b5b6103db8261032b565b9050602081019050919050565b82818337600083830152505050565b600061040a610405846103b7565b61039c565b90508281526020810184848401111561042657610425610326565b5b6104318482856103e8565b509392505050565b600082601f83011261044e5761044d610321565b5b813561045e8482602086016103f7565b91505092915050565b610470816102d9565b811461047b57600080fd5b50565b60008135905061048d81610467565b92915050565b600080604083850312156104aa576104a9610317565b5b600083013567ffffffffffffffff8111156104c8576104c761031c565b5b6104d485828601610439565b92505060206104e58582860161047e565b9150509250929050565b60008115159050919050565b610504816104ef565b82525050565b600060408201905061051f60008301856104fb565b61052c60208301846102e3565b9392505050565b600081519050919050565b60005b8381101561055c578082015181840152602081019050610541565b60008484015250505050565b600061057382610533565b61057d81856101f0565b935061058d81856020860161053e565b6105968161032b565b840191505092915050565b600060208201905081810360008301526105bb8184610568565b905092915050565b7f4e487b7100000000000000000000000000000000000000000000000000000000600052602260045260246000fd5b6000600282049050600182168061060a57607f821691505b60208210810361061d5761061c6105c3565b5b50919050565b60008190508160005260206000209050919050565b60006020601f8301049050919050565b600082821b905092915050565b6000600883026106857fffffffffffffffffffffffffffffffffffffffffffffffffffffffffffffffff82610648565b61068f8683610648565b95508019841693508086168417925050509392505050565b6000819050919050565b60006106cc6106c76106c2846102d9565b6106a7565b6102d9565b9050919050565b6000819050919050565b6106e6836106b1565b6106fa6106f2826106d3565b848454610655565b825550505050565b600090565b61070f610702565b61071a8184846106dd565b505050565b5b8181101561073e57610733600082610707565b600181019050610720565b5050565b601f8211156107835761075481610623565b61075d84610638565b8101602085101561076c578190505b61078061077885610638565b83018261071f565b50505b505050565b600082821c905092915050565b60006107a660001984600802610788565b1980831691505092915050565b60006107bf8383610795565b9150826002028217905092915050565b6107d882610533565b67ffffffffffffffff8111156107f1576107f061033c565b5b6107fb82546105f2565b610806828285610742565b600060209050601f8311600181146108395760008415610827578287015190505b61083185826107b3565b865550610899565b601f19841661084786610623565b60005b8281101561086f5784890151825560018201915060208501945060208101905061084a565b8683101561088c5784890151610888601f891682610795565b8355505b6001600288020188555050505b50505050505056fea2646970667358221220b980e13e11a74e4151e919f0f530559472747aaa3f059c75c576477a6fb3834e64736f6c63430008120033",
					"opcodes": "PUSH1 0x80 PUSH1 0x40 MSTORE CALLVALUE DUP1 ISZERO PUSH2 0x10 JUMPI PUSH1 0x0 DUP1 REVERT JUMPDEST POP PUSH2 0x8D7 DUP1 PUSH2 0x20 PUSH1 0x0 CODECOPY PUSH1 0x0 RETURN INVALID PUSH1 0x80 PUSH1 0x40 MSTORE PUSH1 0x4 CALLDATASIZE LT PUSH2 0x38 JUMPI PUSH1 0x0 CALLDATALOAD PUSH1 0xE0 SHR DUP1 PUSH4 0xC55699C EQ PUSH2 0xAB JUMPI DUP1 PUSH4 0x24CCAB8F EQ PUSH2 0xD6 JUMPI DUP1 PUSH4 0xE21F37CE EQ PUSH2 0x107 JUMPI PUSH2 0x74 JUMP JUMPDEST CALLDATASIZE PUSH2 0x74 JUMPI PUSH32 0xCF34EF537AC33EE1AC626CA1587A0A7E8E51561E5514F8CB36AFA1C5102B3BAB PUSH1 0x40 MLOAD PUSH2 0x6A SWAP1 PUSH2 0x24D JUMP JUMPDEST PUSH1 0x40 MLOAD DUP1 SWAP2 SUB SWAP1 LOG1 STOP JUMPDEST PUSH32 0xCF34EF537AC33EE1AC626CA1587A0A7E8E51561E5514F8CB36AFA1C5102B3BAB PUSH1 0x40 MLOAD PUSH2 0xA1 SWAP1 PUSH2 0x2B9 JUMP JUMPDEST PUSH1 0x40 MLOAD DUP1 SWAP2 SUB SWAP1 LOG1 STOP JUMPDEST CALLVALUE DUP1 ISZERO PUSH2 0xB7 JUMPI PUSH1 0x0 DUP1 REVERT JUMPDEST POP PUSH2 0xC0 PUSH2 0x132 JUMP JUMPDEST PUSH1 0x40 MLOAD PUSH2 0xCD SWAP2 SWAP1 PUSH2 0x2F2 JUMP JUMPDEST PUSH1 0x40 MLOAD DUP1 SWAP2 SUB SWAP1 RETURN JUMPDEST PUSH2 0xF0 PUSH1 0x4 DUP1 CALLDATASIZE SUB DUP2 ADD SWAP1 PUSH2 0xEB SWAP2 SWAP1 PUSH2 0x493 JUMP JUMPDEST PUSH2 0x138 JUMP JUMPDEST PUSH1 0x40 MLOAD PUSH2 0xFE SWAP3 SWAP2 SWAP1 PUSH2 0x50A JUMP JUMPDEST PUSH1 0x40 MLOAD DUP1 SWAP2 SUB SWAP1 RETURN JUMPDEST CALLVALUE DUP1 ISZERO PUSH2 0x113 JUMPI PUSH1 0x0 DUP1 REVERT JUMPDEST POP PUSH2 0x11C PUSH2 0x162 JUMP JUMPDEST PUSH1 0x40 MLOAD PUSH2 0x129 SWAP2 SWAP1 PUSH2 0x5A1 JUMP JUMPDEST PUSH1 0x40 MLOAD DUP1 SWAP2 SUB SWAP1 RETURN JUMPDEST PUSH1 0x1 SLOAD DUP2 JUMP JUMPDEST PUSH1 0x0 DUP1 DUP4 PUSH1 0x0 SWAP1 DUP2 PUSH2 0x14A SWAP2 SWAP1 PUSH2 0x7CF JUMP JUMPDEST POP DUP3 PUSH1 0x1 DUP2 SWAP1 SSTORE POP PUSH1 0x1 PUSH2 0x3E7 SWAP2 POP SWAP2 POP SWAP3 POP SWAP3 SWAP1 POP JUMP JUMPDEST PUSH1 0x0 DUP1 SLOAD PUSH2 0x16F SWAP1 PUSH2 0x5F2 JUMP JUMPDEST DUP1 PUSH1 0x1F ADD PUSH1 0x20 DUP1 SWAP2 DIV MUL PUSH1 0x20 ADD PUSH1 0x40 MLOAD SWAP1 DUP2 ADD PUSH1 0x40 MSTORE DUP1 SWAP3 SWAP2 SWAP1 DUP2 DUP2 MSTORE PUSH1 0x20 ADD DUP3 DUP1 SLOAD PUSH2 0x19B SWAP1 PUSH2 0x5F2 JUMP JUMPDEST DUP1 ISZERO PUSH2 0x1E8 JUMPI DUP1 PUSH1 0x1F LT PUSH2 0x1BD JUMPI PUSH2 0x100 DUP1 DUP4 SLOAD DIV MUL DUP4 MSTORE SWAP2 PUSH1 0x20 ADD SWAP2 PUSH2 0x1E8 JUMP JUMPDEST DUP3 ADD SWAP2 SWAP1 PUSH1 0x0 MSTORE PUSH1 0x20 PUSH1 0x0 KECCAK256 SWAP1 JUMPDEST DUP2 SLOAD DUP2 MSTORE SWAP1 PUSH1 0x1 ADD SWAP1 PUSH1 0x20 ADD DUP1 DUP4 GT PUSH2 0x1CB JUMPI DUP3 SWAP1 SUB PUSH1 0x1F AND DUP3 ADD SWAP2 JUMPDEST POP POP POP POP POP DUP2 JUMP JUMPDEST PUSH1 0x0 DUP3 DUP3 MSTORE PUSH1 0x20 DUP3 ADD SWAP1 POP SWAP3 SWAP2 POP POP JUMP JUMPDEST PUSH32 0x72656365697665207761732063616C6C65640000000000000000000000000000 PUSH1 0x0 DUP3 ADD MSTORE POP JUMP JUMPDEST PUSH1 0x0 PUSH2 0x237 PUSH1 0x12 DUP4 PUSH2 0x1F0 JUMP JUMPDEST SWAP2 POP PUSH2 0x242 DUP3 PUSH2 0x201 JUMP JUMPDEST PUSH1 0x20 DUP3 ADD SWAP1 POP SWAP2 SWAP1 POP JUMP JUMPDEST PUSH1 0x0 PUSH1 0x20 DUP3 ADD SWAP1 POP DUP2 DUP2 SUB PUSH1 0x0 DUP4 ADD MSTORE PUSH2 0x266 DUP2 PUSH2 0x22A JUMP JUMPDEST SWAP1 POP SWAP2 SWAP1 POP JUMP JUMPDEST PUSH32 0x66616C6C6261636B207761732063616C6C656400000000000000000000000000 PUSH1 0x0 DUP3 ADD MSTORE POP JUMP JUMPDEST PUSH1 0x0 PUSH2 0x2A3 PUSH1 0x13 DUP4 PUSH2 0x1F0 JUMP JUMPDEST SWAP2 POP PUSH2 0x2AE DUP3 PUSH2 0x26D JUMP JUMPDEST PUSH1 0x20 DUP3 ADD SWAP1 POP SWAP2 SWAP1 POP JUMP JUMPDEST PUSH1 0x0 PUSH1 0x20 DUP3 ADD SWAP1 POP DUP2 DUP2 SUB PUSH1 0x0 DUP4 ADD MSTORE PUSH2 0x2D2 DUP2 PUSH2 0x296 JUMP JUMPDEST SWAP1 POP SWAP2 SWAP1 POP JUMP JUMPDEST PUSH1 0x0 DUP2 SWAP1 POP SWAP2 SWAP1 POP JUMP JUMPDEST PUSH2 0x2EC DUP2 PUSH2 0x2D9 JUMP JUMPDEST DUP3 MSTORE POP POP JUMP JUMPDEST PUSH1 0x0 PUSH1 0x20 DUP3 ADD SWAP1 POP PUSH2 0x307 PUSH1 0x0 DUP4 ADD DUP5 PUSH2 0x2E3 JUMP JUMPDEST SWAP3 SWAP2 POP POP JUMP JUMPDEST PUSH1 0x0 PUSH1 0x40 MLOAD SWAP1 POP SWAP1 JUMP JUMPDEST PUSH1 0x0 DUP1 REVERT JUMPDEST PUSH1 0x0 DUP1 REVERT JUMPDEST PUSH1 0x0 DUP1 REVERT JUMPDEST PUSH1 0x0 DUP1 REVERT JUMPDEST PUSH1 0x0 PUSH1 0x1F NOT PUSH1 0x1F DUP4 ADD AND SWAP1 POP SWAP2 SWAP1 POP JUMP JUMPDEST PUSH32 0x4E487B7100000000000000000000000000000000000000000000000000000000 PUSH1 0x0 MSTORE PUSH1 0x41 PUSH1 0x4 MSTORE PUSH1 0x24 PUSH1 0x0 REVERT JUMPDEST PUSH2 0x374 DUP3 PUSH2 0x32B JUMP JUMPDEST DUP2 ADD DUP2 DUP2 LT PUSH8 0xFFFFFFFFFFFFFFFF DUP3 GT OR ISZERO PUSH2 0x393 JUMPI PUSH2 0x392 PUSH2 0x33C JUMP JUMPDEST JUMPDEST DUP1 PUSH1 0x40 MSTORE POP POP POP JUMP JUMPDEST PUSH1 0x0 PUSH2 0x3A6 PUSH2 0x30D JUMP JUMPDEST SWAP1 POP PUSH2 0x3B2 DUP3 DUP3 PUSH2 0x36B JUMP JUMPDEST SWAP2 SWAP1 POP JUMP JUMPDEST PUSH1 0x0 PUSH8 0xFFFFFFFFFFFFFFFF DUP3 GT ISZERO PUSH2 0x3D2 JUMPI PUSH2 0x3D1 PUSH2 0x33C JUMP JUMPDEST JUMPDEST PUSH2 0x3DB DUP3 PUSH2 0x32B JUMP JUMPDEST SWAP1 POP PUSH1 0x20 DUP2 ADD SWAP1 POP SWAP2 SWAP1 POP JUMP JUMPDEST DUP3 DUP2 DUP4 CALLDATACOPY PUSH1 0x0 DUP4 DUP4 ADD MSTORE POP POP POP JUMP JUMPDEST PUSH1 0x0 PUSH2 0x40A PUSH2 0x405 DUP5 PUSH2 0x3B7 JUMP JUMPDEST PUSH2 0x39C JUMP JUMPDEST SWAP1 POP DUP3 DUP2 MSTORE PUSH1 0x20 DUP2 ADD DUP5 DUP5 DUP5 ADD GT ISZERO PUSH2 0x426 JUMPI PUSH2 0x425 PUSH2 0x326 JUMP JUMPDEST JUMPDEST PUSH2 0x431 DUP5 DUP3 DUP6 PUSH2 0x3E8 JUMP JUMPDEST POP SWAP4 SWAP3 POP POP POP JUMP JUMPDEST PUSH1 0x0 DUP3 PUSH1 0x1F DUP4 ADD SLT PUSH2 0x44E JUMPI PUSH2 0x44D PUSH2 0x321 JUMP JUMPDEST JUMPDEST DUP2 CALLDATALOAD PUSH2 0x45E DUP5 DUP3 PUSH1 0x20 DUP7 ADD PUSH2 0x3F7 JUMP JUMPDEST SWAP2 POP POP SWAP3 SWAP2 POP POP JUMP JUMPDEST PUSH2 0x470 DUP2 PUSH2 0x2D9 JUMP JUMPDEST DUP2 EQ PUSH2 0x47B JUMPI PUSH1 0x0 DUP1 REVERT JUMPDEST POP JUMP JUMPDEST PUSH1 0x0 DUP2 CALLDATALOAD SWAP1 POP PUSH2 0x48D DUP2 PUSH2 0x467 JUMP JUMPDEST SWAP3 SWAP2 POP POP JUMP JUMPDEST PUSH1 0x0 DUP1 PUSH1 0x40 DUP4 DUP6 SUB SLT ISZERO PUSH2 0x4AA JUMPI PUSH2 0x4A9 PUSH2 0x317 JUMP JUMPDEST JUMPDEST PUSH1 0x0 DUP4 ADD CALLDATALOAD PUSH8 0xFFFFFFFFFFFFFFFF DUP2 GT ISZERO PUSH2 0x4C8 JUMPI PUSH2 0x4C7 PUSH2 0x31C JUMP JUMPDEST JUMPDEST PUSH2 0x4D4 DUP6 DUP3 DUP7 ADD PUSH2 0x439 JUMP JUMPDEST SWAP3 POP POP PUSH1 0x20 PUSH2 0x4E5 DUP6 DUP3 DUP7 ADD PUSH2 0x47E JUMP JUMPDEST SWAP2 POP POP SWAP3 POP SWAP3 SWAP1 POP JUMP JUMPDEST PUSH1 0x0 DUP2 ISZERO ISZERO SWAP1 POP SWAP2 SWAP1 POP JUMP JUMPDEST PUSH2 0x504 DUP2 PUSH2 0x4EF JUMP JUMPDEST DUP3 MSTORE POP POP JUMP JUMPDEST PUSH1 0x0 PUSH1 0x40 DUP3 ADD SWAP1 POP PUSH2 0x51F PUSH1 0x0 DUP4 ADD DUP6 PUSH2 0x4FB JUMP JUMPDEST PUSH2 0x52C PUSH1 0x20 DUP4 ADD DUP5 PUSH2 0x2E3 JUMP JUMPDEST SWAP4 SWAP3 POP POP POP JUMP JUMPDEST PUSH1 0x0 DUP2 MLOAD SWAP1 POP SWAP2 SWAP1 POP JUMP JUMPDEST PUSH1 0x0 JUMPDEST DUP4 DUP2 LT ISZERO PUSH2 0x55C JUMPI DUP1 DUP3 ADD MLOAD DUP2 DUP5 ADD MSTORE PUSH1 0x20 DUP2 ADD SWAP1 POP PUSH2 0x541 JUMP JUMPDEST PUSH1 0x0 DUP5 DUP5 ADD MSTORE POP POP POP POP JUMP JUMPDEST PUSH1 0x0 PUSH2 0x573 DUP3 PUSH2 0x533 JUMP JUMPDEST PUSH2 0x57D DUP2 DUP6 PUSH2 0x1F0 JUMP JUMPDEST SWAP4 POP PUSH2 0x58D DUP2 DUP6 PUSH1 0x20 DUP7 ADD PUSH2 0x53E JUMP JUMPDEST PUSH2 0x596 DUP2 PUSH2 0x32B JUMP JUMPDEST DUP5 ADD SWAP2 POP POP SWAP3 SWAP2 POP POP JUMP JUMPDEST PUSH1 0x0 PUSH1 0x20 DUP3 ADD SWAP1 POP DUP2 DUP2 SUB PUSH1 0x0 DUP4 ADD MSTORE PUSH2 0x5BB DUP2 DUP5 PUSH2 0x568 JUMP JUMPDEST SWAP1 POP SWAP3 SWAP2 POP POP JUMP JUMPDEST PUSH32 0x4E487B7100000000000000000000000000000000000000000000000000000000 PUSH1 0x0 MSTORE PUSH1 0x22 PUSH1 0x4 MSTORE PUSH1 0x24 PUSH1 0x0 REVERT JUMPDEST PUSH1 0x0 PUSH1 0x2 DUP3 DIV SWAP1 POP PUSH1 0x1 DUP3 AND DUP1 PUSH2 0x60A JUMPI PUSH1 0x7F DUP3 AND SWAP2 POP JUMPDEST PUSH1 0x20 DUP3 LT DUP2 SUB PUSH2 0x61D JUMPI PUSH2 0x61C PUSH2 0x5C3 JUMP JUMPDEST JUMPDEST POP SWAP2 SWAP1 POP JUMP JUMPDEST PUSH1 0x0 DUP2 SWAP1 POP DUP2 PUSH1 0x0 MSTORE PUSH1 0x20 PUSH1 0x0 KECCAK256 SWAP1 POP SWAP2 SWAP1 POP JUMP JUMPDEST PUSH1 0x0 PUSH1 0x20 PUSH1 0x1F DUP4 ADD DIV SWAP1 POP SWAP2 SWAP1 POP JUMP JUMPDEST PUSH1 0x0 DUP3 DUP3 SHL SWAP1 POP SWAP3 SWAP2 POP POP JUMP JUMPDEST PUSH1 0x0 PUSH1 0x8 DUP4 MUL PUSH2 0x685 PUSH32 0xFFFFFFFFFFFFFFFFFFFFFFFFFFFFFFFFFFFFFFFFFFFFFFFFFFFFFFFFFFFFFFFF DUP3 PUSH2 0x648 JUMP JUMPDEST PUSH2 0x68F DUP7 DUP4 PUSH2 0x648 JUMP JUMPDEST SWAP6 POP DUP1 NOT DUP5 AND SWAP4 POP DUP1 DUP7 AND DUP5 OR SWAP3 POP POP POP SWAP4 SWAP3 POP POP POP JUMP JUMPDEST PUSH1 0x0 DUP2 SWAP1 POP SWAP2 SWAP1 POP JUMP JUMPDEST PUSH1 0x0 PUSH2 0x6CC PUSH2 0x6C7 PUSH2 0x6C2 DUP5 PUSH2 0x2D9 JUMP JUMPDEST PUSH2 0x6A7 JUMP JUMPDEST PUSH2 0x2D9 JUMP JUMPDEST SWAP1 POP SWAP2 SWAP1 POP JUMP JUMPDEST PUSH1 0x0 DUP2 SWAP1 POP SWAP2 SWAP1 POP JUMP JUMPDEST PUSH2 0x6E6 DUP4 PUSH2 0x6B1 JUMP JUMPDEST PUSH2 0x6FA PUSH2 0x6F2 DUP3 PUSH2 0x6D3 JUMP JUMPDEST DUP5 DUP5 SLOAD PUSH2 0x655 JUMP JUMPDEST DUP3 SSTORE POP POP POP POP JUMP JUMPDEST PUSH1 0x0 SWAP1 JUMP JUMPDEST PUSH2 0x70F PUSH2 0x702 JUMP JUMPDEST PUSH2 0x71A DUP2 DUP5 DUP5 PUSH2 0x6DD JUMP JUMPDEST POP POP POP JUMP JUMPDEST JUMPDEST DUP2 DUP2 LT ISZERO PUSH2 0x73E JUMPI PUSH2 0x733 PUSH1 0x0 DUP3 PUSH2 0x707 JUMP JUMPDEST PUSH1 0x1 DUP2 ADD SWAP1 POP PUSH2 0x720 JUMP JUMPDEST POP POP JUMP JUMPDEST PUSH1 0x1F DUP3 GT ISZERO PUSH2 0x783 JUMPI PUSH2 0x754 DUP2 PUSH2 0x623 JUMP JUMPDEST PUSH2 0x75D DUP5 PUSH2 0x638 JUMP JUMPDEST DUP2 ADD PUSH1 0x20 DUP6 LT ISZERO PUSH2 0x76C JUMPI DUP2 SWAP1 POP JUMPDEST PUSH2 0x780 PUSH2 0x778 DUP6 PUSH2 0x638 JUMP JUMPDEST DUP4 ADD DUP3 PUSH2 0x71F JUMP JUMPDEST POP POP JUMPDEST POP POP POP JUMP JUMPDEST PUSH1 0x0 DUP3 DUP3 SHR SWAP1 POP SWAP3 SWAP2 POP POP JUMP JUMPDEST PUSH1 0x0 PUSH2 0x7A6 PUSH1 0x0 NOT DUP5 PUSH1 0x8 MUL PUSH2 0x788 JUMP JUMPDEST NOT DUP1 DUP4 AND SWAP2 POP POP SWAP3 SWAP2 POP POP JUMP JUMPDEST PUSH1 0x0 PUSH2 0x7BF DUP4 DUP4 PUSH2 0x795 JUMP JUMPDEST SWAP2 POP DUP3 PUSH1 0x2 MUL DUP3 OR SWAP1 POP SWAP3 SWAP2 POP POP JUMP JUMPDEST PUSH2 0x7D8 DUP3 PUSH2 0x533 JUMP JUMPDEST PUSH8 0xFFFFFFFFFFFFFFFF DUP2 GT ISZERO PUSH2 0x7F1 JUMPI PUSH2 0x7F0 PUSH2 0x33C JUMP JUMPDEST JUMPDEST PUSH2 0x7FB DUP3 SLOAD PUSH2 0x5F2 JUMP JUMPDEST PUSH2 0x806 DUP3 DUP3 DUP6 PUSH2 0x742 JUMP JUMPDEST PUSH1 0x0 PUSH1 0x20 SWAP1 POP PUSH1 0x1F DUP4 GT PUSH1 0x1 DUP2 EQ PUSH2 0x839 JUMPI PUSH1 0x0 DUP5 ISZERO PUSH2 0x827 JUMPI DUP3 DUP8 ADD MLOAD SWAP1 POP JUMPDEST PUSH2 0x831 DUP6 DUP3 PUSH2 0x7B3 JUMP JUMPDEST DUP7 SSTORE POP PUSH2 0x899 JUMP JUMPDEST PUSH1 0x1F NOT DUP5 AND PUSH2 0x847 DUP7 PUSH2 0x623 JUMP JUMPDEST PUSH1 0x0 JUMPDEST DUP3 DUP2 LT ISZERO PUSH2 0x86F JUMPI DUP5 DUP10 ADD MLOAD DUP3 SSTORE PUSH1 0x1 DUP3 ADD SWAP2 POP PUSH1 0x20 DUP6 ADD SWAP5 POP PUSH1 0x20 DUP2 ADD SWAP1 POP PUSH2 0x84A JUMP JUMPDEST DUP7 DUP4 LT ISZERO PUSH2 0x88C JUMPI DUP5 DUP10 ADD MLOAD PUSH2 0x888 PUSH1 0x1F DUP10 AND DUP3 PUSH2 0x795 JUMP JUMPDEST DUP4 SSTORE POP JUMPDEST PUSH1 0x1 PUSH1 0x2 DUP9 MUL ADD DUP9 SSTORE POP POP POP JUMPDEST POP POP POP POP POP POP JUMP INVALID LOG2 PUSH5 0x6970667358 0x22 SLT KECCAK256 0xB9 DUP1 0xE1 RETURNDATACOPY GT 0xA7 0x4E COINBASE MLOAD 0xE9 NOT CREATE CREATE2 ADDRESS SSTORE SWAP5 PUSH19 0x747AAA3F059C75C576477A6FB3834E64736F6C PUSH4 0x43000812 STOP CALLER "
				},
				"gasEstimates": {
					"creation": {
						"codeDepositCost": "452600",
						"executionCost": "486",
						"totalCost": "453086"
					},
					"external": {
						"": "1931",
						"foo(string,uint256)": "infinite",
						"message()": "infinite",
						"x()": "2407"
					}
				},
				"methodIdentifiers": {
					"foo(string,uint256)": "24ccab8f",
					"message()": "e21f37ce",
					"x()": "0c55699c"
				}
			},
			"storageLayout": {
				"storage": [
					{
						"astId": 3,
						"contract": "cuimianMaster/TestCall.sol:TestContract",
						"label": "message",
						"offset": 0,
						"slot": "0",
						"type": "t_string_storage"
					},
					{
						"astId": 5,
						"contract": "cuimianMaster/TestCall.sol:TestContract",
						"label": "x",
						"offset": 0,
						"slot": "1",
						"type": "t_uint256"
					}
				],
				"types": {
					"t_string_storage": {
						"encoding": "bytes",
						"label": "string",
						"numberOfBytes": "32"
					},
					"t_uint256": {
						"encoding": "inplace",
						"label": "uint256",
						"numberOfBytes": "32"
					}
				}
			},
			"userdoc": {
				"kind": "user",
				"methods": {},
				"version": 1
			}
		}
	}
}