{
	"cuimianMaster/MultiCall.sol": {
		"TestMultiCall": {
			"abi": [
				{
					"anonymous": false,
					"inputs": [
						{
							"indexed": false,
							"internalType": "address",
							"name": "caller",
							"type": "address"
						},
						{
							"indexed": false,
							"internalType": "string",
							"name": "func",
							"type": "string"
						}
					],
					"name": "Log",
					"type": "event"
				},
				{
					"inputs": [
						{
							"internalType": "uint256",
							"name": "a",
							"type": "uint256"
						}
					],
					"name": "func1",
					"outputs": [
						{
							"internalType": "uint256",
							"name": "",
							"type": "uint256"
						},
						{
							"internalType": "uint256",
							"name": "",
							"type": "uint256"
						}
					],
					"stateMutability": "nonpayable",
					"type": "function"
				},
				{
					"inputs": [
						{
							"internalType": "uint256",
							"name": "b",
							"type": "uint256"
						}
					],
					"name": "func2",
					"outputs": [
						{
							"internalType": "uint256",
							"name": "",
							"type": "uint256"
						},
						{
							"internalType": "uint256",
							"name": "",
							"type": "uint256"
						}
					],
					"stateMutability": "nonpayable",
					"type": "function"
				},
				{
					"inputs": [],
					"name": "getData1",
					"outputs": [
						{
							"internalType": "bytes",
							"name": "",
							"type": "bytes"
						}
					],
					"stateMutability": "pure",
					"type": "function"
				},
				{
					"inputs": [],
					"name": "getData2",
					"outputs": [
						{
							"internalType": "bytes",
							"name": "",
							"type": "bytes"
						}
					],
					"stateMutability": "pure",
					"type": "function"
				},
				{
					"inputs": [],
					"name": "initValue",
					"outputs": [
						{
							"internalType": "uint256",
							"name": "",
							"type": "uint256"
						}
					],
					"stateMutability": "view",
					"type": "function"
				}
			],
			"devdoc": {
				"kind": "dev",
				"methods": {},
				"version": 1
			},
			"evm": {
				"assembly": "    /* \"cuimianMaster/MultiCall.sol\":72:880  contract TestMultiCall {... */\n  mstore(0x40, 0x80)\n  callvalue\n  dup1\n  iszero\n  tag_1\n  jumpi\n  0x00\n  dup1\n  revert\ntag_1:\n  pop\n  dataSize(sub_0)\n  dup1\n  dataOffset(sub_0)\n  0x00\n  codecopy\n  0x00\n  return\nstop\n\nsub_0: assembly {\n        /* \"cuimianMaster/MultiCall.sol\":72:880  contract TestMultiCall {... */\n      mstore(0x40, 0x80)\n      callvalue\n      dup1\n      iszero\n      tag_1\n      jumpi\n      0x00\n      dup1\n      revert\n    tag_1:\n      pop\n      jumpi(tag_2, lt(calldatasize, 0x04))\n      shr(0xe0, calldataload(0x00))\n      dup1\n      0x16d93ade\n      eq\n      tag_3\n      jumpi\n      dup1\n      0x254e43db\n      eq\n      tag_4\n      jumpi\n      dup1\n      0x2fc36f11\n      eq\n      tag_5\n      jumpi\n      dup1\n      0x9944cc71\n      eq\n      tag_6\n      jumpi\n      dup1\n      0xa898fd70\n      eq\n      tag_7\n      jumpi\n    tag_2:\n      0x00\n      dup1\n      revert\n        /* \"cuimianMaster/MultiCall.sol\":334:473  function func2(uint b) external returns (uint, uint) {... */\n    tag_3:\n      tag_8\n      0x04\n      dup1\n      calldatasize\n      sub\n      dup2\n      add\n      swap1\n      tag_9\n      swap2\n      swap1\n      tag_10\n      jump\t// in\n    tag_9:\n      tag_11\n      jump\t// in\n    tag_8:\n      mload(0x40)\n      tag_12\n      swap3\n      swap2\n      swap1\n      tag_13\n      jump\t// in\n    tag_12:\n      mload(0x40)\n      dup1\n      swap2\n      sub\n      swap1\n      return\n        /* \"cuimianMaster/MultiCall.sol\":179:326  function func1(uint a) external returns (uint, uint) {... */\n    tag_4:\n      tag_14\n      0x04\n      dup1\n      calldatasize\n      sub\n      dup2\n      add\n      swap1\n      tag_15\n      swap2\n      swap1\n      tag_10\n      jump\t// in\n    tag_15:\n      tag_16\n      jump\t// in\n    tag_14:\n      mload(0x40)\n      tag_17\n      swap3\n      swap2\n      swap1\n      tag_13\n      jump\t// in\n    tag_17:\n      mload(0x40)\n      dup1\n      swap2\n      sub\n      swap1\n      return\n        /* \"cuimianMaster/MultiCall.sol\":149:170  uint public initValue */\n    tag_5:\n      tag_18\n      tag_19\n      jump\t// in\n    tag_18:\n      mload(0x40)\n      tag_20\n      swap2\n      swap1\n      tag_21\n      jump\t// in\n    tag_20:\n      mload(0x40)\n      dup1\n      swap2\n      sub\n      swap1\n      return\n        /* \"cuimianMaster/MultiCall.sol\":481:675  function getData1() external pure returns (bytes memory) {... */\n    tag_6:\n      tag_22\n      tag_23\n      jump\t// in\n    tag_22:\n      mload(0x40)\n      tag_24\n      swap2\n      swap1\n      tag_25\n      jump\t// in\n    tag_24:\n      mload(0x40)\n      dup1\n      swap2\n      sub\n      swap1\n      return\n        /* \"cuimianMaster/MultiCall.sol\":683:877  function getData2() external pure returns (bytes memory) {... */\n    tag_7:\n      tag_26\n      tag_27\n      jump\t// in\n    tag_26:\n      mload(0x40)\n      tag_28\n      swap2\n      swap1\n      tag_25\n      jump\t// in\n    tag_28:\n      mload(0x40)\n      dup1\n      swap2\n      sub\n      swap1\n      return\n        /* \"cuimianMaster/MultiCall.sol\":334:473  function func2(uint b) external returns (uint, uint) {... */\n    tag_11:\n        /* \"cuimianMaster/MultiCall.sol\":375:379  uint */\n      0x00\n        /* \"cuimianMaster/MultiCall.sol\":381:385  uint */\n      dup1\n        /* \"cuimianMaster/MultiCall.sol\":403:427  Log(msg.sender, \"func2\") */\n      0x0738f4da267a110d810e6e89fc59e46be6de0c37b1d5cd559b267dc3688e74e0\n        /* \"cuimianMaster/MultiCall.sol\":407:417  msg.sender */\n      caller\n        /* \"cuimianMaster/MultiCall.sol\":403:427  Log(msg.sender, \"func2\") */\n      mload(0x40)\n      tag_30\n      swap2\n      swap1\n      tag_31\n      jump\t// in\n    tag_30:\n      mload(0x40)\n      dup1\n      swap2\n      sub\n      swap1\n      log1\n        /* \"cuimianMaster/MultiCall.sol\":446:447  b */\n      dup3\n        /* \"cuimianMaster/MultiCall.sol\":449:464  block.timestamp */\n      timestamp\n        /* \"cuimianMaster/MultiCall.sol\":438:465  return (b, block.timestamp) */\n      swap2\n      pop\n      swap2\n      pop\n        /* \"cuimianMaster/MultiCall.sol\":334:473  function func2(uint b) external returns (uint, uint) {... */\n      swap2\n      pop\n      swap2\n      jump\t// out\n        /* \"cuimianMaster/MultiCall.sol\":179:326  function func1(uint a) external returns (uint, uint) {... */\n    tag_16:\n        /* \"cuimianMaster/MultiCall.sol\":220:224  uint */\n      0x00\n        /* \"cuimianMaster/MultiCall.sol\":226:230  uint */\n      dup1\n        /* \"cuimianMaster/MultiCall.sol\":279:280  a */\n      dup3\n        /* \"cuimianMaster/MultiCall.sol\":267:276  initValue */\n      0x00\n        /* \"cuimianMaster/MultiCall.sol\":267:280  initValue = a */\n      dup2\n      swap1\n      sstore\n      pop\n        /* \"cuimianMaster/MultiCall.sol\":299:300  a */\n      dup3\n        /* \"cuimianMaster/MultiCall.sol\":302:317  block.timestamp */\n      timestamp\n        /* \"cuimianMaster/MultiCall.sol\":291:318  return (a, block.timestamp) */\n      swap2\n      pop\n      swap2\n      pop\n        /* \"cuimianMaster/MultiCall.sol\":179:326  function func1(uint a) external returns (uint, uint) {... */\n      swap2\n      pop\n      swap2\n      jump\t// out\n        /* \"cuimianMaster/MultiCall.sol\":149:170  uint public initValue */\n    tag_19:\n      sload(0x00)\n      dup2\n      jump\t// out\n        /* \"cuimianMaster/MultiCall.sol\":481:675  function getData1() external pure returns (bytes memory) {... */\n    tag_23:\n        /* \"cuimianMaster/MultiCall.sol\":524:536  bytes memory */\n      0x60\n        /* \"cuimianMaster/MultiCall.sol\":598:599  1 */\n      0x01\n        /* \"cuimianMaster/MultiCall.sol\":556:600  abi.encodeWithSignature(\"func1(uint256)\", 1) */\n      add(0x24, mload(0x40))\n      tag_34\n      swap2\n      swap1\n      tag_35\n      jump\t// in\n    tag_34:\n      mload(0x40)\n      0x20\n      dup2\n      dup4\n      sub\n      sub\n      dup2\n      mstore\n      swap1\n      0x40\n      mstore\n      and(not(0xffffffffffffffffffffffffffffffffffffffffffffffffffffffff), 0x254e43db00000000000000000000000000000000000000000000000000000000)\n      0x20\n      dup3\n      add\n      dup1\n      mload\n      0xffffffffffffffffffffffffffffffffffffffffffffffffffffffff\n      dup4\n      dup2\n      dup4\n      and\n      or\n      dup4\n      mstore\n      pop\n      pop\n      pop\n      pop\n        /* \"cuimianMaster/MultiCall.sol\":549:600  return abi.encodeWithSignature(\"func1(uint256)\", 1) */\n      swap1\n      pop\n        /* \"cuimianMaster/MultiCall.sol\":481:675  function getData1() external pure returns (bytes memory) {... */\n      swap1\n      jump\t// out\n        /* \"cuimianMaster/MultiCall.sol\":683:877  function getData2() external pure returns (bytes memory) {... */\n    tag_27:\n        /* \"cuimianMaster/MultiCall.sol\":726:738  bytes memory */\n      0x60\n        /* \"cuimianMaster/MultiCall.sol\":800:801  2 */\n      0x02\n        /* \"cuimianMaster/MultiCall.sol\":758:802  abi.encodeWithSignature(\"func2(uint256)\", 2) */\n      add(0x24, mload(0x40))\n      tag_37\n      swap2\n      swap1\n      tag_38\n      jump\t// in\n    tag_37:\n      mload(0x40)\n      0x20\n      dup2\n      dup4\n      sub\n      sub\n      dup2\n      mstore\n      swap1\n      0x40\n      mstore\n      and(not(0xffffffffffffffffffffffffffffffffffffffffffffffffffffffff), 0x16d93ade00000000000000000000000000000000000000000000000000000000)\n      0x20\n      dup3\n      add\n      dup1\n      mload\n      0xffffffffffffffffffffffffffffffffffffffffffffffffffffffff\n      dup4\n      dup2\n      dup4\n      and\n      or\n      dup4\n      mstore\n      pop\n      pop\n      pop\n      pop\n        /* \"cuimianMaster/MultiCall.sol\":751:802  return abi.encodeWithSignature(\"func2(uint256)\", 2) */\n      swap1\n      pop\n        /* \"cuimianMaster/MultiCall.sol\":683:877  function getData2() external pure returns (bytes memory) {... */\n      swap1\n      jump\t// out\n        /* \"#utility.yul\":88:205   */\n    tag_40:\n        /* \"#utility.yul\":197:198   */\n      0x00\n        /* \"#utility.yul\":194:195   */\n      dup1\n        /* \"#utility.yul\":187:199   */\n      revert\n        /* \"#utility.yul\":334:411   */\n    tag_42:\n        /* \"#utility.yul\":371:378   */\n      0x00\n        /* \"#utility.yul\":400:405   */\n      dup2\n        /* \"#utility.yul\":389:405   */\n      swap1\n      pop\n        /* \"#utility.yul\":334:411   */\n      swap2\n      swap1\n      pop\n      jump\t// out\n        /* \"#utility.yul\":417:539   */\n    tag_43:\n        /* \"#utility.yul\":490:514   */\n      tag_71\n        /* \"#utility.yul\":508:513   */\n      dup2\n        /* \"#utility.yul\":490:514   */\n      tag_42\n      jump\t// in\n    tag_71:\n        /* \"#utility.yul\":483:488   */\n      dup2\n        /* \"#utility.yul\":480:515   */\n      eq\n        /* \"#utility.yul\":470:533   */\n      tag_72\n      jumpi\n        /* \"#utility.yul\":529:530   */\n      0x00\n        /* \"#utility.yul\":526:527   */\n      dup1\n        /* \"#utility.yul\":519:531   */\n      revert\n        /* \"#utility.yul\":470:533   */\n    tag_72:\n        /* \"#utility.yul\":417:539   */\n      pop\n      jump\t// out\n        /* \"#utility.yul\":545:684   */\n    tag_44:\n        /* \"#utility.yul\":591:596   */\n      0x00\n        /* \"#utility.yul\":629:635   */\n      dup2\n        /* \"#utility.yul\":616:636   */\n      calldataload\n        /* \"#utility.yul\":607:636   */\n      swap1\n      pop\n        /* \"#utility.yul\":645:678   */\n      tag_74\n        /* \"#utility.yul\":672:677   */\n      dup2\n        /* \"#utility.yul\":645:678   */\n      tag_43\n      jump\t// in\n    tag_74:\n        /* \"#utility.yul\":545:684   */\n      swap3\n      swap2\n      pop\n      pop\n      jump\t// out\n        /* \"#utility.yul\":690:1019   */\n    tag_10:\n        /* \"#utility.yul\":749:755   */\n      0x00\n        /* \"#utility.yul\":798:800   */\n      0x20\n        /* \"#utility.yul\":786:795   */\n      dup3\n        /* \"#utility.yul\":777:784   */\n      dup5\n        /* \"#utility.yul\":773:796   */\n      sub\n        /* \"#utility.yul\":769:801   */\n      slt\n        /* \"#utility.yul\":766:885   */\n      iszero\n      tag_76\n      jumpi\n        /* \"#utility.yul\":804:883   */\n      tag_77\n      tag_40\n      jump\t// in\n    tag_77:\n        /* \"#utility.yul\":766:885   */\n    tag_76:\n        /* \"#utility.yul\":924:925   */\n      0x00\n        /* \"#utility.yul\":949:1002   */\n      tag_78\n        /* \"#utility.yul\":994:1001   */\n      dup5\n        /* \"#utility.yul\":985:991   */\n      dup3\n        /* \"#utility.yul\":974:983   */\n      dup6\n        /* \"#utility.yul\":970:992   */\n      add\n        /* \"#utility.yul\":949:1002   */\n      tag_44\n      jump\t// in\n    tag_78:\n        /* \"#utility.yul\":939:1002   */\n      swap2\n      pop\n        /* \"#utility.yul\":895:1012   */\n      pop\n        /* \"#utility.yul\":690:1019   */\n      swap3\n      swap2\n      pop\n      pop\n      jump\t// out\n        /* \"#utility.yul\":1025:1143   */\n    tag_45:\n        /* \"#utility.yul\":1112:1136   */\n      tag_80\n        /* \"#utility.yul\":1130:1135   */\n      dup2\n        /* \"#utility.yul\":1112:1136   */\n      tag_42\n      jump\t// in\n    tag_80:\n        /* \"#utility.yul\":1107:1110   */\n      dup3\n        /* \"#utility.yul\":1100:1137   */\n      mstore\n        /* \"#utility.yul\":1025:1143   */\n      pop\n      pop\n      jump\t// out\n        /* \"#utility.yul\":1149:1481   */\n    tag_13:\n        /* \"#utility.yul\":1270:1274   */\n      0x00\n        /* \"#utility.yul\":1308:1310   */\n      0x40\n        /* \"#utility.yul\":1297:1306   */\n      dup3\n        /* \"#utility.yul\":1293:1311   */\n      add\n        /* \"#utility.yul\":1285:1311   */\n      swap1\n      pop\n        /* \"#utility.yul\":1321:1392   */\n      tag_82\n        /* \"#utility.yul\":1389:1390   */\n      0x00\n        /* \"#utility.yul\":1378:1387   */\n      dup4\n        /* \"#utility.yul\":1374:1391   */\n      add\n        /* \"#utility.yul\":1365:1371   */\n      dup6\n        /* \"#utility.yul\":1321:1392   */\n      tag_45\n      jump\t// in\n    tag_82:\n        /* \"#utility.yul\":1402:1474   */\n      tag_83\n        /* \"#utility.yul\":1470:1472   */\n      0x20\n        /* \"#utility.yul\":1459:1468   */\n      dup4\n        /* \"#utility.yul\":1455:1473   */\n      add\n        /* \"#utility.yul\":1446:1452   */\n      dup5\n        /* \"#utility.yul\":1402:1474   */\n      tag_45\n      jump\t// in\n    tag_83:\n        /* \"#utility.yul\":1149:1481   */\n      swap4\n      swap3\n      pop\n      pop\n      pop\n      jump\t// out\n        /* \"#utility.yul\":1487:1709   */\n    tag_21:\n        /* \"#utility.yul\":1580:1584   */\n      0x00\n        /* \"#utility.yul\":1618:1620   */\n      0x20\n        /* \"#utility.yul\":1607:1616   */\n      dup3\n        /* \"#utility.yul\":1603:1621   */\n      add\n        /* \"#utility.yul\":1595:1621   */\n      swap1\n      pop\n        /* \"#utility.yul\":1631:1702   */\n      tag_85\n        /* \"#utility.yul\":1699:1700   */\n      0x00\n        /* \"#utility.yul\":1688:1697   */\n      dup4\n        /* \"#utility.yul\":1684:1701   */\n      add\n        /* \"#utility.yul\":1675:1681   */\n      dup5\n        /* \"#utility.yul\":1631:1702   */\n      tag_45\n      jump\t// in\n    tag_85:\n        /* \"#utility.yul\":1487:1709   */\n      swap3\n      swap2\n      pop\n      pop\n      jump\t// out\n        /* \"#utility.yul\":1715:1813   */\n    tag_46:\n        /* \"#utility.yul\":1766:1772   */\n      0x00\n        /* \"#utility.yul\":1800:1805   */\n      dup2\n        /* \"#utility.yul\":1794:1806   */\n      mload\n        /* \"#utility.yul\":1784:1806   */\n      swap1\n      pop\n        /* \"#utility.yul\":1715:1813   */\n      swap2\n      swap1\n      pop\n      jump\t// out\n        /* \"#utility.yul\":1819:1987   */\n    tag_47:\n        /* \"#utility.yul\":1902:1913   */\n      0x00\n        /* \"#utility.yul\":1936:1942   */\n      dup3\n        /* \"#utility.yul\":1931:1934   */\n      dup3\n        /* \"#utility.yul\":1924:1943   */\n      mstore\n        /* \"#utility.yul\":1976:1980   */\n      0x20\n        /* \"#utility.yul\":1971:1974   */\n      dup3\n        /* \"#utility.yul\":1967:1981   */\n      add\n        /* \"#utility.yul\":1952:1981   */\n      swap1\n      pop\n        /* \"#utility.yul\":1819:1987   */\n      swap3\n      swap2\n      pop\n      pop\n      jump\t// out\n        /* \"#utility.yul\":1993:2239   */\n    tag_48:\n        /* \"#utility.yul\":2074:2075   */\n      0x00\n        /* \"#utility.yul\":2084:2197   */\n    tag_89:\n        /* \"#utility.yul\":2098:2104   */\n      dup4\n        /* \"#utility.yul\":2095:2096   */\n      dup2\n        /* \"#utility.yul\":2092:2105   */\n      lt\n        /* \"#utility.yul\":2084:2197   */\n      iszero\n      tag_91\n      jumpi\n        /* \"#utility.yul\":2183:2184   */\n      dup1\n        /* \"#utility.yul\":2178:2181   */\n      dup3\n        /* \"#utility.yul\":2174:2185   */\n      add\n        /* \"#utility.yul\":2168:2186   */\n      mload\n        /* \"#utility.yul\":2164:2165   */\n      dup2\n        /* \"#utility.yul\":2159:2162   */\n      dup5\n        /* \"#utility.yul\":2155:2166   */\n      add\n        /* \"#utility.yul\":2148:2187   */\n      mstore\n        /* \"#utility.yul\":2120:2122   */\n      0x20\n        /* \"#utility.yul\":2117:2118   */\n      dup2\n        /* \"#utility.yul\":2113:2123   */\n      add\n        /* \"#utility.yul\":2108:2123   */\n      swap1\n      pop\n        /* \"#utility.yul\":2084:2197   */\n      jump(tag_89)\n    tag_91:\n        /* \"#utility.yul\":2231:2232   */\n      0x00\n        /* \"#utility.yul\":2222:2228   */\n      dup5\n        /* \"#utility.yul\":2217:2220   */\n      dup5\n        /* \"#utility.yul\":2213:2229   */\n      add\n        /* \"#utility.yul\":2206:2233   */\n      mstore\n        /* \"#utility.yul\":2055:2239   */\n      pop\n        /* \"#utility.yul\":1993:2239   */\n      pop\n      pop\n      pop\n      jump\t// out\n        /* \"#utility.yul\":2245:2347   */\n    tag_49:\n        /* \"#utility.yul\":2286:2292   */\n      0x00\n        /* \"#utility.yul\":2337:2339   */\n      0x1f\n        /* \"#utility.yul\":2333:2340   */\n      not\n        /* \"#utility.yul\":2328:2330   */\n      0x1f\n        /* \"#utility.yul\":2321:2326   */\n      dup4\n        /* \"#utility.yul\":2317:2331   */\n      add\n        /* \"#utility.yul\":2313:2341   */\n      and\n        /* \"#utility.yul\":2303:2341   */\n      swap1\n      pop\n        /* \"#utility.yul\":2245:2347   */\n      swap2\n      swap1\n      pop\n      jump\t// out\n        /* \"#utility.yul\":2353:2726   */\n    tag_50:\n        /* \"#utility.yul\":2439:2442   */\n      0x00\n        /* \"#utility.yul\":2467:2505   */\n      tag_94\n        /* \"#utility.yul\":2499:2504   */\n      dup3\n        /* \"#utility.yul\":2467:2505   */\n      tag_46\n      jump\t// in\n    tag_94:\n        /* \"#utility.yul\":2521:2591   */\n      tag_95\n        /* \"#utility.yul\":2584:2590   */\n      dup2\n        /* \"#utility.yul\":2579:2582   */\n      dup6\n        /* \"#utility.yul\":2521:2591   */\n      tag_47\n      jump\t// in\n    tag_95:\n        /* \"#utility.yul\":2514:2591   */\n      swap4\n      pop\n        /* \"#utility.yul\":2600:2665   */\n      tag_96\n        /* \"#utility.yul\":2658:2664   */\n      dup2\n        /* \"#utility.yul\":2653:2656   */\n      dup6\n        /* \"#utility.yul\":2646:2650   */\n      0x20\n        /* \"#utility.yul\":2639:2644   */\n      dup7\n        /* \"#utility.yul\":2635:2651   */\n      add\n        /* \"#utility.yul\":2600:2665   */\n      tag_48\n      jump\t// in\n    tag_96:\n        /* \"#utility.yul\":2690:2719   */\n      tag_97\n        /* \"#utility.yul\":2712:2718   */\n      dup2\n        /* \"#utility.yul\":2690:2719   */\n      tag_49\n      jump\t// in\n    tag_97:\n        /* \"#utility.yul\":2685:2688   */\n      dup5\n        /* \"#utility.yul\":2681:2720   */\n      add\n        /* \"#utility.yul\":2674:2720   */\n      swap2\n      pop\n        /* \"#utility.yul\":2443:2726   */\n      pop\n        /* \"#utility.yul\":2353:2726   */\n      swap3\n      swap2\n      pop\n      pop\n      jump\t// out\n        /* \"#utility.yul\":2732:3041   */\n    tag_25:\n        /* \"#utility.yul\":2843:2847   */\n      0x00\n        /* \"#utility.yul\":2881:2883   */\n      0x20\n        /* \"#utility.yul\":2870:2879   */\n      dup3\n        /* \"#utility.yul\":2866:2884   */\n      add\n        /* \"#utility.yul\":2858:2884   */\n      swap1\n      pop\n        /* \"#utility.yul\":2930:2939   */\n      dup2\n        /* \"#utility.yul\":2924:2928   */\n      dup2\n        /* \"#utility.yul\":2920:2940   */\n      sub\n        /* \"#utility.yul\":2916:2917   */\n      0x00\n        /* \"#utility.yul\":2905:2914   */\n      dup4\n        /* \"#utility.yul\":2901:2918   */\n      add\n        /* \"#utility.yul\":2894:2941   */\n      mstore\n        /* \"#utility.yul\":2958:3034   */\n      tag_99\n        /* \"#utility.yul\":3029:3033   */\n      dup2\n        /* \"#utility.yul\":3020:3026   */\n      dup5\n        /* \"#utility.yul\":2958:3034   */\n      tag_50\n      jump\t// in\n    tag_99:\n        /* \"#utility.yul\":2950:3034   */\n      swap1\n      pop\n        /* \"#utility.yul\":2732:3041   */\n      swap3\n      swap2\n      pop\n      pop\n      jump\t// out\n        /* \"#utility.yul\":3047:3173   */\n    tag_51:\n        /* \"#utility.yul\":3084:3091   */\n      0x00\n        /* \"#utility.yul\":3124:3166   */\n      0xffffffffffffffffffffffffffffffffffffffff\n        /* \"#utility.yul\":3117:3122   */\n      dup3\n        /* \"#utility.yul\":3113:3167   */\n      and\n        /* \"#utility.yul\":3102:3167   */\n      swap1\n      pop\n        /* \"#utility.yul\":3047:3173   */\n      swap2\n      swap1\n      pop\n      jump\t// out\n        /* \"#utility.yul\":3179:3275   */\n    tag_52:\n        /* \"#utility.yul\":3216:3223   */\n      0x00\n        /* \"#utility.yul\":3245:3269   */\n      tag_102\n        /* \"#utility.yul\":3263:3268   */\n      dup3\n        /* \"#utility.yul\":3245:3269   */\n      tag_51\n      jump\t// in\n    tag_102:\n        /* \"#utility.yul\":3234:3269   */\n      swap1\n      pop\n        /* \"#utility.yul\":3179:3275   */\n      swap2\n      swap1\n      pop\n      jump\t// out\n        /* \"#utility.yul\":3281:3399   */\n    tag_53:\n        /* \"#utility.yul\":3368:3392   */\n      tag_104\n        /* \"#utility.yul\":3386:3391   */\n      dup2\n        /* \"#utility.yul\":3368:3392   */\n      tag_52\n      jump\t// in\n    tag_104:\n        /* \"#utility.yul\":3363:3366   */\n      dup3\n        /* \"#utility.yul\":3356:3393   */\n      mstore\n        /* \"#utility.yul\":3281:3399   */\n      pop\n      pop\n      jump\t// out\n        /* \"#utility.yul\":3405:3574   */\n    tag_54:\n        /* \"#utility.yul\":3489:3500   */\n      0x00\n        /* \"#utility.yul\":3523:3529   */\n      dup3\n        /* \"#utility.yul\":3518:3521   */\n      dup3\n        /* \"#utility.yul\":3511:3530   */\n      mstore\n        /* \"#utility.yul\":3563:3567   */\n      0x20\n        /* \"#utility.yul\":3558:3561   */\n      dup3\n        /* \"#utility.yul\":3554:3568   */\n      add\n        /* \"#utility.yul\":3539:3568   */\n      swap1\n      pop\n        /* \"#utility.yul\":3405:3574   */\n      swap3\n      swap2\n      pop\n      pop\n      jump\t// out\n        /* \"#utility.yul\":3580:3735   */\n    tag_55:\n        /* \"#utility.yul\":3720:3727   */\n      0x66756e6332000000000000000000000000000000000000000000000000000000\n        /* \"#utility.yul\":3716:3717   */\n      0x00\n        /* \"#utility.yul\":3708:3714   */\n      dup3\n        /* \"#utility.yul\":3704:3718   */\n      add\n        /* \"#utility.yul\":3697:3728   */\n      mstore\n        /* \"#utility.yul\":3580:3735   */\n      pop\n      jump\t// out\n        /* \"#utility.yul\":3741:4106   */\n    tag_56:\n        /* \"#utility.yul\":3883:3886   */\n      0x00\n        /* \"#utility.yul\":3904:3970   */\n      tag_108\n        /* \"#utility.yul\":3968:3969   */\n      0x05\n        /* \"#utility.yul\":3963:3966   */\n      dup4\n        /* \"#utility.yul\":3904:3970   */\n      tag_54\n      jump\t// in\n    tag_108:\n        /* \"#utility.yul\":3897:3970   */\n      swap2\n      pop\n        /* \"#utility.yul\":3979:4072   */\n      tag_109\n        /* \"#utility.yul\":4068:4071   */\n      dup3\n        /* \"#utility.yul\":3979:4072   */\n      tag_55\n      jump\t// in\n    tag_109:\n        /* \"#utility.yul\":4097:4099   */\n      0x20\n        /* \"#utility.yul\":4092:4095   */\n      dup3\n        /* \"#utility.yul\":4088:4100   */\n      add\n        /* \"#utility.yul\":4081:4100   */\n      swap1\n      pop\n        /* \"#utility.yul\":3741:4106   */\n      swap2\n      swap1\n      pop\n      jump\t// out\n        /* \"#utility.yul\":4112:4641   */\n    tag_31:\n        /* \"#utility.yul\":4306:4310   */\n      0x00\n        /* \"#utility.yul\":4344:4346   */\n      0x40\n        /* \"#utility.yul\":4333:4342   */\n      dup3\n        /* \"#utility.yul\":4329:4347   */\n      add\n        /* \"#utility.yul\":4321:4347   */\n      swap1\n      pop\n        /* \"#utility.yul\":4357:4428   */\n      tag_111\n        /* \"#utility.yul\":4425:4426   */\n      0x00\n        /* \"#utility.yul\":4414:4423   */\n      dup4\n        /* \"#utility.yul\":4410:4427   */\n      add\n        /* \"#utility.yul\":4401:4407   */\n      dup5\n        /* \"#utility.yul\":4357:4428   */\n      tag_53\n      jump\t// in\n    tag_111:\n        /* \"#utility.yul\":4475:4484   */\n      dup2\n        /* \"#utility.yul\":4469:4473   */\n      dup2\n        /* \"#utility.yul\":4465:4485   */\n      sub\n        /* \"#utility.yul\":4460:4462   */\n      0x20\n        /* \"#utility.yul\":4449:4458   */\n      dup4\n        /* \"#utility.yul\":4445:4463   */\n      add\n        /* \"#utility.yul\":4438:4486   */\n      mstore\n        /* \"#utility.yul\":4503:4634   */\n      tag_112\n        /* \"#utility.yul\":4629:4633   */\n      dup2\n        /* \"#utility.yul\":4503:4634   */\n      tag_56\n      jump\t// in\n    tag_112:\n        /* \"#utility.yul\":4495:4634   */\n      swap1\n      pop\n        /* \"#utility.yul\":4112:4641   */\n      swap3\n      swap2\n      pop\n      pop\n      jump\t// out\n        /* \"#utility.yul\":4647:4732   */\n    tag_57:\n        /* \"#utility.yul\":4692:4699   */\n      0x00\n        /* \"#utility.yul\":4721:4726   */\n      dup2\n        /* \"#utility.yul\":4710:4726   */\n      swap1\n      pop\n        /* \"#utility.yul\":4647:4732   */\n      swap2\n      swap1\n      pop\n      jump\t// out\n        /* \"#utility.yul\":4738:4824   */\n    tag_58:\n        /* \"#utility.yul\":4773:4780   */\n      0x00\n        /* \"#utility.yul\":4813:4817   */\n      0xff\n        /* \"#utility.yul\":4806:4811   */\n      dup3\n        /* \"#utility.yul\":4802:4818   */\n      and\n        /* \"#utility.yul\":4791:4818   */\n      swap1\n      pop\n        /* \"#utility.yul\":4738:4824   */\n      swap2\n      swap1\n      pop\n      jump\t// out\n        /* \"#utility.yul\":4830:4890   */\n    tag_59:\n        /* \"#utility.yul\":4858:4861   */\n      0x00\n        /* \"#utility.yul\":4879:4884   */\n      dup2\n        /* \"#utility.yul\":4872:4884   */\n      swap1\n      pop\n        /* \"#utility.yul\":4830:4890   */\n      swap2\n      swap1\n      pop\n      jump\t// out\n        /* \"#utility.yul\":4896:5050   */\n    tag_60:\n        /* \"#utility.yul\":4952:4961   */\n      0x00\n        /* \"#utility.yul\":4985:5044   */\n      tag_117\n        /* \"#utility.yul\":5001:5043   */\n      tag_118\n        /* \"#utility.yul\":5010:5042   */\n      tag_119\n        /* \"#utility.yul\":5036:5041   */\n      dup5\n        /* \"#utility.yul\":5010:5042   */\n      tag_57\n      jump\t// in\n    tag_119:\n        /* \"#utility.yul\":5001:5043   */\n      tag_59\n      jump\t// in\n    tag_118:\n        /* \"#utility.yul\":4985:5044   */\n      tag_58\n      jump\t// in\n    tag_117:\n        /* \"#utility.yul\":4972:5044   */\n      swap1\n      pop\n        /* \"#utility.yul\":4896:5050   */\n      swap2\n      swap1\n      pop\n      jump\t// out\n        /* \"#utility.yul\":5056:5199   */\n    tag_61:\n        /* \"#utility.yul\":5149:5192   */\n      tag_121\n        /* \"#utility.yul\":5186:5191   */\n      dup2\n        /* \"#utility.yul\":5149:5192   */\n      tag_60\n      jump\t// in\n    tag_121:\n        /* \"#utility.yul\":5144:5147   */\n      dup3\n        /* \"#utility.yul\":5137:5193   */\n      mstore\n        /* \"#utility.yul\":5056:5199   */\n      pop\n      pop\n      jump\t// out\n        /* \"#utility.yul\":5205:5439   */\n    tag_35:\n        /* \"#utility.yul\":5304:5308   */\n      0x00\n        /* \"#utility.yul\":5342:5344   */\n      0x20\n        /* \"#utility.yul\":5331:5340   */\n      dup3\n        /* \"#utility.yul\":5327:5345   */\n      add\n        /* \"#utility.yul\":5319:5345   */\n      swap1\n      pop\n        /* \"#utility.yul\":5355:5432   */\n      tag_123\n        /* \"#utility.yul\":5429:5430   */\n      0x00\n        /* \"#utility.yul\":5418:5427   */\n      dup4\n        /* \"#utility.yul\":5414:5431   */\n      add\n        /* \"#utility.yul\":5405:5411   */\n      dup5\n        /* \"#utility.yul\":5355:5432   */\n      tag_61\n      jump\t// in\n    tag_123:\n        /* \"#utility.yul\":5205:5439   */\n      swap3\n      swap2\n      pop\n      pop\n      jump\t// out\n        /* \"#utility.yul\":5445:5530   */\n    tag_62:\n        /* \"#utility.yul\":5490:5497   */\n      0x00\n        /* \"#utility.yul\":5519:5524   */\n      dup2\n        /* \"#utility.yul\":5508:5524   */\n      swap1\n      pop\n        /* \"#utility.yul\":5445:5530   */\n      swap2\n      swap1\n      pop\n      jump\t// out\n        /* \"#utility.yul\":5536:5690   */\n    tag_63:\n        /* \"#utility.yul\":5592:5601   */\n      0x00\n        /* \"#utility.yul\":5625:5684   */\n      tag_126\n        /* \"#utility.yul\":5641:5683   */\n      tag_127\n        /* \"#utility.yul\":5650:5682   */\n      tag_128\n        /* \"#utility.yul\":5676:5681   */\n      dup5\n        /* \"#utility.yul\":5650:5682   */\n      tag_62\n      jump\t// in\n    tag_128:\n        /* \"#utility.yul\":5641:5683   */\n      tag_59\n      jump\t// in\n    tag_127:\n        /* \"#utility.yul\":5625:5684   */\n      tag_58\n      jump\t// in\n    tag_126:\n        /* \"#utility.yul\":5612:5684   */\n      swap1\n      pop\n        /* \"#utility.yul\":5536:5690   */\n      swap2\n      swap1\n      pop\n      jump\t// out\n        /* \"#utility.yul\":5696:5839   */\n    tag_64:\n        /* \"#utility.yul\":5789:5832   */\n      tag_130\n        /* \"#utility.yul\":5826:5831   */\n      dup2\n        /* \"#utility.yul\":5789:5832   */\n      tag_63\n      jump\t// in\n    tag_130:\n        /* \"#utility.yul\":5784:5787   */\n      dup3\n        /* \"#utility.yul\":5777:5833   */\n      mstore\n        /* \"#utility.yul\":5696:5839   */\n      pop\n      pop\n      jump\t// out\n        /* \"#utility.yul\":5845:6079   */\n    tag_38:\n        /* \"#utility.yul\":5944:5948   */\n      0x00\n        /* \"#utility.yul\":5982:5984   */\n      0x20\n        /* \"#utility.yul\":5971:5980   */\n      dup3\n        /* \"#utility.yul\":5967:5985   */\n      add\n        /* \"#utility.yul\":5959:5985   */\n      swap1\n      pop\n        /* \"#utility.yul\":5995:6072   */\n      tag_132\n        /* \"#utility.yul\":6069:6070   */\n      0x00\n        /* \"#utility.yul\":6058:6067   */\n      dup4\n        /* \"#utility.yul\":6054:6071   */\n      add\n        /* \"#utility.yul\":6045:6051   */\n      dup5\n        /* \"#utility.yul\":5995:6072   */\n      tag_64\n      jump\t// in\n    tag_132:\n        /* \"#utility.yul\":5845:6079   */\n      swap3\n      swap2\n      pop\n      pop\n      jump\t// out\n\n    auxdata: 0xa26469706673582212203570088d873a5898df2920c9dbf669d4aee8f90265f522194ef6c295ac10bc7064736f6c63430008120033\n}\n",
				"bytecode": {
					"linkReferences": {},
					"object": "608060405234801561001057600080fd5b506105d6806100206000396000f3fe608060405234801561001057600080fd5b50600436106100575760003560e01c806316d93ade1461005c578063254e43db1461008d5780632fc36f11146100be5780639944cc71146100dc578063a898fd70146100fa575b600080fd5b610076600480360381019061007191906102df565b610118565b60405161008492919061031b565b60405180910390f35b6100a760048036038101906100a291906102df565b61015d565b6040516100b592919061031b565b60405180910390f35b6100c6610172565b6040516100d39190610344565b60405180910390f35b6100e4610178565b6040516100f191906103ef565b60405180910390f35b61010261020e565b60405161010f91906103ef565b60405180910390f35b6000807f0738f4da267a110d810e6e89fc59e46be6de0c37b1d5cd559b267dc3688e74e03360405161014a91906104af565b60405180910390a1824291509150915091565b60008082600081905550824291509150915091565b60005481565b6060600160405160240161018c919061052f565b6040516020818303038152906040527f254e43db000000000000000000000000000000000000000000000000000000007bffffffffffffffffffffffffffffffffffffffffffffffffffffffff19166020820180517bffffffffffffffffffffffffffffffffffffffffffffffffffffffff8381831617835250505050905090565b606060026040516024016102229190610585565b6040516020818303038152906040527f16d93ade000000000000000000000000000000000000000000000000000000007bffffffffffffffffffffffffffffffffffffffffffffffffffffffff19166020820180517bffffffffffffffffffffffffffffffffffffffffffffffffffffffff8381831617835250505050905090565b600080fd5b6000819050919050565b6102bc816102a9565b81146102c757600080fd5b50565b6000813590506102d9816102b3565b92915050565b6000602082840312156102f5576102f46102a4565b5b6000610303848285016102ca565b91505092915050565b610315816102a9565b82525050565b6000604082019050610330600083018561030c565b61033d602083018461030c565b9392505050565b6000602082019050610359600083018461030c565b92915050565b600081519050919050565b600082825260208201905092915050565b60005b8381101561039957808201518184015260208101905061037e565b60008484015250505050565b6000601f19601f8301169050919050565b60006103c18261035f565b6103cb818561036a565b93506103db81856020860161037b565b6103e4816103a5565b840191505092915050565b6000602082019050818103600083015261040981846103b6565b905092915050565b600073ffffffffffffffffffffffffffffffffffffffff82169050919050565b600061043c82610411565b9050919050565b61044c81610431565b82525050565b600082825260208201905092915050565b7f66756e6332000000000000000000000000000000000000000000000000000000600082015250565b6000610499600583610452565b91506104a482610463565b602082019050919050565b60006040820190506104c46000830184610443565b81810360208301526104d58161048c565b905092915050565b6000819050919050565b600060ff82169050919050565b6000819050919050565b600061051961051461050f846104dd565b6104f4565b6104e7565b9050919050565b610529816104fe565b82525050565b60006020820190506105446000830184610520565b92915050565b6000819050919050565b600061056f61056a6105658461054a565b6104f4565b6104e7565b9050919050565b61057f81610554565b82525050565b600060208201905061059a6000830184610576565b9291505056fea26469706673582212203570088d873a5898df2920c9dbf669d4aee8f90265f522194ef6c295ac10bc7064736f6c63430008120033",
					"opcodes": "PUSH1 0x80 PUSH1 0x40 MSTORE CALLVALUE DUP1 ISZERO PUSH2 0x10 JUMPI PUSH1 0x0 DUP1 REVERT JUMPDEST POP PUSH2 0x5D6 DUP1 PUSH2 0x20 PUSH1 0x0 CODECOPY PUSH1 0x0 RETURN INVALID PUSH1 0x80 PUSH1 0x40 MSTORE CALLVALUE DUP1 ISZERO PUSH2 0x10 JUMPI PUSH1 0x0 DUP1 REVERT JUMPDEST POP PUSH1 0x4 CALLDATASIZE LT PUSH2 0x57 JUMPI PUSH1 0x0 CALLDATALOAD PUSH1 0xE0 SHR DUP1 PUSH4 0x16D93ADE EQ PUSH2 0x5C JUMPI DUP1 PUSH4 0x254E43DB EQ PUSH2 0x8D JUMPI DUP1 PUSH4 0x2FC36F11 EQ PUSH2 0xBE JUMPI DUP1 PUSH4 0x9944CC71 EQ PUSH2 0xDC JUMPI DUP1 PUSH4 0xA898FD70 EQ PUSH2 0xFA JUMPI JUMPDEST PUSH1 0x0 DUP1 REVERT JUMPDEST PUSH2 0x76 PUSH1 0x4 DUP1 CALLDATASIZE SUB DUP2 ADD SWAP1 PUSH2 0x71 SWAP2 SWAP1 PUSH2 0x2DF JUMP JUMPDEST PUSH2 0x118 JUMP JUMPDEST PUSH1 0x40 MLOAD PUSH2 0x84 SWAP3 SWAP2 SWAP1 PUSH2 0x31B JUMP JUMPDEST PUSH1 0x40 MLOAD DUP1 SWAP2 SUB SWAP1 RETURN JUMPDEST PUSH2 0xA7 PUSH1 0x4 DUP1 CALLDATASIZE SUB DUP2 ADD SWAP1 PUSH2 0xA2 SWAP2 SWAP1 PUSH2 0x2DF JUMP JUMPDEST PUSH2 0x15D JUMP JUMPDEST PUSH1 0x40 MLOAD PUSH2 0xB5 SWAP3 SWAP2 SWAP1 PUSH2 0x31B JUMP JUMPDEST PUSH1 0x40 MLOAD DUP1 SWAP2 SUB SWAP1 RETURN JUMPDEST PUSH2 0xC6 PUSH2 0x172 JUMP JUMPDEST PUSH1 0x40 MLOAD PUSH2 0xD3 SWAP2 SWAP1 PUSH2 0x344 JUMP JUMPDEST PUSH1 0x40 MLOAD DUP1 SWAP2 SUB SWAP1 RETURN JUMPDEST PUSH2 0xE4 PUSH2 0x178 JUMP JUMPDEST PUSH1 0x40 MLOAD PUSH2 0xF1 SWAP2 SWAP1 PUSH2 0x3EF JUMP JUMPDEST PUSH1 0x40 MLOAD DUP1 SWAP2 SUB SWAP1 RETURN JUMPDEST PUSH2 0x102 PUSH2 0x20E JUMP JUMPDEST PUSH1 0x40 MLOAD PUSH2 0x10F SWAP2 SWAP1 PUSH2 0x3EF JUMP JUMPDEST PUSH1 0x40 MLOAD DUP1 SWAP2 SUB SWAP1 RETURN JUMPDEST PUSH1 0x0 DUP1 PUSH32 0x738F4DA267A110D810E6E89FC59E46BE6DE0C37B1D5CD559B267DC3688E74E0 CALLER PUSH1 0x40 MLOAD PUSH2 0x14A SWAP2 SWAP1 PUSH2 0x4AF JUMP JUMPDEST PUSH1 0x40 MLOAD DUP1 SWAP2 SUB SWAP1 LOG1 DUP3 TIMESTAMP SWAP2 POP SWAP2 POP SWAP2 POP SWAP2 JUMP JUMPDEST PUSH1 0x0 DUP1 DUP3 PUSH1 0x0 DUP2 SWAP1 SSTORE POP DUP3 TIMESTAMP SWAP2 POP SWAP2 POP SWAP2 POP SWAP2 JUMP JUMPDEST PUSH1 0x0 SLOAD DUP2 JUMP JUMPDEST PUSH1 0x60 PUSH1 0x1 PUSH1 0x40 MLOAD PUSH1 0x24 ADD PUSH2 0x18C SWAP2 SWAP1 PUSH2 0x52F JUMP JUMPDEST PUSH1 0x40 MLOAD PUSH1 0x20 DUP2 DUP4 SUB SUB DUP2 MSTORE SWAP1 PUSH1 0x40 MSTORE PUSH32 0x254E43DB00000000000000000000000000000000000000000000000000000000 PUSH28 0xFFFFFFFFFFFFFFFFFFFFFFFFFFFFFFFFFFFFFFFFFFFFFFFFFFFFFFFF NOT AND PUSH1 0x20 DUP3 ADD DUP1 MLOAD PUSH28 0xFFFFFFFFFFFFFFFFFFFFFFFFFFFFFFFFFFFFFFFFFFFFFFFFFFFFFFFF DUP4 DUP2 DUP4 AND OR DUP4 MSTORE POP POP POP POP SWAP1 POP SWAP1 JUMP JUMPDEST PUSH1 0x60 PUSH1 0x2 PUSH1 0x40 MLOAD PUSH1 0x24 ADD PUSH2 0x222 SWAP2 SWAP1 PUSH2 0x585 JUMP JUMPDEST PUSH1 0x40 MLOAD PUSH1 0x20 DUP2 DUP4 SUB SUB DUP2 MSTORE SWAP1 PUSH1 0x40 MSTORE PUSH32 0x16D93ADE00000000000000000000000000000000000000000000000000000000 PUSH28 0xFFFFFFFFFFFFFFFFFFFFFFFFFFFFFFFFFFFFFFFFFFFFFFFFFFFFFFFF NOT AND PUSH1 0x20 DUP3 ADD DUP1 MLOAD PUSH28 0xFFFFFFFFFFFFFFFFFFFFFFFFFFFFFFFFFFFFFFFFFFFFFFFFFFFFFFFF DUP4 DUP2 DUP4 AND OR DUP4 MSTORE POP POP POP POP SWAP1 POP SWAP1 JUMP JUMPDEST PUSH1 0x0 DUP1 REVERT JUMPDEST PUSH1 0x0 DUP2 SWAP1 POP SWAP2 SWAP1 POP JUMP JUMPDEST PUSH2 0x2BC DUP2 PUSH2 0x2A9 JUMP JUMPDEST DUP2 EQ PUSH2 0x2C7 JUMPI PUSH1 0x0 DUP1 REVERT JUMPDEST POP JUMP JUMPDEST PUSH1 0x0 DUP2 CALLDATALOAD SWAP1 POP PUSH2 0x2D9 DUP2 PUSH2 0x2B3 JUMP JUMPDEST SWAP3 SWAP2 POP POP JUMP JUMPDEST PUSH1 0x0 PUSH1 0x20 DUP3 DUP5 SUB SLT ISZERO PUSH2 0x2F5 JUMPI PUSH2 0x2F4 PUSH2 0x2A4 JUMP JUMPDEST JUMPDEST PUSH1 0x0 PUSH2 0x303 DUP5 DUP3 DUP6 ADD PUSH2 0x2CA JUMP JUMPDEST SWAP2 POP POP SWAP3 SWAP2 POP POP JUMP JUMPDEST PUSH2 0x315 DUP2 PUSH2 0x2A9 JUMP JUMPDEST DUP3 MSTORE POP POP JUMP JUMPDEST PUSH1 0x0 PUSH1 0x40 DUP3 ADD SWAP1 POP PUSH2 0x330 PUSH1 0x0 DUP4 ADD DUP6 PUSH2 0x30C JUMP JUMPDEST PUSH2 0x33D PUSH1 0x20 DUP4 ADD DUP5 PUSH2 0x30C JUMP JUMPDEST SWAP4 SWAP3 POP POP POP JUMP JUMPDEST PUSH1 0x0 PUSH1 0x20 DUP3 ADD SWAP1 POP PUSH2 0x359 PUSH1 0x0 DUP4 ADD DUP5 PUSH2 0x30C JUMP JUMPDEST SWAP3 SWAP2 POP POP JUMP JUMPDEST PUSH1 0x0 DUP2 MLOAD SWAP1 POP SWAP2 SWAP1 POP JUMP JUMPDEST PUSH1 0x0 DUP3 DUP3 MSTORE PUSH1 0x20 DUP3 ADD SWAP1 POP SWAP3 SWAP2 POP POP JUMP JUMPDEST PUSH1 0x0 JUMPDEST DUP4 DUP2 LT ISZERO PUSH2 0x399 JUMPI DUP1 DUP3 ADD MLOAD DUP2 DUP5 ADD MSTORE PUSH1 0x20 DUP2 ADD SWAP1 POP PUSH2 0x37E JUMP JUMPDEST PUSH1 0x0 DUP5 DUP5 ADD MSTORE POP POP POP POP JUMP JUMPDEST PUSH1 0x0 PUSH1 0x1F NOT PUSH1 0x1F DUP4 ADD AND SWAP1 POP SWAP2 SWAP1 POP JUMP JUMPDEST PUSH1 0x0 PUSH2 0x3C1 DUP3 PUSH2 0x35F JUMP JUMPDEST PUSH2 0x3CB DUP2 DUP6 PUSH2 0x36A JUMP JUMPDEST SWAP4 POP PUSH2 0x3DB DUP2 DUP6 PUSH1 0x20 DUP7 ADD PUSH2 0x37B JUMP JUMPDEST PUSH2 0x3E4 DUP2 PUSH2 0x3A5 JUMP JUMPDEST DUP5 ADD SWAP2 POP POP SWAP3 SWAP2 POP POP JUMP JUMPDEST PUSH1 0x0 PUSH1 0x20 DUP3 ADD SWAP1 POP DUP2 DUP2 SUB PUSH1 0x0 DUP4 ADD MSTORE PUSH2 0x409 DUP2 DUP5 PUSH2 0x3B6 JUMP JUMPDEST SWAP1 POP SWAP3 SWAP2 POP POP JUMP JUMPDEST PUSH1 0x0 PUSH20 0xFFFFFFFFFFFFFFFFFFFFFFFFFFFFFFFFFFFFFFFF DUP3 AND SWAP1 POP SWAP2 SWAP1 POP JUMP JUMPDEST PUSH1 0x0 PUSH2 0x43C DUP3 PUSH2 0x411 JUMP JUMPDEST SWAP1 POP SWAP2 SWAP1 POP JUMP JUMPDEST PUSH2 0x44C DUP2 PUSH2 0x431 JUMP JUMPDEST DUP3 MSTORE POP POP JUMP JUMPDEST PUSH1 0x0 DUP3 DUP3 MSTORE PUSH1 0x20 DUP3 ADD SWAP1 POP SWAP3 SWAP2 POP POP JUMP JUMPDEST PUSH32 0x66756E6332000000000000000000000000000000000000000000000000000000 PUSH1 0x0 DUP3 ADD MSTORE POP JUMP JUMPDEST PUSH1 0x0 PUSH2 0x499 PUSH1 0x5 DUP4 PUSH2 0x452 JUMP JUMPDEST SWAP2 POP PUSH2 0x4A4 DUP3 PUSH2 0x463 JUMP JUMPDEST PUSH1 0x20 DUP3 ADD SWAP1 POP SWAP2 SWAP1 POP JUMP JUMPDEST PUSH1 0x0 PUSH1 0x40 DUP3 ADD SWAP1 POP PUSH2 0x4C4 PUSH1 0x0 DUP4 ADD DUP5 PUSH2 0x443 JUMP JUMPDEST DUP2 DUP2 SUB PUSH1 0x20 DUP4 ADD MSTORE PUSH2 0x4D5 DUP2 PUSH2 0x48C JUMP JUMPDEST SWAP1 POP SWAP3 SWAP2 POP POP JUMP JUMPDEST PUSH1 0x0 DUP2 SWAP1 POP SWAP2 SWAP1 POP JUMP JUMPDEST PUSH1 0x0 PUSH1 0xFF DUP3 AND SWAP1 POP SWAP2 SWAP1 POP JUMP JUMPDEST PUSH1 0x0 DUP2 SWAP1 POP SWAP2 SWAP1 POP JUMP JUMPDEST PUSH1 0x0 PUSH2 0x519 PUSH2 0x514 PUSH2 0x50F DUP5 PUSH2 0x4DD JUMP JUMPDEST PUSH2 0x4F4 JUMP JUMPDEST PUSH2 0x4E7 JUMP JUMPDEST SWAP1 POP SWAP2 SWAP1 POP JUMP JUMPDEST PUSH2 0x529 DUP2 PUSH2 0x4FE JUMP JUMPDEST DUP3 MSTORE POP POP JUMP JUMPDEST PUSH1 0x0 PUSH1 0x20 DUP3 ADD SWAP1 POP PUSH2 0x544 PUSH1 0x0 DUP4 ADD DUP5 PUSH2 0x520 JUMP JUMPDEST SWAP3 SWAP2 POP POP JUMP JUMPDEST PUSH1 0x0 DUP2 SWAP1 POP SWAP2 SWAP1 POP JUMP JUMPDEST PUSH1 0x0 PUSH2 0x56F PUSH2 0x56A PUSH2 0x565 DUP5 PUSH2 0x54A JUMP JUMPDEST PUSH2 0x4F4 JUMP JUMPDEST PUSH2 0x4E7 JUMP JUMPDEST SWAP1 POP SWAP2 SWAP1 POP JUMP JUMPDEST PUSH2 0x57F DUP2 PUSH2 0x554 JUMP JUMPDEST DUP3 MSTORE POP POP JUMP JUMPDEST PUSH1 0x0 PUSH1 0x20 DUP3 ADD SWAP1 POP PUSH2 0x59A PUSH1 0x0 DUP4 ADD DUP5 PUSH2 0x576 JUMP JUMPDEST SWAP3 SWAP2 POP POP JUMP INVALID LOG2 PUSH5 0x6970667358 0x22 SLT KECCAK256 CALLDATALOAD PUSH17 0x88D873A5898DF2920C9DBF669D4AEE8F9 MUL PUSH6 0xF522194EF6C2 SWAP6 0xAC LT 0xBC PUSH17 0x64736F6C63430008120033000000000000 "
				},
				"gasEstimates": {
					"creation": {
						"codeDepositCost": "298800",
						"executionCost": "337",
						"totalCost": "299137"
					},
					"external": {
						"func1(uint256)": "infinite",
						"func2(uint256)": "infinite",
						"getData1()": "infinite",
						"getData2()": "infinite",
						"initValue()": "2451"
					}
				},
				"methodIdentifiers": {
					"func1(uint256)": "254e43db",
					"func2(uint256)": "16d93ade",
					"getData1()": "9944cc71",
					"getData2()": "a898fd70",
					"initValue()": "2fc36f11"
				}
			},
			"storageLayout": {
				"storage": [
					{
						"astId": 9,
						"contract": "cuimianMaster/MultiCall.sol:TestMultiCall",
						"label": "initValue",
						"offset": 0,
						"slot": "0",
						"type": "t_uint256"
					}
				],
				"types": {
					"t_uint256": {
						"encoding": "inplace",
						"label": "uint256",
						"numberOfBytes": "32"
					}
				}
			},
			"userdoc": {
				"kind": "user",
				"methods": {},
				"version": 1
			}
		}
	}
}