{
	"contract-blindAuction.sol": {
		"BlindAuction": {
			"abi": [
				{
					"inputs": [
						{
							"internalType": "uint256",
							"name": "biddingTime",
							"type": "uint256"
						},
						{
							"internalType": "uint256",
							"name": "revealTime",
							"type": "uint256"
						},
						{
							"internalType": "address payable",
							"name": "beneficiaryAddress",
							"type": "address"
						}
					],
					"stateMutability": "nonpayable",
					"type": "constructor"
				},
				{
					"inputs": [],
					"name": "AuctionEndAlreadyCalled",
					"type": "error"
				},
				{
					"inputs": [
						{
							"internalType": "uint256",
							"name": "time",
							"type": "uint256"
						}
					],
					"name": "TooEarly",
					"type": "error"
				},
				{
					"inputs": [
						{
							"internalType": "uint256",
							"name": "time",
							"type": "uint256"
						}
					],
					"name": "TooLate",
					"type": "error"
				},
				{
					"anonymous": false,
					"inputs": [
						{
							"indexed": false,
							"internalType": "address",
							"name": "winner",
							"type": "address"
						},
						{
							"indexed": false,
							"internalType": "uint256",
							"name": "highestBid",
							"type": "uint256"
						}
					],
					"name": "AuctionEnded",
					"type": "event"
				},
				{
					"inputs": [],
					"name": "auctionEnd",
					"outputs": [],
					"stateMutability": "nonpayable",
					"type": "function"
				},
				{
					"inputs": [],
					"name": "beneficiary",
					"outputs": [
						{
							"internalType": "address payable",
							"name": "",
							"type": "address"
						}
					],
					"stateMutability": "view",
					"type": "function"
				},
				{
					"inputs": [
						{
							"internalType": "bytes32",
							"name": "blindedBid",
							"type": "bytes32"
						}
					],
					"name": "bid",
					"outputs": [],
					"stateMutability": "payable",
					"type": "function"
				},
				{
					"inputs": [],
					"name": "biddingEnd",
					"outputs": [
						{
							"internalType": "uint256",
							"name": "",
							"type": "uint256"
						}
					],
					"stateMutability": "view",
					"type": "function"
				},
				{
					"inputs": [
						{
							"internalType": "address",
							"name": "",
							"type": "address"
						},
						{
							"internalType": "uint256",
							"name": "",
							"type": "uint256"
						}
					],
					"name": "bids",
					"outputs": [
						{
							"internalType": "bytes32",
							"name": "blindedBid",
							"type": "bytes32"
						},
						{
							"internalType": "uint256",
							"name": "deposit",
							"type": "uint256"
						}
					],
					"stateMutability": "view",
					"type": "function"
				},
				{
					"inputs": [],
					"name": "ended",
					"outputs": [
						{
							"internalType": "bool",
							"name": "",
							"type": "bool"
						}
					],
					"stateMutability": "view",
					"type": "function"
				},
				{
					"inputs": [],
					"name": "highestBid",
					"outputs": [
						{
							"internalType": "uint256",
							"name": "",
							"type": "uint256"
						}
					],
					"stateMutability": "view",
					"type": "function"
				},
				{
					"inputs": [],
					"name": "highestBidder",
					"outputs": [
						{
							"internalType": "address",
							"name": "",
							"type": "address"
						}
					],
					"stateMutability": "view",
					"type": "function"
				},
				{
					"inputs": [
						{
							"internalType": "uint256[]",
							"name": "values",
							"type": "uint256[]"
						},
						{
							"internalType": "bool[]",
							"name": "fakes",
							"type": "bool[]"
						},
						{
							"internalType": "bytes32[]",
							"name": "secrets",
							"type": "bytes32[]"
						}
					],
					"name": "reveal",
					"outputs": [],
					"stateMutability": "nonpayable",
					"type": "function"
				},
				{
					"inputs": [],
					"name": "revealEnd",
					"outputs": [
						{
							"internalType": "uint256",
							"name": "",
							"type": "uint256"
						}
					],
					"stateMutability": "view",
					"type": "function"
				},
				{
					"inputs": [],
					"name": "withdraw",
					"outputs": [],
					"stateMutability": "nonpayable",
					"type": "function"
				}
			],
			"devdoc": {
				"kind": "dev",
				"methods": {},
				"version": 1
			},
			"evm": {
				"assembly": "    /* \"contract-blindAuction.sol\":60:5605  contract BlindAuction {... */\n  mstore(0x40, 0x80)\n    /* \"contract-blindAuction.sol\":1427:1686  constructor(... */\n  callvalue\n  dup1\n  iszero\n  tag_1\n  jumpi\n  0x00\n  dup1\n  revert\ntag_1:\n  pop\n  mload(0x40)\n  sub(codesize, bytecodeSize)\n  dup1\n  bytecodeSize\n  dup4\n  codecopy\n  dup2\n  dup2\n  add\n  0x40\n  mstore\n  dup2\n  add\n  swap1\n  tag_2\n  swap2\n  swap1\n  tag_3\n  jump\t// in\ntag_2:\n    /* \"contract-blindAuction.sol\":1564:1582  beneficiaryAddress */\n  dup1\n    /* \"contract-blindAuction.sol\":1550:1561  beneficiary */\n  0x00\n  dup1\n    /* \"contract-blindAuction.sol\":1550:1582  beneficiary = beneficiaryAddress */\n  0x0100\n  exp\n  dup2\n  sload\n  dup2\n  0xffffffffffffffffffffffffffffffffffffffff\n  mul\n  not\n  and\n  swap1\n  dup4\n  0xffffffffffffffffffffffffffffffffffffffff\n  and\n  mul\n  or\n  swap1\n  sstore\n  pop\n    /* \"contract-blindAuction.sol\":1623:1634  biddingTime */\n  dup3\n    /* \"contract-blindAuction.sol\":1605:1620  block.timestamp */\n  timestamp\n    /* \"contract-blindAuction.sol\":1605:1634  block.timestamp + biddingTime */\n  tag_6\n  swap2\n  swap1\n  tag_7\n  jump\t// in\ntag_6:\n    /* \"contract-blindAuction.sol\":1592:1602  biddingEnd */\n  0x01\n    /* \"contract-blindAuction.sol\":1592:1634  biddingEnd = block.timestamp + biddingTime */\n  dup2\n  swap1\n  sstore\n  pop\n    /* \"contract-blindAuction.sol\":1669:1679  revealTime */\n  dup2\n    /* \"contract-blindAuction.sol\":1656:1666  biddingEnd */\n  sload(0x01)\n    /* \"contract-blindAuction.sol\":1656:1679  biddingEnd + revealTime */\n  tag_8\n  swap2\n  swap1\n  tag_7\n  jump\t// in\ntag_8:\n    /* \"contract-blindAuction.sol\":1644:1653  revealEnd */\n  0x02\n    /* \"contract-blindAuction.sol\":1644:1679  revealEnd = biddingEnd + revealTime */\n  dup2\n  swap1\n  sstore\n  pop\n    /* \"contract-blindAuction.sol\":1427:1686  constructor(... */\n  pop\n  pop\n  pop\n    /* \"contract-blindAuction.sol\":60:5605  contract BlindAuction {... */\n  jump(tag_9)\n    /* \"#utility.yul\":88:205   */\ntag_11:\n    /* \"#utility.yul\":197:198   */\n  0x00\n    /* \"#utility.yul\":194:195   */\n  dup1\n    /* \"#utility.yul\":187:199   */\n  revert\n    /* \"#utility.yul\":334:411   */\ntag_13:\n    /* \"#utility.yul\":371:378   */\n  0x00\n    /* \"#utility.yul\":400:405   */\n  dup2\n    /* \"#utility.yul\":389:405   */\n  swap1\n  pop\n    /* \"#utility.yul\":334:411   */\n  swap2\n  swap1\n  pop\n  jump\t// out\n    /* \"#utility.yul\":417:539   */\ntag_14:\n    /* \"#utility.yul\":490:514   */\n  tag_27\n    /* \"#utility.yul\":508:513   */\n  dup2\n    /* \"#utility.yul\":490:514   */\n  tag_13\n  jump\t// in\ntag_27:\n    /* \"#utility.yul\":483:488   */\n  dup2\n    /* \"#utility.yul\":480:515   */\n  eq\n    /* \"#utility.yul\":470:533   */\n  tag_28\n  jumpi\n    /* \"#utility.yul\":529:530   */\n  0x00\n    /* \"#utility.yul\":526:527   */\n  dup1\n    /* \"#utility.yul\":519:531   */\n  revert\n    /* \"#utility.yul\":470:533   */\ntag_28:\n    /* \"#utility.yul\":417:539   */\n  pop\n  jump\t// out\n    /* \"#utility.yul\":545:688   */\ntag_15:\n    /* \"#utility.yul\":602:607   */\n  0x00\n    /* \"#utility.yul\":633:639   */\n  dup2\n    /* \"#utility.yul\":627:640   */\n  mload\n    /* \"#utility.yul\":618:640   */\n  swap1\n  pop\n    /* \"#utility.yul\":649:682   */\n  tag_30\n    /* \"#utility.yul\":676:681   */\n  dup2\n    /* \"#utility.yul\":649:682   */\n  tag_14\n  jump\t// in\ntag_30:\n    /* \"#utility.yul\":545:688   */\n  swap3\n  swap2\n  pop\n  pop\n  jump\t// out\n    /* \"#utility.yul\":694:820   */\ntag_16:\n    /* \"#utility.yul\":731:738   */\n  0x00\n    /* \"#utility.yul\":771:813   */\n  0xffffffffffffffffffffffffffffffffffffffff\n    /* \"#utility.yul\":764:769   */\n  dup3\n    /* \"#utility.yul\":760:814   */\n  and\n    /* \"#utility.yul\":749:814   */\n  swap1\n  pop\n    /* \"#utility.yul\":694:820   */\n  swap2\n  swap1\n  pop\n  jump\t// out\n    /* \"#utility.yul\":826:930   */\ntag_17:\n    /* \"#utility.yul\":871:878   */\n  0x00\n    /* \"#utility.yul\":900:924   */\n  tag_33\n    /* \"#utility.yul\":918:923   */\n  dup3\n    /* \"#utility.yul\":900:924   */\n  tag_16\n  jump\t// in\ntag_33:\n    /* \"#utility.yul\":889:924   */\n  swap1\n  pop\n    /* \"#utility.yul\":826:930   */\n  swap2\n  swap1\n  pop\n  jump\t// out\n    /* \"#utility.yul\":936:1074   */\ntag_18:\n    /* \"#utility.yul\":1017:1049   */\n  tag_35\n    /* \"#utility.yul\":1043:1048   */\n  dup2\n    /* \"#utility.yul\":1017:1049   */\n  tag_17\n  jump\t// in\ntag_35:\n    /* \"#utility.yul\":1010:1015   */\n  dup2\n    /* \"#utility.yul\":1007:1050   */\n  eq\n    /* \"#utility.yul\":997:1068   */\n  tag_36\n  jumpi\n    /* \"#utility.yul\":1064:1065   */\n  0x00\n    /* \"#utility.yul\":1061:1062   */\n  dup1\n    /* \"#utility.yul\":1054:1066   */\n  revert\n    /* \"#utility.yul\":997:1068   */\ntag_36:\n    /* \"#utility.yul\":936:1074   */\n  pop\n  jump\t// out\n    /* \"#utility.yul\":1080:1239   */\ntag_19:\n    /* \"#utility.yul\":1145:1150   */\n  0x00\n    /* \"#utility.yul\":1176:1182   */\n  dup2\n    /* \"#utility.yul\":1170:1183   */\n  mload\n    /* \"#utility.yul\":1161:1183   */\n  swap1\n  pop\n    /* \"#utility.yul\":1192:1233   */\n  tag_38\n    /* \"#utility.yul\":1227:1232   */\n  dup2\n    /* \"#utility.yul\":1192:1233   */\n  tag_18\n  jump\t// in\ntag_38:\n    /* \"#utility.yul\":1080:1239   */\n  swap3\n  swap2\n  pop\n  pop\n  jump\t// out\n    /* \"#utility.yul\":1245:1924   */\ntag_3:\n    /* \"#utility.yul\":1341:1347   */\n  0x00\n    /* \"#utility.yul\":1349:1355   */\n  dup1\n    /* \"#utility.yul\":1357:1363   */\n  0x00\n    /* \"#utility.yul\":1406:1408   */\n  0x60\n    /* \"#utility.yul\":1394:1403   */\n  dup5\n    /* \"#utility.yul\":1385:1392   */\n  dup7\n    /* \"#utility.yul\":1381:1404   */\n  sub\n    /* \"#utility.yul\":1377:1409   */\n  slt\n    /* \"#utility.yul\":1374:1493   */\n  iszero\n  tag_40\n  jumpi\n    /* \"#utility.yul\":1412:1491   */\n  tag_41\n  tag_11\n  jump\t// in\ntag_41:\n    /* \"#utility.yul\":1374:1493   */\ntag_40:\n    /* \"#utility.yul\":1532:1533   */\n  0x00\n    /* \"#utility.yul\":1557:1621   */\n  tag_42\n    /* \"#utility.yul\":1613:1620   */\n  dup7\n    /* \"#utility.yul\":1604:1610   */\n  dup3\n    /* \"#utility.yul\":1593:1602   */\n  dup8\n    /* \"#utility.yul\":1589:1611   */\n  add\n    /* \"#utility.yul\":1557:1621   */\n  tag_15\n  jump\t// in\ntag_42:\n    /* \"#utility.yul\":1547:1621   */\n  swap4\n  pop\n    /* \"#utility.yul\":1503:1631   */\n  pop\n    /* \"#utility.yul\":1670:1672   */\n  0x20\n    /* \"#utility.yul\":1696:1760   */\n  tag_43\n    /* \"#utility.yul\":1752:1759   */\n  dup7\n    /* \"#utility.yul\":1743:1749   */\n  dup3\n    /* \"#utility.yul\":1732:1741   */\n  dup8\n    /* \"#utility.yul\":1728:1750   */\n  add\n    /* \"#utility.yul\":1696:1760   */\n  tag_15\n  jump\t// in\ntag_43:\n    /* \"#utility.yul\":1686:1760   */\n  swap3\n  pop\n    /* \"#utility.yul\":1641:1770   */\n  pop\n    /* \"#utility.yul\":1809:1811   */\n  0x40\n    /* \"#utility.yul\":1835:1907   */\n  tag_44\n    /* \"#utility.yul\":1899:1906   */\n  dup7\n    /* \"#utility.yul\":1890:1896   */\n  dup3\n    /* \"#utility.yul\":1879:1888   */\n  dup8\n    /* \"#utility.yul\":1875:1897   */\n  add\n    /* \"#utility.yul\":1835:1907   */\n  tag_19\n  jump\t// in\ntag_44:\n    /* \"#utility.yul\":1825:1907   */\n  swap2\n  pop\n    /* \"#utility.yul\":1780:1917   */\n  pop\n    /* \"#utility.yul\":1245:1924   */\n  swap3\n  pop\n  swap3\n  pop\n  swap3\n  jump\t// out\n    /* \"#utility.yul\":1930:2110   */\ntag_20:\n    /* \"#utility.yul\":1978:2055   */\n  0x4e487b7100000000000000000000000000000000000000000000000000000000\n    /* \"#utility.yul\":1975:1976   */\n  0x00\n    /* \"#utility.yul\":1968:2056   */\n  mstore\n    /* \"#utility.yul\":2075:2079   */\n  0x11\n    /* \"#utility.yul\":2072:2073   */\n  0x04\n    /* \"#utility.yul\":2065:2080   */\n  mstore\n    /* \"#utility.yul\":2099:2103   */\n  0x24\n    /* \"#utility.yul\":2096:2097   */\n  0x00\n    /* \"#utility.yul\":2089:2104   */\n  revert\n    /* \"#utility.yul\":2116:2307   */\ntag_7:\n    /* \"#utility.yul\":2156:2159   */\n  0x00\n    /* \"#utility.yul\":2175:2195   */\n  tag_47\n    /* \"#utility.yul\":2193:2194   */\n  dup3\n    /* \"#utility.yul\":2175:2195   */\n  tag_13\n  jump\t// in\ntag_47:\n    /* \"#utility.yul\":2170:2195   */\n  swap2\n  pop\n    /* \"#utility.yul\":2209:2229   */\n  tag_48\n    /* \"#utility.yul\":2227:2228   */\n  dup4\n    /* \"#utility.yul\":2209:2229   */\n  tag_13\n  jump\t// in\ntag_48:\n    /* \"#utility.yul\":2204:2229   */\n  swap3\n  pop\n    /* \"#utility.yul\":2252:2253   */\n  dup3\n    /* \"#utility.yul\":2249:2250   */\n  dup3\n    /* \"#utility.yul\":2245:2254   */\n  add\n    /* \"#utility.yul\":2238:2254   */\n  swap1\n  pop\n    /* \"#utility.yul\":2273:2276   */\n  dup1\n    /* \"#utility.yul\":2270:2271   */\n  dup3\n    /* \"#utility.yul\":2267:2277   */\n  gt\n    /* \"#utility.yul\":2264:2300   */\n  iszero\n  tag_49\n  jumpi\n    /* \"#utility.yul\":2280:2298   */\n  tag_50\n  tag_20\n  jump\t// in\ntag_50:\n    /* \"#utility.yul\":2264:2300   */\ntag_49:\n    /* \"#utility.yul\":2116:2307   */\n  swap3\n  swap2\n  pop\n  pop\n  jump\t// out\n    /* \"contract-blindAuction.sol\":60:5605  contract BlindAuction {... */\ntag_9:\n  dataSize(sub_0)\n  dup1\n  dataOffset(sub_0)\n  0x00\n  codecopy\n  0x00\n  return\nstop\n\nsub_0: assembly {\n        /* \"contract-blindAuction.sol\":60:5605  contract BlindAuction {... */\n      mstore(0x40, 0x80)\n      jumpi(tag_1, lt(calldatasize, 0x04))\n      shr(0xe0, calldataload(0x00))\n      dup1\n      0x423b217f\n      gt\n      tag_13\n      jumpi\n      dup1\n      0x423b217f\n      eq\n      tag_7\n      jumpi\n      dup1\n      0x900f080a\n      eq\n      tag_8\n      jumpi\n      dup1\n      0x91f90157\n      eq\n      tag_9\n      jumpi\n      dup1\n      0x957bb1e0\n      eq\n      tag_10\n      jumpi\n      dup1\n      0xa6e66477\n      eq\n      tag_11\n      jumpi\n      dup1\n      0xd57bde79\n      eq\n      tag_12\n      jumpi\n      jump(tag_1)\n    tag_13:\n      dup1\n      0x01495c1c\n      eq\n      tag_2\n      jumpi\n      dup1\n      0x12fa6feb\n      eq\n      tag_3\n      jumpi\n      dup1\n      0x2a24f46c\n      eq\n      tag_4\n      jumpi\n      dup1\n      0x38af3eed\n      eq\n      tag_5\n      jumpi\n      dup1\n      0x3ccfd60b\n      eq\n      tag_6\n      jumpi\n    tag_1:\n      0x00\n      dup1\n      revert\n        /* \"contract-blindAuction.sol\":320:357  mapping(address => Bid[]) public bids */\n    tag_2:\n      callvalue\n      dup1\n      iszero\n      tag_14\n      jumpi\n      0x00\n      dup1\n      revert\n    tag_14:\n      pop\n      tag_15\n      0x04\n      dup1\n      calldatasize\n      sub\n      dup2\n      add\n      swap1\n      tag_16\n      swap2\n      swap1\n      tag_17\n      jump\t// in\n    tag_16:\n      tag_18\n      jump\t// in\n    tag_15:\n      mload(0x40)\n      tag_19\n      swap3\n      swap2\n      swap1\n      tag_20\n      jump\t// in\n    tag_19:\n      mload(0x40)\n      dup1\n      swap2\n      sub\n      swap1\n      return\n        /* \"contract-blindAuction.sol\":296:313  bool public ended */\n    tag_3:\n      callvalue\n      dup1\n      iszero\n      tag_21\n      jumpi\n      0x00\n      dup1\n      revert\n    tag_21:\n      pop\n      tag_22\n      tag_23\n      jump\t// in\n    tag_22:\n      mload(0x40)\n      tag_24\n      swap2\n      swap1\n      tag_25\n      jump\t// in\n    tag_24:\n      mload(0x40)\n      dup1\n      swap2\n      sub\n      swap1\n      return\n        /* \"contract-blindAuction.sol\":4736:4986  function auctionEnd()... */\n    tag_4:\n      callvalue\n      dup1\n      iszero\n      tag_26\n      jumpi\n      0x00\n      dup1\n      revert\n    tag_26:\n      pop\n      tag_27\n      tag_28\n      jump\t// in\n    tag_27:\n      stop\n        /* \"contract-blindAuction.sol\":201:235  address payable public beneficiary */\n    tag_5:\n      callvalue\n      dup1\n      iszero\n      tag_29\n      jumpi\n      0x00\n      dup1\n      revert\n    tag_29:\n      pop\n      tag_30\n      tag_31\n      jump\t// in\n    tag_30:\n      mload(0x40)\n      tag_32\n      swap2\n      swap1\n      tag_33\n      jump\t// in\n    tag_32:\n      mload(0x40)\n      dup1\n      swap2\n      sub\n      swap1\n      return\n        /* \"contract-blindAuction.sol\":4166:4653  function withdraw() external {... */\n    tag_6:\n      callvalue\n      dup1\n      iszero\n      tag_34\n      jumpi\n      0x00\n      dup1\n      revert\n    tag_34:\n      pop\n      tag_35\n      tag_36\n      jump\t// in\n    tag_35:\n      stop\n        /* \"contract-blindAuction.sol\":241:263  uint public biddingEnd */\n    tag_7:\n      callvalue\n      dup1\n      iszero\n      tag_37\n      jumpi\n      0x00\n      dup1\n      revert\n    tag_37:\n      pop\n      tag_38\n      tag_39\n      jump\t// in\n    tag_38:\n      mload(0x40)\n      tag_40\n      swap2\n      swap1\n      tag_41\n      jump\t// in\n    tag_40:\n      mload(0x40)\n      dup1\n      swap2\n      sub\n      swap1\n      return\n        /* \"contract-blindAuction.sol\":2599:3981  function reveal(... */\n    tag_8:\n      callvalue\n      dup1\n      iszero\n      tag_42\n      jumpi\n      0x00\n      dup1\n      revert\n    tag_42:\n      pop\n      tag_43\n      0x04\n      dup1\n      calldatasize\n      sub\n      dup2\n      add\n      swap1\n      tag_44\n      swap2\n      swap1\n      tag_45\n      jump\t// in\n    tag_44:\n      tag_46\n      jump\t// in\n    tag_43:\n      stop\n        /* \"contract-blindAuction.sol\":364:392  address public highestBidder */\n    tag_9:\n      callvalue\n      dup1\n      iszero\n      tag_47\n      jumpi\n      0x00\n      dup1\n      revert\n    tag_47:\n      pop\n      tag_48\n      tag_49\n      jump\t// in\n    tag_48:\n      mload(0x40)\n      tag_50\n      swap2\n      swap1\n      tag_51\n      jump\t// in\n    tag_50:\n      mload(0x40)\n      dup1\n      swap2\n      sub\n      swap1\n      return\n        /* \"contract-blindAuction.sol\":2209:2433  function bid(bytes32 blindedBid)... */\n    tag_10:\n      tag_52\n      0x04\n      dup1\n      calldatasize\n      sub\n      dup2\n      add\n      swap1\n      tag_53\n      swap2\n      swap1\n      tag_54\n      jump\t// in\n    tag_53:\n      tag_55\n      jump\t// in\n    tag_52:\n      stop\n        /* \"contract-blindAuction.sol\":269:290  uint public revealEnd */\n    tag_11:\n      callvalue\n      dup1\n      iszero\n      tag_56\n      jumpi\n      0x00\n      dup1\n      revert\n    tag_56:\n      pop\n      tag_57\n      tag_58\n      jump\t// in\n    tag_57:\n      mload(0x40)\n      tag_59\n      swap2\n      swap1\n      tag_41\n      jump\t// in\n    tag_59:\n      mload(0x40)\n      dup1\n      swap2\n      sub\n      swap1\n      return\n        /* \"contract-blindAuction.sol\":398:420  uint public highestBid */\n    tag_12:\n      callvalue\n      dup1\n      iszero\n      tag_60\n      jumpi\n      0x00\n      dup1\n      revert\n    tag_60:\n      pop\n      tag_61\n      tag_62\n      jump\t// in\n    tag_61:\n      mload(0x40)\n      tag_63\n      swap2\n      swap1\n      tag_41\n      jump\t// in\n    tag_63:\n      mload(0x40)\n      dup1\n      swap2\n      sub\n      swap1\n      return\n        /* \"contract-blindAuction.sol\":320:357  mapping(address => Bid[]) public bids */\n    tag_18:\n      mstore(0x20, 0x04)\n      dup2\n      0x00\n      mstore\n      keccak256(0x00, 0x40)\n      dup2\n      dup2\n      sload\n      dup2\n      lt\n      tag_64\n      jumpi\n      0x00\n      dup1\n      revert\n    tag_64:\n      swap1\n      0x00\n      mstore\n      keccak256(0x00, 0x20)\n      swap1\n      0x02\n      mul\n      add\n      0x00\n      swap2\n      pop\n      swap2\n      pop\n      pop\n      dup1\n      0x00\n      add\n      sload\n      swap1\n      dup1\n      0x01\n      add\n      sload\n      swap1\n      pop\n      dup3\n      jump\t// out\n        /* \"contract-blindAuction.sol\":296:313  bool public ended */\n    tag_23:\n      0x03\n      0x00\n      swap1\n      sload\n      swap1\n      0x0100\n      exp\n      swap1\n      div\n      0xff\n      and\n      dup2\n      jump\t// out\n        /* \"contract-blindAuction.sol\":4736:4986  function auctionEnd()... */\n    tag_28:\n        /* \"contract-blindAuction.sol\":4793:4802  revealEnd */\n      sload(0x02)\n        /* \"contract-blindAuction.sol\":1376:1380  time */\n      dup1\n        /* \"contract-blindAuction.sol\":1357:1372  block.timestamp */\n      timestamp\n        /* \"contract-blindAuction.sol\":1357:1380  block.timestamp <= time */\n      gt\n        /* \"contract-blindAuction.sol\":1353:1403  if (block.timestamp <= time) revert TooEarly(time) */\n      tag_67\n      jumpi\n        /* \"contract-blindAuction.sol\":1398:1402  time */\n      dup1\n        /* \"contract-blindAuction.sol\":1389:1403  TooEarly(time) */\n      mload(0x40)\n      0x2a35a32400000000000000000000000000000000000000000000000000000000\n      dup2\n      mstore\n      0x04\n      add\n      tag_68\n      swap2\n      swap1\n      tag_41\n      jump\t// in\n    tag_68:\n      mload(0x40)\n      dup1\n      swap2\n      sub\n      swap1\n      revert\n        /* \"contract-blindAuction.sol\":1353:1403  if (block.timestamp <= time) revert TooEarly(time) */\n    tag_67:\n        /* \"contract-blindAuction.sol\":4822:4827  ended */\n      0x03\n      0x00\n      swap1\n      sload\n      swap1\n      0x0100\n      exp\n      swap1\n      div\n      0xff\n      and\n        /* \"contract-blindAuction.sol\":4818:4861  if (ended) revert AuctionEndAlreadyCalled() */\n      iszero\n      tag_70\n      jumpi\n        /* \"contract-blindAuction.sol\":4836:4861  AuctionEndAlreadyCalled() */\n      mload(0x40)\n      0x61cfdcf800000000000000000000000000000000000000000000000000000000\n      dup2\n      mstore\n      0x04\n      add\n      mload(0x40)\n      dup1\n      swap2\n      sub\n      swap1\n      revert\n        /* \"contract-blindAuction.sol\":4818:4861  if (ended) revert AuctionEndAlreadyCalled() */\n    tag_70:\n        /* \"contract-blindAuction.sol\":4876:4915  AuctionEnded(highestBidder, highestBid) */\n      0xdaec4582d5d9595688c8c98545fdd1c696d41c6aeaeb636737e84ed2f5c00eda\n        /* \"contract-blindAuction.sol\":4889:4902  highestBidder */\n      0x05\n      0x00\n      swap1\n      sload\n      swap1\n      0x0100\n      exp\n      swap1\n      div\n      0xffffffffffffffffffffffffffffffffffffffff\n      and\n        /* \"contract-blindAuction.sol\":4904:4914  highestBid */\n      sload(0x06)\n        /* \"contract-blindAuction.sol\":4876:4915  AuctionEnded(highestBidder, highestBid) */\n      mload(0x40)\n      tag_71\n      swap3\n      swap2\n      swap1\n      tag_72\n      jump\t// in\n    tag_71:\n      mload(0x40)\n      dup1\n      swap2\n      sub\n      swap1\n      log1\n        /* \"contract-blindAuction.sol\":4933:4937  true */\n      0x01\n        /* \"contract-blindAuction.sol\":4925:4930  ended */\n      0x03\n      0x00\n        /* \"contract-blindAuction.sol\":4925:4937  ended = true */\n      0x0100\n      exp\n      dup2\n      sload\n      dup2\n      0xff\n      mul\n      not\n      and\n      swap1\n      dup4\n      iszero\n      iszero\n      mul\n      or\n      swap1\n      sstore\n      pop\n        /* \"contract-blindAuction.sol\":4947:4958  beneficiary */\n      0x00\n      dup1\n      sload\n      swap1\n      0x0100\n      exp\n      swap1\n      div\n      0xffffffffffffffffffffffffffffffffffffffff\n      and\n        /* \"contract-blindAuction.sol\":4947:4967  beneficiary.transfer */\n      0xffffffffffffffffffffffffffffffffffffffff\n      and\n        /* \"contract-blindAuction.sol\":4947:4979  beneficiary.transfer(highestBid) */\n      0x08fc\n        /* \"contract-blindAuction.sol\":4968:4978  highestBid */\n      sload(0x06)\n        /* \"contract-blindAuction.sol\":4947:4979  beneficiary.transfer(highestBid) */\n      swap1\n      dup2\n      iszero\n      mul\n      swap1\n      mload(0x40)\n      0x00\n      mload(0x40)\n      dup1\n      dup4\n      sub\n      dup2\n      dup6\n      dup9\n      dup9\n      call\n      swap4\n      pop\n      pop\n      pop\n      pop\n      iszero\n      dup1\n      iszero\n      tag_74\n      jumpi\n      returndatasize\n      0x00\n      dup1\n      returndatacopy\n      revert(0x00, returndatasize)\n    tag_74:\n      pop\n        /* \"contract-blindAuction.sol\":4736:4986  function auctionEnd()... */\n      pop\n      jump\t// out\n        /* \"contract-blindAuction.sol\":201:235  address payable public beneficiary */\n    tag_31:\n      0x00\n      dup1\n      sload\n      swap1\n      0x0100\n      exp\n      swap1\n      div\n      0xffffffffffffffffffffffffffffffffffffffff\n      and\n      dup2\n      jump\t// out\n        /* \"contract-blindAuction.sol\":4166:4653  function withdraw() external {... */\n    tag_36:\n        /* \"contract-blindAuction.sol\":4205:4216  uint amount */\n      0x00\n        /* \"contract-blindAuction.sol\":4219:4233  pendingReturns */\n      0x07\n        /* \"contract-blindAuction.sol\":4219:4245  pendingReturns[msg.sender] */\n      0x00\n        /* \"contract-blindAuction.sol\":4234:4244  msg.sender */\n      caller\n        /* \"contract-blindAuction.sol\":4219:4245  pendingReturns[msg.sender] */\n      0xffffffffffffffffffffffffffffffffffffffff\n      and\n      0xffffffffffffffffffffffffffffffffffffffff\n      and\n      dup2\n      mstore\n      0x20\n      add\n      swap1\n      dup2\n      mstore\n      0x20\n      add\n      0x00\n      keccak256\n      sload\n        /* \"contract-blindAuction.sol\":4205:4245  uint amount = pendingReturns[msg.sender] */\n      swap1\n      pop\n        /* \"contract-blindAuction.sol\":4268:4269  0 */\n      0x00\n        /* \"contract-blindAuction.sol\":4259:4265  amount */\n      dup2\n        /* \"contract-blindAuction.sol\":4259:4269  amount > 0 */\n      gt\n        /* \"contract-blindAuction.sol\":4255:4647  if (amount > 0) {... */\n      iszero\n      tag_76\n      jumpi\n        /* \"contract-blindAuction.sol\":4584:4585  0 */\n      0x00\n        /* \"contract-blindAuction.sol\":4555:4569  pendingReturns */\n      0x07\n        /* \"contract-blindAuction.sol\":4555:4581  pendingReturns[msg.sender] */\n      0x00\n        /* \"contract-blindAuction.sol\":4570:4580  msg.sender */\n      caller\n        /* \"contract-blindAuction.sol\":4555:4581  pendingReturns[msg.sender] */\n      0xffffffffffffffffffffffffffffffffffffffff\n      and\n      0xffffffffffffffffffffffffffffffffffffffff\n      and\n      dup2\n      mstore\n      0x20\n      add\n      swap1\n      dup2\n      mstore\n      0x20\n      add\n      0x00\n      keccak256\n        /* \"contract-blindAuction.sol\":4555:4585  pendingReturns[msg.sender] = 0 */\n      dup2\n      swap1\n      sstore\n      pop\n        /* \"contract-blindAuction.sol\":4608:4618  msg.sender */\n      caller\n        /* \"contract-blindAuction.sol\":4600:4628  payable(msg.sender).transfer */\n      0xffffffffffffffffffffffffffffffffffffffff\n      and\n        /* \"contract-blindAuction.sol\":4600:4636  payable(msg.sender).transfer(amount) */\n      0x08fc\n        /* \"contract-blindAuction.sol\":4629:4635  amount */\n      dup3\n        /* \"contract-blindAuction.sol\":4600:4636  payable(msg.sender).transfer(amount) */\n      swap1\n      dup2\n      iszero\n      mul\n      swap1\n      mload(0x40)\n      0x00\n      mload(0x40)\n      dup1\n      dup4\n      sub\n      dup2\n      dup6\n      dup9\n      dup9\n      call\n      swap4\n      pop\n      pop\n      pop\n      pop\n      iszero\n      dup1\n      iszero\n      tag_78\n      jumpi\n      returndatasize\n      0x00\n      dup1\n      returndatacopy\n      revert(0x00, returndatasize)\n    tag_78:\n      pop\n        /* \"contract-blindAuction.sol\":4255:4647  if (amount > 0) {... */\n    tag_76:\n        /* \"contract-blindAuction.sol\":4195:4653  {... */\n      pop\n        /* \"contract-blindAuction.sol\":4166:4653  function withdraw() external {... */\n      jump\t// out\n        /* \"contract-blindAuction.sol\":241:263  uint public biddingEnd */\n    tag_39:\n      sload(0x01)\n      dup2\n      jump\t// out\n        /* \"contract-blindAuction.sol\":2599:3981  function reveal(... */\n    tag_46:\n        /* \"contract-blindAuction.sol\":2755:2765  biddingEnd */\n      sload(0x01)\n        /* \"contract-blindAuction.sol\":1376:1380  time */\n      dup1\n        /* \"contract-blindAuction.sol\":1357:1372  block.timestamp */\n      timestamp\n        /* \"contract-blindAuction.sol\":1357:1380  block.timestamp <= time */\n      gt\n        /* \"contract-blindAuction.sol\":1353:1403  if (block.timestamp <= time) revert TooEarly(time) */\n      tag_80\n      jumpi\n        /* \"contract-blindAuction.sol\":1398:1402  time */\n      dup1\n        /* \"contract-blindAuction.sol\":1389:1403  TooEarly(time) */\n      mload(0x40)\n      0x2a35a32400000000000000000000000000000000000000000000000000000000\n      dup2\n      mstore\n      0x04\n      add\n      tag_81\n      swap2\n      swap1\n      tag_41\n      jump\t// in\n    tag_81:\n      mload(0x40)\n      dup1\n      swap2\n      sub\n      swap1\n      revert\n        /* \"contract-blindAuction.sol\":1353:1403  if (block.timestamp <= time) revert TooEarly(time) */\n    tag_80:\n        /* \"contract-blindAuction.sol\":2786:2795  revealEnd */\n      sload(0x02)\n        /* \"contract-blindAuction.sol\":1264:1268  time */\n      dup1\n        /* \"contract-blindAuction.sol\":1245:1260  block.timestamp */\n      timestamp\n        /* \"contract-blindAuction.sol\":1245:1268  block.timestamp >= time */\n      lt\n        /* \"contract-blindAuction.sol\":1241:1290  if (block.timestamp >= time) revert TooLate(time) */\n      tag_83\n      jumpi\n        /* \"contract-blindAuction.sol\":1285:1289  time */\n      dup1\n        /* \"contract-blindAuction.sol\":1277:1290  TooLate(time) */\n      mload(0x40)\n      0x691e568200000000000000000000000000000000000000000000000000000000\n      dup2\n      mstore\n      0x04\n      add\n      tag_84\n      swap2\n      swap1\n      tag_41\n      jump\t// in\n    tag_84:\n      mload(0x40)\n      dup1\n      swap2\n      sub\n      swap1\n      revert\n        /* \"contract-blindAuction.sol\":1241:1290  if (block.timestamp >= time) revert TooLate(time) */\n    tag_83:\n        /* \"contract-blindAuction.sol\":2811:2822  uint length */\n      0x00\n        /* \"contract-blindAuction.sol\":2825:2829  bids */\n      0x04\n        /* \"contract-blindAuction.sol\":2825:2841  bids[msg.sender] */\n      0x00\n        /* \"contract-blindAuction.sol\":2830:2840  msg.sender */\n      caller\n        /* \"contract-blindAuction.sol\":2825:2841  bids[msg.sender] */\n      0xffffffffffffffffffffffffffffffffffffffff\n      and\n      0xffffffffffffffffffffffffffffffffffffffff\n      and\n      dup2\n      mstore\n      0x20\n      add\n      swap1\n      dup2\n      mstore\n      0x20\n      add\n      0x00\n      keccak256\n        /* \"contract-blindAuction.sol\":2825:2848  bids[msg.sender].length */\n      dup1\n      sload\n      swap1\n      pop\n        /* \"contract-blindAuction.sol\":2811:2848  uint length = bids[msg.sender].length */\n      swap1\n      pop\n        /* \"contract-blindAuction.sol\":2883:2889  length */\n      dup1\n        /* \"contract-blindAuction.sol\":2866:2872  values */\n      dup10\n      dup10\n        /* \"contract-blindAuction.sol\":2866:2879  values.length */\n      swap1\n      pop\n        /* \"contract-blindAuction.sol\":2866:2889  values.length == length */\n      eq\n        /* \"contract-blindAuction.sol\":2858:2890  require(values.length == length) */\n      tag_86\n      jumpi\n      0x00\n      dup1\n      revert\n    tag_86:\n        /* \"contract-blindAuction.sol\":2924:2930  length */\n      dup1\n        /* \"contract-blindAuction.sol\":2908:2913  fakes */\n      dup8\n      dup8\n        /* \"contract-blindAuction.sol\":2908:2920  fakes.length */\n      swap1\n      pop\n        /* \"contract-blindAuction.sol\":2908:2930  fakes.length == length */\n      eq\n        /* \"contract-blindAuction.sol\":2900:2931  require(fakes.length == length) */\n      tag_87\n      jumpi\n      0x00\n      dup1\n      revert\n    tag_87:\n        /* \"contract-blindAuction.sol\":2967:2973  length */\n      dup1\n        /* \"contract-blindAuction.sol\":2949:2956  secrets */\n      dup6\n      dup6\n        /* \"contract-blindAuction.sol\":2949:2963  secrets.length */\n      swap1\n      pop\n        /* \"contract-blindAuction.sol\":2949:2973  secrets.length == length */\n      eq\n        /* \"contract-blindAuction.sol\":2941:2974  require(secrets.length == length) */\n      tag_88\n      jumpi\n      0x00\n      dup1\n      revert\n    tag_88:\n        /* \"contract-blindAuction.sol\":2985:2996  uint refund */\n      0x00\n        /* \"contract-blindAuction.sol\":3011:3017  uint i */\n      dup1\n        /* \"contract-blindAuction.sol\":3020:3021  0 */\n      0x00\n        /* \"contract-blindAuction.sol\":3011:3021  uint i = 0 */\n      swap1\n      pop\n        /* \"contract-blindAuction.sol\":3006:3929  for (uint i = 0; i < length; i++) {... */\n    tag_89:\n        /* \"contract-blindAuction.sol\":3027:3033  length */\n      dup3\n        /* \"contract-blindAuction.sol\":3023:3024  i */\n      dup2\n        /* \"contract-blindAuction.sol\":3023:3033  i < length */\n      lt\n        /* \"contract-blindAuction.sol\":3006:3929  for (uint i = 0; i < length; i++) {... */\n      iszero\n      tag_90\n      jumpi\n        /* \"contract-blindAuction.sol\":3054:3076  Bid storage bidToCheck */\n      0x00\n        /* \"contract-blindAuction.sol\":3079:3083  bids */\n      0x04\n        /* \"contract-blindAuction.sol\":3079:3095  bids[msg.sender] */\n      0x00\n        /* \"contract-blindAuction.sol\":3084:3094  msg.sender */\n      caller\n        /* \"contract-blindAuction.sol\":3079:3095  bids[msg.sender] */\n      0xffffffffffffffffffffffffffffffffffffffff\n      and\n      0xffffffffffffffffffffffffffffffffffffffff\n      and\n      dup2\n      mstore\n      0x20\n      add\n      swap1\n      dup2\n      mstore\n      0x20\n      add\n      0x00\n      keccak256\n        /* \"contract-blindAuction.sol\":3096:3097  i */\n      dup3\n        /* \"contract-blindAuction.sol\":3079:3098  bids[msg.sender][i] */\n      dup2\n      sload\n      dup2\n      lt\n      tag_92\n      jumpi\n      tag_93\n      tag_94\n      jump\t// in\n    tag_93:\n    tag_92:\n      swap1\n      0x00\n      mstore\n      keccak256(0x00, 0x20)\n      swap1\n      0x02\n      mul\n      add\n        /* \"contract-blindAuction.sol\":3054:3098  Bid storage bidToCheck = bids[msg.sender][i] */\n      swap1\n      pop\n        /* \"contract-blindAuction.sol\":3169:3179  uint value */\n      0x00\n        /* \"contract-blindAuction.sol\":3181:3190  bool fake */\n      dup1\n        /* \"contract-blindAuction.sol\":3192:3206  bytes32 secret */\n      0x00\n        /* \"contract-blindAuction.sol\":3231:3237  values */\n      dup15\n      dup15\n        /* \"contract-blindAuction.sol\":3238:3239  i */\n      dup7\n        /* \"contract-blindAuction.sol\":3231:3240  values[i] */\n      dup2\n      dup2\n      lt\n      tag_96\n      jumpi\n      tag_97\n      tag_94\n      jump\t// in\n    tag_97:\n    tag_96:\n      swap1\n      pop\n      0x20\n      mul\n      add\n      calldataload\n        /* \"contract-blindAuction.sol\":3242:3247  fakes */\n      dup14\n      dup14\n        /* \"contract-blindAuction.sol\":3248:3249  i */\n      dup8\n        /* \"contract-blindAuction.sol\":3242:3250  fakes[i] */\n      dup2\n      dup2\n      lt\n      tag_98\n      jumpi\n      tag_99\n      tag_94\n      jump\t// in\n    tag_99:\n    tag_98:\n      swap1\n      pop\n      0x20\n      mul\n      add\n      0x20\n      dup2\n      add\n      swap1\n      tag_100\n      swap2\n      swap1\n      tag_101\n      jump\t// in\n    tag_100:\n        /* \"contract-blindAuction.sol\":3252:3259  secrets */\n      dup13\n      dup13\n        /* \"contract-blindAuction.sol\":3260:3261  i */\n      dup9\n        /* \"contract-blindAuction.sol\":3252:3262  secrets[i] */\n      dup2\n      dup2\n      lt\n      tag_102\n      jumpi\n      tag_103\n      tag_94\n      jump\t// in\n    tag_103:\n    tag_102:\n      swap1\n      pop\n      0x20\n      mul\n      add\n      calldataload\n        /* \"contract-blindAuction.sol\":3168:3263  (uint value, bool fake, bytes32 secret) =... */\n      swap3\n      pop\n      swap3\n      pop\n      swap3\n      pop\n        /* \"contract-blindAuction.sol\":3333:3338  value */\n      dup3\n        /* \"contract-blindAuction.sol\":3340:3344  fake */\n      dup3\n        /* \"contract-blindAuction.sol\":3346:3352  secret */\n      dup3\n        /* \"contract-blindAuction.sol\":3316:3353  abi.encodePacked(value, fake, secret) */\n      add(0x20, mload(0x40))\n      tag_104\n      swap4\n      swap3\n      swap2\n      swap1\n      tag_105\n      jump\t// in\n    tag_104:\n      mload(0x40)\n      0x20\n      dup2\n      dup4\n      sub\n      sub\n      dup2\n      mstore\n      swap1\n      0x40\n      mstore\n        /* \"contract-blindAuction.sol\":3306:3354  keccak256(abi.encodePacked(value, fake, secret)) */\n      dup1\n      mload\n      swap1\n      0x20\n      add\n      keccak256\n        /* \"contract-blindAuction.sol\":3281:3291  bidToCheck */\n      dup5\n        /* \"contract-blindAuction.sol\":3281:3302  bidToCheck.blindedBid */\n      0x00\n      add\n      sload\n        /* \"contract-blindAuction.sol\":3281:3354  bidToCheck.blindedBid != keccak256(abi.encodePacked(value, fake, secret)) */\n      eq\n        /* \"contract-blindAuction.sol\":3277:3489  if (bidToCheck.blindedBid != keccak256(abi.encodePacked(value, fake, secret))) {... */\n      tag_106\n      jumpi\n        /* \"contract-blindAuction.sol\":3466:3474  continue */\n      pop\n      pop\n      pop\n      pop\n      jump(tag_91)\n        /* \"contract-blindAuction.sol\":3277:3489  if (bidToCheck.blindedBid != keccak256(abi.encodePacked(value, fake, secret))) {... */\n    tag_106:\n        /* \"contract-blindAuction.sol\":3512:3522  bidToCheck */\n      dup4\n        /* \"contract-blindAuction.sol\":3512:3530  bidToCheck.deposit */\n      0x01\n      add\n      sload\n        /* \"contract-blindAuction.sol\":3502:3530  refund += bidToCheck.deposit */\n      dup7\n      tag_107\n      swap2\n      swap1\n      tag_108\n      jump\t// in\n    tag_107:\n      swap6\n      pop\n        /* \"contract-blindAuction.sol\":3549:3553  fake */\n      dup2\n        /* \"contract-blindAuction.sol\":3548:3553  !fake */\n      iszero\n        /* \"contract-blindAuction.sol\":3548:3584  !fake && bidToCheck.deposit >= value */\n      dup1\n      iszero\n      tag_109\n      jumpi\n      pop\n        /* \"contract-blindAuction.sol\":3579:3584  value */\n      dup3\n        /* \"contract-blindAuction.sol\":3557:3567  bidToCheck */\n      dup5\n        /* \"contract-blindAuction.sol\":3557:3575  bidToCheck.deposit */\n      0x01\n      add\n      sload\n        /* \"contract-blindAuction.sol\":3557:3584  bidToCheck.deposit >= value */\n      lt\n      iszero\n        /* \"contract-blindAuction.sol\":3548:3584  !fake && bidToCheck.deposit >= value */\n    tag_109:\n        /* \"contract-blindAuction.sol\":3544:3777  if (!fake && bidToCheck.deposit >= value) {... */\n      iszero\n      tag_110\n      jumpi\n        /* \"contract-blindAuction.sol\":3698:3725  placeBid(msg.sender, value) */\n      tag_111\n        /* \"contract-blindAuction.sol\":3707:3717  msg.sender */\n      caller\n        /* \"contract-blindAuction.sol\":3719:3724  value */\n      dup5\n        /* \"contract-blindAuction.sol\":3698:3706  placeBid */\n      tag_112\n        /* \"contract-blindAuction.sol\":3698:3725  placeBid(msg.sender, value) */\n      jump\t// in\n    tag_111:\n        /* \"contract-blindAuction.sol\":3694:3762  if (placeBid(msg.sender, value))... */\n      iszero\n      tag_113\n      jumpi\n        /* \"contract-blindAuction.sol\":3757:3762  value */\n      dup3\n        /* \"contract-blindAuction.sol\":3747:3762  refund -= value */\n      dup7\n      tag_114\n      swap2\n      swap1\n      tag_115\n      jump\t// in\n    tag_114:\n      swap6\n      pop\n        /* \"contract-blindAuction.sol\":3694:3762  if (placeBid(msg.sender, value))... */\n    tag_113:\n        /* \"contract-blindAuction.sol\":3544:3777  if (!fake && bidToCheck.deposit >= value) {... */\n    tag_110:\n        /* \"contract-blindAuction.sol\":3916:3917  0 */\n      0x00\n        /* \"contract-blindAuction.sol\":3908:3918  bytes32(0) */\n      dup1\n      shl\n        /* \"contract-blindAuction.sol\":3884:3894  bidToCheck */\n      dup5\n        /* \"contract-blindAuction.sol\":3884:3905  bidToCheck.blindedBid */\n      0x00\n      add\n        /* \"contract-blindAuction.sol\":3884:3918  bidToCheck.blindedBid = bytes32(0) */\n      dup2\n      swap1\n      sstore\n      pop\n        /* \"contract-blindAuction.sol\":3040:3929  {... */\n      pop\n      pop\n      pop\n      pop\n        /* \"contract-blindAuction.sol\":3006:3929  for (uint i = 0; i < length; i++) {... */\n    tag_91:\n        /* \"contract-blindAuction.sol\":3035:3038  i++ */\n      dup1\n      dup1\n      tag_116\n      swap1\n      tag_117\n      jump\t// in\n    tag_116:\n      swap2\n      pop\n      pop\n        /* \"contract-blindAuction.sol\":3006:3929  for (uint i = 0; i < length; i++) {... */\n      jump(tag_89)\n    tag_90:\n      pop\n        /* \"contract-blindAuction.sol\":3946:3956  msg.sender */\n      caller\n        /* \"contract-blindAuction.sol\":3938:3966  payable(msg.sender).transfer */\n      0xffffffffffffffffffffffffffffffffffffffff\n      and\n        /* \"contract-blindAuction.sol\":3938:3974  payable(msg.sender).transfer(refund) */\n      0x08fc\n        /* \"contract-blindAuction.sol\":3967:3973  refund */\n      dup3\n        /* \"contract-blindAuction.sol\":3938:3974  payable(msg.sender).transfer(refund) */\n      swap1\n      dup2\n      iszero\n      mul\n      swap1\n      mload(0x40)\n      0x00\n      mload(0x40)\n      dup1\n      dup4\n      sub\n      dup2\n      dup6\n      dup9\n      dup9\n      call\n      swap4\n      pop\n      pop\n      pop\n      pop\n      iszero\n      dup1\n      iszero\n      tag_119\n      jumpi\n      returndatasize\n      0x00\n      dup1\n      returndatacopy\n      revert(0x00, returndatasize)\n    tag_119:\n      pop\n        /* \"contract-blindAuction.sol\":2801:3981  {... */\n      pop\n      pop\n        /* \"contract-blindAuction.sol\":1413:1414  _ */\n      pop\n        /* \"contract-blindAuction.sol\":2599:3981  function reveal(... */\n      pop\n      pop\n      pop\n      pop\n      pop\n      pop\n      pop\n      jump\t// out\n        /* \"contract-blindAuction.sol\":364:392  address public highestBidder */\n    tag_49:\n      0x05\n      0x00\n      swap1\n      sload\n      swap1\n      0x0100\n      exp\n      swap1\n      div\n      0xffffffffffffffffffffffffffffffffffffffff\n      and\n      dup2\n      jump\t// out\n        /* \"contract-blindAuction.sol\":2209:2433  function bid(bytes32 blindedBid)... */\n    tag_55:\n        /* \"contract-blindAuction.sol\":2294:2304  biddingEnd */\n      sload(0x01)\n        /* \"contract-blindAuction.sol\":1264:1268  time */\n      dup1\n        /* \"contract-blindAuction.sol\":1245:1260  block.timestamp */\n      timestamp\n        /* \"contract-blindAuction.sol\":1245:1268  block.timestamp >= time */\n      lt\n        /* \"contract-blindAuction.sol\":1241:1290  if (block.timestamp >= time) revert TooLate(time) */\n      tag_121\n      jumpi\n        /* \"contract-blindAuction.sol\":1285:1289  time */\n      dup1\n        /* \"contract-blindAuction.sol\":1277:1290  TooLate(time) */\n      mload(0x40)\n      0x691e568200000000000000000000000000000000000000000000000000000000\n      dup2\n      mstore\n      0x04\n      add\n      tag_122\n      swap2\n      swap1\n      tag_41\n      jump\t// in\n    tag_122:\n      mload(0x40)\n      dup1\n      swap2\n      sub\n      swap1\n      revert\n        /* \"contract-blindAuction.sol\":1241:1290  if (block.timestamp >= time) revert TooLate(time) */\n    tag_121:\n        /* \"contract-blindAuction.sol\":2320:2324  bids */\n      0x04\n        /* \"contract-blindAuction.sol\":2320:2336  bids[msg.sender] */\n      0x00\n        /* \"contract-blindAuction.sol\":2325:2335  msg.sender */\n      caller\n        /* \"contract-blindAuction.sol\":2320:2336  bids[msg.sender] */\n      0xffffffffffffffffffffffffffffffffffffffff\n      and\n      0xffffffffffffffffffffffffffffffffffffffff\n      and\n      dup2\n      mstore\n      0x20\n      add\n      swap1\n      dup2\n      mstore\n      0x20\n      add\n      0x00\n      keccak256\n        /* \"contract-blindAuction.sol\":2342:2425  Bid({... */\n      mload(0x40)\n      dup1\n      0x40\n      add\n      0x40\n      mstore\n      dup1\n        /* \"contract-blindAuction.sol\":2372:2382  blindedBid */\n      dup5\n        /* \"contract-blindAuction.sol\":2342:2425  Bid({... */\n      dup2\n      mstore\n      0x20\n      add\n        /* \"contract-blindAuction.sol\":2405:2414  msg.value */\n      callvalue\n        /* \"contract-blindAuction.sol\":2342:2425  Bid({... */\n      dup2\n      mstore\n      pop\n        /* \"contract-blindAuction.sol\":2320:2426  bids[msg.sender].push(Bid({... */\n      swap1\n      dup1\n      0x01\n      dup2\n      sload\n      add\n      dup1\n      dup3\n      sstore\n      dup1\n      swap2\n      pop\n      pop\n      0x01\n      swap1\n      sub\n      swap1\n      0x00\n      mstore\n      keccak256(0x00, 0x20)\n      swap1\n      0x02\n      mul\n      add\n      0x00\n      swap1\n      swap2\n      swap1\n      swap2\n      swap1\n      swap2\n      pop\n      0x00\n      dup3\n      add\n      mload\n      dup2\n      0x00\n      add\n      sstore\n      0x20\n      dup3\n      add\n      mload\n      dup2\n      0x01\n      add\n      sstore\n      pop\n      pop\n        /* \"contract-blindAuction.sol\":2209:2433  function bid(bytes32 blindedBid)... */\n      pop\n      pop\n      jump\t// out\n        /* \"contract-blindAuction.sol\":269:290  uint public revealEnd */\n    tag_58:\n      sload(0x02)\n      dup2\n      jump\t// out\n        /* \"contract-blindAuction.sol\":398:420  uint public highestBid */\n    tag_62:\n      sload(0x06)\n      dup2\n      jump\t// out\n        /* \"contract-blindAuction.sol\":5137:5603  function placeBid(address bidder, uint value) internal... */\n    tag_112:\n        /* \"contract-blindAuction.sol\":5213:5225  bool success */\n      0x00\n        /* \"contract-blindAuction.sol\":5254:5264  highestBid */\n      sload(0x06)\n        /* \"contract-blindAuction.sol\":5245:5250  value */\n      dup3\n        /* \"contract-blindAuction.sol\":5245:5264  value <= highestBid */\n      gt\n        /* \"contract-blindAuction.sol\":5241:5303  if (value <= highestBid) {... */\n      tag_126\n      jumpi\n        /* \"contract-blindAuction.sol\":5287:5292  false */\n      0x00\n        /* \"contract-blindAuction.sol\":5280:5292  return false */\n      swap1\n      pop\n      jump(tag_125)\n        /* \"contract-blindAuction.sol\":5241:5303  if (value <= highestBid) {... */\n    tag_126:\n        /* \"contract-blindAuction.sol\":5341:5342  0 */\n      0x00\n        /* \"contract-blindAuction.sol\":5316:5343  highestBidder != address(0) */\n      0xffffffffffffffffffffffffffffffffffffffff\n      and\n        /* \"contract-blindAuction.sol\":5316:5329  highestBidder */\n      0x05\n      0x00\n      swap1\n      sload\n      swap1\n      0x0100\n      exp\n      swap1\n      div\n      0xffffffffffffffffffffffffffffffffffffffff\n      and\n        /* \"contract-blindAuction.sol\":5316:5343  highestBidder != address(0) */\n      0xffffffffffffffffffffffffffffffffffffffff\n      and\n      eq\n        /* \"contract-blindAuction.sol\":5312:5516  if (highestBidder != address(0)) {... */\n      tag_127\n      jumpi\n        /* \"contract-blindAuction.sol\":5495:5505  highestBid */\n      sload(0x06)\n        /* \"contract-blindAuction.sol\":5462:5476  pendingReturns */\n      0x07\n        /* \"contract-blindAuction.sol\":5462:5491  pendingReturns[highestBidder] */\n      0x00\n        /* \"contract-blindAuction.sol\":5477:5490  highestBidder */\n      0x05\n      0x00\n      swap1\n      sload\n      swap1\n      0x0100\n      exp\n      swap1\n      div\n      0xffffffffffffffffffffffffffffffffffffffff\n      and\n        /* \"contract-blindAuction.sol\":5462:5491  pendingReturns[highestBidder] */\n      0xffffffffffffffffffffffffffffffffffffffff\n      and\n      0xffffffffffffffffffffffffffffffffffffffff\n      and\n      dup2\n      mstore\n      0x20\n      add\n      swap1\n      dup2\n      mstore\n      0x20\n      add\n      0x00\n      keccak256\n      0x00\n        /* \"contract-blindAuction.sol\":5462:5505  pendingReturns[highestBidder] += highestBid */\n      dup3\n      dup3\n      sload\n      tag_128\n      swap2\n      swap1\n      tag_108\n      jump\t// in\n    tag_128:\n      swap3\n      pop\n      pop\n      dup2\n      swap1\n      sstore\n      pop\n        /* \"contract-blindAuction.sol\":5312:5516  if (highestBidder != address(0)) {... */\n    tag_127:\n        /* \"contract-blindAuction.sol\":5538:5543  value */\n      dup2\n        /* \"contract-blindAuction.sol\":5525:5535  highestBid */\n      0x06\n        /* \"contract-blindAuction.sol\":5525:5543  highestBid = value */\n      dup2\n      swap1\n      sstore\n      pop\n        /* \"contract-blindAuction.sol\":5569:5575  bidder */\n      dup3\n        /* \"contract-blindAuction.sol\":5553:5566  highestBidder */\n      0x05\n      0x00\n        /* \"contract-blindAuction.sol\":5553:5575  highestBidder = bidder */\n      0x0100\n      exp\n      dup2\n      sload\n      dup2\n      0xffffffffffffffffffffffffffffffffffffffff\n      mul\n      not\n      and\n      swap1\n      dup4\n      0xffffffffffffffffffffffffffffffffffffffff\n      and\n      mul\n      or\n      swap1\n      sstore\n      pop\n        /* \"contract-blindAuction.sol\":5592:5596  true */\n      0x01\n        /* \"contract-blindAuction.sol\":5585:5596  return true */\n      swap1\n      pop\n        /* \"contract-blindAuction.sol\":5137:5603  function placeBid(address bidder, uint value) internal... */\n    tag_125:\n      swap3\n      swap2\n      pop\n      pop\n      jump\t// out\n        /* \"#utility.yul\":88:205   */\n    tag_130:\n        /* \"#utility.yul\":197:198   */\n      0x00\n        /* \"#utility.yul\":194:195   */\n      dup1\n        /* \"#utility.yul\":187:199   */\n      revert\n        /* \"#utility.yul\":211:328   */\n    tag_131:\n        /* \"#utility.yul\":320:321   */\n      0x00\n        /* \"#utility.yul\":317:318   */\n      dup1\n        /* \"#utility.yul\":310:322   */\n      revert\n        /* \"#utility.yul\":334:460   */\n    tag_132:\n        /* \"#utility.yul\":371:378   */\n      0x00\n        /* \"#utility.yul\":411:453   */\n      0xffffffffffffffffffffffffffffffffffffffff\n        /* \"#utility.yul\":404:409   */\n      dup3\n        /* \"#utility.yul\":400:454   */\n      and\n        /* \"#utility.yul\":389:454   */\n      swap1\n      pop\n        /* \"#utility.yul\":334:460   */\n      swap2\n      swap1\n      pop\n      jump\t// out\n        /* \"#utility.yul\":466:562   */\n    tag_133:\n        /* \"#utility.yul\":503:510   */\n      0x00\n        /* \"#utility.yul\":532:556   */\n      tag_172\n        /* \"#utility.yul\":550:555   */\n      dup3\n        /* \"#utility.yul\":532:556   */\n      tag_132\n      jump\t// in\n    tag_172:\n        /* \"#utility.yul\":521:556   */\n      swap1\n      pop\n        /* \"#utility.yul\":466:562   */\n      swap2\n      swap1\n      pop\n      jump\t// out\n        /* \"#utility.yul\":568:690   */\n    tag_134:\n        /* \"#utility.yul\":641:665   */\n      tag_174\n        /* \"#utility.yul\":659:664   */\n      dup2\n        /* \"#utility.yul\":641:665   */\n      tag_133\n      jump\t// in\n    tag_174:\n        /* \"#utility.yul\":634:639   */\n      dup2\n        /* \"#utility.yul\":631:666   */\n      eq\n        /* \"#utility.yul\":621:684   */\n      tag_175\n      jumpi\n        /* \"#utility.yul\":680:681   */\n      0x00\n        /* \"#utility.yul\":677:678   */\n      dup1\n        /* \"#utility.yul\":670:682   */\n      revert\n        /* \"#utility.yul\":621:684   */\n    tag_175:\n        /* \"#utility.yul\":568:690   */\n      pop\n      jump\t// out\n        /* \"#utility.yul\":696:835   */\n    tag_135:\n        /* \"#utility.yul\":742:747   */\n      0x00\n        /* \"#utility.yul\":780:786   */\n      dup2\n        /* \"#utility.yul\":767:787   */\n      calldataload\n        /* \"#utility.yul\":758:787   */\n      swap1\n      pop\n        /* \"#utility.yul\":796:829   */\n      tag_177\n        /* \"#utility.yul\":823:828   */\n      dup2\n        /* \"#utility.yul\":796:829   */\n      tag_134\n      jump\t// in\n    tag_177:\n        /* \"#utility.yul\":696:835   */\n      swap3\n      swap2\n      pop\n      pop\n      jump\t// out\n        /* \"#utility.yul\":841:918   */\n    tag_136:\n        /* \"#utility.yul\":878:885   */\n      0x00\n        /* \"#utility.yul\":907:912   */\n      dup2\n        /* \"#utility.yul\":896:912   */\n      swap1\n      pop\n        /* \"#utility.yul\":841:918   */\n      swap2\n      swap1\n      pop\n      jump\t// out\n        /* \"#utility.yul\":924:1046   */\n    tag_137:\n        /* \"#utility.yul\":997:1021   */\n      tag_180\n        /* \"#utility.yul\":1015:1020   */\n      dup2\n        /* \"#utility.yul\":997:1021   */\n      tag_136\n      jump\t// in\n    tag_180:\n        /* \"#utility.yul\":990:995   */\n      dup2\n        /* \"#utility.yul\":987:1022   */\n      eq\n        /* \"#utility.yul\":977:1040   */\n      tag_181\n      jumpi\n        /* \"#utility.yul\":1036:1037   */\n      0x00\n        /* \"#utility.yul\":1033:1034   */\n      dup1\n        /* \"#utility.yul\":1026:1038   */\n      revert\n        /* \"#utility.yul\":977:1040   */\n    tag_181:\n        /* \"#utility.yul\":924:1046   */\n      pop\n      jump\t// out\n        /* \"#utility.yul\":1052:1191   */\n    tag_138:\n        /* \"#utility.yul\":1098:1103   */\n      0x00\n        /* \"#utility.yul\":1136:1142   */\n      dup2\n        /* \"#utility.yul\":1123:1143   */\n      calldataload\n        /* \"#utility.yul\":1114:1143   */\n      swap1\n      pop\n        /* \"#utility.yul\":1152:1185   */\n      tag_183\n        /* \"#utility.yul\":1179:1184   */\n      dup2\n        /* \"#utility.yul\":1152:1185   */\n      tag_137\n      jump\t// in\n    tag_183:\n        /* \"#utility.yul\":1052:1191   */\n      swap3\n      swap2\n      pop\n      pop\n      jump\t// out\n        /* \"#utility.yul\":1197:1671   */\n    tag_17:\n        /* \"#utility.yul\":1265:1271   */\n      0x00\n        /* \"#utility.yul\":1273:1279   */\n      dup1\n        /* \"#utility.yul\":1322:1324   */\n      0x40\n        /* \"#utility.yul\":1310:1319   */\n      dup4\n        /* \"#utility.yul\":1301:1308   */\n      dup6\n        /* \"#utility.yul\":1297:1320   */\n      sub\n        /* \"#utility.yul\":1293:1325   */\n      slt\n        /* \"#utility.yul\":1290:1409   */\n      iszero\n      tag_185\n      jumpi\n        /* \"#utility.yul\":1328:1407   */\n      tag_186\n      tag_130\n      jump\t// in\n    tag_186:\n        /* \"#utility.yul\":1290:1409   */\n    tag_185:\n        /* \"#utility.yul\":1448:1449   */\n      0x00\n        /* \"#utility.yul\":1473:1526   */\n      tag_187\n        /* \"#utility.yul\":1518:1525   */\n      dup6\n        /* \"#utility.yul\":1509:1515   */\n      dup3\n        /* \"#utility.yul\":1498:1507   */\n      dup7\n        /* \"#utility.yul\":1494:1516   */\n      add\n        /* \"#utility.yul\":1473:1526   */\n      tag_135\n      jump\t// in\n    tag_187:\n        /* \"#utility.yul\":1463:1526   */\n      swap3\n      pop\n        /* \"#utility.yul\":1419:1536   */\n      pop\n        /* \"#utility.yul\":1575:1577   */\n      0x20\n        /* \"#utility.yul\":1601:1654   */\n      tag_188\n        /* \"#utility.yul\":1646:1653   */\n      dup6\n        /* \"#utility.yul\":1637:1643   */\n      dup3\n        /* \"#utility.yul\":1626:1635   */\n      dup7\n        /* \"#utility.yul\":1622:1644   */\n      add\n        /* \"#utility.yul\":1601:1654   */\n      tag_138\n      jump\t// in\n    tag_188:\n        /* \"#utility.yul\":1591:1654   */\n      swap2\n      pop\n        /* \"#utility.yul\":1546:1664   */\n      pop\n        /* \"#utility.yul\":1197:1671   */\n      swap3\n      pop\n      swap3\n      swap1\n      pop\n      jump\t// out\n        /* \"#utility.yul\":1677:1754   */\n    tag_139:\n        /* \"#utility.yul\":1714:1721   */\n      0x00\n        /* \"#utility.yul\":1743:1748   */\n      dup2\n        /* \"#utility.yul\":1732:1748   */\n      swap1\n      pop\n        /* \"#utility.yul\":1677:1754   */\n      swap2\n      swap1\n      pop\n      jump\t// out\n        /* \"#utility.yul\":1760:1878   */\n    tag_140:\n        /* \"#utility.yul\":1847:1871   */\n      tag_191\n        /* \"#utility.yul\":1865:1870   */\n      dup2\n        /* \"#utility.yul\":1847:1871   */\n      tag_139\n      jump\t// in\n    tag_191:\n        /* \"#utility.yul\":1842:1845   */\n      dup3\n        /* \"#utility.yul\":1835:1872   */\n      mstore\n        /* \"#utility.yul\":1760:1878   */\n      pop\n      pop\n      jump\t// out\n        /* \"#utility.yul\":1884:2002   */\n    tag_141:\n        /* \"#utility.yul\":1971:1995   */\n      tag_193\n        /* \"#utility.yul\":1989:1994   */\n      dup2\n        /* \"#utility.yul\":1971:1995   */\n      tag_136\n      jump\t// in\n    tag_193:\n        /* \"#utility.yul\":1966:1969   */\n      dup3\n        /* \"#utility.yul\":1959:1996   */\n      mstore\n        /* \"#utility.yul\":1884:2002   */\n      pop\n      pop\n      jump\t// out\n        /* \"#utility.yul\":2008:2340   */\n    tag_20:\n        /* \"#utility.yul\":2129:2133   */\n      0x00\n        /* \"#utility.yul\":2167:2169   */\n      0x40\n        /* \"#utility.yul\":2156:2165   */\n      dup3\n        /* \"#utility.yul\":2152:2170   */\n      add\n        /* \"#utility.yul\":2144:2170   */\n      swap1\n      pop\n        /* \"#utility.yul\":2180:2251   */\n      tag_195\n        /* \"#utility.yul\":2248:2249   */\n      0x00\n        /* \"#utility.yul\":2237:2246   */\n      dup4\n        /* \"#utility.yul\":2233:2250   */\n      add\n        /* \"#utility.yul\":2224:2230   */\n      dup6\n        /* \"#utility.yul\":2180:2251   */\n      tag_140\n      jump\t// in\n    tag_195:\n        /* \"#utility.yul\":2261:2333   */\n      tag_196\n        /* \"#utility.yul\":2329:2331   */\n      0x20\n        /* \"#utility.yul\":2318:2327   */\n      dup4\n        /* \"#utility.yul\":2314:2332   */\n      add\n        /* \"#utility.yul\":2305:2311   */\n      dup5\n        /* \"#utility.yul\":2261:2333   */\n      tag_141\n      jump\t// in\n    tag_196:\n        /* \"#utility.yul\":2008:2340   */\n      swap4\n      swap3\n      pop\n      pop\n      pop\n      jump\t// out\n        /* \"#utility.yul\":2346:2436   */\n    tag_142:\n        /* \"#utility.yul\":2380:2387   */\n      0x00\n        /* \"#utility.yul\":2423:2428   */\n      dup2\n        /* \"#utility.yul\":2416:2429   */\n      iszero\n        /* \"#utility.yul\":2409:2430   */\n      iszero\n        /* \"#utility.yul\":2398:2430   */\n      swap1\n      pop\n        /* \"#utility.yul\":2346:2436   */\n      swap2\n      swap1\n      pop\n      jump\t// out\n        /* \"#utility.yul\":2442:2551   */\n    tag_143:\n        /* \"#utility.yul\":2523:2544   */\n      tag_199\n        /* \"#utility.yul\":2538:2543   */\n      dup2\n        /* \"#utility.yul\":2523:2544   */\n      tag_142\n      jump\t// in\n    tag_199:\n        /* \"#utility.yul\":2518:2521   */\n      dup3\n        /* \"#utility.yul\":2511:2545   */\n      mstore\n        /* \"#utility.yul\":2442:2551   */\n      pop\n      pop\n      jump\t// out\n        /* \"#utility.yul\":2557:2767   */\n    tag_25:\n        /* \"#utility.yul\":2644:2648   */\n      0x00\n        /* \"#utility.yul\":2682:2684   */\n      0x20\n        /* \"#utility.yul\":2671:2680   */\n      dup3\n        /* \"#utility.yul\":2667:2685   */\n      add\n        /* \"#utility.yul\":2659:2685   */\n      swap1\n      pop\n        /* \"#utility.yul\":2695:2760   */\n      tag_201\n        /* \"#utility.yul\":2757:2758   */\n      0x00\n        /* \"#utility.yul\":2746:2755   */\n      dup4\n        /* \"#utility.yul\":2742:2759   */\n      add\n        /* \"#utility.yul\":2733:2739   */\n      dup5\n        /* \"#utility.yul\":2695:2760   */\n      tag_143\n      jump\t// in\n    tag_201:\n        /* \"#utility.yul\":2557:2767   */\n      swap3\n      swap2\n      pop\n      pop\n      jump\t// out\n        /* \"#utility.yul\":2773:2877   */\n    tag_144:\n        /* \"#utility.yul\":2818:2825   */\n      0x00\n        /* \"#utility.yul\":2847:2871   */\n      tag_203\n        /* \"#utility.yul\":2865:2870   */\n      dup3\n        /* \"#utility.yul\":2847:2871   */\n      tag_132\n      jump\t// in\n    tag_203:\n        /* \"#utility.yul\":2836:2871   */\n      swap1\n      pop\n        /* \"#utility.yul\":2773:2877   */\n      swap2\n      swap1\n      pop\n      jump\t// out\n        /* \"#utility.yul\":2883:3025   */\n    tag_145:\n        /* \"#utility.yul\":2986:3018   */\n      tag_205\n        /* \"#utility.yul\":3012:3017   */\n      dup2\n        /* \"#utility.yul\":2986:3018   */\n      tag_144\n      jump\t// in\n    tag_205:\n        /* \"#utility.yul\":2981:2984   */\n      dup3\n        /* \"#utility.yul\":2974:3019   */\n      mstore\n        /* \"#utility.yul\":2883:3025   */\n      pop\n      pop\n      jump\t// out\n        /* \"#utility.yul\":3031:3285   */\n    tag_33:\n        /* \"#utility.yul\":3140:3144   */\n      0x00\n        /* \"#utility.yul\":3178:3180   */\n      0x20\n        /* \"#utility.yul\":3167:3176   */\n      dup3\n        /* \"#utility.yul\":3163:3181   */\n      add\n        /* \"#utility.yul\":3155:3181   */\n      swap1\n      pop\n        /* \"#utility.yul\":3191:3278   */\n      tag_207\n        /* \"#utility.yul\":3275:3276   */\n      0x00\n        /* \"#utility.yul\":3264:3273   */\n      dup4\n        /* \"#utility.yul\":3260:3277   */\n      add\n        /* \"#utility.yul\":3251:3257   */\n      dup5\n        /* \"#utility.yul\":3191:3278   */\n      tag_145\n      jump\t// in\n    tag_207:\n        /* \"#utility.yul\":3031:3285   */\n      swap3\n      swap2\n      pop\n      pop\n      jump\t// out\n        /* \"#utility.yul\":3291:3513   */\n    tag_41:\n        /* \"#utility.yul\":3384:3388   */\n      0x00\n        /* \"#utility.yul\":3422:3424   */\n      0x20\n        /* \"#utility.yul\":3411:3420   */\n      dup3\n        /* \"#utility.yul\":3407:3425   */\n      add\n        /* \"#utility.yul\":3399:3425   */\n      swap1\n      pop\n        /* \"#utility.yul\":3435:3506   */\n      tag_209\n        /* \"#utility.yul\":3503:3504   */\n      0x00\n        /* \"#utility.yul\":3492:3501   */\n      dup4\n        /* \"#utility.yul\":3488:3505   */\n      add\n        /* \"#utility.yul\":3479:3485   */\n      dup5\n        /* \"#utility.yul\":3435:3506   */\n      tag_141\n      jump\t// in\n    tag_209:\n        /* \"#utility.yul\":3291:3513   */\n      swap3\n      swap2\n      pop\n      pop\n      jump\t// out\n        /* \"#utility.yul\":3519:3636   */\n    tag_146:\n        /* \"#utility.yul\":3628:3629   */\n      0x00\n        /* \"#utility.yul\":3625:3626   */\n      dup1\n        /* \"#utility.yul\":3618:3630   */\n      revert\n        /* \"#utility.yul\":3642:3759   */\n    tag_147:\n        /* \"#utility.yul\":3751:3752   */\n      0x00\n        /* \"#utility.yul\":3748:3749   */\n      dup1\n        /* \"#utility.yul\":3741:3753   */\n      revert\n        /* \"#utility.yul\":3765:3882   */\n    tag_148:\n        /* \"#utility.yul\":3874:3875   */\n      0x00\n        /* \"#utility.yul\":3871:3872   */\n      dup1\n        /* \"#utility.yul\":3864:3876   */\n      revert\n        /* \"#utility.yul\":3905:4473   */\n    tag_149:\n        /* \"#utility.yul\":3978:3986   */\n      0x00\n        /* \"#utility.yul\":3988:3994   */\n      dup1\n        /* \"#utility.yul\":4038:4041   */\n      dup4\n        /* \"#utility.yul\":4031:4035   */\n      0x1f\n        /* \"#utility.yul\":4023:4029   */\n      dup5\n        /* \"#utility.yul\":4019:4036   */\n      add\n        /* \"#utility.yul\":4015:4042   */\n      slt\n        /* \"#utility.yul\":4005:4127   */\n      tag_214\n      jumpi\n        /* \"#utility.yul\":4046:4125   */\n      tag_215\n      tag_146\n      jump\t// in\n    tag_215:\n        /* \"#utility.yul\":4005:4127   */\n    tag_214:\n        /* \"#utility.yul\":4159:4165   */\n      dup3\n        /* \"#utility.yul\":4146:4166   */\n      calldataload\n        /* \"#utility.yul\":4136:4166   */\n      swap1\n      pop\n        /* \"#utility.yul\":4189:4207   */\n      0xffffffffffffffff\n        /* \"#utility.yul\":4181:4187   */\n      dup2\n        /* \"#utility.yul\":4178:4208   */\n      gt\n        /* \"#utility.yul\":4175:4292   */\n      iszero\n      tag_216\n      jumpi\n        /* \"#utility.yul\":4211:4290   */\n      tag_217\n      tag_147\n      jump\t// in\n    tag_217:\n        /* \"#utility.yul\":4175:4292   */\n    tag_216:\n        /* \"#utility.yul\":4325:4329   */\n      0x20\n        /* \"#utility.yul\":4317:4323   */\n      dup4\n        /* \"#utility.yul\":4313:4330   */\n      add\n        /* \"#utility.yul\":4301:4330   */\n      swap2\n      pop\n        /* \"#utility.yul\":4379:4382   */\n      dup4\n        /* \"#utility.yul\":4371:4375   */\n      0x20\n        /* \"#utility.yul\":4363:4369   */\n      dup3\n        /* \"#utility.yul\":4359:4376   */\n      mul\n        /* \"#utility.yul\":4349:4357   */\n      dup4\n        /* \"#utility.yul\":4345:4377   */\n      add\n        /* \"#utility.yul\":4342:4383   */\n      gt\n        /* \"#utility.yul\":4339:4467   */\n      iszero\n      tag_218\n      jumpi\n        /* \"#utility.yul\":4386:4465   */\n      tag_219\n      tag_148\n      jump\t// in\n    tag_219:\n        /* \"#utility.yul\":4339:4467   */\n    tag_218:\n        /* \"#utility.yul\":3905:4473   */\n      swap3\n      pop\n      swap3\n      swap1\n      pop\n      jump\t// out\n        /* \"#utility.yul\":4493:5058   */\n    tag_150:\n        /* \"#utility.yul\":4563:4571   */\n      0x00\n        /* \"#utility.yul\":4573:4579   */\n      dup1\n        /* \"#utility.yul\":4623:4626   */\n      dup4\n        /* \"#utility.yul\":4616:4620   */\n      0x1f\n        /* \"#utility.yul\":4608:4614   */\n      dup5\n        /* \"#utility.yul\":4604:4621   */\n      add\n        /* \"#utility.yul\":4600:4627   */\n      slt\n        /* \"#utility.yul\":4590:4712   */\n      tag_221\n      jumpi\n        /* \"#utility.yul\":4631:4710   */\n      tag_222\n      tag_146\n      jump\t// in\n    tag_222:\n        /* \"#utility.yul\":4590:4712   */\n    tag_221:\n        /* \"#utility.yul\":4744:4750   */\n      dup3\n        /* \"#utility.yul\":4731:4751   */\n      calldataload\n        /* \"#utility.yul\":4721:4751   */\n      swap1\n      pop\n        /* \"#utility.yul\":4774:4792   */\n      0xffffffffffffffff\n        /* \"#utility.yul\":4766:4772   */\n      dup2\n        /* \"#utility.yul\":4763:4793   */\n      gt\n        /* \"#utility.yul\":4760:4877   */\n      iszero\n      tag_223\n      jumpi\n        /* \"#utility.yul\":4796:4875   */\n      tag_224\n      tag_147\n      jump\t// in\n    tag_224:\n        /* \"#utility.yul\":4760:4877   */\n    tag_223:\n        /* \"#utility.yul\":4910:4914   */\n      0x20\n        /* \"#utility.yul\":4902:4908   */\n      dup4\n        /* \"#utility.yul\":4898:4915   */\n      add\n        /* \"#utility.yul\":4886:4915   */\n      swap2\n      pop\n        /* \"#utility.yul\":4964:4967   */\n      dup4\n        /* \"#utility.yul\":4956:4960   */\n      0x20\n        /* \"#utility.yul\":4948:4954   */\n      dup3\n        /* \"#utility.yul\":4944:4961   */\n      mul\n        /* \"#utility.yul\":4934:4942   */\n      dup4\n        /* \"#utility.yul\":4930:4962   */\n      add\n        /* \"#utility.yul\":4927:4968   */\n      gt\n        /* \"#utility.yul\":4924:5052   */\n      iszero\n      tag_225\n      jumpi\n        /* \"#utility.yul\":4971:5050   */\n      tag_226\n      tag_148\n      jump\t// in\n    tag_226:\n        /* \"#utility.yul\":4924:5052   */\n    tag_225:\n        /* \"#utility.yul\":4493:5058   */\n      swap3\n      pop\n      swap3\n      swap1\n      pop\n      jump\t// out\n        /* \"#utility.yul\":5081:5649   */\n    tag_151:\n        /* \"#utility.yul\":5154:5162   */\n      0x00\n        /* \"#utility.yul\":5164:5170   */\n      dup1\n        /* \"#utility.yul\":5214:5217   */\n      dup4\n        /* \"#utility.yul\":5207:5211   */\n      0x1f\n        /* \"#utility.yul\":5199:5205   */\n      dup5\n        /* \"#utility.yul\":5195:5212   */\n      add\n        /* \"#utility.yul\":5191:5218   */\n      slt\n        /* \"#utility.yul\":5181:5303   */\n      tag_228\n      jumpi\n        /* \"#utility.yul\":5222:5301   */\n      tag_229\n      tag_146\n      jump\t// in\n    tag_229:\n        /* \"#utility.yul\":5181:5303   */\n    tag_228:\n        /* \"#utility.yul\":5335:5341   */\n      dup3\n        /* \"#utility.yul\":5322:5342   */\n      calldataload\n        /* \"#utility.yul\":5312:5342   */\n      swap1\n      pop\n        /* \"#utility.yul\":5365:5383   */\n      0xffffffffffffffff\n        /* \"#utility.yul\":5357:5363   */\n      dup2\n        /* \"#utility.yul\":5354:5384   */\n      gt\n        /* \"#utility.yul\":5351:5468   */\n      iszero\n      tag_230\n      jumpi\n        /* \"#utility.yul\":5387:5466   */\n      tag_231\n      tag_147\n      jump\t// in\n    tag_231:\n        /* \"#utility.yul\":5351:5468   */\n    tag_230:\n        /* \"#utility.yul\":5501:5505   */\n      0x20\n        /* \"#utility.yul\":5493:5499   */\n      dup4\n        /* \"#utility.yul\":5489:5506   */\n      add\n        /* \"#utility.yul\":5477:5506   */\n      swap2\n      pop\n        /* \"#utility.yul\":5555:5558   */\n      dup4\n        /* \"#utility.yul\":5547:5551   */\n      0x20\n        /* \"#utility.yul\":5539:5545   */\n      dup3\n        /* \"#utility.yul\":5535:5552   */\n      mul\n        /* \"#utility.yul\":5525:5533   */\n      dup4\n        /* \"#utility.yul\":5521:5553   */\n      add\n        /* \"#utility.yul\":5518:5559   */\n      gt\n        /* \"#utility.yul\":5515:5643   */\n      iszero\n      tag_232\n      jumpi\n        /* \"#utility.yul\":5562:5641   */\n      tag_233\n      tag_148\n      jump\t// in\n    tag_233:\n        /* \"#utility.yul\":5515:5643   */\n    tag_232:\n        /* \"#utility.yul\":5081:5649   */\n      swap3\n      pop\n      swap3\n      swap1\n      pop\n      jump\t// out\n        /* \"#utility.yul\":5655:6958   */\n    tag_45:\n        /* \"#utility.yul\":5810:5816   */\n      0x00\n        /* \"#utility.yul\":5818:5824   */\n      dup1\n        /* \"#utility.yul\":5826:5832   */\n      0x00\n        /* \"#utility.yul\":5834:5840   */\n      dup1\n        /* \"#utility.yul\":5842:5848   */\n      0x00\n        /* \"#utility.yul\":5850:5856   */\n      dup1\n        /* \"#utility.yul\":5899:5901   */\n      0x60\n        /* \"#utility.yul\":5887:5896   */\n      dup8\n        /* \"#utility.yul\":5878:5885   */\n      dup10\n        /* \"#utility.yul\":5874:5897   */\n      sub\n        /* \"#utility.yul\":5870:5902   */\n      slt\n        /* \"#utility.yul\":5867:5986   */\n      iszero\n      tag_235\n      jumpi\n        /* \"#utility.yul\":5905:5984   */\n      tag_236\n      tag_130\n      jump\t// in\n    tag_236:\n        /* \"#utility.yul\":5867:5986   */\n    tag_235:\n        /* \"#utility.yul\":6053:6054   */\n      0x00\n        /* \"#utility.yul\":6042:6051   */\n      dup8\n        /* \"#utility.yul\":6038:6055   */\n      add\n        /* \"#utility.yul\":6025:6056   */\n      calldataload\n        /* \"#utility.yul\":6083:6101   */\n      0xffffffffffffffff\n        /* \"#utility.yul\":6075:6081   */\n      dup2\n        /* \"#utility.yul\":6072:6102   */\n      gt\n        /* \"#utility.yul\":6069:6186   */\n      iszero\n      tag_237\n      jumpi\n        /* \"#utility.yul\":6105:6184   */\n      tag_238\n      tag_131\n      jump\t// in\n    tag_238:\n        /* \"#utility.yul\":6069:6186   */\n    tag_237:\n        /* \"#utility.yul\":6218:6298   */\n      tag_239\n        /* \"#utility.yul\":6290:6297   */\n      dup10\n        /* \"#utility.yul\":6281:6287   */\n      dup3\n        /* \"#utility.yul\":6270:6279   */\n      dup11\n        /* \"#utility.yul\":6266:6288   */\n      add\n        /* \"#utility.yul\":6218:6298   */\n      tag_149\n      jump\t// in\n    tag_239:\n        /* \"#utility.yul\":6200:6298   */\n      swap7\n      pop\n      swap7\n      pop\n        /* \"#utility.yul\":5996:6308   */\n      pop\n        /* \"#utility.yul\":6375:6377   */\n      0x20\n        /* \"#utility.yul\":6364:6373   */\n      dup8\n        /* \"#utility.yul\":6360:6378   */\n      add\n        /* \"#utility.yul\":6347:6379   */\n      calldataload\n        /* \"#utility.yul\":6406:6424   */\n      0xffffffffffffffff\n        /* \"#utility.yul\":6398:6404   */\n      dup2\n        /* \"#utility.yul\":6395:6425   */\n      gt\n        /* \"#utility.yul\":6392:6509   */\n      iszero\n      tag_240\n      jumpi\n        /* \"#utility.yul\":6428:6507   */\n      tag_241\n      tag_131\n      jump\t// in\n    tag_241:\n        /* \"#utility.yul\":6392:6509   */\n    tag_240:\n        /* \"#utility.yul\":6541:6618   */\n      tag_242\n        /* \"#utility.yul\":6610:6617   */\n      dup10\n        /* \"#utility.yul\":6601:6607   */\n      dup3\n        /* \"#utility.yul\":6590:6599   */\n      dup11\n        /* \"#utility.yul\":6586:6608   */\n      add\n        /* \"#utility.yul\":6541:6618   */\n      tag_150\n      jump\t// in\n    tag_242:\n        /* \"#utility.yul\":6523:6618   */\n      swap5\n      pop\n      swap5\n      pop\n        /* \"#utility.yul\":6318:6628   */\n      pop\n        /* \"#utility.yul\":6695:6697   */\n      0x40\n        /* \"#utility.yul\":6684:6693   */\n      dup8\n        /* \"#utility.yul\":6680:6698   */\n      add\n        /* \"#utility.yul\":6667:6699   */\n      calldataload\n        /* \"#utility.yul\":6726:6744   */\n      0xffffffffffffffff\n        /* \"#utility.yul\":6718:6724   */\n      dup2\n        /* \"#utility.yul\":6715:6745   */\n      gt\n        /* \"#utility.yul\":6712:6829   */\n      iszero\n      tag_243\n      jumpi\n        /* \"#utility.yul\":6748:6827   */\n      tag_244\n      tag_131\n      jump\t// in\n    tag_244:\n        /* \"#utility.yul\":6712:6829   */\n    tag_243:\n        /* \"#utility.yul\":6861:6941   */\n      tag_245\n        /* \"#utility.yul\":6933:6940   */\n      dup10\n        /* \"#utility.yul\":6924:6930   */\n      dup3\n        /* \"#utility.yul\":6913:6922   */\n      dup11\n        /* \"#utility.yul\":6909:6931   */\n      add\n        /* \"#utility.yul\":6861:6941   */\n      tag_151\n      jump\t// in\n    tag_245:\n        /* \"#utility.yul\":6843:6941   */\n      swap3\n      pop\n      swap3\n      pop\n        /* \"#utility.yul\":6638:6951   */\n      pop\n        /* \"#utility.yul\":5655:6958   */\n      swap3\n      swap6\n      pop\n      swap3\n      swap6\n      pop\n      swap3\n      swap6\n      jump\t// out\n        /* \"#utility.yul\":6964:7082   */\n    tag_152:\n        /* \"#utility.yul\":7051:7075   */\n      tag_247\n        /* \"#utility.yul\":7069:7074   */\n      dup2\n        /* \"#utility.yul\":7051:7075   */\n      tag_133\n      jump\t// in\n    tag_247:\n        /* \"#utility.yul\":7046:7049   */\n      dup3\n        /* \"#utility.yul\":7039:7076   */\n      mstore\n        /* \"#utility.yul\":6964:7082   */\n      pop\n      pop\n      jump\t// out\n        /* \"#utility.yul\":7088:7310   */\n    tag_51:\n        /* \"#utility.yul\":7181:7185   */\n      0x00\n        /* \"#utility.yul\":7219:7221   */\n      0x20\n        /* \"#utility.yul\":7208:7217   */\n      dup3\n        /* \"#utility.yul\":7204:7222   */\n      add\n        /* \"#utility.yul\":7196:7222   */\n      swap1\n      pop\n        /* \"#utility.yul\":7232:7303   */\n      tag_249\n        /* \"#utility.yul\":7300:7301   */\n      0x00\n        /* \"#utility.yul\":7289:7298   */\n      dup4\n        /* \"#utility.yul\":7285:7302   */\n      add\n        /* \"#utility.yul\":7276:7282   */\n      dup5\n        /* \"#utility.yul\":7232:7303   */\n      tag_152\n      jump\t// in\n    tag_249:\n        /* \"#utility.yul\":7088:7310   */\n      swap3\n      swap2\n      pop\n      pop\n      jump\t// out\n        /* \"#utility.yul\":7316:7438   */\n    tag_153:\n        /* \"#utility.yul\":7389:7413   */\n      tag_251\n        /* \"#utility.yul\":7407:7412   */\n      dup2\n        /* \"#utility.yul\":7389:7413   */\n      tag_139\n      jump\t// in\n    tag_251:\n        /* \"#utility.yul\":7382:7387   */\n      dup2\n        /* \"#utility.yul\":7379:7414   */\n      eq\n        /* \"#utility.yul\":7369:7432   */\n      tag_252\n      jumpi\n        /* \"#utility.yul\":7428:7429   */\n      0x00\n        /* \"#utility.yul\":7425:7426   */\n      dup1\n        /* \"#utility.yul\":7418:7430   */\n      revert\n        /* \"#utility.yul\":7369:7432   */\n    tag_252:\n        /* \"#utility.yul\":7316:7438   */\n      pop\n      jump\t// out\n        /* \"#utility.yul\":7444:7583   */\n    tag_154:\n        /* \"#utility.yul\":7490:7495   */\n      0x00\n        /* \"#utility.yul\":7528:7534   */\n      dup2\n        /* \"#utility.yul\":7515:7535   */\n      calldataload\n        /* \"#utility.yul\":7506:7535   */\n      swap1\n      pop\n        /* \"#utility.yul\":7544:7577   */\n      tag_254\n        /* \"#utility.yul\":7571:7576   */\n      dup2\n        /* \"#utility.yul\":7544:7577   */\n      tag_153\n      jump\t// in\n    tag_254:\n        /* \"#utility.yul\":7444:7583   */\n      swap3\n      swap2\n      pop\n      pop\n      jump\t// out\n        /* \"#utility.yul\":7589:7918   */\n    tag_54:\n        /* \"#utility.yul\":7648:7654   */\n      0x00\n        /* \"#utility.yul\":7697:7699   */\n      0x20\n        /* \"#utility.yul\":7685:7694   */\n      dup3\n        /* \"#utility.yul\":7676:7683   */\n      dup5\n        /* \"#utility.yul\":7672:7695   */\n      sub\n        /* \"#utility.yul\":7668:7700   */\n      slt\n        /* \"#utility.yul\":7665:7784   */\n      iszero\n      tag_256\n      jumpi\n        /* \"#utility.yul\":7703:7782   */\n      tag_257\n      tag_130\n      jump\t// in\n    tag_257:\n        /* \"#utility.yul\":7665:7784   */\n    tag_256:\n        /* \"#utility.yul\":7823:7824   */\n      0x00\n        /* \"#utility.yul\":7848:7901   */\n      tag_258\n        /* \"#utility.yul\":7893:7900   */\n      dup5\n        /* \"#utility.yul\":7884:7890   */\n      dup3\n        /* \"#utility.yul\":7873:7882   */\n      dup6\n        /* \"#utility.yul\":7869:7891   */\n      add\n        /* \"#utility.yul\":7848:7901   */\n      tag_154\n      jump\t// in\n    tag_258:\n        /* \"#utility.yul\":7838:7901   */\n      swap2\n      pop\n        /* \"#utility.yul\":7794:7911   */\n      pop\n        /* \"#utility.yul\":7589:7918   */\n      swap3\n      swap2\n      pop\n      pop\n      jump\t// out\n        /* \"#utility.yul\":7924:8256   */\n    tag_72:\n        /* \"#utility.yul\":8045:8049   */\n      0x00\n        /* \"#utility.yul\":8083:8085   */\n      0x40\n        /* \"#utility.yul\":8072:8081   */\n      dup3\n        /* \"#utility.yul\":8068:8086   */\n      add\n        /* \"#utility.yul\":8060:8086   */\n      swap1\n      pop\n        /* \"#utility.yul\":8096:8167   */\n      tag_260\n        /* \"#utility.yul\":8164:8165   */\n      0x00\n        /* \"#utility.yul\":8153:8162   */\n      dup4\n        /* \"#utility.yul\":8149:8166   */\n      add\n        /* \"#utility.yul\":8140:8146   */\n      dup6\n        /* \"#utility.yul\":8096:8167   */\n      tag_152\n      jump\t// in\n    tag_260:\n        /* \"#utility.yul\":8177:8249   */\n      tag_261\n        /* \"#utility.yul\":8245:8247   */\n      0x20\n        /* \"#utility.yul\":8234:8243   */\n      dup4\n        /* \"#utility.yul\":8230:8248   */\n      add\n        /* \"#utility.yul\":8221:8227   */\n      dup5\n        /* \"#utility.yul\":8177:8249   */\n      tag_141\n      jump\t// in\n    tag_261:\n        /* \"#utility.yul\":7924:8256   */\n      swap4\n      swap3\n      pop\n      pop\n      pop\n      jump\t// out\n        /* \"#utility.yul\":8262:8442   */\n    tag_94:\n        /* \"#utility.yul\":8310:8387   */\n      0x4e487b7100000000000000000000000000000000000000000000000000000000\n        /* \"#utility.yul\":8307:8308   */\n      0x00\n        /* \"#utility.yul\":8300:8388   */\n      mstore\n        /* \"#utility.yul\":8407:8411   */\n      0x32\n        /* \"#utility.yul\":8404:8405   */\n      0x04\n        /* \"#utility.yul\":8397:8412   */\n      mstore\n        /* \"#utility.yul\":8431:8435   */\n      0x24\n        /* \"#utility.yul\":8428:8429   */\n      0x00\n        /* \"#utility.yul\":8421:8436   */\n      revert\n        /* \"#utility.yul\":8448:8564   */\n    tag_155:\n        /* \"#utility.yul\":8518:8539   */\n      tag_264\n        /* \"#utility.yul\":8533:8538   */\n      dup2\n        /* \"#utility.yul\":8518:8539   */\n      tag_142\n      jump\t// in\n    tag_264:\n        /* \"#utility.yul\":8511:8516   */\n      dup2\n        /* \"#utility.yul\":8508:8540   */\n      eq\n        /* \"#utility.yul\":8498:8558   */\n      tag_265\n      jumpi\n        /* \"#utility.yul\":8554:8555   */\n      0x00\n        /* \"#utility.yul\":8551:8552   */\n      dup1\n        /* \"#utility.yul\":8544:8556   */\n      revert\n        /* \"#utility.yul\":8498:8558   */\n    tag_265:\n        /* \"#utility.yul\":8448:8564   */\n      pop\n      jump\t// out\n        /* \"#utility.yul\":8570:8703   */\n    tag_156:\n        /* \"#utility.yul\":8613:8618   */\n      0x00\n        /* \"#utility.yul\":8651:8657   */\n      dup2\n        /* \"#utility.yul\":8638:8658   */\n      calldataload\n        /* \"#utility.yul\":8629:8658   */\n      swap1\n      pop\n        /* \"#utility.yul\":8667:8697   */\n      tag_267\n        /* \"#utility.yul\":8691:8696   */\n      dup2\n        /* \"#utility.yul\":8667:8697   */\n      tag_155\n      jump\t// in\n    tag_267:\n        /* \"#utility.yul\":8570:8703   */\n      swap3\n      swap2\n      pop\n      pop\n      jump\t// out\n        /* \"#utility.yul\":8709:9032   */\n    tag_101:\n        /* \"#utility.yul\":8765:8771   */\n      0x00\n        /* \"#utility.yul\":8814:8816   */\n      0x20\n        /* \"#utility.yul\":8802:8811   */\n      dup3\n        /* \"#utility.yul\":8793:8800   */\n      dup5\n        /* \"#utility.yul\":8789:8812   */\n      sub\n        /* \"#utility.yul\":8785:8817   */\n      slt\n        /* \"#utility.yul\":8782:8901   */\n      iszero\n      tag_269\n      jumpi\n        /* \"#utility.yul\":8820:8899   */\n      tag_270\n      tag_130\n      jump\t// in\n    tag_270:\n        /* \"#utility.yul\":8782:8901   */\n    tag_269:\n        /* \"#utility.yul\":8940:8941   */\n      0x00\n        /* \"#utility.yul\":8965:9015   */\n      tag_271\n        /* \"#utility.yul\":9007:9014   */\n      dup5\n        /* \"#utility.yul\":8998:9004   */\n      dup3\n        /* \"#utility.yul\":8987:8996   */\n      dup6\n        /* \"#utility.yul\":8983:9005   */\n      add\n        /* \"#utility.yul\":8965:9015   */\n      tag_156\n      jump\t// in\n    tag_271:\n        /* \"#utility.yul\":8955:9015   */\n      swap2\n      pop\n        /* \"#utility.yul\":8911:9025   */\n      pop\n        /* \"#utility.yul\":8709:9032   */\n      swap3\n      swap2\n      pop\n      pop\n      jump\t// out\n        /* \"#utility.yul\":9038:9117   */\n    tag_157:\n        /* \"#utility.yul\":9077:9084   */\n      0x00\n        /* \"#utility.yul\":9106:9111   */\n      dup2\n        /* \"#utility.yul\":9095:9111   */\n      swap1\n      pop\n        /* \"#utility.yul\":9038:9117   */\n      swap2\n      swap1\n      pop\n      jump\t// out\n        /* \"#utility.yul\":9123:9280   */\n    tag_158:\n        /* \"#utility.yul\":9228:9273   */\n      tag_274\n        /* \"#utility.yul\":9248:9272   */\n      tag_275\n        /* \"#utility.yul\":9266:9271   */\n      dup3\n        /* \"#utility.yul\":9248:9272   */\n      tag_136\n      jump\t// in\n    tag_275:\n        /* \"#utility.yul\":9228:9273   */\n      tag_157\n      jump\t// in\n    tag_274:\n        /* \"#utility.yul\":9223:9226   */\n      dup3\n        /* \"#utility.yul\":9216:9274   */\n      mstore\n        /* \"#utility.yul\":9123:9280   */\n      pop\n      pop\n      jump\t// out\n        /* \"#utility.yul\":9286:9382   */\n    tag_159:\n        /* \"#utility.yul\":9320:9328   */\n      0x00\n        /* \"#utility.yul\":9369:9374   */\n      dup2\n        /* \"#utility.yul\":9364:9367   */\n      0xf8\n        /* \"#utility.yul\":9360:9375   */\n      shl\n        /* \"#utility.yul\":9339:9375   */\n      swap1\n      pop\n        /* \"#utility.yul\":9286:9382   */\n      swap2\n      swap1\n      pop\n      jump\t// out\n        /* \"#utility.yul\":9388:9481   */\n    tag_160:\n        /* \"#utility.yul\":9425:9432   */\n      0x00\n        /* \"#utility.yul\":9454:9475   */\n      tag_278\n        /* \"#utility.yul\":9469:9474   */\n      dup3\n        /* \"#utility.yul\":9454:9475   */\n      tag_159\n      jump\t// in\n    tag_278:\n        /* \"#utility.yul\":9443:9475   */\n      swap1\n      pop\n        /* \"#utility.yul\":9388:9481   */\n      swap2\n      swap1\n      pop\n      jump\t// out\n        /* \"#utility.yul\":9487:9582   */\n    tag_161:\n        /* \"#utility.yul\":9523:9530   */\n      0x00\n        /* \"#utility.yul\":9552:9576   */\n      tag_280\n        /* \"#utility.yul\":9570:9575   */\n      dup3\n        /* \"#utility.yul\":9552:9576   */\n      tag_160\n      jump\t// in\n    tag_280:\n        /* \"#utility.yul\":9541:9576   */\n      swap1\n      pop\n        /* \"#utility.yul\":9487:9582   */\n      swap2\n      swap1\n      pop\n      jump\t// out\n        /* \"#utility.yul\":9588:9733   */\n    tag_162:\n        /* \"#utility.yul\":9687:9726   */\n      tag_282\n        /* \"#utility.yul\":9704:9725   */\n      tag_283\n        /* \"#utility.yul\":9719:9724   */\n      dup3\n        /* \"#utility.yul\":9704:9725   */\n      tag_142\n      jump\t// in\n    tag_283:\n        /* \"#utility.yul\":9687:9726   */\n      tag_161\n      jump\t// in\n    tag_282:\n        /* \"#utility.yul\":9682:9685   */\n      dup3\n        /* \"#utility.yul\":9675:9727   */\n      mstore\n        /* \"#utility.yul\":9588:9733   */\n      pop\n      pop\n      jump\t// out\n        /* \"#utility.yul\":9739:9818   */\n    tag_163:\n        /* \"#utility.yul\":9778:9785   */\n      0x00\n        /* \"#utility.yul\":9807:9812   */\n      dup2\n        /* \"#utility.yul\":9796:9812   */\n      swap1\n      pop\n        /* \"#utility.yul\":9739:9818   */\n      swap2\n      swap1\n      pop\n      jump\t// out\n        /* \"#utility.yul\":9824:9981   */\n    tag_164:\n        /* \"#utility.yul\":9929:9974   */\n      tag_286\n        /* \"#utility.yul\":9949:9973   */\n      tag_287\n        /* \"#utility.yul\":9967:9972   */\n      dup3\n        /* \"#utility.yul\":9949:9973   */\n      tag_139\n      jump\t// in\n    tag_287:\n        /* \"#utility.yul\":9929:9974   */\n      tag_163\n      jump\t// in\n    tag_286:\n        /* \"#utility.yul\":9924:9927   */\n      dup3\n        /* \"#utility.yul\":9917:9975   */\n      mstore\n        /* \"#utility.yul\":9824:9981   */\n      pop\n      pop\n      jump\t// out\n        /* \"#utility.yul\":9987:10512   */\n    tag_105:\n        /* \"#utility.yul\":10149:10152   */\n      0x00\n        /* \"#utility.yul\":10164:10239   */\n      tag_289\n        /* \"#utility.yul\":10235:10238   */\n      dup3\n        /* \"#utility.yul\":10226:10232   */\n      dup7\n        /* \"#utility.yul\":10164:10239   */\n      tag_158\n      jump\t// in\n    tag_289:\n        /* \"#utility.yul\":10264:10266   */\n      0x20\n        /* \"#utility.yul\":10259:10262   */\n      dup3\n        /* \"#utility.yul\":10255:10267   */\n      add\n        /* \"#utility.yul\":10248:10267   */\n      swap2\n      pop\n        /* \"#utility.yul\":10277:10346   */\n      tag_290\n        /* \"#utility.yul\":10342:10345   */\n      dup3\n        /* \"#utility.yul\":10333:10339   */\n      dup6\n        /* \"#utility.yul\":10277:10346   */\n      tag_162\n      jump\t// in\n    tag_290:\n        /* \"#utility.yul\":10371:10372   */\n      0x01\n        /* \"#utility.yul\":10366:10369   */\n      dup3\n        /* \"#utility.yul\":10362:10373   */\n      add\n        /* \"#utility.yul\":10355:10373   */\n      swap2\n      pop\n        /* \"#utility.yul\":10383:10458   */\n      tag_291\n        /* \"#utility.yul\":10454:10457   */\n      dup3\n        /* \"#utility.yul\":10445:10451   */\n      dup5\n        /* \"#utility.yul\":10383:10458   */\n      tag_164\n      jump\t// in\n    tag_291:\n        /* \"#utility.yul\":10483:10485   */\n      0x20\n        /* \"#utility.yul\":10478:10481   */\n      dup3\n        /* \"#utility.yul\":10474:10486   */\n      add\n        /* \"#utility.yul\":10467:10486   */\n      swap2\n      pop\n        /* \"#utility.yul\":10503:10506   */\n      dup2\n        /* \"#utility.yul\":10496:10506   */\n      swap1\n      pop\n        /* \"#utility.yul\":9987:10512   */\n      swap5\n      swap4\n      pop\n      pop\n      pop\n      pop\n      jump\t// out\n        /* \"#utility.yul\":10518:10698   */\n    tag_165:\n        /* \"#utility.yul\":10566:10643   */\n      0x4e487b7100000000000000000000000000000000000000000000000000000000\n        /* \"#utility.yul\":10563:10564   */\n      0x00\n        /* \"#utility.yul\":10556:10644   */\n      mstore\n        /* \"#utility.yul\":10663:10667   */\n      0x11\n        /* \"#utility.yul\":10660:10661   */\n      0x04\n        /* \"#utility.yul\":10653:10668   */\n      mstore\n        /* \"#utility.yul\":10687:10691   */\n      0x24\n        /* \"#utility.yul\":10684:10685   */\n      0x00\n        /* \"#utility.yul\":10677:10692   */\n      revert\n        /* \"#utility.yul\":10704:10895   */\n    tag_108:\n        /* \"#utility.yul\":10744:10747   */\n      0x00\n        /* \"#utility.yul\":10763:10783   */\n      tag_294\n        /* \"#utility.yul\":10781:10782   */\n      dup3\n        /* \"#utility.yul\":10763:10783   */\n      tag_136\n      jump\t// in\n    tag_294:\n        /* \"#utility.yul\":10758:10783   */\n      swap2\n      pop\n        /* \"#utility.yul\":10797:10817   */\n      tag_295\n        /* \"#utility.yul\":10815:10816   */\n      dup4\n        /* \"#utility.yul\":10797:10817   */\n      tag_136\n      jump\t// in\n    tag_295:\n        /* \"#utility.yul\":10792:10817   */\n      swap3\n      pop\n        /* \"#utility.yul\":10840:10841   */\n      dup3\n        /* \"#utility.yul\":10837:10838   */\n      dup3\n        /* \"#utility.yul\":10833:10842   */\n      add\n        /* \"#utility.yul\":10826:10842   */\n      swap1\n      pop\n        /* \"#utility.yul\":10861:10864   */\n      dup1\n        /* \"#utility.yul\":10858:10859   */\n      dup3\n        /* \"#utility.yul\":10855:10865   */\n      gt\n        /* \"#utility.yul\":10852:10888   */\n      iszero\n      tag_296\n      jumpi\n        /* \"#utility.yul\":10868:10886   */\n      tag_297\n      tag_165\n      jump\t// in\n    tag_297:\n        /* \"#utility.yul\":10852:10888   */\n    tag_296:\n        /* \"#utility.yul\":10704:10895   */\n      swap3\n      swap2\n      pop\n      pop\n      jump\t// out\n        /* \"#utility.yul\":10901:11095   */\n    tag_115:\n        /* \"#utility.yul\":10941:10945   */\n      0x00\n        /* \"#utility.yul\":10961:10981   */\n      tag_299\n        /* \"#utility.yul\":10979:10980   */\n      dup3\n        /* \"#utility.yul\":10961:10981   */\n      tag_136\n      jump\t// in\n    tag_299:\n        /* \"#utility.yul\":10956:10981   */\n      swap2\n      pop\n        /* \"#utility.yul\":10995:11015   */\n      tag_300\n        /* \"#utility.yul\":11013:11014   */\n      dup4\n        /* \"#utility.yul\":10995:11015   */\n      tag_136\n      jump\t// in\n    tag_300:\n        /* \"#utility.yul\":10990:11015   */\n      swap3\n      pop\n        /* \"#utility.yul\":11039:11040   */\n      dup3\n        /* \"#utility.yul\":11036:11037   */\n      dup3\n        /* \"#utility.yul\":11032:11041   */\n      sub\n        /* \"#utility.yul\":11024:11041   */\n      swap1\n      pop\n        /* \"#utility.yul\":11063:11064   */\n      dup2\n        /* \"#utility.yul\":11057:11061   */\n      dup2\n        /* \"#utility.yul\":11054:11065   */\n      gt\n        /* \"#utility.yul\":11051:11088   */\n      iszero\n      tag_301\n      jumpi\n        /* \"#utility.yul\":11068:11086   */\n      tag_302\n      tag_165\n      jump\t// in\n    tag_302:\n        /* \"#utility.yul\":11051:11088   */\n    tag_301:\n        /* \"#utility.yul\":10901:11095   */\n      swap3\n      swap2\n      pop\n      pop\n      jump\t// out\n        /* \"#utility.yul\":11101:11334   */\n    tag_117:\n        /* \"#utility.yul\":11140:11143   */\n      0x00\n        /* \"#utility.yul\":11163:11187   */\n      tag_304\n        /* \"#utility.yul\":11181:11186   */\n      dup3\n        /* \"#utility.yul\":11163:11187   */\n      tag_136\n      jump\t// in\n    tag_304:\n        /* \"#utility.yul\":11154:11187   */\n      swap2\n      pop\n        /* \"#utility.yul\":11209:11275   */\n      0xffffffffffffffffffffffffffffffffffffffffffffffffffffffffffffffff\n        /* \"#utility.yul\":11202:11207   */\n      dup3\n        /* \"#utility.yul\":11199:11276   */\n      sub\n        /* \"#utility.yul\":11196:11299   */\n      tag_305\n      jumpi\n        /* \"#utility.yul\":11279:11297   */\n      tag_306\n      tag_165\n      jump\t// in\n    tag_306:\n        /* \"#utility.yul\":11196:11299   */\n    tag_305:\n        /* \"#utility.yul\":11326:11327   */\n      0x01\n        /* \"#utility.yul\":11319:11324   */\n      dup3\n        /* \"#utility.yul\":11315:11328   */\n      add\n        /* \"#utility.yul\":11308:11328   */\n      swap1\n      pop\n        /* \"#utility.yul\":11101:11334   */\n      swap2\n      swap1\n      pop\n      jump\t// out\n\n    auxdata: 0xa2646970667358221220d4eb868a81355f746287a1573628215d45f4e8f10d1734c34fe59cba5d85777564736f6c63430008120033\n}\n",
				"bytecode": {
					"linkReferences": {},
					"object": "60806040523480156200001157600080fd5b50604051620012f9380380620012f983398181016040528101906200003791906200014f565b806000806101000a81548173ffffffffffffffffffffffffffffffffffffffff021916908373ffffffffffffffffffffffffffffffffffffffff1602179055508242620000859190620001da565b600181905550816001546200009b9190620001da565b60028190555050505062000215565b600080fd5b6000819050919050565b620000c481620000af565b8114620000d057600080fd5b50565b600081519050620000e481620000b9565b92915050565b600073ffffffffffffffffffffffffffffffffffffffff82169050919050565b60006200011782620000ea565b9050919050565b62000129816200010a565b81146200013557600080fd5b50565b60008151905062000149816200011e565b92915050565b6000806000606084860312156200016b576200016a620000aa565b5b60006200017b86828701620000d3565b93505060206200018e86828701620000d3565b9250506040620001a18682870162000138565b9150509250925092565b7f4e487b7100000000000000000000000000000000000000000000000000000000600052601160045260246000fd5b6000620001e782620000af565b9150620001f483620000af565b92508282019050808211156200020f576200020e620001ab565b5b92915050565b6110d480620002256000396000f3fe60806040526004361061009c5760003560e01c8063423b217f11610064578063423b217f14610163578063900f080a1461018e57806391f90157146101b7578063957bb1e0146101e2578063a6e66477146101fe578063d57bde79146102295761009c565b806301495c1c146100a157806312fa6feb146100df5780632a24f46c1461010a57806338af3eed146101215780633ccfd60b1461014c575b600080fd5b3480156100ad57600080fd5b506100c860048036038101906100c39190610ae1565b610254565b6040516100d6929190610b49565b60405180910390f35b3480156100eb57600080fd5b506100f4610295565b6040516101019190610b8d565b60405180910390f35b34801561011657600080fd5b5061011f6102a8565b005b34801561012d57600080fd5b5061013661041a565b6040516101439190610bc9565b60405180910390f35b34801561015857600080fd5b5061016161043e565b005b34801561016f57600080fd5b5061017861051b565b6040516101859190610be4565b60405180910390f35b34801561019a57600080fd5b506101b560048036038101906101b09190610d10565b610521565b005b3480156101c357600080fd5b506101cc6107fb565b6040516101d99190610dd3565b60405180910390f35b6101fc60048036038101906101f79190610e1a565b610821565b005b34801561020a57600080fd5b506102136108ff565b6040516102209190610be4565b60405180910390f35b34801561023557600080fd5b5061023e610905565b60405161024b9190610be4565b60405180910390f35b6004602052816000526040600020818154811061027057600080fd5b9060005260206000209060020201600091509150508060000154908060010154905082565b600360009054906101000a900460ff1681565b6002548042116102ef57806040517f2a35a3240000000000000000000000000000000000000000000000000000000081526004016102e69190610be4565b60405180910390fd5b600360009054906101000a900460ff1615610336576040517f61cfdcf800000000000000000000000000000000000000000000000000000000815260040160405180910390fd5b7fdaec4582d5d9595688c8c98545fdd1c696d41c6aeaeb636737e84ed2f5c00eda600560009054906101000a900473ffffffffffffffffffffffffffffffffffffffff1660065460405161038b929190610e47565b60405180910390a16001600360006101000a81548160ff02191690831515021790555060008054906101000a900473ffffffffffffffffffffffffffffffffffffffff1673ffffffffffffffffffffffffffffffffffffffff166108fc6006549081150290604051600060405180830381858888f19350505050158015610416573d6000803e3d6000fd5b5050565b60008054906101000a900473ffffffffffffffffffffffffffffffffffffffff1681565b6000600760003373ffffffffffffffffffffffffffffffffffffffff1673ffffffffffffffffffffffffffffffffffffffff1681526020019081526020016000205490506000811115610518576000600760003373ffffffffffffffffffffffffffffffffffffffff1673ffffffffffffffffffffffffffffffffffffffff168152602001908152602001600020819055503373ffffffffffffffffffffffffffffffffffffffff166108fc829081150290604051600060405180830381858888f19350505050158015610516573d6000803e3d6000fd5b505b50565b60015481565b60015480421161056857806040517f2a35a32400000000000000000000000000000000000000000000000000000000815260040161055f9190610be4565b60405180910390fd5b6002548042106105af57806040517f691e56820000000000000000000000000000000000000000000000000000000081526004016105a69190610be4565b60405180910390fd5b6000600460003373ffffffffffffffffffffffffffffffffffffffff1673ffffffffffffffffffffffffffffffffffffffff16815260200190815260200160002080549050905080898990501461060557600080fd5b80878790501461061457600080fd5b80858590501461062357600080fd5b600080600090505b828110156107a7576000600460003373ffffffffffffffffffffffffffffffffffffffff1673ffffffffffffffffffffffffffffffffffffffff168152602001908152602001600020828154811061068657610685610e70565b5b9060005260206000209060020201905060008060008e8e868181106106ae576106ad610e70565b5b905060200201358d8d878181106106c8576106c7610e70565b5b90506020020160208101906106dd9190610ecb565b8c8c888181106106f0576106ef610e70565b5b9050602002013592509250925082828260405160200161071293929190610f82565b6040516020818303038152906040528051906020012084600001541461073b5750505050610794565b83600101548661074b9190610fee565b95508115801561075f575082846001015410155b156107835761076e338461090b565b1561078257828661077f9190611022565b95505b5b6000801b8460000181905550505050505b808061079f90611056565b91505061062b565b503373ffffffffffffffffffffffffffffffffffffffff166108fc829081150290604051600060405180830381858888f193505050501580156107ee573d6000803e3d6000fd5b5050505050505050505050565b600560009054906101000a900473ffffffffffffffffffffffffffffffffffffffff1681565b60015480421061086857806040517f691e568200000000000000000000000000000000000000000000000000000000815260040161085f9190610be4565b60405180910390fd5b600460003373ffffffffffffffffffffffffffffffffffffffff1673ffffffffffffffffffffffffffffffffffffffff1681526020019081526020016000206040518060400160405280848152602001348152509080600181540180825580915050600190039060005260206000209060020201600090919091909150600082015181600001556020820151816001015550505050565b60025481565b60065481565b6000600654821161091f5760009050610a3d565b600073ffffffffffffffffffffffffffffffffffffffff16600560009054906101000a900473ffffffffffffffffffffffffffffffffffffffff1673ffffffffffffffffffffffffffffffffffffffff16146109f05760065460076000600560009054906101000a900473ffffffffffffffffffffffffffffffffffffffff1673ffffffffffffffffffffffffffffffffffffffff1673ffffffffffffffffffffffffffffffffffffffff16815260200190815260200160002060008282546109e89190610fee565b925050819055505b8160068190555082600560006101000a81548173ffffffffffffffffffffffffffffffffffffffff021916908373ffffffffffffffffffffffffffffffffffffffff160217905550600190505b92915050565b600080fd5b600080fd5b600073ffffffffffffffffffffffffffffffffffffffff82169050919050565b6000610a7882610a4d565b9050919050565b610a8881610a6d565b8114610a9357600080fd5b50565b600081359050610aa581610a7f565b92915050565b6000819050919050565b610abe81610aab565b8114610ac957600080fd5b50565b600081359050610adb81610ab5565b92915050565b60008060408385031215610af857610af7610a43565b5b6000610b0685828601610a96565b9250506020610b1785828601610acc565b9150509250929050565b6000819050919050565b610b3481610b21565b82525050565b610b4381610aab565b82525050565b6000604082019050610b5e6000830185610b2b565b610b6b6020830184610b3a565b9392505050565b60008115159050919050565b610b8781610b72565b82525050565b6000602082019050610ba26000830184610b7e565b92915050565b6000610bb382610a4d565b9050919050565b610bc381610ba8565b82525050565b6000602082019050610bde6000830184610bba565b92915050565b6000602082019050610bf96000830184610b3a565b92915050565b600080fd5b600080fd5b600080fd5b60008083601f840112610c2457610c23610bff565b5b8235905067ffffffffffffffff811115610c4157610c40610c04565b5b602083019150836020820283011115610c5d57610c5c610c09565b5b9250929050565b60008083601f840112610c7a57610c79610bff565b5b8235905067ffffffffffffffff811115610c9757610c96610c04565b5b602083019150836020820283011115610cb357610cb2610c09565b5b9250929050565b60008083601f840112610cd057610ccf610bff565b5b8235905067ffffffffffffffff811115610ced57610cec610c04565b5b602083019150836020820283011115610d0957610d08610c09565b5b9250929050565b60008060008060008060608789031215610d2d57610d2c610a43565b5b600087013567ffffffffffffffff811115610d4b57610d4a610a48565b5b610d5789828a01610c0e565b9650965050602087013567ffffffffffffffff811115610d7a57610d79610a48565b5b610d8689828a01610c64565b9450945050604087013567ffffffffffffffff811115610da957610da8610a48565b5b610db589828a01610cba565b92509250509295509295509295565b610dcd81610a6d565b82525050565b6000602082019050610de86000830184610dc4565b92915050565b610df781610b21565b8114610e0257600080fd5b50565b600081359050610e1481610dee565b92915050565b600060208284031215610e3057610e2f610a43565b5b6000610e3e84828501610e05565b91505092915050565b6000604082019050610e5c6000830185610dc4565b610e696020830184610b3a565b9392505050565b7f4e487b7100000000000000000000000000000000000000000000000000000000600052603260045260246000fd5b610ea881610b72565b8114610eb357600080fd5b50565b600081359050610ec581610e9f565b92915050565b600060208284031215610ee157610ee0610a43565b5b6000610eef84828501610eb6565b91505092915050565b6000819050919050565b610f13610f0e82610aab565b610ef8565b82525050565b60008160f81b9050919050565b6000610f3182610f19565b9050919050565b6000610f4382610f26565b9050919050565b610f5b610f5682610b72565b610f38565b82525050565b6000819050919050565b610f7c610f7782610b21565b610f61565b82525050565b6000610f8e8286610f02565b602082019150610f9e8285610f4a565b600182019150610fae8284610f6b565b602082019150819050949350505050565b7f4e487b7100000000000000000000000000000000000000000000000000000000600052601160045260246000fd5b6000610ff982610aab565b915061100483610aab565b925082820190508082111561101c5761101b610fbf565b5b92915050565b600061102d82610aab565b915061103883610aab565b92508282039050818111156110505761104f610fbf565b5b92915050565b600061106182610aab565b91507fffffffffffffffffffffffffffffffffffffffffffffffffffffffffffffffff820361109357611092610fbf565b5b60018201905091905056fea2646970667358221220d4eb868a81355f746287a1573628215d45f4e8f10d1734c34fe59cba5d85777564736f6c63430008120033",
					"opcodes": "PUSH1 0x80 PUSH1 0x40 MSTORE CALLVALUE DUP1 ISZERO PUSH3 0x11 JUMPI PUSH1 0x0 DUP1 REVERT JUMPDEST POP PUSH1 0x40 MLOAD PUSH3 0x12F9 CODESIZE SUB DUP1 PUSH3 0x12F9 DUP4 CODECOPY DUP2 DUP2 ADD PUSH1 0x40 MSTORE DUP2 ADD SWAP1 PUSH3 0x37 SWAP2 SWAP1 PUSH3 0x14F JUMP JUMPDEST DUP1 PUSH1 0x0 DUP1 PUSH2 0x100 EXP DUP2 SLOAD DUP2 PUSH20 0xFFFFFFFFFFFFFFFFFFFFFFFFFFFFFFFFFFFFFFFF MUL NOT AND SWAP1 DUP4 PUSH20 0xFFFFFFFFFFFFFFFFFFFFFFFFFFFFFFFFFFFFFFFF AND MUL OR SWAP1 SSTORE POP DUP3 TIMESTAMP PUSH3 0x85 SWAP2 SWAP1 PUSH3 0x1DA JUMP JUMPDEST PUSH1 0x1 DUP2 SWAP1 SSTORE POP DUP2 PUSH1 0x1 SLOAD PUSH3 0x9B SWAP2 SWAP1 PUSH3 0x1DA JUMP JUMPDEST PUSH1 0x2 DUP2 SWAP1 SSTORE POP POP POP POP PUSH3 0x215 JUMP JUMPDEST PUSH1 0x0 DUP1 REVERT JUMPDEST PUSH1 0x0 DUP2 SWAP1 POP SWAP2 SWAP1 POP JUMP JUMPDEST PUSH3 0xC4 DUP2 PUSH3 0xAF JUMP JUMPDEST DUP2 EQ PUSH3 0xD0 JUMPI PUSH1 0x0 DUP1 REVERT JUMPDEST POP JUMP JUMPDEST PUSH1 0x0 DUP2 MLOAD SWAP1 POP PUSH3 0xE4 DUP2 PUSH3 0xB9 JUMP JUMPDEST SWAP3 SWAP2 POP POP JUMP JUMPDEST PUSH1 0x0 PUSH20 0xFFFFFFFFFFFFFFFFFFFFFFFFFFFFFFFFFFFFFFFF DUP3 AND SWAP1 POP SWAP2 SWAP1 POP JUMP JUMPDEST PUSH1 0x0 PUSH3 0x117 DUP3 PUSH3 0xEA JUMP JUMPDEST SWAP1 POP SWAP2 SWAP1 POP JUMP JUMPDEST PUSH3 0x129 DUP2 PUSH3 0x10A JUMP JUMPDEST DUP2 EQ PUSH3 0x135 JUMPI PUSH1 0x0 DUP1 REVERT JUMPDEST POP JUMP JUMPDEST PUSH1 0x0 DUP2 MLOAD SWAP1 POP PUSH3 0x149 DUP2 PUSH3 0x11E JUMP JUMPDEST SWAP3 SWAP2 POP POP JUMP JUMPDEST PUSH1 0x0 DUP1 PUSH1 0x0 PUSH1 0x60 DUP5 DUP7 SUB SLT ISZERO PUSH3 0x16B JUMPI PUSH3 0x16A PUSH3 0xAA JUMP JUMPDEST JUMPDEST PUSH1 0x0 PUSH3 0x17B DUP7 DUP3 DUP8 ADD PUSH3 0xD3 JUMP JUMPDEST SWAP4 POP POP PUSH1 0x20 PUSH3 0x18E DUP7 DUP3 DUP8 ADD PUSH3 0xD3 JUMP JUMPDEST SWAP3 POP POP PUSH1 0x40 PUSH3 0x1A1 DUP7 DUP3 DUP8 ADD PUSH3 0x138 JUMP JUMPDEST SWAP2 POP POP SWAP3 POP SWAP3 POP SWAP3 JUMP JUMPDEST PUSH32 0x4E487B7100000000000000000000000000000000000000000000000000000000 PUSH1 0x0 MSTORE PUSH1 0x11 PUSH1 0x4 MSTORE PUSH1 0x24 PUSH1 0x0 REVERT JUMPDEST PUSH1 0x0 PUSH3 0x1E7 DUP3 PUSH3 0xAF JUMP JUMPDEST SWAP2 POP PUSH3 0x1F4 DUP4 PUSH3 0xAF JUMP JUMPDEST SWAP3 POP DUP3 DUP3 ADD SWAP1 POP DUP1 DUP3 GT ISZERO PUSH3 0x20F JUMPI PUSH3 0x20E PUSH3 0x1AB JUMP JUMPDEST JUMPDEST SWAP3 SWAP2 POP POP JUMP JUMPDEST PUSH2 0x10D4 DUP1 PUSH3 0x225 PUSH1 0x0 CODECOPY PUSH1 0x0 RETURN INVALID PUSH1 0x80 PUSH1 0x40 MSTORE PUSH1 0x4 CALLDATASIZE LT PUSH2 0x9C JUMPI PUSH1 0x0 CALLDATALOAD PUSH1 0xE0 SHR DUP1 PUSH4 0x423B217F GT PUSH2 0x64 JUMPI DUP1 PUSH4 0x423B217F EQ PUSH2 0x163 JUMPI DUP1 PUSH4 0x900F080A EQ PUSH2 0x18E JUMPI DUP1 PUSH4 0x91F90157 EQ PUSH2 0x1B7 JUMPI DUP1 PUSH4 0x957BB1E0 EQ PUSH2 0x1E2 JUMPI DUP1 PUSH4 0xA6E66477 EQ PUSH2 0x1FE JUMPI DUP1 PUSH4 0xD57BDE79 EQ PUSH2 0x229 JUMPI PUSH2 0x9C JUMP JUMPDEST DUP1 PUSH4 0x1495C1C EQ PUSH2 0xA1 JUMPI DUP1 PUSH4 0x12FA6FEB EQ PUSH2 0xDF JUMPI DUP1 PUSH4 0x2A24F46C EQ PUSH2 0x10A JUMPI DUP1 PUSH4 0x38AF3EED EQ PUSH2 0x121 JUMPI DUP1 PUSH4 0x3CCFD60B EQ PUSH2 0x14C JUMPI JUMPDEST PUSH1 0x0 DUP1 REVERT JUMPDEST CALLVALUE DUP1 ISZERO PUSH2 0xAD JUMPI PUSH1 0x0 DUP1 REVERT JUMPDEST POP PUSH2 0xC8 PUSH1 0x4 DUP1 CALLDATASIZE SUB DUP2 ADD SWAP1 PUSH2 0xC3 SWAP2 SWAP1 PUSH2 0xAE1 JUMP JUMPDEST PUSH2 0x254 JUMP JUMPDEST PUSH1 0x40 MLOAD PUSH2 0xD6 SWAP3 SWAP2 SWAP1 PUSH2 0xB49 JUMP JUMPDEST PUSH1 0x40 MLOAD DUP1 SWAP2 SUB SWAP1 RETURN JUMPDEST CALLVALUE DUP1 ISZERO PUSH2 0xEB JUMPI PUSH1 0x0 DUP1 REVERT JUMPDEST POP PUSH2 0xF4 PUSH2 0x295 JUMP JUMPDEST PUSH1 0x40 MLOAD PUSH2 0x101 SWAP2 SWAP1 PUSH2 0xB8D JUMP JUMPDEST PUSH1 0x40 MLOAD DUP1 SWAP2 SUB SWAP1 RETURN JUMPDEST CALLVALUE DUP1 ISZERO PUSH2 0x116 JUMPI PUSH1 0x0 DUP1 REVERT JUMPDEST POP PUSH2 0x11F PUSH2 0x2A8 JUMP JUMPDEST STOP JUMPDEST CALLVALUE DUP1 ISZERO PUSH2 0x12D JUMPI PUSH1 0x0 DUP1 REVERT JUMPDEST POP PUSH2 0x136 PUSH2 0x41A JUMP JUMPDEST PUSH1 0x40 MLOAD PUSH2 0x143 SWAP2 SWAP1 PUSH2 0xBC9 JUMP JUMPDEST PUSH1 0x40 MLOAD DUP1 SWAP2 SUB SWAP1 RETURN JUMPDEST CALLVALUE DUP1 ISZERO PUSH2 0x158 JUMPI PUSH1 0x0 DUP1 REVERT JUMPDEST POP PUSH2 0x161 PUSH2 0x43E JUMP JUMPDEST STOP JUMPDEST CALLVALUE DUP1 ISZERO PUSH2 0x16F JUMPI PUSH1 0x0 DUP1 REVERT JUMPDEST POP PUSH2 0x178 PUSH2 0x51B JUMP JUMPDEST PUSH1 0x40 MLOAD PUSH2 0x185 SWAP2 SWAP1 PUSH2 0xBE4 JUMP JUMPDEST PUSH1 0x40 MLOAD DUP1 SWAP2 SUB SWAP1 RETURN JUMPDEST CALLVALUE DUP1 ISZERO PUSH2 0x19A JUMPI PUSH1 0x0 DUP1 REVERT JUMPDEST POP PUSH2 0x1B5 PUSH1 0x4 DUP1 CALLDATASIZE SUB DUP2 ADD SWAP1 PUSH2 0x1B0 SWAP2 SWAP1 PUSH2 0xD10 JUMP JUMPDEST PUSH2 0x521 JUMP JUMPDEST STOP JUMPDEST CALLVALUE DUP1 ISZERO PUSH2 0x1C3 JUMPI PUSH1 0x0 DUP1 REVERT JUMPDEST POP PUSH2 0x1CC PUSH2 0x7FB JUMP JUMPDEST PUSH1 0x40 MLOAD PUSH2 0x1D9 SWAP2 SWAP1 PUSH2 0xDD3 JUMP JUMPDEST PUSH1 0x40 MLOAD DUP1 SWAP2 SUB SWAP1 RETURN JUMPDEST PUSH2 0x1FC PUSH1 0x4 DUP1 CALLDATASIZE SUB DUP2 ADD SWAP1 PUSH2 0x1F7 SWAP2 SWAP1 PUSH2 0xE1A JUMP JUMPDEST PUSH2 0x821 JUMP JUMPDEST STOP JUMPDEST CALLVALUE DUP1 ISZERO PUSH2 0x20A JUMPI PUSH1 0x0 DUP1 REVERT JUMPDEST POP PUSH2 0x213 PUSH2 0x8FF JUMP JUMPDEST PUSH1 0x40 MLOAD PUSH2 0x220 SWAP2 SWAP1 PUSH2 0xBE4 JUMP JUMPDEST PUSH1 0x40 MLOAD DUP1 SWAP2 SUB SWAP1 RETURN JUMPDEST CALLVALUE DUP1 ISZERO PUSH2 0x235 JUMPI PUSH1 0x0 DUP1 REVERT JUMPDEST POP PUSH2 0x23E PUSH2 0x905 JUMP JUMPDEST PUSH1 0x40 MLOAD PUSH2 0x24B SWAP2 SWAP1 PUSH2 0xBE4 JUMP JUMPDEST PUSH1 0x40 MLOAD DUP1 SWAP2 SUB SWAP1 RETURN JUMPDEST PUSH1 0x4 PUSH1 0x20 MSTORE DUP2 PUSH1 0x0 MSTORE PUSH1 0x40 PUSH1 0x0 KECCAK256 DUP2 DUP2 SLOAD DUP2 LT PUSH2 0x270 JUMPI PUSH1 0x0 DUP1 REVERT JUMPDEST SWAP1 PUSH1 0x0 MSTORE PUSH1 0x20 PUSH1 0x0 KECCAK256 SWAP1 PUSH1 0x2 MUL ADD PUSH1 0x0 SWAP2 POP SWAP2 POP POP DUP1 PUSH1 0x0 ADD SLOAD SWAP1 DUP1 PUSH1 0x1 ADD SLOAD SWAP1 POP DUP3 JUMP JUMPDEST PUSH1 0x3 PUSH1 0x0 SWAP1 SLOAD SWAP1 PUSH2 0x100 EXP SWAP1 DIV PUSH1 0xFF AND DUP2 JUMP JUMPDEST PUSH1 0x2 SLOAD DUP1 TIMESTAMP GT PUSH2 0x2EF JUMPI DUP1 PUSH1 0x40 MLOAD PUSH32 0x2A35A32400000000000000000000000000000000000000000000000000000000 DUP2 MSTORE PUSH1 0x4 ADD PUSH2 0x2E6 SWAP2 SWAP1 PUSH2 0xBE4 JUMP JUMPDEST PUSH1 0x40 MLOAD DUP1 SWAP2 SUB SWAP1 REVERT JUMPDEST PUSH1 0x3 PUSH1 0x0 SWAP1 SLOAD SWAP1 PUSH2 0x100 EXP SWAP1 DIV PUSH1 0xFF AND ISZERO PUSH2 0x336 JUMPI PUSH1 0x40 MLOAD PUSH32 0x61CFDCF800000000000000000000000000000000000000000000000000000000 DUP2 MSTORE PUSH1 0x4 ADD PUSH1 0x40 MLOAD DUP1 SWAP2 SUB SWAP1 REVERT JUMPDEST PUSH32 0xDAEC4582D5D9595688C8C98545FDD1C696D41C6AEAEB636737E84ED2F5C00EDA PUSH1 0x5 PUSH1 0x0 SWAP1 SLOAD SWAP1 PUSH2 0x100 EXP SWAP1 DIV PUSH20 0xFFFFFFFFFFFFFFFFFFFFFFFFFFFFFFFFFFFFFFFF AND PUSH1 0x6 SLOAD PUSH1 0x40 MLOAD PUSH2 0x38B SWAP3 SWAP2 SWAP1 PUSH2 0xE47 JUMP JUMPDEST PUSH1 0x40 MLOAD DUP1 SWAP2 SUB SWAP1 LOG1 PUSH1 0x1 PUSH1 0x3 PUSH1 0x0 PUSH2 0x100 EXP DUP2 SLOAD DUP2 PUSH1 0xFF MUL NOT AND SWAP1 DUP4 ISZERO ISZERO MUL OR SWAP1 SSTORE POP PUSH1 0x0 DUP1 SLOAD SWAP1 PUSH2 0x100 EXP SWAP1 DIV PUSH20 0xFFFFFFFFFFFFFFFFFFFFFFFFFFFFFFFFFFFFFFFF AND PUSH20 0xFFFFFFFFFFFFFFFFFFFFFFFFFFFFFFFFFFFFFFFF AND PUSH2 0x8FC PUSH1 0x6 SLOAD SWAP1 DUP2 ISZERO MUL SWAP1 PUSH1 0x40 MLOAD PUSH1 0x0 PUSH1 0x40 MLOAD DUP1 DUP4 SUB DUP2 DUP6 DUP9 DUP9 CALL SWAP4 POP POP POP POP ISZERO DUP1 ISZERO PUSH2 0x416 JUMPI RETURNDATASIZE PUSH1 0x0 DUP1 RETURNDATACOPY RETURNDATASIZE PUSH1 0x0 REVERT JUMPDEST POP POP JUMP JUMPDEST PUSH1 0x0 DUP1 SLOAD SWAP1 PUSH2 0x100 EXP SWAP1 DIV PUSH20 0xFFFFFFFFFFFFFFFFFFFFFFFFFFFFFFFFFFFFFFFF AND DUP2 JUMP JUMPDEST PUSH1 0x0 PUSH1 0x7 PUSH1 0x0 CALLER PUSH20 0xFFFFFFFFFFFFFFFFFFFFFFFFFFFFFFFFFFFFFFFF AND PUSH20 0xFFFFFFFFFFFFFFFFFFFFFFFFFFFFFFFFFFFFFFFF AND DUP2 MSTORE PUSH1 0x20 ADD SWAP1 DUP2 MSTORE PUSH1 0x20 ADD PUSH1 0x0 KECCAK256 SLOAD SWAP1 POP PUSH1 0x0 DUP2 GT ISZERO PUSH2 0x518 JUMPI PUSH1 0x0 PUSH1 0x7 PUSH1 0x0 CALLER PUSH20 0xFFFFFFFFFFFFFFFFFFFFFFFFFFFFFFFFFFFFFFFF AND PUSH20 0xFFFFFFFFFFFFFFFFFFFFFFFFFFFFFFFFFFFFFFFF AND DUP2 MSTORE PUSH1 0x20 ADD SWAP1 DUP2 MSTORE PUSH1 0x20 ADD PUSH1 0x0 KECCAK256 DUP2 SWAP1 SSTORE POP CALLER PUSH20 0xFFFFFFFFFFFFFFFFFFFFFFFFFFFFFFFFFFFFFFFF AND PUSH2 0x8FC DUP3 SWAP1 DUP2 ISZERO MUL SWAP1 PUSH1 0x40 MLOAD PUSH1 0x0 PUSH1 0x40 MLOAD DUP1 DUP4 SUB DUP2 DUP6 DUP9 DUP9 CALL SWAP4 POP POP POP POP ISZERO DUP1 ISZERO PUSH2 0x516 JUMPI RETURNDATASIZE PUSH1 0x0 DUP1 RETURNDATACOPY RETURNDATASIZE PUSH1 0x0 REVERT JUMPDEST POP JUMPDEST POP JUMP JUMPDEST PUSH1 0x1 SLOAD DUP2 JUMP JUMPDEST PUSH1 0x1 SLOAD DUP1 TIMESTAMP GT PUSH2 0x568 JUMPI DUP1 PUSH1 0x40 MLOAD PUSH32 0x2A35A32400000000000000000000000000000000000000000000000000000000 DUP2 MSTORE PUSH1 0x4 ADD PUSH2 0x55F SWAP2 SWAP1 PUSH2 0xBE4 JUMP JUMPDEST PUSH1 0x40 MLOAD DUP1 SWAP2 SUB SWAP1 REVERT JUMPDEST PUSH1 0x2 SLOAD DUP1 TIMESTAMP LT PUSH2 0x5AF JUMPI DUP1 PUSH1 0x40 MLOAD PUSH32 0x691E568200000000000000000000000000000000000000000000000000000000 DUP2 MSTORE PUSH1 0x4 ADD PUSH2 0x5A6 SWAP2 SWAP1 PUSH2 0xBE4 JUMP JUMPDEST PUSH1 0x40 MLOAD DUP1 SWAP2 SUB SWAP1 REVERT JUMPDEST PUSH1 0x0 PUSH1 0x4 PUSH1 0x0 CALLER PUSH20 0xFFFFFFFFFFFFFFFFFFFFFFFFFFFFFFFFFFFFFFFF AND PUSH20 0xFFFFFFFFFFFFFFFFFFFFFFFFFFFFFFFFFFFFFFFF AND DUP2 MSTORE PUSH1 0x20 ADD SWAP1 DUP2 MSTORE PUSH1 0x20 ADD PUSH1 0x0 KECCAK256 DUP1 SLOAD SWAP1 POP SWAP1 POP DUP1 DUP10 DUP10 SWAP1 POP EQ PUSH2 0x605 JUMPI PUSH1 0x0 DUP1 REVERT JUMPDEST DUP1 DUP8 DUP8 SWAP1 POP EQ PUSH2 0x614 JUMPI PUSH1 0x0 DUP1 REVERT JUMPDEST DUP1 DUP6 DUP6 SWAP1 POP EQ PUSH2 0x623 JUMPI PUSH1 0x0 DUP1 REVERT JUMPDEST PUSH1 0x0 DUP1 PUSH1 0x0 SWAP1 POP JUMPDEST DUP3 DUP2 LT ISZERO PUSH2 0x7A7 JUMPI PUSH1 0x0 PUSH1 0x4 PUSH1 0x0 CALLER PUSH20 0xFFFFFFFFFFFFFFFFFFFFFFFFFFFFFFFFFFFFFFFF AND PUSH20 0xFFFFFFFFFFFFFFFFFFFFFFFFFFFFFFFFFFFFFFFF AND DUP2 MSTORE PUSH1 0x20 ADD SWAP1 DUP2 MSTORE PUSH1 0x20 ADD PUSH1 0x0 KECCAK256 DUP3 DUP2 SLOAD DUP2 LT PUSH2 0x686 JUMPI PUSH2 0x685 PUSH2 0xE70 JUMP JUMPDEST JUMPDEST SWAP1 PUSH1 0x0 MSTORE PUSH1 0x20 PUSH1 0x0 KECCAK256 SWAP1 PUSH1 0x2 MUL ADD SWAP1 POP PUSH1 0x0 DUP1 PUSH1 0x0 DUP15 DUP15 DUP7 DUP2 DUP2 LT PUSH2 0x6AE JUMPI PUSH2 0x6AD PUSH2 0xE70 JUMP JUMPDEST JUMPDEST SWAP1 POP PUSH1 0x20 MUL ADD CALLDATALOAD DUP14 DUP14 DUP8 DUP2 DUP2 LT PUSH2 0x6C8 JUMPI PUSH2 0x6C7 PUSH2 0xE70 JUMP JUMPDEST JUMPDEST SWAP1 POP PUSH1 0x20 MUL ADD PUSH1 0x20 DUP2 ADD SWAP1 PUSH2 0x6DD SWAP2 SWAP1 PUSH2 0xECB JUMP JUMPDEST DUP13 DUP13 DUP9 DUP2 DUP2 LT PUSH2 0x6F0 JUMPI PUSH2 0x6EF PUSH2 0xE70 JUMP JUMPDEST JUMPDEST SWAP1 POP PUSH1 0x20 MUL ADD CALLDATALOAD SWAP3 POP SWAP3 POP SWAP3 POP DUP3 DUP3 DUP3 PUSH1 0x40 MLOAD PUSH1 0x20 ADD PUSH2 0x712 SWAP4 SWAP3 SWAP2 SWAP1 PUSH2 0xF82 JUMP JUMPDEST PUSH1 0x40 MLOAD PUSH1 0x20 DUP2 DUP4 SUB SUB DUP2 MSTORE SWAP1 PUSH1 0x40 MSTORE DUP1 MLOAD SWAP1 PUSH1 0x20 ADD KECCAK256 DUP5 PUSH1 0x0 ADD SLOAD EQ PUSH2 0x73B JUMPI POP POP POP POP PUSH2 0x794 JUMP JUMPDEST DUP4 PUSH1 0x1 ADD SLOAD DUP7 PUSH2 0x74B SWAP2 SWAP1 PUSH2 0xFEE JUMP JUMPDEST SWAP6 POP DUP2 ISZERO DUP1 ISZERO PUSH2 0x75F JUMPI POP DUP3 DUP5 PUSH1 0x1 ADD SLOAD LT ISZERO JUMPDEST ISZERO PUSH2 0x783 JUMPI PUSH2 0x76E CALLER DUP5 PUSH2 0x90B JUMP JUMPDEST ISZERO PUSH2 0x782 JUMPI DUP3 DUP7 PUSH2 0x77F SWAP2 SWAP1 PUSH2 0x1022 JUMP JUMPDEST SWAP6 POP JUMPDEST JUMPDEST PUSH1 0x0 DUP1 SHL DUP5 PUSH1 0x0 ADD DUP2 SWAP1 SSTORE POP POP POP POP POP JUMPDEST DUP1 DUP1 PUSH2 0x79F SWAP1 PUSH2 0x1056 JUMP JUMPDEST SWAP2 POP POP PUSH2 0x62B JUMP JUMPDEST POP CALLER PUSH20 0xFFFFFFFFFFFFFFFFFFFFFFFFFFFFFFFFFFFFFFFF AND PUSH2 0x8FC DUP3 SWAP1 DUP2 ISZERO MUL SWAP1 PUSH1 0x40 MLOAD PUSH1 0x0 PUSH1 0x40 MLOAD DUP1 DUP4 SUB DUP2 DUP6 DUP9 DUP9 CALL SWAP4 POP POP POP POP ISZERO DUP1 ISZERO PUSH2 0x7EE JUMPI RETURNDATASIZE PUSH1 0x0 DUP1 RETURNDATACOPY RETURNDATASIZE PUSH1 0x0 REVERT JUMPDEST POP POP POP POP POP POP POP POP POP POP POP JUMP JUMPDEST PUSH1 0x5 PUSH1 0x0 SWAP1 SLOAD SWAP1 PUSH2 0x100 EXP SWAP1 DIV PUSH20 0xFFFFFFFFFFFFFFFFFFFFFFFFFFFFFFFFFFFFFFFF AND DUP2 JUMP JUMPDEST PUSH1 0x1 SLOAD DUP1 TIMESTAMP LT PUSH2 0x868 JUMPI DUP1 PUSH1 0x40 MLOAD PUSH32 0x691E568200000000000000000000000000000000000000000000000000000000 DUP2 MSTORE PUSH1 0x4 ADD PUSH2 0x85F SWAP2 SWAP1 PUSH2 0xBE4 JUMP JUMPDEST PUSH1 0x40 MLOAD DUP1 SWAP2 SUB SWAP1 REVERT JUMPDEST PUSH1 0x4 PUSH1 0x0 CALLER PUSH20 0xFFFFFFFFFFFFFFFFFFFFFFFFFFFFFFFFFFFFFFFF AND PUSH20 0xFFFFFFFFFFFFFFFFFFFFFFFFFFFFFFFFFFFFFFFF AND DUP2 MSTORE PUSH1 0x20 ADD SWAP1 DUP2 MSTORE PUSH1 0x20 ADD PUSH1 0x0 KECCAK256 PUSH1 0x40 MLOAD DUP1 PUSH1 0x40 ADD PUSH1 0x40 MSTORE DUP1 DUP5 DUP2 MSTORE PUSH1 0x20 ADD CALLVALUE DUP2 MSTORE POP SWAP1 DUP1 PUSH1 0x1 DUP2 SLOAD ADD DUP1 DUP3 SSTORE DUP1 SWAP2 POP POP PUSH1 0x1 SWAP1 SUB SWAP1 PUSH1 0x0 MSTORE PUSH1 0x20 PUSH1 0x0 KECCAK256 SWAP1 PUSH1 0x2 MUL ADD PUSH1 0x0 SWAP1 SWAP2 SWAP1 SWAP2 SWAP1 SWAP2 POP PUSH1 0x0 DUP3 ADD MLOAD DUP2 PUSH1 0x0 ADD SSTORE PUSH1 0x20 DUP3 ADD MLOAD DUP2 PUSH1 0x1 ADD SSTORE POP POP POP POP JUMP JUMPDEST PUSH1 0x2 SLOAD DUP2 JUMP JUMPDEST PUSH1 0x6 SLOAD DUP2 JUMP JUMPDEST PUSH1 0x0 PUSH1 0x6 SLOAD DUP3 GT PUSH2 0x91F JUMPI PUSH1 0x0 SWAP1 POP PUSH2 0xA3D JUMP JUMPDEST PUSH1 0x0 PUSH20 0xFFFFFFFFFFFFFFFFFFFFFFFFFFFFFFFFFFFFFFFF AND PUSH1 0x5 PUSH1 0x0 SWAP1 SLOAD SWAP1 PUSH2 0x100 EXP SWAP1 DIV PUSH20 0xFFFFFFFFFFFFFFFFFFFFFFFFFFFFFFFFFFFFFFFF AND PUSH20 0xFFFFFFFFFFFFFFFFFFFFFFFFFFFFFFFFFFFFFFFF AND EQ PUSH2 0x9F0 JUMPI PUSH1 0x6 SLOAD PUSH1 0x7 PUSH1 0x0 PUSH1 0x5 PUSH1 0x0 SWAP1 SLOAD SWAP1 PUSH2 0x100 EXP SWAP1 DIV PUSH20 0xFFFFFFFFFFFFFFFFFFFFFFFFFFFFFFFFFFFFFFFF AND PUSH20 0xFFFFFFFFFFFFFFFFFFFFFFFFFFFFFFFFFFFFFFFF AND PUSH20 0xFFFFFFFFFFFFFFFFFFFFFFFFFFFFFFFFFFFFFFFF AND DUP2 MSTORE PUSH1 0x20 ADD SWAP1 DUP2 MSTORE PUSH1 0x20 ADD PUSH1 0x0 KECCAK256 PUSH1 0x0 DUP3 DUP3 SLOAD PUSH2 0x9E8 SWAP2 SWAP1 PUSH2 0xFEE JUMP JUMPDEST SWAP3 POP POP DUP2 SWAP1 SSTORE POP JUMPDEST DUP2 PUSH1 0x6 DUP2 SWAP1 SSTORE POP DUP3 PUSH1 0x5 PUSH1 0x0 PUSH2 0x100 EXP DUP2 SLOAD DUP2 PUSH20 0xFFFFFFFFFFFFFFFFFFFFFFFFFFFFFFFFFFFFFFFF MUL NOT AND SWAP1 DUP4 PUSH20 0xFFFFFFFFFFFFFFFFFFFFFFFFFFFFFFFFFFFFFFFF AND MUL OR SWAP1 SSTORE POP PUSH1 0x1 SWAP1 POP JUMPDEST SWAP3 SWAP2 POP POP JUMP JUMPDEST PUSH1 0x0 DUP1 REVERT JUMPDEST PUSH1 0x0 DUP1 REVERT JUMPDEST PUSH1 0x0 PUSH20 0xFFFFFFFFFFFFFFFFFFFFFFFFFFFFFFFFFFFFFFFF DUP3 AND SWAP1 POP SWAP2 SWAP1 POP JUMP JUMPDEST PUSH1 0x0 PUSH2 0xA78 DUP3 PUSH2 0xA4D JUMP JUMPDEST SWAP1 POP SWAP2 SWAP1 POP JUMP JUMPDEST PUSH2 0xA88 DUP2 PUSH2 0xA6D JUMP JUMPDEST DUP2 EQ PUSH2 0xA93 JUMPI PUSH1 0x0 DUP1 REVERT JUMPDEST POP JUMP JUMPDEST PUSH1 0x0 DUP2 CALLDATALOAD SWAP1 POP PUSH2 0xAA5 DUP2 PUSH2 0xA7F JUMP JUMPDEST SWAP3 SWAP2 POP POP JUMP JUMPDEST PUSH1 0x0 DUP2 SWAP1 POP SWAP2 SWAP1 POP JUMP JUMPDEST PUSH2 0xABE DUP2 PUSH2 0xAAB JUMP JUMPDEST DUP2 EQ PUSH2 0xAC9 JUMPI PUSH1 0x0 DUP1 REVERT JUMPDEST POP JUMP JUMPDEST PUSH1 0x0 DUP2 CALLDATALOAD SWAP1 POP PUSH2 0xADB DUP2 PUSH2 0xAB5 JUMP JUMPDEST SWAP3 SWAP2 POP POP JUMP JUMPDEST PUSH1 0x0 DUP1 PUSH1 0x40 DUP4 DUP6 SUB SLT ISZERO PUSH2 0xAF8 JUMPI PUSH2 0xAF7 PUSH2 0xA43 JUMP JUMPDEST JUMPDEST PUSH1 0x0 PUSH2 0xB06 DUP6 DUP3 DUP7 ADD PUSH2 0xA96 JUMP JUMPDEST SWAP3 POP POP PUSH1 0x20 PUSH2 0xB17 DUP6 DUP3 DUP7 ADD PUSH2 0xACC JUMP JUMPDEST SWAP2 POP POP SWAP3 POP SWAP3 SWAP1 POP JUMP JUMPDEST PUSH1 0x0 DUP2 SWAP1 POP SWAP2 SWAP1 POP JUMP JUMPDEST PUSH2 0xB34 DUP2 PUSH2 0xB21 JUMP JUMPDEST DUP3 MSTORE POP POP JUMP JUMPDEST PUSH2 0xB43 DUP2 PUSH2 0xAAB JUMP JUMPDEST DUP3 MSTORE POP POP JUMP JUMPDEST PUSH1 0x0 PUSH1 0x40 DUP3 ADD SWAP1 POP PUSH2 0xB5E PUSH1 0x0 DUP4 ADD DUP6 PUSH2 0xB2B JUMP JUMPDEST PUSH2 0xB6B PUSH1 0x20 DUP4 ADD DUP5 PUSH2 0xB3A JUMP JUMPDEST SWAP4 SWAP3 POP POP POP JUMP JUMPDEST PUSH1 0x0 DUP2 ISZERO ISZERO SWAP1 POP SWAP2 SWAP1 POP JUMP JUMPDEST PUSH2 0xB87 DUP2 PUSH2 0xB72 JUMP JUMPDEST DUP3 MSTORE POP POP JUMP JUMPDEST PUSH1 0x0 PUSH1 0x20 DUP3 ADD SWAP1 POP PUSH2 0xBA2 PUSH1 0x0 DUP4 ADD DUP5 PUSH2 0xB7E JUMP JUMPDEST SWAP3 SWAP2 POP POP JUMP JUMPDEST PUSH1 0x0 PUSH2 0xBB3 DUP3 PUSH2 0xA4D JUMP JUMPDEST SWAP1 POP SWAP2 SWAP1 POP JUMP JUMPDEST PUSH2 0xBC3 DUP2 PUSH2 0xBA8 JUMP JUMPDEST DUP3 MSTORE POP POP JUMP JUMPDEST PUSH1 0x0 PUSH1 0x20 DUP3 ADD SWAP1 POP PUSH2 0xBDE PUSH1 0x0 DUP4 ADD DUP5 PUSH2 0xBBA JUMP JUMPDEST SWAP3 SWAP2 POP POP JUMP JUMPDEST PUSH1 0x0 PUSH1 0x20 DUP3 ADD SWAP1 POP PUSH2 0xBF9 PUSH1 0x0 DUP4 ADD DUP5 PUSH2 0xB3A JUMP JUMPDEST SWAP3 SWAP2 POP POP JUMP JUMPDEST PUSH1 0x0 DUP1 REVERT JUMPDEST PUSH1 0x0 DUP1 REVERT JUMPDEST PUSH1 0x0 DUP1 REVERT JUMPDEST PUSH1 0x0 DUP1 DUP4 PUSH1 0x1F DUP5 ADD SLT PUSH2 0xC24 JUMPI PUSH2 0xC23 PUSH2 0xBFF JUMP JUMPDEST JUMPDEST DUP3 CALLDATALOAD SWAP1 POP PUSH8 0xFFFFFFFFFFFFFFFF DUP2 GT ISZERO PUSH2 0xC41 JUMPI PUSH2 0xC40 PUSH2 0xC04 JUMP JUMPDEST JUMPDEST PUSH1 0x20 DUP4 ADD SWAP2 POP DUP4 PUSH1 0x20 DUP3 MUL DUP4 ADD GT ISZERO PUSH2 0xC5D JUMPI PUSH2 0xC5C PUSH2 0xC09 JUMP JUMPDEST JUMPDEST SWAP3 POP SWAP3 SWAP1 POP JUMP JUMPDEST PUSH1 0x0 DUP1 DUP4 PUSH1 0x1F DUP5 ADD SLT PUSH2 0xC7A JUMPI PUSH2 0xC79 PUSH2 0xBFF JUMP JUMPDEST JUMPDEST DUP3 CALLDATALOAD SWAP1 POP PUSH8 0xFFFFFFFFFFFFFFFF DUP2 GT ISZERO PUSH2 0xC97 JUMPI PUSH2 0xC96 PUSH2 0xC04 JUMP JUMPDEST JUMPDEST PUSH1 0x20 DUP4 ADD SWAP2 POP DUP4 PUSH1 0x20 DUP3 MUL DUP4 ADD GT ISZERO PUSH2 0xCB3 JUMPI PUSH2 0xCB2 PUSH2 0xC09 JUMP JUMPDEST JUMPDEST SWAP3 POP SWAP3 SWAP1 POP JUMP JUMPDEST PUSH1 0x0 DUP1 DUP4 PUSH1 0x1F DUP5 ADD SLT PUSH2 0xCD0 JUMPI PUSH2 0xCCF PUSH2 0xBFF JUMP JUMPDEST JUMPDEST DUP3 CALLDATALOAD SWAP1 POP PUSH8 0xFFFFFFFFFFFFFFFF DUP2 GT ISZERO PUSH2 0xCED JUMPI PUSH2 0xCEC PUSH2 0xC04 JUMP JUMPDEST JUMPDEST PUSH1 0x20 DUP4 ADD SWAP2 POP DUP4 PUSH1 0x20 DUP3 MUL DUP4 ADD GT ISZERO PUSH2 0xD09 JUMPI PUSH2 0xD08 PUSH2 0xC09 JUMP JUMPDEST JUMPDEST SWAP3 POP SWAP3 SWAP1 POP JUMP JUMPDEST PUSH1 0x0 DUP1 PUSH1 0x0 DUP1 PUSH1 0x0 DUP1 PUSH1 0x60 DUP8 DUP10 SUB SLT ISZERO PUSH2 0xD2D JUMPI PUSH2 0xD2C PUSH2 0xA43 JUMP JUMPDEST JUMPDEST PUSH1 0x0 DUP8 ADD CALLDATALOAD PUSH8 0xFFFFFFFFFFFFFFFF DUP2 GT ISZERO PUSH2 0xD4B JUMPI PUSH2 0xD4A PUSH2 0xA48 JUMP JUMPDEST JUMPDEST PUSH2 0xD57 DUP10 DUP3 DUP11 ADD PUSH2 0xC0E JUMP JUMPDEST SWAP7 POP SWAP7 POP POP PUSH1 0x20 DUP8 ADD CALLDATALOAD PUSH8 0xFFFFFFFFFFFFFFFF DUP2 GT ISZERO PUSH2 0xD7A JUMPI PUSH2 0xD79 PUSH2 0xA48 JUMP JUMPDEST JUMPDEST PUSH2 0xD86 DUP10 DUP3 DUP11 ADD PUSH2 0xC64 JUMP JUMPDEST SWAP5 POP SWAP5 POP POP PUSH1 0x40 DUP8 ADD CALLDATALOAD PUSH8 0xFFFFFFFFFFFFFFFF DUP2 GT ISZERO PUSH2 0xDA9 JUMPI PUSH2 0xDA8 PUSH2 0xA48 JUMP JUMPDEST JUMPDEST PUSH2 0xDB5 DUP10 DUP3 DUP11 ADD PUSH2 0xCBA JUMP JUMPDEST SWAP3 POP SWAP3 POP POP SWAP3 SWAP6 POP SWAP3 SWAP6 POP SWAP3 SWAP6 JUMP JUMPDEST PUSH2 0xDCD DUP2 PUSH2 0xA6D JUMP JUMPDEST DUP3 MSTORE POP POP JUMP JUMPDEST PUSH1 0x0 PUSH1 0x20 DUP3 ADD SWAP1 POP PUSH2 0xDE8 PUSH1 0x0 DUP4 ADD DUP5 PUSH2 0xDC4 JUMP JUMPDEST SWAP3 SWAP2 POP POP JUMP JUMPDEST PUSH2 0xDF7 DUP2 PUSH2 0xB21 JUMP JUMPDEST DUP2 EQ PUSH2 0xE02 JUMPI PUSH1 0x0 DUP1 REVERT JUMPDEST POP JUMP JUMPDEST PUSH1 0x0 DUP2 CALLDATALOAD SWAP1 POP PUSH2 0xE14 DUP2 PUSH2 0xDEE JUMP JUMPDEST SWAP3 SWAP2 POP POP JUMP JUMPDEST PUSH1 0x0 PUSH1 0x20 DUP3 DUP5 SUB SLT ISZERO PUSH2 0xE30 JUMPI PUSH2 0xE2F PUSH2 0xA43 JUMP JUMPDEST JUMPDEST PUSH1 0x0 PUSH2 0xE3E DUP5 DUP3 DUP6 ADD PUSH2 0xE05 JUMP JUMPDEST SWAP2 POP POP SWAP3 SWAP2 POP POP JUMP JUMPDEST PUSH1 0x0 PUSH1 0x40 DUP3 ADD SWAP1 POP PUSH2 0xE5C PUSH1 0x0 DUP4 ADD DUP6 PUSH2 0xDC4 JUMP JUMPDEST PUSH2 0xE69 PUSH1 0x20 DUP4 ADD DUP5 PUSH2 0xB3A JUMP JUMPDEST SWAP4 SWAP3 POP POP POP JUMP JUMPDEST PUSH32 0x4E487B7100000000000000000000000000000000000000000000000000000000 PUSH1 0x0 MSTORE PUSH1 0x32 PUSH1 0x4 MSTORE PUSH1 0x24 PUSH1 0x0 REVERT JUMPDEST PUSH2 0xEA8 DUP2 PUSH2 0xB72 JUMP JUMPDEST DUP2 EQ PUSH2 0xEB3 JUMPI PUSH1 0x0 DUP1 REVERT JUMPDEST POP JUMP JUMPDEST PUSH1 0x0 DUP2 CALLDATALOAD SWAP1 POP PUSH2 0xEC5 DUP2 PUSH2 0xE9F JUMP JUMPDEST SWAP3 SWAP2 POP POP JUMP JUMPDEST PUSH1 0x0 PUSH1 0x20 DUP3 DUP5 SUB SLT ISZERO PUSH2 0xEE1 JUMPI PUSH2 0xEE0 PUSH2 0xA43 JUMP JUMPDEST JUMPDEST PUSH1 0x0 PUSH2 0xEEF DUP5 DUP3 DUP6 ADD PUSH2 0xEB6 JUMP JUMPDEST SWAP2 POP POP SWAP3 SWAP2 POP POP JUMP JUMPDEST PUSH1 0x0 DUP2 SWAP1 POP SWAP2 SWAP1 POP JUMP JUMPDEST PUSH2 0xF13 PUSH2 0xF0E DUP3 PUSH2 0xAAB JUMP JUMPDEST PUSH2 0xEF8 JUMP JUMPDEST DUP3 MSTORE POP POP JUMP JUMPDEST PUSH1 0x0 DUP2 PUSH1 0xF8 SHL SWAP1 POP SWAP2 SWAP1 POP JUMP JUMPDEST PUSH1 0x0 PUSH2 0xF31 DUP3 PUSH2 0xF19 JUMP JUMPDEST SWAP1 POP SWAP2 SWAP1 POP JUMP JUMPDEST PUSH1 0x0 PUSH2 0xF43 DUP3 PUSH2 0xF26 JUMP JUMPDEST SWAP1 POP SWAP2 SWAP1 POP JUMP JUMPDEST PUSH2 0xF5B PUSH2 0xF56 DUP3 PUSH2 0xB72 JUMP JUMPDEST PUSH2 0xF38 JUMP JUMPDEST DUP3 MSTORE POP POP JUMP JUMPDEST PUSH1 0x0 DUP2 SWAP1 POP SWAP2 SWAP1 POP JUMP JUMPDEST PUSH2 0xF7C PUSH2 0xF77 DUP3 PUSH2 0xB21 JUMP JUMPDEST PUSH2 0xF61 JUMP JUMPDEST DUP3 MSTORE POP POP JUMP JUMPDEST PUSH1 0x0 PUSH2 0xF8E DUP3 DUP7 PUSH2 0xF02 JUMP JUMPDEST PUSH1 0x20 DUP3 ADD SWAP2 POP PUSH2 0xF9E DUP3 DUP6 PUSH2 0xF4A JUMP JUMPDEST PUSH1 0x1 DUP3 ADD SWAP2 POP PUSH2 0xFAE DUP3 DUP5 PUSH2 0xF6B JUMP JUMPDEST PUSH1 0x20 DUP3 ADD SWAP2 POP DUP2 SWAP1 POP SWAP5 SWAP4 POP POP POP POP JUMP JUMPDEST PUSH32 0x4E487B7100000000000000000000000000000000000000000000000000000000 PUSH1 0x0 MSTORE PUSH1 0x11 PUSH1 0x4 MSTORE PUSH1 0x24 PUSH1 0x0 REVERT JUMPDEST PUSH1 0x0 PUSH2 0xFF9 DUP3 PUSH2 0xAAB JUMP JUMPDEST SWAP2 POP PUSH2 0x1004 DUP4 PUSH2 0xAAB JUMP JUMPDEST SWAP3 POP DUP3 DUP3 ADD SWAP1 POP DUP1 DUP3 GT ISZERO PUSH2 0x101C JUMPI PUSH2 0x101B PUSH2 0xFBF JUMP JUMPDEST JUMPDEST SWAP3 SWAP2 POP POP JUMP JUMPDEST PUSH1 0x0 PUSH2 0x102D DUP3 PUSH2 0xAAB JUMP JUMPDEST SWAP2 POP PUSH2 0x1038 DUP4 PUSH2 0xAAB JUMP JUMPDEST SWAP3 POP DUP3 DUP3 SUB SWAP1 POP DUP2 DUP2 GT ISZERO PUSH2 0x1050 JUMPI PUSH2 0x104F PUSH2 0xFBF JUMP JUMPDEST JUMPDEST SWAP3 SWAP2 POP POP JUMP JUMPDEST PUSH1 0x0 PUSH2 0x1061 DUP3 PUSH2 0xAAB JUMP JUMPDEST SWAP2 POP PUSH32 0xFFFFFFFFFFFFFFFFFFFFFFFFFFFFFFFFFFFFFFFFFFFFFFFFFFFFFFFFFFFFFFFF DUP3 SUB PUSH2 0x1093 JUMPI PUSH2 0x1092 PUSH2 0xFBF JUMP JUMPDEST JUMPDEST PUSH1 0x1 DUP3 ADD SWAP1 POP SWAP2 SWAP1 POP JUMP INVALID LOG2 PUSH5 0x6970667358 0x22 SLT KECCAK256 0xD4 0xEB DUP7 DUP11 DUP2 CALLDATALOAD 0x5F PUSH21 0x6287A1573628215D45F4E8F10D1734C34FE59CBA5D DUP6 PUSH24 0x7564736F6C63430008120033000000000000000000000000 "
				},
				"gasEstimates": {
					"creation": {
						"codeDepositCost": "861600",
						"executionCost": "infinite",
						"totalCost": "infinite"
					},
					"external": {
						"auctionEnd()": "infinite",
						"beneficiary()": "2578",
						"bid(bytes32)": "71299",
						"biddingEnd()": "2429",
						"bids(address,uint256)": "infinite",
						"ended()": "2494",
						"highestBid()": "2539",
						"highestBidder()": "2558",
						"reveal(uint256[],bool[],bytes32[])": "infinite",
						"revealEnd()": "2517",
						"withdraw()": "infinite"
					},
					"internal": {
						"placeBid(address,uint256)": "infinite"
					}
				},
				"methodIdentifiers": {
					"auctionEnd()": "2a24f46c",
					"beneficiary()": "38af3eed",
					"bid(bytes32)": "957bb1e0",
					"biddingEnd()": "423b217f",
					"bids(address,uint256)": "01495c1c",
					"ended()": "12fa6feb",
					"highestBid()": "d57bde79",
					"highestBidder()": "91f90157",
					"reveal(uint256[],bool[],bytes32[])": "900f080a",
					"revealEnd()": "a6e66477",
					"withdraw()": "3ccfd60b"
				}
			},
			"storageLayout": {
				"storage": [
					{
						"astId": 9,
						"contract": "contract-blindAuction.sol:BlindAuction",
						"label": "beneficiary",
						"offset": 0,
						"slot": "0",
						"type": "t_address_payable"
					},
					{
						"astId": 11,
						"contract": "contract-blindAuction.sol:BlindAuction",
						"label": "biddingEnd",
						"offset": 0,
						"slot": "1",
						"type": "t_uint256"
					},
					{
						"astId": 13,
						"contract": "contract-blindAuction.sol:BlindAuction",
						"label": "revealEnd",
						"offset": 0,
						"slot": "2",
						"type": "t_uint256"
					},
					{
						"astId": 15,
						"contract": "contract-blindAuction.sol:BlindAuction",
						"label": "ended",
						"offset": 0,
						"slot": "3",
						"type": "t_bool"
					},
					{
						"astId": 21,
						"contract": "contract-blindAuction.sol:BlindAuction",
						"label": "bids",
						"offset": 0,
						"slot": "4",
						"type": "t_mapping(t_address,t_array(t_struct(Bid)7_storage)dyn_storage)"
					},
					{
						"astId": 23,
						"contract": "contract-blindAuction.sol:BlindAuction",
						"label": "highestBidder",
						"offset": 0,
						"slot": "5",
						"type": "t_address"
					},
					{
						"astId": 25,
						"contract": "contract-blindAuction.sol:BlindAuction",
						"label": "highestBid",
						"offset": 0,
						"slot": "6",
						"type": "t_uint256"
					},
					{
						"astId": 29,
						"contract": "contract-blindAuction.sol:BlindAuction",
						"label": "pendingReturns",
						"offset": 0,
						"slot": "7",
						"type": "t_mapping(t_address,t_uint256)"
					}
				],
				"types": {
					"t_address": {
						"encoding": "inplace",
						"label": "address",
						"numberOfBytes": "20"
					},
					"t_address_payable": {
						"encoding": "inplace",
						"label": "address payable",
						"numberOfBytes": "20"
					},
					"t_array(t_struct(Bid)7_storage)dyn_storage": {
						"base": "t_struct(Bid)7_storage",
						"encoding": "dynamic_array",
						"label": "struct BlindAuction.Bid[]",
						"numberOfBytes": "32"
					},
					"t_bool": {
						"encoding": "inplace",
						"label": "bool",
						"numberOfBytes": "1"
					},
					"t_bytes32": {
						"encoding": "inplace",
						"label": "bytes32",
						"numberOfBytes": "32"
					},
					"t_mapping(t_address,t_array(t_struct(Bid)7_storage)dyn_storage)": {
						"encoding": "mapping",
						"key": "t_address",
						"label": "mapping(address => struct BlindAuction.Bid[])",
						"numberOfBytes": "32",
						"value": "t_array(t_struct(Bid)7_storage)dyn_storage"
					},
					"t_mapping(t_address,t_uint256)": {
						"encoding": "mapping",
						"key": "t_address",
						"label": "mapping(address => uint256)",
						"numberOfBytes": "32",
						"value": "t_uint256"
					},
					"t_struct(Bid)7_storage": {
						"encoding": "inplace",
						"label": "struct BlindAuction.Bid",
						"members": [
							{
								"astId": 3,
								"contract": "contract-blindAuction.sol:BlindAuction",
								"label": "blindedBid",
								"offset": 0,
								"slot": "0",
								"type": "t_bytes32"
							},
							{
								"astId": 6,
								"contract": "contract-blindAuction.sol:BlindAuction",
								"label": "deposit",
								"offset": 0,
								"slot": "1",
								"type": "t_uint256"
							}
						],
						"numberOfBytes": "64"
					},
					"t_uint256": {
						"encoding": "inplace",
						"label": "uint256",
						"numberOfBytes": "32"
					}
				}
			},
			"userdoc": {
				"errors": {
					"AuctionEndAlreadyCalled()": [
						{
							"notice": "The function auctionEnd has already been called."
						}
					],
					"TooEarly(uint256)": [
						{
							"notice": "The function has been called too early. Try again at `time`."
						}
					],
					"TooLate(uint256)": [
						{
							"notice": "The function has been called too late. It cannot be called after `time`."
						}
					]
				},
				"kind": "user",
				"methods": {
					"auctionEnd()": {
						"notice": "End the auction and send the highest bid to the beneficiary."
					},
					"bid(bytes32)": {
						"notice": "Place a blinded bid with `blindedBid` = keccak256(abi.encodePacked(value, fake, secret)). The sent ether is only refunded if the bid is correctly revealed in the revealing phase. The bid is valid if the ether sent together with the bid is at least \"value\" and \"fake\" is not true. Setting \"fake\" to true and sending not the exact amount are ways to hide the real bid but still make the required deposit. The same address can place multiple bids."
					},
					"reveal(uint256[],bool[],bytes32[])": {
						"notice": "Reveal your blinded bids. You will get a refund for all correctly blinded invalid bids and for all bids except for the totally highest."
					},
					"withdraw()": {
						"notice": "reveal()在公示阶段退还锁定的报价，withdraw()也是退还锁定的报价，这2个函数有什么区别？"
					}
				},
				"version": 1
			}
		}
	}
}