{
	"contract-createdSalted.sol": {
		"C": {
			"abi": [
				{
					"anonymous": false,
					"inputs": [
						{
							"indexed": false,
							"internalType": "address",
							"name": "",
							"type": "address"
						}
					],
					"name": "printAddress",
					"type": "event"
				},
				{
					"inputs": [
						{
							"internalType": "bytes32",
							"name": "salt",
							"type": "bytes32"
						},
						{
							"internalType": "uint256",
							"name": "arg",
							"type": "uint256"
						}
					],
					"name": "createDSalted",
					"outputs": [],
					"stateMutability": "nonpayable",
					"type": "function"
				},
				{
					"inputs": [
						{
							"internalType": "uint256",
							"name": "arg",
							"type": "uint256"
						}
					],
					"name": "getBytes",
					"outputs": [
						{
							"internalType": "bytes32",
							"name": "",
							"type": "bytes32"
						}
					],
					"stateMutability": "pure",
					"type": "function"
				}
			],
			"devdoc": {
				"kind": "dev",
				"methods": {},
				"version": 1
			},
			"evm": {
				"assembly": "    /* \"contract-createdSalted.sol\":150:1539  contract C {... */\n  mstore(0x40, 0x80)\n  callvalue\n  dup1\n  iszero\n  tag_1\n  jumpi\n  0x00\n  dup1\n  revert\ntag_1:\n  pop\n  dataSize(sub_0)\n  dup1\n  dataOffset(sub_0)\n  0x00\n  codecopy\n  0x00\n  return\nstop\n\nsub_0: assembly {\n        /* \"contract-createdSalted.sol\":150:1539  contract C {... */\n      mstore(0x40, 0x80)\n      callvalue\n      dup1\n      iszero\n      tag_1\n      jumpi\n      0x00\n      dup1\n      revert\n    tag_1:\n      pop\n      jumpi(tag_2, lt(calldatasize, 0x04))\n      shr(0xe0, calldataload(0x00))\n      dup1\n      0x0bd38f2f\n      eq\n      tag_3\n      jumpi\n      dup1\n      0x57bc2ef3\n      eq\n      tag_4\n      jumpi\n    tag_2:\n      0x00\n      dup1\n      revert\n        /* \"contract-createdSalted.sol\":809:1537  function createDSalted(bytes32 salt, uint arg) public {... */\n    tag_3:\n      tag_5\n      0x04\n      dup1\n      calldatasize\n      sub\n      dup2\n      add\n      swap1\n      tag_6\n      swap2\n      swap1\n      tag_7\n      jump\t// in\n    tag_6:\n      tag_8\n      jump\t// in\n    tag_5:\n      stop\n        /* \"contract-createdSalted.sol\":206:300  function getBytes(uint arg) public pure returns (bytes32) {... */\n    tag_4:\n      tag_9\n      0x04\n      dup1\n      calldatasize\n      sub\n      dup2\n      add\n      swap1\n      tag_10\n      swap2\n      swap1\n      tag_11\n      jump\t// in\n    tag_10:\n      tag_12\n      jump\t// in\n    tag_9:\n      mload(0x40)\n      tag_13\n      swap2\n      swap1\n      tag_14\n      jump\t// in\n    tag_13:\n      mload(0x40)\n      dup1\n      swap2\n      sub\n      swap1\n      return\n        /* \"contract-createdSalted.sol\":809:1537  function createDSalted(bytes32 salt, uint arg) public {... */\n    tag_8:\n        /* \"contract-createdSalted.sol\":1072:1096  address predictedAddress */\n      0x00\n        /* \"contract-createdSalted.sol\":1167:1171  0xff */\n      0xff\n        /* \"contract-createdSalted.sol\":1160:1172  bytes1(0xff) */\n      0xf8\n      shl\n        /* \"contract-createdSalted.sol\":1194:1198  this */\n      address\n        /* \"contract-createdSalted.sol\":1213:1217  salt */\n      dup5\n        /* \"contract-createdSalted.sol\":1275:1295  type(D).creationCode */\n      mload(0x40)\n      dup1\n      0x20\n      add\n      tag_16\n      swap1\n      tag_17\n      jump\t// in\n    tag_16:\n      0x20\n      dup3\n      add\n      dup2\n      sub\n      dup3\n      mstore\n      not(0x1f)\n      0x1f\n      dup3\n      add\n      and\n      0x40\n      mstore\n      pop\n        /* \"contract-createdSalted.sol\":1324:1327  arg */\n      dup6\n        /* \"contract-createdSalted.sol\":1313:1328  abi.encode(arg) */\n      add(0x20, mload(0x40))\n      tag_18\n      swap2\n      swap1\n      tag_19\n      jump\t// in\n    tag_18:\n      mload(0x40)\n      0x20\n      dup2\n      dup4\n      sub\n      sub\n      dup2\n      mstore\n      swap1\n      0x40\n      mstore\n        /* \"contract-createdSalted.sol\":1241:1342  abi.encodePacked(... */\n      add(0x20, mload(0x40))\n      tag_20\n      swap3\n      swap2\n      swap1\n      tag_21\n      jump\t// in\n    tag_20:\n      mload(0x40)\n      0x20\n      dup2\n      dup4\n      sub\n      sub\n      dup2\n      mstore\n      swap1\n      0x40\n      mstore\n        /* \"contract-createdSalted.sol\":1231:1343  keccak256(abi.encodePacked(... */\n      dup1\n      mload\n      swap1\n      0x20\n      add\n      keccak256\n        /* \"contract-createdSalted.sol\":1130:1353  abi.encodePacked(... */\n      add(0x20, mload(0x40))\n      tag_22\n      swap5\n      swap4\n      swap3\n      swap2\n      swap1\n      tag_23\n      jump\t// in\n    tag_22:\n      mload(0x40)\n      0x20\n      dup2\n      dup4\n      sub\n      sub\n      dup2\n      mstore\n      swap1\n      0x40\n      mstore\n        /* \"contract-createdSalted.sol\":1120:1354  keccak256(abi.encodePacked(... */\n      dup1\n      mload\n      swap1\n      0x20\n      add\n      keccak256\n        /* \"contract-createdSalted.sol\":1115:1355  uint(keccak256(abi.encodePacked(... */\n      0x00\n      shr\n        /* \"contract-createdSalted.sol\":1072:1357  address predictedAddress = address(uint160(uint(keccak256(abi.encodePacked(... */\n      swap1\n      pop\n        /* \"contract-createdSalted.sol\":1373:1403  printAddress(predictedAddress) */\n      0x5338b9f9c3981a82d4c74497705d8f8733ff2f73e2e326fcad33d0c7be305256\n        /* \"contract-createdSalted.sol\":1386:1402  predictedAddress */\n      dup2\n        /* \"contract-createdSalted.sol\":1373:1403  printAddress(predictedAddress) */\n      mload(0x40)\n      tag_24\n      swap2\n      swap1\n      tag_25\n      jump\t// in\n    tag_24:\n      mload(0x40)\n      dup1\n      swap2\n      sub\n      swap1\n      log1\n        /* \"contract-createdSalted.sol\":1414:1417  D d */\n      0x00\n        /* \"contract-createdSalted.sol\":1432:1436  salt */\n      dup4\n        /* \"contract-createdSalted.sol\":1438:1441  arg */\n      dup4\n        /* \"contract-createdSalted.sol\":1420:1442  new D{salt: salt}(arg) */\n      mload(0x40)\n      tag_26\n      swap1\n      tag_17\n      jump\t// in\n    tag_26:\n      tag_27\n      swap2\n      swap1\n      tag_19\n      jump\t// in\n    tag_27:\n      dup2\n      swap1\n      mload(0x40)\n      dup1\n      swap2\n      sub\n      swap1\n      0x00\n      create2\n      swap1\n      pop\n      dup1\n      iszero\n      dup1\n      iszero\n      tag_28\n      jumpi\n      returndatasize\n      0x00\n      dup1\n      returndatacopy\n      revert(0x00, returndatasize)\n    tag_28:\n      pop\n        /* \"contract-createdSalted.sol\":1414:1442  D d = new D{salt: salt}(arg) */\n      swap1\n      pop\n        /* \"contract-createdSalted.sol\":1474:1490  predictedAddress */\n      dup2\n        /* \"contract-createdSalted.sol\":1460:1490  address(d) == predictedAddress */\n      0xffffffffffffffffffffffffffffffffffffffff\n      and\n        /* \"contract-createdSalted.sol\":1468:1469  d */\n      dup2\n        /* \"contract-createdSalted.sol\":1460:1490  address(d) == predictedAddress */\n      0xffffffffffffffffffffffffffffffffffffffff\n      and\n      eq\n        /* \"contract-createdSalted.sol\":1452:1491  require(address(d) == predictedAddress) */\n      tag_29\n      jumpi\n      0x00\n      dup1\n      revert\n    tag_29:\n        /* \"contract-createdSalted.sol\":1506:1530  printAddress(address(d)) */\n      0x5338b9f9c3981a82d4c74497705d8f8733ff2f73e2e326fcad33d0c7be305256\n        /* \"contract-createdSalted.sol\":1527:1528  d */\n      dup2\n        /* \"contract-createdSalted.sol\":1506:1530  printAddress(address(d)) */\n      mload(0x40)\n      tag_30\n      swap2\n      swap1\n      tag_25\n      jump\t// in\n    tag_30:\n      mload(0x40)\n      dup1\n      swap2\n      sub\n      swap1\n      log1\n        /* \"contract-createdSalted.sol\":863:1537  {... */\n      pop\n      pop\n        /* \"contract-createdSalted.sol\":809:1537  function createDSalted(bytes32 salt, uint arg) public {... */\n      pop\n      pop\n      jump\t// out\n        /* \"contract-createdSalted.sol\":206:300  function getBytes(uint arg) public pure returns (bytes32) {... */\n    tag_12:\n        /* \"contract-createdSalted.sol\":255:262  bytes32 */\n      0x00\n        /* \"contract-createdSalted.sol\":289:292  arg */\n      dup2\n        /* \"contract-createdSalted.sol\":281:293  bytes32(arg) */\n      0x00\n      shl\n        /* \"contract-createdSalted.sol\":274:293  return bytes32(arg) */\n      swap1\n      pop\n        /* \"contract-createdSalted.sol\":206:300  function getBytes(uint arg) public pure returns (bytes32) {... */\n      swap2\n      swap1\n      pop\n      jump\t// out\n    tag_17:\n      dataSize(sub_0)\n      dup1\n      dataOffset(sub_0)\n      dup4\n      codecopy\n      add\n      swap1\n      jump\t// out\n        /* \"#utility.yul\":88:205   */\n    tag_33:\n        /* \"#utility.yul\":197:198   */\n      0x00\n        /* \"#utility.yul\":194:195   */\n      dup1\n        /* \"#utility.yul\":187:199   */\n      revert\n        /* \"#utility.yul\":334:411   */\n    tag_35:\n        /* \"#utility.yul\":371:378   */\n      0x00\n        /* \"#utility.yul\":400:405   */\n      dup2\n        /* \"#utility.yul\":389:405   */\n      swap1\n      pop\n        /* \"#utility.yul\":334:411   */\n      swap2\n      swap1\n      pop\n      jump\t// out\n        /* \"#utility.yul\":417:539   */\n    tag_36:\n        /* \"#utility.yul\":490:514   */\n      tag_65\n        /* \"#utility.yul\":508:513   */\n      dup2\n        /* \"#utility.yul\":490:514   */\n      tag_35\n      jump\t// in\n    tag_65:\n        /* \"#utility.yul\":483:488   */\n      dup2\n        /* \"#utility.yul\":480:515   */\n      eq\n        /* \"#utility.yul\":470:533   */\n      tag_66\n      jumpi\n        /* \"#utility.yul\":529:530   */\n      0x00\n        /* \"#utility.yul\":526:527   */\n      dup1\n        /* \"#utility.yul\":519:531   */\n      revert\n        /* \"#utility.yul\":470:533   */\n    tag_66:\n        /* \"#utility.yul\":417:539   */\n      pop\n      jump\t// out\n        /* \"#utility.yul\":545:684   */\n    tag_37:\n        /* \"#utility.yul\":591:596   */\n      0x00\n        /* \"#utility.yul\":629:635   */\n      dup2\n        /* \"#utility.yul\":616:636   */\n      calldataload\n        /* \"#utility.yul\":607:636   */\n      swap1\n      pop\n        /* \"#utility.yul\":645:678   */\n      tag_68\n        /* \"#utility.yul\":672:677   */\n      dup2\n        /* \"#utility.yul\":645:678   */\n      tag_36\n      jump\t// in\n    tag_68:\n        /* \"#utility.yul\":545:684   */\n      swap3\n      swap2\n      pop\n      pop\n      jump\t// out\n        /* \"#utility.yul\":690:767   */\n    tag_38:\n        /* \"#utility.yul\":727:734   */\n      0x00\n        /* \"#utility.yul\":756:761   */\n      dup2\n        /* \"#utility.yul\":745:761   */\n      swap1\n      pop\n        /* \"#utility.yul\":690:767   */\n      swap2\n      swap1\n      pop\n      jump\t// out\n        /* \"#utility.yul\":773:895   */\n    tag_39:\n        /* \"#utility.yul\":846:870   */\n      tag_71\n        /* \"#utility.yul\":864:869   */\n      dup2\n        /* \"#utility.yul\":846:870   */\n      tag_38\n      jump\t// in\n    tag_71:\n        /* \"#utility.yul\":839:844   */\n      dup2\n        /* \"#utility.yul\":836:871   */\n      eq\n        /* \"#utility.yul\":826:889   */\n      tag_72\n      jumpi\n        /* \"#utility.yul\":885:886   */\n      0x00\n        /* \"#utility.yul\":882:883   */\n      dup1\n        /* \"#utility.yul\":875:887   */\n      revert\n        /* \"#utility.yul\":826:889   */\n    tag_72:\n        /* \"#utility.yul\":773:895   */\n      pop\n      jump\t// out\n        /* \"#utility.yul\":901:1040   */\n    tag_40:\n        /* \"#utility.yul\":947:952   */\n      0x00\n        /* \"#utility.yul\":985:991   */\n      dup2\n        /* \"#utility.yul\":972:992   */\n      calldataload\n        /* \"#utility.yul\":963:992   */\n      swap1\n      pop\n        /* \"#utility.yul\":1001:1034   */\n      tag_74\n        /* \"#utility.yul\":1028:1033   */\n      dup2\n        /* \"#utility.yul\":1001:1034   */\n      tag_39\n      jump\t// in\n    tag_74:\n        /* \"#utility.yul\":901:1040   */\n      swap3\n      swap2\n      pop\n      pop\n      jump\t// out\n        /* \"#utility.yul\":1046:1520   */\n    tag_7:\n        /* \"#utility.yul\":1114:1120   */\n      0x00\n        /* \"#utility.yul\":1122:1128   */\n      dup1\n        /* \"#utility.yul\":1171:1173   */\n      0x40\n        /* \"#utility.yul\":1159:1168   */\n      dup4\n        /* \"#utility.yul\":1150:1157   */\n      dup6\n        /* \"#utility.yul\":1146:1169   */\n      sub\n        /* \"#utility.yul\":1142:1174   */\n      slt\n        /* \"#utility.yul\":1139:1258   */\n      iszero\n      tag_76\n      jumpi\n        /* \"#utility.yul\":1177:1256   */\n      tag_77\n      tag_33\n      jump\t// in\n    tag_77:\n        /* \"#utility.yul\":1139:1258   */\n    tag_76:\n        /* \"#utility.yul\":1297:1298   */\n      0x00\n        /* \"#utility.yul\":1322:1375   */\n      tag_78\n        /* \"#utility.yul\":1367:1374   */\n      dup6\n        /* \"#utility.yul\":1358:1364   */\n      dup3\n        /* \"#utility.yul\":1347:1356   */\n      dup7\n        /* \"#utility.yul\":1343:1365   */\n      add\n        /* \"#utility.yul\":1322:1375   */\n      tag_37\n      jump\t// in\n    tag_78:\n        /* \"#utility.yul\":1312:1375   */\n      swap3\n      pop\n        /* \"#utility.yul\":1268:1385   */\n      pop\n        /* \"#utility.yul\":1424:1426   */\n      0x20\n        /* \"#utility.yul\":1450:1503   */\n      tag_79\n        /* \"#utility.yul\":1495:1502   */\n      dup6\n        /* \"#utility.yul\":1486:1492   */\n      dup3\n        /* \"#utility.yul\":1475:1484   */\n      dup7\n        /* \"#utility.yul\":1471:1493   */\n      add\n        /* \"#utility.yul\":1450:1503   */\n      tag_40\n      jump\t// in\n    tag_79:\n        /* \"#utility.yul\":1440:1503   */\n      swap2\n      pop\n        /* \"#utility.yul\":1395:1513   */\n      pop\n        /* \"#utility.yul\":1046:1520   */\n      swap3\n      pop\n      swap3\n      swap1\n      pop\n      jump\t// out\n        /* \"#utility.yul\":1526:1855   */\n    tag_11:\n        /* \"#utility.yul\":1585:1591   */\n      0x00\n        /* \"#utility.yul\":1634:1636   */\n      0x20\n        /* \"#utility.yul\":1622:1631   */\n      dup3\n        /* \"#utility.yul\":1613:1620   */\n      dup5\n        /* \"#utility.yul\":1609:1632   */\n      sub\n        /* \"#utility.yul\":1605:1637   */\n      slt\n        /* \"#utility.yul\":1602:1721   */\n      iszero\n      tag_81\n      jumpi\n        /* \"#utility.yul\":1640:1719   */\n      tag_82\n      tag_33\n      jump\t// in\n    tag_82:\n        /* \"#utility.yul\":1602:1721   */\n    tag_81:\n        /* \"#utility.yul\":1760:1761   */\n      0x00\n        /* \"#utility.yul\":1785:1838   */\n      tag_83\n        /* \"#utility.yul\":1830:1837   */\n      dup5\n        /* \"#utility.yul\":1821:1827   */\n      dup3\n        /* \"#utility.yul\":1810:1819   */\n      dup6\n        /* \"#utility.yul\":1806:1828   */\n      add\n        /* \"#utility.yul\":1785:1838   */\n      tag_40\n      jump\t// in\n    tag_83:\n        /* \"#utility.yul\":1775:1838   */\n      swap2\n      pop\n        /* \"#utility.yul\":1731:1848   */\n      pop\n        /* \"#utility.yul\":1526:1855   */\n      swap3\n      swap2\n      pop\n      pop\n      jump\t// out\n        /* \"#utility.yul\":1861:1979   */\n    tag_41:\n        /* \"#utility.yul\":1948:1972   */\n      tag_85\n        /* \"#utility.yul\":1966:1971   */\n      dup2\n        /* \"#utility.yul\":1948:1972   */\n      tag_35\n      jump\t// in\n    tag_85:\n        /* \"#utility.yul\":1943:1946   */\n      dup3\n        /* \"#utility.yul\":1936:1973   */\n      mstore\n        /* \"#utility.yul\":1861:1979   */\n      pop\n      pop\n      jump\t// out\n        /* \"#utility.yul\":1985:2207   */\n    tag_14:\n        /* \"#utility.yul\":2078:2082   */\n      0x00\n        /* \"#utility.yul\":2116:2118   */\n      0x20\n        /* \"#utility.yul\":2105:2114   */\n      dup3\n        /* \"#utility.yul\":2101:2119   */\n      add\n        /* \"#utility.yul\":2093:2119   */\n      swap1\n      pop\n        /* \"#utility.yul\":2129:2200   */\n      tag_87\n        /* \"#utility.yul\":2197:2198   */\n      0x00\n        /* \"#utility.yul\":2186:2195   */\n      dup4\n        /* \"#utility.yul\":2182:2199   */\n      add\n        /* \"#utility.yul\":2173:2179   */\n      dup5\n        /* \"#utility.yul\":2129:2200   */\n      tag_41\n      jump\t// in\n    tag_87:\n        /* \"#utility.yul\":1985:2207   */\n      swap3\n      swap2\n      pop\n      pop\n      jump\t// out\n        /* \"#utility.yul\":2213:2331   */\n    tag_42:\n        /* \"#utility.yul\":2300:2324   */\n      tag_89\n        /* \"#utility.yul\":2318:2323   */\n      dup2\n        /* \"#utility.yul\":2300:2324   */\n      tag_38\n      jump\t// in\n    tag_89:\n        /* \"#utility.yul\":2295:2298   */\n      dup3\n        /* \"#utility.yul\":2288:2325   */\n      mstore\n        /* \"#utility.yul\":2213:2331   */\n      pop\n      pop\n      jump\t// out\n        /* \"#utility.yul\":2337:2559   */\n    tag_19:\n        /* \"#utility.yul\":2430:2434   */\n      0x00\n        /* \"#utility.yul\":2468:2470   */\n      0x20\n        /* \"#utility.yul\":2457:2466   */\n      dup3\n        /* \"#utility.yul\":2453:2471   */\n      add\n        /* \"#utility.yul\":2445:2471   */\n      swap1\n      pop\n        /* \"#utility.yul\":2481:2552   */\n      tag_91\n        /* \"#utility.yul\":2549:2550   */\n      0x00\n        /* \"#utility.yul\":2538:2547   */\n      dup4\n        /* \"#utility.yul\":2534:2551   */\n      add\n        /* \"#utility.yul\":2525:2531   */\n      dup5\n        /* \"#utility.yul\":2481:2552   */\n      tag_42\n      jump\t// in\n    tag_91:\n        /* \"#utility.yul\":2337:2559   */\n      swap3\n      swap2\n      pop\n      pop\n      jump\t// out\n        /* \"#utility.yul\":2565:2663   */\n    tag_43:\n        /* \"#utility.yul\":2616:2622   */\n      0x00\n        /* \"#utility.yul\":2650:2655   */\n      dup2\n        /* \"#utility.yul\":2644:2656   */\n      mload\n        /* \"#utility.yul\":2634:2656   */\n      swap1\n      pop\n        /* \"#utility.yul\":2565:2663   */\n      swap2\n      swap1\n      pop\n      jump\t// out\n        /* \"#utility.yul\":2669:2816   */\n    tag_44:\n        /* \"#utility.yul\":2770:2781   */\n      0x00\n        /* \"#utility.yul\":2807:2810   */\n      dup2\n        /* \"#utility.yul\":2792:2810   */\n      swap1\n      pop\n        /* \"#utility.yul\":2669:2816   */\n      swap3\n      swap2\n      pop\n      pop\n      jump\t// out\n        /* \"#utility.yul\":2822:3068   */\n    tag_45:\n        /* \"#utility.yul\":2903:2904   */\n      0x00\n        /* \"#utility.yul\":2913:3026   */\n    tag_95:\n        /* \"#utility.yul\":2927:2933   */\n      dup4\n        /* \"#utility.yul\":2924:2925   */\n      dup2\n        /* \"#utility.yul\":2921:2934   */\n      lt\n        /* \"#utility.yul\":2913:3026   */\n      iszero\n      tag_97\n      jumpi\n        /* \"#utility.yul\":3012:3013   */\n      dup1\n        /* \"#utility.yul\":3007:3010   */\n      dup3\n        /* \"#utility.yul\":3003:3014   */\n      add\n        /* \"#utility.yul\":2997:3015   */\n      mload\n        /* \"#utility.yul\":2993:2994   */\n      dup2\n        /* \"#utility.yul\":2988:2991   */\n      dup5\n        /* \"#utility.yul\":2984:2995   */\n      add\n        /* \"#utility.yul\":2977:3016   */\n      mstore\n        /* \"#utility.yul\":2949:2951   */\n      0x20\n        /* \"#utility.yul\":2946:2947   */\n      dup2\n        /* \"#utility.yul\":2942:2952   */\n      add\n        /* \"#utility.yul\":2937:2952   */\n      swap1\n      pop\n        /* \"#utility.yul\":2913:3026   */\n      jump(tag_95)\n    tag_97:\n        /* \"#utility.yul\":3060:3061   */\n      0x00\n        /* \"#utility.yul\":3051:3057   */\n      dup5\n        /* \"#utility.yul\":3046:3049   */\n      dup5\n        /* \"#utility.yul\":3042:3058   */\n      add\n        /* \"#utility.yul\":3035:3062   */\n      mstore\n        /* \"#utility.yul\":2884:3068   */\n      pop\n        /* \"#utility.yul\":2822:3068   */\n      pop\n      pop\n      pop\n      jump\t// out\n        /* \"#utility.yul\":3074:3460   */\n    tag_46:\n        /* \"#utility.yul\":3178:3181   */\n      0x00\n        /* \"#utility.yul\":3206:3244   */\n      tag_99\n        /* \"#utility.yul\":3238:3243   */\n      dup3\n        /* \"#utility.yul\":3206:3244   */\n      tag_43\n      jump\t// in\n    tag_99:\n        /* \"#utility.yul\":3260:3348   */\n      tag_100\n        /* \"#utility.yul\":3341:3347   */\n      dup2\n        /* \"#utility.yul\":3336:3339   */\n      dup6\n        /* \"#utility.yul\":3260:3348   */\n      tag_44\n      jump\t// in\n    tag_100:\n        /* \"#utility.yul\":3253:3348   */\n      swap4\n      pop\n        /* \"#utility.yul\":3357:3422   */\n      tag_101\n        /* \"#utility.yul\":3415:3421   */\n      dup2\n        /* \"#utility.yul\":3410:3413   */\n      dup6\n        /* \"#utility.yul\":3403:3407   */\n      0x20\n        /* \"#utility.yul\":3396:3401   */\n      dup7\n        /* \"#utility.yul\":3392:3408   */\n      add\n        /* \"#utility.yul\":3357:3422   */\n      tag_45\n      jump\t// in\n    tag_101:\n        /* \"#utility.yul\":3447:3453   */\n      dup1\n        /* \"#utility.yul\":3442:3445   */\n      dup5\n        /* \"#utility.yul\":3438:3454   */\n      add\n        /* \"#utility.yul\":3431:3454   */\n      swap2\n      pop\n        /* \"#utility.yul\":3182:3460   */\n      pop\n        /* \"#utility.yul\":3074:3460   */\n      swap3\n      swap2\n      pop\n      pop\n      jump\t// out\n        /* \"#utility.yul\":3466:3893   */\n    tag_21:\n        /* \"#utility.yul\":3642:3645   */\n      0x00\n        /* \"#utility.yul\":3664:3757   */\n      tag_103\n        /* \"#utility.yul\":3753:3756   */\n      dup3\n        /* \"#utility.yul\":3744:3750   */\n      dup6\n        /* \"#utility.yul\":3664:3757   */\n      tag_46\n      jump\t// in\n    tag_103:\n        /* \"#utility.yul\":3657:3757   */\n      swap2\n      pop\n        /* \"#utility.yul\":3774:3867   */\n      tag_104\n        /* \"#utility.yul\":3863:3866   */\n      dup3\n        /* \"#utility.yul\":3854:3860   */\n      dup5\n        /* \"#utility.yul\":3774:3867   */\n      tag_46\n      jump\t// in\n    tag_104:\n        /* \"#utility.yul\":3767:3867   */\n      swap2\n      pop\n        /* \"#utility.yul\":3884:3887   */\n      dup2\n        /* \"#utility.yul\":3877:3887   */\n      swap1\n      pop\n        /* \"#utility.yul\":3466:3893   */\n      swap4\n      swap3\n      pop\n      pop\n      pop\n      jump\t// out\n        /* \"#utility.yul\":3899:4048   */\n    tag_47:\n        /* \"#utility.yul\":3935:3942   */\n      0x00\n        /* \"#utility.yul\":3975:4041   */\n      0xff00000000000000000000000000000000000000000000000000000000000000\n        /* \"#utility.yul\":3968:3973   */\n      dup3\n        /* \"#utility.yul\":3964:4042   */\n      and\n        /* \"#utility.yul\":3953:4042   */\n      swap1\n      pop\n        /* \"#utility.yul\":3899:4048   */\n      swap2\n      swap1\n      pop\n      jump\t// out\n        /* \"#utility.yul\":4054:4132   */\n    tag_48:\n        /* \"#utility.yul\":4092:4099   */\n      0x00\n        /* \"#utility.yul\":4121:4126   */\n      dup2\n        /* \"#utility.yul\":4110:4126   */\n      swap1\n      pop\n        /* \"#utility.yul\":4054:4132   */\n      swap2\n      swap1\n      pop\n      jump\t// out\n        /* \"#utility.yul\":4138:4291   */\n    tag_49:\n        /* \"#utility.yul\":4241:4284   */\n      tag_108\n        /* \"#utility.yul\":4260:4283   */\n      tag_109\n        /* \"#utility.yul\":4277:4282   */\n      dup3\n        /* \"#utility.yul\":4260:4283   */\n      tag_47\n      jump\t// in\n    tag_109:\n        /* \"#utility.yul\":4241:4284   */\n      tag_48\n      jump\t// in\n    tag_108:\n        /* \"#utility.yul\":4236:4239   */\n      dup3\n        /* \"#utility.yul\":4229:4285   */\n      mstore\n        /* \"#utility.yul\":4138:4291   */\n      pop\n      pop\n      jump\t// out\n        /* \"#utility.yul\":4297:4423   */\n    tag_50:\n        /* \"#utility.yul\":4334:4341   */\n      0x00\n        /* \"#utility.yul\":4374:4416   */\n      0xffffffffffffffffffffffffffffffffffffffff\n        /* \"#utility.yul\":4367:4372   */\n      dup3\n        /* \"#utility.yul\":4363:4417   */\n      and\n        /* \"#utility.yul\":4352:4417   */\n      swap1\n      pop\n        /* \"#utility.yul\":4297:4423   */\n      swap2\n      swap1\n      pop\n      jump\t// out\n        /* \"#utility.yul\":4429:4525   */\n    tag_51:\n        /* \"#utility.yul\":4466:4473   */\n      0x00\n        /* \"#utility.yul\":4495:4519   */\n      tag_112\n        /* \"#utility.yul\":4513:4518   */\n      dup3\n        /* \"#utility.yul\":4495:4519   */\n      tag_50\n      jump\t// in\n    tag_112:\n        /* \"#utility.yul\":4484:4519   */\n      swap1\n      pop\n        /* \"#utility.yul\":4429:4525   */\n      swap2\n      swap1\n      pop\n      jump\t// out\n        /* \"#utility.yul\":4531:4625   */\n    tag_52:\n        /* \"#utility.yul\":4564:4572   */\n      0x00\n        /* \"#utility.yul\":4612:4617   */\n      dup2\n        /* \"#utility.yul\":4608:4610   */\n      0x60\n        /* \"#utility.yul\":4604:4618   */\n      shl\n        /* \"#utility.yul\":4583:4618   */\n      swap1\n      pop\n        /* \"#utility.yul\":4531:4625   */\n      swap2\n      swap1\n      pop\n      jump\t// out\n        /* \"#utility.yul\":4631:4725   */\n    tag_53:\n        /* \"#utility.yul\":4670:4677   */\n      0x00\n        /* \"#utility.yul\":4699:4719   */\n      tag_115\n        /* \"#utility.yul\":4713:4718   */\n      dup3\n        /* \"#utility.yul\":4699:4719   */\n      tag_52\n      jump\t// in\n    tag_115:\n        /* \"#utility.yul\":4688:4719   */\n      swap1\n      pop\n        /* \"#utility.yul\":4631:4725   */\n      swap2\n      swap1\n      pop\n      jump\t// out\n        /* \"#utility.yul\":4731:4831   */\n    tag_54:\n        /* \"#utility.yul\":4770:4777   */\n      0x00\n        /* \"#utility.yul\":4799:4825   */\n      tag_117\n        /* \"#utility.yul\":4819:4824   */\n      dup3\n        /* \"#utility.yul\":4799:4825   */\n      tag_53\n      jump\t// in\n    tag_117:\n        /* \"#utility.yul\":4788:4825   */\n      swap1\n      pop\n        /* \"#utility.yul\":4731:4831   */\n      swap2\n      swap1\n      pop\n      jump\t// out\n        /* \"#utility.yul\":4837:4994   */\n    tag_55:\n        /* \"#utility.yul\":4942:4987   */\n      tag_119\n        /* \"#utility.yul\":4962:4986   */\n      tag_120\n        /* \"#utility.yul\":4980:4985   */\n      dup3\n        /* \"#utility.yul\":4962:4986   */\n      tag_51\n      jump\t// in\n    tag_120:\n        /* \"#utility.yul\":4942:4987   */\n      tag_54\n      jump\t// in\n    tag_119:\n        /* \"#utility.yul\":4937:4940   */\n      dup3\n        /* \"#utility.yul\":4930:4988   */\n      mstore\n        /* \"#utility.yul\":4837:4994   */\n      pop\n      pop\n      jump\t// out\n        /* \"#utility.yul\":5000:5079   */\n    tag_56:\n        /* \"#utility.yul\":5039:5046   */\n      0x00\n        /* \"#utility.yul\":5068:5073   */\n      dup2\n        /* \"#utility.yul\":5057:5073   */\n      swap1\n      pop\n        /* \"#utility.yul\":5000:5079   */\n      swap2\n      swap1\n      pop\n      jump\t// out\n        /* \"#utility.yul\":5085:5242   */\n    tag_57:\n        /* \"#utility.yul\":5190:5235   */\n      tag_123\n        /* \"#utility.yul\":5210:5234   */\n      tag_124\n        /* \"#utility.yul\":5228:5233   */\n      dup3\n        /* \"#utility.yul\":5210:5234   */\n      tag_35\n      jump\t// in\n    tag_124:\n        /* \"#utility.yul\":5190:5235   */\n      tag_56\n      jump\t// in\n    tag_123:\n        /* \"#utility.yul\":5185:5188   */\n      dup3\n        /* \"#utility.yul\":5178:5236   */\n      mstore\n        /* \"#utility.yul\":5085:5242   */\n      pop\n      pop\n      jump\t// out\n        /* \"#utility.yul\":5248:5922   */\n    tag_23:\n        /* \"#utility.yul\":5442:5445   */\n      0x00\n        /* \"#utility.yul\":5457:5530   */\n      tag_126\n        /* \"#utility.yul\":5526:5529   */\n      dup3\n        /* \"#utility.yul\":5517:5523   */\n      dup8\n        /* \"#utility.yul\":5457:5530   */\n      tag_49\n      jump\t// in\n    tag_126:\n        /* \"#utility.yul\":5555:5556   */\n      0x01\n        /* \"#utility.yul\":5550:5553   */\n      dup3\n        /* \"#utility.yul\":5546:5557   */\n      add\n        /* \"#utility.yul\":5539:5557   */\n      swap2\n      pop\n        /* \"#utility.yul\":5567:5642   */\n      tag_127\n        /* \"#utility.yul\":5638:5641   */\n      dup3\n        /* \"#utility.yul\":5629:5635   */\n      dup7\n        /* \"#utility.yul\":5567:5642   */\n      tag_55\n      jump\t// in\n    tag_127:\n        /* \"#utility.yul\":5667:5669   */\n      0x14\n        /* \"#utility.yul\":5662:5665   */\n      dup3\n        /* \"#utility.yul\":5658:5670   */\n      add\n        /* \"#utility.yul\":5651:5670   */\n      swap2\n      pop\n        /* \"#utility.yul\":5680:5755   */\n      tag_128\n        /* \"#utility.yul\":5751:5754   */\n      dup3\n        /* \"#utility.yul\":5742:5748   */\n      dup6\n        /* \"#utility.yul\":5680:5755   */\n      tag_57\n      jump\t// in\n    tag_128:\n        /* \"#utility.yul\":5780:5782   */\n      0x20\n        /* \"#utility.yul\":5775:5778   */\n      dup3\n        /* \"#utility.yul\":5771:5783   */\n      add\n        /* \"#utility.yul\":5764:5783   */\n      swap2\n      pop\n        /* \"#utility.yul\":5793:5868   */\n      tag_129\n        /* \"#utility.yul\":5864:5867   */\n      dup3\n        /* \"#utility.yul\":5855:5861   */\n      dup5\n        /* \"#utility.yul\":5793:5868   */\n      tag_57\n      jump\t// in\n    tag_129:\n        /* \"#utility.yul\":5893:5895   */\n      0x20\n        /* \"#utility.yul\":5888:5891   */\n      dup3\n        /* \"#utility.yul\":5884:5896   */\n      add\n        /* \"#utility.yul\":5877:5896   */\n      swap2\n      pop\n        /* \"#utility.yul\":5913:5916   */\n      dup2\n        /* \"#utility.yul\":5906:5916   */\n      swap1\n      pop\n        /* \"#utility.yul\":5248:5922   */\n      swap6\n      swap5\n      pop\n      pop\n      pop\n      pop\n      pop\n      jump\t// out\n        /* \"#utility.yul\":5928:6046   */\n    tag_58:\n        /* \"#utility.yul\":6015:6039   */\n      tag_131\n        /* \"#utility.yul\":6033:6038   */\n      dup2\n        /* \"#utility.yul\":6015:6039   */\n      tag_51\n      jump\t// in\n    tag_131:\n        /* \"#utility.yul\":6010:6013   */\n      dup3\n        /* \"#utility.yul\":6003:6040   */\n      mstore\n        /* \"#utility.yul\":5928:6046   */\n      pop\n      pop\n      jump\t// out\n        /* \"#utility.yul\":6052:6274   */\n    tag_25:\n        /* \"#utility.yul\":6145:6149   */\n      0x00\n        /* \"#utility.yul\":6183:6185   */\n      0x20\n        /* \"#utility.yul\":6172:6181   */\n      dup3\n        /* \"#utility.yul\":6168:6186   */\n      add\n        /* \"#utility.yul\":6160:6186   */\n      swap1\n      pop\n        /* \"#utility.yul\":6196:6267   */\n      tag_133\n        /* \"#utility.yul\":6264:6265   */\n      0x00\n        /* \"#utility.yul\":6253:6262   */\n      dup4\n        /* \"#utility.yul\":6249:6266   */\n      add\n        /* \"#utility.yul\":6240:6246   */\n      dup5\n        /* \"#utility.yul\":6196:6267   */\n      tag_58\n      jump\t// in\n    tag_133:\n        /* \"#utility.yul\":6052:6274   */\n      swap3\n      swap2\n      pop\n      pop\n      jump\t// out\n    stop\n\n    sub_0: assembly {\n            /* \"contract-createdSalted.sol\":68:148  contract D {... */\n          mstore(0x40, 0x80)\n            /* \"contract-createdSalted.sol\":104:146  constructor(uint a) {... */\n          callvalue\n          dup1\n          iszero\n          tag_1\n          jumpi\n          0x00\n          dup1\n          revert\n        tag_1:\n          pop\n          mload(0x40)\n          sub(codesize, bytecodeSize)\n          dup1\n          bytecodeSize\n          dup4\n          codecopy\n          dup2\n          dup2\n          add\n          0x40\n          mstore\n          dup2\n          add\n          swap1\n          tag_2\n          swap2\n          swap1\n          tag_3\n          jump\t// in\n        tag_2:\n            /* \"contract-createdSalted.sol\":138:139  a */\n          dup1\n            /* \"contract-createdSalted.sol\":134:135  x */\n          0x00\n            /* \"contract-createdSalted.sol\":134:139  x = a */\n          dup2\n          swap1\n          sstore\n          pop\n            /* \"contract-createdSalted.sol\":104:146  constructor(uint a) {... */\n          pop\n            /* \"contract-createdSalted.sol\":68:148  contract D {... */\n          jump(tag_6)\n            /* \"#utility.yul\":88:205   */\n        tag_8:\n            /* \"#utility.yul\":197:198   */\n          0x00\n            /* \"#utility.yul\":194:195   */\n          dup1\n            /* \"#utility.yul\":187:199   */\n          revert\n            /* \"#utility.yul\":334:411   */\n        tag_10:\n            /* \"#utility.yul\":371:378   */\n          0x00\n            /* \"#utility.yul\":400:405   */\n          dup2\n            /* \"#utility.yul\":389:405   */\n          swap1\n          pop\n            /* \"#utility.yul\":334:411   */\n          swap2\n          swap1\n          pop\n          jump\t// out\n            /* \"#utility.yul\":417:539   */\n        tag_11:\n            /* \"#utility.yul\":490:514   */\n          tag_19\n            /* \"#utility.yul\":508:513   */\n          dup2\n            /* \"#utility.yul\":490:514   */\n          tag_10\n          jump\t// in\n        tag_19:\n            /* \"#utility.yul\":483:488   */\n          dup2\n            /* \"#utility.yul\":480:515   */\n          eq\n            /* \"#utility.yul\":470:533   */\n          tag_20\n          jumpi\n            /* \"#utility.yul\":529:530   */\n          0x00\n            /* \"#utility.yul\":526:527   */\n          dup1\n            /* \"#utility.yul\":519:531   */\n          revert\n            /* \"#utility.yul\":470:533   */\n        tag_20:\n            /* \"#utility.yul\":417:539   */\n          pop\n          jump\t// out\n            /* \"#utility.yul\":545:688   */\n        tag_12:\n            /* \"#utility.yul\":602:607   */\n          0x00\n            /* \"#utility.yul\":633:639   */\n          dup2\n            /* \"#utility.yul\":627:640   */\n          mload\n            /* \"#utility.yul\":618:640   */\n          swap1\n          pop\n            /* \"#utility.yul\":649:682   */\n          tag_22\n            /* \"#utility.yul\":676:681   */\n          dup2\n            /* \"#utility.yul\":649:682   */\n          tag_11\n          jump\t// in\n        tag_22:\n            /* \"#utility.yul\":545:688   */\n          swap3\n          swap2\n          pop\n          pop\n          jump\t// out\n            /* \"#utility.yul\":694:1045   */\n        tag_3:\n            /* \"#utility.yul\":764:770   */\n          0x00\n            /* \"#utility.yul\":813:815   */\n          0x20\n            /* \"#utility.yul\":801:810   */\n          dup3\n            /* \"#utility.yul\":792:799   */\n          dup5\n            /* \"#utility.yul\":788:811   */\n          sub\n            /* \"#utility.yul\":784:816   */\n          slt\n            /* \"#utility.yul\":781:900   */\n          iszero\n          tag_24\n          jumpi\n            /* \"#utility.yul\":819:898   */\n          tag_25\n          tag_8\n          jump\t// in\n        tag_25:\n            /* \"#utility.yul\":781:900   */\n        tag_24:\n            /* \"#utility.yul\":939:940   */\n          0x00\n            /* \"#utility.yul\":964:1028   */\n          tag_26\n            /* \"#utility.yul\":1020:1027   */\n          dup5\n            /* \"#utility.yul\":1011:1017   */\n          dup3\n            /* \"#utility.yul\":1000:1009   */\n          dup6\n            /* \"#utility.yul\":996:1018   */\n          add\n            /* \"#utility.yul\":964:1028   */\n          tag_12\n          jump\t// in\n        tag_26:\n            /* \"#utility.yul\":954:1028   */\n          swap2\n          pop\n            /* \"#utility.yul\":910:1038   */\n          pop\n            /* \"#utility.yul\":694:1045   */\n          swap3\n          swap2\n          pop\n          pop\n          jump\t// out\n            /* \"contract-createdSalted.sol\":68:148  contract D {... */\n        tag_6:\n          dataSize(sub_0)\n          dup1\n          dataOffset(sub_0)\n          0x00\n          codecopy\n          0x00\n          return\n        stop\n\n        sub_0: assembly {\n                /* \"contract-createdSalted.sol\":68:148  contract D {... */\n              mstore(0x40, 0x80)\n              callvalue\n              dup1\n              iszero\n              tag_1\n              jumpi\n              0x00\n              dup1\n              revert\n            tag_1:\n              pop\n              jumpi(tag_2, lt(calldatasize, 0x04))\n              shr(0xe0, calldataload(0x00))\n              dup1\n              0x0c55699c\n              eq\n              tag_3\n              jumpi\n            tag_2:\n              0x00\n              dup1\n              revert\n                /* \"contract-createdSalted.sol\":85:98  uint public x */\n            tag_3:\n              tag_4\n              tag_5\n              jump\t// in\n            tag_4:\n              mload(0x40)\n              tag_6\n              swap2\n              swap1\n              tag_7\n              jump\t// in\n            tag_6:\n              mload(0x40)\n              dup1\n              swap2\n              sub\n              swap1\n              return\n            tag_5:\n              sload(0x00)\n              dup2\n              jump\t// out\n                /* \"#utility.yul\":7:84   */\n            tag_8:\n                /* \"#utility.yul\":44:51   */\n              0x00\n                /* \"#utility.yul\":73:78   */\n              dup2\n                /* \"#utility.yul\":62:78   */\n              swap1\n              pop\n                /* \"#utility.yul\":7:84   */\n              swap2\n              swap1\n              pop\n              jump\t// out\n                /* \"#utility.yul\":90:208   */\n            tag_9:\n                /* \"#utility.yul\":177:201   */\n              tag_13\n                /* \"#utility.yul\":195:200   */\n              dup2\n                /* \"#utility.yul\":177:201   */\n              tag_8\n              jump\t// in\n            tag_13:\n                /* \"#utility.yul\":172:175   */\n              dup3\n                /* \"#utility.yul\":165:202   */\n              mstore\n                /* \"#utility.yul\":90:208   */\n              pop\n              pop\n              jump\t// out\n                /* \"#utility.yul\":214:436   */\n            tag_7:\n                /* \"#utility.yul\":307:311   */\n              0x00\n                /* \"#utility.yul\":345:347   */\n              0x20\n                /* \"#utility.yul\":334:343   */\n              dup3\n                /* \"#utility.yul\":330:348   */\n              add\n                /* \"#utility.yul\":322:348   */\n              swap1\n              pop\n                /* \"#utility.yul\":358:429   */\n              tag_15\n                /* \"#utility.yul\":426:427   */\n              0x00\n                /* \"#utility.yul\":415:424   */\n              dup4\n                /* \"#utility.yul\":411:428   */\n              add\n                /* \"#utility.yul\":402:408   */\n              dup5\n                /* \"#utility.yul\":358:429   */\n              tag_9\n              jump\t// in\n            tag_15:\n                /* \"#utility.yul\":214:436   */\n              swap3\n              swap2\n              pop\n              pop\n              jump\t// out\n\n            auxdata: 0xa2646970667358221220322bd93353f533f8c2e67112264bc18486e082c6f97ae1efb643cfcde038463064736f6c63430008120033\n        }\n    }\n\n    auxdata: 0xa2646970667358221220f0d7c6ccc2a06ee5c7292cfbc62e8ab0a3c2d430e2f69afd132f8bb2d8db287464736f6c63430008120033\n}\n",
				"bytecode": {
					"linkReferences": {},
					"object": "608060405234801561001057600080fd5b506106f1806100206000396000f3fe608060405234801561001057600080fd5b50600436106100365760003560e01c80630bd38f2f1461003b57806357bc2ef314610057575b600080fd5b6100556004803603810190610050919061029d565b610087565b005b610071600480360381019061006c91906102dd565b610212565b60405161007e9190610319565b60405180910390f35b600060ff60f81b3084604051806020016100a09061021f565b6020820181038252601f19601f82011660405250856040516020016100c59190610343565b6040516020818303038152906040526040516020016100e59291906103cf565b6040516020818303038152906040528051906020012060405160200161010e94939291906104db565b6040516020818303038152906040528051906020012060001c90507f5338b9f9c3981a82d4c74497705d8f8733ff2f73e2e326fcad33d0c7be305256816040516101589190610538565b60405180910390a1600083836040516101709061021f565b61017a9190610343565b8190604051809103906000f590508015801561019a573d6000803e3d6000fd5b5090508173ffffffffffffffffffffffffffffffffffffffff168173ffffffffffffffffffffffffffffffffffffffff16146101d557600080fd5b7f5338b9f9c3981a82d4c74497705d8f8733ff2f73e2e326fcad33d0c7be305256816040516102049190610538565b60405180910390a150505050565b60008160001b9050919050565b6101688061055483390190565b600080fd5b6000819050919050565b61024481610231565b811461024f57600080fd5b50565b6000813590506102618161023b565b92915050565b6000819050919050565b61027a81610267565b811461028557600080fd5b50565b60008135905061029781610271565b92915050565b600080604083850312156102b4576102b361022c565b5b60006102c285828601610252565b92505060206102d385828601610288565b9150509250929050565b6000602082840312156102f3576102f261022c565b5b600061030184828501610288565b91505092915050565b61031381610231565b82525050565b600060208201905061032e600083018461030a565b92915050565b61033d81610267565b82525050565b60006020820190506103586000830184610334565b92915050565b600081519050919050565b600081905092915050565b60005b83811015610392578082015181840152602081019050610377565b60008484015250505050565b60006103a98261035e565b6103b38185610369565b93506103c3818560208601610374565b80840191505092915050565b60006103db828561039e565b91506103e7828461039e565b91508190509392505050565b60007fff0000000000000000000000000000000000000000000000000000000000000082169050919050565b6000819050919050565b61043a610435826103f3565b61041f565b82525050565b600073ffffffffffffffffffffffffffffffffffffffff82169050919050565b600061046b82610440565b9050919050565b60008160601b9050919050565b600061048a82610472565b9050919050565b600061049c8261047f565b9050919050565b6104b46104af82610460565b610491565b82525050565b6000819050919050565b6104d56104d082610231565b6104ba565b82525050565b60006104e78287610429565b6001820191506104f782866104a3565b60148201915061050782856104c4565b60208201915061051782846104c4565b60208201915081905095945050505050565b61053281610460565b82525050565b600060208201905061054d6000830184610529565b9291505056fe608060405234801561001057600080fd5b506040516101683803806101688339818101604052810190610032919061007a565b80600081905550506100a7565b600080fd5b6000819050919050565b61005781610044565b811461006257600080fd5b50565b6000815190506100748161004e565b92915050565b6000602082840312156100905761008f61003f565b5b600061009e84828501610065565b91505092915050565b60b3806100b56000396000f3fe6080604052348015600f57600080fd5b506004361060285760003560e01c80630c55699c14602d575b600080fd5b60336047565b604051603e91906064565b60405180910390f35b60005481565b6000819050919050565b605e81604d565b82525050565b6000602082019050607760008301846057565b9291505056fea2646970667358221220322bd93353f533f8c2e67112264bc18486e082c6f97ae1efb643cfcde038463064736f6c63430008120033a2646970667358221220f0d7c6ccc2a06ee5c7292cfbc62e8ab0a3c2d430e2f69afd132f8bb2d8db287464736f6c63430008120033",
					"opcodes": "PUSH1 0x80 PUSH1 0x40 MSTORE CALLVALUE DUP1 ISZERO PUSH2 0x10 JUMPI PUSH1 0x0 DUP1 REVERT JUMPDEST POP PUSH2 0x6F1 DUP1 PUSH2 0x20 PUSH1 0x0 CODECOPY PUSH1 0x0 RETURN INVALID PUSH1 0x80 PUSH1 0x40 MSTORE CALLVALUE DUP1 ISZERO PUSH2 0x10 JUMPI PUSH1 0x0 DUP1 REVERT JUMPDEST POP PUSH1 0x4 CALLDATASIZE LT PUSH2 0x36 JUMPI PUSH1 0x0 CALLDATALOAD PUSH1 0xE0 SHR DUP1 PUSH4 0xBD38F2F EQ PUSH2 0x3B JUMPI DUP1 PUSH4 0x57BC2EF3 EQ PUSH2 0x57 JUMPI JUMPDEST PUSH1 0x0 DUP1 REVERT JUMPDEST PUSH2 0x55 PUSH1 0x4 DUP1 CALLDATASIZE SUB DUP2 ADD SWAP1 PUSH2 0x50 SWAP2 SWAP1 PUSH2 0x29D JUMP JUMPDEST PUSH2 0x87 JUMP JUMPDEST STOP JUMPDEST PUSH2 0x71 PUSH1 0x4 DUP1 CALLDATASIZE SUB DUP2 ADD SWAP1 PUSH2 0x6C SWAP2 SWAP1 PUSH2 0x2DD JUMP JUMPDEST PUSH2 0x212 JUMP JUMPDEST PUSH1 0x40 MLOAD PUSH2 0x7E SWAP2 SWAP1 PUSH2 0x319 JUMP JUMPDEST PUSH1 0x40 MLOAD DUP1 SWAP2 SUB SWAP1 RETURN JUMPDEST PUSH1 0x0 PUSH1 0xFF PUSH1 0xF8 SHL ADDRESS DUP5 PUSH1 0x40 MLOAD DUP1 PUSH1 0x20 ADD PUSH2 0xA0 SWAP1 PUSH2 0x21F JUMP JUMPDEST PUSH1 0x20 DUP3 ADD DUP2 SUB DUP3 MSTORE PUSH1 0x1F NOT PUSH1 0x1F DUP3 ADD AND PUSH1 0x40 MSTORE POP DUP6 PUSH1 0x40 MLOAD PUSH1 0x20 ADD PUSH2 0xC5 SWAP2 SWAP1 PUSH2 0x343 JUMP JUMPDEST PUSH1 0x40 MLOAD PUSH1 0x20 DUP2 DUP4 SUB SUB DUP2 MSTORE SWAP1 PUSH1 0x40 MSTORE PUSH1 0x40 MLOAD PUSH1 0x20 ADD PUSH2 0xE5 SWAP3 SWAP2 SWAP1 PUSH2 0x3CF JUMP JUMPDEST PUSH1 0x40 MLOAD PUSH1 0x20 DUP2 DUP4 SUB SUB DUP2 MSTORE SWAP1 PUSH1 0x40 MSTORE DUP1 MLOAD SWAP1 PUSH1 0x20 ADD KECCAK256 PUSH1 0x40 MLOAD PUSH1 0x20 ADD PUSH2 0x10E SWAP5 SWAP4 SWAP3 SWAP2 SWAP1 PUSH2 0x4DB JUMP JUMPDEST PUSH1 0x40 MLOAD PUSH1 0x20 DUP2 DUP4 SUB SUB DUP2 MSTORE SWAP1 PUSH1 0x40 MSTORE DUP1 MLOAD SWAP1 PUSH1 0x20 ADD KECCAK256 PUSH1 0x0 SHR SWAP1 POP PUSH32 0x5338B9F9C3981A82D4C74497705D8F8733FF2F73E2E326FCAD33D0C7BE305256 DUP2 PUSH1 0x40 MLOAD PUSH2 0x158 SWAP2 SWAP1 PUSH2 0x538 JUMP JUMPDEST PUSH1 0x40 MLOAD DUP1 SWAP2 SUB SWAP1 LOG1 PUSH1 0x0 DUP4 DUP4 PUSH1 0x40 MLOAD PUSH2 0x170 SWAP1 PUSH2 0x21F JUMP JUMPDEST PUSH2 0x17A SWAP2 SWAP1 PUSH2 0x343 JUMP JUMPDEST DUP2 SWAP1 PUSH1 0x40 MLOAD DUP1 SWAP2 SUB SWAP1 PUSH1 0x0 CREATE2 SWAP1 POP DUP1 ISZERO DUP1 ISZERO PUSH2 0x19A JUMPI RETURNDATASIZE PUSH1 0x0 DUP1 RETURNDATACOPY RETURNDATASIZE PUSH1 0x0 REVERT JUMPDEST POP SWAP1 POP DUP2 PUSH20 0xFFFFFFFFFFFFFFFFFFFFFFFFFFFFFFFFFFFFFFFF AND DUP2 PUSH20 0xFFFFFFFFFFFFFFFFFFFFFFFFFFFFFFFFFFFFFFFF AND EQ PUSH2 0x1D5 JUMPI PUSH1 0x0 DUP1 REVERT JUMPDEST PUSH32 0x5338B9F9C3981A82D4C74497705D8F8733FF2F73E2E326FCAD33D0C7BE305256 DUP2 PUSH1 0x40 MLOAD PUSH2 0x204 SWAP2 SWAP1 PUSH2 0x538 JUMP JUMPDEST PUSH1 0x40 MLOAD DUP1 SWAP2 SUB SWAP1 LOG1 POP POP POP POP JUMP JUMPDEST PUSH1 0x0 DUP2 PUSH1 0x0 SHL SWAP1 POP SWAP2 SWAP1 POP JUMP JUMPDEST PUSH2 0x168 DUP1 PUSH2 0x554 DUP4 CODECOPY ADD SWAP1 JUMP JUMPDEST PUSH1 0x0 DUP1 REVERT JUMPDEST PUSH1 0x0 DUP2 SWAP1 POP SWAP2 SWAP1 POP JUMP JUMPDEST PUSH2 0x244 DUP2 PUSH2 0x231 JUMP JUMPDEST DUP2 EQ PUSH2 0x24F JUMPI PUSH1 0x0 DUP1 REVERT JUMPDEST POP JUMP JUMPDEST PUSH1 0x0 DUP2 CALLDATALOAD SWAP1 POP PUSH2 0x261 DUP2 PUSH2 0x23B JUMP JUMPDEST SWAP3 SWAP2 POP POP JUMP JUMPDEST PUSH1 0x0 DUP2 SWAP1 POP SWAP2 SWAP1 POP JUMP JUMPDEST PUSH2 0x27A DUP2 PUSH2 0x267 JUMP JUMPDEST DUP2 EQ PUSH2 0x285 JUMPI PUSH1 0x0 DUP1 REVERT JUMPDEST POP JUMP JUMPDEST PUSH1 0x0 DUP2 CALLDATALOAD SWAP1 POP PUSH2 0x297 DUP2 PUSH2 0x271 JUMP JUMPDEST SWAP3 SWAP2 POP POP JUMP JUMPDEST PUSH1 0x0 DUP1 PUSH1 0x40 DUP4 DUP6 SUB SLT ISZERO PUSH2 0x2B4 JUMPI PUSH2 0x2B3 PUSH2 0x22C JUMP JUMPDEST JUMPDEST PUSH1 0x0 PUSH2 0x2C2 DUP6 DUP3 DUP7 ADD PUSH2 0x252 JUMP JUMPDEST SWAP3 POP POP PUSH1 0x20 PUSH2 0x2D3 DUP6 DUP3 DUP7 ADD PUSH2 0x288 JUMP JUMPDEST SWAP2 POP POP SWAP3 POP SWAP3 SWAP1 POP JUMP JUMPDEST PUSH1 0x0 PUSH1 0x20 DUP3 DUP5 SUB SLT ISZERO PUSH2 0x2F3 JUMPI PUSH2 0x2F2 PUSH2 0x22C JUMP JUMPDEST JUMPDEST PUSH1 0x0 PUSH2 0x301 DUP5 DUP3 DUP6 ADD PUSH2 0x288 JUMP JUMPDEST SWAP2 POP POP SWAP3 SWAP2 POP POP JUMP JUMPDEST PUSH2 0x313 DUP2 PUSH2 0x231 JUMP JUMPDEST DUP3 MSTORE POP POP JUMP JUMPDEST PUSH1 0x0 PUSH1 0x20 DUP3 ADD SWAP1 POP PUSH2 0x32E PUSH1 0x0 DUP4 ADD DUP5 PUSH2 0x30A JUMP JUMPDEST SWAP3 SWAP2 POP POP JUMP JUMPDEST PUSH2 0x33D DUP2 PUSH2 0x267 JUMP JUMPDEST DUP3 MSTORE POP POP JUMP JUMPDEST PUSH1 0x0 PUSH1 0x20 DUP3 ADD SWAP1 POP PUSH2 0x358 PUSH1 0x0 DUP4 ADD DUP5 PUSH2 0x334 JUMP JUMPDEST SWAP3 SWAP2 POP POP JUMP JUMPDEST PUSH1 0x0 DUP2 MLOAD SWAP1 POP SWAP2 SWAP1 POP JUMP JUMPDEST PUSH1 0x0 DUP2 SWAP1 POP SWAP3 SWAP2 POP POP JUMP JUMPDEST PUSH1 0x0 JUMPDEST DUP4 DUP2 LT ISZERO PUSH2 0x392 JUMPI DUP1 DUP3 ADD MLOAD DUP2 DUP5 ADD MSTORE PUSH1 0x20 DUP2 ADD SWAP1 POP PUSH2 0x377 JUMP JUMPDEST PUSH1 0x0 DUP5 DUP5 ADD MSTORE POP POP POP POP JUMP JUMPDEST PUSH1 0x0 PUSH2 0x3A9 DUP3 PUSH2 0x35E JUMP JUMPDEST PUSH2 0x3B3 DUP2 DUP6 PUSH2 0x369 JUMP JUMPDEST SWAP4 POP PUSH2 0x3C3 DUP2 DUP6 PUSH1 0x20 DUP7 ADD PUSH2 0x374 JUMP JUMPDEST DUP1 DUP5 ADD SWAP2 POP POP SWAP3 SWAP2 POP POP JUMP JUMPDEST PUSH1 0x0 PUSH2 0x3DB DUP3 DUP6 PUSH2 0x39E JUMP JUMPDEST SWAP2 POP PUSH2 0x3E7 DUP3 DUP5 PUSH2 0x39E JUMP JUMPDEST SWAP2 POP DUP2 SWAP1 POP SWAP4 SWAP3 POP POP POP JUMP JUMPDEST PUSH1 0x0 PUSH32 0xFF00000000000000000000000000000000000000000000000000000000000000 DUP3 AND SWAP1 POP SWAP2 SWAP1 POP JUMP JUMPDEST PUSH1 0x0 DUP2 SWAP1 POP SWAP2 SWAP1 POP JUMP JUMPDEST PUSH2 0x43A PUSH2 0x435 DUP3 PUSH2 0x3F3 JUMP JUMPDEST PUSH2 0x41F JUMP JUMPDEST DUP3 MSTORE POP POP JUMP JUMPDEST PUSH1 0x0 PUSH20 0xFFFFFFFFFFFFFFFFFFFFFFFFFFFFFFFFFFFFFFFF DUP3 AND SWAP1 POP SWAP2 SWAP1 POP JUMP JUMPDEST PUSH1 0x0 PUSH2 0x46B DUP3 PUSH2 0x440 JUMP JUMPDEST SWAP1 POP SWAP2 SWAP1 POP JUMP JUMPDEST PUSH1 0x0 DUP2 PUSH1 0x60 SHL SWAP1 POP SWAP2 SWAP1 POP JUMP JUMPDEST PUSH1 0x0 PUSH2 0x48A DUP3 PUSH2 0x472 JUMP JUMPDEST SWAP1 POP SWAP2 SWAP1 POP JUMP JUMPDEST PUSH1 0x0 PUSH2 0x49C DUP3 PUSH2 0x47F JUMP JUMPDEST SWAP1 POP SWAP2 SWAP1 POP JUMP JUMPDEST PUSH2 0x4B4 PUSH2 0x4AF DUP3 PUSH2 0x460 JUMP JUMPDEST PUSH2 0x491 JUMP JUMPDEST DUP3 MSTORE POP POP JUMP JUMPDEST PUSH1 0x0 DUP2 SWAP1 POP SWAP2 SWAP1 POP JUMP JUMPDEST PUSH2 0x4D5 PUSH2 0x4D0 DUP3 PUSH2 0x231 JUMP JUMPDEST PUSH2 0x4BA JUMP JUMPDEST DUP3 MSTORE POP POP JUMP JUMPDEST PUSH1 0x0 PUSH2 0x4E7 DUP3 DUP8 PUSH2 0x429 JUMP JUMPDEST PUSH1 0x1 DUP3 ADD SWAP2 POP PUSH2 0x4F7 DUP3 DUP7 PUSH2 0x4A3 JUMP JUMPDEST PUSH1 0x14 DUP3 ADD SWAP2 POP PUSH2 0x507 DUP3 DUP6 PUSH2 0x4C4 JUMP JUMPDEST PUSH1 0x20 DUP3 ADD SWAP2 POP PUSH2 0x517 DUP3 DUP5 PUSH2 0x4C4 JUMP JUMPDEST PUSH1 0x20 DUP3 ADD SWAP2 POP DUP2 SWAP1 POP SWAP6 SWAP5 POP POP POP POP POP JUMP JUMPDEST PUSH2 0x532 DUP2 PUSH2 0x460 JUMP JUMPDEST DUP3 MSTORE POP POP JUMP JUMPDEST PUSH1 0x0 PUSH1 0x20 DUP3 ADD SWAP1 POP PUSH2 0x54D PUSH1 0x0 DUP4 ADD DUP5 PUSH2 0x529 JUMP JUMPDEST SWAP3 SWAP2 POP POP JUMP INVALID PUSH1 0x80 PUSH1 0x40 MSTORE CALLVALUE DUP1 ISZERO PUSH2 0x10 JUMPI PUSH1 0x0 DUP1 REVERT JUMPDEST POP PUSH1 0x40 MLOAD PUSH2 0x168 CODESIZE SUB DUP1 PUSH2 0x168 DUP4 CODECOPY DUP2 DUP2 ADD PUSH1 0x40 MSTORE DUP2 ADD SWAP1 PUSH2 0x32 SWAP2 SWAP1 PUSH2 0x7A JUMP JUMPDEST DUP1 PUSH1 0x0 DUP2 SWAP1 SSTORE POP POP PUSH2 0xA7 JUMP JUMPDEST PUSH1 0x0 DUP1 REVERT JUMPDEST PUSH1 0x0 DUP2 SWAP1 POP SWAP2 SWAP1 POP JUMP JUMPDEST PUSH2 0x57 DUP2 PUSH2 0x44 JUMP JUMPDEST DUP2 EQ PUSH2 0x62 JUMPI PUSH1 0x0 DUP1 REVERT JUMPDEST POP JUMP JUMPDEST PUSH1 0x0 DUP2 MLOAD SWAP1 POP PUSH2 0x74 DUP2 PUSH2 0x4E JUMP JUMPDEST SWAP3 SWAP2 POP POP JUMP JUMPDEST PUSH1 0x0 PUSH1 0x20 DUP3 DUP5 SUB SLT ISZERO PUSH2 0x90 JUMPI PUSH2 0x8F PUSH2 0x3F JUMP JUMPDEST JUMPDEST PUSH1 0x0 PUSH2 0x9E DUP5 DUP3 DUP6 ADD PUSH2 0x65 JUMP JUMPDEST SWAP2 POP POP SWAP3 SWAP2 POP POP JUMP JUMPDEST PUSH1 0xB3 DUP1 PUSH2 0xB5 PUSH1 0x0 CODECOPY PUSH1 0x0 RETURN INVALID PUSH1 0x80 PUSH1 0x40 MSTORE CALLVALUE DUP1 ISZERO PUSH1 0xF JUMPI PUSH1 0x0 DUP1 REVERT JUMPDEST POP PUSH1 0x4 CALLDATASIZE LT PUSH1 0x28 JUMPI PUSH1 0x0 CALLDATALOAD PUSH1 0xE0 SHR DUP1 PUSH4 0xC55699C EQ PUSH1 0x2D JUMPI JUMPDEST PUSH1 0x0 DUP1 REVERT JUMPDEST PUSH1 0x33 PUSH1 0x47 JUMP JUMPDEST PUSH1 0x40 MLOAD PUSH1 0x3E SWAP2 SWAP1 PUSH1 0x64 JUMP JUMPDEST PUSH1 0x40 MLOAD DUP1 SWAP2 SUB SWAP1 RETURN JUMPDEST PUSH1 0x0 SLOAD DUP2 JUMP JUMPDEST PUSH1 0x0 DUP2 SWAP1 POP SWAP2 SWAP1 POP JUMP JUMPDEST PUSH1 0x5E DUP2 PUSH1 0x4D JUMP JUMPDEST DUP3 MSTORE POP POP JUMP JUMPDEST PUSH1 0x0 PUSH1 0x20 DUP3 ADD SWAP1 POP PUSH1 0x77 PUSH1 0x0 DUP4 ADD DUP5 PUSH1 0x57 JUMP JUMPDEST SWAP3 SWAP2 POP POP JUMP INVALID LOG2 PUSH5 0x6970667358 0x22 SLT KECCAK256 ORIGIN 0x2B 0xD9 CALLER MSTORE8 CREATE2 CALLER 0xF8 0xC2 0xE6 PUSH18 0x12264BC18486E082C6F97AE1EFB643CFCDE0 CODESIZE CHAINID ADDRESS PUSH5 0x736F6C6343 STOP ADDMOD SLT STOP CALLER LOG2 PUSH5 0x6970667358 0x22 SLT KECCAK256 CREATE 0xD7 0xC6 0xCC 0xC2 LOG0 PUSH15 0xE5C7292CFBC62E8AB0A3C2D430E2F6 SWAP11 REVERT SGT 0x2F DUP12 0xB2 0xD8 0xDB 0x28 PUSH21 0x64736F6C6343000812003300000000000000000000 "
				},
				"gasEstimates": {
					"creation": {
						"codeDepositCost": "355400",
						"executionCost": "393",
						"totalCost": "355793"
					},
					"external": {
						"createDSalted(bytes32,uint256)": "infinite",
						"getBytes(uint256)": "608"
					}
				},
				"methodIdentifiers": {
					"createDSalted(bytes32,uint256)": "0bd38f2f",
					"getBytes(uint256)": "57bc2ef3"
				}
			},
			"storageLayout": {
				"storage": [],
				"types": null
			},
			"userdoc": {
				"kind": "user",
				"methods": {},
				"version": 1
			}
		}
	}
}