{
	"contract-5763e97fa0.sol": {
		"ArrayContract": {
			"abi": [
				{
					"inputs": [
						{
							"internalType": "bool[2]",
							"name": "flag",
							"type": "bool[2]"
						}
					],
					"name": "addFlag",
					"outputs": [
						{
							"internalType": "uint256",
							"name": "",
							"type": "uint256"
						}
					],
					"stateMutability": "nonpayable",
					"type": "function"
				},
				{
					"inputs": [
						{
							"internalType": "bytes",
							"name": "data",
							"type": "bytes"
						}
					],
					"name": "byteArrays",
					"outputs": [],
					"stateMutability": "nonpayable",
					"type": "function"
				},
				{
					"inputs": [
						{
							"internalType": "uint256",
							"name": "newSize",
							"type": "uint256"
						}
					],
					"name": "changeFlagArraySize",
					"outputs": [],
					"stateMutability": "nonpayable",
					"type": "function"
				},
				{
					"inputs": [],
					"name": "clear",
					"outputs": [],
					"stateMutability": "nonpayable",
					"type": "function"
				},
				{
					"inputs": [
						{
							"internalType": "uint256",
							"name": "size",
							"type": "uint256"
						}
					],
					"name": "createMemoryArray",
					"outputs": [
						{
							"internalType": "bytes",
							"name": "",
							"type": "bytes"
						}
					],
					"stateMutability": "pure",
					"type": "function"
				},
				{
					"inputs": [
						{
							"internalType": "uint256[]",
							"name": "c",
							"type": "uint256[]"
						}
					],
					"name": "f",
					"outputs": [],
					"stateMutability": "nonpayable",
					"type": "function"
				},
				{
					"inputs": [
						{
							"internalType": "bool[2][]",
							"name": "newPairs",
							"type": "bool[2][]"
						}
					],
					"name": "setAllFlagPairs",
					"outputs": [],
					"stateMutability": "nonpayable",
					"type": "function"
				},
				{
					"inputs": [
						{
							"internalType": "uint256",
							"name": "index",
							"type": "uint256"
						},
						{
							"internalType": "bool",
							"name": "flagA",
							"type": "bool"
						},
						{
							"internalType": "bool",
							"name": "flagB",
							"type": "bool"
						}
					],
					"name": "setFlagPair",
					"outputs": [],
					"stateMutability": "nonpayable",
					"type": "function"
				}
			],
			"devdoc": {
				"kind": "dev",
				"methods": {},
				"version": 1
			},
			"evm": {
				"assembly": "    /* \"contract-5763e97fa0.sol\":69:3331  contract ArrayContract {... */\n  mstore(0x40, 0x80)\n  callvalue\n  dup1\n  iszero\n  tag_1\n  jumpi\n  0x00\n  dup1\n  revert\ntag_1:\n  pop\n  dataSize(sub_0)\n  dup1\n  dataOffset(sub_0)\n  0x00\n  codecopy\n  0x00\n  return\nstop\n\nsub_0: assembly {\n        /* \"contract-5763e97fa0.sol\":69:3331  contract ArrayContract {... */\n      mstore(0x40, 0x80)\n      callvalue\n      dup1\n      iszero\n      tag_1\n      jumpi\n      0x00\n      dup1\n      revert\n    tag_1:\n      pop\n      jumpi(tag_2, lt(calldatasize, 0x04))\n      shr(0xe0, calldataload(0x00))\n      dup1\n      0x7d7e5e3d\n      gt\n      tag_11\n      jumpi\n      dup1\n      0x7d7e5e3d\n      eq\n      tag_7\n      jumpi\n      dup1\n      0xb9cce72c\n      eq\n      tag_8\n      jumpi\n      dup1\n      0xdeff71b8\n      eq\n      tag_9\n      jumpi\n      dup1\n      0xf5933f66\n      eq\n      tag_10\n      jumpi\n      jump(tag_2)\n    tag_11:\n      dup1\n      0x31a56110\n      eq\n      tag_3\n      jumpi\n      dup1\n      0x52efea6e\n      eq\n      tag_4\n      jumpi\n      dup1\n      0x6d236703\n      eq\n      tag_5\n      jumpi\n      dup1\n      0x7bc5bbbf\n      eq\n      tag_6\n      jumpi\n    tag_2:\n      0x00\n      dup1\n      revert\n        /* \"contract-5763e97fa0.sol\":2291:2627  function byteArrays(bytes memory data) public {... */\n    tag_3:\n      tag_12\n      0x04\n      dup1\n      calldatasize\n      sub\n      dup2\n      add\n      swap1\n      tag_13\n      swap2\n      swap1\n      tag_14\n      jump\t// in\n    tag_13:\n      tag_15\n      jump\t// in\n    tag_12:\n      stop\n        /* \"contract-5763e97fa0.sol\":2054:2264  function clear() public {... */\n    tag_4:\n      tag_16\n      tag_17\n      jump\t// in\n    tag_16:\n      stop\n        /* \"contract-5763e97fa0.sol\":2775:3329  function createMemoryArray(uint size) public pure returns (bytes memory) {... */\n    tag_5:\n      tag_18\n      0x04\n      dup1\n      calldatasize\n      sub\n      dup2\n      add\n      swap1\n      tag_19\n      swap2\n      swap1\n      tag_20\n      jump\t// in\n    tag_19:\n      tag_21\n      jump\t// in\n    tag_18:\n      mload(0x40)\n      tag_22\n      swap2\n      swap1\n      tag_23\n      jump\t// in\n    tag_22:\n      mload(0x40)\n      dup1\n      swap2\n      sub\n      swap1\n      return\n        /* \"contract-5763e97fa0.sol\":1050:1392  function f(uint[] memory c) public {... */\n    tag_6:\n      tag_24\n      0x04\n      dup1\n      calldatasize\n      sub\n      dup2\n      add\n      swap1\n      tag_25\n      swap2\n      swap1\n      tag_26\n      jump\t// in\n    tag_25:\n      tag_27\n      jump\t// in\n    tag_24:\n      stop\n        /* \"contract-5763e97fa0.sol\":1398:1615  function setFlagPair(uint index, bool flagA, bool flagB) public {... */\n    tag_7:\n      tag_28\n      0x04\n      dup1\n      calldatasize\n      sub\n      dup2\n      add\n      swap1\n      tag_29\n      swap2\n      swap1\n      tag_30\n      jump\t// in\n    tag_29:\n      tag_31\n      jump\t// in\n    tag_28:\n      stop\n        /* \"contract-5763e97fa0.sol\":2633:2769  function addFlag(bool[2] memory flag) public returns (uint) {... */\n    tag_8:\n      tag_32\n      0x04\n      dup1\n      calldatasize\n      sub\n      dup2\n      add\n      swap1\n      tag_33\n      swap2\n      swap1\n      tag_34\n      jump\t// in\n    tag_33:\n      tag_35\n      jump\t// in\n    tag_32:\n      mload(0x40)\n      tag_36\n      swap2\n      swap1\n      tag_37\n      jump\t// in\n    tag_36:\n      mload(0x40)\n      dup1\n      swap2\n      sub\n      swap1\n      return\n        /* \"contract-5763e97fa0.sol\":714:947  function setAllFlagPairs(bool[2][] memory newPairs) public {... */\n    tag_9:\n      tag_38\n      0x04\n      dup1\n      calldatasize\n      sub\n      dup2\n      add\n      swap1\n      tag_39\n      swap2\n      swap1\n      tag_40\n      jump\t// in\n    tag_39:\n      tag_41\n      jump\t// in\n    tag_38:\n      stop\n        /* \"contract-5763e97fa0.sol\":1621:2048  function changeFlagArraySize(uint newSize) public {... */\n    tag_10:\n      tag_42\n      0x04\n      dup1\n      calldatasize\n      sub\n      dup2\n      add\n      swap1\n      tag_43\n      swap2\n      swap1\n      tag_20\n      jump\t// in\n    tag_43:\n      tag_44\n      jump\t// in\n    tag_42:\n      stop\n        /* \"contract-5763e97fa0.sol\":2291:2627  function byteArrays(bytes memory data) public {... */\n    tag_15:\n        /* \"contract-5763e97fa0.sol\":2494:2498  data */\n      dup1\n        /* \"contract-5763e97fa0.sol\":2483:2491  byteData */\n      0x100003\n        /* \"contract-5763e97fa0.sol\":2483:2498  byteData = data */\n      swap1\n      dup2\n      tag_46\n      swap2\n      swap1\n      tag_47\n      jump\t// in\n    tag_46:\n      pop\n        /* \"contract-5763e97fa0.sol\":2513:2519  uint i */\n      0x00\n        /* \"contract-5763e97fa0.sol\":2508:2564  for (uint i = 0; i < 7; i++)... */\n    tag_48:\n        /* \"contract-5763e97fa0.sol\":2529:2530  7 */\n      0x07\n        /* \"contract-5763e97fa0.sol\":2525:2526  i */\n      dup2\n        /* \"contract-5763e97fa0.sol\":2525:2530  i < 7 */\n      lt\n        /* \"contract-5763e97fa0.sol\":2508:2564  for (uint i = 0; i < 7; i++)... */\n      iszero\n      tag_49\n      jumpi\n        /* \"contract-5763e97fa0.sol\":2549:2557  byteData */\n      0x100003\n        /* \"contract-5763e97fa0.sol\":2549:2564  byteData.push() */\n      0x01\n      dup2\n      dup1\n      sload\n      dup1\n      tag_51\n      swap1\n      tag_52\n      jump\t// in\n    tag_51:\n      dup1\n      0x1f\n      dup2\n      sub\n      tag_53\n      jumpi\n      dup4\n      0x00\n      mstore\n      keccak256(0x00, 0x20)\n      not(0xff)\n      dup5\n      and\n      dup2\n      sstore\n      0x3f\n      swap4\n      pop\n      pop\n    tag_53:\n      pop\n      0x02\n      dup3\n      add\n      dup4\n      sstore\n      0x01\n      dup2\n      add\n      swap3\n      pop\n      pop\n      pop\n      sub\n      dup2\n      sload\n      0x01\n      and\n      iszero\n      tag_55\n      jumpi\n      swap1\n      0x00\n      mstore\n      keccak256(0x00, 0x20)\n      swap1\n      0x20\n      swap2\n      dup3\n      dup3\n      div\n      add\n      swap2\n      swap1\n      mod\n    tag_55:\n      swap1\n      sload\n      swap1\n      pop\n      pop\n        /* \"contract-5763e97fa0.sol\":2532:2535  i++ */\n      dup1\n      dup1\n      tag_56\n      swap1\n      tag_57\n      jump\t// in\n    tag_56:\n      swap2\n      pop\n      pop\n        /* \"contract-5763e97fa0.sol\":2508:2564  for (uint i = 0; i < 7; i++)... */\n      jump(tag_48)\n    tag_49:\n      pop\n        /* \"contract-5763e97fa0.sol\":2588:2592  0x08 */\n      0x08\n        /* \"contract-5763e97fa0.sol\":2574:2592  byteData[3] = 0x08 */\n      0xf8\n      shl\n        /* \"contract-5763e97fa0.sol\":2574:2582  byteData */\n      0x100003\n        /* \"contract-5763e97fa0.sol\":2583:2584  3 */\n      0x03\n        /* \"contract-5763e97fa0.sol\":2574:2585  byteData[3] */\n      dup2\n      sload\n      tag_58\n      swap1\n      tag_52\n      jump\t// in\n    tag_58:\n      dup2\n      lt\n      tag_59\n      jumpi\n      tag_60\n      tag_61\n      jump\t// in\n    tag_60:\n    tag_59:\n      dup2\n      sload\n      0x01\n      and\n      iszero\n      tag_62\n      jumpi\n      swap1\n      0x00\n      mstore\n      keccak256(0x00, 0x20)\n      swap1\n      0x20\n      swap2\n      dup3\n      dup3\n      div\n      add\n      swap2\n      swap1\n      mod\n    tag_62:\n        /* \"contract-5763e97fa0.sol\":2574:2592  byteData[3] = 0x08 */\n      0x1f\n      sub\n      0x0100\n      exp\n      dup2\n      sload\n      dup2\n      0xff\n      mul\n      not\n      and\n      swap1\n      0x0100000000000000000000000000000000000000000000000000000000000000\n      dup5\n      div\n      mul\n      or\n      swap1\n      sstore\n      pop\n        /* \"contract-5763e97fa0.sol\":2609:2617  byteData */\n      0x100003\n        /* \"contract-5763e97fa0.sol\":2618:2619  2 */\n      0x02\n        /* \"contract-5763e97fa0.sol\":2609:2620  byteData[2] */\n      dup2\n      sload\n      tag_63\n      swap1\n      tag_52\n      jump\t// in\n    tag_63:\n      dup2\n      lt\n      tag_64\n      jumpi\n      tag_65\n      tag_61\n      jump\t// in\n    tag_65:\n    tag_64:\n      dup2\n      sload\n      0x01\n      and\n      iszero\n      tag_66\n      jumpi\n      swap1\n      0x00\n      mstore\n      keccak256(0x00, 0x20)\n      swap1\n      0x20\n      swap2\n      dup3\n      dup3\n      div\n      add\n      swap2\n      swap1\n      mod\n    tag_66:\n        /* \"contract-5763e97fa0.sol\":2602:2620  delete byteData[2] */\n      0x1f\n      sub\n      0x0100\n      exp\n      dup2\n      sload\n      swap1\n      0xff\n      mul\n      not\n      and\n      swap1\n      sstore\n        /* \"contract-5763e97fa0.sol\":2291:2627  function byteArrays(bytes memory data) public {... */\n      pop\n      jump\t// out\n        /* \"contract-5763e97fa0.sol\":2054:2264  function clear() public {... */\n    tag_17:\n        /* \"contract-5763e97fa0.sol\":2140:2152  pairsOfFlags */\n      0x100000\n      0x00\n        /* \"contract-5763e97fa0.sol\":2133:2152  delete pairsOfFlags */\n      tag_68\n      swap2\n      swap1\n      tag_69\n      jump\t// in\n    tag_68:\n        /* \"contract-5763e97fa0.sol\":2169:2183  aLotOfIntegers */\n      0x00\n      dup1\n        /* \"contract-5763e97fa0.sol\":2162:2183  delete aLotOfIntegers */\n      tag_70\n      swap2\n      swap1\n      tag_71\n      jump\t// in\n    tag_70:\n        /* \"contract-5763e97fa0.sol\":2255:2256  0 */\n      0x00\n        /* \"contract-5763e97fa0.sol\":2241:2257  new bool[2][](0) */\n      0xffffffffffffffff\n      dup2\n      gt\n      iszero\n      tag_72\n      jumpi\n      tag_73\n      tag_74\n      jump\t// in\n    tag_73:\n    tag_72:\n      mload(0x40)\n      swap1\n      dup1\n      dup3\n      mstore\n      dup1\n      0x20\n      mul\n      0x20\n      add\n      dup3\n      add\n      0x40\n      mstore\n      dup1\n      iszero\n      tag_75\n      jumpi\n      dup2\n      0x20\n      add\n    tag_76:\n      tag_77\n      tag_78\n      jump\t// in\n    tag_77:\n      dup2\n      mstore\n      0x20\n      add\n      swap1\n      0x01\n      swap1\n      sub\n      swap1\n      dup2\n      tag_76\n      jumpi\n      swap1\n      pop\n    tag_75:\n      pop\n        /* \"contract-5763e97fa0.sol\":2226:2238  pairsOfFlags */\n      0x100000\n        /* \"contract-5763e97fa0.sol\":2226:2257  pairsOfFlags = new bool[2][](0) */\n      swap1\n      dup1\n      mload\n      swap1\n      0x20\n      add\n      swap1\n      tag_79\n      swap3\n      swap2\n      swap1\n      tag_80\n      jump\t// in\n    tag_79:\n      pop\n        /* \"contract-5763e97fa0.sol\":2054:2264  function clear() public {... */\n      jump\t// out\n        /* \"contract-5763e97fa0.sol\":2775:3329  function createMemoryArray(uint size) public pure returns (bytes memory) {... */\n    tag_21:\n        /* \"contract-5763e97fa0.sol\":2834:2846  bytes memory */\n      0x60\n        /* \"contract-5763e97fa0.sol\":2916:2945  uint[2][] memory arrayOfPairs */\n      0x00\n        /* \"contract-5763e97fa0.sol\":2962:2966  size */\n      dup3\n        /* \"contract-5763e97fa0.sol\":2948:2967  new uint[2][](size) */\n      0xffffffffffffffff\n      dup2\n      gt\n      iszero\n      tag_82\n      jumpi\n      tag_83\n      tag_74\n      jump\t// in\n    tag_83:\n    tag_82:\n      mload(0x40)\n      swap1\n      dup1\n      dup3\n      mstore\n      dup1\n      0x20\n      mul\n      0x20\n      add\n      dup3\n      add\n      0x40\n      mstore\n      dup1\n      iszero\n      tag_84\n      jumpi\n      dup2\n      0x20\n      add\n    tag_85:\n      tag_86\n      tag_87\n      jump\t// in\n    tag_86:\n      dup2\n      mstore\n      0x20\n      add\n      swap1\n      0x01\n      swap1\n      sub\n      swap1\n      dup2\n      tag_85\n      jumpi\n      swap1\n      pop\n    tag_84:\n      pop\n        /* \"contract-5763e97fa0.sol\":2916:2967  uint[2][] memory arrayOfPairs = new uint[2][](size) */\n      swap1\n      pop\n        /* \"contract-5763e97fa0.sol\":3111:3141  arrayOfPairs[0] = [uint(1), 2] */\n      mload(0x40)\n      dup1\n      0x40\n      add\n      0x40\n      mstore\n      dup1\n        /* \"contract-5763e97fa0.sol\":3135:3136  1 */\n      0x01\n        /* \"contract-5763e97fa0.sol\":3111:3141  arrayOfPairs[0] = [uint(1), 2] */\n      dup2\n      mstore\n      0x20\n      add\n        /* \"contract-5763e97fa0.sol\":3139:3140  2 */\n      0x02\n        /* \"contract-5763e97fa0.sol\":3111:3141  arrayOfPairs[0] = [uint(1), 2] */\n      dup2\n      mstore\n      pop\n        /* \"contract-5763e97fa0.sol\":3111:3123  arrayOfPairs */\n      dup2\n        /* \"contract-5763e97fa0.sol\":3124:3125  0 */\n      0x00\n        /* \"contract-5763e97fa0.sol\":3111:3126  arrayOfPairs[0] */\n      dup2\n      mload\n      dup2\n      lt\n      tag_88\n      jumpi\n      tag_89\n      tag_61\n      jump\t// in\n    tag_89:\n    tag_88:\n      0x20\n      mul\n      0x20\n      add\n      add\n        /* \"contract-5763e97fa0.sol\":3111:3141  arrayOfPairs[0] = [uint(1), 2] */\n      dup2\n      swap1\n      mstore\n      pop\n        /* \"contract-5763e97fa0.sol\":3192:3206  bytes memory b */\n      0x00\n        /* \"contract-5763e97fa0.sol\":3219:3222  200 */\n      0xc8\n        /* \"contract-5763e97fa0.sol\":3209:3223  new bytes(200) */\n      0xffffffffffffffff\n      dup2\n      gt\n      iszero\n      tag_90\n      jumpi\n      tag_91\n      tag_74\n      jump\t// in\n    tag_91:\n    tag_90:\n      mload(0x40)\n      swap1\n      dup1\n      dup3\n      mstore\n      dup1\n      0x1f\n      add\n      not(0x1f)\n      and\n      0x20\n      add\n      dup3\n      add\n      0x40\n      mstore\n      dup1\n      iszero\n      tag_92\n      jumpi\n      dup2\n      0x20\n      add\n      0x01\n      dup3\n      mul\n      dup1\n      calldatasize\n      dup4\n      calldatacopy\n      dup1\n      dup3\n      add\n      swap2\n      pop\n      pop\n      swap1\n      pop\n    tag_92:\n      pop\n        /* \"contract-5763e97fa0.sol\":3192:3223  bytes memory b = new bytes(200) */\n      swap1\n      pop\n        /* \"contract-5763e97fa0.sol\":3238:3244  uint i */\n      0x00\n        /* \"contract-5763e97fa0.sol\":3233:3304  for (uint i = 0; i < b.length; i++)... */\n    tag_93:\n        /* \"contract-5763e97fa0.sol\":3254:3255  b */\n      dup2\n        /* \"contract-5763e97fa0.sol\":3254:3262  b.length */\n      mload\n        /* \"contract-5763e97fa0.sol\":3250:3251  i */\n      dup2\n        /* \"contract-5763e97fa0.sol\":3250:3262  i < b.length */\n      lt\n        /* \"contract-5763e97fa0.sol\":3233:3304  for (uint i = 0; i < b.length; i++)... */\n      iszero\n      tag_94\n      jumpi\n        /* \"contract-5763e97fa0.sol\":3301:3302  i */\n      dup1\n        /* \"contract-5763e97fa0.sol\":3288:3304  bytes1(uint8(i)) */\n      0xf8\n      shl\n        /* \"contract-5763e97fa0.sol\":3281:3282  b */\n      dup3\n        /* \"contract-5763e97fa0.sol\":3283:3284  i */\n      dup3\n        /* \"contract-5763e97fa0.sol\":3281:3285  b[i] */\n      dup2\n      mload\n      dup2\n      lt\n      tag_96\n      jumpi\n      tag_97\n      tag_61\n      jump\t// in\n    tag_97:\n    tag_96:\n      0x20\n      add\n      add\n        /* \"contract-5763e97fa0.sol\":3281:3304  b[i] = bytes1(uint8(i)) */\n      swap1\n      not(0xffffffffffffffffffffffffffffffffffffffffffffffffffffffffffffff)\n      and\n      swap1\n      dup2\n      0x00\n      byte\n      swap1\n      mstore8\n      pop\n        /* \"contract-5763e97fa0.sol\":3264:3267  i++ */\n      dup1\n      dup1\n      tag_98\n      swap1\n      tag_57\n      jump\t// in\n    tag_98:\n      swap2\n      pop\n      pop\n        /* \"contract-5763e97fa0.sol\":3233:3304  for (uint i = 0; i < b.length; i++)... */\n      jump(tag_93)\n    tag_94:\n      pop\n        /* \"contract-5763e97fa0.sol\":3321:3322  b */\n      dup1\n        /* \"contract-5763e97fa0.sol\":3314:3322  return b */\n      swap3\n      pop\n      pop\n      pop\n        /* \"contract-5763e97fa0.sol\":2775:3329  function createMemoryArray(uint size) public pure returns (bytes memory) {... */\n      swap2\n      swap1\n      pop\n      jump\t// out\n        /* \"contract-5763e97fa0.sol\":1050:1392  function f(uint[] memory c) public {... */\n    tag_27:\n        /* \"contract-5763e97fa0.sol\":1143:1163  StructType storage g */\n      0x00\n        /* \"contract-5763e97fa0.sol\":1166:1167  s */\n      0x100001\n        /* \"contract-5763e97fa0.sol\":1143:1167  StructType storage g = s */\n      swap1\n      pop\n        /* \"contract-5763e97fa0.sol\":1230:1231  2 */\n      0x02\n        /* \"contract-5763e97fa0.sol\":1217:1218  g */\n      dup2\n        /* \"contract-5763e97fa0.sol\":1217:1227  g.moreInfo */\n      0x01\n      add\n        /* \"contract-5763e97fa0.sol\":1217:1231  g.moreInfo = 2 */\n      dup2\n      swap1\n      sstore\n      pop\n        /* \"contract-5763e97fa0.sol\":1384:1385  c */\n      dup2\n        /* \"contract-5763e97fa0.sol\":1371:1372  g */\n      dup2\n        /* \"contract-5763e97fa0.sol\":1371:1381  g.contents */\n      0x00\n      add\n        /* \"contract-5763e97fa0.sol\":1371:1385  g.contents = c */\n      swap1\n      dup1\n      mload\n      swap1\n      0x20\n      add\n      swap1\n      tag_100\n      swap3\n      swap2\n      swap1\n      tag_101\n      jump\t// in\n    tag_100:\n      pop\n        /* \"contract-5763e97fa0.sol\":1085:1392  {... */\n      pop\n        /* \"contract-5763e97fa0.sol\":1050:1392  function f(uint[] memory c) public {... */\n      pop\n      jump\t// out\n        /* \"contract-5763e97fa0.sol\":1398:1615  function setFlagPair(uint index, bool flagA, bool flagB) public {... */\n    tag_31:\n        /* \"contract-5763e97fa0.sol\":1563:1568  flagA */\n      dup2\n        /* \"contract-5763e97fa0.sol\":1538:1550  pairsOfFlags */\n      0x100000\n        /* \"contract-5763e97fa0.sol\":1551:1556  index */\n      dup5\n        /* \"contract-5763e97fa0.sol\":1538:1557  pairsOfFlags[index] */\n      dup2\n      sload\n      dup2\n      lt\n      tag_103\n      jumpi\n      tag_104\n      tag_61\n      jump\t// in\n    tag_104:\n    tag_103:\n      swap1\n      0x00\n      mstore\n      keccak256(0x00, 0x20)\n      add\n        /* \"contract-5763e97fa0.sol\":1558:1559  0 */\n      0x00\n        /* \"contract-5763e97fa0.sol\":1538:1560  pairsOfFlags[index][0] */\n      0x02\n      dup2\n      lt\n      tag_106\n      jumpi\n      tag_107\n      tag_61\n      jump\t// in\n    tag_107:\n    tag_106:\n      0x20\n      swap2\n      dup3\n      dup3\n      div\n      add\n      swap2\n      swap1\n      mod\n        /* \"contract-5763e97fa0.sol\":1538:1568  pairsOfFlags[index][0] = flagA */\n      0x0100\n      exp\n      dup2\n      sload\n      dup2\n      0xff\n      mul\n      not\n      and\n      swap1\n      dup4\n      iszero\n      iszero\n      mul\n      or\n      swap1\n      sstore\n      pop\n        /* \"contract-5763e97fa0.sol\":1603:1608  flagB */\n      dup1\n        /* \"contract-5763e97fa0.sol\":1578:1590  pairsOfFlags */\n      0x100000\n        /* \"contract-5763e97fa0.sol\":1591:1596  index */\n      dup5\n        /* \"contract-5763e97fa0.sol\":1578:1597  pairsOfFlags[index] */\n      dup2\n      sload\n      dup2\n      lt\n      tag_109\n      jumpi\n      tag_110\n      tag_61\n      jump\t// in\n    tag_110:\n    tag_109:\n      swap1\n      0x00\n      mstore\n      keccak256(0x00, 0x20)\n      add\n        /* \"contract-5763e97fa0.sol\":1598:1599  1 */\n      0x01\n        /* \"contract-5763e97fa0.sol\":1578:1600  pairsOfFlags[index][1] */\n      0x02\n      dup2\n      lt\n      tag_112\n      jumpi\n      tag_113\n      tag_61\n      jump\t// in\n    tag_113:\n    tag_112:\n      0x20\n      swap2\n      dup3\n      dup3\n      div\n      add\n      swap2\n      swap1\n      mod\n        /* \"contract-5763e97fa0.sol\":1578:1608  pairsOfFlags[index][1] = flagB */\n      0x0100\n      exp\n      dup2\n      sload\n      dup2\n      0xff\n      mul\n      not\n      and\n      swap1\n      dup4\n      iszero\n      iszero\n      mul\n      or\n      swap1\n      sstore\n      pop\n        /* \"contract-5763e97fa0.sol\":1398:1615  function setFlagPair(uint index, bool flagA, bool flagB) public {... */\n      pop\n      pop\n      pop\n      jump\t// out\n        /* \"contract-5763e97fa0.sol\":2633:2769  function addFlag(bool[2] memory flag) public returns (uint) {... */\n    tag_35:\n        /* \"contract-5763e97fa0.sol\":2687:2691  uint */\n      0x00\n        /* \"contract-5763e97fa0.sol\":2703:2715  pairsOfFlags */\n      0x100000\n        /* \"contract-5763e97fa0.sol\":2721:2725  flag */\n      dup3\n        /* \"contract-5763e97fa0.sol\":2703:2726  pairsOfFlags.push(flag) */\n      swap1\n      dup1\n      0x01\n      dup2\n      sload\n      add\n      dup1\n      dup3\n      sstore\n      dup1\n      swap2\n      pop\n      pop\n      0x01\n      swap1\n      sub\n      swap1\n      0x00\n      mstore\n      keccak256(0x00, 0x20)\n      add\n      0x00\n      swap1\n      swap2\n      swap1\n      swap2\n      swap1\n      swap2\n      pop\n      swap1\n      0x02\n      tag_117\n      swap3\n      swap2\n      swap1\n      tag_118\n      jump\t// in\n    tag_117:\n      pop\n        /* \"contract-5763e97fa0.sol\":2743:2755  pairsOfFlags */\n      0x100000\n        /* \"contract-5763e97fa0.sol\":2743:2762  pairsOfFlags.length */\n      dup1\n      sload\n      swap1\n      pop\n        /* \"contract-5763e97fa0.sol\":2736:2762  return pairsOfFlags.length */\n      swap1\n      pop\n        /* \"contract-5763e97fa0.sol\":2633:2769  function addFlag(bool[2] memory flag) public returns (uint) {... */\n      swap2\n      swap1\n      pop\n      jump\t// out\n        /* \"contract-5763e97fa0.sol\":714:947  function setAllFlagPairs(bool[2][] memory newPairs) public {... */\n    tag_41:\n        /* \"contract-5763e97fa0.sol\":932:940  newPairs */\n      dup1\n        /* \"contract-5763e97fa0.sol\":917:929  pairsOfFlags */\n      0x100000\n        /* \"contract-5763e97fa0.sol\":917:940  pairsOfFlags = newPairs */\n      swap1\n      dup1\n      mload\n      swap1\n      0x20\n      add\n      swap1\n      tag_120\n      swap3\n      swap2\n      swap1\n      tag_80\n      jump\t// in\n    tag_120:\n      pop\n        /* \"contract-5763e97fa0.sol\":714:947  function setAllFlagPairs(bool[2][] memory newPairs) public {... */\n      pop\n      jump\t// out\n        /* \"contract-5763e97fa0.sol\":1621:2048  function changeFlagArraySize(uint newSize) public {... */\n    tag_44:\n        /* \"contract-5763e97fa0.sol\":1785:1797  pairsOfFlags */\n      0x100000\n        /* \"contract-5763e97fa0.sol\":1785:1804  pairsOfFlags.length */\n      dup1\n      sload\n      swap1\n      pop\n        /* \"contract-5763e97fa0.sol\":1775:1782  newSize */\n      dup2\n        /* \"contract-5763e97fa0.sol\":1775:1804  newSize < pairsOfFlags.length */\n      lt\n        /* \"contract-5763e97fa0.sol\":1771:2042  if (newSize < pairsOfFlags.length) {... */\n      iszero\n      tag_122\n      jumpi\n        /* \"contract-5763e97fa0.sol\":1820:1892  while (pairsOfFlags.length > newSize)... */\n    tag_123:\n        /* \"contract-5763e97fa0.sol\":1849:1856  newSize */\n      dup1\n        /* \"contract-5763e97fa0.sol\":1827:1839  pairsOfFlags */\n      0x100000\n        /* \"contract-5763e97fa0.sol\":1827:1846  pairsOfFlags.length */\n      dup1\n      sload\n      swap1\n      pop\n        /* \"contract-5763e97fa0.sol\":1827:1856  pairsOfFlags.length > newSize */\n      gt\n        /* \"contract-5763e97fa0.sol\":1820:1892  while (pairsOfFlags.length > newSize)... */\n      iszero\n      tag_124\n      jumpi\n        /* \"contract-5763e97fa0.sol\":1874:1886  pairsOfFlags */\n      0x100000\n        /* \"contract-5763e97fa0.sol\":1874:1892  pairsOfFlags.pop() */\n      dup1\n      sload\n      dup1\n      tag_125\n      jumpi\n      tag_126\n      tag_127\n      jump\t// in\n    tag_126:\n    tag_125:\n      0x01\n      swap1\n      sub\n      dup2\n      dup2\n      swap1\n      0x00\n      mstore\n      keccak256(0x00, 0x20)\n      add\n      0x00\n      tag_129\n      swap2\n      swap1\n      tag_130\n      jump\t// in\n    tag_129:\n      swap1\n      sstore\n        /* \"contract-5763e97fa0.sol\":1820:1892  while (pairsOfFlags.length > newSize)... */\n      jump(tag_123)\n    tag_124:\n        /* \"contract-5763e97fa0.sol\":1771:2042  if (newSize < pairsOfFlags.length) {... */\n      jump(tag_131)\n    tag_122:\n        /* \"contract-5763e97fa0.sol\":1923:1935  pairsOfFlags */\n      0x100000\n        /* \"contract-5763e97fa0.sol\":1923:1942  pairsOfFlags.length */\n      dup1\n      sload\n      swap1\n      pop\n        /* \"contract-5763e97fa0.sol\":1913:1920  newSize */\n      dup2\n        /* \"contract-5763e97fa0.sol\":1913:1942  newSize > pairsOfFlags.length */\n      gt\n        /* \"contract-5763e97fa0.sol\":1909:2042  if (newSize > pairsOfFlags.length) {... */\n      iszero\n      tag_132\n      jumpi\n        /* \"contract-5763e97fa0.sol\":1958:2031  while (pairsOfFlags.length < newSize)... */\n    tag_133:\n        /* \"contract-5763e97fa0.sol\":1987:1994  newSize */\n      dup1\n        /* \"contract-5763e97fa0.sol\":1965:1977  pairsOfFlags */\n      0x100000\n        /* \"contract-5763e97fa0.sol\":1965:1984  pairsOfFlags.length */\n      dup1\n      sload\n      swap1\n      pop\n        /* \"contract-5763e97fa0.sol\":1965:1994  pairsOfFlags.length < newSize */\n      lt\n        /* \"contract-5763e97fa0.sol\":1958:2031  while (pairsOfFlags.length < newSize)... */\n      iszero\n      tag_134\n      jumpi\n        /* \"contract-5763e97fa0.sol\":2012:2024  pairsOfFlags */\n      0x100000\n        /* \"contract-5763e97fa0.sol\":2012:2031  pairsOfFlags.push() */\n      0x01\n      dup2\n      0x01\n      dup2\n      sload\n      add\n      dup1\n      dup3\n      sstore\n      dup1\n      swap2\n      pop\n      pop\n      sub\n      swap1\n      0x00\n      mstore\n      pop(keccak256(0x00, 0x20))\n      pop\n        /* \"contract-5763e97fa0.sol\":1958:2031  while (pairsOfFlags.length < newSize)... */\n      jump(tag_133)\n    tag_134:\n        /* \"contract-5763e97fa0.sol\":1909:2042  if (newSize > pairsOfFlags.length) {... */\n    tag_132:\n        /* \"contract-5763e97fa0.sol\":1771:2042  if (newSize < pairsOfFlags.length) {... */\n    tag_131:\n        /* \"contract-5763e97fa0.sol\":1621:2048  function changeFlagArraySize(uint newSize) public {... */\n      pop\n      jump\t// out\n    tag_69:\n      pop\n      dup1\n      sload\n      0x00\n      dup3\n      sstore\n      swap1\n      0x00\n      mstore\n      keccak256(0x00, 0x20)\n      swap1\n      dup2\n      add\n      swap1\n      tag_137\n      swap2\n      swap1\n      tag_138\n      jump\t// in\n    tag_137:\n      pop\n      jump\t// out\n    tag_71:\n      pop\n      dup1\n      0x100000\n      add\n      swap1\n      tag_139\n      swap2\n      swap1\n      tag_140\n      jump\t// in\n    tag_139:\n      pop\n      jump\t// out\n    tag_78:\n      mload(0x40)\n      dup1\n      0x40\n      add\n      0x40\n      mstore\n      dup1\n      0x02\n      swap1\n      0x20\n      dup3\n      mul\n      dup1\n      calldatasize\n      dup4\n      calldatacopy\n      dup1\n      dup3\n      add\n      swap2\n      pop\n      pop\n      swap1\n      pop\n      pop\n      swap1\n      jump\t// out\n    tag_80:\n      dup3\n      dup1\n      sload\n      dup3\n      dup3\n      sstore\n      swap1\n      0x00\n      mstore\n      keccak256(0x00, 0x20)\n      swap1\n      dup2\n      add\n      swap3\n      dup3\n      iszero\n      tag_141\n      jumpi\n      swap2\n      0x20\n      mul\n      dup3\n      add\n    tag_142:\n      dup3\n      dup2\n      gt\n      iszero\n      tag_143\n      jumpi\n      dup3\n      mload\n      dup3\n      swap1\n      0x02\n      tag_144\n      swap3\n      swap2\n      swap1\n      tag_118\n      jump\t// in\n    tag_144:\n      pop\n      swap2\n      0x20\n      add\n      swap2\n      swap1\n      0x01\n      add\n      swap1\n      jump(tag_142)\n    tag_143:\n    tag_141:\n      pop\n      swap1\n      pop\n      tag_145\n      swap2\n      swap1\n      tag_138\n      jump\t// in\n    tag_145:\n      pop\n      swap1\n      jump\t// out\n    tag_87:\n      mload(0x40)\n      dup1\n      0x40\n      add\n      0x40\n      mstore\n      dup1\n      0x02\n      swap1\n      0x20\n      dup3\n      mul\n      dup1\n      calldatasize\n      dup4\n      calldatacopy\n      dup1\n      dup3\n      add\n      swap2\n      pop\n      pop\n      swap1\n      pop\n      pop\n      swap1\n      jump\t// out\n    tag_101:\n      dup3\n      dup1\n      sload\n      dup3\n      dup3\n      sstore\n      swap1\n      0x00\n      mstore\n      keccak256(0x00, 0x20)\n      swap1\n      dup2\n      add\n      swap3\n      dup3\n      iszero\n      tag_146\n      jumpi\n      swap2\n      0x20\n      mul\n      dup3\n      add\n    tag_147:\n      dup3\n      dup2\n      gt\n      iszero\n      tag_148\n      jumpi\n      dup3\n      mload\n      dup3\n      sstore\n      swap2\n      0x20\n      add\n      swap2\n      swap1\n      0x01\n      add\n      swap1\n      jump(tag_147)\n    tag_148:\n    tag_146:\n      pop\n      swap1\n      pop\n      tag_149\n      swap2\n      swap1\n      tag_140\n      jump\t// in\n    tag_149:\n      pop\n      swap1\n      jump\t// out\n    tag_118:\n      dup3\n      add(0x1f, 0x02)\n      0x20\n      swap1\n      div\n      dup2\n      add\n      swap3\n      dup3\n      iszero\n      tag_150\n      jumpi\n      swap2\n      0x20\n      mul\n      dup3\n      add\n      0x00\n    tag_151:\n      dup4\n      dup3\n      gt\n      iszero\n      tag_152\n      jumpi\n      dup4\n      mload\n      dup4\n      dup3\n      0x0100\n      exp\n      dup2\n      sload\n      dup2\n      0xff\n      mul\n      not\n      and\n      swap1\n      dup4\n      iszero\n      iszero\n      mul\n      or\n      swap1\n      sstore\n      pop\n      swap3\n      0x20\n      add\n      swap3\n      0x01\n      add\n      0x20\n      dup2\n      0x00\n      add\n      div\n      swap3\n      dup4\n      add\n      swap3\n      0x01\n      sub\n      mul\n      jump(tag_151)\n    tag_152:\n      dup1\n      iszero\n      tag_153\n      jumpi\n      dup3\n      dup2\n      0x0100\n      exp\n      dup2\n      sload\n      swap1\n      0xff\n      mul\n      not\n      and\n      swap1\n      sstore\n      0x01\n      add\n      0x20\n      dup2\n      0x00\n      add\n      div\n      swap3\n      dup4\n      add\n      swap3\n      0x01\n      sub\n      mul\n      jump(tag_152)\n    tag_153:\n      pop\n    tag_150:\n      pop\n      swap1\n      pop\n      tag_154\n      swap2\n      swap1\n      tag_140\n      jump\t// in\n    tag_154:\n      pop\n      swap1\n      jump\t// out\n    tag_130:\n      pop\n      0x00\n      swap1\n      sstore\n      jump\t// out\n    tag_138:\n    tag_155:\n      dup1\n      dup3\n      gt\n      iszero\n      tag_156\n      jumpi\n      0x00\n      dup2\n      dup2\n      tag_157\n      swap2\n      swap1\n      tag_130\n      jump\t// in\n    tag_157:\n      pop\n      0x01\n      add\n      jump(tag_155)\n    tag_156:\n      pop\n      swap1\n      jump\t// out\n    tag_140:\n    tag_158:\n      dup1\n      dup3\n      gt\n      iszero\n      tag_159\n      jumpi\n      0x00\n      dup2\n      0x00\n      swap1\n      sstore\n      pop\n      0x01\n      add\n      jump(tag_158)\n    tag_159:\n      pop\n      swap1\n      jump\t// out\n        /* \"#utility.yul\":7:82   */\n    tag_160:\n        /* \"#utility.yul\":40:46   */\n      0x00\n        /* \"#utility.yul\":73:75   */\n      0x40\n        /* \"#utility.yul\":67:76   */\n      mload\n        /* \"#utility.yul\":57:76   */\n      swap1\n      pop\n        /* \"#utility.yul\":7:82   */\n      swap1\n      jump\t// out\n        /* \"#utility.yul\":88:205   */\n    tag_161:\n        /* \"#utility.yul\":197:198   */\n      0x00\n        /* \"#utility.yul\":194:195   */\n      dup1\n        /* \"#utility.yul\":187:199   */\n      revert\n        /* \"#utility.yul\":211:328   */\n    tag_162:\n        /* \"#utility.yul\":320:321   */\n      0x00\n        /* \"#utility.yul\":317:318   */\n      dup1\n        /* \"#utility.yul\":310:322   */\n      revert\n        /* \"#utility.yul\":334:451   */\n    tag_163:\n        /* \"#utility.yul\":443:444   */\n      0x00\n        /* \"#utility.yul\":440:441   */\n      dup1\n        /* \"#utility.yul\":433:445   */\n      revert\n        /* \"#utility.yul\":457:574   */\n    tag_164:\n        /* \"#utility.yul\":566:567   */\n      0x00\n        /* \"#utility.yul\":563:564   */\n      dup1\n        /* \"#utility.yul\":556:568   */\n      revert\n        /* \"#utility.yul\":580:682   */\n    tag_165:\n        /* \"#utility.yul\":621:627   */\n      0x00\n        /* \"#utility.yul\":672:674   */\n      0x1f\n        /* \"#utility.yul\":668:675   */\n      not\n        /* \"#utility.yul\":663:665   */\n      0x1f\n        /* \"#utility.yul\":656:661   */\n      dup4\n        /* \"#utility.yul\":652:666   */\n      add\n        /* \"#utility.yul\":648:676   */\n      and\n        /* \"#utility.yul\":638:676   */\n      swap1\n      pop\n        /* \"#utility.yul\":580:682   */\n      swap2\n      swap1\n      pop\n      jump\t// out\n        /* \"#utility.yul\":688:868   */\n    tag_74:\n        /* \"#utility.yul\":736:813   */\n      0x4e487b7100000000000000000000000000000000000000000000000000000000\n        /* \"#utility.yul\":733:734   */\n      0x00\n        /* \"#utility.yul\":726:814   */\n      mstore\n        /* \"#utility.yul\":833:837   */\n      0x41\n        /* \"#utility.yul\":830:831   */\n      0x04\n        /* \"#utility.yul\":823:838   */\n      mstore\n        /* \"#utility.yul\":857:861   */\n      0x24\n        /* \"#utility.yul\":854:855   */\n      0x00\n        /* \"#utility.yul\":847:862   */\n      revert\n        /* \"#utility.yul\":874:1155   */\n    tag_166:\n        /* \"#utility.yul\":957:984   */\n      tag_219\n        /* \"#utility.yul\":979:983   */\n      dup3\n        /* \"#utility.yul\":957:984   */\n      tag_165\n      jump\t// in\n    tag_219:\n        /* \"#utility.yul\":949:955   */\n      dup2\n        /* \"#utility.yul\":945:985   */\n      add\n        /* \"#utility.yul\":1087:1093   */\n      dup2\n        /* \"#utility.yul\":1075:1085   */\n      dup2\n        /* \"#utility.yul\":1072:1094   */\n      lt\n        /* \"#utility.yul\":1051:1069   */\n      0xffffffffffffffff\n        /* \"#utility.yul\":1039:1049   */\n      dup3\n        /* \"#utility.yul\":1036:1070   */\n      gt\n        /* \"#utility.yul\":1033:1095   */\n      or\n        /* \"#utility.yul\":1030:1118   */\n      iszero\n      tag_220\n      jumpi\n        /* \"#utility.yul\":1098:1116   */\n      tag_221\n      tag_74\n      jump\t// in\n    tag_221:\n        /* \"#utility.yul\":1030:1118   */\n    tag_220:\n        /* \"#utility.yul\":1138:1148   */\n      dup1\n        /* \"#utility.yul\":1134:1136   */\n      0x40\n        /* \"#utility.yul\":1127:1149   */\n      mstore\n        /* \"#utility.yul\":917:1155   */\n      pop\n        /* \"#utility.yul\":874:1155   */\n      pop\n      pop\n      jump\t// out\n        /* \"#utility.yul\":1161:1290   */\n    tag_167:\n        /* \"#utility.yul\":1195:1201   */\n      0x00\n        /* \"#utility.yul\":1222:1242   */\n      tag_223\n      tag_160\n      jump\t// in\n    tag_223:\n        /* \"#utility.yul\":1212:1242   */\n      swap1\n      pop\n        /* \"#utility.yul\":1251:1284   */\n      tag_224\n        /* \"#utility.yul\":1279:1283   */\n      dup3\n        /* \"#utility.yul\":1271:1277   */\n      dup3\n        /* \"#utility.yul\":1251:1284   */\n      tag_166\n      jump\t// in\n    tag_224:\n        /* \"#utility.yul\":1161:1290   */\n      swap2\n      swap1\n      pop\n      jump\t// out\n        /* \"#utility.yul\":1296:1603   */\n    tag_168:\n        /* \"#utility.yul\":1357:1361   */\n      0x00\n        /* \"#utility.yul\":1447:1465   */\n      0xffffffffffffffff\n        /* \"#utility.yul\":1439:1445   */\n      dup3\n        /* \"#utility.yul\":1436:1466   */\n      gt\n        /* \"#utility.yul\":1433:1489   */\n      iszero\n      tag_226\n      jumpi\n        /* \"#utility.yul\":1469:1487   */\n      tag_227\n      tag_74\n      jump\t// in\n    tag_227:\n        /* \"#utility.yul\":1433:1489   */\n    tag_226:\n        /* \"#utility.yul\":1507:1536   */\n      tag_228\n        /* \"#utility.yul\":1529:1535   */\n      dup3\n        /* \"#utility.yul\":1507:1536   */\n      tag_165\n      jump\t// in\n    tag_228:\n        /* \"#utility.yul\":1499:1536   */\n      swap1\n      pop\n        /* \"#utility.yul\":1591:1595   */\n      0x20\n        /* \"#utility.yul\":1585:1589   */\n      dup2\n        /* \"#utility.yul\":1581:1596   */\n      add\n        /* \"#utility.yul\":1573:1596   */\n      swap1\n      pop\n        /* \"#utility.yul\":1296:1603   */\n      swap2\n      swap1\n      pop\n      jump\t// out\n        /* \"#utility.yul\":1609:1755   */\n    tag_169:\n        /* \"#utility.yul\":1706:1712   */\n      dup3\n        /* \"#utility.yul\":1701:1704   */\n      dup2\n        /* \"#utility.yul\":1696:1699   */\n      dup4\n        /* \"#utility.yul\":1683:1713   */\n      calldatacopy\n        /* \"#utility.yul\":1747:1748   */\n      0x00\n        /* \"#utility.yul\":1738:1744   */\n      dup4\n        /* \"#utility.yul\":1733:1736   */\n      dup4\n        /* \"#utility.yul\":1729:1745   */\n      add\n        /* \"#utility.yul\":1722:1749   */\n      mstore\n        /* \"#utility.yul\":1609:1755   */\n      pop\n      pop\n      pop\n      jump\t// out\n        /* \"#utility.yul\":1761:2184   */\n    tag_170:\n        /* \"#utility.yul\":1838:1843   */\n      0x00\n        /* \"#utility.yul\":1863:1928   */\n      tag_231\n        /* \"#utility.yul\":1879:1927   */\n      tag_232\n        /* \"#utility.yul\":1920:1926   */\n      dup5\n        /* \"#utility.yul\":1879:1927   */\n      tag_168\n      jump\t// in\n    tag_232:\n        /* \"#utility.yul\":1863:1928   */\n      tag_167\n      jump\t// in\n    tag_231:\n        /* \"#utility.yul\":1854:1928   */\n      swap1\n      pop\n        /* \"#utility.yul\":1951:1957   */\n      dup3\n        /* \"#utility.yul\":1944:1949   */\n      dup2\n        /* \"#utility.yul\":1937:1958   */\n      mstore\n        /* \"#utility.yul\":1989:1993   */\n      0x20\n        /* \"#utility.yul\":1982:1987   */\n      dup2\n        /* \"#utility.yul\":1978:1994   */\n      add\n        /* \"#utility.yul\":2027:2030   */\n      dup5\n        /* \"#utility.yul\":2018:2024   */\n      dup5\n        /* \"#utility.yul\":2013:2016   */\n      dup5\n        /* \"#utility.yul\":2009:2025   */\n      add\n        /* \"#utility.yul\":2006:2031   */\n      gt\n        /* \"#utility.yul\":2003:2115   */\n      iszero\n      tag_233\n      jumpi\n        /* \"#utility.yul\":2034:2113   */\n      tag_234\n      tag_164\n      jump\t// in\n    tag_234:\n        /* \"#utility.yul\":2003:2115   */\n    tag_233:\n        /* \"#utility.yul\":2124:2178   */\n      tag_235\n        /* \"#utility.yul\":2171:2177   */\n      dup5\n        /* \"#utility.yul\":2166:2169   */\n      dup3\n        /* \"#utility.yul\":2161:2164   */\n      dup6\n        /* \"#utility.yul\":2124:2178   */\n      tag_169\n      jump\t// in\n    tag_235:\n        /* \"#utility.yul\":1844:2184   */\n      pop\n        /* \"#utility.yul\":1761:2184   */\n      swap4\n      swap3\n      pop\n      pop\n      pop\n      jump\t// out\n        /* \"#utility.yul\":2203:2541   */\n    tag_171:\n        /* \"#utility.yul\":2258:2263   */\n      0x00\n        /* \"#utility.yul\":2307:2310   */\n      dup3\n        /* \"#utility.yul\":2300:2304   */\n      0x1f\n        /* \"#utility.yul\":2292:2298   */\n      dup4\n        /* \"#utility.yul\":2288:2305   */\n      add\n        /* \"#utility.yul\":2284:2311   */\n      slt\n        /* \"#utility.yul\":2274:2396   */\n      tag_237\n      jumpi\n        /* \"#utility.yul\":2315:2394   */\n      tag_238\n      tag_163\n      jump\t// in\n    tag_238:\n        /* \"#utility.yul\":2274:2396   */\n    tag_237:\n        /* \"#utility.yul\":2432:2438   */\n      dup2\n        /* \"#utility.yul\":2419:2439   */\n      calldataload\n        /* \"#utility.yul\":2457:2535   */\n      tag_239\n        /* \"#utility.yul\":2531:2534   */\n      dup5\n        /* \"#utility.yul\":2523:2529   */\n      dup3\n        /* \"#utility.yul\":2516:2520   */\n      0x20\n        /* \"#utility.yul\":2508:2514   */\n      dup7\n        /* \"#utility.yul\":2504:2521   */\n      add\n        /* \"#utility.yul\":2457:2535   */\n      tag_170\n      jump\t// in\n    tag_239:\n        /* \"#utility.yul\":2448:2535   */\n      swap2\n      pop\n        /* \"#utility.yul\":2264:2541   */\n      pop\n        /* \"#utility.yul\":2203:2541   */\n      swap3\n      swap2\n      pop\n      pop\n      jump\t// out\n        /* \"#utility.yul\":2547:3054   */\n    tag_14:\n        /* \"#utility.yul\":2615:2621   */\n      0x00\n        /* \"#utility.yul\":2664:2666   */\n      0x20\n        /* \"#utility.yul\":2652:2661   */\n      dup3\n        /* \"#utility.yul\":2643:2650   */\n      dup5\n        /* \"#utility.yul\":2639:2662   */\n      sub\n        /* \"#utility.yul\":2635:2667   */\n      slt\n        /* \"#utility.yul\":2632:2751   */\n      iszero\n      tag_241\n      jumpi\n        /* \"#utility.yul\":2670:2749   */\n      tag_242\n      tag_161\n      jump\t// in\n    tag_242:\n        /* \"#utility.yul\":2632:2751   */\n    tag_241:\n        /* \"#utility.yul\":2818:2819   */\n      0x00\n        /* \"#utility.yul\":2807:2816   */\n      dup3\n        /* \"#utility.yul\":2803:2820   */\n      add\n        /* \"#utility.yul\":2790:2821   */\n      calldataload\n        /* \"#utility.yul\":2848:2866   */\n      0xffffffffffffffff\n        /* \"#utility.yul\":2840:2846   */\n      dup2\n        /* \"#utility.yul\":2837:2867   */\n      gt\n        /* \"#utility.yul\":2834:2951   */\n      iszero\n      tag_243\n      jumpi\n        /* \"#utility.yul\":2870:2949   */\n      tag_244\n      tag_162\n      jump\t// in\n    tag_244:\n        /* \"#utility.yul\":2834:2951   */\n    tag_243:\n        /* \"#utility.yul\":2975:3037   */\n      tag_245\n        /* \"#utility.yul\":3029:3036   */\n      dup5\n        /* \"#utility.yul\":3020:3026   */\n      dup3\n        /* \"#utility.yul\":3009:3018   */\n      dup6\n        /* \"#utility.yul\":3005:3027   */\n      add\n        /* \"#utility.yul\":2975:3037   */\n      tag_171\n      jump\t// in\n    tag_245:\n        /* \"#utility.yul\":2965:3037   */\n      swap2\n      pop\n        /* \"#utility.yul\":2761:3047   */\n      pop\n        /* \"#utility.yul\":2547:3054   */\n      swap3\n      swap2\n      pop\n      pop\n      jump\t// out\n        /* \"#utility.yul\":3060:3137   */\n    tag_172:\n        /* \"#utility.yul\":3097:3104   */\n      0x00\n        /* \"#utility.yul\":3126:3131   */\n      dup2\n        /* \"#utility.yul\":3115:3131   */\n      swap1\n      pop\n        /* \"#utility.yul\":3060:3137   */\n      swap2\n      swap1\n      pop\n      jump\t// out\n        /* \"#utility.yul\":3143:3265   */\n    tag_173:\n        /* \"#utility.yul\":3216:3240   */\n      tag_248\n        /* \"#utility.yul\":3234:3239   */\n      dup2\n        /* \"#utility.yul\":3216:3240   */\n      tag_172\n      jump\t// in\n    tag_248:\n        /* \"#utility.yul\":3209:3214   */\n      dup2\n        /* \"#utility.yul\":3206:3241   */\n      eq\n        /* \"#utility.yul\":3196:3259   */\n      tag_249\n      jumpi\n        /* \"#utility.yul\":3255:3256   */\n      0x00\n        /* \"#utility.yul\":3252:3253   */\n      dup1\n        /* \"#utility.yul\":3245:3257   */\n      revert\n        /* \"#utility.yul\":3196:3259   */\n    tag_249:\n        /* \"#utility.yul\":3143:3265   */\n      pop\n      jump\t// out\n        /* \"#utility.yul\":3271:3410   */\n    tag_174:\n        /* \"#utility.yul\":3317:3322   */\n      0x00\n        /* \"#utility.yul\":3355:3361   */\n      dup2\n        /* \"#utility.yul\":3342:3362   */\n      calldataload\n        /* \"#utility.yul\":3333:3362   */\n      swap1\n      pop\n        /* \"#utility.yul\":3371:3404   */\n      tag_251\n        /* \"#utility.yul\":3398:3403   */\n      dup2\n        /* \"#utility.yul\":3371:3404   */\n      tag_173\n      jump\t// in\n    tag_251:\n        /* \"#utility.yul\":3271:3410   */\n      swap3\n      swap2\n      pop\n      pop\n      jump\t// out\n        /* \"#utility.yul\":3416:3745   */\n    tag_20:\n        /* \"#utility.yul\":3475:3481   */\n      0x00\n        /* \"#utility.yul\":3524:3526   */\n      0x20\n        /* \"#utility.yul\":3512:3521   */\n      dup3\n        /* \"#utility.yul\":3503:3510   */\n      dup5\n        /* \"#utility.yul\":3499:3522   */\n      sub\n        /* \"#utility.yul\":3495:3527   */\n      slt\n        /* \"#utility.yul\":3492:3611   */\n      iszero\n      tag_253\n      jumpi\n        /* \"#utility.yul\":3530:3609   */\n      tag_254\n      tag_161\n      jump\t// in\n    tag_254:\n        /* \"#utility.yul\":3492:3611   */\n    tag_253:\n        /* \"#utility.yul\":3650:3651   */\n      0x00\n        /* \"#utility.yul\":3675:3728   */\n      tag_255\n        /* \"#utility.yul\":3720:3727   */\n      dup5\n        /* \"#utility.yul\":3711:3717   */\n      dup3\n        /* \"#utility.yul\":3700:3709   */\n      dup6\n        /* \"#utility.yul\":3696:3718   */\n      add\n        /* \"#utility.yul\":3675:3728   */\n      tag_174\n      jump\t// in\n    tag_255:\n        /* \"#utility.yul\":3665:3728   */\n      swap2\n      pop\n        /* \"#utility.yul\":3621:3738   */\n      pop\n        /* \"#utility.yul\":3416:3745   */\n      swap3\n      swap2\n      pop\n      pop\n      jump\t// out\n        /* \"#utility.yul\":3751:3849   */\n    tag_175:\n        /* \"#utility.yul\":3802:3808   */\n      0x00\n        /* \"#utility.yul\":3836:3841   */\n      dup2\n        /* \"#utility.yul\":3830:3842   */\n      mload\n        /* \"#utility.yul\":3820:3842   */\n      swap1\n      pop\n        /* \"#utility.yul\":3751:3849   */\n      swap2\n      swap1\n      pop\n      jump\t// out\n        /* \"#utility.yul\":3855:4023   */\n    tag_176:\n        /* \"#utility.yul\":3938:3949   */\n      0x00\n        /* \"#utility.yul\":3972:3978   */\n      dup3\n        /* \"#utility.yul\":3967:3970   */\n      dup3\n        /* \"#utility.yul\":3960:3979   */\n      mstore\n        /* \"#utility.yul\":4012:4016   */\n      0x20\n        /* \"#utility.yul\":4007:4010   */\n      dup3\n        /* \"#utility.yul\":4003:4017   */\n      add\n        /* \"#utility.yul\":3988:4017   */\n      swap1\n      pop\n        /* \"#utility.yul\":3855:4023   */\n      swap3\n      swap2\n      pop\n      pop\n      jump\t// out\n        /* \"#utility.yul\":4029:4275   */\n    tag_177:\n        /* \"#utility.yul\":4110:4111   */\n      0x00\n        /* \"#utility.yul\":4120:4233   */\n    tag_259:\n        /* \"#utility.yul\":4134:4140   */\n      dup4\n        /* \"#utility.yul\":4131:4132   */\n      dup2\n        /* \"#utility.yul\":4128:4141   */\n      lt\n        /* \"#utility.yul\":4120:4233   */\n      iszero\n      tag_261\n      jumpi\n        /* \"#utility.yul\":4219:4220   */\n      dup1\n        /* \"#utility.yul\":4214:4217   */\n      dup3\n        /* \"#utility.yul\":4210:4221   */\n      add\n        /* \"#utility.yul\":4204:4222   */\n      mload\n        /* \"#utility.yul\":4200:4201   */\n      dup2\n        /* \"#utility.yul\":4195:4198   */\n      dup5\n        /* \"#utility.yul\":4191:4202   */\n      add\n        /* \"#utility.yul\":4184:4223   */\n      mstore\n        /* \"#utility.yul\":4156:4158   */\n      0x20\n        /* \"#utility.yul\":4153:4154   */\n      dup2\n        /* \"#utility.yul\":4149:4159   */\n      add\n        /* \"#utility.yul\":4144:4159   */\n      swap1\n      pop\n        /* \"#utility.yul\":4120:4233   */\n      jump(tag_259)\n    tag_261:\n        /* \"#utility.yul\":4267:4268   */\n      0x00\n        /* \"#utility.yul\":4258:4264   */\n      dup5\n        /* \"#utility.yul\":4253:4256   */\n      dup5\n        /* \"#utility.yul\":4249:4265   */\n      add\n        /* \"#utility.yul\":4242:4269   */\n      mstore\n        /* \"#utility.yul\":4091:4275   */\n      pop\n        /* \"#utility.yul\":4029:4275   */\n      pop\n      pop\n      pop\n      jump\t// out\n        /* \"#utility.yul\":4281:4654   */\n    tag_178:\n        /* \"#utility.yul\":4367:4370   */\n      0x00\n        /* \"#utility.yul\":4395:4433   */\n      tag_263\n        /* \"#utility.yul\":4427:4432   */\n      dup3\n        /* \"#utility.yul\":4395:4433   */\n      tag_175\n      jump\t// in\n    tag_263:\n        /* \"#utility.yul\":4449:4519   */\n      tag_264\n        /* \"#utility.yul\":4512:4518   */\n      dup2\n        /* \"#utility.yul\":4507:4510   */\n      dup6\n        /* \"#utility.yul\":4449:4519   */\n      tag_176\n      jump\t// in\n    tag_264:\n        /* \"#utility.yul\":4442:4519   */\n      swap4\n      pop\n        /* \"#utility.yul\":4528:4593   */\n      tag_265\n        /* \"#utility.yul\":4586:4592   */\n      dup2\n        /* \"#utility.yul\":4581:4584   */\n      dup6\n        /* \"#utility.yul\":4574:4578   */\n      0x20\n        /* \"#utility.yul\":4567:4572   */\n      dup7\n        /* \"#utility.yul\":4563:4579   */\n      add\n        /* \"#utility.yul\":4528:4593   */\n      tag_177\n      jump\t// in\n    tag_265:\n        /* \"#utility.yul\":4618:4647   */\n      tag_266\n        /* \"#utility.yul\":4640:4646   */\n      dup2\n        /* \"#utility.yul\":4618:4647   */\n      tag_165\n      jump\t// in\n    tag_266:\n        /* \"#utility.yul\":4613:4616   */\n      dup5\n        /* \"#utility.yul\":4609:4648   */\n      add\n        /* \"#utility.yul\":4602:4648   */\n      swap2\n      pop\n        /* \"#utility.yul\":4371:4654   */\n      pop\n        /* \"#utility.yul\":4281:4654   */\n      swap3\n      swap2\n      pop\n      pop\n      jump\t// out\n        /* \"#utility.yul\":4660:4969   */\n    tag_23:\n        /* \"#utility.yul\":4771:4775   */\n      0x00\n        /* \"#utility.yul\":4809:4811   */\n      0x20\n        /* \"#utility.yul\":4798:4807   */\n      dup3\n        /* \"#utility.yul\":4794:4812   */\n      add\n        /* \"#utility.yul\":4786:4812   */\n      swap1\n      pop\n        /* \"#utility.yul\":4858:4867   */\n      dup2\n        /* \"#utility.yul\":4852:4856   */\n      dup2\n        /* \"#utility.yul\":4848:4868   */\n      sub\n        /* \"#utility.yul\":4844:4845   */\n      0x00\n        /* \"#utility.yul\":4833:4842   */\n      dup4\n        /* \"#utility.yul\":4829:4846   */\n      add\n        /* \"#utility.yul\":4822:4869   */\n      mstore\n        /* \"#utility.yul\":4886:4962   */\n      tag_268\n        /* \"#utility.yul\":4957:4961   */\n      dup2\n        /* \"#utility.yul\":4948:4954   */\n      dup5\n        /* \"#utility.yul\":4886:4962   */\n      tag_178\n      jump\t// in\n    tag_268:\n        /* \"#utility.yul\":4878:4962   */\n      swap1\n      pop\n        /* \"#utility.yul\":4660:4969   */\n      swap3\n      swap2\n      pop\n      pop\n      jump\t// out\n        /* \"#utility.yul\":4975:5286   */\n    tag_179:\n        /* \"#utility.yul\":5052:5056   */\n      0x00\n        /* \"#utility.yul\":5142:5160   */\n      0xffffffffffffffff\n        /* \"#utility.yul\":5134:5140   */\n      dup3\n        /* \"#utility.yul\":5131:5161   */\n      gt\n        /* \"#utility.yul\":5128:5184   */\n      iszero\n      tag_270\n      jumpi\n        /* \"#utility.yul\":5164:5182   */\n      tag_271\n      tag_74\n      jump\t// in\n    tag_271:\n        /* \"#utility.yul\":5128:5184   */\n    tag_270:\n        /* \"#utility.yul\":5214:5218   */\n      0x20\n        /* \"#utility.yul\":5206:5212   */\n      dup3\n        /* \"#utility.yul\":5202:5219   */\n      mul\n        /* \"#utility.yul\":5194:5219   */\n      swap1\n      pop\n        /* \"#utility.yul\":5274:5278   */\n      0x20\n        /* \"#utility.yul\":5268:5272   */\n      dup2\n        /* \"#utility.yul\":5264:5279   */\n      add\n        /* \"#utility.yul\":5256:5279   */\n      swap1\n      pop\n        /* \"#utility.yul\":4975:5286   */\n      swap2\n      swap1\n      pop\n      jump\t// out\n        /* \"#utility.yul\":5292:5409   */\n    tag_180:\n        /* \"#utility.yul\":5401:5402   */\n      0x00\n        /* \"#utility.yul\":5398:5399   */\n      dup1\n        /* \"#utility.yul\":5391:5403   */\n      revert\n        /* \"#utility.yul\":5432:6142   */\n    tag_181:\n        /* \"#utility.yul\":5528:5533   */\n      0x00\n        /* \"#utility.yul\":5553:5634   */\n      tag_274\n        /* \"#utility.yul\":5569:5633   */\n      tag_275\n        /* \"#utility.yul\":5626:5632   */\n      dup5\n        /* \"#utility.yul\":5569:5633   */\n      tag_179\n      jump\t// in\n    tag_275:\n        /* \"#utility.yul\":5553:5634   */\n      tag_167\n      jump\t// in\n    tag_274:\n        /* \"#utility.yul\":5544:5634   */\n      swap1\n      pop\n        /* \"#utility.yul\":5654:5659   */\n      dup1\n        /* \"#utility.yul\":5683:5689   */\n      dup4\n        /* \"#utility.yul\":5676:5681   */\n      dup3\n        /* \"#utility.yul\":5669:5690   */\n      mstore\n        /* \"#utility.yul\":5717:5721   */\n      0x20\n        /* \"#utility.yul\":5710:5715   */\n      dup3\n        /* \"#utility.yul\":5706:5722   */\n      add\n        /* \"#utility.yul\":5699:5722   */\n      swap1\n      pop\n        /* \"#utility.yul\":5770:5774   */\n      0x20\n        /* \"#utility.yul\":5762:5768   */\n      dup5\n        /* \"#utility.yul\":5758:5775   */\n      mul\n        /* \"#utility.yul\":5750:5756   */\n      dup4\n        /* \"#utility.yul\":5746:5776   */\n      add\n        /* \"#utility.yul\":5799:5802   */\n      dup6\n        /* \"#utility.yul\":5791:5797   */\n      dup2\n        /* \"#utility.yul\":5788:5803   */\n      gt\n        /* \"#utility.yul\":5785:5907   */\n      iszero\n      tag_276\n      jumpi\n        /* \"#utility.yul\":5818:5897   */\n      tag_277\n      tag_180\n      jump\t// in\n    tag_277:\n        /* \"#utility.yul\":5785:5907   */\n    tag_276:\n        /* \"#utility.yul\":5933:5939   */\n      dup4\n        /* \"#utility.yul\":5916:6136   */\n    tag_278:\n        /* \"#utility.yul\":5950:5956   */\n      dup2\n        /* \"#utility.yul\":5945:5948   */\n      dup2\n        /* \"#utility.yul\":5942:5957   */\n      lt\n        /* \"#utility.yul\":5916:6136   */\n      iszero\n      tag_280\n      jumpi\n        /* \"#utility.yul\":6025:6028   */\n      dup1\n        /* \"#utility.yul\":6054:6091   */\n      tag_281\n        /* \"#utility.yul\":6087:6090   */\n      dup9\n        /* \"#utility.yul\":6075:6085   */\n      dup3\n        /* \"#utility.yul\":6054:6091   */\n      tag_174\n      jump\t// in\n    tag_281:\n        /* \"#utility.yul\":6049:6052   */\n      dup5\n        /* \"#utility.yul\":6042:6092   */\n      mstore\n        /* \"#utility.yul\":6121:6125   */\n      0x20\n        /* \"#utility.yul\":6116:6119   */\n      dup5\n        /* \"#utility.yul\":6112:6126   */\n      add\n        /* \"#utility.yul\":6105:6126   */\n      swap4\n      pop\n        /* \"#utility.yul\":5992:6136   */\n      pop\n        /* \"#utility.yul\":5976:5980   */\n      0x20\n        /* \"#utility.yul\":5971:5974   */\n      dup2\n        /* \"#utility.yul\":5967:5981   */\n      add\n        /* \"#utility.yul\":5960:5981   */\n      swap1\n      pop\n        /* \"#utility.yul\":5916:6136   */\n      jump(tag_278)\n    tag_280:\n        /* \"#utility.yul\":5920:5941   */\n      pop\n        /* \"#utility.yul\":5534:6142   */\n      pop\n      pop\n        /* \"#utility.yul\":5432:6142   */\n      swap4\n      swap3\n      pop\n      pop\n      pop\n      jump\t// out\n        /* \"#utility.yul\":6165:6535   */\n    tag_182:\n        /* \"#utility.yul\":6236:6241   */\n      0x00\n        /* \"#utility.yul\":6285:6288   */\n      dup3\n        /* \"#utility.yul\":6278:6282   */\n      0x1f\n        /* \"#utility.yul\":6270:6276   */\n      dup4\n        /* \"#utility.yul\":6266:6283   */\n      add\n        /* \"#utility.yul\":6262:6289   */\n      slt\n        /* \"#utility.yul\":6252:6374   */\n      tag_283\n      jumpi\n        /* \"#utility.yul\":6293:6372   */\n      tag_284\n      tag_163\n      jump\t// in\n    tag_284:\n        /* \"#utility.yul\":6252:6374   */\n    tag_283:\n        /* \"#utility.yul\":6410:6416   */\n      dup2\n        /* \"#utility.yul\":6397:6417   */\n      calldataload\n        /* \"#utility.yul\":6435:6529   */\n      tag_285\n        /* \"#utility.yul\":6525:6528   */\n      dup5\n        /* \"#utility.yul\":6517:6523   */\n      dup3\n        /* \"#utility.yul\":6510:6514   */\n      0x20\n        /* \"#utility.yul\":6502:6508   */\n      dup7\n        /* \"#utility.yul\":6498:6515   */\n      add\n        /* \"#utility.yul\":6435:6529   */\n      tag_181\n      jump\t// in\n    tag_285:\n        /* \"#utility.yul\":6426:6529   */\n      swap2\n      pop\n        /* \"#utility.yul\":6242:6535   */\n      pop\n        /* \"#utility.yul\":6165:6535   */\n      swap3\n      swap2\n      pop\n      pop\n      jump\t// out\n        /* \"#utility.yul\":6541:7080   */\n    tag_26:\n        /* \"#utility.yul\":6625:6631   */\n      0x00\n        /* \"#utility.yul\":6674:6676   */\n      0x20\n        /* \"#utility.yul\":6662:6671   */\n      dup3\n        /* \"#utility.yul\":6653:6660   */\n      dup5\n        /* \"#utility.yul\":6649:6672   */\n      sub\n        /* \"#utility.yul\":6645:6677   */\n      slt\n        /* \"#utility.yul\":6642:6761   */\n      iszero\n      tag_287\n      jumpi\n        /* \"#utility.yul\":6680:6759   */\n      tag_288\n      tag_161\n      jump\t// in\n    tag_288:\n        /* \"#utility.yul\":6642:6761   */\n    tag_287:\n        /* \"#utility.yul\":6828:6829   */\n      0x00\n        /* \"#utility.yul\":6817:6826   */\n      dup3\n        /* \"#utility.yul\":6813:6830   */\n      add\n        /* \"#utility.yul\":6800:6831   */\n      calldataload\n        /* \"#utility.yul\":6858:6876   */\n      0xffffffffffffffff\n        /* \"#utility.yul\":6850:6856   */\n      dup2\n        /* \"#utility.yul\":6847:6877   */\n      gt\n        /* \"#utility.yul\":6844:6961   */\n      iszero\n      tag_289\n      jumpi\n        /* \"#utility.yul\":6880:6959   */\n      tag_290\n      tag_162\n      jump\t// in\n    tag_290:\n        /* \"#utility.yul\":6844:6961   */\n    tag_289:\n        /* \"#utility.yul\":6985:7063   */\n      tag_291\n        /* \"#utility.yul\":7055:7062   */\n      dup5\n        /* \"#utility.yul\":7046:7052   */\n      dup3\n        /* \"#utility.yul\":7035:7044   */\n      dup6\n        /* \"#utility.yul\":7031:7053   */\n      add\n        /* \"#utility.yul\":6985:7063   */\n      tag_182\n      jump\t// in\n    tag_291:\n        /* \"#utility.yul\":6975:7063   */\n      swap2\n      pop\n        /* \"#utility.yul\":6771:7073   */\n      pop\n        /* \"#utility.yul\":6541:7080   */\n      swap3\n      swap2\n      pop\n      pop\n      jump\t// out\n        /* \"#utility.yul\":7086:7176   */\n    tag_183:\n        /* \"#utility.yul\":7120:7127   */\n      0x00\n        /* \"#utility.yul\":7163:7168   */\n      dup2\n        /* \"#utility.yul\":7156:7169   */\n      iszero\n        /* \"#utility.yul\":7149:7170   */\n      iszero\n        /* \"#utility.yul\":7138:7170   */\n      swap1\n      pop\n        /* \"#utility.yul\":7086:7176   */\n      swap2\n      swap1\n      pop\n      jump\t// out\n        /* \"#utility.yul\":7182:7298   */\n    tag_184:\n        /* \"#utility.yul\":7252:7273   */\n      tag_294\n        /* \"#utility.yul\":7267:7272   */\n      dup2\n        /* \"#utility.yul\":7252:7273   */\n      tag_183\n      jump\t// in\n    tag_294:\n        /* \"#utility.yul\":7245:7250   */\n      dup2\n        /* \"#utility.yul\":7242:7274   */\n      eq\n        /* \"#utility.yul\":7232:7292   */\n      tag_295\n      jumpi\n        /* \"#utility.yul\":7288:7289   */\n      0x00\n        /* \"#utility.yul\":7285:7286   */\n      dup1\n        /* \"#utility.yul\":7278:7290   */\n      revert\n        /* \"#utility.yul\":7232:7292   */\n    tag_295:\n        /* \"#utility.yul\":7182:7298   */\n      pop\n      jump\t// out\n        /* \"#utility.yul\":7304:7437   */\n    tag_185:\n        /* \"#utility.yul\":7347:7352   */\n      0x00\n        /* \"#utility.yul\":7385:7391   */\n      dup2\n        /* \"#utility.yul\":7372:7392   */\n      calldataload\n        /* \"#utility.yul\":7363:7392   */\n      swap1\n      pop\n        /* \"#utility.yul\":7401:7431   */\n      tag_297\n        /* \"#utility.yul\":7425:7430   */\n      dup2\n        /* \"#utility.yul\":7401:7431   */\n      tag_184\n      jump\t// in\n    tag_297:\n        /* \"#utility.yul\":7304:7437   */\n      swap3\n      swap2\n      pop\n      pop\n      jump\t// out\n        /* \"#utility.yul\":7443:8050   */\n    tag_30:\n        /* \"#utility.yul\":7514:7520   */\n      0x00\n        /* \"#utility.yul\":7522:7528   */\n      dup1\n        /* \"#utility.yul\":7530:7536   */\n      0x00\n        /* \"#utility.yul\":7579:7581   */\n      0x60\n        /* \"#utility.yul\":7567:7576   */\n      dup5\n        /* \"#utility.yul\":7558:7565   */\n      dup7\n        /* \"#utility.yul\":7554:7577   */\n      sub\n        /* \"#utility.yul\":7550:7582   */\n      slt\n        /* \"#utility.yul\":7547:7666   */\n      iszero\n      tag_299\n      jumpi\n        /* \"#utility.yul\":7585:7664   */\n      tag_300\n      tag_161\n      jump\t// in\n    tag_300:\n        /* \"#utility.yul\":7547:7666   */\n    tag_299:\n        /* \"#utility.yul\":7705:7706   */\n      0x00\n        /* \"#utility.yul\":7730:7783   */\n      tag_301\n        /* \"#utility.yul\":7775:7782   */\n      dup7\n        /* \"#utility.yul\":7766:7772   */\n      dup3\n        /* \"#utility.yul\":7755:7764   */\n      dup8\n        /* \"#utility.yul\":7751:7773   */\n      add\n        /* \"#utility.yul\":7730:7783   */\n      tag_174\n      jump\t// in\n    tag_301:\n        /* \"#utility.yul\":7720:7783   */\n      swap4\n      pop\n        /* \"#utility.yul\":7676:7793   */\n      pop\n        /* \"#utility.yul\":7832:7834   */\n      0x20\n        /* \"#utility.yul\":7858:7908   */\n      tag_302\n        /* \"#utility.yul\":7900:7907   */\n      dup7\n        /* \"#utility.yul\":7891:7897   */\n      dup3\n        /* \"#utility.yul\":7880:7889   */\n      dup8\n        /* \"#utility.yul\":7876:7898   */\n      add\n        /* \"#utility.yul\":7858:7908   */\n      tag_185\n      jump\t// in\n    tag_302:\n        /* \"#utility.yul\":7848:7908   */\n      swap3\n      pop\n        /* \"#utility.yul\":7803:7918   */\n      pop\n        /* \"#utility.yul\":7957:7959   */\n      0x40\n        /* \"#utility.yul\":7983:8033   */\n      tag_303\n        /* \"#utility.yul\":8025:8032   */\n      dup7\n        /* \"#utility.yul\":8016:8022   */\n      dup3\n        /* \"#utility.yul\":8005:8014   */\n      dup8\n        /* \"#utility.yul\":8001:8023   */\n      add\n        /* \"#utility.yul\":7983:8033   */\n      tag_185\n      jump\t// in\n    tag_303:\n        /* \"#utility.yul\":7973:8033   */\n      swap2\n      pop\n        /* \"#utility.yul\":7928:8043   */\n      pop\n        /* \"#utility.yul\":7443:8050   */\n      swap3\n      pop\n      swap3\n      pop\n      swap3\n      jump\t// out\n        /* \"#utility.yul\":8056:8302   */\n    tag_186:\n        /* \"#utility.yul\":8128:8132   */\n      0x00\n        /* \"#utility.yul\":8218:8236   */\n      0xffffffffffffffff\n        /* \"#utility.yul\":8210:8216   */\n      dup3\n        /* \"#utility.yul\":8207:8237   */\n      gt\n        /* \"#utility.yul\":8204:8260   */\n      iszero\n      tag_305\n      jumpi\n        /* \"#utility.yul\":8240:8258   */\n      tag_306\n      tag_74\n      jump\t// in\n    tag_306:\n        /* \"#utility.yul\":8204:8260   */\n    tag_305:\n        /* \"#utility.yul\":8290:8294   */\n      0x20\n        /* \"#utility.yul\":8282:8288   */\n      dup3\n        /* \"#utility.yul\":8278:8295   */\n      mul\n        /* \"#utility.yul\":8270:8295   */\n      swap1\n      pop\n        /* \"#utility.yul\":8056:8302   */\n      swap2\n      swap1\n      pop\n      jump\t// out\n        /* \"#utility.yul\":8323:8957   */\n    tag_187:\n        /* \"#utility.yul\":8414:8419   */\n      0x00\n        /* \"#utility.yul\":8439:8515   */\n      tag_308\n        /* \"#utility.yul\":8455:8514   */\n      tag_309\n        /* \"#utility.yul\":8507:8513   */\n      dup5\n        /* \"#utility.yul\":8455:8514   */\n      tag_186\n      jump\t// in\n    tag_309:\n        /* \"#utility.yul\":8439:8515   */\n      tag_167\n      jump\t// in\n    tag_308:\n        /* \"#utility.yul\":8430:8515   */\n      swap1\n      pop\n        /* \"#utility.yul\":8535:8540   */\n      dup1\n        /* \"#utility.yul\":8588:8592   */\n      0x20\n        /* \"#utility.yul\":8580:8586   */\n      dup5\n        /* \"#utility.yul\":8576:8593   */\n      mul\n        /* \"#utility.yul\":8568:8574   */\n      dup4\n        /* \"#utility.yul\":8564:8594   */\n      add\n        /* \"#utility.yul\":8617:8620   */\n      dup6\n        /* \"#utility.yul\":8609:8615   */\n      dup2\n        /* \"#utility.yul\":8606:8621   */\n      gt\n        /* \"#utility.yul\":8603:8725   */\n      iszero\n      tag_310\n      jumpi\n        /* \"#utility.yul\":8636:8715   */\n      tag_311\n      tag_180\n      jump\t// in\n    tag_311:\n        /* \"#utility.yul\":8603:8725   */\n    tag_310:\n        /* \"#utility.yul\":8751:8757   */\n      dup4\n        /* \"#utility.yul\":8734:8951   */\n    tag_312:\n        /* \"#utility.yul\":8768:8774   */\n      dup2\n        /* \"#utility.yul\":8763:8766   */\n      dup2\n        /* \"#utility.yul\":8760:8775   */\n      lt\n        /* \"#utility.yul\":8734:8951   */\n      iszero\n      tag_314\n      jumpi\n        /* \"#utility.yul\":8843:8846   */\n      dup1\n        /* \"#utility.yul\":8872:8906   */\n      tag_315\n        /* \"#utility.yul\":8902:8905   */\n      dup9\n        /* \"#utility.yul\":8890:8900   */\n      dup3\n        /* \"#utility.yul\":8872:8906   */\n      tag_185\n      jump\t// in\n    tag_315:\n        /* \"#utility.yul\":8867:8870   */\n      dup5\n        /* \"#utility.yul\":8860:8907   */\n      mstore\n        /* \"#utility.yul\":8936:8940   */\n      0x20\n        /* \"#utility.yul\":8931:8934   */\n      dup5\n        /* \"#utility.yul\":8927:8941   */\n      add\n        /* \"#utility.yul\":8920:8941   */\n      swap4\n      pop\n        /* \"#utility.yul\":8810:8951   */\n      pop\n        /* \"#utility.yul\":8794:8798   */\n      0x20\n        /* \"#utility.yul\":8789:8792   */\n      dup2\n        /* \"#utility.yul\":8785:8799   */\n      add\n        /* \"#utility.yul\":8778:8799   */\n      swap1\n      pop\n        /* \"#utility.yul\":8734:8951   */\n      jump(tag_312)\n    tag_314:\n        /* \"#utility.yul\":8738:8759   */\n      pop\n        /* \"#utility.yul\":8420:8957   */\n      pop\n      pop\n        /* \"#utility.yul\":8323:8957   */\n      swap4\n      swap3\n      pop\n      pop\n      pop\n      jump\t// out\n        /* \"#utility.yul\":8978:9311   */\n    tag_188:\n        /* \"#utility.yul\":9044:9049   */\n      0x00\n        /* \"#utility.yul\":9093:9096   */\n      dup3\n        /* \"#utility.yul\":9086:9090   */\n      0x1f\n        /* \"#utility.yul\":9078:9084   */\n      dup4\n        /* \"#utility.yul\":9074:9091   */\n      add\n        /* \"#utility.yul\":9070:9097   */\n      slt\n        /* \"#utility.yul\":9060:9182   */\n      tag_317\n      jumpi\n        /* \"#utility.yul\":9101:9180   */\n      tag_318\n      tag_163\n      jump\t// in\n    tag_318:\n        /* \"#utility.yul\":9060:9182   */\n    tag_317:\n        /* \"#utility.yul\":9205:9209   */\n      0x02\n        /* \"#utility.yul\":9227:9305   */\n      tag_319\n        /* \"#utility.yul\":9301:9304   */\n      dup5\n        /* \"#utility.yul\":9293:9299   */\n      dup3\n        /* \"#utility.yul\":9285:9291   */\n      dup6\n        /* \"#utility.yul\":9227:9305   */\n      tag_187\n      jump\t// in\n    tag_319:\n        /* \"#utility.yul\":9218:9305   */\n      swap2\n      pop\n        /* \"#utility.yul\":9050:9311   */\n      pop\n        /* \"#utility.yul\":8978:9311   */\n      swap3\n      swap2\n      pop\n      pop\n      jump\t// out\n        /* \"#utility.yul\":9317:9686   */\n    tag_34:\n        /* \"#utility.yul\":9396:9402   */\n      0x00\n        /* \"#utility.yul\":9445:9447   */\n      0x40\n        /* \"#utility.yul\":9433:9442   */\n      dup3\n        /* \"#utility.yul\":9424:9431   */\n      dup5\n        /* \"#utility.yul\":9420:9443   */\n      sub\n        /* \"#utility.yul\":9416:9448   */\n      slt\n        /* \"#utility.yul\":9413:9532   */\n      iszero\n      tag_321\n      jumpi\n        /* \"#utility.yul\":9451:9530   */\n      tag_322\n      tag_161\n      jump\t// in\n    tag_322:\n        /* \"#utility.yul\":9413:9532   */\n    tag_321:\n        /* \"#utility.yul\":9571:9572   */\n      0x00\n        /* \"#utility.yul\":9596:9669   */\n      tag_323\n        /* \"#utility.yul\":9661:9668   */\n      dup5\n        /* \"#utility.yul\":9652:9658   */\n      dup3\n        /* \"#utility.yul\":9641:9650   */\n      dup6\n        /* \"#utility.yul\":9637:9659   */\n      add\n        /* \"#utility.yul\":9596:9669   */\n      tag_188\n      jump\t// in\n    tag_323:\n        /* \"#utility.yul\":9586:9669   */\n      swap2\n      pop\n        /* \"#utility.yul\":9542:9679   */\n      pop\n        /* \"#utility.yul\":9317:9686   */\n      swap3\n      swap2\n      pop\n      pop\n      jump\t// out\n        /* \"#utility.yul\":9692:9810   */\n    tag_189:\n        /* \"#utility.yul\":9779:9803   */\n      tag_325\n        /* \"#utility.yul\":9797:9802   */\n      dup2\n        /* \"#utility.yul\":9779:9803   */\n      tag_172\n      jump\t// in\n    tag_325:\n        /* \"#utility.yul\":9774:9777   */\n      dup3\n        /* \"#utility.yul\":9767:9804   */\n      mstore\n        /* \"#utility.yul\":9692:9810   */\n      pop\n      pop\n      jump\t// out\n        /* \"#utility.yul\":9816:10038   */\n    tag_37:\n        /* \"#utility.yul\":9909:9913   */\n      0x00\n        /* \"#utility.yul\":9947:9949   */\n      0x20\n        /* \"#utility.yul\":9936:9945   */\n      dup3\n        /* \"#utility.yul\":9932:9950   */\n      add\n        /* \"#utility.yul\":9924:9950   */\n      swap1\n      pop\n        /* \"#utility.yul\":9960:10031   */\n      tag_327\n        /* \"#utility.yul\":10028:10029   */\n      0x00\n        /* \"#utility.yul\":10017:10026   */\n      dup4\n        /* \"#utility.yul\":10013:10030   */\n      add\n        /* \"#utility.yul\":10004:10010   */\n      dup5\n        /* \"#utility.yul\":9960:10031   */\n      tag_189\n      jump\t// in\n    tag_327:\n        /* \"#utility.yul\":9816:10038   */\n      swap3\n      swap2\n      pop\n      pop\n      jump\t// out\n        /* \"#utility.yul\":10044:10375   */\n    tag_190:\n        /* \"#utility.yul\":10141:10145   */\n      0x00\n        /* \"#utility.yul\":10231:10249   */\n      0xffffffffffffffff\n        /* \"#utility.yul\":10223:10229   */\n      dup3\n        /* \"#utility.yul\":10220:10250   */\n      gt\n        /* \"#utility.yul\":10217:10273   */\n      iszero\n      tag_329\n      jumpi\n        /* \"#utility.yul\":10253:10271   */\n      tag_330\n      tag_74\n      jump\t// in\n    tag_330:\n        /* \"#utility.yul\":10217:10273   */\n    tag_329:\n        /* \"#utility.yul\":10303:10307   */\n      0x20\n        /* \"#utility.yul\":10295:10301   */\n      dup3\n        /* \"#utility.yul\":10291:10308   */\n      mul\n        /* \"#utility.yul\":10283:10308   */\n      swap1\n      pop\n        /* \"#utility.yul\":10363:10367   */\n      0x20\n        /* \"#utility.yul\":10357:10361   */\n      dup2\n        /* \"#utility.yul\":10353:10368   */\n      add\n        /* \"#utility.yul\":10345:10368   */\n      swap1\n      pop\n        /* \"#utility.yul\":10044:10375   */\n      swap2\n      swap1\n      pop\n      jump\t// out\n        /* \"#utility.yul\":10398:11168   */\n    tag_191:\n        /* \"#utility.yul\":10514:10519   */\n      0x00\n        /* \"#utility.yul\":10539:10640   */\n      tag_332\n        /* \"#utility.yul\":10555:10639   */\n      tag_333\n        /* \"#utility.yul\":10632:10638   */\n      dup5\n        /* \"#utility.yul\":10555:10639   */\n      tag_190\n      jump\t// in\n    tag_333:\n        /* \"#utility.yul\":10539:10640   */\n      tag_167\n      jump\t// in\n    tag_332:\n        /* \"#utility.yul\":10530:10640   */\n      swap1\n      pop\n        /* \"#utility.yul\":10660:10665   */\n      dup1\n        /* \"#utility.yul\":10689:10695   */\n      dup4\n        /* \"#utility.yul\":10682:10687   */\n      dup3\n        /* \"#utility.yul\":10675:10696   */\n      mstore\n        /* \"#utility.yul\":10723:10727   */\n      0x20\n        /* \"#utility.yul\":10716:10721   */\n      dup3\n        /* \"#utility.yul\":10712:10728   */\n      add\n        /* \"#utility.yul\":10705:10728   */\n      swap1\n      pop\n        /* \"#utility.yul\":10776:10780   */\n      0x40\n        /* \"#utility.yul\":10768:10774   */\n      dup5\n        /* \"#utility.yul\":10764:10781   */\n      mul\n        /* \"#utility.yul\":10756:10762   */\n      dup4\n        /* \"#utility.yul\":10752:10782   */\n      add\n        /* \"#utility.yul\":10805:10808   */\n      dup6\n        /* \"#utility.yul\":10797:10803   */\n      dup2\n        /* \"#utility.yul\":10794:10809   */\n      gt\n        /* \"#utility.yul\":10791:10913   */\n      iszero\n      tag_334\n      jumpi\n        /* \"#utility.yul\":10824:10903   */\n      tag_335\n      tag_180\n      jump\t// in\n    tag_335:\n        /* \"#utility.yul\":10791:10913   */\n    tag_334:\n        /* \"#utility.yul\":10939:10945   */\n      dup4\n        /* \"#utility.yul\":10922:11162   */\n    tag_336:\n        /* \"#utility.yul\":10956:10962   */\n      dup2\n        /* \"#utility.yul\":10951:10954   */\n      dup2\n        /* \"#utility.yul\":10948:10963   */\n      lt\n        /* \"#utility.yul\":10922:11162   */\n      iszero\n      tag_338\n      jumpi\n        /* \"#utility.yul\":11031:11034   */\n      dup1\n        /* \"#utility.yul\":11060:11117   */\n      tag_339\n        /* \"#utility.yul\":11113:11116   */\n      dup9\n        /* \"#utility.yul\":11101:11111   */\n      dup3\n        /* \"#utility.yul\":11060:11117   */\n      tag_188\n      jump\t// in\n    tag_339:\n        /* \"#utility.yul\":11055:11058   */\n      dup5\n        /* \"#utility.yul\":11048:11118   */\n      mstore\n        /* \"#utility.yul\":11147:11151   */\n      0x20\n        /* \"#utility.yul\":11142:11145   */\n      dup5\n        /* \"#utility.yul\":11138:11152   */\n      add\n        /* \"#utility.yul\":11131:11152   */\n      swap4\n      pop\n        /* \"#utility.yul\":10998:11162   */\n      pop\n        /* \"#utility.yul\":10982:10986   */\n      0x40\n        /* \"#utility.yul\":10977:10980   */\n      dup2\n        /* \"#utility.yul\":10973:10987   */\n      add\n        /* \"#utility.yul\":10966:10987   */\n      swap1\n      pop\n        /* \"#utility.yul\":10922:11162   */\n      jump(tag_336)\n    tag_338:\n        /* \"#utility.yul\":10926:10947   */\n      pop\n        /* \"#utility.yul\":10520:11168   */\n      pop\n      pop\n        /* \"#utility.yul\":10398:11168   */\n      swap4\n      swap3\n      pop\n      pop\n      pop\n      jump\t// out\n        /* \"#utility.yul\":11191:11601   */\n    tag_192:\n        /* \"#utility.yul\":11282:11287   */\n      0x00\n        /* \"#utility.yul\":11331:11334   */\n      dup3\n        /* \"#utility.yul\":11324:11328   */\n      0x1f\n        /* \"#utility.yul\":11316:11322   */\n      dup4\n        /* \"#utility.yul\":11312:11329   */\n      add\n        /* \"#utility.yul\":11308:11335   */\n      slt\n        /* \"#utility.yul\":11298:11420   */\n      tag_341\n      jumpi\n        /* \"#utility.yul\":11339:11418   */\n      tag_342\n      tag_163\n      jump\t// in\n    tag_342:\n        /* \"#utility.yul\":11298:11420   */\n    tag_341:\n        /* \"#utility.yul\":11456:11462   */\n      dup2\n        /* \"#utility.yul\":11443:11463   */\n      calldataload\n        /* \"#utility.yul\":11481:11595   */\n      tag_343\n        /* \"#utility.yul\":11591:11594   */\n      dup5\n        /* \"#utility.yul\":11583:11589   */\n      dup3\n        /* \"#utility.yul\":11576:11580   */\n      0x20\n        /* \"#utility.yul\":11568:11574   */\n      dup7\n        /* \"#utility.yul\":11564:11581   */\n      add\n        /* \"#utility.yul\":11481:11595   */\n      tag_191\n      jump\t// in\n    tag_343:\n        /* \"#utility.yul\":11472:11595   */\n      swap2\n      pop\n        /* \"#utility.yul\":11288:11601   */\n      pop\n        /* \"#utility.yul\":11191:11601   */\n      swap3\n      swap2\n      pop\n      pop\n      jump\t// out\n        /* \"#utility.yul\":11607:12186   */\n    tag_40:\n        /* \"#utility.yul\":11711:11717   */\n      0x00\n        /* \"#utility.yul\":11760:11762   */\n      0x20\n        /* \"#utility.yul\":11748:11757   */\n      dup3\n        /* \"#utility.yul\":11739:11746   */\n      dup5\n        /* \"#utility.yul\":11735:11758   */\n      sub\n        /* \"#utility.yul\":11731:11763   */\n      slt\n        /* \"#utility.yul\":11728:11847   */\n      iszero\n      tag_345\n      jumpi\n        /* \"#utility.yul\":11766:11845   */\n      tag_346\n      tag_161\n      jump\t// in\n    tag_346:\n        /* \"#utility.yul\":11728:11847   */\n    tag_345:\n        /* \"#utility.yul\":11914:11915   */\n      0x00\n        /* \"#utility.yul\":11903:11912   */\n      dup3\n        /* \"#utility.yul\":11899:11916   */\n      add\n        /* \"#utility.yul\":11886:11917   */\n      calldataload\n        /* \"#utility.yul\":11944:11962   */\n      0xffffffffffffffff\n        /* \"#utility.yul\":11936:11942   */\n      dup2\n        /* \"#utility.yul\":11933:11963   */\n      gt\n        /* \"#utility.yul\":11930:12047   */\n      iszero\n      tag_347\n      jumpi\n        /* \"#utility.yul\":11966:12045   */\n      tag_348\n      tag_162\n      jump\t// in\n    tag_348:\n        /* \"#utility.yul\":11930:12047   */\n    tag_347:\n        /* \"#utility.yul\":12071:12169   */\n      tag_349\n        /* \"#utility.yul\":12161:12168   */\n      dup5\n        /* \"#utility.yul\":12152:12158   */\n      dup3\n        /* \"#utility.yul\":12141:12150   */\n      dup6\n        /* \"#utility.yul\":12137:12159   */\n      add\n        /* \"#utility.yul\":12071:12169   */\n      tag_192\n      jump\t// in\n    tag_349:\n        /* \"#utility.yul\":12061:12169   */\n      swap2\n      pop\n        /* \"#utility.yul\":11857:12179   */\n      pop\n        /* \"#utility.yul\":11607:12186   */\n      swap3\n      swap2\n      pop\n      pop\n      jump\t// out\n        /* \"#utility.yul\":12192:12372   */\n    tag_193:\n        /* \"#utility.yul\":12240:12317   */\n      0x4e487b7100000000000000000000000000000000000000000000000000000000\n        /* \"#utility.yul\":12237:12238   */\n      0x00\n        /* \"#utility.yul\":12230:12318   */\n      mstore\n        /* \"#utility.yul\":12337:12341   */\n      0x22\n        /* \"#utility.yul\":12334:12335   */\n      0x04\n        /* \"#utility.yul\":12327:12342   */\n      mstore\n        /* \"#utility.yul\":12361:12365   */\n      0x24\n        /* \"#utility.yul\":12358:12359   */\n      0x00\n        /* \"#utility.yul\":12351:12366   */\n      revert\n        /* \"#utility.yul\":12378:12698   */\n    tag_52:\n        /* \"#utility.yul\":12422:12428   */\n      0x00\n        /* \"#utility.yul\":12459:12460   */\n      0x02\n        /* \"#utility.yul\":12453:12457   */\n      dup3\n        /* \"#utility.yul\":12449:12461   */\n      div\n        /* \"#utility.yul\":12439:12461   */\n      swap1\n      pop\n        /* \"#utility.yul\":12506:12507   */\n      0x01\n        /* \"#utility.yul\":12500:12504   */\n      dup3\n        /* \"#utility.yul\":12496:12508   */\n      and\n        /* \"#utility.yul\":12527:12545   */\n      dup1\n        /* \"#utility.yul\":12517:12598   */\n      tag_352\n      jumpi\n        /* \"#utility.yul\":12583:12587   */\n      0x7f\n        /* \"#utility.yul\":12575:12581   */\n      dup3\n        /* \"#utility.yul\":12571:12588   */\n      and\n        /* \"#utility.yul\":12561:12588   */\n      swap2\n      pop\n        /* \"#utility.yul\":12517:12598   */\n    tag_352:\n        /* \"#utility.yul\":12645:12647   */\n      0x20\n        /* \"#utility.yul\":12637:12643   */\n      dup3\n        /* \"#utility.yul\":12634:12648   */\n      lt\n        /* \"#utility.yul\":12614:12632   */\n      dup2\n        /* \"#utility.yul\":12611:12649   */\n      sub\n        /* \"#utility.yul\":12608:12692   */\n      tag_353\n      jumpi\n        /* \"#utility.yul\":12664:12682   */\n      tag_354\n      tag_193\n      jump\t// in\n    tag_354:\n        /* \"#utility.yul\":12608:12692   */\n    tag_353:\n        /* \"#utility.yul\":12429:12698   */\n      pop\n        /* \"#utility.yul\":12378:12698   */\n      swap2\n      swap1\n      pop\n      jump\t// out\n        /* \"#utility.yul\":12704:12844   */\n    tag_194:\n        /* \"#utility.yul\":12752:12756   */\n      0x00\n        /* \"#utility.yul\":12775:12778   */\n      dup2\n        /* \"#utility.yul\":12767:12778   */\n      swap1\n      pop\n        /* \"#utility.yul\":12798:12801   */\n      dup2\n        /* \"#utility.yul\":12795:12796   */\n      0x00\n        /* \"#utility.yul\":12788:12802   */\n      mstore\n        /* \"#utility.yul\":12832:12836   */\n      0x20\n        /* \"#utility.yul\":12829:12830   */\n      0x00\n        /* \"#utility.yul\":12819:12837   */\n      keccak256\n        /* \"#utility.yul\":12811:12837   */\n      swap1\n      pop\n        /* \"#utility.yul\":12704:12844   */\n      swap2\n      swap1\n      pop\n      jump\t// out\n        /* \"#utility.yul\":12850:12943   */\n    tag_195:\n        /* \"#utility.yul\":12887:12893   */\n      0x00\n        /* \"#utility.yul\":12934:12936   */\n      0x20\n        /* \"#utility.yul\":12929:12931   */\n      0x1f\n        /* \"#utility.yul\":12922:12927   */\n      dup4\n        /* \"#utility.yul\":12918:12932   */\n      add\n        /* \"#utility.yul\":12914:12937   */\n      div\n        /* \"#utility.yul\":12904:12937   */\n      swap1\n      pop\n        /* \"#utility.yul\":12850:12943   */\n      swap2\n      swap1\n      pop\n      jump\t// out\n        /* \"#utility.yul\":12949:13056   */\n    tag_196:\n        /* \"#utility.yul\":12993:13001   */\n      0x00\n        /* \"#utility.yul\":13043:13048   */\n      dup3\n        /* \"#utility.yul\":13037:13041   */\n      dup3\n        /* \"#utility.yul\":13033:13049   */\n      shl\n        /* \"#utility.yul\":13012:13049   */\n      swap1\n      pop\n        /* \"#utility.yul\":12949:13056   */\n      swap3\n      swap2\n      pop\n      pop\n      jump\t// out\n        /* \"#utility.yul\":13062:13455   */\n    tag_197:\n        /* \"#utility.yul\":13131:13137   */\n      0x00\n        /* \"#utility.yul\":13181:13182   */\n      0x08\n        /* \"#utility.yul\":13169:13179   */\n      dup4\n        /* \"#utility.yul\":13165:13183   */\n      mul\n        /* \"#utility.yul\":13204:13301   */\n      tag_359\n        /* \"#utility.yul\":13234:13300   */\n      0xffffffffffffffffffffffffffffffffffffffffffffffffffffffffffffffff\n        /* \"#utility.yul\":13223:13232   */\n      dup3\n        /* \"#utility.yul\":13204:13301   */\n      tag_196\n      jump\t// in\n    tag_359:\n        /* \"#utility.yul\":13322:13361   */\n      tag_360\n        /* \"#utility.yul\":13352:13360   */\n      dup7\n        /* \"#utility.yul\":13341:13350   */\n      dup4\n        /* \"#utility.yul\":13322:13361   */\n      tag_196\n      jump\t// in\n    tag_360:\n        /* \"#utility.yul\":13310:13361   */\n      swap6\n      pop\n        /* \"#utility.yul\":13394:13398   */\n      dup1\n        /* \"#utility.yul\":13390:13399   */\n      not\n        /* \"#utility.yul\":13383:13388   */\n      dup5\n        /* \"#utility.yul\":13379:13400   */\n      and\n        /* \"#utility.yul\":13370:13400   */\n      swap4\n      pop\n        /* \"#utility.yul\":13443:13447   */\n      dup1\n        /* \"#utility.yul\":13433:13441   */\n      dup7\n        /* \"#utility.yul\":13429:13448   */\n      and\n        /* \"#utility.yul\":13422:13427   */\n      dup5\n        /* \"#utility.yul\":13419:13449   */\n      or\n        /* \"#utility.yul\":13409:13449   */\n      swap3\n      pop\n        /* \"#utility.yul\":13138:13455   */\n      pop\n      pop\n        /* \"#utility.yul\":13062:13455   */\n      swap4\n      swap3\n      pop\n      pop\n      pop\n      jump\t// out\n        /* \"#utility.yul\":13461:13521   */\n    tag_198:\n        /* \"#utility.yul\":13489:13492   */\n      0x00\n        /* \"#utility.yul\":13510:13515   */\n      dup2\n        /* \"#utility.yul\":13503:13515   */\n      swap1\n      pop\n        /* \"#utility.yul\":13461:13521   */\n      swap2\n      swap1\n      pop\n      jump\t// out\n        /* \"#utility.yul\":13527:13669   */\n    tag_199:\n        /* \"#utility.yul\":13577:13586   */\n      0x00\n        /* \"#utility.yul\":13610:13663   */\n      tag_363\n        /* \"#utility.yul\":13628:13662   */\n      tag_364\n        /* \"#utility.yul\":13637:13661   */\n      tag_365\n        /* \"#utility.yul\":13655:13660   */\n      dup5\n        /* \"#utility.yul\":13637:13661   */\n      tag_172\n      jump\t// in\n    tag_365:\n        /* \"#utility.yul\":13628:13662   */\n      tag_198\n      jump\t// in\n    tag_364:\n        /* \"#utility.yul\":13610:13663   */\n      tag_172\n      jump\t// in\n    tag_363:\n        /* \"#utility.yul\":13597:13663   */\n      swap1\n      pop\n        /* \"#utility.yul\":13527:13669   */\n      swap2\n      swap1\n      pop\n      jump\t// out\n        /* \"#utility.yul\":13675:13750   */\n    tag_200:\n        /* \"#utility.yul\":13718:13721   */\n      0x00\n        /* \"#utility.yul\":13739:13744   */\n      dup2\n        /* \"#utility.yul\":13732:13744   */\n      swap1\n      pop\n        /* \"#utility.yul\":13675:13750   */\n      swap2\n      swap1\n      pop\n      jump\t// out\n        /* \"#utility.yul\":13756:14025   */\n    tag_201:\n        /* \"#utility.yul\":13866:13905   */\n      tag_368\n        /* \"#utility.yul\":13897:13904   */\n      dup4\n        /* \"#utility.yul\":13866:13905   */\n      tag_199\n      jump\t// in\n    tag_368:\n        /* \"#utility.yul\":13927:14018   */\n      tag_369\n        /* \"#utility.yul\":13976:14017   */\n      tag_370\n        /* \"#utility.yul\":14000:14016   */\n      dup3\n        /* \"#utility.yul\":13976:14017   */\n      tag_200\n      jump\t// in\n    tag_370:\n        /* \"#utility.yul\":13968:13974   */\n      dup5\n        /* \"#utility.yul\":13961:13965   */\n      dup5\n        /* \"#utility.yul\":13955:13966   */\n      sload\n        /* \"#utility.yul\":13927:14018   */\n      tag_197\n      jump\t// in\n    tag_369:\n        /* \"#utility.yul\":13921:13925   */\n      dup3\n        /* \"#utility.yul\":13914:14019   */\n      sstore\n        /* \"#utility.yul\":13832:14025   */\n      pop\n        /* \"#utility.yul\":13756:14025   */\n      pop\n      pop\n      pop\n      jump\t// out\n        /* \"#utility.yul\":14031:14104   */\n    tag_202:\n        /* \"#utility.yul\":14076:14079   */\n      0x00\n        /* \"#utility.yul\":14031:14104   */\n      swap1\n      jump\t// out\n        /* \"#utility.yul\":14110:14299   */\n    tag_203:\n        /* \"#utility.yul\":14187:14219   */\n      tag_373\n      tag_202\n      jump\t// in\n    tag_373:\n        /* \"#utility.yul\":14228:14293   */\n      tag_374\n        /* \"#utility.yul\":14286:14292   */\n      dup2\n        /* \"#utility.yul\":14278:14284   */\n      dup5\n        /* \"#utility.yul\":14272:14276   */\n      dup5\n        /* \"#utility.yul\":14228:14293   */\n      tag_201\n      jump\t// in\n    tag_374:\n        /* \"#utility.yul\":14163:14299   */\n      pop\n        /* \"#utility.yul\":14110:14299   */\n      pop\n      pop\n      jump\t// out\n        /* \"#utility.yul\":14305:14491   */\n    tag_204:\n        /* \"#utility.yul\":14365:14485   */\n    tag_376:\n        /* \"#utility.yul\":14382:14385   */\n      dup2\n        /* \"#utility.yul\":14375:14380   */\n      dup2\n        /* \"#utility.yul\":14372:14386   */\n      lt\n        /* \"#utility.yul\":14365:14485   */\n      iszero\n      tag_378\n      jumpi\n        /* \"#utility.yul\":14436:14475   */\n      tag_379\n        /* \"#utility.yul\":14473:14474   */\n      0x00\n        /* \"#utility.yul\":14466:14471   */\n      dup3\n        /* \"#utility.yul\":14436:14475   */\n      tag_203\n      jump\t// in\n    tag_379:\n        /* \"#utility.yul\":14409:14410   */\n      0x01\n        /* \"#utility.yul\":14402:14407   */\n      dup2\n        /* \"#utility.yul\":14398:14411   */\n      add\n        /* \"#utility.yul\":14389:14411   */\n      swap1\n      pop\n        /* \"#utility.yul\":14365:14485   */\n      jump(tag_376)\n    tag_378:\n        /* \"#utility.yul\":14305:14491   */\n      pop\n      pop\n      jump\t// out\n        /* \"#utility.yul\":14497:15038   */\n    tag_205:\n        /* \"#utility.yul\":14597:14599   */\n      0x1f\n        /* \"#utility.yul\":14592:14595   */\n      dup3\n        /* \"#utility.yul\":14589:14600   */\n      gt\n        /* \"#utility.yul\":14586:15031   */\n      iszero\n      tag_381\n      jumpi\n        /* \"#utility.yul\":14631:14668   */\n      tag_382\n        /* \"#utility.yul\":14662:14667   */\n      dup2\n        /* \"#utility.yul\":14631:14668   */\n      tag_194\n      jump\t// in\n    tag_382:\n        /* \"#utility.yul\":14714:14743   */\n      tag_383\n        /* \"#utility.yul\":14732:14742   */\n      dup5\n        /* \"#utility.yul\":14714:14743   */\n      tag_195\n      jump\t// in\n    tag_383:\n        /* \"#utility.yul\":14704:14712   */\n      dup2\n        /* \"#utility.yul\":14700:14744   */\n      add\n        /* \"#utility.yul\":14897:14899   */\n      0x20\n        /* \"#utility.yul\":14885:14895   */\n      dup6\n        /* \"#utility.yul\":14882:14900   */\n      lt\n        /* \"#utility.yul\":14879:14928   */\n      iszero\n      tag_384\n      jumpi\n        /* \"#utility.yul\":14918:14926   */\n      dup2\n        /* \"#utility.yul\":14903:14926   */\n      swap1\n      pop\n        /* \"#utility.yul\":14879:14928   */\n    tag_384:\n        /* \"#utility.yul\":14941:15021   */\n      tag_385\n        /* \"#utility.yul\":14997:15019   */\n      tag_386\n        /* \"#utility.yul\":15015:15018   */\n      dup6\n        /* \"#utility.yul\":14997:15019   */\n      tag_195\n      jump\t// in\n    tag_386:\n        /* \"#utility.yul\":14987:14995   */\n      dup4\n        /* \"#utility.yul\":14983:15020   */\n      add\n        /* \"#utility.yul\":14970:14981   */\n      dup3\n        /* \"#utility.yul\":14941:15021   */\n      tag_204\n      jump\t// in\n    tag_385:\n        /* \"#utility.yul\":14601:15031   */\n      pop\n      pop\n        /* \"#utility.yul\":14586:15031   */\n    tag_381:\n        /* \"#utility.yul\":14497:15038   */\n      pop\n      pop\n      pop\n      jump\t// out\n        /* \"#utility.yul\":15044:15161   */\n    tag_206:\n        /* \"#utility.yul\":15098:15106   */\n      0x00\n        /* \"#utility.yul\":15148:15153   */\n      dup3\n        /* \"#utility.yul\":15142:15146   */\n      dup3\n        /* \"#utility.yul\":15138:15154   */\n      shr\n        /* \"#utility.yul\":15117:15154   */\n      swap1\n      pop\n        /* \"#utility.yul\":15044:15161   */\n      swap3\n      swap2\n      pop\n      pop\n      jump\t// out\n        /* \"#utility.yul\":15167:15336   */\n    tag_207:\n        /* \"#utility.yul\":15211:15217   */\n      0x00\n        /* \"#utility.yul\":15244:15295   */\n      tag_389\n        /* \"#utility.yul\":15292:15293   */\n      0x00\n        /* \"#utility.yul\":15288:15294   */\n      not\n        /* \"#utility.yul\":15280:15285   */\n      dup5\n        /* \"#utility.yul\":15277:15278   */\n      0x08\n        /* \"#utility.yul\":15273:15286   */\n      mul\n        /* \"#utility.yul\":15244:15295   */\n      tag_206\n      jump\t// in\n    tag_389:\n        /* \"#utility.yul\":15240:15296   */\n      not\n        /* \"#utility.yul\":15325:15329   */\n      dup1\n        /* \"#utility.yul\":15319:15323   */\n      dup4\n        /* \"#utility.yul\":15315:15330   */\n      and\n        /* \"#utility.yul\":15305:15330   */\n      swap2\n      pop\n        /* \"#utility.yul\":15218:15336   */\n      pop\n        /* \"#utility.yul\":15167:15336   */\n      swap3\n      swap2\n      pop\n      pop\n      jump\t// out\n        /* \"#utility.yul\":15341:15636   */\n    tag_208:\n        /* \"#utility.yul\":15417:15421   */\n      0x00\n        /* \"#utility.yul\":15563:15592   */\n      tag_391\n        /* \"#utility.yul\":15588:15591   */\n      dup4\n        /* \"#utility.yul\":15582:15586   */\n      dup4\n        /* \"#utility.yul\":15563:15592   */\n      tag_207\n      jump\t// in\n    tag_391:\n        /* \"#utility.yul\":15555:15592   */\n      swap2\n      pop\n        /* \"#utility.yul\":15625:15628   */\n      dup3\n        /* \"#utility.yul\":15622:15623   */\n      0x02\n        /* \"#utility.yul\":15618:15629   */\n      mul\n        /* \"#utility.yul\":15612:15616   */\n      dup3\n        /* \"#utility.yul\":15609:15630   */\n      or\n        /* \"#utility.yul\":15601:15630   */\n      swap1\n      pop\n        /* \"#utility.yul\":15341:15636   */\n      swap3\n      swap2\n      pop\n      pop\n      jump\t// out\n        /* \"#utility.yul\":15641:17031   */\n    tag_47:\n        /* \"#utility.yul\":15756:15792   */\n      tag_393\n        /* \"#utility.yul\":15788:15791   */\n      dup3\n        /* \"#utility.yul\":15756:15792   */\n      tag_175\n      jump\t// in\n    tag_393:\n        /* \"#utility.yul\":15857:15875   */\n      0xffffffffffffffff\n        /* \"#utility.yul\":15849:15855   */\n      dup2\n        /* \"#utility.yul\":15846:15876   */\n      gt\n        /* \"#utility.yul\":15843:15899   */\n      iszero\n      tag_394\n      jumpi\n        /* \"#utility.yul\":15879:15897   */\n      tag_395\n      tag_74\n      jump\t// in\n    tag_395:\n        /* \"#utility.yul\":15843:15899   */\n    tag_394:\n        /* \"#utility.yul\":15923:15961   */\n      tag_396\n        /* \"#utility.yul\":15955:15959   */\n      dup3\n        /* \"#utility.yul\":15949:15960   */\n      sload\n        /* \"#utility.yul\":15923:15961   */\n      tag_52\n      jump\t// in\n    tag_396:\n        /* \"#utility.yul\":16008:16074   */\n      tag_397\n        /* \"#utility.yul\":16067:16073   */\n      dup3\n        /* \"#utility.yul\":16059:16065   */\n      dup3\n        /* \"#utility.yul\":16053:16057   */\n      dup6\n        /* \"#utility.yul\":16008:16074   */\n      tag_205\n      jump\t// in\n    tag_397:\n        /* \"#utility.yul\":16101:16102   */\n      0x00\n        /* \"#utility.yul\":16125:16129   */\n      0x20\n        /* \"#utility.yul\":16112:16129   */\n      swap1\n      pop\n        /* \"#utility.yul\":16157:16159   */\n      0x1f\n        /* \"#utility.yul\":16149:16155   */\n      dup4\n        /* \"#utility.yul\":16146:16160   */\n      gt\n        /* \"#utility.yul\":16174:16175   */\n      0x01\n        /* \"#utility.yul\":16169:16786   */\n      dup2\n      eq\n      tag_399\n      jumpi\n        /* \"#utility.yul\":16830:16831   */\n      0x00\n        /* \"#utility.yul\":16847:16853   */\n      dup5\n        /* \"#utility.yul\":16844:16921   */\n      iszero\n      tag_400\n      jumpi\n        /* \"#utility.yul\":16896:16905   */\n      dup3\n        /* \"#utility.yul\":16891:16894   */\n      dup8\n        /* \"#utility.yul\":16887:16906   */\n      add\n        /* \"#utility.yul\":16881:16907   */\n      mload\n        /* \"#utility.yul\":16872:16907   */\n      swap1\n      pop\n        /* \"#utility.yul\":16844:16921   */\n    tag_400:\n        /* \"#utility.yul\":16947:17014   */\n      tag_401\n        /* \"#utility.yul\":17007:17013   */\n      dup6\n        /* \"#utility.yul\":17000:17005   */\n      dup3\n        /* \"#utility.yul\":16947:17014   */\n      tag_208\n      jump\t// in\n    tag_401:\n        /* \"#utility.yul\":16941:16945   */\n      dup7\n        /* \"#utility.yul\":16934:17015   */\n      sstore\n        /* \"#utility.yul\":16803:17025   */\n      pop\n        /* \"#utility.yul\":16139:17025   */\n      jump(tag_398)\n        /* \"#utility.yul\":16169:16786   */\n    tag_399:\n        /* \"#utility.yul\":16221:16225   */\n      0x1f\n        /* \"#utility.yul\":16217:16226   */\n      not\n        /* \"#utility.yul\":16209:16215   */\n      dup5\n        /* \"#utility.yul\":16205:16227   */\n      and\n        /* \"#utility.yul\":16255:16291   */\n      tag_402\n        /* \"#utility.yul\":16286:16290   */\n      dup7\n        /* \"#utility.yul\":16255:16291   */\n      tag_194\n      jump\t// in\n    tag_402:\n        /* \"#utility.yul\":16313:16314   */\n      0x00\n        /* \"#utility.yul\":16327:16535   */\n    tag_403:\n        /* \"#utility.yul\":16341:16348   */\n      dup3\n        /* \"#utility.yul\":16338:16339   */\n      dup2\n        /* \"#utility.yul\":16335:16349   */\n      lt\n        /* \"#utility.yul\":16327:16535   */\n      iszero\n      tag_405\n      jumpi\n        /* \"#utility.yul\":16420:16429   */\n      dup5\n        /* \"#utility.yul\":16415:16418   */\n      dup10\n        /* \"#utility.yul\":16411:16430   */\n      add\n        /* \"#utility.yul\":16405:16431   */\n      mload\n        /* \"#utility.yul\":16397:16403   */\n      dup3\n        /* \"#utility.yul\":16390:16432   */\n      sstore\n        /* \"#utility.yul\":16471:16472   */\n      0x01\n        /* \"#utility.yul\":16463:16469   */\n      dup3\n        /* \"#utility.yul\":16459:16473   */\n      add\n        /* \"#utility.yul\":16449:16473   */\n      swap2\n      pop\n        /* \"#utility.yul\":16518:16520   */\n      0x20\n        /* \"#utility.yul\":16507:16516   */\n      dup6\n        /* \"#utility.yul\":16503:16521   */\n      add\n        /* \"#utility.yul\":16490:16521   */\n      swap5\n      pop\n        /* \"#utility.yul\":16364:16368   */\n      0x20\n        /* \"#utility.yul\":16361:16362   */\n      dup2\n        /* \"#utility.yul\":16357:16369   */\n      add\n        /* \"#utility.yul\":16352:16369   */\n      swap1\n      pop\n        /* \"#utility.yul\":16327:16535   */\n      jump(tag_403)\n    tag_405:\n        /* \"#utility.yul\":16563:16569   */\n      dup7\n        /* \"#utility.yul\":16554:16561   */\n      dup4\n        /* \"#utility.yul\":16551:16570   */\n      lt\n        /* \"#utility.yul\":16548:16727   */\n      iszero\n      tag_406\n      jumpi\n        /* \"#utility.yul\":16621:16630   */\n      dup5\n        /* \"#utility.yul\":16616:16619   */\n      dup10\n        /* \"#utility.yul\":16612:16631   */\n      add\n        /* \"#utility.yul\":16606:16632   */\n      mload\n        /* \"#utility.yul\":16664:16712   */\n      tag_407\n        /* \"#utility.yul\":16706:16710   */\n      0x1f\n        /* \"#utility.yul\":16698:16704   */\n      dup10\n        /* \"#utility.yul\":16694:16711   */\n      and\n        /* \"#utility.yul\":16683:16692   */\n      dup3\n        /* \"#utility.yul\":16664:16712   */\n      tag_207\n      jump\t// in\n    tag_407:\n        /* \"#utility.yul\":16656:16662   */\n      dup4\n        /* \"#utility.yul\":16649:16713   */\n      sstore\n        /* \"#utility.yul\":16571:16727   */\n      pop\n        /* \"#utility.yul\":16548:16727   */\n    tag_406:\n        /* \"#utility.yul\":16773:16774   */\n      0x01\n        /* \"#utility.yul\":16769:16770   */\n      0x02\n        /* \"#utility.yul\":16761:16767   */\n      dup9\n        /* \"#utility.yul\":16757:16771   */\n      mul\n        /* \"#utility.yul\":16753:16775   */\n      add\n        /* \"#utility.yul\":16747:16751   */\n      dup9\n        /* \"#utility.yul\":16740:16776   */\n      sstore\n        /* \"#utility.yul\":16176:16786   */\n      pop\n      pop\n      pop\n        /* \"#utility.yul\":16139:17025   */\n    tag_398:\n      pop\n        /* \"#utility.yul\":15731:17031   */\n      pop\n      pop\n      pop\n        /* \"#utility.yul\":15641:17031   */\n      pop\n      pop\n      jump\t// out\n        /* \"#utility.yul\":17037:17217   */\n    tag_209:\n        /* \"#utility.yul\":17085:17162   */\n      0x4e487b7100000000000000000000000000000000000000000000000000000000\n        /* \"#utility.yul\":17082:17083   */\n      0x00\n        /* \"#utility.yul\":17075:17163   */\n      mstore\n        /* \"#utility.yul\":17182:17186   */\n      0x11\n        /* \"#utility.yul\":17179:17180   */\n      0x04\n        /* \"#utility.yul\":17172:17187   */\n      mstore\n        /* \"#utility.yul\":17206:17210   */\n      0x24\n        /* \"#utility.yul\":17203:17204   */\n      0x00\n        /* \"#utility.yul\":17196:17211   */\n      revert\n        /* \"#utility.yul\":17223:17456   */\n    tag_57:\n        /* \"#utility.yul\":17262:17265   */\n      0x00\n        /* \"#utility.yul\":17285:17309   */\n      tag_410\n        /* \"#utility.yul\":17303:17308   */\n      dup3\n        /* \"#utility.yul\":17285:17309   */\n      tag_172\n      jump\t// in\n    tag_410:\n        /* \"#utility.yul\":17276:17309   */\n      swap2\n      pop\n        /* \"#utility.yul\":17331:17397   */\n      0xffffffffffffffffffffffffffffffffffffffffffffffffffffffffffffffff\n        /* \"#utility.yul\":17324:17329   */\n      dup3\n        /* \"#utility.yul\":17321:17398   */\n      sub\n        /* \"#utility.yul\":17318:17421   */\n      tag_411\n      jumpi\n        /* \"#utility.yul\":17401:17419   */\n      tag_412\n      tag_209\n      jump\t// in\n    tag_412:\n        /* \"#utility.yul\":17318:17421   */\n    tag_411:\n        /* \"#utility.yul\":17448:17449   */\n      0x01\n        /* \"#utility.yul\":17441:17446   */\n      dup3\n        /* \"#utility.yul\":17437:17450   */\n      add\n        /* \"#utility.yul\":17430:17450   */\n      swap1\n      pop\n        /* \"#utility.yul\":17223:17456   */\n      swap2\n      swap1\n      pop\n      jump\t// out\n        /* \"#utility.yul\":17462:17642   */\n    tag_61:\n        /* \"#utility.yul\":17510:17587   */\n      0x4e487b7100000000000000000000000000000000000000000000000000000000\n        /* \"#utility.yul\":17507:17508   */\n      0x00\n        /* \"#utility.yul\":17500:17588   */\n      mstore\n        /* \"#utility.yul\":17607:17611   */\n      0x32\n        /* \"#utility.yul\":17604:17605   */\n      0x04\n        /* \"#utility.yul\":17597:17612   */\n      mstore\n        /* \"#utility.yul\":17631:17635   */\n      0x24\n        /* \"#utility.yul\":17628:17629   */\n      0x00\n        /* \"#utility.yul\":17621:17636   */\n      revert\n        /* \"#utility.yul\":17648:17828   */\n    tag_127:\n        /* \"#utility.yul\":17696:17773   */\n      0x4e487b7100000000000000000000000000000000000000000000000000000000\n        /* \"#utility.yul\":17693:17694   */\n      0x00\n        /* \"#utility.yul\":17686:17774   */\n      mstore\n        /* \"#utility.yul\":17793:17797   */\n      0x31\n        /* \"#utility.yul\":17790:17791   */\n      0x04\n        /* \"#utility.yul\":17783:17798   */\n      mstore\n        /* \"#utility.yul\":17817:17821   */\n      0x24\n        /* \"#utility.yul\":17814:17815   */\n      0x00\n        /* \"#utility.yul\":17807:17822   */\n      revert\n\n    auxdata: 0xa2646970667358221220d81cd40c4d1c9d76b554377db70d27207e0368ac7dec2fb47ffba70a4a10c55864736f6c63430008120033\n}\n",
				"bytecode": {
					"linkReferences": {},
					"object": "608060405234801561001057600080fd5b506112ee806100206000396000f3fe608060405234801561001057600080fd5b50600436106100885760003560e01c80637d7e5e3d1161005b5780637d7e5e3d146100ff578063b9cce72c1461011b578063deff71b81461014b578063f5933f661461016757610088565b806331a561101461008d57806352efea6e146100a95780636d236703146100b35780637bc5bbbf146100e3575b600080fd5b6100a760048036038101906100a29190610a08565b610183565b005b6100b16102ea565b005b6100cd60048036038101906100c89190610a87565b610376565b6040516100da9190610b33565b60405180910390f35b6100fd60048036038101906100f89190610c1d565b6104c8565b005b61011960048036038101906101149190610c9e565b6104f7565b005b61013560048036038101906101309190610da2565b6105a2565b6040516101429190610dde565b60405180910390f35b61016560048036038101906101609190610ebc565b6105ec565b005b610181600480360381019061017c9190610a87565b610608565b005b806210000390816101949190611111565b5060005b600781101561021a57621000036001818054806101b490610f34565b80601f81036101d35783600052602060002060ff1984168155603f9350505b506002820183556001810192505050038154600116156102025790600052602060002090602091828204019190065b9054905050808061021290611212565b915050610198565b50600860f81b621000036003815461023190610f34565b81106102405761023f61125a565b5b81546001161561025f5790600052602060002090602091828204019190065b601f036101000a81548160ff021916907f01000000000000000000000000000000000000000000000000000000000000008404021790555062100003600281546102a890610f34565b81106102b7576102b661125a565b5b8154600116156102d65790600052602060002090602091828204019190065b601f036101000a81549060ff021916905550565b6210000060006102fa91906106ab565b60008061030791906106cc565b600067ffffffffffffffff811115610322576103216108dd565b5b60405190808252806020026020018201604052801561035b57816020015b6103486106e1565b8152602001906001900390816103405790505b50621000009080519060200190610373929190610703565b50565b606060008267ffffffffffffffff811115610394576103936108dd565b5b6040519080825280602002602001820160405280156103cd57816020015b6103ba61075e565b8152602001906001900390816103b25790505b5090506040518060400160405280600181526020016002815250816000815181106103fb576103fa61125a565b5b6020026020010181905250600060c867ffffffffffffffff811115610423576104226108dd565b5b6040519080825280601f01601f1916602001820160405280156104555781602001600182028036833780820191505090505b50905060005b81518110156104bd578060f81b82828151811061047b5761047a61125a565b5b60200101907effffffffffffffffffffffffffffffffffffffffffffffffffffffffffffff1916908160001a90535080806104b590611212565b91505061045b565b508092505050919050565b600062100001905060028160010181905550818160000190805190602001906104f2929190610780565b505050565b8162100000848154811061050e5761050d61125a565b5b9060005260206000200160006002811061052b5761052a61125a565b5b602091828204019190066101000a81548160ff021916908315150217905550806210000084815481106105615761056061125a565b5b9060005260206000200160016002811061057e5761057d61125a565b5b602091828204019190066101000a81548160ff021916908315150217905550505050565b60006210000082908060018154018082558091505060019003906000526020600020016000909190919091509060026105dc9291906107cd565b5062100000805490509050919050565b80621000009080519060200190610604929190610703565b5050565b6210000080549050811015610663575b806210000080549050111561065e576210000080548061063b5761063a611289565b5b6001900381819060005260206000200160006106579190610866565b9055610618565b6106a8565b62100000805490508111156106a7575b80621000008054905010156106a65762100000600181600181540180825580915050039060005260206000205050610673565b5b5b50565b50805460008255906000526020600020908101906106c9919061086d565b50565b50806210000001906106de9190610891565b50565b6040518060400160405280600290602082028036833780820191505090505090565b82805482825590600052602060002090810192821561074d579160200282015b8281111561074c5782518290600261073c9291906107cd565b5091602001919060010190610723565b5b50905061075a919061086d565b5090565b6040518060400160405280600290602082028036833780820191505090505090565b8280548282559060005260206000209081019282156107bc579160200282015b828111156107bb5782518255916020019190600101906107a0565b5b5090506107c99190610891565b5090565b826002601f016020900481019282156108555791602002820160005b8382111561082657835183826101000a81548160ff02191690831515021790555092602001926001016020816000010492830192600103026107e9565b80156108535782816101000a81549060ff0219169055600101602081600001049283019260010302610826565b505b5090506108629190610891565b5090565b5060009055565b5b8082111561088d57600081816108849190610866565b5060010161086e565b5090565b5b808211156108aa576000816000905550600101610892565b5090565b6000604051905090565b600080fd5b600080fd5b600080fd5b600080fd5b6000601f19601f8301169050919050565b7f4e487b7100000000000000000000000000000000000000000000000000000000600052604160045260246000fd5b610915826108cc565b810181811067ffffffffffffffff82111715610934576109336108dd565b5b80604052505050565b60006109476108ae565b9050610953828261090c565b919050565b600067ffffffffffffffff821115610973576109726108dd565b5b61097c826108cc565b9050602081019050919050565b82818337600083830152505050565b60006109ab6109a684610958565b61093d565b9050828152602081018484840111156109c7576109c66108c7565b5b6109d2848285610989565b509392505050565b600082601f8301126109ef576109ee6108c2565b5b81356109ff848260208601610998565b91505092915050565b600060208284031215610a1e57610a1d6108b8565b5b600082013567ffffffffffffffff811115610a3c57610a3b6108bd565b5b610a48848285016109da565b91505092915050565b6000819050919050565b610a6481610a51565b8114610a6f57600080fd5b50565b600081359050610a8181610a5b565b92915050565b600060208284031215610a9d57610a9c6108b8565b5b6000610aab84828501610a72565b91505092915050565b600081519050919050565b600082825260208201905092915050565b60005b83811015610aee578082015181840152602081019050610ad3565b60008484015250505050565b6000610b0582610ab4565b610b0f8185610abf565b9350610b1f818560208601610ad0565b610b28816108cc565b840191505092915050565b60006020820190508181036000830152610b4d8184610afa565b905092915050565b600067ffffffffffffffff821115610b7057610b6f6108dd565b5b602082029050602081019050919050565b600080fd5b6000610b99610b9484610b55565b61093d565b90508083825260208201905060208402830185811115610bbc57610bbb610b81565b5b835b81811015610be55780610bd18882610a72565b845260208401935050602081019050610bbe565b5050509392505050565b600082601f830112610c0457610c036108c2565b5b8135610c14848260208601610b86565b91505092915050565b600060208284031215610c3357610c326108b8565b5b600082013567ffffffffffffffff811115610c5157610c506108bd565b5b610c5d84828501610bef565b91505092915050565b60008115159050919050565b610c7b81610c66565b8114610c8657600080fd5b50565b600081359050610c9881610c72565b92915050565b600080600060608486031215610cb757610cb66108b8565b5b6000610cc586828701610a72565b9350506020610cd686828701610c89565b9250506040610ce786828701610c89565b9150509250925092565b600067ffffffffffffffff821115610d0c57610d0b6108dd565b5b602082029050919050565b6000610d2a610d2584610cf1565b61093d565b90508060208402830185811115610d4457610d43610b81565b5b835b81811015610d6d5780610d598882610c89565b845260208401935050602081019050610d46565b5050509392505050565b600082601f830112610d8c57610d8b6108c2565b5b6002610d99848285610d17565b91505092915050565b600060408284031215610db857610db76108b8565b5b6000610dc684828501610d77565b91505092915050565b610dd881610a51565b82525050565b6000602082019050610df36000830184610dcf565b92915050565b600067ffffffffffffffff821115610e1457610e136108dd565b5b602082029050602081019050919050565b6000610e38610e3384610df9565b61093d565b90508083825260208201905060408402830185811115610e5b57610e5a610b81565b5b835b81811015610e845780610e708882610d77565b845260208401935050604081019050610e5d565b5050509392505050565b600082601f830112610ea357610ea26108c2565b5b8135610eb3848260208601610e25565b91505092915050565b600060208284031215610ed257610ed16108b8565b5b600082013567ffffffffffffffff811115610ef057610eef6108bd565b5b610efc84828501610e8e565b91505092915050565b7f4e487b7100000000000000000000000000000000000000000000000000000000600052602260045260246000fd5b60006002820490506001821680610f4c57607f821691505b602082108103610f5f57610f5e610f05565b5b50919050565b60008190508160005260206000209050919050565b60006020601f8301049050919050565b600082821b905092915050565b600060088302610fc77fffffffffffffffffffffffffffffffffffffffffffffffffffffffffffffffff82610f8a565b610fd18683610f8a565b95508019841693508086168417925050509392505050565b6000819050919050565b600061100e61100961100484610a51565b610fe9565b610a51565b9050919050565b6000819050919050565b61102883610ff3565b61103c61103482611015565b848454610f97565b825550505050565b600090565b611051611044565b61105c81848461101f565b505050565b5b8181101561108057611075600082611049565b600181019050611062565b5050565b601f8211156110c55761109681610f65565b61109f84610f7a565b810160208510156110ae578190505b6110c26110ba85610f7a565b830182611061565b50505b505050565b600082821c905092915050565b60006110e8600019846008026110ca565b1980831691505092915050565b600061110183836110d7565b9150826002028217905092915050565b61111a82610ab4565b67ffffffffffffffff811115611133576111326108dd565b5b61113d8254610f34565b611148828285611084565b600060209050601f83116001811461117b5760008415611169578287015190505b61117385826110f5565b8655506111db565b601f19841661118986610f65565b60005b828110156111b15784890151825560018201915060208501945060208101905061118c565b868310156111ce57848901516111ca601f8916826110d7565b8355505b6001600288020188555050505b505050505050565b7f4e487b7100000000000000000000000000000000000000000000000000000000600052601160045260246000fd5b600061121d82610a51565b91507fffffffffffffffffffffffffffffffffffffffffffffffffffffffffffffffff820361124f5761124e6111e3565b5b600182019050919050565b7f4e487b7100000000000000000000000000000000000000000000000000000000600052603260045260246000fd5b7f4e487b7100000000000000000000000000000000000000000000000000000000600052603160045260246000fdfea2646970667358221220d81cd40c4d1c9d76b554377db70d27207e0368ac7dec2fb47ffba70a4a10c55864736f6c63430008120033",
					"opcodes": "PUSH1 0x80 PUSH1 0x40 MSTORE CALLVALUE DUP1 ISZERO PUSH2 0x10 JUMPI PUSH1 0x0 DUP1 REVERT JUMPDEST POP PUSH2 0x12EE DUP1 PUSH2 0x20 PUSH1 0x0 CODECOPY PUSH1 0x0 RETURN INVALID PUSH1 0x80 PUSH1 0x40 MSTORE CALLVALUE DUP1 ISZERO PUSH2 0x10 JUMPI PUSH1 0x0 DUP1 REVERT JUMPDEST POP PUSH1 0x4 CALLDATASIZE LT PUSH2 0x88 JUMPI PUSH1 0x0 CALLDATALOAD PUSH1 0xE0 SHR DUP1 PUSH4 0x7D7E5E3D GT PUSH2 0x5B JUMPI DUP1 PUSH4 0x7D7E5E3D EQ PUSH2 0xFF JUMPI DUP1 PUSH4 0xB9CCE72C EQ PUSH2 0x11B JUMPI DUP1 PUSH4 0xDEFF71B8 EQ PUSH2 0x14B JUMPI DUP1 PUSH4 0xF5933F66 EQ PUSH2 0x167 JUMPI PUSH2 0x88 JUMP JUMPDEST DUP1 PUSH4 0x31A56110 EQ PUSH2 0x8D JUMPI DUP1 PUSH4 0x52EFEA6E EQ PUSH2 0xA9 JUMPI DUP1 PUSH4 0x6D236703 EQ PUSH2 0xB3 JUMPI DUP1 PUSH4 0x7BC5BBBF EQ PUSH2 0xE3 JUMPI JUMPDEST PUSH1 0x0 DUP1 REVERT JUMPDEST PUSH2 0xA7 PUSH1 0x4 DUP1 CALLDATASIZE SUB DUP2 ADD SWAP1 PUSH2 0xA2 SWAP2 SWAP1 PUSH2 0xA08 JUMP JUMPDEST PUSH2 0x183 JUMP JUMPDEST STOP JUMPDEST PUSH2 0xB1 PUSH2 0x2EA JUMP JUMPDEST STOP JUMPDEST PUSH2 0xCD PUSH1 0x4 DUP1 CALLDATASIZE SUB DUP2 ADD SWAP1 PUSH2 0xC8 SWAP2 SWAP1 PUSH2 0xA87 JUMP JUMPDEST PUSH2 0x376 JUMP JUMPDEST PUSH1 0x40 MLOAD PUSH2 0xDA SWAP2 SWAP1 PUSH2 0xB33 JUMP JUMPDEST PUSH1 0x40 MLOAD DUP1 SWAP2 SUB SWAP1 RETURN JUMPDEST PUSH2 0xFD PUSH1 0x4 DUP1 CALLDATASIZE SUB DUP2 ADD SWAP1 PUSH2 0xF8 SWAP2 SWAP1 PUSH2 0xC1D JUMP JUMPDEST PUSH2 0x4C8 JUMP JUMPDEST STOP JUMPDEST PUSH2 0x119 PUSH1 0x4 DUP1 CALLDATASIZE SUB DUP2 ADD SWAP1 PUSH2 0x114 SWAP2 SWAP1 PUSH2 0xC9E JUMP JUMPDEST PUSH2 0x4F7 JUMP JUMPDEST STOP JUMPDEST PUSH2 0x135 PUSH1 0x4 DUP1 CALLDATASIZE SUB DUP2 ADD SWAP1 PUSH2 0x130 SWAP2 SWAP1 PUSH2 0xDA2 JUMP JUMPDEST PUSH2 0x5A2 JUMP JUMPDEST PUSH1 0x40 MLOAD PUSH2 0x142 SWAP2 SWAP1 PUSH2 0xDDE JUMP JUMPDEST PUSH1 0x40 MLOAD DUP1 SWAP2 SUB SWAP1 RETURN JUMPDEST PUSH2 0x165 PUSH1 0x4 DUP1 CALLDATASIZE SUB DUP2 ADD SWAP1 PUSH2 0x160 SWAP2 SWAP1 PUSH2 0xEBC JUMP JUMPDEST PUSH2 0x5EC JUMP JUMPDEST STOP JUMPDEST PUSH2 0x181 PUSH1 0x4 DUP1 CALLDATASIZE SUB DUP2 ADD SWAP1 PUSH2 0x17C SWAP2 SWAP1 PUSH2 0xA87 JUMP JUMPDEST PUSH2 0x608 JUMP JUMPDEST STOP JUMPDEST DUP1 PUSH3 0x100003 SWAP1 DUP2 PUSH2 0x194 SWAP2 SWAP1 PUSH2 0x1111 JUMP JUMPDEST POP PUSH1 0x0 JUMPDEST PUSH1 0x7 DUP2 LT ISZERO PUSH2 0x21A JUMPI PUSH3 0x100003 PUSH1 0x1 DUP2 DUP1 SLOAD DUP1 PUSH2 0x1B4 SWAP1 PUSH2 0xF34 JUMP JUMPDEST DUP1 PUSH1 0x1F DUP2 SUB PUSH2 0x1D3 JUMPI DUP4 PUSH1 0x0 MSTORE PUSH1 0x20 PUSH1 0x0 KECCAK256 PUSH1 0xFF NOT DUP5 AND DUP2 SSTORE PUSH1 0x3F SWAP4 POP POP JUMPDEST POP PUSH1 0x2 DUP3 ADD DUP4 SSTORE PUSH1 0x1 DUP2 ADD SWAP3 POP POP POP SUB DUP2 SLOAD PUSH1 0x1 AND ISZERO PUSH2 0x202 JUMPI SWAP1 PUSH1 0x0 MSTORE PUSH1 0x20 PUSH1 0x0 KECCAK256 SWAP1 PUSH1 0x20 SWAP2 DUP3 DUP3 DIV ADD SWAP2 SWAP1 MOD JUMPDEST SWAP1 SLOAD SWAP1 POP POP DUP1 DUP1 PUSH2 0x212 SWAP1 PUSH2 0x1212 JUMP JUMPDEST SWAP2 POP POP PUSH2 0x198 JUMP JUMPDEST POP PUSH1 0x8 PUSH1 0xF8 SHL PUSH3 0x100003 PUSH1 0x3 DUP2 SLOAD PUSH2 0x231 SWAP1 PUSH2 0xF34 JUMP JUMPDEST DUP2 LT PUSH2 0x240 JUMPI PUSH2 0x23F PUSH2 0x125A JUMP JUMPDEST JUMPDEST DUP2 SLOAD PUSH1 0x1 AND ISZERO PUSH2 0x25F JUMPI SWAP1 PUSH1 0x0 MSTORE PUSH1 0x20 PUSH1 0x0 KECCAK256 SWAP1 PUSH1 0x20 SWAP2 DUP3 DUP3 DIV ADD SWAP2 SWAP1 MOD JUMPDEST PUSH1 0x1F SUB PUSH2 0x100 EXP DUP2 SLOAD DUP2 PUSH1 0xFF MUL NOT AND SWAP1 PUSH32 0x100000000000000000000000000000000000000000000000000000000000000 DUP5 DIV MUL OR SWAP1 SSTORE POP PUSH3 0x100003 PUSH1 0x2 DUP2 SLOAD PUSH2 0x2A8 SWAP1 PUSH2 0xF34 JUMP JUMPDEST DUP2 LT PUSH2 0x2B7 JUMPI PUSH2 0x2B6 PUSH2 0x125A JUMP JUMPDEST JUMPDEST DUP2 SLOAD PUSH1 0x1 AND ISZERO PUSH2 0x2D6 JUMPI SWAP1 PUSH1 0x0 MSTORE PUSH1 0x20 PUSH1 0x0 KECCAK256 SWAP1 PUSH1 0x20 SWAP2 DUP3 DUP3 DIV ADD SWAP2 SWAP1 MOD JUMPDEST PUSH1 0x1F SUB PUSH2 0x100 EXP DUP2 SLOAD SWAP1 PUSH1 0xFF MUL NOT AND SWAP1 SSTORE POP JUMP JUMPDEST PUSH3 0x100000 PUSH1 0x0 PUSH2 0x2FA SWAP2 SWAP1 PUSH2 0x6AB JUMP JUMPDEST PUSH1 0x0 DUP1 PUSH2 0x307 SWAP2 SWAP1 PUSH2 0x6CC JUMP JUMPDEST PUSH1 0x0 PUSH8 0xFFFFFFFFFFFFFFFF DUP2 GT ISZERO PUSH2 0x322 JUMPI PUSH2 0x321 PUSH2 0x8DD JUMP JUMPDEST JUMPDEST PUSH1 0x40 MLOAD SWAP1 DUP1 DUP3 MSTORE DUP1 PUSH1 0x20 MUL PUSH1 0x20 ADD DUP3 ADD PUSH1 0x40 MSTORE DUP1 ISZERO PUSH2 0x35B JUMPI DUP2 PUSH1 0x20 ADD JUMPDEST PUSH2 0x348 PUSH2 0x6E1 JUMP JUMPDEST DUP2 MSTORE PUSH1 0x20 ADD SWAP1 PUSH1 0x1 SWAP1 SUB SWAP1 DUP2 PUSH2 0x340 JUMPI SWAP1 POP JUMPDEST POP PUSH3 0x100000 SWAP1 DUP1 MLOAD SWAP1 PUSH1 0x20 ADD SWAP1 PUSH2 0x373 SWAP3 SWAP2 SWAP1 PUSH2 0x703 JUMP JUMPDEST POP JUMP JUMPDEST PUSH1 0x60 PUSH1 0x0 DUP3 PUSH8 0xFFFFFFFFFFFFFFFF DUP2 GT ISZERO PUSH2 0x394 JUMPI PUSH2 0x393 PUSH2 0x8DD JUMP JUMPDEST JUMPDEST PUSH1 0x40 MLOAD SWAP1 DUP1 DUP3 MSTORE DUP1 PUSH1 0x20 MUL PUSH1 0x20 ADD DUP3 ADD PUSH1 0x40 MSTORE DUP1 ISZERO PUSH2 0x3CD JUMPI DUP2 PUSH1 0x20 ADD JUMPDEST PUSH2 0x3BA PUSH2 0x75E JUMP JUMPDEST DUP2 MSTORE PUSH1 0x20 ADD SWAP1 PUSH1 0x1 SWAP1 SUB SWAP1 DUP2 PUSH2 0x3B2 JUMPI SWAP1 POP JUMPDEST POP SWAP1 POP PUSH1 0x40 MLOAD DUP1 PUSH1 0x40 ADD PUSH1 0x40 MSTORE DUP1 PUSH1 0x1 DUP2 MSTORE PUSH1 0x20 ADD PUSH1 0x2 DUP2 MSTORE POP DUP2 PUSH1 0x0 DUP2 MLOAD DUP2 LT PUSH2 0x3FB JUMPI PUSH2 0x3FA PUSH2 0x125A JUMP JUMPDEST JUMPDEST PUSH1 0x20 MUL PUSH1 0x20 ADD ADD DUP2 SWAP1 MSTORE POP PUSH1 0x0 PUSH1 0xC8 PUSH8 0xFFFFFFFFFFFFFFFF DUP2 GT ISZERO PUSH2 0x423 JUMPI PUSH2 0x422 PUSH2 0x8DD JUMP JUMPDEST JUMPDEST PUSH1 0x40 MLOAD SWAP1 DUP1 DUP3 MSTORE DUP1 PUSH1 0x1F ADD PUSH1 0x1F NOT AND PUSH1 0x20 ADD DUP3 ADD PUSH1 0x40 MSTORE DUP1 ISZERO PUSH2 0x455 JUMPI DUP2 PUSH1 0x20 ADD PUSH1 0x1 DUP3 MUL DUP1 CALLDATASIZE DUP4 CALLDATACOPY DUP1 DUP3 ADD SWAP2 POP POP SWAP1 POP JUMPDEST POP SWAP1 POP PUSH1 0x0 JUMPDEST DUP2 MLOAD DUP2 LT ISZERO PUSH2 0x4BD JUMPI DUP1 PUSH1 0xF8 SHL DUP3 DUP3 DUP2 MLOAD DUP2 LT PUSH2 0x47B JUMPI PUSH2 0x47A PUSH2 0x125A JUMP JUMPDEST JUMPDEST PUSH1 0x20 ADD ADD SWAP1 PUSH31 0xFFFFFFFFFFFFFFFFFFFFFFFFFFFFFFFFFFFFFFFFFFFFFFFFFFFFFFFFFFFFFF NOT AND SWAP1 DUP2 PUSH1 0x0 BYTE SWAP1 MSTORE8 POP DUP1 DUP1 PUSH2 0x4B5 SWAP1 PUSH2 0x1212 JUMP JUMPDEST SWAP2 POP POP PUSH2 0x45B JUMP JUMPDEST POP DUP1 SWAP3 POP POP POP SWAP2 SWAP1 POP JUMP JUMPDEST PUSH1 0x0 PUSH3 0x100001 SWAP1 POP PUSH1 0x2 DUP2 PUSH1 0x1 ADD DUP2 SWAP1 SSTORE POP DUP2 DUP2 PUSH1 0x0 ADD SWAP1 DUP1 MLOAD SWAP1 PUSH1 0x20 ADD SWAP1 PUSH2 0x4F2 SWAP3 SWAP2 SWAP1 PUSH2 0x780 JUMP JUMPDEST POP POP POP JUMP JUMPDEST DUP2 PUSH3 0x100000 DUP5 DUP2 SLOAD DUP2 LT PUSH2 0x50E JUMPI PUSH2 0x50D PUSH2 0x125A JUMP JUMPDEST JUMPDEST SWAP1 PUSH1 0x0 MSTORE PUSH1 0x20 PUSH1 0x0 KECCAK256 ADD PUSH1 0x0 PUSH1 0x2 DUP2 LT PUSH2 0x52B JUMPI PUSH2 0x52A PUSH2 0x125A JUMP JUMPDEST JUMPDEST PUSH1 0x20 SWAP2 DUP3 DUP3 DIV ADD SWAP2 SWAP1 MOD PUSH2 0x100 EXP DUP2 SLOAD DUP2 PUSH1 0xFF MUL NOT AND SWAP1 DUP4 ISZERO ISZERO MUL OR SWAP1 SSTORE POP DUP1 PUSH3 0x100000 DUP5 DUP2 SLOAD DUP2 LT PUSH2 0x561 JUMPI PUSH2 0x560 PUSH2 0x125A JUMP JUMPDEST JUMPDEST SWAP1 PUSH1 0x0 MSTORE PUSH1 0x20 PUSH1 0x0 KECCAK256 ADD PUSH1 0x1 PUSH1 0x2 DUP2 LT PUSH2 0x57E JUMPI PUSH2 0x57D PUSH2 0x125A JUMP JUMPDEST JUMPDEST PUSH1 0x20 SWAP2 DUP3 DUP3 DIV ADD SWAP2 SWAP1 MOD PUSH2 0x100 EXP DUP2 SLOAD DUP2 PUSH1 0xFF MUL NOT AND SWAP1 DUP4 ISZERO ISZERO MUL OR SWAP1 SSTORE POP POP POP POP JUMP JUMPDEST PUSH1 0x0 PUSH3 0x100000 DUP3 SWAP1 DUP1 PUSH1 0x1 DUP2 SLOAD ADD DUP1 DUP3 SSTORE DUP1 SWAP2 POP POP PUSH1 0x1 SWAP1 SUB SWAP1 PUSH1 0x0 MSTORE PUSH1 0x20 PUSH1 0x0 KECCAK256 ADD PUSH1 0x0 SWAP1 SWAP2 SWAP1 SWAP2 SWAP1 SWAP2 POP SWAP1 PUSH1 0x2 PUSH2 0x5DC SWAP3 SWAP2 SWAP1 PUSH2 0x7CD JUMP JUMPDEST POP PUSH3 0x100000 DUP1 SLOAD SWAP1 POP SWAP1 POP SWAP2 SWAP1 POP JUMP JUMPDEST DUP1 PUSH3 0x100000 SWAP1 DUP1 MLOAD SWAP1 PUSH1 0x20 ADD SWAP1 PUSH2 0x604 SWAP3 SWAP2 SWAP1 PUSH2 0x703 JUMP JUMPDEST POP POP JUMP JUMPDEST PUSH3 0x100000 DUP1 SLOAD SWAP1 POP DUP2 LT ISZERO PUSH2 0x663 JUMPI JUMPDEST DUP1 PUSH3 0x100000 DUP1 SLOAD SWAP1 POP GT ISZERO PUSH2 0x65E JUMPI PUSH3 0x100000 DUP1 SLOAD DUP1 PUSH2 0x63B JUMPI PUSH2 0x63A PUSH2 0x1289 JUMP JUMPDEST JUMPDEST PUSH1 0x1 SWAP1 SUB DUP2 DUP2 SWAP1 PUSH1 0x0 MSTORE PUSH1 0x20 PUSH1 0x0 KECCAK256 ADD PUSH1 0x0 PUSH2 0x657 SWAP2 SWAP1 PUSH2 0x866 JUMP JUMPDEST SWAP1 SSTORE PUSH2 0x618 JUMP JUMPDEST PUSH2 0x6A8 JUMP JUMPDEST PUSH3 0x100000 DUP1 SLOAD SWAP1 POP DUP2 GT ISZERO PUSH2 0x6A7 JUMPI JUMPDEST DUP1 PUSH3 0x100000 DUP1 SLOAD SWAP1 POP LT ISZERO PUSH2 0x6A6 JUMPI PUSH3 0x100000 PUSH1 0x1 DUP2 PUSH1 0x1 DUP2 SLOAD ADD DUP1 DUP3 SSTORE DUP1 SWAP2 POP POP SUB SWAP1 PUSH1 0x0 MSTORE PUSH1 0x20 PUSH1 0x0 KECCAK256 POP POP PUSH2 0x673 JUMP JUMPDEST JUMPDEST JUMPDEST POP JUMP JUMPDEST POP DUP1 SLOAD PUSH1 0x0 DUP3 SSTORE SWAP1 PUSH1 0x0 MSTORE PUSH1 0x20 PUSH1 0x0 KECCAK256 SWAP1 DUP2 ADD SWAP1 PUSH2 0x6C9 SWAP2 SWAP1 PUSH2 0x86D JUMP JUMPDEST POP JUMP JUMPDEST POP DUP1 PUSH3 0x100000 ADD SWAP1 PUSH2 0x6DE SWAP2 SWAP1 PUSH2 0x891 JUMP JUMPDEST POP JUMP JUMPDEST PUSH1 0x40 MLOAD DUP1 PUSH1 0x40 ADD PUSH1 0x40 MSTORE DUP1 PUSH1 0x2 SWAP1 PUSH1 0x20 DUP3 MUL DUP1 CALLDATASIZE DUP4 CALLDATACOPY DUP1 DUP3 ADD SWAP2 POP POP SWAP1 POP POP SWAP1 JUMP JUMPDEST DUP3 DUP1 SLOAD DUP3 DUP3 SSTORE SWAP1 PUSH1 0x0 MSTORE PUSH1 0x20 PUSH1 0x0 KECCAK256 SWAP1 DUP2 ADD SWAP3 DUP3 ISZERO PUSH2 0x74D JUMPI SWAP2 PUSH1 0x20 MUL DUP3 ADD JUMPDEST DUP3 DUP2 GT ISZERO PUSH2 0x74C JUMPI DUP3 MLOAD DUP3 SWAP1 PUSH1 0x2 PUSH2 0x73C SWAP3 SWAP2 SWAP1 PUSH2 0x7CD JUMP JUMPDEST POP SWAP2 PUSH1 0x20 ADD SWAP2 SWAP1 PUSH1 0x1 ADD SWAP1 PUSH2 0x723 JUMP JUMPDEST JUMPDEST POP SWAP1 POP PUSH2 0x75A SWAP2 SWAP1 PUSH2 0x86D JUMP JUMPDEST POP SWAP1 JUMP JUMPDEST PUSH1 0x40 MLOAD DUP1 PUSH1 0x40 ADD PUSH1 0x40 MSTORE DUP1 PUSH1 0x2 SWAP1 PUSH1 0x20 DUP3 MUL DUP1 CALLDATASIZE DUP4 CALLDATACOPY DUP1 DUP3 ADD SWAP2 POP POP SWAP1 POP POP SWAP1 JUMP JUMPDEST DUP3 DUP1 SLOAD DUP3 DUP3 SSTORE SWAP1 PUSH1 0x0 MSTORE PUSH1 0x20 PUSH1 0x0 KECCAK256 SWAP1 DUP2 ADD SWAP3 DUP3 ISZERO PUSH2 0x7BC JUMPI SWAP2 PUSH1 0x20 MUL DUP3 ADD JUMPDEST DUP3 DUP2 GT ISZERO PUSH2 0x7BB JUMPI DUP3 MLOAD DUP3 SSTORE SWAP2 PUSH1 0x20 ADD SWAP2 SWAP1 PUSH1 0x1 ADD SWAP1 PUSH2 0x7A0 JUMP JUMPDEST JUMPDEST POP SWAP1 POP PUSH2 0x7C9 SWAP2 SWAP1 PUSH2 0x891 JUMP JUMPDEST POP SWAP1 JUMP JUMPDEST DUP3 PUSH1 0x2 PUSH1 0x1F ADD PUSH1 0x20 SWAP1 DIV DUP2 ADD SWAP3 DUP3 ISZERO PUSH2 0x855 JUMPI SWAP2 PUSH1 0x20 MUL DUP3 ADD PUSH1 0x0 JUMPDEST DUP4 DUP3 GT ISZERO PUSH2 0x826 JUMPI DUP4 MLOAD DUP4 DUP3 PUSH2 0x100 EXP DUP2 SLOAD DUP2 PUSH1 0xFF MUL NOT AND SWAP1 DUP4 ISZERO ISZERO MUL OR SWAP1 SSTORE POP SWAP3 PUSH1 0x20 ADD SWAP3 PUSH1 0x1 ADD PUSH1 0x20 DUP2 PUSH1 0x0 ADD DIV SWAP3 DUP4 ADD SWAP3 PUSH1 0x1 SUB MUL PUSH2 0x7E9 JUMP JUMPDEST DUP1 ISZERO PUSH2 0x853 JUMPI DUP3 DUP2 PUSH2 0x100 EXP DUP2 SLOAD SWAP1 PUSH1 0xFF MUL NOT AND SWAP1 SSTORE PUSH1 0x1 ADD PUSH1 0x20 DUP2 PUSH1 0x0 ADD DIV SWAP3 DUP4 ADD SWAP3 PUSH1 0x1 SUB MUL PUSH2 0x826 JUMP JUMPDEST POP JUMPDEST POP SWAP1 POP PUSH2 0x862 SWAP2 SWAP1 PUSH2 0x891 JUMP JUMPDEST POP SWAP1 JUMP JUMPDEST POP PUSH1 0x0 SWAP1 SSTORE JUMP JUMPDEST JUMPDEST DUP1 DUP3 GT ISZERO PUSH2 0x88D JUMPI PUSH1 0x0 DUP2 DUP2 PUSH2 0x884 SWAP2 SWAP1 PUSH2 0x866 JUMP JUMPDEST POP PUSH1 0x1 ADD PUSH2 0x86E JUMP JUMPDEST POP SWAP1 JUMP JUMPDEST JUMPDEST DUP1 DUP3 GT ISZERO PUSH2 0x8AA JUMPI PUSH1 0x0 DUP2 PUSH1 0x0 SWAP1 SSTORE POP PUSH1 0x1 ADD PUSH2 0x892 JUMP JUMPDEST POP SWAP1 JUMP JUMPDEST PUSH1 0x0 PUSH1 0x40 MLOAD SWAP1 POP SWAP1 JUMP JUMPDEST PUSH1 0x0 DUP1 REVERT JUMPDEST PUSH1 0x0 DUP1 REVERT JUMPDEST PUSH1 0x0 DUP1 REVERT JUMPDEST PUSH1 0x0 DUP1 REVERT JUMPDEST PUSH1 0x0 PUSH1 0x1F NOT PUSH1 0x1F DUP4 ADD AND SWAP1 POP SWAP2 SWAP1 POP JUMP JUMPDEST PUSH32 0x4E487B7100000000000000000000000000000000000000000000000000000000 PUSH1 0x0 MSTORE PUSH1 0x41 PUSH1 0x4 MSTORE PUSH1 0x24 PUSH1 0x0 REVERT JUMPDEST PUSH2 0x915 DUP3 PUSH2 0x8CC JUMP JUMPDEST DUP2 ADD DUP2 DUP2 LT PUSH8 0xFFFFFFFFFFFFFFFF DUP3 GT OR ISZERO PUSH2 0x934 JUMPI PUSH2 0x933 PUSH2 0x8DD JUMP JUMPDEST JUMPDEST DUP1 PUSH1 0x40 MSTORE POP POP POP JUMP JUMPDEST PUSH1 0x0 PUSH2 0x947 PUSH2 0x8AE JUMP JUMPDEST SWAP1 POP PUSH2 0x953 DUP3 DUP3 PUSH2 0x90C JUMP JUMPDEST SWAP2 SWAP1 POP JUMP JUMPDEST PUSH1 0x0 PUSH8 0xFFFFFFFFFFFFFFFF DUP3 GT ISZERO PUSH2 0x973 JUMPI PUSH2 0x972 PUSH2 0x8DD JUMP JUMPDEST JUMPDEST PUSH2 0x97C DUP3 PUSH2 0x8CC JUMP JUMPDEST SWAP1 POP PUSH1 0x20 DUP2 ADD SWAP1 POP SWAP2 SWAP1 POP JUMP JUMPDEST DUP3 DUP2 DUP4 CALLDATACOPY PUSH1 0x0 DUP4 DUP4 ADD MSTORE POP POP POP JUMP JUMPDEST PUSH1 0x0 PUSH2 0x9AB PUSH2 0x9A6 DUP5 PUSH2 0x958 JUMP JUMPDEST PUSH2 0x93D JUMP JUMPDEST SWAP1 POP DUP3 DUP2 MSTORE PUSH1 0x20 DUP2 ADD DUP5 DUP5 DUP5 ADD GT ISZERO PUSH2 0x9C7 JUMPI PUSH2 0x9C6 PUSH2 0x8C7 JUMP JUMPDEST JUMPDEST PUSH2 0x9D2 DUP5 DUP3 DUP6 PUSH2 0x989 JUMP JUMPDEST POP SWAP4 SWAP3 POP POP POP JUMP JUMPDEST PUSH1 0x0 DUP3 PUSH1 0x1F DUP4 ADD SLT PUSH2 0x9EF JUMPI PUSH2 0x9EE PUSH2 0x8C2 JUMP JUMPDEST JUMPDEST DUP2 CALLDATALOAD PUSH2 0x9FF DUP5 DUP3 PUSH1 0x20 DUP7 ADD PUSH2 0x998 JUMP JUMPDEST SWAP2 POP POP SWAP3 SWAP2 POP POP JUMP JUMPDEST PUSH1 0x0 PUSH1 0x20 DUP3 DUP5 SUB SLT ISZERO PUSH2 0xA1E JUMPI PUSH2 0xA1D PUSH2 0x8B8 JUMP JUMPDEST JUMPDEST PUSH1 0x0 DUP3 ADD CALLDATALOAD PUSH8 0xFFFFFFFFFFFFFFFF DUP2 GT ISZERO PUSH2 0xA3C JUMPI PUSH2 0xA3B PUSH2 0x8BD JUMP JUMPDEST JUMPDEST PUSH2 0xA48 DUP5 DUP3 DUP6 ADD PUSH2 0x9DA JUMP JUMPDEST SWAP2 POP POP SWAP3 SWAP2 POP POP JUMP JUMPDEST PUSH1 0x0 DUP2 SWAP1 POP SWAP2 SWAP1 POP JUMP JUMPDEST PUSH2 0xA64 DUP2 PUSH2 0xA51 JUMP JUMPDEST DUP2 EQ PUSH2 0xA6F JUMPI PUSH1 0x0 DUP1 REVERT JUMPDEST POP JUMP JUMPDEST PUSH1 0x0 DUP2 CALLDATALOAD SWAP1 POP PUSH2 0xA81 DUP2 PUSH2 0xA5B JUMP JUMPDEST SWAP3 SWAP2 POP POP JUMP JUMPDEST PUSH1 0x0 PUSH1 0x20 DUP3 DUP5 SUB SLT ISZERO PUSH2 0xA9D JUMPI PUSH2 0xA9C PUSH2 0x8B8 JUMP JUMPDEST JUMPDEST PUSH1 0x0 PUSH2 0xAAB DUP5 DUP3 DUP6 ADD PUSH2 0xA72 JUMP JUMPDEST SWAP2 POP POP SWAP3 SWAP2 POP POP JUMP JUMPDEST PUSH1 0x0 DUP2 MLOAD SWAP1 POP SWAP2 SWAP1 POP JUMP JUMPDEST PUSH1 0x0 DUP3 DUP3 MSTORE PUSH1 0x20 DUP3 ADD SWAP1 POP SWAP3 SWAP2 POP POP JUMP JUMPDEST PUSH1 0x0 JUMPDEST DUP4 DUP2 LT ISZERO PUSH2 0xAEE JUMPI DUP1 DUP3 ADD MLOAD DUP2 DUP5 ADD MSTORE PUSH1 0x20 DUP2 ADD SWAP1 POP PUSH2 0xAD3 JUMP JUMPDEST PUSH1 0x0 DUP5 DUP5 ADD MSTORE POP POP POP POP JUMP JUMPDEST PUSH1 0x0 PUSH2 0xB05 DUP3 PUSH2 0xAB4 JUMP JUMPDEST PUSH2 0xB0F DUP2 DUP6 PUSH2 0xABF JUMP JUMPDEST SWAP4 POP PUSH2 0xB1F DUP2 DUP6 PUSH1 0x20 DUP7 ADD PUSH2 0xAD0 JUMP JUMPDEST PUSH2 0xB28 DUP2 PUSH2 0x8CC JUMP JUMPDEST DUP5 ADD SWAP2 POP POP SWAP3 SWAP2 POP POP JUMP JUMPDEST PUSH1 0x0 PUSH1 0x20 DUP3 ADD SWAP1 POP DUP2 DUP2 SUB PUSH1 0x0 DUP4 ADD MSTORE PUSH2 0xB4D DUP2 DUP5 PUSH2 0xAFA JUMP JUMPDEST SWAP1 POP SWAP3 SWAP2 POP POP JUMP JUMPDEST PUSH1 0x0 PUSH8 0xFFFFFFFFFFFFFFFF DUP3 GT ISZERO PUSH2 0xB70 JUMPI PUSH2 0xB6F PUSH2 0x8DD JUMP JUMPDEST JUMPDEST PUSH1 0x20 DUP3 MUL SWAP1 POP PUSH1 0x20 DUP2 ADD SWAP1 POP SWAP2 SWAP1 POP JUMP JUMPDEST PUSH1 0x0 DUP1 REVERT JUMPDEST PUSH1 0x0 PUSH2 0xB99 PUSH2 0xB94 DUP5 PUSH2 0xB55 JUMP JUMPDEST PUSH2 0x93D JUMP JUMPDEST SWAP1 POP DUP1 DUP4 DUP3 MSTORE PUSH1 0x20 DUP3 ADD SWAP1 POP PUSH1 0x20 DUP5 MUL DUP4 ADD DUP6 DUP2 GT ISZERO PUSH2 0xBBC JUMPI PUSH2 0xBBB PUSH2 0xB81 JUMP JUMPDEST JUMPDEST DUP4 JUMPDEST DUP2 DUP2 LT ISZERO PUSH2 0xBE5 JUMPI DUP1 PUSH2 0xBD1 DUP9 DUP3 PUSH2 0xA72 JUMP JUMPDEST DUP5 MSTORE PUSH1 0x20 DUP5 ADD SWAP4 POP POP PUSH1 0x20 DUP2 ADD SWAP1 POP PUSH2 0xBBE JUMP JUMPDEST POP POP POP SWAP4 SWAP3 POP POP POP JUMP JUMPDEST PUSH1 0x0 DUP3 PUSH1 0x1F DUP4 ADD SLT PUSH2 0xC04 JUMPI PUSH2 0xC03 PUSH2 0x8C2 JUMP JUMPDEST JUMPDEST DUP2 CALLDATALOAD PUSH2 0xC14 DUP5 DUP3 PUSH1 0x20 DUP7 ADD PUSH2 0xB86 JUMP JUMPDEST SWAP2 POP POP SWAP3 SWAP2 POP POP JUMP JUMPDEST PUSH1 0x0 PUSH1 0x20 DUP3 DUP5 SUB SLT ISZERO PUSH2 0xC33 JUMPI PUSH2 0xC32 PUSH2 0x8B8 JUMP JUMPDEST JUMPDEST PUSH1 0x0 DUP3 ADD CALLDATALOAD PUSH8 0xFFFFFFFFFFFFFFFF DUP2 GT ISZERO PUSH2 0xC51 JUMPI PUSH2 0xC50 PUSH2 0x8BD JUMP JUMPDEST JUMPDEST PUSH2 0xC5D DUP5 DUP3 DUP6 ADD PUSH2 0xBEF JUMP JUMPDEST SWAP2 POP POP SWAP3 SWAP2 POP POP JUMP JUMPDEST PUSH1 0x0 DUP2 ISZERO ISZERO SWAP1 POP SWAP2 SWAP1 POP JUMP JUMPDEST PUSH2 0xC7B DUP2 PUSH2 0xC66 JUMP JUMPDEST DUP2 EQ PUSH2 0xC86 JUMPI PUSH1 0x0 DUP1 REVERT JUMPDEST POP JUMP JUMPDEST PUSH1 0x0 DUP2 CALLDATALOAD SWAP1 POP PUSH2 0xC98 DUP2 PUSH2 0xC72 JUMP JUMPDEST SWAP3 SWAP2 POP POP JUMP JUMPDEST PUSH1 0x0 DUP1 PUSH1 0x0 PUSH1 0x60 DUP5 DUP7 SUB SLT ISZERO PUSH2 0xCB7 JUMPI PUSH2 0xCB6 PUSH2 0x8B8 JUMP JUMPDEST JUMPDEST PUSH1 0x0 PUSH2 0xCC5 DUP7 DUP3 DUP8 ADD PUSH2 0xA72 JUMP JUMPDEST SWAP4 POP POP PUSH1 0x20 PUSH2 0xCD6 DUP7 DUP3 DUP8 ADD PUSH2 0xC89 JUMP JUMPDEST SWAP3 POP POP PUSH1 0x40 PUSH2 0xCE7 DUP7 DUP3 DUP8 ADD PUSH2 0xC89 JUMP JUMPDEST SWAP2 POP POP SWAP3 POP SWAP3 POP SWAP3 JUMP JUMPDEST PUSH1 0x0 PUSH8 0xFFFFFFFFFFFFFFFF DUP3 GT ISZERO PUSH2 0xD0C JUMPI PUSH2 0xD0B PUSH2 0x8DD JUMP JUMPDEST JUMPDEST PUSH1 0x20 DUP3 MUL SWAP1 POP SWAP2 SWAP1 POP JUMP JUMPDEST PUSH1 0x0 PUSH2 0xD2A PUSH2 0xD25 DUP5 PUSH2 0xCF1 JUMP JUMPDEST PUSH2 0x93D JUMP JUMPDEST SWAP1 POP DUP1 PUSH1 0x20 DUP5 MUL DUP4 ADD DUP6 DUP2 GT ISZERO PUSH2 0xD44 JUMPI PUSH2 0xD43 PUSH2 0xB81 JUMP JUMPDEST JUMPDEST DUP4 JUMPDEST DUP2 DUP2 LT ISZERO PUSH2 0xD6D JUMPI DUP1 PUSH2 0xD59 DUP9 DUP3 PUSH2 0xC89 JUMP JUMPDEST DUP5 MSTORE PUSH1 0x20 DUP5 ADD SWAP4 POP POP PUSH1 0x20 DUP2 ADD SWAP1 POP PUSH2 0xD46 JUMP JUMPDEST POP POP POP SWAP4 SWAP3 POP POP POP JUMP JUMPDEST PUSH1 0x0 DUP3 PUSH1 0x1F DUP4 ADD SLT PUSH2 0xD8C JUMPI PUSH2 0xD8B PUSH2 0x8C2 JUMP JUMPDEST JUMPDEST PUSH1 0x2 PUSH2 0xD99 DUP5 DUP3 DUP6 PUSH2 0xD17 JUMP JUMPDEST SWAP2 POP POP SWAP3 SWAP2 POP POP JUMP JUMPDEST PUSH1 0x0 PUSH1 0x40 DUP3 DUP5 SUB SLT ISZERO PUSH2 0xDB8 JUMPI PUSH2 0xDB7 PUSH2 0x8B8 JUMP JUMPDEST JUMPDEST PUSH1 0x0 PUSH2 0xDC6 DUP5 DUP3 DUP6 ADD PUSH2 0xD77 JUMP JUMPDEST SWAP2 POP POP SWAP3 SWAP2 POP POP JUMP JUMPDEST PUSH2 0xDD8 DUP2 PUSH2 0xA51 JUMP JUMPDEST DUP3 MSTORE POP POP JUMP JUMPDEST PUSH1 0x0 PUSH1 0x20 DUP3 ADD SWAP1 POP PUSH2 0xDF3 PUSH1 0x0 DUP4 ADD DUP5 PUSH2 0xDCF JUMP JUMPDEST SWAP3 SWAP2 POP POP JUMP JUMPDEST PUSH1 0x0 PUSH8 0xFFFFFFFFFFFFFFFF DUP3 GT ISZERO PUSH2 0xE14 JUMPI PUSH2 0xE13 PUSH2 0x8DD JUMP JUMPDEST JUMPDEST PUSH1 0x20 DUP3 MUL SWAP1 POP PUSH1 0x20 DUP2 ADD SWAP1 POP SWAP2 SWAP1 POP JUMP JUMPDEST PUSH1 0x0 PUSH2 0xE38 PUSH2 0xE33 DUP5 PUSH2 0xDF9 JUMP JUMPDEST PUSH2 0x93D JUMP JUMPDEST SWAP1 POP DUP1 DUP4 DUP3 MSTORE PUSH1 0x20 DUP3 ADD SWAP1 POP PUSH1 0x40 DUP5 MUL DUP4 ADD DUP6 DUP2 GT ISZERO PUSH2 0xE5B JUMPI PUSH2 0xE5A PUSH2 0xB81 JUMP JUMPDEST JUMPDEST DUP4 JUMPDEST DUP2 DUP2 LT ISZERO PUSH2 0xE84 JUMPI DUP1 PUSH2 0xE70 DUP9 DUP3 PUSH2 0xD77 JUMP JUMPDEST DUP5 MSTORE PUSH1 0x20 DUP5 ADD SWAP4 POP POP PUSH1 0x40 DUP2 ADD SWAP1 POP PUSH2 0xE5D JUMP JUMPDEST POP POP POP SWAP4 SWAP3 POP POP POP JUMP JUMPDEST PUSH1 0x0 DUP3 PUSH1 0x1F DUP4 ADD SLT PUSH2 0xEA3 JUMPI PUSH2 0xEA2 PUSH2 0x8C2 JUMP JUMPDEST JUMPDEST DUP2 CALLDATALOAD PUSH2 0xEB3 DUP5 DUP3 PUSH1 0x20 DUP7 ADD PUSH2 0xE25 JUMP JUMPDEST SWAP2 POP POP SWAP3 SWAP2 POP POP JUMP JUMPDEST PUSH1 0x0 PUSH1 0x20 DUP3 DUP5 SUB SLT ISZERO PUSH2 0xED2 JUMPI PUSH2 0xED1 PUSH2 0x8B8 JUMP JUMPDEST JUMPDEST PUSH1 0x0 DUP3 ADD CALLDATALOAD PUSH8 0xFFFFFFFFFFFFFFFF DUP2 GT ISZERO PUSH2 0xEF0 JUMPI PUSH2 0xEEF PUSH2 0x8BD JUMP JUMPDEST JUMPDEST PUSH2 0xEFC DUP5 DUP3 DUP6 ADD PUSH2 0xE8E JUMP JUMPDEST SWAP2 POP POP SWAP3 SWAP2 POP POP JUMP JUMPDEST PUSH32 0x4E487B7100000000000000000000000000000000000000000000000000000000 PUSH1 0x0 MSTORE PUSH1 0x22 PUSH1 0x4 MSTORE PUSH1 0x24 PUSH1 0x0 REVERT JUMPDEST PUSH1 0x0 PUSH1 0x2 DUP3 DIV SWAP1 POP PUSH1 0x1 DUP3 AND DUP1 PUSH2 0xF4C JUMPI PUSH1 0x7F DUP3 AND SWAP2 POP JUMPDEST PUSH1 0x20 DUP3 LT DUP2 SUB PUSH2 0xF5F JUMPI PUSH2 0xF5E PUSH2 0xF05 JUMP JUMPDEST JUMPDEST POP SWAP2 SWAP1 POP JUMP JUMPDEST PUSH1 0x0 DUP2 SWAP1 POP DUP2 PUSH1 0x0 MSTORE PUSH1 0x20 PUSH1 0x0 KECCAK256 SWAP1 POP SWAP2 SWAP1 POP JUMP JUMPDEST PUSH1 0x0 PUSH1 0x20 PUSH1 0x1F DUP4 ADD DIV SWAP1 POP SWAP2 SWAP1 POP JUMP JUMPDEST PUSH1 0x0 DUP3 DUP3 SHL SWAP1 POP SWAP3 SWAP2 POP POP JUMP JUMPDEST PUSH1 0x0 PUSH1 0x8 DUP4 MUL PUSH2 0xFC7 PUSH32 0xFFFFFFFFFFFFFFFFFFFFFFFFFFFFFFFFFFFFFFFFFFFFFFFFFFFFFFFFFFFFFFFF DUP3 PUSH2 0xF8A JUMP JUMPDEST PUSH2 0xFD1 DUP7 DUP4 PUSH2 0xF8A JUMP JUMPDEST SWAP6 POP DUP1 NOT DUP5 AND SWAP4 POP DUP1 DUP7 AND DUP5 OR SWAP3 POP POP POP SWAP4 SWAP3 POP POP POP JUMP JUMPDEST PUSH1 0x0 DUP2 SWAP1 POP SWAP2 SWAP1 POP JUMP JUMPDEST PUSH1 0x0 PUSH2 0x100E PUSH2 0x1009 PUSH2 0x1004 DUP5 PUSH2 0xA51 JUMP JUMPDEST PUSH2 0xFE9 JUMP JUMPDEST PUSH2 0xA51 JUMP JUMPDEST SWAP1 POP SWAP2 SWAP1 POP JUMP JUMPDEST PUSH1 0x0 DUP2 SWAP1 POP SWAP2 SWAP1 POP JUMP JUMPDEST PUSH2 0x1028 DUP4 PUSH2 0xFF3 JUMP JUMPDEST PUSH2 0x103C PUSH2 0x1034 DUP3 PUSH2 0x1015 JUMP JUMPDEST DUP5 DUP5 SLOAD PUSH2 0xF97 JUMP JUMPDEST DUP3 SSTORE POP POP POP POP JUMP JUMPDEST PUSH1 0x0 SWAP1 JUMP JUMPDEST PUSH2 0x1051 PUSH2 0x1044 JUMP JUMPDEST PUSH2 0x105C DUP2 DUP5 DUP5 PUSH2 0x101F JUMP JUMPDEST POP POP POP JUMP JUMPDEST JUMPDEST DUP2 DUP2 LT ISZERO PUSH2 0x1080 JUMPI PUSH2 0x1075 PUSH1 0x0 DUP3 PUSH2 0x1049 JUMP JUMPDEST PUSH1 0x1 DUP2 ADD SWAP1 POP PUSH2 0x1062 JUMP JUMPDEST POP POP JUMP JUMPDEST PUSH1 0x1F DUP3 GT ISZERO PUSH2 0x10C5 JUMPI PUSH2 0x1096 DUP2 PUSH2 0xF65 JUMP JUMPDEST PUSH2 0x109F DUP5 PUSH2 0xF7A JUMP JUMPDEST DUP2 ADD PUSH1 0x20 DUP6 LT ISZERO PUSH2 0x10AE JUMPI DUP2 SWAP1 POP JUMPDEST PUSH2 0x10C2 PUSH2 0x10BA DUP6 PUSH2 0xF7A JUMP JUMPDEST DUP4 ADD DUP3 PUSH2 0x1061 JUMP JUMPDEST POP POP JUMPDEST POP POP POP JUMP JUMPDEST PUSH1 0x0 DUP3 DUP3 SHR SWAP1 POP SWAP3 SWAP2 POP POP JUMP JUMPDEST PUSH1 0x0 PUSH2 0x10E8 PUSH1 0x0 NOT DUP5 PUSH1 0x8 MUL PUSH2 0x10CA JUMP JUMPDEST NOT DUP1 DUP4 AND SWAP2 POP POP SWAP3 SWAP2 POP POP JUMP JUMPDEST PUSH1 0x0 PUSH2 0x1101 DUP4 DUP4 PUSH2 0x10D7 JUMP JUMPDEST SWAP2 POP DUP3 PUSH1 0x2 MUL DUP3 OR SWAP1 POP SWAP3 SWAP2 POP POP JUMP JUMPDEST PUSH2 0x111A DUP3 PUSH2 0xAB4 JUMP JUMPDEST PUSH8 0xFFFFFFFFFFFFFFFF DUP2 GT ISZERO PUSH2 0x1133 JUMPI PUSH2 0x1132 PUSH2 0x8DD JUMP JUMPDEST JUMPDEST PUSH2 0x113D DUP3 SLOAD PUSH2 0xF34 JUMP JUMPDEST PUSH2 0x1148 DUP3 DUP3 DUP6 PUSH2 0x1084 JUMP JUMPDEST PUSH1 0x0 PUSH1 0x20 SWAP1 POP PUSH1 0x1F DUP4 GT PUSH1 0x1 DUP2 EQ PUSH2 0x117B JUMPI PUSH1 0x0 DUP5 ISZERO PUSH2 0x1169 JUMPI DUP3 DUP8 ADD MLOAD SWAP1 POP JUMPDEST PUSH2 0x1173 DUP6 DUP3 PUSH2 0x10F5 JUMP JUMPDEST DUP7 SSTORE POP PUSH2 0x11DB JUMP JUMPDEST PUSH1 0x1F NOT DUP5 AND PUSH2 0x1189 DUP7 PUSH2 0xF65 JUMP JUMPDEST PUSH1 0x0 JUMPDEST DUP3 DUP2 LT ISZERO PUSH2 0x11B1 JUMPI DUP5 DUP10 ADD MLOAD DUP3 SSTORE PUSH1 0x1 DUP3 ADD SWAP2 POP PUSH1 0x20 DUP6 ADD SWAP5 POP PUSH1 0x20 DUP2 ADD SWAP1 POP PUSH2 0x118C JUMP JUMPDEST DUP7 DUP4 LT ISZERO PUSH2 0x11CE JUMPI DUP5 DUP10 ADD MLOAD PUSH2 0x11CA PUSH1 0x1F DUP10 AND DUP3 PUSH2 0x10D7 JUMP JUMPDEST DUP4 SSTORE POP JUMPDEST PUSH1 0x1 PUSH1 0x2 DUP9 MUL ADD DUP9 SSTORE POP POP POP JUMPDEST POP POP POP POP POP POP JUMP JUMPDEST PUSH32 0x4E487B7100000000000000000000000000000000000000000000000000000000 PUSH1 0x0 MSTORE PUSH1 0x11 PUSH1 0x4 MSTORE PUSH1 0x24 PUSH1 0x0 REVERT JUMPDEST PUSH1 0x0 PUSH2 0x121D DUP3 PUSH2 0xA51 JUMP JUMPDEST SWAP2 POP PUSH32 0xFFFFFFFFFFFFFFFFFFFFFFFFFFFFFFFFFFFFFFFFFFFFFFFFFFFFFFFFFFFFFFFF DUP3 SUB PUSH2 0x124F JUMPI PUSH2 0x124E PUSH2 0x11E3 JUMP JUMPDEST JUMPDEST PUSH1 0x1 DUP3 ADD SWAP1 POP SWAP2 SWAP1 POP JUMP JUMPDEST PUSH32 0x4E487B7100000000000000000000000000000000000000000000000000000000 PUSH1 0x0 MSTORE PUSH1 0x32 PUSH1 0x4 MSTORE PUSH1 0x24 PUSH1 0x0 REVERT JUMPDEST PUSH32 0x4E487B7100000000000000000000000000000000000000000000000000000000 PUSH1 0x0 MSTORE PUSH1 0x31 PUSH1 0x4 MSTORE PUSH1 0x24 PUSH1 0x0 REVERT INVALID LOG2 PUSH5 0x6970667358 0x22 SLT KECCAK256 0xD8 SHR 0xD4 0xC 0x4D SHR SWAP14 PUSH23 0xB554377DB70D27207E0368AC7DEC2FB47FFBA70A4A10C5 PC PUSH5 0x736F6C6343 STOP ADDMOD SLT STOP CALLER "
				},
				"gasEstimates": {
					"creation": {
						"codeDepositCost": "969200",
						"executionCost": "1008",
						"totalCost": "970208"
					},
					"external": {
						"addFlag(bool[2])": "infinite",
						"byteArrays(bytes)": "infinite",
						"changeFlagArraySize(uint256)": "infinite",
						"clear()": "infinite",
						"createMemoryArray(uint256)": "infinite",
						"f(uint256[])": "infinite",
						"setAllFlagPairs(bool[2][])": "infinite",
						"setFlagPair(uint256,bool,bool)": "infinite"
					}
				},
				"methodIdentifiers": {
					"addFlag(bool[2])": "b9cce72c",
					"byteArrays(bytes)": "31a56110",
					"changeFlagArraySize(uint256)": "f5933f66",
					"clear()": "52efea6e",
					"createMemoryArray(uint256)": "6d236703",
					"f(uint256[])": "7bc5bbbf",
					"setAllFlagPairs(bool[2][])": "deff71b8",
					"setFlagPair(uint256,bool,bool)": "7d7e5e3d"
				}
			},
			"storageLayout": {
				"storage": [
					{
						"astId": 7,
						"contract": "contract-5763e97fa0.sol:ArrayContract",
						"label": "aLotOfIntegers",
						"offset": 0,
						"slot": "0",
						"type": "t_array(t_uint256)1048576_storage"
					},
					{
						"astId": 12,
						"contract": "contract-5763e97fa0.sol:ArrayContract",
						"label": "pairsOfFlags",
						"offset": 0,
						"slot": "1048576",
						"type": "t_array(t_array(t_bool)2_storage)dyn_storage"
					},
					{
						"astId": 34,
						"contract": "contract-5763e97fa0.sol:ArrayContract",
						"label": "s",
						"offset": 0,
						"slot": "1048577",
						"type": "t_struct(StructType)31_storage"
					},
					{
						"astId": 144,
						"contract": "contract-5763e97fa0.sol:ArrayContract",
						"label": "byteData",
						"offset": 0,
						"slot": "1048579",
						"type": "t_bytes_storage"
					}
				],
				"types": {
					"t_array(t_array(t_bool)2_storage)dyn_storage": {
						"base": "t_array(t_bool)2_storage",
						"encoding": "dynamic_array",
						"label": "bool[2][]",
						"numberOfBytes": "32"
					},
					"t_array(t_bool)2_storage": {
						"base": "t_bool",
						"encoding": "inplace",
						"label": "bool[2]",
						"numberOfBytes": "32"
					},
					"t_array(t_uint256)1048576_storage": {
						"base": "t_uint256",
						"encoding": "inplace",
						"label": "uint256[1048576]",
						"numberOfBytes": "33554432"
					},
					"t_array(t_uint256)dyn_storage": {
						"base": "t_uint256",
						"encoding": "dynamic_array",
						"label": "uint256[]",
						"numberOfBytes": "32"
					},
					"t_bool": {
						"encoding": "inplace",
						"label": "bool",
						"numberOfBytes": "1"
					},
					"t_bytes_storage": {
						"encoding": "bytes",
						"label": "bytes",
						"numberOfBytes": "32"
					},
					"t_struct(StructType)31_storage": {
						"encoding": "inplace",
						"label": "struct ArrayContract.StructType",
						"members": [
							{
								"astId": 28,
								"contract": "contract-5763e97fa0.sol:ArrayContract",
								"label": "contents",
								"offset": 0,
								"slot": "0",
								"type": "t_array(t_uint256)dyn_storage"
							},
							{
								"astId": 30,
								"contract": "contract-5763e97fa0.sol:ArrayContract",
								"label": "moreInfo",
								"offset": 0,
								"slot": "1",
								"type": "t_uint256"
							}
						],
						"numberOfBytes": "64"
					},
					"t_uint256": {
						"encoding": "inplace",
						"label": "uint256",
						"numberOfBytes": "32"
					}
				}
			},
			"userdoc": {
				"kind": "user",
				"methods": {},
				"version": 1
			}
		}
	}
}