{
	"contract-functionAsParamter2.sol": {
		"Oracle": {
			"abi": [
				{
					"anonymous": false,
					"inputs": [
						{
							"indexed": false,
							"internalType": "uint256",
							"name": "",
							"type": "uint256"
						}
					],
					"name": "NewRequest",
					"type": "event"
				},
				{
					"inputs": [
						{
							"internalType": "bytes",
							"name": "data",
							"type": "bytes"
						},
						{
							"internalType": "function (uint256) external",
							"name": "callback",
							"type": "function"
						}
					],
					"name": "query",
					"outputs": [],
					"stateMutability": "nonpayable",
					"type": "function"
				},
				{
					"inputs": [
						{
							"internalType": "uint256",
							"name": "requestID",
							"type": "uint256"
						},
						{
							"internalType": "uint256",
							"name": "response",
							"type": "uint256"
						}
					],
					"name": "reply",
					"outputs": [],
					"stateMutability": "nonpayable",
					"type": "function"
				}
			],
			"devdoc": {
				"kind": "dev",
				"methods": {},
				"version": 1
			},
			"evm": {
				"assembly": "    /* \"contract-functionAsParamter2.sol\":71:610  contract Oracle {... */\n  mstore(0x40, 0x80)\n  callvalue\n  dup1\n  iszero\n  tag_1\n  jumpi\n  0x00\n  dup1\n  revert\ntag_1:\n  pop\n  dataSize(sub_0)\n  dup1\n  dataOffset(sub_0)\n  0x00\n  codecopy\n  0x00\n  return\nstop\n\nsub_0: assembly {\n        /* \"contract-functionAsParamter2.sol\":71:610  contract Oracle {... */\n      mstore(0x40, 0x80)\n      callvalue\n      dup1\n      iszero\n      tag_1\n      jumpi\n      0x00\n      dup1\n      revert\n    tag_1:\n      pop\n      jumpi(tag_2, lt(calldatasize, 0x04))\n      shr(0xe0, calldataload(0x00))\n      dup1\n      0xc1e51817\n      eq\n      tag_3\n      jumpi\n      dup1\n      0xd72d6770\n      eq\n      tag_4\n      jumpi\n    tag_2:\n      0x00\n      dup1\n      revert\n        /* \"contract-functionAsParamter2.sol\":426:608  function reply(uint requestID, uint response) public {... */\n    tag_3:\n      tag_5\n      0x04\n      dup1\n      calldatasize\n      sub\n      dup2\n      add\n      swap1\n      tag_6\n      swap2\n      swap1\n      tag_7\n      jump\t// in\n    tag_6:\n      tag_8\n      jump\t// in\n    tag_5:\n      stop\n        /* \"contract-functionAsParamter2.sol\":244:420  function query(bytes memory data, function(uint) external callback) public {... */\n    tag_4:\n      tag_9\n      0x04\n      dup1\n      calldatasize\n      sub\n      dup2\n      add\n      swap1\n      tag_10\n      swap2\n      swap1\n      tag_11\n      jump\t// in\n    tag_10:\n      tag_12\n      jump\t// in\n    tag_9:\n      stop\n        /* \"contract-functionAsParamter2.sol\":426:608  function reply(uint requestID, uint response) public {... */\n    tag_8:\n        /* \"contract-functionAsParamter2.sol\":563:571  requests */\n      0x00\n        /* \"contract-functionAsParamter2.sol\":572:581  requestID */\n      dup3\n        /* \"contract-functionAsParamter2.sol\":563:582  requests[requestID] */\n      dup2\n      sload\n      dup2\n      lt\n      tag_14\n      jumpi\n      tag_15\n      tag_16\n      jump\t// in\n    tag_15:\n    tag_14:\n      swap1\n      0x00\n      mstore\n      keccak256(0x00, 0x20)\n      swap1\n      0x02\n      mul\n      add\n        /* \"contract-functionAsParamter2.sol\":563:591  requests[requestID].callback */\n      0x01\n      add\n      0x00\n      swap1\n      sload\n      swap1\n      0x0100\n      exp\n      swap1\n      div\n      dup1\n      0x20\n      shr\n      0xffffffffffffffffffffffffffffffffffffffff\n      and\n      swap1\n      0xffffffff\n      and\n        /* \"contract-functionAsParamter2.sol\":592:600  response */\n      dup3\n        /* \"contract-functionAsParamter2.sol\":563:601  requests[requestID].callback(response) */\n      mload(0x40)\n      dup3\n      0xffffffff\n      and\n      0xe0\n      shl\n      dup2\n      mstore\n      0x04\n      add\n      tag_18\n      swap2\n      swap1\n      tag_19\n      jump\t// in\n    tag_18:\n      0x00\n      mload(0x40)\n      dup1\n      dup4\n      sub\n      dup2\n      0x00\n      dup8\n      dup1\n      extcodesize\n      iszero\n      dup1\n      iszero\n      tag_20\n      jumpi\n      0x00\n      dup1\n      revert\n    tag_20:\n      pop\n      gas\n      call\n      iszero\n      dup1\n      iszero\n      tag_22\n      jumpi\n      returndatasize\n      0x00\n      dup1\n      returndatacopy\n      revert(0x00, returndatasize)\n    tag_22:\n      pop\n      pop\n      pop\n      pop\n        /* \"contract-functionAsParamter2.sol\":426:608  function reply(uint requestID, uint response) public {... */\n      pop\n      pop\n      jump\t// out\n        /* \"contract-functionAsParamter2.sol\":244:420  function query(bytes memory data, function(uint) external callback) public {... */\n    tag_12:\n        /* \"contract-functionAsParamter2.sol\":329:337  requests */\n      0x00\n        /* \"contract-functionAsParamter2.sol\":343:366  Request(data, callback) */\n      mload(0x40)\n      dup1\n      0x40\n      add\n      0x40\n      mstore\n      dup1\n        /* \"contract-functionAsParamter2.sol\":351:355  data */\n      dup6\n        /* \"contract-functionAsParamter2.sol\":343:366  Request(data, callback) */\n      dup2\n      mstore\n      0x20\n      add\n        /* \"contract-functionAsParamter2.sol\":357:365  callback */\n      dup5\n      dup5\n        /* \"contract-functionAsParamter2.sol\":343:366  Request(data, callback) */\n      0xffffffff\n      and\n      swap1\n      0x20\n      shl\n      or\n      0x40\n      shl\n      dup2\n      mstore\n      pop\n        /* \"contract-functionAsParamter2.sol\":329:367  requests.push(Request(data, callback)) */\n      swap1\n      dup1\n      0x01\n      dup2\n      sload\n      add\n      dup1\n      dup3\n      sstore\n      dup1\n      swap2\n      pop\n      pop\n      0x01\n      swap1\n      sub\n      swap1\n      0x00\n      mstore\n      keccak256(0x00, 0x20)\n      swap1\n      0x02\n      mul\n      add\n      0x00\n      swap1\n      swap2\n      swap1\n      swap2\n      swap1\n      swap2\n      pop\n      0x00\n      dup3\n      add\n      mload\n      dup2\n      0x00\n      add\n      swap1\n      dup2\n      tag_25\n      swap2\n      swap1\n      tag_26\n      jump\t// in\n    tag_25:\n      pop\n      0x20\n      dup3\n      add\n      mload\n      dup1\n      0x60\n      shr\n      swap1\n      0x40\n      shr\n      0xffffffff\n      and\n      dup3\n      0x01\n      add\n      exp(0x0100, 0x00)\n      dup2\n      sload\n      dup2\n      0xffffffffffffffffffffffffffffffffffffffffffffffff\n      mul\n      not\n      and\n      swap1\n      dup5\n      dup5\n      0xffffffff\n      and\n      swap1\n      0xffffffffffffffffffffffffffffffffffffffff\n      and\n      0x20\n      shl\n      or\n      mul\n      or\n      swap1\n      sstore\n      pop\n      pop\n      pop\n      pop\n        /* \"contract-functionAsParamter2.sol\":382:413  NewRequest(requests.length - 1) */\n      0xe5e7dd91b3ed7fb84c335f117423d1b9bbbed2d76c57e81520dd681b9ede9885\n        /* \"contract-functionAsParamter2.sol\":411:412  1 */\n      0x01\n        /* \"contract-functionAsParamter2.sol\":393:401  requests */\n      0x00\n        /* \"contract-functionAsParamter2.sol\":393:408  requests.length */\n      dup1\n      sload\n      swap1\n      pop\n        /* \"contract-functionAsParamter2.sol\":393:412  requests.length - 1 */\n      tag_27\n      swap2\n      swap1\n      tag_28\n      jump\t// in\n    tag_27:\n        /* \"contract-functionAsParamter2.sol\":382:413  NewRequest(requests.length - 1) */\n      mload(0x40)\n      tag_29\n      swap2\n      swap1\n      tag_19\n      jump\t// in\n    tag_29:\n      mload(0x40)\n      dup1\n      swap2\n      sub\n      swap1\n      log1\n        /* \"contract-functionAsParamter2.sol\":244:420  function query(bytes memory data, function(uint) external callback) public {... */\n      pop\n      pop\n      pop\n      jump\t// out\n        /* \"#utility.yul\":7:82   */\n    tag_30:\n        /* \"#utility.yul\":40:46   */\n      0x00\n        /* \"#utility.yul\":73:75   */\n      0x40\n        /* \"#utility.yul\":67:76   */\n      mload\n        /* \"#utility.yul\":57:76   */\n      swap1\n      pop\n        /* \"#utility.yul\":7:82   */\n      swap1\n      jump\t// out\n        /* \"#utility.yul\":88:205   */\n    tag_31:\n        /* \"#utility.yul\":197:198   */\n      0x00\n        /* \"#utility.yul\":194:195   */\n      dup1\n        /* \"#utility.yul\":187:199   */\n      revert\n        /* \"#utility.yul\":211:328   */\n    tag_32:\n        /* \"#utility.yul\":320:321   */\n      0x00\n        /* \"#utility.yul\":317:318   */\n      dup1\n        /* \"#utility.yul\":310:322   */\n      revert\n        /* \"#utility.yul\":334:411   */\n    tag_33:\n        /* \"#utility.yul\":371:378   */\n      0x00\n        /* \"#utility.yul\":400:405   */\n      dup2\n        /* \"#utility.yul\":389:405   */\n      swap1\n      pop\n        /* \"#utility.yul\":334:411   */\n      swap2\n      swap1\n      pop\n      jump\t// out\n        /* \"#utility.yul\":417:539   */\n    tag_34:\n        /* \"#utility.yul\":490:514   */\n      tag_80\n        /* \"#utility.yul\":508:513   */\n      dup2\n        /* \"#utility.yul\":490:514   */\n      tag_33\n      jump\t// in\n    tag_80:\n        /* \"#utility.yul\":483:488   */\n      dup2\n        /* \"#utility.yul\":480:515   */\n      eq\n        /* \"#utility.yul\":470:533   */\n      tag_81\n      jumpi\n        /* \"#utility.yul\":529:530   */\n      0x00\n        /* \"#utility.yul\":526:527   */\n      dup1\n        /* \"#utility.yul\":519:531   */\n      revert\n        /* \"#utility.yul\":470:533   */\n    tag_81:\n        /* \"#utility.yul\":417:539   */\n      pop\n      jump\t// out\n        /* \"#utility.yul\":545:684   */\n    tag_35:\n        /* \"#utility.yul\":591:596   */\n      0x00\n        /* \"#utility.yul\":629:635   */\n      dup2\n        /* \"#utility.yul\":616:636   */\n      calldataload\n        /* \"#utility.yul\":607:636   */\n      swap1\n      pop\n        /* \"#utility.yul\":645:678   */\n      tag_83\n        /* \"#utility.yul\":672:677   */\n      dup2\n        /* \"#utility.yul\":645:678   */\n      tag_34\n      jump\t// in\n    tag_83:\n        /* \"#utility.yul\":545:684   */\n      swap3\n      swap2\n      pop\n      pop\n      jump\t// out\n        /* \"#utility.yul\":690:1164   */\n    tag_7:\n        /* \"#utility.yul\":758:764   */\n      0x00\n        /* \"#utility.yul\":766:772   */\n      dup1\n        /* \"#utility.yul\":815:817   */\n      0x40\n        /* \"#utility.yul\":803:812   */\n      dup4\n        /* \"#utility.yul\":794:801   */\n      dup6\n        /* \"#utility.yul\":790:813   */\n      sub\n        /* \"#utility.yul\":786:818   */\n      slt\n        /* \"#utility.yul\":783:902   */\n      iszero\n      tag_85\n      jumpi\n        /* \"#utility.yul\":821:900   */\n      tag_86\n      tag_31\n      jump\t// in\n    tag_86:\n        /* \"#utility.yul\":783:902   */\n    tag_85:\n        /* \"#utility.yul\":941:942   */\n      0x00\n        /* \"#utility.yul\":966:1019   */\n      tag_87\n        /* \"#utility.yul\":1011:1018   */\n      dup6\n        /* \"#utility.yul\":1002:1008   */\n      dup3\n        /* \"#utility.yul\":991:1000   */\n      dup7\n        /* \"#utility.yul\":987:1009   */\n      add\n        /* \"#utility.yul\":966:1019   */\n      tag_35\n      jump\t// in\n    tag_87:\n        /* \"#utility.yul\":956:1019   */\n      swap3\n      pop\n        /* \"#utility.yul\":912:1029   */\n      pop\n        /* \"#utility.yul\":1068:1070   */\n      0x20\n        /* \"#utility.yul\":1094:1147   */\n      tag_88\n        /* \"#utility.yul\":1139:1146   */\n      dup6\n        /* \"#utility.yul\":1130:1136   */\n      dup3\n        /* \"#utility.yul\":1119:1128   */\n      dup7\n        /* \"#utility.yul\":1115:1137   */\n      add\n        /* \"#utility.yul\":1094:1147   */\n      tag_35\n      jump\t// in\n    tag_88:\n        /* \"#utility.yul\":1084:1147   */\n      swap2\n      pop\n        /* \"#utility.yul\":1039:1157   */\n      pop\n        /* \"#utility.yul\":690:1164   */\n      swap3\n      pop\n      swap3\n      swap1\n      pop\n      jump\t// out\n        /* \"#utility.yul\":1170:1287   */\n    tag_36:\n        /* \"#utility.yul\":1279:1280   */\n      0x00\n        /* \"#utility.yul\":1276:1277   */\n      dup1\n        /* \"#utility.yul\":1269:1281   */\n      revert\n        /* \"#utility.yul\":1293:1410   */\n    tag_37:\n        /* \"#utility.yul\":1402:1403   */\n      0x00\n        /* \"#utility.yul\":1399:1400   */\n      dup1\n        /* \"#utility.yul\":1392:1404   */\n      revert\n        /* \"#utility.yul\":1416:1518   */\n    tag_38:\n        /* \"#utility.yul\":1457:1463   */\n      0x00\n        /* \"#utility.yul\":1508:1510   */\n      0x1f\n        /* \"#utility.yul\":1504:1511   */\n      not\n        /* \"#utility.yul\":1499:1501   */\n      0x1f\n        /* \"#utility.yul\":1492:1497   */\n      dup4\n        /* \"#utility.yul\":1488:1502   */\n      add\n        /* \"#utility.yul\":1484:1512   */\n      and\n        /* \"#utility.yul\":1474:1512   */\n      swap1\n      pop\n        /* \"#utility.yul\":1416:1518   */\n      swap2\n      swap1\n      pop\n      jump\t// out\n        /* \"#utility.yul\":1524:1704   */\n    tag_39:\n        /* \"#utility.yul\":1572:1649   */\n      0x4e487b7100000000000000000000000000000000000000000000000000000000\n        /* \"#utility.yul\":1569:1570   */\n      0x00\n        /* \"#utility.yul\":1562:1650   */\n      mstore\n        /* \"#utility.yul\":1669:1673   */\n      0x41\n        /* \"#utility.yul\":1666:1667   */\n      0x04\n        /* \"#utility.yul\":1659:1674   */\n      mstore\n        /* \"#utility.yul\":1693:1697   */\n      0x24\n        /* \"#utility.yul\":1690:1691   */\n      0x00\n        /* \"#utility.yul\":1683:1698   */\n      revert\n        /* \"#utility.yul\":1710:1991   */\n    tag_40:\n        /* \"#utility.yul\":1793:1820   */\n      tag_94\n        /* \"#utility.yul\":1815:1819   */\n      dup3\n        /* \"#utility.yul\":1793:1820   */\n      tag_38\n      jump\t// in\n    tag_94:\n        /* \"#utility.yul\":1785:1791   */\n      dup2\n        /* \"#utility.yul\":1781:1821   */\n      add\n        /* \"#utility.yul\":1923:1929   */\n      dup2\n        /* \"#utility.yul\":1911:1921   */\n      dup2\n        /* \"#utility.yul\":1908:1930   */\n      lt\n        /* \"#utility.yul\":1887:1905   */\n      0xffffffffffffffff\n        /* \"#utility.yul\":1875:1885   */\n      dup3\n        /* \"#utility.yul\":1872:1906   */\n      gt\n        /* \"#utility.yul\":1869:1931   */\n      or\n        /* \"#utility.yul\":1866:1954   */\n      iszero\n      tag_95\n      jumpi\n        /* \"#utility.yul\":1934:1952   */\n      tag_96\n      tag_39\n      jump\t// in\n    tag_96:\n        /* \"#utility.yul\":1866:1954   */\n    tag_95:\n        /* \"#utility.yul\":1974:1984   */\n      dup1\n        /* \"#utility.yul\":1970:1972   */\n      0x40\n        /* \"#utility.yul\":1963:1985   */\n      mstore\n        /* \"#utility.yul\":1753:1991   */\n      pop\n        /* \"#utility.yul\":1710:1991   */\n      pop\n      pop\n      jump\t// out\n        /* \"#utility.yul\":1997:2126   */\n    tag_41:\n        /* \"#utility.yul\":2031:2037   */\n      0x00\n        /* \"#utility.yul\":2058:2078   */\n      tag_98\n      tag_30\n      jump\t// in\n    tag_98:\n        /* \"#utility.yul\":2048:2078   */\n      swap1\n      pop\n        /* \"#utility.yul\":2087:2120   */\n      tag_99\n        /* \"#utility.yul\":2115:2119   */\n      dup3\n        /* \"#utility.yul\":2107:2113   */\n      dup3\n        /* \"#utility.yul\":2087:2120   */\n      tag_40\n      jump\t// in\n    tag_99:\n        /* \"#utility.yul\":1997:2126   */\n      swap2\n      swap1\n      pop\n      jump\t// out\n        /* \"#utility.yul\":2132:2439   */\n    tag_42:\n        /* \"#utility.yul\":2193:2197   */\n      0x00\n        /* \"#utility.yul\":2283:2301   */\n      0xffffffffffffffff\n        /* \"#utility.yul\":2275:2281   */\n      dup3\n        /* \"#utility.yul\":2272:2302   */\n      gt\n        /* \"#utility.yul\":2269:2325   */\n      iszero\n      tag_101\n      jumpi\n        /* \"#utility.yul\":2305:2323   */\n      tag_102\n      tag_39\n      jump\t// in\n    tag_102:\n        /* \"#utility.yul\":2269:2325   */\n    tag_101:\n        /* \"#utility.yul\":2343:2372   */\n      tag_103\n        /* \"#utility.yul\":2365:2371   */\n      dup3\n        /* \"#utility.yul\":2343:2372   */\n      tag_38\n      jump\t// in\n    tag_103:\n        /* \"#utility.yul\":2335:2372   */\n      swap1\n      pop\n        /* \"#utility.yul\":2427:2431   */\n      0x20\n        /* \"#utility.yul\":2421:2425   */\n      dup2\n        /* \"#utility.yul\":2417:2432   */\n      add\n        /* \"#utility.yul\":2409:2432   */\n      swap1\n      pop\n        /* \"#utility.yul\":2132:2439   */\n      swap2\n      swap1\n      pop\n      jump\t// out\n        /* \"#utility.yul\":2445:2591   */\n    tag_43:\n        /* \"#utility.yul\":2542:2548   */\n      dup3\n        /* \"#utility.yul\":2537:2540   */\n      dup2\n        /* \"#utility.yul\":2532:2535   */\n      dup4\n        /* \"#utility.yul\":2519:2549   */\n      calldatacopy\n        /* \"#utility.yul\":2583:2584   */\n      0x00\n        /* \"#utility.yul\":2574:2580   */\n      dup4\n        /* \"#utility.yul\":2569:2572   */\n      dup4\n        /* \"#utility.yul\":2565:2581   */\n      add\n        /* \"#utility.yul\":2558:2585   */\n      mstore\n        /* \"#utility.yul\":2445:2591   */\n      pop\n      pop\n      pop\n      jump\t// out\n        /* \"#utility.yul\":2597:3020   */\n    tag_44:\n        /* \"#utility.yul\":2674:2679   */\n      0x00\n        /* \"#utility.yul\":2699:2764   */\n      tag_106\n        /* \"#utility.yul\":2715:2763   */\n      tag_107\n        /* \"#utility.yul\":2756:2762   */\n      dup5\n        /* \"#utility.yul\":2715:2763   */\n      tag_42\n      jump\t// in\n    tag_107:\n        /* \"#utility.yul\":2699:2764   */\n      tag_41\n      jump\t// in\n    tag_106:\n        /* \"#utility.yul\":2690:2764   */\n      swap1\n      pop\n        /* \"#utility.yul\":2787:2793   */\n      dup3\n        /* \"#utility.yul\":2780:2785   */\n      dup2\n        /* \"#utility.yul\":2773:2794   */\n      mstore\n        /* \"#utility.yul\":2825:2829   */\n      0x20\n        /* \"#utility.yul\":2818:2823   */\n      dup2\n        /* \"#utility.yul\":2814:2830   */\n      add\n        /* \"#utility.yul\":2863:2866   */\n      dup5\n        /* \"#utility.yul\":2854:2860   */\n      dup5\n        /* \"#utility.yul\":2849:2852   */\n      dup5\n        /* \"#utility.yul\":2845:2861   */\n      add\n        /* \"#utility.yul\":2842:2867   */\n      gt\n        /* \"#utility.yul\":2839:2951   */\n      iszero\n      tag_108\n      jumpi\n        /* \"#utility.yul\":2870:2949   */\n      tag_109\n      tag_37\n      jump\t// in\n    tag_109:\n        /* \"#utility.yul\":2839:2951   */\n    tag_108:\n        /* \"#utility.yul\":2960:3014   */\n      tag_110\n        /* \"#utility.yul\":3007:3013   */\n      dup5\n        /* \"#utility.yul\":3002:3005   */\n      dup3\n        /* \"#utility.yul\":2997:3000   */\n      dup6\n        /* \"#utility.yul\":2960:3014   */\n      tag_43\n      jump\t// in\n    tag_110:\n        /* \"#utility.yul\":2680:3020   */\n      pop\n        /* \"#utility.yul\":2597:3020   */\n      swap4\n      swap3\n      pop\n      pop\n      pop\n      jump\t// out\n        /* \"#utility.yul\":3039:3377   */\n    tag_45:\n        /* \"#utility.yul\":3094:3099   */\n      0x00\n        /* \"#utility.yul\":3143:3146   */\n      dup3\n        /* \"#utility.yul\":3136:3140   */\n      0x1f\n        /* \"#utility.yul\":3128:3134   */\n      dup4\n        /* \"#utility.yul\":3124:3141   */\n      add\n        /* \"#utility.yul\":3120:3147   */\n      slt\n        /* \"#utility.yul\":3110:3232   */\n      tag_112\n      jumpi\n        /* \"#utility.yul\":3151:3230   */\n      tag_113\n      tag_36\n      jump\t// in\n    tag_113:\n        /* \"#utility.yul\":3110:3232   */\n    tag_112:\n        /* \"#utility.yul\":3268:3274   */\n      dup2\n        /* \"#utility.yul\":3255:3275   */\n      calldataload\n        /* \"#utility.yul\":3293:3371   */\n      tag_114\n        /* \"#utility.yul\":3367:3370   */\n      dup5\n        /* \"#utility.yul\":3359:3365   */\n      dup3\n        /* \"#utility.yul\":3352:3356   */\n      0x20\n        /* \"#utility.yul\":3344:3350   */\n      dup7\n        /* \"#utility.yul\":3340:3357   */\n      add\n        /* \"#utility.yul\":3293:3371   */\n      tag_44\n      jump\t// in\n    tag_114:\n        /* \"#utility.yul\":3284:3371   */\n      swap2\n      pop\n        /* \"#utility.yul\":3100:3377   */\n      pop\n        /* \"#utility.yul\":3039:3377   */\n      swap3\n      swap2\n      pop\n      pop\n      jump\t// out\n        /* \"#utility.yul\":3383:3533   */\n    tag_46:\n        /* \"#utility.yul\":3420:3427   */\n      0x00\n        /* \"#utility.yul\":3460:3526   */\n      0xffffffffffffffffffffffffffffffffffffffffffffffff0000000000000000\n        /* \"#utility.yul\":3453:3458   */\n      dup3\n        /* \"#utility.yul\":3449:3527   */\n      and\n        /* \"#utility.yul\":3438:3527   */\n      swap1\n      pop\n        /* \"#utility.yul\":3383:3533   */\n      swap2\n      swap1\n      pop\n      jump\t// out\n        /* \"#utility.yul\":3539:3680   */\n    tag_47:\n        /* \"#utility.yul\":3621:3628   */\n      0x00\n        /* \"#utility.yul\":3650:3674   */\n      tag_117\n        /* \"#utility.yul\":3668:3673   */\n      dup3\n        /* \"#utility.yul\":3650:3674   */\n      tag_46\n      jump\t// in\n    tag_117:\n        /* \"#utility.yul\":3639:3674   */\n      swap1\n      pop\n        /* \"#utility.yul\":3539:3680   */\n      swap2\n      swap1\n      pop\n      jump\t// out\n        /* \"#utility.yul\":3686:3898   */\n    tag_48:\n        /* \"#utility.yul\":3804:3873   */\n      tag_119\n        /* \"#utility.yul\":3867:3872   */\n      dup2\n        /* \"#utility.yul\":3804:3873   */\n      tag_47\n      jump\t// in\n    tag_119:\n        /* \"#utility.yul\":3797:3802   */\n      dup2\n        /* \"#utility.yul\":3794:3874   */\n      eq\n        /* \"#utility.yul\":3784:3892   */\n      tag_120\n      jumpi\n        /* \"#utility.yul\":3888:3889   */\n      0x00\n        /* \"#utility.yul\":3885:3886   */\n      dup1\n        /* \"#utility.yul\":3878:3890   */\n      revert\n        /* \"#utility.yul\":3784:3892   */\n    tag_120:\n        /* \"#utility.yul\":3686:3898   */\n      pop\n      jump\t// out\n        /* \"#utility.yul\":3904:4127   */\n    tag_49:\n        /* \"#utility.yul\":3995:3998   */\n      0x00\n        /* \"#utility.yul\":4029:4035   */\n      dup2\n        /* \"#utility.yul\":4016:4036   */\n      calldataload\n        /* \"#utility.yul\":4009:4036   */\n      swap1\n      pop\n        /* \"#utility.yul\":4045:4121   */\n      tag_122\n        /* \"#utility.yul\":4117:4120   */\n      dup2\n        /* \"#utility.yul\":4045:4121   */\n      tag_48\n      jump\t// in\n    tag_122:\n        /* \"#utility.yul\":3904:4127   */\n      swap3\n      swap2\n      pop\n      pop\n      jump\t// out\n        /* \"#utility.yul\":4133:4237   */\n    tag_50:\n        /* \"#utility.yul\":4176:4184   */\n      0x00\n        /* \"#utility.yul\":4224:4229   */\n      dup2\n        /* \"#utility.yul\":4220:4222   */\n      0x20\n        /* \"#utility.yul\":4216:4230   */\n      shr\n        /* \"#utility.yul\":4195:4230   */\n      swap1\n      pop\n        /* \"#utility.yul\":4133:4237   */\n      swap2\n      swap1\n      pop\n      jump\t// out\n        /* \"#utility.yul\":4243:4347   */\n    tag_51:\n        /* \"#utility.yul\":4286:4294   */\n      0x00\n        /* \"#utility.yul\":4334:4339   */\n      dup2\n        /* \"#utility.yul\":4330:4332   */\n      0x40\n        /* \"#utility.yul\":4326:4340   */\n      shr\n        /* \"#utility.yul\":4305:4340   */\n      swap1\n      pop\n        /* \"#utility.yul\":4243:4347   */\n      swap2\n      swap1\n      pop\n      jump\t// out\n        /* \"#utility.yul\":4353:4574   */\n    tag_52:\n        /* \"#utility.yul\":4402:4406   */\n      0x00\n        /* \"#utility.yul\":4408:4416   */\n      dup1\n        /* \"#utility.yul\":4439:4472   */\n      tag_126\n        /* \"#utility.yul\":4463:4471   */\n      dup4\n        /* \"#utility.yul\":4439:4472   */\n      tag_51\n      jump\t// in\n    tag_126:\n        /* \"#utility.yul\":4427:4472   */\n      swap3\n      pop\n        /* \"#utility.yul\":4507:4517   */\n      0xffffffff\n        /* \"#utility.yul\":4497:4505   */\n      dup4\n        /* \"#utility.yul\":4493:4518   */\n      and\n        /* \"#utility.yul\":4481:4518   */\n      swap1\n      pop\n        /* \"#utility.yul\":4535:4568   */\n      tag_127\n        /* \"#utility.yul\":4559:4567   */\n      dup4\n        /* \"#utility.yul\":4535:4568   */\n      tag_50\n      jump\t// in\n    tag_127:\n        /* \"#utility.yul\":4527:4568   */\n      swap2\n      pop\n        /* \"#utility.yul\":4353:4574   */\n      swap2\n      pop\n      swap2\n      jump\t// out\n        /* \"#utility.yul\":4580:4852   */\n    tag_53:\n        /* \"#utility.yul\":4679:4683   */\n      0x00\n        /* \"#utility.yul\":4685:4702   */\n      dup1\n        /* \"#utility.yul\":4740:4846   */\n      tag_129\n        /* \"#utility.yul\":4767:4845   */\n      tag_130\n        /* \"#utility.yul\":4841:4844   */\n      dup6\n        /* \"#utility.yul\":4833:4839   */\n      dup6\n        /* \"#utility.yul\":4767:4845   */\n      tag_49\n      jump\t// in\n    tag_130:\n        /* \"#utility.yul\":4740:4846   */\n      tag_52\n      jump\t// in\n    tag_129:\n        /* \"#utility.yul\":4713:4846   */\n      swap2\n      pop\n      swap2\n      pop\n        /* \"#utility.yul\":4580:4852   */\n      swap3\n      pop\n      swap3\n      swap1\n      pop\n      jump\t// out\n        /* \"#utility.yul\":4858:5624   */\n    tag_11:\n        /* \"#utility.yul\":4980:4986   */\n      0x00\n        /* \"#utility.yul\":4988:4994   */\n      dup1\n        /* \"#utility.yul\":4996:5002   */\n      0x00\n        /* \"#utility.yul\":5045:5047   */\n      0x40\n        /* \"#utility.yul\":5033:5042   */\n      dup5\n        /* \"#utility.yul\":5024:5031   */\n      dup7\n        /* \"#utility.yul\":5020:5043   */\n      sub\n        /* \"#utility.yul\":5016:5048   */\n      slt\n        /* \"#utility.yul\":5013:5132   */\n      iszero\n      tag_132\n      jumpi\n        /* \"#utility.yul\":5051:5130   */\n      tag_133\n      tag_31\n      jump\t// in\n    tag_133:\n        /* \"#utility.yul\":5013:5132   */\n    tag_132:\n        /* \"#utility.yul\":5199:5200   */\n      0x00\n        /* \"#utility.yul\":5188:5197   */\n      dup5\n        /* \"#utility.yul\":5184:5201   */\n      add\n        /* \"#utility.yul\":5171:5202   */\n      calldataload\n        /* \"#utility.yul\":5229:5247   */\n      0xffffffffffffffff\n        /* \"#utility.yul\":5221:5227   */\n      dup2\n        /* \"#utility.yul\":5218:5248   */\n      gt\n        /* \"#utility.yul\":5215:5332   */\n      iszero\n      tag_134\n      jumpi\n        /* \"#utility.yul\":5251:5330   */\n      tag_135\n      tag_32\n      jump\t// in\n    tag_135:\n        /* \"#utility.yul\":5215:5332   */\n    tag_134:\n        /* \"#utility.yul\":5356:5418   */\n      tag_136\n        /* \"#utility.yul\":5410:5417   */\n      dup7\n        /* \"#utility.yul\":5401:5407   */\n      dup3\n        /* \"#utility.yul\":5390:5399   */\n      dup8\n        /* \"#utility.yul\":5386:5408   */\n      add\n        /* \"#utility.yul\":5356:5418   */\n      tag_45\n      jump\t// in\n    tag_136:\n        /* \"#utility.yul\":5346:5418   */\n      swap4\n      pop\n        /* \"#utility.yul\":5142:5428   */\n      pop\n        /* \"#utility.yul\":5467:5469   */\n      0x20\n        /* \"#utility.yul\":5501:5607   */\n      tag_137\n        /* \"#utility.yul\":5599:5606   */\n      dup7\n        /* \"#utility.yul\":5590:5596   */\n      dup3\n        /* \"#utility.yul\":5579:5588   */\n      dup8\n        /* \"#utility.yul\":5575:5597   */\n      add\n        /* \"#utility.yul\":5501:5607   */\n      tag_53\n      jump\t// in\n    tag_137:\n        /* \"#utility.yul\":5483:5607   */\n      swap3\n      pop\n      swap3\n      pop\n        /* \"#utility.yul\":5438:5617   */\n      pop\n        /* \"#utility.yul\":4858:5624   */\n      swap3\n      pop\n      swap3\n      pop\n      swap3\n      jump\t// out\n        /* \"#utility.yul\":5630:5810   */\n    tag_16:\n        /* \"#utility.yul\":5678:5755   */\n      0x4e487b7100000000000000000000000000000000000000000000000000000000\n        /* \"#utility.yul\":5675:5676   */\n      0x00\n        /* \"#utility.yul\":5668:5756   */\n      mstore\n        /* \"#utility.yul\":5775:5779   */\n      0x32\n        /* \"#utility.yul\":5772:5773   */\n      0x04\n        /* \"#utility.yul\":5765:5780   */\n      mstore\n        /* \"#utility.yul\":5799:5803   */\n      0x24\n        /* \"#utility.yul\":5796:5797   */\n      0x00\n        /* \"#utility.yul\":5789:5804   */\n      revert\n        /* \"#utility.yul\":5816:5934   */\n    tag_54:\n        /* \"#utility.yul\":5903:5927   */\n      tag_140\n        /* \"#utility.yul\":5921:5926   */\n      dup2\n        /* \"#utility.yul\":5903:5927   */\n      tag_33\n      jump\t// in\n    tag_140:\n        /* \"#utility.yul\":5898:5901   */\n      dup3\n        /* \"#utility.yul\":5891:5928   */\n      mstore\n        /* \"#utility.yul\":5816:5934   */\n      pop\n      pop\n      jump\t// out\n        /* \"#utility.yul\":5940:6162   */\n    tag_19:\n        /* \"#utility.yul\":6033:6037   */\n      0x00\n        /* \"#utility.yul\":6071:6073   */\n      0x20\n        /* \"#utility.yul\":6060:6069   */\n      dup3\n        /* \"#utility.yul\":6056:6074   */\n      add\n        /* \"#utility.yul\":6048:6074   */\n      swap1\n      pop\n        /* \"#utility.yul\":6084:6155   */\n      tag_142\n        /* \"#utility.yul\":6152:6153   */\n      0x00\n        /* \"#utility.yul\":6141:6150   */\n      dup4\n        /* \"#utility.yul\":6137:6154   */\n      add\n        /* \"#utility.yul\":6128:6134   */\n      dup5\n        /* \"#utility.yul\":6084:6155   */\n      tag_54\n      jump\t// in\n    tag_142:\n        /* \"#utility.yul\":5940:6162   */\n      swap3\n      swap2\n      pop\n      pop\n      jump\t// out\n        /* \"#utility.yul\":6168:6266   */\n    tag_55:\n        /* \"#utility.yul\":6219:6225   */\n      0x00\n        /* \"#utility.yul\":6253:6258   */\n      dup2\n        /* \"#utility.yul\":6247:6259   */\n      mload\n        /* \"#utility.yul\":6237:6259   */\n      swap1\n      pop\n        /* \"#utility.yul\":6168:6266   */\n      swap2\n      swap1\n      pop\n      jump\t// out\n        /* \"#utility.yul\":6272:6452   */\n    tag_56:\n        /* \"#utility.yul\":6320:6397   */\n      0x4e487b7100000000000000000000000000000000000000000000000000000000\n        /* \"#utility.yul\":6317:6318   */\n      0x00\n        /* \"#utility.yul\":6310:6398   */\n      mstore\n        /* \"#utility.yul\":6417:6421   */\n      0x22\n        /* \"#utility.yul\":6414:6415   */\n      0x04\n        /* \"#utility.yul\":6407:6422   */\n      mstore\n        /* \"#utility.yul\":6441:6445   */\n      0x24\n        /* \"#utility.yul\":6438:6439   */\n      0x00\n        /* \"#utility.yul\":6431:6446   */\n      revert\n        /* \"#utility.yul\":6458:6778   */\n    tag_57:\n        /* \"#utility.yul\":6502:6508   */\n      0x00\n        /* \"#utility.yul\":6539:6540   */\n      0x02\n        /* \"#utility.yul\":6533:6537   */\n      dup3\n        /* \"#utility.yul\":6529:6541   */\n      div\n        /* \"#utility.yul\":6519:6541   */\n      swap1\n      pop\n        /* \"#utility.yul\":6586:6587   */\n      0x01\n        /* \"#utility.yul\":6580:6584   */\n      dup3\n        /* \"#utility.yul\":6576:6588   */\n      and\n        /* \"#utility.yul\":6607:6625   */\n      dup1\n        /* \"#utility.yul\":6597:6678   */\n      tag_146\n      jumpi\n        /* \"#utility.yul\":6663:6667   */\n      0x7f\n        /* \"#utility.yul\":6655:6661   */\n      dup3\n        /* \"#utility.yul\":6651:6668   */\n      and\n        /* \"#utility.yul\":6641:6668   */\n      swap2\n      pop\n        /* \"#utility.yul\":6597:6678   */\n    tag_146:\n        /* \"#utility.yul\":6725:6727   */\n      0x20\n        /* \"#utility.yul\":6717:6723   */\n      dup3\n        /* \"#utility.yul\":6714:6728   */\n      lt\n        /* \"#utility.yul\":6694:6712   */\n      dup2\n        /* \"#utility.yul\":6691:6729   */\n      sub\n        /* \"#utility.yul\":6688:6772   */\n      tag_147\n      jumpi\n        /* \"#utility.yul\":6744:6762   */\n      tag_148\n      tag_56\n      jump\t// in\n    tag_148:\n        /* \"#utility.yul\":6688:6772   */\n    tag_147:\n        /* \"#utility.yul\":6509:6778   */\n      pop\n        /* \"#utility.yul\":6458:6778   */\n      swap2\n      swap1\n      pop\n      jump\t// out\n        /* \"#utility.yul\":6784:6924   */\n    tag_58:\n        /* \"#utility.yul\":6832:6836   */\n      0x00\n        /* \"#utility.yul\":6855:6858   */\n      dup2\n        /* \"#utility.yul\":6847:6858   */\n      swap1\n      pop\n        /* \"#utility.yul\":6878:6881   */\n      dup2\n        /* \"#utility.yul\":6875:6876   */\n      0x00\n        /* \"#utility.yul\":6868:6882   */\n      mstore\n        /* \"#utility.yul\":6912:6916   */\n      0x20\n        /* \"#utility.yul\":6909:6910   */\n      0x00\n        /* \"#utility.yul\":6899:6917   */\n      keccak256\n        /* \"#utility.yul\":6891:6917   */\n      swap1\n      pop\n        /* \"#utility.yul\":6784:6924   */\n      swap2\n      swap1\n      pop\n      jump\t// out\n        /* \"#utility.yul\":6930:7023   */\n    tag_59:\n        /* \"#utility.yul\":6967:6973   */\n      0x00\n        /* \"#utility.yul\":7014:7016   */\n      0x20\n        /* \"#utility.yul\":7009:7011   */\n      0x1f\n        /* \"#utility.yul\":7002:7007   */\n      dup4\n        /* \"#utility.yul\":6998:7012   */\n      add\n        /* \"#utility.yul\":6994:7017   */\n      div\n        /* \"#utility.yul\":6984:7017   */\n      swap1\n      pop\n        /* \"#utility.yul\":6930:7023   */\n      swap2\n      swap1\n      pop\n      jump\t// out\n        /* \"#utility.yul\":7029:7136   */\n    tag_60:\n        /* \"#utility.yul\":7073:7081   */\n      0x00\n        /* \"#utility.yul\":7123:7128   */\n      dup3\n        /* \"#utility.yul\":7117:7121   */\n      dup3\n        /* \"#utility.yul\":7113:7129   */\n      shl\n        /* \"#utility.yul\":7092:7129   */\n      swap1\n      pop\n        /* \"#utility.yul\":7029:7136   */\n      swap3\n      swap2\n      pop\n      pop\n      jump\t// out\n        /* \"#utility.yul\":7142:7535   */\n    tag_61:\n        /* \"#utility.yul\":7211:7217   */\n      0x00\n        /* \"#utility.yul\":7261:7262   */\n      0x08\n        /* \"#utility.yul\":7249:7259   */\n      dup4\n        /* \"#utility.yul\":7245:7263   */\n      mul\n        /* \"#utility.yul\":7284:7381   */\n      tag_153\n        /* \"#utility.yul\":7314:7380   */\n      0xffffffffffffffffffffffffffffffffffffffffffffffffffffffffffffffff\n        /* \"#utility.yul\":7303:7312   */\n      dup3\n        /* \"#utility.yul\":7284:7381   */\n      tag_60\n      jump\t// in\n    tag_153:\n        /* \"#utility.yul\":7402:7441   */\n      tag_154\n        /* \"#utility.yul\":7432:7440   */\n      dup7\n        /* \"#utility.yul\":7421:7430   */\n      dup4\n        /* \"#utility.yul\":7402:7441   */\n      tag_60\n      jump\t// in\n    tag_154:\n        /* \"#utility.yul\":7390:7441   */\n      swap6\n      pop\n        /* \"#utility.yul\":7474:7478   */\n      dup1\n        /* \"#utility.yul\":7470:7479   */\n      not\n        /* \"#utility.yul\":7463:7468   */\n      dup5\n        /* \"#utility.yul\":7459:7480   */\n      and\n        /* \"#utility.yul\":7450:7480   */\n      swap4\n      pop\n        /* \"#utility.yul\":7523:7527   */\n      dup1\n        /* \"#utility.yul\":7513:7521   */\n      dup7\n        /* \"#utility.yul\":7509:7528   */\n      and\n        /* \"#utility.yul\":7502:7507   */\n      dup5\n        /* \"#utility.yul\":7499:7529   */\n      or\n        /* \"#utility.yul\":7489:7529   */\n      swap3\n      pop\n        /* \"#utility.yul\":7218:7535   */\n      pop\n      pop\n        /* \"#utility.yul\":7142:7535   */\n      swap4\n      swap3\n      pop\n      pop\n      pop\n      jump\t// out\n        /* \"#utility.yul\":7541:7601   */\n    tag_62:\n        /* \"#utility.yul\":7569:7572   */\n      0x00\n        /* \"#utility.yul\":7590:7595   */\n      dup2\n        /* \"#utility.yul\":7583:7595   */\n      swap1\n      pop\n        /* \"#utility.yul\":7541:7601   */\n      swap2\n      swap1\n      pop\n      jump\t// out\n        /* \"#utility.yul\":7607:7749   */\n    tag_63:\n        /* \"#utility.yul\":7657:7666   */\n      0x00\n        /* \"#utility.yul\":7690:7743   */\n      tag_157\n        /* \"#utility.yul\":7708:7742   */\n      tag_158\n        /* \"#utility.yul\":7717:7741   */\n      tag_159\n        /* \"#utility.yul\":7735:7740   */\n      dup5\n        /* \"#utility.yul\":7717:7741   */\n      tag_33\n      jump\t// in\n    tag_159:\n        /* \"#utility.yul\":7708:7742   */\n      tag_62\n      jump\t// in\n    tag_158:\n        /* \"#utility.yul\":7690:7743   */\n      tag_33\n      jump\t// in\n    tag_157:\n        /* \"#utility.yul\":7677:7743   */\n      swap1\n      pop\n        /* \"#utility.yul\":7607:7749   */\n      swap2\n      swap1\n      pop\n      jump\t// out\n        /* \"#utility.yul\":7755:7830   */\n    tag_64:\n        /* \"#utility.yul\":7798:7801   */\n      0x00\n        /* \"#utility.yul\":7819:7824   */\n      dup2\n        /* \"#utility.yul\":7812:7824   */\n      swap1\n      pop\n        /* \"#utility.yul\":7755:7830   */\n      swap2\n      swap1\n      pop\n      jump\t// out\n        /* \"#utility.yul\":7836:8105   */\n    tag_65:\n        /* \"#utility.yul\":7946:7985   */\n      tag_162\n        /* \"#utility.yul\":7977:7984   */\n      dup4\n        /* \"#utility.yul\":7946:7985   */\n      tag_63\n      jump\t// in\n    tag_162:\n        /* \"#utility.yul\":8007:8098   */\n      tag_163\n        /* \"#utility.yul\":8056:8097   */\n      tag_164\n        /* \"#utility.yul\":8080:8096   */\n      dup3\n        /* \"#utility.yul\":8056:8097   */\n      tag_64\n      jump\t// in\n    tag_164:\n        /* \"#utility.yul\":8048:8054   */\n      dup5\n        /* \"#utility.yul\":8041:8045   */\n      dup5\n        /* \"#utility.yul\":8035:8046   */\n      sload\n        /* \"#utility.yul\":8007:8098   */\n      tag_61\n      jump\t// in\n    tag_163:\n        /* \"#utility.yul\":8001:8005   */\n      dup3\n        /* \"#utility.yul\":7994:8099   */\n      sstore\n        /* \"#utility.yul\":7912:8105   */\n      pop\n        /* \"#utility.yul\":7836:8105   */\n      pop\n      pop\n      pop\n      jump\t// out\n        /* \"#utility.yul\":8111:8184   */\n    tag_66:\n        /* \"#utility.yul\":8156:8159   */\n      0x00\n        /* \"#utility.yul\":8111:8184   */\n      swap1\n      jump\t// out\n        /* \"#utility.yul\":8190:8379   */\n    tag_67:\n        /* \"#utility.yul\":8267:8299   */\n      tag_167\n      tag_66\n      jump\t// in\n    tag_167:\n        /* \"#utility.yul\":8308:8373   */\n      tag_168\n        /* \"#utility.yul\":8366:8372   */\n      dup2\n        /* \"#utility.yul\":8358:8364   */\n      dup5\n        /* \"#utility.yul\":8352:8356   */\n      dup5\n        /* \"#utility.yul\":8308:8373   */\n      tag_65\n      jump\t// in\n    tag_168:\n        /* \"#utility.yul\":8243:8379   */\n      pop\n        /* \"#utility.yul\":8190:8379   */\n      pop\n      pop\n      jump\t// out\n        /* \"#utility.yul\":8385:8571   */\n    tag_68:\n        /* \"#utility.yul\":8445:8565   */\n    tag_170:\n        /* \"#utility.yul\":8462:8465   */\n      dup2\n        /* \"#utility.yul\":8455:8460   */\n      dup2\n        /* \"#utility.yul\":8452:8466   */\n      lt\n        /* \"#utility.yul\":8445:8565   */\n      iszero\n      tag_172\n      jumpi\n        /* \"#utility.yul\":8516:8555   */\n      tag_173\n        /* \"#utility.yul\":8553:8554   */\n      0x00\n        /* \"#utility.yul\":8546:8551   */\n      dup3\n        /* \"#utility.yul\":8516:8555   */\n      tag_67\n      jump\t// in\n    tag_173:\n        /* \"#utility.yul\":8489:8490   */\n      0x01\n        /* \"#utility.yul\":8482:8487   */\n      dup2\n        /* \"#utility.yul\":8478:8491   */\n      add\n        /* \"#utility.yul\":8469:8491   */\n      swap1\n      pop\n        /* \"#utility.yul\":8445:8565   */\n      jump(tag_170)\n    tag_172:\n        /* \"#utility.yul\":8385:8571   */\n      pop\n      pop\n      jump\t// out\n        /* \"#utility.yul\":8577:9118   */\n    tag_69:\n        /* \"#utility.yul\":8677:8679   */\n      0x1f\n        /* \"#utility.yul\":8672:8675   */\n      dup3\n        /* \"#utility.yul\":8669:8680   */\n      gt\n        /* \"#utility.yul\":8666:9111   */\n      iszero\n      tag_175\n      jumpi\n        /* \"#utility.yul\":8711:8748   */\n      tag_176\n        /* \"#utility.yul\":8742:8747   */\n      dup2\n        /* \"#utility.yul\":8711:8748   */\n      tag_58\n      jump\t// in\n    tag_176:\n        /* \"#utility.yul\":8794:8823   */\n      tag_177\n        /* \"#utility.yul\":8812:8822   */\n      dup5\n        /* \"#utility.yul\":8794:8823   */\n      tag_59\n      jump\t// in\n    tag_177:\n        /* \"#utility.yul\":8784:8792   */\n      dup2\n        /* \"#utility.yul\":8780:8824   */\n      add\n        /* \"#utility.yul\":8977:8979   */\n      0x20\n        /* \"#utility.yul\":8965:8975   */\n      dup6\n        /* \"#utility.yul\":8962:8980   */\n      lt\n        /* \"#utility.yul\":8959:9008   */\n      iszero\n      tag_178\n      jumpi\n        /* \"#utility.yul\":8998:9006   */\n      dup2\n        /* \"#utility.yul\":8983:9006   */\n      swap1\n      pop\n        /* \"#utility.yul\":8959:9008   */\n    tag_178:\n        /* \"#utility.yul\":9021:9101   */\n      tag_179\n        /* \"#utility.yul\":9077:9099   */\n      tag_180\n        /* \"#utility.yul\":9095:9098   */\n      dup6\n        /* \"#utility.yul\":9077:9099   */\n      tag_59\n      jump\t// in\n    tag_180:\n        /* \"#utility.yul\":9067:9075   */\n      dup4\n        /* \"#utility.yul\":9063:9100   */\n      add\n        /* \"#utility.yul\":9050:9061   */\n      dup3\n        /* \"#utility.yul\":9021:9101   */\n      tag_68\n      jump\t// in\n    tag_179:\n        /* \"#utility.yul\":8681:9111   */\n      pop\n      pop\n        /* \"#utility.yul\":8666:9111   */\n    tag_175:\n        /* \"#utility.yul\":8577:9118   */\n      pop\n      pop\n      pop\n      jump\t// out\n        /* \"#utility.yul\":9124:9241   */\n    tag_70:\n        /* \"#utility.yul\":9178:9186   */\n      0x00\n        /* \"#utility.yul\":9228:9233   */\n      dup3\n        /* \"#utility.yul\":9222:9226   */\n      dup3\n        /* \"#utility.yul\":9218:9234   */\n      shr\n        /* \"#utility.yul\":9197:9234   */\n      swap1\n      pop\n        /* \"#utility.yul\":9124:9241   */\n      swap3\n      swap2\n      pop\n      pop\n      jump\t// out\n        /* \"#utility.yul\":9247:9416   */\n    tag_71:\n        /* \"#utility.yul\":9291:9297   */\n      0x00\n        /* \"#utility.yul\":9324:9375   */\n      tag_183\n        /* \"#utility.yul\":9372:9373   */\n      0x00\n        /* \"#utility.yul\":9368:9374   */\n      not\n        /* \"#utility.yul\":9360:9365   */\n      dup5\n        /* \"#utility.yul\":9357:9358   */\n      0x08\n        /* \"#utility.yul\":9353:9366   */\n      mul\n        /* \"#utility.yul\":9324:9375   */\n      tag_70\n      jump\t// in\n    tag_183:\n        /* \"#utility.yul\":9320:9376   */\n      not\n        /* \"#utility.yul\":9405:9409   */\n      dup1\n        /* \"#utility.yul\":9399:9403   */\n      dup4\n        /* \"#utility.yul\":9395:9410   */\n      and\n        /* \"#utility.yul\":9385:9410   */\n      swap2\n      pop\n        /* \"#utility.yul\":9298:9416   */\n      pop\n        /* \"#utility.yul\":9247:9416   */\n      swap3\n      swap2\n      pop\n      pop\n      jump\t// out\n        /* \"#utility.yul\":9421:9716   */\n    tag_72:\n        /* \"#utility.yul\":9497:9501   */\n      0x00\n        /* \"#utility.yul\":9643:9672   */\n      tag_185\n        /* \"#utility.yul\":9668:9671   */\n      dup4\n        /* \"#utility.yul\":9662:9666   */\n      dup4\n        /* \"#utility.yul\":9643:9672   */\n      tag_71\n      jump\t// in\n    tag_185:\n        /* \"#utility.yul\":9635:9672   */\n      swap2\n      pop\n        /* \"#utility.yul\":9705:9708   */\n      dup3\n        /* \"#utility.yul\":9702:9703   */\n      0x02\n        /* \"#utility.yul\":9698:9709   */\n      mul\n        /* \"#utility.yul\":9692:9696   */\n      dup3\n        /* \"#utility.yul\":9689:9710   */\n      or\n        /* \"#utility.yul\":9681:9710   */\n      swap1\n      pop\n        /* \"#utility.yul\":9421:9716   */\n      swap3\n      swap2\n      pop\n      pop\n      jump\t// out\n        /* \"#utility.yul\":9721:11111   */\n    tag_26:\n        /* \"#utility.yul\":9836:9872   */\n      tag_187\n        /* \"#utility.yul\":9868:9871   */\n      dup3\n        /* \"#utility.yul\":9836:9872   */\n      tag_55\n      jump\t// in\n    tag_187:\n        /* \"#utility.yul\":9937:9955   */\n      0xffffffffffffffff\n        /* \"#utility.yul\":9929:9935   */\n      dup2\n        /* \"#utility.yul\":9926:9956   */\n      gt\n        /* \"#utility.yul\":9923:9979   */\n      iszero\n      tag_188\n      jumpi\n        /* \"#utility.yul\":9959:9977   */\n      tag_189\n      tag_39\n      jump\t// in\n    tag_189:\n        /* \"#utility.yul\":9923:9979   */\n    tag_188:\n        /* \"#utility.yul\":10003:10041   */\n      tag_190\n        /* \"#utility.yul\":10035:10039   */\n      dup3\n        /* \"#utility.yul\":10029:10040   */\n      sload\n        /* \"#utility.yul\":10003:10041   */\n      tag_57\n      jump\t// in\n    tag_190:\n        /* \"#utility.yul\":10088:10154   */\n      tag_191\n        /* \"#utility.yul\":10147:10153   */\n      dup3\n        /* \"#utility.yul\":10139:10145   */\n      dup3\n        /* \"#utility.yul\":10133:10137   */\n      dup6\n        /* \"#utility.yul\":10088:10154   */\n      tag_69\n      jump\t// in\n    tag_191:\n        /* \"#utility.yul\":10181:10182   */\n      0x00\n        /* \"#utility.yul\":10205:10209   */\n      0x20\n        /* \"#utility.yul\":10192:10209   */\n      swap1\n      pop\n        /* \"#utility.yul\":10237:10239   */\n      0x1f\n        /* \"#utility.yul\":10229:10235   */\n      dup4\n        /* \"#utility.yul\":10226:10240   */\n      gt\n        /* \"#utility.yul\":10254:10255   */\n      0x01\n        /* \"#utility.yul\":10249:10866   */\n      dup2\n      eq\n      tag_193\n      jumpi\n        /* \"#utility.yul\":10910:10911   */\n      0x00\n        /* \"#utility.yul\":10927:10933   */\n      dup5\n        /* \"#utility.yul\":10924:11001   */\n      iszero\n      tag_194\n      jumpi\n        /* \"#utility.yul\":10976:10985   */\n      dup3\n        /* \"#utility.yul\":10971:10974   */\n      dup8\n        /* \"#utility.yul\":10967:10986   */\n      add\n        /* \"#utility.yul\":10961:10987   */\n      mload\n        /* \"#utility.yul\":10952:10987   */\n      swap1\n      pop\n        /* \"#utility.yul\":10924:11001   */\n    tag_194:\n        /* \"#utility.yul\":11027:11094   */\n      tag_195\n        /* \"#utility.yul\":11087:11093   */\n      dup6\n        /* \"#utility.yul\":11080:11085   */\n      dup3\n        /* \"#utility.yul\":11027:11094   */\n      tag_72\n      jump\t// in\n    tag_195:\n        /* \"#utility.yul\":11021:11025   */\n      dup7\n        /* \"#utility.yul\":11014:11095   */\n      sstore\n        /* \"#utility.yul\":10883:11105   */\n      pop\n        /* \"#utility.yul\":10219:11105   */\n      jump(tag_192)\n        /* \"#utility.yul\":10249:10866   */\n    tag_193:\n        /* \"#utility.yul\":10301:10305   */\n      0x1f\n        /* \"#utility.yul\":10297:10306   */\n      not\n        /* \"#utility.yul\":10289:10295   */\n      dup5\n        /* \"#utility.yul\":10285:10307   */\n      and\n        /* \"#utility.yul\":10335:10371   */\n      tag_196\n        /* \"#utility.yul\":10366:10370   */\n      dup7\n        /* \"#utility.yul\":10335:10371   */\n      tag_58\n      jump\t// in\n    tag_196:\n        /* \"#utility.yul\":10393:10394   */\n      0x00\n        /* \"#utility.yul\":10407:10615   */\n    tag_197:\n        /* \"#utility.yul\":10421:10428   */\n      dup3\n        /* \"#utility.yul\":10418:10419   */\n      dup2\n        /* \"#utility.yul\":10415:10429   */\n      lt\n        /* \"#utility.yul\":10407:10615   */\n      iszero\n      tag_199\n      jumpi\n        /* \"#utility.yul\":10500:10509   */\n      dup5\n        /* \"#utility.yul\":10495:10498   */\n      dup10\n        /* \"#utility.yul\":10491:10510   */\n      add\n        /* \"#utility.yul\":10485:10511   */\n      mload\n        /* \"#utility.yul\":10477:10483   */\n      dup3\n        /* \"#utility.yul\":10470:10512   */\n      sstore\n        /* \"#utility.yul\":10551:10552   */\n      0x01\n        /* \"#utility.yul\":10543:10549   */\n      dup3\n        /* \"#utility.yul\":10539:10553   */\n      add\n        /* \"#utility.yul\":10529:10553   */\n      swap2\n      pop\n        /* \"#utility.yul\":10598:10600   */\n      0x20\n        /* \"#utility.yul\":10587:10596   */\n      dup6\n        /* \"#utility.yul\":10583:10601   */\n      add\n        /* \"#utility.yul\":10570:10601   */\n      swap5\n      pop\n        /* \"#utility.yul\":10444:10448   */\n      0x20\n        /* \"#utility.yul\":10441:10442   */\n      dup2\n        /* \"#utility.yul\":10437:10449   */\n      add\n        /* \"#utility.yul\":10432:10449   */\n      swap1\n      pop\n        /* \"#utility.yul\":10407:10615   */\n      jump(tag_197)\n    tag_199:\n        /* \"#utility.yul\":10643:10649   */\n      dup7\n        /* \"#utility.yul\":10634:10641   */\n      dup4\n        /* \"#utility.yul\":10631:10650   */\n      lt\n        /* \"#utility.yul\":10628:10807   */\n      iszero\n      tag_200\n      jumpi\n        /* \"#utility.yul\":10701:10710   */\n      dup5\n        /* \"#utility.yul\":10696:10699   */\n      dup10\n        /* \"#utility.yul\":10692:10711   */\n      add\n        /* \"#utility.yul\":10686:10712   */\n      mload\n        /* \"#utility.yul\":10744:10792   */\n      tag_201\n        /* \"#utility.yul\":10786:10790   */\n      0x1f\n        /* \"#utility.yul\":10778:10784   */\n      dup10\n        /* \"#utility.yul\":10774:10791   */\n      and\n        /* \"#utility.yul\":10763:10772   */\n      dup3\n        /* \"#utility.yul\":10744:10792   */\n      tag_71\n      jump\t// in\n    tag_201:\n        /* \"#utility.yul\":10736:10742   */\n      dup4\n        /* \"#utility.yul\":10729:10793   */\n      sstore\n        /* \"#utility.yul\":10651:10807   */\n      pop\n        /* \"#utility.yul\":10628:10807   */\n    tag_200:\n        /* \"#utility.yul\":10853:10854   */\n      0x01\n        /* \"#utility.yul\":10849:10850   */\n      0x02\n        /* \"#utility.yul\":10841:10847   */\n      dup9\n        /* \"#utility.yul\":10837:10851   */\n      mul\n        /* \"#utility.yul\":10833:10855   */\n      add\n        /* \"#utility.yul\":10827:10831   */\n      dup9\n        /* \"#utility.yul\":10820:10856   */\n      sstore\n        /* \"#utility.yul\":10256:10866   */\n      pop\n      pop\n      pop\n        /* \"#utility.yul\":10219:11105   */\n    tag_192:\n      pop\n        /* \"#utility.yul\":9811:11111   */\n      pop\n      pop\n      pop\n        /* \"#utility.yul\":9721:11111   */\n      pop\n      pop\n      jump\t// out\n        /* \"#utility.yul\":11117:11297   */\n    tag_73:\n        /* \"#utility.yul\":11165:11242   */\n      0x4e487b7100000000000000000000000000000000000000000000000000000000\n        /* \"#utility.yul\":11162:11163   */\n      0x00\n        /* \"#utility.yul\":11155:11243   */\n      mstore\n        /* \"#utility.yul\":11262:11266   */\n      0x11\n        /* \"#utility.yul\":11259:11260   */\n      0x04\n        /* \"#utility.yul\":11252:11267   */\n      mstore\n        /* \"#utility.yul\":11286:11290   */\n      0x24\n        /* \"#utility.yul\":11283:11284   */\n      0x00\n        /* \"#utility.yul\":11276:11291   */\n      revert\n        /* \"#utility.yul\":11303:11497   */\n    tag_28:\n        /* \"#utility.yul\":11343:11347   */\n      0x00\n        /* \"#utility.yul\":11363:11383   */\n      tag_204\n        /* \"#utility.yul\":11381:11382   */\n      dup3\n        /* \"#utility.yul\":11363:11383   */\n      tag_33\n      jump\t// in\n    tag_204:\n        /* \"#utility.yul\":11358:11383   */\n      swap2\n      pop\n        /* \"#utility.yul\":11397:11417   */\n      tag_205\n        /* \"#utility.yul\":11415:11416   */\n      dup4\n        /* \"#utility.yul\":11397:11417   */\n      tag_33\n      jump\t// in\n    tag_205:\n        /* \"#utility.yul\":11392:11417   */\n      swap3\n      pop\n        /* \"#utility.yul\":11441:11442   */\n      dup3\n        /* \"#utility.yul\":11438:11439   */\n      dup3\n        /* \"#utility.yul\":11434:11443   */\n      sub\n        /* \"#utility.yul\":11426:11443   */\n      swap1\n      pop\n        /* \"#utility.yul\":11465:11466   */\n      dup2\n        /* \"#utility.yul\":11459:11463   */\n      dup2\n        /* \"#utility.yul\":11456:11467   */\n      gt\n        /* \"#utility.yul\":11453:11490   */\n      iszero\n      tag_206\n      jumpi\n        /* \"#utility.yul\":11470:11488   */\n      tag_207\n      tag_73\n      jump\t// in\n    tag_207:\n        /* \"#utility.yul\":11453:11490   */\n    tag_206:\n        /* \"#utility.yul\":11303:11497   */\n      swap3\n      swap2\n      pop\n      pop\n      jump\t// out\n\n    auxdata: 0xa2646970667358221220408d43eeae8927e5ce49a74273e93cb90b295c384bd07c92a42bf2000b6f3cba64736f6c63430008120033\n}\n",
				"bytecode": {
					"linkReferences": {},
					"object": "608060405234801561001057600080fd5b50610907806100206000396000f3fe608060405234801561001057600080fd5b50600436106100365760003560e01c8063c1e518171461003b578063d72d677014610057575b600080fd5b6100556004803603810190610050919061027b565b610073565b005b610071600480360381019061006c91906104cc565b610117565b005b600082815481106100875761008661052c565b5b906000526020600020906002020160010160009054906101000a90048060201c73ffffffffffffffffffffffffffffffffffffffff169063ffffffff16826040518263ffffffff1660e01b81526004016100e1919061056a565b600060405180830381600087803b1580156100fb57600080fd5b505af115801561010f573d6000803e3d6000fd5b505050505050565b60006040518060400160405280858152602001848463ffffffff169060201b1760401b8152509080600181540180825580915050600190039060005260206000209060020201600090919091909150600082015181600001908161017b919061079c565b5060208201518060601c9060401c63ffffffff168260010160006101000a81548177ffffffffffffffffffffffffffffffffffffffffffffffff02191690848463ffffffff169073ffffffffffffffffffffffffffffffffffffffff1660201b1702179055505050507fe5e7dd91b3ed7fb84c335f117423d1b9bbbed2d76c57e81520dd681b9ede98856001600080549050610217919061089d565b604051610224919061056a565b60405180910390a1505050565b6000604051905090565b600080fd5b600080fd5b6000819050919050565b61025881610245565b811461026357600080fd5b50565b6000813590506102758161024f565b92915050565b600080604083850312156102925761029161023b565b5b60006102a085828601610266565b92505060206102b185828601610266565b9150509250929050565b600080fd5b600080fd5b6000601f19601f8301169050919050565b7f4e487b7100000000000000000000000000000000000000000000000000000000600052604160045260246000fd5b61030e826102c5565b810181811067ffffffffffffffff8211171561032d5761032c6102d6565b5b80604052505050565b6000610340610231565b905061034c8282610305565b919050565b600067ffffffffffffffff82111561036c5761036b6102d6565b5b610375826102c5565b9050602081019050919050565b82818337600083830152505050565b60006103a461039f84610351565b610336565b9050828152602081018484840111156103c0576103bf6102c0565b5b6103cb848285610382565b509392505050565b600082601f8301126103e8576103e76102bb565b5b81356103f8848260208601610391565b91505092915050565b60007fffffffffffffffffffffffffffffffffffffffffffffffff000000000000000082169050919050565b600061043882610401565b9050919050565b6104488161042d565b811461045357600080fd5b50565b6000813590506104658161043f565b92915050565b60008160201c9050919050565b60008160401c9050919050565b60008061049183610478565b925063ffffffff831690506104a58361046b565b9150915091565b6000806104c16104bc8585610456565b610485565b915091509250929050565b6000806000604084860312156104e5576104e461023b565b5b600084013567ffffffffffffffff81111561050357610502610240565b5b61050f868287016103d3565b9350506020610520868287016104ac565b92509250509250925092565b7f4e487b7100000000000000000000000000000000000000000000000000000000600052603260045260246000fd5b61056481610245565b82525050565b600060208201905061057f600083018461055b565b92915050565b600081519050919050565b7f4e487b7100000000000000000000000000000000000000000000000000000000600052602260045260246000fd5b600060028204905060018216806105d757607f821691505b6020821081036105ea576105e9610590565b5b50919050565b60008190508160005260206000209050919050565b60006020601f8301049050919050565b600082821b905092915050565b6000600883026106527fffffffffffffffffffffffffffffffffffffffffffffffffffffffffffffffff82610615565b61065c8683610615565b95508019841693508086168417925050509392505050565b6000819050919050565b600061069961069461068f84610245565b610674565b610245565b9050919050565b6000819050919050565b6106b38361067e565b6106c76106bf826106a0565b848454610622565b825550505050565b600090565b6106dc6106cf565b6106e78184846106aa565b505050565b5b8181101561070b576107006000826106d4565b6001810190506106ed565b5050565b601f82111561075057610721816105f0565b61072a84610605565b81016020851015610739578190505b61074d61074585610605565b8301826106ec565b50505b505050565b600082821c905092915050565b600061077360001984600802610755565b1980831691505092915050565b600061078c8383610762565b9150826002028217905092915050565b6107a582610585565b67ffffffffffffffff8111156107be576107bd6102d6565b5b6107c882546105bf565b6107d382828561070f565b600060209050601f83116001811461080657600084156107f4578287015190505b6107fe8582610780565b865550610866565b601f198416610814866105f0565b60005b8281101561083c57848901518255600182019150602085019450602081019050610817565b868310156108595784890151610855601f891682610762565b8355505b6001600288020188555050505b505050505050565b7f4e487b7100000000000000000000000000000000000000000000000000000000600052601160045260246000fd5b60006108a882610245565b91506108b383610245565b92508282039050818111156108cb576108ca61086e565b5b9291505056fea2646970667358221220408d43eeae8927e5ce49a74273e93cb90b295c384bd07c92a42bf2000b6f3cba64736f6c63430008120033",
					"opcodes": "PUSH1 0x80 PUSH1 0x40 MSTORE CALLVALUE DUP1 ISZERO PUSH2 0x10 JUMPI PUSH1 0x0 DUP1 REVERT JUMPDEST POP PUSH2 0x907 DUP1 PUSH2 0x20 PUSH1 0x0 CODECOPY PUSH1 0x0 RETURN INVALID PUSH1 0x80 PUSH1 0x40 MSTORE CALLVALUE DUP1 ISZERO PUSH2 0x10 JUMPI PUSH1 0x0 DUP1 REVERT JUMPDEST POP PUSH1 0x4 CALLDATASIZE LT PUSH2 0x36 JUMPI PUSH1 0x0 CALLDATALOAD PUSH1 0xE0 SHR DUP1 PUSH4 0xC1E51817 EQ PUSH2 0x3B JUMPI DUP1 PUSH4 0xD72D6770 EQ PUSH2 0x57 JUMPI JUMPDEST PUSH1 0x0 DUP1 REVERT JUMPDEST PUSH2 0x55 PUSH1 0x4 DUP1 CALLDATASIZE SUB DUP2 ADD SWAP1 PUSH2 0x50 SWAP2 SWAP1 PUSH2 0x27B JUMP JUMPDEST PUSH2 0x73 JUMP JUMPDEST STOP JUMPDEST PUSH2 0x71 PUSH1 0x4 DUP1 CALLDATASIZE SUB DUP2 ADD SWAP1 PUSH2 0x6C SWAP2 SWAP1 PUSH2 0x4CC JUMP JUMPDEST PUSH2 0x117 JUMP JUMPDEST STOP JUMPDEST PUSH1 0x0 DUP3 DUP2 SLOAD DUP2 LT PUSH2 0x87 JUMPI PUSH2 0x86 PUSH2 0x52C JUMP JUMPDEST JUMPDEST SWAP1 PUSH1 0x0 MSTORE PUSH1 0x20 PUSH1 0x0 KECCAK256 SWAP1 PUSH1 0x2 MUL ADD PUSH1 0x1 ADD PUSH1 0x0 SWAP1 SLOAD SWAP1 PUSH2 0x100 EXP SWAP1 DIV DUP1 PUSH1 0x20 SHR PUSH20 0xFFFFFFFFFFFFFFFFFFFFFFFFFFFFFFFFFFFFFFFF AND SWAP1 PUSH4 0xFFFFFFFF AND DUP3 PUSH1 0x40 MLOAD DUP3 PUSH4 0xFFFFFFFF AND PUSH1 0xE0 SHL DUP2 MSTORE PUSH1 0x4 ADD PUSH2 0xE1 SWAP2 SWAP1 PUSH2 0x56A JUMP JUMPDEST PUSH1 0x0 PUSH1 0x40 MLOAD DUP1 DUP4 SUB DUP2 PUSH1 0x0 DUP8 DUP1 EXTCODESIZE ISZERO DUP1 ISZERO PUSH2 0xFB JUMPI PUSH1 0x0 DUP1 REVERT JUMPDEST POP GAS CALL ISZERO DUP1 ISZERO PUSH2 0x10F JUMPI RETURNDATASIZE PUSH1 0x0 DUP1 RETURNDATACOPY RETURNDATASIZE PUSH1 0x0 REVERT JUMPDEST POP POP POP POP POP POP JUMP JUMPDEST PUSH1 0x0 PUSH1 0x40 MLOAD DUP1 PUSH1 0x40 ADD PUSH1 0x40 MSTORE DUP1 DUP6 DUP2 MSTORE PUSH1 0x20 ADD DUP5 DUP5 PUSH4 0xFFFFFFFF AND SWAP1 PUSH1 0x20 SHL OR PUSH1 0x40 SHL DUP2 MSTORE POP SWAP1 DUP1 PUSH1 0x1 DUP2 SLOAD ADD DUP1 DUP3 SSTORE DUP1 SWAP2 POP POP PUSH1 0x1 SWAP1 SUB SWAP1 PUSH1 0x0 MSTORE PUSH1 0x20 PUSH1 0x0 KECCAK256 SWAP1 PUSH1 0x2 MUL ADD PUSH1 0x0 SWAP1 SWAP2 SWAP1 SWAP2 SWAP1 SWAP2 POP PUSH1 0x0 DUP3 ADD MLOAD DUP2 PUSH1 0x0 ADD SWAP1 DUP2 PUSH2 0x17B SWAP2 SWAP1 PUSH2 0x79C JUMP JUMPDEST POP PUSH1 0x20 DUP3 ADD MLOAD DUP1 PUSH1 0x60 SHR SWAP1 PUSH1 0x40 SHR PUSH4 0xFFFFFFFF AND DUP3 PUSH1 0x1 ADD PUSH1 0x0 PUSH2 0x100 EXP DUP2 SLOAD DUP2 PUSH24 0xFFFFFFFFFFFFFFFFFFFFFFFFFFFFFFFFFFFFFFFFFFFFFFFF MUL NOT AND SWAP1 DUP5 DUP5 PUSH4 0xFFFFFFFF AND SWAP1 PUSH20 0xFFFFFFFFFFFFFFFFFFFFFFFFFFFFFFFFFFFFFFFF AND PUSH1 0x20 SHL OR MUL OR SWAP1 SSTORE POP POP POP POP PUSH32 0xE5E7DD91B3ED7FB84C335F117423D1B9BBBED2D76C57E81520DD681B9EDE9885 PUSH1 0x1 PUSH1 0x0 DUP1 SLOAD SWAP1 POP PUSH2 0x217 SWAP2 SWAP1 PUSH2 0x89D JUMP JUMPDEST PUSH1 0x40 MLOAD PUSH2 0x224 SWAP2 SWAP1 PUSH2 0x56A JUMP JUMPDEST PUSH1 0x40 MLOAD DUP1 SWAP2 SUB SWAP1 LOG1 POP POP POP JUMP JUMPDEST PUSH1 0x0 PUSH1 0x40 MLOAD SWAP1 POP SWAP1 JUMP JUMPDEST PUSH1 0x0 DUP1 REVERT JUMPDEST PUSH1 0x0 DUP1 REVERT JUMPDEST PUSH1 0x0 DUP2 SWAP1 POP SWAP2 SWAP1 POP JUMP JUMPDEST PUSH2 0x258 DUP2 PUSH2 0x245 JUMP JUMPDEST DUP2 EQ PUSH2 0x263 JUMPI PUSH1 0x0 DUP1 REVERT JUMPDEST POP JUMP JUMPDEST PUSH1 0x0 DUP2 CALLDATALOAD SWAP1 POP PUSH2 0x275 DUP2 PUSH2 0x24F JUMP JUMPDEST SWAP3 SWAP2 POP POP JUMP JUMPDEST PUSH1 0x0 DUP1 PUSH1 0x40 DUP4 DUP6 SUB SLT ISZERO PUSH2 0x292 JUMPI PUSH2 0x291 PUSH2 0x23B JUMP JUMPDEST JUMPDEST PUSH1 0x0 PUSH2 0x2A0 DUP6 DUP3 DUP7 ADD PUSH2 0x266 JUMP JUMPDEST SWAP3 POP POP PUSH1 0x20 PUSH2 0x2B1 DUP6 DUP3 DUP7 ADD PUSH2 0x266 JUMP JUMPDEST SWAP2 POP POP SWAP3 POP SWAP3 SWAP1 POP JUMP JUMPDEST PUSH1 0x0 DUP1 REVERT JUMPDEST PUSH1 0x0 DUP1 REVERT JUMPDEST PUSH1 0x0 PUSH1 0x1F NOT PUSH1 0x1F DUP4 ADD AND SWAP1 POP SWAP2 SWAP1 POP JUMP JUMPDEST PUSH32 0x4E487B7100000000000000000000000000000000000000000000000000000000 PUSH1 0x0 MSTORE PUSH1 0x41 PUSH1 0x4 MSTORE PUSH1 0x24 PUSH1 0x0 REVERT JUMPDEST PUSH2 0x30E DUP3 PUSH2 0x2C5 JUMP JUMPDEST DUP2 ADD DUP2 DUP2 LT PUSH8 0xFFFFFFFFFFFFFFFF DUP3 GT OR ISZERO PUSH2 0x32D JUMPI PUSH2 0x32C PUSH2 0x2D6 JUMP JUMPDEST JUMPDEST DUP1 PUSH1 0x40 MSTORE POP POP POP JUMP JUMPDEST PUSH1 0x0 PUSH2 0x340 PUSH2 0x231 JUMP JUMPDEST SWAP1 POP PUSH2 0x34C DUP3 DUP3 PUSH2 0x305 JUMP JUMPDEST SWAP2 SWAP1 POP JUMP JUMPDEST PUSH1 0x0 PUSH8 0xFFFFFFFFFFFFFFFF DUP3 GT ISZERO PUSH2 0x36C JUMPI PUSH2 0x36B PUSH2 0x2D6 JUMP JUMPDEST JUMPDEST PUSH2 0x375 DUP3 PUSH2 0x2C5 JUMP JUMPDEST SWAP1 POP PUSH1 0x20 DUP2 ADD SWAP1 POP SWAP2 SWAP1 POP JUMP JUMPDEST DUP3 DUP2 DUP4 CALLDATACOPY PUSH1 0x0 DUP4 DUP4 ADD MSTORE POP POP POP JUMP JUMPDEST PUSH1 0x0 PUSH2 0x3A4 PUSH2 0x39F DUP5 PUSH2 0x351 JUMP JUMPDEST PUSH2 0x336 JUMP JUMPDEST SWAP1 POP DUP3 DUP2 MSTORE PUSH1 0x20 DUP2 ADD DUP5 DUP5 DUP5 ADD GT ISZERO PUSH2 0x3C0 JUMPI PUSH2 0x3BF PUSH2 0x2C0 JUMP JUMPDEST JUMPDEST PUSH2 0x3CB DUP5 DUP3 DUP6 PUSH2 0x382 JUMP JUMPDEST POP SWAP4 SWAP3 POP POP POP JUMP JUMPDEST PUSH1 0x0 DUP3 PUSH1 0x1F DUP4 ADD SLT PUSH2 0x3E8 JUMPI PUSH2 0x3E7 PUSH2 0x2BB JUMP JUMPDEST JUMPDEST DUP2 CALLDATALOAD PUSH2 0x3F8 DUP5 DUP3 PUSH1 0x20 DUP7 ADD PUSH2 0x391 JUMP JUMPDEST SWAP2 POP POP SWAP3 SWAP2 POP POP JUMP JUMPDEST PUSH1 0x0 PUSH32 0xFFFFFFFFFFFFFFFFFFFFFFFFFFFFFFFFFFFFFFFFFFFFFFFF0000000000000000 DUP3 AND SWAP1 POP SWAP2 SWAP1 POP JUMP JUMPDEST PUSH1 0x0 PUSH2 0x438 DUP3 PUSH2 0x401 JUMP JUMPDEST SWAP1 POP SWAP2 SWAP1 POP JUMP JUMPDEST PUSH2 0x448 DUP2 PUSH2 0x42D JUMP JUMPDEST DUP2 EQ PUSH2 0x453 JUMPI PUSH1 0x0 DUP1 REVERT JUMPDEST POP JUMP JUMPDEST PUSH1 0x0 DUP2 CALLDATALOAD SWAP1 POP PUSH2 0x465 DUP2 PUSH2 0x43F JUMP JUMPDEST SWAP3 SWAP2 POP POP JUMP JUMPDEST PUSH1 0x0 DUP2 PUSH1 0x20 SHR SWAP1 POP SWAP2 SWAP1 POP JUMP JUMPDEST PUSH1 0x0 DUP2 PUSH1 0x40 SHR SWAP1 POP SWAP2 SWAP1 POP JUMP JUMPDEST PUSH1 0x0 DUP1 PUSH2 0x491 DUP4 PUSH2 0x478 JUMP JUMPDEST SWAP3 POP PUSH4 0xFFFFFFFF DUP4 AND SWAP1 POP PUSH2 0x4A5 DUP4 PUSH2 0x46B JUMP JUMPDEST SWAP2 POP SWAP2 POP SWAP2 JUMP JUMPDEST PUSH1 0x0 DUP1 PUSH2 0x4C1 PUSH2 0x4BC DUP6 DUP6 PUSH2 0x456 JUMP JUMPDEST PUSH2 0x485 JUMP JUMPDEST SWAP2 POP SWAP2 POP SWAP3 POP SWAP3 SWAP1 POP JUMP JUMPDEST PUSH1 0x0 DUP1 PUSH1 0x0 PUSH1 0x40 DUP5 DUP7 SUB SLT ISZERO PUSH2 0x4E5 JUMPI PUSH2 0x4E4 PUSH2 0x23B JUMP JUMPDEST JUMPDEST PUSH1 0x0 DUP5 ADD CALLDATALOAD PUSH8 0xFFFFFFFFFFFFFFFF DUP2 GT ISZERO PUSH2 0x503 JUMPI PUSH2 0x502 PUSH2 0x240 JUMP JUMPDEST JUMPDEST PUSH2 0x50F DUP7 DUP3 DUP8 ADD PUSH2 0x3D3 JUMP JUMPDEST SWAP4 POP POP PUSH1 0x20 PUSH2 0x520 DUP7 DUP3 DUP8 ADD PUSH2 0x4AC JUMP JUMPDEST SWAP3 POP SWAP3 POP POP SWAP3 POP SWAP3 POP SWAP3 JUMP JUMPDEST PUSH32 0x4E487B7100000000000000000000000000000000000000000000000000000000 PUSH1 0x0 MSTORE PUSH1 0x32 PUSH1 0x4 MSTORE PUSH1 0x24 PUSH1 0x0 REVERT JUMPDEST PUSH2 0x564 DUP2 PUSH2 0x245 JUMP JUMPDEST DUP3 MSTORE POP POP JUMP JUMPDEST PUSH1 0x0 PUSH1 0x20 DUP3 ADD SWAP1 POP PUSH2 0x57F PUSH1 0x0 DUP4 ADD DUP5 PUSH2 0x55B JUMP JUMPDEST SWAP3 SWAP2 POP POP JUMP JUMPDEST PUSH1 0x0 DUP2 MLOAD SWAP1 POP SWAP2 SWAP1 POP JUMP JUMPDEST PUSH32 0x4E487B7100000000000000000000000000000000000000000000000000000000 PUSH1 0x0 MSTORE PUSH1 0x22 PUSH1 0x4 MSTORE PUSH1 0x24 PUSH1 0x0 REVERT JUMPDEST PUSH1 0x0 PUSH1 0x2 DUP3 DIV SWAP1 POP PUSH1 0x1 DUP3 AND DUP1 PUSH2 0x5D7 JUMPI PUSH1 0x7F DUP3 AND SWAP2 POP JUMPDEST PUSH1 0x20 DUP3 LT DUP2 SUB PUSH2 0x5EA JUMPI PUSH2 0x5E9 PUSH2 0x590 JUMP JUMPDEST JUMPDEST POP SWAP2 SWAP1 POP JUMP JUMPDEST PUSH1 0x0 DUP2 SWAP1 POP DUP2 PUSH1 0x0 MSTORE PUSH1 0x20 PUSH1 0x0 KECCAK256 SWAP1 POP SWAP2 SWAP1 POP JUMP JUMPDEST PUSH1 0x0 PUSH1 0x20 PUSH1 0x1F DUP4 ADD DIV SWAP1 POP SWAP2 SWAP1 POP JUMP JUMPDEST PUSH1 0x0 DUP3 DUP3 SHL SWAP1 POP SWAP3 SWAP2 POP POP JUMP JUMPDEST PUSH1 0x0 PUSH1 0x8 DUP4 MUL PUSH2 0x652 PUSH32 0xFFFFFFFFFFFFFFFFFFFFFFFFFFFFFFFFFFFFFFFFFFFFFFFFFFFFFFFFFFFFFFFF DUP3 PUSH2 0x615 JUMP JUMPDEST PUSH2 0x65C DUP7 DUP4 PUSH2 0x615 JUMP JUMPDEST SWAP6 POP DUP1 NOT DUP5 AND SWAP4 POP DUP1 DUP7 AND DUP5 OR SWAP3 POP POP POP SWAP4 SWAP3 POP POP POP JUMP JUMPDEST PUSH1 0x0 DUP2 SWAP1 POP SWAP2 SWAP1 POP JUMP JUMPDEST PUSH1 0x0 PUSH2 0x699 PUSH2 0x694 PUSH2 0x68F DUP5 PUSH2 0x245 JUMP JUMPDEST PUSH2 0x674 JUMP JUMPDEST PUSH2 0x245 JUMP JUMPDEST SWAP1 POP SWAP2 SWAP1 POP JUMP JUMPDEST PUSH1 0x0 DUP2 SWAP1 POP SWAP2 SWAP1 POP JUMP JUMPDEST PUSH2 0x6B3 DUP4 PUSH2 0x67E JUMP JUMPDEST PUSH2 0x6C7 PUSH2 0x6BF DUP3 PUSH2 0x6A0 JUMP JUMPDEST DUP5 DUP5 SLOAD PUSH2 0x622 JUMP JUMPDEST DUP3 SSTORE POP POP POP POP JUMP JUMPDEST PUSH1 0x0 SWAP1 JUMP JUMPDEST PUSH2 0x6DC PUSH2 0x6CF JUMP JUMPDEST PUSH2 0x6E7 DUP2 DUP5 DUP5 PUSH2 0x6AA JUMP JUMPDEST POP POP POP JUMP JUMPDEST JUMPDEST DUP2 DUP2 LT ISZERO PUSH2 0x70B JUMPI PUSH2 0x700 PUSH1 0x0 DUP3 PUSH2 0x6D4 JUMP JUMPDEST PUSH1 0x1 DUP2 ADD SWAP1 POP PUSH2 0x6ED JUMP JUMPDEST POP POP JUMP JUMPDEST PUSH1 0x1F DUP3 GT ISZERO PUSH2 0x750 JUMPI PUSH2 0x721 DUP2 PUSH2 0x5F0 JUMP JUMPDEST PUSH2 0x72A DUP5 PUSH2 0x605 JUMP JUMPDEST DUP2 ADD PUSH1 0x20 DUP6 LT ISZERO PUSH2 0x739 JUMPI DUP2 SWAP1 POP JUMPDEST PUSH2 0x74D PUSH2 0x745 DUP6 PUSH2 0x605 JUMP JUMPDEST DUP4 ADD DUP3 PUSH2 0x6EC JUMP JUMPDEST POP POP JUMPDEST POP POP POP JUMP JUMPDEST PUSH1 0x0 DUP3 DUP3 SHR SWAP1 POP SWAP3 SWAP2 POP POP JUMP JUMPDEST PUSH1 0x0 PUSH2 0x773 PUSH1 0x0 NOT DUP5 PUSH1 0x8 MUL PUSH2 0x755 JUMP JUMPDEST NOT DUP1 DUP4 AND SWAP2 POP POP SWAP3 SWAP2 POP POP JUMP JUMPDEST PUSH1 0x0 PUSH2 0x78C DUP4 DUP4 PUSH2 0x762 JUMP JUMPDEST SWAP2 POP DUP3 PUSH1 0x2 MUL DUP3 OR SWAP1 POP SWAP3 SWAP2 POP POP JUMP JUMPDEST PUSH2 0x7A5 DUP3 PUSH2 0x585 JUMP JUMPDEST PUSH8 0xFFFFFFFFFFFFFFFF DUP2 GT ISZERO PUSH2 0x7BE JUMPI PUSH2 0x7BD PUSH2 0x2D6 JUMP JUMPDEST JUMPDEST PUSH2 0x7C8 DUP3 SLOAD PUSH2 0x5BF JUMP JUMPDEST PUSH2 0x7D3 DUP3 DUP3 DUP6 PUSH2 0x70F JUMP JUMPDEST PUSH1 0x0 PUSH1 0x20 SWAP1 POP PUSH1 0x1F DUP4 GT PUSH1 0x1 DUP2 EQ PUSH2 0x806 JUMPI PUSH1 0x0 DUP5 ISZERO PUSH2 0x7F4 JUMPI DUP3 DUP8 ADD MLOAD SWAP1 POP JUMPDEST PUSH2 0x7FE DUP6 DUP3 PUSH2 0x780 JUMP JUMPDEST DUP7 SSTORE POP PUSH2 0x866 JUMP JUMPDEST PUSH1 0x1F NOT DUP5 AND PUSH2 0x814 DUP7 PUSH2 0x5F0 JUMP JUMPDEST PUSH1 0x0 JUMPDEST DUP3 DUP2 LT ISZERO PUSH2 0x83C JUMPI DUP5 DUP10 ADD MLOAD DUP3 SSTORE PUSH1 0x1 DUP3 ADD SWAP2 POP PUSH1 0x20 DUP6 ADD SWAP5 POP PUSH1 0x20 DUP2 ADD SWAP1 POP PUSH2 0x817 JUMP JUMPDEST DUP7 DUP4 LT ISZERO PUSH2 0x859 JUMPI DUP5 DUP10 ADD MLOAD PUSH2 0x855 PUSH1 0x1F DUP10 AND DUP3 PUSH2 0x762 JUMP JUMPDEST DUP4 SSTORE POP JUMPDEST PUSH1 0x1 PUSH1 0x2 DUP9 MUL ADD DUP9 SSTORE POP POP POP JUMPDEST POP POP POP POP POP POP JUMP JUMPDEST PUSH32 0x4E487B7100000000000000000000000000000000000000000000000000000000 PUSH1 0x0 MSTORE PUSH1 0x11 PUSH1 0x4 MSTORE PUSH1 0x24 PUSH1 0x0 REVERT JUMPDEST PUSH1 0x0 PUSH2 0x8A8 DUP3 PUSH2 0x245 JUMP JUMPDEST SWAP2 POP PUSH2 0x8B3 DUP4 PUSH2 0x245 JUMP JUMPDEST SWAP3 POP DUP3 DUP3 SUB SWAP1 POP DUP2 DUP2 GT ISZERO PUSH2 0x8CB JUMPI PUSH2 0x8CA PUSH2 0x86E JUMP JUMPDEST JUMPDEST SWAP3 SWAP2 POP POP JUMP INVALID LOG2 PUSH5 0x6970667358 0x22 SLT KECCAK256 BLOCKHASH DUP14 NUMBER 0xEE 0xAE DUP10 0x27 0xE5 0xCE 0x49 0xA7 TIMESTAMP PUSH20 0xE93CB90B295C384BD07C92A42BF2000B6F3CBA64 PUSH20 0x6F6C634300081200330000000000000000000000 "
				},
				"gasEstimates": {
					"creation": {
						"codeDepositCost": "462200",
						"executionCost": "499",
						"totalCost": "462699"
					},
					"external": {
						"query(bytes,function)": "infinite",
						"reply(uint256,uint256)": "infinite"
					}
				},
				"methodIdentifiers": {
					"query(bytes,function)": "d72d6770",
					"reply(uint256,uint256)": "c1e51817"
				}
			},
			"storageLayout": {
				"storage": [
					{
						"astId": 14,
						"contract": "contract-functionAsParamter2.sol:Oracle",
						"label": "requests",
						"offset": 0,
						"slot": "0",
						"type": "t_array(t_struct(Request)10_storage)dyn_storage"
					}
				],
				"types": {
					"t_array(t_struct(Request)10_storage)dyn_storage": {
						"base": "t_struct(Request)10_storage",
						"encoding": "dynamic_array",
						"label": "struct Oracle.Request[]",
						"numberOfBytes": "32"
					},
					"t_bytes_storage": {
						"encoding": "bytes",
						"label": "bytes",
						"numberOfBytes": "32"
					},
					"t_function_external_nonpayable(t_uint256)returns()": {
						"encoding": "inplace",
						"label": "function (uint256) external",
						"numberOfBytes": "24"
					},
					"t_struct(Request)10_storage": {
						"encoding": "inplace",
						"label": "struct Oracle.Request",
						"members": [
							{
								"astId": 3,
								"contract": "contract-functionAsParamter2.sol:Oracle",
								"label": "data",
								"offset": 0,
								"slot": "0",
								"type": "t_bytes_storage"
							},
							{
								"astId": 9,
								"contract": "contract-functionAsParamter2.sol:Oracle",
								"label": "callback",
								"offset": 0,
								"slot": "1",
								"type": "t_function_external_nonpayable(t_uint256)returns()"
							}
						],
						"numberOfBytes": "64"
					}
				}
			},
			"userdoc": {
				"kind": "user",
				"methods": {},
				"version": 1
			}
		}
	}
}