{
	"contract-4e734dff94.sol": {
		"VendingMachine": {
			"abi": [
				{
					"inputs": [],
					"name": "Unauthorized",
					"type": "error"
				},
				{
					"inputs": [
						{
							"internalType": "uint256",
							"name": "amount",
							"type": "uint256"
						}
					],
					"name": "buy",
					"outputs": [],
					"stateMutability": "payable",
					"type": "function"
				},
				{
					"inputs": [],
					"name": "withdraw",
					"outputs": [],
					"stateMutability": "nonpayable",
					"type": "function"
				}
			],
			"devdoc": {
				"kind": "dev",
				"methods": {},
				"version": 1
			},
			"evm": {
				"assembly": "    /* \"contract-4e734dff94.sol\":61:629  contract VendingMachine {... */\n  mstore(0x40, 0x80)\n  callvalue\n  dup1\n  iszero\n  tag_1\n  jumpi\n  0x00\n  dup1\n  revert\ntag_1:\n  pop\n  dataSize(sub_0)\n  dup1\n  dataOffset(sub_0)\n  0x00\n  codecopy\n  0x00\n  return\nstop\n\nsub_0: assembly {\n        /* \"contract-4e734dff94.sol\":61:629  contract VendingMachine {... */\n      mstore(0x40, 0x80)\n      jumpi(tag_1, lt(calldatasize, 0x04))\n      shr(0xe0, calldataload(0x00))\n      dup1\n      0x3ccfd60b\n      eq\n      tag_2\n      jumpi\n      dup1\n      0xd96a094a\n      eq\n      tag_3\n      jumpi\n    tag_1:\n      0x00\n      dup1\n      revert\n        /* \"contract-4e734dff94.sol\":463:627  function withdraw() public {... */\n    tag_2:\n      callvalue\n      dup1\n      iszero\n      tag_4\n      jumpi\n      0x00\n      dup1\n      revert\n    tag_4:\n      pop\n      tag_5\n      tag_6\n      jump\t// in\n    tag_5:\n      stop\n        /* \"contract-4e734dff94.sol\":136:458  function buy(uint amount) public payable {... */\n    tag_3:\n      tag_7\n      0x04\n      dup1\n      calldatasize\n      sub\n      dup2\n      add\n      swap1\n      tag_8\n      swap2\n      swap1\n      tag_9\n      jump\t// in\n    tag_8:\n      tag_10\n      jump\t// in\n    tag_7:\n      stop\n        /* \"contract-4e734dff94.sol\":463:627  function withdraw() public {... */\n    tag_6:\n        /* \"contract-4e734dff94.sol\":518:523  owner */\n      0x00\n      dup1\n      sload\n      swap1\n      0x0100\n      exp\n      swap1\n      div\n      0xffffffffffffffffffffffffffffffffffffffff\n      and\n        /* \"contract-4e734dff94.sol\":504:523  msg.sender != owner */\n      0xffffffffffffffffffffffffffffffffffffffff\n      and\n        /* \"contract-4e734dff94.sol\":504:514  msg.sender */\n      caller\n        /* \"contract-4e734dff94.sol\":504:523  msg.sender != owner */\n      0xffffffffffffffffffffffffffffffffffffffff\n      and\n      eq\n        /* \"contract-4e734dff94.sol\":500:558  if (msg.sender != owner)... */\n      tag_12\n      jumpi\n        /* \"contract-4e734dff94.sol\":544:558  Unauthorized() */\n      mload(0x40)\n      0x82b4290000000000000000000000000000000000000000000000000000000000\n      dup2\n      mstore\n      0x04\n      add\n      mload(0x40)\n      dup1\n      swap2\n      sub\n      swap1\n      revert\n        /* \"contract-4e734dff94.sol\":500:558  if (msg.sender != owner)... */\n    tag_12:\n        /* \"contract-4e734dff94.sol\":577:587  msg.sender */\n      caller\n        /* \"contract-4e734dff94.sol\":569:597  payable(msg.sender).transfer */\n      0xffffffffffffffffffffffffffffffffffffffff\n      and\n        /* \"contract-4e734dff94.sol\":569:620  payable(msg.sender).transfer(address(this).balance) */\n      0x08fc\n        /* \"contract-4e734dff94.sol\":598:619  address(this).balance */\n      selfbalance\n        /* \"contract-4e734dff94.sol\":569:620  payable(msg.sender).transfer(address(this).balance) */\n      swap1\n      dup2\n      iszero\n      mul\n      swap1\n      mload(0x40)\n      0x00\n      mload(0x40)\n      dup1\n      dup4\n      sub\n      dup2\n      dup6\n      dup9\n      dup9\n      call\n      swap4\n      pop\n      pop\n      pop\n      pop\n      iszero\n      dup1\n      iszero\n      tag_14\n      jumpi\n      returndatasize\n      0x00\n      dup1\n      returndatacopy\n      revert(0x00, returndatasize)\n    tag_14:\n      pop\n        /* \"contract-4e734dff94.sol\":463:627  function withdraw() public {... */\n      jump\t// out\n        /* \"contract-4e734dff94.sol\":136:458  function buy(uint amount) public payable {... */\n    tag_10:\n        /* \"contract-4e734dff94.sol\":212:219  2 ether */\n      0x1bc16d674ec80000\n        /* \"contract-4e734dff94.sol\":200:209  msg.value */\n      callvalue\n        /* \"contract-4e734dff94.sol\":200:219  msg.value / 2 ether */\n      tag_16\n      swap2\n      swap1\n      tag_17\n      jump\t// in\n    tag_16:\n        /* \"contract-4e734dff94.sol\":191:197  amount */\n      dup2\n        /* \"contract-4e734dff94.sol\":191:219  amount > msg.value / 2 ether */\n      gt\n        /* \"contract-4e734dff94.sol\":187:269  if (amount > msg.value / 2 ether)... */\n      iszero\n      tag_18\n      jumpi\n        /* \"contract-4e734dff94.sol\":233:269  revert(\"Not enough Ether provided.\") */\n      mload(0x40)\n      0x08c379a000000000000000000000000000000000000000000000000000000000\n      dup2\n      mstore\n      0x04\n      add\n      tag_19\n      swap1\n      tag_20\n      jump\t// in\n    tag_19:\n      mload(0x40)\n      dup1\n      swap2\n      sub\n      swap1\n      revert\n        /* \"contract-4e734dff94.sol\":187:269  if (amount > msg.value / 2 ether)... */\n    tag_18:\n        /* \"contract-4e734dff94.sol\":359:366  2 ether */\n      0x1bc16d674ec80000\n        /* \"contract-4e734dff94.sol\":347:356  msg.value */\n      callvalue\n        /* \"contract-4e734dff94.sol\":347:366  msg.value / 2 ether */\n      tag_21\n      swap2\n      swap1\n      tag_17\n      jump\t// in\n    tag_21:\n        /* \"contract-4e734dff94.sol\":337:343  amount */\n      dup2\n        /* \"contract-4e734dff94.sol\":337:366  amount <= msg.value / 2 ether */\n      gt\n      iszero\n        /* \"contract-4e734dff94.sol\":316:418  require(... */\n      tag_22\n      jumpi\n      mload(0x40)\n      0x08c379a000000000000000000000000000000000000000000000000000000000\n      dup2\n      mstore\n      0x04\n      add\n      tag_23\n      swap1\n      tag_20\n      jump\t// in\n    tag_23:\n      mload(0x40)\n      dup1\n      swap2\n      sub\n      swap1\n      revert\n    tag_22:\n        /* \"contract-4e734dff94.sol\":136:458  function buy(uint amount) public payable {... */\n      pop\n      jump\t// out\n        /* \"#utility.yul\":88:205   */\n    tag_25:\n        /* \"#utility.yul\":197:198   */\n      0x00\n        /* \"#utility.yul\":194:195   */\n      dup1\n        /* \"#utility.yul\":187:199   */\n      revert\n        /* \"#utility.yul\":334:411   */\n    tag_27:\n        /* \"#utility.yul\":371:378   */\n      0x00\n        /* \"#utility.yul\":400:405   */\n      dup2\n        /* \"#utility.yul\":389:405   */\n      swap1\n      pop\n        /* \"#utility.yul\":334:411   */\n      swap2\n      swap1\n      pop\n      jump\t// out\n        /* \"#utility.yul\":417:539   */\n    tag_28:\n        /* \"#utility.yul\":490:514   */\n      tag_41\n        /* \"#utility.yul\":508:513   */\n      dup2\n        /* \"#utility.yul\":490:514   */\n      tag_27\n      jump\t// in\n    tag_41:\n        /* \"#utility.yul\":483:488   */\n      dup2\n        /* \"#utility.yul\":480:515   */\n      eq\n        /* \"#utility.yul\":470:533   */\n      tag_42\n      jumpi\n        /* \"#utility.yul\":529:530   */\n      0x00\n        /* \"#utility.yul\":526:527   */\n      dup1\n        /* \"#utility.yul\":519:531   */\n      revert\n        /* \"#utility.yul\":470:533   */\n    tag_42:\n        /* \"#utility.yul\":417:539   */\n      pop\n      jump\t// out\n        /* \"#utility.yul\":545:684   */\n    tag_29:\n        /* \"#utility.yul\":591:596   */\n      0x00\n        /* \"#utility.yul\":629:635   */\n      dup2\n        /* \"#utility.yul\":616:636   */\n      calldataload\n        /* \"#utility.yul\":607:636   */\n      swap1\n      pop\n        /* \"#utility.yul\":645:678   */\n      tag_44\n        /* \"#utility.yul\":672:677   */\n      dup2\n        /* \"#utility.yul\":645:678   */\n      tag_28\n      jump\t// in\n    tag_44:\n        /* \"#utility.yul\":545:684   */\n      swap3\n      swap2\n      pop\n      pop\n      jump\t// out\n        /* \"#utility.yul\":690:1019   */\n    tag_9:\n        /* \"#utility.yul\":749:755   */\n      0x00\n        /* \"#utility.yul\":798:800   */\n      0x20\n        /* \"#utility.yul\":786:795   */\n      dup3\n        /* \"#utility.yul\":777:784   */\n      dup5\n        /* \"#utility.yul\":773:796   */\n      sub\n        /* \"#utility.yul\":769:801   */\n      slt\n        /* \"#utility.yul\":766:885   */\n      iszero\n      tag_46\n      jumpi\n        /* \"#utility.yul\":804:883   */\n      tag_47\n      tag_25\n      jump\t// in\n    tag_47:\n        /* \"#utility.yul\":766:885   */\n    tag_46:\n        /* \"#utility.yul\":924:925   */\n      0x00\n        /* \"#utility.yul\":949:1002   */\n      tag_48\n        /* \"#utility.yul\":994:1001   */\n      dup5\n        /* \"#utility.yul\":985:991   */\n      dup3\n        /* \"#utility.yul\":974:983   */\n      dup6\n        /* \"#utility.yul\":970:992   */\n      add\n        /* \"#utility.yul\":949:1002   */\n      tag_29\n      jump\t// in\n    tag_48:\n        /* \"#utility.yul\":939:1002   */\n      swap2\n      pop\n        /* \"#utility.yul\":895:1012   */\n      pop\n        /* \"#utility.yul\":690:1019   */\n      swap3\n      swap2\n      pop\n      pop\n      jump\t// out\n        /* \"#utility.yul\":1025:1205   */\n    tag_30:\n        /* \"#utility.yul\":1073:1150   */\n      0x4e487b7100000000000000000000000000000000000000000000000000000000\n        /* \"#utility.yul\":1070:1071   */\n      0x00\n        /* \"#utility.yul\":1063:1151   */\n      mstore\n        /* \"#utility.yul\":1170:1174   */\n      0x12\n        /* \"#utility.yul\":1167:1168   */\n      0x04\n        /* \"#utility.yul\":1160:1175   */\n      mstore\n        /* \"#utility.yul\":1194:1198   */\n      0x24\n        /* \"#utility.yul\":1191:1192   */\n      0x00\n        /* \"#utility.yul\":1184:1199   */\n      revert\n        /* \"#utility.yul\":1397:1582   */\n    tag_17:\n        /* \"#utility.yul\":1437:1438   */\n      0x00\n        /* \"#utility.yul\":1454:1474   */\n      tag_52\n        /* \"#utility.yul\":1472:1473   */\n      dup3\n        /* \"#utility.yul\":1454:1474   */\n      tag_27\n      jump\t// in\n    tag_52:\n        /* \"#utility.yul\":1449:1474   */\n      swap2\n      pop\n        /* \"#utility.yul\":1488:1508   */\n      tag_53\n        /* \"#utility.yul\":1506:1507   */\n      dup4\n        /* \"#utility.yul\":1488:1508   */\n      tag_27\n      jump\t// in\n    tag_53:\n        /* \"#utility.yul\":1483:1508   */\n      swap3\n      pop\n        /* \"#utility.yul\":1527:1528   */\n      dup3\n        /* \"#utility.yul\":1517:1552   */\n      tag_54\n      jumpi\n        /* \"#utility.yul\":1532:1550   */\n      tag_55\n      tag_30\n      jump\t// in\n    tag_55:\n        /* \"#utility.yul\":1517:1552   */\n    tag_54:\n        /* \"#utility.yul\":1574:1575   */\n      dup3\n        /* \"#utility.yul\":1571:1572   */\n      dup3\n        /* \"#utility.yul\":1567:1576   */\n      div\n        /* \"#utility.yul\":1562:1576   */\n      swap1\n      pop\n        /* \"#utility.yul\":1397:1582   */\n      swap3\n      swap2\n      pop\n      pop\n      jump\t// out\n        /* \"#utility.yul\":1588:1757   */\n    tag_32:\n        /* \"#utility.yul\":1672:1683   */\n      0x00\n        /* \"#utility.yul\":1706:1712   */\n      dup3\n        /* \"#utility.yul\":1701:1704   */\n      dup3\n        /* \"#utility.yul\":1694:1713   */\n      mstore\n        /* \"#utility.yul\":1746:1750   */\n      0x20\n        /* \"#utility.yul\":1741:1744   */\n      dup3\n        /* \"#utility.yul\":1737:1751   */\n      add\n        /* \"#utility.yul\":1722:1751   */\n      swap1\n      pop\n        /* \"#utility.yul\":1588:1757   */\n      swap3\n      swap2\n      pop\n      pop\n      jump\t// out\n        /* \"#utility.yul\":1763:1939   */\n    tag_33:\n        /* \"#utility.yul\":1903:1931   */\n      0x4e6f7420656e6f7567682045746865722070726f76696465642e000000000000\n        /* \"#utility.yul\":1899:1900   */\n      0x00\n        /* \"#utility.yul\":1891:1897   */\n      dup3\n        /* \"#utility.yul\":1887:1901   */\n      add\n        /* \"#utility.yul\":1880:1932   */\n      mstore\n        /* \"#utility.yul\":1763:1939   */\n      pop\n      jump\t// out\n        /* \"#utility.yul\":1945:2311   */\n    tag_34:\n        /* \"#utility.yul\":2087:2090   */\n      0x00\n        /* \"#utility.yul\":2108:2175   */\n      tag_59\n        /* \"#utility.yul\":2172:2174   */\n      0x1a\n        /* \"#utility.yul\":2167:2170   */\n      dup4\n        /* \"#utility.yul\":2108:2175   */\n      tag_32\n      jump\t// in\n    tag_59:\n        /* \"#utility.yul\":2101:2175   */\n      swap2\n      pop\n        /* \"#utility.yul\":2184:2277   */\n      tag_60\n        /* \"#utility.yul\":2273:2276   */\n      dup3\n        /* \"#utility.yul\":2184:2277   */\n      tag_33\n      jump\t// in\n    tag_60:\n        /* \"#utility.yul\":2302:2304   */\n      0x20\n        /* \"#utility.yul\":2297:2300   */\n      dup3\n        /* \"#utility.yul\":2293:2305   */\n      add\n        /* \"#utility.yul\":2286:2305   */\n      swap1\n      pop\n        /* \"#utility.yul\":1945:2311   */\n      swap2\n      swap1\n      pop\n      jump\t// out\n        /* \"#utility.yul\":2317:2736   */\n    tag_20:\n        /* \"#utility.yul\":2483:2487   */\n      0x00\n        /* \"#utility.yul\":2521:2523   */\n      0x20\n        /* \"#utility.yul\":2510:2519   */\n      dup3\n        /* \"#utility.yul\":2506:2524   */\n      add\n        /* \"#utility.yul\":2498:2524   */\n      swap1\n      pop\n        /* \"#utility.yul\":2570:2579   */\n      dup2\n        /* \"#utility.yul\":2564:2568   */\n      dup2\n        /* \"#utility.yul\":2560:2580   */\n      sub\n        /* \"#utility.yul\":2556:2557   */\n      0x00\n        /* \"#utility.yul\":2545:2554   */\n      dup4\n        /* \"#utility.yul\":2541:2558   */\n      add\n        /* \"#utility.yul\":2534:2581   */\n      mstore\n        /* \"#utility.yul\":2598:2729   */\n      tag_62\n        /* \"#utility.yul\":2724:2728   */\n      dup2\n        /* \"#utility.yul\":2598:2729   */\n      tag_34\n      jump\t// in\n    tag_62:\n        /* \"#utility.yul\":2590:2729   */\n      swap1\n      pop\n        /* \"#utility.yul\":2317:2736   */\n      swap2\n      swap1\n      pop\n      jump\t// out\n\n    auxdata: 0xa2646970667358221220fce1da2a6708bb12d5484c15d69d25ec1b9ce0b472d6d8e938f47b81d4205ef264736f6c63430008120033\n}\n",
				"bytecode": {
					"linkReferences": {},
					"object": "608060405234801561001057600080fd5b50610359806100206000396000f3fe6080604052600436106100295760003560e01c80633ccfd60b1461002e578063d96a094a14610045575b600080fd5b34801561003a57600080fd5b50610043610061565b005b61005f600480360381019061005a9190610219565b61012f565b005b60008054906101000a900473ffffffffffffffffffffffffffffffffffffffff1673ffffffffffffffffffffffffffffffffffffffff163373ffffffffffffffffffffffffffffffffffffffff16146100e6576040517f82b4290000000000000000000000000000000000000000000000000000000000815260040160405180910390fd5b3373ffffffffffffffffffffffffffffffffffffffff166108fc479081150290604051600060405180830381858888f1935050505015801561012c573d6000803e3d6000fd5b50565b671bc16d674ec80000346101439190610275565b811115610185576040517f08c379a000000000000000000000000000000000000000000000000000000000815260040161017c90610303565b60405180910390fd5b671bc16d674ec80000346101999190610275565b8111156101db576040517f08c379a00000000000000000000000000000000000000000000000000000000081526004016101d290610303565b60405180910390fd5b50565b600080fd5b6000819050919050565b6101f6816101e3565b811461020157600080fd5b50565b600081359050610213816101ed565b92915050565b60006020828403121561022f5761022e6101de565b5b600061023d84828501610204565b91505092915050565b7f4e487b7100000000000000000000000000000000000000000000000000000000600052601260045260246000fd5b6000610280826101e3565b915061028b836101e3565b92508261029b5761029a610246565b5b828204905092915050565b600082825260208201905092915050565b7f4e6f7420656e6f7567682045746865722070726f76696465642e000000000000600082015250565b60006102ed601a836102a6565b91506102f8826102b7565b602082019050919050565b6000602082019050818103600083015261031c816102e0565b905091905056fea2646970667358221220fce1da2a6708bb12d5484c15d69d25ec1b9ce0b472d6d8e938f47b81d4205ef264736f6c63430008120033",
					"opcodes": "PUSH1 0x80 PUSH1 0x40 MSTORE CALLVALUE DUP1 ISZERO PUSH2 0x10 JUMPI PUSH1 0x0 DUP1 REVERT JUMPDEST POP PUSH2 0x359 DUP1 PUSH2 0x20 PUSH1 0x0 CODECOPY PUSH1 0x0 RETURN INVALID PUSH1 0x80 PUSH1 0x40 MSTORE PUSH1 0x4 CALLDATASIZE LT PUSH2 0x29 JUMPI PUSH1 0x0 CALLDATALOAD PUSH1 0xE0 SHR DUP1 PUSH4 0x3CCFD60B EQ PUSH2 0x2E JUMPI DUP1 PUSH4 0xD96A094A EQ PUSH2 0x45 JUMPI JUMPDEST PUSH1 0x0 DUP1 REVERT JUMPDEST CALLVALUE DUP1 ISZERO PUSH2 0x3A JUMPI PUSH1 0x0 DUP1 REVERT JUMPDEST POP PUSH2 0x43 PUSH2 0x61 JUMP JUMPDEST STOP JUMPDEST PUSH2 0x5F PUSH1 0x4 DUP1 CALLDATASIZE SUB DUP2 ADD SWAP1 PUSH2 0x5A SWAP2 SWAP1 PUSH2 0x219 JUMP JUMPDEST PUSH2 0x12F JUMP JUMPDEST STOP JUMPDEST PUSH1 0x0 DUP1 SLOAD SWAP1 PUSH2 0x100 EXP SWAP1 DIV PUSH20 0xFFFFFFFFFFFFFFFFFFFFFFFFFFFFFFFFFFFFFFFF AND PUSH20 0xFFFFFFFFFFFFFFFFFFFFFFFFFFFFFFFFFFFFFFFF AND CALLER PUSH20 0xFFFFFFFFFFFFFFFFFFFFFFFFFFFFFFFFFFFFFFFF AND EQ PUSH2 0xE6 JUMPI PUSH1 0x40 MLOAD PUSH32 0x82B4290000000000000000000000000000000000000000000000000000000000 DUP2 MSTORE PUSH1 0x4 ADD PUSH1 0x40 MLOAD DUP1 SWAP2 SUB SWAP1 REVERT JUMPDEST CALLER PUSH20 0xFFFFFFFFFFFFFFFFFFFFFFFFFFFFFFFFFFFFFFFF AND PUSH2 0x8FC SELFBALANCE SWAP1 DUP2 ISZERO MUL SWAP1 PUSH1 0x40 MLOAD PUSH1 0x0 PUSH1 0x40 MLOAD DUP1 DUP4 SUB DUP2 DUP6 DUP9 DUP9 CALL SWAP4 POP POP POP POP ISZERO DUP1 ISZERO PUSH2 0x12C JUMPI RETURNDATASIZE PUSH1 0x0 DUP1 RETURNDATACOPY RETURNDATASIZE PUSH1 0x0 REVERT JUMPDEST POP JUMP JUMPDEST PUSH8 0x1BC16D674EC80000 CALLVALUE PUSH2 0x143 SWAP2 SWAP1 PUSH2 0x275 JUMP JUMPDEST DUP2 GT ISZERO PUSH2 0x185 JUMPI PUSH1 0x40 MLOAD PUSH32 0x8C379A000000000000000000000000000000000000000000000000000000000 DUP2 MSTORE PUSH1 0x4 ADD PUSH2 0x17C SWAP1 PUSH2 0x303 JUMP JUMPDEST PUSH1 0x40 MLOAD DUP1 SWAP2 SUB SWAP1 REVERT JUMPDEST PUSH8 0x1BC16D674EC80000 CALLVALUE PUSH2 0x199 SWAP2 SWAP1 PUSH2 0x275 JUMP JUMPDEST DUP2 GT ISZERO PUSH2 0x1DB JUMPI PUSH1 0x40 MLOAD PUSH32 0x8C379A000000000000000000000000000000000000000000000000000000000 DUP2 MSTORE PUSH1 0x4 ADD PUSH2 0x1D2 SWAP1 PUSH2 0x303 JUMP JUMPDEST PUSH1 0x40 MLOAD DUP1 SWAP2 SUB SWAP1 REVERT JUMPDEST POP JUMP JUMPDEST PUSH1 0x0 DUP1 REVERT JUMPDEST PUSH1 0x0 DUP2 SWAP1 POP SWAP2 SWAP1 POP JUMP JUMPDEST PUSH2 0x1F6 DUP2 PUSH2 0x1E3 JUMP JUMPDEST DUP2 EQ PUSH2 0x201 JUMPI PUSH1 0x0 DUP1 REVERT JUMPDEST POP JUMP JUMPDEST PUSH1 0x0 DUP2 CALLDATALOAD SWAP1 POP PUSH2 0x213 DUP2 PUSH2 0x1ED JUMP JUMPDEST SWAP3 SWAP2 POP POP JUMP JUMPDEST PUSH1 0x0 PUSH1 0x20 DUP3 DUP5 SUB SLT ISZERO PUSH2 0x22F JUMPI PUSH2 0x22E PUSH2 0x1DE JUMP JUMPDEST JUMPDEST PUSH1 0x0 PUSH2 0x23D DUP5 DUP3 DUP6 ADD PUSH2 0x204 JUMP JUMPDEST SWAP2 POP POP SWAP3 SWAP2 POP POP JUMP JUMPDEST PUSH32 0x4E487B7100000000000000000000000000000000000000000000000000000000 PUSH1 0x0 MSTORE PUSH1 0x12 PUSH1 0x4 MSTORE PUSH1 0x24 PUSH1 0x0 REVERT JUMPDEST PUSH1 0x0 PUSH2 0x280 DUP3 PUSH2 0x1E3 JUMP JUMPDEST SWAP2 POP PUSH2 0x28B DUP4 PUSH2 0x1E3 JUMP JUMPDEST SWAP3 POP DUP3 PUSH2 0x29B JUMPI PUSH2 0x29A PUSH2 0x246 JUMP JUMPDEST JUMPDEST DUP3 DUP3 DIV SWAP1 POP SWAP3 SWAP2 POP POP JUMP JUMPDEST PUSH1 0x0 DUP3 DUP3 MSTORE PUSH1 0x20 DUP3 ADD SWAP1 POP SWAP3 SWAP2 POP POP JUMP JUMPDEST PUSH32 0x4E6F7420656E6F7567682045746865722070726F76696465642E000000000000 PUSH1 0x0 DUP3 ADD MSTORE POP JUMP JUMPDEST PUSH1 0x0 PUSH2 0x2ED PUSH1 0x1A DUP4 PUSH2 0x2A6 JUMP JUMPDEST SWAP2 POP PUSH2 0x2F8 DUP3 PUSH2 0x2B7 JUMP JUMPDEST PUSH1 0x20 DUP3 ADD SWAP1 POP SWAP2 SWAP1 POP JUMP JUMPDEST PUSH1 0x0 PUSH1 0x20 DUP3 ADD SWAP1 POP DUP2 DUP2 SUB PUSH1 0x0 DUP4 ADD MSTORE PUSH2 0x31C DUP2 PUSH2 0x2E0 JUMP JUMPDEST SWAP1 POP SWAP2 SWAP1 POP JUMP INVALID LOG2 PUSH5 0x6970667358 0x22 SLT KECCAK256 0xFC 0xE1 0xDA 0x2A PUSH8 0x8BB12D5484C15D6 SWAP14 0x25 0xEC SHL SWAP13 0xE0 0xB4 PUSH19 0xD6D8E938F47B81D4205EF264736F6C63430008 SLT STOP CALLER "
				},
				"gasEstimates": {
					"creation": {
						"codeDepositCost": "171400",
						"executionCost": "214",
						"totalCost": "171614"
					},
					"external": {
						"buy(uint256)": "infinite",
						"withdraw()": "infinite"
					}
				},
				"methodIdentifiers": {
					"buy(uint256)": "d96a094a",
					"withdraw()": "3ccfd60b"
				}
			},
			"storageLayout": {
				"storage": [
					{
						"astId": 3,
						"contract": "contract-4e734dff94.sol:VendingMachine",
						"label": "owner",
						"offset": 0,
						"slot": "0",
						"type": "t_address"
					}
				],
				"types": {
					"t_address": {
						"encoding": "inplace",
						"label": "address",
						"numberOfBytes": "20"
					}
				}
			},
			"userdoc": {
				"kind": "user",
				"methods": {},
				"version": 1
			}
		}
	}
}