{
	"contract-917f614593.sol": {
		"TestPayable": {
			"abi": [
				{
					"stateMutability": "payable",
					"type": "fallback"
				},
				{
					"inputs": [],
					"name": "x",
					"outputs": [
						{
							"internalType": "uint256",
							"name": "",
							"type": "uint256"
						}
					],
					"stateMutability": "view",
					"type": "function"
				},
				{
					"inputs": [],
					"name": "y",
					"outputs": [
						{
							"internalType": "uint256",
							"name": "",
							"type": "uint256"
						}
					],
					"stateMutability": "view",
					"type": "function"
				},
				{
					"stateMutability": "payable",
					"type": "receive"
				}
			],
			"devdoc": {
				"kind": "dev",
				"methods": {},
				"version": 1
			},
			"evm": {
				"assembly": "    /* \"contract-917f614593.sol\":491:1091  contract TestPayable {... */\n  mstore(0x40, 0x80)\n  callvalue\n  dup1\n  iszero\n  tag_1\n  jumpi\n  0x00\n  dup1\n  revert\ntag_1:\n  pop\n  dataSize(sub_0)\n  dup1\n  dataOffset(sub_0)\n  0x00\n  codecopy\n  0x00\n  return\nstop\n\nsub_0: assembly {\n        /* \"contract-917f614593.sol\":491:1091  contract TestPayable {... */\n      mstore(0x40, 0x80)\n      jumpi(tag_1, lt(calldatasize, 0x04))\n      shr(0xe0, calldataload(0x00))\n      dup1\n      0x0c55699c\n      eq\n      tag_3\n      jumpi\n      dup1\n      0xa56dfe4a\n      eq\n      tag_4\n      jumpi\n      jump(tag_2)\n    tag_1:\n      jumpi(tag_2, calldatasize)\n        /* \"contract-917f614593.sol\":1070:1071  2 */\n      0x02\n        /* \"contract-917f614593.sol\":1066:1067  x */\n      0x00\n        /* \"contract-917f614593.sol\":1066:1071  x = 2 */\n      dup2\n      swap1\n      sstore\n      pop\n        /* \"contract-917f614593.sol\":1077:1086  msg.value */\n      callvalue\n        /* \"contract-917f614593.sol\":1073:1074  y */\n      0x01\n        /* \"contract-917f614593.sol\":1073:1086  y = msg.value */\n      dup2\n      swap1\n      sstore\n      stop\n        /* \"contract-917f614593.sol\":491:1091  contract TestPayable {... */\n    tag_2:\n        /* \"contract-917f614593.sol\":906:907  1 */\n      0x01\n        /* \"contract-917f614593.sol\":902:903  x */\n      0x00\n        /* \"contract-917f614593.sol\":902:907  x = 1 */\n      dup2\n      swap1\n      sstore\n      pop\n        /* \"contract-917f614593.sol\":913:922  msg.value */\n      callvalue\n        /* \"contract-917f614593.sol\":909:910  y */\n      0x01\n        /* \"contract-917f614593.sol\":909:922  y = msg.value */\n      dup2\n      swap1\n      sstore\n      stop\n        /* \"contract-917f614593.sol\":518:531  uint public x */\n    tag_3:\n      callvalue\n      dup1\n      iszero\n      tag_9\n      jumpi\n      0x00\n      dup1\n      revert\n    tag_9:\n      pop\n      tag_10\n      tag_11\n      jump\t// in\n    tag_10:\n      mload(0x40)\n      tag_12\n      swap2\n      swap1\n      tag_13\n      jump\t// in\n    tag_12:\n      mload(0x40)\n      dup1\n      swap2\n      sub\n      swap1\n      return\n        /* \"contract-917f614593.sol\":537:550  uint public y */\n    tag_4:\n      callvalue\n      dup1\n      iszero\n      tag_14\n      jumpi\n      0x00\n      dup1\n      revert\n    tag_14:\n      pop\n      tag_15\n      tag_16\n      jump\t// in\n    tag_15:\n      mload(0x40)\n      tag_17\n      swap2\n      swap1\n      tag_13\n      jump\t// in\n    tag_17:\n      mload(0x40)\n      dup1\n      swap2\n      sub\n      swap1\n      return\n        /* \"contract-917f614593.sol\":518:531  uint public x */\n    tag_11:\n      sload(0x00)\n      dup2\n      jump\t// out\n        /* \"contract-917f614593.sol\":537:550  uint public y */\n    tag_16:\n      sload(0x01)\n      dup2\n      jump\t// out\n        /* \"#utility.yul\":7:84   */\n    tag_18:\n        /* \"#utility.yul\":44:51   */\n      0x00\n        /* \"#utility.yul\":73:78   */\n      dup2\n        /* \"#utility.yul\":62:78   */\n      swap1\n      pop\n        /* \"#utility.yul\":7:84   */\n      swap2\n      swap1\n      pop\n      jump\t// out\n        /* \"#utility.yul\":90:208   */\n    tag_19:\n        /* \"#utility.yul\":177:201   */\n      tag_23\n        /* \"#utility.yul\":195:200   */\n      dup2\n        /* \"#utility.yul\":177:201   */\n      tag_18\n      jump\t// in\n    tag_23:\n        /* \"#utility.yul\":172:175   */\n      dup3\n        /* \"#utility.yul\":165:202   */\n      mstore\n        /* \"#utility.yul\":90:208   */\n      pop\n      pop\n      jump\t// out\n        /* \"#utility.yul\":214:436   */\n    tag_13:\n        /* \"#utility.yul\":307:311   */\n      0x00\n        /* \"#utility.yul\":345:347   */\n      0x20\n        /* \"#utility.yul\":334:343   */\n      dup3\n        /* \"#utility.yul\":330:348   */\n      add\n        /* \"#utility.yul\":322:348   */\n      swap1\n      pop\n        /* \"#utility.yul\":358:429   */\n      tag_25\n        /* \"#utility.yul\":426:427   */\n      0x00\n        /* \"#utility.yul\":415:424   */\n      dup4\n        /* \"#utility.yul\":411:428   */\n      add\n        /* \"#utility.yul\":402:408   */\n      dup5\n        /* \"#utility.yul\":358:429   */\n      tag_19\n      jump\t// in\n    tag_25:\n        /* \"#utility.yul\":214:436   */\n      swap3\n      swap2\n      pop\n      pop\n      jump\t// out\n\n    auxdata: 0xa26469706673582212204686faceee5dc6a0143991d031de5f93acaa1a5a923988ac3f376c27fa61420364736f6c63430008150033\n}\n",
				"bytecode": {
					"linkReferences": {},
					"object": "608060405234801561000f575f80fd5b506101028061001d5f395ff3fe6080604052600436106028575f3560e01c80630c55699c14604a578063a56dfe4a14606f57603b565b36603b5760025f81905550346001819055005b60015f81905550346001819055005b3480156054575f80fd5b50605b6094565b6040516066919060b5565b60405180910390f35b3480156079575f80fd5b5060806099565b604051608b919060b5565b60405180910390f35b5f5481565b60015481565b5f819050919050565b60af81609f565b82525050565b5f60208201905060c65f83018460a8565b9291505056fea26469706673582212204686faceee5dc6a0143991d031de5f93acaa1a5a923988ac3f376c27fa61420364736f6c63430008150033",
					"opcodes": "PUSH1 0x80 PUSH1 0x40 MSTORE CALLVALUE DUP1 ISZERO PUSH2 0xF JUMPI PUSH0 DUP1 REVERT JUMPDEST POP PUSH2 0x102 DUP1 PUSH2 0x1D PUSH0 CODECOPY PUSH0 RETURN INVALID PUSH1 0x80 PUSH1 0x40 MSTORE PUSH1 0x4 CALLDATASIZE LT PUSH1 0x28 JUMPI PUSH0 CALLDATALOAD PUSH1 0xE0 SHR DUP1 PUSH4 0xC55699C EQ PUSH1 0x4A JUMPI DUP1 PUSH4 0xA56DFE4A EQ PUSH1 0x6F JUMPI PUSH1 0x3B JUMP JUMPDEST CALLDATASIZE PUSH1 0x3B JUMPI PUSH1 0x2 PUSH0 DUP2 SWAP1 SSTORE POP CALLVALUE PUSH1 0x1 DUP2 SWAP1 SSTORE STOP JUMPDEST PUSH1 0x1 PUSH0 DUP2 SWAP1 SSTORE POP CALLVALUE PUSH1 0x1 DUP2 SWAP1 SSTORE STOP JUMPDEST CALLVALUE DUP1 ISZERO PUSH1 0x54 JUMPI PUSH0 DUP1 REVERT JUMPDEST POP PUSH1 0x5B PUSH1 0x94 JUMP JUMPDEST PUSH1 0x40 MLOAD PUSH1 0x66 SWAP2 SWAP1 PUSH1 0xB5 JUMP JUMPDEST PUSH1 0x40 MLOAD DUP1 SWAP2 SUB SWAP1 RETURN JUMPDEST CALLVALUE DUP1 ISZERO PUSH1 0x79 JUMPI PUSH0 DUP1 REVERT JUMPDEST POP PUSH1 0x80 PUSH1 0x99 JUMP JUMPDEST PUSH1 0x40 MLOAD PUSH1 0x8B SWAP2 SWAP1 PUSH1 0xB5 JUMP JUMPDEST PUSH1 0x40 MLOAD DUP1 SWAP2 SUB SWAP1 RETURN JUMPDEST PUSH0 SLOAD DUP2 JUMP JUMPDEST PUSH1 0x1 SLOAD DUP2 JUMP JUMPDEST PUSH0 DUP2 SWAP1 POP SWAP2 SWAP1 POP JUMP JUMPDEST PUSH1 0xAF DUP2 PUSH1 0x9F JUMP JUMPDEST DUP3 MSTORE POP POP JUMP JUMPDEST PUSH0 PUSH1 0x20 DUP3 ADD SWAP1 POP PUSH1 0xC6 PUSH0 DUP4 ADD DUP5 PUSH1 0xA8 JUMP JUMPDEST SWAP3 SWAP2 POP POP JUMP INVALID LOG2 PUSH5 0x6970667358 0x22 SLT KECCAK256 CHAINID DUP7 STATICCALL 0xCE 0xEE 0x5D 0xC6 LOG0 EQ CODECOPY SWAP2 0xD0 BALANCE 0xDE PUSH0 SWAP4 0xAC 0xAA BYTE GAS SWAP3 CODECOPY DUP9 0xAC EXTCODEHASH CALLDATACOPY PUSH13 0x27FA61420364736F6C63430008 ISZERO STOP CALLER "
				},
				"gasEstimates": {
					"creation": {
						"codeDepositCost": "51600",
						"executionCost": "103",
						"totalCost": "51703"
					},
					"external": {
						"": "44330",
						"x()": "2402",
						"y()": "2425"
					}
				},
				"methodIdentifiers": {
					"x()": "0c55699c",
					"y()": "a56dfe4a"
				}
			},
			"storageLayout": {
				"storage": [
					{
						"astId": 14,
						"contract": "contract-917f614593.sol:TestPayable",
						"label": "x",
						"offset": 0,
						"slot": "0",
						"type": "t_uint256"
					},
					{
						"astId": 16,
						"contract": "contract-917f614593.sol:TestPayable",
						"label": "y",
						"offset": 0,
						"slot": "1",
						"type": "t_uint256"
					}
				],
				"types": {
					"t_uint256": {
						"encoding": "inplace",
						"label": "uint256",
						"numberOfBytes": "32"
					}
				}
			},
			"userdoc": {
				"kind": "user",
				"methods": {},
				"version": 1
			}
		}
	}
}