{
	"contract-917f614593.sol": {
		"Caller": {
			"abi": [
				{
					"anonymous": false,
					"inputs": [
						{
							"indexed": false,
							"internalType": "address",
							"name": "",
							"type": "address"
						}
					],
					"name": "logAddress",
					"type": "event"
				},
				{
					"anonymous": false,
					"inputs": [
						{
							"indexed": false,
							"internalType": "uint256",
							"name": "",
							"type": "uint256"
						}
					],
					"name": "logBalance",
					"type": "event"
				},
				{
					"anonymous": false,
					"inputs": [
						{
							"indexed": false,
							"internalType": "string",
							"name": "",
							"type": "string"
						}
					],
					"name": "logMessage",
					"type": "event"
				},
				{
					"inputs": [
						{
							"internalType": "contract Test",
							"name": "test",
							"type": "address"
						}
					],
					"name": "callTest",
					"outputs": [
						{
							"internalType": "bool",
							"name": "",
							"type": "bool"
						}
					],
					"stateMutability": "nonpayable",
					"type": "function"
				},
				{
					"inputs": [
						{
							"internalType": "contract TestPayable",
							"name": "test",
							"type": "address"
						}
					],
					"name": "callTestPayable",
					"outputs": [
						{
							"internalType": "bool",
							"name": "",
							"type": "bool"
						}
					],
					"stateMutability": "nonpayable",
					"type": "function"
				},
				{
					"inputs": [],
					"name": "deposit",
					"outputs": [],
					"stateMutability": "payable",
					"type": "function"
				},
				{
					"inputs": [],
					"name": "getBalance",
					"outputs": [
						{
							"internalType": "uint256",
							"name": "",
							"type": "uint256"
						}
					],
					"stateMutability": "view",
					"type": "function"
				},
				{
					"inputs": [
						{
							"internalType": "uint256",
							"name": "amount",
							"type": "uint256"
						}
					],
					"name": "transferThis",
					"outputs": [],
					"stateMutability": "nonpayable",
					"type": "function"
				},
				{
					"stateMutability": "payable",
					"type": "receive"
				}
			],
			"devdoc": {
				"kind": "dev",
				"methods": {},
				"version": 1
			},
			"evm": {
				"assembly": "    /* \"contract-917f614593.sol\":1093:3601  contract Caller {... */\n  mstore(0x40, 0x80)\n  callvalue\n  dup1\n  iszero\n  tag_1\n  jumpi\n  0x00\n  dup1\n  revert\ntag_1:\n  pop\n  dataSize(sub_0)\n  dup1\n  dataOffset(sub_0)\n  0x00\n  codecopy\n  0x00\n  return\nstop\n\nsub_0: assembly {\n        /* \"contract-917f614593.sol\":1093:3601  contract Caller {... */\n      mstore(0x40, 0x80)\n      jumpi(tag_1, lt(calldatasize, 0x04))\n      shr(0xe0, calldataload(0x00))\n      dup1\n      0x12065fe0\n      eq\n      tag_3\n      jumpi\n      dup1\n      0x32eb12f1\n      eq\n      tag_4\n      jumpi\n      dup1\n      0x979709e5\n      eq\n      tag_5\n      jumpi\n      dup1\n      0xd0ba41d6\n      eq\n      tag_6\n      jumpi\n      dup1\n      0xd0e30db0\n      eq\n      tag_7\n      jumpi\n      jump(tag_2)\n    tag_1:\n      jumpi(tag_2, calldatasize)\n        /* \"contract-917f614593.sol\":1198:1220  logAddress(msg.sender) */\n      0x5f91b0afd2c6ef8da92137ba907bccdc85ec4856a15ad39de3e0eff02be6d70e\n        /* \"contract-917f614593.sol\":1209:1219  msg.sender */\n      caller\n        /* \"contract-917f614593.sol\":1198:1220  logAddress(msg.sender) */\n      mload(0x40)\n      tag_10\n      swap2\n      swap1\n      tag_11\n      jump\t// in\n    tag_10:\n      mload(0x40)\n      dup1\n      swap2\n      sub\n      swap1\n      log1\n        /* \"contract-917f614593.sol\":1093:3601  contract Caller {... */\n      stop\n    tag_2:\n      0x00\n      dup1\n      revert\n        /* \"contract-917f614593.sol\":1685:1779  function getBalance() public view returns (uint) {... */\n    tag_3:\n      callvalue\n      dup1\n      iszero\n      tag_12\n      jumpi\n      0x00\n      dup1\n      revert\n    tag_12:\n      pop\n      tag_13\n      tag_14\n      jump\t// in\n    tag_13:\n      mload(0x40)\n      tag_15\n      swap2\n      swap1\n      tag_16\n      jump\t// in\n    tag_15:\n      mload(0x40)\n      dup1\n      swap2\n      sub\n      swap1\n      return\n        /* \"contract-917f614593.sol\":1785:2463  function callTest(Test test) public returns (bool) {... */\n    tag_4:\n      callvalue\n      dup1\n      iszero\n      tag_17\n      jumpi\n      0x00\n      dup1\n      revert\n    tag_17:\n      pop\n      tag_18\n      0x04\n      dup1\n      calldatasize\n      sub\n      dup2\n      add\n      swap1\n      tag_19\n      swap2\n      swap1\n      tag_20\n      jump\t// in\n    tag_19:\n      tag_21\n      jump\t// in\n    tag_18:\n      mload(0x40)\n      tag_22\n      swap2\n      swap1\n      tag_23\n      jump\t// in\n    tag_22:\n      mload(0x40)\n      dup1\n      swap2\n      sub\n      swap1\n      return\n        /* \"contract-917f614593.sol\":2469:3509  function callTestPayable(TestPayable test) public returns (bool) {... */\n    tag_5:\n      callvalue\n      dup1\n      iszero\n      tag_24\n      jumpi\n      0x00\n      dup1\n      revert\n    tag_24:\n      pop\n      tag_25\n      0x04\n      dup1\n      calldatasize\n      sub\n      dup2\n      add\n      swap1\n      tag_26\n      swap2\n      swap1\n      tag_27\n      jump\t// in\n    tag_26:\n      tag_28\n      jump\t// in\n    tag_25:\n      mload(0x40)\n      tag_29\n      swap2\n      swap1\n      tag_23\n      jump\t// in\n    tag_29:\n      mload(0x40)\n      dup1\n      swap2\n      sub\n      swap1\n      return\n        /* \"contract-917f614593.sol\":1504:1602  function transferThis(uint amount) public {... */\n    tag_6:\n      callvalue\n      dup1\n      iszero\n      tag_30\n      jumpi\n      0x00\n      dup1\n      revert\n    tag_30:\n      pop\n      tag_31\n      0x04\n      dup1\n      calldatasize\n      sub\n      dup2\n      add\n      swap1\n      tag_32\n      swap2\n      swap1\n      tag_33\n      jump\t// in\n    tag_32:\n      tag_34\n      jump\t// in\n    tag_31:\n      stop\n        /* \"contract-917f614593.sol\":1641:1679  function deposit() external payable {} */\n    tag_7:\n      tag_35\n      tag_36\n      jump\t// in\n    tag_35:\n      stop\n        /* \"contract-917f614593.sol\":1685:1779  function getBalance() public view returns (uint) {... */\n    tag_14:\n        /* \"contract-917f614593.sol\":1728:1732  uint */\n      0x00\n        /* \"contract-917f614593.sol\":1751:1772  address(this).balance */\n      selfbalance\n        /* \"contract-917f614593.sol\":1744:1772  return address(this).balance */\n      swap1\n      pop\n        /* \"contract-917f614593.sol\":1685:1779  function getBalance() public view returns (uint) {... */\n      swap1\n      jump\t// out\n        /* \"contract-917f614593.sol\":1785:2463  function callTest(Test test) public returns (bool) {... */\n    tag_21:\n        /* \"contract-917f614593.sol\":1830:1834  bool */\n      0x00\n        /* \"contract-917f614593.sol\":1847:1859  bool success */\n      dup1\n        /* \"contract-917f614593.sol\":1872:1876  test */\n      dup3\n        /* \"contract-917f614593.sol\":1864:1882  address(test).call */\n      0xffffffffffffffffffffffffffffffffffffffff\n      and\n        /* \"contract-917f614593.sol\":1883:1931  abi.encodeWithSignature(\"nonExistingFunction()\") */\n      add(0x24, mload(0x40))\n      mload(0x40)\n      0x20\n      dup2\n      dup4\n      sub\n      sub\n      dup2\n      mstore\n      swap1\n      0x40\n      mstore\n      and(not(0xffffffffffffffffffffffffffffffffffffffffffffffffffffffff), 0xf85396d700000000000000000000000000000000000000000000000000000000)\n      0x20\n      dup3\n      add\n      dup1\n      mload\n      0xffffffffffffffffffffffffffffffffffffffffffffffffffffffff\n      dup4\n      dup2\n      dup4\n      and\n      or\n      dup4\n      mstore\n      pop\n      pop\n      pop\n      pop\n        /* \"contract-917f614593.sol\":1864:1932  address(test).call(abi.encodeWithSignature(\"nonExistingFunction()\")) */\n      mload(0x40)\n      tag_39\n      swap2\n      swap1\n      tag_40\n      jump\t// in\n    tag_39:\n      0x00\n      mload(0x40)\n      dup1\n      dup4\n      sub\n      dup2\n      0x00\n      dup7\n      gas\n      call\n      swap2\n      pop\n      pop\n      returndatasize\n      dup1\n      0x00\n      dup2\n      eq\n      tag_43\n      jumpi\n      mload(0x40)\n      swap2\n      pop\n      and(add(returndatasize, 0x3f), not(0x1f))\n      dup3\n      add\n      0x40\n      mstore\n      returndatasize\n      dup3\n      mstore\n      returndatasize\n      0x00\n      0x20\n      dup5\n      add\n      returndatacopy\n      jump(tag_42)\n    tag_43:\n      0x60\n      swap2\n      pop\n    tag_42:\n      pop\n        /* \"contract-917f614593.sol\":1846:1932  (bool success,) = address(test).call(abi.encodeWithSignature(\"nonExistingFunction()\")) */\n      pop\n      swap1\n      pop\n        /* \"contract-917f614593.sol\":1950:1957  success */\n      dup1\n        /* \"contract-917f614593.sol\":1942:1958  require(success) */\n      tag_44\n      jumpi\n      0x00\n      dup1\n      revert\n    tag_44:\n        /* \"contract-917f614593.sol\":2244:2271  address payable testPayable */\n      0x00\n        /* \"contract-917f614593.sol\":2290:2294  test */\n      dup4\n        /* \"contract-917f614593.sol\":2244:2296  address payable testPayable = payable(address(test)) */\n      swap1\n      pop\n        /* \"contract-917f614593.sol\":2431:2442  testPayable */\n      dup1\n        /* \"contract-917f614593.sol\":2431:2447  testPayable.send */\n      0xffffffffffffffffffffffffffffffffffffffff\n      and\n        /* \"contract-917f614593.sol\":2431:2456  testPayable.send(2 ether) */\n      0x08fc\n        /* \"contract-917f614593.sol\":2448:2455  2 ether */\n      0x1bc16d674ec80000\n        /* \"contract-917f614593.sol\":2431:2456  testPayable.send(2 ether) */\n      swap1\n      dup2\n      iszero\n      mul\n      swap1\n      mload(0x40)\n      0x00\n      mload(0x40)\n      dup1\n      dup4\n      sub\n      dup2\n      dup6\n      dup9\n      dup9\n      call\n      swap4\n      pop\n      pop\n      pop\n      pop\n        /* \"contract-917f614593.sol\":2424:2456  return testPayable.send(2 ether) */\n      swap3\n      pop\n      pop\n      pop\n        /* \"contract-917f614593.sol\":1785:2463  function callTest(Test test) public returns (bool) {... */\n      swap2\n      swap1\n      pop\n      jump\t// out\n        /* \"contract-917f614593.sol\":2469:3509  function callTestPayable(TestPayable test) public returns (bool) {... */\n    tag_28:\n        /* \"contract-917f614593.sol\":2528:2532  bool */\n      0x00\n        /* \"contract-917f614593.sol\":2545:2557  bool success */\n      dup1\n        /* \"contract-917f614593.sol\":2570:2574  test */\n      dup3\n        /* \"contract-917f614593.sol\":2562:2580  address(test).call */\n      0xffffffffffffffffffffffffffffffffffffffff\n      and\n        /* \"contract-917f614593.sol\":2581:2629  abi.encodeWithSignature(\"nonExistingFunction()\") */\n      add(0x24, mload(0x40))\n      mload(0x40)\n      0x20\n      dup2\n      dup4\n      sub\n      sub\n      dup2\n      mstore\n      swap1\n      0x40\n      mstore\n      and(not(0xffffffffffffffffffffffffffffffffffffffffffffffffffffffff), 0xf85396d700000000000000000000000000000000000000000000000000000000)\n      0x20\n      dup3\n      add\n      dup1\n      mload\n      0xffffffffffffffffffffffffffffffffffffffffffffffffffffffff\n      dup4\n      dup2\n      dup4\n      and\n      or\n      dup4\n      mstore\n      pop\n      pop\n      pop\n      pop\n        /* \"contract-917f614593.sol\":2562:2630  address(test).call(abi.encodeWithSignature(\"nonExistingFunction()\")) */\n      mload(0x40)\n      tag_47\n      swap2\n      swap1\n      tag_40\n      jump\t// in\n    tag_47:\n      0x00\n      mload(0x40)\n      dup1\n      dup4\n      sub\n      dup2\n      0x00\n      dup7\n      gas\n      call\n      swap2\n      pop\n      pop\n      returndatasize\n      dup1\n      0x00\n      dup2\n      eq\n      tag_50\n      jumpi\n      mload(0x40)\n      swap2\n      pop\n      and(add(returndatasize, 0x3f), not(0x1f))\n      dup3\n      add\n      0x40\n      mstore\n      returndatasize\n      dup3\n      mstore\n      returndatasize\n      0x00\n      0x20\n      dup5\n      add\n      returndatacopy\n      jump(tag_49)\n    tag_50:\n      0x60\n      swap2\n      pop\n    tag_49:\n      pop\n        /* \"contract-917f614593.sol\":2544:2630  (bool success,) = address(test).call(abi.encodeWithSignature(\"nonExistingFunction()\")) */\n      pop\n      swap1\n      pop\n        /* \"contract-917f614593.sol\":2645:2665  logMessage(\"step 1\") */\n      0x7c990052ff7017db6da0c658c0fe7be85f832d1995d7c93f87bf7fd4f8fa711d\n      mload(0x40)\n      tag_51\n      swap1\n      tag_52\n      jump\t// in\n    tag_51:\n      mload(0x40)\n      dup1\n      swap2\n      sub\n      swap1\n      log1\n        /* \"contract-917f614593.sol\":2683:2690  success */\n      dup1\n        /* \"contract-917f614593.sol\":2675:2691  require(success) */\n      tag_53\n      jumpi\n      0x00\n      dup1\n      revert\n    tag_53:\n        /* \"contract-917f614593.sol\":2788:2792  test */\n      dup3\n        /* \"contract-917f614593.sol\":2780:2798  address(test).call */\n      0xffffffffffffffffffffffffffffffffffffffff\n      and\n        /* \"contract-917f614593.sol\":2806:2813  1 ether */\n      0x0de0b6b3a7640000\n        /* \"contract-917f614593.sol\":2815:2863  abi.encodeWithSignature(\"nonExistingFunction()\") */\n      add(0x24, mload(0x40))\n      mload(0x40)\n      0x20\n      dup2\n      dup4\n      sub\n      sub\n      dup2\n      mstore\n      swap1\n      0x40\n      mstore\n      and(not(0xffffffffffffffffffffffffffffffffffffffffffffffffffffffff), 0xf85396d700000000000000000000000000000000000000000000000000000000)\n      0x20\n      dup3\n      add\n      dup1\n      mload\n      0xffffffffffffffffffffffffffffffffffffffffffffffffffffffff\n      dup4\n      dup2\n      dup4\n      and\n      or\n      dup4\n      mstore\n      pop\n      pop\n      pop\n      pop\n        /* \"contract-917f614593.sol\":2780:2864  address(test).call{value: 1 ether}(abi.encodeWithSignature(\"nonExistingFunction()\")) */\n      mload(0x40)\n      tag_54\n      swap2\n      swap1\n      tag_40\n      jump\t// in\n    tag_54:\n      0x00\n      mload(0x40)\n      dup1\n      dup4\n      sub\n      dup2\n      dup6\n      dup8\n      gas\n      call\n      swap3\n      pop\n      pop\n      pop\n      returndatasize\n      dup1\n      0x00\n      dup2\n      eq\n      tag_57\n      jumpi\n      mload(0x40)\n      swap2\n      pop\n      and(add(returndatasize, 0x3f), not(0x1f))\n      dup3\n      add\n      0x40\n      mstore\n      returndatasize\n      dup3\n      mstore\n      returndatasize\n      0x00\n      0x20\n      dup5\n      add\n      returndatacopy\n      jump(tag_56)\n    tag_57:\n      0x60\n      swap2\n      pop\n    tag_56:\n      pop\n        /* \"contract-917f614593.sol\":2767:2864  (success,) = address(test).call{value: 1 ether}(abi.encodeWithSignature(\"nonExistingFunction()\")) */\n      pop\n      dup1\n      swap2\n      pop\n      pop\n        /* \"contract-917f614593.sol\":2879:2899  logMessage(\"step 2\") */\n      0x7c990052ff7017db6da0c658c0fe7be85f832d1995d7c93f87bf7fd4f8fa711d\n      mload(0x40)\n      tag_58\n      swap1\n      tag_59\n      jump\t// in\n    tag_58:\n      mload(0x40)\n      dup1\n      swap2\n      sub\n      swap1\n      log1\n        /* \"contract-917f614593.sol\":2917:2924  success */\n      dup1\n        /* \"contract-917f614593.sol\":2909:2925  require(success) */\n      tag_60\n      jumpi\n      0x00\n      dup1\n      revert\n    tag_60:\n        /* \"contract-917f614593.sol\":3314:3318  test */\n      dup3\n        /* \"contract-917f614593.sol\":3306:3324  address(test).call */\n      0xffffffffffffffffffffffffffffffffffffffff\n      and\n        /* \"contract-917f614593.sol\":3332:3339  2 ether */\n      0x1bc16d674ec80000\n        /* \"contract-917f614593.sol\":3306:3344  address(test).call{value: 2 ether}(\"\") */\n      mload(0x40)\n      tag_61\n      swap1\n      tag_62\n      jump\t// in\n    tag_61:\n      0x00\n      mload(0x40)\n      dup1\n      dup4\n      sub\n      dup2\n      dup6\n      dup8\n      gas\n      call\n      swap3\n      pop\n      pop\n      pop\n      returndatasize\n      dup1\n      0x00\n      dup2\n      eq\n      tag_65\n      jumpi\n      mload(0x40)\n      swap2\n      pop\n      and(add(returndatasize, 0x3f), not(0x1f))\n      dup3\n      add\n      0x40\n      mstore\n      returndatasize\n      dup3\n      mstore\n      returndatasize\n      0x00\n      0x20\n      dup5\n      add\n      returndatacopy\n      jump(tag_64)\n    tag_65:\n      0x60\n      swap2\n      pop\n    tag_64:\n      pop\n        /* \"contract-917f614593.sol\":3293:3344  (success,) = address(test).call{value: 2 ether}(\"\") */\n      pop\n      dup1\n      swap2\n      pop\n      pop\n        /* \"contract-917f614593.sol\":3359:3379  logMessage(\"step 3\") */\n      0x7c990052ff7017db6da0c658c0fe7be85f832d1995d7c93f87bf7fd4f8fa711d\n      mload(0x40)\n      tag_66\n      swap1\n      tag_67\n      jump\t// in\n    tag_66:\n      mload(0x40)\n      dup1\n      swap2\n      sub\n      swap1\n      log1\n        /* \"contract-917f614593.sol\":3397:3404  success */\n      dup1\n        /* \"contract-917f614593.sol\":3389:3405  require(success) */\n      tag_68\n      jumpi\n      0x00\n      dup1\n      revert\n    tag_68:\n        /* \"contract-917f614593.sol\":3495:3502  success */\n      dup1\n        /* \"contract-917f614593.sol\":3488:3502  return success */\n      swap2\n      pop\n      pop\n        /* \"contract-917f614593.sol\":2469:3509  function callTestPayable(TestPayable test) public returns (bool) {... */\n      swap2\n      swap1\n      pop\n      jump\t// out\n        /* \"contract-917f614593.sol\":1504:1602  function transferThis(uint amount) public {... */\n    tag_34:\n        /* \"contract-917f614593.sol\":1572:1576  this */\n      address\n        /* \"contract-917f614593.sol\":1556:1587  payable(address(this)).transfer */\n      0xffffffffffffffffffffffffffffffffffffffff\n      and\n        /* \"contract-917f614593.sol\":1556:1595  payable(address(this)).transfer(amount) */\n      0x08fc\n        /* \"contract-917f614593.sol\":1588:1594  amount */\n      dup3\n        /* \"contract-917f614593.sol\":1556:1595  payable(address(this)).transfer(amount) */\n      swap1\n      dup2\n      iszero\n      mul\n      swap1\n      mload(0x40)\n      0x00\n      mload(0x40)\n      dup1\n      dup4\n      sub\n      dup2\n      dup6\n      dup9\n      dup9\n      call\n      swap4\n      pop\n      pop\n      pop\n      pop\n      iszero\n      dup1\n      iszero\n      tag_71\n      jumpi\n      returndatasize\n      0x00\n      dup1\n      returndatacopy\n      revert(0x00, returndatasize)\n    tag_71:\n      pop\n        /* \"contract-917f614593.sol\":1504:1602  function transferThis(uint amount) public {... */\n      pop\n      jump\t// out\n        /* \"contract-917f614593.sol\":1641:1679  function deposit() external payable {} */\n    tag_36:\n      jump\t// out\n        /* \"#utility.yul\":7:133   */\n    tag_73:\n        /* \"#utility.yul\":44:51   */\n      0x00\n        /* \"#utility.yul\":84:126   */\n      0xffffffffffffffffffffffffffffffffffffffff\n        /* \"#utility.yul\":77:82   */\n      dup3\n        /* \"#utility.yul\":73:127   */\n      and\n        /* \"#utility.yul\":62:127   */\n      swap1\n      pop\n        /* \"#utility.yul\":7:133   */\n      swap2\n      swap1\n      pop\n      jump\t// out\n        /* \"#utility.yul\":139:235   */\n    tag_74:\n        /* \"#utility.yul\":176:183   */\n      0x00\n        /* \"#utility.yul\":205:229   */\n      tag_108\n        /* \"#utility.yul\":223:228   */\n      dup3\n        /* \"#utility.yul\":205:229   */\n      tag_73\n      jump\t// in\n    tag_108:\n        /* \"#utility.yul\":194:229   */\n      swap1\n      pop\n        /* \"#utility.yul\":139:235   */\n      swap2\n      swap1\n      pop\n      jump\t// out\n        /* \"#utility.yul\":241:359   */\n    tag_75:\n        /* \"#utility.yul\":328:352   */\n      tag_110\n        /* \"#utility.yul\":346:351   */\n      dup2\n        /* \"#utility.yul\":328:352   */\n      tag_74\n      jump\t// in\n    tag_110:\n        /* \"#utility.yul\":323:326   */\n      dup3\n        /* \"#utility.yul\":316:353   */\n      mstore\n        /* \"#utility.yul\":241:359   */\n      pop\n      pop\n      jump\t// out\n        /* \"#utility.yul\":365:587   */\n    tag_11:\n        /* \"#utility.yul\":458:462   */\n      0x00\n        /* \"#utility.yul\":496:498   */\n      0x20\n        /* \"#utility.yul\":485:494   */\n      dup3\n        /* \"#utility.yul\":481:499   */\n      add\n        /* \"#utility.yul\":473:499   */\n      swap1\n      pop\n        /* \"#utility.yul\":509:580   */\n      tag_112\n        /* \"#utility.yul\":577:578   */\n      0x00\n        /* \"#utility.yul\":566:575   */\n      dup4\n        /* \"#utility.yul\":562:579   */\n      add\n        /* \"#utility.yul\":553:559   */\n      dup5\n        /* \"#utility.yul\":509:580   */\n      tag_75\n      jump\t// in\n    tag_112:\n        /* \"#utility.yul\":365:587   */\n      swap3\n      swap2\n      pop\n      pop\n      jump\t// out\n        /* \"#utility.yul\":593:670   */\n    tag_76:\n        /* \"#utility.yul\":630:637   */\n      0x00\n        /* \"#utility.yul\":659:664   */\n      dup2\n        /* \"#utility.yul\":648:664   */\n      swap1\n      pop\n        /* \"#utility.yul\":593:670   */\n      swap2\n      swap1\n      pop\n      jump\t// out\n        /* \"#utility.yul\":676:794   */\n    tag_77:\n        /* \"#utility.yul\":763:787   */\n      tag_115\n        /* \"#utility.yul\":781:786   */\n      dup2\n        /* \"#utility.yul\":763:787   */\n      tag_76\n      jump\t// in\n    tag_115:\n        /* \"#utility.yul\":758:761   */\n      dup3\n        /* \"#utility.yul\":751:788   */\n      mstore\n        /* \"#utility.yul\":676:794   */\n      pop\n      pop\n      jump\t// out\n        /* \"#utility.yul\":800:1022   */\n    tag_16:\n        /* \"#utility.yul\":893:897   */\n      0x00\n        /* \"#utility.yul\":931:933   */\n      0x20\n        /* \"#utility.yul\":920:929   */\n      dup3\n        /* \"#utility.yul\":916:934   */\n      add\n        /* \"#utility.yul\":908:934   */\n      swap1\n      pop\n        /* \"#utility.yul\":944:1015   */\n      tag_117\n        /* \"#utility.yul\":1012:1013   */\n      0x00\n        /* \"#utility.yul\":1001:1010   */\n      dup4\n        /* \"#utility.yul\":997:1014   */\n      add\n        /* \"#utility.yul\":988:994   */\n      dup5\n        /* \"#utility.yul\":944:1015   */\n      tag_77\n      jump\t// in\n    tag_117:\n        /* \"#utility.yul\":800:1022   */\n      swap3\n      swap2\n      pop\n      pop\n      jump\t// out\n        /* \"#utility.yul\":1109:1226   */\n    tag_79:\n        /* \"#utility.yul\":1218:1219   */\n      0x00\n        /* \"#utility.yul\":1215:1216   */\n      dup1\n        /* \"#utility.yul\":1208:1220   */\n      revert\n        /* \"#utility.yul\":1355:1462   */\n    tag_81:\n        /* \"#utility.yul\":1403:1410   */\n      0x00\n        /* \"#utility.yul\":1432:1456   */\n      tag_122\n        /* \"#utility.yul\":1450:1455   */\n      dup3\n        /* \"#utility.yul\":1432:1456   */\n      tag_74\n      jump\t// in\n    tag_122:\n        /* \"#utility.yul\":1421:1456   */\n      swap1\n      pop\n        /* \"#utility.yul\":1355:1462   */\n      swap2\n      swap1\n      pop\n      jump\t// out\n        /* \"#utility.yul\":1468:1612   */\n    tag_82:\n        /* \"#utility.yul\":1552:1587   */\n      tag_124\n        /* \"#utility.yul\":1581:1586   */\n      dup2\n        /* \"#utility.yul\":1552:1587   */\n      tag_81\n      jump\t// in\n    tag_124:\n        /* \"#utility.yul\":1545:1550   */\n      dup2\n        /* \"#utility.yul\":1542:1588   */\n      eq\n        /* \"#utility.yul\":1532:1606   */\n      tag_125\n      jumpi\n        /* \"#utility.yul\":1602:1603   */\n      0x00\n        /* \"#utility.yul\":1599:1600   */\n      dup1\n        /* \"#utility.yul\":1592:1604   */\n      revert\n        /* \"#utility.yul\":1532:1606   */\n    tag_125:\n        /* \"#utility.yul\":1468:1612   */\n      pop\n      jump\t// out\n        /* \"#utility.yul\":1618:1779   */\n    tag_83:\n        /* \"#utility.yul\":1675:1680   */\n      0x00\n        /* \"#utility.yul\":1713:1719   */\n      dup2\n        /* \"#utility.yul\":1700:1720   */\n      calldataload\n        /* \"#utility.yul\":1691:1720   */\n      swap1\n      pop\n        /* \"#utility.yul\":1729:1773   */\n      tag_127\n        /* \"#utility.yul\":1767:1772   */\n      dup2\n        /* \"#utility.yul\":1729:1773   */\n      tag_82\n      jump\t// in\n    tag_127:\n        /* \"#utility.yul\":1618:1779   */\n      swap3\n      swap2\n      pop\n      pop\n      jump\t// out\n        /* \"#utility.yul\":1785:2136   */\n    tag_20:\n        /* \"#utility.yul\":1855:1861   */\n      0x00\n        /* \"#utility.yul\":1904:1906   */\n      0x20\n        /* \"#utility.yul\":1892:1901   */\n      dup3\n        /* \"#utility.yul\":1883:1890   */\n      dup5\n        /* \"#utility.yul\":1879:1902   */\n      sub\n        /* \"#utility.yul\":1875:1907   */\n      slt\n        /* \"#utility.yul\":1872:1991   */\n      iszero\n      tag_129\n      jumpi\n        /* \"#utility.yul\":1910:1989   */\n      tag_130\n      tag_79\n      jump\t// in\n    tag_130:\n        /* \"#utility.yul\":1872:1991   */\n    tag_129:\n        /* \"#utility.yul\":2030:2031   */\n      0x00\n        /* \"#utility.yul\":2055:2119   */\n      tag_131\n        /* \"#utility.yul\":2111:2118   */\n      dup5\n        /* \"#utility.yul\":2102:2108   */\n      dup3\n        /* \"#utility.yul\":2091:2100   */\n      dup6\n        /* \"#utility.yul\":2087:2109   */\n      add\n        /* \"#utility.yul\":2055:2119   */\n      tag_83\n      jump\t// in\n    tag_131:\n        /* \"#utility.yul\":2045:2119   */\n      swap2\n      pop\n        /* \"#utility.yul\":2001:2129   */\n      pop\n        /* \"#utility.yul\":1785:2136   */\n      swap3\n      swap2\n      pop\n      pop\n      jump\t// out\n        /* \"#utility.yul\":2142:2232   */\n    tag_84:\n        /* \"#utility.yul\":2176:2183   */\n      0x00\n        /* \"#utility.yul\":2219:2224   */\n      dup2\n        /* \"#utility.yul\":2212:2225   */\n      iszero\n        /* \"#utility.yul\":2205:2226   */\n      iszero\n        /* \"#utility.yul\":2194:2226   */\n      swap1\n      pop\n        /* \"#utility.yul\":2142:2232   */\n      swap2\n      swap1\n      pop\n      jump\t// out\n        /* \"#utility.yul\":2238:2347   */\n    tag_85:\n        /* \"#utility.yul\":2319:2340   */\n      tag_134\n        /* \"#utility.yul\":2334:2339   */\n      dup2\n        /* \"#utility.yul\":2319:2340   */\n      tag_84\n      jump\t// in\n    tag_134:\n        /* \"#utility.yul\":2314:2317   */\n      dup3\n        /* \"#utility.yul\":2307:2341   */\n      mstore\n        /* \"#utility.yul\":2238:2347   */\n      pop\n      pop\n      jump\t// out\n        /* \"#utility.yul\":2353:2563   */\n    tag_23:\n        /* \"#utility.yul\":2440:2444   */\n      0x00\n        /* \"#utility.yul\":2478:2480   */\n      0x20\n        /* \"#utility.yul\":2467:2476   */\n      dup3\n        /* \"#utility.yul\":2463:2481   */\n      add\n        /* \"#utility.yul\":2455:2481   */\n      swap1\n      pop\n        /* \"#utility.yul\":2491:2556   */\n      tag_136\n        /* \"#utility.yul\":2553:2554   */\n      0x00\n        /* \"#utility.yul\":2542:2551   */\n      dup4\n        /* \"#utility.yul\":2538:2555   */\n      add\n        /* \"#utility.yul\":2529:2535   */\n      dup5\n        /* \"#utility.yul\":2491:2556   */\n      tag_85\n      jump\t// in\n    tag_136:\n        /* \"#utility.yul\":2353:2563   */\n      swap3\n      swap2\n      pop\n      pop\n      jump\t// out\n        /* \"#utility.yul\":2569:2673   */\n    tag_86:\n        /* \"#utility.yul\":2614:2621   */\n      0x00\n        /* \"#utility.yul\":2643:2667   */\n      tag_138\n        /* \"#utility.yul\":2661:2666   */\n      dup3\n        /* \"#utility.yul\":2643:2667   */\n      tag_73\n      jump\t// in\n    tag_138:\n        /* \"#utility.yul\":2632:2667   */\n      swap1\n      pop\n        /* \"#utility.yul\":2569:2673   */\n      swap2\n      swap1\n      pop\n      jump\t// out\n        /* \"#utility.yul\":2679:2801   */\n    tag_87:\n        /* \"#utility.yul\":2734:2741   */\n      0x00\n        /* \"#utility.yul\":2763:2795   */\n      tag_140\n        /* \"#utility.yul\":2789:2794   */\n      dup3\n        /* \"#utility.yul\":2763:2795   */\n      tag_86\n      jump\t// in\n    tag_140:\n        /* \"#utility.yul\":2752:2795   */\n      swap1\n      pop\n        /* \"#utility.yul\":2679:2801   */\n      swap2\n      swap1\n      pop\n      jump\t// out\n        /* \"#utility.yul\":2807:2965   */\n    tag_88:\n        /* \"#utility.yul\":2898:2940   */\n      tag_142\n        /* \"#utility.yul\":2934:2939   */\n      dup2\n        /* \"#utility.yul\":2898:2940   */\n      tag_87\n      jump\t// in\n    tag_142:\n        /* \"#utility.yul\":2891:2896   */\n      dup2\n        /* \"#utility.yul\":2888:2941   */\n      eq\n        /* \"#utility.yul\":2878:2959   */\n      tag_143\n      jumpi\n        /* \"#utility.yul\":2955:2956   */\n      0x00\n        /* \"#utility.yul\":2952:2953   */\n      dup1\n        /* \"#utility.yul\":2945:2957   */\n      revert\n        /* \"#utility.yul\":2878:2959   */\n    tag_143:\n        /* \"#utility.yul\":2807:2965   */\n      pop\n      jump\t// out\n        /* \"#utility.yul\":2971:3146   */\n    tag_89:\n        /* \"#utility.yul\":3035:3040   */\n      0x00\n        /* \"#utility.yul\":3073:3079   */\n      dup2\n        /* \"#utility.yul\":3060:3080   */\n      calldataload\n        /* \"#utility.yul\":3051:3080   */\n      swap1\n      pop\n        /* \"#utility.yul\":3089:3140   */\n      tag_145\n        /* \"#utility.yul\":3134:3139   */\n      dup2\n        /* \"#utility.yul\":3089:3140   */\n      tag_88\n      jump\t// in\n    tag_145:\n        /* \"#utility.yul\":2971:3146   */\n      swap3\n      swap2\n      pop\n      pop\n      jump\t// out\n        /* \"#utility.yul\":3152:3517   */\n    tag_27:\n        /* \"#utility.yul\":3229:3235   */\n      0x00\n        /* \"#utility.yul\":3278:3280   */\n      0x20\n        /* \"#utility.yul\":3266:3275   */\n      dup3\n        /* \"#utility.yul\":3257:3264   */\n      dup5\n        /* \"#utility.yul\":3253:3276   */\n      sub\n        /* \"#utility.yul\":3249:3281   */\n      slt\n        /* \"#utility.yul\":3246:3365   */\n      iszero\n      tag_147\n      jumpi\n        /* \"#utility.yul\":3284:3363   */\n      tag_148\n      tag_79\n      jump\t// in\n    tag_148:\n        /* \"#utility.yul\":3246:3365   */\n    tag_147:\n        /* \"#utility.yul\":3404:3405   */\n      0x00\n        /* \"#utility.yul\":3429:3500   */\n      tag_149\n        /* \"#utility.yul\":3492:3499   */\n      dup5\n        /* \"#utility.yul\":3483:3489   */\n      dup3\n        /* \"#utility.yul\":3472:3481   */\n      dup6\n        /* \"#utility.yul\":3468:3490   */\n      add\n        /* \"#utility.yul\":3429:3500   */\n      tag_89\n      jump\t// in\n    tag_149:\n        /* \"#utility.yul\":3419:3500   */\n      swap2\n      pop\n        /* \"#utility.yul\":3375:3510   */\n      pop\n        /* \"#utility.yul\":3152:3517   */\n      swap3\n      swap2\n      pop\n      pop\n      jump\t// out\n        /* \"#utility.yul\":3523:3645   */\n    tag_90:\n        /* \"#utility.yul\":3596:3620   */\n      tag_151\n        /* \"#utility.yul\":3614:3619   */\n      dup2\n        /* \"#utility.yul\":3596:3620   */\n      tag_76\n      jump\t// in\n    tag_151:\n        /* \"#utility.yul\":3589:3594   */\n      dup2\n        /* \"#utility.yul\":3586:3621   */\n      eq\n        /* \"#utility.yul\":3576:3639   */\n      tag_152\n      jumpi\n        /* \"#utility.yul\":3635:3636   */\n      0x00\n        /* \"#utility.yul\":3632:3633   */\n      dup1\n        /* \"#utility.yul\":3625:3637   */\n      revert\n        /* \"#utility.yul\":3576:3639   */\n    tag_152:\n        /* \"#utility.yul\":3523:3645   */\n      pop\n      jump\t// out\n        /* \"#utility.yul\":3651:3790   */\n    tag_91:\n        /* \"#utility.yul\":3697:3702   */\n      0x00\n        /* \"#utility.yul\":3735:3741   */\n      dup2\n        /* \"#utility.yul\":3722:3742   */\n      calldataload\n        /* \"#utility.yul\":3713:3742   */\n      swap1\n      pop\n        /* \"#utility.yul\":3751:3784   */\n      tag_154\n        /* \"#utility.yul\":3778:3783   */\n      dup2\n        /* \"#utility.yul\":3751:3784   */\n      tag_90\n      jump\t// in\n    tag_154:\n        /* \"#utility.yul\":3651:3790   */\n      swap3\n      swap2\n      pop\n      pop\n      jump\t// out\n        /* \"#utility.yul\":3796:4125   */\n    tag_33:\n        /* \"#utility.yul\":3855:3861   */\n      0x00\n        /* \"#utility.yul\":3904:3906   */\n      0x20\n        /* \"#utility.yul\":3892:3901   */\n      dup3\n        /* \"#utility.yul\":3883:3890   */\n      dup5\n        /* \"#utility.yul\":3879:3902   */\n      sub\n        /* \"#utility.yul\":3875:3907   */\n      slt\n        /* \"#utility.yul\":3872:3991   */\n      iszero\n      tag_156\n      jumpi\n        /* \"#utility.yul\":3910:3989   */\n      tag_157\n      tag_79\n      jump\t// in\n    tag_157:\n        /* \"#utility.yul\":3872:3991   */\n    tag_156:\n        /* \"#utility.yul\":4030:4031   */\n      0x00\n        /* \"#utility.yul\":4055:4108   */\n      tag_158\n        /* \"#utility.yul\":4100:4107   */\n      dup5\n        /* \"#utility.yul\":4091:4097   */\n      dup3\n        /* \"#utility.yul\":4080:4089   */\n      dup6\n        /* \"#utility.yul\":4076:4098   */\n      add\n        /* \"#utility.yul\":4055:4108   */\n      tag_91\n      jump\t// in\n    tag_158:\n        /* \"#utility.yul\":4045:4108   */\n      swap2\n      pop\n        /* \"#utility.yul\":4001:4118   */\n      pop\n        /* \"#utility.yul\":3796:4125   */\n      swap3\n      swap2\n      pop\n      pop\n      jump\t// out\n        /* \"#utility.yul\":4131:4229   */\n    tag_92:\n        /* \"#utility.yul\":4182:4188   */\n      0x00\n        /* \"#utility.yul\":4216:4221   */\n      dup2\n        /* \"#utility.yul\":4210:4222   */\n      mload\n        /* \"#utility.yul\":4200:4222   */\n      swap1\n      pop\n        /* \"#utility.yul\":4131:4229   */\n      swap2\n      swap1\n      pop\n      jump\t// out\n        /* \"#utility.yul\":4235:4382   */\n    tag_93:\n        /* \"#utility.yul\":4336:4347   */\n      0x00\n        /* \"#utility.yul\":4373:4376   */\n      dup2\n        /* \"#utility.yul\":4358:4376   */\n      swap1\n      pop\n        /* \"#utility.yul\":4235:4382   */\n      swap3\n      swap2\n      pop\n      pop\n      jump\t// out\n        /* \"#utility.yul\":4388:4634   */\n    tag_94:\n        /* \"#utility.yul\":4469:4470   */\n      0x00\n        /* \"#utility.yul\":4479:4592   */\n    tag_162:\n        /* \"#utility.yul\":4493:4499   */\n      dup4\n        /* \"#utility.yul\":4490:4491   */\n      dup2\n        /* \"#utility.yul\":4487:4500   */\n      lt\n        /* \"#utility.yul\":4479:4592   */\n      iszero\n      tag_164\n      jumpi\n        /* \"#utility.yul\":4578:4579   */\n      dup1\n        /* \"#utility.yul\":4573:4576   */\n      dup3\n        /* \"#utility.yul\":4569:4580   */\n      add\n        /* \"#utility.yul\":4563:4581   */\n      mload\n        /* \"#utility.yul\":4559:4560   */\n      dup2\n        /* \"#utility.yul\":4554:4557   */\n      dup5\n        /* \"#utility.yul\":4550:4561   */\n      add\n        /* \"#utility.yul\":4543:4582   */\n      mstore\n        /* \"#utility.yul\":4515:4517   */\n      0x20\n        /* \"#utility.yul\":4512:4513   */\n      dup2\n        /* \"#utility.yul\":4508:4518   */\n      add\n        /* \"#utility.yul\":4503:4518   */\n      swap1\n      pop\n        /* \"#utility.yul\":4479:4592   */\n      jump(tag_162)\n    tag_164:\n        /* \"#utility.yul\":4626:4627   */\n      0x00\n        /* \"#utility.yul\":4617:4623   */\n      dup5\n        /* \"#utility.yul\":4612:4615   */\n      dup5\n        /* \"#utility.yul\":4608:4624   */\n      add\n        /* \"#utility.yul\":4601:4628   */\n      mstore\n        /* \"#utility.yul\":4450:4634   */\n      pop\n        /* \"#utility.yul\":4388:4634   */\n      pop\n      pop\n      pop\n      jump\t// out\n        /* \"#utility.yul\":4640:5026   */\n    tag_95:\n        /* \"#utility.yul\":4744:4747   */\n      0x00\n        /* \"#utility.yul\":4772:4810   */\n      tag_166\n        /* \"#utility.yul\":4804:4809   */\n      dup3\n        /* \"#utility.yul\":4772:4810   */\n      tag_92\n      jump\t// in\n    tag_166:\n        /* \"#utility.yul\":4826:4914   */\n      tag_167\n        /* \"#utility.yul\":4907:4913   */\n      dup2\n        /* \"#utility.yul\":4902:4905   */\n      dup6\n        /* \"#utility.yul\":4826:4914   */\n      tag_93\n      jump\t// in\n    tag_167:\n        /* \"#utility.yul\":4819:4914   */\n      swap4\n      pop\n        /* \"#utility.yul\":4923:4988   */\n      tag_168\n        /* \"#utility.yul\":4981:4987   */\n      dup2\n        /* \"#utility.yul\":4976:4979   */\n      dup6\n        /* \"#utility.yul\":4969:4973   */\n      0x20\n        /* \"#utility.yul\":4962:4967   */\n      dup7\n        /* \"#utility.yul\":4958:4974   */\n      add\n        /* \"#utility.yul\":4923:4988   */\n      tag_94\n      jump\t// in\n    tag_168:\n        /* \"#utility.yul\":5013:5019   */\n      dup1\n        /* \"#utility.yul\":5008:5011   */\n      dup5\n        /* \"#utility.yul\":5004:5020   */\n      add\n        /* \"#utility.yul\":4997:5020   */\n      swap2\n      pop\n        /* \"#utility.yul\":4748:5026   */\n      pop\n        /* \"#utility.yul\":4640:5026   */\n      swap3\n      swap2\n      pop\n      pop\n      jump\t// out\n        /* \"#utility.yul\":5032:5303   */\n    tag_40:\n        /* \"#utility.yul\":5162:5165   */\n      0x00\n        /* \"#utility.yul\":5184:5277   */\n      tag_170\n        /* \"#utility.yul\":5273:5276   */\n      dup3\n        /* \"#utility.yul\":5264:5270   */\n      dup5\n        /* \"#utility.yul\":5184:5277   */\n      tag_95\n      jump\t// in\n    tag_170:\n        /* \"#utility.yul\":5177:5277   */\n      swap2\n      pop\n        /* \"#utility.yul\":5294:5297   */\n      dup2\n        /* \"#utility.yul\":5287:5297   */\n      swap1\n      pop\n        /* \"#utility.yul\":5032:5303   */\n      swap3\n      swap2\n      pop\n      pop\n      jump\t// out\n        /* \"#utility.yul\":5309:5478   */\n    tag_96:\n        /* \"#utility.yul\":5393:5404   */\n      0x00\n        /* \"#utility.yul\":5427:5433   */\n      dup3\n        /* \"#utility.yul\":5422:5425   */\n      dup3\n        /* \"#utility.yul\":5415:5434   */\n      mstore\n        /* \"#utility.yul\":5467:5471   */\n      0x20\n        /* \"#utility.yul\":5462:5465   */\n      dup3\n        /* \"#utility.yul\":5458:5472   */\n      add\n        /* \"#utility.yul\":5443:5472   */\n      swap1\n      pop\n        /* \"#utility.yul\":5309:5478   */\n      swap3\n      swap2\n      pop\n      pop\n      jump\t// out\n        /* \"#utility.yul\":5484:5640   */\n    tag_97:\n        /* \"#utility.yul\":5624:5632   */\n      0x7374657020310000000000000000000000000000000000000000000000000000\n        /* \"#utility.yul\":5620:5621   */\n      0x00\n        /* \"#utility.yul\":5612:5618   */\n      dup3\n        /* \"#utility.yul\":5608:5622   */\n      add\n        /* \"#utility.yul\":5601:5633   */\n      mstore\n        /* \"#utility.yul\":5484:5640   */\n      pop\n      jump\t// out\n        /* \"#utility.yul\":5646:6011   */\n    tag_98:\n        /* \"#utility.yul\":5788:5791   */\n      0x00\n        /* \"#utility.yul\":5809:5875   */\n      tag_174\n        /* \"#utility.yul\":5873:5874   */\n      0x06\n        /* \"#utility.yul\":5868:5871   */\n      dup4\n        /* \"#utility.yul\":5809:5875   */\n      tag_96\n      jump\t// in\n    tag_174:\n        /* \"#utility.yul\":5802:5875   */\n      swap2\n      pop\n        /* \"#utility.yul\":5884:5977   */\n      tag_175\n        /* \"#utility.yul\":5973:5976   */\n      dup3\n        /* \"#utility.yul\":5884:5977   */\n      tag_97\n      jump\t// in\n    tag_175:\n        /* \"#utility.yul\":6002:6004   */\n      0x20\n        /* \"#utility.yul\":5997:6000   */\n      dup3\n        /* \"#utility.yul\":5993:6005   */\n      add\n        /* \"#utility.yul\":5986:6005   */\n      swap1\n      pop\n        /* \"#utility.yul\":5646:6011   */\n      swap2\n      swap1\n      pop\n      jump\t// out\n        /* \"#utility.yul\":6017:6436   */\n    tag_52:\n        /* \"#utility.yul\":6183:6187   */\n      0x00\n        /* \"#utility.yul\":6221:6223   */\n      0x20\n        /* \"#utility.yul\":6210:6219   */\n      dup3\n        /* \"#utility.yul\":6206:6224   */\n      add\n        /* \"#utility.yul\":6198:6224   */\n      swap1\n      pop\n        /* \"#utility.yul\":6270:6279   */\n      dup2\n        /* \"#utility.yul\":6264:6268   */\n      dup2\n        /* \"#utility.yul\":6260:6280   */\n      sub\n        /* \"#utility.yul\":6256:6257   */\n      0x00\n        /* \"#utility.yul\":6245:6254   */\n      dup4\n        /* \"#utility.yul\":6241:6258   */\n      add\n        /* \"#utility.yul\":6234:6281   */\n      mstore\n        /* \"#utility.yul\":6298:6429   */\n      tag_177\n        /* \"#utility.yul\":6424:6428   */\n      dup2\n        /* \"#utility.yul\":6298:6429   */\n      tag_98\n      jump\t// in\n    tag_177:\n        /* \"#utility.yul\":6290:6429   */\n      swap1\n      pop\n        /* \"#utility.yul\":6017:6436   */\n      swap2\n      swap1\n      pop\n      jump\t// out\n        /* \"#utility.yul\":6442:6598   */\n    tag_99:\n        /* \"#utility.yul\":6582:6590   */\n      0x7374657020320000000000000000000000000000000000000000000000000000\n        /* \"#utility.yul\":6578:6579   */\n      0x00\n        /* \"#utility.yul\":6570:6576   */\n      dup3\n        /* \"#utility.yul\":6566:6580   */\n      add\n        /* \"#utility.yul\":6559:6591   */\n      mstore\n        /* \"#utility.yul\":6442:6598   */\n      pop\n      jump\t// out\n        /* \"#utility.yul\":6604:6969   */\n    tag_100:\n        /* \"#utility.yul\":6746:6749   */\n      0x00\n        /* \"#utility.yul\":6767:6833   */\n      tag_180\n        /* \"#utility.yul\":6831:6832   */\n      0x06\n        /* \"#utility.yul\":6826:6829   */\n      dup4\n        /* \"#utility.yul\":6767:6833   */\n      tag_96\n      jump\t// in\n    tag_180:\n        /* \"#utility.yul\":6760:6833   */\n      swap2\n      pop\n        /* \"#utility.yul\":6842:6935   */\n      tag_181\n        /* \"#utility.yul\":6931:6934   */\n      dup3\n        /* \"#utility.yul\":6842:6935   */\n      tag_99\n      jump\t// in\n    tag_181:\n        /* \"#utility.yul\":6960:6962   */\n      0x20\n        /* \"#utility.yul\":6955:6958   */\n      dup3\n        /* \"#utility.yul\":6951:6963   */\n      add\n        /* \"#utility.yul\":6944:6963   */\n      swap1\n      pop\n        /* \"#utility.yul\":6604:6969   */\n      swap2\n      swap1\n      pop\n      jump\t// out\n        /* \"#utility.yul\":6975:7394   */\n    tag_59:\n        /* \"#utility.yul\":7141:7145   */\n      0x00\n        /* \"#utility.yul\":7179:7181   */\n      0x20\n        /* \"#utility.yul\":7168:7177   */\n      dup3\n        /* \"#utility.yul\":7164:7182   */\n      add\n        /* \"#utility.yul\":7156:7182   */\n      swap1\n      pop\n        /* \"#utility.yul\":7228:7237   */\n      dup2\n        /* \"#utility.yul\":7222:7226   */\n      dup2\n        /* \"#utility.yul\":7218:7238   */\n      sub\n        /* \"#utility.yul\":7214:7215   */\n      0x00\n        /* \"#utility.yul\":7203:7212   */\n      dup4\n        /* \"#utility.yul\":7199:7216   */\n      add\n        /* \"#utility.yul\":7192:7239   */\n      mstore\n        /* \"#utility.yul\":7256:7387   */\n      tag_183\n        /* \"#utility.yul\":7382:7386   */\n      dup2\n        /* \"#utility.yul\":7256:7387   */\n      tag_100\n      jump\t// in\n    tag_183:\n        /* \"#utility.yul\":7248:7387   */\n      swap1\n      pop\n        /* \"#utility.yul\":6975:7394   */\n      swap2\n      swap1\n      pop\n      jump\t// out\n        /* \"#utility.yul\":7400:7514   */\n    tag_101:\n      pop\n      jump\t// out\n        /* \"#utility.yul\":7520:7918   */\n    tag_102:\n        /* \"#utility.yul\":7679:7682   */\n      0x00\n        /* \"#utility.yul\":7700:7783   */\n      tag_186\n        /* \"#utility.yul\":7781:7782   */\n      0x00\n        /* \"#utility.yul\":7776:7779   */\n      dup4\n        /* \"#utility.yul\":7700:7783   */\n      tag_93\n      jump\t// in\n    tag_186:\n        /* \"#utility.yul\":7693:7783   */\n      swap2\n      pop\n        /* \"#utility.yul\":7792:7885   */\n      tag_187\n        /* \"#utility.yul\":7881:7884   */\n      dup3\n        /* \"#utility.yul\":7792:7885   */\n      tag_101\n      jump\t// in\n    tag_187:\n        /* \"#utility.yul\":7910:7911   */\n      0x00\n        /* \"#utility.yul\":7905:7908   */\n      dup3\n        /* \"#utility.yul\":7901:7912   */\n      add\n        /* \"#utility.yul\":7894:7912   */\n      swap1\n      pop\n        /* \"#utility.yul\":7520:7918   */\n      swap2\n      swap1\n      pop\n      jump\t// out\n        /* \"#utility.yul\":7924:8303   */\n    tag_62:\n        /* \"#utility.yul\":8108:8111   */\n      0x00\n        /* \"#utility.yul\":8130:8277   */\n      tag_189\n        /* \"#utility.yul\":8273:8276   */\n      dup3\n        /* \"#utility.yul\":8130:8277   */\n      tag_102\n      jump\t// in\n    tag_189:\n        /* \"#utility.yul\":8123:8277   */\n      swap2\n      pop\n        /* \"#utility.yul\":8294:8297   */\n      dup2\n        /* \"#utility.yul\":8287:8297   */\n      swap1\n      pop\n        /* \"#utility.yul\":7924:8303   */\n      swap2\n      swap1\n      pop\n      jump\t// out\n        /* \"#utility.yul\":8309:8465   */\n    tag_103:\n        /* \"#utility.yul\":8449:8457   */\n      0x7374657020330000000000000000000000000000000000000000000000000000\n        /* \"#utility.yul\":8445:8446   */\n      0x00\n        /* \"#utility.yul\":8437:8443   */\n      dup3\n        /* \"#utility.yul\":8433:8447   */\n      add\n        /* \"#utility.yul\":8426:8458   */\n      mstore\n        /* \"#utility.yul\":8309:8465   */\n      pop\n      jump\t// out\n        /* \"#utility.yul\":8471:8836   */\n    tag_104:\n        /* \"#utility.yul\":8613:8616   */\n      0x00\n        /* \"#utility.yul\":8634:8700   */\n      tag_192\n        /* \"#utility.yul\":8698:8699   */\n      0x06\n        /* \"#utility.yul\":8693:8696   */\n      dup4\n        /* \"#utility.yul\":8634:8700   */\n      tag_96\n      jump\t// in\n    tag_192:\n        /* \"#utility.yul\":8627:8700   */\n      swap2\n      pop\n        /* \"#utility.yul\":8709:8802   */\n      tag_193\n        /* \"#utility.yul\":8798:8801   */\n      dup3\n        /* \"#utility.yul\":8709:8802   */\n      tag_103\n      jump\t// in\n    tag_193:\n        /* \"#utility.yul\":8827:8829   */\n      0x20\n        /* \"#utility.yul\":8822:8825   */\n      dup3\n        /* \"#utility.yul\":8818:8830   */\n      add\n        /* \"#utility.yul\":8811:8830   */\n      swap1\n      pop\n        /* \"#utility.yul\":8471:8836   */\n      swap2\n      swap1\n      pop\n      jump\t// out\n        /* \"#utility.yul\":8842:9261   */\n    tag_67:\n        /* \"#utility.yul\":9008:9012   */\n      0x00\n        /* \"#utility.yul\":9046:9048   */\n      0x20\n        /* \"#utility.yul\":9035:9044   */\n      dup3\n        /* \"#utility.yul\":9031:9049   */\n      add\n        /* \"#utility.yul\":9023:9049   */\n      swap1\n      pop\n        /* \"#utility.yul\":9095:9104   */\n      dup2\n        /* \"#utility.yul\":9089:9093   */\n      dup2\n        /* \"#utility.yul\":9085:9105   */\n      sub\n        /* \"#utility.yul\":9081:9082   */\n      0x00\n        /* \"#utility.yul\":9070:9079   */\n      dup4\n        /* \"#utility.yul\":9066:9083   */\n      add\n        /* \"#utility.yul\":9059:9106   */\n      mstore\n        /* \"#utility.yul\":9123:9254   */\n      tag_195\n        /* \"#utility.yul\":9249:9253   */\n      dup2\n        /* \"#utility.yul\":9123:9254   */\n      tag_104\n      jump\t// in\n    tag_195:\n        /* \"#utility.yul\":9115:9254   */\n      swap1\n      pop\n        /* \"#utility.yul\":8842:9261   */\n      swap2\n      swap1\n      pop\n      jump\t// out\n\n    auxdata: 0xa2646970667358221220b40d63cb15b85515914fbd832dc9f0e546537172275d5b89d6b84e46a39d71d664736f6c63430008150033\n}\n",
				"bytecode": {
					"linkReferences": {},
					"object": "608060405234801561000f575f80fd5b50610a2d8061001d5f395ff3fe60806040526004361061004d575f3560e01c806312065fe01461008f57806332eb12f1146100b9578063979709e5146100f5578063d0ba41d614610131578063d0e30db0146101595761008b565b3661008b577f5f91b0afd2c6ef8da92137ba907bccdc85ec4856a15ad39de3e0eff02be6d70e336040516100819190610643565b60405180910390a1005b5f80fd5b34801561009a575f80fd5b506100a3610163565b6040516100b09190610674565b60405180910390f35b3480156100c4575f80fd5b506100df60048036038101906100da91906106cc565b61016a565b6040516100ec9190610711565b60405180910390f35b348015610100575f80fd5b5061011b60048036038101906101169190610776565b6102a7565b6040516101289190610711565b60405180910390f35b34801561013c575f80fd5b50610157600480360381019061015291906107cb565b6105bb565b005b610161610602565b005b5f47905090565b5f808273ffffffffffffffffffffffffffffffffffffffff166040516024016040516020818303038152906040527ff85396d7000000000000000000000000000000000000000000000000000000007bffffffffffffffffffffffffffffffffffffffffffffffffffffffff19166020820180517bffffffffffffffffffffffffffffffffffffffffffffffffffffffff83818316178352505050506040516102139190610862565b5f604051808303815f865af19150503d805f811461024c576040519150601f19603f3d011682016040523d82523d5f602084013e610251565b606091505b505090508061025e575f80fd5b5f8390508073ffffffffffffffffffffffffffffffffffffffff166108fc671bc16d674ec8000090811502906040515f60405180830381858888f1935050505092505050919050565b5f808273ffffffffffffffffffffffffffffffffffffffff166040516024016040516020818303038152906040527ff85396d7000000000000000000000000000000000000000000000000000000007bffffffffffffffffffffffffffffffffffffffffffffffffffffffff19166020820180517bffffffffffffffffffffffffffffffffffffffffffffffffffffffff83818316178352505050506040516103509190610862565b5f604051808303815f865af19150503d805f8114610389576040519150601f19603f3d011682016040523d82523d5f602084013e61038e565b606091505b505090507f7c990052ff7017db6da0c658c0fe7be85f832d1995d7c93f87bf7fd4f8fa711d6040516103bf906108d2565b60405180910390a1806103d0575f80fd5b8273ffffffffffffffffffffffffffffffffffffffff16670de0b6b3a76400006040516024016040516020818303038152906040527ff85396d7000000000000000000000000000000000000000000000000000000007bffffffffffffffffffffffffffffffffffffffffffffffffffffffff19166020820180517bffffffffffffffffffffffffffffffffffffffffffffffffffffffff83818316178352505050506040516104809190610862565b5f6040518083038185875af1925050503d805f81146104ba576040519150601f19603f3d011682016040523d82523d5f602084013e6104bf565b606091505b5050809150507f7c990052ff7017db6da0c658c0fe7be85f832d1995d7c93f87bf7fd4f8fa711d6040516104f29061093a565b60405180910390a180610503575f80fd5b8273ffffffffffffffffffffffffffffffffffffffff16671bc16d674ec8000060405161052f9061097b565b5f6040518083038185875af1925050503d805f8114610569576040519150601f19603f3d011682016040523d82523d5f602084013e61056e565b606091505b5050809150507f7c990052ff7017db6da0c658c0fe7be85f832d1995d7c93f87bf7fd4f8fa711d6040516105a1906109d9565b60405180910390a1806105b2575f80fd5b80915050919050565b3073ffffffffffffffffffffffffffffffffffffffff166108fc8290811502906040515f60405180830381858888f193505050501580156105fe573d5f803e3d5ffd5b5050565b565b5f73ffffffffffffffffffffffffffffffffffffffff82169050919050565b5f61062d82610604565b9050919050565b61063d81610623565b82525050565b5f6020820190506106565f830184610634565b92915050565b5f819050919050565b61066e8161065c565b82525050565b5f6020820190506106875f830184610665565b92915050565b5f80fd5b5f61069b82610623565b9050919050565b6106ab81610691565b81146106b5575f80fd5b50565b5f813590506106c6816106a2565b92915050565b5f602082840312156106e1576106e061068d565b5b5f6106ee848285016106b8565b91505092915050565b5f8115159050919050565b61070b816106f7565b82525050565b5f6020820190506107245f830184610702565b92915050565b5f61073482610604565b9050919050565b5f6107458261072a565b9050919050565b6107558161073b565b811461075f575f80fd5b50565b5f813590506107708161074c565b92915050565b5f6020828403121561078b5761078a61068d565b5b5f61079884828501610762565b91505092915050565b6107aa8161065c565b81146107b4575f80fd5b50565b5f813590506107c5816107a1565b92915050565b5f602082840312156107e0576107df61068d565b5b5f6107ed848285016107b7565b91505092915050565b5f81519050919050565b5f81905092915050565b5f5b8381101561082757808201518184015260208101905061080c565b5f8484015250505050565b5f61083c826107f6565b6108468185610800565b935061085681856020860161080a565b80840191505092915050565b5f61086d8284610832565b915081905092915050565b5f82825260208201905092915050565b7f73746570203100000000000000000000000000000000000000000000000000005f82015250565b5f6108bc600683610878565b91506108c782610888565b602082019050919050565b5f6020820190508181035f8301526108e9816108b0565b9050919050565b7f73746570203200000000000000000000000000000000000000000000000000005f82015250565b5f610924600683610878565b915061092f826108f0565b602082019050919050565b5f6020820190508181035f83015261095181610918565b9050919050565b50565b5f6109665f83610800565b915061097182610958565b5f82019050919050565b5f6109858261095b565b9150819050919050565b7f73746570203300000000000000000000000000000000000000000000000000005f82015250565b5f6109c3600683610878565b91506109ce8261098f565b602082019050919050565b5f6020820190508181035f8301526109f0816109b7565b905091905056fea2646970667358221220b40d63cb15b85515914fbd832dc9f0e546537172275d5b89d6b84e46a39d71d664736f6c63430008150033",
					"opcodes": "PUSH1 0x80 PUSH1 0x40 MSTORE CALLVALUE DUP1 ISZERO PUSH2 0xF JUMPI PUSH0 DUP1 REVERT JUMPDEST POP PUSH2 0xA2D DUP1 PUSH2 0x1D PUSH0 CODECOPY PUSH0 RETURN INVALID PUSH1 0x80 PUSH1 0x40 MSTORE PUSH1 0x4 CALLDATASIZE LT PUSH2 0x4D JUMPI PUSH0 CALLDATALOAD PUSH1 0xE0 SHR DUP1 PUSH4 0x12065FE0 EQ PUSH2 0x8F JUMPI DUP1 PUSH4 0x32EB12F1 EQ PUSH2 0xB9 JUMPI DUP1 PUSH4 0x979709E5 EQ PUSH2 0xF5 JUMPI DUP1 PUSH4 0xD0BA41D6 EQ PUSH2 0x131 JUMPI DUP1 PUSH4 0xD0E30DB0 EQ PUSH2 0x159 JUMPI PUSH2 0x8B JUMP JUMPDEST CALLDATASIZE PUSH2 0x8B JUMPI PUSH32 0x5F91B0AFD2C6EF8DA92137BA907BCCDC85EC4856A15AD39DE3E0EFF02BE6D70E CALLER PUSH1 0x40 MLOAD PUSH2 0x81 SWAP2 SWAP1 PUSH2 0x643 JUMP JUMPDEST PUSH1 0x40 MLOAD DUP1 SWAP2 SUB SWAP1 LOG1 STOP JUMPDEST PUSH0 DUP1 REVERT JUMPDEST CALLVALUE DUP1 ISZERO PUSH2 0x9A JUMPI PUSH0 DUP1 REVERT JUMPDEST POP PUSH2 0xA3 PUSH2 0x163 JUMP JUMPDEST PUSH1 0x40 MLOAD PUSH2 0xB0 SWAP2 SWAP1 PUSH2 0x674 JUMP JUMPDEST PUSH1 0x40 MLOAD DUP1 SWAP2 SUB SWAP1 RETURN JUMPDEST CALLVALUE DUP1 ISZERO PUSH2 0xC4 JUMPI PUSH0 DUP1 REVERT JUMPDEST POP PUSH2 0xDF PUSH1 0x4 DUP1 CALLDATASIZE SUB DUP2 ADD SWAP1 PUSH2 0xDA SWAP2 SWAP1 PUSH2 0x6CC JUMP JUMPDEST PUSH2 0x16A JUMP JUMPDEST PUSH1 0x40 MLOAD PUSH2 0xEC SWAP2 SWAP1 PUSH2 0x711 JUMP JUMPDEST PUSH1 0x40 MLOAD DUP1 SWAP2 SUB SWAP1 RETURN JUMPDEST CALLVALUE DUP1 ISZERO PUSH2 0x100 JUMPI PUSH0 DUP1 REVERT JUMPDEST POP PUSH2 0x11B PUSH1 0x4 DUP1 CALLDATASIZE SUB DUP2 ADD SWAP1 PUSH2 0x116 SWAP2 SWAP1 PUSH2 0x776 JUMP JUMPDEST PUSH2 0x2A7 JUMP JUMPDEST PUSH1 0x40 MLOAD PUSH2 0x128 SWAP2 SWAP1 PUSH2 0x711 JUMP JUMPDEST PUSH1 0x40 MLOAD DUP1 SWAP2 SUB SWAP1 RETURN JUMPDEST CALLVALUE DUP1 ISZERO PUSH2 0x13C JUMPI PUSH0 DUP1 REVERT JUMPDEST POP PUSH2 0x157 PUSH1 0x4 DUP1 CALLDATASIZE SUB DUP2 ADD SWAP1 PUSH2 0x152 SWAP2 SWAP1 PUSH2 0x7CB JUMP JUMPDEST PUSH2 0x5BB JUMP JUMPDEST STOP JUMPDEST PUSH2 0x161 PUSH2 0x602 JUMP JUMPDEST STOP JUMPDEST PUSH0 SELFBALANCE SWAP1 POP SWAP1 JUMP JUMPDEST PUSH0 DUP1 DUP3 PUSH20 0xFFFFFFFFFFFFFFFFFFFFFFFFFFFFFFFFFFFFFFFF AND PUSH1 0x40 MLOAD PUSH1 0x24 ADD PUSH1 0x40 MLOAD PUSH1 0x20 DUP2 DUP4 SUB SUB DUP2 MSTORE SWAP1 PUSH1 0x40 MSTORE PUSH32 0xF85396D700000000000000000000000000000000000000000000000000000000 PUSH28 0xFFFFFFFFFFFFFFFFFFFFFFFFFFFFFFFFFFFFFFFFFFFFFFFFFFFFFFFF NOT AND PUSH1 0x20 DUP3 ADD DUP1 MLOAD PUSH28 0xFFFFFFFFFFFFFFFFFFFFFFFFFFFFFFFFFFFFFFFFFFFFFFFFFFFFFFFF DUP4 DUP2 DUP4 AND OR DUP4 MSTORE POP POP POP POP PUSH1 0x40 MLOAD PUSH2 0x213 SWAP2 SWAP1 PUSH2 0x862 JUMP JUMPDEST PUSH0 PUSH1 0x40 MLOAD DUP1 DUP4 SUB DUP2 PUSH0 DUP7 GAS CALL SWAP2 POP POP RETURNDATASIZE DUP1 PUSH0 DUP2 EQ PUSH2 0x24C JUMPI PUSH1 0x40 MLOAD SWAP2 POP PUSH1 0x1F NOT PUSH1 0x3F RETURNDATASIZE ADD AND DUP3 ADD PUSH1 0x40 MSTORE RETURNDATASIZE DUP3 MSTORE RETURNDATASIZE PUSH0 PUSH1 0x20 DUP5 ADD RETURNDATACOPY PUSH2 0x251 JUMP JUMPDEST PUSH1 0x60 SWAP2 POP JUMPDEST POP POP SWAP1 POP DUP1 PUSH2 0x25E JUMPI PUSH0 DUP1 REVERT JUMPDEST PUSH0 DUP4 SWAP1 POP DUP1 PUSH20 0xFFFFFFFFFFFFFFFFFFFFFFFFFFFFFFFFFFFFFFFF AND PUSH2 0x8FC PUSH8 0x1BC16D674EC80000 SWAP1 DUP2 ISZERO MUL SWAP1 PUSH1 0x40 MLOAD PUSH0 PUSH1 0x40 MLOAD DUP1 DUP4 SUB DUP2 DUP6 DUP9 DUP9 CALL SWAP4 POP POP POP POP SWAP3 POP POP POP SWAP2 SWAP1 POP JUMP JUMPDEST PUSH0 DUP1 DUP3 PUSH20 0xFFFFFFFFFFFFFFFFFFFFFFFFFFFFFFFFFFFFFFFF AND PUSH1 0x40 MLOAD PUSH1 0x24 ADD PUSH1 0x40 MLOAD PUSH1 0x20 DUP2 DUP4 SUB SUB DUP2 MSTORE SWAP1 PUSH1 0x40 MSTORE PUSH32 0xF85396D700000000000000000000000000000000000000000000000000000000 PUSH28 0xFFFFFFFFFFFFFFFFFFFFFFFFFFFFFFFFFFFFFFFFFFFFFFFFFFFFFFFF NOT AND PUSH1 0x20 DUP3 ADD DUP1 MLOAD PUSH28 0xFFFFFFFFFFFFFFFFFFFFFFFFFFFFFFFFFFFFFFFFFFFFFFFFFFFFFFFF DUP4 DUP2 DUP4 AND OR DUP4 MSTORE POP POP POP POP PUSH1 0x40 MLOAD PUSH2 0x350 SWAP2 SWAP1 PUSH2 0x862 JUMP JUMPDEST PUSH0 PUSH1 0x40 MLOAD DUP1 DUP4 SUB DUP2 PUSH0 DUP7 GAS CALL SWAP2 POP POP RETURNDATASIZE DUP1 PUSH0 DUP2 EQ PUSH2 0x389 JUMPI PUSH1 0x40 MLOAD SWAP2 POP PUSH1 0x1F NOT PUSH1 0x3F RETURNDATASIZE ADD AND DUP3 ADD PUSH1 0x40 MSTORE RETURNDATASIZE DUP3 MSTORE RETURNDATASIZE PUSH0 PUSH1 0x20 DUP5 ADD RETURNDATACOPY PUSH2 0x38E JUMP JUMPDEST PUSH1 0x60 SWAP2 POP JUMPDEST POP POP SWAP1 POP PUSH32 0x7C990052FF7017DB6DA0C658C0FE7BE85F832D1995D7C93F87BF7FD4F8FA711D PUSH1 0x40 MLOAD PUSH2 0x3BF SWAP1 PUSH2 0x8D2 JUMP JUMPDEST PUSH1 0x40 MLOAD DUP1 SWAP2 SUB SWAP1 LOG1 DUP1 PUSH2 0x3D0 JUMPI PUSH0 DUP1 REVERT JUMPDEST DUP3 PUSH20 0xFFFFFFFFFFFFFFFFFFFFFFFFFFFFFFFFFFFFFFFF AND PUSH8 0xDE0B6B3A7640000 PUSH1 0x40 MLOAD PUSH1 0x24 ADD PUSH1 0x40 MLOAD PUSH1 0x20 DUP2 DUP4 SUB SUB DUP2 MSTORE SWAP1 PUSH1 0x40 MSTORE PUSH32 0xF85396D700000000000000000000000000000000000000000000000000000000 PUSH28 0xFFFFFFFFFFFFFFFFFFFFFFFFFFFFFFFFFFFFFFFFFFFFFFFFFFFFFFFF NOT AND PUSH1 0x20 DUP3 ADD DUP1 MLOAD PUSH28 0xFFFFFFFFFFFFFFFFFFFFFFFFFFFFFFFFFFFFFFFFFFFFFFFFFFFFFFFF DUP4 DUP2 DUP4 AND OR DUP4 MSTORE POP POP POP POP PUSH1 0x40 MLOAD PUSH2 0x480 SWAP2 SWAP1 PUSH2 0x862 JUMP JUMPDEST PUSH0 PUSH1 0x40 MLOAD DUP1 DUP4 SUB DUP2 DUP6 DUP8 GAS CALL SWAP3 POP POP POP RETURNDATASIZE DUP1 PUSH0 DUP2 EQ PUSH2 0x4BA JUMPI PUSH1 0x40 MLOAD SWAP2 POP PUSH1 0x1F NOT PUSH1 0x3F RETURNDATASIZE ADD AND DUP3 ADD PUSH1 0x40 MSTORE RETURNDATASIZE DUP3 MSTORE RETURNDATASIZE PUSH0 PUSH1 0x20 DUP5 ADD RETURNDATACOPY PUSH2 0x4BF JUMP JUMPDEST PUSH1 0x60 SWAP2 POP JUMPDEST POP POP DUP1 SWAP2 POP POP PUSH32 0x7C990052FF7017DB6DA0C658C0FE7BE85F832D1995D7C93F87BF7FD4F8FA711D PUSH1 0x40 MLOAD PUSH2 0x4F2 SWAP1 PUSH2 0x93A JUMP JUMPDEST PUSH1 0x40 MLOAD DUP1 SWAP2 SUB SWAP1 LOG1 DUP1 PUSH2 0x503 JUMPI PUSH0 DUP1 REVERT JUMPDEST DUP3 PUSH20 0xFFFFFFFFFFFFFFFFFFFFFFFFFFFFFFFFFFFFFFFF AND PUSH8 0x1BC16D674EC80000 PUSH1 0x40 MLOAD PUSH2 0x52F SWAP1 PUSH2 0x97B JUMP JUMPDEST PUSH0 PUSH1 0x40 MLOAD DUP1 DUP4 SUB DUP2 DUP6 DUP8 GAS CALL SWAP3 POP POP POP RETURNDATASIZE DUP1 PUSH0 DUP2 EQ PUSH2 0x569 JUMPI PUSH1 0x40 MLOAD SWAP2 POP PUSH1 0x1F NOT PUSH1 0x3F RETURNDATASIZE ADD AND DUP3 ADD PUSH1 0x40 MSTORE RETURNDATASIZE DUP3 MSTORE RETURNDATASIZE PUSH0 PUSH1 0x20 DUP5 ADD RETURNDATACOPY PUSH2 0x56E JUMP JUMPDEST PUSH1 0x60 SWAP2 POP JUMPDEST POP POP DUP1 SWAP2 POP POP PUSH32 0x7C990052FF7017DB6DA0C658C0FE7BE85F832D1995D7C93F87BF7FD4F8FA711D PUSH1 0x40 MLOAD PUSH2 0x5A1 SWAP1 PUSH2 0x9D9 JUMP JUMPDEST PUSH1 0x40 MLOAD DUP1 SWAP2 SUB SWAP1 LOG1 DUP1 PUSH2 0x5B2 JUMPI PUSH0 DUP1 REVERT JUMPDEST DUP1 SWAP2 POP POP SWAP2 SWAP1 POP JUMP JUMPDEST ADDRESS PUSH20 0xFFFFFFFFFFFFFFFFFFFFFFFFFFFFFFFFFFFFFFFF AND PUSH2 0x8FC DUP3 SWAP1 DUP2 ISZERO MUL SWAP1 PUSH1 0x40 MLOAD PUSH0 PUSH1 0x40 MLOAD DUP1 DUP4 SUB DUP2 DUP6 DUP9 DUP9 CALL SWAP4 POP POP POP POP ISZERO DUP1 ISZERO PUSH2 0x5FE JUMPI RETURNDATASIZE PUSH0 DUP1 RETURNDATACOPY RETURNDATASIZE PUSH0 REVERT JUMPDEST POP POP JUMP JUMPDEST JUMP JUMPDEST PUSH0 PUSH20 0xFFFFFFFFFFFFFFFFFFFFFFFFFFFFFFFFFFFFFFFF DUP3 AND SWAP1 POP SWAP2 SWAP1 POP JUMP JUMPDEST PUSH0 PUSH2 0x62D DUP3 PUSH2 0x604 JUMP JUMPDEST SWAP1 POP SWAP2 SWAP1 POP JUMP JUMPDEST PUSH2 0x63D DUP2 PUSH2 0x623 JUMP JUMPDEST DUP3 MSTORE POP POP JUMP JUMPDEST PUSH0 PUSH1 0x20 DUP3 ADD SWAP1 POP PUSH2 0x656 PUSH0 DUP4 ADD DUP5 PUSH2 0x634 JUMP JUMPDEST SWAP3 SWAP2 POP POP JUMP JUMPDEST PUSH0 DUP2 SWAP1 POP SWAP2 SWAP1 POP JUMP JUMPDEST PUSH2 0x66E DUP2 PUSH2 0x65C JUMP JUMPDEST DUP3 MSTORE POP POP JUMP JUMPDEST PUSH0 PUSH1 0x20 DUP3 ADD SWAP1 POP PUSH2 0x687 PUSH0 DUP4 ADD DUP5 PUSH2 0x665 JUMP JUMPDEST SWAP3 SWAP2 POP POP JUMP JUMPDEST PUSH0 DUP1 REVERT JUMPDEST PUSH0 PUSH2 0x69B DUP3 PUSH2 0x623 JUMP JUMPDEST SWAP1 POP SWAP2 SWAP1 POP JUMP JUMPDEST PUSH2 0x6AB DUP2 PUSH2 0x691 JUMP JUMPDEST DUP2 EQ PUSH2 0x6B5 JUMPI PUSH0 DUP1 REVERT JUMPDEST POP JUMP JUMPDEST PUSH0 DUP2 CALLDATALOAD SWAP1 POP PUSH2 0x6C6 DUP2 PUSH2 0x6A2 JUMP JUMPDEST SWAP3 SWAP2 POP POP JUMP JUMPDEST PUSH0 PUSH1 0x20 DUP3 DUP5 SUB SLT ISZERO PUSH2 0x6E1 JUMPI PUSH2 0x6E0 PUSH2 0x68D JUMP JUMPDEST JUMPDEST PUSH0 PUSH2 0x6EE DUP5 DUP3 DUP6 ADD PUSH2 0x6B8 JUMP JUMPDEST SWAP2 POP POP SWAP3 SWAP2 POP POP JUMP JUMPDEST PUSH0 DUP2 ISZERO ISZERO SWAP1 POP SWAP2 SWAP1 POP JUMP JUMPDEST PUSH2 0x70B DUP2 PUSH2 0x6F7 JUMP JUMPDEST DUP3 MSTORE POP POP JUMP JUMPDEST PUSH0 PUSH1 0x20 DUP3 ADD SWAP1 POP PUSH2 0x724 PUSH0 DUP4 ADD DUP5 PUSH2 0x702 JUMP JUMPDEST SWAP3 SWAP2 POP POP JUMP JUMPDEST PUSH0 PUSH2 0x734 DUP3 PUSH2 0x604 JUMP JUMPDEST SWAP1 POP SWAP2 SWAP1 POP JUMP JUMPDEST PUSH0 PUSH2 0x745 DUP3 PUSH2 0x72A JUMP JUMPDEST SWAP1 POP SWAP2 SWAP1 POP JUMP JUMPDEST PUSH2 0x755 DUP2 PUSH2 0x73B JUMP JUMPDEST DUP2 EQ PUSH2 0x75F JUMPI PUSH0 DUP1 REVERT JUMPDEST POP JUMP JUMPDEST PUSH0 DUP2 CALLDATALOAD SWAP1 POP PUSH2 0x770 DUP2 PUSH2 0x74C JUMP JUMPDEST SWAP3 SWAP2 POP POP JUMP JUMPDEST PUSH0 PUSH1 0x20 DUP3 DUP5 SUB SLT ISZERO PUSH2 0x78B JUMPI PUSH2 0x78A PUSH2 0x68D JUMP JUMPDEST JUMPDEST PUSH0 PUSH2 0x798 DUP5 DUP3 DUP6 ADD PUSH2 0x762 JUMP JUMPDEST SWAP2 POP POP SWAP3 SWAP2 POP POP JUMP JUMPDEST PUSH2 0x7AA DUP2 PUSH2 0x65C JUMP JUMPDEST DUP2 EQ PUSH2 0x7B4 JUMPI PUSH0 DUP1 REVERT JUMPDEST POP JUMP JUMPDEST PUSH0 DUP2 CALLDATALOAD SWAP1 POP PUSH2 0x7C5 DUP2 PUSH2 0x7A1 JUMP JUMPDEST SWAP3 SWAP2 POP POP JUMP JUMPDEST PUSH0 PUSH1 0x20 DUP3 DUP5 SUB SLT ISZERO PUSH2 0x7E0 JUMPI PUSH2 0x7DF PUSH2 0x68D JUMP JUMPDEST JUMPDEST PUSH0 PUSH2 0x7ED DUP5 DUP3 DUP6 ADD PUSH2 0x7B7 JUMP JUMPDEST SWAP2 POP POP SWAP3 SWAP2 POP POP JUMP JUMPDEST PUSH0 DUP2 MLOAD SWAP1 POP SWAP2 SWAP1 POP JUMP JUMPDEST PUSH0 DUP2 SWAP1 POP SWAP3 SWAP2 POP POP JUMP JUMPDEST PUSH0 JUMPDEST DUP4 DUP2 LT ISZERO PUSH2 0x827 JUMPI DUP1 DUP3 ADD MLOAD DUP2 DUP5 ADD MSTORE PUSH1 0x20 DUP2 ADD SWAP1 POP PUSH2 0x80C JUMP JUMPDEST PUSH0 DUP5 DUP5 ADD MSTORE POP POP POP POP JUMP JUMPDEST PUSH0 PUSH2 0x83C DUP3 PUSH2 0x7F6 JUMP JUMPDEST PUSH2 0x846 DUP2 DUP6 PUSH2 0x800 JUMP JUMPDEST SWAP4 POP PUSH2 0x856 DUP2 DUP6 PUSH1 0x20 DUP7 ADD PUSH2 0x80A JUMP JUMPDEST DUP1 DUP5 ADD SWAP2 POP POP SWAP3 SWAP2 POP POP JUMP JUMPDEST PUSH0 PUSH2 0x86D DUP3 DUP5 PUSH2 0x832 JUMP JUMPDEST SWAP2 POP DUP2 SWAP1 POP SWAP3 SWAP2 POP POP JUMP JUMPDEST PUSH0 DUP3 DUP3 MSTORE PUSH1 0x20 DUP3 ADD SWAP1 POP SWAP3 SWAP2 POP POP JUMP JUMPDEST PUSH32 0x7374657020310000000000000000000000000000000000000000000000000000 PUSH0 DUP3 ADD MSTORE POP JUMP JUMPDEST PUSH0 PUSH2 0x8BC PUSH1 0x6 DUP4 PUSH2 0x878 JUMP JUMPDEST SWAP2 POP PUSH2 0x8C7 DUP3 PUSH2 0x888 JUMP JUMPDEST PUSH1 0x20 DUP3 ADD SWAP1 POP SWAP2 SWAP1 POP JUMP JUMPDEST PUSH0 PUSH1 0x20 DUP3 ADD SWAP1 POP DUP2 DUP2 SUB PUSH0 DUP4 ADD MSTORE PUSH2 0x8E9 DUP2 PUSH2 0x8B0 JUMP JUMPDEST SWAP1 POP SWAP2 SWAP1 POP JUMP JUMPDEST PUSH32 0x7374657020320000000000000000000000000000000000000000000000000000 PUSH0 DUP3 ADD MSTORE POP JUMP JUMPDEST PUSH0 PUSH2 0x924 PUSH1 0x6 DUP4 PUSH2 0x878 JUMP JUMPDEST SWAP2 POP PUSH2 0x92F DUP3 PUSH2 0x8F0 JUMP JUMPDEST PUSH1 0x20 DUP3 ADD SWAP1 POP SWAP2 SWAP1 POP JUMP JUMPDEST PUSH0 PUSH1 0x20 DUP3 ADD SWAP1 POP DUP2 DUP2 SUB PUSH0 DUP4 ADD MSTORE PUSH2 0x951 DUP2 PUSH2 0x918 JUMP JUMPDEST SWAP1 POP SWAP2 SWAP1 POP JUMP JUMPDEST POP JUMP JUMPDEST PUSH0 PUSH2 0x966 PUSH0 DUP4 PUSH2 0x800 JUMP JUMPDEST SWAP2 POP PUSH2 0x971 DUP3 PUSH2 0x958 JUMP JUMPDEST PUSH0 DUP3 ADD SWAP1 POP SWAP2 SWAP1 POP JUMP JUMPDEST PUSH0 PUSH2 0x985 DUP3 PUSH2 0x95B JUMP JUMPDEST SWAP2 POP DUP2 SWAP1 POP SWAP2 SWAP1 POP JUMP JUMPDEST PUSH32 0x7374657020330000000000000000000000000000000000000000000000000000 PUSH0 DUP3 ADD MSTORE POP JUMP JUMPDEST PUSH0 PUSH2 0x9C3 PUSH1 0x6 DUP4 PUSH2 0x878 JUMP JUMPDEST SWAP2 POP PUSH2 0x9CE DUP3 PUSH2 0x98F JUMP JUMPDEST PUSH1 0x20 DUP3 ADD SWAP1 POP SWAP2 SWAP1 POP JUMP JUMPDEST PUSH0 PUSH1 0x20 DUP3 ADD SWAP1 POP DUP2 DUP2 SUB PUSH0 DUP4 ADD MSTORE PUSH2 0x9F0 DUP2 PUSH2 0x9B7 JUMP JUMPDEST SWAP1 POP SWAP2 SWAP1 POP JUMP INVALID LOG2 PUSH5 0x6970667358 0x22 SLT KECCAK256 0xB4 0xD PUSH4 0xCB15B855 ISZERO SWAP2 0x4F 0xBD DUP4 0x2D 0xC9 CREATE 0xE5 CHAINID MSTORE8 PUSH18 0x72275D5B89D6B84E46A39D71D664736F6C63 NUMBER STOP ADDMOD ISZERO STOP CALLER "
				},
				"gasEstimates": {
					"creation": {
						"codeDepositCost": "521000",
						"executionCost": "554",
						"totalCost": "521554"
					},
					"external": {
						"callTest(address)": "infinite",
						"callTestPayable(address)": "infinite",
						"deposit()": "185",
						"getBalance()": "312",
						"transferThis(uint256)": "infinite"
					}
				},
				"methodIdentifiers": {
					"callTest(address)": "32eb12f1",
					"callTestPayable(address)": "979709e5",
					"deposit()": "d0e30db0",
					"getBalance()": "12065fe0",
					"transferThis(uint256)": "d0ba41d6"
				}
			},
			"storageLayout": {
				"storage": [],
				"types": null
			},
			"userdoc": {
				"kind": "user",
				"methods": {},
				"version": 1
			}
		}
	}
}