{
	"contract-variableScope.sol": {
		"C": {
			"abi": [
				{
					"inputs": [],
					"name": "f",
					"outputs": [
						{
							"internalType": "uint256",
							"name": "",
							"type": "uint256"
						}
					],
					"stateMutability": "pure",
					"type": "function"
				},
				{
					"inputs": [],
					"name": "minimalScoping",
					"outputs": [],
					"stateMutability": "pure",
					"type": "function"
				}
			],
			"devdoc": {
				"kind": "dev",
				"methods": {},
				"version": 1
			},
			"evm": {
				"assembly": "    /* \"contract-variableScope.sol\":68:788  contract C {... */\n  mstore(0x40, 0x80)\n  callvalue\n  dup1\n  iszero\n  tag_1\n  jumpi\n  0x00\n  dup1\n  revert\ntag_1:\n  pop\n  dataSize(sub_0)\n  dup1\n  dataOffset(sub_0)\n  0x00\n  codecopy\n  0x00\n  return\nstop\n\nsub_0: assembly {\n        /* \"contract-variableScope.sol\":68:788  contract C {... */\n      mstore(0x40, 0x80)\n      callvalue\n      dup1\n      iszero\n      tag_1\n      jumpi\n      0x00\n      dup1\n      revert\n    tag_1:\n      pop\n      jumpi(tag_2, lt(calldatasize, 0x04))\n      shr(0xe0, calldataload(0x00))\n      dup1\n      0x26121ff0\n      eq\n      tag_3\n      jumpi\n      dup1\n      0x5288d07f\n      eq\n      tag_4\n      jumpi\n    tag_2:\n      0x00\n      dup1\n      revert\n        /* \"contract-variableScope.sol\":583:786  function f() pure public returns (uint) {... */\n    tag_3:\n      tag_5\n      tag_6\n      jump\t// in\n    tag_5:\n      mload(0x40)\n      tag_7\n      swap2\n      swap1\n      tag_8\n      jump\t// in\n    tag_7:\n      mload(0x40)\n      dup1\n      swap2\n      sub\n      swap1\n      return\n        /* \"contract-variableScope.sol\":213:389  function minimalScoping() pure public {... */\n    tag_4:\n      tag_9\n      tag_10\n      jump\t// in\n    tag_9:\n      stop\n        /* \"contract-variableScope.sol\":583:786  function f() pure public returns (uint) {... */\n    tag_6:\n        /* \"contract-variableScope.sol\":617:621  uint */\n      0x00\n        /* \"contract-variableScope.sol\":633:639  uint x */\n      dup1\n        /* \"contract-variableScope.sol\":642:643  1 */\n      0x01\n        /* \"contract-variableScope.sol\":633:643  uint x = 1 */\n      swap1\n      pop\n        /* \"contract-variableScope.sol\":671:672  2 */\n      0x02\n        /* \"contract-variableScope.sol\":667:672  x = 2 */\n      swap1\n      pop\n        /* \"contract-variableScope.sol\":761:762  x */\n      dup1\n        /* \"contract-variableScope.sol\":754:762  return x */\n      swap2\n      pop\n      pop\n        /* \"contract-variableScope.sol\":583:786  function f() pure public returns (uint) {... */\n      swap1\n      jump\t// out\n        /* \"contract-variableScope.sol\":213:389  function minimalScoping() pure public {... */\n    tag_10:\n        /* \"contract-variableScope.sol\":275:284  uint same */\n      0x00\n        /* \"contract-variableScope.sol\":305:306  1 */\n      0x01\n        /* \"contract-variableScope.sol\":298:306  same = 1 */\n      swap1\n      pop\n        /* \"contract-variableScope.sol\":261:317  {... */\n      pop\n        /* \"contract-variableScope.sol\":341:350  uint same */\n      0x00\n        /* \"contract-variableScope.sol\":371:372  3 */\n      0x03\n        /* \"contract-variableScope.sol\":364:372  same = 3 */\n      swap1\n      pop\n        /* \"contract-variableScope.sol\":327:383  {... */\n      pop\n        /* \"contract-variableScope.sol\":213:389  function minimalScoping() pure public {... */\n      jump\t// out\n        /* \"#utility.yul\":7:84   */\n    tag_13:\n        /* \"#utility.yul\":44:51   */\n      0x00\n        /* \"#utility.yul\":73:78   */\n      dup2\n        /* \"#utility.yul\":62:78   */\n      swap1\n      pop\n        /* \"#utility.yul\":7:84   */\n      swap2\n      swap1\n      pop\n      jump\t// out\n        /* \"#utility.yul\":90:208   */\n    tag_14:\n        /* \"#utility.yul\":177:201   */\n      tag_18\n        /* \"#utility.yul\":195:200   */\n      dup2\n        /* \"#utility.yul\":177:201   */\n      tag_13\n      jump\t// in\n    tag_18:\n        /* \"#utility.yul\":172:175   */\n      dup3\n        /* \"#utility.yul\":165:202   */\n      mstore\n        /* \"#utility.yul\":90:208   */\n      pop\n      pop\n      jump\t// out\n        /* \"#utility.yul\":214:436   */\n    tag_8:\n        /* \"#utility.yul\":307:311   */\n      0x00\n        /* \"#utility.yul\":345:347   */\n      0x20\n        /* \"#utility.yul\":334:343   */\n      dup3\n        /* \"#utility.yul\":330:348   */\n      add\n        /* \"#utility.yul\":322:348   */\n      swap1\n      pop\n        /* \"#utility.yul\":358:429   */\n      tag_20\n        /* \"#utility.yul\":426:427   */\n      0x00\n        /* \"#utility.yul\":415:424   */\n      dup4\n        /* \"#utility.yul\":411:428   */\n      add\n        /* \"#utility.yul\":402:408   */\n      dup5\n        /* \"#utility.yul\":358:429   */\n      tag_14\n      jump\t// in\n    tag_20:\n        /* \"#utility.yul\":214:436   */\n      swap3\n      swap2\n      pop\n      pop\n      jump\t// out\n\n    auxdata: 0xa26469706673582212209c6aa0ec4dcf3f6ade9d162da846904099383f4584e2f864c3f457c2790e746464736f6c63430008120033\n}\n",
				"bytecode": {
					"linkReferences": {},
					"object": "608060405234801561001057600080fd5b5060e18061001f6000396000f3fe6080604052348015600f57600080fd5b506004361060325760003560e01c806326121ff01460375780635288d07f146051575b600080fd5b603d6059565b604051604891906092565b60405180910390f35b6057606b565b005b60008060019050600290508091505090565b6000600190505060006003905050565b6000819050919050565b608c81607b565b82525050565b600060208201905060a560008301846085565b9291505056fea26469706673582212209c6aa0ec4dcf3f6ade9d162da846904099383f4584e2f864c3f457c2790e746464736f6c63430008120033",
					"opcodes": "PUSH1 0x80 PUSH1 0x40 MSTORE CALLVALUE DUP1 ISZERO PUSH2 0x10 JUMPI PUSH1 0x0 DUP1 REVERT JUMPDEST POP PUSH1 0xE1 DUP1 PUSH2 0x1F PUSH1 0x0 CODECOPY PUSH1 0x0 RETURN INVALID PUSH1 0x80 PUSH1 0x40 MSTORE CALLVALUE DUP1 ISZERO PUSH1 0xF JUMPI PUSH1 0x0 DUP1 REVERT JUMPDEST POP PUSH1 0x4 CALLDATASIZE LT PUSH1 0x32 JUMPI PUSH1 0x0 CALLDATALOAD PUSH1 0xE0 SHR DUP1 PUSH4 0x26121FF0 EQ PUSH1 0x37 JUMPI DUP1 PUSH4 0x5288D07F EQ PUSH1 0x51 JUMPI JUMPDEST PUSH1 0x0 DUP1 REVERT JUMPDEST PUSH1 0x3D PUSH1 0x59 JUMP JUMPDEST PUSH1 0x40 MLOAD PUSH1 0x48 SWAP2 SWAP1 PUSH1 0x92 JUMP JUMPDEST PUSH1 0x40 MLOAD DUP1 SWAP2 SUB SWAP1 RETURN JUMPDEST PUSH1 0x57 PUSH1 0x6B JUMP JUMPDEST STOP JUMPDEST PUSH1 0x0 DUP1 PUSH1 0x1 SWAP1 POP PUSH1 0x2 SWAP1 POP DUP1 SWAP2 POP POP SWAP1 JUMP JUMPDEST PUSH1 0x0 PUSH1 0x1 SWAP1 POP POP PUSH1 0x0 PUSH1 0x3 SWAP1 POP POP JUMP JUMPDEST PUSH1 0x0 DUP2 SWAP1 POP SWAP2 SWAP1 POP JUMP JUMPDEST PUSH1 0x8C DUP2 PUSH1 0x7B JUMP JUMPDEST DUP3 MSTORE POP POP JUMP JUMPDEST PUSH1 0x0 PUSH1 0x20 DUP3 ADD SWAP1 POP PUSH1 0xA5 PUSH1 0x0 DUP4 ADD DUP5 PUSH1 0x85 JUMP JUMPDEST SWAP3 SWAP2 POP POP JUMP INVALID LOG2 PUSH5 0x6970667358 0x22 SLT KECCAK256 SWAP13 PUSH11 0xA0EC4DCF3F6ADE9D162DA8 CHAINID SWAP1 BLOCKHASH SWAP10 CODESIZE EXTCODEHASH GASLIMIT DUP5 0xE2 0xF8 PUSH5 0xC3F457C279 0xE PUSH21 0x6464736F6C63430008120033000000000000000000 "
				},
				"gasEstimates": {
					"creation": {
						"codeDepositCost": "45000",
						"executionCost": "99",
						"totalCost": "45099"
					},
					"external": {
						"f()": "336",
						"minimalScoping()": "170"
					}
				},
				"methodIdentifiers": {
					"f()": "26121ff0",
					"minimalScoping()": "5288d07f"
				}
			},
			"storageLayout": {
				"storage": [],
				"types": null
			},
			"userdoc": {
				"kind": "user",
				"methods": {},
				"version": 1
			}
		}
	}
}