{
	"contract-b05892aaa2.sol": {
		"VectorSum": {
			"abi": [
				{
					"inputs": [
						{
							"internalType": "uint256[]",
							"name": "data",
							"type": "uint256[]"
						}
					],
					"name": "sumAsm",
					"outputs": [
						{
							"internalType": "uint256",
							"name": "sum",
							"type": "uint256"
						}
					],
					"stateMutability": "pure",
					"type": "function"
				},
				{
					"inputs": [
						{
							"internalType": "uint256[]",
							"name": "data",
							"type": "uint256[]"
						}
					],
					"name": "sumPureAsm",
					"outputs": [
						{
							"internalType": "uint256",
							"name": "sum",
							"type": "uint256"
						}
					],
					"stateMutability": "pure",
					"type": "function"
				},
				{
					"inputs": [
						{
							"internalType": "uint256[]",
							"name": "data",
							"type": "uint256[]"
						}
					],
					"name": "sumSolidity",
					"outputs": [
						{
							"internalType": "uint256",
							"name": "sum",
							"type": "uint256"
						}
					],
					"stateMutability": "pure",
					"type": "function"
				}
			],
			"devdoc": {
				"kind": "dev",
				"methods": {},
				"version": 1
			},
			"evm": {
				"assembly": "    /* \"contract-b05892aaa2.sol\":71:1877  library VectorSum {... */\n  dataSize(sub_0)\n  dataOffset(sub_0)\n  0x0b\n  dup3\n  dup3\n  dup3\n  codecopy\n  dup1\n  mload\n  0x00\n  byte\n  0x73\n  eq\n  tag_1\n  jumpi\n  mstore(0x00, 0x4e487b7100000000000000000000000000000000000000000000000000000000)\n  mstore(0x04, 0x00)\n  revert(0x00, 0x24)\ntag_1:\n  mstore(0x00, address)\n  0x73\n  dup2\n  mstore8\n  dup3\n  dup2\n  return\nstop\n\nsub_0: assembly {\n        /* \"contract-b05892aaa2.sol\":71:1877  library VectorSum {... */\n      eq(address, deployTimeAddress())\n      mstore(0x40, 0x80)\n      jumpi(tag_1, lt(calldatasize, 0x04))\n      shr(0xe0, calldataload(0x00))\n      dup1\n      0x4d36b7a4\n      eq\n      tag_2\n      jumpi\n      dup1\n      0x4d83e197\n      eq\n      tag_3\n      jumpi\n      dup1\n      0xd62c425d\n      eq\n      tag_4\n      jumpi\n    tag_1:\n      0x00\n      dup1\n      revert\n        /* \"contract-b05892aaa2.sol\":679:924  function sumAsm(uint[] memory data) public pure returns (uint sum) {... */\n    tag_2:\n      tag_5\n      0x04\n      dup1\n      calldatasize\n      sub\n      dup2\n      add\n      swap1\n      tag_6\n      swap2\n      swap1\n      tag_7\n      jump\t// in\n    tag_6:\n      tag_8\n      jump\t// in\n    tag_5:\n      mload(0x40)\n      tag_9\n      swap2\n      swap1\n      tag_10\n      jump\t// in\n    tag_9:\n      mload(0x40)\n      dup1\n      swap2\n      sub\n      swap1\n      return\n        /* \"contract-b05892aaa2.sol\":224:378  function sumSolidity(uint[] memory data) public pure returns (uint sum) {... */\n    tag_3:\n      tag_11\n      0x04\n      dup1\n      calldatasize\n      sub\n      dup2\n      add\n      swap1\n      tag_12\n      swap2\n      swap1\n      tag_7\n      jump\t// in\n    tag_12:\n      tag_13\n      jump\t// in\n    tag_11:\n      mload(0x40)\n      tag_14\n      swap2\n      swap1\n      tag_10\n      jump\t// in\n    tag_14:\n      mload(0x40)\n      dup1\n      swap2\n      sub\n      swap1\n      return\n        /* \"contract-b05892aaa2.sol\":1007:1875  function sumPureAsm(uint[] memory data) public pure returns (uint sum) {... */\n    tag_4:\n      tag_15\n      0x04\n      dup1\n      calldatasize\n      sub\n      dup2\n      add\n      swap1\n      tag_16\n      swap2\n      swap1\n      tag_7\n      jump\t// in\n    tag_16:\n      tag_17\n      jump\t// in\n    tag_15:\n      mload(0x40)\n      tag_18\n      swap2\n      swap1\n      tag_10\n      jump\t// in\n    tag_18:\n      mload(0x40)\n      dup1\n      swap2\n      sub\n      swap1\n      return\n        /* \"contract-b05892aaa2.sol\":679:924  function sumAsm(uint[] memory data) public pure returns (uint sum) {... */\n    tag_8:\n        /* \"contract-b05892aaa2.sol\":736:744  uint sum */\n      0x00\n        /* \"contract-b05892aaa2.sol\":761:767  uint i */\n      dup1\n        /* \"contract-b05892aaa2.sol\":770:771  0 */\n      0x00\n        /* \"contract-b05892aaa2.sol\":761:771  uint i = 0 */\n      swap1\n      pop\n        /* \"contract-b05892aaa2.sol\":756:918  for (uint i = 0; i < data.length; ++i) {... */\n    tag_20:\n        /* \"contract-b05892aaa2.sol\":777:781  data */\n      dup3\n        /* \"contract-b05892aaa2.sol\":777:788  data.length */\n      mload\n        /* \"contract-b05892aaa2.sol\":773:774  i */\n      dup2\n        /* \"contract-b05892aaa2.sol\":773:788  i < data.length */\n      lt\n        /* \"contract-b05892aaa2.sol\":756:918  for (uint i = 0; i < data.length; ++i) {... */\n      iszero\n      tag_21\n      jumpi\n        /* \"contract-b05892aaa2.sol\":886:890  0x20 */\n      0x20\n        /* \"contract-b05892aaa2.sol\":883:884  i */\n      dup2\n        /* \"contract-b05892aaa2.sol\":879:891  mul(i, 0x20) */\n      mul\n        /* \"contract-b05892aaa2.sol\":872:876  0x20 */\n      0x20\n        /* \"contract-b05892aaa2.sol\":866:870  data */\n      dup5\n        /* \"contract-b05892aaa2.sol\":862:877  add(data, 0x20) */\n      add\n        /* \"contract-b05892aaa2.sol\":858:892  add(add(data, 0x20), mul(i, 0x20)) */\n      add\n        /* \"contract-b05892aaa2.sol\":852:893  mload(add(add(data, 0x20), mul(i, 0x20))) */\n      mload\n        /* \"contract-b05892aaa2.sol\":847:850  sum */\n      dup3\n        /* \"contract-b05892aaa2.sol\":843:894  add(sum, mload(add(add(data, 0x20), mul(i, 0x20)))) */\n      add\n        /* \"contract-b05892aaa2.sol\":836:894  sum := add(sum, mload(add(add(data, 0x20), mul(i, 0x20)))) */\n      swap2\n      pop\n        /* \"contract-b05892aaa2.sol\":790:793  ++i */\n      dup1\n      tag_23\n      swap1\n      tag_24\n      jump\t// in\n    tag_23:\n      swap1\n      pop\n        /* \"contract-b05892aaa2.sol\":756:918  for (uint i = 0; i < data.length; ++i) {... */\n      jump(tag_20)\n    tag_21:\n      pop\n        /* \"contract-b05892aaa2.sol\":679:924  function sumAsm(uint[] memory data) public pure returns (uint sum) {... */\n      swap2\n      swap1\n      pop\n      jump\t// out\n        /* \"contract-b05892aaa2.sol\":224:378  function sumSolidity(uint[] memory data) public pure returns (uint sum) {... */\n    tag_13:\n        /* \"contract-b05892aaa2.sol\":286:294  uint sum */\n      0x00\n        /* \"contract-b05892aaa2.sol\":311:317  uint i */\n      dup1\n        /* \"contract-b05892aaa2.sol\":320:321  0 */\n      0x00\n        /* \"contract-b05892aaa2.sol\":311:321  uint i = 0 */\n      swap1\n      pop\n        /* \"contract-b05892aaa2.sol\":306:371  for (uint i = 0; i < data.length; ++i)... */\n    tag_26:\n        /* \"contract-b05892aaa2.sol\":327:331  data */\n      dup3\n        /* \"contract-b05892aaa2.sol\":327:338  data.length */\n      mload\n        /* \"contract-b05892aaa2.sol\":323:324  i */\n      dup2\n        /* \"contract-b05892aaa2.sol\":323:338  i < data.length */\n      lt\n        /* \"contract-b05892aaa2.sol\":306:371  for (uint i = 0; i < data.length; ++i)... */\n      iszero\n      tag_27\n      jumpi\n        /* \"contract-b05892aaa2.sol\":364:368  data */\n      dup3\n        /* \"contract-b05892aaa2.sol\":369:370  i */\n      dup2\n        /* \"contract-b05892aaa2.sol\":364:371  data[i] */\n      dup2\n      mload\n      dup2\n      lt\n      tag_29\n      jumpi\n      tag_30\n      tag_31\n      jump\t// in\n    tag_30:\n    tag_29:\n      0x20\n      mul\n      0x20\n      add\n      add\n      mload\n        /* \"contract-b05892aaa2.sol\":357:371  sum += data[i] */\n      dup3\n      tag_32\n      swap2\n      swap1\n      tag_33\n      jump\t// in\n    tag_32:\n      swap2\n      pop\n        /* \"contract-b05892aaa2.sol\":340:343  ++i */\n      dup1\n      tag_34\n      swap1\n      tag_24\n      jump\t// in\n    tag_34:\n      swap1\n      pop\n        /* \"contract-b05892aaa2.sol\":306:371  for (uint i = 0; i < data.length; ++i)... */\n      jump(tag_26)\n    tag_27:\n      pop\n        /* \"contract-b05892aaa2.sol\":224:378  function sumSolidity(uint[] memory data) public pure returns (uint sum) {... */\n      swap2\n      swap1\n      pop\n      jump\t// out\n        /* \"contract-b05892aaa2.sol\":1007:1875  function sumPureAsm(uint[] memory data) public pure returns (uint sum) {... */\n    tag_17:\n        /* \"contract-b05892aaa2.sol\":1068:1076  uint sum */\n      0x00\n        /* \"contract-b05892aaa2.sol\":1176:1180  data */\n      dup2\n        /* \"contract-b05892aaa2.sol\":1170:1181  mload(data) */\n      mload\n        /* \"contract-b05892aaa2.sol\":1507:1511  0x20 */\n      0x20\n        /* \"contract-b05892aaa2.sol\":1501:1505  data */\n      dup4\n        /* \"contract-b05892aaa2.sol\":1497:1512  add(data, 0x20) */\n      add\n        /* \"contract-b05892aaa2.sol\":1644:1648  0x20 */\n      0x20\n        /* \"contract-b05892aaa2.sol\":1639:1642  len */\n      dup3\n        /* \"contract-b05892aaa2.sol\":1635:1649  mul(len, 0x20) */\n      mul\n        /* \"contract-b05892aaa2.sol\":1614:1633  dataElementLocation */\n      dup2\n        /* \"contract-b05892aaa2.sol\":1610:1650  add(dataElementLocation, mul(len, 0x20)) */\n      add\n        /* \"contract-b05892aaa2.sol\":1577:1859  for... */\n    tag_36:\n        /* \"contract-b05892aaa2.sol\":1693:1696  end */\n      dup1\n        /* \"contract-b05892aaa2.sol\":1672:1691  dataElementLocation */\n      dup3\n        /* \"contract-b05892aaa2.sol\":1669:1697  lt(dataElementLocation, end) */\n      lt\n        /* \"contract-b05892aaa2.sol\":1577:1859  for... */\n      iszero\n      tag_38\n      jumpi\n        /* \"contract-b05892aaa2.sol\":1824:1843  dataElementLocation */\n      dup2\n        /* \"contract-b05892aaa2.sol\":1818:1844  mload(dataElementLocation) */\n      mload\n        /* \"contract-b05892aaa2.sol\":1813:1816  sum */\n      dup5\n        /* \"contract-b05892aaa2.sol\":1809:1845  add(sum, mload(dataElementLocation)) */\n      add\n        /* \"contract-b05892aaa2.sol\":1802:1845  sum := add(sum, mload(dataElementLocation)) */\n      swap4\n      pop\n        /* \"contract-b05892aaa2.sol\":1764:1768  0x20 */\n      0x20\n        /* \"contract-b05892aaa2.sol\":1743:1762  dataElementLocation */\n      dup3\n        /* \"contract-b05892aaa2.sol\":1739:1769  add(dataElementLocation, 0x20) */\n      add\n        /* \"contract-b05892aaa2.sol\":1716:1769  dataElementLocation := add(dataElementLocation, 0x20) */\n      swap2\n      pop\n        /* \"contract-b05892aaa2.sol\":1577:1859  for... */\n      jump(tag_36)\n    tag_38:\n        /* \"contract-b05892aaa2.sol\":1597:1652  { let end := add(dataElementLocation, mul(len, 0x20)) } */\n      pop\n        /* \"contract-b05892aaa2.sol\":1097:1869  {... */\n      pop\n      pop\n        /* \"contract-b05892aaa2.sol\":1007:1875  function sumPureAsm(uint[] memory data) public pure returns (uint sum) {... */\n      swap2\n      swap1\n      pop\n      jump\t// out\n        /* \"#utility.yul\":7:82   */\n    tag_39:\n        /* \"#utility.yul\":40:46   */\n      0x00\n        /* \"#utility.yul\":73:75   */\n      0x40\n        /* \"#utility.yul\":67:76   */\n      mload\n        /* \"#utility.yul\":57:76   */\n      swap1\n      pop\n        /* \"#utility.yul\":7:82   */\n      swap1\n      jump\t// out\n        /* \"#utility.yul\":88:205   */\n    tag_40:\n        /* \"#utility.yul\":197:198   */\n      0x00\n        /* \"#utility.yul\":194:195   */\n      dup1\n        /* \"#utility.yul\":187:199   */\n      revert\n        /* \"#utility.yul\":211:328   */\n    tag_41:\n        /* \"#utility.yul\":320:321   */\n      0x00\n        /* \"#utility.yul\":317:318   */\n      dup1\n        /* \"#utility.yul\":310:322   */\n      revert\n        /* \"#utility.yul\":334:451   */\n    tag_42:\n        /* \"#utility.yul\":443:444   */\n      0x00\n        /* \"#utility.yul\":440:441   */\n      dup1\n        /* \"#utility.yul\":433:445   */\n      revert\n        /* \"#utility.yul\":457:559   */\n    tag_43:\n        /* \"#utility.yul\":498:504   */\n      0x00\n        /* \"#utility.yul\":549:551   */\n      0x1f\n        /* \"#utility.yul\":545:552   */\n      not\n        /* \"#utility.yul\":540:542   */\n      0x1f\n        /* \"#utility.yul\":533:538   */\n      dup4\n        /* \"#utility.yul\":529:543   */\n      add\n        /* \"#utility.yul\":525:553   */\n      and\n        /* \"#utility.yul\":515:553   */\n      swap1\n      pop\n        /* \"#utility.yul\":457:559   */\n      swap2\n      swap1\n      pop\n      jump\t// out\n        /* \"#utility.yul\":565:745   */\n    tag_44:\n        /* \"#utility.yul\":613:690   */\n      0x4e487b7100000000000000000000000000000000000000000000000000000000\n        /* \"#utility.yul\":610:611   */\n      0x00\n        /* \"#utility.yul\":603:691   */\n      mstore\n        /* \"#utility.yul\":710:714   */\n      0x41\n        /* \"#utility.yul\":707:708   */\n      0x04\n        /* \"#utility.yul\":700:715   */\n      mstore\n        /* \"#utility.yul\":734:738   */\n      0x24\n        /* \"#utility.yul\":731:732   */\n      0x00\n        /* \"#utility.yul\":724:739   */\n      revert\n        /* \"#utility.yul\":751:1032   */\n    tag_45:\n        /* \"#utility.yul\":834:861   */\n      tag_64\n        /* \"#utility.yul\":856:860   */\n      dup3\n        /* \"#utility.yul\":834:861   */\n      tag_43\n      jump\t// in\n    tag_64:\n        /* \"#utility.yul\":826:832   */\n      dup2\n        /* \"#utility.yul\":822:862   */\n      add\n        /* \"#utility.yul\":964:970   */\n      dup2\n        /* \"#utility.yul\":952:962   */\n      dup2\n        /* \"#utility.yul\":949:971   */\n      lt\n        /* \"#utility.yul\":928:946   */\n      0xffffffffffffffff\n        /* \"#utility.yul\":916:926   */\n      dup3\n        /* \"#utility.yul\":913:947   */\n      gt\n        /* \"#utility.yul\":910:972   */\n      or\n        /* \"#utility.yul\":907:995   */\n      iszero\n      tag_65\n      jumpi\n        /* \"#utility.yul\":975:993   */\n      tag_66\n      tag_44\n      jump\t// in\n    tag_66:\n        /* \"#utility.yul\":907:995   */\n    tag_65:\n        /* \"#utility.yul\":1015:1025   */\n      dup1\n        /* \"#utility.yul\":1011:1013   */\n      0x40\n        /* \"#utility.yul\":1004:1026   */\n      mstore\n        /* \"#utility.yul\":794:1032   */\n      pop\n        /* \"#utility.yul\":751:1032   */\n      pop\n      pop\n      jump\t// out\n        /* \"#utility.yul\":1038:1167   */\n    tag_46:\n        /* \"#utility.yul\":1072:1078   */\n      0x00\n        /* \"#utility.yul\":1099:1119   */\n      tag_68\n      tag_39\n      jump\t// in\n    tag_68:\n        /* \"#utility.yul\":1089:1119   */\n      swap1\n      pop\n        /* \"#utility.yul\":1128:1161   */\n      tag_69\n        /* \"#utility.yul\":1156:1160   */\n      dup3\n        /* \"#utility.yul\":1148:1154   */\n      dup3\n        /* \"#utility.yul\":1128:1161   */\n      tag_45\n      jump\t// in\n    tag_69:\n        /* \"#utility.yul\":1038:1167   */\n      swap2\n      swap1\n      pop\n      jump\t// out\n        /* \"#utility.yul\":1173:1484   */\n    tag_47:\n        /* \"#utility.yul\":1250:1254   */\n      0x00\n        /* \"#utility.yul\":1340:1358   */\n      0xffffffffffffffff\n        /* \"#utility.yul\":1332:1338   */\n      dup3\n        /* \"#utility.yul\":1329:1359   */\n      gt\n        /* \"#utility.yul\":1326:1382   */\n      iszero\n      tag_71\n      jumpi\n        /* \"#utility.yul\":1362:1380   */\n      tag_72\n      tag_44\n      jump\t// in\n    tag_72:\n        /* \"#utility.yul\":1326:1382   */\n    tag_71:\n        /* \"#utility.yul\":1412:1416   */\n      0x20\n        /* \"#utility.yul\":1404:1410   */\n      dup3\n        /* \"#utility.yul\":1400:1417   */\n      mul\n        /* \"#utility.yul\":1392:1417   */\n      swap1\n      pop\n        /* \"#utility.yul\":1472:1476   */\n      0x20\n        /* \"#utility.yul\":1466:1470   */\n      dup2\n        /* \"#utility.yul\":1462:1477   */\n      add\n        /* \"#utility.yul\":1454:1477   */\n      swap1\n      pop\n        /* \"#utility.yul\":1173:1484   */\n      swap2\n      swap1\n      pop\n      jump\t// out\n        /* \"#utility.yul\":1490:1607   */\n    tag_48:\n        /* \"#utility.yul\":1599:1600   */\n      0x00\n        /* \"#utility.yul\":1596:1597   */\n      dup1\n        /* \"#utility.yul\":1589:1601   */\n      revert\n        /* \"#utility.yul\":1613:1690   */\n    tag_49:\n        /* \"#utility.yul\":1650:1657   */\n      0x00\n        /* \"#utility.yul\":1679:1684   */\n      dup2\n        /* \"#utility.yul\":1668:1684   */\n      swap1\n      pop\n        /* \"#utility.yul\":1613:1690   */\n      swap2\n      swap1\n      pop\n      jump\t// out\n        /* \"#utility.yul\":1696:1818   */\n    tag_50:\n        /* \"#utility.yul\":1769:1793   */\n      tag_76\n        /* \"#utility.yul\":1787:1792   */\n      dup2\n        /* \"#utility.yul\":1769:1793   */\n      tag_49\n      jump\t// in\n    tag_76:\n        /* \"#utility.yul\":1762:1767   */\n      dup2\n        /* \"#utility.yul\":1759:1794   */\n      eq\n        /* \"#utility.yul\":1749:1812   */\n      tag_77\n      jumpi\n        /* \"#utility.yul\":1808:1809   */\n      0x00\n        /* \"#utility.yul\":1805:1806   */\n      dup1\n        /* \"#utility.yul\":1798:1810   */\n      revert\n        /* \"#utility.yul\":1749:1812   */\n    tag_77:\n        /* \"#utility.yul\":1696:1818   */\n      pop\n      jump\t// out\n        /* \"#utility.yul\":1824:1963   */\n    tag_51:\n        /* \"#utility.yul\":1870:1875   */\n      0x00\n        /* \"#utility.yul\":1908:1914   */\n      dup2\n        /* \"#utility.yul\":1895:1915   */\n      calldataload\n        /* \"#utility.yul\":1886:1915   */\n      swap1\n      pop\n        /* \"#utility.yul\":1924:1957   */\n      tag_79\n        /* \"#utility.yul\":1951:1956   */\n      dup2\n        /* \"#utility.yul\":1924:1957   */\n      tag_50\n      jump\t// in\n    tag_79:\n        /* \"#utility.yul\":1824:1963   */\n      swap3\n      swap2\n      pop\n      pop\n      jump\t// out\n        /* \"#utility.yul\":1986:2696   */\n    tag_52:\n        /* \"#utility.yul\":2082:2087   */\n      0x00\n        /* \"#utility.yul\":2107:2188   */\n      tag_81\n        /* \"#utility.yul\":2123:2187   */\n      tag_82\n        /* \"#utility.yul\":2180:2186   */\n      dup5\n        /* \"#utility.yul\":2123:2187   */\n      tag_47\n      jump\t// in\n    tag_82:\n        /* \"#utility.yul\":2107:2188   */\n      tag_46\n      jump\t// in\n    tag_81:\n        /* \"#utility.yul\":2098:2188   */\n      swap1\n      pop\n        /* \"#utility.yul\":2208:2213   */\n      dup1\n        /* \"#utility.yul\":2237:2243   */\n      dup4\n        /* \"#utility.yul\":2230:2235   */\n      dup3\n        /* \"#utility.yul\":2223:2244   */\n      mstore\n        /* \"#utility.yul\":2271:2275   */\n      0x20\n        /* \"#utility.yul\":2264:2269   */\n      dup3\n        /* \"#utility.yul\":2260:2276   */\n      add\n        /* \"#utility.yul\":2253:2276   */\n      swap1\n      pop\n        /* \"#utility.yul\":2324:2328   */\n      0x20\n        /* \"#utility.yul\":2316:2322   */\n      dup5\n        /* \"#utility.yul\":2312:2329   */\n      mul\n        /* \"#utility.yul\":2304:2310   */\n      dup4\n        /* \"#utility.yul\":2300:2330   */\n      add\n        /* \"#utility.yul\":2353:2356   */\n      dup6\n        /* \"#utility.yul\":2345:2351   */\n      dup2\n        /* \"#utility.yul\":2342:2357   */\n      gt\n        /* \"#utility.yul\":2339:2461   */\n      iszero\n      tag_83\n      jumpi\n        /* \"#utility.yul\":2372:2451   */\n      tag_84\n      tag_48\n      jump\t// in\n    tag_84:\n        /* \"#utility.yul\":2339:2461   */\n    tag_83:\n        /* \"#utility.yul\":2487:2493   */\n      dup4\n        /* \"#utility.yul\":2470:2690   */\n    tag_85:\n        /* \"#utility.yul\":2504:2510   */\n      dup2\n        /* \"#utility.yul\":2499:2502   */\n      dup2\n        /* \"#utility.yul\":2496:2511   */\n      lt\n        /* \"#utility.yul\":2470:2690   */\n      iszero\n      tag_87\n      jumpi\n        /* \"#utility.yul\":2579:2582   */\n      dup1\n        /* \"#utility.yul\":2608:2645   */\n      tag_88\n        /* \"#utility.yul\":2641:2644   */\n      dup9\n        /* \"#utility.yul\":2629:2639   */\n      dup3\n        /* \"#utility.yul\":2608:2645   */\n      tag_51\n      jump\t// in\n    tag_88:\n        /* \"#utility.yul\":2603:2606   */\n      dup5\n        /* \"#utility.yul\":2596:2646   */\n      mstore\n        /* \"#utility.yul\":2675:2679   */\n      0x20\n        /* \"#utility.yul\":2670:2673   */\n      dup5\n        /* \"#utility.yul\":2666:2680   */\n      add\n        /* \"#utility.yul\":2659:2680   */\n      swap4\n      pop\n        /* \"#utility.yul\":2546:2690   */\n      pop\n        /* \"#utility.yul\":2530:2534   */\n      0x20\n        /* \"#utility.yul\":2525:2528   */\n      dup2\n        /* \"#utility.yul\":2521:2535   */\n      add\n        /* \"#utility.yul\":2514:2535   */\n      swap1\n      pop\n        /* \"#utility.yul\":2470:2690   */\n      jump(tag_85)\n    tag_87:\n        /* \"#utility.yul\":2474:2495   */\n      pop\n        /* \"#utility.yul\":2088:2696   */\n      pop\n      pop\n        /* \"#utility.yul\":1986:2696   */\n      swap4\n      swap3\n      pop\n      pop\n      pop\n      jump\t// out\n        /* \"#utility.yul\":2719:3089   */\n    tag_53:\n        /* \"#utility.yul\":2790:2795   */\n      0x00\n        /* \"#utility.yul\":2839:2842   */\n      dup3\n        /* \"#utility.yul\":2832:2836   */\n      0x1f\n        /* \"#utility.yul\":2824:2830   */\n      dup4\n        /* \"#utility.yul\":2820:2837   */\n      add\n        /* \"#utility.yul\":2816:2843   */\n      slt\n        /* \"#utility.yul\":2806:2928   */\n      tag_90\n      jumpi\n        /* \"#utility.yul\":2847:2926   */\n      tag_91\n      tag_42\n      jump\t// in\n    tag_91:\n        /* \"#utility.yul\":2806:2928   */\n    tag_90:\n        /* \"#utility.yul\":2964:2970   */\n      dup2\n        /* \"#utility.yul\":2951:2971   */\n      calldataload\n        /* \"#utility.yul\":2989:3083   */\n      tag_92\n        /* \"#utility.yul\":3079:3082   */\n      dup5\n        /* \"#utility.yul\":3071:3077   */\n      dup3\n        /* \"#utility.yul\":3064:3068   */\n      0x20\n        /* \"#utility.yul\":3056:3062   */\n      dup7\n        /* \"#utility.yul\":3052:3069   */\n      add\n        /* \"#utility.yul\":2989:3083   */\n      tag_52\n      jump\t// in\n    tag_92:\n        /* \"#utility.yul\":2980:3083   */\n      swap2\n      pop\n        /* \"#utility.yul\":2796:3089   */\n      pop\n        /* \"#utility.yul\":2719:3089   */\n      swap3\n      swap2\n      pop\n      pop\n      jump\t// out\n        /* \"#utility.yul\":3095:3634   */\n    tag_7:\n        /* \"#utility.yul\":3179:3185   */\n      0x00\n        /* \"#utility.yul\":3228:3230   */\n      0x20\n        /* \"#utility.yul\":3216:3225   */\n      dup3\n        /* \"#utility.yul\":3207:3214   */\n      dup5\n        /* \"#utility.yul\":3203:3226   */\n      sub\n        /* \"#utility.yul\":3199:3231   */\n      slt\n        /* \"#utility.yul\":3196:3315   */\n      iszero\n      tag_94\n      jumpi\n        /* \"#utility.yul\":3234:3313   */\n      tag_95\n      tag_40\n      jump\t// in\n    tag_95:\n        /* \"#utility.yul\":3196:3315   */\n    tag_94:\n        /* \"#utility.yul\":3382:3383   */\n      0x00\n        /* \"#utility.yul\":3371:3380   */\n      dup3\n        /* \"#utility.yul\":3367:3384   */\n      add\n        /* \"#utility.yul\":3354:3385   */\n      calldataload\n        /* \"#utility.yul\":3412:3430   */\n      0xffffffffffffffff\n        /* \"#utility.yul\":3404:3410   */\n      dup2\n        /* \"#utility.yul\":3401:3431   */\n      gt\n        /* \"#utility.yul\":3398:3515   */\n      iszero\n      tag_96\n      jumpi\n        /* \"#utility.yul\":3434:3513   */\n      tag_97\n      tag_41\n      jump\t// in\n    tag_97:\n        /* \"#utility.yul\":3398:3515   */\n    tag_96:\n        /* \"#utility.yul\":3539:3617   */\n      tag_98\n        /* \"#utility.yul\":3609:3616   */\n      dup5\n        /* \"#utility.yul\":3600:3606   */\n      dup3\n        /* \"#utility.yul\":3589:3598   */\n      dup6\n        /* \"#utility.yul\":3585:3607   */\n      add\n        /* \"#utility.yul\":3539:3617   */\n      tag_53\n      jump\t// in\n    tag_98:\n        /* \"#utility.yul\":3529:3617   */\n      swap2\n      pop\n        /* \"#utility.yul\":3325:3627   */\n      pop\n        /* \"#utility.yul\":3095:3634   */\n      swap3\n      swap2\n      pop\n      pop\n      jump\t// out\n        /* \"#utility.yul\":3640:3766   */\n    tag_54:\n        /* \"#utility.yul\":3735:3759   */\n      tag_100\n        /* \"#utility.yul\":3753:3758   */\n      dup2\n        /* \"#utility.yul\":3735:3759   */\n      tag_49\n      jump\t// in\n    tag_100:\n        /* \"#utility.yul\":3730:3733   */\n      dup3\n        /* \"#utility.yul\":3723:3760   */\n      mstore\n        /* \"#utility.yul\":3640:3766   */\n      pop\n      pop\n      jump\t// out\n        /* \"#utility.yul\":3772:4010   */\n    tag_10:\n        /* \"#utility.yul\":3873:3877   */\n      0x00\n        /* \"#utility.yul\":3911:3913   */\n      0x20\n        /* \"#utility.yul\":3900:3909   */\n      dup3\n        /* \"#utility.yul\":3896:3914   */\n      add\n        /* \"#utility.yul\":3888:3914   */\n      swap1\n      pop\n        /* \"#utility.yul\":3924:4003   */\n      tag_102\n        /* \"#utility.yul\":4000:4001   */\n      0x00\n        /* \"#utility.yul\":3989:3998   */\n      dup4\n        /* \"#utility.yul\":3985:4002   */\n      add\n        /* \"#utility.yul\":3976:3982   */\n      dup5\n        /* \"#utility.yul\":3924:4003   */\n      tag_54\n      jump\t// in\n    tag_102:\n        /* \"#utility.yul\":3772:4010   */\n      swap3\n      swap2\n      pop\n      pop\n      jump\t// out\n        /* \"#utility.yul\":4016:4196   */\n    tag_55:\n        /* \"#utility.yul\":4064:4141   */\n      0x4e487b7100000000000000000000000000000000000000000000000000000000\n        /* \"#utility.yul\":4061:4062   */\n      0x00\n        /* \"#utility.yul\":4054:4142   */\n      mstore\n        /* \"#utility.yul\":4161:4165   */\n      0x11\n        /* \"#utility.yul\":4158:4159   */\n      0x04\n        /* \"#utility.yul\":4151:4166   */\n      mstore\n        /* \"#utility.yul\":4185:4189   */\n      0x24\n        /* \"#utility.yul\":4182:4183   */\n      0x00\n        /* \"#utility.yul\":4175:4190   */\n      revert\n        /* \"#utility.yul\":4202:4435   */\n    tag_24:\n        /* \"#utility.yul\":4241:4244   */\n      0x00\n        /* \"#utility.yul\":4264:4288   */\n      tag_105\n        /* \"#utility.yul\":4282:4287   */\n      dup3\n        /* \"#utility.yul\":4264:4288   */\n      tag_49\n      jump\t// in\n    tag_105:\n        /* \"#utility.yul\":4255:4288   */\n      swap2\n      pop\n        /* \"#utility.yul\":4310:4376   */\n      0xffffffffffffffffffffffffffffffffffffffffffffffffffffffffffffffff\n        /* \"#utility.yul\":4303:4308   */\n      dup3\n        /* \"#utility.yul\":4300:4377   */\n      sub\n        /* \"#utility.yul\":4297:4400   */\n      tag_106\n      jumpi\n        /* \"#utility.yul\":4380:4398   */\n      tag_107\n      tag_55\n      jump\t// in\n    tag_107:\n        /* \"#utility.yul\":4297:4400   */\n    tag_106:\n        /* \"#utility.yul\":4427:4428   */\n      0x01\n        /* \"#utility.yul\":4420:4425   */\n      dup3\n        /* \"#utility.yul\":4416:4429   */\n      add\n        /* \"#utility.yul\":4409:4429   */\n      swap1\n      pop\n        /* \"#utility.yul\":4202:4435   */\n      swap2\n      swap1\n      pop\n      jump\t// out\n        /* \"#utility.yul\":4441:4621   */\n    tag_31:\n        /* \"#utility.yul\":4489:4566   */\n      0x4e487b7100000000000000000000000000000000000000000000000000000000\n        /* \"#utility.yul\":4486:4487   */\n      0x00\n        /* \"#utility.yul\":4479:4567   */\n      mstore\n        /* \"#utility.yul\":4586:4590   */\n      0x32\n        /* \"#utility.yul\":4583:4584   */\n      0x04\n        /* \"#utility.yul\":4576:4591   */\n      mstore\n        /* \"#utility.yul\":4610:4614   */\n      0x24\n        /* \"#utility.yul\":4607:4608   */\n      0x00\n        /* \"#utility.yul\":4600:4615   */\n      revert\n        /* \"#utility.yul\":4627:4818   */\n    tag_33:\n        /* \"#utility.yul\":4667:4670   */\n      0x00\n        /* \"#utility.yul\":4686:4706   */\n      tag_110\n        /* \"#utility.yul\":4704:4705   */\n      dup3\n        /* \"#utility.yul\":4686:4706   */\n      tag_49\n      jump\t// in\n    tag_110:\n        /* \"#utility.yul\":4681:4706   */\n      swap2\n      pop\n        /* \"#utility.yul\":4720:4740   */\n      tag_111\n        /* \"#utility.yul\":4738:4739   */\n      dup4\n        /* \"#utility.yul\":4720:4740   */\n      tag_49\n      jump\t// in\n    tag_111:\n        /* \"#utility.yul\":4715:4740   */\n      swap3\n      pop\n        /* \"#utility.yul\":4763:4764   */\n      dup3\n        /* \"#utility.yul\":4760:4761   */\n      dup3\n        /* \"#utility.yul\":4756:4765   */\n      add\n        /* \"#utility.yul\":4749:4765   */\n      swap1\n      pop\n        /* \"#utility.yul\":4784:4787   */\n      dup1\n        /* \"#utility.yul\":4781:4782   */\n      dup3\n        /* \"#utility.yul\":4778:4788   */\n      gt\n        /* \"#utility.yul\":4775:4811   */\n      iszero\n      tag_112\n      jumpi\n        /* \"#utility.yul\":4791:4809   */\n      tag_113\n      tag_55\n      jump\t// in\n    tag_113:\n        /* \"#utility.yul\":4775:4811   */\n    tag_112:\n        /* \"#utility.yul\":4627:4818   */\n      swap3\n      swap2\n      pop\n      pop\n      jump\t// out\n\n    auxdata: 0xa2646970667358221220053677be3ce0a92d3ed87df55e1d0c80d0e347e0eaaf9ecf932ef4eda7c2ba6164736f6c63430008120033\n}\n",
				"bytecode": {
					"linkReferences": {},
					"object": "6104bc610053600b82828239805160001a607314610046577f4e487b7100000000000000000000000000000000000000000000000000000000600052600060045260246000fd5b30600052607381538281f3fe730000000000000000000000000000000000000000301460806040526004361061004b5760003560e01c80634d36b7a4146100505780634d83e19714610080578063d62c425d146100b0575b600080fd5b61006a60048036038101906100659190610339565b6100e0565b6040516100779190610391565b60405180910390f35b61009a60048036038101906100959190610339565b610116565b6040516100a79190610391565b60405180910390f35b6100ca60048036038101906100c59190610339565b610166565b6040516100d79190610391565b60405180910390f35b600080600090505b825181101561011057602081026020840101518201915080610109906103db565b90506100e8565b50919050565b600080600090505b82518110156101605782818151811061013a57610139610423565b5b60200260200101518261014d9190610452565b915080610159906103db565b905061011e565b50919050565b60008151602083016020820281015b8082101561018e57815184019350602082019150610175565b505050919050565b6000604051905090565b600080fd5b600080fd5b600080fd5b6000601f19601f8301169050919050565b7f4e487b7100000000000000000000000000000000000000000000000000000000600052604160045260246000fd5b6101f8826101af565b810181811067ffffffffffffffff82111715610217576102166101c0565b5b80604052505050565b600061022a610196565b905061023682826101ef565b919050565b600067ffffffffffffffff821115610256576102556101c0565b5b602082029050602081019050919050565b600080fd5b6000819050919050565b61027f8161026c565b811461028a57600080fd5b50565b60008135905061029c81610276565b92915050565b60006102b56102b08461023b565b610220565b905080838252602082019050602084028301858111156102d8576102d7610267565b5b835b8181101561030157806102ed888261028d565b8452602084019350506020810190506102da565b5050509392505050565b600082601f8301126103205761031f6101aa565b5b81356103308482602086016102a2565b91505092915050565b60006020828403121561034f5761034e6101a0565b5b600082013567ffffffffffffffff81111561036d5761036c6101a5565b5b6103798482850161030b565b91505092915050565b61038b8161026c565b82525050565b60006020820190506103a66000830184610382565b92915050565b7f4e487b7100000000000000000000000000000000000000000000000000000000600052601160045260246000fd5b60006103e68261026c565b91507fffffffffffffffffffffffffffffffffffffffffffffffffffffffffffffffff8203610418576104176103ac565b5b600182019050919050565b7f4e487b7100000000000000000000000000000000000000000000000000000000600052603260045260246000fd5b600061045d8261026c565b91506104688361026c565b92508282019050808211156104805761047f6103ac565b5b9291505056fea2646970667358221220053677be3ce0a92d3ed87df55e1d0c80d0e347e0eaaf9ecf932ef4eda7c2ba6164736f6c63430008120033",
					"opcodes": "PUSH2 0x4BC PUSH2 0x53 PUSH1 0xB DUP3 DUP3 DUP3 CODECOPY DUP1 MLOAD PUSH1 0x0 BYTE PUSH1 0x73 EQ PUSH2 0x46 JUMPI PUSH32 0x4E487B7100000000000000000000000000000000000000000000000000000000 PUSH1 0x0 MSTORE PUSH1 0x0 PUSH1 0x4 MSTORE PUSH1 0x24 PUSH1 0x0 REVERT JUMPDEST ADDRESS PUSH1 0x0 MSTORE PUSH1 0x73 DUP2 MSTORE8 DUP3 DUP2 RETURN INVALID PUSH20 0x0 ADDRESS EQ PUSH1 0x80 PUSH1 0x40 MSTORE PUSH1 0x4 CALLDATASIZE LT PUSH2 0x4B JUMPI PUSH1 0x0 CALLDATALOAD PUSH1 0xE0 SHR DUP1 PUSH4 0x4D36B7A4 EQ PUSH2 0x50 JUMPI DUP1 PUSH4 0x4D83E197 EQ PUSH2 0x80 JUMPI DUP1 PUSH4 0xD62C425D EQ PUSH2 0xB0 JUMPI JUMPDEST PUSH1 0x0 DUP1 REVERT JUMPDEST PUSH2 0x6A PUSH1 0x4 DUP1 CALLDATASIZE SUB DUP2 ADD SWAP1 PUSH2 0x65 SWAP2 SWAP1 PUSH2 0x339 JUMP JUMPDEST PUSH2 0xE0 JUMP JUMPDEST PUSH1 0x40 MLOAD PUSH2 0x77 SWAP2 SWAP1 PUSH2 0x391 JUMP JUMPDEST PUSH1 0x40 MLOAD DUP1 SWAP2 SUB SWAP1 RETURN JUMPDEST PUSH2 0x9A PUSH1 0x4 DUP1 CALLDATASIZE SUB DUP2 ADD SWAP1 PUSH2 0x95 SWAP2 SWAP1 PUSH2 0x339 JUMP JUMPDEST PUSH2 0x116 JUMP JUMPDEST PUSH1 0x40 MLOAD PUSH2 0xA7 SWAP2 SWAP1 PUSH2 0x391 JUMP JUMPDEST PUSH1 0x40 MLOAD DUP1 SWAP2 SUB SWAP1 RETURN JUMPDEST PUSH2 0xCA PUSH1 0x4 DUP1 CALLDATASIZE SUB DUP2 ADD SWAP1 PUSH2 0xC5 SWAP2 SWAP1 PUSH2 0x339 JUMP JUMPDEST PUSH2 0x166 JUMP JUMPDEST PUSH1 0x40 MLOAD PUSH2 0xD7 SWAP2 SWAP1 PUSH2 0x391 JUMP JUMPDEST PUSH1 0x40 MLOAD DUP1 SWAP2 SUB SWAP1 RETURN JUMPDEST PUSH1 0x0 DUP1 PUSH1 0x0 SWAP1 POP JUMPDEST DUP3 MLOAD DUP2 LT ISZERO PUSH2 0x110 JUMPI PUSH1 0x20 DUP2 MUL PUSH1 0x20 DUP5 ADD ADD MLOAD DUP3 ADD SWAP2 POP DUP1 PUSH2 0x109 SWAP1 PUSH2 0x3DB JUMP JUMPDEST SWAP1 POP PUSH2 0xE8 JUMP JUMPDEST POP SWAP2 SWAP1 POP JUMP JUMPDEST PUSH1 0x0 DUP1 PUSH1 0x0 SWAP1 POP JUMPDEST DUP3 MLOAD DUP2 LT ISZERO PUSH2 0x160 JUMPI DUP3 DUP2 DUP2 MLOAD DUP2 LT PUSH2 0x13A JUMPI PUSH2 0x139 PUSH2 0x423 JUMP JUMPDEST JUMPDEST PUSH1 0x20 MUL PUSH1 0x20 ADD ADD MLOAD DUP3 PUSH2 0x14D SWAP2 SWAP1 PUSH2 0x452 JUMP JUMPDEST SWAP2 POP DUP1 PUSH2 0x159 SWAP1 PUSH2 0x3DB JUMP JUMPDEST SWAP1 POP PUSH2 0x11E JUMP JUMPDEST POP SWAP2 SWAP1 POP JUMP JUMPDEST PUSH1 0x0 DUP2 MLOAD PUSH1 0x20 DUP4 ADD PUSH1 0x20 DUP3 MUL DUP2 ADD JUMPDEST DUP1 DUP3 LT ISZERO PUSH2 0x18E JUMPI DUP2 MLOAD DUP5 ADD SWAP4 POP PUSH1 0x20 DUP3 ADD SWAP2 POP PUSH2 0x175 JUMP JUMPDEST POP POP POP SWAP2 SWAP1 POP JUMP JUMPDEST PUSH1 0x0 PUSH1 0x40 MLOAD SWAP1 POP SWAP1 JUMP JUMPDEST PUSH1 0x0 DUP1 REVERT JUMPDEST PUSH1 0x0 DUP1 REVERT JUMPDEST PUSH1 0x0 DUP1 REVERT JUMPDEST PUSH1 0x0 PUSH1 0x1F NOT PUSH1 0x1F DUP4 ADD AND SWAP1 POP SWAP2 SWAP1 POP JUMP JUMPDEST PUSH32 0x4E487B7100000000000000000000000000000000000000000000000000000000 PUSH1 0x0 MSTORE PUSH1 0x41 PUSH1 0x4 MSTORE PUSH1 0x24 PUSH1 0x0 REVERT JUMPDEST PUSH2 0x1F8 DUP3 PUSH2 0x1AF JUMP JUMPDEST DUP2 ADD DUP2 DUP2 LT PUSH8 0xFFFFFFFFFFFFFFFF DUP3 GT OR ISZERO PUSH2 0x217 JUMPI PUSH2 0x216 PUSH2 0x1C0 JUMP JUMPDEST JUMPDEST DUP1 PUSH1 0x40 MSTORE POP POP POP JUMP JUMPDEST PUSH1 0x0 PUSH2 0x22A PUSH2 0x196 JUMP JUMPDEST SWAP1 POP PUSH2 0x236 DUP3 DUP3 PUSH2 0x1EF JUMP JUMPDEST SWAP2 SWAP1 POP JUMP JUMPDEST PUSH1 0x0 PUSH8 0xFFFFFFFFFFFFFFFF DUP3 GT ISZERO PUSH2 0x256 JUMPI PUSH2 0x255 PUSH2 0x1C0 JUMP JUMPDEST JUMPDEST PUSH1 0x20 DUP3 MUL SWAP1 POP PUSH1 0x20 DUP2 ADD SWAP1 POP SWAP2 SWAP1 POP JUMP JUMPDEST PUSH1 0x0 DUP1 REVERT JUMPDEST PUSH1 0x0 DUP2 SWAP1 POP SWAP2 SWAP1 POP JUMP JUMPDEST PUSH2 0x27F DUP2 PUSH2 0x26C JUMP JUMPDEST DUP2 EQ PUSH2 0x28A JUMPI PUSH1 0x0 DUP1 REVERT JUMPDEST POP JUMP JUMPDEST PUSH1 0x0 DUP2 CALLDATALOAD SWAP1 POP PUSH2 0x29C DUP2 PUSH2 0x276 JUMP JUMPDEST SWAP3 SWAP2 POP POP JUMP JUMPDEST PUSH1 0x0 PUSH2 0x2B5 PUSH2 0x2B0 DUP5 PUSH2 0x23B JUMP JUMPDEST PUSH2 0x220 JUMP JUMPDEST SWAP1 POP DUP1 DUP4 DUP3 MSTORE PUSH1 0x20 DUP3 ADD SWAP1 POP PUSH1 0x20 DUP5 MUL DUP4 ADD DUP6 DUP2 GT ISZERO PUSH2 0x2D8 JUMPI PUSH2 0x2D7 PUSH2 0x267 JUMP JUMPDEST JUMPDEST DUP4 JUMPDEST DUP2 DUP2 LT ISZERO PUSH2 0x301 JUMPI DUP1 PUSH2 0x2ED DUP9 DUP3 PUSH2 0x28D JUMP JUMPDEST DUP5 MSTORE PUSH1 0x20 DUP5 ADD SWAP4 POP POP PUSH1 0x20 DUP2 ADD SWAP1 POP PUSH2 0x2DA JUMP JUMPDEST POP POP POP SWAP4 SWAP3 POP POP POP JUMP JUMPDEST PUSH1 0x0 DUP3 PUSH1 0x1F DUP4 ADD SLT PUSH2 0x320 JUMPI PUSH2 0x31F PUSH2 0x1AA JUMP JUMPDEST JUMPDEST DUP2 CALLDATALOAD PUSH2 0x330 DUP5 DUP3 PUSH1 0x20 DUP7 ADD PUSH2 0x2A2 JUMP JUMPDEST SWAP2 POP POP SWAP3 SWAP2 POP POP JUMP JUMPDEST PUSH1 0x0 PUSH1 0x20 DUP3 DUP5 SUB SLT ISZERO PUSH2 0x34F JUMPI PUSH2 0x34E PUSH2 0x1A0 JUMP JUMPDEST JUMPDEST PUSH1 0x0 DUP3 ADD CALLDATALOAD PUSH8 0xFFFFFFFFFFFFFFFF DUP2 GT ISZERO PUSH2 0x36D JUMPI PUSH2 0x36C PUSH2 0x1A5 JUMP JUMPDEST JUMPDEST PUSH2 0x379 DUP5 DUP3 DUP6 ADD PUSH2 0x30B JUMP JUMPDEST SWAP2 POP POP SWAP3 SWAP2 POP POP JUMP JUMPDEST PUSH2 0x38B DUP2 PUSH2 0x26C JUMP JUMPDEST DUP3 MSTORE POP POP JUMP JUMPDEST PUSH1 0x0 PUSH1 0x20 DUP3 ADD SWAP1 POP PUSH2 0x3A6 PUSH1 0x0 DUP4 ADD DUP5 PUSH2 0x382 JUMP JUMPDEST SWAP3 SWAP2 POP POP JUMP JUMPDEST PUSH32 0x4E487B7100000000000000000000000000000000000000000000000000000000 PUSH1 0x0 MSTORE PUSH1 0x11 PUSH1 0x4 MSTORE PUSH1 0x24 PUSH1 0x0 REVERT JUMPDEST PUSH1 0x0 PUSH2 0x3E6 DUP3 PUSH2 0x26C JUMP JUMPDEST SWAP2 POP PUSH32 0xFFFFFFFFFFFFFFFFFFFFFFFFFFFFFFFFFFFFFFFFFFFFFFFFFFFFFFFFFFFFFFFF DUP3 SUB PUSH2 0x418 JUMPI PUSH2 0x417 PUSH2 0x3AC JUMP JUMPDEST JUMPDEST PUSH1 0x1 DUP3 ADD SWAP1 POP SWAP2 SWAP1 POP JUMP JUMPDEST PUSH32 0x4E487B7100000000000000000000000000000000000000000000000000000000 PUSH1 0x0 MSTORE PUSH1 0x32 PUSH1 0x4 MSTORE PUSH1 0x24 PUSH1 0x0 REVERT JUMPDEST PUSH1 0x0 PUSH2 0x45D DUP3 PUSH2 0x26C JUMP JUMPDEST SWAP2 POP PUSH2 0x468 DUP4 PUSH2 0x26C JUMP JUMPDEST SWAP3 POP DUP3 DUP3 ADD SWAP1 POP DUP1 DUP3 GT ISZERO PUSH2 0x480 JUMPI PUSH2 0x47F PUSH2 0x3AC JUMP JUMPDEST JUMPDEST SWAP3 SWAP2 POP POP JUMP INVALID LOG2 PUSH5 0x6970667358 0x22 SLT KECCAK256 SDIV CALLDATASIZE PUSH24 0xBE3CE0A92D3ED87DF55E1D0C80D0E347E0EAAF9ECF932EF4 0xED 0xA7 0xC2 0xBA PUSH2 0x6473 PUSH16 0x6C634300081200330000000000000000 "
				},
				"gasEstimates": {
					"creation": {
						"codeDepositCost": "242400",
						"executionCost": "309",
						"totalCost": "242709"
					},
					"external": {
						"sumAsm(uint256[])": "infinite",
						"sumPureAsm(uint256[])": "infinite",
						"sumSolidity(uint256[])": "infinite"
					}
				},
				"methodIdentifiers": {
					"sumAsm(uint256[])": "4d36b7a4",
					"sumPureAsm(uint256[])": "d62c425d",
					"sumSolidity(uint256[])": "4d83e197"
				}
			},
			"storageLayout": {
				"storage": [],
				"types": null
			},
			"userdoc": {
				"kind": "user",
				"methods": {},
				"version": 1
			}
		}
	}
}