{
	"contract-arithmeticUncheck.sol": {
		"C": {
			"abi": [
				{
					"inputs": [],
					"name": "check",
					"outputs": [
						{
							"internalType": "uint256",
							"name": "",
							"type": "uint256"
						}
					],
					"stateMutability": "pure",
					"type": "function"
				},
				{
					"inputs": [
						{
							"internalType": "uint256",
							"name": "a",
							"type": "uint256"
						},
						{
							"internalType": "uint256",
							"name": "b",
							"type": "uint256"
						}
					],
					"name": "f",
					"outputs": [
						{
							"internalType": "uint256",
							"name": "",
							"type": "uint256"
						}
					],
					"stateMutability": "pure",
					"type": "function"
				},
				{
					"inputs": [
						{
							"internalType": "uint256",
							"name": "a",
							"type": "uint256"
						},
						{
							"internalType": "uint256",
							"name": "b",
							"type": "uint256"
						}
					],
					"name": "g",
					"outputs": [
						{
							"internalType": "uint256",
							"name": "",
							"type": "uint256"
						}
					],
					"stateMutability": "pure",
					"type": "function"
				},
				{
					"inputs": [],
					"name": "nagative",
					"outputs": [
						{
							"internalType": "int256",
							"name": "",
							"type": "int256"
						}
					],
					"stateMutability": "pure",
					"type": "function"
				},
				{
					"inputs": [],
					"name": "noCheck",
					"outputs": [
						{
							"internalType": "uint256",
							"name": "",
							"type": "uint256"
						}
					],
					"stateMutability": "pure",
					"type": "function"
				}
			],
			"devdoc": {
				"kind": "dev",
				"methods": {},
				"version": 1
			},
			"evm": {
				"assembly": "    /* \"contract-arithmeticUncheck.sol\":60:931  contract C {... */\n  mstore(0x40, 0x80)\n  callvalue\n  dup1\n  iszero\n  tag_1\n  jumpi\n  0x00\n  dup1\n  revert\ntag_1:\n  pop\n  dataSize(sub_0)\n  dup1\n  dataOffset(sub_0)\n  0x00\n  codecopy\n  0x00\n  return\nstop\n\nsub_0: assembly {\n        /* \"contract-arithmeticUncheck.sol\":60:931  contract C {... */\n      mstore(0x40, 0x80)\n      callvalue\n      dup1\n      iszero\n      tag_1\n      jumpi\n      0x00\n      dup1\n      revert\n    tag_1:\n      pop\n      jumpi(tag_2, lt(calldatasize, 0x04))\n      shr(0xe0, calldataload(0x00))\n      dup1\n      0x13d1aa2e\n      eq\n      tag_3\n      jumpi\n      dup1\n      0x1cd65ae4\n      eq\n      tag_4\n      jumpi\n      dup1\n      0x7c0435e9\n      eq\n      tag_5\n      jumpi\n      dup1\n      0x919840ad\n      eq\n      tag_6\n      jumpi\n      dup1\n      0xfa629fc5\n      eq\n      tag_7\n      jumpi\n    tag_2:\n      0x00\n      dup1\n      revert\n        /* \"contract-arithmeticUncheck.sol\":77:226  function f(uint a, uint b) pure public returns (uint) {... */\n    tag_3:\n      tag_8\n      0x04\n      dup1\n      calldatasize\n      sub\n      dup2\n      add\n      swap1\n      tag_9\n      swap2\n      swap1\n      tag_10\n      jump\t// in\n    tag_9:\n      tag_11\n      jump\t// in\n    tag_8:\n      mload(0x40)\n      tag_12\n      swap2\n      swap1\n      tag_13\n      jump\t// in\n    tag_12:\n      mload(0x40)\n      dup1\n      swap2\n      sub\n      swap1\n      return\n        /* \"contract-arithmeticUncheck.sol\":231:368  function g(uint a, uint b) pure public returns (uint) {... */\n    tag_4:\n      tag_14\n      0x04\n      dup1\n      calldatasize\n      sub\n      dup2\n      add\n      swap1\n      tag_15\n      swap2\n      swap1\n      tag_10\n      jump\t// in\n    tag_15:\n      tag_16\n      jump\t// in\n    tag_14:\n      mload(0x40)\n      tag_17\n      swap2\n      swap1\n      tag_13\n      jump\t// in\n    tag_17:\n      mload(0x40)\n      dup1\n      swap2\n      sub\n      swap1\n      return\n        /* \"contract-arithmeticUncheck.sol\":417:508  function noCheck() public pure returns (uint){... */\n    tag_5:\n      tag_18\n      tag_19\n      jump\t// in\n    tag_18:\n      mload(0x40)\n      tag_20\n      swap2\n      swap1\n      tag_13\n      jump\t// in\n    tag_20:\n      mload(0x40)\n      dup1\n      swap2\n      sub\n      swap1\n      return\n        /* \"contract-arithmeticUncheck.sol\":567:656  function check() public pure returns (uint) {... */\n    tag_6:\n      tag_21\n      tag_22\n      jump\t// in\n    tag_21:\n      mload(0x40)\n      tag_23\n      swap2\n      swap1\n      tag_13\n      jump\t// in\n    tag_23:\n      mload(0x40)\n      dup1\n      swap2\n      sub\n      swap1\n      return\n        /* \"contract-arithmeticUncheck.sol\":662:929  function nagative() public pure returns (int) {... */\n    tag_7:\n      tag_24\n      tag_25\n      jump\t// in\n    tag_24:\n      mload(0x40)\n      tag_26\n      swap2\n      swap1\n      tag_27\n      jump\t// in\n    tag_26:\n      mload(0x40)\n      dup1\n      swap2\n      sub\n      swap1\n      return\n        /* \"contract-arithmeticUncheck.sol\":77:226  function f(uint a, uint b) pure public returns (uint) {... */\n    tag_11:\n        /* \"contract-arithmeticUncheck.sol\":125:129  uint */\n      0x00\n        /* \"contract-arithmeticUncheck.sol\":216:217  b */\n      dup2\n        /* \"contract-arithmeticUncheck.sol\":212:213  a */\n      dup4\n        /* \"contract-arithmeticUncheck.sol\":212:217  a - b */\n      sub\n        /* \"contract-arithmeticUncheck.sol\":205:217  return a - b */\n      swap1\n      pop\n        /* \"contract-arithmeticUncheck.sol\":77:226  function f(uint a, uint b) pure public returns (uint) {... */\n      swap3\n      swap2\n      pop\n      pop\n      jump\t// out\n        /* \"contract-arithmeticUncheck.sol\":231:368  function g(uint a, uint b) pure public returns (uint) {... */\n    tag_16:\n        /* \"contract-arithmeticUncheck.sol\":279:283  uint */\n      0x00\n        /* \"contract-arithmeticUncheck.sol\":360:361  b */\n      dup2\n        /* \"contract-arithmeticUncheck.sol\":356:357  a */\n      dup4\n        /* \"contract-arithmeticUncheck.sol\":356:361  a - b */\n      tag_30\n      swap2\n      swap1\n      tag_31\n      jump\t// in\n    tag_30:\n        /* \"contract-arithmeticUncheck.sol\":349:361  return a - b */\n      swap1\n      pop\n        /* \"contract-arithmeticUncheck.sol\":231:368  function g(uint a, uint b) pure public returns (uint) {... */\n      swap3\n      swap2\n      pop\n      pop\n      jump\t// out\n        /* \"contract-arithmeticUncheck.sol\":417:508  function noCheck() public pure returns (uint){... */\n    tag_19:\n        /* \"contract-arithmeticUncheck.sol\":457:461  uint */\n      0x00\n        /* \"contract-arithmeticUncheck.sol\":500:501  3 */\n      0x03\n        /* \"contract-arithmeticUncheck.sol\":479:496  type(uint256).max */\n      0xffffffffffffffffffffffffffffffffffffffffffffffffffffffffffffffff\n        /* \"contract-arithmeticUncheck.sol\":479:501  type(uint256).max << 3 */\n      swap1\n      shl\n        /* \"contract-arithmeticUncheck.sol\":472:501  return type(uint256).max << 3 */\n      swap1\n      pop\n        /* \"contract-arithmeticUncheck.sol\":417:508  function noCheck() public pure returns (uint){... */\n      swap1\n      jump\t// out\n        /* \"contract-arithmeticUncheck.sol\":567:656  function check() public pure returns (uint) {... */\n    tag_22:\n        /* \"contract-arithmeticUncheck.sol\":605:609  uint */\n      0x00\n        /* \"contract-arithmeticUncheck.sol\":648:649  8 */\n      0x08\n        /* \"contract-arithmeticUncheck.sol\":628:645  type(uint256).max */\n      0xffffffffffffffffffffffffffffffffffffffffffffffffffffffffffffffff\n        /* \"contract-arithmeticUncheck.sol\":628:649  type(uint256).max * 8 */\n      tag_34\n      swap2\n      swap1\n      tag_35\n      jump\t// in\n    tag_34:\n        /* \"contract-arithmeticUncheck.sol\":621:649  return type(uint256).max * 8 */\n      swap1\n      pop\n        /* \"contract-arithmeticUncheck.sol\":567:656  function check() public pure returns (uint) {... */\n      swap1\n      jump\t// out\n        /* \"contract-arithmeticUncheck.sol\":662:929  function nagative() public pure returns (int) {... */\n    tag_25:\n        /* \"contract-arithmeticUncheck.sol\":703:706  int */\n      0x00\n        /* \"contract-arithmeticUncheck.sol\":718:723  int x */\n      dup1\n        /* \"contract-arithmeticUncheck.sol\":726:739  type(int).min */\n      0x8000000000000000000000000000000000000000000000000000000000000000\n        /* \"contract-arithmeticUncheck.sol\":718:739  int x = type(int).min */\n      swap1\n      pop\n        /* \"contract-arithmeticUncheck.sol\":893:898  int y */\n      0x00\n        /* \"contract-arithmeticUncheck.sol\":902:903  x */\n      dup2\n        /* \"contract-arithmeticUncheck.sol\":901:903  -x */\n      tag_37\n      swap1\n      tag_38\n      jump\t// in\n    tag_37:\n        /* \"contract-arithmeticUncheck.sol\":893:903  int y = -x */\n      swap1\n      pop\n        /* \"contract-arithmeticUncheck.sol\":921:922  y */\n      dup1\n        /* \"contract-arithmeticUncheck.sol\":913:922  return  y */\n      swap3\n      pop\n      pop\n      pop\n        /* \"contract-arithmeticUncheck.sol\":662:929  function nagative() public pure returns (int) {... */\n      swap1\n      jump\t// out\n        /* \"#utility.yul\":88:205   */\n    tag_40:\n        /* \"#utility.yul\":197:198   */\n      0x00\n        /* \"#utility.yul\":194:195   */\n      dup1\n        /* \"#utility.yul\":187:199   */\n      revert\n        /* \"#utility.yul\":334:411   */\n    tag_42:\n        /* \"#utility.yul\":371:378   */\n      0x00\n        /* \"#utility.yul\":400:405   */\n      dup2\n        /* \"#utility.yul\":389:405   */\n      swap1\n      pop\n        /* \"#utility.yul\":334:411   */\n      swap2\n      swap1\n      pop\n      jump\t// out\n        /* \"#utility.yul\":417:539   */\n    tag_43:\n        /* \"#utility.yul\":490:514   */\n      tag_55\n        /* \"#utility.yul\":508:513   */\n      dup2\n        /* \"#utility.yul\":490:514   */\n      tag_42\n      jump\t// in\n    tag_55:\n        /* \"#utility.yul\":483:488   */\n      dup2\n        /* \"#utility.yul\":480:515   */\n      eq\n        /* \"#utility.yul\":470:533   */\n      tag_56\n      jumpi\n        /* \"#utility.yul\":529:530   */\n      0x00\n        /* \"#utility.yul\":526:527   */\n      dup1\n        /* \"#utility.yul\":519:531   */\n      revert\n        /* \"#utility.yul\":470:533   */\n    tag_56:\n        /* \"#utility.yul\":417:539   */\n      pop\n      jump\t// out\n        /* \"#utility.yul\":545:684   */\n    tag_44:\n        /* \"#utility.yul\":591:596   */\n      0x00\n        /* \"#utility.yul\":629:635   */\n      dup2\n        /* \"#utility.yul\":616:636   */\n      calldataload\n        /* \"#utility.yul\":607:636   */\n      swap1\n      pop\n        /* \"#utility.yul\":645:678   */\n      tag_58\n        /* \"#utility.yul\":672:677   */\n      dup2\n        /* \"#utility.yul\":645:678   */\n      tag_43\n      jump\t// in\n    tag_58:\n        /* \"#utility.yul\":545:684   */\n      swap3\n      swap2\n      pop\n      pop\n      jump\t// out\n        /* \"#utility.yul\":690:1164   */\n    tag_10:\n        /* \"#utility.yul\":758:764   */\n      0x00\n        /* \"#utility.yul\":766:772   */\n      dup1\n        /* \"#utility.yul\":815:817   */\n      0x40\n        /* \"#utility.yul\":803:812   */\n      dup4\n        /* \"#utility.yul\":794:801   */\n      dup6\n        /* \"#utility.yul\":790:813   */\n      sub\n        /* \"#utility.yul\":786:818   */\n      slt\n        /* \"#utility.yul\":783:902   */\n      iszero\n      tag_60\n      jumpi\n        /* \"#utility.yul\":821:900   */\n      tag_61\n      tag_40\n      jump\t// in\n    tag_61:\n        /* \"#utility.yul\":783:902   */\n    tag_60:\n        /* \"#utility.yul\":941:942   */\n      0x00\n        /* \"#utility.yul\":966:1019   */\n      tag_62\n        /* \"#utility.yul\":1011:1018   */\n      dup6\n        /* \"#utility.yul\":1002:1008   */\n      dup3\n        /* \"#utility.yul\":991:1000   */\n      dup7\n        /* \"#utility.yul\":987:1009   */\n      add\n        /* \"#utility.yul\":966:1019   */\n      tag_44\n      jump\t// in\n    tag_62:\n        /* \"#utility.yul\":956:1019   */\n      swap3\n      pop\n        /* \"#utility.yul\":912:1029   */\n      pop\n        /* \"#utility.yul\":1068:1070   */\n      0x20\n        /* \"#utility.yul\":1094:1147   */\n      tag_63\n        /* \"#utility.yul\":1139:1146   */\n      dup6\n        /* \"#utility.yul\":1130:1136   */\n      dup3\n        /* \"#utility.yul\":1119:1128   */\n      dup7\n        /* \"#utility.yul\":1115:1137   */\n      add\n        /* \"#utility.yul\":1094:1147   */\n      tag_44\n      jump\t// in\n    tag_63:\n        /* \"#utility.yul\":1084:1147   */\n      swap2\n      pop\n        /* \"#utility.yul\":1039:1157   */\n      pop\n        /* \"#utility.yul\":690:1164   */\n      swap3\n      pop\n      swap3\n      swap1\n      pop\n      jump\t// out\n        /* \"#utility.yul\":1170:1288   */\n    tag_45:\n        /* \"#utility.yul\":1257:1281   */\n      tag_65\n        /* \"#utility.yul\":1275:1280   */\n      dup2\n        /* \"#utility.yul\":1257:1281   */\n      tag_42\n      jump\t// in\n    tag_65:\n        /* \"#utility.yul\":1252:1255   */\n      dup3\n        /* \"#utility.yul\":1245:1282   */\n      mstore\n        /* \"#utility.yul\":1170:1288   */\n      pop\n      pop\n      jump\t// out\n        /* \"#utility.yul\":1294:1516   */\n    tag_13:\n        /* \"#utility.yul\":1387:1391   */\n      0x00\n        /* \"#utility.yul\":1425:1427   */\n      0x20\n        /* \"#utility.yul\":1414:1423   */\n      dup3\n        /* \"#utility.yul\":1410:1428   */\n      add\n        /* \"#utility.yul\":1402:1428   */\n      swap1\n      pop\n        /* \"#utility.yul\":1438:1509   */\n      tag_67\n        /* \"#utility.yul\":1506:1507   */\n      0x00\n        /* \"#utility.yul\":1495:1504   */\n      dup4\n        /* \"#utility.yul\":1491:1508   */\n      add\n        /* \"#utility.yul\":1482:1488   */\n      dup5\n        /* \"#utility.yul\":1438:1509   */\n      tag_45\n      jump\t// in\n    tag_67:\n        /* \"#utility.yul\":1294:1516   */\n      swap3\n      swap2\n      pop\n      pop\n      jump\t// out\n        /* \"#utility.yul\":1522:1598   */\n    tag_46:\n        /* \"#utility.yul\":1558:1565   */\n      0x00\n        /* \"#utility.yul\":1587:1592   */\n      dup2\n        /* \"#utility.yul\":1576:1592   */\n      swap1\n      pop\n        /* \"#utility.yul\":1522:1598   */\n      swap2\n      swap1\n      pop\n      jump\t// out\n        /* \"#utility.yul\":1604:1719   */\n    tag_47:\n        /* \"#utility.yul\":1689:1712   */\n      tag_70\n        /* \"#utility.yul\":1706:1711   */\n      dup2\n        /* \"#utility.yul\":1689:1712   */\n      tag_46\n      jump\t// in\n    tag_70:\n        /* \"#utility.yul\":1684:1687   */\n      dup3\n        /* \"#utility.yul\":1677:1713   */\n      mstore\n        /* \"#utility.yul\":1604:1719   */\n      pop\n      pop\n      jump\t// out\n        /* \"#utility.yul\":1725:1943   */\n    tag_27:\n        /* \"#utility.yul\":1816:1820   */\n      0x00\n        /* \"#utility.yul\":1854:1856   */\n      0x20\n        /* \"#utility.yul\":1843:1852   */\n      dup3\n        /* \"#utility.yul\":1839:1857   */\n      add\n        /* \"#utility.yul\":1831:1857   */\n      swap1\n      pop\n        /* \"#utility.yul\":1867:1936   */\n      tag_72\n        /* \"#utility.yul\":1933:1934   */\n      0x00\n        /* \"#utility.yul\":1922:1931   */\n      dup4\n        /* \"#utility.yul\":1918:1935   */\n      add\n        /* \"#utility.yul\":1909:1915   */\n      dup5\n        /* \"#utility.yul\":1867:1936   */\n      tag_47\n      jump\t// in\n    tag_72:\n        /* \"#utility.yul\":1725:1943   */\n      swap3\n      swap2\n      pop\n      pop\n      jump\t// out\n        /* \"#utility.yul\":1949:2129   */\n    tag_48:\n        /* \"#utility.yul\":1997:2074   */\n      0x4e487b7100000000000000000000000000000000000000000000000000000000\n        /* \"#utility.yul\":1994:1995   */\n      0x00\n        /* \"#utility.yul\":1987:2075   */\n      mstore\n        /* \"#utility.yul\":2094:2098   */\n      0x11\n        /* \"#utility.yul\":2091:2092   */\n      0x04\n        /* \"#utility.yul\":2084:2099   */\n      mstore\n        /* \"#utility.yul\":2118:2122   */\n      0x24\n        /* \"#utility.yul\":2115:2116   */\n      0x00\n        /* \"#utility.yul\":2108:2123   */\n      revert\n        /* \"#utility.yul\":2135:2329   */\n    tag_31:\n        /* \"#utility.yul\":2175:2179   */\n      0x00\n        /* \"#utility.yul\":2195:2215   */\n      tag_75\n        /* \"#utility.yul\":2213:2214   */\n      dup3\n        /* \"#utility.yul\":2195:2215   */\n      tag_42\n      jump\t// in\n    tag_75:\n        /* \"#utility.yul\":2190:2215   */\n      swap2\n      pop\n        /* \"#utility.yul\":2229:2249   */\n      tag_76\n        /* \"#utility.yul\":2247:2248   */\n      dup4\n        /* \"#utility.yul\":2229:2249   */\n      tag_42\n      jump\t// in\n    tag_76:\n        /* \"#utility.yul\":2224:2249   */\n      swap3\n      pop\n        /* \"#utility.yul\":2273:2274   */\n      dup3\n        /* \"#utility.yul\":2270:2271   */\n      dup3\n        /* \"#utility.yul\":2266:2275   */\n      sub\n        /* \"#utility.yul\":2258:2275   */\n      swap1\n      pop\n        /* \"#utility.yul\":2297:2298   */\n      dup2\n        /* \"#utility.yul\":2291:2295   */\n      dup2\n        /* \"#utility.yul\":2288:2299   */\n      gt\n        /* \"#utility.yul\":2285:2322   */\n      iszero\n      tag_77\n      jumpi\n        /* \"#utility.yul\":2302:2320   */\n      tag_78\n      tag_48\n      jump\t// in\n    tag_78:\n        /* \"#utility.yul\":2285:2322   */\n    tag_77:\n        /* \"#utility.yul\":2135:2329   */\n      swap3\n      swap2\n      pop\n      pop\n      jump\t// out\n        /* \"#utility.yul\":2335:2745   */\n    tag_35:\n        /* \"#utility.yul\":2375:2382   */\n      0x00\n        /* \"#utility.yul\":2398:2418   */\n      tag_80\n        /* \"#utility.yul\":2416:2417   */\n      dup3\n        /* \"#utility.yul\":2398:2418   */\n      tag_42\n      jump\t// in\n    tag_80:\n        /* \"#utility.yul\":2393:2418   */\n      swap2\n      pop\n        /* \"#utility.yul\":2432:2452   */\n      tag_81\n        /* \"#utility.yul\":2450:2451   */\n      dup4\n        /* \"#utility.yul\":2432:2452   */\n      tag_42\n      jump\t// in\n    tag_81:\n        /* \"#utility.yul\":2427:2452   */\n      swap3\n      pop\n        /* \"#utility.yul\":2487:2488   */\n      dup3\n        /* \"#utility.yul\":2484:2485   */\n      dup3\n        /* \"#utility.yul\":2480:2489   */\n      mul\n        /* \"#utility.yul\":2509:2539   */\n      tag_82\n        /* \"#utility.yul\":2527:2538   */\n      dup2\n        /* \"#utility.yul\":2509:2539   */\n      tag_42\n      jump\t// in\n    tag_82:\n        /* \"#utility.yul\":2498:2539   */\n      swap2\n      pop\n        /* \"#utility.yul\":2688:2689   */\n      dup3\n        /* \"#utility.yul\":2679:2686   */\n      dup3\n        /* \"#utility.yul\":2675:2690   */\n      div\n        /* \"#utility.yul\":2672:2673   */\n      dup5\n        /* \"#utility.yul\":2669:2691   */\n      eq\n        /* \"#utility.yul\":2649:2650   */\n      dup4\n        /* \"#utility.yul\":2642:2651   */\n      iszero\n        /* \"#utility.yul\":2622:2705   */\n      or\n        /* \"#utility.yul\":2599:2738   */\n      tag_83\n      jumpi\n        /* \"#utility.yul\":2718:2736   */\n      tag_84\n      tag_48\n      jump\t// in\n    tag_84:\n        /* \"#utility.yul\":2599:2738   */\n    tag_83:\n        /* \"#utility.yul\":2383:2745   */\n      pop\n        /* \"#utility.yul\":2335:2745   */\n      swap3\n      swap2\n      pop\n      pop\n      jump\t// out\n        /* \"#utility.yul\":2751:2979   */\n    tag_38:\n        /* \"#utility.yul\":2786:2789   */\n      0x00\n        /* \"#utility.yul\":2809:2832   */\n      tag_86\n        /* \"#utility.yul\":2826:2831   */\n      dup3\n        /* \"#utility.yul\":2809:2832   */\n      tag_46\n      jump\t// in\n    tag_86:\n        /* \"#utility.yul\":2800:2832   */\n      swap2\n      pop\n        /* \"#utility.yul\":2854:2920   */\n      0x8000000000000000000000000000000000000000000000000000000000000000\n        /* \"#utility.yul\":2847:2852   */\n      dup3\n        /* \"#utility.yul\":2844:2921   */\n      sub\n        /* \"#utility.yul\":2841:2944   */\n      tag_87\n      jumpi\n        /* \"#utility.yul\":2924:2942   */\n      tag_88\n      tag_48\n      jump\t// in\n    tag_88:\n        /* \"#utility.yul\":2841:2944   */\n    tag_87:\n        /* \"#utility.yul\":2967:2972   */\n      dup2\n        /* \"#utility.yul\":2964:2965   */\n      0x00\n        /* \"#utility.yul\":2960:2973   */\n      sub\n        /* \"#utility.yul\":2953:2973   */\n      swap1\n      pop\n        /* \"#utility.yul\":2751:2979   */\n      swap2\n      swap1\n      pop\n      jump\t// out\n\n    auxdata: 0xa264697066735822122004b9d5462db80db8a0057b3537607b0a9cb88b514da896b298a326468017ab5164736f6c63430008120033\n}\n",
				"bytecode": {
					"linkReferences": {},
					"object": "608060405234801561001057600080fd5b506103d1806100206000396000f3fe608060405234801561001057600080fd5b50600436106100575760003560e01c806313d1aa2e1461005c5780631cd65ae41461008c5780637c0435e9146100bc578063919840ad146100da578063fa629fc5146100f8575b600080fd5b61007660048036038101906100719190610210565b610116565b604051610083919061025f565b60405180910390f35b6100a660048036038101906100a19190610210565b610123565b6040516100b3919061025f565b60405180910390f35b6100c4610139565b6040516100d1919061025f565b60405180910390f35b6100e2610165565b6040516100ef919061025f565b60405180910390f35b610100610199565b60405161010d9190610293565b60405180910390f35b6000818303905092915050565b6000818361013191906102dd565b905092915050565b600060037fffffffffffffffffffffffffffffffffffffffffffffffffffffffffffffffff901b905090565b600060087fffffffffffffffffffffffffffffffffffffffffffffffffffffffffffffffff6101949190610311565b905090565b6000807f800000000000000000000000000000000000000000000000000000000000000090506000816101cb90610353565b9050809250505090565b600080fd5b6000819050919050565b6101ed816101da565b81146101f857600080fd5b50565b60008135905061020a816101e4565b92915050565b60008060408385031215610227576102266101d5565b5b6000610235858286016101fb565b9250506020610246858286016101fb565b9150509250929050565b610259816101da565b82525050565b60006020820190506102746000830184610250565b92915050565b6000819050919050565b61028d8161027a565b82525050565b60006020820190506102a86000830184610284565b92915050565b7f4e487b7100000000000000000000000000000000000000000000000000000000600052601160045260246000fd5b60006102e8826101da565b91506102f3836101da565b925082820390508181111561030b5761030a6102ae565b5b92915050565b600061031c826101da565b9150610327836101da565b9250828202610335816101da565b9150828204841483151761034c5761034b6102ae565b5b5092915050565b600061035e8261027a565b91507f800000000000000000000000000000000000000000000000000000000000000082036103905761038f6102ae565b5b81600003905091905056fea264697066735822122004b9d5462db80db8a0057b3537607b0a9cb88b514da896b298a326468017ab5164736f6c63430008120033",
					"opcodes": "PUSH1 0x80 PUSH1 0x40 MSTORE CALLVALUE DUP1 ISZERO PUSH2 0x10 JUMPI PUSH1 0x0 DUP1 REVERT JUMPDEST POP PUSH2 0x3D1 DUP1 PUSH2 0x20 PUSH1 0x0 CODECOPY PUSH1 0x0 RETURN INVALID PUSH1 0x80 PUSH1 0x40 MSTORE CALLVALUE DUP1 ISZERO PUSH2 0x10 JUMPI PUSH1 0x0 DUP1 REVERT JUMPDEST POP PUSH1 0x4 CALLDATASIZE LT PUSH2 0x57 JUMPI PUSH1 0x0 CALLDATALOAD PUSH1 0xE0 SHR DUP1 PUSH4 0x13D1AA2E EQ PUSH2 0x5C JUMPI DUP1 PUSH4 0x1CD65AE4 EQ PUSH2 0x8C JUMPI DUP1 PUSH4 0x7C0435E9 EQ PUSH2 0xBC JUMPI DUP1 PUSH4 0x919840AD EQ PUSH2 0xDA JUMPI DUP1 PUSH4 0xFA629FC5 EQ PUSH2 0xF8 JUMPI JUMPDEST PUSH1 0x0 DUP1 REVERT JUMPDEST PUSH2 0x76 PUSH1 0x4 DUP1 CALLDATASIZE SUB DUP2 ADD SWAP1 PUSH2 0x71 SWAP2 SWAP1 PUSH2 0x210 JUMP JUMPDEST PUSH2 0x116 JUMP JUMPDEST PUSH1 0x40 MLOAD PUSH2 0x83 SWAP2 SWAP1 PUSH2 0x25F JUMP JUMPDEST PUSH1 0x40 MLOAD DUP1 SWAP2 SUB SWAP1 RETURN JUMPDEST PUSH2 0xA6 PUSH1 0x4 DUP1 CALLDATASIZE SUB DUP2 ADD SWAP1 PUSH2 0xA1 SWAP2 SWAP1 PUSH2 0x210 JUMP JUMPDEST PUSH2 0x123 JUMP JUMPDEST PUSH1 0x40 MLOAD PUSH2 0xB3 SWAP2 SWAP1 PUSH2 0x25F JUMP JUMPDEST PUSH1 0x40 MLOAD DUP1 SWAP2 SUB SWAP1 RETURN JUMPDEST PUSH2 0xC4 PUSH2 0x139 JUMP JUMPDEST PUSH1 0x40 MLOAD PUSH2 0xD1 SWAP2 SWAP1 PUSH2 0x25F JUMP JUMPDEST PUSH1 0x40 MLOAD DUP1 SWAP2 SUB SWAP1 RETURN JUMPDEST PUSH2 0xE2 PUSH2 0x165 JUMP JUMPDEST PUSH1 0x40 MLOAD PUSH2 0xEF SWAP2 SWAP1 PUSH2 0x25F JUMP JUMPDEST PUSH1 0x40 MLOAD DUP1 SWAP2 SUB SWAP1 RETURN JUMPDEST PUSH2 0x100 PUSH2 0x199 JUMP JUMPDEST PUSH1 0x40 MLOAD PUSH2 0x10D SWAP2 SWAP1 PUSH2 0x293 JUMP JUMPDEST PUSH1 0x40 MLOAD DUP1 SWAP2 SUB SWAP1 RETURN JUMPDEST PUSH1 0x0 DUP2 DUP4 SUB SWAP1 POP SWAP3 SWAP2 POP POP JUMP JUMPDEST PUSH1 0x0 DUP2 DUP4 PUSH2 0x131 SWAP2 SWAP1 PUSH2 0x2DD JUMP JUMPDEST SWAP1 POP SWAP3 SWAP2 POP POP JUMP JUMPDEST PUSH1 0x0 PUSH1 0x3 PUSH32 0xFFFFFFFFFFFFFFFFFFFFFFFFFFFFFFFFFFFFFFFFFFFFFFFFFFFFFFFFFFFFFFFF SWAP1 SHL SWAP1 POP SWAP1 JUMP JUMPDEST PUSH1 0x0 PUSH1 0x8 PUSH32 0xFFFFFFFFFFFFFFFFFFFFFFFFFFFFFFFFFFFFFFFFFFFFFFFFFFFFFFFFFFFFFFFF PUSH2 0x194 SWAP2 SWAP1 PUSH2 0x311 JUMP JUMPDEST SWAP1 POP SWAP1 JUMP JUMPDEST PUSH1 0x0 DUP1 PUSH32 0x8000000000000000000000000000000000000000000000000000000000000000 SWAP1 POP PUSH1 0x0 DUP2 PUSH2 0x1CB SWAP1 PUSH2 0x353 JUMP JUMPDEST SWAP1 POP DUP1 SWAP3 POP POP POP SWAP1 JUMP JUMPDEST PUSH1 0x0 DUP1 REVERT JUMPDEST PUSH1 0x0 DUP2 SWAP1 POP SWAP2 SWAP1 POP JUMP JUMPDEST PUSH2 0x1ED DUP2 PUSH2 0x1DA JUMP JUMPDEST DUP2 EQ PUSH2 0x1F8 JUMPI PUSH1 0x0 DUP1 REVERT JUMPDEST POP JUMP JUMPDEST PUSH1 0x0 DUP2 CALLDATALOAD SWAP1 POP PUSH2 0x20A DUP2 PUSH2 0x1E4 JUMP JUMPDEST SWAP3 SWAP2 POP POP JUMP JUMPDEST PUSH1 0x0 DUP1 PUSH1 0x40 DUP4 DUP6 SUB SLT ISZERO PUSH2 0x227 JUMPI PUSH2 0x226 PUSH2 0x1D5 JUMP JUMPDEST JUMPDEST PUSH1 0x0 PUSH2 0x235 DUP6 DUP3 DUP7 ADD PUSH2 0x1FB JUMP JUMPDEST SWAP3 POP POP PUSH1 0x20 PUSH2 0x246 DUP6 DUP3 DUP7 ADD PUSH2 0x1FB JUMP JUMPDEST SWAP2 POP POP SWAP3 POP SWAP3 SWAP1 POP JUMP JUMPDEST PUSH2 0x259 DUP2 PUSH2 0x1DA JUMP JUMPDEST DUP3 MSTORE POP POP JUMP JUMPDEST PUSH1 0x0 PUSH1 0x20 DUP3 ADD SWAP1 POP PUSH2 0x274 PUSH1 0x0 DUP4 ADD DUP5 PUSH2 0x250 JUMP JUMPDEST SWAP3 SWAP2 POP POP JUMP JUMPDEST PUSH1 0x0 DUP2 SWAP1 POP SWAP2 SWAP1 POP JUMP JUMPDEST PUSH2 0x28D DUP2 PUSH2 0x27A JUMP JUMPDEST DUP3 MSTORE POP POP JUMP JUMPDEST PUSH1 0x0 PUSH1 0x20 DUP3 ADD SWAP1 POP PUSH2 0x2A8 PUSH1 0x0 DUP4 ADD DUP5 PUSH2 0x284 JUMP JUMPDEST SWAP3 SWAP2 POP POP JUMP JUMPDEST PUSH32 0x4E487B7100000000000000000000000000000000000000000000000000000000 PUSH1 0x0 MSTORE PUSH1 0x11 PUSH1 0x4 MSTORE PUSH1 0x24 PUSH1 0x0 REVERT JUMPDEST PUSH1 0x0 PUSH2 0x2E8 DUP3 PUSH2 0x1DA JUMP JUMPDEST SWAP2 POP PUSH2 0x2F3 DUP4 PUSH2 0x1DA JUMP JUMPDEST SWAP3 POP DUP3 DUP3 SUB SWAP1 POP DUP2 DUP2 GT ISZERO PUSH2 0x30B JUMPI PUSH2 0x30A PUSH2 0x2AE JUMP JUMPDEST JUMPDEST SWAP3 SWAP2 POP POP JUMP JUMPDEST PUSH1 0x0 PUSH2 0x31C DUP3 PUSH2 0x1DA JUMP JUMPDEST SWAP2 POP PUSH2 0x327 DUP4 PUSH2 0x1DA JUMP JUMPDEST SWAP3 POP DUP3 DUP3 MUL PUSH2 0x335 DUP2 PUSH2 0x1DA JUMP JUMPDEST SWAP2 POP DUP3 DUP3 DIV DUP5 EQ DUP4 ISZERO OR PUSH2 0x34C JUMPI PUSH2 0x34B PUSH2 0x2AE JUMP JUMPDEST JUMPDEST POP SWAP3 SWAP2 POP POP JUMP JUMPDEST PUSH1 0x0 PUSH2 0x35E DUP3 PUSH2 0x27A JUMP JUMPDEST SWAP2 POP PUSH32 0x8000000000000000000000000000000000000000000000000000000000000000 DUP3 SUB PUSH2 0x390 JUMPI PUSH2 0x38F PUSH2 0x2AE JUMP JUMPDEST JUMPDEST DUP2 PUSH1 0x0 SUB SWAP1 POP SWAP2 SWAP1 POP JUMP INVALID LOG2 PUSH5 0x6970667358 0x22 SLT KECCAK256 DIV 0xB9 0xD5 CHAINID 0x2D 0xB8 0xD 0xB8 LOG0 SDIV PUSH28 0x3537607B0A9CB88B514DA896B298A326468017AB5164736F6C634300 ADDMOD SLT STOP CALLER "
				},
				"gasEstimates": {
					"creation": {
						"codeDepositCost": "195400",
						"executionCost": "238",
						"totalCost": "195638"
					},
					"external": {
						"check()": "infinite",
						"f(uint256,uint256)": "infinite",
						"g(uint256,uint256)": "infinite",
						"nagative()": "354",
						"noCheck()": "368"
					}
				},
				"methodIdentifiers": {
					"check()": "919840ad",
					"f(uint256,uint256)": "13d1aa2e",
					"g(uint256,uint256)": "1cd65ae4",
					"nagative()": "fa629fc5",
					"noCheck()": "7c0435e9"
				}
			},
			"storageLayout": {
				"storage": [],
				"types": null
			},
			"userdoc": {
				"kind": "user",
				"methods": {},
				"version": 1
			}
		}
	}
}