{
	"contract-iteratorMapping.sol": {
		"User": {
			"abi": [
				{
					"inputs": [
						{
							"internalType": "uint256",
							"name": "k",
							"type": "uint256"
						},
						{
							"internalType": "uint256",
							"name": "v",
							"type": "uint256"
						}
					],
					"name": "insert",
					"outputs": [
						{
							"internalType": "uint256",
							"name": "size",
							"type": "uint256"
						}
					],
					"stateMutability": "nonpayable",
					"type": "function"
				},
				{
					"inputs": [],
					"name": "sum",
					"outputs": [
						{
							"internalType": "uint256",
							"name": "s",
							"type": "uint256"
						}
					],
					"stateMutability": "view",
					"type": "function"
				}
			],
			"devdoc": {
				"kind": "dev",
				"methods": {},
				"version": 1
			},
			"evm": {
				"assembly": "    /* \"contract-iteratorMapping.sol\":2322:3124  contract User {... */\n  mstore(0x40, 0x80)\n  callvalue\n  dup1\n  iszero\n  tag_1\n  jumpi\n  0x00\n  dup1\n  revert\ntag_1:\n  pop\n  dataSize(sub_0)\n  dup1\n  dataOffset(sub_0)\n  0x00\n  codecopy\n  0x00\n  return\nstop\n\nsub_0: assembly {\n        /* \"contract-iteratorMapping.sol\":2322:3124  contract User {... */\n      mstore(0x40, 0x80)\n      callvalue\n      dup1\n      iszero\n      tag_1\n      jumpi\n      0x00\n      dup1\n      revert\n    tag_1:\n      pop\n      jumpi(tag_2, lt(calldatasize, 0x04))\n      shr(0xe0, calldataload(0x00))\n      dup1\n      0x1d834a1b\n      eq\n      tag_3\n      jumpi\n      dup1\n      0x853255cc\n      eq\n      tag_4\n      jumpi\n    tag_2:\n      0x00\n      dup1\n      revert\n        /* \"contract-iteratorMapping.sol\":2508:2796  function insert(uint k, uint v) public returns (uint size) {... */\n    tag_3:\n      tag_5\n      0x04\n      dup1\n      calldatasize\n      sub\n      dup2\n      add\n      swap1\n      tag_6\n      swap2\n      swap1\n      tag_7\n      jump\t// in\n    tag_6:\n      tag_8\n      jump\t// in\n    tag_5:\n      mload(0x40)\n      tag_9\n      swap2\n      swap1\n      tag_10\n      jump\t// in\n    tag_9:\n      mload(0x40)\n      dup1\n      swap2\n      sub\n      swap1\n      return\n        /* \"contract-iteratorMapping.sol\":2846:3122  function sum() public view returns (uint s) {... */\n    tag_4:\n      tag_11\n      tag_12\n      jump\t// in\n    tag_11:\n      mload(0x40)\n      tag_13\n      swap2\n      swap1\n      tag_10\n      jump\t// in\n    tag_13:\n      mload(0x40)\n      dup1\n      swap2\n      sub\n      swap1\n      return\n        /* \"contract-iteratorMapping.sol\":2508:2796  function insert(uint k, uint v) public returns (uint size) {... */\n    tag_8:\n        /* \"contract-iteratorMapping.sol\":2556:2565  uint size */\n      0x00\n        /* \"contract-iteratorMapping.sol\":2634:2651  data.insert(k, v) */\n      tag_15\n        /* \"contract-iteratorMapping.sol\":2646:2647  k */\n      dup4\n        /* \"contract-iteratorMapping.sol\":2649:2650  v */\n      dup4\n        /* \"contract-iteratorMapping.sol\":2634:2638  data */\n      0x00\n        /* \"contract-iteratorMapping.sol\":2634:2645  data.insert */\n      tag_16\n      swap1\n        /* \"contract-iteratorMapping.sol\":2634:2651  data.insert(k, v) */\n      swap3\n      swap2\n      swap1\n      0xffffffff\n      and\n      jump\t// in\n    tag_15:\n      pop\n        /* \"contract-iteratorMapping.sol\":2780:2784  data */\n      0x00\n        /* \"contract-iteratorMapping.sol\":2780:2789  data.size */\n      0x02\n      add\n      sload\n        /* \"contract-iteratorMapping.sol\":2773:2789  return data.size */\n      swap1\n      pop\n        /* \"contract-iteratorMapping.sol\":2508:2796  function insert(uint k, uint v) public returns (uint size) {... */\n      swap3\n      swap2\n      pop\n      pop\n      jump\t// out\n        /* \"contract-iteratorMapping.sol\":2846:3122  function sum() public view returns (uint s) {... */\n    tag_12:\n        /* \"contract-iteratorMapping.sol\":2882:2888  uint s */\n      0x00\n        /* \"contract-iteratorMapping.sol\":2918:2928  Iterator i */\n      dup1\n        /* \"contract-iteratorMapping.sol\":2931:2950  data.iterateStart() */\n      tag_21\n        /* \"contract-iteratorMapping.sol\":2931:2935  data */\n      0x00\n        /* \"contract-iteratorMapping.sol\":2931:2948  data.iterateStart */\n      tag_22\n        /* \"contract-iteratorMapping.sol\":2931:2950  data.iterateStart() */\n      jump\t// in\n    tag_21:\n        /* \"contract-iteratorMapping.sol\":2918:2950  Iterator i = data.iterateStart() */\n      swap1\n      pop\n        /* \"contract-iteratorMapping.sol\":2900:3116  for (... */\n    tag_18:\n        /* \"contract-iteratorMapping.sol\":2964:2984  data.iterateValid(i) */\n      tag_23\n        /* \"contract-iteratorMapping.sol\":2982:2983  i */\n      dup2\n        /* \"contract-iteratorMapping.sol\":2964:2968  data */\n      0x00\n        /* \"contract-iteratorMapping.sol\":2964:2981  data.iterateValid */\n      tag_24\n      swap1\n        /* \"contract-iteratorMapping.sol\":2964:2984  data.iterateValid(i) */\n      swap2\n      swap1\n      0xffffffff\n      and\n      jump\t// in\n    tag_23:\n        /* \"contract-iteratorMapping.sol\":2900:3116  for (... */\n      iszero\n      tag_19\n      jumpi\n        /* \"contract-iteratorMapping.sol\":3049:3059  uint value */\n      0x00\n        /* \"contract-iteratorMapping.sol\":3063:3081  data.iterateGet(i) */\n      tag_25\n        /* \"contract-iteratorMapping.sol\":3079:3080  i */\n      dup3\n        /* \"contract-iteratorMapping.sol\":3063:3067  data */\n      0x00\n        /* \"contract-iteratorMapping.sol\":3063:3078  data.iterateGet */\n      tag_26\n      swap1\n        /* \"contract-iteratorMapping.sol\":3063:3081  data.iterateGet(i) */\n      swap2\n      swap1\n      0xffffffff\n      and\n      jump\t// in\n    tag_25:\n        /* \"contract-iteratorMapping.sol\":3046:3081  (, uint value) = data.iterateGet(i) */\n      swap2\n      pop\n      pop\n        /* \"contract-iteratorMapping.sol\":3100:3105  value */\n      dup1\n        /* \"contract-iteratorMapping.sol\":3095:3105  s += value */\n      dup4\n      tag_27\n      swap2\n      swap1\n      tag_28\n      jump\t// in\n    tag_27:\n      swap3\n      pop\n        /* \"contract-iteratorMapping.sol\":3032:3116  {... */\n      pop\n        /* \"contract-iteratorMapping.sol\":3002:3021  data.iterateNext(i) */\n      tag_29\n        /* \"contract-iteratorMapping.sol\":3019:3020  i */\n      dup2\n        /* \"contract-iteratorMapping.sol\":3002:3006  data */\n      0x00\n        /* \"contract-iteratorMapping.sol\":3002:3018  data.iterateNext */\n      tag_30\n      swap1\n        /* \"contract-iteratorMapping.sol\":3002:3021  data.iterateNext(i) */\n      swap2\n      swap1\n      0xffffffff\n      and\n      jump\t// in\n    tag_29:\n        /* \"contract-iteratorMapping.sol\":2998:3021  i = data.iterateNext(i) */\n      swap1\n      pop\n        /* \"contract-iteratorMapping.sol\":2900:3116  for (... */\n      jump(tag_18)\n    tag_19:\n      pop\n        /* \"contract-iteratorMapping.sol\":2846:3122  function sum() public view returns (uint s) {... */\n      swap1\n      jump\t// out\n        /* \"contract-iteratorMapping.sol\":337:815  function insert(itmap storage self, uint key, uint value) internal returns (bool replaced) {... */\n    tag_16:\n        /* \"contract-iteratorMapping.sol\":413:426  bool replaced */\n      0x00\n        /* \"contract-iteratorMapping.sol\":438:451  uint keyIndex */\n      dup1\n        /* \"contract-iteratorMapping.sol\":454:458  self */\n      dup5\n        /* \"contract-iteratorMapping.sol\":454:463  self.data */\n      0x00\n      add\n        /* \"contract-iteratorMapping.sol\":454:468  self.data[key] */\n      0x00\n        /* \"contract-iteratorMapping.sol\":464:467  key */\n      dup6\n        /* \"contract-iteratorMapping.sol\":454:468  self.data[key] */\n      dup2\n      mstore\n      0x20\n      add\n      swap1\n      dup2\n      mstore\n      0x20\n      add\n      0x00\n      keccak256\n        /* \"contract-iteratorMapping.sol\":454:477  self.data[key].keyIndex */\n      0x00\n      add\n      sload\n        /* \"contract-iteratorMapping.sol\":438:477  uint keyIndex = self.data[key].keyIndex */\n      swap1\n      pop\n        /* \"contract-iteratorMapping.sol\":510:515  value */\n      dup3\n        /* \"contract-iteratorMapping.sol\":487:491  self */\n      dup6\n        /* \"contract-iteratorMapping.sol\":487:496  self.data */\n      0x00\n      add\n        /* \"contract-iteratorMapping.sol\":487:501  self.data[key] */\n      0x00\n        /* \"contract-iteratorMapping.sol\":497:500  key */\n      dup7\n        /* \"contract-iteratorMapping.sol\":487:501  self.data[key] */\n      dup2\n      mstore\n      0x20\n      add\n      swap1\n      dup2\n      mstore\n      0x20\n      add\n      0x00\n      keccak256\n        /* \"contract-iteratorMapping.sol\":487:507  self.data[key].value */\n      0x01\n      add\n        /* \"contract-iteratorMapping.sol\":487:515  self.data[key].value = value */\n      dup2\n      swap1\n      sstore\n      pop\n        /* \"contract-iteratorMapping.sol\":540:541  0 */\n      0x00\n        /* \"contract-iteratorMapping.sol\":529:537  keyIndex */\n      dup2\n        /* \"contract-iteratorMapping.sol\":529:541  keyIndex > 0 */\n      gt\n        /* \"contract-iteratorMapping.sol\":525:809  if (keyIndex > 0)... */\n      iszero\n      tag_32\n      jumpi\n        /* \"contract-iteratorMapping.sol\":562:566  true */\n      0x01\n        /* \"contract-iteratorMapping.sol\":555:566  return true */\n      swap2\n      pop\n      pop\n      jump(tag_31)\n        /* \"contract-iteratorMapping.sol\":525:809  if (keyIndex > 0)... */\n    tag_32:\n        /* \"contract-iteratorMapping.sol\":606:610  self */\n      dup5\n        /* \"contract-iteratorMapping.sol\":606:615  self.keys */\n      0x01\n      add\n        /* \"contract-iteratorMapping.sol\":606:622  self.keys.length */\n      dup1\n      sload\n      swap1\n      pop\n        /* \"contract-iteratorMapping.sol\":595:622  keyIndex = self.keys.length */\n      swap1\n      pop\n        /* \"contract-iteratorMapping.sol\":636:640  self */\n      dup5\n        /* \"contract-iteratorMapping.sol\":636:645  self.keys */\n      0x01\n      add\n        /* \"contract-iteratorMapping.sol\":636:652  self.keys.push() */\n      0x01\n      dup2\n      0x01\n      dup2\n      sload\n      add\n      dup1\n      dup3\n      sstore\n      dup1\n      swap2\n      pop\n      pop\n      sub\n      swap1\n      0x00\n      mstore\n      keccak256(0x00, 0x20)\n      swap1\n      pop\n      pop\n        /* \"contract-iteratorMapping.sol\":703:704  1 */\n      0x01\n        /* \"contract-iteratorMapping.sol\":692:700  keyIndex */\n      dup2\n        /* \"contract-iteratorMapping.sol\":692:704  keyIndex + 1 */\n      tag_35\n      swap2\n      swap1\n      tag_28\n      jump\t// in\n    tag_35:\n        /* \"contract-iteratorMapping.sol\":666:670  self */\n      dup6\n        /* \"contract-iteratorMapping.sol\":666:675  self.data */\n      0x00\n      add\n        /* \"contract-iteratorMapping.sol\":666:680  self.data[key] */\n      0x00\n        /* \"contract-iteratorMapping.sol\":676:679  key */\n      dup7\n        /* \"contract-iteratorMapping.sol\":666:680  self.data[key] */\n      dup2\n      mstore\n      0x20\n      add\n      swap1\n      dup2\n      mstore\n      0x20\n      add\n      0x00\n      keccak256\n        /* \"contract-iteratorMapping.sol\":666:689  self.data[key].keyIndex */\n      0x00\n      add\n        /* \"contract-iteratorMapping.sol\":666:704  self.data[key].keyIndex = keyIndex + 1 */\n      dup2\n      swap1\n      sstore\n      pop\n        /* \"contract-iteratorMapping.sol\":744:747  key */\n      dup4\n        /* \"contract-iteratorMapping.sol\":718:722  self */\n      dup6\n        /* \"contract-iteratorMapping.sol\":718:727  self.keys */\n      0x01\n      add\n        /* \"contract-iteratorMapping.sol\":728:736  keyIndex */\n      dup3\n        /* \"contract-iteratorMapping.sol\":718:737  self.keys[keyIndex] */\n      dup2\n      sload\n      dup2\n      lt\n      tag_36\n      jumpi\n      tag_37\n      tag_38\n      jump\t// in\n    tag_37:\n    tag_36:\n      swap1\n      0x00\n      mstore\n      keccak256(0x00, 0x20)\n      swap1\n      0x02\n      mul\n      add\n        /* \"contract-iteratorMapping.sol\":718:741  self.keys[keyIndex].key */\n      0x00\n      add\n        /* \"contract-iteratorMapping.sol\":718:747  self.keys[keyIndex].key = key */\n      dup2\n      swap1\n      sstore\n      pop\n        /* \"contract-iteratorMapping.sol\":761:765  self */\n      dup5\n        /* \"contract-iteratorMapping.sol\":761:770  self.size */\n      0x02\n      add\n      0x00\n        /* \"contract-iteratorMapping.sol\":761:772  self.size++ */\n      dup2\n      sload\n      dup1\n      swap3\n      swap2\n      swap1\n      tag_40\n      swap1\n      tag_41\n      jump\t// in\n    tag_40:\n      swap2\n      swap1\n      pop\n      sstore\n      pop\n        /* \"contract-iteratorMapping.sol\":793:798  false */\n      0x00\n        /* \"contract-iteratorMapping.sol\":786:798  return false */\n      swap2\n      pop\n      pop\n        /* \"contract-iteratorMapping.sol\":337:815  function insert(itmap storage self, uint key, uint value) internal returns (bool replaced) {... */\n    tag_31:\n      swap4\n      swap3\n      pop\n      pop\n      pop\n      jump\t// out\n        /* \"contract-iteratorMapping.sol\":1315:1442  function iterateStart(itmap storage self) internal view returns (Iterator) {... */\n    tag_22:\n        /* \"contract-iteratorMapping.sol\":1380:1388  Iterator */\n      0x00\n        /* \"contract-iteratorMapping.sol\":1407:1435  iteratorSkipDeleted(self, 0) */\n      tag_43\n        /* \"contract-iteratorMapping.sol\":1427:1431  self */\n      dup3\n        /* \"contract-iteratorMapping.sol\":1433:1434  0 */\n      0x00\n        /* \"contract-iteratorMapping.sol\":1407:1426  iteratorSkipDeleted */\n      tag_44\n        /* \"contract-iteratorMapping.sol\":1407:1435  iteratorSkipDeleted(self, 0) */\n      jump\t// in\n    tag_43:\n        /* \"contract-iteratorMapping.sol\":1400:1435  return iteratorSkipDeleted(self, 0) */\n      swap1\n      pop\n        /* \"contract-iteratorMapping.sol\":1315:1442  function iterateStart(itmap storage self) internal view returns (Iterator) {... */\n      swap2\n      swap1\n      pop\n      jump\t// out\n        /* \"contract-iteratorMapping.sol\":1448:1606  function iterateValid(itmap storage self, Iterator iterator) internal view returns (bool) {... */\n    tag_24:\n        /* \"contract-iteratorMapping.sol\":1532:1536  bool */\n      0x00\n        /* \"contract-iteratorMapping.sol\":1583:1587  self */\n      dup3\n        /* \"contract-iteratorMapping.sol\":1583:1592  self.keys */\n      0x01\n      add\n        /* \"contract-iteratorMapping.sol\":1583:1599  self.keys.length */\n      dup1\n      sload\n      swap1\n      pop\n        /* \"contract-iteratorMapping.sol\":1571:1579  iterator */\n      dup3\n        /* \"contract-iteratorMapping.sol\":1555:1599  Iterator.unwrap(iterator) < self.keys.length */\n      lt\n        /* \"contract-iteratorMapping.sol\":1548:1599  return Iterator.unwrap(iterator) < self.keys.length */\n      swap1\n      pop\n        /* \"contract-iteratorMapping.sol\":1448:1606  function iterateValid(itmap storage self, Iterator iterator) internal view returns (bool) {... */\n      swap3\n      swap2\n      pop\n      pop\n      jump\t// out\n        /* \"contract-iteratorMapping.sol\":1791:2030  function iterateGet(itmap storage self, Iterator iterator) internal view returns (uint key, uint value) {... */\n    tag_26:\n        /* \"contract-iteratorMapping.sol\":1873:1881  uint key */\n      0x00\n        /* \"contract-iteratorMapping.sol\":1883:1893  uint value */\n      dup1\n        /* \"contract-iteratorMapping.sol\":1905:1918  uint keyIndex */\n      0x00\n        /* \"contract-iteratorMapping.sol\":1937:1945  iterator */\n      dup4\n        /* \"contract-iteratorMapping.sol\":1905:1946  uint keyIndex = Iterator.unwrap(iterator) */\n      swap1\n      pop\n        /* \"contract-iteratorMapping.sol\":1962:1966  self */\n      dup5\n        /* \"contract-iteratorMapping.sol\":1962:1971  self.keys */\n      0x01\n      add\n        /* \"contract-iteratorMapping.sol\":1972:1980  keyIndex */\n      dup2\n        /* \"contract-iteratorMapping.sol\":1962:1981  self.keys[keyIndex] */\n      dup2\n      sload\n      dup2\n      lt\n      tag_47\n      jumpi\n      tag_48\n      tag_38\n      jump\t// in\n    tag_48:\n    tag_47:\n      swap1\n      0x00\n      mstore\n      keccak256(0x00, 0x20)\n      swap1\n      0x02\n      mul\n      add\n        /* \"contract-iteratorMapping.sol\":1962:1985  self.keys[keyIndex].key */\n      0x00\n      add\n      sload\n        /* \"contract-iteratorMapping.sol\":1956:1985  key = self.keys[keyIndex].key */\n      swap3\n      pop\n        /* \"contract-iteratorMapping.sol\":2003:2007  self */\n      dup5\n        /* \"contract-iteratorMapping.sol\":2003:2012  self.data */\n      0x00\n      add\n        /* \"contract-iteratorMapping.sol\":2003:2017  self.data[key] */\n      0x00\n        /* \"contract-iteratorMapping.sol\":2013:2016  key */\n      dup5\n        /* \"contract-iteratorMapping.sol\":2003:2017  self.data[key] */\n      dup2\n      mstore\n      0x20\n      add\n      swap1\n      dup2\n      mstore\n      0x20\n      add\n      0x00\n      keccak256\n        /* \"contract-iteratorMapping.sol\":2003:2023  self.data[key].value */\n      0x01\n      add\n      sload\n        /* \"contract-iteratorMapping.sol\":1995:2023  value = self.data[key].value */\n      swap2\n      pop\n        /* \"contract-iteratorMapping.sol\":1895:2030  {... */\n      pop\n        /* \"contract-iteratorMapping.sol\":1791:2030  function iterateGet(itmap storage self, Iterator iterator) internal view returns (uint key, uint value) {... */\n      swap3\n      pop\n      swap3\n      swap1\n      pop\n      jump\t// out\n        /* \"contract-iteratorMapping.sol\":1612:1785  function iterateNext(itmap storage self, Iterator iterator) internal view returns (Iterator) {... */\n    tag_30:\n        /* \"contract-iteratorMapping.sol\":1695:1703  Iterator */\n      0x00\n        /* \"contract-iteratorMapping.sol\":1722:1778  iteratorSkipDeleted(self, Iterator.unwrap(iterator) + 1) */\n      tag_51\n        /* \"contract-iteratorMapping.sol\":1742:1746  self */\n      dup4\n        /* \"contract-iteratorMapping.sol\":1776:1777  1 */\n      0x01\n        /* \"contract-iteratorMapping.sol\":1764:1772  iterator */\n      dup5\n        /* \"contract-iteratorMapping.sol\":1748:1777  Iterator.unwrap(iterator) + 1 */\n      tag_52\n      swap2\n      swap1\n      tag_28\n      jump\t// in\n    tag_52:\n        /* \"contract-iteratorMapping.sol\":1722:1741  iteratorSkipDeleted */\n      tag_44\n        /* \"contract-iteratorMapping.sol\":1722:1778  iteratorSkipDeleted(self, Iterator.unwrap(iterator) + 1) */\n      jump\t// in\n    tag_51:\n        /* \"contract-iteratorMapping.sol\":1715:1778  return iteratorSkipDeleted(self, Iterator.unwrap(iterator) + 1) */\n      swap1\n      pop\n        /* \"contract-iteratorMapping.sol\":1612:1785  function iterateNext(itmap storage self, Iterator iterator) internal view returns (Iterator) {... */\n      swap3\n      swap2\n      pop\n      pop\n      jump\t// out\n        /* \"contract-iteratorMapping.sol\":2059:2301  function iteratorSkipDeleted(itmap storage self, uint keyIndex) private view returns (Iterator) {... */\n    tag_44:\n        /* \"contract-iteratorMapping.sol\":2145:2153  Iterator */\n      0x00\n        /* \"contract-iteratorMapping.sol\":2165:2254  while (keyIndex < self.keys.length && self.keys[keyIndex].deleted)... */\n    tag_54:\n        /* \"contract-iteratorMapping.sol\":2183:2187  self */\n      dup3\n        /* \"contract-iteratorMapping.sol\":2183:2192  self.keys */\n      0x01\n      add\n        /* \"contract-iteratorMapping.sol\":2183:2199  self.keys.length */\n      dup1\n      sload\n      swap1\n      pop\n        /* \"contract-iteratorMapping.sol\":2172:2180  keyIndex */\n      dup3\n        /* \"contract-iteratorMapping.sol\":2172:2199  keyIndex < self.keys.length */\n      lt\n        /* \"contract-iteratorMapping.sol\":2172:2230  keyIndex < self.keys.length && self.keys[keyIndex].deleted */\n      dup1\n      iszero\n      tag_56\n      jumpi\n      pop\n        /* \"contract-iteratorMapping.sol\":2203:2207  self */\n      dup3\n        /* \"contract-iteratorMapping.sol\":2203:2212  self.keys */\n      0x01\n      add\n        /* \"contract-iteratorMapping.sol\":2213:2221  keyIndex */\n      dup3\n        /* \"contract-iteratorMapping.sol\":2203:2222  self.keys[keyIndex] */\n      dup2\n      sload\n      dup2\n      lt\n      tag_57\n      jumpi\n      tag_58\n      tag_38\n      jump\t// in\n    tag_58:\n    tag_57:\n      swap1\n      0x00\n      mstore\n      keccak256(0x00, 0x20)\n      swap1\n      0x02\n      mul\n      add\n        /* \"contract-iteratorMapping.sol\":2203:2230  self.keys[keyIndex].deleted */\n      0x01\n      add\n      0x00\n      swap1\n      sload\n      swap1\n      0x0100\n      exp\n      swap1\n      div\n      0xff\n      and\n        /* \"contract-iteratorMapping.sol\":2172:2230  keyIndex < self.keys.length && self.keys[keyIndex].deleted */\n    tag_56:\n        /* \"contract-iteratorMapping.sol\":2165:2254  while (keyIndex < self.keys.length && self.keys[keyIndex].deleted)... */\n      iszero\n      tag_55\n      jumpi\n        /* \"contract-iteratorMapping.sol\":2244:2254  keyIndex++ */\n      dup2\n      dup1\n      tag_60\n      swap1\n      tag_41\n      jump\t// in\n    tag_60:\n      swap3\n      pop\n      pop\n        /* \"contract-iteratorMapping.sol\":2165:2254  while (keyIndex < self.keys.length && self.keys[keyIndex].deleted)... */\n      jump(tag_54)\n    tag_55:\n        /* \"contract-iteratorMapping.sol\":2285:2293  keyIndex */\n      dup2\n        /* \"contract-iteratorMapping.sol\":2264:2294  return Iterator.wrap(keyIndex) */\n      swap1\n      pop\n        /* \"contract-iteratorMapping.sol\":2059:2301  function iteratorSkipDeleted(itmap storage self, uint keyIndex) private view returns (Iterator) {... */\n      swap3\n      swap2\n      pop\n      pop\n      jump\t// out\n        /* \"#utility.yul\":88:205   */\n    tag_62:\n        /* \"#utility.yul\":197:198   */\n      0x00\n        /* \"#utility.yul\":194:195   */\n      dup1\n        /* \"#utility.yul\":187:199   */\n      revert\n        /* \"#utility.yul\":334:411   */\n    tag_64:\n        /* \"#utility.yul\":371:378   */\n      0x00\n        /* \"#utility.yul\":400:405   */\n      dup2\n        /* \"#utility.yul\":389:405   */\n      swap1\n      pop\n        /* \"#utility.yul\":334:411   */\n      swap2\n      swap1\n      pop\n      jump\t// out\n        /* \"#utility.yul\":417:539   */\n    tag_65:\n        /* \"#utility.yul\":490:514   */\n      tag_75\n        /* \"#utility.yul\":508:513   */\n      dup2\n        /* \"#utility.yul\":490:514   */\n      tag_64\n      jump\t// in\n    tag_75:\n        /* \"#utility.yul\":483:488   */\n      dup2\n        /* \"#utility.yul\":480:515   */\n      eq\n        /* \"#utility.yul\":470:533   */\n      tag_76\n      jumpi\n        /* \"#utility.yul\":529:530   */\n      0x00\n        /* \"#utility.yul\":526:527   */\n      dup1\n        /* \"#utility.yul\":519:531   */\n      revert\n        /* \"#utility.yul\":470:533   */\n    tag_76:\n        /* \"#utility.yul\":417:539   */\n      pop\n      jump\t// out\n        /* \"#utility.yul\":545:684   */\n    tag_66:\n        /* \"#utility.yul\":591:596   */\n      0x00\n        /* \"#utility.yul\":629:635   */\n      dup2\n        /* \"#utility.yul\":616:636   */\n      calldataload\n        /* \"#utility.yul\":607:636   */\n      swap1\n      pop\n        /* \"#utility.yul\":645:678   */\n      tag_78\n        /* \"#utility.yul\":672:677   */\n      dup2\n        /* \"#utility.yul\":645:678   */\n      tag_65\n      jump\t// in\n    tag_78:\n        /* \"#utility.yul\":545:684   */\n      swap3\n      swap2\n      pop\n      pop\n      jump\t// out\n        /* \"#utility.yul\":690:1164   */\n    tag_7:\n        /* \"#utility.yul\":758:764   */\n      0x00\n        /* \"#utility.yul\":766:772   */\n      dup1\n        /* \"#utility.yul\":815:817   */\n      0x40\n        /* \"#utility.yul\":803:812   */\n      dup4\n        /* \"#utility.yul\":794:801   */\n      dup6\n        /* \"#utility.yul\":790:813   */\n      sub\n        /* \"#utility.yul\":786:818   */\n      slt\n        /* \"#utility.yul\":783:902   */\n      iszero\n      tag_80\n      jumpi\n        /* \"#utility.yul\":821:900   */\n      tag_81\n      tag_62\n      jump\t// in\n    tag_81:\n        /* \"#utility.yul\":783:902   */\n    tag_80:\n        /* \"#utility.yul\":941:942   */\n      0x00\n        /* \"#utility.yul\":966:1019   */\n      tag_82\n        /* \"#utility.yul\":1011:1018   */\n      dup6\n        /* \"#utility.yul\":1002:1008   */\n      dup3\n        /* \"#utility.yul\":991:1000   */\n      dup7\n        /* \"#utility.yul\":987:1009   */\n      add\n        /* \"#utility.yul\":966:1019   */\n      tag_66\n      jump\t// in\n    tag_82:\n        /* \"#utility.yul\":956:1019   */\n      swap3\n      pop\n        /* \"#utility.yul\":912:1029   */\n      pop\n        /* \"#utility.yul\":1068:1070   */\n      0x20\n        /* \"#utility.yul\":1094:1147   */\n      tag_83\n        /* \"#utility.yul\":1139:1146   */\n      dup6\n        /* \"#utility.yul\":1130:1136   */\n      dup3\n        /* \"#utility.yul\":1119:1128   */\n      dup7\n        /* \"#utility.yul\":1115:1137   */\n      add\n        /* \"#utility.yul\":1094:1147   */\n      tag_66\n      jump\t// in\n    tag_83:\n        /* \"#utility.yul\":1084:1147   */\n      swap2\n      pop\n        /* \"#utility.yul\":1039:1157   */\n      pop\n        /* \"#utility.yul\":690:1164   */\n      swap3\n      pop\n      swap3\n      swap1\n      pop\n      jump\t// out\n        /* \"#utility.yul\":1170:1288   */\n    tag_67:\n        /* \"#utility.yul\":1257:1281   */\n      tag_85\n        /* \"#utility.yul\":1275:1280   */\n      dup2\n        /* \"#utility.yul\":1257:1281   */\n      tag_64\n      jump\t// in\n    tag_85:\n        /* \"#utility.yul\":1252:1255   */\n      dup3\n        /* \"#utility.yul\":1245:1282   */\n      mstore\n        /* \"#utility.yul\":1170:1288   */\n      pop\n      pop\n      jump\t// out\n        /* \"#utility.yul\":1294:1516   */\n    tag_10:\n        /* \"#utility.yul\":1387:1391   */\n      0x00\n        /* \"#utility.yul\":1425:1427   */\n      0x20\n        /* \"#utility.yul\":1414:1423   */\n      dup3\n        /* \"#utility.yul\":1410:1428   */\n      add\n        /* \"#utility.yul\":1402:1428   */\n      swap1\n      pop\n        /* \"#utility.yul\":1438:1509   */\n      tag_87\n        /* \"#utility.yul\":1506:1507   */\n      0x00\n        /* \"#utility.yul\":1495:1504   */\n      dup4\n        /* \"#utility.yul\":1491:1508   */\n      add\n        /* \"#utility.yul\":1482:1488   */\n      dup5\n        /* \"#utility.yul\":1438:1509   */\n      tag_67\n      jump\t// in\n    tag_87:\n        /* \"#utility.yul\":1294:1516   */\n      swap3\n      swap2\n      pop\n      pop\n      jump\t// out\n        /* \"#utility.yul\":1522:1702   */\n    tag_68:\n        /* \"#utility.yul\":1570:1647   */\n      0x4e487b7100000000000000000000000000000000000000000000000000000000\n        /* \"#utility.yul\":1567:1568   */\n      0x00\n        /* \"#utility.yul\":1560:1648   */\n      mstore\n        /* \"#utility.yul\":1667:1671   */\n      0x11\n        /* \"#utility.yul\":1664:1665   */\n      0x04\n        /* \"#utility.yul\":1657:1672   */\n      mstore\n        /* \"#utility.yul\":1691:1695   */\n      0x24\n        /* \"#utility.yul\":1688:1689   */\n      0x00\n        /* \"#utility.yul\":1681:1696   */\n      revert\n        /* \"#utility.yul\":1708:1899   */\n    tag_28:\n        /* \"#utility.yul\":1748:1751   */\n      0x00\n        /* \"#utility.yul\":1767:1787   */\n      tag_90\n        /* \"#utility.yul\":1785:1786   */\n      dup3\n        /* \"#utility.yul\":1767:1787   */\n      tag_64\n      jump\t// in\n    tag_90:\n        /* \"#utility.yul\":1762:1787   */\n      swap2\n      pop\n        /* \"#utility.yul\":1801:1821   */\n      tag_91\n        /* \"#utility.yul\":1819:1820   */\n      dup4\n        /* \"#utility.yul\":1801:1821   */\n      tag_64\n      jump\t// in\n    tag_91:\n        /* \"#utility.yul\":1796:1821   */\n      swap3\n      pop\n        /* \"#utility.yul\":1844:1845   */\n      dup3\n        /* \"#utility.yul\":1841:1842   */\n      dup3\n        /* \"#utility.yul\":1837:1846   */\n      add\n        /* \"#utility.yul\":1830:1846   */\n      swap1\n      pop\n        /* \"#utility.yul\":1865:1868   */\n      dup1\n        /* \"#utility.yul\":1862:1863   */\n      dup3\n        /* \"#utility.yul\":1859:1869   */\n      gt\n        /* \"#utility.yul\":1856:1892   */\n      iszero\n      tag_92\n      jumpi\n        /* \"#utility.yul\":1872:1890   */\n      tag_93\n      tag_68\n      jump\t// in\n    tag_93:\n        /* \"#utility.yul\":1856:1892   */\n    tag_92:\n        /* \"#utility.yul\":1708:1899   */\n      swap3\n      swap2\n      pop\n      pop\n      jump\t// out\n        /* \"#utility.yul\":1905:2085   */\n    tag_38:\n        /* \"#utility.yul\":1953:2030   */\n      0x4e487b7100000000000000000000000000000000000000000000000000000000\n        /* \"#utility.yul\":1950:1951   */\n      0x00\n        /* \"#utility.yul\":1943:2031   */\n      mstore\n        /* \"#utility.yul\":2050:2054   */\n      0x32\n        /* \"#utility.yul\":2047:2048   */\n      0x04\n        /* \"#utility.yul\":2040:2055   */\n      mstore\n        /* \"#utility.yul\":2074:2078   */\n      0x24\n        /* \"#utility.yul\":2071:2072   */\n      0x00\n        /* \"#utility.yul\":2064:2079   */\n      revert\n        /* \"#utility.yul\":2091:2324   */\n    tag_41:\n        /* \"#utility.yul\":2130:2133   */\n      0x00\n        /* \"#utility.yul\":2153:2177   */\n      tag_96\n        /* \"#utility.yul\":2171:2176   */\n      dup3\n        /* \"#utility.yul\":2153:2177   */\n      tag_64\n      jump\t// in\n    tag_96:\n        /* \"#utility.yul\":2144:2177   */\n      swap2\n      pop\n        /* \"#utility.yul\":2199:2265   */\n      0xffffffffffffffffffffffffffffffffffffffffffffffffffffffffffffffff\n        /* \"#utility.yul\":2192:2197   */\n      dup3\n        /* \"#utility.yul\":2189:2266   */\n      sub\n        /* \"#utility.yul\":2186:2289   */\n      tag_97\n      jumpi\n        /* \"#utility.yul\":2269:2287   */\n      tag_98\n      tag_68\n      jump\t// in\n    tag_98:\n        /* \"#utility.yul\":2186:2289   */\n    tag_97:\n        /* \"#utility.yul\":2316:2317   */\n      0x01\n        /* \"#utility.yul\":2309:2314   */\n      dup3\n        /* \"#utility.yul\":2305:2318   */\n      add\n        /* \"#utility.yul\":2298:2318   */\n      swap1\n      pop\n        /* \"#utility.yul\":2091:2324   */\n      swap2\n      swap1\n      pop\n      jump\t// out\n\n    auxdata: 0xa2646970667358221220466670711d8c5370cb232fd2f23cad9c1b349bb5a06ba2fb8b119f36ad911fc064736f6c63430008120033\n}\n",
				"bytecode": {
					"linkReferences": {},
					"object": "608060405234801561001057600080fd5b506104d1806100206000396000f3fe608060405234801561001057600080fd5b50600436106100365760003560e01c80631d834a1b1461003b578063853255cc1461006b575b600080fd5b61005560048036038101906100509190610357565b610089565b60405161006291906103a6565b60405180910390f35b6100736100b0565b60405161008091906103a6565b60405180910390f35b60006100a1838360006101209092919063ffffffff16565b50600060020154905092915050565b6000806100bd6000610214565b90505b6100d481600061022890919063ffffffff16565b1561011c5760006100ef82600061023c90919063ffffffff16565b91505080836100fe91906103f0565b92505061011581600061029190919063ffffffff16565b90506100c0565b5090565b6000808460000160008581526020019081526020016000206000015490508285600001600086815260200190815260200160002060010181905550600081111561016e57600191505061020d565b8460010180549050905084600101600181600181540180825580915050039060005260206000209050506001816101a591906103f0565b85600001600086815260200190815260200160002060000181905550838560010182815481106101d8576101d7610424565b5b90600052602060002090600202016000018190555084600201600081548092919061020290610453565b919050555060009150505b9392505050565b60006102218260006102b1565b9050919050565b600082600101805490508210905092915050565b600080600083905084600101818154811061025a57610259610424565b5b9060005260206000209060020201600001549250846000016000848152602001908152602001600020600101549150509250929050565b60006102a9836001846102a491906103f0565b6102b1565b905092915050565b60005b8260010180549050821080156102fb57508260010182815481106102db576102da610424565b5b906000526020600020906002020160010160009054906101000a900460ff165b1561031357818061030b90610453565b9250506102b4565b81905092915050565b600080fd5b6000819050919050565b61033481610321565b811461033f57600080fd5b50565b6000813590506103518161032b565b92915050565b6000806040838503121561036e5761036d61031c565b5b600061037c85828601610342565b925050602061038d85828601610342565b9150509250929050565b6103a081610321565b82525050565b60006020820190506103bb6000830184610397565b92915050565b7f4e487b7100000000000000000000000000000000000000000000000000000000600052601160045260246000fd5b60006103fb82610321565b915061040683610321565b925082820190508082111561041e5761041d6103c1565b5b92915050565b7f4e487b7100000000000000000000000000000000000000000000000000000000600052603260045260246000fd5b600061045e82610321565b91507fffffffffffffffffffffffffffffffffffffffffffffffffffffffffffffffff82036104905761048f6103c1565b5b60018201905091905056fea2646970667358221220466670711d8c5370cb232fd2f23cad9c1b349bb5a06ba2fb8b119f36ad911fc064736f6c63430008120033",
					"opcodes": "PUSH1 0x80 PUSH1 0x40 MSTORE CALLVALUE DUP1 ISZERO PUSH2 0x10 JUMPI PUSH1 0x0 DUP1 REVERT JUMPDEST POP PUSH2 0x4D1 DUP1 PUSH2 0x20 PUSH1 0x0 CODECOPY PUSH1 0x0 RETURN INVALID PUSH1 0x80 PUSH1 0x40 MSTORE CALLVALUE DUP1 ISZERO PUSH2 0x10 JUMPI PUSH1 0x0 DUP1 REVERT JUMPDEST POP PUSH1 0x4 CALLDATASIZE LT PUSH2 0x36 JUMPI PUSH1 0x0 CALLDATALOAD PUSH1 0xE0 SHR DUP1 PUSH4 0x1D834A1B EQ PUSH2 0x3B JUMPI DUP1 PUSH4 0x853255CC EQ PUSH2 0x6B JUMPI JUMPDEST PUSH1 0x0 DUP1 REVERT JUMPDEST PUSH2 0x55 PUSH1 0x4 DUP1 CALLDATASIZE SUB DUP2 ADD SWAP1 PUSH2 0x50 SWAP2 SWAP1 PUSH2 0x357 JUMP JUMPDEST PUSH2 0x89 JUMP JUMPDEST PUSH1 0x40 MLOAD PUSH2 0x62 SWAP2 SWAP1 PUSH2 0x3A6 JUMP JUMPDEST PUSH1 0x40 MLOAD DUP1 SWAP2 SUB SWAP1 RETURN JUMPDEST PUSH2 0x73 PUSH2 0xB0 JUMP JUMPDEST PUSH1 0x40 MLOAD PUSH2 0x80 SWAP2 SWAP1 PUSH2 0x3A6 JUMP JUMPDEST PUSH1 0x40 MLOAD DUP1 SWAP2 SUB SWAP1 RETURN JUMPDEST PUSH1 0x0 PUSH2 0xA1 DUP4 DUP4 PUSH1 0x0 PUSH2 0x120 SWAP1 SWAP3 SWAP2 SWAP1 PUSH4 0xFFFFFFFF AND JUMP JUMPDEST POP PUSH1 0x0 PUSH1 0x2 ADD SLOAD SWAP1 POP SWAP3 SWAP2 POP POP JUMP JUMPDEST PUSH1 0x0 DUP1 PUSH2 0xBD PUSH1 0x0 PUSH2 0x214 JUMP JUMPDEST SWAP1 POP JUMPDEST PUSH2 0xD4 DUP2 PUSH1 0x0 PUSH2 0x228 SWAP1 SWAP2 SWAP1 PUSH4 0xFFFFFFFF AND JUMP JUMPDEST ISZERO PUSH2 0x11C JUMPI PUSH1 0x0 PUSH2 0xEF DUP3 PUSH1 0x0 PUSH2 0x23C SWAP1 SWAP2 SWAP1 PUSH4 0xFFFFFFFF AND JUMP JUMPDEST SWAP2 POP POP DUP1 DUP4 PUSH2 0xFE SWAP2 SWAP1 PUSH2 0x3F0 JUMP JUMPDEST SWAP3 POP POP PUSH2 0x115 DUP2 PUSH1 0x0 PUSH2 0x291 SWAP1 SWAP2 SWAP1 PUSH4 0xFFFFFFFF AND JUMP JUMPDEST SWAP1 POP PUSH2 0xC0 JUMP JUMPDEST POP SWAP1 JUMP JUMPDEST PUSH1 0x0 DUP1 DUP5 PUSH1 0x0 ADD PUSH1 0x0 DUP6 DUP2 MSTORE PUSH1 0x20 ADD SWAP1 DUP2 MSTORE PUSH1 0x20 ADD PUSH1 0x0 KECCAK256 PUSH1 0x0 ADD SLOAD SWAP1 POP DUP3 DUP6 PUSH1 0x0 ADD PUSH1 0x0 DUP7 DUP2 MSTORE PUSH1 0x20 ADD SWAP1 DUP2 MSTORE PUSH1 0x20 ADD PUSH1 0x0 KECCAK256 PUSH1 0x1 ADD DUP2 SWAP1 SSTORE POP PUSH1 0x0 DUP2 GT ISZERO PUSH2 0x16E JUMPI PUSH1 0x1 SWAP2 POP POP PUSH2 0x20D JUMP JUMPDEST DUP5 PUSH1 0x1 ADD DUP1 SLOAD SWAP1 POP SWAP1 POP DUP5 PUSH1 0x1 ADD PUSH1 0x1 DUP2 PUSH1 0x1 DUP2 SLOAD ADD DUP1 DUP3 SSTORE DUP1 SWAP2 POP POP SUB SWAP1 PUSH1 0x0 MSTORE PUSH1 0x20 PUSH1 0x0 KECCAK256 SWAP1 POP POP PUSH1 0x1 DUP2 PUSH2 0x1A5 SWAP2 SWAP1 PUSH2 0x3F0 JUMP JUMPDEST DUP6 PUSH1 0x0 ADD PUSH1 0x0 DUP7 DUP2 MSTORE PUSH1 0x20 ADD SWAP1 DUP2 MSTORE PUSH1 0x20 ADD PUSH1 0x0 KECCAK256 PUSH1 0x0 ADD DUP2 SWAP1 SSTORE POP DUP4 DUP6 PUSH1 0x1 ADD DUP3 DUP2 SLOAD DUP2 LT PUSH2 0x1D8 JUMPI PUSH2 0x1D7 PUSH2 0x424 JUMP JUMPDEST JUMPDEST SWAP1 PUSH1 0x0 MSTORE PUSH1 0x20 PUSH1 0x0 KECCAK256 SWAP1 PUSH1 0x2 MUL ADD PUSH1 0x0 ADD DUP2 SWAP1 SSTORE POP DUP5 PUSH1 0x2 ADD PUSH1 0x0 DUP2 SLOAD DUP1 SWAP3 SWAP2 SWAP1 PUSH2 0x202 SWAP1 PUSH2 0x453 JUMP JUMPDEST SWAP2 SWAP1 POP SSTORE POP PUSH1 0x0 SWAP2 POP POP JUMPDEST SWAP4 SWAP3 POP POP POP JUMP JUMPDEST PUSH1 0x0 PUSH2 0x221 DUP3 PUSH1 0x0 PUSH2 0x2B1 JUMP JUMPDEST SWAP1 POP SWAP2 SWAP1 POP JUMP JUMPDEST PUSH1 0x0 DUP3 PUSH1 0x1 ADD DUP1 SLOAD SWAP1 POP DUP3 LT SWAP1 POP SWAP3 SWAP2 POP POP JUMP JUMPDEST PUSH1 0x0 DUP1 PUSH1 0x0 DUP4 SWAP1 POP DUP5 PUSH1 0x1 ADD DUP2 DUP2 SLOAD DUP2 LT PUSH2 0x25A JUMPI PUSH2 0x259 PUSH2 0x424 JUMP JUMPDEST JUMPDEST SWAP1 PUSH1 0x0 MSTORE PUSH1 0x20 PUSH1 0x0 KECCAK256 SWAP1 PUSH1 0x2 MUL ADD PUSH1 0x0 ADD SLOAD SWAP3 POP DUP5 PUSH1 0x0 ADD PUSH1 0x0 DUP5 DUP2 MSTORE PUSH1 0x20 ADD SWAP1 DUP2 MSTORE PUSH1 0x20 ADD PUSH1 0x0 KECCAK256 PUSH1 0x1 ADD SLOAD SWAP2 POP POP SWAP3 POP SWAP3 SWAP1 POP JUMP JUMPDEST PUSH1 0x0 PUSH2 0x2A9 DUP4 PUSH1 0x1 DUP5 PUSH2 0x2A4 SWAP2 SWAP1 PUSH2 0x3F0 JUMP JUMPDEST PUSH2 0x2B1 JUMP JUMPDEST SWAP1 POP SWAP3 SWAP2 POP POP JUMP JUMPDEST PUSH1 0x0 JUMPDEST DUP3 PUSH1 0x1 ADD DUP1 SLOAD SWAP1 POP DUP3 LT DUP1 ISZERO PUSH2 0x2FB JUMPI POP DUP3 PUSH1 0x1 ADD DUP3 DUP2 SLOAD DUP2 LT PUSH2 0x2DB JUMPI PUSH2 0x2DA PUSH2 0x424 JUMP JUMPDEST JUMPDEST SWAP1 PUSH1 0x0 MSTORE PUSH1 0x20 PUSH1 0x0 KECCAK256 SWAP1 PUSH1 0x2 MUL ADD PUSH1 0x1 ADD PUSH1 0x0 SWAP1 SLOAD SWAP1 PUSH2 0x100 EXP SWAP1 DIV PUSH1 0xFF AND JUMPDEST ISZERO PUSH2 0x313 JUMPI DUP2 DUP1 PUSH2 0x30B SWAP1 PUSH2 0x453 JUMP JUMPDEST SWAP3 POP POP PUSH2 0x2B4 JUMP JUMPDEST DUP2 SWAP1 POP SWAP3 SWAP2 POP POP JUMP JUMPDEST PUSH1 0x0 DUP1 REVERT JUMPDEST PUSH1 0x0 DUP2 SWAP1 POP SWAP2 SWAP1 POP JUMP JUMPDEST PUSH2 0x334 DUP2 PUSH2 0x321 JUMP JUMPDEST DUP2 EQ PUSH2 0x33F JUMPI PUSH1 0x0 DUP1 REVERT JUMPDEST POP JUMP JUMPDEST PUSH1 0x0 DUP2 CALLDATALOAD SWAP1 POP PUSH2 0x351 DUP2 PUSH2 0x32B JUMP JUMPDEST SWAP3 SWAP2 POP POP JUMP JUMPDEST PUSH1 0x0 DUP1 PUSH1 0x40 DUP4 DUP6 SUB SLT ISZERO PUSH2 0x36E JUMPI PUSH2 0x36D PUSH2 0x31C JUMP JUMPDEST JUMPDEST PUSH1 0x0 PUSH2 0x37C DUP6 DUP3 DUP7 ADD PUSH2 0x342 JUMP JUMPDEST SWAP3 POP POP PUSH1 0x20 PUSH2 0x38D DUP6 DUP3 DUP7 ADD PUSH2 0x342 JUMP JUMPDEST SWAP2 POP POP SWAP3 POP SWAP3 SWAP1 POP JUMP JUMPDEST PUSH2 0x3A0 DUP2 PUSH2 0x321 JUMP JUMPDEST DUP3 MSTORE POP POP JUMP JUMPDEST PUSH1 0x0 PUSH1 0x20 DUP3 ADD SWAP1 POP PUSH2 0x3BB PUSH1 0x0 DUP4 ADD DUP5 PUSH2 0x397 JUMP JUMPDEST SWAP3 SWAP2 POP POP JUMP JUMPDEST PUSH32 0x4E487B7100000000000000000000000000000000000000000000000000000000 PUSH1 0x0 MSTORE PUSH1 0x11 PUSH1 0x4 MSTORE PUSH1 0x24 PUSH1 0x0 REVERT JUMPDEST PUSH1 0x0 PUSH2 0x3FB DUP3 PUSH2 0x321 JUMP JUMPDEST SWAP2 POP PUSH2 0x406 DUP4 PUSH2 0x321 JUMP JUMPDEST SWAP3 POP DUP3 DUP3 ADD SWAP1 POP DUP1 DUP3 GT ISZERO PUSH2 0x41E JUMPI PUSH2 0x41D PUSH2 0x3C1 JUMP JUMPDEST JUMPDEST SWAP3 SWAP2 POP POP JUMP JUMPDEST PUSH32 0x4E487B7100000000000000000000000000000000000000000000000000000000 PUSH1 0x0 MSTORE PUSH1 0x32 PUSH1 0x4 MSTORE PUSH1 0x24 PUSH1 0x0 REVERT JUMPDEST PUSH1 0x0 PUSH2 0x45E DUP3 PUSH2 0x321 JUMP JUMPDEST SWAP2 POP PUSH32 0xFFFFFFFFFFFFFFFFFFFFFFFFFFFFFFFFFFFFFFFFFFFFFFFFFFFFFFFFFFFFFFFF DUP3 SUB PUSH2 0x490 JUMPI PUSH2 0x48F PUSH2 0x3C1 JUMP JUMPDEST JUMPDEST PUSH1 0x1 DUP3 ADD SWAP1 POP SWAP2 SWAP1 POP JUMP INVALID LOG2 PUSH5 0x6970667358 0x22 SLT KECCAK256 CHAINID PUSH7 0x70711D8C5370CB 0x23 0x2F 0xD2 CALLCODE EXTCODECOPY 0xAD SWAP13 SHL CALLVALUE SWAP12 0xB5 LOG0 PUSH12 0xA2FB8B119F36AD911FC06473 PUSH16 0x6C634300081200330000000000000000 "
				},
				"gasEstimates": {
					"creation": {
						"codeDepositCost": "246600",
						"executionCost": "287",
						"totalCost": "246887"
					},
					"external": {
						"insert(uint256,uint256)": "infinite",
						"sum()": "infinite"
					}
				},
				"methodIdentifiers": {
					"insert(uint256,uint256)": "1d834a1b",
					"sum()": "853255cc"
				}
			},
			"storageLayout": {
				"storage": [
					{
						"astId": 300,
						"contract": "contract-iteratorMapping.sol:User",
						"label": "data",
						"offset": 0,
						"slot": "0",
						"type": "t_struct(itmap)23_storage"
					}
				],
				"types": {
					"t_array(t_struct(KeyFlag)11_storage)dyn_storage": {
						"base": "t_struct(KeyFlag)11_storage",
						"encoding": "dynamic_array",
						"label": "struct KeyFlag[]",
						"numberOfBytes": "32"
					},
					"t_bool": {
						"encoding": "inplace",
						"label": "bool",
						"numberOfBytes": "1"
					},
					"t_mapping(t_uint256,t_struct(IndexValue)6_storage)": {
						"encoding": "mapping",
						"key": "t_uint256",
						"label": "mapping(uint256 => struct IndexValue)",
						"numberOfBytes": "32",
						"value": "t_struct(IndexValue)6_storage"
					},
					"t_struct(IndexValue)6_storage": {
						"encoding": "inplace",
						"label": "struct IndexValue",
						"members": [
							{
								"astId": 3,
								"contract": "contract-iteratorMapping.sol:User",
								"label": "keyIndex",
								"offset": 0,
								"slot": "0",
								"type": "t_uint256"
							},
							{
								"astId": 5,
								"contract": "contract-iteratorMapping.sol:User",
								"label": "value",
								"offset": 0,
								"slot": "1",
								"type": "t_uint256"
							}
						],
						"numberOfBytes": "64"
					},
					"t_struct(KeyFlag)11_storage": {
						"encoding": "inplace",
						"label": "struct KeyFlag",
						"members": [
							{
								"astId": 8,
								"contract": "contract-iteratorMapping.sol:User",
								"label": "key",
								"offset": 0,
								"slot": "0",
								"type": "t_uint256"
							},
							{
								"astId": 10,
								"contract": "contract-iteratorMapping.sol:User",
								"label": "deleted",
								"offset": 0,
								"slot": "1",
								"type": "t_bool"
							}
						],
						"numberOfBytes": "64"
					},
					"t_struct(itmap)23_storage": {
						"encoding": "inplace",
						"label": "struct itmap",
						"members": [
							{
								"astId": 16,
								"contract": "contract-iteratorMapping.sol:User",
								"label": "data",
								"offset": 0,
								"slot": "0",
								"type": "t_mapping(t_uint256,t_struct(IndexValue)6_storage)"
							},
							{
								"astId": 20,
								"contract": "contract-iteratorMapping.sol:User",
								"label": "keys",
								"offset": 0,
								"slot": "1",
								"type": "t_array(t_struct(KeyFlag)11_storage)dyn_storage"
							},
							{
								"astId": 22,
								"contract": "contract-iteratorMapping.sol:User",
								"label": "size",
								"offset": 0,
								"slot": "2",
								"type": "t_uint256"
							}
						],
						"numberOfBytes": "96"
					},
					"t_uint256": {
						"encoding": "inplace",
						"label": "uint256",
						"numberOfBytes": "32"
					}
				}
			},
			"userdoc": {
				"kind": "user",
				"methods": {},
				"version": 1
			}
		}
	}
}