{
	"contract-receiverPays.sol": {
		"ReceiverPays": {
			"abi": [
				{
					"inputs": [],
					"stateMutability": "payable",
					"type": "constructor"
				},
				{
					"inputs": [
						{
							"internalType": "uint256",
							"name": "amount",
							"type": "uint256"
						},
						{
							"internalType": "uint256",
							"name": "nonce",
							"type": "uint256"
						},
						{
							"internalType": "bytes",
							"name": "signature",
							"type": "bytes"
						}
					],
					"name": "claimPayment",
					"outputs": [],
					"stateMutability": "nonpayable",
					"type": "function"
				},
				{
					"inputs": [],
					"name": "shutdown",
					"outputs": [],
					"stateMutability": "nonpayable",
					"type": "function"
				}
			],
			"devdoc": {
				"kind": "dev",
				"methods": {},
				"version": 1
			},
			"evm": {
				"assembly": "    /* \"contract-receiverPays.sol\":129:1881  contract ReceiverPays {... */\n  mstore(0x40, 0x80)\n    /* \"contract-receiverPays.sol\":173:183  msg.sender */\n  caller\n    /* \"contract-receiverPays.sol\":157:183  address owner = msg.sender */\n  0x00\n  dup1\n  0x0100\n  exp\n  dup2\n  sload\n  dup2\n  0xffffffffffffffffffffffffffffffffffffffff\n  mul\n  not\n  and\n  swap1\n  dup4\n  0xffffffffffffffffffffffffffffffffffffffff\n  and\n  mul\n  or\n  swap1\n  sstore\n  pop\n    /* \"contract-receiverPays.sol\":129:1881  contract ReceiverPays {... */\n  dataSize(sub_0)\n  dup1\n  dataOffset(sub_0)\n  0x00\n  codecopy\n  0x00\n  return\nstop\n\nsub_0: assembly {\n        /* \"contract-receiverPays.sol\":129:1881  contract ReceiverPays {... */\n      mstore(0x40, 0x80)\n      callvalue\n      dup1\n      iszero\n      tag_1\n      jumpi\n      0x00\n      dup1\n      revert\n    tag_1:\n      pop\n      jumpi(tag_2, lt(calldatasize, 0x04))\n      shr(0xe0, calldataload(0x00))\n      dup1\n      0xa90ae887\n      eq\n      tag_3\n      jumpi\n      dup1\n      0xfc0e74d1\n      eq\n      tag_4\n      jumpi\n    tag_2:\n      0x00\n      dup1\n      revert\n        /* \"contract-receiverPays.sol\":262:702  function claimPayment(uint256 amount, uint256 nonce, bytes memory signature) external {... */\n    tag_3:\n      tag_5\n      0x04\n      dup1\n      calldatasize\n      sub\n      dup2\n      add\n      swap1\n      tag_6\n      swap2\n      swap1\n      tag_7\n      jump\t// in\n    tag_6:\n      tag_8\n      jump\t// in\n    tag_5:\n      stop\n        /* \"contract-receiverPays.sol\":769:886  function shutdown() external {... */\n    tag_4:\n      tag_9\n      tag_10\n      jump\t// in\n    tag_9:\n      stop\n        /* \"contract-receiverPays.sol\":262:702  function claimPayment(uint256 amount, uint256 nonce, bytes memory signature) external {... */\n    tag_8:\n        /* \"contract-receiverPays.sol\":367:377  usedNonces */\n      0x01\n        /* \"contract-receiverPays.sol\":367:384  usedNonces[nonce] */\n      0x00\n        /* \"contract-receiverPays.sol\":378:383  nonce */\n      dup4\n        /* \"contract-receiverPays.sol\":367:384  usedNonces[nonce] */\n      dup2\n      mstore\n      0x20\n      add\n      swap1\n      dup2\n      mstore\n      0x20\n      add\n      0x00\n      keccak256\n      0x00\n      swap1\n      sload\n      swap1\n      0x0100\n      exp\n      swap1\n      div\n      0xff\n      and\n        /* \"contract-receiverPays.sol\":366:384  !usedNonces[nonce] */\n      iszero\n        /* \"contract-receiverPays.sol\":358:385  require(!usedNonces[nonce]) */\n      tag_12\n      jumpi\n      0x00\n      dup1\n      revert\n    tag_12:\n        /* \"contract-receiverPays.sol\":415:419  true */\n      0x01\n        /* \"contract-receiverPays.sol\":395:405  usedNonces */\n      dup1\n        /* \"contract-receiverPays.sol\":395:412  usedNonces[nonce] */\n      0x00\n        /* \"contract-receiverPays.sol\":406:411  nonce */\n      dup5\n        /* \"contract-receiverPays.sol\":395:412  usedNonces[nonce] */\n      dup2\n      mstore\n      0x20\n      add\n      swap1\n      dup2\n      mstore\n      0x20\n      add\n      0x00\n      keccak256\n      0x00\n        /* \"contract-receiverPays.sol\":395:419  usedNonces[nonce] = true */\n      0x0100\n      exp\n      dup2\n      sload\n      dup2\n      0xff\n      mul\n      not\n      and\n      swap1\n      dup4\n      iszero\n      iszero\n      mul\n      or\n      swap1\n      sstore\n      pop\n        /* \"contract-receiverPays.sol\":498:513  bytes32 message */\n      0x00\n        /* \"contract-receiverPays.sol\":516:586  prefixed(keccak256(abi.encodePacked(msg.sender, amount, nonce, this))) */\n      tag_13\n        /* \"contract-receiverPays.sol\":552:562  msg.sender */\n      caller\n        /* \"contract-receiverPays.sol\":564:570  amount */\n      dup6\n        /* \"contract-receiverPays.sol\":572:577  nonce */\n      dup6\n        /* \"contract-receiverPays.sol\":579:583  this */\n      address\n        /* \"contract-receiverPays.sol\":535:584  abi.encodePacked(msg.sender, amount, nonce, this) */\n      add(0x20, mload(0x40))\n      tag_14\n      swap5\n      swap4\n      swap3\n      swap2\n      swap1\n      tag_15\n      jump\t// in\n    tag_14:\n      mload(0x40)\n      0x20\n      dup2\n      dup4\n      sub\n      sub\n      dup2\n      mstore\n      swap1\n      0x40\n      mstore\n        /* \"contract-receiverPays.sol\":525:585  keccak256(abi.encodePacked(msg.sender, amount, nonce, this)) */\n      dup1\n      mload\n      swap1\n      0x20\n      add\n      keccak256\n        /* \"contract-receiverPays.sol\":516:524  prefixed */\n      tag_16\n        /* \"contract-receiverPays.sol\":516:586  prefixed(keccak256(abi.encodePacked(msg.sender, amount, nonce, this))) */\n      jump\t// in\n    tag_13:\n        /* \"contract-receiverPays.sol\":498:586  bytes32 message = prefixed(keccak256(abi.encodePacked(msg.sender, amount, nonce, this))) */\n      swap1\n      pop\n        /* \"contract-receiverPays.sol\":642:647  owner */\n      0x00\n      dup1\n      sload\n      swap1\n      0x0100\n      exp\n      swap1\n      div\n      0xffffffffffffffffffffffffffffffffffffffff\n      and\n        /* \"contract-receiverPays.sol\":605:647  recoverSigner(message, signature) == owner */\n      0xffffffffffffffffffffffffffffffffffffffff\n      and\n        /* \"contract-receiverPays.sol\":605:638  recoverSigner(message, signature) */\n      tag_17\n        /* \"contract-receiverPays.sol\":619:626  message */\n      dup3\n        /* \"contract-receiverPays.sol\":628:637  signature */\n      dup5\n        /* \"contract-receiverPays.sol\":605:618  recoverSigner */\n      tag_18\n        /* \"contract-receiverPays.sol\":605:638  recoverSigner(message, signature) */\n      jump\t// in\n    tag_17:\n        /* \"contract-receiverPays.sol\":605:647  recoverSigner(message, signature) == owner */\n      0xffffffffffffffffffffffffffffffffffffffff\n      and\n      eq\n        /* \"contract-receiverPays.sol\":597:648  require(recoverSigner(message, signature) == owner) */\n      tag_19\n      jumpi\n      0x00\n      dup1\n      revert\n    tag_19:\n        /* \"contract-receiverPays.sol\":667:677  msg.sender */\n      caller\n        /* \"contract-receiverPays.sol\":659:687  payable(msg.sender).transfer */\n      0xffffffffffffffffffffffffffffffffffffffff\n      and\n        /* \"contract-receiverPays.sol\":659:695  payable(msg.sender).transfer(amount) */\n      0x08fc\n        /* \"contract-receiverPays.sol\":688:694  amount */\n      dup6\n        /* \"contract-receiverPays.sol\":659:695  payable(msg.sender).transfer(amount) */\n      swap1\n      dup2\n      iszero\n      mul\n      swap1\n      mload(0x40)\n      0x00\n      mload(0x40)\n      dup1\n      dup4\n      sub\n      dup2\n      dup6\n      dup9\n      dup9\n      call\n      swap4\n      pop\n      pop\n      pop\n      pop\n      iszero\n      dup1\n      iszero\n      tag_21\n      jumpi\n      returndatasize\n      0x00\n      dup1\n      returndatacopy\n      revert(0x00, returndatasize)\n    tag_21:\n      pop\n        /* \"contract-receiverPays.sol\":348:702  {... */\n      pop\n        /* \"contract-receiverPays.sol\":262:702  function claimPayment(uint256 amount, uint256 nonce, bytes memory signature) external {... */\n      pop\n      pop\n      pop\n      jump\t// out\n        /* \"contract-receiverPays.sol\":769:886  function shutdown() external {... */\n    tag_10:\n        /* \"contract-receiverPays.sol\":830:835  owner */\n      0x00\n      dup1\n      sload\n      swap1\n      0x0100\n      exp\n      swap1\n      div\n      0xffffffffffffffffffffffffffffffffffffffff\n      and\n        /* \"contract-receiverPays.sol\":816:835  msg.sender == owner */\n      0xffffffffffffffffffffffffffffffffffffffff\n      and\n        /* \"contract-receiverPays.sol\":816:826  msg.sender */\n      caller\n        /* \"contract-receiverPays.sol\":816:835  msg.sender == owner */\n      0xffffffffffffffffffffffffffffffffffffffff\n      and\n      eq\n        /* \"contract-receiverPays.sol\":808:836  require(msg.sender == owner) */\n      tag_23\n      jumpi\n      0x00\n      dup1\n      revert\n    tag_23:\n        /* \"contract-receiverPays.sol\":867:877  msg.sender */\n      caller\n        /* \"contract-receiverPays.sol\":846:879  selfdestruct(payable(msg.sender)) */\n      0xffffffffffffffffffffffffffffffffffffffff\n      and\n      selfdestruct\n        /* \"contract-receiverPays.sol\":1722:1879  function prefixed(bytes32 hash) internal pure returns (bytes32) {... */\n    tag_16:\n        /* \"contract-receiverPays.sol\":1777:1784  bytes32 */\n      0x00\n        /* \"contract-receiverPays.sol\":1866:1870  hash */\n      dup2\n        /* \"contract-receiverPays.sol\":1813:1871  abi.encodePacked(\"\\x19Ethereum Signed Message:\\n32\", hash) */\n      add(0x20, mload(0x40))\n      tag_25\n      swap2\n      swap1\n      tag_26\n      jump\t// in\n    tag_25:\n      mload(0x40)\n      0x20\n      dup2\n      dup4\n      sub\n      sub\n      dup2\n      mstore\n      swap1\n      0x40\n      mstore\n        /* \"contract-receiverPays.sol\":1803:1872  keccak256(abi.encodePacked(\"\\x19Ethereum Signed Message:\\n32\", hash)) */\n      dup1\n      mload\n      swap1\n      0x20\n      add\n      keccak256\n        /* \"contract-receiverPays.sol\":1796:1872  return keccak256(abi.encodePacked(\"\\x19Ethereum Signed Message:\\n32\", hash)) */\n      swap1\n      pop\n        /* \"contract-receiverPays.sol\":1722:1879  function prefixed(bytes32 hash) internal pure returns (bytes32) {... */\n      swap2\n      swap1\n      pop\n      jump\t// out\n        /* \"contract-receiverPays.sol\":1417:1650  function recoverSigner(bytes32 message, bytes memory sig)... */\n    tag_18:\n        /* \"contract-receiverPays.sol\":1522:1529  address */\n      0x00\n        /* \"contract-receiverPays.sol\":1546:1553  uint8 v */\n      dup1\n        /* \"contract-receiverPays.sol\":1555:1564  bytes32 r */\n      0x00\n        /* \"contract-receiverPays.sol\":1566:1575  bytes32 s */\n      dup1\n        /* \"contract-receiverPays.sol\":1579:1598  splitSignature(sig) */\n      tag_28\n        /* \"contract-receiverPays.sol\":1594:1597  sig */\n      dup6\n        /* \"contract-receiverPays.sol\":1579:1593  splitSignature */\n      tag_29\n        /* \"contract-receiverPays.sol\":1579:1598  splitSignature(sig) */\n      jump\t// in\n    tag_28:\n        /* \"contract-receiverPays.sol\":1545:1598  (uint8 v, bytes32 r, bytes32 s) = splitSignature(sig) */\n      swap3\n      pop\n      swap3\n      pop\n      swap3\n      pop\n        /* \"contract-receiverPays.sol\":1616:1643  ecrecover(message, v, r, s) */\n      0x01\n        /* \"contract-receiverPays.sol\":1626:1633  message */\n      dup7\n        /* \"contract-receiverPays.sol\":1635:1636  v */\n      dup5\n        /* \"contract-receiverPays.sol\":1638:1639  r */\n      dup5\n        /* \"contract-receiverPays.sol\":1641:1642  s */\n      dup5\n        /* \"contract-receiverPays.sol\":1616:1643  ecrecover(message, v, r, s) */\n      mload(0x40)\n      0x00\n      dup2\n      mstore\n      0x20\n      add\n      0x40\n      mstore\n      mload(0x40)\n      tag_30\n      swap5\n      swap4\n      swap3\n      swap2\n      swap1\n      tag_31\n      jump\t// in\n    tag_30:\n      0x20\n      mload(0x40)\n      0x20\n      dup2\n      sub\n      swap1\n      dup1\n      dup5\n      sub\n      swap1\n      dup6\n      gas\n      staticcall\n      iszero\n      dup1\n      iszero\n      tag_33\n      jumpi\n      returndatasize\n      0x00\n      dup1\n      returndatacopy\n      revert(0x00, returndatasize)\n    tag_33:\n      pop\n      pop\n      pop\n      mload(sub(mload(0x40), 0x20))\n        /* \"contract-receiverPays.sol\":1609:1643  return ecrecover(message, v, r, s) */\n      swap4\n      pop\n      pop\n      pop\n      pop\n        /* \"contract-receiverPays.sol\":1417:1650  function recoverSigner(bytes32 message, bytes memory sig)... */\n      swap3\n      swap2\n      pop\n      pop\n      jump\t// out\n        /* \"contract-receiverPays.sol\":919:1411  function splitSignature(bytes memory sig)... */\n    tag_29:\n        /* \"contract-receiverPays.sol\":1008:1015  uint8 v */\n      0x00\n        /* \"contract-receiverPays.sol\":1017:1026  bytes32 r */\n      dup1\n        /* \"contract-receiverPays.sol\":1028:1037  bytes32 s */\n      0x00\n        /* \"contract-receiverPays.sol\":1075:1077  65 */\n      0x41\n        /* \"contract-receiverPays.sol\":1061:1064  sig */\n      dup5\n        /* \"contract-receiverPays.sol\":1061:1071  sig.length */\n      mload\n        /* \"contract-receiverPays.sol\":1061:1077  sig.length == 65 */\n      eq\n        /* \"contract-receiverPays.sol\":1053:1078  require(sig.length == 65) */\n      tag_35\n      jumpi\n      0x00\n      dup1\n      revert\n    tag_35:\n        /* \"contract-receiverPays.sol\":1188:1190  32 */\n      0x20\n        /* \"contract-receiverPays.sol\":1183:1186  sig */\n      dup5\n        /* \"contract-receiverPays.sol\":1179:1191  add(sig, 32) */\n      add\n        /* \"contract-receiverPays.sol\":1173:1192  mload(add(sig, 32)) */\n      mload\n        /* \"contract-receiverPays.sol\":1168:1192  r := mload(add(sig, 32)) */\n      swap2\n      pop\n        /* \"contract-receiverPays.sol\":1257:1259  64 */\n      0x40\n        /* \"contract-receiverPays.sol\":1252:1255  sig */\n      dup5\n        /* \"contract-receiverPays.sol\":1248:1260  add(sig, 64) */\n      add\n        /* \"contract-receiverPays.sol\":1242:1261  mload(add(sig, 64)) */\n      mload\n        /* \"contract-receiverPays.sol\":1237:1261  s := mload(add(sig, 64)) */\n      swap1\n      pop\n        /* \"contract-receiverPays.sol\":1363:1365  96 */\n      0x60\n        /* \"contract-receiverPays.sol\":1358:1361  sig */\n      dup5\n        /* \"contract-receiverPays.sol\":1354:1366  add(sig, 96) */\n      add\n        /* \"contract-receiverPays.sol\":1348:1367  mload(add(sig, 96)) */\n      mload\n        /* \"contract-receiverPays.sol\":1345:1346  0 */\n      0x00\n        /* \"contract-receiverPays.sol\":1340:1368  byte(0, mload(add(sig, 96))) */\n      byte\n        /* \"contract-receiverPays.sol\":1335:1368  v := byte(0, mload(add(sig, 96))) */\n      swap3\n      pop\n        /* \"contract-receiverPays.sol\":919:1411  function splitSignature(bytes memory sig)... */\n      swap2\n      swap4\n      swap1\n      swap3\n      pop\n      jump\t// out\n        /* \"#utility.yul\":7:82   */\n    tag_36:\n        /* \"#utility.yul\":40:46   */\n      0x00\n        /* \"#utility.yul\":73:75   */\n      0x40\n        /* \"#utility.yul\":67:76   */\n      mload\n        /* \"#utility.yul\":57:76   */\n      swap1\n      pop\n        /* \"#utility.yul\":7:82   */\n      swap1\n      jump\t// out\n        /* \"#utility.yul\":88:205   */\n    tag_37:\n        /* \"#utility.yul\":197:198   */\n      0x00\n        /* \"#utility.yul\":194:195   */\n      dup1\n        /* \"#utility.yul\":187:199   */\n      revert\n        /* \"#utility.yul\":211:328   */\n    tag_38:\n        /* \"#utility.yul\":320:321   */\n      0x00\n        /* \"#utility.yul\":317:318   */\n      dup1\n        /* \"#utility.yul\":310:322   */\n      revert\n        /* \"#utility.yul\":334:411   */\n    tag_39:\n        /* \"#utility.yul\":371:378   */\n      0x00\n        /* \"#utility.yul\":400:405   */\n      dup2\n        /* \"#utility.yul\":389:405   */\n      swap1\n      pop\n        /* \"#utility.yul\":334:411   */\n      swap2\n      swap1\n      pop\n      jump\t// out\n        /* \"#utility.yul\":417:539   */\n    tag_40:\n        /* \"#utility.yul\":490:514   */\n      tag_80\n        /* \"#utility.yul\":508:513   */\n      dup2\n        /* \"#utility.yul\":490:514   */\n      tag_39\n      jump\t// in\n    tag_80:\n        /* \"#utility.yul\":483:488   */\n      dup2\n        /* \"#utility.yul\":480:515   */\n      eq\n        /* \"#utility.yul\":470:533   */\n      tag_81\n      jumpi\n        /* \"#utility.yul\":529:530   */\n      0x00\n        /* \"#utility.yul\":526:527   */\n      dup1\n        /* \"#utility.yul\":519:531   */\n      revert\n        /* \"#utility.yul\":470:533   */\n    tag_81:\n        /* \"#utility.yul\":417:539   */\n      pop\n      jump\t// out\n        /* \"#utility.yul\":545:684   */\n    tag_41:\n        /* \"#utility.yul\":591:596   */\n      0x00\n        /* \"#utility.yul\":629:635   */\n      dup2\n        /* \"#utility.yul\":616:636   */\n      calldataload\n        /* \"#utility.yul\":607:636   */\n      swap1\n      pop\n        /* \"#utility.yul\":645:678   */\n      tag_83\n        /* \"#utility.yul\":672:677   */\n      dup2\n        /* \"#utility.yul\":645:678   */\n      tag_40\n      jump\t// in\n    tag_83:\n        /* \"#utility.yul\":545:684   */\n      swap3\n      swap2\n      pop\n      pop\n      jump\t// out\n        /* \"#utility.yul\":690:807   */\n    tag_42:\n        /* \"#utility.yul\":799:800   */\n      0x00\n        /* \"#utility.yul\":796:797   */\n      dup1\n        /* \"#utility.yul\":789:801   */\n      revert\n        /* \"#utility.yul\":813:930   */\n    tag_43:\n        /* \"#utility.yul\":922:923   */\n      0x00\n        /* \"#utility.yul\":919:920   */\n      dup1\n        /* \"#utility.yul\":912:924   */\n      revert\n        /* \"#utility.yul\":936:1038   */\n    tag_44:\n        /* \"#utility.yul\":977:983   */\n      0x00\n        /* \"#utility.yul\":1028:1030   */\n      0x1f\n        /* \"#utility.yul\":1024:1031   */\n      not\n        /* \"#utility.yul\":1019:1021   */\n      0x1f\n        /* \"#utility.yul\":1012:1017   */\n      dup4\n        /* \"#utility.yul\":1008:1022   */\n      add\n        /* \"#utility.yul\":1004:1032   */\n      and\n        /* \"#utility.yul\":994:1032   */\n      swap1\n      pop\n        /* \"#utility.yul\":936:1038   */\n      swap2\n      swap1\n      pop\n      jump\t// out\n        /* \"#utility.yul\":1044:1224   */\n    tag_45:\n        /* \"#utility.yul\":1092:1169   */\n      0x4e487b7100000000000000000000000000000000000000000000000000000000\n        /* \"#utility.yul\":1089:1090   */\n      0x00\n        /* \"#utility.yul\":1082:1170   */\n      mstore\n        /* \"#utility.yul\":1189:1193   */\n      0x41\n        /* \"#utility.yul\":1186:1187   */\n      0x04\n        /* \"#utility.yul\":1179:1194   */\n      mstore\n        /* \"#utility.yul\":1213:1217   */\n      0x24\n        /* \"#utility.yul\":1210:1211   */\n      0x00\n        /* \"#utility.yul\":1203:1218   */\n      revert\n        /* \"#utility.yul\":1230:1511   */\n    tag_46:\n        /* \"#utility.yul\":1313:1340   */\n      tag_89\n        /* \"#utility.yul\":1335:1339   */\n      dup3\n        /* \"#utility.yul\":1313:1340   */\n      tag_44\n      jump\t// in\n    tag_89:\n        /* \"#utility.yul\":1305:1311   */\n      dup2\n        /* \"#utility.yul\":1301:1341   */\n      add\n        /* \"#utility.yul\":1443:1449   */\n      dup2\n        /* \"#utility.yul\":1431:1441   */\n      dup2\n        /* \"#utility.yul\":1428:1450   */\n      lt\n        /* \"#utility.yul\":1407:1425   */\n      0xffffffffffffffff\n        /* \"#utility.yul\":1395:1405   */\n      dup3\n        /* \"#utility.yul\":1392:1426   */\n      gt\n        /* \"#utility.yul\":1389:1451   */\n      or\n        /* \"#utility.yul\":1386:1474   */\n      iszero\n      tag_90\n      jumpi\n        /* \"#utility.yul\":1454:1472   */\n      tag_91\n      tag_45\n      jump\t// in\n    tag_91:\n        /* \"#utility.yul\":1386:1474   */\n    tag_90:\n        /* \"#utility.yul\":1494:1504   */\n      dup1\n        /* \"#utility.yul\":1490:1492   */\n      0x40\n        /* \"#utility.yul\":1483:1505   */\n      mstore\n        /* \"#utility.yul\":1273:1511   */\n      pop\n        /* \"#utility.yul\":1230:1511   */\n      pop\n      pop\n      jump\t// out\n        /* \"#utility.yul\":1517:1646   */\n    tag_47:\n        /* \"#utility.yul\":1551:1557   */\n      0x00\n        /* \"#utility.yul\":1578:1598   */\n      tag_93\n      tag_36\n      jump\t// in\n    tag_93:\n        /* \"#utility.yul\":1568:1598   */\n      swap1\n      pop\n        /* \"#utility.yul\":1607:1640   */\n      tag_94\n        /* \"#utility.yul\":1635:1639   */\n      dup3\n        /* \"#utility.yul\":1627:1633   */\n      dup3\n        /* \"#utility.yul\":1607:1640   */\n      tag_46\n      jump\t// in\n    tag_94:\n        /* \"#utility.yul\":1517:1646   */\n      swap2\n      swap1\n      pop\n      jump\t// out\n        /* \"#utility.yul\":1652:1959   */\n    tag_48:\n        /* \"#utility.yul\":1713:1717   */\n      0x00\n        /* \"#utility.yul\":1803:1821   */\n      0xffffffffffffffff\n        /* \"#utility.yul\":1795:1801   */\n      dup3\n        /* \"#utility.yul\":1792:1822   */\n      gt\n        /* \"#utility.yul\":1789:1845   */\n      iszero\n      tag_96\n      jumpi\n        /* \"#utility.yul\":1825:1843   */\n      tag_97\n      tag_45\n      jump\t// in\n    tag_97:\n        /* \"#utility.yul\":1789:1845   */\n    tag_96:\n        /* \"#utility.yul\":1863:1892   */\n      tag_98\n        /* \"#utility.yul\":1885:1891   */\n      dup3\n        /* \"#utility.yul\":1863:1892   */\n      tag_44\n      jump\t// in\n    tag_98:\n        /* \"#utility.yul\":1855:1892   */\n      swap1\n      pop\n        /* \"#utility.yul\":1947:1951   */\n      0x20\n        /* \"#utility.yul\":1941:1945   */\n      dup2\n        /* \"#utility.yul\":1937:1952   */\n      add\n        /* \"#utility.yul\":1929:1952   */\n      swap1\n      pop\n        /* \"#utility.yul\":1652:1959   */\n      swap2\n      swap1\n      pop\n      jump\t// out\n        /* \"#utility.yul\":1965:2111   */\n    tag_49:\n        /* \"#utility.yul\":2062:2068   */\n      dup3\n        /* \"#utility.yul\":2057:2060   */\n      dup2\n        /* \"#utility.yul\":2052:2055   */\n      dup4\n        /* \"#utility.yul\":2039:2069   */\n      calldatacopy\n        /* \"#utility.yul\":2103:2104   */\n      0x00\n        /* \"#utility.yul\":2094:2100   */\n      dup4\n        /* \"#utility.yul\":2089:2092   */\n      dup4\n        /* \"#utility.yul\":2085:2101   */\n      add\n        /* \"#utility.yul\":2078:2105   */\n      mstore\n        /* \"#utility.yul\":1965:2111   */\n      pop\n      pop\n      pop\n      jump\t// out\n        /* \"#utility.yul\":2117:2540   */\n    tag_50:\n        /* \"#utility.yul\":2194:2199   */\n      0x00\n        /* \"#utility.yul\":2219:2284   */\n      tag_101\n        /* \"#utility.yul\":2235:2283   */\n      tag_102\n        /* \"#utility.yul\":2276:2282   */\n      dup5\n        /* \"#utility.yul\":2235:2283   */\n      tag_48\n      jump\t// in\n    tag_102:\n        /* \"#utility.yul\":2219:2284   */\n      tag_47\n      jump\t// in\n    tag_101:\n        /* \"#utility.yul\":2210:2284   */\n      swap1\n      pop\n        /* \"#utility.yul\":2307:2313   */\n      dup3\n        /* \"#utility.yul\":2300:2305   */\n      dup2\n        /* \"#utility.yul\":2293:2314   */\n      mstore\n        /* \"#utility.yul\":2345:2349   */\n      0x20\n        /* \"#utility.yul\":2338:2343   */\n      dup2\n        /* \"#utility.yul\":2334:2350   */\n      add\n        /* \"#utility.yul\":2383:2386   */\n      dup5\n        /* \"#utility.yul\":2374:2380   */\n      dup5\n        /* \"#utility.yul\":2369:2372   */\n      dup5\n        /* \"#utility.yul\":2365:2381   */\n      add\n        /* \"#utility.yul\":2362:2387   */\n      gt\n        /* \"#utility.yul\":2359:2471   */\n      iszero\n      tag_103\n      jumpi\n        /* \"#utility.yul\":2390:2469   */\n      tag_104\n      tag_43\n      jump\t// in\n    tag_104:\n        /* \"#utility.yul\":2359:2471   */\n    tag_103:\n        /* \"#utility.yul\":2480:2534   */\n      tag_105\n        /* \"#utility.yul\":2527:2533   */\n      dup5\n        /* \"#utility.yul\":2522:2525   */\n      dup3\n        /* \"#utility.yul\":2517:2520   */\n      dup6\n        /* \"#utility.yul\":2480:2534   */\n      tag_49\n      jump\t// in\n    tag_105:\n        /* \"#utility.yul\":2200:2540   */\n      pop\n        /* \"#utility.yul\":2117:2540   */\n      swap4\n      swap3\n      pop\n      pop\n      pop\n      jump\t// out\n        /* \"#utility.yul\":2559:2897   */\n    tag_51:\n        /* \"#utility.yul\":2614:2619   */\n      0x00\n        /* \"#utility.yul\":2663:2666   */\n      dup3\n        /* \"#utility.yul\":2656:2660   */\n      0x1f\n        /* \"#utility.yul\":2648:2654   */\n      dup4\n        /* \"#utility.yul\":2644:2661   */\n      add\n        /* \"#utility.yul\":2640:2667   */\n      slt\n        /* \"#utility.yul\":2630:2752   */\n      tag_107\n      jumpi\n        /* \"#utility.yul\":2671:2750   */\n      tag_108\n      tag_42\n      jump\t// in\n    tag_108:\n        /* \"#utility.yul\":2630:2752   */\n    tag_107:\n        /* \"#utility.yul\":2788:2794   */\n      dup2\n        /* \"#utility.yul\":2775:2795   */\n      calldataload\n        /* \"#utility.yul\":2813:2891   */\n      tag_109\n        /* \"#utility.yul\":2887:2890   */\n      dup5\n        /* \"#utility.yul\":2879:2885   */\n      dup3\n        /* \"#utility.yul\":2872:2876   */\n      0x20\n        /* \"#utility.yul\":2864:2870   */\n      dup7\n        /* \"#utility.yul\":2860:2877   */\n      add\n        /* \"#utility.yul\":2813:2891   */\n      tag_50\n      jump\t// in\n    tag_109:\n        /* \"#utility.yul\":2804:2891   */\n      swap2\n      pop\n        /* \"#utility.yul\":2620:2897   */\n      pop\n        /* \"#utility.yul\":2559:2897   */\n      swap3\n      swap2\n      pop\n      pop\n      jump\t// out\n        /* \"#utility.yul\":2903:3700   */\n    tag_7:\n        /* \"#utility.yul\":2989:2995   */\n      0x00\n        /* \"#utility.yul\":2997:3003   */\n      dup1\n        /* \"#utility.yul\":3005:3011   */\n      0x00\n        /* \"#utility.yul\":3054:3056   */\n      0x60\n        /* \"#utility.yul\":3042:3051   */\n      dup5\n        /* \"#utility.yul\":3033:3040   */\n      dup7\n        /* \"#utility.yul\":3029:3052   */\n      sub\n        /* \"#utility.yul\":3025:3057   */\n      slt\n        /* \"#utility.yul\":3022:3141   */\n      iszero\n      tag_111\n      jumpi\n        /* \"#utility.yul\":3060:3139   */\n      tag_112\n      tag_37\n      jump\t// in\n    tag_112:\n        /* \"#utility.yul\":3022:3141   */\n    tag_111:\n        /* \"#utility.yul\":3180:3181   */\n      0x00\n        /* \"#utility.yul\":3205:3258   */\n      tag_113\n        /* \"#utility.yul\":3250:3257   */\n      dup7\n        /* \"#utility.yul\":3241:3247   */\n      dup3\n        /* \"#utility.yul\":3230:3239   */\n      dup8\n        /* \"#utility.yul\":3226:3248   */\n      add\n        /* \"#utility.yul\":3205:3258   */\n      tag_41\n      jump\t// in\n    tag_113:\n        /* \"#utility.yul\":3195:3258   */\n      swap4\n      pop\n        /* \"#utility.yul\":3151:3268   */\n      pop\n        /* \"#utility.yul\":3307:3309   */\n      0x20\n        /* \"#utility.yul\":3333:3386   */\n      tag_114\n        /* \"#utility.yul\":3378:3385   */\n      dup7\n        /* \"#utility.yul\":3369:3375   */\n      dup3\n        /* \"#utility.yul\":3358:3367   */\n      dup8\n        /* \"#utility.yul\":3354:3376   */\n      add\n        /* \"#utility.yul\":3333:3386   */\n      tag_41\n      jump\t// in\n    tag_114:\n        /* \"#utility.yul\":3323:3386   */\n      swap3\n      pop\n        /* \"#utility.yul\":3278:3396   */\n      pop\n        /* \"#utility.yul\":3463:3465   */\n      0x40\n        /* \"#utility.yul\":3452:3461   */\n      dup5\n        /* \"#utility.yul\":3448:3466   */\n      add\n        /* \"#utility.yul\":3435:3467   */\n      calldataload\n        /* \"#utility.yul\":3494:3512   */\n      0xffffffffffffffff\n        /* \"#utility.yul\":3486:3492   */\n      dup2\n        /* \"#utility.yul\":3483:3513   */\n      gt\n        /* \"#utility.yul\":3480:3597   */\n      iszero\n      tag_115\n      jumpi\n        /* \"#utility.yul\":3516:3595   */\n      tag_116\n      tag_38\n      jump\t// in\n    tag_116:\n        /* \"#utility.yul\":3480:3597   */\n    tag_115:\n        /* \"#utility.yul\":3621:3683   */\n      tag_117\n        /* \"#utility.yul\":3675:3682   */\n      dup7\n        /* \"#utility.yul\":3666:3672   */\n      dup3\n        /* \"#utility.yul\":3655:3664   */\n      dup8\n        /* \"#utility.yul\":3651:3673   */\n      add\n        /* \"#utility.yul\":3621:3683   */\n      tag_51\n      jump\t// in\n    tag_117:\n        /* \"#utility.yul\":3611:3683   */\n      swap2\n      pop\n        /* \"#utility.yul\":3406:3693   */\n      pop\n        /* \"#utility.yul\":2903:3700   */\n      swap3\n      pop\n      swap3\n      pop\n      swap3\n      jump\t// out\n        /* \"#utility.yul\":3706:3832   */\n    tag_52:\n        /* \"#utility.yul\":3743:3750   */\n      0x00\n        /* \"#utility.yul\":3783:3825   */\n      0xffffffffffffffffffffffffffffffffffffffff\n        /* \"#utility.yul\":3776:3781   */\n      dup3\n        /* \"#utility.yul\":3772:3826   */\n      and\n        /* \"#utility.yul\":3761:3826   */\n      swap1\n      pop\n        /* \"#utility.yul\":3706:3832   */\n      swap2\n      swap1\n      pop\n      jump\t// out\n        /* \"#utility.yul\":3838:3934   */\n    tag_53:\n        /* \"#utility.yul\":3875:3882   */\n      0x00\n        /* \"#utility.yul\":3904:3928   */\n      tag_120\n        /* \"#utility.yul\":3922:3927   */\n      dup3\n        /* \"#utility.yul\":3904:3928   */\n      tag_52\n      jump\t// in\n    tag_120:\n        /* \"#utility.yul\":3893:3928   */\n      swap1\n      pop\n        /* \"#utility.yul\":3838:3934   */\n      swap2\n      swap1\n      pop\n      jump\t// out\n        /* \"#utility.yul\":3940:4034   */\n    tag_54:\n        /* \"#utility.yul\":3973:3981   */\n      0x00\n        /* \"#utility.yul\":4021:4026   */\n      dup2\n        /* \"#utility.yul\":4017:4019   */\n      0x60\n        /* \"#utility.yul\":4013:4027   */\n      shl\n        /* \"#utility.yul\":3992:4027   */\n      swap1\n      pop\n        /* \"#utility.yul\":3940:4034   */\n      swap2\n      swap1\n      pop\n      jump\t// out\n        /* \"#utility.yul\":4040:4134   */\n    tag_55:\n        /* \"#utility.yul\":4079:4086   */\n      0x00\n        /* \"#utility.yul\":4108:4128   */\n      tag_123\n        /* \"#utility.yul\":4122:4127   */\n      dup3\n        /* \"#utility.yul\":4108:4128   */\n      tag_54\n      jump\t// in\n    tag_123:\n        /* \"#utility.yul\":4097:4128   */\n      swap1\n      pop\n        /* \"#utility.yul\":4040:4134   */\n      swap2\n      swap1\n      pop\n      jump\t// out\n        /* \"#utility.yul\":4140:4240   */\n    tag_56:\n        /* \"#utility.yul\":4179:4186   */\n      0x00\n        /* \"#utility.yul\":4208:4234   */\n      tag_125\n        /* \"#utility.yul\":4228:4233   */\n      dup3\n        /* \"#utility.yul\":4208:4234   */\n      tag_55\n      jump\t// in\n    tag_125:\n        /* \"#utility.yul\":4197:4234   */\n      swap1\n      pop\n        /* \"#utility.yul\":4140:4240   */\n      swap2\n      swap1\n      pop\n      jump\t// out\n        /* \"#utility.yul\":4246:4403   */\n    tag_57:\n        /* \"#utility.yul\":4351:4396   */\n      tag_127\n        /* \"#utility.yul\":4371:4395   */\n      tag_128\n        /* \"#utility.yul\":4389:4394   */\n      dup3\n        /* \"#utility.yul\":4371:4395   */\n      tag_53\n      jump\t// in\n    tag_128:\n        /* \"#utility.yul\":4351:4396   */\n      tag_56\n      jump\t// in\n    tag_127:\n        /* \"#utility.yul\":4346:4349   */\n      dup3\n        /* \"#utility.yul\":4339:4397   */\n      mstore\n        /* \"#utility.yul\":4246:4403   */\n      pop\n      pop\n      jump\t// out\n        /* \"#utility.yul\":4409:4488   */\n    tag_58:\n        /* \"#utility.yul\":4448:4455   */\n      0x00\n        /* \"#utility.yul\":4477:4482   */\n      dup2\n        /* \"#utility.yul\":4466:4482   */\n      swap1\n      pop\n        /* \"#utility.yul\":4409:4488   */\n      swap2\n      swap1\n      pop\n      jump\t// out\n        /* \"#utility.yul\":4494:4651   */\n    tag_59:\n        /* \"#utility.yul\":4599:4644   */\n      tag_131\n        /* \"#utility.yul\":4619:4643   */\n      tag_132\n        /* \"#utility.yul\":4637:4642   */\n      dup3\n        /* \"#utility.yul\":4619:4643   */\n      tag_39\n      jump\t// in\n    tag_132:\n        /* \"#utility.yul\":4599:4644   */\n      tag_58\n      jump\t// in\n    tag_131:\n        /* \"#utility.yul\":4594:4597   */\n      dup3\n        /* \"#utility.yul\":4587:4645   */\n      mstore\n        /* \"#utility.yul\":4494:4651   */\n      pop\n      pop\n      jump\t// out\n        /* \"#utility.yul\":4657:4717   */\n    tag_60:\n        /* \"#utility.yul\":4685:4688   */\n      0x00\n        /* \"#utility.yul\":4706:4711   */\n      dup2\n        /* \"#utility.yul\":4699:4711   */\n      swap1\n      pop\n        /* \"#utility.yul\":4657:4717   */\n      swap2\n      swap1\n      pop\n      jump\t// out\n        /* \"#utility.yul\":4723:4865   */\n    tag_61:\n        /* \"#utility.yul\":4773:4782   */\n      0x00\n        /* \"#utility.yul\":4806:4859   */\n      tag_135\n        /* \"#utility.yul\":4824:4858   */\n      tag_136\n        /* \"#utility.yul\":4833:4857   */\n      tag_137\n        /* \"#utility.yul\":4851:4856   */\n      dup5\n        /* \"#utility.yul\":4833:4857   */\n      tag_52\n      jump\t// in\n    tag_137:\n        /* \"#utility.yul\":4824:4858   */\n      tag_60\n      jump\t// in\n    tag_136:\n        /* \"#utility.yul\":4806:4859   */\n      tag_52\n      jump\t// in\n    tag_135:\n        /* \"#utility.yul\":4793:4859   */\n      swap1\n      pop\n        /* \"#utility.yul\":4723:4865   */\n      swap2\n      swap1\n      pop\n      jump\t// out\n        /* \"#utility.yul\":4871:4997   */\n    tag_62:\n        /* \"#utility.yul\":4921:4930   */\n      0x00\n        /* \"#utility.yul\":4954:4991   */\n      tag_139\n        /* \"#utility.yul\":4985:4990   */\n      dup3\n        /* \"#utility.yul\":4954:4991   */\n      tag_61\n      jump\t// in\n    tag_139:\n        /* \"#utility.yul\":4941:4991   */\n      swap1\n      pop\n        /* \"#utility.yul\":4871:4997   */\n      swap2\n      swap1\n      pop\n      jump\t// out\n        /* \"#utility.yul\":5003:5149   */\n    tag_63:\n        /* \"#utility.yul\":5073:5082   */\n      0x00\n        /* \"#utility.yul\":5106:5143   */\n      tag_141\n        /* \"#utility.yul\":5137:5142   */\n      dup3\n        /* \"#utility.yul\":5106:5143   */\n      tag_62\n      jump\t// in\n    tag_141:\n        /* \"#utility.yul\":5093:5143   */\n      swap1\n      pop\n        /* \"#utility.yul\":5003:5149   */\n      swap2\n      swap1\n      pop\n      jump\t// out\n        /* \"#utility.yul\":5155:5365   */\n    tag_64:\n        /* \"#utility.yul\":5280:5358   */\n      tag_143\n        /* \"#utility.yul\":5300:5357   */\n      tag_144\n        /* \"#utility.yul\":5351:5356   */\n      dup3\n        /* \"#utility.yul\":5300:5357   */\n      tag_63\n      jump\t// in\n    tag_144:\n        /* \"#utility.yul\":5280:5358   */\n      tag_56\n      jump\t// in\n    tag_143:\n        /* \"#utility.yul\":5275:5278   */\n      dup3\n        /* \"#utility.yul\":5268:5359   */\n      mstore\n        /* \"#utility.yul\":5155:5365   */\n      pop\n      pop\n      jump\t// out\n        /* \"#utility.yul\":5371:6090   */\n    tag_15:\n        /* \"#utility.yul\":5587:5590   */\n      0x00\n        /* \"#utility.yul\":5602:5677   */\n      tag_146\n        /* \"#utility.yul\":5673:5676   */\n      dup3\n        /* \"#utility.yul\":5664:5670   */\n      dup8\n        /* \"#utility.yul\":5602:5677   */\n      tag_57\n      jump\t// in\n    tag_146:\n        /* \"#utility.yul\":5702:5704   */\n      0x14\n        /* \"#utility.yul\":5697:5700   */\n      dup3\n        /* \"#utility.yul\":5693:5705   */\n      add\n        /* \"#utility.yul\":5686:5705   */\n      swap2\n      pop\n        /* \"#utility.yul\":5715:5790   */\n      tag_147\n        /* \"#utility.yul\":5786:5789   */\n      dup3\n        /* \"#utility.yul\":5777:5783   */\n      dup7\n        /* \"#utility.yul\":5715:5790   */\n      tag_59\n      jump\t// in\n    tag_147:\n        /* \"#utility.yul\":5815:5817   */\n      0x20\n        /* \"#utility.yul\":5810:5813   */\n      dup3\n        /* \"#utility.yul\":5806:5818   */\n      add\n        /* \"#utility.yul\":5799:5818   */\n      swap2\n      pop\n        /* \"#utility.yul\":5828:5903   */\n      tag_148\n        /* \"#utility.yul\":5899:5902   */\n      dup3\n        /* \"#utility.yul\":5890:5896   */\n      dup6\n        /* \"#utility.yul\":5828:5903   */\n      tag_59\n      jump\t// in\n    tag_148:\n        /* \"#utility.yul\":5928:5930   */\n      0x20\n        /* \"#utility.yul\":5923:5926   */\n      dup3\n        /* \"#utility.yul\":5919:5931   */\n      add\n        /* \"#utility.yul\":5912:5931   */\n      swap2\n      pop\n        /* \"#utility.yul\":5941:6036   */\n      tag_149\n        /* \"#utility.yul\":6032:6035   */\n      dup3\n        /* \"#utility.yul\":6023:6029   */\n      dup5\n        /* \"#utility.yul\":5941:6036   */\n      tag_64\n      jump\t// in\n    tag_149:\n        /* \"#utility.yul\":6061:6063   */\n      0x14\n        /* \"#utility.yul\":6056:6059   */\n      dup3\n        /* \"#utility.yul\":6052:6064   */\n      add\n        /* \"#utility.yul\":6045:6064   */\n      swap2\n      pop\n        /* \"#utility.yul\":6081:6084   */\n      dup2\n        /* \"#utility.yul\":6074:6084   */\n      swap1\n      pop\n        /* \"#utility.yul\":5371:6090   */\n      swap6\n      swap5\n      pop\n      pop\n      pop\n      pop\n      pop\n      jump\t// out\n        /* \"#utility.yul\":6096:6244   */\n    tag_65:\n        /* \"#utility.yul\":6198:6209   */\n      0x00\n        /* \"#utility.yul\":6235:6238   */\n      dup2\n        /* \"#utility.yul\":6220:6238   */\n      swap1\n      pop\n        /* \"#utility.yul\":6096:6244   */\n      swap3\n      swap2\n      pop\n      pop\n      jump\t// out\n        /* \"#utility.yul\":6250:6464   */\n    tag_66:\n        /* \"#utility.yul\":6390:6456   */\n      0x19457468657265756d205369676e6564204d6573736167653a0a333200000000\n        /* \"#utility.yul\":6386:6387   */\n      0x00\n        /* \"#utility.yul\":6378:6384   */\n      dup3\n        /* \"#utility.yul\":6374:6388   */\n      add\n        /* \"#utility.yul\":6367:6457   */\n      mstore\n        /* \"#utility.yul\":6250:6464   */\n      pop\n      jump\t// out\n        /* \"#utility.yul\":6470:6872   */\n    tag_67:\n        /* \"#utility.yul\":6630:6633   */\n      0x00\n        /* \"#utility.yul\":6651:6736   */\n      tag_153\n        /* \"#utility.yul\":6733:6735   */\n      0x1c\n        /* \"#utility.yul\":6728:6731   */\n      dup4\n        /* \"#utility.yul\":6651:6736   */\n      tag_65\n      jump\t// in\n    tag_153:\n        /* \"#utility.yul\":6644:6736   */\n      swap2\n      pop\n        /* \"#utility.yul\":6745:6838   */\n      tag_154\n        /* \"#utility.yul\":6834:6837   */\n      dup3\n        /* \"#utility.yul\":6745:6838   */\n      tag_66\n      jump\t// in\n    tag_154:\n        /* \"#utility.yul\":6863:6865   */\n      0x1c\n        /* \"#utility.yul\":6858:6861   */\n      dup3\n        /* \"#utility.yul\":6854:6866   */\n      add\n        /* \"#utility.yul\":6847:6866   */\n      swap1\n      pop\n        /* \"#utility.yul\":6470:6872   */\n      swap2\n      swap1\n      pop\n      jump\t// out\n        /* \"#utility.yul\":6878:6955   */\n    tag_68:\n        /* \"#utility.yul\":6915:6922   */\n      0x00\n        /* \"#utility.yul\":6944:6949   */\n      dup2\n        /* \"#utility.yul\":6933:6949   */\n      swap1\n      pop\n        /* \"#utility.yul\":6878:6955   */\n      swap2\n      swap1\n      pop\n      jump\t// out\n        /* \"#utility.yul\":6961:7040   */\n    tag_69:\n        /* \"#utility.yul\":7000:7007   */\n      0x00\n        /* \"#utility.yul\":7029:7034   */\n      dup2\n        /* \"#utility.yul\":7018:7034   */\n      swap1\n      pop\n        /* \"#utility.yul\":6961:7040   */\n      swap2\n      swap1\n      pop\n      jump\t// out\n        /* \"#utility.yul\":7046:7203   */\n    tag_70:\n        /* \"#utility.yul\":7151:7196   */\n      tag_158\n        /* \"#utility.yul\":7171:7195   */\n      tag_159\n        /* \"#utility.yul\":7189:7194   */\n      dup3\n        /* \"#utility.yul\":7171:7195   */\n      tag_68\n      jump\t// in\n    tag_159:\n        /* \"#utility.yul\":7151:7196   */\n      tag_69\n      jump\t// in\n    tag_158:\n        /* \"#utility.yul\":7146:7149   */\n      dup3\n        /* \"#utility.yul\":7139:7197   */\n      mstore\n        /* \"#utility.yul\":7046:7203   */\n      pop\n      pop\n      jump\t// out\n        /* \"#utility.yul\":7209:7731   */\n    tag_26:\n        /* \"#utility.yul\":7422:7425   */\n      0x00\n        /* \"#utility.yul\":7444:7592   */\n      tag_161\n        /* \"#utility.yul\":7588:7591   */\n      dup3\n        /* \"#utility.yul\":7444:7592   */\n      tag_67\n      jump\t// in\n    tag_161:\n        /* \"#utility.yul\":7437:7592   */\n      swap2\n      pop\n        /* \"#utility.yul\":7602:7677   */\n      tag_162\n        /* \"#utility.yul\":7673:7676   */\n      dup3\n        /* \"#utility.yul\":7664:7670   */\n      dup5\n        /* \"#utility.yul\":7602:7677   */\n      tag_70\n      jump\t// in\n    tag_162:\n        /* \"#utility.yul\":7702:7704   */\n      0x20\n        /* \"#utility.yul\":7697:7700   */\n      dup3\n        /* \"#utility.yul\":7693:7705   */\n      add\n        /* \"#utility.yul\":7686:7705   */\n      swap2\n      pop\n        /* \"#utility.yul\":7722:7725   */\n      dup2\n        /* \"#utility.yul\":7715:7725   */\n      swap1\n      pop\n        /* \"#utility.yul\":7209:7731   */\n      swap3\n      swap2\n      pop\n      pop\n      jump\t// out\n        /* \"#utility.yul\":7737:7855   */\n    tag_71:\n        /* \"#utility.yul\":7824:7848   */\n      tag_164\n        /* \"#utility.yul\":7842:7847   */\n      dup2\n        /* \"#utility.yul\":7824:7848   */\n      tag_68\n      jump\t// in\n    tag_164:\n        /* \"#utility.yul\":7819:7822   */\n      dup3\n        /* \"#utility.yul\":7812:7849   */\n      mstore\n        /* \"#utility.yul\":7737:7855   */\n      pop\n      pop\n      jump\t// out\n        /* \"#utility.yul\":7861:7947   */\n    tag_72:\n        /* \"#utility.yul\":7896:7903   */\n      0x00\n        /* \"#utility.yul\":7936:7940   */\n      0xff\n        /* \"#utility.yul\":7929:7934   */\n      dup3\n        /* \"#utility.yul\":7925:7941   */\n      and\n        /* \"#utility.yul\":7914:7941   */\n      swap1\n      pop\n        /* \"#utility.yul\":7861:7947   */\n      swap2\n      swap1\n      pop\n      jump\t// out\n        /* \"#utility.yul\":7953:8065   */\n    tag_73:\n        /* \"#utility.yul\":8036:8058   */\n      tag_167\n        /* \"#utility.yul\":8052:8057   */\n      dup2\n        /* \"#utility.yul\":8036:8058   */\n      tag_72\n      jump\t// in\n    tag_167:\n        /* \"#utility.yul\":8031:8034   */\n      dup3\n        /* \"#utility.yul\":8024:8059   */\n      mstore\n        /* \"#utility.yul\":7953:8065   */\n      pop\n      pop\n      jump\t// out\n        /* \"#utility.yul\":8071:8616   */\n    tag_31:\n        /* \"#utility.yul\":8244:8248   */\n      0x00\n        /* \"#utility.yul\":8282:8285   */\n      0x80\n        /* \"#utility.yul\":8271:8280   */\n      dup3\n        /* \"#utility.yul\":8267:8286   */\n      add\n        /* \"#utility.yul\":8259:8286   */\n      swap1\n      pop\n        /* \"#utility.yul\":8296:8367   */\n      tag_169\n        /* \"#utility.yul\":8364:8365   */\n      0x00\n        /* \"#utility.yul\":8353:8362   */\n      dup4\n        /* \"#utility.yul\":8349:8366   */\n      add\n        /* \"#utility.yul\":8340:8346   */\n      dup8\n        /* \"#utility.yul\":8296:8367   */\n      tag_71\n      jump\t// in\n    tag_169:\n        /* \"#utility.yul\":8377:8445   */\n      tag_170\n        /* \"#utility.yul\":8441:8443   */\n      0x20\n        /* \"#utility.yul\":8430:8439   */\n      dup4\n        /* \"#utility.yul\":8426:8444   */\n      add\n        /* \"#utility.yul\":8417:8423   */\n      dup7\n        /* \"#utility.yul\":8377:8445   */\n      tag_73\n      jump\t// in\n    tag_170:\n        /* \"#utility.yul\":8455:8527   */\n      tag_171\n        /* \"#utility.yul\":8523:8525   */\n      0x40\n        /* \"#utility.yul\":8512:8521   */\n      dup4\n        /* \"#utility.yul\":8508:8526   */\n      add\n        /* \"#utility.yul\":8499:8505   */\n      dup6\n        /* \"#utility.yul\":8455:8527   */\n      tag_71\n      jump\t// in\n    tag_171:\n        /* \"#utility.yul\":8537:8609   */\n      tag_172\n        /* \"#utility.yul\":8605:8607   */\n      0x60\n        /* \"#utility.yul\":8594:8603   */\n      dup4\n        /* \"#utility.yul\":8590:8608   */\n      add\n        /* \"#utility.yul\":8581:8587   */\n      dup5\n        /* \"#utility.yul\":8537:8609   */\n      tag_71\n      jump\t// in\n    tag_172:\n        /* \"#utility.yul\":8071:8616   */\n      swap6\n      swap5\n      pop\n      pop\n      pop\n      pop\n      pop\n      jump\t// out\n\n    auxdata: 0xa26469706673582212209b4ef4292977f867b3c64a38fc0f5a379eb790b93af2263a785b23b9f6d5bbc364736f6c63430008120033\n}\n",
				"bytecode": {
					"linkReferences": {},
					"object": "6080604052336000806101000a81548173ffffffffffffffffffffffffffffffffffffffff021916908373ffffffffffffffffffffffffffffffffffffffff16021790555061077d806100536000396000f3fe608060405234801561001057600080fd5b50600436106100365760003560e01c8063a90ae8871461003b578063fc0e74d114610057575b600080fd5b61005560048036038101906100509190610470565b610061565b005b61005f61019e565b005b6001600083815260200190815260200160002060009054906101000a900460ff161561008c57600080fd5b600180600084815260200190815260200160002060006101000a81548160ff02191690831515021790555060006100ee338585306040516020016100d394939291906105e1565b6040516020818303038152906040528051906020012061020f565b905060008054906101000a900473ffffffffffffffffffffffffffffffffffffffff1673ffffffffffffffffffffffffffffffffffffffff16610131828461023f565b73ffffffffffffffffffffffffffffffffffffffff161461015157600080fd5b3373ffffffffffffffffffffffffffffffffffffffff166108fc859081150290604051600060405180830381858888f19350505050158015610197573d6000803e3d6000fd5b5050505050565b60008054906101000a900473ffffffffffffffffffffffffffffffffffffffff1673ffffffffffffffffffffffffffffffffffffffff163373ffffffffffffffffffffffffffffffffffffffff16146101f657600080fd5b3373ffffffffffffffffffffffffffffffffffffffff16ff5b60008160405160200161022291906106b1565b604051602081830303815290604052805190602001209050919050565b60008060008061024e856102ae565b925092509250600186848484604051600081526020016040526040516102779493929190610702565b6020604051602081039080840390855afa158015610299573d6000803e3d6000fd5b50505060206040510351935050505092915050565b600080600060418451146102c157600080fd5b6020840151915060408401519050606084015160001a92509193909250565b6000604051905090565b600080fd5b600080fd5b6000819050919050565b610307816102f4565b811461031257600080fd5b50565b600081359050610324816102fe565b92915050565b600080fd5b600080fd5b6000601f19601f8301169050919050565b7f4e487b7100000000000000000000000000000000000000000000000000000000600052604160045260246000fd5b61037d82610334565b810181811067ffffffffffffffff8211171561039c5761039b610345565b5b80604052505050565b60006103af6102e0565b90506103bb8282610374565b919050565b600067ffffffffffffffff8211156103db576103da610345565b5b6103e482610334565b9050602081019050919050565b82818337600083830152505050565b600061041361040e846103c0565b6103a5565b90508281526020810184848401111561042f5761042e61032f565b5b61043a8482856103f1565b509392505050565b600082601f8301126104575761045661032a565b5b8135610467848260208601610400565b91505092915050565b600080600060608486031215610489576104886102ea565b5b600061049786828701610315565b93505060206104a886828701610315565b925050604084013567ffffffffffffffff8111156104c9576104c86102ef565b5b6104d586828701610442565b9150509250925092565b600073ffffffffffffffffffffffffffffffffffffffff82169050919050565b600061050a826104df565b9050919050565b60008160601b9050919050565b600061052982610511565b9050919050565b600061053b8261051e565b9050919050565b61055361054e826104ff565b610530565b82525050565b6000819050919050565b61057461056f826102f4565b610559565b82525050565b6000819050919050565b600061059f61059a610595846104df565b61057a565b6104df565b9050919050565b60006105b182610584565b9050919050565b60006105c3826105a6565b9050919050565b6105db6105d6826105b8565b610530565b82525050565b60006105ed8287610542565b6014820191506105fd8286610563565b60208201915061060d8285610563565b60208201915061061d82846105ca565b60148201915081905095945050505050565b600081905092915050565b7f19457468657265756d205369676e6564204d6573736167653a0a333200000000600082015250565b6000610670601c8361062f565b915061067b8261063a565b601c82019050919050565b6000819050919050565b6000819050919050565b6106ab6106a682610686565b610690565b82525050565b60006106bc82610663565b91506106c8828461069a565b60208201915081905092915050565b6106e081610686565b82525050565b600060ff82169050919050565b6106fc816106e6565b82525050565b600060808201905061071760008301876106d7565b61072460208301866106f3565b61073160408301856106d7565b61073e60608301846106d7565b9594505050505056fea26469706673582212209b4ef4292977f867b3c64a38fc0f5a379eb790b93af2263a785b23b9f6d5bbc364736f6c63430008120033",
					"opcodes": "PUSH1 0x80 PUSH1 0x40 MSTORE CALLER PUSH1 0x0 DUP1 PUSH2 0x100 EXP DUP2 SLOAD DUP2 PUSH20 0xFFFFFFFFFFFFFFFFFFFFFFFFFFFFFFFFFFFFFFFF MUL NOT AND SWAP1 DUP4 PUSH20 0xFFFFFFFFFFFFFFFFFFFFFFFFFFFFFFFFFFFFFFFF AND MUL OR SWAP1 SSTORE POP PUSH2 0x77D DUP1 PUSH2 0x53 PUSH1 0x0 CODECOPY PUSH1 0x0 RETURN INVALID PUSH1 0x80 PUSH1 0x40 MSTORE CALLVALUE DUP1 ISZERO PUSH2 0x10 JUMPI PUSH1 0x0 DUP1 REVERT JUMPDEST POP PUSH1 0x4 CALLDATASIZE LT PUSH2 0x36 JUMPI PUSH1 0x0 CALLDATALOAD PUSH1 0xE0 SHR DUP1 PUSH4 0xA90AE887 EQ PUSH2 0x3B JUMPI DUP1 PUSH4 0xFC0E74D1 EQ PUSH2 0x57 JUMPI JUMPDEST PUSH1 0x0 DUP1 REVERT JUMPDEST PUSH2 0x55 PUSH1 0x4 DUP1 CALLDATASIZE SUB DUP2 ADD SWAP1 PUSH2 0x50 SWAP2 SWAP1 PUSH2 0x470 JUMP JUMPDEST PUSH2 0x61 JUMP JUMPDEST STOP JUMPDEST PUSH2 0x5F PUSH2 0x19E JUMP JUMPDEST STOP JUMPDEST PUSH1 0x1 PUSH1 0x0 DUP4 DUP2 MSTORE PUSH1 0x20 ADD SWAP1 DUP2 MSTORE PUSH1 0x20 ADD PUSH1 0x0 KECCAK256 PUSH1 0x0 SWAP1 SLOAD SWAP1 PUSH2 0x100 EXP SWAP1 DIV PUSH1 0xFF AND ISZERO PUSH2 0x8C JUMPI PUSH1 0x0 DUP1 REVERT JUMPDEST PUSH1 0x1 DUP1 PUSH1 0x0 DUP5 DUP2 MSTORE PUSH1 0x20 ADD SWAP1 DUP2 MSTORE PUSH1 0x20 ADD PUSH1 0x0 KECCAK256 PUSH1 0x0 PUSH2 0x100 EXP DUP2 SLOAD DUP2 PUSH1 0xFF MUL NOT AND SWAP1 DUP4 ISZERO ISZERO MUL OR SWAP1 SSTORE POP PUSH1 0x0 PUSH2 0xEE CALLER DUP6 DUP6 ADDRESS PUSH1 0x40 MLOAD PUSH1 0x20 ADD PUSH2 0xD3 SWAP5 SWAP4 SWAP3 SWAP2 SWAP1 PUSH2 0x5E1 JUMP JUMPDEST PUSH1 0x40 MLOAD PUSH1 0x20 DUP2 DUP4 SUB SUB DUP2 MSTORE SWAP1 PUSH1 0x40 MSTORE DUP1 MLOAD SWAP1 PUSH1 0x20 ADD KECCAK256 PUSH2 0x20F JUMP JUMPDEST SWAP1 POP PUSH1 0x0 DUP1 SLOAD SWAP1 PUSH2 0x100 EXP SWAP1 DIV PUSH20 0xFFFFFFFFFFFFFFFFFFFFFFFFFFFFFFFFFFFFFFFF AND PUSH20 0xFFFFFFFFFFFFFFFFFFFFFFFFFFFFFFFFFFFFFFFF AND PUSH2 0x131 DUP3 DUP5 PUSH2 0x23F JUMP JUMPDEST PUSH20 0xFFFFFFFFFFFFFFFFFFFFFFFFFFFFFFFFFFFFFFFF AND EQ PUSH2 0x151 JUMPI PUSH1 0x0 DUP1 REVERT JUMPDEST CALLER PUSH20 0xFFFFFFFFFFFFFFFFFFFFFFFFFFFFFFFFFFFFFFFF AND PUSH2 0x8FC DUP6 SWAP1 DUP2 ISZERO MUL SWAP1 PUSH1 0x40 MLOAD PUSH1 0x0 PUSH1 0x40 MLOAD DUP1 DUP4 SUB DUP2 DUP6 DUP9 DUP9 CALL SWAP4 POP POP POP POP ISZERO DUP1 ISZERO PUSH2 0x197 JUMPI RETURNDATASIZE PUSH1 0x0 DUP1 RETURNDATACOPY RETURNDATASIZE PUSH1 0x0 REVERT JUMPDEST POP POP POP POP POP JUMP JUMPDEST PUSH1 0x0 DUP1 SLOAD SWAP1 PUSH2 0x100 EXP SWAP1 DIV PUSH20 0xFFFFFFFFFFFFFFFFFFFFFFFFFFFFFFFFFFFFFFFF AND PUSH20 0xFFFFFFFFFFFFFFFFFFFFFFFFFFFFFFFFFFFFFFFF AND CALLER PUSH20 0xFFFFFFFFFFFFFFFFFFFFFFFFFFFFFFFFFFFFFFFF AND EQ PUSH2 0x1F6 JUMPI PUSH1 0x0 DUP1 REVERT JUMPDEST CALLER PUSH20 0xFFFFFFFFFFFFFFFFFFFFFFFFFFFFFFFFFFFFFFFF AND SELFDESTRUCT JUMPDEST PUSH1 0x0 DUP2 PUSH1 0x40 MLOAD PUSH1 0x20 ADD PUSH2 0x222 SWAP2 SWAP1 PUSH2 0x6B1 JUMP JUMPDEST PUSH1 0x40 MLOAD PUSH1 0x20 DUP2 DUP4 SUB SUB DUP2 MSTORE SWAP1 PUSH1 0x40 MSTORE DUP1 MLOAD SWAP1 PUSH1 0x20 ADD KECCAK256 SWAP1 POP SWAP2 SWAP1 POP JUMP JUMPDEST PUSH1 0x0 DUP1 PUSH1 0x0 DUP1 PUSH2 0x24E DUP6 PUSH2 0x2AE JUMP JUMPDEST SWAP3 POP SWAP3 POP SWAP3 POP PUSH1 0x1 DUP7 DUP5 DUP5 DUP5 PUSH1 0x40 MLOAD PUSH1 0x0 DUP2 MSTORE PUSH1 0x20 ADD PUSH1 0x40 MSTORE PUSH1 0x40 MLOAD PUSH2 0x277 SWAP5 SWAP4 SWAP3 SWAP2 SWAP1 PUSH2 0x702 JUMP JUMPDEST PUSH1 0x20 PUSH1 0x40 MLOAD PUSH1 0x20 DUP2 SUB SWAP1 DUP1 DUP5 SUB SWAP1 DUP6 GAS STATICCALL ISZERO DUP1 ISZERO PUSH2 0x299 JUMPI RETURNDATASIZE PUSH1 0x0 DUP1 RETURNDATACOPY RETURNDATASIZE PUSH1 0x0 REVERT JUMPDEST POP POP POP PUSH1 0x20 PUSH1 0x40 MLOAD SUB MLOAD SWAP4 POP POP POP POP SWAP3 SWAP2 POP POP JUMP JUMPDEST PUSH1 0x0 DUP1 PUSH1 0x0 PUSH1 0x41 DUP5 MLOAD EQ PUSH2 0x2C1 JUMPI PUSH1 0x0 DUP1 REVERT JUMPDEST PUSH1 0x20 DUP5 ADD MLOAD SWAP2 POP PUSH1 0x40 DUP5 ADD MLOAD SWAP1 POP PUSH1 0x60 DUP5 ADD MLOAD PUSH1 0x0 BYTE SWAP3 POP SWAP2 SWAP4 SWAP1 SWAP3 POP JUMP JUMPDEST PUSH1 0x0 PUSH1 0x40 MLOAD SWAP1 POP SWAP1 JUMP JUMPDEST PUSH1 0x0 DUP1 REVERT JUMPDEST PUSH1 0x0 DUP1 REVERT JUMPDEST PUSH1 0x0 DUP2 SWAP1 POP SWAP2 SWAP1 POP JUMP JUMPDEST PUSH2 0x307 DUP2 PUSH2 0x2F4 JUMP JUMPDEST DUP2 EQ PUSH2 0x312 JUMPI PUSH1 0x0 DUP1 REVERT JUMPDEST POP JUMP JUMPDEST PUSH1 0x0 DUP2 CALLDATALOAD SWAP1 POP PUSH2 0x324 DUP2 PUSH2 0x2FE JUMP JUMPDEST SWAP3 SWAP2 POP POP JUMP JUMPDEST PUSH1 0x0 DUP1 REVERT JUMPDEST PUSH1 0x0 DUP1 REVERT JUMPDEST PUSH1 0x0 PUSH1 0x1F NOT PUSH1 0x1F DUP4 ADD AND SWAP1 POP SWAP2 SWAP1 POP JUMP JUMPDEST PUSH32 0x4E487B7100000000000000000000000000000000000000000000000000000000 PUSH1 0x0 MSTORE PUSH1 0x41 PUSH1 0x4 MSTORE PUSH1 0x24 PUSH1 0x0 REVERT JUMPDEST PUSH2 0x37D DUP3 PUSH2 0x334 JUMP JUMPDEST DUP2 ADD DUP2 DUP2 LT PUSH8 0xFFFFFFFFFFFFFFFF DUP3 GT OR ISZERO PUSH2 0x39C JUMPI PUSH2 0x39B PUSH2 0x345 JUMP JUMPDEST JUMPDEST DUP1 PUSH1 0x40 MSTORE POP POP POP JUMP JUMPDEST PUSH1 0x0 PUSH2 0x3AF PUSH2 0x2E0 JUMP JUMPDEST SWAP1 POP PUSH2 0x3BB DUP3 DUP3 PUSH2 0x374 JUMP JUMPDEST SWAP2 SWAP1 POP JUMP JUMPDEST PUSH1 0x0 PUSH8 0xFFFFFFFFFFFFFFFF DUP3 GT ISZERO PUSH2 0x3DB JUMPI PUSH2 0x3DA PUSH2 0x345 JUMP JUMPDEST JUMPDEST PUSH2 0x3E4 DUP3 PUSH2 0x334 JUMP JUMPDEST SWAP1 POP PUSH1 0x20 DUP2 ADD SWAP1 POP SWAP2 SWAP1 POP JUMP JUMPDEST DUP3 DUP2 DUP4 CALLDATACOPY PUSH1 0x0 DUP4 DUP4 ADD MSTORE POP POP POP JUMP JUMPDEST PUSH1 0x0 PUSH2 0x413 PUSH2 0x40E DUP5 PUSH2 0x3C0 JUMP JUMPDEST PUSH2 0x3A5 JUMP JUMPDEST SWAP1 POP DUP3 DUP2 MSTORE PUSH1 0x20 DUP2 ADD DUP5 DUP5 DUP5 ADD GT ISZERO PUSH2 0x42F JUMPI PUSH2 0x42E PUSH2 0x32F JUMP JUMPDEST JUMPDEST PUSH2 0x43A DUP5 DUP3 DUP6 PUSH2 0x3F1 JUMP JUMPDEST POP SWAP4 SWAP3 POP POP POP JUMP JUMPDEST PUSH1 0x0 DUP3 PUSH1 0x1F DUP4 ADD SLT PUSH2 0x457 JUMPI PUSH2 0x456 PUSH2 0x32A JUMP JUMPDEST JUMPDEST DUP2 CALLDATALOAD PUSH2 0x467 DUP5 DUP3 PUSH1 0x20 DUP7 ADD PUSH2 0x400 JUMP JUMPDEST SWAP2 POP POP SWAP3 SWAP2 POP POP JUMP JUMPDEST PUSH1 0x0 DUP1 PUSH1 0x0 PUSH1 0x60 DUP5 DUP7 SUB SLT ISZERO PUSH2 0x489 JUMPI PUSH2 0x488 PUSH2 0x2EA JUMP JUMPDEST JUMPDEST PUSH1 0x0 PUSH2 0x497 DUP7 DUP3 DUP8 ADD PUSH2 0x315 JUMP JUMPDEST SWAP4 POP POP PUSH1 0x20 PUSH2 0x4A8 DUP7 DUP3 DUP8 ADD PUSH2 0x315 JUMP JUMPDEST SWAP3 POP POP PUSH1 0x40 DUP5 ADD CALLDATALOAD PUSH8 0xFFFFFFFFFFFFFFFF DUP2 GT ISZERO PUSH2 0x4C9 JUMPI PUSH2 0x4C8 PUSH2 0x2EF JUMP JUMPDEST JUMPDEST PUSH2 0x4D5 DUP7 DUP3 DUP8 ADD PUSH2 0x442 JUMP JUMPDEST SWAP2 POP POP SWAP3 POP SWAP3 POP SWAP3 JUMP JUMPDEST PUSH1 0x0 PUSH20 0xFFFFFFFFFFFFFFFFFFFFFFFFFFFFFFFFFFFFFFFF DUP3 AND SWAP1 POP SWAP2 SWAP1 POP JUMP JUMPDEST PUSH1 0x0 PUSH2 0x50A DUP3 PUSH2 0x4DF JUMP JUMPDEST SWAP1 POP SWAP2 SWAP1 POP JUMP JUMPDEST PUSH1 0x0 DUP2 PUSH1 0x60 SHL SWAP1 POP SWAP2 SWAP1 POP JUMP JUMPDEST PUSH1 0x0 PUSH2 0x529 DUP3 PUSH2 0x511 JUMP JUMPDEST SWAP1 POP SWAP2 SWAP1 POP JUMP JUMPDEST PUSH1 0x0 PUSH2 0x53B DUP3 PUSH2 0x51E JUMP JUMPDEST SWAP1 POP SWAP2 SWAP1 POP JUMP JUMPDEST PUSH2 0x553 PUSH2 0x54E DUP3 PUSH2 0x4FF JUMP JUMPDEST PUSH2 0x530 JUMP JUMPDEST DUP3 MSTORE POP POP JUMP JUMPDEST PUSH1 0x0 DUP2 SWAP1 POP SWAP2 SWAP1 POP JUMP JUMPDEST PUSH2 0x574 PUSH2 0x56F DUP3 PUSH2 0x2F4 JUMP JUMPDEST PUSH2 0x559 JUMP JUMPDEST DUP3 MSTORE POP POP JUMP JUMPDEST PUSH1 0x0 DUP2 SWAP1 POP SWAP2 SWAP1 POP JUMP JUMPDEST PUSH1 0x0 PUSH2 0x59F PUSH2 0x59A PUSH2 0x595 DUP5 PUSH2 0x4DF JUMP JUMPDEST PUSH2 0x57A JUMP JUMPDEST PUSH2 0x4DF JUMP JUMPDEST SWAP1 POP SWAP2 SWAP1 POP JUMP JUMPDEST PUSH1 0x0 PUSH2 0x5B1 DUP3 PUSH2 0x584 JUMP JUMPDEST SWAP1 POP SWAP2 SWAP1 POP JUMP JUMPDEST PUSH1 0x0 PUSH2 0x5C3 DUP3 PUSH2 0x5A6 JUMP JUMPDEST SWAP1 POP SWAP2 SWAP1 POP JUMP JUMPDEST PUSH2 0x5DB PUSH2 0x5D6 DUP3 PUSH2 0x5B8 JUMP JUMPDEST PUSH2 0x530 JUMP JUMPDEST DUP3 MSTORE POP POP JUMP JUMPDEST PUSH1 0x0 PUSH2 0x5ED DUP3 DUP8 PUSH2 0x542 JUMP JUMPDEST PUSH1 0x14 DUP3 ADD SWAP2 POP PUSH2 0x5FD DUP3 DUP7 PUSH2 0x563 JUMP JUMPDEST PUSH1 0x20 DUP3 ADD SWAP2 POP PUSH2 0x60D DUP3 DUP6 PUSH2 0x563 JUMP JUMPDEST PUSH1 0x20 DUP3 ADD SWAP2 POP PUSH2 0x61D DUP3 DUP5 PUSH2 0x5CA JUMP JUMPDEST PUSH1 0x14 DUP3 ADD SWAP2 POP DUP2 SWAP1 POP SWAP6 SWAP5 POP POP POP POP POP JUMP JUMPDEST PUSH1 0x0 DUP2 SWAP1 POP SWAP3 SWAP2 POP POP JUMP JUMPDEST PUSH32 0x19457468657265756D205369676E6564204D6573736167653A0A333200000000 PUSH1 0x0 DUP3 ADD MSTORE POP JUMP JUMPDEST PUSH1 0x0 PUSH2 0x670 PUSH1 0x1C DUP4 PUSH2 0x62F JUMP JUMPDEST SWAP2 POP PUSH2 0x67B DUP3 PUSH2 0x63A JUMP JUMPDEST PUSH1 0x1C DUP3 ADD SWAP1 POP SWAP2 SWAP1 POP JUMP JUMPDEST PUSH1 0x0 DUP2 SWAP1 POP SWAP2 SWAP1 POP JUMP JUMPDEST PUSH1 0x0 DUP2 SWAP1 POP SWAP2 SWAP1 POP JUMP JUMPDEST PUSH2 0x6AB PUSH2 0x6A6 DUP3 PUSH2 0x686 JUMP JUMPDEST PUSH2 0x690 JUMP JUMPDEST DUP3 MSTORE POP POP JUMP JUMPDEST PUSH1 0x0 PUSH2 0x6BC DUP3 PUSH2 0x663 JUMP JUMPDEST SWAP2 POP PUSH2 0x6C8 DUP3 DUP5 PUSH2 0x69A JUMP JUMPDEST PUSH1 0x20 DUP3 ADD SWAP2 POP DUP2 SWAP1 POP SWAP3 SWAP2 POP POP JUMP JUMPDEST PUSH2 0x6E0 DUP2 PUSH2 0x686 JUMP JUMPDEST DUP3 MSTORE POP POP JUMP JUMPDEST PUSH1 0x0 PUSH1 0xFF DUP3 AND SWAP1 POP SWAP2 SWAP1 POP JUMP JUMPDEST PUSH2 0x6FC DUP2 PUSH2 0x6E6 JUMP JUMPDEST DUP3 MSTORE POP POP JUMP JUMPDEST PUSH1 0x0 PUSH1 0x80 DUP3 ADD SWAP1 POP PUSH2 0x717 PUSH1 0x0 DUP4 ADD DUP8 PUSH2 0x6D7 JUMP JUMPDEST PUSH2 0x724 PUSH1 0x20 DUP4 ADD DUP7 PUSH2 0x6F3 JUMP JUMPDEST PUSH2 0x731 PUSH1 0x40 DUP4 ADD DUP6 PUSH2 0x6D7 JUMP JUMPDEST PUSH2 0x73E PUSH1 0x60 DUP4 ADD DUP5 PUSH2 0x6D7 JUMP JUMPDEST SWAP6 SWAP5 POP POP POP POP POP JUMP INVALID LOG2 PUSH5 0x6970667358 0x22 SLT KECCAK256 SWAP12 0x4E DELEGATECALL 0x29 0x29 PUSH24 0xF867B3C64A38FC0F5A379EB790B93AF2263A785B23B9F6D5 0xBB 0xC3 PUSH5 0x736F6C6343 STOP ADDMOD SLT STOP CALLER "
				},
				"gasEstimates": {
					"creation": {
						"codeDepositCost": "383400",
						"executionCost": "24660",
						"totalCost": "408060"
					},
					"external": {
						"claimPayment(uint256,uint256,bytes)": "infinite",
						"shutdown()": "29910"
					},
					"internal": {
						"prefixed(bytes32)": "infinite",
						"recoverSigner(bytes32,bytes memory)": "infinite",
						"splitSignature(bytes memory)": "infinite"
					}
				},
				"methodIdentifiers": {
					"claimPayment(uint256,uint256,bytes)": "a90ae887",
					"shutdown()": "fc0e74d1"
				}
			},
			"storageLayout": {
				"storage": [
					{
						"astId": 5,
						"contract": "contract-receiverPays.sol:ReceiverPays",
						"label": "owner",
						"offset": 0,
						"slot": "0",
						"type": "t_address"
					},
					{
						"astId": 9,
						"contract": "contract-receiverPays.sol:ReceiverPays",
						"label": "usedNonces",
						"offset": 0,
						"slot": "1",
						"type": "t_mapping(t_uint256,t_bool)"
					}
				],
				"types": {
					"t_address": {
						"encoding": "inplace",
						"label": "address",
						"numberOfBytes": "20"
					},
					"t_bool": {
						"encoding": "inplace",
						"label": "bool",
						"numberOfBytes": "1"
					},
					"t_mapping(t_uint256,t_bool)": {
						"encoding": "mapping",
						"key": "t_uint256",
						"label": "mapping(uint256 => bool)",
						"numberOfBytes": "32",
						"value": "t_bool"
					},
					"t_uint256": {
						"encoding": "inplace",
						"label": "uint256",
						"numberOfBytes": "32"
					}
				}
			},
			"userdoc": {
				"kind": "user",
				"methods": {
					"shutdown()": {
						"notice": "destroy the contract and reclaim the leftover funds."
					}
				},
				"version": 1
			}
		}
	}
}