{
	"contract-2646461567.sol": {
		"D": {
			"abi": [
				{
					"inputs": [],
					"name": "readData",
					"outputs": [],
					"stateMutability": "nonpayable",
					"type": "function"
				}
			],
			"devdoc": {
				"kind": "dev",
				"methods": {},
				"version": 1
			},
			"evm": {
				"assembly": "    /* \"contract-2646461567.sol\":405:702  contract D {... */\n  mstore(0x40, 0x80)\n  callvalue\n  dup1\n  iszero\n  tag_1\n  jumpi\n  0x00\n  dup1\n  revert\ntag_1:\n  pop\n  dataSize(sub_0)\n  dup1\n  dataOffset(sub_0)\n  0x00\n  codecopy\n  0x00\n  return\nstop\n\nsub_0: assembly {\n        /* \"contract-2646461567.sol\":405:702  contract D {... */\n      mstore(0x40, 0x80)\n      callvalue\n      dup1\n      iszero\n      tag_1\n      jumpi\n      0x00\n      dup1\n      revert\n    tag_1:\n      pop\n      jumpi(tag_2, lt(calldatasize, 0x04))\n      shr(0xe0, calldataload(0x00))\n      dup1\n      0xbef55ef3\n      eq\n      tag_3\n      jumpi\n    tag_2:\n      0x00\n      dup1\n      revert\n        /* \"contract-2646461567.sol\":422:700  function readData() public {... */\n    tag_3:\n      tag_4\n      tag_5\n      jump\t// in\n    tag_4:\n      stop\n    tag_5:\n        /* \"contract-2646461567.sol\":459:462  C c */\n      0x00\n        /* \"contract-2646461567.sol\":465:472  new C() */\n      mload(0x40)\n      tag_7\n      swap1\n      tag_8\n      jump\t// in\n    tag_7:\n      mload(0x40)\n      dup1\n      swap2\n      sub\n      swap1\n      0x00\n      create\n      dup1\n      iszero\n      dup1\n      iszero\n      tag_9\n      jumpi\n      returndatasize\n      0x00\n      dup1\n      returndatacopy\n      revert(0x00, returndatasize)\n    tag_9:\n      pop\n        /* \"contract-2646461567.sol\":459:472  C c = new C() */\n      swap1\n      pop\n        /* \"contract-2646461567.sol\":559:560  c */\n      dup1\n        /* \"contract-2646461567.sol\":559:568  c.setData */\n      0xffffffffffffffffffffffffffffffffffffffff\n      and\n      0x5b4b73a9\n        /* \"contract-2646461567.sol\":569:570  3 */\n      0x03\n        /* \"contract-2646461567.sol\":559:571  c.setData(3) */\n      mload(0x40)\n      dup3\n      0xffffffff\n      and\n      0xe0\n      shl\n      dup2\n      mstore\n      0x04\n      add\n      tag_10\n      swap2\n      swap1\n      tag_11\n      jump\t// in\n    tag_10:\n      0x00\n      mload(0x40)\n      dup1\n      dup4\n      sub\n      dup2\n      0x00\n      dup8\n      dup1\n      extcodesize\n      iszero\n      dup1\n      iszero\n      tag_12\n      jumpi\n      0x00\n      dup1\n      revert\n    tag_12:\n      pop\n      gas\n      call\n      iszero\n      dup1\n      iszero\n      tag_14\n      jumpi\n      returndatasize\n      0x00\n      dup1\n      returndatacopy\n      revert(0x00, returndatasize)\n    tag_14:\n      pop\n      pop\n      pop\n      pop\n        /* \"contract-2646461567.sol\":581:591  uint local */\n      0x00\n        /* \"contract-2646461567.sol\":594:595  c */\n      dup2\n        /* \"contract-2646461567.sol\":594:603  c.getData */\n      0xffffffffffffffffffffffffffffffffffffffff\n      and\n      0x3bc5de30\n        /* \"contract-2646461567.sol\":594:605  c.getData() */\n      mload(0x40)\n      dup2\n      0xffffffff\n      and\n      0xe0\n      shl\n      dup2\n      mstore\n      0x04\n      add\n      0x20\n      mload(0x40)\n      dup1\n      dup4\n      sub\n      dup2\n      dup7\n      gas\n      staticcall\n      iszero\n      dup1\n      iszero\n      tag_16\n      jumpi\n      returndatasize\n      0x00\n      dup1\n      returndatacopy\n      revert(0x00, returndatasize)\n    tag_16:\n      pop\n      pop\n      pop\n      pop\n      mload(0x40)\n      returndatasize\n      not(0x1f)\n      0x1f\n      dup3\n      add\n      and\n      dup3\n      add\n      dup1\n      0x40\n      mstore\n      pop\n      dup2\n      add\n      swap1\n      tag_17\n      swap2\n      swap1\n      tag_18\n      jump\t// in\n    tag_17:\n        /* \"contract-2646461567.sol\":581:605  uint local = c.getData() */\n      swap1\n      pop\n        /* \"contract-2646461567.sol\":449:700  {... */\n      pop\n      pop\n        /* \"contract-2646461567.sol\":422:700  function readData() public {... */\n      jump\t// out\n    tag_8:\n      dataSize(sub_0)\n      dup1\n      dataOffset(sub_0)\n      dup4\n      codecopy\n      add\n      swap1\n      jump\t// out\n        /* \"#utility.yul\":7:92   */\n    tag_19:\n        /* \"#utility.yul\":52:59   */\n      0x00\n        /* \"#utility.yul\":81:86   */\n      dup2\n        /* \"#utility.yul\":70:86   */\n      swap1\n      pop\n        /* \"#utility.yul\":7:92   */\n      swap2\n      swap1\n      pop\n      jump\t// out\n        /* \"#utility.yul\":98:175   */\n    tag_20:\n        /* \"#utility.yul\":135:142   */\n      0x00\n        /* \"#utility.yul\":164:169   */\n      dup2\n        /* \"#utility.yul\":153:169   */\n      swap1\n      pop\n        /* \"#utility.yul\":98:175   */\n      swap2\n      swap1\n      pop\n      jump\t// out\n        /* \"#utility.yul\":181:241   */\n    tag_21:\n        /* \"#utility.yul\":209:212   */\n      0x00\n        /* \"#utility.yul\":230:235   */\n      dup2\n        /* \"#utility.yul\":223:235   */\n      swap1\n      pop\n        /* \"#utility.yul\":181:241   */\n      swap2\n      swap1\n      pop\n      jump\t// out\n        /* \"#utility.yul\":247:405   */\n    tag_22:\n        /* \"#utility.yul\":305:314   */\n      0x00\n        /* \"#utility.yul\":338:399   */\n      tag_34\n        /* \"#utility.yul\":356:398   */\n      tag_35\n        /* \"#utility.yul\":365:397   */\n      tag_36\n        /* \"#utility.yul\":391:396   */\n      dup5\n        /* \"#utility.yul\":365:397   */\n      tag_19\n      jump\t// in\n    tag_36:\n        /* \"#utility.yul\":356:398   */\n      tag_21\n      jump\t// in\n    tag_35:\n        /* \"#utility.yul\":338:399   */\n      tag_20\n      jump\t// in\n    tag_34:\n        /* \"#utility.yul\":325:399   */\n      swap1\n      pop\n        /* \"#utility.yul\":247:405   */\n      swap2\n      swap1\n      pop\n      jump\t// out\n        /* \"#utility.yul\":411:558   */\n    tag_23:\n        /* \"#utility.yul\":506:551   */\n      tag_38\n        /* \"#utility.yul\":545:550   */\n      dup2\n        /* \"#utility.yul\":506:551   */\n      tag_22\n      jump\t// in\n    tag_38:\n        /* \"#utility.yul\":501:504   */\n      dup3\n        /* \"#utility.yul\":494:552   */\n      mstore\n        /* \"#utility.yul\":411:558   */\n      pop\n      pop\n      jump\t// out\n        /* \"#utility.yul\":564:802   */\n    tag_11:\n        /* \"#utility.yul\":665:669   */\n      0x00\n        /* \"#utility.yul\":703:705   */\n      0x20\n        /* \"#utility.yul\":692:701   */\n      dup3\n        /* \"#utility.yul\":688:706   */\n      add\n        /* \"#utility.yul\":680:706   */\n      swap1\n      pop\n        /* \"#utility.yul\":716:795   */\n      tag_40\n        /* \"#utility.yul\":792:793   */\n      0x00\n        /* \"#utility.yul\":781:790   */\n      dup4\n        /* \"#utility.yul\":777:794   */\n      add\n        /* \"#utility.yul\":768:774   */\n      dup5\n        /* \"#utility.yul\":716:795   */\n      tag_23\n      jump\t// in\n    tag_40:\n        /* \"#utility.yul\":564:802   */\n      swap3\n      swap2\n      pop\n      pop\n      jump\t// out\n        /* \"#utility.yul\":889:1006   */\n    tag_25:\n        /* \"#utility.yul\":998:999   */\n      0x00\n        /* \"#utility.yul\":995:996   */\n      dup1\n        /* \"#utility.yul\":988:1000   */\n      revert\n        /* \"#utility.yul\":1135:1257   */\n    tag_27:\n        /* \"#utility.yul\":1208:1232   */\n      tag_45\n        /* \"#utility.yul\":1226:1231   */\n      dup2\n        /* \"#utility.yul\":1208:1232   */\n      tag_20\n      jump\t// in\n    tag_45:\n        /* \"#utility.yul\":1201:1206   */\n      dup2\n        /* \"#utility.yul\":1198:1233   */\n      eq\n        /* \"#utility.yul\":1188:1251   */\n      tag_46\n      jumpi\n        /* \"#utility.yul\":1247:1248   */\n      0x00\n        /* \"#utility.yul\":1244:1245   */\n      dup1\n        /* \"#utility.yul\":1237:1249   */\n      revert\n        /* \"#utility.yul\":1188:1251   */\n    tag_46:\n        /* \"#utility.yul\":1135:1257   */\n      pop\n      jump\t// out\n        /* \"#utility.yul\":1263:1406   */\n    tag_28:\n        /* \"#utility.yul\":1320:1325   */\n      0x00\n        /* \"#utility.yul\":1351:1357   */\n      dup2\n        /* \"#utility.yul\":1345:1358   */\n      mload\n        /* \"#utility.yul\":1336:1358   */\n      swap1\n      pop\n        /* \"#utility.yul\":1367:1400   */\n      tag_48\n        /* \"#utility.yul\":1394:1399   */\n      dup2\n        /* \"#utility.yul\":1367:1400   */\n      tag_27\n      jump\t// in\n    tag_48:\n        /* \"#utility.yul\":1263:1406   */\n      swap3\n      swap2\n      pop\n      pop\n      jump\t// out\n        /* \"#utility.yul\":1412:1763   */\n    tag_18:\n        /* \"#utility.yul\":1482:1488   */\n      0x00\n        /* \"#utility.yul\":1531:1533   */\n      0x20\n        /* \"#utility.yul\":1519:1528   */\n      dup3\n        /* \"#utility.yul\":1510:1517   */\n      dup5\n        /* \"#utility.yul\":1506:1529   */\n      sub\n        /* \"#utility.yul\":1502:1534   */\n      slt\n        /* \"#utility.yul\":1499:1618   */\n      iszero\n      tag_50\n      jumpi\n        /* \"#utility.yul\":1537:1616   */\n      tag_51\n      tag_25\n      jump\t// in\n    tag_51:\n        /* \"#utility.yul\":1499:1618   */\n    tag_50:\n        /* \"#utility.yul\":1657:1658   */\n      0x00\n        /* \"#utility.yul\":1682:1746   */\n      tag_52\n        /* \"#utility.yul\":1738:1745   */\n      dup5\n        /* \"#utility.yul\":1729:1735   */\n      dup3\n        /* \"#utility.yul\":1718:1727   */\n      dup6\n        /* \"#utility.yul\":1714:1736   */\n      add\n        /* \"#utility.yul\":1682:1746   */\n      tag_28\n      jump\t// in\n    tag_52:\n        /* \"#utility.yul\":1672:1746   */\n      swap2\n      pop\n        /* \"#utility.yul\":1628:1756   */\n      pop\n        /* \"#utility.yul\":1412:1763   */\n      swap3\n      swap2\n      pop\n      pop\n      jump\t// out\n    stop\n\n    sub_0: assembly {\n            /* \"contract-2646461567.sol\":70:378  contract C {... */\n          mstore(0x40, 0x80)\n          callvalue\n          dup1\n          iszero\n          tag_1\n          jumpi\n          0x00\n          dup1\n          revert\n        tag_1:\n          pop\n          dataSize(sub_0)\n          dup1\n          dataOffset(sub_0)\n          0x00\n          codecopy\n          0x00\n          return\n        stop\n\n        sub_0: assembly {\n                /* \"contract-2646461567.sol\":70:378  contract C {... */\n              mstore(0x40, 0x80)\n              callvalue\n              dup1\n              iszero\n              tag_1\n              jumpi\n              0x00\n              dup1\n              revert\n            tag_1:\n              pop\n              jumpi(tag_2, lt(calldatasize, 0x04))\n              shr(0xe0, calldataload(0x00))\n              dup1\n              0x3bc5de30\n              eq\n              tag_3\n              jumpi\n              dup1\n              0x5b4b73a9\n              eq\n              tag_4\n              jumpi\n            tag_2:\n              0x00\n              dup1\n              revert\n                /* \"contract-2646461567.sol\":231:292  function getData() public view returns(uint) { return data; } */\n            tag_3:\n              tag_5\n              tag_6\n              jump\t// in\n            tag_5:\n              mload(0x40)\n              tag_7\n              swap2\n              swap1\n              tag_8\n              jump\t// in\n            tag_7:\n              mload(0x40)\n              dup1\n              swap2\n              sub\n              swap1\n              return\n                /* \"contract-2646461567.sol\":181:226  function setData(uint a) public { data = a; } */\n            tag_4:\n              tag_9\n              0x04\n              dup1\n              calldatasize\n              sub\n              dup2\n              add\n              swap1\n              tag_10\n              swap2\n              swap1\n              tag_11\n              jump\t// in\n            tag_10:\n              tag_12\n              jump\t// in\n            tag_9:\n              stop\n                /* \"contract-2646461567.sol\":231:292  function getData() public view returns(uint) { return data; } */\n            tag_6:\n                /* \"contract-2646461567.sol\":270:274  uint */\n              0x00\n                /* \"contract-2646461567.sol\":285:289  data */\n              dup1\n              sload\n                /* \"contract-2646461567.sol\":278:289  return data */\n              swap1\n              pop\n                /* \"contract-2646461567.sol\":231:292  function getData() public view returns(uint) { return data; } */\n              swap1\n              jump\t// out\n                /* \"contract-2646461567.sol\":181:226  function setData(uint a) public { data = a; } */\n            tag_12:\n                /* \"contract-2646461567.sol\":222:223  a */\n              dup1\n                /* \"contract-2646461567.sol\":215:219  data */\n              0x00\n                /* \"contract-2646461567.sol\":215:223  data = a */\n              dup2\n              swap1\n              sstore\n              pop\n                /* \"contract-2646461567.sol\":181:226  function setData(uint a) public { data = a; } */\n              pop\n              jump\t// out\n                /* \"#utility.yul\":7:84   */\n            tag_15:\n                /* \"#utility.yul\":44:51   */\n              0x00\n                /* \"#utility.yul\":73:78   */\n              dup2\n                /* \"#utility.yul\":62:78   */\n              swap1\n              pop\n                /* \"#utility.yul\":7:84   */\n              swap2\n              swap1\n              pop\n              jump\t// out\n                /* \"#utility.yul\":90:208   */\n            tag_16:\n                /* \"#utility.yul\":177:201   */\n              tag_25\n                /* \"#utility.yul\":195:200   */\n              dup2\n                /* \"#utility.yul\":177:201   */\n              tag_15\n              jump\t// in\n            tag_25:\n                /* \"#utility.yul\":172:175   */\n              dup3\n                /* \"#utility.yul\":165:202   */\n              mstore\n                /* \"#utility.yul\":90:208   */\n              pop\n              pop\n              jump\t// out\n                /* \"#utility.yul\":214:436   */\n            tag_8:\n                /* \"#utility.yul\":307:311   */\n              0x00\n                /* \"#utility.yul\":345:347   */\n              0x20\n                /* \"#utility.yul\":334:343   */\n              dup3\n                /* \"#utility.yul\":330:348   */\n              add\n                /* \"#utility.yul\":322:348   */\n              swap1\n              pop\n                /* \"#utility.yul\":358:429   */\n              tag_27\n                /* \"#utility.yul\":426:427   */\n              0x00\n                /* \"#utility.yul\":415:424   */\n              dup4\n                /* \"#utility.yul\":411:428   */\n              add\n                /* \"#utility.yul\":402:408   */\n              dup5\n                /* \"#utility.yul\":358:429   */\n              tag_16\n              jump\t// in\n            tag_27:\n                /* \"#utility.yul\":214:436   */\n              swap3\n              swap2\n              pop\n              pop\n              jump\t// out\n                /* \"#utility.yul\":523:640   */\n            tag_18:\n                /* \"#utility.yul\":632:633   */\n              0x00\n                /* \"#utility.yul\":629:630   */\n              dup1\n                /* \"#utility.yul\":622:634   */\n              revert\n                /* \"#utility.yul\":769:891   */\n            tag_20:\n                /* \"#utility.yul\":842:866   */\n              tag_32\n                /* \"#utility.yul\":860:865   */\n              dup2\n                /* \"#utility.yul\":842:866   */\n              tag_15\n              jump\t// in\n            tag_32:\n                /* \"#utility.yul\":835:840   */\n              dup2\n                /* \"#utility.yul\":832:867   */\n              eq\n                /* \"#utility.yul\":822:885   */\n              tag_33\n              jumpi\n                /* \"#utility.yul\":881:882   */\n              0x00\n                /* \"#utility.yul\":878:879   */\n              dup1\n                /* \"#utility.yul\":871:883   */\n              revert\n                /* \"#utility.yul\":822:885   */\n            tag_33:\n                /* \"#utility.yul\":769:891   */\n              pop\n              jump\t// out\n                /* \"#utility.yul\":897:1036   */\n            tag_21:\n                /* \"#utility.yul\":943:948   */\n              0x00\n                /* \"#utility.yul\":981:987   */\n              dup2\n                /* \"#utility.yul\":968:988   */\n              calldataload\n                /* \"#utility.yul\":959:988   */\n              swap1\n              pop\n                /* \"#utility.yul\":997:1030   */\n              tag_35\n                /* \"#utility.yul\":1024:1029   */\n              dup2\n                /* \"#utility.yul\":997:1030   */\n              tag_20\n              jump\t// in\n            tag_35:\n                /* \"#utility.yul\":897:1036   */\n              swap3\n              swap2\n              pop\n              pop\n              jump\t// out\n                /* \"#utility.yul\":1042:1371   */\n            tag_11:\n                /* \"#utility.yul\":1101:1107   */\n              0x00\n                /* \"#utility.yul\":1150:1152   */\n              0x20\n                /* \"#utility.yul\":1138:1147   */\n              dup3\n                /* \"#utility.yul\":1129:1136   */\n              dup5\n                /* \"#utility.yul\":1125:1148   */\n              sub\n                /* \"#utility.yul\":1121:1153   */\n              slt\n                /* \"#utility.yul\":1118:1237   */\n              iszero\n              tag_37\n              jumpi\n                /* \"#utility.yul\":1156:1235   */\n              tag_38\n              tag_18\n              jump\t// in\n            tag_38:\n                /* \"#utility.yul\":1118:1237   */\n            tag_37:\n                /* \"#utility.yul\":1276:1277   */\n              0x00\n                /* \"#utility.yul\":1301:1354   */\n              tag_39\n                /* \"#utility.yul\":1346:1353   */\n              dup5\n                /* \"#utility.yul\":1337:1343   */\n              dup3\n                /* \"#utility.yul\":1326:1335   */\n              dup6\n                /* \"#utility.yul\":1322:1344   */\n              add\n                /* \"#utility.yul\":1301:1354   */\n              tag_21\n              jump\t// in\n            tag_39:\n                /* \"#utility.yul\":1291:1354   */\n              swap2\n              pop\n                /* \"#utility.yul\":1247:1364   */\n              pop\n                /* \"#utility.yul\":1042:1371   */\n              swap3\n              swap2\n              pop\n              pop\n              jump\t// out\n\n            auxdata: 0xa264697066735822122007a53ba84d4c7bd93f388a7273a261d1b59fb43e9f222f1df7b068d0f25055a264736f6c63430008120033\n        }\n    }\n\n    auxdata: 0xa2646970667358221220949a7785712d95565eb8b7a8d48542c08814bc6439979cefaf585514727218d564736f6c63430008120033\n}\n",
				"bytecode": {
					"linkReferences": {},
					"object": "608060405234801561001057600080fd5b506103c5806100206000396000f3fe608060405234801561001057600080fd5b506004361061002b5760003560e01c8063bef55ef314610030575b600080fd5b61003861003a565b005b60006040516100489061014a565b604051809103906000f080158015610064573d6000803e3d6000fd5b5090508073ffffffffffffffffffffffffffffffffffffffff16635b4b73a960036040518263ffffffff1660e01b81526004016100a191906101a6565b600060405180830381600087803b1580156100bb57600080fd5b505af11580156100cf573d6000803e3d6000fd5b5050505060008173ffffffffffffffffffffffffffffffffffffffff16633bc5de306040518163ffffffff1660e01b8152600401602060405180830381865afa158015610120573d6000803e3d6000fd5b505050506040513d601f19601f8201168201806040525081019061014491906101f2565b90505050565b6101708061022083390190565b6000819050919050565b6000819050919050565b6000819050919050565b600061019061018b61018684610157565b61016b565b610161565b9050919050565b6101a081610175565b82525050565b60006020820190506101bb6000830184610197565b92915050565b600080fd5b6101cf81610161565b81146101da57600080fd5b50565b6000815190506101ec816101c6565b92915050565b600060208284031215610208576102076101c1565b5b6000610216848285016101dd565b9150509291505056fe608060405234801561001057600080fd5b50610150806100206000396000f3fe608060405234801561001057600080fd5b50600436106100365760003560e01c80633bc5de301461003b5780635b4b73a914610059575b600080fd5b610043610075565b60405161005091906100a1565b60405180910390f35b610073600480360381019061006e91906100ed565b61007e565b005b60008054905090565b8060008190555050565b6000819050919050565b61009b81610088565b82525050565b60006020820190506100b66000830184610092565b92915050565b600080fd5b6100ca81610088565b81146100d557600080fd5b50565b6000813590506100e7816100c1565b92915050565b600060208284031215610103576101026100bc565b5b6000610111848285016100d8565b9150509291505056fea264697066735822122007a53ba84d4c7bd93f388a7273a261d1b59fb43e9f222f1df7b068d0f25055a264736f6c63430008120033a2646970667358221220949a7785712d95565eb8b7a8d48542c08814bc6439979cefaf585514727218d564736f6c63430008120033",
					"opcodes": "PUSH1 0x80 PUSH1 0x40 MSTORE CALLVALUE DUP1 ISZERO PUSH2 0x10 JUMPI PUSH1 0x0 DUP1 REVERT JUMPDEST POP PUSH2 0x3C5 DUP1 PUSH2 0x20 PUSH1 0x0 CODECOPY PUSH1 0x0 RETURN INVALID PUSH1 0x80 PUSH1 0x40 MSTORE CALLVALUE DUP1 ISZERO PUSH2 0x10 JUMPI PUSH1 0x0 DUP1 REVERT JUMPDEST POP PUSH1 0x4 CALLDATASIZE LT PUSH2 0x2B JUMPI PUSH1 0x0 CALLDATALOAD PUSH1 0xE0 SHR DUP1 PUSH4 0xBEF55EF3 EQ PUSH2 0x30 JUMPI JUMPDEST PUSH1 0x0 DUP1 REVERT JUMPDEST PUSH2 0x38 PUSH2 0x3A JUMP JUMPDEST STOP JUMPDEST PUSH1 0x0 PUSH1 0x40 MLOAD PUSH2 0x48 SWAP1 PUSH2 0x14A JUMP JUMPDEST PUSH1 0x40 MLOAD DUP1 SWAP2 SUB SWAP1 PUSH1 0x0 CREATE DUP1 ISZERO DUP1 ISZERO PUSH2 0x64 JUMPI RETURNDATASIZE PUSH1 0x0 DUP1 RETURNDATACOPY RETURNDATASIZE PUSH1 0x0 REVERT JUMPDEST POP SWAP1 POP DUP1 PUSH20 0xFFFFFFFFFFFFFFFFFFFFFFFFFFFFFFFFFFFFFFFF AND PUSH4 0x5B4B73A9 PUSH1 0x3 PUSH1 0x40 MLOAD DUP3 PUSH4 0xFFFFFFFF AND PUSH1 0xE0 SHL DUP2 MSTORE PUSH1 0x4 ADD PUSH2 0xA1 SWAP2 SWAP1 PUSH2 0x1A6 JUMP JUMPDEST PUSH1 0x0 PUSH1 0x40 MLOAD DUP1 DUP4 SUB DUP2 PUSH1 0x0 DUP8 DUP1 EXTCODESIZE ISZERO DUP1 ISZERO PUSH2 0xBB JUMPI PUSH1 0x0 DUP1 REVERT JUMPDEST POP GAS CALL ISZERO DUP1 ISZERO PUSH2 0xCF JUMPI RETURNDATASIZE PUSH1 0x0 DUP1 RETURNDATACOPY RETURNDATASIZE PUSH1 0x0 REVERT JUMPDEST POP POP POP POP PUSH1 0x0 DUP2 PUSH20 0xFFFFFFFFFFFFFFFFFFFFFFFFFFFFFFFFFFFFFFFF AND PUSH4 0x3BC5DE30 PUSH1 0x40 MLOAD DUP2 PUSH4 0xFFFFFFFF AND PUSH1 0xE0 SHL DUP2 MSTORE PUSH1 0x4 ADD PUSH1 0x20 PUSH1 0x40 MLOAD DUP1 DUP4 SUB DUP2 DUP7 GAS STATICCALL ISZERO DUP1 ISZERO PUSH2 0x120 JUMPI RETURNDATASIZE PUSH1 0x0 DUP1 RETURNDATACOPY RETURNDATASIZE PUSH1 0x0 REVERT JUMPDEST POP POP POP POP PUSH1 0x40 MLOAD RETURNDATASIZE PUSH1 0x1F NOT PUSH1 0x1F DUP3 ADD AND DUP3 ADD DUP1 PUSH1 0x40 MSTORE POP DUP2 ADD SWAP1 PUSH2 0x144 SWAP2 SWAP1 PUSH2 0x1F2 JUMP JUMPDEST SWAP1 POP POP POP JUMP JUMPDEST PUSH2 0x170 DUP1 PUSH2 0x220 DUP4 CODECOPY ADD SWAP1 JUMP JUMPDEST PUSH1 0x0 DUP2 SWAP1 POP SWAP2 SWAP1 POP JUMP JUMPDEST PUSH1 0x0 DUP2 SWAP1 POP SWAP2 SWAP1 POP JUMP JUMPDEST PUSH1 0x0 DUP2 SWAP1 POP SWAP2 SWAP1 POP JUMP JUMPDEST PUSH1 0x0 PUSH2 0x190 PUSH2 0x18B PUSH2 0x186 DUP5 PUSH2 0x157 JUMP JUMPDEST PUSH2 0x16B JUMP JUMPDEST PUSH2 0x161 JUMP JUMPDEST SWAP1 POP SWAP2 SWAP1 POP JUMP JUMPDEST PUSH2 0x1A0 DUP2 PUSH2 0x175 JUMP JUMPDEST DUP3 MSTORE POP POP JUMP JUMPDEST PUSH1 0x0 PUSH1 0x20 DUP3 ADD SWAP1 POP PUSH2 0x1BB PUSH1 0x0 DUP4 ADD DUP5 PUSH2 0x197 JUMP JUMPDEST SWAP3 SWAP2 POP POP JUMP JUMPDEST PUSH1 0x0 DUP1 REVERT JUMPDEST PUSH2 0x1CF DUP2 PUSH2 0x161 JUMP JUMPDEST DUP2 EQ PUSH2 0x1DA JUMPI PUSH1 0x0 DUP1 REVERT JUMPDEST POP JUMP JUMPDEST PUSH1 0x0 DUP2 MLOAD SWAP1 POP PUSH2 0x1EC DUP2 PUSH2 0x1C6 JUMP JUMPDEST SWAP3 SWAP2 POP POP JUMP JUMPDEST PUSH1 0x0 PUSH1 0x20 DUP3 DUP5 SUB SLT ISZERO PUSH2 0x208 JUMPI PUSH2 0x207 PUSH2 0x1C1 JUMP JUMPDEST JUMPDEST PUSH1 0x0 PUSH2 0x216 DUP5 DUP3 DUP6 ADD PUSH2 0x1DD JUMP JUMPDEST SWAP2 POP POP SWAP3 SWAP2 POP POP JUMP INVALID PUSH1 0x80 PUSH1 0x40 MSTORE CALLVALUE DUP1 ISZERO PUSH2 0x10 JUMPI PUSH1 0x0 DUP1 REVERT JUMPDEST POP PUSH2 0x150 DUP1 PUSH2 0x20 PUSH1 0x0 CODECOPY PUSH1 0x0 RETURN INVALID PUSH1 0x80 PUSH1 0x40 MSTORE CALLVALUE DUP1 ISZERO PUSH2 0x10 JUMPI PUSH1 0x0 DUP1 REVERT JUMPDEST POP PUSH1 0x4 CALLDATASIZE LT PUSH2 0x36 JUMPI PUSH1 0x0 CALLDATALOAD PUSH1 0xE0 SHR DUP1 PUSH4 0x3BC5DE30 EQ PUSH2 0x3B JUMPI DUP1 PUSH4 0x5B4B73A9 EQ PUSH2 0x59 JUMPI JUMPDEST PUSH1 0x0 DUP1 REVERT JUMPDEST PUSH2 0x43 PUSH2 0x75 JUMP JUMPDEST PUSH1 0x40 MLOAD PUSH2 0x50 SWAP2 SWAP1 PUSH2 0xA1 JUMP JUMPDEST PUSH1 0x40 MLOAD DUP1 SWAP2 SUB SWAP1 RETURN JUMPDEST PUSH2 0x73 PUSH1 0x4 DUP1 CALLDATASIZE SUB DUP2 ADD SWAP1 PUSH2 0x6E SWAP2 SWAP1 PUSH2 0xED JUMP JUMPDEST PUSH2 0x7E JUMP JUMPDEST STOP JUMPDEST PUSH1 0x0 DUP1 SLOAD SWAP1 POP SWAP1 JUMP JUMPDEST DUP1 PUSH1 0x0 DUP2 SWAP1 SSTORE POP POP JUMP JUMPDEST PUSH1 0x0 DUP2 SWAP1 POP SWAP2 SWAP1 POP JUMP JUMPDEST PUSH2 0x9B DUP2 PUSH2 0x88 JUMP JUMPDEST DUP3 MSTORE POP POP JUMP JUMPDEST PUSH1 0x0 PUSH1 0x20 DUP3 ADD SWAP1 POP PUSH2 0xB6 PUSH1 0x0 DUP4 ADD DUP5 PUSH2 0x92 JUMP JUMPDEST SWAP3 SWAP2 POP POP JUMP JUMPDEST PUSH1 0x0 DUP1 REVERT JUMPDEST PUSH2 0xCA DUP2 PUSH2 0x88 JUMP JUMPDEST DUP2 EQ PUSH2 0xD5 JUMPI PUSH1 0x0 DUP1 REVERT JUMPDEST POP JUMP JUMPDEST PUSH1 0x0 DUP2 CALLDATALOAD SWAP1 POP PUSH2 0xE7 DUP2 PUSH2 0xC1 JUMP JUMPDEST SWAP3 SWAP2 POP POP JUMP JUMPDEST PUSH1 0x0 PUSH1 0x20 DUP3 DUP5 SUB SLT ISZERO PUSH2 0x103 JUMPI PUSH2 0x102 PUSH2 0xBC JUMP JUMPDEST JUMPDEST PUSH1 0x0 PUSH2 0x111 DUP5 DUP3 DUP6 ADD PUSH2 0xD8 JUMP JUMPDEST SWAP2 POP POP SWAP3 SWAP2 POP POP JUMP INVALID LOG2 PUSH5 0x6970667358 0x22 SLT KECCAK256 SMOD 0xA5 EXTCODESIZE 0xA8 0x4D 0x4C PUSH28 0xD93F388A7273A261D1B59FB43E9F222F1DF7B068D0F25055A264736F PUSH13 0x63430008120033A26469706673 PC 0x22 SLT KECCAK256 SWAP5 SWAP11 PUSH24 0x85712D95565EB8B7A8D48542C08814BC6439979CEFAF5855 EQ PUSH19 0x7218D564736F6C634300081200330000000000 "
				},
				"gasEstimates": {
					"creation": {
						"codeDepositCost": "193000",
						"executionCost": "238",
						"totalCost": "193238"
					},
					"external": {
						"readData()": "infinite"
					}
				},
				"methodIdentifiers": {
					"readData()": "bef55ef3"
				}
			},
			"storageLayout": {
				"storage": [],
				"types": null
			},
			"userdoc": {
				"kind": "user",
				"methods": {},
				"version": 1
			}
		}
	}
}