{
	"contract-c99022a205.sol": {
		"C": {
			"abi": [
				{
					"inputs": [],
					"name": "f",
					"outputs": [
						{
							"internalType": "uint256",
							"name": "",
							"type": "uint256"
						},
						{
							"internalType": "bool",
							"name": "",
							"type": "bool"
						},
						{
							"internalType": "uint256",
							"name": "",
							"type": "uint256"
						}
					],
					"stateMutability": "pure",
					"type": "function"
				},
				{
					"inputs": [],
					"name": "g",
					"outputs": [],
					"stateMutability": "nonpayable",
					"type": "function"
				}
			],
			"devdoc": {
				"kind": "dev",
				"methods": {},
				"version": 1
			},
			"evm": {
				"assembly": "    /* \"contract-c99022a205.sol\":69:821  contract C {... */\n  mstore(0x40, 0x80)\n  callvalue\n  dup1\n  iszero\n  tag_1\n  jumpi\n  0x00\n  dup1\n  revert\ntag_1:\n  pop\n  dataSize(sub_0)\n  dup1\n  dataOffset(sub_0)\n  0x00\n  codecopy\n  0x00\n  return\nstop\n\nsub_0: assembly {\n        /* \"contract-c99022a205.sol\":69:821  contract C {... */\n      mstore(0x40, 0x80)\n      callvalue\n      dup1\n      iszero\n      tag_1\n      jumpi\n      0x00\n      dup1\n      revert\n    tag_1:\n      pop\n      jumpi(tag_2, lt(calldatasize, 0x04))\n      shr(0xe0, calldataload(0x00))\n      dup1\n      0x26121ff0\n      eq\n      tag_3\n      jumpi\n      dup1\n      0xe2179b8e\n      eq\n      tag_4\n      jumpi\n    tag_2:\n      0x00\n      dup1\n      revert\n        /* \"contract-c99022a205.sol\":103:191  function f() public pure returns (uint, bool, uint) {... */\n    tag_3:\n      tag_5\n      tag_6\n      jump\t// in\n    tag_5:\n      mload(0x40)\n      tag_7\n      swap4\n      swap3\n      swap2\n      swap1\n      tag_8\n      jump\t// in\n    tag_7:\n      mload(0x40)\n      dup1\n      swap2\n      sub\n      swap1\n      return\n        /* \"contract-c99022a205.sol\":197:819  function g() public {... */\n    tag_4:\n      tag_9\n      tag_10\n      jump\t// in\n    tag_9:\n      stop\n        /* \"contract-c99022a205.sol\":103:191  function f() public pure returns (uint, bool, uint) {... */\n    tag_6:\n        /* \"contract-c99022a205.sol\":137:141  uint */\n      0x00\n        /* \"contract-c99022a205.sol\":143:147  bool */\n      dup1\n        /* \"contract-c99022a205.sol\":149:153  uint */\n      0x00\n        /* \"contract-c99022a205.sol\":173:174  7 */\n      0x07\n        /* \"contract-c99022a205.sol\":176:180  true */\n      0x01\n        /* \"contract-c99022a205.sol\":182:183  2 */\n      0x02\n        /* \"contract-c99022a205.sol\":165:184  return (7, true, 2) */\n      swap3\n      pop\n      swap3\n      pop\n      swap3\n      pop\n        /* \"contract-c99022a205.sol\":103:191  function f() public pure returns (uint, bool, uint) {... */\n      swap1\n      swap2\n      swap3\n      jump\t// out\n        /* \"contract-c99022a205.sol\":197:819  function g() public {... */\n    tag_10:\n        /* \"contract-c99022a205.sol\":384:390  uint x */\n      0x00\n        /* \"contract-c99022a205.sol\":394:400  uint y */\n      dup1\n        /* \"contract-c99022a205.sol\":404:407  f() */\n      tag_13\n        /* \"contract-c99022a205.sol\":404:405  f */\n      tag_6\n        /* \"contract-c99022a205.sol\":404:407  f() */\n      jump\t// in\n    tag_13:\n        /* \"contract-c99022a205.sol\":383:407  (uint x, , uint y) = f() */\n      swap3\n      pop\n      pop\n      swap2\n      pop\n        /* \"contract-c99022a205.sol\":582:583  7 */\n      0x07\n        /* \"contract-c99022a205.sol\":577:578  x */\n      dup3\n        /* \"contract-c99022a205.sol\":577:583  x == 7 */\n      eq\n        /* \"contract-c99022a205.sol\":570:584  assert(x == 7) */\n      tag_14\n      jumpi\n      tag_15\n      tag_16\n      jump\t// in\n    tag_15:\n    tag_14:\n        /* \"contract-c99022a205.sol\":606:607  2 */\n      0x02\n        /* \"contract-c99022a205.sol\":601:602  y */\n      dup2\n        /* \"contract-c99022a205.sol\":601:607  y == 2 */\n      eq\n        /* \"contract-c99022a205.sol\":594:608  assert(y == 2) */\n      tag_17\n      jumpi\n      tag_18\n      tag_16\n      jump\t// in\n    tag_18:\n    tag_17:\n        /* \"contract-c99022a205.sol\":628:629  y */\n      dup1\n        /* \"contract-c99022a205.sol\":631:632  x */\n      dup3\n        /* \"contract-c99022a205.sol\":618:633  (x, y) = (y, x) */\n      dup1\n      swap3\n      pop\n      dup2\n      swap4\n      pop\n      pop\n      pop\n        /* \"contract-c99022a205.sol\":655:656  2 */\n      0x02\n        /* \"contract-c99022a205.sol\":650:651  x */\n      dup3\n        /* \"contract-c99022a205.sol\":650:656  x == 2 */\n      eq\n        /* \"contract-c99022a205.sol\":643:657  assert(x == 2) */\n      tag_19\n      jumpi\n      tag_20\n      tag_16\n      jump\t// in\n    tag_20:\n    tag_19:\n        /* \"contract-c99022a205.sol\":679:680  7 */\n      0x07\n        /* \"contract-c99022a205.sol\":674:675  y */\n      dup2\n        /* \"contract-c99022a205.sol\":674:680  y == 7 */\n      eq\n        /* \"contract-c99022a205.sol\":667:681  assert(y == 7) */\n      tag_21\n      jumpi\n      tag_22\n      tag_16\n      jump\t// in\n    tag_22:\n    tag_21:\n        /* \"contract-c99022a205.sol\":786:789  f() */\n      tag_23\n        /* \"contract-c99022a205.sol\":786:787  f */\n      tag_6\n        /* \"contract-c99022a205.sol\":786:789  f() */\n      jump\t// in\n    tag_23:\n        /* \"contract-c99022a205.sol\":772:789  (index, , ) = f() */\n      swap1\n      pop\n      pop\n        /* \"contract-c99022a205.sol\":773:778  index */\n      0x00\n      dup1\n        /* \"contract-c99022a205.sol\":772:789  (index, , ) = f() */\n      dup3\n      swap2\n      swap1\n      pop\n      sstore\n      pop\n        /* \"contract-c99022a205.sol\":217:819  {... */\n      pop\n      pop\n        /* \"contract-c99022a205.sol\":197:819  function g() public {... */\n      jump\t// out\n        /* \"#utility.yul\":7:84   */\n    tag_24:\n        /* \"#utility.yul\":44:51   */\n      0x00\n        /* \"#utility.yul\":73:78   */\n      dup2\n        /* \"#utility.yul\":62:78   */\n      swap1\n      pop\n        /* \"#utility.yul\":7:84   */\n      swap2\n      swap1\n      pop\n      jump\t// out\n        /* \"#utility.yul\":90:208   */\n    tag_25:\n        /* \"#utility.yul\":177:201   */\n      tag_31\n        /* \"#utility.yul\":195:200   */\n      dup2\n        /* \"#utility.yul\":177:201   */\n      tag_24\n      jump\t// in\n    tag_31:\n        /* \"#utility.yul\":172:175   */\n      dup3\n        /* \"#utility.yul\":165:202   */\n      mstore\n        /* \"#utility.yul\":90:208   */\n      pop\n      pop\n      jump\t// out\n        /* \"#utility.yul\":214:304   */\n    tag_26:\n        /* \"#utility.yul\":248:255   */\n      0x00\n        /* \"#utility.yul\":291:296   */\n      dup2\n        /* \"#utility.yul\":284:297   */\n      iszero\n        /* \"#utility.yul\":277:298   */\n      iszero\n        /* \"#utility.yul\":266:298   */\n      swap1\n      pop\n        /* \"#utility.yul\":214:304   */\n      swap2\n      swap1\n      pop\n      jump\t// out\n        /* \"#utility.yul\":310:419   */\n    tag_27:\n        /* \"#utility.yul\":391:412   */\n      tag_34\n        /* \"#utility.yul\":406:411   */\n      dup2\n        /* \"#utility.yul\":391:412   */\n      tag_26\n      jump\t// in\n    tag_34:\n        /* \"#utility.yul\":386:389   */\n      dup3\n        /* \"#utility.yul\":379:413   */\n      mstore\n        /* \"#utility.yul\":310:419   */\n      pop\n      pop\n      jump\t// out\n        /* \"#utility.yul\":425:855   */\n    tag_8:\n        /* \"#utility.yul\":568:572   */\n      0x00\n        /* \"#utility.yul\":606:608   */\n      0x60\n        /* \"#utility.yul\":595:604   */\n      dup3\n        /* \"#utility.yul\":591:609   */\n      add\n        /* \"#utility.yul\":583:609   */\n      swap1\n      pop\n        /* \"#utility.yul\":619:690   */\n      tag_36\n        /* \"#utility.yul\":687:688   */\n      0x00\n        /* \"#utility.yul\":676:685   */\n      dup4\n        /* \"#utility.yul\":672:689   */\n      add\n        /* \"#utility.yul\":663:669   */\n      dup7\n        /* \"#utility.yul\":619:690   */\n      tag_25\n      jump\t// in\n    tag_36:\n        /* \"#utility.yul\":700:766   */\n      tag_37\n        /* \"#utility.yul\":762:764   */\n      0x20\n        /* \"#utility.yul\":751:760   */\n      dup4\n        /* \"#utility.yul\":747:765   */\n      add\n        /* \"#utility.yul\":738:744   */\n      dup6\n        /* \"#utility.yul\":700:766   */\n      tag_27\n      jump\t// in\n    tag_37:\n        /* \"#utility.yul\":776:848   */\n      tag_38\n        /* \"#utility.yul\":844:846   */\n      0x40\n        /* \"#utility.yul\":833:842   */\n      dup4\n        /* \"#utility.yul\":829:847   */\n      add\n        /* \"#utility.yul\":820:826   */\n      dup5\n        /* \"#utility.yul\":776:848   */\n      tag_25\n      jump\t// in\n    tag_38:\n        /* \"#utility.yul\":425:855   */\n      swap5\n      swap4\n      pop\n      pop\n      pop\n      pop\n      jump\t// out\n        /* \"#utility.yul\":861:1041   */\n    tag_16:\n        /* \"#utility.yul\":909:986   */\n      0x4e487b7100000000000000000000000000000000000000000000000000000000\n        /* \"#utility.yul\":906:907   */\n      0x00\n        /* \"#utility.yul\":899:987   */\n      mstore\n        /* \"#utility.yul\":1006:1010   */\n      0x01\n        /* \"#utility.yul\":1003:1004   */\n      0x04\n        /* \"#utility.yul\":996:1011   */\n      mstore\n        /* \"#utility.yul\":1030:1034   */\n      0x24\n        /* \"#utility.yul\":1027:1028   */\n      0x00\n        /* \"#utility.yul\":1020:1035   */\n      revert\n\n    auxdata: 0xa264697066735822122037a569b1eda8553ebda269d74896acb99ef9d5c2c84ed835990528cdb1e41ab364736f6c63430008120033\n}\n",
				"bytecode": {
					"linkReferences": {},
					"object": "608060405234801561001057600080fd5b506101c1806100206000396000f3fe608060405234801561001057600080fd5b50600436106100365760003560e01c806326121ff01461003b578063e2179b8e1461005b575b600080fd5b610043610065565b60405161005293929190610125565b60405180910390f35b61006361007b565b005b6000806000600760016002925092509250909192565b600080610086610065565b92505091506007821461009c5761009b61015c565b5b600281146100ad576100ac61015c565b5b80828092508193505050600282146100c8576100c761015c565b5b600781146100d9576100d861015c565b5b6100e1610065565b9050506000808291905055505050565b6000819050919050565b610104816100f1565b82525050565b60008115159050919050565b61011f8161010a565b82525050565b600060608201905061013a60008301866100fb565b6101476020830185610116565b61015460408301846100fb565b949350505050565b7f4e487b7100000000000000000000000000000000000000000000000000000000600052600160045260246000fdfea264697066735822122037a569b1eda8553ebda269d74896acb99ef9d5c2c84ed835990528cdb1e41ab364736f6c63430008120033",
					"opcodes": "PUSH1 0x80 PUSH1 0x40 MSTORE CALLVALUE DUP1 ISZERO PUSH2 0x10 JUMPI PUSH1 0x0 DUP1 REVERT JUMPDEST POP PUSH2 0x1C1 DUP1 PUSH2 0x20 PUSH1 0x0 CODECOPY PUSH1 0x0 RETURN INVALID PUSH1 0x80 PUSH1 0x40 MSTORE CALLVALUE DUP1 ISZERO PUSH2 0x10 JUMPI PUSH1 0x0 DUP1 REVERT JUMPDEST POP PUSH1 0x4 CALLDATASIZE LT PUSH2 0x36 JUMPI PUSH1 0x0 CALLDATALOAD PUSH1 0xE0 SHR DUP1 PUSH4 0x26121FF0 EQ PUSH2 0x3B JUMPI DUP1 PUSH4 0xE2179B8E EQ PUSH2 0x5B JUMPI JUMPDEST PUSH1 0x0 DUP1 REVERT JUMPDEST PUSH2 0x43 PUSH2 0x65 JUMP JUMPDEST PUSH1 0x40 MLOAD PUSH2 0x52 SWAP4 SWAP3 SWAP2 SWAP1 PUSH2 0x125 JUMP JUMPDEST PUSH1 0x40 MLOAD DUP1 SWAP2 SUB SWAP1 RETURN JUMPDEST PUSH2 0x63 PUSH2 0x7B JUMP JUMPDEST STOP JUMPDEST PUSH1 0x0 DUP1 PUSH1 0x0 PUSH1 0x7 PUSH1 0x1 PUSH1 0x2 SWAP3 POP SWAP3 POP SWAP3 POP SWAP1 SWAP2 SWAP3 JUMP JUMPDEST PUSH1 0x0 DUP1 PUSH2 0x86 PUSH2 0x65 JUMP JUMPDEST SWAP3 POP POP SWAP2 POP PUSH1 0x7 DUP3 EQ PUSH2 0x9C JUMPI PUSH2 0x9B PUSH2 0x15C JUMP JUMPDEST JUMPDEST PUSH1 0x2 DUP2 EQ PUSH2 0xAD JUMPI PUSH2 0xAC PUSH2 0x15C JUMP JUMPDEST JUMPDEST DUP1 DUP3 DUP1 SWAP3 POP DUP2 SWAP4 POP POP POP PUSH1 0x2 DUP3 EQ PUSH2 0xC8 JUMPI PUSH2 0xC7 PUSH2 0x15C JUMP JUMPDEST JUMPDEST PUSH1 0x7 DUP2 EQ PUSH2 0xD9 JUMPI PUSH2 0xD8 PUSH2 0x15C JUMP JUMPDEST JUMPDEST PUSH2 0xE1 PUSH2 0x65 JUMP JUMPDEST SWAP1 POP POP PUSH1 0x0 DUP1 DUP3 SWAP2 SWAP1 POP SSTORE POP POP POP JUMP JUMPDEST PUSH1 0x0 DUP2 SWAP1 POP SWAP2 SWAP1 POP JUMP JUMPDEST PUSH2 0x104 DUP2 PUSH2 0xF1 JUMP JUMPDEST DUP3 MSTORE POP POP JUMP JUMPDEST PUSH1 0x0 DUP2 ISZERO ISZERO SWAP1 POP SWAP2 SWAP1 POP JUMP JUMPDEST PUSH2 0x11F DUP2 PUSH2 0x10A JUMP JUMPDEST DUP3 MSTORE POP POP JUMP JUMPDEST PUSH1 0x0 PUSH1 0x60 DUP3 ADD SWAP1 POP PUSH2 0x13A PUSH1 0x0 DUP4 ADD DUP7 PUSH2 0xFB JUMP JUMPDEST PUSH2 0x147 PUSH1 0x20 DUP4 ADD DUP6 PUSH2 0x116 JUMP JUMPDEST PUSH2 0x154 PUSH1 0x40 DUP4 ADD DUP5 PUSH2 0xFB JUMP JUMPDEST SWAP5 SWAP4 POP POP POP POP JUMP JUMPDEST PUSH32 0x4E487B7100000000000000000000000000000000000000000000000000000000 PUSH1 0x0 MSTORE PUSH1 0x1 PUSH1 0x4 MSTORE PUSH1 0x24 PUSH1 0x0 REVERT INVALID LOG2 PUSH5 0x6970667358 0x22 SLT KECCAK256 CALLDATACOPY 0xA5 PUSH10 0xB1EDA8553EBDA269D748 SWAP7 0xAC 0xB9 SWAP15 0xF9 0xD5 0xC2 0xC8 0x4E 0xD8 CALLDATALOAD SWAP10 SDIV 0x28 0xCD 0xB1 0xE4 BYTE 0xB3 PUSH5 0x736F6C6343 STOP ADDMOD SLT STOP CALLER "
				},
				"gasEstimates": {
					"creation": {
						"codeDepositCost": "89800",
						"executionCost": "141",
						"totalCost": "89941"
					},
					"external": {
						"f()": "infinite",
						"g()": "infinite"
					}
				},
				"methodIdentifiers": {
					"f()": "26121ff0",
					"g()": "e2179b8e"
				}
			},
			"storageLayout": {
				"storage": [
					{
						"astId": 3,
						"contract": "contract-c99022a205.sol:C",
						"label": "index",
						"offset": 0,
						"slot": "0",
						"type": "t_uint256"
					}
				],
				"types": {
					"t_uint256": {
						"encoding": "inplace",
						"label": "uint256",
						"numberOfBytes": "32"
					}
				}
			},
			"userdoc": {
				"kind": "user",
				"methods": {},
				"version": 1
			}
		}
	}
}