{
	"contract-arrayTest.sol": {
		"ArrayTest": {
			"abi": [
				{
					"inputs": [],
					"name": "bytesFun",
					"outputs": [],
					"stateMutability": "nonpayable",
					"type": "function"
				},
				{
					"inputs": [],
					"name": "bytesFun2",
					"outputs": [],
					"stateMutability": "nonpayable",
					"type": "function"
				},
				{
					"inputs": [],
					"name": "getLen",
					"outputs": [
						{
							"internalType": "uint256",
							"name": "",
							"type": "uint256"
						}
					],
					"stateMutability": "view",
					"type": "function"
				},
				{
					"inputs": [],
					"name": "myBytes",
					"outputs": [
						{
							"internalType": "bytes",
							"name": "",
							"type": "bytes"
						}
					],
					"stateMutability": "view",
					"type": "function"
				},
				{
					"inputs": [
						{
							"internalType": "uint256",
							"name": "",
							"type": "uint256"
						}
					],
					"name": "myBytesArray",
					"outputs": [
						{
							"internalType": "bytes32",
							"name": "",
							"type": "bytes32"
						}
					],
					"stateMutability": "view",
					"type": "function"
				},
				{
					"inputs": [],
					"name": "testPush",
					"outputs": [
						{
							"internalType": "uint256",
							"name": "",
							"type": "uint256"
						}
					],
					"stateMutability": "nonpayable",
					"type": "function"
				},
				{
					"inputs": [],
					"name": "testPush1",
					"outputs": [],
					"stateMutability": "nonpayable",
					"type": "function"
				},
				{
					"inputs": [
						{
							"internalType": "uint256",
							"name": "",
							"type": "uint256"
						}
					],
					"name": "x",
					"outputs": [
						{
							"internalType": "uint256",
							"name": "",
							"type": "uint256"
						}
					],
					"stateMutability": "view",
					"type": "function"
				}
			],
			"devdoc": {
				"kind": "dev",
				"methods": {},
				"version": 1
			},
			"evm": {
				"assembly": "    /* \"contract-arrayTest.sol\":64:1843  contract ArrayTest {... */\n  mstore(0x40, 0x80)\n  callvalue\n  dup1\n  iszero\n  tag_1\n  jumpi\n  0x00\n  dup1\n  revert\ntag_1:\n  pop\n  dataSize(sub_0)\n  dup1\n  dataOffset(sub_0)\n  0x00\n  codecopy\n  0x00\n  return\nstop\n\nsub_0: assembly {\n        /* \"contract-arrayTest.sol\":64:1843  contract ArrayTest {... */\n      mstore(0x40, 0x80)\n      callvalue\n      dup1\n      iszero\n      tag_1\n      jumpi\n      0x00\n      dup1\n      revert\n    tag_1:\n      pop\n      jumpi(tag_2, lt(calldatasize, 0x04))\n      shr(0xe0, calldataload(0x00))\n      dup1\n      0x712f4602\n      gt\n      tag_11\n      jumpi\n      dup1\n      0x712f4602\n      eq\n      tag_7\n      jumpi\n      dup1\n      0x94f867e9\n      eq\n      tag_8\n      jumpi\n      dup1\n      0x9a8cea55\n      eq\n      tag_9\n      jumpi\n      dup1\n      0x9c254f3e\n      eq\n      tag_10\n      jumpi\n      jump(tag_2)\n    tag_11:\n      dup1\n      0x212b058f\n      eq\n      tag_3\n      jumpi\n      dup1\n      0x31ca8923\n      eq\n      tag_4\n      jumpi\n      dup1\n      0x3f4263ef\n      eq\n      tag_5\n      jumpi\n      dup1\n      0x4a90be57\n      eq\n      tag_6\n      jumpi\n    tag_2:\n      0x00\n      dup1\n      revert\n        /* \"contract-arrayTest.sol\":717:779  function testPush1() external {... */\n    tag_3:\n      tag_12\n      tag_13\n      jump\t// in\n    tag_12:\n      stop\n        /* \"contract-arrayTest.sol\":1427:1457  bytes32[] public  myBytesArray */\n    tag_4:\n      tag_14\n      0x04\n      dup1\n      calldatasize\n      sub\n      dup2\n      add\n      swap1\n      tag_15\n      swap2\n      swap1\n      tag_16\n      jump\t// in\n    tag_15:\n      tag_17\n      jump\t// in\n    tag_14:\n      mload(0x40)\n      tag_18\n      swap2\n      swap1\n      tag_19\n      jump\t// in\n    tag_18:\n      mload(0x40)\n      dup1\n      swap2\n      sub\n      swap1\n      return\n        /* \"contract-arrayTest.sol\":92:107  uint[] public x */\n    tag_5:\n      tag_20\n      0x04\n      dup1\n      calldatasize\n      sub\n      dup2\n      add\n      swap1\n      tag_21\n      swap2\n      swap1\n      tag_16\n      jump\t// in\n    tag_21:\n      tag_22\n      jump\t// in\n    tag_20:\n      mload(0x40)\n      tag_23\n      swap2\n      swap1\n      tag_24\n      jump\t// in\n    tag_23:\n      mload(0x40)\n      dup1\n      swap2\n      sub\n      swap1\n      return\n        /* \"contract-arrayTest.sol\":218:297  function getLen() public view returns (uint) {... */\n    tag_6:\n      tag_25\n      tag_26\n      jump\t// in\n    tag_25:\n      mload(0x40)\n      tag_27\n      swap2\n      swap1\n      tag_24\n      jump\t// in\n    tag_27:\n      mload(0x40)\n      dup1\n      swap2\n      sub\n      swap1\n      return\n        /* \"contract-arrayTest.sol\":922:942  bytes public myBytes */\n    tag_7:\n      tag_28\n      tag_29\n      jump\t// in\n    tag_28:\n      mload(0x40)\n      tag_30\n      swap2\n      swap1\n      tag_31\n      jump\t// in\n    tag_30:\n      mload(0x40)\n      dup1\n      swap2\n      sub\n      swap1\n      return\n        /* \"contract-arrayTest.sol\":1464:1838  function bytesFun2() public {... */\n    tag_8:\n      tag_32\n      tag_33\n      jump\t// in\n    tag_32:\n      stop\n        /* \"contract-arrayTest.sol\":571:650  function testPush() external returns (uint) {... */\n    tag_9:\n      tag_34\n      tag_35\n      jump\t// in\n    tag_34:\n      mload(0x40)\n      tag_36\n      swap2\n      swap1\n      tag_24\n      jump\t// in\n    tag_36:\n      mload(0x40)\n      dup1\n      swap2\n      sub\n      swap1\n      return\n        /* \"contract-arrayTest.sol\":949:1321  function bytesFun() public {... */\n    tag_10:\n      tag_37\n      tag_38\n      jump\t// in\n    tag_37:\n      stop\n        /* \"contract-arrayTest.sol\":717:779  function testPush1() external {... */\n    tag_13:\n        /* \"contract-arrayTest.sol\":769:771  66 */\n      0x42\n        /* \"contract-arrayTest.sol\":758:759  x */\n      0x00\n        /* \"contract-arrayTest.sol\":758:766  x.push() */\n      0x01\n      dup2\n      0x01\n      dup2\n      sload\n      add\n      dup1\n      dup3\n      sstore\n      dup1\n      swap2\n      pop\n      pop\n      sub\n      swap1\n      0x00\n      mstore\n      keccak256(0x00, 0x20)\n      add\n        /* \"contract-arrayTest.sol\":758:771  x.push() = 66 */\n      dup2\n      swap1\n      sstore\n      pop\n        /* \"contract-arrayTest.sol\":717:779  function testPush1() external {... */\n      jump\t// out\n        /* \"contract-arrayTest.sol\":1427:1457  bytes32[] public  myBytesArray */\n    tag_17:\n      0x02\n      dup2\n      dup2\n      sload\n      dup2\n      lt\n      tag_41\n      jumpi\n      0x00\n      dup1\n      revert\n    tag_41:\n      swap1\n      0x00\n      mstore\n      keccak256(0x00, 0x20)\n      add\n      0x00\n      swap2\n      pop\n      swap1\n      pop\n      sload\n      dup2\n      jump\t// out\n        /* \"contract-arrayTest.sol\":92:107  uint[] public x */\n    tag_22:\n      0x00\n      dup2\n      dup2\n      sload\n      dup2\n      lt\n      tag_43\n      jumpi\n      0x00\n      dup1\n      revert\n    tag_43:\n      swap1\n      0x00\n      mstore\n      keccak256(0x00, 0x20)\n      add\n      0x00\n      swap2\n      pop\n      swap1\n      pop\n      sload\n      dup2\n      jump\t// out\n        /* \"contract-arrayTest.sol\":218:297  function getLen() public view returns (uint) {... */\n    tag_26:\n        /* \"contract-arrayTest.sol\":257:261  uint */\n      0x00\n        /* \"contract-arrayTest.sol\":281:282  x */\n      dup1\n        /* \"contract-arrayTest.sol\":281:289  x.length */\n      dup1\n      sload\n      swap1\n      pop\n        /* \"contract-arrayTest.sol\":274:289  return x.length */\n      swap1\n      pop\n        /* \"contract-arrayTest.sol\":218:297  function getLen() public view returns (uint) {... */\n      swap1\n      jump\t// out\n        /* \"contract-arrayTest.sol\":922:942  bytes public myBytes */\n    tag_29:\n      0x01\n      dup1\n      sload\n      tag_46\n      swap1\n      tag_47\n      jump\t// in\n    tag_46:\n      dup1\n      0x1f\n      add\n      0x20\n      dup1\n      swap2\n      div\n      mul\n      0x20\n      add\n      mload(0x40)\n      swap1\n      dup2\n      add\n      0x40\n      mstore\n      dup1\n      swap3\n      swap2\n      swap1\n      dup2\n      dup2\n      mstore\n      0x20\n      add\n      dup3\n      dup1\n      sload\n      tag_48\n      swap1\n      tag_47\n      jump\t// in\n    tag_48:\n      dup1\n      iszero\n      tag_49\n      jumpi\n      dup1\n      0x1f\n      lt\n      tag_50\n      jumpi\n      0x0100\n      dup1\n      dup4\n      sload\n      div\n      mul\n      dup4\n      mstore\n      swap2\n      0x20\n      add\n      swap2\n      jump(tag_49)\n    tag_50:\n      dup3\n      add\n      swap2\n      swap1\n      0x00\n      mstore\n      keccak256(0x00, 0x20)\n      swap1\n    tag_51:\n      dup2\n      sload\n      dup2\n      mstore\n      swap1\n      0x01\n      add\n      swap1\n      0x20\n      add\n      dup1\n      dup4\n      gt\n      tag_51\n      jumpi\n      dup3\n      swap1\n      sub\n      0x1f\n      and\n      dup3\n      add\n      swap2\n    tag_49:\n      pop\n      pop\n      pop\n      pop\n      pop\n      dup2\n      jump\t// out\n        /* \"contract-arrayTest.sol\":1464:1838  function bytesFun2() public {... */\n    tag_33:\n        /* \"contract-arrayTest.sol\":1532:1533  3 */\n      0x03\n        /* \"contract-arrayTest.sol\":1518:1534  new bytes32[](3) */\n      0xffffffffffffffff\n      dup2\n      gt\n      iszero\n      tag_53\n      jumpi\n      tag_54\n      tag_55\n      jump\t// in\n    tag_54:\n    tag_53:\n      mload(0x40)\n      swap1\n      dup1\n      dup3\n      mstore\n      dup1\n      0x20\n      mul\n      0x20\n      add\n      dup3\n      add\n      0x40\n      mstore\n      dup1\n      iszero\n      tag_56\n      jumpi\n      dup2\n      0x20\n      add\n      0x20\n      dup3\n      mul\n      dup1\n      calldatasize\n      dup4\n      calldatacopy\n      dup1\n      dup3\n      add\n      swap2\n      pop\n      pop\n      swap1\n      pop\n    tag_56:\n      pop\n        /* \"contract-arrayTest.sol\":1503:1515  myBytesArray */\n      0x02\n        /* \"contract-arrayTest.sol\":1503:1534  myBytesArray = new bytes32[](3) */\n      swap1\n      dup1\n      mload\n      swap1\n      0x20\n      add\n      swap1\n      tag_57\n      swap3\n      swap2\n      swap1\n      tag_58\n      jump\t// in\n    tag_57:\n      pop\n        /* \"contract-arrayTest.sol\":1545:1632  myBytesArray[0] = hex\"1234567890abcdef1234567890abcdef1234567890abcdef1234567890abcdef\" */\n      0x1234567890abcdef1234567890abcdef1234567890abcdef1234567890abcdef\n        /* \"contract-arrayTest.sol\":1545:1557  myBytesArray */\n      0x02\n        /* \"contract-arrayTest.sol\":1558:1559  0 */\n      0x00\n        /* \"contract-arrayTest.sol\":1545:1560  myBytesArray[0] */\n      dup2\n      sload\n      dup2\n      lt\n      tag_59\n      jumpi\n      tag_60\n      tag_61\n      jump\t// in\n    tag_60:\n    tag_59:\n      swap1\n      0x00\n      mstore\n      keccak256(0x00, 0x20)\n      add\n        /* \"contract-arrayTest.sol\":1545:1632  myBytesArray[0] = hex\"1234567890abcdef1234567890abcdef1234567890abcdef1234567890abcdef\" */\n      dup2\n      swap1\n      sstore\n      pop\n        /* \"contract-arrayTest.sol\":1643:1730  myBytesArray[1] = hex\"abcdef1234567890abcdef1234567890abcdef1234567890abcdef1234567890\" */\n      0xabcdef1234567890abcdef1234567890abcdef1234567890abcdef1234567890\n        /* \"contract-arrayTest.sol\":1643:1655  myBytesArray */\n      0x02\n        /* \"contract-arrayTest.sol\":1656:1657  1 */\n      0x01\n        /* \"contract-arrayTest.sol\":1643:1658  myBytesArray[1] */\n      dup2\n      sload\n      dup2\n      lt\n      tag_63\n      jumpi\n      tag_64\n      tag_61\n      jump\t// in\n    tag_64:\n    tag_63:\n      swap1\n      0x00\n      mstore\n      keccak256(0x00, 0x20)\n      add\n        /* \"contract-arrayTest.sol\":1643:1730  myBytesArray[1] = hex\"abcdef1234567890abcdef1234567890abcdef1234567890abcdef1234567890\" */\n      dup2\n      swap1\n      sstore\n      pop\n        /* \"contract-arrayTest.sol\":1741:1828  myBytesArray[2] = hex\"7890abcdef1234567890abcdef1234567890abcdef1234567890abcdef123456\" */\n      0x7890abcdef1234567890abcdef1234567890abcdef1234567890abcdef123456\n        /* \"contract-arrayTest.sol\":1741:1753  myBytesArray */\n      0x02\n        /* \"contract-arrayTest.sol\":1754:1755  2 */\n      dup1\n        /* \"contract-arrayTest.sol\":1741:1756  myBytesArray[2] */\n      dup2\n      sload\n      dup2\n      lt\n      tag_66\n      jumpi\n      tag_67\n      tag_61\n      jump\t// in\n    tag_67:\n    tag_66:\n      swap1\n      0x00\n      mstore\n      keccak256(0x00, 0x20)\n      add\n        /* \"contract-arrayTest.sol\":1741:1828  myBytesArray[2] = hex\"7890abcdef1234567890abcdef1234567890abcdef1234567890abcdef123456\" */\n      dup2\n      swap1\n      sstore\n      pop\n        /* \"contract-arrayTest.sol\":1464:1838  function bytesFun2() public {... */\n      jump\t// out\n        /* \"contract-arrayTest.sol\":571:650  function testPush() external returns (uint) {... */\n    tag_35:\n        /* \"contract-arrayTest.sol\":609:613  uint */\n      0x00\n        /* \"contract-arrayTest.sol\":634:635  x */\n      dup1\n        /* \"contract-arrayTest.sol\":634:642  x.push() */\n      0x01\n      dup2\n      0x01\n      dup2\n      sload\n      add\n      dup1\n      dup3\n      sstore\n      dup1\n      swap2\n      pop\n      pop\n      sub\n      swap1\n      0x00\n      mstore\n      keccak256(0x00, 0x20)\n      add\n      sload\n        /* \"contract-arrayTest.sol\":626:642  return  x.push() */\n      swap1\n      pop\n        /* \"contract-arrayTest.sol\":571:650  function testPush() external returns (uint) {... */\n      swap1\n      jump\t// out\n        /* \"contract-arrayTest.sol\":949:1321  function bytesFun() public {... */\n    tag_38:\n        /* \"contract-arrayTest.sol\":1007:1008  2 */\n      0x02\n        /* \"contract-arrayTest.sol\":997:1009  new bytes(2) */\n      0xffffffffffffffff\n      dup2\n      gt\n      iszero\n      tag_72\n      jumpi\n      tag_73\n      tag_55\n      jump\t// in\n    tag_73:\n    tag_72:\n      mload(0x40)\n      swap1\n      dup1\n      dup3\n      mstore\n      dup1\n      0x1f\n      add\n      not(0x1f)\n      and\n      0x20\n      add\n      dup3\n      add\n      0x40\n      mstore\n      dup1\n      iszero\n      tag_74\n      jumpi\n      dup2\n      0x20\n      add\n      0x01\n      dup3\n      mul\n      dup1\n      calldatasize\n      dup4\n      calldatacopy\n      dup1\n      dup3\n      add\n      swap2\n      pop\n      pop\n      swap1\n      pop\n    tag_74:\n      pop\n        /* \"contract-arrayTest.sol\":987:994  myBytes */\n      0x01\n        /* \"contract-arrayTest.sol\":987:1009  myBytes = new bytes(2) */\n      swap1\n      dup2\n      tag_75\n      swap2\n      swap1\n      tag_76\n      jump\t// in\n    tag_75:\n      pop\n        /* \"contract-arrayTest.sol\":1020:1027  myBytes */\n      0x01\n        /* \"contract-arrayTest.sol\":1033:1037  0x12 */\n      0x12\n        /* \"contract-arrayTest.sol\":1020:1038  myBytes.push(0x12) */\n      swap1\n      dup1\n      dup1\n      sload\n      dup1\n      tag_77\n      swap1\n      tag_47\n      jump\t// in\n    tag_77:\n      dup1\n      0x1f\n      dup2\n      sub\n      tag_78\n      jumpi\n      dup4\n      0x00\n      mstore\n      keccak256(0x00, 0x20)\n      not(0xff)\n      dup5\n      and\n      dup2\n      sstore\n      0x3f\n      swap4\n      pop\n      pop\n    tag_78:\n      pop\n      0x02\n      dup3\n      add\n      dup4\n      sstore\n      0x01\n      dup2\n      add\n      swap3\n      pop\n      pop\n      pop\n      0x01\n      swap1\n      sub\n      dup2\n      sload\n      0x01\n      and\n      iszero\n      tag_80\n      jumpi\n      swap1\n      0x00\n      mstore\n      keccak256(0x00, 0x20)\n      swap1\n      0x20\n      swap2\n      dup3\n      dup3\n      div\n      add\n      swap2\n      swap1\n      mod\n    tag_80:\n      swap1\n      swap2\n      0xf8\n      shl\n      swap1\n      swap2\n      swap1\n      swap2\n      0x1f\n      sub\n      0x0100\n      exp\n      dup2\n      sload\n      dup2\n      0xff\n      mul\n      not\n      and\n      swap1\n      0x0100000000000000000000000000000000000000000000000000000000000000\n      dup5\n      div\n      mul\n      or\n      swap1\n      sstore\n      pop\n        /* \"contract-arrayTest.sol\":1049:1056  myBytes */\n      0x01\n        /* \"contract-arrayTest.sol\":1062:1066  0x34 */\n      0x34\n        /* \"contract-arrayTest.sol\":1049:1067  myBytes.push(0x34) */\n      swap1\n      dup1\n      dup1\n      sload\n      dup1\n      tag_81\n      swap1\n      tag_47\n      jump\t// in\n    tag_81:\n      dup1\n      0x1f\n      dup2\n      sub\n      tag_82\n      jumpi\n      dup4\n      0x00\n      mstore\n      keccak256(0x00, 0x20)\n      not(0xff)\n      dup5\n      and\n      dup2\n      sstore\n      0x3f\n      swap4\n      pop\n      pop\n    tag_82:\n      pop\n      0x02\n      dup3\n      add\n      dup4\n      sstore\n      0x01\n      dup2\n      add\n      swap3\n      pop\n      pop\n      pop\n      0x01\n      swap1\n      sub\n      dup2\n      sload\n      0x01\n      and\n      iszero\n      tag_84\n      jumpi\n      swap1\n      0x00\n      mstore\n      keccak256(0x00, 0x20)\n      swap1\n      0x20\n      swap2\n      dup3\n      dup3\n      div\n      add\n      swap2\n      swap1\n      mod\n    tag_84:\n      swap1\n      swap2\n      0xf8\n      shl\n      swap1\n      swap2\n      swap1\n      swap2\n      0x1f\n      sub\n      0x0100\n      exp\n      dup2\n      sload\n      dup2\n      0xff\n      mul\n      not\n      and\n      swap1\n      0x0100000000000000000000000000000000000000000000000000000000000000\n      dup5\n      div\n      mul\n      or\n      swap1\n      sstore\n      pop\n        /* \"contract-arrayTest.sol\":1078:1085  myBytes */\n      0x01\n        /* \"contract-arrayTest.sol\":1091:1095  0x56 */\n      0x56\n        /* \"contract-arrayTest.sol\":1078:1096  myBytes.push(0x56) */\n      swap1\n      dup1\n      dup1\n      sload\n      dup1\n      tag_85\n      swap1\n      tag_47\n      jump\t// in\n    tag_85:\n      dup1\n      0x1f\n      dup2\n      sub\n      tag_86\n      jumpi\n      dup4\n      0x00\n      mstore\n      keccak256(0x00, 0x20)\n      not(0xff)\n      dup5\n      and\n      dup2\n      sstore\n      0x3f\n      swap4\n      pop\n      pop\n    tag_86:\n      pop\n      0x02\n      dup3\n      add\n      dup4\n      sstore\n      0x01\n      dup2\n      add\n      swap3\n      pop\n      pop\n      pop\n      0x01\n      swap1\n      sub\n      dup2\n      sload\n      0x01\n      and\n      iszero\n      tag_88\n      jumpi\n      swap1\n      0x00\n      mstore\n      keccak256(0x00, 0x20)\n      swap1\n      0x20\n      swap2\n      dup3\n      dup3\n      div\n      add\n      swap2\n      swap1\n      mod\n    tag_88:\n      swap1\n      swap2\n      0xf8\n      shl\n      swap1\n      swap2\n      swap1\n      swap2\n      0x1f\n      sub\n      0x0100\n      exp\n      dup2\n      sload\n      dup2\n      0xff\n      mul\n      not\n      and\n      swap1\n      0x0100000000000000000000000000000000000000000000000000000000000000\n      dup5\n      div\n      mul\n      or\n      swap1\n      sstore\n      pop\n        /* \"contract-arrayTest.sol\":1107:1114  myBytes */\n      0x01\n        /* \"contract-arrayTest.sol\":1120:1124  0x78 */\n      0x78\n        /* \"contract-arrayTest.sol\":1107:1125  myBytes.push(0x78) */\n      swap1\n      dup1\n      dup1\n      sload\n      dup1\n      tag_89\n      swap1\n      tag_47\n      jump\t// in\n    tag_89:\n      dup1\n      0x1f\n      dup2\n      sub\n      tag_90\n      jumpi\n      dup4\n      0x00\n      mstore\n      keccak256(0x00, 0x20)\n      not(0xff)\n      dup5\n      and\n      dup2\n      sstore\n      0x3f\n      swap4\n      pop\n      pop\n    tag_90:\n      pop\n      0x02\n      dup3\n      add\n      dup4\n      sstore\n      0x01\n      dup2\n      add\n      swap3\n      pop\n      pop\n      pop\n      0x01\n      swap1\n      sub\n      dup2\n      sload\n      0x01\n      and\n      iszero\n      tag_92\n      jumpi\n      swap1\n      0x00\n      mstore\n      keccak256(0x00, 0x20)\n      swap1\n      0x20\n      swap2\n      dup3\n      dup3\n      div\n      add\n      swap2\n      swap1\n      mod\n    tag_92:\n      swap1\n      swap2\n      0xf8\n      shl\n      swap1\n      swap2\n      swap1\n      swap2\n      0x1f\n      sub\n      0x0100\n      exp\n      dup2\n      sload\n      dup2\n      0xff\n      mul\n      not\n      and\n      swap1\n      0x0100000000000000000000000000000000000000000000000000000000000000\n      dup5\n      div\n      mul\n      or\n      swap1\n      sstore\n      pop\n        /* \"contract-arrayTest.sol\":1136:1143  myBytes */\n      0x01\n        /* \"contract-arrayTest.sol\":1149:1153  0x90 */\n      0x90\n        /* \"contract-arrayTest.sol\":1136:1154  myBytes.push(0x90) */\n      swap1\n      dup1\n      dup1\n      sload\n      dup1\n      tag_93\n      swap1\n      tag_47\n      jump\t// in\n    tag_93:\n      dup1\n      0x1f\n      dup2\n      sub\n      tag_94\n      jumpi\n      dup4\n      0x00\n      mstore\n      keccak256(0x00, 0x20)\n      not(0xff)\n      dup5\n      and\n      dup2\n      sstore\n      0x3f\n      swap4\n      pop\n      pop\n    tag_94:\n      pop\n      0x02\n      dup3\n      add\n      dup4\n      sstore\n      0x01\n      dup2\n      add\n      swap3\n      pop\n      pop\n      pop\n      0x01\n      swap1\n      sub\n      dup2\n      sload\n      0x01\n      and\n      iszero\n      tag_96\n      jumpi\n      swap1\n      0x00\n      mstore\n      keccak256(0x00, 0x20)\n      swap1\n      0x20\n      swap2\n      dup3\n      dup3\n      div\n      add\n      swap2\n      swap1\n      mod\n    tag_96:\n      swap1\n      swap2\n      0xf8\n      shl\n      swap1\n      swap2\n      swap1\n      swap2\n      0x1f\n      sub\n      0x0100\n      exp\n      dup2\n      sload\n      dup2\n      0xff\n      mul\n      not\n      and\n      swap1\n      0x0100000000000000000000000000000000000000000000000000000000000000\n      dup5\n      div\n      mul\n      or\n      swap1\n      sstore\n      pop\n        /* \"contract-arrayTest.sol\":1165:1172  myBytes */\n      0x01\n        /* \"contract-arrayTest.sol\":1178:1182  0x91 */\n      0x91\n        /* \"contract-arrayTest.sol\":1165:1183  myBytes.push(0x91) */\n      swap1\n      dup1\n      dup1\n      sload\n      dup1\n      tag_97\n      swap1\n      tag_47\n      jump\t// in\n    tag_97:\n      dup1\n      0x1f\n      dup2\n      sub\n      tag_98\n      jumpi\n      dup4\n      0x00\n      mstore\n      keccak256(0x00, 0x20)\n      not(0xff)\n      dup5\n      and\n      dup2\n      sstore\n      0x3f\n      swap4\n      pop\n      pop\n    tag_98:\n      pop\n      0x02\n      dup3\n      add\n      dup4\n      sstore\n      0x01\n      dup2\n      add\n      swap3\n      pop\n      pop\n      pop\n      0x01\n      swap1\n      sub\n      dup2\n      sload\n      0x01\n      and\n      iszero\n      tag_100\n      jumpi\n      swap1\n      0x00\n      mstore\n      keccak256(0x00, 0x20)\n      swap1\n      0x20\n      swap2\n      dup3\n      dup3\n      div\n      add\n      swap2\n      swap1\n      mod\n    tag_100:\n      swap1\n      swap2\n      0xf8\n      shl\n      swap1\n      swap2\n      swap1\n      swap2\n      0x1f\n      sub\n      0x0100\n      exp\n      dup2\n      sload\n      dup2\n      0xff\n      mul\n      not\n      and\n      swap1\n      0x0100000000000000000000000000000000000000000000000000000000000000\n      dup5\n      div\n      mul\n      or\n      swap1\n      sstore\n      pop\n        /* \"contract-arrayTest.sol\":949:1321  function bytesFun() public {... */\n      jump\t// out\n    tag_58:\n      dup3\n      dup1\n      sload\n      dup3\n      dup3\n      sstore\n      swap1\n      0x00\n      mstore\n      keccak256(0x00, 0x20)\n      swap1\n      dup2\n      add\n      swap3\n      dup3\n      iszero\n      tag_101\n      jumpi\n      swap2\n      0x20\n      mul\n      dup3\n      add\n    tag_102:\n      dup3\n      dup2\n      gt\n      iszero\n      tag_103\n      jumpi\n      dup3\n      mload\n      dup3\n      sstore\n      swap2\n      0x20\n      add\n      swap2\n      swap1\n      0x01\n      add\n      swap1\n      jump(tag_102)\n    tag_103:\n    tag_101:\n      pop\n      swap1\n      pop\n      tag_104\n      swap2\n      swap1\n      tag_105\n      jump\t// in\n    tag_104:\n      pop\n      swap1\n      jump\t// out\n    tag_105:\n    tag_106:\n      dup1\n      dup3\n      gt\n      iszero\n      tag_107\n      jumpi\n      0x00\n      dup2\n      0x00\n      swap1\n      sstore\n      pop\n      0x01\n      add\n      jump(tag_106)\n    tag_107:\n      pop\n      swap1\n      jump\t// out\n        /* \"#utility.yul\":88:205   */\n    tag_109:\n        /* \"#utility.yul\":197:198   */\n      0x00\n        /* \"#utility.yul\":194:195   */\n      dup1\n        /* \"#utility.yul\":187:199   */\n      revert\n        /* \"#utility.yul\":334:411   */\n    tag_111:\n        /* \"#utility.yul\":371:378   */\n      0x00\n        /* \"#utility.yul\":400:405   */\n      dup2\n        /* \"#utility.yul\":389:405   */\n      swap1\n      pop\n        /* \"#utility.yul\":334:411   */\n      swap2\n      swap1\n      pop\n      jump\t// out\n        /* \"#utility.yul\":417:539   */\n    tag_112:\n        /* \"#utility.yul\":490:514   */\n      tag_144\n        /* \"#utility.yul\":508:513   */\n      dup2\n        /* \"#utility.yul\":490:514   */\n      tag_111\n      jump\t// in\n    tag_144:\n        /* \"#utility.yul\":483:488   */\n      dup2\n        /* \"#utility.yul\":480:515   */\n      eq\n        /* \"#utility.yul\":470:533   */\n      tag_145\n      jumpi\n        /* \"#utility.yul\":529:530   */\n      0x00\n        /* \"#utility.yul\":526:527   */\n      dup1\n        /* \"#utility.yul\":519:531   */\n      revert\n        /* \"#utility.yul\":470:533   */\n    tag_145:\n        /* \"#utility.yul\":417:539   */\n      pop\n      jump\t// out\n        /* \"#utility.yul\":545:684   */\n    tag_113:\n        /* \"#utility.yul\":591:596   */\n      0x00\n        /* \"#utility.yul\":629:635   */\n      dup2\n        /* \"#utility.yul\":616:636   */\n      calldataload\n        /* \"#utility.yul\":607:636   */\n      swap1\n      pop\n        /* \"#utility.yul\":645:678   */\n      tag_147\n        /* \"#utility.yul\":672:677   */\n      dup2\n        /* \"#utility.yul\":645:678   */\n      tag_112\n      jump\t// in\n    tag_147:\n        /* \"#utility.yul\":545:684   */\n      swap3\n      swap2\n      pop\n      pop\n      jump\t// out\n        /* \"#utility.yul\":690:1019   */\n    tag_16:\n        /* \"#utility.yul\":749:755   */\n      0x00\n        /* \"#utility.yul\":798:800   */\n      0x20\n        /* \"#utility.yul\":786:795   */\n      dup3\n        /* \"#utility.yul\":777:784   */\n      dup5\n        /* \"#utility.yul\":773:796   */\n      sub\n        /* \"#utility.yul\":769:801   */\n      slt\n        /* \"#utility.yul\":766:885   */\n      iszero\n      tag_149\n      jumpi\n        /* \"#utility.yul\":804:883   */\n      tag_150\n      tag_109\n      jump\t// in\n    tag_150:\n        /* \"#utility.yul\":766:885   */\n    tag_149:\n        /* \"#utility.yul\":924:925   */\n      0x00\n        /* \"#utility.yul\":949:1002   */\n      tag_151\n        /* \"#utility.yul\":994:1001   */\n      dup5\n        /* \"#utility.yul\":985:991   */\n      dup3\n        /* \"#utility.yul\":974:983   */\n      dup6\n        /* \"#utility.yul\":970:992   */\n      add\n        /* \"#utility.yul\":949:1002   */\n      tag_113\n      jump\t// in\n    tag_151:\n        /* \"#utility.yul\":939:1002   */\n      swap2\n      pop\n        /* \"#utility.yul\":895:1012   */\n      pop\n        /* \"#utility.yul\":690:1019   */\n      swap3\n      swap2\n      pop\n      pop\n      jump\t// out\n        /* \"#utility.yul\":1025:1102   */\n    tag_114:\n        /* \"#utility.yul\":1062:1069   */\n      0x00\n        /* \"#utility.yul\":1091:1096   */\n      dup2\n        /* \"#utility.yul\":1080:1096   */\n      swap1\n      pop\n        /* \"#utility.yul\":1025:1102   */\n      swap2\n      swap1\n      pop\n      jump\t// out\n        /* \"#utility.yul\":1108:1226   */\n    tag_115:\n        /* \"#utility.yul\":1195:1219   */\n      tag_154\n        /* \"#utility.yul\":1213:1218   */\n      dup2\n        /* \"#utility.yul\":1195:1219   */\n      tag_114\n      jump\t// in\n    tag_154:\n        /* \"#utility.yul\":1190:1193   */\n      dup3\n        /* \"#utility.yul\":1183:1220   */\n      mstore\n        /* \"#utility.yul\":1108:1226   */\n      pop\n      pop\n      jump\t// out\n        /* \"#utility.yul\":1232:1454   */\n    tag_19:\n        /* \"#utility.yul\":1325:1329   */\n      0x00\n        /* \"#utility.yul\":1363:1365   */\n      0x20\n        /* \"#utility.yul\":1352:1361   */\n      dup3\n        /* \"#utility.yul\":1348:1366   */\n      add\n        /* \"#utility.yul\":1340:1366   */\n      swap1\n      pop\n        /* \"#utility.yul\":1376:1447   */\n      tag_156\n        /* \"#utility.yul\":1444:1445   */\n      0x00\n        /* \"#utility.yul\":1433:1442   */\n      dup4\n        /* \"#utility.yul\":1429:1446   */\n      add\n        /* \"#utility.yul\":1420:1426   */\n      dup5\n        /* \"#utility.yul\":1376:1447   */\n      tag_115\n      jump\t// in\n    tag_156:\n        /* \"#utility.yul\":1232:1454   */\n      swap3\n      swap2\n      pop\n      pop\n      jump\t// out\n        /* \"#utility.yul\":1460:1578   */\n    tag_116:\n        /* \"#utility.yul\":1547:1571   */\n      tag_158\n        /* \"#utility.yul\":1565:1570   */\n      dup2\n        /* \"#utility.yul\":1547:1571   */\n      tag_111\n      jump\t// in\n    tag_158:\n        /* \"#utility.yul\":1542:1545   */\n      dup3\n        /* \"#utility.yul\":1535:1572   */\n      mstore\n        /* \"#utility.yul\":1460:1578   */\n      pop\n      pop\n      jump\t// out\n        /* \"#utility.yul\":1584:1806   */\n    tag_24:\n        /* \"#utility.yul\":1677:1681   */\n      0x00\n        /* \"#utility.yul\":1715:1717   */\n      0x20\n        /* \"#utility.yul\":1704:1713   */\n      dup3\n        /* \"#utility.yul\":1700:1718   */\n      add\n        /* \"#utility.yul\":1692:1718   */\n      swap1\n      pop\n        /* \"#utility.yul\":1728:1799   */\n      tag_160\n        /* \"#utility.yul\":1796:1797   */\n      0x00\n        /* \"#utility.yul\":1785:1794   */\n      dup4\n        /* \"#utility.yul\":1781:1798   */\n      add\n        /* \"#utility.yul\":1772:1778   */\n      dup5\n        /* \"#utility.yul\":1728:1799   */\n      tag_116\n      jump\t// in\n    tag_160:\n        /* \"#utility.yul\":1584:1806   */\n      swap3\n      swap2\n      pop\n      pop\n      jump\t// out\n        /* \"#utility.yul\":1812:1910   */\n    tag_117:\n        /* \"#utility.yul\":1863:1869   */\n      0x00\n        /* \"#utility.yul\":1897:1902   */\n      dup2\n        /* \"#utility.yul\":1891:1903   */\n      mload\n        /* \"#utility.yul\":1881:1903   */\n      swap1\n      pop\n        /* \"#utility.yul\":1812:1910   */\n      swap2\n      swap1\n      pop\n      jump\t// out\n        /* \"#utility.yul\":1916:2084   */\n    tag_118:\n        /* \"#utility.yul\":1999:2010   */\n      0x00\n        /* \"#utility.yul\":2033:2039   */\n      dup3\n        /* \"#utility.yul\":2028:2031   */\n      dup3\n        /* \"#utility.yul\":2021:2040   */\n      mstore\n        /* \"#utility.yul\":2073:2077   */\n      0x20\n        /* \"#utility.yul\":2068:2071   */\n      dup3\n        /* \"#utility.yul\":2064:2078   */\n      add\n        /* \"#utility.yul\":2049:2078   */\n      swap1\n      pop\n        /* \"#utility.yul\":1916:2084   */\n      swap3\n      swap2\n      pop\n      pop\n      jump\t// out\n        /* \"#utility.yul\":2090:2336   */\n    tag_119:\n        /* \"#utility.yul\":2171:2172   */\n      0x00\n        /* \"#utility.yul\":2181:2294   */\n    tag_164:\n        /* \"#utility.yul\":2195:2201   */\n      dup4\n        /* \"#utility.yul\":2192:2193   */\n      dup2\n        /* \"#utility.yul\":2189:2202   */\n      lt\n        /* \"#utility.yul\":2181:2294   */\n      iszero\n      tag_166\n      jumpi\n        /* \"#utility.yul\":2280:2281   */\n      dup1\n        /* \"#utility.yul\":2275:2278   */\n      dup3\n        /* \"#utility.yul\":2271:2282   */\n      add\n        /* \"#utility.yul\":2265:2283   */\n      mload\n        /* \"#utility.yul\":2261:2262   */\n      dup2\n        /* \"#utility.yul\":2256:2259   */\n      dup5\n        /* \"#utility.yul\":2252:2263   */\n      add\n        /* \"#utility.yul\":2245:2284   */\n      mstore\n        /* \"#utility.yul\":2217:2219   */\n      0x20\n        /* \"#utility.yul\":2214:2215   */\n      dup2\n        /* \"#utility.yul\":2210:2220   */\n      add\n        /* \"#utility.yul\":2205:2220   */\n      swap1\n      pop\n        /* \"#utility.yul\":2181:2294   */\n      jump(tag_164)\n    tag_166:\n        /* \"#utility.yul\":2328:2329   */\n      0x00\n        /* \"#utility.yul\":2319:2325   */\n      dup5\n        /* \"#utility.yul\":2314:2317   */\n      dup5\n        /* \"#utility.yul\":2310:2326   */\n      add\n        /* \"#utility.yul\":2303:2330   */\n      mstore\n        /* \"#utility.yul\":2152:2336   */\n      pop\n        /* \"#utility.yul\":2090:2336   */\n      pop\n      pop\n      pop\n      jump\t// out\n        /* \"#utility.yul\":2342:2444   */\n    tag_120:\n        /* \"#utility.yul\":2383:2389   */\n      0x00\n        /* \"#utility.yul\":2434:2436   */\n      0x1f\n        /* \"#utility.yul\":2430:2437   */\n      not\n        /* \"#utility.yul\":2425:2427   */\n      0x1f\n        /* \"#utility.yul\":2418:2423   */\n      dup4\n        /* \"#utility.yul\":2414:2428   */\n      add\n        /* \"#utility.yul\":2410:2438   */\n      and\n        /* \"#utility.yul\":2400:2438   */\n      swap1\n      pop\n        /* \"#utility.yul\":2342:2444   */\n      swap2\n      swap1\n      pop\n      jump\t// out\n        /* \"#utility.yul\":2450:2823   */\n    tag_121:\n        /* \"#utility.yul\":2536:2539   */\n      0x00\n        /* \"#utility.yul\":2564:2602   */\n      tag_169\n        /* \"#utility.yul\":2596:2601   */\n      dup3\n        /* \"#utility.yul\":2564:2602   */\n      tag_117\n      jump\t// in\n    tag_169:\n        /* \"#utility.yul\":2618:2688   */\n      tag_170\n        /* \"#utility.yul\":2681:2687   */\n      dup2\n        /* \"#utility.yul\":2676:2679   */\n      dup6\n        /* \"#utility.yul\":2618:2688   */\n      tag_118\n      jump\t// in\n    tag_170:\n        /* \"#utility.yul\":2611:2688   */\n      swap4\n      pop\n        /* \"#utility.yul\":2697:2762   */\n      tag_171\n        /* \"#utility.yul\":2755:2761   */\n      dup2\n        /* \"#utility.yul\":2750:2753   */\n      dup6\n        /* \"#utility.yul\":2743:2747   */\n      0x20\n        /* \"#utility.yul\":2736:2741   */\n      dup7\n        /* \"#utility.yul\":2732:2748   */\n      add\n        /* \"#utility.yul\":2697:2762   */\n      tag_119\n      jump\t// in\n    tag_171:\n        /* \"#utility.yul\":2787:2816   */\n      tag_172\n        /* \"#utility.yul\":2809:2815   */\n      dup2\n        /* \"#utility.yul\":2787:2816   */\n      tag_120\n      jump\t// in\n    tag_172:\n        /* \"#utility.yul\":2782:2785   */\n      dup5\n        /* \"#utility.yul\":2778:2817   */\n      add\n        /* \"#utility.yul\":2771:2817   */\n      swap2\n      pop\n        /* \"#utility.yul\":2540:2823   */\n      pop\n        /* \"#utility.yul\":2450:2823   */\n      swap3\n      swap2\n      pop\n      pop\n      jump\t// out\n        /* \"#utility.yul\":2829:3138   */\n    tag_31:\n        /* \"#utility.yul\":2940:2944   */\n      0x00\n        /* \"#utility.yul\":2978:2980   */\n      0x20\n        /* \"#utility.yul\":2967:2976   */\n      dup3\n        /* \"#utility.yul\":2963:2981   */\n      add\n        /* \"#utility.yul\":2955:2981   */\n      swap1\n      pop\n        /* \"#utility.yul\":3027:3036   */\n      dup2\n        /* \"#utility.yul\":3021:3025   */\n      dup2\n        /* \"#utility.yul\":3017:3037   */\n      sub\n        /* \"#utility.yul\":3013:3014   */\n      0x00\n        /* \"#utility.yul\":3002:3011   */\n      dup4\n        /* \"#utility.yul\":2998:3015   */\n      add\n        /* \"#utility.yul\":2991:3038   */\n      mstore\n        /* \"#utility.yul\":3055:3131   */\n      tag_174\n        /* \"#utility.yul\":3126:3130   */\n      dup2\n        /* \"#utility.yul\":3117:3123   */\n      dup5\n        /* \"#utility.yul\":3055:3131   */\n      tag_121\n      jump\t// in\n    tag_174:\n        /* \"#utility.yul\":3047:3131   */\n      swap1\n      pop\n        /* \"#utility.yul\":2829:3138   */\n      swap3\n      swap2\n      pop\n      pop\n      jump\t// out\n        /* \"#utility.yul\":3144:3324   */\n    tag_122:\n        /* \"#utility.yul\":3192:3269   */\n      0x4e487b7100000000000000000000000000000000000000000000000000000000\n        /* \"#utility.yul\":3189:3190   */\n      0x00\n        /* \"#utility.yul\":3182:3270   */\n      mstore\n        /* \"#utility.yul\":3289:3293   */\n      0x22\n        /* \"#utility.yul\":3286:3287   */\n      0x04\n        /* \"#utility.yul\":3279:3294   */\n      mstore\n        /* \"#utility.yul\":3313:3317   */\n      0x24\n        /* \"#utility.yul\":3310:3311   */\n      0x00\n        /* \"#utility.yul\":3303:3318   */\n      revert\n        /* \"#utility.yul\":3330:3650   */\n    tag_47:\n        /* \"#utility.yul\":3374:3380   */\n      0x00\n        /* \"#utility.yul\":3411:3412   */\n      0x02\n        /* \"#utility.yul\":3405:3409   */\n      dup3\n        /* \"#utility.yul\":3401:3413   */\n      div\n        /* \"#utility.yul\":3391:3413   */\n      swap1\n      pop\n        /* \"#utility.yul\":3458:3459   */\n      0x01\n        /* \"#utility.yul\":3452:3456   */\n      dup3\n        /* \"#utility.yul\":3448:3460   */\n      and\n        /* \"#utility.yul\":3479:3497   */\n      dup1\n        /* \"#utility.yul\":3469:3550   */\n      tag_177\n      jumpi\n        /* \"#utility.yul\":3535:3539   */\n      0x7f\n        /* \"#utility.yul\":3527:3533   */\n      dup3\n        /* \"#utility.yul\":3523:3540   */\n      and\n        /* \"#utility.yul\":3513:3540   */\n      swap2\n      pop\n        /* \"#utility.yul\":3469:3550   */\n    tag_177:\n        /* \"#utility.yul\":3597:3599   */\n      0x20\n        /* \"#utility.yul\":3589:3595   */\n      dup3\n        /* \"#utility.yul\":3586:3600   */\n      lt\n        /* \"#utility.yul\":3566:3584   */\n      dup2\n        /* \"#utility.yul\":3563:3601   */\n      sub\n        /* \"#utility.yul\":3560:3644   */\n      tag_178\n      jumpi\n        /* \"#utility.yul\":3616:3634   */\n      tag_179\n      tag_122\n      jump\t// in\n    tag_179:\n        /* \"#utility.yul\":3560:3644   */\n    tag_178:\n        /* \"#utility.yul\":3381:3650   */\n      pop\n        /* \"#utility.yul\":3330:3650   */\n      swap2\n      swap1\n      pop\n      jump\t// out\n        /* \"#utility.yul\":3656:3836   */\n    tag_55:\n        /* \"#utility.yul\":3704:3781   */\n      0x4e487b7100000000000000000000000000000000000000000000000000000000\n        /* \"#utility.yul\":3701:3702   */\n      0x00\n        /* \"#utility.yul\":3694:3782   */\n      mstore\n        /* \"#utility.yul\":3801:3805   */\n      0x41\n        /* \"#utility.yul\":3798:3799   */\n      0x04\n        /* \"#utility.yul\":3791:3806   */\n      mstore\n        /* \"#utility.yul\":3825:3829   */\n      0x24\n        /* \"#utility.yul\":3822:3823   */\n      0x00\n        /* \"#utility.yul\":3815:3830   */\n      revert\n        /* \"#utility.yul\":3842:4022   */\n    tag_61:\n        /* \"#utility.yul\":3890:3967   */\n      0x4e487b7100000000000000000000000000000000000000000000000000000000\n        /* \"#utility.yul\":3887:3888   */\n      0x00\n        /* \"#utility.yul\":3880:3968   */\n      mstore\n        /* \"#utility.yul\":3987:3991   */\n      0x32\n        /* \"#utility.yul\":3984:3985   */\n      0x04\n        /* \"#utility.yul\":3977:3992   */\n      mstore\n        /* \"#utility.yul\":4011:4015   */\n      0x24\n        /* \"#utility.yul\":4008:4009   */\n      0x00\n        /* \"#utility.yul\":4001:4016   */\n      revert\n        /* \"#utility.yul\":4028:4168   */\n    tag_123:\n        /* \"#utility.yul\":4076:4080   */\n      0x00\n        /* \"#utility.yul\":4099:4102   */\n      dup2\n        /* \"#utility.yul\":4091:4102   */\n      swap1\n      pop\n        /* \"#utility.yul\":4122:4125   */\n      dup2\n        /* \"#utility.yul\":4119:4120   */\n      0x00\n        /* \"#utility.yul\":4112:4126   */\n      mstore\n        /* \"#utility.yul\":4156:4160   */\n      0x20\n        /* \"#utility.yul\":4153:4154   */\n      0x00\n        /* \"#utility.yul\":4143:4161   */\n      keccak256\n        /* \"#utility.yul\":4135:4161   */\n      swap1\n      pop\n        /* \"#utility.yul\":4028:4168   */\n      swap2\n      swap1\n      pop\n      jump\t// out\n        /* \"#utility.yul\":4174:4267   */\n    tag_124:\n        /* \"#utility.yul\":4211:4217   */\n      0x00\n        /* \"#utility.yul\":4258:4260   */\n      0x20\n        /* \"#utility.yul\":4253:4255   */\n      0x1f\n        /* \"#utility.yul\":4246:4251   */\n      dup4\n        /* \"#utility.yul\":4242:4256   */\n      add\n        /* \"#utility.yul\":4238:4261   */\n      div\n        /* \"#utility.yul\":4228:4261   */\n      swap1\n      pop\n        /* \"#utility.yul\":4174:4267   */\n      swap2\n      swap1\n      pop\n      jump\t// out\n        /* \"#utility.yul\":4273:4380   */\n    tag_125:\n        /* \"#utility.yul\":4317:4325   */\n      0x00\n        /* \"#utility.yul\":4367:4372   */\n      dup3\n        /* \"#utility.yul\":4361:4365   */\n      dup3\n        /* \"#utility.yul\":4357:4373   */\n      shl\n        /* \"#utility.yul\":4336:4373   */\n      swap1\n      pop\n        /* \"#utility.yul\":4273:4380   */\n      swap3\n      swap2\n      pop\n      pop\n      jump\t// out\n        /* \"#utility.yul\":4386:4779   */\n    tag_126:\n        /* \"#utility.yul\":4455:4461   */\n      0x00\n        /* \"#utility.yul\":4505:4506   */\n      0x08\n        /* \"#utility.yul\":4493:4503   */\n      dup4\n        /* \"#utility.yul\":4489:4507   */\n      mul\n        /* \"#utility.yul\":4528:4625   */\n      tag_186\n        /* \"#utility.yul\":4558:4624   */\n      0xffffffffffffffffffffffffffffffffffffffffffffffffffffffffffffffff\n        /* \"#utility.yul\":4547:4556   */\n      dup3\n        /* \"#utility.yul\":4528:4625   */\n      tag_125\n      jump\t// in\n    tag_186:\n        /* \"#utility.yul\":4646:4685   */\n      tag_187\n        /* \"#utility.yul\":4676:4684   */\n      dup7\n        /* \"#utility.yul\":4665:4674   */\n      dup4\n        /* \"#utility.yul\":4646:4685   */\n      tag_125\n      jump\t// in\n    tag_187:\n        /* \"#utility.yul\":4634:4685   */\n      swap6\n      pop\n        /* \"#utility.yul\":4718:4722   */\n      dup1\n        /* \"#utility.yul\":4714:4723   */\n      not\n        /* \"#utility.yul\":4707:4712   */\n      dup5\n        /* \"#utility.yul\":4703:4724   */\n      and\n        /* \"#utility.yul\":4694:4724   */\n      swap4\n      pop\n        /* \"#utility.yul\":4767:4771   */\n      dup1\n        /* \"#utility.yul\":4757:4765   */\n      dup7\n        /* \"#utility.yul\":4753:4772   */\n      and\n        /* \"#utility.yul\":4746:4751   */\n      dup5\n        /* \"#utility.yul\":4743:4773   */\n      or\n        /* \"#utility.yul\":4733:4773   */\n      swap3\n      pop\n        /* \"#utility.yul\":4462:4779   */\n      pop\n      pop\n        /* \"#utility.yul\":4386:4779   */\n      swap4\n      swap3\n      pop\n      pop\n      pop\n      jump\t// out\n        /* \"#utility.yul\":4785:4845   */\n    tag_127:\n        /* \"#utility.yul\":4813:4816   */\n      0x00\n        /* \"#utility.yul\":4834:4839   */\n      dup2\n        /* \"#utility.yul\":4827:4839   */\n      swap1\n      pop\n        /* \"#utility.yul\":4785:4845   */\n      swap2\n      swap1\n      pop\n      jump\t// out\n        /* \"#utility.yul\":4851:4993   */\n    tag_128:\n        /* \"#utility.yul\":4901:4910   */\n      0x00\n        /* \"#utility.yul\":4934:4987   */\n      tag_190\n        /* \"#utility.yul\":4952:4986   */\n      tag_191\n        /* \"#utility.yul\":4961:4985   */\n      tag_192\n        /* \"#utility.yul\":4979:4984   */\n      dup5\n        /* \"#utility.yul\":4961:4985   */\n      tag_111\n      jump\t// in\n    tag_192:\n        /* \"#utility.yul\":4952:4986   */\n      tag_127\n      jump\t// in\n    tag_191:\n        /* \"#utility.yul\":4934:4987   */\n      tag_111\n      jump\t// in\n    tag_190:\n        /* \"#utility.yul\":4921:4987   */\n      swap1\n      pop\n        /* \"#utility.yul\":4851:4993   */\n      swap2\n      swap1\n      pop\n      jump\t// out\n        /* \"#utility.yul\":4999:5074   */\n    tag_129:\n        /* \"#utility.yul\":5042:5045   */\n      0x00\n        /* \"#utility.yul\":5063:5068   */\n      dup2\n        /* \"#utility.yul\":5056:5068   */\n      swap1\n      pop\n        /* \"#utility.yul\":4999:5074   */\n      swap2\n      swap1\n      pop\n      jump\t// out\n        /* \"#utility.yul\":5080:5349   */\n    tag_130:\n        /* \"#utility.yul\":5190:5229   */\n      tag_195\n        /* \"#utility.yul\":5221:5228   */\n      dup4\n        /* \"#utility.yul\":5190:5229   */\n      tag_128\n      jump\t// in\n    tag_195:\n        /* \"#utility.yul\":5251:5342   */\n      tag_196\n        /* \"#utility.yul\":5300:5341   */\n      tag_197\n        /* \"#utility.yul\":5324:5340   */\n      dup3\n        /* \"#utility.yul\":5300:5341   */\n      tag_129\n      jump\t// in\n    tag_197:\n        /* \"#utility.yul\":5292:5298   */\n      dup5\n        /* \"#utility.yul\":5285:5289   */\n      dup5\n        /* \"#utility.yul\":5279:5290   */\n      sload\n        /* \"#utility.yul\":5251:5342   */\n      tag_126\n      jump\t// in\n    tag_196:\n        /* \"#utility.yul\":5245:5249   */\n      dup3\n        /* \"#utility.yul\":5238:5343   */\n      sstore\n        /* \"#utility.yul\":5156:5349   */\n      pop\n        /* \"#utility.yul\":5080:5349   */\n      pop\n      pop\n      pop\n      jump\t// out\n        /* \"#utility.yul\":5355:5428   */\n    tag_131:\n        /* \"#utility.yul\":5400:5403   */\n      0x00\n        /* \"#utility.yul\":5355:5428   */\n      swap1\n      jump\t// out\n        /* \"#utility.yul\":5434:5623   */\n    tag_132:\n        /* \"#utility.yul\":5511:5543   */\n      tag_200\n      tag_131\n      jump\t// in\n    tag_200:\n        /* \"#utility.yul\":5552:5617   */\n      tag_201\n        /* \"#utility.yul\":5610:5616   */\n      dup2\n        /* \"#utility.yul\":5602:5608   */\n      dup5\n        /* \"#utility.yul\":5596:5600   */\n      dup5\n        /* \"#utility.yul\":5552:5617   */\n      tag_130\n      jump\t// in\n    tag_201:\n        /* \"#utility.yul\":5487:5623   */\n      pop\n        /* \"#utility.yul\":5434:5623   */\n      pop\n      pop\n      jump\t// out\n        /* \"#utility.yul\":5629:5815   */\n    tag_133:\n        /* \"#utility.yul\":5689:5809   */\n    tag_203:\n        /* \"#utility.yul\":5706:5709   */\n      dup2\n        /* \"#utility.yul\":5699:5704   */\n      dup2\n        /* \"#utility.yul\":5696:5710   */\n      lt\n        /* \"#utility.yul\":5689:5809   */\n      iszero\n      tag_205\n      jumpi\n        /* \"#utility.yul\":5760:5799   */\n      tag_206\n        /* \"#utility.yul\":5797:5798   */\n      0x00\n        /* \"#utility.yul\":5790:5795   */\n      dup3\n        /* \"#utility.yul\":5760:5799   */\n      tag_132\n      jump\t// in\n    tag_206:\n        /* \"#utility.yul\":5733:5734   */\n      0x01\n        /* \"#utility.yul\":5726:5731   */\n      dup2\n        /* \"#utility.yul\":5722:5735   */\n      add\n        /* \"#utility.yul\":5713:5735   */\n      swap1\n      pop\n        /* \"#utility.yul\":5689:5809   */\n      jump(tag_203)\n    tag_205:\n        /* \"#utility.yul\":5629:5815   */\n      pop\n      pop\n      jump\t// out\n        /* \"#utility.yul\":5821:6362   */\n    tag_134:\n        /* \"#utility.yul\":5921:5923   */\n      0x1f\n        /* \"#utility.yul\":5916:5919   */\n      dup3\n        /* \"#utility.yul\":5913:5924   */\n      gt\n        /* \"#utility.yul\":5910:6355   */\n      iszero\n      tag_208\n      jumpi\n        /* \"#utility.yul\":5955:5992   */\n      tag_209\n        /* \"#utility.yul\":5986:5991   */\n      dup2\n        /* \"#utility.yul\":5955:5992   */\n      tag_123\n      jump\t// in\n    tag_209:\n        /* \"#utility.yul\":6038:6067   */\n      tag_210\n        /* \"#utility.yul\":6056:6066   */\n      dup5\n        /* \"#utility.yul\":6038:6067   */\n      tag_124\n      jump\t// in\n    tag_210:\n        /* \"#utility.yul\":6028:6036   */\n      dup2\n        /* \"#utility.yul\":6024:6068   */\n      add\n        /* \"#utility.yul\":6221:6223   */\n      0x20\n        /* \"#utility.yul\":6209:6219   */\n      dup6\n        /* \"#utility.yul\":6206:6224   */\n      lt\n        /* \"#utility.yul\":6203:6252   */\n      iszero\n      tag_211\n      jumpi\n        /* \"#utility.yul\":6242:6250   */\n      dup2\n        /* \"#utility.yul\":6227:6250   */\n      swap1\n      pop\n        /* \"#utility.yul\":6203:6252   */\n    tag_211:\n        /* \"#utility.yul\":6265:6345   */\n      tag_212\n        /* \"#utility.yul\":6321:6343   */\n      tag_213\n        /* \"#utility.yul\":6339:6342   */\n      dup6\n        /* \"#utility.yul\":6321:6343   */\n      tag_124\n      jump\t// in\n    tag_213:\n        /* \"#utility.yul\":6311:6319   */\n      dup4\n        /* \"#utility.yul\":6307:6344   */\n      add\n        /* \"#utility.yul\":6294:6305   */\n      dup3\n        /* \"#utility.yul\":6265:6345   */\n      tag_133\n      jump\t// in\n    tag_212:\n        /* \"#utility.yul\":5925:6355   */\n      pop\n      pop\n        /* \"#utility.yul\":5910:6355   */\n    tag_208:\n        /* \"#utility.yul\":5821:6362   */\n      pop\n      pop\n      pop\n      jump\t// out\n        /* \"#utility.yul\":6368:6485   */\n    tag_135:\n        /* \"#utility.yul\":6422:6430   */\n      0x00\n        /* \"#utility.yul\":6472:6477   */\n      dup3\n        /* \"#utility.yul\":6466:6470   */\n      dup3\n        /* \"#utility.yul\":6462:6478   */\n      shr\n        /* \"#utility.yul\":6441:6478   */\n      swap1\n      pop\n        /* \"#utility.yul\":6368:6485   */\n      swap3\n      swap2\n      pop\n      pop\n      jump\t// out\n        /* \"#utility.yul\":6491:6660   */\n    tag_136:\n        /* \"#utility.yul\":6535:6541   */\n      0x00\n        /* \"#utility.yul\":6568:6619   */\n      tag_216\n        /* \"#utility.yul\":6616:6617   */\n      0x00\n        /* \"#utility.yul\":6612:6618   */\n      not\n        /* \"#utility.yul\":6604:6609   */\n      dup5\n        /* \"#utility.yul\":6601:6602   */\n      0x08\n        /* \"#utility.yul\":6597:6610   */\n      mul\n        /* \"#utility.yul\":6568:6619   */\n      tag_135\n      jump\t// in\n    tag_216:\n        /* \"#utility.yul\":6564:6620   */\n      not\n        /* \"#utility.yul\":6649:6653   */\n      dup1\n        /* \"#utility.yul\":6643:6647   */\n      dup4\n        /* \"#utility.yul\":6639:6654   */\n      and\n        /* \"#utility.yul\":6629:6654   */\n      swap2\n      pop\n        /* \"#utility.yul\":6542:6660   */\n      pop\n        /* \"#utility.yul\":6491:6660   */\n      swap3\n      swap2\n      pop\n      pop\n      jump\t// out\n        /* \"#utility.yul\":6665:6960   */\n    tag_137:\n        /* \"#utility.yul\":6741:6745   */\n      0x00\n        /* \"#utility.yul\":6887:6916   */\n      tag_218\n        /* \"#utility.yul\":6912:6915   */\n      dup4\n        /* \"#utility.yul\":6906:6910   */\n      dup4\n        /* \"#utility.yul\":6887:6916   */\n      tag_136\n      jump\t// in\n    tag_218:\n        /* \"#utility.yul\":6879:6916   */\n      swap2\n      pop\n        /* \"#utility.yul\":6949:6952   */\n      dup3\n        /* \"#utility.yul\":6946:6947   */\n      0x02\n        /* \"#utility.yul\":6942:6953   */\n      mul\n        /* \"#utility.yul\":6936:6940   */\n      dup3\n        /* \"#utility.yul\":6933:6954   */\n      or\n        /* \"#utility.yul\":6925:6954   */\n      swap1\n      pop\n        /* \"#utility.yul\":6665:6960   */\n      swap3\n      swap2\n      pop\n      pop\n      jump\t// out\n        /* \"#utility.yul\":6965:8355   */\n    tag_76:\n        /* \"#utility.yul\":7080:7116   */\n      tag_220\n        /* \"#utility.yul\":7112:7115   */\n      dup3\n        /* \"#utility.yul\":7080:7116   */\n      tag_117\n      jump\t// in\n    tag_220:\n        /* \"#utility.yul\":7181:7199   */\n      0xffffffffffffffff\n        /* \"#utility.yul\":7173:7179   */\n      dup2\n        /* \"#utility.yul\":7170:7200   */\n      gt\n        /* \"#utility.yul\":7167:7223   */\n      iszero\n      tag_221\n      jumpi\n        /* \"#utility.yul\":7203:7221   */\n      tag_222\n      tag_55\n      jump\t// in\n    tag_222:\n        /* \"#utility.yul\":7167:7223   */\n    tag_221:\n        /* \"#utility.yul\":7247:7285   */\n      tag_223\n        /* \"#utility.yul\":7279:7283   */\n      dup3\n        /* \"#utility.yul\":7273:7284   */\n      sload\n        /* \"#utility.yul\":7247:7285   */\n      tag_47\n      jump\t// in\n    tag_223:\n        /* \"#utility.yul\":7332:7398   */\n      tag_224\n        /* \"#utility.yul\":7391:7397   */\n      dup3\n        /* \"#utility.yul\":7383:7389   */\n      dup3\n        /* \"#utility.yul\":7377:7381   */\n      dup6\n        /* \"#utility.yul\":7332:7398   */\n      tag_134\n      jump\t// in\n    tag_224:\n        /* \"#utility.yul\":7425:7426   */\n      0x00\n        /* \"#utility.yul\":7449:7453   */\n      0x20\n        /* \"#utility.yul\":7436:7453   */\n      swap1\n      pop\n        /* \"#utility.yul\":7481:7483   */\n      0x1f\n        /* \"#utility.yul\":7473:7479   */\n      dup4\n        /* \"#utility.yul\":7470:7484   */\n      gt\n        /* \"#utility.yul\":7498:7499   */\n      0x01\n        /* \"#utility.yul\":7493:8110   */\n      dup2\n      eq\n      tag_226\n      jumpi\n        /* \"#utility.yul\":8154:8155   */\n      0x00\n        /* \"#utility.yul\":8171:8177   */\n      dup5\n        /* \"#utility.yul\":8168:8245   */\n      iszero\n      tag_227\n      jumpi\n        /* \"#utility.yul\":8220:8229   */\n      dup3\n        /* \"#utility.yul\":8215:8218   */\n      dup8\n        /* \"#utility.yul\":8211:8230   */\n      add\n        /* \"#utility.yul\":8205:8231   */\n      mload\n        /* \"#utility.yul\":8196:8231   */\n      swap1\n      pop\n        /* \"#utility.yul\":8168:8245   */\n    tag_227:\n        /* \"#utility.yul\":8271:8338   */\n      tag_228\n        /* \"#utility.yul\":8331:8337   */\n      dup6\n        /* \"#utility.yul\":8324:8329   */\n      dup3\n        /* \"#utility.yul\":8271:8338   */\n      tag_137\n      jump\t// in\n    tag_228:\n        /* \"#utility.yul\":8265:8269   */\n      dup7\n        /* \"#utility.yul\":8258:8339   */\n      sstore\n        /* \"#utility.yul\":8127:8349   */\n      pop\n        /* \"#utility.yul\":7463:8349   */\n      jump(tag_225)\n        /* \"#utility.yul\":7493:8110   */\n    tag_226:\n        /* \"#utility.yul\":7545:7549   */\n      0x1f\n        /* \"#utility.yul\":7541:7550   */\n      not\n        /* \"#utility.yul\":7533:7539   */\n      dup5\n        /* \"#utility.yul\":7529:7551   */\n      and\n        /* \"#utility.yul\":7579:7615   */\n      tag_229\n        /* \"#utility.yul\":7610:7614   */\n      dup7\n        /* \"#utility.yul\":7579:7615   */\n      tag_123\n      jump\t// in\n    tag_229:\n        /* \"#utility.yul\":7637:7638   */\n      0x00\n        /* \"#utility.yul\":7651:7859   */\n    tag_230:\n        /* \"#utility.yul\":7665:7672   */\n      dup3\n        /* \"#utility.yul\":7662:7663   */\n      dup2\n        /* \"#utility.yul\":7659:7673   */\n      lt\n        /* \"#utility.yul\":7651:7859   */\n      iszero\n      tag_232\n      jumpi\n        /* \"#utility.yul\":7744:7753   */\n      dup5\n        /* \"#utility.yul\":7739:7742   */\n      dup10\n        /* \"#utility.yul\":7735:7754   */\n      add\n        /* \"#utility.yul\":7729:7755   */\n      mload\n        /* \"#utility.yul\":7721:7727   */\n      dup3\n        /* \"#utility.yul\":7714:7756   */\n      sstore\n        /* \"#utility.yul\":7795:7796   */\n      0x01\n        /* \"#utility.yul\":7787:7793   */\n      dup3\n        /* \"#utility.yul\":7783:7797   */\n      add\n        /* \"#utility.yul\":7773:7797   */\n      swap2\n      pop\n        /* \"#utility.yul\":7842:7844   */\n      0x20\n        /* \"#utility.yul\":7831:7840   */\n      dup6\n        /* \"#utility.yul\":7827:7845   */\n      add\n        /* \"#utility.yul\":7814:7845   */\n      swap5\n      pop\n        /* \"#utility.yul\":7688:7692   */\n      0x20\n        /* \"#utility.yul\":7685:7686   */\n      dup2\n        /* \"#utility.yul\":7681:7693   */\n      add\n        /* \"#utility.yul\":7676:7693   */\n      swap1\n      pop\n        /* \"#utility.yul\":7651:7859   */\n      jump(tag_230)\n    tag_232:\n        /* \"#utility.yul\":7887:7893   */\n      dup7\n        /* \"#utility.yul\":7878:7885   */\n      dup4\n        /* \"#utility.yul\":7875:7894   */\n      lt\n        /* \"#utility.yul\":7872:8051   */\n      iszero\n      tag_233\n      jumpi\n        /* \"#utility.yul\":7945:7954   */\n      dup5\n        /* \"#utility.yul\":7940:7943   */\n      dup10\n        /* \"#utility.yul\":7936:7955   */\n      add\n        /* \"#utility.yul\":7930:7956   */\n      mload\n        /* \"#utility.yul\":7988:8036   */\n      tag_234\n        /* \"#utility.yul\":8030:8034   */\n      0x1f\n        /* \"#utility.yul\":8022:8028   */\n      dup10\n        /* \"#utility.yul\":8018:8035   */\n      and\n        /* \"#utility.yul\":8007:8016   */\n      dup3\n        /* \"#utility.yul\":7988:8036   */\n      tag_136\n      jump\t// in\n    tag_234:\n        /* \"#utility.yul\":7980:7986   */\n      dup4\n        /* \"#utility.yul\":7973:8037   */\n      sstore\n        /* \"#utility.yul\":7895:8051   */\n      pop\n        /* \"#utility.yul\":7872:8051   */\n    tag_233:\n        /* \"#utility.yul\":8097:8098   */\n      0x01\n        /* \"#utility.yul\":8093:8094   */\n      0x02\n        /* \"#utility.yul\":8085:8091   */\n      dup9\n        /* \"#utility.yul\":8081:8095   */\n      mul\n        /* \"#utility.yul\":8077:8099   */\n      add\n        /* \"#utility.yul\":8071:8075   */\n      dup9\n        /* \"#utility.yul\":8064:8100   */\n      sstore\n        /* \"#utility.yul\":7500:8110   */\n      pop\n      pop\n      pop\n        /* \"#utility.yul\":7463:8349   */\n    tag_225:\n      pop\n        /* \"#utility.yul\":7055:8355   */\n      pop\n      pop\n      pop\n        /* \"#utility.yul\":6965:8355   */\n      pop\n      pop\n      jump\t// out\n\n    auxdata: 0xa264697066735822122003aff631dc805373ad67d52406290293f8617e924963feddcf59255f86e91aea64736f6c63430008120033\n}\n",
				"bytecode": {
					"linkReferences": {},
					"object": "608060405234801561001057600080fd5b50610d46806100206000396000f3fe608060405234801561001057600080fd5b50600436106100885760003560e01c8063712f46021161005b578063712f46021461011557806394f867e9146101335780639a8cea551461013d5780639c254f3e1461015b57610088565b8063212b058f1461008d57806331ca8923146100975780633f4263ef146100c75780634a90be57146100f7575b600080fd5b610095610165565b005b6100b160048036038101906100ac9190610897565b610189565b6040516100be91906108dd565b60405180910390f35b6100e160048036038101906100dc9190610897565b6101ad565b6040516100ee9190610907565b60405180910390f35b6100ff6101d1565b60405161010c9190610907565b60405180910390f35b61011d6101dd565b60405161012a91906109b2565b60405180910390f35b61013b61026b565b005b610145610398565b6040516101529190610907565b60405180910390f35b6101636103bb565b005b60426000600181600181540180825580915050039060005260206000200181905550565b6002818154811061019957600080fd5b906000526020600020016000915090505481565b600081815481106101bd57600080fd5b906000526020600020016000915090505481565b60008080549050905090565b600180546101ea90610a03565b80601f016020809104026020016040519081016040528092919081815260200182805461021690610a03565b80156102635780601f1061023857610100808354040283529160200191610263565b820191906000526020600020905b81548152906001019060200180831161024657829003601f168201915b505050505081565b600367ffffffffffffffff81111561028657610285610a34565b5b6040519080825280602002602001820160405280156102b45781602001602082028036833780820191505090505b50600290805190602001906102ca9291906107f2565b507f1234567890abcdef1234567890abcdef1234567890abcdef1234567890abcdef600260008154811061030157610300610a63565b5b90600052602060002001819055507fabcdef1234567890abcdef1234567890abcdef1234567890abcdef1234567890600260018154811061034557610344610a63565b5b90600052602060002001819055507f7890abcdef1234567890abcdef1234567890abcdef1234567890abcdef1234566002808154811061038857610387610a63565b5b9060005260206000200181905550565b600080600181600181540180825580915050039060005260206000200154905090565b600267ffffffffffffffff8111156103d6576103d5610a34565b5b6040519080825280601f01601f1916602001820160405280156104085781602001600182028036833780820191505090505b50600190816104179190610c3e565b5060016012908080548061042a90610a03565b80601f81036104495783600052602060002060ff1984168155603f9350505b5060028201835560018101925050506001900381546001161561047b5790600052602060002090602091828204019190065b909160f81b90919091601f036101000a81548160ff021916907f0100000000000000000000000000000000000000000000000000000000000000840402179055506001603490808054806104ce90610a03565b80601f81036104ed5783600052602060002060ff1984168155603f9350505b5060028201835560018101925050506001900381546001161561051f5790600052602060002090602091828204019190065b909160f81b90919091601f036101000a81548160ff021916907f01000000000000000000000000000000000000000000000000000000000000008404021790555060016056908080548061057290610a03565b80601f81036105915783600052602060002060ff1984168155603f9350505b506002820183556001810192505050600190038154600116156105c35790600052602060002090602091828204019190065b909160f81b90919091601f036101000a81548160ff021916907f01000000000000000000000000000000000000000000000000000000000000008404021790555060016078908080548061061690610a03565b80601f81036106355783600052602060002060ff1984168155603f9350505b506002820183556001810192505050600190038154600116156106675790600052602060002090602091828204019190065b909160f81b90919091601f036101000a81548160ff021916907f0100000000000000000000000000000000000000000000000000000000000000840402179055506001609090808054806106ba90610a03565b80601f81036106d95783600052602060002060ff1984168155603f9350505b5060028201835560018101925050506001900381546001161561070b5790600052602060002090602091828204019190065b909160f81b90919091601f036101000a81548160ff021916907f01000000000000000000000000000000000000000000000000000000000000008404021790555060016091908080548061075e90610a03565b80601f810361077d5783600052602060002060ff1984168155603f9350505b506002820183556001810192505050600190038154600116156107af5790600052602060002090602091828204019190065b909160f81b90919091601f036101000a81548160ff021916907f010000000000000000000000000000000000000000000000000000000000000084040217905550565b82805482825590600052602060002090810192821561082e579160200282015b8281111561082d578251825591602001919060010190610812565b5b50905061083b919061083f565b5090565b5b80821115610858576000816000905550600101610840565b5090565b600080fd5b6000819050919050565b61087481610861565b811461087f57600080fd5b50565b6000813590506108918161086b565b92915050565b6000602082840312156108ad576108ac61085c565b5b60006108bb84828501610882565b91505092915050565b6000819050919050565b6108d7816108c4565b82525050565b60006020820190506108f260008301846108ce565b92915050565b61090181610861565b82525050565b600060208201905061091c60008301846108f8565b92915050565b600081519050919050565b600082825260208201905092915050565b60005b8381101561095c578082015181840152602081019050610941565b60008484015250505050565b6000601f19601f8301169050919050565b600061098482610922565b61098e818561092d565b935061099e81856020860161093e565b6109a781610968565b840191505092915050565b600060208201905081810360008301526109cc8184610979565b905092915050565b7f4e487b7100000000000000000000000000000000000000000000000000000000600052602260045260246000fd5b60006002820490506001821680610a1b57607f821691505b602082108103610a2e57610a2d6109d4565b5b50919050565b7f4e487b7100000000000000000000000000000000000000000000000000000000600052604160045260246000fd5b7f4e487b7100000000000000000000000000000000000000000000000000000000600052603260045260246000fd5b60008190508160005260206000209050919050565b60006020601f8301049050919050565b600082821b905092915050565b600060088302610af47fffffffffffffffffffffffffffffffffffffffffffffffffffffffffffffffff82610ab7565b610afe8683610ab7565b95508019841693508086168417925050509392505050565b6000819050919050565b6000610b3b610b36610b3184610861565b610b16565b610861565b9050919050565b6000819050919050565b610b5583610b20565b610b69610b6182610b42565b848454610ac4565b825550505050565b600090565b610b7e610b71565b610b89818484610b4c565b505050565b5b81811015610bad57610ba2600082610b76565b600181019050610b8f565b5050565b601f821115610bf257610bc381610a92565b610bcc84610aa7565b81016020851015610bdb578190505b610bef610be785610aa7565b830182610b8e565b50505b505050565b600082821c905092915050565b6000610c1560001984600802610bf7565b1980831691505092915050565b6000610c2e8383610c04565b9150826002028217905092915050565b610c4782610922565b67ffffffffffffffff811115610c6057610c5f610a34565b5b610c6a8254610a03565b610c75828285610bb1565b600060209050601f831160018114610ca85760008415610c96578287015190505b610ca08582610c22565b865550610d08565b601f198416610cb686610a92565b60005b82811015610cde57848901518255600182019150602085019450602081019050610cb9565b86831015610cfb5784890151610cf7601f891682610c04565b8355505b6001600288020188555050505b50505050505056fea264697066735822122003aff631dc805373ad67d52406290293f8617e924963feddcf59255f86e91aea64736f6c63430008120033",
					"opcodes": "PUSH1 0x80 PUSH1 0x40 MSTORE CALLVALUE DUP1 ISZERO PUSH2 0x10 JUMPI PUSH1 0x0 DUP1 REVERT JUMPDEST POP PUSH2 0xD46 DUP1 PUSH2 0x20 PUSH1 0x0 CODECOPY PUSH1 0x0 RETURN INVALID PUSH1 0x80 PUSH1 0x40 MSTORE CALLVALUE DUP1 ISZERO PUSH2 0x10 JUMPI PUSH1 0x0 DUP1 REVERT JUMPDEST POP PUSH1 0x4 CALLDATASIZE LT PUSH2 0x88 JUMPI PUSH1 0x0 CALLDATALOAD PUSH1 0xE0 SHR DUP1 PUSH4 0x712F4602 GT PUSH2 0x5B JUMPI DUP1 PUSH4 0x712F4602 EQ PUSH2 0x115 JUMPI DUP1 PUSH4 0x94F867E9 EQ PUSH2 0x133 JUMPI DUP1 PUSH4 0x9A8CEA55 EQ PUSH2 0x13D JUMPI DUP1 PUSH4 0x9C254F3E EQ PUSH2 0x15B JUMPI PUSH2 0x88 JUMP JUMPDEST DUP1 PUSH4 0x212B058F EQ PUSH2 0x8D JUMPI DUP1 PUSH4 0x31CA8923 EQ PUSH2 0x97 JUMPI DUP1 PUSH4 0x3F4263EF EQ PUSH2 0xC7 JUMPI DUP1 PUSH4 0x4A90BE57 EQ PUSH2 0xF7 JUMPI JUMPDEST PUSH1 0x0 DUP1 REVERT JUMPDEST PUSH2 0x95 PUSH2 0x165 JUMP JUMPDEST STOP JUMPDEST PUSH2 0xB1 PUSH1 0x4 DUP1 CALLDATASIZE SUB DUP2 ADD SWAP1 PUSH2 0xAC SWAP2 SWAP1 PUSH2 0x897 JUMP JUMPDEST PUSH2 0x189 JUMP JUMPDEST PUSH1 0x40 MLOAD PUSH2 0xBE SWAP2 SWAP1 PUSH2 0x8DD JUMP JUMPDEST PUSH1 0x40 MLOAD DUP1 SWAP2 SUB SWAP1 RETURN JUMPDEST PUSH2 0xE1 PUSH1 0x4 DUP1 CALLDATASIZE SUB DUP2 ADD SWAP1 PUSH2 0xDC SWAP2 SWAP1 PUSH2 0x897 JUMP JUMPDEST PUSH2 0x1AD JUMP JUMPDEST PUSH1 0x40 MLOAD PUSH2 0xEE SWAP2 SWAP1 PUSH2 0x907 JUMP JUMPDEST PUSH1 0x40 MLOAD DUP1 SWAP2 SUB SWAP1 RETURN JUMPDEST PUSH2 0xFF PUSH2 0x1D1 JUMP JUMPDEST PUSH1 0x40 MLOAD PUSH2 0x10C SWAP2 SWAP1 PUSH2 0x907 JUMP JUMPDEST PUSH1 0x40 MLOAD DUP1 SWAP2 SUB SWAP1 RETURN JUMPDEST PUSH2 0x11D PUSH2 0x1DD JUMP JUMPDEST PUSH1 0x40 MLOAD PUSH2 0x12A SWAP2 SWAP1 PUSH2 0x9B2 JUMP JUMPDEST PUSH1 0x40 MLOAD DUP1 SWAP2 SUB SWAP1 RETURN JUMPDEST PUSH2 0x13B PUSH2 0x26B JUMP JUMPDEST STOP JUMPDEST PUSH2 0x145 PUSH2 0x398 JUMP JUMPDEST PUSH1 0x40 MLOAD PUSH2 0x152 SWAP2 SWAP1 PUSH2 0x907 JUMP JUMPDEST PUSH1 0x40 MLOAD DUP1 SWAP2 SUB SWAP1 RETURN JUMPDEST PUSH2 0x163 PUSH2 0x3BB JUMP JUMPDEST STOP JUMPDEST PUSH1 0x42 PUSH1 0x0 PUSH1 0x1 DUP2 PUSH1 0x1 DUP2 SLOAD ADD DUP1 DUP3 SSTORE DUP1 SWAP2 POP POP SUB SWAP1 PUSH1 0x0 MSTORE PUSH1 0x20 PUSH1 0x0 KECCAK256 ADD DUP2 SWAP1 SSTORE POP JUMP JUMPDEST PUSH1 0x2 DUP2 DUP2 SLOAD DUP2 LT PUSH2 0x199 JUMPI PUSH1 0x0 DUP1 REVERT JUMPDEST SWAP1 PUSH1 0x0 MSTORE PUSH1 0x20 PUSH1 0x0 KECCAK256 ADD PUSH1 0x0 SWAP2 POP SWAP1 POP SLOAD DUP2 JUMP JUMPDEST PUSH1 0x0 DUP2 DUP2 SLOAD DUP2 LT PUSH2 0x1BD JUMPI PUSH1 0x0 DUP1 REVERT JUMPDEST SWAP1 PUSH1 0x0 MSTORE PUSH1 0x20 PUSH1 0x0 KECCAK256 ADD PUSH1 0x0 SWAP2 POP SWAP1 POP SLOAD DUP2 JUMP JUMPDEST PUSH1 0x0 DUP1 DUP1 SLOAD SWAP1 POP SWAP1 POP SWAP1 JUMP JUMPDEST PUSH1 0x1 DUP1 SLOAD PUSH2 0x1EA SWAP1 PUSH2 0xA03 JUMP JUMPDEST DUP1 PUSH1 0x1F ADD PUSH1 0x20 DUP1 SWAP2 DIV MUL PUSH1 0x20 ADD PUSH1 0x40 MLOAD SWAP1 DUP2 ADD PUSH1 0x40 MSTORE DUP1 SWAP3 SWAP2 SWAP1 DUP2 DUP2 MSTORE PUSH1 0x20 ADD DUP3 DUP1 SLOAD PUSH2 0x216 SWAP1 PUSH2 0xA03 JUMP JUMPDEST DUP1 ISZERO PUSH2 0x263 JUMPI DUP1 PUSH1 0x1F LT PUSH2 0x238 JUMPI PUSH2 0x100 DUP1 DUP4 SLOAD DIV MUL DUP4 MSTORE SWAP2 PUSH1 0x20 ADD SWAP2 PUSH2 0x263 JUMP JUMPDEST DUP3 ADD SWAP2 SWAP1 PUSH1 0x0 MSTORE PUSH1 0x20 PUSH1 0x0 KECCAK256 SWAP1 JUMPDEST DUP2 SLOAD DUP2 MSTORE SWAP1 PUSH1 0x1 ADD SWAP1 PUSH1 0x20 ADD DUP1 DUP4 GT PUSH2 0x246 JUMPI DUP3 SWAP1 SUB PUSH1 0x1F AND DUP3 ADD SWAP2 JUMPDEST POP POP POP POP POP DUP2 JUMP JUMPDEST PUSH1 0x3 PUSH8 0xFFFFFFFFFFFFFFFF DUP2 GT ISZERO PUSH2 0x286 JUMPI PUSH2 0x285 PUSH2 0xA34 JUMP JUMPDEST JUMPDEST PUSH1 0x40 MLOAD SWAP1 DUP1 DUP3 MSTORE DUP1 PUSH1 0x20 MUL PUSH1 0x20 ADD DUP3 ADD PUSH1 0x40 MSTORE DUP1 ISZERO PUSH2 0x2B4 JUMPI DUP2 PUSH1 0x20 ADD PUSH1 0x20 DUP3 MUL DUP1 CALLDATASIZE DUP4 CALLDATACOPY DUP1 DUP3 ADD SWAP2 POP POP SWAP1 POP JUMPDEST POP PUSH1 0x2 SWAP1 DUP1 MLOAD SWAP1 PUSH1 0x20 ADD SWAP1 PUSH2 0x2CA SWAP3 SWAP2 SWAP1 PUSH2 0x7F2 JUMP JUMPDEST POP PUSH32 0x1234567890ABCDEF1234567890ABCDEF1234567890ABCDEF1234567890ABCDEF PUSH1 0x2 PUSH1 0x0 DUP2 SLOAD DUP2 LT PUSH2 0x301 JUMPI PUSH2 0x300 PUSH2 0xA63 JUMP JUMPDEST JUMPDEST SWAP1 PUSH1 0x0 MSTORE PUSH1 0x20 PUSH1 0x0 KECCAK256 ADD DUP2 SWAP1 SSTORE POP PUSH32 0xABCDEF1234567890ABCDEF1234567890ABCDEF1234567890ABCDEF1234567890 PUSH1 0x2 PUSH1 0x1 DUP2 SLOAD DUP2 LT PUSH2 0x345 JUMPI PUSH2 0x344 PUSH2 0xA63 JUMP JUMPDEST JUMPDEST SWAP1 PUSH1 0x0 MSTORE PUSH1 0x20 PUSH1 0x0 KECCAK256 ADD DUP2 SWAP1 SSTORE POP PUSH32 0x7890ABCDEF1234567890ABCDEF1234567890ABCDEF1234567890ABCDEF123456 PUSH1 0x2 DUP1 DUP2 SLOAD DUP2 LT PUSH2 0x388 JUMPI PUSH2 0x387 PUSH2 0xA63 JUMP JUMPDEST JUMPDEST SWAP1 PUSH1 0x0 MSTORE PUSH1 0x20 PUSH1 0x0 KECCAK256 ADD DUP2 SWAP1 SSTORE POP JUMP JUMPDEST PUSH1 0x0 DUP1 PUSH1 0x1 DUP2 PUSH1 0x1 DUP2 SLOAD ADD DUP1 DUP3 SSTORE DUP1 SWAP2 POP POP SUB SWAP1 PUSH1 0x0 MSTORE PUSH1 0x20 PUSH1 0x0 KECCAK256 ADD SLOAD SWAP1 POP SWAP1 JUMP JUMPDEST PUSH1 0x2 PUSH8 0xFFFFFFFFFFFFFFFF DUP2 GT ISZERO PUSH2 0x3D6 JUMPI PUSH2 0x3D5 PUSH2 0xA34 JUMP JUMPDEST JUMPDEST PUSH1 0x40 MLOAD SWAP1 DUP1 DUP3 MSTORE DUP1 PUSH1 0x1F ADD PUSH1 0x1F NOT AND PUSH1 0x20 ADD DUP3 ADD PUSH1 0x40 MSTORE DUP1 ISZERO PUSH2 0x408 JUMPI DUP2 PUSH1 0x20 ADD PUSH1 0x1 DUP3 MUL DUP1 CALLDATASIZE DUP4 CALLDATACOPY DUP1 DUP3 ADD SWAP2 POP POP SWAP1 POP JUMPDEST POP PUSH1 0x1 SWAP1 DUP2 PUSH2 0x417 SWAP2 SWAP1 PUSH2 0xC3E JUMP JUMPDEST POP PUSH1 0x1 PUSH1 0x12 SWAP1 DUP1 DUP1 SLOAD DUP1 PUSH2 0x42A SWAP1 PUSH2 0xA03 JUMP JUMPDEST DUP1 PUSH1 0x1F DUP2 SUB PUSH2 0x449 JUMPI DUP4 PUSH1 0x0 MSTORE PUSH1 0x20 PUSH1 0x0 KECCAK256 PUSH1 0xFF NOT DUP5 AND DUP2 SSTORE PUSH1 0x3F SWAP4 POP POP JUMPDEST POP PUSH1 0x2 DUP3 ADD DUP4 SSTORE PUSH1 0x1 DUP2 ADD SWAP3 POP POP POP PUSH1 0x1 SWAP1 SUB DUP2 SLOAD PUSH1 0x1 AND ISZERO PUSH2 0x47B JUMPI SWAP1 PUSH1 0x0 MSTORE PUSH1 0x20 PUSH1 0x0 KECCAK256 SWAP1 PUSH1 0x20 SWAP2 DUP3 DUP3 DIV ADD SWAP2 SWAP1 MOD JUMPDEST SWAP1 SWAP2 PUSH1 0xF8 SHL SWAP1 SWAP2 SWAP1 SWAP2 PUSH1 0x1F SUB PUSH2 0x100 EXP DUP2 SLOAD DUP2 PUSH1 0xFF MUL NOT AND SWAP1 PUSH32 0x100000000000000000000000000000000000000000000000000000000000000 DUP5 DIV MUL OR SWAP1 SSTORE POP PUSH1 0x1 PUSH1 0x34 SWAP1 DUP1 DUP1 SLOAD DUP1 PUSH2 0x4CE SWAP1 PUSH2 0xA03 JUMP JUMPDEST DUP1 PUSH1 0x1F DUP2 SUB PUSH2 0x4ED JUMPI DUP4 PUSH1 0x0 MSTORE PUSH1 0x20 PUSH1 0x0 KECCAK256 PUSH1 0xFF NOT DUP5 AND DUP2 SSTORE PUSH1 0x3F SWAP4 POP POP JUMPDEST POP PUSH1 0x2 DUP3 ADD DUP4 SSTORE PUSH1 0x1 DUP2 ADD SWAP3 POP POP POP PUSH1 0x1 SWAP1 SUB DUP2 SLOAD PUSH1 0x1 AND ISZERO PUSH2 0x51F JUMPI SWAP1 PUSH1 0x0 MSTORE PUSH1 0x20 PUSH1 0x0 KECCAK256 SWAP1 PUSH1 0x20 SWAP2 DUP3 DUP3 DIV ADD SWAP2 SWAP1 MOD JUMPDEST SWAP1 SWAP2 PUSH1 0xF8 SHL SWAP1 SWAP2 SWAP1 SWAP2 PUSH1 0x1F SUB PUSH2 0x100 EXP DUP2 SLOAD DUP2 PUSH1 0xFF MUL NOT AND SWAP1 PUSH32 0x100000000000000000000000000000000000000000000000000000000000000 DUP5 DIV MUL OR SWAP1 SSTORE POP PUSH1 0x1 PUSH1 0x56 SWAP1 DUP1 DUP1 SLOAD DUP1 PUSH2 0x572 SWAP1 PUSH2 0xA03 JUMP JUMPDEST DUP1 PUSH1 0x1F DUP2 SUB PUSH2 0x591 JUMPI DUP4 PUSH1 0x0 MSTORE PUSH1 0x20 PUSH1 0x0 KECCAK256 PUSH1 0xFF NOT DUP5 AND DUP2 SSTORE PUSH1 0x3F SWAP4 POP POP JUMPDEST POP PUSH1 0x2 DUP3 ADD DUP4 SSTORE PUSH1 0x1 DUP2 ADD SWAP3 POP POP POP PUSH1 0x1 SWAP1 SUB DUP2 SLOAD PUSH1 0x1 AND ISZERO PUSH2 0x5C3 JUMPI SWAP1 PUSH1 0x0 MSTORE PUSH1 0x20 PUSH1 0x0 KECCAK256 SWAP1 PUSH1 0x20 SWAP2 DUP3 DUP3 DIV ADD SWAP2 SWAP1 MOD JUMPDEST SWAP1 SWAP2 PUSH1 0xF8 SHL SWAP1 SWAP2 SWAP1 SWAP2 PUSH1 0x1F SUB PUSH2 0x100 EXP DUP2 SLOAD DUP2 PUSH1 0xFF MUL NOT AND SWAP1 PUSH32 0x100000000000000000000000000000000000000000000000000000000000000 DUP5 DIV MUL OR SWAP1 SSTORE POP PUSH1 0x1 PUSH1 0x78 SWAP1 DUP1 DUP1 SLOAD DUP1 PUSH2 0x616 SWAP1 PUSH2 0xA03 JUMP JUMPDEST DUP1 PUSH1 0x1F DUP2 SUB PUSH2 0x635 JUMPI DUP4 PUSH1 0x0 MSTORE PUSH1 0x20 PUSH1 0x0 KECCAK256 PUSH1 0xFF NOT DUP5 AND DUP2 SSTORE PUSH1 0x3F SWAP4 POP POP JUMPDEST POP PUSH1 0x2 DUP3 ADD DUP4 SSTORE PUSH1 0x1 DUP2 ADD SWAP3 POP POP POP PUSH1 0x1 SWAP1 SUB DUP2 SLOAD PUSH1 0x1 AND ISZERO PUSH2 0x667 JUMPI SWAP1 PUSH1 0x0 MSTORE PUSH1 0x20 PUSH1 0x0 KECCAK256 SWAP1 PUSH1 0x20 SWAP2 DUP3 DUP3 DIV ADD SWAP2 SWAP1 MOD JUMPDEST SWAP1 SWAP2 PUSH1 0xF8 SHL SWAP1 SWAP2 SWAP1 SWAP2 PUSH1 0x1F SUB PUSH2 0x100 EXP DUP2 SLOAD DUP2 PUSH1 0xFF MUL NOT AND SWAP1 PUSH32 0x100000000000000000000000000000000000000000000000000000000000000 DUP5 DIV MUL OR SWAP1 SSTORE POP PUSH1 0x1 PUSH1 0x90 SWAP1 DUP1 DUP1 SLOAD DUP1 PUSH2 0x6BA SWAP1 PUSH2 0xA03 JUMP JUMPDEST DUP1 PUSH1 0x1F DUP2 SUB PUSH2 0x6D9 JUMPI DUP4 PUSH1 0x0 MSTORE PUSH1 0x20 PUSH1 0x0 KECCAK256 PUSH1 0xFF NOT DUP5 AND DUP2 SSTORE PUSH1 0x3F SWAP4 POP POP JUMPDEST POP PUSH1 0x2 DUP3 ADD DUP4 SSTORE PUSH1 0x1 DUP2 ADD SWAP3 POP POP POP PUSH1 0x1 SWAP1 SUB DUP2 SLOAD PUSH1 0x1 AND ISZERO PUSH2 0x70B JUMPI SWAP1 PUSH1 0x0 MSTORE PUSH1 0x20 PUSH1 0x0 KECCAK256 SWAP1 PUSH1 0x20 SWAP2 DUP3 DUP3 DIV ADD SWAP2 SWAP1 MOD JUMPDEST SWAP1 SWAP2 PUSH1 0xF8 SHL SWAP1 SWAP2 SWAP1 SWAP2 PUSH1 0x1F SUB PUSH2 0x100 EXP DUP2 SLOAD DUP2 PUSH1 0xFF MUL NOT AND SWAP1 PUSH32 0x100000000000000000000000000000000000000000000000000000000000000 DUP5 DIV MUL OR SWAP1 SSTORE POP PUSH1 0x1 PUSH1 0x91 SWAP1 DUP1 DUP1 SLOAD DUP1 PUSH2 0x75E SWAP1 PUSH2 0xA03 JUMP JUMPDEST DUP1 PUSH1 0x1F DUP2 SUB PUSH2 0x77D JUMPI DUP4 PUSH1 0x0 MSTORE PUSH1 0x20 PUSH1 0x0 KECCAK256 PUSH1 0xFF NOT DUP5 AND DUP2 SSTORE PUSH1 0x3F SWAP4 POP POP JUMPDEST POP PUSH1 0x2 DUP3 ADD DUP4 SSTORE PUSH1 0x1 DUP2 ADD SWAP3 POP POP POP PUSH1 0x1 SWAP1 SUB DUP2 SLOAD PUSH1 0x1 AND ISZERO PUSH2 0x7AF JUMPI SWAP1 PUSH1 0x0 MSTORE PUSH1 0x20 PUSH1 0x0 KECCAK256 SWAP1 PUSH1 0x20 SWAP2 DUP3 DUP3 DIV ADD SWAP2 SWAP1 MOD JUMPDEST SWAP1 SWAP2 PUSH1 0xF8 SHL SWAP1 SWAP2 SWAP1 SWAP2 PUSH1 0x1F SUB PUSH2 0x100 EXP DUP2 SLOAD DUP2 PUSH1 0xFF MUL NOT AND SWAP1 PUSH32 0x100000000000000000000000000000000000000000000000000000000000000 DUP5 DIV MUL OR SWAP1 SSTORE POP JUMP JUMPDEST DUP3 DUP1 SLOAD DUP3 DUP3 SSTORE SWAP1 PUSH1 0x0 MSTORE PUSH1 0x20 PUSH1 0x0 KECCAK256 SWAP1 DUP2 ADD SWAP3 DUP3 ISZERO PUSH2 0x82E JUMPI SWAP2 PUSH1 0x20 MUL DUP3 ADD JUMPDEST DUP3 DUP2 GT ISZERO PUSH2 0x82D JUMPI DUP3 MLOAD DUP3 SSTORE SWAP2 PUSH1 0x20 ADD SWAP2 SWAP1 PUSH1 0x1 ADD SWAP1 PUSH2 0x812 JUMP JUMPDEST JUMPDEST POP SWAP1 POP PUSH2 0x83B SWAP2 SWAP1 PUSH2 0x83F JUMP JUMPDEST POP SWAP1 JUMP JUMPDEST JUMPDEST DUP1 DUP3 GT ISZERO PUSH2 0x858 JUMPI PUSH1 0x0 DUP2 PUSH1 0x0 SWAP1 SSTORE POP PUSH1 0x1 ADD PUSH2 0x840 JUMP JUMPDEST POP SWAP1 JUMP JUMPDEST PUSH1 0x0 DUP1 REVERT JUMPDEST PUSH1 0x0 DUP2 SWAP1 POP SWAP2 SWAP1 POP JUMP JUMPDEST PUSH2 0x874 DUP2 PUSH2 0x861 JUMP JUMPDEST DUP2 EQ PUSH2 0x87F JUMPI PUSH1 0x0 DUP1 REVERT JUMPDEST POP JUMP JUMPDEST PUSH1 0x0 DUP2 CALLDATALOAD SWAP1 POP PUSH2 0x891 DUP2 PUSH2 0x86B JUMP JUMPDEST SWAP3 SWAP2 POP POP JUMP JUMPDEST PUSH1 0x0 PUSH1 0x20 DUP3 DUP5 SUB SLT ISZERO PUSH2 0x8AD JUMPI PUSH2 0x8AC PUSH2 0x85C JUMP JUMPDEST JUMPDEST PUSH1 0x0 PUSH2 0x8BB DUP5 DUP3 DUP6 ADD PUSH2 0x882 JUMP JUMPDEST SWAP2 POP POP SWAP3 SWAP2 POP POP JUMP JUMPDEST PUSH1 0x0 DUP2 SWAP1 POP SWAP2 SWAP1 POP JUMP JUMPDEST PUSH2 0x8D7 DUP2 PUSH2 0x8C4 JUMP JUMPDEST DUP3 MSTORE POP POP JUMP JUMPDEST PUSH1 0x0 PUSH1 0x20 DUP3 ADD SWAP1 POP PUSH2 0x8F2 PUSH1 0x0 DUP4 ADD DUP5 PUSH2 0x8CE JUMP JUMPDEST SWAP3 SWAP2 POP POP JUMP JUMPDEST PUSH2 0x901 DUP2 PUSH2 0x861 JUMP JUMPDEST DUP3 MSTORE POP POP JUMP JUMPDEST PUSH1 0x0 PUSH1 0x20 DUP3 ADD SWAP1 POP PUSH2 0x91C PUSH1 0x0 DUP4 ADD DUP5 PUSH2 0x8F8 JUMP JUMPDEST SWAP3 SWAP2 POP POP JUMP JUMPDEST PUSH1 0x0 DUP2 MLOAD SWAP1 POP SWAP2 SWAP1 POP JUMP JUMPDEST PUSH1 0x0 DUP3 DUP3 MSTORE PUSH1 0x20 DUP3 ADD SWAP1 POP SWAP3 SWAP2 POP POP JUMP JUMPDEST PUSH1 0x0 JUMPDEST DUP4 DUP2 LT ISZERO PUSH2 0x95C JUMPI DUP1 DUP3 ADD MLOAD DUP2 DUP5 ADD MSTORE PUSH1 0x20 DUP2 ADD SWAP1 POP PUSH2 0x941 JUMP JUMPDEST PUSH1 0x0 DUP5 DUP5 ADD MSTORE POP POP POP POP JUMP JUMPDEST PUSH1 0x0 PUSH1 0x1F NOT PUSH1 0x1F DUP4 ADD AND SWAP1 POP SWAP2 SWAP1 POP JUMP JUMPDEST PUSH1 0x0 PUSH2 0x984 DUP3 PUSH2 0x922 JUMP JUMPDEST PUSH2 0x98E DUP2 DUP6 PUSH2 0x92D JUMP JUMPDEST SWAP4 POP PUSH2 0x99E DUP2 DUP6 PUSH1 0x20 DUP7 ADD PUSH2 0x93E JUMP JUMPDEST PUSH2 0x9A7 DUP2 PUSH2 0x968 JUMP JUMPDEST DUP5 ADD SWAP2 POP POP SWAP3 SWAP2 POP POP JUMP JUMPDEST PUSH1 0x0 PUSH1 0x20 DUP3 ADD SWAP1 POP DUP2 DUP2 SUB PUSH1 0x0 DUP4 ADD MSTORE PUSH2 0x9CC DUP2 DUP5 PUSH2 0x979 JUMP JUMPDEST SWAP1 POP SWAP3 SWAP2 POP POP JUMP JUMPDEST PUSH32 0x4E487B7100000000000000000000000000000000000000000000000000000000 PUSH1 0x0 MSTORE PUSH1 0x22 PUSH1 0x4 MSTORE PUSH1 0x24 PUSH1 0x0 REVERT JUMPDEST PUSH1 0x0 PUSH1 0x2 DUP3 DIV SWAP1 POP PUSH1 0x1 DUP3 AND DUP1 PUSH2 0xA1B JUMPI PUSH1 0x7F DUP3 AND SWAP2 POP JUMPDEST PUSH1 0x20 DUP3 LT DUP2 SUB PUSH2 0xA2E JUMPI PUSH2 0xA2D PUSH2 0x9D4 JUMP JUMPDEST JUMPDEST POP SWAP2 SWAP1 POP JUMP JUMPDEST PUSH32 0x4E487B7100000000000000000000000000000000000000000000000000000000 PUSH1 0x0 MSTORE PUSH1 0x41 PUSH1 0x4 MSTORE PUSH1 0x24 PUSH1 0x0 REVERT JUMPDEST PUSH32 0x4E487B7100000000000000000000000000000000000000000000000000000000 PUSH1 0x0 MSTORE PUSH1 0x32 PUSH1 0x4 MSTORE PUSH1 0x24 PUSH1 0x0 REVERT JUMPDEST PUSH1 0x0 DUP2 SWAP1 POP DUP2 PUSH1 0x0 MSTORE PUSH1 0x20 PUSH1 0x0 KECCAK256 SWAP1 POP SWAP2 SWAP1 POP JUMP JUMPDEST PUSH1 0x0 PUSH1 0x20 PUSH1 0x1F DUP4 ADD DIV SWAP1 POP SWAP2 SWAP1 POP JUMP JUMPDEST PUSH1 0x0 DUP3 DUP3 SHL SWAP1 POP SWAP3 SWAP2 POP POP JUMP JUMPDEST PUSH1 0x0 PUSH1 0x8 DUP4 MUL PUSH2 0xAF4 PUSH32 0xFFFFFFFFFFFFFFFFFFFFFFFFFFFFFFFFFFFFFFFFFFFFFFFFFFFFFFFFFFFFFFFF DUP3 PUSH2 0xAB7 JUMP JUMPDEST PUSH2 0xAFE DUP7 DUP4 PUSH2 0xAB7 JUMP JUMPDEST SWAP6 POP DUP1 NOT DUP5 AND SWAP4 POP DUP1 DUP7 AND DUP5 OR SWAP3 POP POP POP SWAP4 SWAP3 POP POP POP JUMP JUMPDEST PUSH1 0x0 DUP2 SWAP1 POP SWAP2 SWAP1 POP JUMP JUMPDEST PUSH1 0x0 PUSH2 0xB3B PUSH2 0xB36 PUSH2 0xB31 DUP5 PUSH2 0x861 JUMP JUMPDEST PUSH2 0xB16 JUMP JUMPDEST PUSH2 0x861 JUMP JUMPDEST SWAP1 POP SWAP2 SWAP1 POP JUMP JUMPDEST PUSH1 0x0 DUP2 SWAP1 POP SWAP2 SWAP1 POP JUMP JUMPDEST PUSH2 0xB55 DUP4 PUSH2 0xB20 JUMP JUMPDEST PUSH2 0xB69 PUSH2 0xB61 DUP3 PUSH2 0xB42 JUMP JUMPDEST DUP5 DUP5 SLOAD PUSH2 0xAC4 JUMP JUMPDEST DUP3 SSTORE POP POP POP POP JUMP JUMPDEST PUSH1 0x0 SWAP1 JUMP JUMPDEST PUSH2 0xB7E PUSH2 0xB71 JUMP JUMPDEST PUSH2 0xB89 DUP2 DUP5 DUP5 PUSH2 0xB4C JUMP JUMPDEST POP POP POP JUMP JUMPDEST JUMPDEST DUP2 DUP2 LT ISZERO PUSH2 0xBAD JUMPI PUSH2 0xBA2 PUSH1 0x0 DUP3 PUSH2 0xB76 JUMP JUMPDEST PUSH1 0x1 DUP2 ADD SWAP1 POP PUSH2 0xB8F JUMP JUMPDEST POP POP JUMP JUMPDEST PUSH1 0x1F DUP3 GT ISZERO PUSH2 0xBF2 JUMPI PUSH2 0xBC3 DUP2 PUSH2 0xA92 JUMP JUMPDEST PUSH2 0xBCC DUP5 PUSH2 0xAA7 JUMP JUMPDEST DUP2 ADD PUSH1 0x20 DUP6 LT ISZERO PUSH2 0xBDB JUMPI DUP2 SWAP1 POP JUMPDEST PUSH2 0xBEF PUSH2 0xBE7 DUP6 PUSH2 0xAA7 JUMP JUMPDEST DUP4 ADD DUP3 PUSH2 0xB8E JUMP JUMPDEST POP POP JUMPDEST POP POP POP JUMP JUMPDEST PUSH1 0x0 DUP3 DUP3 SHR SWAP1 POP SWAP3 SWAP2 POP POP JUMP JUMPDEST PUSH1 0x0 PUSH2 0xC15 PUSH1 0x0 NOT DUP5 PUSH1 0x8 MUL PUSH2 0xBF7 JUMP JUMPDEST NOT DUP1 DUP4 AND SWAP2 POP POP SWAP3 SWAP2 POP POP JUMP JUMPDEST PUSH1 0x0 PUSH2 0xC2E DUP4 DUP4 PUSH2 0xC04 JUMP JUMPDEST SWAP2 POP DUP3 PUSH1 0x2 MUL DUP3 OR SWAP1 POP SWAP3 SWAP2 POP POP JUMP JUMPDEST PUSH2 0xC47 DUP3 PUSH2 0x922 JUMP JUMPDEST PUSH8 0xFFFFFFFFFFFFFFFF DUP2 GT ISZERO PUSH2 0xC60 JUMPI PUSH2 0xC5F PUSH2 0xA34 JUMP JUMPDEST JUMPDEST PUSH2 0xC6A DUP3 SLOAD PUSH2 0xA03 JUMP JUMPDEST PUSH2 0xC75 DUP3 DUP3 DUP6 PUSH2 0xBB1 JUMP JUMPDEST PUSH1 0x0 PUSH1 0x20 SWAP1 POP PUSH1 0x1F DUP4 GT PUSH1 0x1 DUP2 EQ PUSH2 0xCA8 JUMPI PUSH1 0x0 DUP5 ISZERO PUSH2 0xC96 JUMPI DUP3 DUP8 ADD MLOAD SWAP1 POP JUMPDEST PUSH2 0xCA0 DUP6 DUP3 PUSH2 0xC22 JUMP JUMPDEST DUP7 SSTORE POP PUSH2 0xD08 JUMP JUMPDEST PUSH1 0x1F NOT DUP5 AND PUSH2 0xCB6 DUP7 PUSH2 0xA92 JUMP JUMPDEST PUSH1 0x0 JUMPDEST DUP3 DUP2 LT ISZERO PUSH2 0xCDE JUMPI DUP5 DUP10 ADD MLOAD DUP3 SSTORE PUSH1 0x1 DUP3 ADD SWAP2 POP PUSH1 0x20 DUP6 ADD SWAP5 POP PUSH1 0x20 DUP2 ADD SWAP1 POP PUSH2 0xCB9 JUMP JUMPDEST DUP7 DUP4 LT ISZERO PUSH2 0xCFB JUMPI DUP5 DUP10 ADD MLOAD PUSH2 0xCF7 PUSH1 0x1F DUP10 AND DUP3 PUSH2 0xC04 JUMP JUMPDEST DUP4 SSTORE POP JUMPDEST PUSH1 0x1 PUSH1 0x2 DUP9 MUL ADD DUP9 SSTORE POP POP POP JUMPDEST POP POP POP POP POP POP JUMP INVALID LOG2 PUSH5 0x6970667358 0x22 SLT KECCAK256 SUB 0xAF 0xF6 BALANCE 0xDC DUP1 MSTORE8 PUSH20 0xAD67D52406290293F8617E924963FEDDCF59255F DUP7 0xE9 BYTE 0xEA PUSH5 0x736F6C6343 STOP ADDMOD SLT STOP CALLER "
				},
				"gasEstimates": {
					"creation": {
						"codeDepositCost": "679600",
						"executionCost": "715",
						"totalCost": "680315"
					},
					"external": {
						"bytesFun()": "infinite",
						"bytesFun2()": "infinite",
						"getLen()": "2512",
						"myBytes()": "infinite",
						"myBytesArray(uint256)": "4905",
						"testPush()": "26769",
						"testPush1()": "46547",
						"x(uint256)": "infinite"
					}
				},
				"methodIdentifiers": {
					"bytesFun()": "9c254f3e",
					"bytesFun2()": "94f867e9",
					"getLen()": "4a90be57",
					"myBytes()": "712f4602",
					"myBytesArray(uint256)": "31ca8923",
					"testPush()": "9a8cea55",
					"testPush1()": "212b058f",
					"x(uint256)": "3f4263ef"
				}
			},
			"storageLayout": {
				"storage": [
					{
						"astId": 4,
						"contract": "contract-arrayTest.sol:ArrayTest",
						"label": "x",
						"offset": 0,
						"slot": "0",
						"type": "t_array(t_uint256)dyn_storage"
					},
					{
						"astId": 36,
						"contract": "contract-arrayTest.sol:ArrayTest",
						"label": "myBytes",
						"offset": 0,
						"slot": "1",
						"type": "t_bytes_storage"
					},
					{
						"astId": 86,
						"contract": "contract-arrayTest.sol:ArrayTest",
						"label": "myBytesArray",
						"offset": 0,
						"slot": "2",
						"type": "t_array(t_bytes32)dyn_storage"
					}
				],
				"types": {
					"t_array(t_bytes32)dyn_storage": {
						"base": "t_bytes32",
						"encoding": "dynamic_array",
						"label": "bytes32[]",
						"numberOfBytes": "32"
					},
					"t_array(t_uint256)dyn_storage": {
						"base": "t_uint256",
						"encoding": "dynamic_array",
						"label": "uint256[]",
						"numberOfBytes": "32"
					},
					"t_bytes32": {
						"encoding": "inplace",
						"label": "bytes32",
						"numberOfBytes": "32"
					},
					"t_bytes_storage": {
						"encoding": "bytes",
						"label": "bytes",
						"numberOfBytes": "32"
					},
					"t_uint256": {
						"encoding": "inplace",
						"label": "uint256",
						"numberOfBytes": "32"
					}
				}
			},
			"userdoc": {
				"kind": "user",
				"methods": {},
				"version": 1
			}
		}
	}
}