{
	"contract-callOtherContract.sol": {
		"OwnedToken": {
			"abi": [
				{
					"inputs": [
						{
							"internalType": "bytes32",
							"name": "name_",
							"type": "bytes32"
						}
					],
					"stateMutability": "nonpayable",
					"type": "constructor"
				},
				{
					"anonymous": false,
					"inputs": [
						{
							"indexed": false,
							"internalType": "address",
							"name": "",
							"type": "address"
						}
					],
					"name": "logAddr",
					"type": "event"
				},
				{
					"inputs": [
						{
							"internalType": "bytes32",
							"name": "newName",
							"type": "bytes32"
						}
					],
					"name": "changeName",
					"outputs": [],
					"stateMutability": "nonpayable",
					"type": "function"
				},
				{
					"inputs": [],
					"name": "creator",
					"outputs": [
						{
							"internalType": "contract TokenCreator",
							"name": "",
							"type": "address"
						}
					],
					"stateMutability": "view",
					"type": "function"
				},
				{
					"inputs": [],
					"name": "name",
					"outputs": [
						{
							"internalType": "bytes32",
							"name": "",
							"type": "bytes32"
						}
					],
					"stateMutability": "view",
					"type": "function"
				},
				{
					"inputs": [],
					"name": "owner",
					"outputs": [
						{
							"internalType": "address",
							"name": "",
							"type": "address"
						}
					],
					"stateMutability": "view",
					"type": "function"
				},
				{
					"inputs": [
						{
							"internalType": "address",
							"name": "newOwner",
							"type": "address"
						}
					],
					"name": "transfer",
					"outputs": [],
					"stateMutability": "nonpayable",
					"type": "function"
				}
			],
			"devdoc": {
				"kind": "dev",
				"methods": {},
				"version": 1
			},
			"evm": {
				"assembly": "    /* \"contract-callOtherContract.sol\":299:2505  contract OwnedToken {... */\n  mstore(0x40, 0x80)\n    /* \"contract-callOtherContract.sol\":685:1544  constructor(bytes32 name_) {... */\n  callvalue\n  dup1\n  iszero\n  tag_1\n  jumpi\n  0x00\n  dup1\n  revert\ntag_1:\n  pop\n  mload(0x40)\n  sub(codesize, bytecodeSize)\n  dup1\n  bytecodeSize\n  dup4\n  codecopy\n  dup2\n  dup2\n  add\n  0x40\n  mstore\n  dup2\n  add\n  swap1\n  tag_2\n  swap2\n  swap1\n  tag_3\n  jump\t// in\ntag_2:\n    /* \"contract-callOtherContract.sol\":727:746  logAddr(msg.sender) */\n  0x69c1a4416562e119580e7e33e6c4009f5531b80cd0d08e393ec4feb51a72792c\n    /* \"contract-callOtherContract.sol\":735:745  msg.sender */\n  caller\n    /* \"contract-callOtherContract.sol\":727:746  logAddr(msg.sender) */\n  mload(0x40)\n  tag_6\n  swap2\n  swap1\n  tag_7\n  jump\t// in\ntag_6:\n  mload(0x40)\n  dup1\n  swap2\n  sub\n  swap1\n  log1\n    /* \"contract-callOtherContract.sol\":1191:1201  msg.sender */\n  caller\n    /* \"contract-callOtherContract.sol\":1183:1188  owner */\n  0x01\n  0x00\n    /* \"contract-callOtherContract.sol\":1183:1201  owner = msg.sender */\n  0x0100\n  exp\n  dup2\n  sload\n  dup2\n  0xffffffffffffffffffffffffffffffffffffffff\n  mul\n  not\n  and\n  swap1\n  dup4\n  0xffffffffffffffffffffffffffffffffffffffff\n  and\n  mul\n  or\n  swap1\n  sstore\n  pop\n    /* \"contract-callOtherContract.sol\":1504:1514  msg.sender */\n  caller\n    /* \"contract-callOtherContract.sol\":1481:1488  creator */\n  0x00\n  dup1\n    /* \"contract-callOtherContract.sol\":1481:1515  creator = TokenCreator(msg.sender) */\n  0x0100\n  exp\n  dup2\n  sload\n  dup2\n  0xffffffffffffffffffffffffffffffffffffffff\n  mul\n  not\n  and\n  swap1\n  dup4\n  0xffffffffffffffffffffffffffffffffffffffff\n  and\n  mul\n  or\n  swap1\n  sstore\n  pop\n    /* \"contract-callOtherContract.sol\":1532:1537  name_ */\n  dup1\n    /* \"contract-callOtherContract.sol\":1525:1529  name */\n  0x02\n    /* \"contract-callOtherContract.sol\":1525:1537  name = name_ */\n  dup2\n  swap1\n  sstore\n  pop\n    /* \"contract-callOtherContract.sol\":685:1544  constructor(bytes32 name_) {... */\n  pop\n    /* \"contract-callOtherContract.sol\":299:2505  contract OwnedToken {... */\n  jump(tag_8)\n    /* \"#utility.yul\":88:205   */\ntag_10:\n    /* \"#utility.yul\":197:198   */\n  0x00\n    /* \"#utility.yul\":194:195   */\n  dup1\n    /* \"#utility.yul\":187:199   */\n  revert\n    /* \"#utility.yul\":334:411   */\ntag_12:\n    /* \"#utility.yul\":371:378   */\n  0x00\n    /* \"#utility.yul\":400:405   */\n  dup2\n    /* \"#utility.yul\":389:405   */\n  swap1\n  pop\n    /* \"#utility.yul\":334:411   */\n  swap2\n  swap1\n  pop\n  jump\t// out\n    /* \"#utility.yul\":417:539   */\ntag_13:\n    /* \"#utility.yul\":490:514   */\n  tag_24\n    /* \"#utility.yul\":508:513   */\n  dup2\n    /* \"#utility.yul\":490:514   */\n  tag_12\n  jump\t// in\ntag_24:\n    /* \"#utility.yul\":483:488   */\n  dup2\n    /* \"#utility.yul\":480:515   */\n  eq\n    /* \"#utility.yul\":470:533   */\n  tag_25\n  jumpi\n    /* \"#utility.yul\":529:530   */\n  0x00\n    /* \"#utility.yul\":526:527   */\n  dup1\n    /* \"#utility.yul\":519:531   */\n  revert\n    /* \"#utility.yul\":470:533   */\ntag_25:\n    /* \"#utility.yul\":417:539   */\n  pop\n  jump\t// out\n    /* \"#utility.yul\":545:688   */\ntag_14:\n    /* \"#utility.yul\":602:607   */\n  0x00\n    /* \"#utility.yul\":633:639   */\n  dup2\n    /* \"#utility.yul\":627:640   */\n  mload\n    /* \"#utility.yul\":618:640   */\n  swap1\n  pop\n    /* \"#utility.yul\":649:682   */\n  tag_27\n    /* \"#utility.yul\":676:681   */\n  dup2\n    /* \"#utility.yul\":649:682   */\n  tag_13\n  jump\t// in\ntag_27:\n    /* \"#utility.yul\":545:688   */\n  swap3\n  swap2\n  pop\n  pop\n  jump\t// out\n    /* \"#utility.yul\":694:1045   */\ntag_3:\n    /* \"#utility.yul\":764:770   */\n  0x00\n    /* \"#utility.yul\":813:815   */\n  0x20\n    /* \"#utility.yul\":801:810   */\n  dup3\n    /* \"#utility.yul\":792:799   */\n  dup5\n    /* \"#utility.yul\":788:811   */\n  sub\n    /* \"#utility.yul\":784:816   */\n  slt\n    /* \"#utility.yul\":781:900   */\n  iszero\n  tag_29\n  jumpi\n    /* \"#utility.yul\":819:898   */\n  tag_30\n  tag_10\n  jump\t// in\ntag_30:\n    /* \"#utility.yul\":781:900   */\ntag_29:\n    /* \"#utility.yul\":939:940   */\n  0x00\n    /* \"#utility.yul\":964:1028   */\n  tag_31\n    /* \"#utility.yul\":1020:1027   */\n  dup5\n    /* \"#utility.yul\":1011:1017   */\n  dup3\n    /* \"#utility.yul\":1000:1009   */\n  dup6\n    /* \"#utility.yul\":996:1018   */\n  add\n    /* \"#utility.yul\":964:1028   */\n  tag_14\n  jump\t// in\ntag_31:\n    /* \"#utility.yul\":954:1028   */\n  swap2\n  pop\n    /* \"#utility.yul\":910:1038   */\n  pop\n    /* \"#utility.yul\":694:1045   */\n  swap3\n  swap2\n  pop\n  pop\n  jump\t// out\n    /* \"#utility.yul\":1051:1177   */\ntag_15:\n    /* \"#utility.yul\":1088:1095   */\n  0x00\n    /* \"#utility.yul\":1128:1170   */\n  0xffffffffffffffffffffffffffffffffffffffff\n    /* \"#utility.yul\":1121:1126   */\n  dup3\n    /* \"#utility.yul\":1117:1171   */\n  and\n    /* \"#utility.yul\":1106:1171   */\n  swap1\n  pop\n    /* \"#utility.yul\":1051:1177   */\n  swap2\n  swap1\n  pop\n  jump\t// out\n    /* \"#utility.yul\":1183:1279   */\ntag_16:\n    /* \"#utility.yul\":1220:1227   */\n  0x00\n    /* \"#utility.yul\":1249:1273   */\n  tag_34\n    /* \"#utility.yul\":1267:1272   */\n  dup3\n    /* \"#utility.yul\":1249:1273   */\n  tag_15\n  jump\t// in\ntag_34:\n    /* \"#utility.yul\":1238:1273   */\n  swap1\n  pop\n    /* \"#utility.yul\":1183:1279   */\n  swap2\n  swap1\n  pop\n  jump\t// out\n    /* \"#utility.yul\":1285:1403   */\ntag_17:\n    /* \"#utility.yul\":1372:1396   */\n  tag_36\n    /* \"#utility.yul\":1390:1395   */\n  dup2\n    /* \"#utility.yul\":1372:1396   */\n  tag_16\n  jump\t// in\ntag_36:\n    /* \"#utility.yul\":1367:1370   */\n  dup3\n    /* \"#utility.yul\":1360:1397   */\n  mstore\n    /* \"#utility.yul\":1285:1403   */\n  pop\n  pop\n  jump\t// out\n    /* \"#utility.yul\":1409:1631   */\ntag_7:\n    /* \"#utility.yul\":1502:1506   */\n  0x00\n    /* \"#utility.yul\":1540:1542   */\n  0x20\n    /* \"#utility.yul\":1529:1538   */\n  dup3\n    /* \"#utility.yul\":1525:1543   */\n  add\n    /* \"#utility.yul\":1517:1543   */\n  swap1\n  pop\n    /* \"#utility.yul\":1553:1624   */\n  tag_38\n    /* \"#utility.yul\":1621:1622   */\n  0x00\n    /* \"#utility.yul\":1610:1619   */\n  dup4\n    /* \"#utility.yul\":1606:1623   */\n  add\n    /* \"#utility.yul\":1597:1603   */\n  dup5\n    /* \"#utility.yul\":1553:1624   */\n  tag_17\n  jump\t// in\ntag_38:\n    /* \"#utility.yul\":1409:1631   */\n  swap3\n  swap2\n  pop\n  pop\n  jump\t// out\n    /* \"contract-callOtherContract.sol\":299:2505  contract OwnedToken {... */\ntag_8:\n  dataSize(sub_0)\n  dup1\n  dataOffset(sub_0)\n  0x00\n  codecopy\n  0x00\n  return\nstop\n\nsub_0: assembly {\n        /* \"contract-callOtherContract.sol\":299:2505  contract OwnedToken {... */\n      mstore(0x40, 0x80)\n      callvalue\n      dup1\n      iszero\n      tag_1\n      jumpi\n      0x00\n      dup1\n      revert\n    tag_1:\n      pop\n      jumpi(tag_2, lt(calldatasize, 0x04))\n      shr(0xe0, calldataload(0x00))\n      dup1\n      0x02d05d3f\n      eq\n      tag_3\n      jumpi\n      dup1\n      0x06fdde03\n      eq\n      tag_4\n      jumpi\n      dup1\n      0x1a695230\n      eq\n      tag_5\n      jumpi\n      dup1\n      0x898855ed\n      eq\n      tag_6\n      jumpi\n      dup1\n      0x8da5cb5b\n      eq\n      tag_7\n      jumpi\n    tag_2:\n      0x00\n      dup1\n      revert\n        /* \"contract-callOtherContract.sol\":482:509  TokenCreator public creator */\n    tag_3:\n      tag_8\n      tag_9\n      jump\t// in\n    tag_8:\n      mload(0x40)\n      tag_10\n      swap2\n      swap1\n      tag_11\n      jump\t// in\n    tag_10:\n      mload(0x40)\n      dup1\n      swap2\n      sub\n      swap1\n      return\n        /* \"contract-callOtherContract.sol\":541:560  bytes32 public name */\n    tag_4:\n      tag_12\n      tag_13\n      jump\t// in\n    tag_12:\n      mload(0x40)\n      tag_14\n      swap2\n      swap1\n      tag_15\n      jump\t// in\n    tag_14:\n      mload(0x40)\n      dup1\n      swap2\n      sub\n      swap1\n      return\n        /* \"contract-callOtherContract.sol\":1937:2503  function transfer(address newOwner) public {... */\n    tag_5:\n      tag_16\n      0x04\n      dup1\n      calldatasize\n      sub\n      dup2\n      add\n      swap1\n      tag_17\n      swap2\n      swap1\n      tag_18\n      jump\t// in\n    tag_17:\n      tag_19\n      jump\t// in\n    tag_16:\n      stop\n        /* \"contract-callOtherContract.sol\":1550:1931  function changeName(bytes32 newName) public {... */\n    tag_6:\n      tag_20\n      0x04\n      dup1\n      calldatasize\n      sub\n      dup2\n      add\n      swap1\n      tag_21\n      swap2\n      swap1\n      tag_22\n      jump\t// in\n    tag_21:\n      tag_23\n      jump\t// in\n    tag_20:\n      stop\n        /* \"contract-callOtherContract.sol\":515:535  address public owner */\n    tag_7:\n      tag_24\n      tag_25\n      jump\t// in\n    tag_24:\n      mload(0x40)\n      tag_26\n      swap2\n      swap1\n      tag_27\n      jump\t// in\n    tag_26:\n      mload(0x40)\n      dup1\n      swap2\n      sub\n      swap1\n      return\n        /* \"contract-callOtherContract.sol\":482:509  TokenCreator public creator */\n    tag_9:\n      0x00\n      dup1\n      sload\n      swap1\n      0x0100\n      exp\n      swap1\n      div\n      0xffffffffffffffffffffffffffffffffffffffff\n      and\n      dup2\n      jump\t// out\n        /* \"contract-callOtherContract.sol\":541:560  bytes32 public name */\n    tag_13:\n      sload(0x02)\n      dup2\n      jump\t// out\n        /* \"contract-callOtherContract.sol\":1937:2503  function transfer(address newOwner) public {... */\n    tag_19:\n        /* \"contract-callOtherContract.sol\":1995:2014  logAddr(msg.sender) */\n      0x69c1a4416562e119580e7e33e6c4009f5531b80cd0d08e393ec4feb51a72792c\n        /* \"contract-callOtherContract.sol\":2003:2013  msg.sender */\n      caller\n        /* \"contract-callOtherContract.sol\":1995:2014  logAddr(msg.sender) */\n      mload(0x40)\n      tag_29\n      swap2\n      swap1\n      tag_27\n      jump\t// in\n    tag_29:\n      mload(0x40)\n      dup1\n      swap2\n      sub\n      swap1\n      log1\n        /* \"contract-callOtherContract.sol\":2029:2054  logAddr(address(creator)) */\n      0x69c1a4416562e119580e7e33e6c4009f5531b80cd0d08e393ec4feb51a72792c\n        /* \"contract-callOtherContract.sol\":2045:2052  creator */\n      0x00\n      dup1\n      sload\n      swap1\n      0x0100\n      exp\n      swap1\n      div\n      0xffffffffffffffffffffffffffffffffffffffff\n      and\n        /* \"contract-callOtherContract.sol\":2029:2054  logAddr(address(creator)) */\n      mload(0x40)\n      tag_30\n      swap2\n      swap1\n      tag_27\n      jump\t// in\n    tag_30:\n      mload(0x40)\n      dup1\n      swap2\n      sub\n      swap1\n      log1\n        /* \"contract-callOtherContract.sol\":2141:2146  owner */\n      0x01\n      0x00\n      swap1\n      sload\n      swap1\n      0x0100\n      exp\n      swap1\n      div\n      0xffffffffffffffffffffffffffffffffffffffff\n      and\n        /* \"contract-callOtherContract.sol\":2127:2146  msg.sender != owner */\n      0xffffffffffffffffffffffffffffffffffffffff\n      and\n        /* \"contract-callOtherContract.sol\":2127:2137  msg.sender */\n      caller\n        /* \"contract-callOtherContract.sol\":2127:2146  msg.sender != owner */\n      0xffffffffffffffffffffffffffffffffffffffff\n      and\n      sub\n        /* \"contract-callOtherContract.sol\":2148:2155  return; */\n      tag_28\n        /* \"contract-callOtherContract.sol\":2123:2155  if (msg.sender != owner) return; */\n      jumpi\n        /* \"contract-callOtherContract.sol\":2424:2431  creator */\n      0x00\n      dup1\n      sload\n      swap1\n      0x0100\n      exp\n      swap1\n      div\n      0xffffffffffffffffffffffffffffffffffffffff\n      and\n        /* \"contract-callOtherContract.sol\":2424:2449  creator.isTokenTransferOK */\n      0xffffffffffffffffffffffffffffffffffffffff\n      and\n      0xc3cee9c1\n        /* \"contract-callOtherContract.sol\":2450:2455  owner */\n      0x01\n      0x00\n      swap1\n      sload\n      swap1\n      0x0100\n      exp\n      swap1\n      div\n      0xffffffffffffffffffffffffffffffffffffffff\n      and\n        /* \"contract-callOtherContract.sol\":2457:2465  newOwner */\n      dup4\n        /* \"contract-callOtherContract.sol\":2424:2466  creator.isTokenTransferOK(owner, newOwner) */\n      mload(0x40)\n      dup4\n      0xffffffff\n      and\n      0xe0\n      shl\n      dup2\n      mstore\n      0x04\n      add\n      tag_32\n      swap3\n      swap2\n      swap1\n      tag_33\n      jump\t// in\n    tag_32:\n      0x20\n      mload(0x40)\n      dup1\n      dup4\n      sub\n      dup2\n      dup7\n      gas\n      staticcall\n      iszero\n      dup1\n      iszero\n      tag_35\n      jumpi\n      returndatasize\n      0x00\n      dup1\n      returndatacopy\n      revert(0x00, returndatasize)\n    tag_35:\n      pop\n      pop\n      pop\n      pop\n      mload(0x40)\n      returndatasize\n      not(0x1f)\n      0x1f\n      dup3\n      add\n      and\n      dup3\n      add\n      dup1\n      0x40\n      mstore\n      pop\n      dup2\n      add\n      swap1\n      tag_36\n      swap2\n      swap1\n      tag_37\n      jump\t// in\n    tag_36:\n        /* \"contract-callOtherContract.sol\":2420:2496  if (creator.isTokenTransferOK(owner, newOwner))... */\n      iszero\n      tag_38\n      jumpi\n        /* \"contract-callOtherContract.sol\":2488:2496  newOwner */\n      dup1\n        /* \"contract-callOtherContract.sol\":2480:2485  owner */\n      0x01\n      0x00\n        /* \"contract-callOtherContract.sol\":2480:2496  owner = newOwner */\n      0x0100\n      exp\n      dup2\n      sload\n      dup2\n      0xffffffffffffffffffffffffffffffffffffffff\n      mul\n      not\n      and\n      swap1\n      dup4\n      0xffffffffffffffffffffffffffffffffffffffff\n      and\n      mul\n      or\n      swap1\n      sstore\n      pop\n        /* \"contract-callOtherContract.sol\":2420:2496  if (creator.isTokenTransferOK(owner, newOwner))... */\n    tag_38:\n        /* \"contract-callOtherContract.sol\":1937:2503  function transfer(address newOwner) public {... */\n    tag_28:\n      pop\n      jump\t// out\n        /* \"contract-callOtherContract.sol\":1550:1931  function changeName(bytes32 newName) public {... */\n    tag_23:\n        /* \"contract-callOtherContract.sol\":1609:1628  logAddr(msg.sender) */\n      0x69c1a4416562e119580e7e33e6c4009f5531b80cd0d08e393ec4feb51a72792c\n        /* \"contract-callOtherContract.sol\":1617:1627  msg.sender */\n      caller\n        /* \"contract-callOtherContract.sol\":1609:1628  logAddr(msg.sender) */\n      mload(0x40)\n      tag_40\n      swap2\n      swap1\n      tag_27\n      jump\t// in\n    tag_40:\n      mload(0x40)\n      dup1\n      swap2\n      sub\n      swap1\n      log1\n        /* \"contract-callOtherContract.sol\":1643:1668  logAddr(address(creator)) */\n      0x69c1a4416562e119580e7e33e6c4009f5531b80cd0d08e393ec4feb51a72792c\n        /* \"contract-callOtherContract.sol\":1659:1666  creator */\n      0x00\n      dup1\n      sload\n      swap1\n      0x0100\n      exp\n      swap1\n      div\n      0xffffffffffffffffffffffffffffffffffffffff\n      and\n        /* \"contract-callOtherContract.sol\":1643:1668  logAddr(address(creator)) */\n      mload(0x40)\n      tag_41\n      swap2\n      swap1\n      tag_27\n      jump\t// in\n    tag_41:\n      mload(0x40)\n      dup1\n      swap2\n      sub\n      swap1\n      log1\n        /* \"contract-callOtherContract.sol\":1888:1895  creator */\n      0x00\n      dup1\n      sload\n      swap1\n      0x0100\n      exp\n      swap1\n      div\n      0xffffffffffffffffffffffffffffffffffffffff\n      and\n        /* \"contract-callOtherContract.sol\":1866:1896  msg.sender == address(creator) */\n      0xffffffffffffffffffffffffffffffffffffffff\n      and\n        /* \"contract-callOtherContract.sol\":1866:1876  msg.sender */\n      caller\n        /* \"contract-callOtherContract.sol\":1866:1896  msg.sender == address(creator) */\n      0xffffffffffffffffffffffffffffffffffffffff\n      and\n      sub\n        /* \"contract-callOtherContract.sol\":1862:1924  if (msg.sender == address(creator))... */\n      tag_42\n      jumpi\n        /* \"contract-callOtherContract.sol\":1917:1924  newName */\n      dup1\n        /* \"contract-callOtherContract.sol\":1910:1914  name */\n      0x02\n        /* \"contract-callOtherContract.sol\":1910:1924  name = newName */\n      dup2\n      swap1\n      sstore\n      pop\n        /* \"contract-callOtherContract.sol\":1862:1924  if (msg.sender == address(creator))... */\n    tag_42:\n        /* \"contract-callOtherContract.sol\":1550:1931  function changeName(bytes32 newName) public {... */\n      pop\n      jump\t// out\n        /* \"contract-callOtherContract.sol\":515:535  address public owner */\n    tag_25:\n      0x01\n      0x00\n      swap1\n      sload\n      swap1\n      0x0100\n      exp\n      swap1\n      div\n      0xffffffffffffffffffffffffffffffffffffffff\n      and\n      dup2\n      jump\t// out\n        /* \"#utility.yul\":7:133   */\n    tag_43:\n        /* \"#utility.yul\":44:51   */\n      0x00\n        /* \"#utility.yul\":84:126   */\n      0xffffffffffffffffffffffffffffffffffffffff\n        /* \"#utility.yul\":77:82   */\n      dup3\n        /* \"#utility.yul\":73:127   */\n      and\n        /* \"#utility.yul\":62:127   */\n      swap1\n      pop\n        /* \"#utility.yul\":7:133   */\n      swap2\n      swap1\n      pop\n      jump\t// out\n        /* \"#utility.yul\":139:199   */\n    tag_44:\n        /* \"#utility.yul\":167:170   */\n      0x00\n        /* \"#utility.yul\":188:193   */\n      dup2\n        /* \"#utility.yul\":181:193   */\n      swap1\n      pop\n        /* \"#utility.yul\":139:199   */\n      swap2\n      swap1\n      pop\n      jump\t// out\n        /* \"#utility.yul\":205:347   */\n    tag_45:\n        /* \"#utility.yul\":255:264   */\n      0x00\n        /* \"#utility.yul\":288:341   */\n      tag_67\n        /* \"#utility.yul\":306:340   */\n      tag_68\n        /* \"#utility.yul\":315:339   */\n      tag_69\n        /* \"#utility.yul\":333:338   */\n      dup5\n        /* \"#utility.yul\":315:339   */\n      tag_43\n      jump\t// in\n    tag_69:\n        /* \"#utility.yul\":306:340   */\n      tag_44\n      jump\t// in\n    tag_68:\n        /* \"#utility.yul\":288:341   */\n      tag_43\n      jump\t// in\n    tag_67:\n        /* \"#utility.yul\":275:341   */\n      swap1\n      pop\n        /* \"#utility.yul\":205:347   */\n      swap2\n      swap1\n      pop\n      jump\t// out\n        /* \"#utility.yul\":353:479   */\n    tag_46:\n        /* \"#utility.yul\":403:412   */\n      0x00\n        /* \"#utility.yul\":436:473   */\n      tag_71\n        /* \"#utility.yul\":467:472   */\n      dup3\n        /* \"#utility.yul\":436:473   */\n      tag_45\n      jump\t// in\n    tag_71:\n        /* \"#utility.yul\":423:473   */\n      swap1\n      pop\n        /* \"#utility.yul\":353:479   */\n      swap2\n      swap1\n      pop\n      jump\t// out\n        /* \"#utility.yul\":485:631   */\n    tag_47:\n        /* \"#utility.yul\":555:564   */\n      0x00\n        /* \"#utility.yul\":588:625   */\n      tag_73\n        /* \"#utility.yul\":619:624   */\n      dup3\n        /* \"#utility.yul\":588:625   */\n      tag_46\n      jump\t// in\n    tag_73:\n        /* \"#utility.yul\":575:625   */\n      swap1\n      pop\n        /* \"#utility.yul\":485:631   */\n      swap2\n      swap1\n      pop\n      jump\t// out\n        /* \"#utility.yul\":637:808   */\n    tag_48:\n        /* \"#utility.yul\":744:801   */\n      tag_75\n        /* \"#utility.yul\":795:800   */\n      dup2\n        /* \"#utility.yul\":744:801   */\n      tag_47\n      jump\t// in\n    tag_75:\n        /* \"#utility.yul\":739:742   */\n      dup3\n        /* \"#utility.yul\":732:802   */\n      mstore\n        /* \"#utility.yul\":637:808   */\n      pop\n      pop\n      jump\t// out\n        /* \"#utility.yul\":814:1076   */\n    tag_11:\n        /* \"#utility.yul\":927:931   */\n      0x00\n        /* \"#utility.yul\":965:967   */\n      0x20\n        /* \"#utility.yul\":954:963   */\n      dup3\n        /* \"#utility.yul\":950:968   */\n      add\n        /* \"#utility.yul\":942:968   */\n      swap1\n      pop\n        /* \"#utility.yul\":978:1069   */\n      tag_77\n        /* \"#utility.yul\":1066:1067   */\n      0x00\n        /* \"#utility.yul\":1055:1064   */\n      dup4\n        /* \"#utility.yul\":1051:1068   */\n      add\n        /* \"#utility.yul\":1042:1048   */\n      dup5\n        /* \"#utility.yul\":978:1069   */\n      tag_48\n      jump\t// in\n    tag_77:\n        /* \"#utility.yul\":814:1076   */\n      swap3\n      swap2\n      pop\n      pop\n      jump\t// out\n        /* \"#utility.yul\":1082:1159   */\n    tag_49:\n        /* \"#utility.yul\":1119:1126   */\n      0x00\n        /* \"#utility.yul\":1148:1153   */\n      dup2\n        /* \"#utility.yul\":1137:1153   */\n      swap1\n      pop\n        /* \"#utility.yul\":1082:1159   */\n      swap2\n      swap1\n      pop\n      jump\t// out\n        /* \"#utility.yul\":1165:1283   */\n    tag_50:\n        /* \"#utility.yul\":1252:1276   */\n      tag_80\n        /* \"#utility.yul\":1270:1275   */\n      dup2\n        /* \"#utility.yul\":1252:1276   */\n      tag_49\n      jump\t// in\n    tag_80:\n        /* \"#utility.yul\":1247:1250   */\n      dup3\n        /* \"#utility.yul\":1240:1277   */\n      mstore\n        /* \"#utility.yul\":1165:1283   */\n      pop\n      pop\n      jump\t// out\n        /* \"#utility.yul\":1289:1511   */\n    tag_15:\n        /* \"#utility.yul\":1382:1386   */\n      0x00\n        /* \"#utility.yul\":1420:1422   */\n      0x20\n        /* \"#utility.yul\":1409:1418   */\n      dup3\n        /* \"#utility.yul\":1405:1423   */\n      add\n        /* \"#utility.yul\":1397:1423   */\n      swap1\n      pop\n        /* \"#utility.yul\":1433:1504   */\n      tag_82\n        /* \"#utility.yul\":1501:1502   */\n      0x00\n        /* \"#utility.yul\":1490:1499   */\n      dup4\n        /* \"#utility.yul\":1486:1503   */\n      add\n        /* \"#utility.yul\":1477:1483   */\n      dup5\n        /* \"#utility.yul\":1433:1504   */\n      tag_50\n      jump\t// in\n    tag_82:\n        /* \"#utility.yul\":1289:1511   */\n      swap3\n      swap2\n      pop\n      pop\n      jump\t// out\n        /* \"#utility.yul\":1598:1715   */\n    tag_52:\n        /* \"#utility.yul\":1707:1708   */\n      0x00\n        /* \"#utility.yul\":1704:1705   */\n      dup1\n        /* \"#utility.yul\":1697:1709   */\n      revert\n        /* \"#utility.yul\":1844:1940   */\n    tag_54:\n        /* \"#utility.yul\":1881:1888   */\n      0x00\n        /* \"#utility.yul\":1910:1934   */\n      tag_87\n        /* \"#utility.yul\":1928:1933   */\n      dup3\n        /* \"#utility.yul\":1910:1934   */\n      tag_43\n      jump\t// in\n    tag_87:\n        /* \"#utility.yul\":1899:1934   */\n      swap1\n      pop\n        /* \"#utility.yul\":1844:1940   */\n      swap2\n      swap1\n      pop\n      jump\t// out\n        /* \"#utility.yul\":1946:2068   */\n    tag_55:\n        /* \"#utility.yul\":2019:2043   */\n      tag_89\n        /* \"#utility.yul\":2037:2042   */\n      dup2\n        /* \"#utility.yul\":2019:2043   */\n      tag_54\n      jump\t// in\n    tag_89:\n        /* \"#utility.yul\":2012:2017   */\n      dup2\n        /* \"#utility.yul\":2009:2044   */\n      eq\n        /* \"#utility.yul\":1999:2062   */\n      tag_90\n      jumpi\n        /* \"#utility.yul\":2058:2059   */\n      0x00\n        /* \"#utility.yul\":2055:2056   */\n      dup1\n        /* \"#utility.yul\":2048:2060   */\n      revert\n        /* \"#utility.yul\":1999:2062   */\n    tag_90:\n        /* \"#utility.yul\":1946:2068   */\n      pop\n      jump\t// out\n        /* \"#utility.yul\":2074:2213   */\n    tag_56:\n        /* \"#utility.yul\":2120:2125   */\n      0x00\n        /* \"#utility.yul\":2158:2164   */\n      dup2\n        /* \"#utility.yul\":2145:2165   */\n      calldataload\n        /* \"#utility.yul\":2136:2165   */\n      swap1\n      pop\n        /* \"#utility.yul\":2174:2207   */\n      tag_92\n        /* \"#utility.yul\":2201:2206   */\n      dup2\n        /* \"#utility.yul\":2174:2207   */\n      tag_55\n      jump\t// in\n    tag_92:\n        /* \"#utility.yul\":2074:2213   */\n      swap3\n      swap2\n      pop\n      pop\n      jump\t// out\n        /* \"#utility.yul\":2219:2548   */\n    tag_18:\n        /* \"#utility.yul\":2278:2284   */\n      0x00\n        /* \"#utility.yul\":2327:2329   */\n      0x20\n        /* \"#utility.yul\":2315:2324   */\n      dup3\n        /* \"#utility.yul\":2306:2313   */\n      dup5\n        /* \"#utility.yul\":2302:2325   */\n      sub\n        /* \"#utility.yul\":2298:2330   */\n      slt\n        /* \"#utility.yul\":2295:2414   */\n      iszero\n      tag_94\n      jumpi\n        /* \"#utility.yul\":2333:2412   */\n      tag_95\n      tag_52\n      jump\t// in\n    tag_95:\n        /* \"#utility.yul\":2295:2414   */\n    tag_94:\n        /* \"#utility.yul\":2453:2454   */\n      0x00\n        /* \"#utility.yul\":2478:2531   */\n      tag_96\n        /* \"#utility.yul\":2523:2530   */\n      dup5\n        /* \"#utility.yul\":2514:2520   */\n      dup3\n        /* \"#utility.yul\":2503:2512   */\n      dup6\n        /* \"#utility.yul\":2499:2521   */\n      add\n        /* \"#utility.yul\":2478:2531   */\n      tag_56\n      jump\t// in\n    tag_96:\n        /* \"#utility.yul\":2468:2531   */\n      swap2\n      pop\n        /* \"#utility.yul\":2424:2541   */\n      pop\n        /* \"#utility.yul\":2219:2548   */\n      swap3\n      swap2\n      pop\n      pop\n      jump\t// out\n        /* \"#utility.yul\":2554:2676   */\n    tag_57:\n        /* \"#utility.yul\":2627:2651   */\n      tag_98\n        /* \"#utility.yul\":2645:2650   */\n      dup2\n        /* \"#utility.yul\":2627:2651   */\n      tag_49\n      jump\t// in\n    tag_98:\n        /* \"#utility.yul\":2620:2625   */\n      dup2\n        /* \"#utility.yul\":2617:2652   */\n      eq\n        /* \"#utility.yul\":2607:2670   */\n      tag_99\n      jumpi\n        /* \"#utility.yul\":2666:2667   */\n      0x00\n        /* \"#utility.yul\":2663:2664   */\n      dup1\n        /* \"#utility.yul\":2656:2668   */\n      revert\n        /* \"#utility.yul\":2607:2670   */\n    tag_99:\n        /* \"#utility.yul\":2554:2676   */\n      pop\n      jump\t// out\n        /* \"#utility.yul\":2682:2821   */\n    tag_58:\n        /* \"#utility.yul\":2728:2733   */\n      0x00\n        /* \"#utility.yul\":2766:2772   */\n      dup2\n        /* \"#utility.yul\":2753:2773   */\n      calldataload\n        /* \"#utility.yul\":2744:2773   */\n      swap1\n      pop\n        /* \"#utility.yul\":2782:2815   */\n      tag_101\n        /* \"#utility.yul\":2809:2814   */\n      dup2\n        /* \"#utility.yul\":2782:2815   */\n      tag_57\n      jump\t// in\n    tag_101:\n        /* \"#utility.yul\":2682:2821   */\n      swap3\n      swap2\n      pop\n      pop\n      jump\t// out\n        /* \"#utility.yul\":2827:3156   */\n    tag_22:\n        /* \"#utility.yul\":2886:2892   */\n      0x00\n        /* \"#utility.yul\":2935:2937   */\n      0x20\n        /* \"#utility.yul\":2923:2932   */\n      dup3\n        /* \"#utility.yul\":2914:2921   */\n      dup5\n        /* \"#utility.yul\":2910:2933   */\n      sub\n        /* \"#utility.yul\":2906:2938   */\n      slt\n        /* \"#utility.yul\":2903:3022   */\n      iszero\n      tag_103\n      jumpi\n        /* \"#utility.yul\":2941:3020   */\n      tag_104\n      tag_52\n      jump\t// in\n    tag_104:\n        /* \"#utility.yul\":2903:3022   */\n    tag_103:\n        /* \"#utility.yul\":3061:3062   */\n      0x00\n        /* \"#utility.yul\":3086:3139   */\n      tag_105\n        /* \"#utility.yul\":3131:3138   */\n      dup5\n        /* \"#utility.yul\":3122:3128   */\n      dup3\n        /* \"#utility.yul\":3111:3120   */\n      dup6\n        /* \"#utility.yul\":3107:3129   */\n      add\n        /* \"#utility.yul\":3086:3139   */\n      tag_58\n      jump\t// in\n    tag_105:\n        /* \"#utility.yul\":3076:3139   */\n      swap2\n      pop\n        /* \"#utility.yul\":3032:3149   */\n      pop\n        /* \"#utility.yul\":2827:3156   */\n      swap3\n      swap2\n      pop\n      pop\n      jump\t// out\n        /* \"#utility.yul\":3162:3280   */\n    tag_59:\n        /* \"#utility.yul\":3249:3273   */\n      tag_107\n        /* \"#utility.yul\":3267:3272   */\n      dup2\n        /* \"#utility.yul\":3249:3273   */\n      tag_54\n      jump\t// in\n    tag_107:\n        /* \"#utility.yul\":3244:3247   */\n      dup3\n        /* \"#utility.yul\":3237:3274   */\n      mstore\n        /* \"#utility.yul\":3162:3280   */\n      pop\n      pop\n      jump\t// out\n        /* \"#utility.yul\":3286:3508   */\n    tag_27:\n        /* \"#utility.yul\":3379:3383   */\n      0x00\n        /* \"#utility.yul\":3417:3419   */\n      0x20\n        /* \"#utility.yul\":3406:3415   */\n      dup3\n        /* \"#utility.yul\":3402:3420   */\n      add\n        /* \"#utility.yul\":3394:3420   */\n      swap1\n      pop\n        /* \"#utility.yul\":3430:3501   */\n      tag_109\n        /* \"#utility.yul\":3498:3499   */\n      0x00\n        /* \"#utility.yul\":3487:3496   */\n      dup4\n        /* \"#utility.yul\":3483:3500   */\n      add\n        /* \"#utility.yul\":3474:3480   */\n      dup5\n        /* \"#utility.yul\":3430:3501   */\n      tag_59\n      jump\t// in\n    tag_109:\n        /* \"#utility.yul\":3286:3508   */\n      swap3\n      swap2\n      pop\n      pop\n      jump\t// out\n        /* \"#utility.yul\":3514:3846   */\n    tag_33:\n        /* \"#utility.yul\":3635:3639   */\n      0x00\n        /* \"#utility.yul\":3673:3675   */\n      0x40\n        /* \"#utility.yul\":3662:3671   */\n      dup3\n        /* \"#utility.yul\":3658:3676   */\n      add\n        /* \"#utility.yul\":3650:3676   */\n      swap1\n      pop\n        /* \"#utility.yul\":3686:3757   */\n      tag_111\n        /* \"#utility.yul\":3754:3755   */\n      0x00\n        /* \"#utility.yul\":3743:3752   */\n      dup4\n        /* \"#utility.yul\":3739:3756   */\n      add\n        /* \"#utility.yul\":3730:3736   */\n      dup6\n        /* \"#utility.yul\":3686:3757   */\n      tag_59\n      jump\t// in\n    tag_111:\n        /* \"#utility.yul\":3767:3839   */\n      tag_112\n        /* \"#utility.yul\":3835:3837   */\n      0x20\n        /* \"#utility.yul\":3824:3833   */\n      dup4\n        /* \"#utility.yul\":3820:3838   */\n      add\n        /* \"#utility.yul\":3811:3817   */\n      dup5\n        /* \"#utility.yul\":3767:3839   */\n      tag_59\n      jump\t// in\n    tag_112:\n        /* \"#utility.yul\":3514:3846   */\n      swap4\n      swap3\n      pop\n      pop\n      pop\n      jump\t// out\n        /* \"#utility.yul\":3852:3942   */\n    tag_60:\n        /* \"#utility.yul\":3886:3893   */\n      0x00\n        /* \"#utility.yul\":3929:3934   */\n      dup2\n        /* \"#utility.yul\":3922:3935   */\n      iszero\n        /* \"#utility.yul\":3915:3936   */\n      iszero\n        /* \"#utility.yul\":3904:3936   */\n      swap1\n      pop\n        /* \"#utility.yul\":3852:3942   */\n      swap2\n      swap1\n      pop\n      jump\t// out\n        /* \"#utility.yul\":3948:4064   */\n    tag_61:\n        /* \"#utility.yul\":4018:4039   */\n      tag_115\n        /* \"#utility.yul\":4033:4038   */\n      dup2\n        /* \"#utility.yul\":4018:4039   */\n      tag_60\n      jump\t// in\n    tag_115:\n        /* \"#utility.yul\":4011:4016   */\n      dup2\n        /* \"#utility.yul\":4008:4040   */\n      eq\n        /* \"#utility.yul\":3998:4058   */\n      tag_116\n      jumpi\n        /* \"#utility.yul\":4054:4055   */\n      0x00\n        /* \"#utility.yul\":4051:4052   */\n      dup1\n        /* \"#utility.yul\":4044:4056   */\n      revert\n        /* \"#utility.yul\":3998:4058   */\n    tag_116:\n        /* \"#utility.yul\":3948:4064   */\n      pop\n      jump\t// out\n        /* \"#utility.yul\":4070:4207   */\n    tag_62:\n        /* \"#utility.yul\":4124:4129   */\n      0x00\n        /* \"#utility.yul\":4155:4161   */\n      dup2\n        /* \"#utility.yul\":4149:4162   */\n      mload\n        /* \"#utility.yul\":4140:4162   */\n      swap1\n      pop\n        /* \"#utility.yul\":4171:4201   */\n      tag_118\n        /* \"#utility.yul\":4195:4200   */\n      dup2\n        /* \"#utility.yul\":4171:4201   */\n      tag_61\n      jump\t// in\n    tag_118:\n        /* \"#utility.yul\":4070:4207   */\n      swap3\n      swap2\n      pop\n      pop\n      jump\t// out\n        /* \"#utility.yul\":4213:4558   */\n    tag_37:\n        /* \"#utility.yul\":4280:4286   */\n      0x00\n        /* \"#utility.yul\":4329:4331   */\n      0x20\n        /* \"#utility.yul\":4317:4326   */\n      dup3\n        /* \"#utility.yul\":4308:4315   */\n      dup5\n        /* \"#utility.yul\":4304:4327   */\n      sub\n        /* \"#utility.yul\":4300:4332   */\n      slt\n        /* \"#utility.yul\":4297:4416   */\n      iszero\n      tag_120\n      jumpi\n        /* \"#utility.yul\":4335:4414   */\n      tag_121\n      tag_52\n      jump\t// in\n    tag_121:\n        /* \"#utility.yul\":4297:4416   */\n    tag_120:\n        /* \"#utility.yul\":4455:4456   */\n      0x00\n        /* \"#utility.yul\":4480:4541   */\n      tag_122\n        /* \"#utility.yul\":4533:4540   */\n      dup5\n        /* \"#utility.yul\":4524:4530   */\n      dup3\n        /* \"#utility.yul\":4513:4522   */\n      dup6\n        /* \"#utility.yul\":4509:4531   */\n      add\n        /* \"#utility.yul\":4480:4541   */\n      tag_62\n      jump\t// in\n    tag_122:\n        /* \"#utility.yul\":4470:4541   */\n      swap2\n      pop\n        /* \"#utility.yul\":4426:4551   */\n      pop\n        /* \"#utility.yul\":4213:4558   */\n      swap3\n      swap2\n      pop\n      pop\n      jump\t// out\n\n    auxdata: 0xa2646970667358221220647da80104308ba36e40a8b061d34d67e473a57149210207a94fef39a099ec1864736f6c63430008150033\n}\n",
				"bytecode": {
					"linkReferences": {},
					"object": "608060405234801561000f575f80fd5b5060405161082b38038061082b8339818101604052810190610031919061012b565b7f69c1a4416562e119580e7e33e6c4009f5531b80cd0d08e393ec4feb51a72792c336040516100609190610195565b60405180910390a13360015f6101000a81548173ffffffffffffffffffffffffffffffffffffffff021916908373ffffffffffffffffffffffffffffffffffffffff160217905550335f806101000a81548173ffffffffffffffffffffffffffffffffffffffff021916908373ffffffffffffffffffffffffffffffffffffffff16021790555080600281905550506101ae565b5f80fd5b5f819050919050565b61010a816100f8565b8114610114575f80fd5b50565b5f8151905061012581610101565b92915050565b5f602082840312156101405761013f6100f4565b5b5f61014d84828501610117565b91505092915050565b5f73ffffffffffffffffffffffffffffffffffffffff82169050919050565b5f61017f82610156565b9050919050565b61018f81610175565b82525050565b5f6020820190506101a85f830184610186565b92915050565b610670806101bb5f395ff3fe608060405234801561000f575f80fd5b5060043610610055575f3560e01c806302d05d3f1461005957806306fdde03146100775780631a69523014610095578063898855ed146100b15780638da5cb5b146100cd575b5f80fd5b6100616100eb565b60405161006e9190610482565b60405180910390f35b61007f61010e565b60405161008c91906104b3565b60405180910390f35b6100af60048036038101906100aa919061050b565b610114565b005b6100cb60048036038101906100c69190610560565b6102f9565b005b6100d56103e3565b6040516100e2919061059a565b60405180910390f35b5f8054906101000a900473ffffffffffffffffffffffffffffffffffffffff1681565b60025481565b7f69c1a4416562e119580e7e33e6c4009f5531b80cd0d08e393ec4feb51a72792c33604051610143919061059a565b60405180910390a17f69c1a4416562e119580e7e33e6c4009f5531b80cd0d08e393ec4feb51a72792c5f8054906101000a900473ffffffffffffffffffffffffffffffffffffffff16604051610199919061059a565b60405180910390a160015f9054906101000a900473ffffffffffffffffffffffffffffffffffffffff1673ffffffffffffffffffffffffffffffffffffffff163373ffffffffffffffffffffffffffffffffffffffff16036102f6575f8054906101000a900473ffffffffffffffffffffffffffffffffffffffff1673ffffffffffffffffffffffffffffffffffffffff1663c3cee9c160015f9054906101000a900473ffffffffffffffffffffffffffffffffffffffff16836040518363ffffffff1660e01b81526004016102709291906105b3565b602060405180830381865afa15801561028b573d5f803e3d5ffd5b505050506040513d601f19601f820116820180604052508101906102af919061060f565b156102f5578060015f6101000a81548173ffffffffffffffffffffffffffffffffffffffff021916908373ffffffffffffffffffffffffffffffffffffffff1602179055505b5b50565b7f69c1a4416562e119580e7e33e6c4009f5531b80cd0d08e393ec4feb51a72792c33604051610328919061059a565b60405180910390a17f69c1a4416562e119580e7e33e6c4009f5531b80cd0d08e393ec4feb51a72792c5f8054906101000a900473ffffffffffffffffffffffffffffffffffffffff1660405161037e919061059a565b60405180910390a15f8054906101000a900473ffffffffffffffffffffffffffffffffffffffff1673ffffffffffffffffffffffffffffffffffffffff163373ffffffffffffffffffffffffffffffffffffffff16036103e057806002819055505b50565b60015f9054906101000a900473ffffffffffffffffffffffffffffffffffffffff1681565b5f73ffffffffffffffffffffffffffffffffffffffff82169050919050565b5f819050919050565b5f61044a61044561044084610408565b610427565b610408565b9050919050565b5f61045b82610430565b9050919050565b5f61046c82610451565b9050919050565b61047c81610462565b82525050565b5f6020820190506104955f830184610473565b92915050565b5f819050919050565b6104ad8161049b565b82525050565b5f6020820190506104c65f8301846104a4565b92915050565b5f80fd5b5f6104da82610408565b9050919050565b6104ea816104d0565b81146104f4575f80fd5b50565b5f81359050610505816104e1565b92915050565b5f602082840312156105205761051f6104cc565b5b5f61052d848285016104f7565b91505092915050565b61053f8161049b565b8114610549575f80fd5b50565b5f8135905061055a81610536565b92915050565b5f60208284031215610575576105746104cc565b5b5f6105828482850161054c565b91505092915050565b610594816104d0565b82525050565b5f6020820190506105ad5f83018461058b565b92915050565b5f6040820190506105c65f83018561058b565b6105d3602083018461058b565b9392505050565b5f8115159050919050565b6105ee816105da565b81146105f8575f80fd5b50565b5f81519050610609816105e5565b92915050565b5f60208284031215610624576106236104cc565b5b5f610631848285016105fb565b9150509291505056fea2646970667358221220647da80104308ba36e40a8b061d34d67e473a57149210207a94fef39a099ec1864736f6c63430008150033",
					"opcodes": "PUSH1 0x80 PUSH1 0x40 MSTORE CALLVALUE DUP1 ISZERO PUSH2 0xF JUMPI PUSH0 DUP1 REVERT JUMPDEST POP PUSH1 0x40 MLOAD PUSH2 0x82B CODESIZE SUB DUP1 PUSH2 0x82B DUP4 CODECOPY DUP2 DUP2 ADD PUSH1 0x40 MSTORE DUP2 ADD SWAP1 PUSH2 0x31 SWAP2 SWAP1 PUSH2 0x12B JUMP JUMPDEST PUSH32 0x69C1A4416562E119580E7E33E6C4009F5531B80CD0D08E393EC4FEB51A72792C CALLER PUSH1 0x40 MLOAD PUSH2 0x60 SWAP2 SWAP1 PUSH2 0x195 JUMP JUMPDEST PUSH1 0x40 MLOAD DUP1 SWAP2 SUB SWAP1 LOG1 CALLER PUSH1 0x1 PUSH0 PUSH2 0x100 EXP DUP2 SLOAD DUP2 PUSH20 0xFFFFFFFFFFFFFFFFFFFFFFFFFFFFFFFFFFFFFFFF MUL NOT AND SWAP1 DUP4 PUSH20 0xFFFFFFFFFFFFFFFFFFFFFFFFFFFFFFFFFFFFFFFF AND MUL OR SWAP1 SSTORE POP CALLER PUSH0 DUP1 PUSH2 0x100 EXP DUP2 SLOAD DUP2 PUSH20 0xFFFFFFFFFFFFFFFFFFFFFFFFFFFFFFFFFFFFFFFF MUL NOT AND SWAP1 DUP4 PUSH20 0xFFFFFFFFFFFFFFFFFFFFFFFFFFFFFFFFFFFFFFFF AND MUL OR SWAP1 SSTORE POP DUP1 PUSH1 0x2 DUP2 SWAP1 SSTORE POP POP PUSH2 0x1AE JUMP JUMPDEST PUSH0 DUP1 REVERT JUMPDEST PUSH0 DUP2 SWAP1 POP SWAP2 SWAP1 POP JUMP JUMPDEST PUSH2 0x10A DUP2 PUSH2 0xF8 JUMP JUMPDEST DUP2 EQ PUSH2 0x114 JUMPI PUSH0 DUP1 REVERT JUMPDEST POP JUMP JUMPDEST PUSH0 DUP2 MLOAD SWAP1 POP PUSH2 0x125 DUP2 PUSH2 0x101 JUMP JUMPDEST SWAP3 SWAP2 POP POP JUMP JUMPDEST PUSH0 PUSH1 0x20 DUP3 DUP5 SUB SLT ISZERO PUSH2 0x140 JUMPI PUSH2 0x13F PUSH2 0xF4 JUMP JUMPDEST JUMPDEST PUSH0 PUSH2 0x14D DUP5 DUP3 DUP6 ADD PUSH2 0x117 JUMP JUMPDEST SWAP2 POP POP SWAP3 SWAP2 POP POP JUMP JUMPDEST PUSH0 PUSH20 0xFFFFFFFFFFFFFFFFFFFFFFFFFFFFFFFFFFFFFFFF DUP3 AND SWAP1 POP SWAP2 SWAP1 POP JUMP JUMPDEST PUSH0 PUSH2 0x17F DUP3 PUSH2 0x156 JUMP JUMPDEST SWAP1 POP SWAP2 SWAP1 POP JUMP JUMPDEST PUSH2 0x18F DUP2 PUSH2 0x175 JUMP JUMPDEST DUP3 MSTORE POP POP JUMP JUMPDEST PUSH0 PUSH1 0x20 DUP3 ADD SWAP1 POP PUSH2 0x1A8 PUSH0 DUP4 ADD DUP5 PUSH2 0x186 JUMP JUMPDEST SWAP3 SWAP2 POP POP JUMP JUMPDEST PUSH2 0x670 DUP1 PUSH2 0x1BB PUSH0 CODECOPY PUSH0 RETURN INVALID PUSH1 0x80 PUSH1 0x40 MSTORE CALLVALUE DUP1 ISZERO PUSH2 0xF JUMPI PUSH0 DUP1 REVERT JUMPDEST POP PUSH1 0x4 CALLDATASIZE LT PUSH2 0x55 JUMPI PUSH0 CALLDATALOAD PUSH1 0xE0 SHR DUP1 PUSH4 0x2D05D3F EQ PUSH2 0x59 JUMPI DUP1 PUSH4 0x6FDDE03 EQ PUSH2 0x77 JUMPI DUP1 PUSH4 0x1A695230 EQ PUSH2 0x95 JUMPI DUP1 PUSH4 0x898855ED EQ PUSH2 0xB1 JUMPI DUP1 PUSH4 0x8DA5CB5B EQ PUSH2 0xCD JUMPI JUMPDEST PUSH0 DUP1 REVERT JUMPDEST PUSH2 0x61 PUSH2 0xEB JUMP JUMPDEST PUSH1 0x40 MLOAD PUSH2 0x6E SWAP2 SWAP1 PUSH2 0x482 JUMP JUMPDEST PUSH1 0x40 MLOAD DUP1 SWAP2 SUB SWAP1 RETURN JUMPDEST PUSH2 0x7F PUSH2 0x10E JUMP JUMPDEST PUSH1 0x40 MLOAD PUSH2 0x8C SWAP2 SWAP1 PUSH2 0x4B3 JUMP JUMPDEST PUSH1 0x40 MLOAD DUP1 SWAP2 SUB SWAP1 RETURN JUMPDEST PUSH2 0xAF PUSH1 0x4 DUP1 CALLDATASIZE SUB DUP2 ADD SWAP1 PUSH2 0xAA SWAP2 SWAP1 PUSH2 0x50B JUMP JUMPDEST PUSH2 0x114 JUMP JUMPDEST STOP JUMPDEST PUSH2 0xCB PUSH1 0x4 DUP1 CALLDATASIZE SUB DUP2 ADD SWAP1 PUSH2 0xC6 SWAP2 SWAP1 PUSH2 0x560 JUMP JUMPDEST PUSH2 0x2F9 JUMP JUMPDEST STOP JUMPDEST PUSH2 0xD5 PUSH2 0x3E3 JUMP JUMPDEST PUSH1 0x40 MLOAD PUSH2 0xE2 SWAP2 SWAP1 PUSH2 0x59A JUMP JUMPDEST PUSH1 0x40 MLOAD DUP1 SWAP2 SUB SWAP1 RETURN JUMPDEST PUSH0 DUP1 SLOAD SWAP1 PUSH2 0x100 EXP SWAP1 DIV PUSH20 0xFFFFFFFFFFFFFFFFFFFFFFFFFFFFFFFFFFFFFFFF AND DUP2 JUMP JUMPDEST PUSH1 0x2 SLOAD DUP2 JUMP JUMPDEST PUSH32 0x69C1A4416562E119580E7E33E6C4009F5531B80CD0D08E393EC4FEB51A72792C CALLER PUSH1 0x40 MLOAD PUSH2 0x143 SWAP2 SWAP1 PUSH2 0x59A JUMP JUMPDEST PUSH1 0x40 MLOAD DUP1 SWAP2 SUB SWAP1 LOG1 PUSH32 0x69C1A4416562E119580E7E33E6C4009F5531B80CD0D08E393EC4FEB51A72792C PUSH0 DUP1 SLOAD SWAP1 PUSH2 0x100 EXP SWAP1 DIV PUSH20 0xFFFFFFFFFFFFFFFFFFFFFFFFFFFFFFFFFFFFFFFF AND PUSH1 0x40 MLOAD PUSH2 0x199 SWAP2 SWAP1 PUSH2 0x59A JUMP JUMPDEST PUSH1 0x40 MLOAD DUP1 SWAP2 SUB SWAP1 LOG1 PUSH1 0x1 PUSH0 SWAP1 SLOAD SWAP1 PUSH2 0x100 EXP SWAP1 DIV PUSH20 0xFFFFFFFFFFFFFFFFFFFFFFFFFFFFFFFFFFFFFFFF AND PUSH20 0xFFFFFFFFFFFFFFFFFFFFFFFFFFFFFFFFFFFFFFFF AND CALLER PUSH20 0xFFFFFFFFFFFFFFFFFFFFFFFFFFFFFFFFFFFFFFFF AND SUB PUSH2 0x2F6 JUMPI PUSH0 DUP1 SLOAD SWAP1 PUSH2 0x100 EXP SWAP1 DIV PUSH20 0xFFFFFFFFFFFFFFFFFFFFFFFFFFFFFFFFFFFFFFFF AND PUSH20 0xFFFFFFFFFFFFFFFFFFFFFFFFFFFFFFFFFFFFFFFF AND PUSH4 0xC3CEE9C1 PUSH1 0x1 PUSH0 SWAP1 SLOAD SWAP1 PUSH2 0x100 EXP SWAP1 DIV PUSH20 0xFFFFFFFFFFFFFFFFFFFFFFFFFFFFFFFFFFFFFFFF AND DUP4 PUSH1 0x40 MLOAD DUP4 PUSH4 0xFFFFFFFF AND PUSH1 0xE0 SHL DUP2 MSTORE PUSH1 0x4 ADD PUSH2 0x270 SWAP3 SWAP2 SWAP1 PUSH2 0x5B3 JUMP JUMPDEST PUSH1 0x20 PUSH1 0x40 MLOAD DUP1 DUP4 SUB DUP2 DUP7 GAS STATICCALL ISZERO DUP1 ISZERO PUSH2 0x28B JUMPI RETURNDATASIZE PUSH0 DUP1 RETURNDATACOPY RETURNDATASIZE PUSH0 REVERT JUMPDEST POP POP POP POP PUSH1 0x40 MLOAD RETURNDATASIZE PUSH1 0x1F NOT PUSH1 0x1F DUP3 ADD AND DUP3 ADD DUP1 PUSH1 0x40 MSTORE POP DUP2 ADD SWAP1 PUSH2 0x2AF SWAP2 SWAP1 PUSH2 0x60F JUMP JUMPDEST ISZERO PUSH2 0x2F5 JUMPI DUP1 PUSH1 0x1 PUSH0 PUSH2 0x100 EXP DUP2 SLOAD DUP2 PUSH20 0xFFFFFFFFFFFFFFFFFFFFFFFFFFFFFFFFFFFFFFFF MUL NOT AND SWAP1 DUP4 PUSH20 0xFFFFFFFFFFFFFFFFFFFFFFFFFFFFFFFFFFFFFFFF AND MUL OR SWAP1 SSTORE POP JUMPDEST JUMPDEST POP JUMP JUMPDEST PUSH32 0x69C1A4416562E119580E7E33E6C4009F5531B80CD0D08E393EC4FEB51A72792C CALLER PUSH1 0x40 MLOAD PUSH2 0x328 SWAP2 SWAP1 PUSH2 0x59A JUMP JUMPDEST PUSH1 0x40 MLOAD DUP1 SWAP2 SUB SWAP1 LOG1 PUSH32 0x69C1A4416562E119580E7E33E6C4009F5531B80CD0D08E393EC4FEB51A72792C PUSH0 DUP1 SLOAD SWAP1 PUSH2 0x100 EXP SWAP1 DIV PUSH20 0xFFFFFFFFFFFFFFFFFFFFFFFFFFFFFFFFFFFFFFFF AND PUSH1 0x40 MLOAD PUSH2 0x37E SWAP2 SWAP1 PUSH2 0x59A JUMP JUMPDEST PUSH1 0x40 MLOAD DUP1 SWAP2 SUB SWAP1 LOG1 PUSH0 DUP1 SLOAD SWAP1 PUSH2 0x100 EXP SWAP1 DIV PUSH20 0xFFFFFFFFFFFFFFFFFFFFFFFFFFFFFFFFFFFFFFFF AND PUSH20 0xFFFFFFFFFFFFFFFFFFFFFFFFFFFFFFFFFFFFFFFF AND CALLER PUSH20 0xFFFFFFFFFFFFFFFFFFFFFFFFFFFFFFFFFFFFFFFF AND SUB PUSH2 0x3E0 JUMPI DUP1 PUSH1 0x2 DUP2 SWAP1 SSTORE POP JUMPDEST POP JUMP JUMPDEST PUSH1 0x1 PUSH0 SWAP1 SLOAD SWAP1 PUSH2 0x100 EXP SWAP1 DIV PUSH20 0xFFFFFFFFFFFFFFFFFFFFFFFFFFFFFFFFFFFFFFFF AND DUP2 JUMP JUMPDEST PUSH0 PUSH20 0xFFFFFFFFFFFFFFFFFFFFFFFFFFFFFFFFFFFFFFFF DUP3 AND SWAP1 POP SWAP2 SWAP1 POP JUMP JUMPDEST PUSH0 DUP2 SWAP1 POP SWAP2 SWAP1 POP JUMP JUMPDEST PUSH0 PUSH2 0x44A PUSH2 0x445 PUSH2 0x440 DUP5 PUSH2 0x408 JUMP JUMPDEST PUSH2 0x427 JUMP JUMPDEST PUSH2 0x408 JUMP JUMPDEST SWAP1 POP SWAP2 SWAP1 POP JUMP JUMPDEST PUSH0 PUSH2 0x45B DUP3 PUSH2 0x430 JUMP JUMPDEST SWAP1 POP SWAP2 SWAP1 POP JUMP JUMPDEST PUSH0 PUSH2 0x46C DUP3 PUSH2 0x451 JUMP JUMPDEST SWAP1 POP SWAP2 SWAP1 POP JUMP JUMPDEST PUSH2 0x47C DUP2 PUSH2 0x462 JUMP JUMPDEST DUP3 MSTORE POP POP JUMP JUMPDEST PUSH0 PUSH1 0x20 DUP3 ADD SWAP1 POP PUSH2 0x495 PUSH0 DUP4 ADD DUP5 PUSH2 0x473 JUMP JUMPDEST SWAP3 SWAP2 POP POP JUMP JUMPDEST PUSH0 DUP2 SWAP1 POP SWAP2 SWAP1 POP JUMP JUMPDEST PUSH2 0x4AD DUP2 PUSH2 0x49B JUMP JUMPDEST DUP3 MSTORE POP POP JUMP JUMPDEST PUSH0 PUSH1 0x20 DUP3 ADD SWAP1 POP PUSH2 0x4C6 PUSH0 DUP4 ADD DUP5 PUSH2 0x4A4 JUMP JUMPDEST SWAP3 SWAP2 POP POP JUMP JUMPDEST PUSH0 DUP1 REVERT JUMPDEST PUSH0 PUSH2 0x4DA DUP3 PUSH2 0x408 JUMP JUMPDEST SWAP1 POP SWAP2 SWAP1 POP JUMP JUMPDEST PUSH2 0x4EA DUP2 PUSH2 0x4D0 JUMP JUMPDEST DUP2 EQ PUSH2 0x4F4 JUMPI PUSH0 DUP1 REVERT JUMPDEST POP JUMP JUMPDEST PUSH0 DUP2 CALLDATALOAD SWAP1 POP PUSH2 0x505 DUP2 PUSH2 0x4E1 JUMP JUMPDEST SWAP3 SWAP2 POP POP JUMP JUMPDEST PUSH0 PUSH1 0x20 DUP3 DUP5 SUB SLT ISZERO PUSH2 0x520 JUMPI PUSH2 0x51F PUSH2 0x4CC JUMP JUMPDEST JUMPDEST PUSH0 PUSH2 0x52D DUP5 DUP3 DUP6 ADD PUSH2 0x4F7 JUMP JUMPDEST SWAP2 POP POP SWAP3 SWAP2 POP POP JUMP JUMPDEST PUSH2 0x53F DUP2 PUSH2 0x49B JUMP JUMPDEST DUP2 EQ PUSH2 0x549 JUMPI PUSH0 DUP1 REVERT JUMPDEST POP JUMP JUMPDEST PUSH0 DUP2 CALLDATALOAD SWAP1 POP PUSH2 0x55A DUP2 PUSH2 0x536 JUMP JUMPDEST SWAP3 SWAP2 POP POP JUMP JUMPDEST PUSH0 PUSH1 0x20 DUP3 DUP5 SUB SLT ISZERO PUSH2 0x575 JUMPI PUSH2 0x574 PUSH2 0x4CC JUMP JUMPDEST JUMPDEST PUSH0 PUSH2 0x582 DUP5 DUP3 DUP6 ADD PUSH2 0x54C JUMP JUMPDEST SWAP2 POP POP SWAP3 SWAP2 POP POP JUMP JUMPDEST PUSH2 0x594 DUP2 PUSH2 0x4D0 JUMP JUMPDEST DUP3 MSTORE POP POP JUMP JUMPDEST PUSH0 PUSH1 0x20 DUP3 ADD SWAP1 POP PUSH2 0x5AD PUSH0 DUP4 ADD DUP5 PUSH2 0x58B JUMP JUMPDEST SWAP3 SWAP2 POP POP JUMP JUMPDEST PUSH0 PUSH1 0x40 DUP3 ADD SWAP1 POP PUSH2 0x5C6 PUSH0 DUP4 ADD DUP6 PUSH2 0x58B JUMP JUMPDEST PUSH2 0x5D3 PUSH1 0x20 DUP4 ADD DUP5 PUSH2 0x58B JUMP JUMPDEST SWAP4 SWAP3 POP POP POP JUMP JUMPDEST PUSH0 DUP2 ISZERO ISZERO SWAP1 POP SWAP2 SWAP1 POP JUMP JUMPDEST PUSH2 0x5EE DUP2 PUSH2 0x5DA JUMP JUMPDEST DUP2 EQ PUSH2 0x5F8 JUMPI PUSH0 DUP1 REVERT JUMPDEST POP JUMP JUMPDEST PUSH0 DUP2 MLOAD SWAP1 POP PUSH2 0x609 DUP2 PUSH2 0x5E5 JUMP JUMPDEST SWAP3 SWAP2 POP POP JUMP JUMPDEST PUSH0 PUSH1 0x20 DUP3 DUP5 SUB SLT ISZERO PUSH2 0x624 JUMPI PUSH2 0x623 PUSH2 0x4CC JUMP JUMPDEST JUMPDEST PUSH0 PUSH2 0x631 DUP5 DUP3 DUP6 ADD PUSH2 0x5FB JUMP JUMPDEST SWAP2 POP POP SWAP3 SWAP2 POP POP JUMP INVALID LOG2 PUSH5 0x6970667358 0x22 SLT KECCAK256 PUSH5 0x7DA8010430 DUP12 LOG3 PUSH15 0x40A8B061D34D67E473A57149210207 0xA9 0x4F 0xEF CODECOPY LOG0 SWAP10 0xEC XOR PUSH5 0x736F6C6343 STOP ADDMOD ISZERO STOP CALLER "
				},
				"gasEstimates": {
					"creation": {
						"codeDepositCost": "329600",
						"executionCost": "infinite",
						"totalCost": "infinite"
					},
					"external": {
						"changeName(bytes32)": "infinite",
						"creator()": "infinite",
						"name()": "2425",
						"owner()": "2574",
						"transfer(address)": "infinite"
					}
				},
				"methodIdentifiers": {
					"changeName(bytes32)": "898855ed",
					"creator()": "02d05d3f",
					"name()": "06fdde03",
					"owner()": "8da5cb5b",
					"transfer(address)": "1a695230"
				}
			},
			"storageLayout": {
				"storage": [
					{
						"astId": 4,
						"contract": "contract-callOtherContract.sol:OwnedToken",
						"label": "creator",
						"offset": 0,
						"slot": "0",
						"type": "t_contract(TokenCreator)157"
					},
					{
						"astId": 6,
						"contract": "contract-callOtherContract.sol:OwnedToken",
						"label": "owner",
						"offset": 0,
						"slot": "1",
						"type": "t_address"
					},
					{
						"astId": 8,
						"contract": "contract-callOtherContract.sol:OwnedToken",
						"label": "name",
						"offset": 0,
						"slot": "2",
						"type": "t_bytes32"
					}
				],
				"types": {
					"t_address": {
						"encoding": "inplace",
						"label": "address",
						"numberOfBytes": "20"
					},
					"t_bytes32": {
						"encoding": "inplace",
						"label": "bytes32",
						"numberOfBytes": "32"
					},
					"t_contract(TokenCreator)157": {
						"encoding": "inplace",
						"label": "contract TokenCreator",
						"numberOfBytes": "20"
					}
				}
			},
			"userdoc": {
				"kind": "user",
				"methods": {},
				"version": 1
			}
		}
	}
}