{
	"contract-modifier.sol": {
		"Mutex": {
			"abi": [
				{
					"inputs": [],
					"name": "f",
					"outputs": [
						{
							"internalType": "uint256",
							"name": "",
							"type": "uint256"
						}
					],
					"stateMutability": "nonpayable",
					"type": "function"
				}
			],
			"devdoc": {
				"kind": "dev",
				"methods": {},
				"version": 1
			},
			"evm": {
				"assembly": "    /* \"contract-modifier.sol\":1890:2552  contract Mutex {... */\n  mstore(0x40, 0x80)\n  callvalue\n  dup1\n  iszero\n  tag_1\n  jumpi\n  0x00\n  dup1\n  revert\ntag_1:\n  pop\n  dataSize(sub_0)\n  dup1\n  dataOffset(sub_0)\n  0x00\n  codecopy\n  0x00\n  return\nstop\n\nsub_0: assembly {\n        /* \"contract-modifier.sol\":1890:2552  contract Mutex {... */\n      mstore(0x40, 0x80)\n      callvalue\n      dup1\n      iszero\n      tag_1\n      jumpi\n      0x00\n      dup1\n      revert\n    tag_1:\n      pop\n      jumpi(tag_2, lt(calldatasize, 0x04))\n      shr(0xe0, calldataload(0x00))\n      dup1\n      0x26121ff0\n      eq\n      tag_3\n      jumpi\n    tag_2:\n      0x00\n      dup1\n      revert\n        /* \"contract-modifier.sol\":2404:2550  function f() public noReentrancy returns (uint) {... */\n    tag_3:\n      tag_4\n      tag_5\n      jump\t// in\n    tag_4:\n      mload(0x40)\n      tag_6\n      swap2\n      swap1\n      tag_7\n      jump\t// in\n    tag_6:\n      mload(0x40)\n      dup1\n      swap2\n      sub\n      swap1\n      return\n    tag_5:\n        /* \"contract-modifier.sol\":2446:2450  uint */\n      0x00\n        /* \"contract-modifier.sol\":2007:2013  locked */\n      dup1\n      0x00\n      swap1\n      sload\n      swap1\n      0x0100\n      exp\n      swap1\n      div\n      0xff\n      and\n        /* \"contract-modifier.sol\":2006:2013  !locked */\n      iszero\n        /* \"contract-modifier.sol\":1985:2054  require(... */\n      tag_9\n      jumpi\n      mload(0x40)\n      0x08c379a000000000000000000000000000000000000000000000000000000000\n      dup2\n      mstore\n      0x04\n      add\n      tag_10\n      swap1\n      tag_11\n      jump\t// in\n    tag_10:\n      mload(0x40)\n      dup1\n      swap2\n      sub\n      swap1\n      revert\n    tag_9:\n        /* \"contract-modifier.sol\":2073:2077  true */\n      0x01\n        /* \"contract-modifier.sol\":2064:2070  locked */\n      0x00\n      dup1\n        /* \"contract-modifier.sol\":2064:2077  locked = true */\n      0x0100\n      exp\n      dup2\n      sload\n      dup2\n      0xff\n      mul\n      not\n      and\n      swap1\n      dup4\n      iszero\n      iszero\n      mul\n      or\n      swap1\n      sstore\n      pop\n        /* \"contract-modifier.sol\":2463:2475  bool success */\n      0x00\n        /* \"contract-modifier.sol\":2480:2490  msg.sender */\n      caller\n        /* \"contract-modifier.sol\":2480:2495  msg.sender.call */\n      0xffffffffffffffffffffffffffffffffffffffff\n      and\n        /* \"contract-modifier.sol\":2480:2499  msg.sender.call(\"\") */\n      mload(0x40)\n      tag_13\n      swap1\n      tag_14\n      jump\t// in\n    tag_13:\n      0x00\n      mload(0x40)\n      dup1\n      dup4\n      sub\n      dup2\n      0x00\n      dup7\n      gas\n      call\n      swap2\n      pop\n      pop\n      returndatasize\n      dup1\n      0x00\n      dup2\n      eq\n      tag_17\n      jumpi\n      mload(0x40)\n      swap2\n      pop\n      and(add(returndatasize, 0x3f), not(0x1f))\n      dup3\n      add\n      0x40\n      mstore\n      returndatasize\n      dup3\n      mstore\n      returndatasize\n      0x00\n      0x20\n      dup5\n      add\n      returndatacopy\n      jump(tag_16)\n    tag_17:\n      0x60\n      swap2\n      pop\n    tag_16:\n      pop\n        /* \"contract-modifier.sol\":2462:2499  (bool success,) = msg.sender.call(\"\") */\n      pop\n      swap1\n      pop\n        /* \"contract-modifier.sol\":2517:2524  success */\n      dup1\n        /* \"contract-modifier.sol\":2509:2525  require(success) */\n      tag_18\n      jumpi\n      0x00\n      dup1\n      revert\n    tag_18:\n        /* \"contract-modifier.sol\":2542:2543  7 */\n      0x07\n        /* \"contract-modifier.sol\":2535:2543  return 7 */\n      swap2\n      pop\n      pop\n        /* \"contract-modifier.sol\":2107:2112  false */\n      0x00\n        /* \"contract-modifier.sol\":2098:2104  locked */\n      dup1\n      0x00\n        /* \"contract-modifier.sol\":2098:2112  locked = false */\n      0x0100\n      exp\n      dup2\n      sload\n      dup2\n      0xff\n      mul\n      not\n      and\n      swap1\n      dup4\n      iszero\n      iszero\n      mul\n      or\n      swap1\n      sstore\n      pop\n        /* \"contract-modifier.sol\":2404:2550  function f() public noReentrancy returns (uint) {... */\n      swap1\n      jump\t// out\n        /* \"#utility.yul\":7:84   */\n    tag_19:\n        /* \"#utility.yul\":44:51   */\n      0x00\n        /* \"#utility.yul\":73:78   */\n      dup2\n        /* \"#utility.yul\":62:78   */\n      swap1\n      pop\n        /* \"#utility.yul\":7:84   */\n      swap2\n      swap1\n      pop\n      jump\t// out\n        /* \"#utility.yul\":90:208   */\n    tag_20:\n        /* \"#utility.yul\":177:201   */\n      tag_30\n        /* \"#utility.yul\":195:200   */\n      dup2\n        /* \"#utility.yul\":177:201   */\n      tag_19\n      jump\t// in\n    tag_30:\n        /* \"#utility.yul\":172:175   */\n      dup3\n        /* \"#utility.yul\":165:202   */\n      mstore\n        /* \"#utility.yul\":90:208   */\n      pop\n      pop\n      jump\t// out\n        /* \"#utility.yul\":214:436   */\n    tag_7:\n        /* \"#utility.yul\":307:311   */\n      0x00\n        /* \"#utility.yul\":345:347   */\n      0x20\n        /* \"#utility.yul\":334:343   */\n      dup3\n        /* \"#utility.yul\":330:348   */\n      add\n        /* \"#utility.yul\":322:348   */\n      swap1\n      pop\n        /* \"#utility.yul\":358:429   */\n      tag_32\n        /* \"#utility.yul\":426:427   */\n      0x00\n        /* \"#utility.yul\":415:424   */\n      dup4\n        /* \"#utility.yul\":411:428   */\n      add\n        /* \"#utility.yul\":402:408   */\n      dup5\n        /* \"#utility.yul\":358:429   */\n      tag_20\n      jump\t// in\n    tag_32:\n        /* \"#utility.yul\":214:436   */\n      swap3\n      swap2\n      pop\n      pop\n      jump\t// out\n        /* \"#utility.yul\":442:611   */\n    tag_21:\n        /* \"#utility.yul\":526:537   */\n      0x00\n        /* \"#utility.yul\":560:566   */\n      dup3\n        /* \"#utility.yul\":555:558   */\n      dup3\n        /* \"#utility.yul\":548:567   */\n      mstore\n        /* \"#utility.yul\":600:604   */\n      0x20\n        /* \"#utility.yul\":595:598   */\n      dup3\n        /* \"#utility.yul\":591:605   */\n      add\n        /* \"#utility.yul\":576:605   */\n      swap1\n      pop\n        /* \"#utility.yul\":442:611   */\n      swap3\n      swap2\n      pop\n      pop\n      jump\t// out\n        /* \"#utility.yul\":617:782   */\n    tag_22:\n        /* \"#utility.yul\":757:774   */\n      0x5265656e7472616e742063616c6c2e0000000000000000000000000000000000\n        /* \"#utility.yul\":753:754   */\n      0x00\n        /* \"#utility.yul\":745:751   */\n      dup3\n        /* \"#utility.yul\":741:755   */\n      add\n        /* \"#utility.yul\":734:775   */\n      mstore\n        /* \"#utility.yul\":617:782   */\n      pop\n      jump\t// out\n        /* \"#utility.yul\":788:1154   */\n    tag_23:\n        /* \"#utility.yul\":930:933   */\n      0x00\n        /* \"#utility.yul\":951:1018   */\n      tag_36\n        /* \"#utility.yul\":1015:1017   */\n      0x0f\n        /* \"#utility.yul\":1010:1013   */\n      dup4\n        /* \"#utility.yul\":951:1018   */\n      tag_21\n      jump\t// in\n    tag_36:\n        /* \"#utility.yul\":944:1018   */\n      swap2\n      pop\n        /* \"#utility.yul\":1027:1120   */\n      tag_37\n        /* \"#utility.yul\":1116:1119   */\n      dup3\n        /* \"#utility.yul\":1027:1120   */\n      tag_22\n      jump\t// in\n    tag_37:\n        /* \"#utility.yul\":1145:1147   */\n      0x20\n        /* \"#utility.yul\":1140:1143   */\n      dup3\n        /* \"#utility.yul\":1136:1148   */\n      add\n        /* \"#utility.yul\":1129:1148   */\n      swap1\n      pop\n        /* \"#utility.yul\":788:1154   */\n      swap2\n      swap1\n      pop\n      jump\t// out\n        /* \"#utility.yul\":1160:1579   */\n    tag_11:\n        /* \"#utility.yul\":1326:1330   */\n      0x00\n        /* \"#utility.yul\":1364:1366   */\n      0x20\n        /* \"#utility.yul\":1353:1362   */\n      dup3\n        /* \"#utility.yul\":1349:1367   */\n      add\n        /* \"#utility.yul\":1341:1367   */\n      swap1\n      pop\n        /* \"#utility.yul\":1413:1422   */\n      dup2\n        /* \"#utility.yul\":1407:1411   */\n      dup2\n        /* \"#utility.yul\":1403:1423   */\n      sub\n        /* \"#utility.yul\":1399:1400   */\n      0x00\n        /* \"#utility.yul\":1388:1397   */\n      dup4\n        /* \"#utility.yul\":1384:1401   */\n      add\n        /* \"#utility.yul\":1377:1424   */\n      mstore\n        /* \"#utility.yul\":1441:1572   */\n      tag_39\n        /* \"#utility.yul\":1567:1571   */\n      dup2\n        /* \"#utility.yul\":1441:1572   */\n      tag_23\n      jump\t// in\n    tag_39:\n        /* \"#utility.yul\":1433:1572   */\n      swap1\n      pop\n        /* \"#utility.yul\":1160:1579   */\n      swap2\n      swap1\n      pop\n      jump\t// out\n        /* \"#utility.yul\":1585:1732   */\n    tag_24:\n        /* \"#utility.yul\":1686:1697   */\n      0x00\n        /* \"#utility.yul\":1723:1726   */\n      dup2\n        /* \"#utility.yul\":1708:1726   */\n      swap1\n      pop\n        /* \"#utility.yul\":1585:1732   */\n      swap3\n      swap2\n      pop\n      pop\n      jump\t// out\n        /* \"#utility.yul\":1738:1852   */\n    tag_25:\n      pop\n      jump\t// out\n        /* \"#utility.yul\":1858:2256   */\n    tag_26:\n        /* \"#utility.yul\":2017:2020   */\n      0x00\n        /* \"#utility.yul\":2038:2121   */\n      tag_43\n        /* \"#utility.yul\":2119:2120   */\n      0x00\n        /* \"#utility.yul\":2114:2117   */\n      dup4\n        /* \"#utility.yul\":2038:2121   */\n      tag_24\n      jump\t// in\n    tag_43:\n        /* \"#utility.yul\":2031:2121   */\n      swap2\n      pop\n        /* \"#utility.yul\":2130:2223   */\n      tag_44\n        /* \"#utility.yul\":2219:2222   */\n      dup3\n        /* \"#utility.yul\":2130:2223   */\n      tag_25\n      jump\t// in\n    tag_44:\n        /* \"#utility.yul\":2248:2249   */\n      0x00\n        /* \"#utility.yul\":2243:2246   */\n      dup3\n        /* \"#utility.yul\":2239:2250   */\n      add\n        /* \"#utility.yul\":2232:2250   */\n      swap1\n      pop\n        /* \"#utility.yul\":1858:2256   */\n      swap2\n      swap1\n      pop\n      jump\t// out\n        /* \"#utility.yul\":2262:2641   */\n    tag_14:\n        /* \"#utility.yul\":2446:2449   */\n      0x00\n        /* \"#utility.yul\":2468:2615   */\n      tag_46\n        /* \"#utility.yul\":2611:2614   */\n      dup3\n        /* \"#utility.yul\":2468:2615   */\n      tag_26\n      jump\t// in\n    tag_46:\n        /* \"#utility.yul\":2461:2615   */\n      swap2\n      pop\n        /* \"#utility.yul\":2632:2635   */\n      dup2\n        /* \"#utility.yul\":2625:2635   */\n      swap1\n      pop\n        /* \"#utility.yul\":2262:2641   */\n      swap2\n      swap1\n      pop\n      jump\t// out\n\n    auxdata: 0xa2646970667358221220e099f0d49b6ebe264286b01372b4b85a0b864857c8e7156aeff628bf139b583b64736f6c63430008120033\n}\n",
				"bytecode": {
					"linkReferences": {},
					"object": "608060405234801561001057600080fd5b5061027d806100206000396000f3fe608060405234801561001057600080fd5b506004361061002b5760003560e01c806326121ff014610030575b600080fd5b61003861004e565b6040516100459190610169565b60405180910390f35b60008060009054906101000a900460ff161561009f576040517f08c379a0000000000000000000000000000000000000000000000000000000008152600401610096906101e1565b60405180910390fd5b60016000806101000a81548160ff02191690831515021790555060003373ffffffffffffffffffffffffffffffffffffffff166040516100de90610232565b6000604051808303816000865af19150503d806000811461011b576040519150601f19603f3d011682016040523d82523d6000602084013e610120565b606091505b505090508061012e57600080fd5b600791505060008060006101000a81548160ff02191690831515021790555090565b6000819050919050565b61016381610150565b82525050565b600060208201905061017e600083018461015a565b92915050565b600082825260208201905092915050565b7f5265656e7472616e742063616c6c2e0000000000000000000000000000000000600082015250565b60006101cb600f83610184565b91506101d682610195565b602082019050919050565b600060208201905081810360008301526101fa816101be565b9050919050565b600081905092915050565b50565b600061021c600083610201565b91506102278261020c565b600082019050919050565b600061023d8261020f565b915081905091905056fea2646970667358221220e099f0d49b6ebe264286b01372b4b85a0b864857c8e7156aeff628bf139b583b64736f6c63430008120033",
					"opcodes": "PUSH1 0x80 PUSH1 0x40 MSTORE CALLVALUE DUP1 ISZERO PUSH2 0x10 JUMPI PUSH1 0x0 DUP1 REVERT JUMPDEST POP PUSH2 0x27D DUP1 PUSH2 0x20 PUSH1 0x0 CODECOPY PUSH1 0x0 RETURN INVALID PUSH1 0x80 PUSH1 0x40 MSTORE CALLVALUE DUP1 ISZERO PUSH2 0x10 JUMPI PUSH1 0x0 DUP1 REVERT JUMPDEST POP PUSH1 0x4 CALLDATASIZE LT PUSH2 0x2B JUMPI PUSH1 0x0 CALLDATALOAD PUSH1 0xE0 SHR DUP1 PUSH4 0x26121FF0 EQ PUSH2 0x30 JUMPI JUMPDEST PUSH1 0x0 DUP1 REVERT JUMPDEST PUSH2 0x38 PUSH2 0x4E JUMP JUMPDEST PUSH1 0x40 MLOAD PUSH2 0x45 SWAP2 SWAP1 PUSH2 0x169 JUMP JUMPDEST PUSH1 0x40 MLOAD DUP1 SWAP2 SUB SWAP1 RETURN JUMPDEST PUSH1 0x0 DUP1 PUSH1 0x0 SWAP1 SLOAD SWAP1 PUSH2 0x100 EXP SWAP1 DIV PUSH1 0xFF AND ISZERO PUSH2 0x9F JUMPI PUSH1 0x40 MLOAD PUSH32 0x8C379A000000000000000000000000000000000000000000000000000000000 DUP2 MSTORE PUSH1 0x4 ADD PUSH2 0x96 SWAP1 PUSH2 0x1E1 JUMP JUMPDEST PUSH1 0x40 MLOAD DUP1 SWAP2 SUB SWAP1 REVERT JUMPDEST PUSH1 0x1 PUSH1 0x0 DUP1 PUSH2 0x100 EXP DUP2 SLOAD DUP2 PUSH1 0xFF MUL NOT AND SWAP1 DUP4 ISZERO ISZERO MUL OR SWAP1 SSTORE POP PUSH1 0x0 CALLER PUSH20 0xFFFFFFFFFFFFFFFFFFFFFFFFFFFFFFFFFFFFFFFF AND PUSH1 0x40 MLOAD PUSH2 0xDE SWAP1 PUSH2 0x232 JUMP JUMPDEST PUSH1 0x0 PUSH1 0x40 MLOAD DUP1 DUP4 SUB DUP2 PUSH1 0x0 DUP7 GAS CALL SWAP2 POP POP RETURNDATASIZE DUP1 PUSH1 0x0 DUP2 EQ PUSH2 0x11B JUMPI PUSH1 0x40 MLOAD SWAP2 POP PUSH1 0x1F NOT PUSH1 0x3F RETURNDATASIZE ADD AND DUP3 ADD PUSH1 0x40 MSTORE RETURNDATASIZE DUP3 MSTORE RETURNDATASIZE PUSH1 0x0 PUSH1 0x20 DUP5 ADD RETURNDATACOPY PUSH2 0x120 JUMP JUMPDEST PUSH1 0x60 SWAP2 POP JUMPDEST POP POP SWAP1 POP DUP1 PUSH2 0x12E JUMPI PUSH1 0x0 DUP1 REVERT JUMPDEST PUSH1 0x7 SWAP2 POP POP PUSH1 0x0 DUP1 PUSH1 0x0 PUSH2 0x100 EXP DUP2 SLOAD DUP2 PUSH1 0xFF MUL NOT AND SWAP1 DUP4 ISZERO ISZERO MUL OR SWAP1 SSTORE POP SWAP1 JUMP JUMPDEST PUSH1 0x0 DUP2 SWAP1 POP SWAP2 SWAP1 POP JUMP JUMPDEST PUSH2 0x163 DUP2 PUSH2 0x150 JUMP JUMPDEST DUP3 MSTORE POP POP JUMP JUMPDEST PUSH1 0x0 PUSH1 0x20 DUP3 ADD SWAP1 POP PUSH2 0x17E PUSH1 0x0 DUP4 ADD DUP5 PUSH2 0x15A JUMP JUMPDEST SWAP3 SWAP2 POP POP JUMP JUMPDEST PUSH1 0x0 DUP3 DUP3 MSTORE PUSH1 0x20 DUP3 ADD SWAP1 POP SWAP3 SWAP2 POP POP JUMP JUMPDEST PUSH32 0x5265656E7472616E742063616C6C2E0000000000000000000000000000000000 PUSH1 0x0 DUP3 ADD MSTORE POP JUMP JUMPDEST PUSH1 0x0 PUSH2 0x1CB PUSH1 0xF DUP4 PUSH2 0x184 JUMP JUMPDEST SWAP2 POP PUSH2 0x1D6 DUP3 PUSH2 0x195 JUMP JUMPDEST PUSH1 0x20 DUP3 ADD SWAP1 POP SWAP2 SWAP1 POP JUMP JUMPDEST PUSH1 0x0 PUSH1 0x20 DUP3 ADD SWAP1 POP DUP2 DUP2 SUB PUSH1 0x0 DUP4 ADD MSTORE PUSH2 0x1FA DUP2 PUSH2 0x1BE JUMP JUMPDEST SWAP1 POP SWAP2 SWAP1 POP JUMP JUMPDEST PUSH1 0x0 DUP2 SWAP1 POP SWAP3 SWAP2 POP POP JUMP JUMPDEST POP JUMP JUMPDEST PUSH1 0x0 PUSH2 0x21C PUSH1 0x0 DUP4 PUSH2 0x201 JUMP JUMPDEST SWAP2 POP PUSH2 0x227 DUP3 PUSH2 0x20C JUMP JUMPDEST PUSH1 0x0 DUP3 ADD SWAP1 POP SWAP2 SWAP1 POP JUMP JUMPDEST PUSH1 0x0 PUSH2 0x23D DUP3 PUSH2 0x20F JUMP JUMPDEST SWAP2 POP DUP2 SWAP1 POP SWAP2 SWAP1 POP JUMP INVALID LOG2 PUSH5 0x6970667358 0x22 SLT KECCAK256 0xE0 SWAP10 CREATE 0xD4 SWAP12 PUSH15 0xBE264286B01372B4B85A0B864857C8 0xE7 ISZERO PUSH11 0xEFF628BF139B583B64736F PUSH13 0x63430008120033000000000000 "
				},
				"gasEstimates": {
					"creation": {
						"codeDepositCost": "127400",
						"executionCost": "171",
						"totalCost": "127571"
					},
					"external": {
						"f()": "infinite"
					}
				},
				"methodIdentifiers": {
					"f()": "26121ff0"
				}
			},
			"storageLayout": {
				"storage": [
					{
						"astId": 103,
						"contract": "contract-modifier.sol:Mutex",
						"label": "locked",
						"offset": 0,
						"slot": "0",
						"type": "t_bool"
					}
				],
				"types": {
					"t_bool": {
						"encoding": "inplace",
						"label": "bool",
						"numberOfBytes": "1"
					}
				}
			},
			"userdoc": {
				"kind": "user",
				"methods": {
					"f()": {
						"notice": "This function is protected by a mutex, which means that reentrant calls from within `msg.sender.call` cannot call `f` again. The `return 7` statement assigns 7 to the return value but still executes the statement `locked = false` in the modifier."
					}
				},
				"version": 1
			}
		}
	}
}