{
	"contract-a7f91fd727.sol": {
		"C": {
			"abi": [
				{
					"inputs": [
						{
							"internalType": "bytes32",
							"name": "salt",
							"type": "bytes32"
						},
						{
							"internalType": "uint256",
							"name": "arg",
							"type": "uint256"
						}
					],
					"name": "createDSalted",
					"outputs": [],
					"stateMutability": "nonpayable",
					"type": "function"
				}
			],
			"devdoc": {
				"kind": "dev",
				"methods": {},
				"version": 1
			},
			"evm": {
				"assembly": "    /* \"contract-a7f91fd727.sol\":150:812  contract C {... */\n  mstore(0x40, 0x80)\n  callvalue\n  dup1\n  iszero\n  tag_1\n  jumpi\n  0x00\n  dup1\n  revert\ntag_1:\n  pop\n  dataSize(sub_0)\n  dup1\n  dataOffset(sub_0)\n  0x00\n  codecopy\n  0x00\n  return\nstop\n\nsub_0: assembly {\n        /* \"contract-a7f91fd727.sol\":150:812  contract C {... */\n      mstore(0x40, 0x80)\n      callvalue\n      dup1\n      iszero\n      tag_1\n      jumpi\n      0x00\n      dup1\n      revert\n    tag_1:\n      pop\n      jumpi(tag_2, lt(calldatasize, 0x04))\n      shr(0xe0, calldataload(0x00))\n      dup1\n      0x0bd38f2f\n      eq\n      tag_3\n      jumpi\n    tag_2:\n      0x00\n      dup1\n      revert\n        /* \"contract-a7f91fd727.sol\":167:810  function createDSalted(bytes32 salt, uint arg) public {... */\n    tag_3:\n      tag_4\n      0x04\n      dup1\n      calldatasize\n      sub\n      dup2\n      add\n      swap1\n      tag_5\n      swap2\n      swap1\n      tag_6\n      jump\t// in\n    tag_5:\n      tag_7\n      jump\t// in\n    tag_4:\n      stop\n    tag_7:\n        /* \"contract-a7f91fd727.sol\":430:454  address predictedAddress */\n      0x00\n        /* \"contract-a7f91fd727.sol\":525:529  0xff */\n      0xff\n        /* \"contract-a7f91fd727.sol\":518:530  bytes1(0xff) */\n      0xf8\n      shl\n        /* \"contract-a7f91fd727.sol\":552:556  this */\n      address\n        /* \"contract-a7f91fd727.sol\":571:575  salt */\n      dup5\n        /* \"contract-a7f91fd727.sol\":633:653  type(D).creationCode */\n      mload(0x40)\n      dup1\n      0x20\n      add\n      tag_9\n      swap1\n      tag_10\n      jump\t// in\n    tag_9:\n      0x20\n      dup3\n      add\n      dup2\n      sub\n      dup3\n      mstore\n      not(0x1f)\n      0x1f\n      dup3\n      add\n      and\n      0x40\n      mstore\n      pop\n        /* \"contract-a7f91fd727.sol\":682:685  arg */\n      dup6\n        /* \"contract-a7f91fd727.sol\":671:686  abi.encode(arg) */\n      add(0x20, mload(0x40))\n      tag_11\n      swap2\n      swap1\n      tag_12\n      jump\t// in\n    tag_11:\n      mload(0x40)\n      0x20\n      dup2\n      dup4\n      sub\n      sub\n      dup2\n      mstore\n      swap1\n      0x40\n      mstore\n        /* \"contract-a7f91fd727.sol\":599:700  abi.encodePacked(... */\n      add(0x20, mload(0x40))\n      tag_13\n      swap3\n      swap2\n      swap1\n      tag_14\n      jump\t// in\n    tag_13:\n      mload(0x40)\n      0x20\n      dup2\n      dup4\n      sub\n      sub\n      dup2\n      mstore\n      swap1\n      0x40\n      mstore\n        /* \"contract-a7f91fd727.sol\":589:701  keccak256(abi.encodePacked(... */\n      dup1\n      mload\n      swap1\n      0x20\n      add\n      keccak256\n        /* \"contract-a7f91fd727.sol\":488:711  abi.encodePacked(... */\n      add(0x20, mload(0x40))\n      tag_15\n      swap5\n      swap4\n      swap3\n      swap2\n      swap1\n      tag_16\n      jump\t// in\n    tag_15:\n      mload(0x40)\n      0x20\n      dup2\n      dup4\n      sub\n      sub\n      dup2\n      mstore\n      swap1\n      0x40\n      mstore\n        /* \"contract-a7f91fd727.sol\":478:712  keccak256(abi.encodePacked(... */\n      dup1\n      mload\n      swap1\n      0x20\n      add\n      keccak256\n        /* \"contract-a7f91fd727.sol\":473:713  uint(keccak256(abi.encodePacked(... */\n      0x00\n      shr\n        /* \"contract-a7f91fd727.sol\":430:715  address predictedAddress = address(uint160(uint(keccak256(abi.encodePacked(... */\n      swap1\n      pop\n        /* \"contract-a7f91fd727.sol\":726:729  D d */\n      0x00\n        /* \"contract-a7f91fd727.sol\":744:748  salt */\n      dup4\n        /* \"contract-a7f91fd727.sol\":750:753  arg */\n      dup4\n        /* \"contract-a7f91fd727.sol\":732:754  new D{salt: salt}(arg) */\n      mload(0x40)\n      tag_17\n      swap1\n      tag_10\n      jump\t// in\n    tag_17:\n      tag_18\n      swap2\n      swap1\n      tag_12\n      jump\t// in\n    tag_18:\n      dup2\n      swap1\n      mload(0x40)\n      dup1\n      swap2\n      sub\n      swap1\n      0x00\n      create2\n      swap1\n      pop\n      dup1\n      iszero\n      dup1\n      iszero\n      tag_19\n      jumpi\n      returndatasize\n      0x00\n      dup1\n      returndatacopy\n      revert(0x00, returndatasize)\n    tag_19:\n      pop\n        /* \"contract-a7f91fd727.sol\":726:754  D d = new D{salt: salt}(arg) */\n      swap1\n      pop\n        /* \"contract-a7f91fd727.sol\":786:802  predictedAddress */\n      dup2\n        /* \"contract-a7f91fd727.sol\":772:802  address(d) == predictedAddress */\n      0xffffffffffffffffffffffffffffffffffffffff\n      and\n        /* \"contract-a7f91fd727.sol\":780:781  d */\n      dup2\n        /* \"contract-a7f91fd727.sol\":772:802  address(d) == predictedAddress */\n      0xffffffffffffffffffffffffffffffffffffffff\n      and\n      eq\n        /* \"contract-a7f91fd727.sol\":764:803  require(address(d) == predictedAddress) */\n      tag_20\n      jumpi\n      0x00\n      dup1\n      revert\n    tag_20:\n        /* \"contract-a7f91fd727.sol\":221:810  {... */\n      pop\n      pop\n        /* \"contract-a7f91fd727.sol\":167:810  function createDSalted(bytes32 salt, uint arg) public {... */\n      pop\n      pop\n      jump\t// out\n    tag_10:\n      dataSize(sub_0)\n      dup1\n      dataOffset(sub_0)\n      dup4\n      codecopy\n      add\n      swap1\n      jump\t// out\n        /* \"#utility.yul\":88:205   */\n    tag_22:\n        /* \"#utility.yul\":197:198   */\n      0x00\n        /* \"#utility.yul\":194:195   */\n      dup1\n        /* \"#utility.yul\":187:199   */\n      revert\n        /* \"#utility.yul\":334:411   */\n    tag_24:\n        /* \"#utility.yul\":371:378   */\n      0x00\n        /* \"#utility.yul\":400:405   */\n      dup2\n        /* \"#utility.yul\":389:405   */\n      swap1\n      pop\n        /* \"#utility.yul\":334:411   */\n      swap2\n      swap1\n      pop\n      jump\t// out\n        /* \"#utility.yul\":417:539   */\n    tag_25:\n        /* \"#utility.yul\":490:514   */\n      tag_52\n        /* \"#utility.yul\":508:513   */\n      dup2\n        /* \"#utility.yul\":490:514   */\n      tag_24\n      jump\t// in\n    tag_52:\n        /* \"#utility.yul\":483:488   */\n      dup2\n        /* \"#utility.yul\":480:515   */\n      eq\n        /* \"#utility.yul\":470:533   */\n      tag_53\n      jumpi\n        /* \"#utility.yul\":529:530   */\n      0x00\n        /* \"#utility.yul\":526:527   */\n      dup1\n        /* \"#utility.yul\":519:531   */\n      revert\n        /* \"#utility.yul\":470:533   */\n    tag_53:\n        /* \"#utility.yul\":417:539   */\n      pop\n      jump\t// out\n        /* \"#utility.yul\":545:684   */\n    tag_26:\n        /* \"#utility.yul\":591:596   */\n      0x00\n        /* \"#utility.yul\":629:635   */\n      dup2\n        /* \"#utility.yul\":616:636   */\n      calldataload\n        /* \"#utility.yul\":607:636   */\n      swap1\n      pop\n        /* \"#utility.yul\":645:678   */\n      tag_55\n        /* \"#utility.yul\":672:677   */\n      dup2\n        /* \"#utility.yul\":645:678   */\n      tag_25\n      jump\t// in\n    tag_55:\n        /* \"#utility.yul\":545:684   */\n      swap3\n      swap2\n      pop\n      pop\n      jump\t// out\n        /* \"#utility.yul\":690:767   */\n    tag_27:\n        /* \"#utility.yul\":727:734   */\n      0x00\n        /* \"#utility.yul\":756:761   */\n      dup2\n        /* \"#utility.yul\":745:761   */\n      swap1\n      pop\n        /* \"#utility.yul\":690:767   */\n      swap2\n      swap1\n      pop\n      jump\t// out\n        /* \"#utility.yul\":773:895   */\n    tag_28:\n        /* \"#utility.yul\":846:870   */\n      tag_58\n        /* \"#utility.yul\":864:869   */\n      dup2\n        /* \"#utility.yul\":846:870   */\n      tag_27\n      jump\t// in\n    tag_58:\n        /* \"#utility.yul\":839:844   */\n      dup2\n        /* \"#utility.yul\":836:871   */\n      eq\n        /* \"#utility.yul\":826:889   */\n      tag_59\n      jumpi\n        /* \"#utility.yul\":885:886   */\n      0x00\n        /* \"#utility.yul\":882:883   */\n      dup1\n        /* \"#utility.yul\":875:887   */\n      revert\n        /* \"#utility.yul\":826:889   */\n    tag_59:\n        /* \"#utility.yul\":773:895   */\n      pop\n      jump\t// out\n        /* \"#utility.yul\":901:1040   */\n    tag_29:\n        /* \"#utility.yul\":947:952   */\n      0x00\n        /* \"#utility.yul\":985:991   */\n      dup2\n        /* \"#utility.yul\":972:992   */\n      calldataload\n        /* \"#utility.yul\":963:992   */\n      swap1\n      pop\n        /* \"#utility.yul\":1001:1034   */\n      tag_61\n        /* \"#utility.yul\":1028:1033   */\n      dup2\n        /* \"#utility.yul\":1001:1034   */\n      tag_28\n      jump\t// in\n    tag_61:\n        /* \"#utility.yul\":901:1040   */\n      swap3\n      swap2\n      pop\n      pop\n      jump\t// out\n        /* \"#utility.yul\":1046:1520   */\n    tag_6:\n        /* \"#utility.yul\":1114:1120   */\n      0x00\n        /* \"#utility.yul\":1122:1128   */\n      dup1\n        /* \"#utility.yul\":1171:1173   */\n      0x40\n        /* \"#utility.yul\":1159:1168   */\n      dup4\n        /* \"#utility.yul\":1150:1157   */\n      dup6\n        /* \"#utility.yul\":1146:1169   */\n      sub\n        /* \"#utility.yul\":1142:1174   */\n      slt\n        /* \"#utility.yul\":1139:1258   */\n      iszero\n      tag_63\n      jumpi\n        /* \"#utility.yul\":1177:1256   */\n      tag_64\n      tag_22\n      jump\t// in\n    tag_64:\n        /* \"#utility.yul\":1139:1258   */\n    tag_63:\n        /* \"#utility.yul\":1297:1298   */\n      0x00\n        /* \"#utility.yul\":1322:1375   */\n      tag_65\n        /* \"#utility.yul\":1367:1374   */\n      dup6\n        /* \"#utility.yul\":1358:1364   */\n      dup3\n        /* \"#utility.yul\":1347:1356   */\n      dup7\n        /* \"#utility.yul\":1343:1365   */\n      add\n        /* \"#utility.yul\":1322:1375   */\n      tag_26\n      jump\t// in\n    tag_65:\n        /* \"#utility.yul\":1312:1375   */\n      swap3\n      pop\n        /* \"#utility.yul\":1268:1385   */\n      pop\n        /* \"#utility.yul\":1424:1426   */\n      0x20\n        /* \"#utility.yul\":1450:1503   */\n      tag_66\n        /* \"#utility.yul\":1495:1502   */\n      dup6\n        /* \"#utility.yul\":1486:1492   */\n      dup3\n        /* \"#utility.yul\":1475:1484   */\n      dup7\n        /* \"#utility.yul\":1471:1493   */\n      add\n        /* \"#utility.yul\":1450:1503   */\n      tag_29\n      jump\t// in\n    tag_66:\n        /* \"#utility.yul\":1440:1503   */\n      swap2\n      pop\n        /* \"#utility.yul\":1395:1513   */\n      pop\n        /* \"#utility.yul\":1046:1520   */\n      swap3\n      pop\n      swap3\n      swap1\n      pop\n      jump\t// out\n        /* \"#utility.yul\":1526:1644   */\n    tag_30:\n        /* \"#utility.yul\":1613:1637   */\n      tag_68\n        /* \"#utility.yul\":1631:1636   */\n      dup2\n        /* \"#utility.yul\":1613:1637   */\n      tag_27\n      jump\t// in\n    tag_68:\n        /* \"#utility.yul\":1608:1611   */\n      dup3\n        /* \"#utility.yul\":1601:1638   */\n      mstore\n        /* \"#utility.yul\":1526:1644   */\n      pop\n      pop\n      jump\t// out\n        /* \"#utility.yul\":1650:1872   */\n    tag_12:\n        /* \"#utility.yul\":1743:1747   */\n      0x00\n        /* \"#utility.yul\":1781:1783   */\n      0x20\n        /* \"#utility.yul\":1770:1779   */\n      dup3\n        /* \"#utility.yul\":1766:1784   */\n      add\n        /* \"#utility.yul\":1758:1784   */\n      swap1\n      pop\n        /* \"#utility.yul\":1794:1865   */\n      tag_70\n        /* \"#utility.yul\":1862:1863   */\n      0x00\n        /* \"#utility.yul\":1851:1860   */\n      dup4\n        /* \"#utility.yul\":1847:1864   */\n      add\n        /* \"#utility.yul\":1838:1844   */\n      dup5\n        /* \"#utility.yul\":1794:1865   */\n      tag_30\n      jump\t// in\n    tag_70:\n        /* \"#utility.yul\":1650:1872   */\n      swap3\n      swap2\n      pop\n      pop\n      jump\t// out\n        /* \"#utility.yul\":1878:1976   */\n    tag_31:\n        /* \"#utility.yul\":1929:1935   */\n      0x00\n        /* \"#utility.yul\":1963:1968   */\n      dup2\n        /* \"#utility.yul\":1957:1969   */\n      mload\n        /* \"#utility.yul\":1947:1969   */\n      swap1\n      pop\n        /* \"#utility.yul\":1878:1976   */\n      swap2\n      swap1\n      pop\n      jump\t// out\n        /* \"#utility.yul\":1982:2129   */\n    tag_32:\n        /* \"#utility.yul\":2083:2094   */\n      0x00\n        /* \"#utility.yul\":2120:2123   */\n      dup2\n        /* \"#utility.yul\":2105:2123   */\n      swap1\n      pop\n        /* \"#utility.yul\":1982:2129   */\n      swap3\n      swap2\n      pop\n      pop\n      jump\t// out\n        /* \"#utility.yul\":2135:2381   */\n    tag_33:\n        /* \"#utility.yul\":2216:2217   */\n      0x00\n        /* \"#utility.yul\":2226:2339   */\n    tag_74:\n        /* \"#utility.yul\":2240:2246   */\n      dup4\n        /* \"#utility.yul\":2237:2238   */\n      dup2\n        /* \"#utility.yul\":2234:2247   */\n      lt\n        /* \"#utility.yul\":2226:2339   */\n      iszero\n      tag_76\n      jumpi\n        /* \"#utility.yul\":2325:2326   */\n      dup1\n        /* \"#utility.yul\":2320:2323   */\n      dup3\n        /* \"#utility.yul\":2316:2327   */\n      add\n        /* \"#utility.yul\":2310:2328   */\n      mload\n        /* \"#utility.yul\":2306:2307   */\n      dup2\n        /* \"#utility.yul\":2301:2304   */\n      dup5\n        /* \"#utility.yul\":2297:2308   */\n      add\n        /* \"#utility.yul\":2290:2329   */\n      mstore\n        /* \"#utility.yul\":2262:2264   */\n      0x20\n        /* \"#utility.yul\":2259:2260   */\n      dup2\n        /* \"#utility.yul\":2255:2265   */\n      add\n        /* \"#utility.yul\":2250:2265   */\n      swap1\n      pop\n        /* \"#utility.yul\":2226:2339   */\n      jump(tag_74)\n    tag_76:\n        /* \"#utility.yul\":2373:2374   */\n      0x00\n        /* \"#utility.yul\":2364:2370   */\n      dup5\n        /* \"#utility.yul\":2359:2362   */\n      dup5\n        /* \"#utility.yul\":2355:2371   */\n      add\n        /* \"#utility.yul\":2348:2375   */\n      mstore\n        /* \"#utility.yul\":2197:2381   */\n      pop\n        /* \"#utility.yul\":2135:2381   */\n      pop\n      pop\n      pop\n      jump\t// out\n        /* \"#utility.yul\":2387:2773   */\n    tag_34:\n        /* \"#utility.yul\":2491:2494   */\n      0x00\n        /* \"#utility.yul\":2519:2557   */\n      tag_78\n        /* \"#utility.yul\":2551:2556   */\n      dup3\n        /* \"#utility.yul\":2519:2557   */\n      tag_31\n      jump\t// in\n    tag_78:\n        /* \"#utility.yul\":2573:2661   */\n      tag_79\n        /* \"#utility.yul\":2654:2660   */\n      dup2\n        /* \"#utility.yul\":2649:2652   */\n      dup6\n        /* \"#utility.yul\":2573:2661   */\n      tag_32\n      jump\t// in\n    tag_79:\n        /* \"#utility.yul\":2566:2661   */\n      swap4\n      pop\n        /* \"#utility.yul\":2670:2735   */\n      tag_80\n        /* \"#utility.yul\":2728:2734   */\n      dup2\n        /* \"#utility.yul\":2723:2726   */\n      dup6\n        /* \"#utility.yul\":2716:2720   */\n      0x20\n        /* \"#utility.yul\":2709:2714   */\n      dup7\n        /* \"#utility.yul\":2705:2721   */\n      add\n        /* \"#utility.yul\":2670:2735   */\n      tag_33\n      jump\t// in\n    tag_80:\n        /* \"#utility.yul\":2760:2766   */\n      dup1\n        /* \"#utility.yul\":2755:2758   */\n      dup5\n        /* \"#utility.yul\":2751:2767   */\n      add\n        /* \"#utility.yul\":2744:2767   */\n      swap2\n      pop\n        /* \"#utility.yul\":2495:2773   */\n      pop\n        /* \"#utility.yul\":2387:2773   */\n      swap3\n      swap2\n      pop\n      pop\n      jump\t// out\n        /* \"#utility.yul\":2779:3206   */\n    tag_14:\n        /* \"#utility.yul\":2955:2958   */\n      0x00\n        /* \"#utility.yul\":2977:3070   */\n      tag_82\n        /* \"#utility.yul\":3066:3069   */\n      dup3\n        /* \"#utility.yul\":3057:3063   */\n      dup6\n        /* \"#utility.yul\":2977:3070   */\n      tag_34\n      jump\t// in\n    tag_82:\n        /* \"#utility.yul\":2970:3070   */\n      swap2\n      pop\n        /* \"#utility.yul\":3087:3180   */\n      tag_83\n        /* \"#utility.yul\":3176:3179   */\n      dup3\n        /* \"#utility.yul\":3167:3173   */\n      dup5\n        /* \"#utility.yul\":3087:3180   */\n      tag_34\n      jump\t// in\n    tag_83:\n        /* \"#utility.yul\":3080:3180   */\n      swap2\n      pop\n        /* \"#utility.yul\":3197:3200   */\n      dup2\n        /* \"#utility.yul\":3190:3200   */\n      swap1\n      pop\n        /* \"#utility.yul\":2779:3206   */\n      swap4\n      swap3\n      pop\n      pop\n      pop\n      jump\t// out\n        /* \"#utility.yul\":3212:3361   */\n    tag_35:\n        /* \"#utility.yul\":3248:3255   */\n      0x00\n        /* \"#utility.yul\":3288:3354   */\n      0xff00000000000000000000000000000000000000000000000000000000000000\n        /* \"#utility.yul\":3281:3286   */\n      dup3\n        /* \"#utility.yul\":3277:3355   */\n      and\n        /* \"#utility.yul\":3266:3355   */\n      swap1\n      pop\n        /* \"#utility.yul\":3212:3361   */\n      swap2\n      swap1\n      pop\n      jump\t// out\n        /* \"#utility.yul\":3367:3445   */\n    tag_36:\n        /* \"#utility.yul\":3405:3412   */\n      0x00\n        /* \"#utility.yul\":3434:3439   */\n      dup2\n        /* \"#utility.yul\":3423:3439   */\n      swap1\n      pop\n        /* \"#utility.yul\":3367:3445   */\n      swap2\n      swap1\n      pop\n      jump\t// out\n        /* \"#utility.yul\":3451:3604   */\n    tag_37:\n        /* \"#utility.yul\":3554:3597   */\n      tag_87\n        /* \"#utility.yul\":3573:3596   */\n      tag_88\n        /* \"#utility.yul\":3590:3595   */\n      dup3\n        /* \"#utility.yul\":3573:3596   */\n      tag_35\n      jump\t// in\n    tag_88:\n        /* \"#utility.yul\":3554:3597   */\n      tag_36\n      jump\t// in\n    tag_87:\n        /* \"#utility.yul\":3549:3552   */\n      dup3\n        /* \"#utility.yul\":3542:3598   */\n      mstore\n        /* \"#utility.yul\":3451:3604   */\n      pop\n      pop\n      jump\t// out\n        /* \"#utility.yul\":3610:3736   */\n    tag_38:\n        /* \"#utility.yul\":3647:3654   */\n      0x00\n        /* \"#utility.yul\":3687:3729   */\n      0xffffffffffffffffffffffffffffffffffffffff\n        /* \"#utility.yul\":3680:3685   */\n      dup3\n        /* \"#utility.yul\":3676:3730   */\n      and\n        /* \"#utility.yul\":3665:3730   */\n      swap1\n      pop\n        /* \"#utility.yul\":3610:3736   */\n      swap2\n      swap1\n      pop\n      jump\t// out\n        /* \"#utility.yul\":3742:3838   */\n    tag_39:\n        /* \"#utility.yul\":3779:3786   */\n      0x00\n        /* \"#utility.yul\":3808:3832   */\n      tag_91\n        /* \"#utility.yul\":3826:3831   */\n      dup3\n        /* \"#utility.yul\":3808:3832   */\n      tag_38\n      jump\t// in\n    tag_91:\n        /* \"#utility.yul\":3797:3832   */\n      swap1\n      pop\n        /* \"#utility.yul\":3742:3838   */\n      swap2\n      swap1\n      pop\n      jump\t// out\n        /* \"#utility.yul\":3844:3938   */\n    tag_40:\n        /* \"#utility.yul\":3877:3885   */\n      0x00\n        /* \"#utility.yul\":3925:3930   */\n      dup2\n        /* \"#utility.yul\":3921:3923   */\n      0x60\n        /* \"#utility.yul\":3917:3931   */\n      shl\n        /* \"#utility.yul\":3896:3931   */\n      swap1\n      pop\n        /* \"#utility.yul\":3844:3938   */\n      swap2\n      swap1\n      pop\n      jump\t// out\n        /* \"#utility.yul\":3944:4038   */\n    tag_41:\n        /* \"#utility.yul\":3983:3990   */\n      0x00\n        /* \"#utility.yul\":4012:4032   */\n      tag_94\n        /* \"#utility.yul\":4026:4031   */\n      dup3\n        /* \"#utility.yul\":4012:4032   */\n      tag_40\n      jump\t// in\n    tag_94:\n        /* \"#utility.yul\":4001:4032   */\n      swap1\n      pop\n        /* \"#utility.yul\":3944:4038   */\n      swap2\n      swap1\n      pop\n      jump\t// out\n        /* \"#utility.yul\":4044:4144   */\n    tag_42:\n        /* \"#utility.yul\":4083:4090   */\n      0x00\n        /* \"#utility.yul\":4112:4138   */\n      tag_96\n        /* \"#utility.yul\":4132:4137   */\n      dup3\n        /* \"#utility.yul\":4112:4138   */\n      tag_41\n      jump\t// in\n    tag_96:\n        /* \"#utility.yul\":4101:4138   */\n      swap1\n      pop\n        /* \"#utility.yul\":4044:4144   */\n      swap2\n      swap1\n      pop\n      jump\t// out\n        /* \"#utility.yul\":4150:4307   */\n    tag_43:\n        /* \"#utility.yul\":4255:4300   */\n      tag_98\n        /* \"#utility.yul\":4275:4299   */\n      tag_99\n        /* \"#utility.yul\":4293:4298   */\n      dup3\n        /* \"#utility.yul\":4275:4299   */\n      tag_39\n      jump\t// in\n    tag_99:\n        /* \"#utility.yul\":4255:4300   */\n      tag_42\n      jump\t// in\n    tag_98:\n        /* \"#utility.yul\":4250:4253   */\n      dup3\n        /* \"#utility.yul\":4243:4301   */\n      mstore\n        /* \"#utility.yul\":4150:4307   */\n      pop\n      pop\n      jump\t// out\n        /* \"#utility.yul\":4313:4392   */\n    tag_44:\n        /* \"#utility.yul\":4352:4359   */\n      0x00\n        /* \"#utility.yul\":4381:4386   */\n      dup2\n        /* \"#utility.yul\":4370:4386   */\n      swap1\n      pop\n        /* \"#utility.yul\":4313:4392   */\n      swap2\n      swap1\n      pop\n      jump\t// out\n        /* \"#utility.yul\":4398:4555   */\n    tag_45:\n        /* \"#utility.yul\":4503:4548   */\n      tag_102\n        /* \"#utility.yul\":4523:4547   */\n      tag_103\n        /* \"#utility.yul\":4541:4546   */\n      dup3\n        /* \"#utility.yul\":4523:4547   */\n      tag_24\n      jump\t// in\n    tag_103:\n        /* \"#utility.yul\":4503:4548   */\n      tag_44\n      jump\t// in\n    tag_102:\n        /* \"#utility.yul\":4498:4501   */\n      dup3\n        /* \"#utility.yul\":4491:4549   */\n      mstore\n        /* \"#utility.yul\":4398:4555   */\n      pop\n      pop\n      jump\t// out\n        /* \"#utility.yul\":4561:5235   */\n    tag_16:\n        /* \"#utility.yul\":4755:4758   */\n      0x00\n        /* \"#utility.yul\":4770:4843   */\n      tag_105\n        /* \"#utility.yul\":4839:4842   */\n      dup3\n        /* \"#utility.yul\":4830:4836   */\n      dup8\n        /* \"#utility.yul\":4770:4843   */\n      tag_37\n      jump\t// in\n    tag_105:\n        /* \"#utility.yul\":4868:4869   */\n      0x01\n        /* \"#utility.yul\":4863:4866   */\n      dup3\n        /* \"#utility.yul\":4859:4870   */\n      add\n        /* \"#utility.yul\":4852:4870   */\n      swap2\n      pop\n        /* \"#utility.yul\":4880:4955   */\n      tag_106\n        /* \"#utility.yul\":4951:4954   */\n      dup3\n        /* \"#utility.yul\":4942:4948   */\n      dup7\n        /* \"#utility.yul\":4880:4955   */\n      tag_43\n      jump\t// in\n    tag_106:\n        /* \"#utility.yul\":4980:4982   */\n      0x14\n        /* \"#utility.yul\":4975:4978   */\n      dup3\n        /* \"#utility.yul\":4971:4983   */\n      add\n        /* \"#utility.yul\":4964:4983   */\n      swap2\n      pop\n        /* \"#utility.yul\":4993:5068   */\n      tag_107\n        /* \"#utility.yul\":5064:5067   */\n      dup3\n        /* \"#utility.yul\":5055:5061   */\n      dup6\n        /* \"#utility.yul\":4993:5068   */\n      tag_45\n      jump\t// in\n    tag_107:\n        /* \"#utility.yul\":5093:5095   */\n      0x20\n        /* \"#utility.yul\":5088:5091   */\n      dup3\n        /* \"#utility.yul\":5084:5096   */\n      add\n        /* \"#utility.yul\":5077:5096   */\n      swap2\n      pop\n        /* \"#utility.yul\":5106:5181   */\n      tag_108\n        /* \"#utility.yul\":5177:5180   */\n      dup3\n        /* \"#utility.yul\":5168:5174   */\n      dup5\n        /* \"#utility.yul\":5106:5181   */\n      tag_45\n      jump\t// in\n    tag_108:\n        /* \"#utility.yul\":5206:5208   */\n      0x20\n        /* \"#utility.yul\":5201:5204   */\n      dup3\n        /* \"#utility.yul\":5197:5209   */\n      add\n        /* \"#utility.yul\":5190:5209   */\n      swap2\n      pop\n        /* \"#utility.yul\":5226:5229   */\n      dup2\n        /* \"#utility.yul\":5219:5229   */\n      swap1\n      pop\n        /* \"#utility.yul\":4561:5235   */\n      swap6\n      swap5\n      pop\n      pop\n      pop\n      pop\n      pop\n      jump\t// out\n    stop\n\n    sub_0: assembly {\n            /* \"contract-a7f91fd727.sol\":68:148  contract D {... */\n          mstore(0x40, 0x80)\n            /* \"contract-a7f91fd727.sol\":104:146  constructor(uint a) {... */\n          callvalue\n          dup1\n          iszero\n          tag_1\n          jumpi\n          0x00\n          dup1\n          revert\n        tag_1:\n          pop\n          mload(0x40)\n          sub(codesize, bytecodeSize)\n          dup1\n          bytecodeSize\n          dup4\n          codecopy\n          dup2\n          dup2\n          add\n          0x40\n          mstore\n          dup2\n          add\n          swap1\n          tag_2\n          swap2\n          swap1\n          tag_3\n          jump\t// in\n        tag_2:\n            /* \"contract-a7f91fd727.sol\":138:139  a */\n          dup1\n            /* \"contract-a7f91fd727.sol\":134:135  x */\n          0x00\n            /* \"contract-a7f91fd727.sol\":134:139  x = a */\n          dup2\n          swap1\n          sstore\n          pop\n            /* \"contract-a7f91fd727.sol\":104:146  constructor(uint a) {... */\n          pop\n            /* \"contract-a7f91fd727.sol\":68:148  contract D {... */\n          jump(tag_6)\n            /* \"#utility.yul\":88:205   */\n        tag_8:\n            /* \"#utility.yul\":197:198   */\n          0x00\n            /* \"#utility.yul\":194:195   */\n          dup1\n            /* \"#utility.yul\":187:199   */\n          revert\n            /* \"#utility.yul\":334:411   */\n        tag_10:\n            /* \"#utility.yul\":371:378   */\n          0x00\n            /* \"#utility.yul\":400:405   */\n          dup2\n            /* \"#utility.yul\":389:405   */\n          swap1\n          pop\n            /* \"#utility.yul\":334:411   */\n          swap2\n          swap1\n          pop\n          jump\t// out\n            /* \"#utility.yul\":417:539   */\n        tag_11:\n            /* \"#utility.yul\":490:514   */\n          tag_19\n            /* \"#utility.yul\":508:513   */\n          dup2\n            /* \"#utility.yul\":490:514   */\n          tag_10\n          jump\t// in\n        tag_19:\n            /* \"#utility.yul\":483:488   */\n          dup2\n            /* \"#utility.yul\":480:515   */\n          eq\n            /* \"#utility.yul\":470:533   */\n          tag_20\n          jumpi\n            /* \"#utility.yul\":529:530   */\n          0x00\n            /* \"#utility.yul\":526:527   */\n          dup1\n            /* \"#utility.yul\":519:531   */\n          revert\n            /* \"#utility.yul\":470:533   */\n        tag_20:\n            /* \"#utility.yul\":417:539   */\n          pop\n          jump\t// out\n            /* \"#utility.yul\":545:688   */\n        tag_12:\n            /* \"#utility.yul\":602:607   */\n          0x00\n            /* \"#utility.yul\":633:639   */\n          dup2\n            /* \"#utility.yul\":627:640   */\n          mload\n            /* \"#utility.yul\":618:640   */\n          swap1\n          pop\n            /* \"#utility.yul\":649:682   */\n          tag_22\n            /* \"#utility.yul\":676:681   */\n          dup2\n            /* \"#utility.yul\":649:682   */\n          tag_11\n          jump\t// in\n        tag_22:\n            /* \"#utility.yul\":545:688   */\n          swap3\n          swap2\n          pop\n          pop\n          jump\t// out\n            /* \"#utility.yul\":694:1045   */\n        tag_3:\n            /* \"#utility.yul\":764:770   */\n          0x00\n            /* \"#utility.yul\":813:815   */\n          0x20\n            /* \"#utility.yul\":801:810   */\n          dup3\n            /* \"#utility.yul\":792:799   */\n          dup5\n            /* \"#utility.yul\":788:811   */\n          sub\n            /* \"#utility.yul\":784:816   */\n          slt\n            /* \"#utility.yul\":781:900   */\n          iszero\n          tag_24\n          jumpi\n            /* \"#utility.yul\":819:898   */\n          tag_25\n          tag_8\n          jump\t// in\n        tag_25:\n            /* \"#utility.yul\":781:900   */\n        tag_24:\n            /* \"#utility.yul\":939:940   */\n          0x00\n            /* \"#utility.yul\":964:1028   */\n          tag_26\n            /* \"#utility.yul\":1020:1027   */\n          dup5\n            /* \"#utility.yul\":1011:1017   */\n          dup3\n            /* \"#utility.yul\":1000:1009   */\n          dup6\n            /* \"#utility.yul\":996:1018   */\n          add\n            /* \"#utility.yul\":964:1028   */\n          tag_12\n          jump\t// in\n        tag_26:\n            /* \"#utility.yul\":954:1028   */\n          swap2\n          pop\n            /* \"#utility.yul\":910:1038   */\n          pop\n            /* \"#utility.yul\":694:1045   */\n          swap3\n          swap2\n          pop\n          pop\n          jump\t// out\n            /* \"contract-a7f91fd727.sol\":68:148  contract D {... */\n        tag_6:\n          dataSize(sub_0)\n          dup1\n          dataOffset(sub_0)\n          0x00\n          codecopy\n          0x00\n          return\n        stop\n\n        sub_0: assembly {\n                /* \"contract-a7f91fd727.sol\":68:148  contract D {... */\n              mstore(0x40, 0x80)\n              callvalue\n              dup1\n              iszero\n              tag_1\n              jumpi\n              0x00\n              dup1\n              revert\n            tag_1:\n              pop\n              jumpi(tag_2, lt(calldatasize, 0x04))\n              shr(0xe0, calldataload(0x00))\n              dup1\n              0x0c55699c\n              eq\n              tag_3\n              jumpi\n            tag_2:\n              0x00\n              dup1\n              revert\n                /* \"contract-a7f91fd727.sol\":85:98  uint public x */\n            tag_3:\n              tag_4\n              tag_5\n              jump\t// in\n            tag_4:\n              mload(0x40)\n              tag_6\n              swap2\n              swap1\n              tag_7\n              jump\t// in\n            tag_6:\n              mload(0x40)\n              dup1\n              swap2\n              sub\n              swap1\n              return\n            tag_5:\n              sload(0x00)\n              dup2\n              jump\t// out\n                /* \"#utility.yul\":7:84   */\n            tag_8:\n                /* \"#utility.yul\":44:51   */\n              0x00\n                /* \"#utility.yul\":73:78   */\n              dup2\n                /* \"#utility.yul\":62:78   */\n              swap1\n              pop\n                /* \"#utility.yul\":7:84   */\n              swap2\n              swap1\n              pop\n              jump\t// out\n                /* \"#utility.yul\":90:208   */\n            tag_9:\n                /* \"#utility.yul\":177:201   */\n              tag_13\n                /* \"#utility.yul\":195:200   */\n              dup2\n                /* \"#utility.yul\":177:201   */\n              tag_8\n              jump\t// in\n            tag_13:\n                /* \"#utility.yul\":172:175   */\n              dup3\n                /* \"#utility.yul\":165:202   */\n              mstore\n                /* \"#utility.yul\":90:208   */\n              pop\n              pop\n              jump\t// out\n                /* \"#utility.yul\":214:436   */\n            tag_7:\n                /* \"#utility.yul\":307:311   */\n              0x00\n                /* \"#utility.yul\":345:347   */\n              0x20\n                /* \"#utility.yul\":334:343   */\n              dup3\n                /* \"#utility.yul\":330:348   */\n              add\n                /* \"#utility.yul\":322:348   */\n              swap1\n              pop\n                /* \"#utility.yul\":358:429   */\n              tag_15\n                /* \"#utility.yul\":426:427   */\n              0x00\n                /* \"#utility.yul\":415:424   */\n              dup4\n                /* \"#utility.yul\":411:428   */\n              add\n                /* \"#utility.yul\":402:408   */\n              dup5\n                /* \"#utility.yul\":358:429   */\n              tag_9\n              jump\t// in\n            tag_15:\n                /* \"#utility.yul\":214:436   */\n              swap3\n              swap2\n              pop\n              pop\n              jump\t// out\n\n            auxdata: 0xa2646970667358221220ed7574dfb8ea8b19811a7dacd9d9c3419631754fe2e0def91051856e0f2ad48964736f6c63430008120033\n        }\n    }\n\n    auxdata: 0xa26469706673582212204b99d4217f509c18d974f4022775ab89cc879b665c98fa2fe9308b5fff10bb3264736f6c63430008120033\n}\n",
				"bytecode": {
					"linkReferences": {},
					"object": "608060405234801561001057600080fd5b506105ba806100206000396000f3fe608060405234801561001057600080fd5b506004361061002b5760003560e01c80630bd38f2f14610030575b600080fd5b61004a600480360381019061004591906101e7565b61004c565b005b600060ff60f81b30846040518060200161006590610169565b6020820181038252601f19601f820116604052508560405160200161008a9190610236565b6040516020818303038152906040526040516020016100aa9291906102c2565b604051602081830303815290604052805190602001206040516020016100d394939291906103ce565b6040516020818303038152906040528051906020012060001c9050600083836040516100fe90610169565b6101089190610236565b8190604051809103906000f5905080158015610128573d6000803e3d6000fd5b5090508173ffffffffffffffffffffffffffffffffffffffff168173ffffffffffffffffffffffffffffffffffffffff161461016357600080fd5b50505050565b6101688061041d83390190565b600080fd5b6000819050919050565b61018e8161017b565b811461019957600080fd5b50565b6000813590506101ab81610185565b92915050565b6000819050919050565b6101c4816101b1565b81146101cf57600080fd5b50565b6000813590506101e1816101bb565b92915050565b600080604083850312156101fe576101fd610176565b5b600061020c8582860161019c565b925050602061021d858286016101d2565b9150509250929050565b610230816101b1565b82525050565b600060208201905061024b6000830184610227565b92915050565b600081519050919050565b600081905092915050565b60005b8381101561028557808201518184015260208101905061026a565b60008484015250505050565b600061029c82610251565b6102a6818561025c565b93506102b6818560208601610267565b80840191505092915050565b60006102ce8285610291565b91506102da8284610291565b91508190509392505050565b60007fff0000000000000000000000000000000000000000000000000000000000000082169050919050565b6000819050919050565b61032d610328826102e6565b610312565b82525050565b600073ffffffffffffffffffffffffffffffffffffffff82169050919050565b600061035e82610333565b9050919050565b60008160601b9050919050565b600061037d82610365565b9050919050565b600061038f82610372565b9050919050565b6103a76103a282610353565b610384565b82525050565b6000819050919050565b6103c86103c38261017b565b6103ad565b82525050565b60006103da828761031c565b6001820191506103ea8286610396565b6014820191506103fa82856103b7565b60208201915061040a82846103b7565b6020820191508190509594505050505056fe608060405234801561001057600080fd5b506040516101683803806101688339818101604052810190610032919061007a565b80600081905550506100a7565b600080fd5b6000819050919050565b61005781610044565b811461006257600080fd5b50565b6000815190506100748161004e565b92915050565b6000602082840312156100905761008f61003f565b5b600061009e84828501610065565b91505092915050565b60b3806100b56000396000f3fe6080604052348015600f57600080fd5b506004361060285760003560e01c80630c55699c14602d575b600080fd5b60336047565b604051603e91906064565b60405180910390f35b60005481565b6000819050919050565b605e81604d565b82525050565b6000602082019050607760008301846057565b9291505056fea2646970667358221220ed7574dfb8ea8b19811a7dacd9d9c3419631754fe2e0def91051856e0f2ad48964736f6c63430008120033a26469706673582212204b99d4217f509c18d974f4022775ab89cc879b665c98fa2fe9308b5fff10bb3264736f6c63430008120033",
					"opcodes": "PUSH1 0x80 PUSH1 0x40 MSTORE CALLVALUE DUP1 ISZERO PUSH2 0x10 JUMPI PUSH1 0x0 DUP1 REVERT JUMPDEST POP PUSH2 0x5BA DUP1 PUSH2 0x20 PUSH1 0x0 CODECOPY PUSH1 0x0 RETURN INVALID PUSH1 0x80 PUSH1 0x40 MSTORE CALLVALUE DUP1 ISZERO PUSH2 0x10 JUMPI PUSH1 0x0 DUP1 REVERT JUMPDEST POP PUSH1 0x4 CALLDATASIZE LT PUSH2 0x2B JUMPI PUSH1 0x0 CALLDATALOAD PUSH1 0xE0 SHR DUP1 PUSH4 0xBD38F2F EQ PUSH2 0x30 JUMPI JUMPDEST PUSH1 0x0 DUP1 REVERT JUMPDEST PUSH2 0x4A PUSH1 0x4 DUP1 CALLDATASIZE SUB DUP2 ADD SWAP1 PUSH2 0x45 SWAP2 SWAP1 PUSH2 0x1E7 JUMP JUMPDEST PUSH2 0x4C JUMP JUMPDEST STOP JUMPDEST PUSH1 0x0 PUSH1 0xFF PUSH1 0xF8 SHL ADDRESS DUP5 PUSH1 0x40 MLOAD DUP1 PUSH1 0x20 ADD PUSH2 0x65 SWAP1 PUSH2 0x169 JUMP JUMPDEST PUSH1 0x20 DUP3 ADD DUP2 SUB DUP3 MSTORE PUSH1 0x1F NOT PUSH1 0x1F DUP3 ADD AND PUSH1 0x40 MSTORE POP DUP6 PUSH1 0x40 MLOAD PUSH1 0x20 ADD PUSH2 0x8A SWAP2 SWAP1 PUSH2 0x236 JUMP JUMPDEST PUSH1 0x40 MLOAD PUSH1 0x20 DUP2 DUP4 SUB SUB DUP2 MSTORE SWAP1 PUSH1 0x40 MSTORE PUSH1 0x40 MLOAD PUSH1 0x20 ADD PUSH2 0xAA SWAP3 SWAP2 SWAP1 PUSH2 0x2C2 JUMP JUMPDEST PUSH1 0x40 MLOAD PUSH1 0x20 DUP2 DUP4 SUB SUB DUP2 MSTORE SWAP1 PUSH1 0x40 MSTORE DUP1 MLOAD SWAP1 PUSH1 0x20 ADD KECCAK256 PUSH1 0x40 MLOAD PUSH1 0x20 ADD PUSH2 0xD3 SWAP5 SWAP4 SWAP3 SWAP2 SWAP1 PUSH2 0x3CE JUMP JUMPDEST PUSH1 0x40 MLOAD PUSH1 0x20 DUP2 DUP4 SUB SUB DUP2 MSTORE SWAP1 PUSH1 0x40 MSTORE DUP1 MLOAD SWAP1 PUSH1 0x20 ADD KECCAK256 PUSH1 0x0 SHR SWAP1 POP PUSH1 0x0 DUP4 DUP4 PUSH1 0x40 MLOAD PUSH2 0xFE SWAP1 PUSH2 0x169 JUMP JUMPDEST PUSH2 0x108 SWAP2 SWAP1 PUSH2 0x236 JUMP JUMPDEST DUP2 SWAP1 PUSH1 0x40 MLOAD DUP1 SWAP2 SUB SWAP1 PUSH1 0x0 CREATE2 SWAP1 POP DUP1 ISZERO DUP1 ISZERO PUSH2 0x128 JUMPI RETURNDATASIZE PUSH1 0x0 DUP1 RETURNDATACOPY RETURNDATASIZE PUSH1 0x0 REVERT JUMPDEST POP SWAP1 POP DUP2 PUSH20 0xFFFFFFFFFFFFFFFFFFFFFFFFFFFFFFFFFFFFFFFF AND DUP2 PUSH20 0xFFFFFFFFFFFFFFFFFFFFFFFFFFFFFFFFFFFFFFFF AND EQ PUSH2 0x163 JUMPI PUSH1 0x0 DUP1 REVERT JUMPDEST POP POP POP POP JUMP JUMPDEST PUSH2 0x168 DUP1 PUSH2 0x41D DUP4 CODECOPY ADD SWAP1 JUMP JUMPDEST PUSH1 0x0 DUP1 REVERT JUMPDEST PUSH1 0x0 DUP2 SWAP1 POP SWAP2 SWAP1 POP JUMP JUMPDEST PUSH2 0x18E DUP2 PUSH2 0x17B JUMP JUMPDEST DUP2 EQ PUSH2 0x199 JUMPI PUSH1 0x0 DUP1 REVERT JUMPDEST POP JUMP JUMPDEST PUSH1 0x0 DUP2 CALLDATALOAD SWAP1 POP PUSH2 0x1AB DUP2 PUSH2 0x185 JUMP JUMPDEST SWAP3 SWAP2 POP POP JUMP JUMPDEST PUSH1 0x0 DUP2 SWAP1 POP SWAP2 SWAP1 POP JUMP JUMPDEST PUSH2 0x1C4 DUP2 PUSH2 0x1B1 JUMP JUMPDEST DUP2 EQ PUSH2 0x1CF JUMPI PUSH1 0x0 DUP1 REVERT JUMPDEST POP JUMP JUMPDEST PUSH1 0x0 DUP2 CALLDATALOAD SWAP1 POP PUSH2 0x1E1 DUP2 PUSH2 0x1BB JUMP JUMPDEST SWAP3 SWAP2 POP POP JUMP JUMPDEST PUSH1 0x0 DUP1 PUSH1 0x40 DUP4 DUP6 SUB SLT ISZERO PUSH2 0x1FE JUMPI PUSH2 0x1FD PUSH2 0x176 JUMP JUMPDEST JUMPDEST PUSH1 0x0 PUSH2 0x20C DUP6 DUP3 DUP7 ADD PUSH2 0x19C JUMP JUMPDEST SWAP3 POP POP PUSH1 0x20 PUSH2 0x21D DUP6 DUP3 DUP7 ADD PUSH2 0x1D2 JUMP JUMPDEST SWAP2 POP POP SWAP3 POP SWAP3 SWAP1 POP JUMP JUMPDEST PUSH2 0x230 DUP2 PUSH2 0x1B1 JUMP JUMPDEST DUP3 MSTORE POP POP JUMP JUMPDEST PUSH1 0x0 PUSH1 0x20 DUP3 ADD SWAP1 POP PUSH2 0x24B PUSH1 0x0 DUP4 ADD DUP5 PUSH2 0x227 JUMP JUMPDEST SWAP3 SWAP2 POP POP JUMP JUMPDEST PUSH1 0x0 DUP2 MLOAD SWAP1 POP SWAP2 SWAP1 POP JUMP JUMPDEST PUSH1 0x0 DUP2 SWAP1 POP SWAP3 SWAP2 POP POP JUMP JUMPDEST PUSH1 0x0 JUMPDEST DUP4 DUP2 LT ISZERO PUSH2 0x285 JUMPI DUP1 DUP3 ADD MLOAD DUP2 DUP5 ADD MSTORE PUSH1 0x20 DUP2 ADD SWAP1 POP PUSH2 0x26A JUMP JUMPDEST PUSH1 0x0 DUP5 DUP5 ADD MSTORE POP POP POP POP JUMP JUMPDEST PUSH1 0x0 PUSH2 0x29C DUP3 PUSH2 0x251 JUMP JUMPDEST PUSH2 0x2A6 DUP2 DUP6 PUSH2 0x25C JUMP JUMPDEST SWAP4 POP PUSH2 0x2B6 DUP2 DUP6 PUSH1 0x20 DUP7 ADD PUSH2 0x267 JUMP JUMPDEST DUP1 DUP5 ADD SWAP2 POP POP SWAP3 SWAP2 POP POP JUMP JUMPDEST PUSH1 0x0 PUSH2 0x2CE DUP3 DUP6 PUSH2 0x291 JUMP JUMPDEST SWAP2 POP PUSH2 0x2DA DUP3 DUP5 PUSH2 0x291 JUMP JUMPDEST SWAP2 POP DUP2 SWAP1 POP SWAP4 SWAP3 POP POP POP JUMP JUMPDEST PUSH1 0x0 PUSH32 0xFF00000000000000000000000000000000000000000000000000000000000000 DUP3 AND SWAP1 POP SWAP2 SWAP1 POP JUMP JUMPDEST PUSH1 0x0 DUP2 SWAP1 POP SWAP2 SWAP1 POP JUMP JUMPDEST PUSH2 0x32D PUSH2 0x328 DUP3 PUSH2 0x2E6 JUMP JUMPDEST PUSH2 0x312 JUMP JUMPDEST DUP3 MSTORE POP POP JUMP JUMPDEST PUSH1 0x0 PUSH20 0xFFFFFFFFFFFFFFFFFFFFFFFFFFFFFFFFFFFFFFFF DUP3 AND SWAP1 POP SWAP2 SWAP1 POP JUMP JUMPDEST PUSH1 0x0 PUSH2 0x35E DUP3 PUSH2 0x333 JUMP JUMPDEST SWAP1 POP SWAP2 SWAP1 POP JUMP JUMPDEST PUSH1 0x0 DUP2 PUSH1 0x60 SHL SWAP1 POP SWAP2 SWAP1 POP JUMP JUMPDEST PUSH1 0x0 PUSH2 0x37D DUP3 PUSH2 0x365 JUMP JUMPDEST SWAP1 POP SWAP2 SWAP1 POP JUMP JUMPDEST PUSH1 0x0 PUSH2 0x38F DUP3 PUSH2 0x372 JUMP JUMPDEST SWAP1 POP SWAP2 SWAP1 POP JUMP JUMPDEST PUSH2 0x3A7 PUSH2 0x3A2 DUP3 PUSH2 0x353 JUMP JUMPDEST PUSH2 0x384 JUMP JUMPDEST DUP3 MSTORE POP POP JUMP JUMPDEST PUSH1 0x0 DUP2 SWAP1 POP SWAP2 SWAP1 POP JUMP JUMPDEST PUSH2 0x3C8 PUSH2 0x3C3 DUP3 PUSH2 0x17B JUMP JUMPDEST PUSH2 0x3AD JUMP JUMPDEST DUP3 MSTORE POP POP JUMP JUMPDEST PUSH1 0x0 PUSH2 0x3DA DUP3 DUP8 PUSH2 0x31C JUMP JUMPDEST PUSH1 0x1 DUP3 ADD SWAP2 POP PUSH2 0x3EA DUP3 DUP7 PUSH2 0x396 JUMP JUMPDEST PUSH1 0x14 DUP3 ADD SWAP2 POP PUSH2 0x3FA DUP3 DUP6 PUSH2 0x3B7 JUMP JUMPDEST PUSH1 0x20 DUP3 ADD SWAP2 POP PUSH2 0x40A DUP3 DUP5 PUSH2 0x3B7 JUMP JUMPDEST PUSH1 0x20 DUP3 ADD SWAP2 POP DUP2 SWAP1 POP SWAP6 SWAP5 POP POP POP POP POP JUMP INVALID PUSH1 0x80 PUSH1 0x40 MSTORE CALLVALUE DUP1 ISZERO PUSH2 0x10 JUMPI PUSH1 0x0 DUP1 REVERT JUMPDEST POP PUSH1 0x40 MLOAD PUSH2 0x168 CODESIZE SUB DUP1 PUSH2 0x168 DUP4 CODECOPY DUP2 DUP2 ADD PUSH1 0x40 MSTORE DUP2 ADD SWAP1 PUSH2 0x32 SWAP2 SWAP1 PUSH2 0x7A JUMP JUMPDEST DUP1 PUSH1 0x0 DUP2 SWAP1 SSTORE POP POP PUSH2 0xA7 JUMP JUMPDEST PUSH1 0x0 DUP1 REVERT JUMPDEST PUSH1 0x0 DUP2 SWAP1 POP SWAP2 SWAP1 POP JUMP JUMPDEST PUSH2 0x57 DUP2 PUSH2 0x44 JUMP JUMPDEST DUP2 EQ PUSH2 0x62 JUMPI PUSH1 0x0 DUP1 REVERT JUMPDEST POP JUMP JUMPDEST PUSH1 0x0 DUP2 MLOAD SWAP1 POP PUSH2 0x74 DUP2 PUSH2 0x4E JUMP JUMPDEST SWAP3 SWAP2 POP POP JUMP JUMPDEST PUSH1 0x0 PUSH1 0x20 DUP3 DUP5 SUB SLT ISZERO PUSH2 0x90 JUMPI PUSH2 0x8F PUSH2 0x3F JUMP JUMPDEST JUMPDEST PUSH1 0x0 PUSH2 0x9E DUP5 DUP3 DUP6 ADD PUSH2 0x65 JUMP JUMPDEST SWAP2 POP POP SWAP3 SWAP2 POP POP JUMP JUMPDEST PUSH1 0xB3 DUP1 PUSH2 0xB5 PUSH1 0x0 CODECOPY PUSH1 0x0 RETURN INVALID PUSH1 0x80 PUSH1 0x40 MSTORE CALLVALUE DUP1 ISZERO PUSH1 0xF JUMPI PUSH1 0x0 DUP1 REVERT JUMPDEST POP PUSH1 0x4 CALLDATASIZE LT PUSH1 0x28 JUMPI PUSH1 0x0 CALLDATALOAD PUSH1 0xE0 SHR DUP1 PUSH4 0xC55699C EQ PUSH1 0x2D JUMPI JUMPDEST PUSH1 0x0 DUP1 REVERT JUMPDEST PUSH1 0x33 PUSH1 0x47 JUMP JUMPDEST PUSH1 0x40 MLOAD PUSH1 0x3E SWAP2 SWAP1 PUSH1 0x64 JUMP JUMPDEST PUSH1 0x40 MLOAD DUP1 SWAP2 SUB SWAP1 RETURN JUMPDEST PUSH1 0x0 SLOAD DUP2 JUMP JUMPDEST PUSH1 0x0 DUP2 SWAP1 POP SWAP2 SWAP1 POP JUMP JUMPDEST PUSH1 0x5E DUP2 PUSH1 0x4D JUMP JUMPDEST DUP3 MSTORE POP POP JUMP JUMPDEST PUSH1 0x0 PUSH1 0x20 DUP3 ADD SWAP1 POP PUSH1 0x77 PUSH1 0x0 DUP4 ADD DUP5 PUSH1 0x57 JUMP JUMPDEST SWAP3 SWAP2 POP POP JUMP INVALID LOG2 PUSH5 0x6970667358 0x22 SLT KECCAK256 0xED PUSH22 0x74DFB8EA8B19811A7DACD9D9C3419631754FE2E0DEF9 LT MLOAD DUP6 PUSH15 0xF2AD48964736F6C63430008120033 LOG2 PUSH5 0x6970667358 0x22 SLT KECCAK256 0x4B SWAP10 0xD4 0x21 PUSH32 0x509C18D974F4022775AB89CC879B665C98FA2FE9308B5FFF10BB3264736F6C63 NUMBER STOP ADDMOD SLT STOP CALLER "
				},
				"gasEstimates": {
					"creation": {
						"codeDepositCost": "293200",
						"executionCost": "331",
						"totalCost": "293531"
					},
					"external": {
						"createDSalted(bytes32,uint256)": "infinite"
					}
				},
				"methodIdentifiers": {
					"createDSalted(bytes32,uint256)": "0bd38f2f"
				}
			},
			"storageLayout": {
				"storage": [],
				"types": null
			},
			"userdoc": {
				"kind": "user",
				"methods": {},
				"version": 1
			}
		}
	}
}