{
	"contract-stringAndBytes.sol": {
		"C": {
			"abi": [
				{
					"inputs": [
						{
							"internalType": "bytes",
							"name": "bc",
							"type": "bytes"
						},
						{
							"internalType": "string",
							"name": "sm",
							"type": "string"
						},
						{
							"internalType": "bytes16",
							"name": "b",
							"type": "bytes16"
						}
					],
					"name": "f",
					"outputs": [],
					"stateMutability": "view",
					"type": "function"
				}
			],
			"devdoc": {
				"kind": "dev",
				"methods": {},
				"version": 1
			},
			"evm": {
				"assembly": "    /* \"contract-stringAndBytes.sol\":62:987  contract C {... */\n  mstore(0x40, 0x80)\n    /* \"contract-stringAndBytes.sol\":79:99  string s = \"Storage\" */\n  mload(0x40)\n  dup1\n  0x40\n  add\n  0x40\n  mstore\n  dup1\n  0x07\n  dup2\n  mstore\n  0x20\n  add\n  0x53746f7261676500000000000000000000000000000000000000000000000000\n  dup2\n  mstore\n  pop\n  0x00\n  swap1\n  dup2\n  tag_1\n  swap2\n  swap1\n  tag_2\n  jump\t// in\ntag_1:\n  pop\n    /* \"contract-stringAndBytes.sol\":62:987  contract C {... */\n  callvalue\n  dup1\n  iszero\n  tag_3\n  jumpi\n  0x00\n  dup1\n  revert\ntag_3:\n  pop\n  jump(tag_4)\n    /* \"#utility.yul\":7:106   */\ntag_5:\n    /* \"#utility.yul\":59:65   */\n  0x00\n    /* \"#utility.yul\":93:98   */\n  dup2\n    /* \"#utility.yul\":87:99   */\n  mload\n    /* \"#utility.yul\":77:99   */\n  swap1\n  pop\n    /* \"#utility.yul\":7:106   */\n  swap2\n  swap1\n  pop\n  jump\t// out\n    /* \"#utility.yul\":112:292   */\ntag_6:\n    /* \"#utility.yul\":160:237   */\n  0x4e487b7100000000000000000000000000000000000000000000000000000000\n    /* \"#utility.yul\":157:158   */\n  0x00\n    /* \"#utility.yul\":150:238   */\n  mstore\n    /* \"#utility.yul\":257:261   */\n  0x41\n    /* \"#utility.yul\":254:255   */\n  0x04\n    /* \"#utility.yul\":247:262   */\n  mstore\n    /* \"#utility.yul\":281:285   */\n  0x24\n    /* \"#utility.yul\":278:279   */\n  0x00\n    /* \"#utility.yul\":271:286   */\n  revert\n    /* \"#utility.yul\":298:478   */\ntag_7:\n    /* \"#utility.yul\":346:423   */\n  0x4e487b7100000000000000000000000000000000000000000000000000000000\n    /* \"#utility.yul\":343:344   */\n  0x00\n    /* \"#utility.yul\":336:424   */\n  mstore\n    /* \"#utility.yul\":443:447   */\n  0x22\n    /* \"#utility.yul\":440:441   */\n  0x04\n    /* \"#utility.yul\":433:448   */\n  mstore\n    /* \"#utility.yul\":467:471   */\n  0x24\n    /* \"#utility.yul\":464:465   */\n  0x00\n    /* \"#utility.yul\":457:472   */\n  revert\n    /* \"#utility.yul\":484:804   */\ntag_8:\n    /* \"#utility.yul\":528:534   */\n  0x00\n    /* \"#utility.yul\":565:566   */\n  0x02\n    /* \"#utility.yul\":559:563   */\n  dup3\n    /* \"#utility.yul\":555:567   */\n  div\n    /* \"#utility.yul\":545:567   */\n  swap1\n  pop\n    /* \"#utility.yul\":612:613   */\n  0x01\n    /* \"#utility.yul\":606:610   */\n  dup3\n    /* \"#utility.yul\":602:614   */\n  and\n    /* \"#utility.yul\":633:651   */\n  dup1\n    /* \"#utility.yul\":623:704   */\n  tag_30\n  jumpi\n    /* \"#utility.yul\":689:693   */\n  0x7f\n    /* \"#utility.yul\":681:687   */\n  dup3\n    /* \"#utility.yul\":677:694   */\n  and\n    /* \"#utility.yul\":667:694   */\n  swap2\n  pop\n    /* \"#utility.yul\":623:704   */\ntag_30:\n    /* \"#utility.yul\":751:753   */\n  0x20\n    /* \"#utility.yul\":743:749   */\n  dup3\n    /* \"#utility.yul\":740:754   */\n  lt\n    /* \"#utility.yul\":720:738   */\n  dup2\n    /* \"#utility.yul\":717:755   */\n  sub\n    /* \"#utility.yul\":714:798   */\n  tag_31\n  jumpi\n    /* \"#utility.yul\":770:788   */\n  tag_32\n  tag_7\n  jump\t// in\ntag_32:\n    /* \"#utility.yul\":714:798   */\ntag_31:\n    /* \"#utility.yul\":535:804   */\n  pop\n    /* \"#utility.yul\":484:804   */\n  swap2\n  swap1\n  pop\n  jump\t// out\n    /* \"#utility.yul\":810:951   */\ntag_9:\n    /* \"#utility.yul\":859:863   */\n  0x00\n    /* \"#utility.yul\":882:885   */\n  dup2\n    /* \"#utility.yul\":874:885   */\n  swap1\n  pop\n    /* \"#utility.yul\":905:908   */\n  dup2\n    /* \"#utility.yul\":902:903   */\n  0x00\n    /* \"#utility.yul\":895:909   */\n  mstore\n    /* \"#utility.yul\":939:943   */\n  0x20\n    /* \"#utility.yul\":936:937   */\n  0x00\n    /* \"#utility.yul\":926:944   */\n  keccak256\n    /* \"#utility.yul\":918:944   */\n  swap1\n  pop\n    /* \"#utility.yul\":810:951   */\n  swap2\n  swap1\n  pop\n  jump\t// out\n    /* \"#utility.yul\":957:1050   */\ntag_10:\n    /* \"#utility.yul\":994:1000   */\n  0x00\n    /* \"#utility.yul\":1041:1043   */\n  0x20\n    /* \"#utility.yul\":1036:1038   */\n  0x1f\n    /* \"#utility.yul\":1029:1034   */\n  dup4\n    /* \"#utility.yul\":1025:1039   */\n  add\n    /* \"#utility.yul\":1021:1044   */\n  div\n    /* \"#utility.yul\":1011:1044   */\n  swap1\n  pop\n    /* \"#utility.yul\":957:1050   */\n  swap2\n  swap1\n  pop\n  jump\t// out\n    /* \"#utility.yul\":1056:1163   */\ntag_11:\n    /* \"#utility.yul\":1100:1108   */\n  0x00\n    /* \"#utility.yul\":1150:1155   */\n  dup3\n    /* \"#utility.yul\":1144:1148   */\n  dup3\n    /* \"#utility.yul\":1140:1156   */\n  shl\n    /* \"#utility.yul\":1119:1156   */\n  swap1\n  pop\n    /* \"#utility.yul\":1056:1163   */\n  swap3\n  swap2\n  pop\n  pop\n  jump\t// out\n    /* \"#utility.yul\":1169:1562   */\ntag_12:\n    /* \"#utility.yul\":1238:1244   */\n  0x00\n    /* \"#utility.yul\":1288:1289   */\n  0x08\n    /* \"#utility.yul\":1276:1286   */\n  dup4\n    /* \"#utility.yul\":1272:1290   */\n  mul\n    /* \"#utility.yul\":1311:1408   */\n  tag_37\n    /* \"#utility.yul\":1341:1407   */\n  0xffffffffffffffffffffffffffffffffffffffffffffffffffffffffffffffff\n    /* \"#utility.yul\":1330:1339   */\n  dup3\n    /* \"#utility.yul\":1311:1408   */\n  tag_11\n  jump\t// in\ntag_37:\n    /* \"#utility.yul\":1429:1468   */\n  tag_38\n    /* \"#utility.yul\":1459:1467   */\n  dup7\n    /* \"#utility.yul\":1448:1457   */\n  dup4\n    /* \"#utility.yul\":1429:1468   */\n  tag_11\n  jump\t// in\ntag_38:\n    /* \"#utility.yul\":1417:1468   */\n  swap6\n  pop\n    /* \"#utility.yul\":1501:1505   */\n  dup1\n    /* \"#utility.yul\":1497:1506   */\n  not\n    /* \"#utility.yul\":1490:1495   */\n  dup5\n    /* \"#utility.yul\":1486:1507   */\n  and\n    /* \"#utility.yul\":1477:1507   */\n  swap4\n  pop\n    /* \"#utility.yul\":1550:1554   */\n  dup1\n    /* \"#utility.yul\":1540:1548   */\n  dup7\n    /* \"#utility.yul\":1536:1555   */\n  and\n    /* \"#utility.yul\":1529:1534   */\n  dup5\n    /* \"#utility.yul\":1526:1556   */\n  or\n    /* \"#utility.yul\":1516:1556   */\n  swap3\n  pop\n    /* \"#utility.yul\":1245:1562   */\n  pop\n  pop\n    /* \"#utility.yul\":1169:1562   */\n  swap4\n  swap3\n  pop\n  pop\n  pop\n  jump\t// out\n    /* \"#utility.yul\":1568:1645   */\ntag_13:\n    /* \"#utility.yul\":1605:1612   */\n  0x00\n    /* \"#utility.yul\":1634:1639   */\n  dup2\n    /* \"#utility.yul\":1623:1639   */\n  swap1\n  pop\n    /* \"#utility.yul\":1568:1645   */\n  swap2\n  swap1\n  pop\n  jump\t// out\n    /* \"#utility.yul\":1651:1711   */\ntag_14:\n    /* \"#utility.yul\":1679:1682   */\n  0x00\n    /* \"#utility.yul\":1700:1705   */\n  dup2\n    /* \"#utility.yul\":1693:1705   */\n  swap1\n  pop\n    /* \"#utility.yul\":1651:1711   */\n  swap2\n  swap1\n  pop\n  jump\t// out\n    /* \"#utility.yul\":1717:1859   */\ntag_15:\n    /* \"#utility.yul\":1767:1776   */\n  0x00\n    /* \"#utility.yul\":1800:1853   */\n  tag_42\n    /* \"#utility.yul\":1818:1852   */\n  tag_43\n    /* \"#utility.yul\":1827:1851   */\n  tag_44\n    /* \"#utility.yul\":1845:1850   */\n  dup5\n    /* \"#utility.yul\":1827:1851   */\n  tag_13\n  jump\t// in\ntag_44:\n    /* \"#utility.yul\":1818:1852   */\n  tag_14\n  jump\t// in\ntag_43:\n    /* \"#utility.yul\":1800:1853   */\n  tag_13\n  jump\t// in\ntag_42:\n    /* \"#utility.yul\":1787:1853   */\n  swap1\n  pop\n    /* \"#utility.yul\":1717:1859   */\n  swap2\n  swap1\n  pop\n  jump\t// out\n    /* \"#utility.yul\":1865:1940   */\ntag_16:\n    /* \"#utility.yul\":1908:1911   */\n  0x00\n    /* \"#utility.yul\":1929:1934   */\n  dup2\n    /* \"#utility.yul\":1922:1934   */\n  swap1\n  pop\n    /* \"#utility.yul\":1865:1940   */\n  swap2\n  swap1\n  pop\n  jump\t// out\n    /* \"#utility.yul\":1946:2215   */\ntag_17:\n    /* \"#utility.yul\":2056:2095   */\n  tag_47\n    /* \"#utility.yul\":2087:2094   */\n  dup4\n    /* \"#utility.yul\":2056:2095   */\n  tag_15\n  jump\t// in\ntag_47:\n    /* \"#utility.yul\":2117:2208   */\n  tag_48\n    /* \"#utility.yul\":2166:2207   */\n  tag_49\n    /* \"#utility.yul\":2190:2206   */\n  dup3\n    /* \"#utility.yul\":2166:2207   */\n  tag_16\n  jump\t// in\ntag_49:\n    /* \"#utility.yul\":2158:2164   */\n  dup5\n    /* \"#utility.yul\":2151:2155   */\n  dup5\n    /* \"#utility.yul\":2145:2156   */\n  sload\n    /* \"#utility.yul\":2117:2208   */\n  tag_12\n  jump\t// in\ntag_48:\n    /* \"#utility.yul\":2111:2115   */\n  dup3\n    /* \"#utility.yul\":2104:2209   */\n  sstore\n    /* \"#utility.yul\":2022:2215   */\n  pop\n    /* \"#utility.yul\":1946:2215   */\n  pop\n  pop\n  pop\n  jump\t// out\n    /* \"#utility.yul\":2221:2294   */\ntag_18:\n    /* \"#utility.yul\":2266:2269   */\n  0x00\n    /* \"#utility.yul\":2221:2294   */\n  swap1\n  jump\t// out\n    /* \"#utility.yul\":2300:2489   */\ntag_19:\n    /* \"#utility.yul\":2377:2409   */\n  tag_52\n  tag_18\n  jump\t// in\ntag_52:\n    /* \"#utility.yul\":2418:2483   */\n  tag_53\n    /* \"#utility.yul\":2476:2482   */\n  dup2\n    /* \"#utility.yul\":2468:2474   */\n  dup5\n    /* \"#utility.yul\":2462:2466   */\n  dup5\n    /* \"#utility.yul\":2418:2483   */\n  tag_17\n  jump\t// in\ntag_53:\n    /* \"#utility.yul\":2353:2489   */\n  pop\n    /* \"#utility.yul\":2300:2489   */\n  pop\n  pop\n  jump\t// out\n    /* \"#utility.yul\":2495:2681   */\ntag_20:\n    /* \"#utility.yul\":2555:2675   */\ntag_55:\n    /* \"#utility.yul\":2572:2575   */\n  dup2\n    /* \"#utility.yul\":2565:2570   */\n  dup2\n    /* \"#utility.yul\":2562:2576   */\n  lt\n    /* \"#utility.yul\":2555:2675   */\n  iszero\n  tag_57\n  jumpi\n    /* \"#utility.yul\":2626:2665   */\n  tag_58\n    /* \"#utility.yul\":2663:2664   */\n  0x00\n    /* \"#utility.yul\":2656:2661   */\n  dup3\n    /* \"#utility.yul\":2626:2665   */\n  tag_19\n  jump\t// in\ntag_58:\n    /* \"#utility.yul\":2599:2600   */\n  0x01\n    /* \"#utility.yul\":2592:2597   */\n  dup2\n    /* \"#utility.yul\":2588:2601   */\n  add\n    /* \"#utility.yul\":2579:2601   */\n  swap1\n  pop\n    /* \"#utility.yul\":2555:2675   */\n  jump(tag_55)\ntag_57:\n    /* \"#utility.yul\":2495:2681   */\n  pop\n  pop\n  jump\t// out\n    /* \"#utility.yul\":2687:3230   */\ntag_21:\n    /* \"#utility.yul\":2788:2790   */\n  0x1f\n    /* \"#utility.yul\":2783:2786   */\n  dup3\n    /* \"#utility.yul\":2780:2791   */\n  gt\n    /* \"#utility.yul\":2777:3223   */\n  iszero\n  tag_60\n  jumpi\n    /* \"#utility.yul\":2822:2860   */\n  tag_61\n    /* \"#utility.yul\":2854:2859   */\n  dup2\n    /* \"#utility.yul\":2822:2860   */\n  tag_9\n  jump\t// in\ntag_61:\n    /* \"#utility.yul\":2906:2935   */\n  tag_62\n    /* \"#utility.yul\":2924:2934   */\n  dup5\n    /* \"#utility.yul\":2906:2935   */\n  tag_10\n  jump\t// in\ntag_62:\n    /* \"#utility.yul\":2896:2904   */\n  dup2\n    /* \"#utility.yul\":2892:2936   */\n  add\n    /* \"#utility.yul\":3089:3091   */\n  0x20\n    /* \"#utility.yul\":3077:3087   */\n  dup6\n    /* \"#utility.yul\":3074:3092   */\n  lt\n    /* \"#utility.yul\":3071:3120   */\n  iszero\n  tag_63\n  jumpi\n    /* \"#utility.yul\":3110:3118   */\n  dup2\n    /* \"#utility.yul\":3095:3118   */\n  swap1\n  pop\n    /* \"#utility.yul\":3071:3120   */\ntag_63:\n    /* \"#utility.yul\":3133:3213   */\n  tag_64\n    /* \"#utility.yul\":3189:3211   */\n  tag_65\n    /* \"#utility.yul\":3207:3210   */\n  dup6\n    /* \"#utility.yul\":3189:3211   */\n  tag_10\n  jump\t// in\ntag_65:\n    /* \"#utility.yul\":3179:3187   */\n  dup4\n    /* \"#utility.yul\":3175:3212   */\n  add\n    /* \"#utility.yul\":3162:3173   */\n  dup3\n    /* \"#utility.yul\":3133:3213   */\n  tag_20\n  jump\t// in\ntag_64:\n    /* \"#utility.yul\":2792:3223   */\n  pop\n  pop\n    /* \"#utility.yul\":2777:3223   */\ntag_60:\n    /* \"#utility.yul\":2687:3230   */\n  pop\n  pop\n  pop\n  jump\t// out\n    /* \"#utility.yul\":3236:3353   */\ntag_22:\n    /* \"#utility.yul\":3290:3298   */\n  0x00\n    /* \"#utility.yul\":3340:3345   */\n  dup3\n    /* \"#utility.yul\":3334:3338   */\n  dup3\n    /* \"#utility.yul\":3330:3346   */\n  shr\n    /* \"#utility.yul\":3309:3346   */\n  swap1\n  pop\n    /* \"#utility.yul\":3236:3353   */\n  swap3\n  swap2\n  pop\n  pop\n  jump\t// out\n    /* \"#utility.yul\":3359:3528   */\ntag_23:\n    /* \"#utility.yul\":3403:3409   */\n  0x00\n    /* \"#utility.yul\":3436:3487   */\n  tag_68\n    /* \"#utility.yul\":3484:3485   */\n  0x00\n    /* \"#utility.yul\":3480:3486   */\n  not\n    /* \"#utility.yul\":3472:3477   */\n  dup5\n    /* \"#utility.yul\":3469:3470   */\n  0x08\n    /* \"#utility.yul\":3465:3478   */\n  mul\n    /* \"#utility.yul\":3436:3487   */\n  tag_22\n  jump\t// in\ntag_68:\n    /* \"#utility.yul\":3432:3488   */\n  not\n    /* \"#utility.yul\":3517:3521   */\n  dup1\n    /* \"#utility.yul\":3511:3515   */\n  dup4\n    /* \"#utility.yul\":3507:3522   */\n  and\n    /* \"#utility.yul\":3497:3522   */\n  swap2\n  pop\n    /* \"#utility.yul\":3410:3528   */\n  pop\n    /* \"#utility.yul\":3359:3528   */\n  swap3\n  swap2\n  pop\n  pop\n  jump\t// out\n    /* \"#utility.yul\":3533:3828   */\ntag_24:\n    /* \"#utility.yul\":3609:3613   */\n  0x00\n    /* \"#utility.yul\":3755:3784   */\n  tag_70\n    /* \"#utility.yul\":3780:3783   */\n  dup4\n    /* \"#utility.yul\":3774:3778   */\n  dup4\n    /* \"#utility.yul\":3755:3784   */\n  tag_23\n  jump\t// in\ntag_70:\n    /* \"#utility.yul\":3747:3784   */\n  swap2\n  pop\n    /* \"#utility.yul\":3817:3820   */\n  dup3\n    /* \"#utility.yul\":3814:3815   */\n  0x02\n    /* \"#utility.yul\":3810:3821   */\n  mul\n    /* \"#utility.yul\":3804:3808   */\n  dup3\n    /* \"#utility.yul\":3801:3822   */\n  or\n    /* \"#utility.yul\":3793:3822   */\n  swap1\n  pop\n    /* \"#utility.yul\":3533:3828   */\n  swap3\n  swap2\n  pop\n  pop\n  jump\t// out\n    /* \"#utility.yul\":3833:5228   */\ntag_2:\n    /* \"#utility.yul\":3950:3987   */\n  tag_72\n    /* \"#utility.yul\":3983:3986   */\n  dup3\n    /* \"#utility.yul\":3950:3987   */\n  tag_5\n  jump\t// in\ntag_72:\n    /* \"#utility.yul\":4052:4070   */\n  0xffffffffffffffff\n    /* \"#utility.yul\":4044:4050   */\n  dup2\n    /* \"#utility.yul\":4041:4071   */\n  gt\n    /* \"#utility.yul\":4038:4094   */\n  iszero\n  tag_73\n  jumpi\n    /* \"#utility.yul\":4074:4092   */\n  tag_74\n  tag_6\n  jump\t// in\ntag_74:\n    /* \"#utility.yul\":4038:4094   */\ntag_73:\n    /* \"#utility.yul\":4118:4156   */\n  tag_75\n    /* \"#utility.yul\":4150:4154   */\n  dup3\n    /* \"#utility.yul\":4144:4155   */\n  sload\n    /* \"#utility.yul\":4118:4156   */\n  tag_8\n  jump\t// in\ntag_75:\n    /* \"#utility.yul\":4203:4270   */\n  tag_76\n    /* \"#utility.yul\":4263:4269   */\n  dup3\n    /* \"#utility.yul\":4255:4261   */\n  dup3\n    /* \"#utility.yul\":4249:4253   */\n  dup6\n    /* \"#utility.yul\":4203:4270   */\n  tag_21\n  jump\t// in\ntag_76:\n    /* \"#utility.yul\":4297:4298   */\n  0x00\n    /* \"#utility.yul\":4321:4325   */\n  0x20\n    /* \"#utility.yul\":4308:4325   */\n  swap1\n  pop\n    /* \"#utility.yul\":4353:4355   */\n  0x1f\n    /* \"#utility.yul\":4345:4351   */\n  dup4\n    /* \"#utility.yul\":4342:4356   */\n  gt\n    /* \"#utility.yul\":4370:4371   */\n  0x01\n    /* \"#utility.yul\":4365:4983   */\n  dup2\n  eq\n  tag_78\n  jumpi\n    /* \"#utility.yul\":5027:5028   */\n  0x00\n    /* \"#utility.yul\":5044:5050   */\n  dup5\n    /* \"#utility.yul\":5041:5118   */\n  iszero\n  tag_79\n  jumpi\n    /* \"#utility.yul\":5093:5102   */\n  dup3\n    /* \"#utility.yul\":5088:5091   */\n  dup8\n    /* \"#utility.yul\":5084:5103   */\n  add\n    /* \"#utility.yul\":5078:5104   */\n  mload\n    /* \"#utility.yul\":5069:5104   */\n  swap1\n  pop\n    /* \"#utility.yul\":5041:5118   */\ntag_79:\n    /* \"#utility.yul\":5144:5211   */\n  tag_80\n    /* \"#utility.yul\":5204:5210   */\n  dup6\n    /* \"#utility.yul\":5197:5202   */\n  dup3\n    /* \"#utility.yul\":5144:5211   */\n  tag_24\n  jump\t// in\ntag_80:\n    /* \"#utility.yul\":5138:5142   */\n  dup7\n    /* \"#utility.yul\":5131:5212   */\n  sstore\n    /* \"#utility.yul\":5000:5222   */\n  pop\n    /* \"#utility.yul\":4335:5222   */\n  jump(tag_77)\n    /* \"#utility.yul\":4365:4983   */\ntag_78:\n    /* \"#utility.yul\":4417:4421   */\n  0x1f\n    /* \"#utility.yul\":4413:4422   */\n  not\n    /* \"#utility.yul\":4405:4411   */\n  dup5\n    /* \"#utility.yul\":4401:4423   */\n  and\n    /* \"#utility.yul\":4451:4488   */\n  tag_81\n    /* \"#utility.yul\":4483:4487   */\n  dup7\n    /* \"#utility.yul\":4451:4488   */\n  tag_9\n  jump\t// in\ntag_81:\n    /* \"#utility.yul\":4510:4511   */\n  0x00\n    /* \"#utility.yul\":4524:4732   */\ntag_82:\n    /* \"#utility.yul\":4538:4545   */\n  dup3\n    /* \"#utility.yul\":4535:4536   */\n  dup2\n    /* \"#utility.yul\":4532:4546   */\n  lt\n    /* \"#utility.yul\":4524:4732   */\n  iszero\n  tag_84\n  jumpi\n    /* \"#utility.yul\":4617:4626   */\n  dup5\n    /* \"#utility.yul\":4612:4615   */\n  dup10\n    /* \"#utility.yul\":4608:4627   */\n  add\n    /* \"#utility.yul\":4602:4628   */\n  mload\n    /* \"#utility.yul\":4594:4600   */\n  dup3\n    /* \"#utility.yul\":4587:4629   */\n  sstore\n    /* \"#utility.yul\":4668:4669   */\n  0x01\n    /* \"#utility.yul\":4660:4666   */\n  dup3\n    /* \"#utility.yul\":4656:4670   */\n  add\n    /* \"#utility.yul\":4646:4670   */\n  swap2\n  pop\n    /* \"#utility.yul\":4715:4717   */\n  0x20\n    /* \"#utility.yul\":4704:4713   */\n  dup6\n    /* \"#utility.yul\":4700:4718   */\n  add\n    /* \"#utility.yul\":4687:4718   */\n  swap5\n  pop\n    /* \"#utility.yul\":4561:4565   */\n  0x20\n    /* \"#utility.yul\":4558:4559   */\n  dup2\n    /* \"#utility.yul\":4554:4566   */\n  add\n    /* \"#utility.yul\":4549:4566   */\n  swap1\n  pop\n    /* \"#utility.yul\":4524:4732   */\n  jump(tag_82)\ntag_84:\n    /* \"#utility.yul\":4760:4766   */\n  dup7\n    /* \"#utility.yul\":4751:4758   */\n  dup4\n    /* \"#utility.yul\":4748:4767   */\n  lt\n    /* \"#utility.yul\":4745:4924   */\n  iszero\n  tag_85\n  jumpi\n    /* \"#utility.yul\":4818:4827   */\n  dup5\n    /* \"#utility.yul\":4813:4816   */\n  dup10\n    /* \"#utility.yul\":4809:4828   */\n  add\n    /* \"#utility.yul\":4803:4829   */\n  mload\n    /* \"#utility.yul\":4861:4909   */\n  tag_86\n    /* \"#utility.yul\":4903:4907   */\n  0x1f\n    /* \"#utility.yul\":4895:4901   */\n  dup10\n    /* \"#utility.yul\":4891:4908   */\n  and\n    /* \"#utility.yul\":4880:4889   */\n  dup3\n    /* \"#utility.yul\":4861:4909   */\n  tag_23\n  jump\t// in\ntag_86:\n    /* \"#utility.yul\":4853:4859   */\n  dup4\n    /* \"#utility.yul\":4846:4910   */\n  sstore\n    /* \"#utility.yul\":4768:4924   */\n  pop\n    /* \"#utility.yul\":4745:4924   */\ntag_85:\n    /* \"#utility.yul\":4970:4971   */\n  0x01\n    /* \"#utility.yul\":4966:4967   */\n  0x02\n    /* \"#utility.yul\":4958:4964   */\n  dup9\n    /* \"#utility.yul\":4954:4968   */\n  mul\n    /* \"#utility.yul\":4950:4972   */\n  add\n    /* \"#utility.yul\":4944:4948   */\n  dup9\n    /* \"#utility.yul\":4937:4973   */\n  sstore\n    /* \"#utility.yul\":4372:4983   */\n  pop\n  pop\n  pop\n    /* \"#utility.yul\":4335:5222   */\ntag_77:\n  pop\n    /* \"#utility.yul\":3925:5228   */\n  pop\n  pop\n  pop\n    /* \"#utility.yul\":3833:5228   */\n  pop\n  pop\n  jump\t// out\n    /* \"contract-stringAndBytes.sol\":62:987  contract C {... */\ntag_4:\n  dataSize(sub_0)\n  dup1\n  dataOffset(sub_0)\n  0x00\n  codecopy\n  0x00\n  return\nstop\n\nsub_0: assembly {\n        /* \"contract-stringAndBytes.sol\":62:987  contract C {... */\n      mstore(0x40, 0x80)\n      callvalue\n      dup1\n      iszero\n      tag_1\n      jumpi\n      0x00\n      dup1\n      revert\n    tag_1:\n      pop\n      jumpi(tag_2, lt(calldatasize, 0x04))\n      shr(0xe0, calldataload(0x00))\n      dup1\n      0xb0ed14f6\n      eq\n      tag_3\n      jumpi\n    tag_2:\n      0x00\n      dup1\n      revert\n        /* \"contract-stringAndBytes.sol\":392:985  function f(bytes calldata bc, string memory sm, bytes16 b) public view {... */\n    tag_3:\n      tag_4\n      0x04\n      dup1\n      calldatasize\n      sub\n      dup2\n      add\n      swap1\n      tag_5\n      swap2\n      swap1\n      tag_6\n      jump\t// in\n    tag_5:\n      tag_7\n      jump\t// in\n    tag_4:\n      stop\n    tag_7:\n        /* \"contract-stringAndBytes.sol\":473:499  string memory concatString */\n      0x00\n        /* \"contract-stringAndBytes.sol\":516:517  s */\n      dup1\n        /* \"contract-stringAndBytes.sol\":526:528  bc */\n      dup6\n      dup6\n        /* \"contract-stringAndBytes.sol\":542:544  sm */\n      dup6\n        /* \"contract-stringAndBytes.sol\":502:545  string.concat(s, string(bc), \"Literal\", sm) */\n      add(0x20, mload(0x40))\n      tag_9\n      swap5\n      swap4\n      swap3\n      swap2\n      swap1\n      tag_10\n      jump\t// in\n    tag_9:\n      mload(0x40)\n      0x20\n      dup2\n      dup4\n      sub\n      sub\n      dup2\n      mstore\n      swap1\n      0x40\n      mstore\n        /* \"contract-stringAndBytes.sol\":473:545  string memory concatString = string.concat(s, string(bc), \"Literal\", sm) */\n      swap1\n      pop\n        /* \"contract-stringAndBytes.sol\":687:699  concatString */\n      dup1\n        /* \"contract-stringAndBytes.sol\":681:707  bytes(concatString).length */\n      mload\n        /* \"contract-stringAndBytes.sol\":666:668  sm */\n      dup4\n        /* \"contract-stringAndBytes.sol\":660:676  bytes(sm).length */\n      mload\n        /* \"contract-stringAndBytes.sol\":656:657  7 */\n      0x07\n        /* \"contract-stringAndBytes.sol\":644:646  bc */\n      dup8\n      dup8\n        /* \"contract-stringAndBytes.sol\":644:653  bc.length */\n      swap1\n      pop\n        /* \"contract-stringAndBytes.sol\":632:633  s */\n      0x00\n        /* \"contract-stringAndBytes.sol\":626:641  bytes(s).length */\n      dup1\n      sload\n      tag_11\n      swap1\n      tag_12\n      jump\t// in\n    tag_11:\n      swap1\n      pop\n        /* \"contract-stringAndBytes.sol\":626:653  bytes(s).length + bc.length */\n      tag_13\n      swap2\n      swap1\n      tag_14\n      jump\t// in\n    tag_13:\n        /* \"contract-stringAndBytes.sol\":626:657  bytes(s).length + bc.length + 7 */\n      tag_15\n      swap2\n      swap1\n      tag_14\n      jump\t// in\n    tag_15:\n        /* \"contract-stringAndBytes.sol\":626:676  bytes(s).length + bc.length + 7 + bytes(sm).length */\n      tag_16\n      swap2\n      swap1\n      tag_14\n      jump\t// in\n    tag_16:\n        /* \"contract-stringAndBytes.sol\":625:707  (bytes(s).length + bc.length + 7 + bytes(sm).length) == bytes(concatString).length */\n      eq\n        /* \"contract-stringAndBytes.sol\":618:708  assert((bytes(s).length + bc.length + 7 + bytes(sm).length) == bytes(concatString).length) */\n      tag_17\n      jumpi\n      tag_18\n      tag_19\n      jump\t// in\n    tag_18:\n    tag_17:\n        /* \"contract-stringAndBytes.sol\":785:809  bytes memory concatBytes */\n      0x00\n        /* \"contract-stringAndBytes.sol\":831:832  s */\n      dup1\n        /* \"contract-stringAndBytes.sol\":835:837  bc */\n      dup7\n      dup7\n        /* \"contract-stringAndBytes.sol\":839:841  bc */\n      dup9\n      dup9\n        /* \"contract-stringAndBytes.sol\":839:845  bc[:2] */\n      0x00\n      swap1\n        /* \"contract-stringAndBytes.sol\":843:844  2 */\n      0x02\n        /* \"contract-stringAndBytes.sol\":839:845  bc[:2] */\n      swap3\n      tag_20\n      swap4\n      swap3\n      swap2\n      swap1\n      tag_21\n      jump\t// in\n    tag_20:\n        /* \"contract-stringAndBytes.sol\":864:866  sm */\n      dup9\n        /* \"contract-stringAndBytes.sol\":869:870  b */\n      dup9\n        /* \"contract-stringAndBytes.sol\":812:871  bytes.concat(bytes(s), bc, bc[:2], \"Literal\", bytes(sm), b) */\n      add(0x20, mload(0x40))\n      tag_22\n      swap8\n      swap7\n      swap6\n      swap5\n      swap4\n      swap3\n      swap2\n      swap1\n      tag_23\n      jump\t// in\n    tag_22:\n      mload(0x40)\n      0x20\n      dup2\n      dup4\n      sub\n      sub\n      dup2\n      mstore\n      swap1\n      0x40\n      mstore\n        /* \"contract-stringAndBytes.sol\":785:871  bytes memory concatBytes = bytes.concat(bytes(s), bc, bc[:2], \"Literal\", bytes(sm), b) */\n      swap1\n      pop\n        /* \"contract-stringAndBytes.sol\":959:970  concatBytes */\n      dup1\n        /* \"contract-stringAndBytes.sol\":959:977  concatBytes.length */\n      mload\n        /* \"contract-stringAndBytes.sol\":946:954  b.length */\n      0x10\n        /* \"contract-stringAndBytes.sol\":889:954  bytes(s).length + bc.length + 2 + 7 + bytes(sm).length + b.length */\n      0xff\n      and\n        /* \"contract-stringAndBytes.sol\":933:935  sm */\n      dup6\n        /* \"contract-stringAndBytes.sol\":927:943  bytes(sm).length */\n      mload\n        /* \"contract-stringAndBytes.sol\":923:924  7 */\n      0x07\n        /* \"contract-stringAndBytes.sol\":919:920  2 */\n      0x02\n        /* \"contract-stringAndBytes.sol\":907:909  bc */\n      dup11\n      dup11\n        /* \"contract-stringAndBytes.sol\":907:916  bc.length */\n      swap1\n      pop\n        /* \"contract-stringAndBytes.sol\":895:896  s */\n      0x00\n        /* \"contract-stringAndBytes.sol\":889:904  bytes(s).length */\n      dup1\n      sload\n      tag_24\n      swap1\n      tag_12\n      jump\t// in\n    tag_24:\n      swap1\n      pop\n        /* \"contract-stringAndBytes.sol\":889:916  bytes(s).length + bc.length */\n      tag_25\n      swap2\n      swap1\n      tag_14\n      jump\t// in\n    tag_25:\n        /* \"contract-stringAndBytes.sol\":889:920  bytes(s).length + bc.length + 2 */\n      tag_26\n      swap2\n      swap1\n      tag_14\n      jump\t// in\n    tag_26:\n        /* \"contract-stringAndBytes.sol\":889:924  bytes(s).length + bc.length + 2 + 7 */\n      tag_27\n      swap2\n      swap1\n      tag_14\n      jump\t// in\n    tag_27:\n        /* \"contract-stringAndBytes.sol\":889:943  bytes(s).length + bc.length + 2 + 7 + bytes(sm).length */\n      tag_28\n      swap2\n      swap1\n      tag_14\n      jump\t// in\n    tag_28:\n        /* \"contract-stringAndBytes.sol\":889:954  bytes(s).length + bc.length + 2 + 7 + bytes(sm).length + b.length */\n      tag_29\n      swap2\n      swap1\n      tag_14\n      jump\t// in\n    tag_29:\n        /* \"contract-stringAndBytes.sol\":888:977  (bytes(s).length + bc.length + 2 + 7 + bytes(sm).length + b.length) == concatBytes.length */\n      eq\n        /* \"contract-stringAndBytes.sol\":881:978  assert((bytes(s).length + bc.length + 2 + 7 + bytes(sm).length + b.length) == concatBytes.length) */\n      tag_30\n      jumpi\n      tag_31\n      tag_19\n      jump\t// in\n    tag_31:\n    tag_30:\n        /* \"contract-stringAndBytes.sol\":463:985  {... */\n      pop\n      pop\n        /* \"contract-stringAndBytes.sol\":392:985  function f(bytes calldata bc, string memory sm, bytes16 b) public view {... */\n      pop\n      pop\n      pop\n      pop\n      jump\t// out\n        /* \"#utility.yul\":7:82   */\n    tag_32:\n        /* \"#utility.yul\":40:46   */\n      0x00\n        /* \"#utility.yul\":73:75   */\n      0x40\n        /* \"#utility.yul\":67:76   */\n      mload\n        /* \"#utility.yul\":57:76   */\n      swap1\n      pop\n        /* \"#utility.yul\":7:82   */\n      swap1\n      jump\t// out\n        /* \"#utility.yul\":88:205   */\n    tag_33:\n        /* \"#utility.yul\":197:198   */\n      0x00\n        /* \"#utility.yul\":194:195   */\n      dup1\n        /* \"#utility.yul\":187:199   */\n      revert\n        /* \"#utility.yul\":211:328   */\n    tag_34:\n        /* \"#utility.yul\":320:321   */\n      0x00\n        /* \"#utility.yul\":317:318   */\n      dup1\n        /* \"#utility.yul\":310:322   */\n      revert\n        /* \"#utility.yul\":334:451   */\n    tag_35:\n        /* \"#utility.yul\":443:444   */\n      0x00\n        /* \"#utility.yul\":440:441   */\n      dup1\n        /* \"#utility.yul\":433:445   */\n      revert\n        /* \"#utility.yul\":457:574   */\n    tag_36:\n        /* \"#utility.yul\":566:567   */\n      0x00\n        /* \"#utility.yul\":563:564   */\n      dup1\n        /* \"#utility.yul\":556:568   */\n      revert\n        /* \"#utility.yul\":580:697   */\n    tag_37:\n        /* \"#utility.yul\":689:690   */\n      0x00\n        /* \"#utility.yul\":686:687   */\n      dup1\n        /* \"#utility.yul\":679:691   */\n      revert\n        /* \"#utility.yul\":716:1268   */\n    tag_38:\n        /* \"#utility.yul\":773:781   */\n      0x00\n        /* \"#utility.yul\":783:789   */\n      dup1\n        /* \"#utility.yul\":833:836   */\n      dup4\n        /* \"#utility.yul\":826:830   */\n      0x1f\n        /* \"#utility.yul\":818:824   */\n      dup5\n        /* \"#utility.yul\":814:831   */\n      add\n        /* \"#utility.yul\":810:837   */\n      slt\n        /* \"#utility.yul\":800:922   */\n      tag_80\n      jumpi\n        /* \"#utility.yul\":841:920   */\n      tag_81\n      tag_35\n      jump\t// in\n    tag_81:\n        /* \"#utility.yul\":800:922   */\n    tag_80:\n        /* \"#utility.yul\":954:960   */\n      dup3\n        /* \"#utility.yul\":941:961   */\n      calldataload\n        /* \"#utility.yul\":931:961   */\n      swap1\n      pop\n        /* \"#utility.yul\":984:1002   */\n      0xffffffffffffffff\n        /* \"#utility.yul\":976:982   */\n      dup2\n        /* \"#utility.yul\":973:1003   */\n      gt\n        /* \"#utility.yul\":970:1087   */\n      iszero\n      tag_82\n      jumpi\n        /* \"#utility.yul\":1006:1085   */\n      tag_83\n      tag_36\n      jump\t// in\n    tag_83:\n        /* \"#utility.yul\":970:1087   */\n    tag_82:\n        /* \"#utility.yul\":1120:1124   */\n      0x20\n        /* \"#utility.yul\":1112:1118   */\n      dup4\n        /* \"#utility.yul\":1108:1125   */\n      add\n        /* \"#utility.yul\":1096:1125   */\n      swap2\n      pop\n        /* \"#utility.yul\":1174:1177   */\n      dup4\n        /* \"#utility.yul\":1166:1170   */\n      0x01\n        /* \"#utility.yul\":1158:1164   */\n      dup3\n        /* \"#utility.yul\":1154:1171   */\n      mul\n        /* \"#utility.yul\":1144:1152   */\n      dup4\n        /* \"#utility.yul\":1140:1172   */\n      add\n        /* \"#utility.yul\":1137:1178   */\n      gt\n        /* \"#utility.yul\":1134:1262   */\n      iszero\n      tag_84\n      jumpi\n        /* \"#utility.yul\":1181:1260   */\n      tag_85\n      tag_37\n      jump\t// in\n    tag_85:\n        /* \"#utility.yul\":1134:1262   */\n    tag_84:\n        /* \"#utility.yul\":716:1268   */\n      swap3\n      pop\n      swap3\n      swap1\n      pop\n      jump\t// out\n        /* \"#utility.yul\":1274:1391   */\n    tag_39:\n        /* \"#utility.yul\":1383:1384   */\n      0x00\n        /* \"#utility.yul\":1380:1381   */\n      dup1\n        /* \"#utility.yul\":1373:1385   */\n      revert\n        /* \"#utility.yul\":1397:1499   */\n    tag_40:\n        /* \"#utility.yul\":1438:1444   */\n      0x00\n        /* \"#utility.yul\":1489:1491   */\n      0x1f\n        /* \"#utility.yul\":1485:1492   */\n      not\n        /* \"#utility.yul\":1480:1482   */\n      0x1f\n        /* \"#utility.yul\":1473:1478   */\n      dup4\n        /* \"#utility.yul\":1469:1483   */\n      add\n        /* \"#utility.yul\":1465:1493   */\n      and\n        /* \"#utility.yul\":1455:1493   */\n      swap1\n      pop\n        /* \"#utility.yul\":1397:1499   */\n      swap2\n      swap1\n      pop\n      jump\t// out\n        /* \"#utility.yul\":1505:1685   */\n    tag_41:\n        /* \"#utility.yul\":1553:1630   */\n      0x4e487b7100000000000000000000000000000000000000000000000000000000\n        /* \"#utility.yul\":1550:1551   */\n      0x00\n        /* \"#utility.yul\":1543:1631   */\n      mstore\n        /* \"#utility.yul\":1650:1654   */\n      0x41\n        /* \"#utility.yul\":1647:1648   */\n      0x04\n        /* \"#utility.yul\":1640:1655   */\n      mstore\n        /* \"#utility.yul\":1674:1678   */\n      0x24\n        /* \"#utility.yul\":1671:1672   */\n      0x00\n        /* \"#utility.yul\":1664:1679   */\n      revert\n        /* \"#utility.yul\":1691:1972   */\n    tag_42:\n        /* \"#utility.yul\":1774:1801   */\n      tag_90\n        /* \"#utility.yul\":1796:1800   */\n      dup3\n        /* \"#utility.yul\":1774:1801   */\n      tag_40\n      jump\t// in\n    tag_90:\n        /* \"#utility.yul\":1766:1772   */\n      dup2\n        /* \"#utility.yul\":1762:1802   */\n      add\n        /* \"#utility.yul\":1904:1910   */\n      dup2\n        /* \"#utility.yul\":1892:1902   */\n      dup2\n        /* \"#utility.yul\":1889:1911   */\n      lt\n        /* \"#utility.yul\":1868:1886   */\n      0xffffffffffffffff\n        /* \"#utility.yul\":1856:1866   */\n      dup3\n        /* \"#utility.yul\":1853:1887   */\n      gt\n        /* \"#utility.yul\":1850:1912   */\n      or\n        /* \"#utility.yul\":1847:1935   */\n      iszero\n      tag_91\n      jumpi\n        /* \"#utility.yul\":1915:1933   */\n      tag_92\n      tag_41\n      jump\t// in\n    tag_92:\n        /* \"#utility.yul\":1847:1935   */\n    tag_91:\n        /* \"#utility.yul\":1955:1965   */\n      dup1\n        /* \"#utility.yul\":1951:1953   */\n      0x40\n        /* \"#utility.yul\":1944:1966   */\n      mstore\n        /* \"#utility.yul\":1734:1972   */\n      pop\n        /* \"#utility.yul\":1691:1972   */\n      pop\n      pop\n      jump\t// out\n        /* \"#utility.yul\":1978:2107   */\n    tag_43:\n        /* \"#utility.yul\":2012:2018   */\n      0x00\n        /* \"#utility.yul\":2039:2059   */\n      tag_94\n      tag_32\n      jump\t// in\n    tag_94:\n        /* \"#utility.yul\":2029:2059   */\n      swap1\n      pop\n        /* \"#utility.yul\":2068:2101   */\n      tag_95\n        /* \"#utility.yul\":2096:2100   */\n      dup3\n        /* \"#utility.yul\":2088:2094   */\n      dup3\n        /* \"#utility.yul\":2068:2101   */\n      tag_42\n      jump\t// in\n    tag_95:\n        /* \"#utility.yul\":1978:2107   */\n      swap2\n      swap1\n      pop\n      jump\t// out\n        /* \"#utility.yul\":2113:2421   */\n    tag_44:\n        /* \"#utility.yul\":2175:2179   */\n      0x00\n        /* \"#utility.yul\":2265:2283   */\n      0xffffffffffffffff\n        /* \"#utility.yul\":2257:2263   */\n      dup3\n        /* \"#utility.yul\":2254:2284   */\n      gt\n        /* \"#utility.yul\":2251:2307   */\n      iszero\n      tag_97\n      jumpi\n        /* \"#utility.yul\":2287:2305   */\n      tag_98\n      tag_41\n      jump\t// in\n    tag_98:\n        /* \"#utility.yul\":2251:2307   */\n    tag_97:\n        /* \"#utility.yul\":2325:2354   */\n      tag_99\n        /* \"#utility.yul\":2347:2353   */\n      dup3\n        /* \"#utility.yul\":2325:2354   */\n      tag_40\n      jump\t// in\n    tag_99:\n        /* \"#utility.yul\":2317:2354   */\n      swap1\n      pop\n        /* \"#utility.yul\":2409:2413   */\n      0x20\n        /* \"#utility.yul\":2403:2407   */\n      dup2\n        /* \"#utility.yul\":2399:2414   */\n      add\n        /* \"#utility.yul\":2391:2414   */\n      swap1\n      pop\n        /* \"#utility.yul\":2113:2421   */\n      swap2\n      swap1\n      pop\n      jump\t// out\n        /* \"#utility.yul\":2427:2573   */\n    tag_45:\n        /* \"#utility.yul\":2524:2530   */\n      dup3\n        /* \"#utility.yul\":2519:2522   */\n      dup2\n        /* \"#utility.yul\":2514:2517   */\n      dup4\n        /* \"#utility.yul\":2501:2531   */\n      calldatacopy\n        /* \"#utility.yul\":2565:2566   */\n      0x00\n        /* \"#utility.yul\":2556:2562   */\n      dup4\n        /* \"#utility.yul\":2551:2554   */\n      dup4\n        /* \"#utility.yul\":2547:2563   */\n      add\n        /* \"#utility.yul\":2540:2567   */\n      mstore\n        /* \"#utility.yul\":2427:2573   */\n      pop\n      pop\n      pop\n      jump\t// out\n        /* \"#utility.yul\":2579:3004   */\n    tag_46:\n        /* \"#utility.yul\":2657:2662   */\n      0x00\n        /* \"#utility.yul\":2682:2748   */\n      tag_102\n        /* \"#utility.yul\":2698:2747   */\n      tag_103\n        /* \"#utility.yul\":2740:2746   */\n      dup5\n        /* \"#utility.yul\":2698:2747   */\n      tag_44\n      jump\t// in\n    tag_103:\n        /* \"#utility.yul\":2682:2748   */\n      tag_43\n      jump\t// in\n    tag_102:\n        /* \"#utility.yul\":2673:2748   */\n      swap1\n      pop\n        /* \"#utility.yul\":2771:2777   */\n      dup3\n        /* \"#utility.yul\":2764:2769   */\n      dup2\n        /* \"#utility.yul\":2757:2778   */\n      mstore\n        /* \"#utility.yul\":2809:2813   */\n      0x20\n        /* \"#utility.yul\":2802:2807   */\n      dup2\n        /* \"#utility.yul\":2798:2814   */\n      add\n        /* \"#utility.yul\":2847:2850   */\n      dup5\n        /* \"#utility.yul\":2838:2844   */\n      dup5\n        /* \"#utility.yul\":2833:2836   */\n      dup5\n        /* \"#utility.yul\":2829:2845   */\n      add\n        /* \"#utility.yul\":2826:2851   */\n      gt\n        /* \"#utility.yul\":2823:2935   */\n      iszero\n      tag_104\n      jumpi\n        /* \"#utility.yul\":2854:2933   */\n      tag_105\n      tag_39\n      jump\t// in\n    tag_105:\n        /* \"#utility.yul\":2823:2935   */\n    tag_104:\n        /* \"#utility.yul\":2944:2998   */\n      tag_106\n        /* \"#utility.yul\":2991:2997   */\n      dup5\n        /* \"#utility.yul\":2986:2989   */\n      dup3\n        /* \"#utility.yul\":2981:2984   */\n      dup6\n        /* \"#utility.yul\":2944:2998   */\n      tag_45\n      jump\t// in\n    tag_106:\n        /* \"#utility.yul\":2663:3004   */\n      pop\n        /* \"#utility.yul\":2579:3004   */\n      swap4\n      swap3\n      pop\n      pop\n      pop\n      jump\t// out\n        /* \"#utility.yul\":3024:3364   */\n    tag_47:\n        /* \"#utility.yul\":3080:3085   */\n      0x00\n        /* \"#utility.yul\":3129:3132   */\n      dup3\n        /* \"#utility.yul\":3122:3126   */\n      0x1f\n        /* \"#utility.yul\":3114:3120   */\n      dup4\n        /* \"#utility.yul\":3110:3127   */\n      add\n        /* \"#utility.yul\":3106:3133   */\n      slt\n        /* \"#utility.yul\":3096:3218   */\n      tag_108\n      jumpi\n        /* \"#utility.yul\":3137:3216   */\n      tag_109\n      tag_35\n      jump\t// in\n    tag_109:\n        /* \"#utility.yul\":3096:3218   */\n    tag_108:\n        /* \"#utility.yul\":3254:3260   */\n      dup2\n        /* \"#utility.yul\":3241:3261   */\n      calldataload\n        /* \"#utility.yul\":3279:3358   */\n      tag_110\n        /* \"#utility.yul\":3354:3357   */\n      dup5\n        /* \"#utility.yul\":3346:3352   */\n      dup3\n        /* \"#utility.yul\":3339:3343   */\n      0x20\n        /* \"#utility.yul\":3331:3337   */\n      dup7\n        /* \"#utility.yul\":3327:3344   */\n      add\n        /* \"#utility.yul\":3279:3358   */\n      tag_46\n      jump\t// in\n    tag_110:\n        /* \"#utility.yul\":3270:3358   */\n      swap2\n      pop\n        /* \"#utility.yul\":3086:3364   */\n      pop\n        /* \"#utility.yul\":3024:3364   */\n      swap3\n      swap2\n      pop\n      pop\n      jump\t// out\n        /* \"#utility.yul\":3370:3520   */\n    tag_48:\n        /* \"#utility.yul\":3407:3414   */\n      0x00\n        /* \"#utility.yul\":3447:3513   */\n      0xffffffffffffffffffffffffffffffff00000000000000000000000000000000\n        /* \"#utility.yul\":3440:3445   */\n      dup3\n        /* \"#utility.yul\":3436:3514   */\n      and\n        /* \"#utility.yul\":3425:3514   */\n      swap1\n      pop\n        /* \"#utility.yul\":3370:3520   */\n      swap2\n      swap1\n      pop\n      jump\t// out\n        /* \"#utility.yul\":3526:3648   */\n    tag_49:\n        /* \"#utility.yul\":3599:3623   */\n      tag_113\n        /* \"#utility.yul\":3617:3622   */\n      dup2\n        /* \"#utility.yul\":3599:3623   */\n      tag_48\n      jump\t// in\n    tag_113:\n        /* \"#utility.yul\":3592:3597   */\n      dup2\n        /* \"#utility.yul\":3589:3624   */\n      eq\n        /* \"#utility.yul\":3579:3642   */\n      tag_114\n      jumpi\n        /* \"#utility.yul\":3638:3639   */\n      0x00\n        /* \"#utility.yul\":3635:3636   */\n      dup1\n        /* \"#utility.yul\":3628:3640   */\n      revert\n        /* \"#utility.yul\":3579:3642   */\n    tag_114:\n        /* \"#utility.yul\":3526:3648   */\n      pop\n      jump\t// out\n        /* \"#utility.yul\":3654:3793   */\n    tag_50:\n        /* \"#utility.yul\":3700:3705   */\n      0x00\n        /* \"#utility.yul\":3738:3744   */\n      dup2\n        /* \"#utility.yul\":3725:3745   */\n      calldataload\n        /* \"#utility.yul\":3716:3745   */\n      swap1\n      pop\n        /* \"#utility.yul\":3754:3787   */\n      tag_116\n        /* \"#utility.yul\":3781:3786   */\n      dup2\n        /* \"#utility.yul\":3754:3787   */\n      tag_49\n      jump\t// in\n    tag_116:\n        /* \"#utility.yul\":3654:3793   */\n      swap3\n      swap2\n      pop\n      pop\n      jump\t// out\n        /* \"#utility.yul\":3799:4796   */\n    tag_6:\n        /* \"#utility.yul\":3897:3903   */\n      0x00\n        /* \"#utility.yul\":3905:3911   */\n      dup1\n        /* \"#utility.yul\":3913:3919   */\n      0x00\n        /* \"#utility.yul\":3921:3927   */\n      dup1\n        /* \"#utility.yul\":3970:3972   */\n      0x60\n        /* \"#utility.yul\":3958:3967   */\n      dup6\n        /* \"#utility.yul\":3949:3956   */\n      dup8\n        /* \"#utility.yul\":3945:3968   */\n      sub\n        /* \"#utility.yul\":3941:3973   */\n      slt\n        /* \"#utility.yul\":3938:4057   */\n      iszero\n      tag_118\n      jumpi\n        /* \"#utility.yul\":3976:4055   */\n      tag_119\n      tag_33\n      jump\t// in\n    tag_119:\n        /* \"#utility.yul\":3938:4057   */\n    tag_118:\n        /* \"#utility.yul\":4124:4125   */\n      0x00\n        /* \"#utility.yul\":4113:4122   */\n      dup6\n        /* \"#utility.yul\":4109:4126   */\n      add\n        /* \"#utility.yul\":4096:4127   */\n      calldataload\n        /* \"#utility.yul\":4154:4172   */\n      0xffffffffffffffff\n        /* \"#utility.yul\":4146:4152   */\n      dup2\n        /* \"#utility.yul\":4143:4173   */\n      gt\n        /* \"#utility.yul\":4140:4257   */\n      iszero\n      tag_120\n      jumpi\n        /* \"#utility.yul\":4176:4255   */\n      tag_121\n      tag_34\n      jump\t// in\n    tag_121:\n        /* \"#utility.yul\":4140:4257   */\n    tag_120:\n        /* \"#utility.yul\":4289:4353   */\n      tag_122\n        /* \"#utility.yul\":4345:4352   */\n      dup8\n        /* \"#utility.yul\":4336:4342   */\n      dup3\n        /* \"#utility.yul\":4325:4334   */\n      dup9\n        /* \"#utility.yul\":4321:4343   */\n      add\n        /* \"#utility.yul\":4289:4353   */\n      tag_38\n      jump\t// in\n    tag_122:\n        /* \"#utility.yul\":4271:4353   */\n      swap5\n      pop\n      swap5\n      pop\n        /* \"#utility.yul\":4067:4363   */\n      pop\n        /* \"#utility.yul\":4430:4432   */\n      0x20\n        /* \"#utility.yul\":4419:4428   */\n      dup6\n        /* \"#utility.yul\":4415:4433   */\n      add\n        /* \"#utility.yul\":4402:4434   */\n      calldataload\n        /* \"#utility.yul\":4461:4479   */\n      0xffffffffffffffff\n        /* \"#utility.yul\":4453:4459   */\n      dup2\n        /* \"#utility.yul\":4450:4480   */\n      gt\n        /* \"#utility.yul\":4447:4564   */\n      iszero\n      tag_123\n      jumpi\n        /* \"#utility.yul\":4483:4562   */\n      tag_124\n      tag_34\n      jump\t// in\n    tag_124:\n        /* \"#utility.yul\":4447:4564   */\n    tag_123:\n        /* \"#utility.yul\":4588:4651   */\n      tag_125\n        /* \"#utility.yul\":4643:4650   */\n      dup8\n        /* \"#utility.yul\":4634:4640   */\n      dup3\n        /* \"#utility.yul\":4623:4632   */\n      dup9\n        /* \"#utility.yul\":4619:4641   */\n      add\n        /* \"#utility.yul\":4588:4651   */\n      tag_47\n      jump\t// in\n    tag_125:\n        /* \"#utility.yul\":4578:4651   */\n      swap3\n      pop\n        /* \"#utility.yul\":4373:4661   */\n      pop\n        /* \"#utility.yul\":4700:4702   */\n      0x40\n        /* \"#utility.yul\":4726:4779   */\n      tag_126\n        /* \"#utility.yul\":4771:4778   */\n      dup8\n        /* \"#utility.yul\":4762:4768   */\n      dup3\n        /* \"#utility.yul\":4751:4760   */\n      dup9\n        /* \"#utility.yul\":4747:4769   */\n      add\n        /* \"#utility.yul\":4726:4779   */\n      tag_50\n      jump\t// in\n    tag_126:\n        /* \"#utility.yul\":4716:4779   */\n      swap2\n      pop\n        /* \"#utility.yul\":4671:4789   */\n      pop\n        /* \"#utility.yul\":3799:4796   */\n      swap3\n      swap6\n      swap2\n      swap5\n      pop\n      swap3\n      pop\n      jump\t// out\n        /* \"#utility.yul\":4802:4982   */\n    tag_51:\n        /* \"#utility.yul\":4850:4927   */\n      0x4e487b7100000000000000000000000000000000000000000000000000000000\n        /* \"#utility.yul\":4847:4848   */\n      0x00\n        /* \"#utility.yul\":4840:4928   */\n      mstore\n        /* \"#utility.yul\":4947:4951   */\n      0x22\n        /* \"#utility.yul\":4944:4945   */\n      0x04\n        /* \"#utility.yul\":4937:4952   */\n      mstore\n        /* \"#utility.yul\":4971:4975   */\n      0x24\n        /* \"#utility.yul\":4968:4969   */\n      0x00\n        /* \"#utility.yul\":4961:4976   */\n      revert\n        /* \"#utility.yul\":4988:5308   */\n    tag_12:\n        /* \"#utility.yul\":5032:5038   */\n      0x00\n        /* \"#utility.yul\":5069:5070   */\n      0x02\n        /* \"#utility.yul\":5063:5067   */\n      dup3\n        /* \"#utility.yul\":5059:5071   */\n      div\n        /* \"#utility.yul\":5049:5071   */\n      swap1\n      pop\n        /* \"#utility.yul\":5116:5117   */\n      0x01\n        /* \"#utility.yul\":5110:5114   */\n      dup3\n        /* \"#utility.yul\":5106:5118   */\n      and\n        /* \"#utility.yul\":5137:5155   */\n      dup1\n        /* \"#utility.yul\":5127:5208   */\n      tag_129\n      jumpi\n        /* \"#utility.yul\":5193:5197   */\n      0x7f\n        /* \"#utility.yul\":5185:5191   */\n      dup3\n        /* \"#utility.yul\":5181:5198   */\n      and\n        /* \"#utility.yul\":5171:5198   */\n      swap2\n      pop\n        /* \"#utility.yul\":5127:5208   */\n    tag_129:\n        /* \"#utility.yul\":5255:5257   */\n      0x20\n        /* \"#utility.yul\":5247:5253   */\n      dup3\n        /* \"#utility.yul\":5244:5258   */\n      lt\n        /* \"#utility.yul\":5224:5242   */\n      dup2\n        /* \"#utility.yul\":5221:5259   */\n      sub\n        /* \"#utility.yul\":5218:5302   */\n      tag_130\n      jumpi\n        /* \"#utility.yul\":5274:5292   */\n      tag_131\n      tag_51\n      jump\t// in\n    tag_131:\n        /* \"#utility.yul\":5218:5302   */\n    tag_130:\n        /* \"#utility.yul\":5039:5308   */\n      pop\n        /* \"#utility.yul\":4988:5308   */\n      swap2\n      swap1\n      pop\n      jump\t// out\n        /* \"#utility.yul\":5314:5462   */\n    tag_52:\n        /* \"#utility.yul\":5416:5427   */\n      0x00\n        /* \"#utility.yul\":5453:5456   */\n      dup2\n        /* \"#utility.yul\":5438:5456   */\n      swap1\n      pop\n        /* \"#utility.yul\":5314:5462   */\n      swap3\n      swap2\n      pop\n      pop\n      jump\t// out\n        /* \"#utility.yul\":5468:5609   */\n    tag_53:\n        /* \"#utility.yul\":5517:5521   */\n      0x00\n        /* \"#utility.yul\":5540:5543   */\n      dup2\n        /* \"#utility.yul\":5532:5543   */\n      swap1\n      pop\n        /* \"#utility.yul\":5563:5566   */\n      dup2\n        /* \"#utility.yul\":5560:5561   */\n      0x00\n        /* \"#utility.yul\":5553:5567   */\n      mstore\n        /* \"#utility.yul\":5597:5601   */\n      0x20\n        /* \"#utility.yul\":5594:5595   */\n      0x00\n        /* \"#utility.yul\":5584:5602   */\n      keccak256\n        /* \"#utility.yul\":5576:5602   */\n      swap1\n      pop\n        /* \"#utility.yul\":5468:5609   */\n      swap2\n      swap1\n      pop\n      jump\t// out\n        /* \"#utility.yul\":5639:6513   */\n    tag_54:\n        /* \"#utility.yul\":5742:5745   */\n      0x00\n        /* \"#utility.yul\":5779:5784   */\n      dup2\n        /* \"#utility.yul\":5773:5785   */\n      sload\n        /* \"#utility.yul\":5808:5844   */\n      tag_135\n        /* \"#utility.yul\":5834:5843   */\n      dup2\n        /* \"#utility.yul\":5808:5844   */\n      tag_12\n      jump\t// in\n    tag_135:\n        /* \"#utility.yul\":5860:5949   */\n      tag_136\n        /* \"#utility.yul\":5942:5948   */\n      dup2\n        /* \"#utility.yul\":5937:5940   */\n      dup7\n        /* \"#utility.yul\":5860:5949   */\n      tag_52\n      jump\t// in\n    tag_136:\n        /* \"#utility.yul\":5853:5949   */\n      swap5\n      pop\n        /* \"#utility.yul\":5980:5981   */\n      0x01\n        /* \"#utility.yul\":5969:5978   */\n      dup3\n        /* \"#utility.yul\":5965:5982   */\n      and\n        /* \"#utility.yul\":5996:5997   */\n      0x00\n        /* \"#utility.yul\":5991:6157   */\n      dup2\n      eq\n      tag_138\n      jumpi\n        /* \"#utility.yul\":6171:6172   */\n      0x01\n        /* \"#utility.yul\":6166:6507   */\n      dup2\n      eq\n      tag_139\n      jumpi\n        /* \"#utility.yul\":5958:6507   */\n      jump(tag_137)\n        /* \"#utility.yul\":5991:6157   */\n    tag_138:\n        /* \"#utility.yul\":6075:6079   */\n      0xff\n        /* \"#utility.yul\":6071:6080   */\n      not\n        /* \"#utility.yul\":6060:6069   */\n      dup4\n        /* \"#utility.yul\":6056:6081   */\n      and\n        /* \"#utility.yul\":6051:6054   */\n      dup7\n        /* \"#utility.yul\":6044:6082   */\n      mstore\n        /* \"#utility.yul\":6137:6143   */\n      dup2\n        /* \"#utility.yul\":6130:6144   */\n      iszero\n        /* \"#utility.yul\":6123:6145   */\n      iszero\n        /* \"#utility.yul\":6115:6121   */\n      dup3\n        /* \"#utility.yul\":6111:6146   */\n      mul\n        /* \"#utility.yul\":6106:6109   */\n      dup7\n        /* \"#utility.yul\":6102:6147   */\n      add\n        /* \"#utility.yul\":6095:6147   */\n      swap4\n      pop\n        /* \"#utility.yul\":5991:6157   */\n      jump(tag_137)\n        /* \"#utility.yul\":6166:6507   */\n    tag_139:\n        /* \"#utility.yul\":6233:6271   */\n      tag_140\n        /* \"#utility.yul\":6265:6270   */\n      dup6\n        /* \"#utility.yul\":6233:6271   */\n      tag_53\n      jump\t// in\n    tag_140:\n        /* \"#utility.yul\":6293:6294   */\n      0x00\n        /* \"#utility.yul\":6307:6461   */\n    tag_141:\n        /* \"#utility.yul\":6321:6327   */\n      dup4\n        /* \"#utility.yul\":6318:6319   */\n      dup2\n        /* \"#utility.yul\":6315:6328   */\n      lt\n        /* \"#utility.yul\":6307:6461   */\n      iszero\n      tag_143\n      jumpi\n        /* \"#utility.yul\":6395:6402   */\n      dup2\n        /* \"#utility.yul\":6389:6403   */\n      sload\n        /* \"#utility.yul\":6385:6386   */\n      dup2\n        /* \"#utility.yul\":6380:6383   */\n      dup10\n        /* \"#utility.yul\":6376:6387   */\n      add\n        /* \"#utility.yul\":6369:6404   */\n      mstore\n        /* \"#utility.yul\":6445:6446   */\n      0x01\n        /* \"#utility.yul\":6436:6443   */\n      dup3\n        /* \"#utility.yul\":6432:6447   */\n      add\n        /* \"#utility.yul\":6421:6447   */\n      swap2\n      pop\n        /* \"#utility.yul\":6343:6347   */\n      0x20\n        /* \"#utility.yul\":6340:6341   */\n      dup2\n        /* \"#utility.yul\":6336:6348   */\n      add\n        /* \"#utility.yul\":6331:6348   */\n      swap1\n      pop\n        /* \"#utility.yul\":6307:6461   */\n      jump(tag_141)\n    tag_143:\n        /* \"#utility.yul\":6490:6496   */\n      dup4\n        /* \"#utility.yul\":6485:6488   */\n      dup9\n        /* \"#utility.yul\":6481:6497   */\n      add\n        /* \"#utility.yul\":6474:6497   */\n      swap6\n      pop\n        /* \"#utility.yul\":6173:6507   */\n      pop\n      pop\n        /* \"#utility.yul\":5958:6507   */\n    tag_137:\n      pop\n        /* \"#utility.yul\":5746:6513   */\n      pop\n      pop\n        /* \"#utility.yul\":5639:6513   */\n      swap3\n      swap2\n      pop\n      pop\n      jump\t// out\n        /* \"#utility.yul\":6543:6873   */\n    tag_55:\n        /* \"#utility.yul\":6659:6662   */\n      0x00\n        /* \"#utility.yul\":6680:6769   */\n      tag_145\n        /* \"#utility.yul\":6762:6768   */\n      dup4\n        /* \"#utility.yul\":6757:6760   */\n      dup6\n        /* \"#utility.yul\":6680:6769   */\n      tag_52\n      jump\t// in\n    tag_145:\n        /* \"#utility.yul\":6673:6769   */\n      swap4\n      pop\n        /* \"#utility.yul\":6779:6835   */\n      tag_146\n        /* \"#utility.yul\":6828:6834   */\n      dup4\n        /* \"#utility.yul\":6823:6826   */\n      dup6\n        /* \"#utility.yul\":6816:6821   */\n      dup5\n        /* \"#utility.yul\":6779:6835   */\n      tag_45\n      jump\t// in\n    tag_146:\n        /* \"#utility.yul\":6860:6866   */\n      dup3\n        /* \"#utility.yul\":6855:6858   */\n      dup5\n        /* \"#utility.yul\":6851:6867   */\n      add\n        /* \"#utility.yul\":6844:6867   */\n      swap1\n      pop\n        /* \"#utility.yul\":6543:6873   */\n      swap4\n      swap3\n      pop\n      pop\n      pop\n      jump\t// out\n        /* \"#utility.yul\":6879:7063   */\n    tag_56:\n        /* \"#utility.yul\":7047:7056   */\n      0x4c69746572616c00000000000000000000000000000000000000000000000000\n        /* \"#utility.yul\":7042:7045   */\n      dup2\n        /* \"#utility.yul\":7035:7057   */\n      mstore\n        /* \"#utility.yul\":6879:7063   */\n      pop\n      jump\t// out\n        /* \"#utility.yul\":7069:7168   */\n    tag_57:\n        /* \"#utility.yul\":7121:7127   */\n      0x00\n        /* \"#utility.yul\":7155:7160   */\n      dup2\n        /* \"#utility.yul\":7149:7161   */\n      mload\n        /* \"#utility.yul\":7139:7161   */\n      swap1\n      pop\n        /* \"#utility.yul\":7069:7168   */\n      swap2\n      swap1\n      pop\n      jump\t// out\n        /* \"#utility.yul\":7174:7420   */\n    tag_58:\n        /* \"#utility.yul\":7255:7256   */\n      0x00\n        /* \"#utility.yul\":7265:7378   */\n    tag_150:\n        /* \"#utility.yul\":7279:7285   */\n      dup4\n        /* \"#utility.yul\":7276:7277   */\n      dup2\n        /* \"#utility.yul\":7273:7286   */\n      lt\n        /* \"#utility.yul\":7265:7378   */\n      iszero\n      tag_152\n      jumpi\n        /* \"#utility.yul\":7364:7365   */\n      dup1\n        /* \"#utility.yul\":7359:7362   */\n      dup3\n        /* \"#utility.yul\":7355:7366   */\n      add\n        /* \"#utility.yul\":7349:7367   */\n      mload\n        /* \"#utility.yul\":7345:7346   */\n      dup2\n        /* \"#utility.yul\":7340:7343   */\n      dup5\n        /* \"#utility.yul\":7336:7347   */\n      add\n        /* \"#utility.yul\":7329:7368   */\n      mstore\n        /* \"#utility.yul\":7301:7303   */\n      0x20\n        /* \"#utility.yul\":7298:7299   */\n      dup2\n        /* \"#utility.yul\":7294:7304   */\n      add\n        /* \"#utility.yul\":7289:7304   */\n      swap1\n      pop\n        /* \"#utility.yul\":7265:7378   */\n      jump(tag_150)\n    tag_152:\n        /* \"#utility.yul\":7412:7413   */\n      0x00\n        /* \"#utility.yul\":7403:7409   */\n      dup5\n        /* \"#utility.yul\":7398:7401   */\n      dup5\n        /* \"#utility.yul\":7394:7410   */\n      add\n        /* \"#utility.yul\":7387:7414   */\n      mstore\n        /* \"#utility.yul\":7236:7420   */\n      pop\n        /* \"#utility.yul\":7174:7420   */\n      pop\n      pop\n      pop\n      jump\t// out\n        /* \"#utility.yul\":7426:7816   */\n    tag_59:\n        /* \"#utility.yul\":7532:7535   */\n      0x00\n        /* \"#utility.yul\":7560:7599   */\n      tag_154\n        /* \"#utility.yul\":7593:7598   */\n      dup3\n        /* \"#utility.yul\":7560:7599   */\n      tag_57\n      jump\t// in\n    tag_154:\n        /* \"#utility.yul\":7615:7704   */\n      tag_155\n        /* \"#utility.yul\":7697:7703   */\n      dup2\n        /* \"#utility.yul\":7692:7695   */\n      dup6\n        /* \"#utility.yul\":7615:7704   */\n      tag_52\n      jump\t// in\n    tag_155:\n        /* \"#utility.yul\":7608:7704   */\n      swap4\n      pop\n        /* \"#utility.yul\":7713:7778   */\n      tag_156\n        /* \"#utility.yul\":7771:7777   */\n      dup2\n        /* \"#utility.yul\":7766:7769   */\n      dup6\n        /* \"#utility.yul\":7759:7763   */\n      0x20\n        /* \"#utility.yul\":7752:7757   */\n      dup7\n        /* \"#utility.yul\":7748:7764   */\n      add\n        /* \"#utility.yul\":7713:7778   */\n      tag_58\n      jump\t// in\n    tag_156:\n        /* \"#utility.yul\":7803:7809   */\n      dup1\n        /* \"#utility.yul\":7798:7801   */\n      dup5\n        /* \"#utility.yul\":7794:7810   */\n      add\n        /* \"#utility.yul\":7787:7810   */\n      swap2\n      pop\n        /* \"#utility.yul\":7536:7816   */\n      pop\n        /* \"#utility.yul\":7426:7816   */\n      swap3\n      swap2\n      pop\n      pop\n      jump\t// out\n        /* \"#utility.yul\":7822:8695   */\n    tag_10:\n        /* \"#utility.yul\":8147:8150   */\n      0x00\n        /* \"#utility.yul\":8169:8261   */\n      tag_158\n        /* \"#utility.yul\":8257:8260   */\n      dup3\n        /* \"#utility.yul\":8248:8254   */\n      dup8\n        /* \"#utility.yul\":8169:8261   */\n      tag_54\n      jump\t// in\n    tag_158:\n        /* \"#utility.yul\":8162:8261   */\n      swap2\n      pop\n        /* \"#utility.yul\":8278:8383   */\n      tag_159\n        /* \"#utility.yul\":8379:8382   */\n      dup3\n        /* \"#utility.yul\":8370:8376   */\n      dup6\n        /* \"#utility.yul\":8362:8368   */\n      dup8\n        /* \"#utility.yul\":8278:8383   */\n      tag_55\n      jump\t// in\n    tag_159:\n        /* \"#utility.yul\":8271:8383   */\n      swap2\n      pop\n        /* \"#utility.yul\":8393:8530   */\n      tag_160\n        /* \"#utility.yul\":8526:8529   */\n      dup3\n        /* \"#utility.yul\":8393:8530   */\n      tag_56\n      jump\t// in\n    tag_160:\n        /* \"#utility.yul\":8555:8556   */\n      0x07\n        /* \"#utility.yul\":8550:8553   */\n      dup3\n        /* \"#utility.yul\":8546:8557   */\n      add\n        /* \"#utility.yul\":8539:8557   */\n      swap2\n      pop\n        /* \"#utility.yul\":8574:8669   */\n      tag_161\n        /* \"#utility.yul\":8665:8668   */\n      dup3\n        /* \"#utility.yul\":8656:8662   */\n      dup5\n        /* \"#utility.yul\":8574:8669   */\n      tag_59\n      jump\t// in\n    tag_161:\n        /* \"#utility.yul\":8567:8669   */\n      swap2\n      pop\n        /* \"#utility.yul\":8686:8689   */\n      dup2\n        /* \"#utility.yul\":8679:8689   */\n      swap1\n      pop\n        /* \"#utility.yul\":7822:8695   */\n      swap6\n      swap5\n      pop\n      pop\n      pop\n      pop\n      pop\n      jump\t// out\n        /* \"#utility.yul\":8701:8778   */\n    tag_60:\n        /* \"#utility.yul\":8738:8745   */\n      0x00\n        /* \"#utility.yul\":8767:8772   */\n      dup2\n        /* \"#utility.yul\":8756:8772   */\n      swap1\n      pop\n        /* \"#utility.yul\":8701:8778   */\n      swap2\n      swap1\n      pop\n      jump\t// out\n        /* \"#utility.yul\":8784:8964   */\n    tag_61:\n        /* \"#utility.yul\":8832:8909   */\n      0x4e487b7100000000000000000000000000000000000000000000000000000000\n        /* \"#utility.yul\":8829:8830   */\n      0x00\n        /* \"#utility.yul\":8822:8910   */\n      mstore\n        /* \"#utility.yul\":8929:8933   */\n      0x11\n        /* \"#utility.yul\":8926:8927   */\n      0x04\n        /* \"#utility.yul\":8919:8934   */\n      mstore\n        /* \"#utility.yul\":8953:8957   */\n      0x24\n        /* \"#utility.yul\":8950:8951   */\n      0x00\n        /* \"#utility.yul\":8943:8958   */\n      revert\n        /* \"#utility.yul\":8970:9161   */\n    tag_14:\n        /* \"#utility.yul\":9010:9013   */\n      0x00\n        /* \"#utility.yul\":9029:9049   */\n      tag_165\n        /* \"#utility.yul\":9047:9048   */\n      dup3\n        /* \"#utility.yul\":9029:9049   */\n      tag_60\n      jump\t// in\n    tag_165:\n        /* \"#utility.yul\":9024:9049   */\n      swap2\n      pop\n        /* \"#utility.yul\":9063:9083   */\n      tag_166\n        /* \"#utility.yul\":9081:9082   */\n      dup4\n        /* \"#utility.yul\":9063:9083   */\n      tag_60\n      jump\t// in\n    tag_166:\n        /* \"#utility.yul\":9058:9083   */\n      swap3\n      pop\n        /* \"#utility.yul\":9106:9107   */\n      dup3\n        /* \"#utility.yul\":9103:9104   */\n      dup3\n        /* \"#utility.yul\":9099:9108   */\n      add\n        /* \"#utility.yul\":9092:9108   */\n      swap1\n      pop\n        /* \"#utility.yul\":9127:9130   */\n      dup1\n        /* \"#utility.yul\":9124:9125   */\n      dup3\n        /* \"#utility.yul\":9121:9131   */\n      gt\n        /* \"#utility.yul\":9118:9154   */\n      iszero\n      tag_167\n      jumpi\n        /* \"#utility.yul\":9134:9152   */\n      tag_168\n      tag_61\n      jump\t// in\n    tag_168:\n        /* \"#utility.yul\":9118:9154   */\n    tag_167:\n        /* \"#utility.yul\":8970:9161   */\n      swap3\n      swap2\n      pop\n      pop\n      jump\t// out\n        /* \"#utility.yul\":9167:9347   */\n    tag_19:\n        /* \"#utility.yul\":9215:9292   */\n      0x4e487b7100000000000000000000000000000000000000000000000000000000\n        /* \"#utility.yul\":9212:9213   */\n      0x00\n        /* \"#utility.yul\":9205:9293   */\n      mstore\n        /* \"#utility.yul\":9312:9316   */\n      0x01\n        /* \"#utility.yul\":9309:9310   */\n      0x04\n        /* \"#utility.yul\":9302:9317   */\n      mstore\n        /* \"#utility.yul\":9336:9340   */\n      0x24\n        /* \"#utility.yul\":9333:9334   */\n      0x00\n        /* \"#utility.yul\":9326:9341   */\n      revert\n        /* \"#utility.yul\":9353:9470   */\n    tag_62:\n        /* \"#utility.yul\":9462:9463   */\n      0x00\n        /* \"#utility.yul\":9459:9460   */\n      dup1\n        /* \"#utility.yul\":9452:9464   */\n      revert\n        /* \"#utility.yul\":9476:9593   */\n    tag_63:\n        /* \"#utility.yul\":9585:9586   */\n      0x00\n        /* \"#utility.yul\":9582:9583   */\n      dup1\n        /* \"#utility.yul\":9575:9587   */\n      revert\n        /* \"#utility.yul\":9599:10068   */\n    tag_21:\n        /* \"#utility.yul\":9704:9713   */\n      0x00\n        /* \"#utility.yul\":9715:9724   */\n      dup1\n        /* \"#utility.yul\":9753:9761   */\n      dup6\n        /* \"#utility.yul\":9741:9751   */\n      dup6\n        /* \"#utility.yul\":9738:9762   */\n      gt\n        /* \"#utility.yul\":9735:9846   */\n      iszero\n      tag_173\n      jumpi\n        /* \"#utility.yul\":9765:9844   */\n      tag_174\n      tag_62\n      jump\t// in\n    tag_174:\n        /* \"#utility.yul\":9735:9846   */\n    tag_173:\n        /* \"#utility.yul\":9871:9877   */\n      dup4\n        /* \"#utility.yul\":9861:9869   */\n      dup7\n        /* \"#utility.yul\":9858:9878   */\n      gt\n        /* \"#utility.yul\":9855:9962   */\n      iszero\n      tag_175\n      jumpi\n        /* \"#utility.yul\":9881:9960   */\n      tag_176\n      tag_63\n      jump\t// in\n    tag_176:\n        /* \"#utility.yul\":9855:9962   */\n    tag_175:\n        /* \"#utility.yul\":10012:10013   */\n      0x01\n        /* \"#utility.yul\":10000:10010   */\n      dup6\n        /* \"#utility.yul\":9996:10014   */\n      mul\n        /* \"#utility.yul\":9988:9994   */\n      dup4\n        /* \"#utility.yul\":9984:10015   */\n      add\n        /* \"#utility.yul\":9971:10015   */\n      swap2\n      pop\n        /* \"#utility.yul\":10051:10061   */\n      dup5\n        /* \"#utility.yul\":10041:10049   */\n      dup7\n        /* \"#utility.yul\":10037:10062   */\n      sub\n        /* \"#utility.yul\":10024:10062   */\n      swap1\n      pop\n        /* \"#utility.yul\":9599:10068   */\n      swap5\n      pop\n      swap5\n      swap3\n      pop\n      pop\n      pop\n      jump\t// out\n        /* \"#utility.yul\":10074:10221   */\n    tag_64:\n        /* \"#utility.yul\":10175:10186   */\n      0x00\n        /* \"#utility.yul\":10212:10215   */\n      dup2\n        /* \"#utility.yul\":10197:10215   */\n      swap1\n      pop\n        /* \"#utility.yul\":10074:10221   */\n      swap3\n      swap2\n      pop\n      pop\n      jump\t// out\n        /* \"#utility.yul\":10227:10371   */\n    tag_65:\n        /* \"#utility.yul\":10279:10283   */\n      0x00\n        /* \"#utility.yul\":10302:10305   */\n      dup2\n        /* \"#utility.yul\":10294:10305   */\n      swap1\n      pop\n        /* \"#utility.yul\":10325:10328   */\n      dup2\n        /* \"#utility.yul\":10322:10323   */\n      0x00\n        /* \"#utility.yul\":10315:10329   */\n      mstore\n        /* \"#utility.yul\":10359:10363   */\n      0x20\n        /* \"#utility.yul\":10356:10357   */\n      0x00\n        /* \"#utility.yul\":10346:10364   */\n      keccak256\n        /* \"#utility.yul\":10338:10364   */\n      swap1\n      pop\n        /* \"#utility.yul\":10227:10371   */\n      swap2\n      swap1\n      pop\n      jump\t// out\n        /* \"#utility.yul\":10399:11277   */\n    tag_66:\n        /* \"#utility.yul\":10504:10507   */\n      0x00\n        /* \"#utility.yul\":10541:10546   */\n      dup2\n        /* \"#utility.yul\":10535:10547   */\n      sload\n        /* \"#utility.yul\":10570:10606   */\n      tag_180\n        /* \"#utility.yul\":10596:10605   */\n      dup2\n        /* \"#utility.yul\":10570:10606   */\n      tag_12\n      jump\t// in\n    tag_180:\n        /* \"#utility.yul\":10622:10710   */\n      tag_181\n        /* \"#utility.yul\":10703:10709   */\n      dup2\n        /* \"#utility.yul\":10698:10701   */\n      dup7\n        /* \"#utility.yul\":10622:10710   */\n      tag_64\n      jump\t// in\n    tag_181:\n        /* \"#utility.yul\":10615:10710   */\n      swap5\n      pop\n        /* \"#utility.yul\":10741:10742   */\n      0x01\n        /* \"#utility.yul\":10730:10739   */\n      dup3\n        /* \"#utility.yul\":10726:10743   */\n      and\n        /* \"#utility.yul\":10757:10758   */\n      0x00\n        /* \"#utility.yul\":10752:10918   */\n      dup2\n      eq\n      tag_183\n      jumpi\n        /* \"#utility.yul\":10932:10933   */\n      0x01\n        /* \"#utility.yul\":10927:11271   */\n      dup2\n      eq\n      tag_184\n      jumpi\n        /* \"#utility.yul\":10719:11271   */\n      jump(tag_182)\n        /* \"#utility.yul\":10752:10918   */\n    tag_183:\n        /* \"#utility.yul\":10836:10840   */\n      0xff\n        /* \"#utility.yul\":10832:10841   */\n      not\n        /* \"#utility.yul\":10821:10830   */\n      dup4\n        /* \"#utility.yul\":10817:10842   */\n      and\n        /* \"#utility.yul\":10812:10815   */\n      dup7\n        /* \"#utility.yul\":10805:10843   */\n      mstore\n        /* \"#utility.yul\":10898:10904   */\n      dup2\n        /* \"#utility.yul\":10891:10905   */\n      iszero\n        /* \"#utility.yul\":10884:10906   */\n      iszero\n        /* \"#utility.yul\":10876:10882   */\n      dup3\n        /* \"#utility.yul\":10872:10907   */\n      mul\n        /* \"#utility.yul\":10867:10870   */\n      dup7\n        /* \"#utility.yul\":10863:10908   */\n      add\n        /* \"#utility.yul\":10856:10908   */\n      swap4\n      pop\n        /* \"#utility.yul\":10752:10918   */\n      jump(tag_182)\n        /* \"#utility.yul\":10927:11271   */\n    tag_184:\n        /* \"#utility.yul\":10994:11035   */\n      tag_185\n        /* \"#utility.yul\":11029:11034   */\n      dup6\n        /* \"#utility.yul\":10994:11035   */\n      tag_65\n      jump\t// in\n    tag_185:\n        /* \"#utility.yul\":11057:11058   */\n      0x00\n        /* \"#utility.yul\":11071:11225   */\n    tag_186:\n        /* \"#utility.yul\":11085:11091   */\n      dup4\n        /* \"#utility.yul\":11082:11083   */\n      dup2\n        /* \"#utility.yul\":11079:11092   */\n      lt\n        /* \"#utility.yul\":11071:11225   */\n      iszero\n      tag_188\n      jumpi\n        /* \"#utility.yul\":11159:11166   */\n      dup2\n        /* \"#utility.yul\":11153:11167   */\n      sload\n        /* \"#utility.yul\":11149:11150   */\n      dup2\n        /* \"#utility.yul\":11144:11147   */\n      dup10\n        /* \"#utility.yul\":11140:11151   */\n      add\n        /* \"#utility.yul\":11133:11168   */\n      mstore\n        /* \"#utility.yul\":11209:11210   */\n      0x01\n        /* \"#utility.yul\":11200:11207   */\n      dup3\n        /* \"#utility.yul\":11196:11211   */\n      add\n        /* \"#utility.yul\":11185:11211   */\n      swap2\n      pop\n        /* \"#utility.yul\":11107:11111   */\n      0x20\n        /* \"#utility.yul\":11104:11105   */\n      dup2\n        /* \"#utility.yul\":11100:11112   */\n      add\n        /* \"#utility.yul\":11095:11112   */\n      swap1\n      pop\n        /* \"#utility.yul\":11071:11225   */\n      jump(tag_186)\n    tag_188:\n        /* \"#utility.yul\":11254:11260   */\n      dup4\n        /* \"#utility.yul\":11249:11252   */\n      dup9\n        /* \"#utility.yul\":11245:11261   */\n      add\n        /* \"#utility.yul\":11238:11261   */\n      swap6\n      pop\n        /* \"#utility.yul\":10934:11271   */\n      pop\n      pop\n        /* \"#utility.yul\":10719:11271   */\n    tag_182:\n      pop\n        /* \"#utility.yul\":10508:11277   */\n      pop\n      pop\n        /* \"#utility.yul\":10399:11277   */\n      swap3\n      swap2\n      pop\n      pop\n      jump\t// out\n        /* \"#utility.yul\":11305:11632   */\n    tag_67:\n        /* \"#utility.yul\":11419:11422   */\n      0x00\n        /* \"#utility.yul\":11440:11528   */\n      tag_190\n        /* \"#utility.yul\":11521:11527   */\n      dup4\n        /* \"#utility.yul\":11516:11519   */\n      dup6\n        /* \"#utility.yul\":11440:11528   */\n      tag_64\n      jump\t// in\n    tag_190:\n        /* \"#utility.yul\":11433:11528   */\n      swap4\n      pop\n        /* \"#utility.yul\":11538:11594   */\n      tag_191\n        /* \"#utility.yul\":11587:11593   */\n      dup4\n        /* \"#utility.yul\":11582:11585   */\n      dup6\n        /* \"#utility.yul\":11575:11580   */\n      dup5\n        /* \"#utility.yul\":11538:11594   */\n      tag_45\n      jump\t// in\n    tag_191:\n        /* \"#utility.yul\":11619:11625   */\n      dup3\n        /* \"#utility.yul\":11614:11617   */\n      dup5\n        /* \"#utility.yul\":11610:11626   */\n      add\n        /* \"#utility.yul\":11603:11626   */\n      swap1\n      pop\n        /* \"#utility.yul\":11305:11632   */\n      swap4\n      swap3\n      pop\n      pop\n      pop\n      jump\t// out\n        /* \"#utility.yul\":11638:11736   */\n    tag_68:\n        /* \"#utility.yul\":11689:11695   */\n      0x00\n        /* \"#utility.yul\":11723:11728   */\n      dup2\n        /* \"#utility.yul\":11717:11729   */\n      mload\n        /* \"#utility.yul\":11707:11729   */\n      swap1\n      pop\n        /* \"#utility.yul\":11638:11736   */\n      swap2\n      swap1\n      pop\n      jump\t// out\n        /* \"#utility.yul\":11742:12128   */\n    tag_69:\n        /* \"#utility.yul\":11846:11849   */\n      0x00\n        /* \"#utility.yul\":11874:11912   */\n      tag_194\n        /* \"#utility.yul\":11906:11911   */\n      dup3\n        /* \"#utility.yul\":11874:11912   */\n      tag_68\n      jump\t// in\n    tag_194:\n        /* \"#utility.yul\":11928:12016   */\n      tag_195\n        /* \"#utility.yul\":12009:12015   */\n      dup2\n        /* \"#utility.yul\":12004:12007   */\n      dup6\n        /* \"#utility.yul\":11928:12016   */\n      tag_64\n      jump\t// in\n    tag_195:\n        /* \"#utility.yul\":11921:12016   */\n      swap4\n      pop\n        /* \"#utility.yul\":12025:12090   */\n      tag_196\n        /* \"#utility.yul\":12083:12089   */\n      dup2\n        /* \"#utility.yul\":12078:12081   */\n      dup6\n        /* \"#utility.yul\":12071:12075   */\n      0x20\n        /* \"#utility.yul\":12064:12069   */\n      dup7\n        /* \"#utility.yul\":12060:12076   */\n      add\n        /* \"#utility.yul\":12025:12090   */\n      tag_58\n      jump\t// in\n    tag_196:\n        /* \"#utility.yul\":12115:12121   */\n      dup1\n        /* \"#utility.yul\":12110:12113   */\n      dup5\n        /* \"#utility.yul\":12106:12122   */\n      add\n        /* \"#utility.yul\":12099:12122   */\n      swap2\n      pop\n        /* \"#utility.yul\":11850:12128   */\n      pop\n        /* \"#utility.yul\":11742:12128   */\n      swap3\n      swap2\n      pop\n      pop\n      jump\t// out\n        /* \"#utility.yul\":12134:12213   */\n    tag_70:\n        /* \"#utility.yul\":12173:12180   */\n      0x00\n        /* \"#utility.yul\":12202:12207   */\n      dup2\n        /* \"#utility.yul\":12191:12207   */\n      swap1\n      pop\n        /* \"#utility.yul\":12134:12213   */\n      swap2\n      swap1\n      pop\n      jump\t// out\n        /* \"#utility.yul\":12219:12376   */\n    tag_71:\n        /* \"#utility.yul\":12324:12369   */\n      tag_199\n        /* \"#utility.yul\":12344:12368   */\n      tag_200\n        /* \"#utility.yul\":12362:12367   */\n      dup3\n        /* \"#utility.yul\":12344:12368   */\n      tag_48\n      jump\t// in\n    tag_200:\n        /* \"#utility.yul\":12324:12369   */\n      tag_70\n      jump\t// in\n    tag_199:\n        /* \"#utility.yul\":12319:12322   */\n      dup3\n        /* \"#utility.yul\":12312:12370   */\n      mstore\n        /* \"#utility.yul\":12219:12376   */\n      pop\n      pop\n      jump\t// out\n        /* \"#utility.yul\":12382:13574   */\n    tag_23:\n        /* \"#utility.yul\":12795:12798   */\n      0x00\n        /* \"#utility.yul\":12817:12911   */\n      tag_202\n        /* \"#utility.yul\":12907:12910   */\n      dup3\n        /* \"#utility.yul\":12898:12904   */\n      dup11\n        /* \"#utility.yul\":12817:12911   */\n      tag_66\n      jump\t// in\n    tag_202:\n        /* \"#utility.yul\":12810:12911   */\n      swap2\n      pop\n        /* \"#utility.yul\":12928:13031   */\n      tag_203\n        /* \"#utility.yul\":13027:13030   */\n      dup3\n        /* \"#utility.yul\":13018:13024   */\n      dup9\n        /* \"#utility.yul\":13010:13016   */\n      dup11\n        /* \"#utility.yul\":12928:13031   */\n      tag_67\n      jump\t// in\n    tag_203:\n        /* \"#utility.yul\":12921:13031   */\n      swap2\n      pop\n        /* \"#utility.yul\":13048:13151   */\n      tag_204\n        /* \"#utility.yul\":13147:13150   */\n      dup3\n        /* \"#utility.yul\":13138:13144   */\n      dup7\n        /* \"#utility.yul\":13130:13136   */\n      dup9\n        /* \"#utility.yul\":13048:13151   */\n      tag_67\n      jump\t// in\n    tag_204:\n        /* \"#utility.yul\":13041:13151   */\n      swap2\n      pop\n        /* \"#utility.yul\":13161:13298   */\n      tag_205\n        /* \"#utility.yul\":13294:13297   */\n      dup3\n        /* \"#utility.yul\":13161:13298   */\n      tag_56\n      jump\t// in\n    tag_205:\n        /* \"#utility.yul\":13323:13324   */\n      0x07\n        /* \"#utility.yul\":13318:13321   */\n      dup3\n        /* \"#utility.yul\":13314:13325   */\n      add\n        /* \"#utility.yul\":13307:13325   */\n      swap2\n      pop\n        /* \"#utility.yul\":13342:13435   */\n      tag_206\n        /* \"#utility.yul\":13431:13434   */\n      dup3\n        /* \"#utility.yul\":13422:13428   */\n      dup6\n        /* \"#utility.yul\":13342:13435   */\n      tag_69\n      jump\t// in\n    tag_206:\n        /* \"#utility.yul\":13335:13435   */\n      swap2\n      pop\n        /* \"#utility.yul\":13445:13520   */\n      tag_207\n        /* \"#utility.yul\":13516:13519   */\n      dup3\n        /* \"#utility.yul\":13507:13513   */\n      dup5\n        /* \"#utility.yul\":13445:13520   */\n      tag_71\n      jump\t// in\n    tag_207:\n        /* \"#utility.yul\":13545:13547   */\n      0x10\n        /* \"#utility.yul\":13540:13543   */\n      dup3\n        /* \"#utility.yul\":13536:13548   */\n      add\n        /* \"#utility.yul\":13529:13548   */\n      swap2\n      pop\n        /* \"#utility.yul\":13565:13568   */\n      dup2\n        /* \"#utility.yul\":13558:13568   */\n      swap1\n      pop\n        /* \"#utility.yul\":12382:13574   */\n      swap9\n      swap8\n      pop\n      pop\n      pop\n      pop\n      pop\n      pop\n      pop\n      pop\n      jump\t// out\n\n    auxdata: 0xa264697066735822122023a7bcde2a02734c415469c41086b3f94ed291f452ebfb8ed2919e144c06f09664736f6c63430008120033\n}\n",
				"bytecode": {
					"linkReferences": {},
					"object": "60806040526040518060400160405280600781526020017f53746f7261676500000000000000000000000000000000000000000000000000815250600090816200004a9190620002d9565b503480156200005857600080fd5b50620003c0565b600081519050919050565b7f4e487b7100000000000000000000000000000000000000000000000000000000600052604160045260246000fd5b7f4e487b7100000000000000000000000000000000000000000000000000000000600052602260045260246000fd5b60006002820490506001821680620000e157607f821691505b602082108103620000f757620000f662000099565b5b50919050565b60008190508160005260206000209050919050565b60006020601f8301049050919050565b600082821b905092915050565b600060088302620001617fffffffffffffffffffffffffffffffffffffffffffffffffffffffffffffffff8262000122565b6200016d868362000122565b95508019841693508086168417925050509392505050565b6000819050919050565b6000819050919050565b6000620001ba620001b4620001ae8462000185565b6200018f565b62000185565b9050919050565b6000819050919050565b620001d68362000199565b620001ee620001e582620001c1565b8484546200012f565b825550505050565b600090565b62000205620001f6565b62000212818484620001cb565b505050565b5b818110156200023a576200022e600082620001fb565b60018101905062000218565b5050565b601f82111562000289576200025381620000fd565b6200025e8462000112565b810160208510156200026e578190505b620002866200027d8562000112565b83018262000217565b50505b505050565b600082821c905092915050565b6000620002ae600019846008026200028e565b1980831691505092915050565b6000620002c983836200029b565b9150826002028217905092915050565b620002e4826200005f565b67ffffffffffffffff8111156200030057620002ff6200006a565b5b6200030c8254620000c8565b620003198282856200023e565b600060209050601f8311600181146200035157600084156200033c578287015190505b620003488582620002bb565b865550620003b8565b601f1984166200036186620000fd565b60005b828110156200038b5784890151825560018201915060208501945060208101905062000364565b86831015620003ab5784890151620003a7601f8916826200029b565b8355505b6001600288020188555050505b505050505050565b61089b80620003d06000396000f3fe608060405234801561001057600080fd5b506004361061002b5760003560e01c8063b0ed14f614610030575b600080fd5b61004a60048036038101906100459190610377565b61004c565b005b60008085858560405160200161006594939291906105bb565b6040516020818303038152906040529050805183516007878790506000805461008d90610436565b90506100999190610636565b6100a39190610636565b6100ad9190610636565b146100bb576100ba61066a565b5b600080868688886000906002926100d4939291906106a3565b88886040516020016100ec9796959493929190610803565b60405160208183030381529060405290508051601060ff168551600760028a8a90506000805461011b90610436565b90506101279190610636565b6101319190610636565b61013b9190610636565b6101459190610636565b61014f9190610636565b1461015d5761015c61066a565b5b505050505050565b6000604051905090565b600080fd5b600080fd5b600080fd5b600080fd5b600080fd5b60008083601f84011261019e5761019d610179565b5b8235905067ffffffffffffffff8111156101bb576101ba61017e565b5b6020830191508360018202830111156101d7576101d6610183565b5b9250929050565b600080fd5b6000601f19601f8301169050919050565b7f4e487b7100000000000000000000000000000000000000000000000000000000600052604160045260246000fd5b61022c826101e3565b810181811067ffffffffffffffff8211171561024b5761024a6101f4565b5b80604052505050565b600061025e610165565b905061026a8282610223565b919050565b600067ffffffffffffffff82111561028a576102896101f4565b5b610293826101e3565b9050602081019050919050565b82818337600083830152505050565b60006102c26102bd8461026f565b610254565b9050828152602081018484840111156102de576102dd6101de565b5b6102e98482856102a0565b509392505050565b600082601f83011261030657610305610179565b5b81356103168482602086016102af565b91505092915050565b60007fffffffffffffffffffffffffffffffff0000000000000000000000000000000082169050919050565b6103548161031f565b811461035f57600080fd5b50565b6000813590506103718161034b565b92915050565b600080600080606085870312156103915761039061016f565b5b600085013567ffffffffffffffff8111156103af576103ae610174565b5b6103bb87828801610188565b9450945050602085013567ffffffffffffffff8111156103de576103dd610174565b5b6103ea878288016102f1565b92505060406103fb87828801610362565b91505092959194509250565b7f4e487b7100000000000000000000000000000000000000000000000000000000600052602260045260246000fd5b6000600282049050600182168061044e57607f821691505b60208210810361046157610460610407565b5b50919050565b600081905092915050565b60008190508160005260206000209050919050565b6000815461049481610436565b61049e8186610467565b945060018216600081146104b957600181146104ce57610501565b60ff1983168652811515820286019350610501565b6104d785610472565b60005b838110156104f9578154818901526001820191506020810190506104da565b838801955050505b50505092915050565b60006105168385610467565b93506105238385846102a0565b82840190509392505050565b7f4c69746572616c00000000000000000000000000000000000000000000000000815250565b600081519050919050565b60005b8381101561057e578082015181840152602081019050610563565b60008484015250505050565b600061059582610555565b61059f8185610467565b93506105af818560208601610560565b80840191505092915050565b60006105c78287610487565b91506105d482858761050a565b91506105df8261052f565b6007820191506105ef828461058a565b915081905095945050505050565b6000819050919050565b7f4e487b7100000000000000000000000000000000000000000000000000000000600052601160045260246000fd5b6000610641826105fd565b915061064c836105fd565b925082820190508082111561066457610663610607565b5b92915050565b7f4e487b7100000000000000000000000000000000000000000000000000000000600052600160045260246000fd5b600080fd5b600080fd5b600080858511156106b7576106b6610699565b5b838611156106c8576106c761069e565b5b6001850283019150848603905094509492505050565b600081905092915050565b60008190508160005260206000209050919050565b6000815461070b81610436565b61071581866106de565b94506001821660008114610730576001811461074557610778565b60ff1983168652811515820286019350610778565b61074e856106e9565b60005b8381101561077057815481890152600182019150602081019050610751565b838801955050505b50505092915050565b600061078d83856106de565b935061079a8385846102a0565b82840190509392505050565b600081519050919050565b60006107bc826107a6565b6107c681856106de565b93506107d6818560208601610560565b80840191505092915050565b6000819050919050565b6107fd6107f88261031f565b6107e2565b82525050565b600061080f828a6106fe565b915061081c82888a610781565b9150610829828688610781565b91506108348261052f565b60078201915061084482856107b1565b915061085082846107ec565b6010820191508190509897505050505050505056fea264697066735822122023a7bcde2a02734c415469c41086b3f94ed291f452ebfb8ed2919e144c06f09664736f6c63430008120033",
					"opcodes": "PUSH1 0x80 PUSH1 0x40 MSTORE PUSH1 0x40 MLOAD DUP1 PUSH1 0x40 ADD PUSH1 0x40 MSTORE DUP1 PUSH1 0x7 DUP2 MSTORE PUSH1 0x20 ADD PUSH32 0x53746F7261676500000000000000000000000000000000000000000000000000 DUP2 MSTORE POP PUSH1 0x0 SWAP1 DUP2 PUSH3 0x4A SWAP2 SWAP1 PUSH3 0x2D9 JUMP JUMPDEST POP CALLVALUE DUP1 ISZERO PUSH3 0x58 JUMPI PUSH1 0x0 DUP1 REVERT JUMPDEST POP PUSH3 0x3C0 JUMP JUMPDEST PUSH1 0x0 DUP2 MLOAD SWAP1 POP SWAP2 SWAP1 POP JUMP JUMPDEST PUSH32 0x4E487B7100000000000000000000000000000000000000000000000000000000 PUSH1 0x0 MSTORE PUSH1 0x41 PUSH1 0x4 MSTORE PUSH1 0x24 PUSH1 0x0 REVERT JUMPDEST PUSH32 0x4E487B7100000000000000000000000000000000000000000000000000000000 PUSH1 0x0 MSTORE PUSH1 0x22 PUSH1 0x4 MSTORE PUSH1 0x24 PUSH1 0x0 REVERT JUMPDEST PUSH1 0x0 PUSH1 0x2 DUP3 DIV SWAP1 POP PUSH1 0x1 DUP3 AND DUP1 PUSH3 0xE1 JUMPI PUSH1 0x7F DUP3 AND SWAP2 POP JUMPDEST PUSH1 0x20 DUP3 LT DUP2 SUB PUSH3 0xF7 JUMPI PUSH3 0xF6 PUSH3 0x99 JUMP JUMPDEST JUMPDEST POP SWAP2 SWAP1 POP JUMP JUMPDEST PUSH1 0x0 DUP2 SWAP1 POP DUP2 PUSH1 0x0 MSTORE PUSH1 0x20 PUSH1 0x0 KECCAK256 SWAP1 POP SWAP2 SWAP1 POP JUMP JUMPDEST PUSH1 0x0 PUSH1 0x20 PUSH1 0x1F DUP4 ADD DIV SWAP1 POP SWAP2 SWAP1 POP JUMP JUMPDEST PUSH1 0x0 DUP3 DUP3 SHL SWAP1 POP SWAP3 SWAP2 POP POP JUMP JUMPDEST PUSH1 0x0 PUSH1 0x8 DUP4 MUL PUSH3 0x161 PUSH32 0xFFFFFFFFFFFFFFFFFFFFFFFFFFFFFFFFFFFFFFFFFFFFFFFFFFFFFFFFFFFFFFFF DUP3 PUSH3 0x122 JUMP JUMPDEST PUSH3 0x16D DUP7 DUP4 PUSH3 0x122 JUMP JUMPDEST SWAP6 POP DUP1 NOT DUP5 AND SWAP4 POP DUP1 DUP7 AND DUP5 OR SWAP3 POP POP POP SWAP4 SWAP3 POP POP POP JUMP JUMPDEST PUSH1 0x0 DUP2 SWAP1 POP SWAP2 SWAP1 POP JUMP JUMPDEST PUSH1 0x0 DUP2 SWAP1 POP SWAP2 SWAP1 POP JUMP JUMPDEST PUSH1 0x0 PUSH3 0x1BA PUSH3 0x1B4 PUSH3 0x1AE DUP5 PUSH3 0x185 JUMP JUMPDEST PUSH3 0x18F JUMP JUMPDEST PUSH3 0x185 JUMP JUMPDEST SWAP1 POP SWAP2 SWAP1 POP JUMP JUMPDEST PUSH1 0x0 DUP2 SWAP1 POP SWAP2 SWAP1 POP JUMP JUMPDEST PUSH3 0x1D6 DUP4 PUSH3 0x199 JUMP JUMPDEST PUSH3 0x1EE PUSH3 0x1E5 DUP3 PUSH3 0x1C1 JUMP JUMPDEST DUP5 DUP5 SLOAD PUSH3 0x12F JUMP JUMPDEST DUP3 SSTORE POP POP POP POP JUMP JUMPDEST PUSH1 0x0 SWAP1 JUMP JUMPDEST PUSH3 0x205 PUSH3 0x1F6 JUMP JUMPDEST PUSH3 0x212 DUP2 DUP5 DUP5 PUSH3 0x1CB JUMP JUMPDEST POP POP POP JUMP JUMPDEST JUMPDEST DUP2 DUP2 LT ISZERO PUSH3 0x23A JUMPI PUSH3 0x22E PUSH1 0x0 DUP3 PUSH3 0x1FB JUMP JUMPDEST PUSH1 0x1 DUP2 ADD SWAP1 POP PUSH3 0x218 JUMP JUMPDEST POP POP JUMP JUMPDEST PUSH1 0x1F DUP3 GT ISZERO PUSH3 0x289 JUMPI PUSH3 0x253 DUP2 PUSH3 0xFD JUMP JUMPDEST PUSH3 0x25E DUP5 PUSH3 0x112 JUMP JUMPDEST DUP2 ADD PUSH1 0x20 DUP6 LT ISZERO PUSH3 0x26E JUMPI DUP2 SWAP1 POP JUMPDEST PUSH3 0x286 PUSH3 0x27D DUP6 PUSH3 0x112 JUMP JUMPDEST DUP4 ADD DUP3 PUSH3 0x217 JUMP JUMPDEST POP POP JUMPDEST POP POP POP JUMP JUMPDEST PUSH1 0x0 DUP3 DUP3 SHR SWAP1 POP SWAP3 SWAP2 POP POP JUMP JUMPDEST PUSH1 0x0 PUSH3 0x2AE PUSH1 0x0 NOT DUP5 PUSH1 0x8 MUL PUSH3 0x28E JUMP JUMPDEST NOT DUP1 DUP4 AND SWAP2 POP POP SWAP3 SWAP2 POP POP JUMP JUMPDEST PUSH1 0x0 PUSH3 0x2C9 DUP4 DUP4 PUSH3 0x29B JUMP JUMPDEST SWAP2 POP DUP3 PUSH1 0x2 MUL DUP3 OR SWAP1 POP SWAP3 SWAP2 POP POP JUMP JUMPDEST PUSH3 0x2E4 DUP3 PUSH3 0x5F JUMP JUMPDEST PUSH8 0xFFFFFFFFFFFFFFFF DUP2 GT ISZERO PUSH3 0x300 JUMPI PUSH3 0x2FF PUSH3 0x6A JUMP JUMPDEST JUMPDEST PUSH3 0x30C DUP3 SLOAD PUSH3 0xC8 JUMP JUMPDEST PUSH3 0x319 DUP3 DUP3 DUP6 PUSH3 0x23E JUMP JUMPDEST PUSH1 0x0 PUSH1 0x20 SWAP1 POP PUSH1 0x1F DUP4 GT PUSH1 0x1 DUP2 EQ PUSH3 0x351 JUMPI PUSH1 0x0 DUP5 ISZERO PUSH3 0x33C JUMPI DUP3 DUP8 ADD MLOAD SWAP1 POP JUMPDEST PUSH3 0x348 DUP6 DUP3 PUSH3 0x2BB JUMP JUMPDEST DUP7 SSTORE POP PUSH3 0x3B8 JUMP JUMPDEST PUSH1 0x1F NOT DUP5 AND PUSH3 0x361 DUP7 PUSH3 0xFD JUMP JUMPDEST PUSH1 0x0 JUMPDEST DUP3 DUP2 LT ISZERO PUSH3 0x38B JUMPI DUP5 DUP10 ADD MLOAD DUP3 SSTORE PUSH1 0x1 DUP3 ADD SWAP2 POP PUSH1 0x20 DUP6 ADD SWAP5 POP PUSH1 0x20 DUP2 ADD SWAP1 POP PUSH3 0x364 JUMP JUMPDEST DUP7 DUP4 LT ISZERO PUSH3 0x3AB JUMPI DUP5 DUP10 ADD MLOAD PUSH3 0x3A7 PUSH1 0x1F DUP10 AND DUP3 PUSH3 0x29B JUMP JUMPDEST DUP4 SSTORE POP JUMPDEST PUSH1 0x1 PUSH1 0x2 DUP9 MUL ADD DUP9 SSTORE POP POP POP JUMPDEST POP POP POP POP POP POP JUMP JUMPDEST PUSH2 0x89B DUP1 PUSH3 0x3D0 PUSH1 0x0 CODECOPY PUSH1 0x0 RETURN INVALID PUSH1 0x80 PUSH1 0x40 MSTORE CALLVALUE DUP1 ISZERO PUSH2 0x10 JUMPI PUSH1 0x0 DUP1 REVERT JUMPDEST POP PUSH1 0x4 CALLDATASIZE LT PUSH2 0x2B JUMPI PUSH1 0x0 CALLDATALOAD PUSH1 0xE0 SHR DUP1 PUSH4 0xB0ED14F6 EQ PUSH2 0x30 JUMPI JUMPDEST PUSH1 0x0 DUP1 REVERT JUMPDEST PUSH2 0x4A PUSH1 0x4 DUP1 CALLDATASIZE SUB DUP2 ADD SWAP1 PUSH2 0x45 SWAP2 SWAP1 PUSH2 0x377 JUMP JUMPDEST PUSH2 0x4C JUMP JUMPDEST STOP JUMPDEST PUSH1 0x0 DUP1 DUP6 DUP6 DUP6 PUSH1 0x40 MLOAD PUSH1 0x20 ADD PUSH2 0x65 SWAP5 SWAP4 SWAP3 SWAP2 SWAP1 PUSH2 0x5BB JUMP JUMPDEST PUSH1 0x40 MLOAD PUSH1 0x20 DUP2 DUP4 SUB SUB DUP2 MSTORE SWAP1 PUSH1 0x40 MSTORE SWAP1 POP DUP1 MLOAD DUP4 MLOAD PUSH1 0x7 DUP8 DUP8 SWAP1 POP PUSH1 0x0 DUP1 SLOAD PUSH2 0x8D SWAP1 PUSH2 0x436 JUMP JUMPDEST SWAP1 POP PUSH2 0x99 SWAP2 SWAP1 PUSH2 0x636 JUMP JUMPDEST PUSH2 0xA3 SWAP2 SWAP1 PUSH2 0x636 JUMP JUMPDEST PUSH2 0xAD SWAP2 SWAP1 PUSH2 0x636 JUMP JUMPDEST EQ PUSH2 0xBB JUMPI PUSH2 0xBA PUSH2 0x66A JUMP JUMPDEST JUMPDEST PUSH1 0x0 DUP1 DUP7 DUP7 DUP9 DUP9 PUSH1 0x0 SWAP1 PUSH1 0x2 SWAP3 PUSH2 0xD4 SWAP4 SWAP3 SWAP2 SWAP1 PUSH2 0x6A3 JUMP JUMPDEST DUP9 DUP9 PUSH1 0x40 MLOAD PUSH1 0x20 ADD PUSH2 0xEC SWAP8 SWAP7 SWAP6 SWAP5 SWAP4 SWAP3 SWAP2 SWAP1 PUSH2 0x803 JUMP JUMPDEST PUSH1 0x40 MLOAD PUSH1 0x20 DUP2 DUP4 SUB SUB DUP2 MSTORE SWAP1 PUSH1 0x40 MSTORE SWAP1 POP DUP1 MLOAD PUSH1 0x10 PUSH1 0xFF AND DUP6 MLOAD PUSH1 0x7 PUSH1 0x2 DUP11 DUP11 SWAP1 POP PUSH1 0x0 DUP1 SLOAD PUSH2 0x11B SWAP1 PUSH2 0x436 JUMP JUMPDEST SWAP1 POP PUSH2 0x127 SWAP2 SWAP1 PUSH2 0x636 JUMP JUMPDEST PUSH2 0x131 SWAP2 SWAP1 PUSH2 0x636 JUMP JUMPDEST PUSH2 0x13B SWAP2 SWAP1 PUSH2 0x636 JUMP JUMPDEST PUSH2 0x145 SWAP2 SWAP1 PUSH2 0x636 JUMP JUMPDEST PUSH2 0x14F SWAP2 SWAP1 PUSH2 0x636 JUMP JUMPDEST EQ PUSH2 0x15D JUMPI PUSH2 0x15C PUSH2 0x66A JUMP JUMPDEST JUMPDEST POP POP POP POP POP POP JUMP JUMPDEST PUSH1 0x0 PUSH1 0x40 MLOAD SWAP1 POP SWAP1 JUMP JUMPDEST PUSH1 0x0 DUP1 REVERT JUMPDEST PUSH1 0x0 DUP1 REVERT JUMPDEST PUSH1 0x0 DUP1 REVERT JUMPDEST PUSH1 0x0 DUP1 REVERT JUMPDEST PUSH1 0x0 DUP1 REVERT JUMPDEST PUSH1 0x0 DUP1 DUP4 PUSH1 0x1F DUP5 ADD SLT PUSH2 0x19E JUMPI PUSH2 0x19D PUSH2 0x179 JUMP JUMPDEST JUMPDEST DUP3 CALLDATALOAD SWAP1 POP PUSH8 0xFFFFFFFFFFFFFFFF DUP2 GT ISZERO PUSH2 0x1BB JUMPI PUSH2 0x1BA PUSH2 0x17E JUMP JUMPDEST JUMPDEST PUSH1 0x20 DUP4 ADD SWAP2 POP DUP4 PUSH1 0x1 DUP3 MUL DUP4 ADD GT ISZERO PUSH2 0x1D7 JUMPI PUSH2 0x1D6 PUSH2 0x183 JUMP JUMPDEST JUMPDEST SWAP3 POP SWAP3 SWAP1 POP JUMP JUMPDEST PUSH1 0x0 DUP1 REVERT JUMPDEST PUSH1 0x0 PUSH1 0x1F NOT PUSH1 0x1F DUP4 ADD AND SWAP1 POP SWAP2 SWAP1 POP JUMP JUMPDEST PUSH32 0x4E487B7100000000000000000000000000000000000000000000000000000000 PUSH1 0x0 MSTORE PUSH1 0x41 PUSH1 0x4 MSTORE PUSH1 0x24 PUSH1 0x0 REVERT JUMPDEST PUSH2 0x22C DUP3 PUSH2 0x1E3 JUMP JUMPDEST DUP2 ADD DUP2 DUP2 LT PUSH8 0xFFFFFFFFFFFFFFFF DUP3 GT OR ISZERO PUSH2 0x24B JUMPI PUSH2 0x24A PUSH2 0x1F4 JUMP JUMPDEST JUMPDEST DUP1 PUSH1 0x40 MSTORE POP POP POP JUMP JUMPDEST PUSH1 0x0 PUSH2 0x25E PUSH2 0x165 JUMP JUMPDEST SWAP1 POP PUSH2 0x26A DUP3 DUP3 PUSH2 0x223 JUMP JUMPDEST SWAP2 SWAP1 POP JUMP JUMPDEST PUSH1 0x0 PUSH8 0xFFFFFFFFFFFFFFFF DUP3 GT ISZERO PUSH2 0x28A JUMPI PUSH2 0x289 PUSH2 0x1F4 JUMP JUMPDEST JUMPDEST PUSH2 0x293 DUP3 PUSH2 0x1E3 JUMP JUMPDEST SWAP1 POP PUSH1 0x20 DUP2 ADD SWAP1 POP SWAP2 SWAP1 POP JUMP JUMPDEST DUP3 DUP2 DUP4 CALLDATACOPY PUSH1 0x0 DUP4 DUP4 ADD MSTORE POP POP POP JUMP JUMPDEST PUSH1 0x0 PUSH2 0x2C2 PUSH2 0x2BD DUP5 PUSH2 0x26F JUMP JUMPDEST PUSH2 0x254 JUMP JUMPDEST SWAP1 POP DUP3 DUP2 MSTORE PUSH1 0x20 DUP2 ADD DUP5 DUP5 DUP5 ADD GT ISZERO PUSH2 0x2DE JUMPI PUSH2 0x2DD PUSH2 0x1DE JUMP JUMPDEST JUMPDEST PUSH2 0x2E9 DUP5 DUP3 DUP6 PUSH2 0x2A0 JUMP JUMPDEST POP SWAP4 SWAP3 POP POP POP JUMP JUMPDEST PUSH1 0x0 DUP3 PUSH1 0x1F DUP4 ADD SLT PUSH2 0x306 JUMPI PUSH2 0x305 PUSH2 0x179 JUMP JUMPDEST JUMPDEST DUP2 CALLDATALOAD PUSH2 0x316 DUP5 DUP3 PUSH1 0x20 DUP7 ADD PUSH2 0x2AF JUMP JUMPDEST SWAP2 POP POP SWAP3 SWAP2 POP POP JUMP JUMPDEST PUSH1 0x0 PUSH32 0xFFFFFFFFFFFFFFFFFFFFFFFFFFFFFFFF00000000000000000000000000000000 DUP3 AND SWAP1 POP SWAP2 SWAP1 POP JUMP JUMPDEST PUSH2 0x354 DUP2 PUSH2 0x31F JUMP JUMPDEST DUP2 EQ PUSH2 0x35F JUMPI PUSH1 0x0 DUP1 REVERT JUMPDEST POP JUMP JUMPDEST PUSH1 0x0 DUP2 CALLDATALOAD SWAP1 POP PUSH2 0x371 DUP2 PUSH2 0x34B JUMP JUMPDEST SWAP3 SWAP2 POP POP JUMP JUMPDEST PUSH1 0x0 DUP1 PUSH1 0x0 DUP1 PUSH1 0x60 DUP6 DUP8 SUB SLT ISZERO PUSH2 0x391 JUMPI PUSH2 0x390 PUSH2 0x16F JUMP JUMPDEST JUMPDEST PUSH1 0x0 DUP6 ADD CALLDATALOAD PUSH8 0xFFFFFFFFFFFFFFFF DUP2 GT ISZERO PUSH2 0x3AF JUMPI PUSH2 0x3AE PUSH2 0x174 JUMP JUMPDEST JUMPDEST PUSH2 0x3BB DUP8 DUP3 DUP9 ADD PUSH2 0x188 JUMP JUMPDEST SWAP5 POP SWAP5 POP POP PUSH1 0x20 DUP6 ADD CALLDATALOAD PUSH8 0xFFFFFFFFFFFFFFFF DUP2 GT ISZERO PUSH2 0x3DE JUMPI PUSH2 0x3DD PUSH2 0x174 JUMP JUMPDEST JUMPDEST PUSH2 0x3EA DUP8 DUP3 DUP9 ADD PUSH2 0x2F1 JUMP JUMPDEST SWAP3 POP POP PUSH1 0x40 PUSH2 0x3FB DUP8 DUP3 DUP9 ADD PUSH2 0x362 JUMP JUMPDEST SWAP2 POP POP SWAP3 SWAP6 SWAP2 SWAP5 POP SWAP3 POP JUMP JUMPDEST PUSH32 0x4E487B7100000000000000000000000000000000000000000000000000000000 PUSH1 0x0 MSTORE PUSH1 0x22 PUSH1 0x4 MSTORE PUSH1 0x24 PUSH1 0x0 REVERT JUMPDEST PUSH1 0x0 PUSH1 0x2 DUP3 DIV SWAP1 POP PUSH1 0x1 DUP3 AND DUP1 PUSH2 0x44E JUMPI PUSH1 0x7F DUP3 AND SWAP2 POP JUMPDEST PUSH1 0x20 DUP3 LT DUP2 SUB PUSH2 0x461 JUMPI PUSH2 0x460 PUSH2 0x407 JUMP JUMPDEST JUMPDEST POP SWAP2 SWAP1 POP JUMP JUMPDEST PUSH1 0x0 DUP2 SWAP1 POP SWAP3 SWAP2 POP POP JUMP JUMPDEST PUSH1 0x0 DUP2 SWAP1 POP DUP2 PUSH1 0x0 MSTORE PUSH1 0x20 PUSH1 0x0 KECCAK256 SWAP1 POP SWAP2 SWAP1 POP JUMP JUMPDEST PUSH1 0x0 DUP2 SLOAD PUSH2 0x494 DUP2 PUSH2 0x436 JUMP JUMPDEST PUSH2 0x49E DUP2 DUP7 PUSH2 0x467 JUMP JUMPDEST SWAP5 POP PUSH1 0x1 DUP3 AND PUSH1 0x0 DUP2 EQ PUSH2 0x4B9 JUMPI PUSH1 0x1 DUP2 EQ PUSH2 0x4CE JUMPI PUSH2 0x501 JUMP JUMPDEST PUSH1 0xFF NOT DUP4 AND DUP7 MSTORE DUP2 ISZERO ISZERO DUP3 MUL DUP7 ADD SWAP4 POP PUSH2 0x501 JUMP JUMPDEST PUSH2 0x4D7 DUP6 PUSH2 0x472 JUMP JUMPDEST PUSH1 0x0 JUMPDEST DUP4 DUP2 LT ISZERO PUSH2 0x4F9 JUMPI DUP2 SLOAD DUP2 DUP10 ADD MSTORE PUSH1 0x1 DUP3 ADD SWAP2 POP PUSH1 0x20 DUP2 ADD SWAP1 POP PUSH2 0x4DA JUMP JUMPDEST DUP4 DUP9 ADD SWAP6 POP POP POP JUMPDEST POP POP POP SWAP3 SWAP2 POP POP JUMP JUMPDEST PUSH1 0x0 PUSH2 0x516 DUP4 DUP6 PUSH2 0x467 JUMP JUMPDEST SWAP4 POP PUSH2 0x523 DUP4 DUP6 DUP5 PUSH2 0x2A0 JUMP JUMPDEST DUP3 DUP5 ADD SWAP1 POP SWAP4 SWAP3 POP POP POP JUMP JUMPDEST PUSH32 0x4C69746572616C00000000000000000000000000000000000000000000000000 DUP2 MSTORE POP JUMP JUMPDEST PUSH1 0x0 DUP2 MLOAD SWAP1 POP SWAP2 SWAP1 POP JUMP JUMPDEST PUSH1 0x0 JUMPDEST DUP4 DUP2 LT ISZERO PUSH2 0x57E JUMPI DUP1 DUP3 ADD MLOAD DUP2 DUP5 ADD MSTORE PUSH1 0x20 DUP2 ADD SWAP1 POP PUSH2 0x563 JUMP JUMPDEST PUSH1 0x0 DUP5 DUP5 ADD MSTORE POP POP POP POP JUMP JUMPDEST PUSH1 0x0 PUSH2 0x595 DUP3 PUSH2 0x555 JUMP JUMPDEST PUSH2 0x59F DUP2 DUP6 PUSH2 0x467 JUMP JUMPDEST SWAP4 POP PUSH2 0x5AF DUP2 DUP6 PUSH1 0x20 DUP7 ADD PUSH2 0x560 JUMP JUMPDEST DUP1 DUP5 ADD SWAP2 POP POP SWAP3 SWAP2 POP POP JUMP JUMPDEST PUSH1 0x0 PUSH2 0x5C7 DUP3 DUP8 PUSH2 0x487 JUMP JUMPDEST SWAP2 POP PUSH2 0x5D4 DUP3 DUP6 DUP8 PUSH2 0x50A JUMP JUMPDEST SWAP2 POP PUSH2 0x5DF DUP3 PUSH2 0x52F JUMP JUMPDEST PUSH1 0x7 DUP3 ADD SWAP2 POP PUSH2 0x5EF DUP3 DUP5 PUSH2 0x58A JUMP JUMPDEST SWAP2 POP DUP2 SWAP1 POP SWAP6 SWAP5 POP POP POP POP POP JUMP JUMPDEST PUSH1 0x0 DUP2 SWAP1 POP SWAP2 SWAP1 POP JUMP JUMPDEST PUSH32 0x4E487B7100000000000000000000000000000000000000000000000000000000 PUSH1 0x0 MSTORE PUSH1 0x11 PUSH1 0x4 MSTORE PUSH1 0x24 PUSH1 0x0 REVERT JUMPDEST PUSH1 0x0 PUSH2 0x641 DUP3 PUSH2 0x5FD JUMP JUMPDEST SWAP2 POP PUSH2 0x64C DUP4 PUSH2 0x5FD JUMP JUMPDEST SWAP3 POP DUP3 DUP3 ADD SWAP1 POP DUP1 DUP3 GT ISZERO PUSH2 0x664 JUMPI PUSH2 0x663 PUSH2 0x607 JUMP JUMPDEST JUMPDEST SWAP3 SWAP2 POP POP JUMP JUMPDEST PUSH32 0x4E487B7100000000000000000000000000000000000000000000000000000000 PUSH1 0x0 MSTORE PUSH1 0x1 PUSH1 0x4 MSTORE PUSH1 0x24 PUSH1 0x0 REVERT JUMPDEST PUSH1 0x0 DUP1 REVERT JUMPDEST PUSH1 0x0 DUP1 REVERT JUMPDEST PUSH1 0x0 DUP1 DUP6 DUP6 GT ISZERO PUSH2 0x6B7 JUMPI PUSH2 0x6B6 PUSH2 0x699 JUMP JUMPDEST JUMPDEST DUP4 DUP7 GT ISZERO PUSH2 0x6C8 JUMPI PUSH2 0x6C7 PUSH2 0x69E JUMP JUMPDEST JUMPDEST PUSH1 0x1 DUP6 MUL DUP4 ADD SWAP2 POP DUP5 DUP7 SUB SWAP1 POP SWAP5 POP SWAP5 SWAP3 POP POP POP JUMP JUMPDEST PUSH1 0x0 DUP2 SWAP1 POP SWAP3 SWAP2 POP POP JUMP JUMPDEST PUSH1 0x0 DUP2 SWAP1 POP DUP2 PUSH1 0x0 MSTORE PUSH1 0x20 PUSH1 0x0 KECCAK256 SWAP1 POP SWAP2 SWAP1 POP JUMP JUMPDEST PUSH1 0x0 DUP2 SLOAD PUSH2 0x70B DUP2 PUSH2 0x436 JUMP JUMPDEST PUSH2 0x715 DUP2 DUP7 PUSH2 0x6DE JUMP JUMPDEST SWAP5 POP PUSH1 0x1 DUP3 AND PUSH1 0x0 DUP2 EQ PUSH2 0x730 JUMPI PUSH1 0x1 DUP2 EQ PUSH2 0x745 JUMPI PUSH2 0x778 JUMP JUMPDEST PUSH1 0xFF NOT DUP4 AND DUP7 MSTORE DUP2 ISZERO ISZERO DUP3 MUL DUP7 ADD SWAP4 POP PUSH2 0x778 JUMP JUMPDEST PUSH2 0x74E DUP6 PUSH2 0x6E9 JUMP JUMPDEST PUSH1 0x0 JUMPDEST DUP4 DUP2 LT ISZERO PUSH2 0x770 JUMPI DUP2 SLOAD DUP2 DUP10 ADD MSTORE PUSH1 0x1 DUP3 ADD SWAP2 POP PUSH1 0x20 DUP2 ADD SWAP1 POP PUSH2 0x751 JUMP JUMPDEST DUP4 DUP9 ADD SWAP6 POP POP POP JUMPDEST POP POP POP SWAP3 SWAP2 POP POP JUMP JUMPDEST PUSH1 0x0 PUSH2 0x78D DUP4 DUP6 PUSH2 0x6DE JUMP JUMPDEST SWAP4 POP PUSH2 0x79A DUP4 DUP6 DUP5 PUSH2 0x2A0 JUMP JUMPDEST DUP3 DUP5 ADD SWAP1 POP SWAP4 SWAP3 POP POP POP JUMP JUMPDEST PUSH1 0x0 DUP2 MLOAD SWAP1 POP SWAP2 SWAP1 POP JUMP JUMPDEST PUSH1 0x0 PUSH2 0x7BC DUP3 PUSH2 0x7A6 JUMP JUMPDEST PUSH2 0x7C6 DUP2 DUP6 PUSH2 0x6DE JUMP JUMPDEST SWAP4 POP PUSH2 0x7D6 DUP2 DUP6 PUSH1 0x20 DUP7 ADD PUSH2 0x560 JUMP JUMPDEST DUP1 DUP5 ADD SWAP2 POP POP SWAP3 SWAP2 POP POP JUMP JUMPDEST PUSH1 0x0 DUP2 SWAP1 POP SWAP2 SWAP1 POP JUMP JUMPDEST PUSH2 0x7FD PUSH2 0x7F8 DUP3 PUSH2 0x31F JUMP JUMPDEST PUSH2 0x7E2 JUMP JUMPDEST DUP3 MSTORE POP POP JUMP JUMPDEST PUSH1 0x0 PUSH2 0x80F DUP3 DUP11 PUSH2 0x6FE JUMP JUMPDEST SWAP2 POP PUSH2 0x81C DUP3 DUP9 DUP11 PUSH2 0x781 JUMP JUMPDEST SWAP2 POP PUSH2 0x829 DUP3 DUP7 DUP9 PUSH2 0x781 JUMP JUMPDEST SWAP2 POP PUSH2 0x834 DUP3 PUSH2 0x52F JUMP JUMPDEST PUSH1 0x7 DUP3 ADD SWAP2 POP PUSH2 0x844 DUP3 DUP6 PUSH2 0x7B1 JUMP JUMPDEST SWAP2 POP PUSH2 0x850 DUP3 DUP5 PUSH2 0x7EC JUMP JUMPDEST PUSH1 0x10 DUP3 ADD SWAP2 POP DUP2 SWAP1 POP SWAP9 SWAP8 POP POP POP POP POP POP POP POP JUMP INVALID LOG2 PUSH5 0x6970667358 0x22 SLT KECCAK256 0x23 0xA7 0xBC 0xDE 0x2A MUL PUSH20 0x4C415469C41086B3F94ED291F452EBFB8ED2919E EQ 0x4C MOD CREATE SWAP7 PUSH5 0x736F6C6343 STOP ADDMOD SLT STOP CALLER "
				},
				"gasEstimates": {
					"creation": {
						"codeDepositCost": "440600",
						"executionCost": "infinite",
						"totalCost": "infinite"
					},
					"external": {
						"f(bytes,string,bytes16)": "infinite"
					}
				},
				"methodIdentifiers": {
					"f(bytes,string,bytes16)": "b0ed14f6"
				}
			},
			"storageLayout": {
				"storage": [
					{
						"astId": 4,
						"contract": "contract-stringAndBytes.sol:C",
						"label": "s",
						"offset": 0,
						"slot": "0",
						"type": "t_string_storage"
					}
				],
				"types": {
					"t_string_storage": {
						"encoding": "bytes",
						"label": "string",
						"numberOfBytes": "32"
					}
				}
			},
			"userdoc": {
				"kind": "user",
				"methods": {},
				"version": 1
			}
		}
	}
}