{
	"data": {
		"bytecode": {
			"linkReferences": {},
			"object": "608060405234801561001057600080fd5b50610a63806100206000396000f3fe608060405234801561001057600080fd5b50600436106100885760003560e01c80639acb58a21161005b5780639acb58a2146100ff578063a7a612381461011b578063aef76e2a14610137578063c658014b1461015357610088565b8063223fb4e71461008d5780632574b7c1146100a95780632ddbd13a146100c55780634934d2db146100e3575b600080fd5b6100a760048036038101906100a291906106ae565b61016f565b005b6100c360048036038101906100be91906106ae565b61021d565b005b6100cd6102d3565b6040516100da9190610714565b60405180910390f35b6100fd60048036038101906100f891906106ae565b6102d9565b005b610119600480360381019061011491906106ae565b610381565b005b610135600480360381019061013091906106ae565b610438565b005b610151600480360381019061014c91906106ae565b6104e3565b005b61016d600480360381019061016891906108aa565b61057e565b005b60008083839050905060005b8181101561020f576000600286868481811061019a576101996108f3565b5b905060200201356101ab9190610951565b1480156101d1575060638585838181106101c8576101c76108f3565b5b90506020020135105b156101fe578484828181106101e9576101e86108f3565b5b90506020020135836101fb91906109b1565b92505b80610208906109e5565b905061017b565b508160008190555050505050565b6000805b838390508110156102c6576000806002868685818110610244576102436108f3565b5b905060200201356102559190610951565b1490506000606386868581811061026f5761026e6108f3565b5b905060200201351090508180156102835750805b156102b05785858481811061029b5761029a6108f3565b5b90506020020135846102ad91906109b1565b93505b50506001816102bf91906109b1565b9050610221565b5080600081905550505050565b60005481565b6000805b8383905081101561037457600060028585848181106102ff576102fe6108f3565b5b905060200201356103109190610951565b1480156103365750606384848381811061032d5761032c6108f3565b5b90506020020135105b156103635783838281811061034e5761034d6108f3565b5b905060200201358261036091906109b1565b91505b8061036d906109e5565b90506102dd565b5080600081905550505050565b60005b828290508110156104335760008060028585858181106103a7576103a66108f3565b5b905060200201356103b89190610951565b149050600060638585858181106103d2576103d16108f3565b5b905060200201351090508180156103e65750805b1561041d578484848181106103fe576103fd6108f3565b5b9050602002013560008082825461041591906109b1565b925050819055505b505060018161042c91906109b1565b9050610384565b505050565b6000805b838390508110156104d6576000600285858481811061045e5761045d6108f3565b5b9050602002013561046f9190610951565b1480156104955750606384848381811061048c5761048b6108f3565b5b90506020020135105b156104c2578383828181106104ad576104ac6108f3565b5b90506020020135826104bf91906109b1565b91505b6001816104cf91906109b1565b905061043c565b5080600081905550505050565b60008083839050905060005b8181101561057057600085858381811061050c5761050b6108f3565b5b90506020020135905060006002826105249190610951565b1480156105315750606381105b1561055e57858583818110610549576105486108f3565b5b905060200201358461055b91906109b1565b93505b5080610569906109e5565b90506104ef565b508160008190555050505050565b60005b81518110156106315760008060028484815181106105a2576105a16108f3565b5b60200260200101516105b49190610951565b149050600060638484815181106105ce576105cd6108f3565b5b60200260200101511090508180156105e35750805b1561061b578383815181106105fb576105fa6108f3565b5b602002602001015160008082825461061391906109b1565b925050819055505b505060018161062a91906109b1565b9050610581565b5050565b6000604051905090565b600080fd5b600080fd5b600080fd5b600080fd5b600080fd5b60008083601f84011261066e5761066d610649565b5b8235905067ffffffffffffffff81111561068b5761068a61064e565b5b6020830191508360208202830111156106a7576106a6610653565b5b9250929050565b600080602083850312156106c5576106c461063f565b5b600083013567ffffffffffffffff8111156106e3576106e2610644565b5b6106ef85828601610658565b92509250509250929050565b6000819050919050565b61070e816106fb565b82525050565b60006020820190506107296000830184610705565b92915050565b6000601f19601f8301169050919050565b7f4e487b7100000000000000000000000000000000000000000000000000000000600052604160045260246000fd5b6107788261072f565b810181811067ffffffffffffffff8211171561079757610796610740565b5b80604052505050565b60006107aa610635565b90506107b6828261076f565b919050565b600067ffffffffffffffff8211156107d6576107d5610740565b5b602082029050602081019050919050565b6107f0816106fb565b81146107fb57600080fd5b50565b60008135905061080d816107e7565b92915050565b6000610826610821846107bb565b6107a0565b9050808382526020820190506020840283018581111561084957610848610653565b5b835b81811015610872578061085e88826107fe565b84526020840193505060208101905061084b565b5050509392505050565b600082601f83011261089157610890610649565b5b81356108a1848260208601610813565b91505092915050565b6000602082840312156108c0576108bf61063f565b5b600082013567ffffffffffffffff8111156108de576108dd610644565b5b6108ea8482850161087c565b91505092915050565b7f4e487b7100000000000000000000000000000000000000000000000000000000600052603260045260246000fd5b7f4e487b7100000000000000000000000000000000000000000000000000000000600052601260045260246000fd5b600061095c826106fb565b9150610967836106fb565b92508261097757610976610922565b5b828206905092915050565b7f4e487b7100000000000000000000000000000000000000000000000000000000600052601160045260246000fd5b60006109bc826106fb565b91506109c7836106fb565b92508282019050808211156109df576109de610982565b5b92915050565b60006109f0826106fb565b91507fffffffffffffffffffffffffffffffffffffffffffffffffffffffffffffffff8203610a2257610a21610982565b5b60018201905091905056fea2646970667358221220379026200cf0fad0710db04729e2875d159b8f1ff5cc634a1a5fb98a1d280acc64736f6c63430008120033",
			"opcodes": "PUSH1 0x80 PUSH1 0x40 MSTORE CALLVALUE DUP1 ISZERO PUSH2 0x10 JUMPI PUSH1 0x0 DUP1 REVERT JUMPDEST POP PUSH2 0xA63 DUP1 PUSH2 0x20 PUSH1 0x0 CODECOPY PUSH1 0x0 RETURN INVALID PUSH1 0x80 PUSH1 0x40 MSTORE CALLVALUE DUP1 ISZERO PUSH2 0x10 JUMPI PUSH1 0x0 DUP1 REVERT JUMPDEST POP PUSH1 0x4 CALLDATASIZE LT PUSH2 0x88 JUMPI PUSH1 0x0 CALLDATALOAD PUSH1 0xE0 SHR DUP1 PUSH4 0x9ACB58A2 GT PUSH2 0x5B JUMPI DUP1 PUSH4 0x9ACB58A2 EQ PUSH2 0xFF JUMPI DUP1 PUSH4 0xA7A61238 EQ PUSH2 0x11B JUMPI DUP1 PUSH4 0xAEF76E2A EQ PUSH2 0x137 JUMPI DUP1 PUSH4 0xC658014B EQ PUSH2 0x153 JUMPI PUSH2 0x88 JUMP JUMPDEST DUP1 PUSH4 0x223FB4E7 EQ PUSH2 0x8D JUMPI DUP1 PUSH4 0x2574B7C1 EQ PUSH2 0xA9 JUMPI DUP1 PUSH4 0x2DDBD13A EQ PUSH2 0xC5 JUMPI DUP1 PUSH4 0x4934D2DB EQ PUSH2 0xE3 JUMPI JUMPDEST PUSH1 0x0 DUP1 REVERT JUMPDEST PUSH2 0xA7 PUSH1 0x4 DUP1 CALLDATASIZE SUB DUP2 ADD SWAP1 PUSH2 0xA2 SWAP2 SWAP1 PUSH2 0x6AE JUMP JUMPDEST PUSH2 0x16F JUMP JUMPDEST STOP JUMPDEST PUSH2 0xC3 PUSH1 0x4 DUP1 CALLDATASIZE SUB DUP2 ADD SWAP1 PUSH2 0xBE SWAP2 SWAP1 PUSH2 0x6AE JUMP JUMPDEST PUSH2 0x21D JUMP JUMPDEST STOP JUMPDEST PUSH2 0xCD PUSH2 0x2D3 JUMP JUMPDEST PUSH1 0x40 MLOAD PUSH2 0xDA SWAP2 SWAP1 PUSH2 0x714 JUMP JUMPDEST PUSH1 0x40 MLOAD DUP1 SWAP2 SUB SWAP1 RETURN JUMPDEST PUSH2 0xFD PUSH1 0x4 DUP1 CALLDATASIZE SUB DUP2 ADD SWAP1 PUSH2 0xF8 SWAP2 SWAP1 PUSH2 0x6AE JUMP JUMPDEST PUSH2 0x2D9 JUMP JUMPDEST STOP JUMPDEST PUSH2 0x119 PUSH1 0x4 DUP1 CALLDATASIZE SUB DUP2 ADD SWAP1 PUSH2 0x114 SWAP2 SWAP1 PUSH2 0x6AE JUMP JUMPDEST PUSH2 0x381 JUMP JUMPDEST STOP JUMPDEST PUSH2 0x135 PUSH1 0x4 DUP1 CALLDATASIZE SUB DUP2 ADD SWAP1 PUSH2 0x130 SWAP2 SWAP1 PUSH2 0x6AE JUMP JUMPDEST PUSH2 0x438 JUMP JUMPDEST STOP JUMPDEST PUSH2 0x151 PUSH1 0x4 DUP1 CALLDATASIZE SUB DUP2 ADD SWAP1 PUSH2 0x14C SWAP2 SWAP1 PUSH2 0x6AE JUMP JUMPDEST PUSH2 0x4E3 JUMP JUMPDEST STOP JUMPDEST PUSH2 0x16D PUSH1 0x4 DUP1 CALLDATASIZE SUB DUP2 ADD SWAP1 PUSH2 0x168 SWAP2 SWAP1 PUSH2 0x8AA JUMP JUMPDEST PUSH2 0x57E JUMP JUMPDEST STOP JUMPDEST PUSH1 0x0 DUP1 DUP4 DUP4 SWAP1 POP SWAP1 POP PUSH1 0x0 JUMPDEST DUP2 DUP2 LT ISZERO PUSH2 0x20F JUMPI PUSH1 0x0 PUSH1 0x2 DUP7 DUP7 DUP5 DUP2 DUP2 LT PUSH2 0x19A JUMPI PUSH2 0x199 PUSH2 0x8F3 JUMP JUMPDEST JUMPDEST SWAP1 POP PUSH1 0x20 MUL ADD CALLDATALOAD PUSH2 0x1AB SWAP2 SWAP1 PUSH2 0x951 JUMP JUMPDEST EQ DUP1 ISZERO PUSH2 0x1D1 JUMPI POP PUSH1 0x63 DUP6 DUP6 DUP4 DUP2 DUP2 LT PUSH2 0x1C8 JUMPI PUSH2 0x1C7 PUSH2 0x8F3 JUMP JUMPDEST JUMPDEST SWAP1 POP PUSH1 0x20 MUL ADD CALLDATALOAD LT JUMPDEST ISZERO PUSH2 0x1FE JUMPI DUP5 DUP5 DUP3 DUP2 DUP2 LT PUSH2 0x1E9 JUMPI PUSH2 0x1E8 PUSH2 0x8F3 JUMP JUMPDEST JUMPDEST SWAP1 POP PUSH1 0x20 MUL ADD CALLDATALOAD DUP4 PUSH2 0x1FB SWAP2 SWAP1 PUSH2 0x9B1 JUMP JUMPDEST SWAP3 POP JUMPDEST DUP1 PUSH2 0x208 SWAP1 PUSH2 0x9E5 JUMP JUMPDEST SWAP1 POP PUSH2 0x17B JUMP JUMPDEST POP DUP2 PUSH1 0x0 DUP2 SWAP1 SSTORE POP POP POP POP POP JUMP JUMPDEST PUSH1 0x0 DUP1 JUMPDEST DUP4 DUP4 SWAP1 POP DUP2 LT ISZERO PUSH2 0x2C6 JUMPI PUSH1 0x0 DUP1 PUSH1 0x2 DUP7 DUP7 DUP6 DUP2 DUP2 LT PUSH2 0x244 JUMPI PUSH2 0x243 PUSH2 0x8F3 JUMP JUMPDEST JUMPDEST SWAP1 POP PUSH1 0x20 MUL ADD CALLDATALOAD PUSH2 0x255 SWAP2 SWAP1 PUSH2 0x951 JUMP JUMPDEST EQ SWAP1 POP PUSH1 0x0 PUSH1 0x63 DUP7 DUP7 DUP6 DUP2 DUP2 LT PUSH2 0x26F JUMPI PUSH2 0x26E PUSH2 0x8F3 JUMP JUMPDEST JUMPDEST SWAP1 POP PUSH1 0x20 MUL ADD CALLDATALOAD LT SWAP1 POP DUP2 DUP1 ISZERO PUSH2 0x283 JUMPI POP DUP1 JUMPDEST ISZERO PUSH2 0x2B0 JUMPI DUP6 DUP6 DUP5 DUP2 DUP2 LT PUSH2 0x29B JUMPI PUSH2 0x29A PUSH2 0x8F3 JUMP JUMPDEST JUMPDEST SWAP1 POP PUSH1 0x20 MUL ADD CALLDATALOAD DUP5 PUSH2 0x2AD SWAP2 SWAP1 PUSH2 0x9B1 JUMP JUMPDEST SWAP4 POP JUMPDEST POP POP PUSH1 0x1 DUP2 PUSH2 0x2BF SWAP2 SWAP1 PUSH2 0x9B1 JUMP JUMPDEST SWAP1 POP PUSH2 0x221 JUMP JUMPDEST POP DUP1 PUSH1 0x0 DUP2 SWAP1 SSTORE POP POP POP POP JUMP JUMPDEST PUSH1 0x0 SLOAD DUP2 JUMP JUMPDEST PUSH1 0x0 DUP1 JUMPDEST DUP4 DUP4 SWAP1 POP DUP2 LT ISZERO PUSH2 0x374 JUMPI PUSH1 0x0 PUSH1 0x2 DUP6 DUP6 DUP5 DUP2 DUP2 LT PUSH2 0x2FF JUMPI PUSH2 0x2FE PUSH2 0x8F3 JUMP JUMPDEST JUMPDEST SWAP1 POP PUSH1 0x20 MUL ADD CALLDATALOAD PUSH2 0x310 SWAP2 SWAP1 PUSH2 0x951 JUMP JUMPDEST EQ DUP1 ISZERO PUSH2 0x336 JUMPI POP PUSH1 0x63 DUP5 DUP5 DUP4 DUP2 DUP2 LT PUSH2 0x32D JUMPI PUSH2 0x32C PUSH2 0x8F3 JUMP JUMPDEST JUMPDEST SWAP1 POP PUSH1 0x20 MUL ADD CALLDATALOAD LT JUMPDEST ISZERO PUSH2 0x363 JUMPI DUP4 DUP4 DUP3 DUP2 DUP2 LT PUSH2 0x34E JUMPI PUSH2 0x34D PUSH2 0x8F3 JUMP JUMPDEST JUMPDEST SWAP1 POP PUSH1 0x20 MUL ADD CALLDATALOAD DUP3 PUSH2 0x360 SWAP2 SWAP1 PUSH2 0x9B1 JUMP JUMPDEST SWAP2 POP JUMPDEST DUP1 PUSH2 0x36D SWAP1 PUSH2 0x9E5 JUMP JUMPDEST SWAP1 POP PUSH2 0x2DD JUMP JUMPDEST POP DUP1 PUSH1 0x0 DUP2 SWAP1 SSTORE POP POP POP POP JUMP JUMPDEST PUSH1 0x0 JUMPDEST DUP3 DUP3 SWAP1 POP DUP2 LT ISZERO PUSH2 0x433 JUMPI PUSH1 0x0 DUP1 PUSH1 0x2 DUP6 DUP6 DUP6 DUP2 DUP2 LT PUSH2 0x3A7 JUMPI PUSH2 0x3A6 PUSH2 0x8F3 JUMP JUMPDEST JUMPDEST SWAP1 POP PUSH1 0x20 MUL ADD CALLDATALOAD PUSH2 0x3B8 SWAP2 SWAP1 PUSH2 0x951 JUMP JUMPDEST EQ SWAP1 POP PUSH1 0x0 PUSH1 0x63 DUP6 DUP6 DUP6 DUP2 DUP2 LT PUSH2 0x3D2 JUMPI PUSH2 0x3D1 PUSH2 0x8F3 JUMP JUMPDEST JUMPDEST SWAP1 POP PUSH1 0x20 MUL ADD CALLDATALOAD LT SWAP1 POP DUP2 DUP1 ISZERO PUSH2 0x3E6 JUMPI POP DUP1 JUMPDEST ISZERO PUSH2 0x41D JUMPI DUP5 DUP5 DUP5 DUP2 DUP2 LT PUSH2 0x3FE JUMPI PUSH2 0x3FD PUSH2 0x8F3 JUMP JUMPDEST JUMPDEST SWAP1 POP PUSH1 0x20 MUL ADD CALLDATALOAD PUSH1 0x0 DUP1 DUP3 DUP3 SLOAD PUSH2 0x415 SWAP2 SWAP1 PUSH2 0x9B1 JUMP JUMPDEST SWAP3 POP POP DUP2 SWAP1 SSTORE POP JUMPDEST POP POP PUSH1 0x1 DUP2 PUSH2 0x42C SWAP2 SWAP1 PUSH2 0x9B1 JUMP JUMPDEST SWAP1 POP PUSH2 0x384 JUMP JUMPDEST POP POP POP JUMP JUMPDEST PUSH1 0x0 DUP1 JUMPDEST DUP4 DUP4 SWAP1 POP DUP2 LT ISZERO PUSH2 0x4D6 JUMPI PUSH1 0x0 PUSH1 0x2 DUP6 DUP6 DUP5 DUP2 DUP2 LT PUSH2 0x45E JUMPI PUSH2 0x45D PUSH2 0x8F3 JUMP JUMPDEST JUMPDEST SWAP1 POP PUSH1 0x20 MUL ADD CALLDATALOAD PUSH2 0x46F SWAP2 SWAP1 PUSH2 0x951 JUMP JUMPDEST EQ DUP1 ISZERO PUSH2 0x495 JUMPI POP PUSH1 0x63 DUP5 DUP5 DUP4 DUP2 DUP2 LT PUSH2 0x48C JUMPI PUSH2 0x48B PUSH2 0x8F3 JUMP JUMPDEST JUMPDEST SWAP1 POP PUSH1 0x20 MUL ADD CALLDATALOAD LT JUMPDEST ISZERO PUSH2 0x4C2 JUMPI DUP4 DUP4 DUP3 DUP2 DUP2 LT PUSH2 0x4AD JUMPI PUSH2 0x4AC PUSH2 0x8F3 JUMP JUMPDEST JUMPDEST SWAP1 POP PUSH1 0x20 MUL ADD CALLDATALOAD DUP3 PUSH2 0x4BF SWAP2 SWAP1 PUSH2 0x9B1 JUMP JUMPDEST SWAP2 POP JUMPDEST PUSH1 0x1 DUP2 PUSH2 0x4CF SWAP2 SWAP1 PUSH2 0x9B1 JUMP JUMPDEST SWAP1 POP PUSH2 0x43C JUMP JUMPDEST POP DUP1 PUSH1 0x0 DUP2 SWAP1 SSTORE POP POP POP POP JUMP JUMPDEST PUSH1 0x0 DUP1 DUP4 DUP4 SWAP1 POP SWAP1 POP PUSH1 0x0 JUMPDEST DUP2 DUP2 LT ISZERO PUSH2 0x570 JUMPI PUSH1 0x0 DUP6 DUP6 DUP4 DUP2 DUP2 LT PUSH2 0x50C JUMPI PUSH2 0x50B PUSH2 0x8F3 JUMP JUMPDEST JUMPDEST SWAP1 POP PUSH1 0x20 MUL ADD CALLDATALOAD SWAP1 POP PUSH1 0x0 PUSH1 0x2 DUP3 PUSH2 0x524 SWAP2 SWAP1 PUSH2 0x951 JUMP JUMPDEST EQ DUP1 ISZERO PUSH2 0x531 JUMPI POP PUSH1 0x63 DUP2 LT JUMPDEST ISZERO PUSH2 0x55E JUMPI DUP6 DUP6 DUP4 DUP2 DUP2 LT PUSH2 0x549 JUMPI PUSH2 0x548 PUSH2 0x8F3 JUMP JUMPDEST JUMPDEST SWAP1 POP PUSH1 0x20 MUL ADD CALLDATALOAD DUP5 PUSH2 0x55B SWAP2 SWAP1 PUSH2 0x9B1 JUMP JUMPDEST SWAP4 POP JUMPDEST POP DUP1 PUSH2 0x569 SWAP1 PUSH2 0x9E5 JUMP JUMPDEST SWAP1 POP PUSH2 0x4EF JUMP JUMPDEST POP DUP2 PUSH1 0x0 DUP2 SWAP1 SSTORE POP POP POP POP POP JUMP JUMPDEST PUSH1 0x0 JUMPDEST DUP2 MLOAD DUP2 LT ISZERO PUSH2 0x631 JUMPI PUSH1 0x0 DUP1 PUSH1 0x2 DUP5 DUP5 DUP2 MLOAD DUP2 LT PUSH2 0x5A2 JUMPI PUSH2 0x5A1 PUSH2 0x8F3 JUMP JUMPDEST JUMPDEST PUSH1 0x20 MUL PUSH1 0x20 ADD ADD MLOAD PUSH2 0x5B4 SWAP2 SWAP1 PUSH2 0x951 JUMP JUMPDEST EQ SWAP1 POP PUSH1 0x0 PUSH1 0x63 DUP5 DUP5 DUP2 MLOAD DUP2 LT PUSH2 0x5CE JUMPI PUSH2 0x5CD PUSH2 0x8F3 JUMP JUMPDEST JUMPDEST PUSH1 0x20 MUL PUSH1 0x20 ADD ADD MLOAD LT SWAP1 POP DUP2 DUP1 ISZERO PUSH2 0x5E3 JUMPI POP DUP1 JUMPDEST ISZERO PUSH2 0x61B JUMPI DUP4 DUP4 DUP2 MLOAD DUP2 LT PUSH2 0x5FB JUMPI PUSH2 0x5FA PUSH2 0x8F3 JUMP JUMPDEST JUMPDEST PUSH1 0x20 MUL PUSH1 0x20 ADD ADD MLOAD PUSH1 0x0 DUP1 DUP3 DUP3 SLOAD PUSH2 0x613 SWAP2 SWAP1 PUSH2 0x9B1 JUMP JUMPDEST SWAP3 POP POP DUP2 SWAP1 SSTORE POP JUMPDEST POP POP PUSH1 0x1 DUP2 PUSH2 0x62A SWAP2 SWAP1 PUSH2 0x9B1 JUMP JUMPDEST SWAP1 POP PUSH2 0x581 JUMP JUMPDEST POP POP JUMP JUMPDEST PUSH1 0x0 PUSH1 0x40 MLOAD SWAP1 POP SWAP1 JUMP JUMPDEST PUSH1 0x0 DUP1 REVERT JUMPDEST PUSH1 0x0 DUP1 REVERT JUMPDEST PUSH1 0x0 DUP1 REVERT JUMPDEST PUSH1 0x0 DUP1 REVERT JUMPDEST PUSH1 0x0 DUP1 REVERT JUMPDEST PUSH1 0x0 DUP1 DUP4 PUSH1 0x1F DUP5 ADD SLT PUSH2 0x66E JUMPI PUSH2 0x66D PUSH2 0x649 JUMP JUMPDEST JUMPDEST DUP3 CALLDATALOAD SWAP1 POP PUSH8 0xFFFFFFFFFFFFFFFF DUP2 GT ISZERO PUSH2 0x68B JUMPI PUSH2 0x68A PUSH2 0x64E JUMP JUMPDEST JUMPDEST PUSH1 0x20 DUP4 ADD SWAP2 POP DUP4 PUSH1 0x20 DUP3 MUL DUP4 ADD GT ISZERO PUSH2 0x6A7 JUMPI PUSH2 0x6A6 PUSH2 0x653 JUMP JUMPDEST JUMPDEST SWAP3 POP SWAP3 SWAP1 POP JUMP JUMPDEST PUSH1 0x0 DUP1 PUSH1 0x20 DUP4 DUP6 SUB SLT ISZERO PUSH2 0x6C5 JUMPI PUSH2 0x6C4 PUSH2 0x63F JUMP JUMPDEST JUMPDEST PUSH1 0x0 DUP4 ADD CALLDATALOAD PUSH8 0xFFFFFFFFFFFFFFFF DUP2 GT ISZERO PUSH2 0x6E3 JUMPI PUSH2 0x6E2 PUSH2 0x644 JUMP JUMPDEST JUMPDEST PUSH2 0x6EF DUP6 DUP3 DUP7 ADD PUSH2 0x658 JUMP JUMPDEST SWAP3 POP SWAP3 POP POP SWAP3 POP SWAP3 SWAP1 POP JUMP JUMPDEST PUSH1 0x0 DUP2 SWAP1 POP SWAP2 SWAP1 POP JUMP JUMPDEST PUSH2 0x70E DUP2 PUSH2 0x6FB JUMP JUMPDEST DUP3 MSTORE POP POP JUMP JUMPDEST PUSH1 0x0 PUSH1 0x20 DUP3 ADD SWAP1 POP PUSH2 0x729 PUSH1 0x0 DUP4 ADD DUP5 PUSH2 0x705 JUMP JUMPDEST SWAP3 SWAP2 POP POP JUMP JUMPDEST PUSH1 0x0 PUSH1 0x1F NOT PUSH1 0x1F DUP4 ADD AND SWAP1 POP SWAP2 SWAP1 POP JUMP JUMPDEST PUSH32 0x4E487B7100000000000000000000000000000000000000000000000000000000 PUSH1 0x0 MSTORE PUSH1 0x41 PUSH1 0x4 MSTORE PUSH1 0x24 PUSH1 0x0 REVERT JUMPDEST PUSH2 0x778 DUP3 PUSH2 0x72F JUMP JUMPDEST DUP2 ADD DUP2 DUP2 LT PUSH8 0xFFFFFFFFFFFFFFFF DUP3 GT OR ISZERO PUSH2 0x797 JUMPI PUSH2 0x796 PUSH2 0x740 JUMP JUMPDEST JUMPDEST DUP1 PUSH1 0x40 MSTORE POP POP POP JUMP JUMPDEST PUSH1 0x0 PUSH2 0x7AA PUSH2 0x635 JUMP JUMPDEST SWAP1 POP PUSH2 0x7B6 DUP3 DUP3 PUSH2 0x76F JUMP JUMPDEST SWAP2 SWAP1 POP JUMP JUMPDEST PUSH1 0x0 PUSH8 0xFFFFFFFFFFFFFFFF DUP3 GT ISZERO PUSH2 0x7D6 JUMPI PUSH2 0x7D5 PUSH2 0x740 JUMP JUMPDEST JUMPDEST PUSH1 0x20 DUP3 MUL SWAP1 POP PUSH1 0x20 DUP2 ADD SWAP1 POP SWAP2 SWAP1 POP JUMP JUMPDEST PUSH2 0x7F0 DUP2 PUSH2 0x6FB JUMP JUMPDEST DUP2 EQ PUSH2 0x7FB JUMPI PUSH1 0x0 DUP1 REVERT JUMPDEST POP JUMP JUMPDEST PUSH1 0x0 DUP2 CALLDATALOAD SWAP1 POP PUSH2 0x80D DUP2 PUSH2 0x7E7 JUMP JUMPDEST SWAP3 SWAP2 POP POP JUMP JUMPDEST PUSH1 0x0 PUSH2 0x826 PUSH2 0x821 DUP5 PUSH2 0x7BB JUMP JUMPDEST PUSH2 0x7A0 JUMP JUMPDEST SWAP1 POP DUP1 DUP4 DUP3 MSTORE PUSH1 0x20 DUP3 ADD SWAP1 POP PUSH1 0x20 DUP5 MUL DUP4 ADD DUP6 DUP2 GT ISZERO PUSH2 0x849 JUMPI PUSH2 0x848 PUSH2 0x653 JUMP JUMPDEST JUMPDEST DUP4 JUMPDEST DUP2 DUP2 LT ISZERO PUSH2 0x872 JUMPI DUP1 PUSH2 0x85E DUP9 DUP3 PUSH2 0x7FE JUMP JUMPDEST DUP5 MSTORE PUSH1 0x20 DUP5 ADD SWAP4 POP POP PUSH1 0x20 DUP2 ADD SWAP1 POP PUSH2 0x84B JUMP JUMPDEST POP POP POP SWAP4 SWAP3 POP POP POP JUMP JUMPDEST PUSH1 0x0 DUP3 PUSH1 0x1F DUP4 ADD SLT PUSH2 0x891 JUMPI PUSH2 0x890 PUSH2 0x649 JUMP JUMPDEST JUMPDEST DUP2 CALLDATALOAD PUSH2 0x8A1 DUP5 DUP3 PUSH1 0x20 DUP7 ADD PUSH2 0x813 JUMP JUMPDEST SWAP2 POP POP SWAP3 SWAP2 POP POP JUMP JUMPDEST PUSH1 0x0 PUSH1 0x20 DUP3 DUP5 SUB SLT ISZERO PUSH2 0x8C0 JUMPI PUSH2 0x8BF PUSH2 0x63F JUMP JUMPDEST JUMPDEST PUSH1 0x0 DUP3 ADD CALLDATALOAD PUSH8 0xFFFFFFFFFFFFFFFF DUP2 GT ISZERO PUSH2 0x8DE JUMPI PUSH2 0x8DD PUSH2 0x644 JUMP JUMPDEST JUMPDEST PUSH2 0x8EA DUP5 DUP3 DUP6 ADD PUSH2 0x87C JUMP JUMPDEST SWAP2 POP POP SWAP3 SWAP2 POP POP JUMP JUMPDEST PUSH32 0x4E487B7100000000000000000000000000000000000000000000000000000000 PUSH1 0x0 MSTORE PUSH1 0x32 PUSH1 0x4 MSTORE PUSH1 0x24 PUSH1 0x0 REVERT JUMPDEST PUSH32 0x4E487B7100000000000000000000000000000000000000000000000000000000 PUSH1 0x0 MSTORE PUSH1 0x12 PUSH1 0x4 MSTORE PUSH1 0x24 PUSH1 0x0 REVERT JUMPDEST PUSH1 0x0 PUSH2 0x95C DUP3 PUSH2 0x6FB JUMP JUMPDEST SWAP2 POP PUSH2 0x967 DUP4 PUSH2 0x6FB JUMP JUMPDEST SWAP3 POP DUP3 PUSH2 0x977 JUMPI PUSH2 0x976 PUSH2 0x922 JUMP JUMPDEST JUMPDEST DUP3 DUP3 MOD SWAP1 POP SWAP3 SWAP2 POP POP JUMP JUMPDEST PUSH32 0x4E487B7100000000000000000000000000000000000000000000000000000000 PUSH1 0x0 MSTORE PUSH1 0x11 PUSH1 0x4 MSTORE PUSH1 0x24 PUSH1 0x0 REVERT JUMPDEST PUSH1 0x0 PUSH2 0x9BC DUP3 PUSH2 0x6FB JUMP JUMPDEST SWAP2 POP PUSH2 0x9C7 DUP4 PUSH2 0x6FB JUMP JUMPDEST SWAP3 POP DUP3 DUP3 ADD SWAP1 POP DUP1 DUP3 GT ISZERO PUSH2 0x9DF JUMPI PUSH2 0x9DE PUSH2 0x982 JUMP JUMPDEST JUMPDEST SWAP3 SWAP2 POP POP JUMP JUMPDEST PUSH1 0x0 PUSH2 0x9F0 DUP3 PUSH2 0x6FB JUMP JUMPDEST SWAP2 POP PUSH32 0xFFFFFFFFFFFFFFFFFFFFFFFFFFFFFFFFFFFFFFFFFFFFFFFFFFFFFFFFFFFFFFFF DUP3 SUB PUSH2 0xA22 JUMPI PUSH2 0xA21 PUSH2 0x982 JUMP JUMPDEST JUMPDEST PUSH1 0x1 DUP3 ADD SWAP1 POP SWAP2 SWAP1 POP JUMP INVALID LOG2 PUSH5 0x6970667358 0x22 SLT KECCAK256 CALLDATACOPY SWAP1 0x26 KECCAK256 0xC CREATE STATICCALL 0xD0 PUSH18 0xDB04729E2875D159B8F1FF5CC634A1A5FB9 DUP11 SAR 0x28 EXP 0xCC PUSH5 0x736F6C6343 STOP ADDMOD SLT STOP CALLER "
		},
		"gasEstimates": {
			"creation": {
				"codeDepositCost": "531800",
				"executionCost": "568",
				"totalCost": "532368"
			},
			"external": {
				"calSum1(uint256[])": "infinite",
				"calSum2(uint256[])": "infinite",
				"calSum3(uint256[])": "infinite",
				"calSum4(uint256[])": "infinite",
				"calSum5(uint256[])": "infinite",
				"calSum6(uint256[])": "infinite",
				"calSum7(uint256[])": "infinite",
				"total()": "2474"
			}
		},
		"methodIdentifiers": {
			"calSum1(uint256[])": "c658014b",
			"calSum2(uint256[])": "9acb58a2",
			"calSum3(uint256[])": "2574b7c1",
			"calSum4(uint256[])": "a7a61238",
			"calSum5(uint256[])": "4934d2db",
			"calSum6(uint256[])": "223fb4e7",
			"calSum7(uint256[])": "aef76e2a",
			"total()": "2ddbd13a"
		}
	},
	"abi": [
		{
			"inputs": [
				{
					"internalType": "uint256[]",
					"name": "arr",
					"type": "uint256[]"
				}
			],
			"name": "calSum1",
			"outputs": [],
			"stateMutability": "nonpayable",
			"type": "function"
		},
		{
			"inputs": [
				{
					"internalType": "uint256[]",
					"name": "arr",
					"type": "uint256[]"
				}
			],
			"name": "calSum2",
			"outputs": [],
			"stateMutability": "nonpayable",
			"type": "function"
		},
		{
			"inputs": [
				{
					"internalType": "uint256[]",
					"name": "arr",
					"type": "uint256[]"
				}
			],
			"name": "calSum3",
			"outputs": [],
			"stateMutability": "nonpayable",
			"type": "function"
		},
		{
			"inputs": [
				{
					"internalType": "uint256[]",
					"name": "arr",
					"type": "uint256[]"
				}
			],
			"name": "calSum4",
			"outputs": [],
			"stateMutability": "nonpayable",
			"type": "function"
		},
		{
			"inputs": [
				{
					"internalType": "uint256[]",
					"name": "arr",
					"type": "uint256[]"
				}
			],
			"name": "calSum5",
			"outputs": [],
			"stateMutability": "nonpayable",
			"type": "function"
		},
		{
			"inputs": [
				{
					"internalType": "uint256[]",
					"name": "arr",
					"type": "uint256[]"
				}
			],
			"name": "calSum6",
			"outputs": [],
			"stateMutability": "nonpayable",
			"type": "function"
		},
		{
			"inputs": [
				{
					"internalType": "uint256[]",
					"name": "arr",
					"type": "uint256[]"
				}
			],
			"name": "calSum7",
			"outputs": [],
			"stateMutability": "nonpayable",
			"type": "function"
		},
		{
			"inputs": [],
			"name": "total",
			"outputs": [
				{
					"internalType": "uint256",
					"name": "",
					"type": "uint256"
				}
			],
			"stateMutability": "view",
			"type": "function"
		}
	]
}