{
	"data": {
		"bytecode": {
			"linkReferences": {},
			"object": "608060405234801561000f575f80fd5b5061126d8061001d5f395ff3fe608060405234801561000f575f80fd5b5060043610610086575f3560e01c80637d7e5e3d116100595780637d7e5e3d146100fc578063b9cce72c14610118578063deff71b814610148578063f5933f661461016457610086565b806331a561101461008a57806352efea6e146100a65780636d236703146100b05780637bc5bbbf146100e0575b5f80fd5b6100a4600480360381019061009f91906109c9565b610180565b005b6100ae6102de565b005b6100ca60048036038101906100c59190610a43565b610367565b6040516100d79190610ae8565b60405180910390f35b6100fa60048036038101906100f59190610bcc565b6104b4565b005b61011660048036038101906101119190610c48565b6104e1565b005b610132600480360381019061012d9190610d46565b610587565b60405161013f9190610d80565b60405180910390f35b610162600480360381019061015d9190610e59565b6105cd565b005b61017e60048036038101906101799190610a43565b6105e9565b005b80621000039081610191919061109a565b505f5b600781101561021257621000036001818054806101b090610ecd565b80601f81036101cd57835f5260205f2060ff1984168155603f9350505b506002820183556001810192505050038154600116156101fa57905f5260205f2090602091828204019190065b9054905050808061020a90611196565b915050610194565b50600860f81b621000036003815461022990610ecd565b8110610238576102376111dd565b5b81546001161561025557905f5260205f2090602091828204019190065b601f036101000a81548160ff021916907f010000000000000000000000000000000000000000000000000000000000000084040217905550621000036002815461029e90610ecd565b81106102ad576102ac6111dd565b5b8154600116156102ca57905f5260205f2090602091828204019190065b601f036101000a81549060ff021916905550565b621000005f6102ed9190610687565b5f806102f991906106a5565b5f67ffffffffffffffff811115610313576103126108a5565b5b60405190808252806020026020018201604052801561034c57816020015b6103396106ba565b8152602001906001900390816103315790505b506210000090805190602001906103649291906106dc565b50565b60605f8267ffffffffffffffff811115610384576103836108a5565b5b6040519080825280602002602001820160405280156103bd57816020015b6103aa610735565b8152602001906001900390816103a25790505b5090506040518060400160405280600181526020016002815250815f815181106103ea576103e96111dd565b5b60200260200101819052505f60c867ffffffffffffffff811115610411576104106108a5565b5b6040519080825280601f01601f1916602001820160405280156104435781602001600182028036833780820191505090505b5090505f5b81518110156104a9578060f81b828281518110610468576104676111dd565b5b60200101907effffffffffffffffffffffffffffffffffffffffffffffffffffffffffffff191690815f1a90535080806104a190611196565b915050610448565b508092505050919050565b5f6210000190506002816001018190555081815f0190805190602001906104dc929190610757565b505050565b816210000084815481106104f8576104f76111dd565b5b905f5260205f20015f60028110610512576105116111dd565b5b602091828204019190066101000a81548160ff02191690831515021790555080621000008481548110610548576105476111dd565b5b905f5260205f2001600160028110610563576105626111dd565b5b602091828204019190066101000a81548160ff021916908315150217905550505050565b5f6210000082908060018154018082558091505060019003905f5260205f20015f909190919091509060026105bd9291906107a2565b5062100000805490509050919050565b806210000090805190602001906105e59291906106dc565b5050565b6210000080549050811015610641575b806210000080549050111561063c576210000080548061061c5761061b61120a565b5b600190038181905f5260205f20015f6106359190610838565b90556105f9565b610684565b6210000080549050811115610683575b8062100000805490501015610682576210000060018160018154018082558091505003905f5260205f205050610651565b5b5b50565b5080545f8255905f5260205f20908101906106a2919061083e565b50565b50806210000001906106b79190610861565b50565b6040518060400160405280600290602082028036833780820191505090505090565b828054828255905f5260205f20908101928215610724579160200282015b82811115610723578251829060026107139291906107a2565b50916020019190600101906106fa565b5b509050610731919061083e565b5090565b6040518060400160405280600290602082028036833780820191505090505090565b828054828255905f5260205f20908101928215610791579160200282015b82811115610790578251825591602001919060010190610775565b5b50905061079e9190610861565b5090565b826002601f01602090048101928215610827579160200282015f5b838211156107f957835183826101000a81548160ff02191690831515021790555092602001926001016020815f010492830192600103026107bd565b80156108255782816101000a81549060ff02191690556001016020815f010492830192600103026107f9565b505b5090506108349190610861565b5090565b505f9055565b5b8082111561085d575f81816108549190610838565b5060010161083f565b5090565b5b80821115610878575f815f905550600101610862565b5090565b5f604051905090565b5f80fd5b5f80fd5b5f80fd5b5f80fd5b5f601f19601f8301169050919050565b7f4e487b71000000000000000000000000000000000000000000000000000000005f52604160045260245ffd5b6108db82610895565b810181811067ffffffffffffffff821117156108fa576108f96108a5565b5b80604052505050565b5f61090c61087c565b905061091882826108d2565b919050565b5f67ffffffffffffffff821115610937576109366108a5565b5b61094082610895565b9050602081019050919050565b828183375f83830152505050565b5f61096d6109688461091d565b610903565b90508281526020810184848401111561098957610988610891565b5b61099484828561094d565b509392505050565b5f82601f8301126109b0576109af61088d565b5b81356109c084826020860161095b565b91505092915050565b5f602082840312156109de576109dd610885565b5b5f82013567ffffffffffffffff8111156109fb576109fa610889565b5b610a078482850161099c565b91505092915050565b5f819050919050565b610a2281610a10565b8114610a2c575f80fd5b50565b5f81359050610a3d81610a19565b92915050565b5f60208284031215610a5857610a57610885565b5b5f610a6584828501610a2f565b91505092915050565b5f81519050919050565b5f82825260208201905092915050565b5f5b83811015610aa5578082015181840152602081019050610a8a565b5f8484015250505050565b5f610aba82610a6e565b610ac48185610a78565b9350610ad4818560208601610a88565b610add81610895565b840191505092915050565b5f6020820190508181035f830152610b008184610ab0565b905092915050565b5f67ffffffffffffffff821115610b2257610b216108a5565b5b602082029050602081019050919050565b5f80fd5b5f610b49610b4484610b08565b610903565b90508083825260208201905060208402830185811115610b6c57610b6b610b33565b5b835b81811015610b955780610b818882610a2f565b845260208401935050602081019050610b6e565b5050509392505050565b5f82601f830112610bb357610bb261088d565b5b8135610bc3848260208601610b37565b91505092915050565b5f60208284031215610be157610be0610885565b5b5f82013567ffffffffffffffff811115610bfe57610bfd610889565b5b610c0a84828501610b9f565b91505092915050565b5f8115159050919050565b610c2781610c13565b8114610c31575f80fd5b50565b5f81359050610c4281610c1e565b92915050565b5f805f60608486031215610c5f57610c5e610885565b5b5f610c6c86828701610a2f565b9350506020610c7d86828701610c34565b9250506040610c8e86828701610c34565b9150509250925092565b5f67ffffffffffffffff821115610cb257610cb16108a5565b5b602082029050919050565b5f610ccf610cca84610c98565b610903565b90508060208402830185811115610ce957610ce8610b33565b5b835b81811015610d125780610cfe8882610c34565b845260208401935050602081019050610ceb565b5050509392505050565b5f82601f830112610d3057610d2f61088d565b5b6002610d3d848285610cbd565b91505092915050565b5f60408284031215610d5b57610d5a610885565b5b5f610d6884828501610d1c565b91505092915050565b610d7a81610a10565b82525050565b5f602082019050610d935f830184610d71565b92915050565b5f67ffffffffffffffff821115610db357610db26108a5565b5b602082029050602081019050919050565b5f610dd6610dd184610d99565b610903565b90508083825260208201905060408402830185811115610df957610df8610b33565b5b835b81811015610e225780610e0e8882610d1c565b845260208401935050604081019050610dfb565b5050509392505050565b5f82601f830112610e4057610e3f61088d565b5b8135610e50848260208601610dc4565b91505092915050565b5f60208284031215610e6e57610e6d610885565b5b5f82013567ffffffffffffffff811115610e8b57610e8a610889565b5b610e9784828501610e2c565b91505092915050565b7f4e487b71000000000000000000000000000000000000000000000000000000005f52602260045260245ffd5b5f6002820490506001821680610ee457607f821691505b602082108103610ef757610ef6610ea0565b5b50919050565b5f819050815f5260205f209050919050565b5f6020601f8301049050919050565b5f82821b905092915050565b5f60088302610f597fffffffffffffffffffffffffffffffffffffffffffffffffffffffffffffffff82610f1e565b610f638683610f1e565b95508019841693508086168417925050509392505050565b5f819050919050565b5f610f9e610f99610f9484610a10565b610f7b565b610a10565b9050919050565b5f819050919050565b610fb783610f84565b610fcb610fc382610fa5565b848454610f2a565b825550505050565b5f90565b610fdf610fd3565b610fea818484610fae565b505050565b5b8181101561100d576110025f82610fd7565b600181019050610ff0565b5050565b601f8211156110525761102381610efd565b61102c84610f0f565b8101602085101561103b578190505b61104f61104785610f0f565b830182610fef565b50505b505050565b5f82821c905092915050565b5f6110725f1984600802611057565b1980831691505092915050565b5f61108a8383611063565b9150826002028217905092915050565b6110a382610a6e565b67ffffffffffffffff8111156110bc576110bb6108a5565b5b6110c68254610ecd565b6110d1828285611011565b5f60209050601f831160018114611102575f84156110f0578287015190505b6110fa858261107f565b865550611161565b601f19841661111086610efd565b5f5b8281101561113757848901518255600182019150602085019450602081019050611112565b868310156111545784890151611150601f891682611063565b8355505b6001600288020188555050505b505050505050565b7f4e487b71000000000000000000000000000000000000000000000000000000005f52601160045260245ffd5b5f6111a082610a10565b91507fffffffffffffffffffffffffffffffffffffffffffffffffffffffffffffffff82036111d2576111d1611169565b5b600182019050919050565b7f4e487b71000000000000000000000000000000000000000000000000000000005f52603260045260245ffd5b7f4e487b71000000000000000000000000000000000000000000000000000000005f52603160045260245ffdfea2646970667358221220d6e4e183bd4a5f28398d8f4f80a9811990e5ac33880f5c00b91f8cd4cd30d4d364736f6c63430008150033",
			"opcodes": "PUSH1 0x80 PUSH1 0x40 MSTORE CALLVALUE DUP1 ISZERO PUSH2 0xF JUMPI PUSH0 DUP1 REVERT JUMPDEST POP PUSH2 0x126D DUP1 PUSH2 0x1D PUSH0 CODECOPY PUSH0 RETURN INVALID PUSH1 0x80 PUSH1 0x40 MSTORE CALLVALUE DUP1 ISZERO PUSH2 0xF JUMPI PUSH0 DUP1 REVERT JUMPDEST POP PUSH1 0x4 CALLDATASIZE LT PUSH2 0x86 JUMPI PUSH0 CALLDATALOAD PUSH1 0xE0 SHR DUP1 PUSH4 0x7D7E5E3D GT PUSH2 0x59 JUMPI DUP1 PUSH4 0x7D7E5E3D EQ PUSH2 0xFC JUMPI DUP1 PUSH4 0xB9CCE72C EQ PUSH2 0x118 JUMPI DUP1 PUSH4 0xDEFF71B8 EQ PUSH2 0x148 JUMPI DUP1 PUSH4 0xF5933F66 EQ PUSH2 0x164 JUMPI PUSH2 0x86 JUMP JUMPDEST DUP1 PUSH4 0x31A56110 EQ PUSH2 0x8A JUMPI DUP1 PUSH4 0x52EFEA6E EQ PUSH2 0xA6 JUMPI DUP1 PUSH4 0x6D236703 EQ PUSH2 0xB0 JUMPI DUP1 PUSH4 0x7BC5BBBF EQ PUSH2 0xE0 JUMPI JUMPDEST PUSH0 DUP1 REVERT JUMPDEST PUSH2 0xA4 PUSH1 0x4 DUP1 CALLDATASIZE SUB DUP2 ADD SWAP1 PUSH2 0x9F SWAP2 SWAP1 PUSH2 0x9C9 JUMP JUMPDEST PUSH2 0x180 JUMP JUMPDEST STOP JUMPDEST PUSH2 0xAE PUSH2 0x2DE JUMP JUMPDEST STOP JUMPDEST PUSH2 0xCA PUSH1 0x4 DUP1 CALLDATASIZE SUB DUP2 ADD SWAP1 PUSH2 0xC5 SWAP2 SWAP1 PUSH2 0xA43 JUMP JUMPDEST PUSH2 0x367 JUMP JUMPDEST PUSH1 0x40 MLOAD PUSH2 0xD7 SWAP2 SWAP1 PUSH2 0xAE8 JUMP JUMPDEST PUSH1 0x40 MLOAD DUP1 SWAP2 SUB SWAP1 RETURN JUMPDEST PUSH2 0xFA PUSH1 0x4 DUP1 CALLDATASIZE SUB DUP2 ADD SWAP1 PUSH2 0xF5 SWAP2 SWAP1 PUSH2 0xBCC JUMP JUMPDEST PUSH2 0x4B4 JUMP JUMPDEST STOP JUMPDEST PUSH2 0x116 PUSH1 0x4 DUP1 CALLDATASIZE SUB DUP2 ADD SWAP1 PUSH2 0x111 SWAP2 SWAP1 PUSH2 0xC48 JUMP JUMPDEST PUSH2 0x4E1 JUMP JUMPDEST STOP JUMPDEST PUSH2 0x132 PUSH1 0x4 DUP1 CALLDATASIZE SUB DUP2 ADD SWAP1 PUSH2 0x12D SWAP2 SWAP1 PUSH2 0xD46 JUMP JUMPDEST PUSH2 0x587 JUMP JUMPDEST PUSH1 0x40 MLOAD PUSH2 0x13F SWAP2 SWAP1 PUSH2 0xD80 JUMP JUMPDEST PUSH1 0x40 MLOAD DUP1 SWAP2 SUB SWAP1 RETURN JUMPDEST PUSH2 0x162 PUSH1 0x4 DUP1 CALLDATASIZE SUB DUP2 ADD SWAP1 PUSH2 0x15D SWAP2 SWAP1 PUSH2 0xE59 JUMP JUMPDEST PUSH2 0x5CD JUMP JUMPDEST STOP JUMPDEST PUSH2 0x17E PUSH1 0x4 DUP1 CALLDATASIZE SUB DUP2 ADD SWAP1 PUSH2 0x179 SWAP2 SWAP1 PUSH2 0xA43 JUMP JUMPDEST PUSH2 0x5E9 JUMP JUMPDEST STOP JUMPDEST DUP1 PUSH3 0x100003 SWAP1 DUP2 PUSH2 0x191 SWAP2 SWAP1 PUSH2 0x109A JUMP JUMPDEST POP PUSH0 JUMPDEST PUSH1 0x7 DUP2 LT ISZERO PUSH2 0x212 JUMPI PUSH3 0x100003 PUSH1 0x1 DUP2 DUP1 SLOAD DUP1 PUSH2 0x1B0 SWAP1 PUSH2 0xECD JUMP JUMPDEST DUP1 PUSH1 0x1F DUP2 SUB PUSH2 0x1CD JUMPI DUP4 PUSH0 MSTORE PUSH1 0x20 PUSH0 KECCAK256 PUSH1 0xFF NOT DUP5 AND DUP2 SSTORE PUSH1 0x3F SWAP4 POP POP JUMPDEST POP PUSH1 0x2 DUP3 ADD DUP4 SSTORE PUSH1 0x1 DUP2 ADD SWAP3 POP POP POP SUB DUP2 SLOAD PUSH1 0x1 AND ISZERO PUSH2 0x1FA JUMPI SWAP1 PUSH0 MSTORE PUSH1 0x20 PUSH0 KECCAK256 SWAP1 PUSH1 0x20 SWAP2 DUP3 DUP3 DIV ADD SWAP2 SWAP1 MOD JUMPDEST SWAP1 SLOAD SWAP1 POP POP DUP1 DUP1 PUSH2 0x20A SWAP1 PUSH2 0x1196 JUMP JUMPDEST SWAP2 POP POP PUSH2 0x194 JUMP JUMPDEST POP PUSH1 0x8 PUSH1 0xF8 SHL PUSH3 0x100003 PUSH1 0x3 DUP2 SLOAD PUSH2 0x229 SWAP1 PUSH2 0xECD JUMP JUMPDEST DUP2 LT PUSH2 0x238 JUMPI PUSH2 0x237 PUSH2 0x11DD JUMP JUMPDEST JUMPDEST DUP2 SLOAD PUSH1 0x1 AND ISZERO PUSH2 0x255 JUMPI SWAP1 PUSH0 MSTORE PUSH1 0x20 PUSH0 KECCAK256 SWAP1 PUSH1 0x20 SWAP2 DUP3 DUP3 DIV ADD SWAP2 SWAP1 MOD JUMPDEST PUSH1 0x1F SUB PUSH2 0x100 EXP DUP2 SLOAD DUP2 PUSH1 0xFF MUL NOT AND SWAP1 PUSH32 0x100000000000000000000000000000000000000000000000000000000000000 DUP5 DIV MUL OR SWAP1 SSTORE POP PUSH3 0x100003 PUSH1 0x2 DUP2 SLOAD PUSH2 0x29E SWAP1 PUSH2 0xECD JUMP JUMPDEST DUP2 LT PUSH2 0x2AD JUMPI PUSH2 0x2AC PUSH2 0x11DD JUMP JUMPDEST JUMPDEST DUP2 SLOAD PUSH1 0x1 AND ISZERO PUSH2 0x2CA JUMPI SWAP1 PUSH0 MSTORE PUSH1 0x20 PUSH0 KECCAK256 SWAP1 PUSH1 0x20 SWAP2 DUP3 DUP3 DIV ADD SWAP2 SWAP1 MOD JUMPDEST PUSH1 0x1F SUB PUSH2 0x100 EXP DUP2 SLOAD SWAP1 PUSH1 0xFF MUL NOT AND SWAP1 SSTORE POP JUMP JUMPDEST PUSH3 0x100000 PUSH0 PUSH2 0x2ED SWAP2 SWAP1 PUSH2 0x687 JUMP JUMPDEST PUSH0 DUP1 PUSH2 0x2F9 SWAP2 SWAP1 PUSH2 0x6A5 JUMP JUMPDEST PUSH0 PUSH8 0xFFFFFFFFFFFFFFFF DUP2 GT ISZERO PUSH2 0x313 JUMPI PUSH2 0x312 PUSH2 0x8A5 JUMP JUMPDEST JUMPDEST PUSH1 0x40 MLOAD SWAP1 DUP1 DUP3 MSTORE DUP1 PUSH1 0x20 MUL PUSH1 0x20 ADD DUP3 ADD PUSH1 0x40 MSTORE DUP1 ISZERO PUSH2 0x34C JUMPI DUP2 PUSH1 0x20 ADD JUMPDEST PUSH2 0x339 PUSH2 0x6BA JUMP JUMPDEST DUP2 MSTORE PUSH1 0x20 ADD SWAP1 PUSH1 0x1 SWAP1 SUB SWAP1 DUP2 PUSH2 0x331 JUMPI SWAP1 POP JUMPDEST POP PUSH3 0x100000 SWAP1 DUP1 MLOAD SWAP1 PUSH1 0x20 ADD SWAP1 PUSH2 0x364 SWAP3 SWAP2 SWAP1 PUSH2 0x6DC JUMP JUMPDEST POP JUMP JUMPDEST PUSH1 0x60 PUSH0 DUP3 PUSH8 0xFFFFFFFFFFFFFFFF DUP2 GT ISZERO PUSH2 0x384 JUMPI PUSH2 0x383 PUSH2 0x8A5 JUMP JUMPDEST JUMPDEST PUSH1 0x40 MLOAD SWAP1 DUP1 DUP3 MSTORE DUP1 PUSH1 0x20 MUL PUSH1 0x20 ADD DUP3 ADD PUSH1 0x40 MSTORE DUP1 ISZERO PUSH2 0x3BD JUMPI DUP2 PUSH1 0x20 ADD JUMPDEST PUSH2 0x3AA PUSH2 0x735 JUMP JUMPDEST DUP2 MSTORE PUSH1 0x20 ADD SWAP1 PUSH1 0x1 SWAP1 SUB SWAP1 DUP2 PUSH2 0x3A2 JUMPI SWAP1 POP JUMPDEST POP SWAP1 POP PUSH1 0x40 MLOAD DUP1 PUSH1 0x40 ADD PUSH1 0x40 MSTORE DUP1 PUSH1 0x1 DUP2 MSTORE PUSH1 0x20 ADD PUSH1 0x2 DUP2 MSTORE POP DUP2 PUSH0 DUP2 MLOAD DUP2 LT PUSH2 0x3EA JUMPI PUSH2 0x3E9 PUSH2 0x11DD JUMP JUMPDEST JUMPDEST PUSH1 0x20 MUL PUSH1 0x20 ADD ADD DUP2 SWAP1 MSTORE POP PUSH0 PUSH1 0xC8 PUSH8 0xFFFFFFFFFFFFFFFF DUP2 GT ISZERO PUSH2 0x411 JUMPI PUSH2 0x410 PUSH2 0x8A5 JUMP JUMPDEST JUMPDEST PUSH1 0x40 MLOAD SWAP1 DUP1 DUP3 MSTORE DUP1 PUSH1 0x1F ADD PUSH1 0x1F NOT AND PUSH1 0x20 ADD DUP3 ADD PUSH1 0x40 MSTORE DUP1 ISZERO PUSH2 0x443 JUMPI DUP2 PUSH1 0x20 ADD PUSH1 0x1 DUP3 MUL DUP1 CALLDATASIZE DUP4 CALLDATACOPY DUP1 DUP3 ADD SWAP2 POP POP SWAP1 POP JUMPDEST POP SWAP1 POP PUSH0 JUMPDEST DUP2 MLOAD DUP2 LT ISZERO PUSH2 0x4A9 JUMPI DUP1 PUSH1 0xF8 SHL DUP3 DUP3 DUP2 MLOAD DUP2 LT PUSH2 0x468 JUMPI PUSH2 0x467 PUSH2 0x11DD JUMP JUMPDEST JUMPDEST PUSH1 0x20 ADD ADD SWAP1 PUSH31 0xFFFFFFFFFFFFFFFFFFFFFFFFFFFFFFFFFFFFFFFFFFFFFFFFFFFFFFFFFFFFFF NOT AND SWAP1 DUP2 PUSH0 BYTE SWAP1 MSTORE8 POP DUP1 DUP1 PUSH2 0x4A1 SWAP1 PUSH2 0x1196 JUMP JUMPDEST SWAP2 POP POP PUSH2 0x448 JUMP JUMPDEST POP DUP1 SWAP3 POP POP POP SWAP2 SWAP1 POP JUMP JUMPDEST PUSH0 PUSH3 0x100001 SWAP1 POP PUSH1 0x2 DUP2 PUSH1 0x1 ADD DUP2 SWAP1 SSTORE POP DUP2 DUP2 PUSH0 ADD SWAP1 DUP1 MLOAD SWAP1 PUSH1 0x20 ADD SWAP1 PUSH2 0x4DC SWAP3 SWAP2 SWAP1 PUSH2 0x757 JUMP JUMPDEST POP POP POP JUMP JUMPDEST DUP2 PUSH3 0x100000 DUP5 DUP2 SLOAD DUP2 LT PUSH2 0x4F8 JUMPI PUSH2 0x4F7 PUSH2 0x11DD JUMP JUMPDEST JUMPDEST SWAP1 PUSH0 MSTORE PUSH1 0x20 PUSH0 KECCAK256 ADD PUSH0 PUSH1 0x2 DUP2 LT PUSH2 0x512 JUMPI PUSH2 0x511 PUSH2 0x11DD JUMP JUMPDEST JUMPDEST PUSH1 0x20 SWAP2 DUP3 DUP3 DIV ADD SWAP2 SWAP1 MOD PUSH2 0x100 EXP DUP2 SLOAD DUP2 PUSH1 0xFF MUL NOT AND SWAP1 DUP4 ISZERO ISZERO MUL OR SWAP1 SSTORE POP DUP1 PUSH3 0x100000 DUP5 DUP2 SLOAD DUP2 LT PUSH2 0x548 JUMPI PUSH2 0x547 PUSH2 0x11DD JUMP JUMPDEST JUMPDEST SWAP1 PUSH0 MSTORE PUSH1 0x20 PUSH0 KECCAK256 ADD PUSH1 0x1 PUSH1 0x2 DUP2 LT PUSH2 0x563 JUMPI PUSH2 0x562 PUSH2 0x11DD JUMP JUMPDEST JUMPDEST PUSH1 0x20 SWAP2 DUP3 DUP3 DIV ADD SWAP2 SWAP1 MOD PUSH2 0x100 EXP DUP2 SLOAD DUP2 PUSH1 0xFF MUL NOT AND SWAP1 DUP4 ISZERO ISZERO MUL OR SWAP1 SSTORE POP POP POP POP JUMP JUMPDEST PUSH0 PUSH3 0x100000 DUP3 SWAP1 DUP1 PUSH1 0x1 DUP2 SLOAD ADD DUP1 DUP3 SSTORE DUP1 SWAP2 POP POP PUSH1 0x1 SWAP1 SUB SWAP1 PUSH0 MSTORE PUSH1 0x20 PUSH0 KECCAK256 ADD PUSH0 SWAP1 SWAP2 SWAP1 SWAP2 SWAP1 SWAP2 POP SWAP1 PUSH1 0x2 PUSH2 0x5BD SWAP3 SWAP2 SWAP1 PUSH2 0x7A2 JUMP JUMPDEST POP PUSH3 0x100000 DUP1 SLOAD SWAP1 POP SWAP1 POP SWAP2 SWAP1 POP JUMP JUMPDEST DUP1 PUSH3 0x100000 SWAP1 DUP1 MLOAD SWAP1 PUSH1 0x20 ADD SWAP1 PUSH2 0x5E5 SWAP3 SWAP2 SWAP1 PUSH2 0x6DC JUMP JUMPDEST POP POP JUMP JUMPDEST PUSH3 0x100000 DUP1 SLOAD SWAP1 POP DUP2 LT ISZERO PUSH2 0x641 JUMPI JUMPDEST DUP1 PUSH3 0x100000 DUP1 SLOAD SWAP1 POP GT ISZERO PUSH2 0x63C JUMPI PUSH3 0x100000 DUP1 SLOAD DUP1 PUSH2 0x61C JUMPI PUSH2 0x61B PUSH2 0x120A JUMP JUMPDEST JUMPDEST PUSH1 0x1 SWAP1 SUB DUP2 DUP2 SWAP1 PUSH0 MSTORE PUSH1 0x20 PUSH0 KECCAK256 ADD PUSH0 PUSH2 0x635 SWAP2 SWAP1 PUSH2 0x838 JUMP JUMPDEST SWAP1 SSTORE PUSH2 0x5F9 JUMP JUMPDEST PUSH2 0x684 JUMP JUMPDEST PUSH3 0x100000 DUP1 SLOAD SWAP1 POP DUP2 GT ISZERO PUSH2 0x683 JUMPI JUMPDEST DUP1 PUSH3 0x100000 DUP1 SLOAD SWAP1 POP LT ISZERO PUSH2 0x682 JUMPI PUSH3 0x100000 PUSH1 0x1 DUP2 PUSH1 0x1 DUP2 SLOAD ADD DUP1 DUP3 SSTORE DUP1 SWAP2 POP POP SUB SWAP1 PUSH0 MSTORE PUSH1 0x20 PUSH0 KECCAK256 POP POP PUSH2 0x651 JUMP JUMPDEST JUMPDEST JUMPDEST POP JUMP JUMPDEST POP DUP1 SLOAD PUSH0 DUP3 SSTORE SWAP1 PUSH0 MSTORE PUSH1 0x20 PUSH0 KECCAK256 SWAP1 DUP2 ADD SWAP1 PUSH2 0x6A2 SWAP2 SWAP1 PUSH2 0x83E JUMP JUMPDEST POP JUMP JUMPDEST POP DUP1 PUSH3 0x100000 ADD SWAP1 PUSH2 0x6B7 SWAP2 SWAP1 PUSH2 0x861 JUMP JUMPDEST POP JUMP JUMPDEST PUSH1 0x40 MLOAD DUP1 PUSH1 0x40 ADD PUSH1 0x40 MSTORE DUP1 PUSH1 0x2 SWAP1 PUSH1 0x20 DUP3 MUL DUP1 CALLDATASIZE DUP4 CALLDATACOPY DUP1 DUP3 ADD SWAP2 POP POP SWAP1 POP POP SWAP1 JUMP JUMPDEST DUP3 DUP1 SLOAD DUP3 DUP3 SSTORE SWAP1 PUSH0 MSTORE PUSH1 0x20 PUSH0 KECCAK256 SWAP1 DUP2 ADD SWAP3 DUP3 ISZERO PUSH2 0x724 JUMPI SWAP2 PUSH1 0x20 MUL DUP3 ADD JUMPDEST DUP3 DUP2 GT ISZERO PUSH2 0x723 JUMPI DUP3 MLOAD DUP3 SWAP1 PUSH1 0x2 PUSH2 0x713 SWAP3 SWAP2 SWAP1 PUSH2 0x7A2 JUMP JUMPDEST POP SWAP2 PUSH1 0x20 ADD SWAP2 SWAP1 PUSH1 0x1 ADD SWAP1 PUSH2 0x6FA JUMP JUMPDEST JUMPDEST POP SWAP1 POP PUSH2 0x731 SWAP2 SWAP1 PUSH2 0x83E JUMP JUMPDEST POP SWAP1 JUMP JUMPDEST PUSH1 0x40 MLOAD DUP1 PUSH1 0x40 ADD PUSH1 0x40 MSTORE DUP1 PUSH1 0x2 SWAP1 PUSH1 0x20 DUP3 MUL DUP1 CALLDATASIZE DUP4 CALLDATACOPY DUP1 DUP3 ADD SWAP2 POP POP SWAP1 POP POP SWAP1 JUMP JUMPDEST DUP3 DUP1 SLOAD DUP3 DUP3 SSTORE SWAP1 PUSH0 MSTORE PUSH1 0x20 PUSH0 KECCAK256 SWAP1 DUP2 ADD SWAP3 DUP3 ISZERO PUSH2 0x791 JUMPI SWAP2 PUSH1 0x20 MUL DUP3 ADD JUMPDEST DUP3 DUP2 GT ISZERO PUSH2 0x790 JUMPI DUP3 MLOAD DUP3 SSTORE SWAP2 PUSH1 0x20 ADD SWAP2 SWAP1 PUSH1 0x1 ADD SWAP1 PUSH2 0x775 JUMP JUMPDEST JUMPDEST POP SWAP1 POP PUSH2 0x79E SWAP2 SWAP1 PUSH2 0x861 JUMP JUMPDEST POP SWAP1 JUMP JUMPDEST DUP3 PUSH1 0x2 PUSH1 0x1F ADD PUSH1 0x20 SWAP1 DIV DUP2 ADD SWAP3 DUP3 ISZERO PUSH2 0x827 JUMPI SWAP2 PUSH1 0x20 MUL DUP3 ADD PUSH0 JUMPDEST DUP4 DUP3 GT ISZERO PUSH2 0x7F9 JUMPI DUP4 MLOAD DUP4 DUP3 PUSH2 0x100 EXP DUP2 SLOAD DUP2 PUSH1 0xFF MUL NOT AND SWAP1 DUP4 ISZERO ISZERO MUL OR SWAP1 SSTORE POP SWAP3 PUSH1 0x20 ADD SWAP3 PUSH1 0x1 ADD PUSH1 0x20 DUP2 PUSH0 ADD DIV SWAP3 DUP4 ADD SWAP3 PUSH1 0x1 SUB MUL PUSH2 0x7BD JUMP JUMPDEST DUP1 ISZERO PUSH2 0x825 JUMPI DUP3 DUP2 PUSH2 0x100 EXP DUP2 SLOAD SWAP1 PUSH1 0xFF MUL NOT AND SWAP1 SSTORE PUSH1 0x1 ADD PUSH1 0x20 DUP2 PUSH0 ADD DIV SWAP3 DUP4 ADD SWAP3 PUSH1 0x1 SUB MUL PUSH2 0x7F9 JUMP JUMPDEST POP JUMPDEST POP SWAP1 POP PUSH2 0x834 SWAP2 SWAP1 PUSH2 0x861 JUMP JUMPDEST POP SWAP1 JUMP JUMPDEST POP PUSH0 SWAP1 SSTORE JUMP JUMPDEST JUMPDEST DUP1 DUP3 GT ISZERO PUSH2 0x85D JUMPI PUSH0 DUP2 DUP2 PUSH2 0x854 SWAP2 SWAP1 PUSH2 0x838 JUMP JUMPDEST POP PUSH1 0x1 ADD PUSH2 0x83F JUMP JUMPDEST POP SWAP1 JUMP JUMPDEST JUMPDEST DUP1 DUP3 GT ISZERO PUSH2 0x878 JUMPI PUSH0 DUP2 PUSH0 SWAP1 SSTORE POP PUSH1 0x1 ADD PUSH2 0x862 JUMP JUMPDEST POP SWAP1 JUMP JUMPDEST PUSH0 PUSH1 0x40 MLOAD SWAP1 POP SWAP1 JUMP JUMPDEST PUSH0 DUP1 REVERT JUMPDEST PUSH0 DUP1 REVERT JUMPDEST PUSH0 DUP1 REVERT JUMPDEST PUSH0 DUP1 REVERT JUMPDEST PUSH0 PUSH1 0x1F NOT PUSH1 0x1F DUP4 ADD AND SWAP1 POP SWAP2 SWAP1 POP JUMP JUMPDEST PUSH32 0x4E487B7100000000000000000000000000000000000000000000000000000000 PUSH0 MSTORE PUSH1 0x41 PUSH1 0x4 MSTORE PUSH1 0x24 PUSH0 REVERT JUMPDEST PUSH2 0x8DB DUP3 PUSH2 0x895 JUMP JUMPDEST DUP2 ADD DUP2 DUP2 LT PUSH8 0xFFFFFFFFFFFFFFFF DUP3 GT OR ISZERO PUSH2 0x8FA JUMPI PUSH2 0x8F9 PUSH2 0x8A5 JUMP JUMPDEST JUMPDEST DUP1 PUSH1 0x40 MSTORE POP POP POP JUMP JUMPDEST PUSH0 PUSH2 0x90C PUSH2 0x87C JUMP JUMPDEST SWAP1 POP PUSH2 0x918 DUP3 DUP3 PUSH2 0x8D2 JUMP JUMPDEST SWAP2 SWAP1 POP JUMP JUMPDEST PUSH0 PUSH8 0xFFFFFFFFFFFFFFFF DUP3 GT ISZERO PUSH2 0x937 JUMPI PUSH2 0x936 PUSH2 0x8A5 JUMP JUMPDEST JUMPDEST PUSH2 0x940 DUP3 PUSH2 0x895 JUMP JUMPDEST SWAP1 POP PUSH1 0x20 DUP2 ADD SWAP1 POP SWAP2 SWAP1 POP JUMP JUMPDEST DUP3 DUP2 DUP4 CALLDATACOPY PUSH0 DUP4 DUP4 ADD MSTORE POP POP POP JUMP JUMPDEST PUSH0 PUSH2 0x96D PUSH2 0x968 DUP5 PUSH2 0x91D JUMP JUMPDEST PUSH2 0x903 JUMP JUMPDEST SWAP1 POP DUP3 DUP2 MSTORE PUSH1 0x20 DUP2 ADD DUP5 DUP5 DUP5 ADD GT ISZERO PUSH2 0x989 JUMPI PUSH2 0x988 PUSH2 0x891 JUMP JUMPDEST JUMPDEST PUSH2 0x994 DUP5 DUP3 DUP6 PUSH2 0x94D JUMP JUMPDEST POP SWAP4 SWAP3 POP POP POP JUMP JUMPDEST PUSH0 DUP3 PUSH1 0x1F DUP4 ADD SLT PUSH2 0x9B0 JUMPI PUSH2 0x9AF PUSH2 0x88D JUMP JUMPDEST JUMPDEST DUP2 CALLDATALOAD PUSH2 0x9C0 DUP5 DUP3 PUSH1 0x20 DUP7 ADD PUSH2 0x95B JUMP JUMPDEST SWAP2 POP POP SWAP3 SWAP2 POP POP JUMP JUMPDEST PUSH0 PUSH1 0x20 DUP3 DUP5 SUB SLT ISZERO PUSH2 0x9DE JUMPI PUSH2 0x9DD PUSH2 0x885 JUMP JUMPDEST JUMPDEST PUSH0 DUP3 ADD CALLDATALOAD PUSH8 0xFFFFFFFFFFFFFFFF DUP2 GT ISZERO PUSH2 0x9FB JUMPI PUSH2 0x9FA PUSH2 0x889 JUMP JUMPDEST JUMPDEST PUSH2 0xA07 DUP5 DUP3 DUP6 ADD PUSH2 0x99C JUMP JUMPDEST SWAP2 POP POP SWAP3 SWAP2 POP POP JUMP JUMPDEST PUSH0 DUP2 SWAP1 POP SWAP2 SWAP1 POP JUMP JUMPDEST PUSH2 0xA22 DUP2 PUSH2 0xA10 JUMP JUMPDEST DUP2 EQ PUSH2 0xA2C JUMPI PUSH0 DUP1 REVERT JUMPDEST POP JUMP JUMPDEST PUSH0 DUP2 CALLDATALOAD SWAP1 POP PUSH2 0xA3D DUP2 PUSH2 0xA19 JUMP JUMPDEST SWAP3 SWAP2 POP POP JUMP JUMPDEST PUSH0 PUSH1 0x20 DUP3 DUP5 SUB SLT ISZERO PUSH2 0xA58 JUMPI PUSH2 0xA57 PUSH2 0x885 JUMP JUMPDEST JUMPDEST PUSH0 PUSH2 0xA65 DUP5 DUP3 DUP6 ADD PUSH2 0xA2F JUMP JUMPDEST SWAP2 POP POP SWAP3 SWAP2 POP POP JUMP JUMPDEST PUSH0 DUP2 MLOAD SWAP1 POP SWAP2 SWAP1 POP JUMP JUMPDEST PUSH0 DUP3 DUP3 MSTORE PUSH1 0x20 DUP3 ADD SWAP1 POP SWAP3 SWAP2 POP POP JUMP JUMPDEST PUSH0 JUMPDEST DUP4 DUP2 LT ISZERO PUSH2 0xAA5 JUMPI DUP1 DUP3 ADD MLOAD DUP2 DUP5 ADD MSTORE PUSH1 0x20 DUP2 ADD SWAP1 POP PUSH2 0xA8A JUMP JUMPDEST PUSH0 DUP5 DUP5 ADD MSTORE POP POP POP POP JUMP JUMPDEST PUSH0 PUSH2 0xABA DUP3 PUSH2 0xA6E JUMP JUMPDEST PUSH2 0xAC4 DUP2 DUP6 PUSH2 0xA78 JUMP JUMPDEST SWAP4 POP PUSH2 0xAD4 DUP2 DUP6 PUSH1 0x20 DUP7 ADD PUSH2 0xA88 JUMP JUMPDEST PUSH2 0xADD DUP2 PUSH2 0x895 JUMP JUMPDEST DUP5 ADD SWAP2 POP POP SWAP3 SWAP2 POP POP JUMP JUMPDEST PUSH0 PUSH1 0x20 DUP3 ADD SWAP1 POP DUP2 DUP2 SUB PUSH0 DUP4 ADD MSTORE PUSH2 0xB00 DUP2 DUP5 PUSH2 0xAB0 JUMP JUMPDEST SWAP1 POP SWAP3 SWAP2 POP POP JUMP JUMPDEST PUSH0 PUSH8 0xFFFFFFFFFFFFFFFF DUP3 GT ISZERO PUSH2 0xB22 JUMPI PUSH2 0xB21 PUSH2 0x8A5 JUMP JUMPDEST JUMPDEST PUSH1 0x20 DUP3 MUL SWAP1 POP PUSH1 0x20 DUP2 ADD SWAP1 POP SWAP2 SWAP1 POP JUMP JUMPDEST PUSH0 DUP1 REVERT JUMPDEST PUSH0 PUSH2 0xB49 PUSH2 0xB44 DUP5 PUSH2 0xB08 JUMP JUMPDEST PUSH2 0x903 JUMP JUMPDEST SWAP1 POP DUP1 DUP4 DUP3 MSTORE PUSH1 0x20 DUP3 ADD SWAP1 POP PUSH1 0x20 DUP5 MUL DUP4 ADD DUP6 DUP2 GT ISZERO PUSH2 0xB6C JUMPI PUSH2 0xB6B PUSH2 0xB33 JUMP JUMPDEST JUMPDEST DUP4 JUMPDEST DUP2 DUP2 LT ISZERO PUSH2 0xB95 JUMPI DUP1 PUSH2 0xB81 DUP9 DUP3 PUSH2 0xA2F JUMP JUMPDEST DUP5 MSTORE PUSH1 0x20 DUP5 ADD SWAP4 POP POP PUSH1 0x20 DUP2 ADD SWAP1 POP PUSH2 0xB6E JUMP JUMPDEST POP POP POP SWAP4 SWAP3 POP POP POP JUMP JUMPDEST PUSH0 DUP3 PUSH1 0x1F DUP4 ADD SLT PUSH2 0xBB3 JUMPI PUSH2 0xBB2 PUSH2 0x88D JUMP JUMPDEST JUMPDEST DUP2 CALLDATALOAD PUSH2 0xBC3 DUP5 DUP3 PUSH1 0x20 DUP7 ADD PUSH2 0xB37 JUMP JUMPDEST SWAP2 POP POP SWAP3 SWAP2 POP POP JUMP JUMPDEST PUSH0 PUSH1 0x20 DUP3 DUP5 SUB SLT ISZERO PUSH2 0xBE1 JUMPI PUSH2 0xBE0 PUSH2 0x885 JUMP JUMPDEST JUMPDEST PUSH0 DUP3 ADD CALLDATALOAD PUSH8 0xFFFFFFFFFFFFFFFF DUP2 GT ISZERO PUSH2 0xBFE JUMPI PUSH2 0xBFD PUSH2 0x889 JUMP JUMPDEST JUMPDEST PUSH2 0xC0A DUP5 DUP3 DUP6 ADD PUSH2 0xB9F JUMP JUMPDEST SWAP2 POP POP SWAP3 SWAP2 POP POP JUMP JUMPDEST PUSH0 DUP2 ISZERO ISZERO SWAP1 POP SWAP2 SWAP1 POP JUMP JUMPDEST PUSH2 0xC27 DUP2 PUSH2 0xC13 JUMP JUMPDEST DUP2 EQ PUSH2 0xC31 JUMPI PUSH0 DUP1 REVERT JUMPDEST POP JUMP JUMPDEST PUSH0 DUP2 CALLDATALOAD SWAP1 POP PUSH2 0xC42 DUP2 PUSH2 0xC1E JUMP JUMPDEST SWAP3 SWAP2 POP POP JUMP JUMPDEST PUSH0 DUP1 PUSH0 PUSH1 0x60 DUP5 DUP7 SUB SLT ISZERO PUSH2 0xC5F JUMPI PUSH2 0xC5E PUSH2 0x885 JUMP JUMPDEST JUMPDEST PUSH0 PUSH2 0xC6C DUP7 DUP3 DUP8 ADD PUSH2 0xA2F JUMP JUMPDEST SWAP4 POP POP PUSH1 0x20 PUSH2 0xC7D DUP7 DUP3 DUP8 ADD PUSH2 0xC34 JUMP JUMPDEST SWAP3 POP POP PUSH1 0x40 PUSH2 0xC8E DUP7 DUP3 DUP8 ADD PUSH2 0xC34 JUMP JUMPDEST SWAP2 POP POP SWAP3 POP SWAP3 POP SWAP3 JUMP JUMPDEST PUSH0 PUSH8 0xFFFFFFFFFFFFFFFF DUP3 GT ISZERO PUSH2 0xCB2 JUMPI PUSH2 0xCB1 PUSH2 0x8A5 JUMP JUMPDEST JUMPDEST PUSH1 0x20 DUP3 MUL SWAP1 POP SWAP2 SWAP1 POP JUMP JUMPDEST PUSH0 PUSH2 0xCCF PUSH2 0xCCA DUP5 PUSH2 0xC98 JUMP JUMPDEST PUSH2 0x903 JUMP JUMPDEST SWAP1 POP DUP1 PUSH1 0x20 DUP5 MUL DUP4 ADD DUP6 DUP2 GT ISZERO PUSH2 0xCE9 JUMPI PUSH2 0xCE8 PUSH2 0xB33 JUMP JUMPDEST JUMPDEST DUP4 JUMPDEST DUP2 DUP2 LT ISZERO PUSH2 0xD12 JUMPI DUP1 PUSH2 0xCFE DUP9 DUP3 PUSH2 0xC34 JUMP JUMPDEST DUP5 MSTORE PUSH1 0x20 DUP5 ADD SWAP4 POP POP PUSH1 0x20 DUP2 ADD SWAP1 POP PUSH2 0xCEB JUMP JUMPDEST POP POP POP SWAP4 SWAP3 POP POP POP JUMP JUMPDEST PUSH0 DUP3 PUSH1 0x1F DUP4 ADD SLT PUSH2 0xD30 JUMPI PUSH2 0xD2F PUSH2 0x88D JUMP JUMPDEST JUMPDEST PUSH1 0x2 PUSH2 0xD3D DUP5 DUP3 DUP6 PUSH2 0xCBD JUMP JUMPDEST SWAP2 POP POP SWAP3 SWAP2 POP POP JUMP JUMPDEST PUSH0 PUSH1 0x40 DUP3 DUP5 SUB SLT ISZERO PUSH2 0xD5B JUMPI PUSH2 0xD5A PUSH2 0x885 JUMP JUMPDEST JUMPDEST PUSH0 PUSH2 0xD68 DUP5 DUP3 DUP6 ADD PUSH2 0xD1C JUMP JUMPDEST SWAP2 POP POP SWAP3 SWAP2 POP POP JUMP JUMPDEST PUSH2 0xD7A DUP2 PUSH2 0xA10 JUMP JUMPDEST DUP3 MSTORE POP POP JUMP JUMPDEST PUSH0 PUSH1 0x20 DUP3 ADD SWAP1 POP PUSH2 0xD93 PUSH0 DUP4 ADD DUP5 PUSH2 0xD71 JUMP JUMPDEST SWAP3 SWAP2 POP POP JUMP JUMPDEST PUSH0 PUSH8 0xFFFFFFFFFFFFFFFF DUP3 GT ISZERO PUSH2 0xDB3 JUMPI PUSH2 0xDB2 PUSH2 0x8A5 JUMP JUMPDEST JUMPDEST PUSH1 0x20 DUP3 MUL SWAP1 POP PUSH1 0x20 DUP2 ADD SWAP1 POP SWAP2 SWAP1 POP JUMP JUMPDEST PUSH0 PUSH2 0xDD6 PUSH2 0xDD1 DUP5 PUSH2 0xD99 JUMP JUMPDEST PUSH2 0x903 JUMP JUMPDEST SWAP1 POP DUP1 DUP4 DUP3 MSTORE PUSH1 0x20 DUP3 ADD SWAP1 POP PUSH1 0x40 DUP5 MUL DUP4 ADD DUP6 DUP2 GT ISZERO PUSH2 0xDF9 JUMPI PUSH2 0xDF8 PUSH2 0xB33 JUMP JUMPDEST JUMPDEST DUP4 JUMPDEST DUP2 DUP2 LT ISZERO PUSH2 0xE22 JUMPI DUP1 PUSH2 0xE0E DUP9 DUP3 PUSH2 0xD1C JUMP JUMPDEST DUP5 MSTORE PUSH1 0x20 DUP5 ADD SWAP4 POP POP PUSH1 0x40 DUP2 ADD SWAP1 POP PUSH2 0xDFB JUMP JUMPDEST POP POP POP SWAP4 SWAP3 POP POP POP JUMP JUMPDEST PUSH0 DUP3 PUSH1 0x1F DUP4 ADD SLT PUSH2 0xE40 JUMPI PUSH2 0xE3F PUSH2 0x88D JUMP JUMPDEST JUMPDEST DUP2 CALLDATALOAD PUSH2 0xE50 DUP5 DUP3 PUSH1 0x20 DUP7 ADD PUSH2 0xDC4 JUMP JUMPDEST SWAP2 POP POP SWAP3 SWAP2 POP POP JUMP JUMPDEST PUSH0 PUSH1 0x20 DUP3 DUP5 SUB SLT ISZERO PUSH2 0xE6E JUMPI PUSH2 0xE6D PUSH2 0x885 JUMP JUMPDEST JUMPDEST PUSH0 DUP3 ADD CALLDATALOAD PUSH8 0xFFFFFFFFFFFFFFFF DUP2 GT ISZERO PUSH2 0xE8B JUMPI PUSH2 0xE8A PUSH2 0x889 JUMP JUMPDEST JUMPDEST PUSH2 0xE97 DUP5 DUP3 DUP6 ADD PUSH2 0xE2C JUMP JUMPDEST SWAP2 POP POP SWAP3 SWAP2 POP POP JUMP JUMPDEST PUSH32 0x4E487B7100000000000000000000000000000000000000000000000000000000 PUSH0 MSTORE PUSH1 0x22 PUSH1 0x4 MSTORE PUSH1 0x24 PUSH0 REVERT JUMPDEST PUSH0 PUSH1 0x2 DUP3 DIV SWAP1 POP PUSH1 0x1 DUP3 AND DUP1 PUSH2 0xEE4 JUMPI PUSH1 0x7F DUP3 AND SWAP2 POP JUMPDEST PUSH1 0x20 DUP3 LT DUP2 SUB PUSH2 0xEF7 JUMPI PUSH2 0xEF6 PUSH2 0xEA0 JUMP JUMPDEST JUMPDEST POP SWAP2 SWAP1 POP JUMP JUMPDEST PUSH0 DUP2 SWAP1 POP DUP2 PUSH0 MSTORE PUSH1 0x20 PUSH0 KECCAK256 SWAP1 POP SWAP2 SWAP1 POP JUMP JUMPDEST PUSH0 PUSH1 0x20 PUSH1 0x1F DUP4 ADD DIV SWAP1 POP SWAP2 SWAP1 POP JUMP JUMPDEST PUSH0 DUP3 DUP3 SHL SWAP1 POP SWAP3 SWAP2 POP POP JUMP JUMPDEST PUSH0 PUSH1 0x8 DUP4 MUL PUSH2 0xF59 PUSH32 0xFFFFFFFFFFFFFFFFFFFFFFFFFFFFFFFFFFFFFFFFFFFFFFFFFFFFFFFFFFFFFFFF DUP3 PUSH2 0xF1E JUMP JUMPDEST PUSH2 0xF63 DUP7 DUP4 PUSH2 0xF1E JUMP JUMPDEST SWAP6 POP DUP1 NOT DUP5 AND SWAP4 POP DUP1 DUP7 AND DUP5 OR SWAP3 POP POP POP SWAP4 SWAP3 POP POP POP JUMP JUMPDEST PUSH0 DUP2 SWAP1 POP SWAP2 SWAP1 POP JUMP JUMPDEST PUSH0 PUSH2 0xF9E PUSH2 0xF99 PUSH2 0xF94 DUP5 PUSH2 0xA10 JUMP JUMPDEST PUSH2 0xF7B JUMP JUMPDEST PUSH2 0xA10 JUMP JUMPDEST SWAP1 POP SWAP2 SWAP1 POP JUMP JUMPDEST PUSH0 DUP2 SWAP1 POP SWAP2 SWAP1 POP JUMP JUMPDEST PUSH2 0xFB7 DUP4 PUSH2 0xF84 JUMP JUMPDEST PUSH2 0xFCB PUSH2 0xFC3 DUP3 PUSH2 0xFA5 JUMP JUMPDEST DUP5 DUP5 SLOAD PUSH2 0xF2A JUMP JUMPDEST DUP3 SSTORE POP POP POP POP JUMP JUMPDEST PUSH0 SWAP1 JUMP JUMPDEST PUSH2 0xFDF PUSH2 0xFD3 JUMP JUMPDEST PUSH2 0xFEA DUP2 DUP5 DUP5 PUSH2 0xFAE JUMP JUMPDEST POP POP POP JUMP JUMPDEST JUMPDEST DUP2 DUP2 LT ISZERO PUSH2 0x100D JUMPI PUSH2 0x1002 PUSH0 DUP3 PUSH2 0xFD7 JUMP JUMPDEST PUSH1 0x1 DUP2 ADD SWAP1 POP PUSH2 0xFF0 JUMP JUMPDEST POP POP JUMP JUMPDEST PUSH1 0x1F DUP3 GT ISZERO PUSH2 0x1052 JUMPI PUSH2 0x1023 DUP2 PUSH2 0xEFD JUMP JUMPDEST PUSH2 0x102C DUP5 PUSH2 0xF0F JUMP JUMPDEST DUP2 ADD PUSH1 0x20 DUP6 LT ISZERO PUSH2 0x103B JUMPI DUP2 SWAP1 POP JUMPDEST PUSH2 0x104F PUSH2 0x1047 DUP6 PUSH2 0xF0F JUMP JUMPDEST DUP4 ADD DUP3 PUSH2 0xFEF JUMP JUMPDEST POP POP JUMPDEST POP POP POP JUMP JUMPDEST PUSH0 DUP3 DUP3 SHR SWAP1 POP SWAP3 SWAP2 POP POP JUMP JUMPDEST PUSH0 PUSH2 0x1072 PUSH0 NOT DUP5 PUSH1 0x8 MUL PUSH2 0x1057 JUMP JUMPDEST NOT DUP1 DUP4 AND SWAP2 POP POP SWAP3 SWAP2 POP POP JUMP JUMPDEST PUSH0 PUSH2 0x108A DUP4 DUP4 PUSH2 0x1063 JUMP JUMPDEST SWAP2 POP DUP3 PUSH1 0x2 MUL DUP3 OR SWAP1 POP SWAP3 SWAP2 POP POP JUMP JUMPDEST PUSH2 0x10A3 DUP3 PUSH2 0xA6E JUMP JUMPDEST PUSH8 0xFFFFFFFFFFFFFFFF DUP2 GT ISZERO PUSH2 0x10BC JUMPI PUSH2 0x10BB PUSH2 0x8A5 JUMP JUMPDEST JUMPDEST PUSH2 0x10C6 DUP3 SLOAD PUSH2 0xECD JUMP JUMPDEST PUSH2 0x10D1 DUP3 DUP3 DUP6 PUSH2 0x1011 JUMP JUMPDEST PUSH0 PUSH1 0x20 SWAP1 POP PUSH1 0x1F DUP4 GT PUSH1 0x1 DUP2 EQ PUSH2 0x1102 JUMPI PUSH0 DUP5 ISZERO PUSH2 0x10F0 JUMPI DUP3 DUP8 ADD MLOAD SWAP1 POP JUMPDEST PUSH2 0x10FA DUP6 DUP3 PUSH2 0x107F JUMP JUMPDEST DUP7 SSTORE POP PUSH2 0x1161 JUMP JUMPDEST PUSH1 0x1F NOT DUP5 AND PUSH2 0x1110 DUP7 PUSH2 0xEFD JUMP JUMPDEST PUSH0 JUMPDEST DUP3 DUP2 LT ISZERO PUSH2 0x1137 JUMPI DUP5 DUP10 ADD MLOAD DUP3 SSTORE PUSH1 0x1 DUP3 ADD SWAP2 POP PUSH1 0x20 DUP6 ADD SWAP5 POP PUSH1 0x20 DUP2 ADD SWAP1 POP PUSH2 0x1112 JUMP JUMPDEST DUP7 DUP4 LT ISZERO PUSH2 0x1154 JUMPI DUP5 DUP10 ADD MLOAD PUSH2 0x1150 PUSH1 0x1F DUP10 AND DUP3 PUSH2 0x1063 JUMP JUMPDEST DUP4 SSTORE POP JUMPDEST PUSH1 0x1 PUSH1 0x2 DUP9 MUL ADD DUP9 SSTORE POP POP POP JUMPDEST POP POP POP POP POP POP JUMP JUMPDEST PUSH32 0x4E487B7100000000000000000000000000000000000000000000000000000000 PUSH0 MSTORE PUSH1 0x11 PUSH1 0x4 MSTORE PUSH1 0x24 PUSH0 REVERT JUMPDEST PUSH0 PUSH2 0x11A0 DUP3 PUSH2 0xA10 JUMP JUMPDEST SWAP2 POP PUSH32 0xFFFFFFFFFFFFFFFFFFFFFFFFFFFFFFFFFFFFFFFFFFFFFFFFFFFFFFFFFFFFFFFF DUP3 SUB PUSH2 0x11D2 JUMPI PUSH2 0x11D1 PUSH2 0x1169 JUMP JUMPDEST JUMPDEST PUSH1 0x1 DUP3 ADD SWAP1 POP SWAP2 SWAP1 POP JUMP JUMPDEST PUSH32 0x4E487B7100000000000000000000000000000000000000000000000000000000 PUSH0 MSTORE PUSH1 0x32 PUSH1 0x4 MSTORE PUSH1 0x24 PUSH0 REVERT JUMPDEST PUSH32 0x4E487B7100000000000000000000000000000000000000000000000000000000 PUSH0 MSTORE PUSH1 0x31 PUSH1 0x4 MSTORE PUSH1 0x24 PUSH0 REVERT INVALID LOG2 PUSH5 0x6970667358 0x22 SLT KECCAK256 0xD6 0xE4 0xE1 DUP4 0xBD 0x4A PUSH0 0x28 CODECOPY DUP14 DUP16 0x4F DUP1 0xA9 DUP2 NOT SWAP1 0xE5 0xAC CALLER DUP9 0xF 0x5C STOP 0xB9 0x1F DUP13 0xD4 0xCD ADDRESS 0xD4 0xD3 PUSH5 0x736F6C6343 STOP ADDMOD ISZERO STOP CALLER "
		},
		"gasEstimates": {
			"creation": {
				"codeDepositCost": "943400",
				"executionCost": "979",
				"totalCost": "944379"
			},
			"external": {
				"addFlag(bool[2])": "infinite",
				"byteArrays(bytes)": "infinite",
				"changeFlagArraySize(uint256)": "infinite",
				"clear()": "infinite",
				"createMemoryArray(uint256)": "infinite",
				"f(uint256[])": "infinite",
				"setAllFlagPairs(bool[2][])": "infinite",
				"setFlagPair(uint256,bool,bool)": "infinite"
			}
		},
		"methodIdentifiers": {
			"addFlag(bool[2])": "b9cce72c",
			"byteArrays(bytes)": "31a56110",
			"changeFlagArraySize(uint256)": "f5933f66",
			"clear()": "52efea6e",
			"createMemoryArray(uint256)": "6d236703",
			"f(uint256[])": "7bc5bbbf",
			"setAllFlagPairs(bool[2][])": "deff71b8",
			"setFlagPair(uint256,bool,bool)": "7d7e5e3d"
		}
	},
	"abi": [
		{
			"inputs": [
				{
					"internalType": "bool[2]",
					"name": "flag",
					"type": "bool[2]"
				}
			],
			"name": "addFlag",
			"outputs": [
				{
					"internalType": "uint256",
					"name": "",
					"type": "uint256"
				}
			],
			"stateMutability": "nonpayable",
			"type": "function"
		},
		{
			"inputs": [
				{
					"internalType": "bytes",
					"name": "data",
					"type": "bytes"
				}
			],
			"name": "byteArrays",
			"outputs": [],
			"stateMutability": "nonpayable",
			"type": "function"
		},
		{
			"inputs": [
				{
					"internalType": "uint256",
					"name": "newSize",
					"type": "uint256"
				}
			],
			"name": "changeFlagArraySize",
			"outputs": [],
			"stateMutability": "nonpayable",
			"type": "function"
		},
		{
			"inputs": [],
			"name": "clear",
			"outputs": [],
			"stateMutability": "nonpayable",
			"type": "function"
		},
		{
			"inputs": [
				{
					"internalType": "uint256",
					"name": "size",
					"type": "uint256"
				}
			],
			"name": "createMemoryArray",
			"outputs": [
				{
					"internalType": "bytes",
					"name": "",
					"type": "bytes"
				}
			],
			"stateMutability": "pure",
			"type": "function"
		},
		{
			"inputs": [
				{
					"internalType": "uint256[]",
					"name": "c",
					"type": "uint256[]"
				}
			],
			"name": "f",
			"outputs": [],
			"stateMutability": "nonpayable",
			"type": "function"
		},
		{
			"inputs": [
				{
					"internalType": "bool[2][]",
					"name": "newPairs",
					"type": "bool[2][]"
				}
			],
			"name": "setAllFlagPairs",
			"outputs": [],
			"stateMutability": "nonpayable",
			"type": "function"
		},
		{
			"inputs": [
				{
					"internalType": "uint256",
					"name": "index",
					"type": "uint256"
				},
				{
					"internalType": "bool",
					"name": "flagA",
					"type": "bool"
				},
				{
					"internalType": "bool",
					"name": "flagB",
					"type": "bool"
				}
			],
			"name": "setFlagPair",
			"outputs": [],
			"stateMutability": "nonpayable",
			"type": "function"
		}
	]
}