{
	"data": {
		"bytecode": {
			"linkReferences": {},
			"object": "60806040526040518060600160405280600160ff168152602001600260ff168152602001600360ff16815250600290600361003b92919061004d565b50348015610047575f80fd5b506100ad565b8260038101928215610081579160200282015b82811115610080578251829060ff16905591602001919060010190610060565b5b50905061008e9190610092565b5090565b5b808211156100a9575f815f905550600101610093565b5090565b6103d4806100ba5f395ff3fe608060405234801561000f575f80fd5b506004361061007b575f3560e01c80639942ec6f116100595780639942ec6f146100d7578063aaf05f3d146100f5578063c3f90202146100ff578063ffbb24d41461011d5761007b565b806326121ff01461007f57806349f2e5751461008957806373d4a13a146100b9575b5f80fd5b61008761014d565b005b6100a3600480360381019061009e919061034b565b61015b565b6040516100b09190610385565b60405180910390f35b6100c161017b565b6040516100ce9190610385565b60405180910390f35b6100df610180565b6040516100ec9190610385565b60405180910390f35b6100fd61018c565b005b61010761024b565b6040516101149190610385565b60405180910390f35b6101376004803603810190610132919061034b565b610260565b6040516101449190610385565b60405180910390f35b5f805490505f90505f805550565b6001818154811061016a575f80fd5b905f5260205f20015f915090505481565b5f5481565b5f600180549050905090565b6040518060600160405280600460ff168152602001600560ff168152602001600660ff1681525060019060036101c3929190610279565b507fdb006daf768281e7ee057e4f96ce0b96c82c073e77b3b3318b420e9c7b8be6e16001805490506040516101f89190610385565b60405180910390a160015f61020d91906102c9565b7fdb006daf768281e7ee057e4f96ce0b96c82c073e77b3b3318b420e9c7b8be6e16001805490506040516102419190610385565b60405180910390a1565b5f60025f61025991906102e7565b6003905090565b6002816003811061026f575f80fd5b015f915090505481565b828054828255905f5260205f209081019282156102b8579160200282015b828111156102b7578251829060ff16905591602001919060010190610297565b5b5090506102c591906102f9565b5090565b5080545f8255905f5260205f20908101906102e491906102f9565b50565b505f81556001015f81556001015f9055565b5b80821115610310575f815f9055506001016102fa565b5090565b5f80fd5b5f819050919050565b61032a81610318565b8114610334575f80fd5b50565b5f8135905061034581610321565b92915050565b5f602082840312156103605761035f610314565b5b5f61036d84828501610337565b91505092915050565b61037f81610318565b82525050565b5f6020820190506103985f830184610376565b9291505056fea26469706673582212206e6f47da462e79be086bfe699cd05f95b38821c7adb8a856c75a6a1b6121b8d264736f6c63430008150033",
			"opcodes": "PUSH1 0x80 PUSH1 0x40 MSTORE PUSH1 0x40 MLOAD DUP1 PUSH1 0x60 ADD PUSH1 0x40 MSTORE DUP1 PUSH1 0x1 PUSH1 0xFF AND DUP2 MSTORE PUSH1 0x20 ADD PUSH1 0x2 PUSH1 0xFF AND DUP2 MSTORE PUSH1 0x20 ADD PUSH1 0x3 PUSH1 0xFF AND DUP2 MSTORE POP PUSH1 0x2 SWAP1 PUSH1 0x3 PUSH2 0x3B SWAP3 SWAP2 SWAP1 PUSH2 0x4D JUMP JUMPDEST POP CALLVALUE DUP1 ISZERO PUSH2 0x47 JUMPI PUSH0 DUP1 REVERT JUMPDEST POP PUSH2 0xAD JUMP JUMPDEST DUP3 PUSH1 0x3 DUP2 ADD SWAP3 DUP3 ISZERO PUSH2 0x81 JUMPI SWAP2 PUSH1 0x20 MUL DUP3 ADD JUMPDEST DUP3 DUP2 GT ISZERO PUSH2 0x80 JUMPI DUP3 MLOAD DUP3 SWAP1 PUSH1 0xFF AND SWAP1 SSTORE SWAP2 PUSH1 0x20 ADD SWAP2 SWAP1 PUSH1 0x1 ADD SWAP1 PUSH2 0x60 JUMP JUMPDEST JUMPDEST POP SWAP1 POP PUSH2 0x8E SWAP2 SWAP1 PUSH2 0x92 JUMP JUMPDEST POP SWAP1 JUMP JUMPDEST JUMPDEST DUP1 DUP3 GT ISZERO PUSH2 0xA9 JUMPI PUSH0 DUP2 PUSH0 SWAP1 SSTORE POP PUSH1 0x1 ADD PUSH2 0x93 JUMP JUMPDEST POP SWAP1 JUMP JUMPDEST PUSH2 0x3D4 DUP1 PUSH2 0xBA PUSH0 CODECOPY PUSH0 RETURN INVALID PUSH1 0x80 PUSH1 0x40 MSTORE CALLVALUE DUP1 ISZERO PUSH2 0xF JUMPI PUSH0 DUP1 REVERT JUMPDEST POP PUSH1 0x4 CALLDATASIZE LT PUSH2 0x7B JUMPI PUSH0 CALLDATALOAD PUSH1 0xE0 SHR DUP1 PUSH4 0x9942EC6F GT PUSH2 0x59 JUMPI DUP1 PUSH4 0x9942EC6F EQ PUSH2 0xD7 JUMPI DUP1 PUSH4 0xAAF05F3D EQ PUSH2 0xF5 JUMPI DUP1 PUSH4 0xC3F90202 EQ PUSH2 0xFF JUMPI DUP1 PUSH4 0xFFBB24D4 EQ PUSH2 0x11D JUMPI PUSH2 0x7B JUMP JUMPDEST DUP1 PUSH4 0x26121FF0 EQ PUSH2 0x7F JUMPI DUP1 PUSH4 0x49F2E575 EQ PUSH2 0x89 JUMPI DUP1 PUSH4 0x73D4A13A EQ PUSH2 0xB9 JUMPI JUMPDEST PUSH0 DUP1 REVERT JUMPDEST PUSH2 0x87 PUSH2 0x14D JUMP JUMPDEST STOP JUMPDEST PUSH2 0xA3 PUSH1 0x4 DUP1 CALLDATASIZE SUB DUP2 ADD SWAP1 PUSH2 0x9E SWAP2 SWAP1 PUSH2 0x34B JUMP JUMPDEST PUSH2 0x15B JUMP JUMPDEST PUSH1 0x40 MLOAD PUSH2 0xB0 SWAP2 SWAP1 PUSH2 0x385 JUMP JUMPDEST PUSH1 0x40 MLOAD DUP1 SWAP2 SUB SWAP1 RETURN JUMPDEST PUSH2 0xC1 PUSH2 0x17B JUMP JUMPDEST PUSH1 0x40 MLOAD PUSH2 0xCE SWAP2 SWAP1 PUSH2 0x385 JUMP JUMPDEST PUSH1 0x40 MLOAD DUP1 SWAP2 SUB SWAP1 RETURN JUMPDEST PUSH2 0xDF PUSH2 0x180 JUMP JUMPDEST PUSH1 0x40 MLOAD PUSH2 0xEC SWAP2 SWAP1 PUSH2 0x385 JUMP JUMPDEST PUSH1 0x40 MLOAD DUP1 SWAP2 SUB SWAP1 RETURN JUMPDEST PUSH2 0xFD PUSH2 0x18C JUMP JUMPDEST STOP JUMPDEST PUSH2 0x107 PUSH2 0x24B JUMP JUMPDEST PUSH1 0x40 MLOAD PUSH2 0x114 SWAP2 SWAP1 PUSH2 0x385 JUMP JUMPDEST PUSH1 0x40 MLOAD DUP1 SWAP2 SUB SWAP1 RETURN JUMPDEST PUSH2 0x137 PUSH1 0x4 DUP1 CALLDATASIZE SUB DUP2 ADD SWAP1 PUSH2 0x132 SWAP2 SWAP1 PUSH2 0x34B JUMP JUMPDEST PUSH2 0x260 JUMP JUMPDEST PUSH1 0x40 MLOAD PUSH2 0x144 SWAP2 SWAP1 PUSH2 0x385 JUMP JUMPDEST PUSH1 0x40 MLOAD DUP1 SWAP2 SUB SWAP1 RETURN JUMPDEST PUSH0 DUP1 SLOAD SWAP1 POP PUSH0 SWAP1 POP PUSH0 DUP1 SSTORE POP JUMP JUMPDEST PUSH1 0x1 DUP2 DUP2 SLOAD DUP2 LT PUSH2 0x16A JUMPI PUSH0 DUP1 REVERT JUMPDEST SWAP1 PUSH0 MSTORE PUSH1 0x20 PUSH0 KECCAK256 ADD PUSH0 SWAP2 POP SWAP1 POP SLOAD DUP2 JUMP JUMPDEST PUSH0 SLOAD DUP2 JUMP JUMPDEST PUSH0 PUSH1 0x1 DUP1 SLOAD SWAP1 POP SWAP1 POP SWAP1 JUMP JUMPDEST PUSH1 0x40 MLOAD DUP1 PUSH1 0x60 ADD PUSH1 0x40 MSTORE DUP1 PUSH1 0x4 PUSH1 0xFF AND DUP2 MSTORE PUSH1 0x20 ADD PUSH1 0x5 PUSH1 0xFF AND DUP2 MSTORE PUSH1 0x20 ADD PUSH1 0x6 PUSH1 0xFF AND DUP2 MSTORE POP PUSH1 0x1 SWAP1 PUSH1 0x3 PUSH2 0x1C3 SWAP3 SWAP2 SWAP1 PUSH2 0x279 JUMP JUMPDEST POP PUSH32 0xDB006DAF768281E7EE057E4F96CE0B96C82C073E77B3B3318B420E9C7B8BE6E1 PUSH1 0x1 DUP1 SLOAD SWAP1 POP PUSH1 0x40 MLOAD PUSH2 0x1F8 SWAP2 SWAP1 PUSH2 0x385 JUMP JUMPDEST PUSH1 0x40 MLOAD DUP1 SWAP2 SUB SWAP1 LOG1 PUSH1 0x1 PUSH0 PUSH2 0x20D SWAP2 SWAP1 PUSH2 0x2C9 JUMP JUMPDEST PUSH32 0xDB006DAF768281E7EE057E4F96CE0B96C82C073E77B3B3318B420E9C7B8BE6E1 PUSH1 0x1 DUP1 SLOAD SWAP1 POP PUSH1 0x40 MLOAD PUSH2 0x241 SWAP2 SWAP1 PUSH2 0x385 JUMP JUMPDEST PUSH1 0x40 MLOAD DUP1 SWAP2 SUB SWAP1 LOG1 JUMP JUMPDEST PUSH0 PUSH1 0x2 PUSH0 PUSH2 0x259 SWAP2 SWAP1 PUSH2 0x2E7 JUMP JUMPDEST PUSH1 0x3 SWAP1 POP SWAP1 JUMP JUMPDEST PUSH1 0x2 DUP2 PUSH1 0x3 DUP2 LT PUSH2 0x26F JUMPI PUSH0 DUP1 REVERT JUMPDEST ADD PUSH0 SWAP2 POP SWAP1 POP SLOAD DUP2 JUMP JUMPDEST DUP3 DUP1 SLOAD DUP3 DUP3 SSTORE SWAP1 PUSH0 MSTORE PUSH1 0x20 PUSH0 KECCAK256 SWAP1 DUP2 ADD SWAP3 DUP3 ISZERO PUSH2 0x2B8 JUMPI SWAP2 PUSH1 0x20 MUL DUP3 ADD JUMPDEST DUP3 DUP2 GT ISZERO PUSH2 0x2B7 JUMPI DUP3 MLOAD DUP3 SWAP1 PUSH1 0xFF AND SWAP1 SSTORE SWAP2 PUSH1 0x20 ADD SWAP2 SWAP1 PUSH1 0x1 ADD SWAP1 PUSH2 0x297 JUMP JUMPDEST JUMPDEST POP SWAP1 POP PUSH2 0x2C5 SWAP2 SWAP1 PUSH2 0x2F9 JUMP JUMPDEST POP SWAP1 JUMP JUMPDEST POP DUP1 SLOAD PUSH0 DUP3 SSTORE SWAP1 PUSH0 MSTORE PUSH1 0x20 PUSH0 KECCAK256 SWAP1 DUP2 ADD SWAP1 PUSH2 0x2E4 SWAP2 SWAP1 PUSH2 0x2F9 JUMP JUMPDEST POP JUMP JUMPDEST POP PUSH0 DUP2 SSTORE PUSH1 0x1 ADD PUSH0 DUP2 SSTORE PUSH1 0x1 ADD PUSH0 SWAP1 SSTORE JUMP JUMPDEST JUMPDEST DUP1 DUP3 GT ISZERO PUSH2 0x310 JUMPI PUSH0 DUP2 PUSH0 SWAP1 SSTORE POP PUSH1 0x1 ADD PUSH2 0x2FA JUMP JUMPDEST POP SWAP1 JUMP JUMPDEST PUSH0 DUP1 REVERT JUMPDEST PUSH0 DUP2 SWAP1 POP SWAP2 SWAP1 POP JUMP JUMPDEST PUSH2 0x32A DUP2 PUSH2 0x318 JUMP JUMPDEST DUP2 EQ PUSH2 0x334 JUMPI PUSH0 DUP1 REVERT JUMPDEST POP JUMP JUMPDEST PUSH0 DUP2 CALLDATALOAD SWAP1 POP PUSH2 0x345 DUP2 PUSH2 0x321 JUMP JUMPDEST SWAP3 SWAP2 POP POP JUMP JUMPDEST PUSH0 PUSH1 0x20 DUP3 DUP5 SUB SLT ISZERO PUSH2 0x360 JUMPI PUSH2 0x35F PUSH2 0x314 JUMP JUMPDEST JUMPDEST PUSH0 PUSH2 0x36D DUP5 DUP3 DUP6 ADD PUSH2 0x337 JUMP JUMPDEST SWAP2 POP POP SWAP3 SWAP2 POP POP JUMP JUMPDEST PUSH2 0x37F DUP2 PUSH2 0x318 JUMP JUMPDEST DUP3 MSTORE POP POP JUMP JUMPDEST PUSH0 PUSH1 0x20 DUP3 ADD SWAP1 POP PUSH2 0x398 PUSH0 DUP4 ADD DUP5 PUSH2 0x376 JUMP JUMPDEST SWAP3 SWAP2 POP POP JUMP INVALID LOG2 PUSH5 0x6970667358 0x22 SLT KECCAK256 PUSH15 0x6F47DA462E79BE086BFE699CD05F95 0xB3 DUP9 0x21 0xC7 0xAD 0xB8 0xA8 JUMP 0xC7 GAS PUSH11 0x1B6121B8D264736F6C6343 STOP ADDMOD ISZERO STOP CALLER "
		},
		"gasEstimates": {
			"creation": {
				"codeDepositCost": "196000",
				"executionCost": "infinite",
				"totalCost": "infinite"
			},
			"external": {
				"data()": "2469",
				"dataArray(uint256)": "infinite",
				"f()": "7268",
				"f2()": "2440",
				"f3()": "infinite",
				"f4()": "15440",
				"staticArray(uint256)": "infinite"
			}
		},
		"methodIdentifiers": {
			"data()": "73d4a13a",
			"dataArray(uint256)": "49f2e575",
			"f()": "26121ff0",
			"f2()": "9942ec6f",
			"f3()": "aaf05f3d",
			"f4()": "c3f90202",
			"staticArray(uint256)": "ffbb24d4"
		}
	},
	"abi": [
		{
			"anonymous": false,
			"inputs": [
				{
					"indexed": false,
					"internalType": "uint256",
					"name": "",
					"type": "uint256"
				}
			],
			"name": "execLog",
			"type": "event"
		},
		{
			"inputs": [],
			"name": "data",
			"outputs": [
				{
					"internalType": "uint256",
					"name": "",
					"type": "uint256"
				}
			],
			"stateMutability": "view",
			"type": "function"
		},
		{
			"inputs": [
				{
					"internalType": "uint256",
					"name": "",
					"type": "uint256"
				}
			],
			"name": "dataArray",
			"outputs": [
				{
					"internalType": "uint256",
					"name": "",
					"type": "uint256"
				}
			],
			"stateMutability": "view",
			"type": "function"
		},
		{
			"inputs": [],
			"name": "f",
			"outputs": [],
			"stateMutability": "nonpayable",
			"type": "function"
		},
		{
			"inputs": [],
			"name": "f2",
			"outputs": [
				{
					"internalType": "uint256",
					"name": "",
					"type": "uint256"
				}
			],
			"stateMutability": "view",
			"type": "function"
		},
		{
			"inputs": [],
			"name": "f3",
			"outputs": [],
			"stateMutability": "nonpayable",
			"type": "function"
		},
		{
			"inputs": [],
			"name": "f4",
			"outputs": [
				{
					"internalType": "uint256",
					"name": "",
					"type": "uint256"
				}
			],
			"stateMutability": "nonpayable",
			"type": "function"
		},
		{
			"inputs": [
				{
					"internalType": "uint256",
					"name": "",
					"type": "uint256"
				}
			],
			"name": "staticArray",
			"outputs": [
				{
					"internalType": "uint256",
					"name": "",
					"type": "uint256"
				}
			],
			"stateMutability": "view",
			"type": "function"
		}
	]
}