{
	"data": {
		"bytecode": {
			"linkReferences": {},
			"object": "60806040526040518060600160405280600160ff168152602001600260ff168152602001600360ff16815250600290600361003b92919061004e565b5034801561004857600080fd5b506100b0565b8260038101928215610082579160200282015b82811115610081578251829060ff16905591602001919060010190610061565b5b50905061008f9190610093565b5090565b5b808211156100ac576000816000905550600101610094565b5090565b6103f7806100bf6000396000f3fe608060405234801561001057600080fd5b506004361061007d5760003560e01c80639942ec6f1161005b5780639942ec6f146100da578063aaf05f3d146100f8578063c3f9020214610102578063ffbb24d4146101205761007d565b806326121ff01461008257806349f2e5751461008c57806373d4a13a146100bc575b600080fd5b61008a610150565b005b6100a660048036038101906100a1919061036a565b610161565b6040516100b391906103a6565b60405180910390f35b6100c4610185565b6040516100d191906103a6565b60405180910390f35b6100e261018b565b6040516100ef91906103a6565b60405180910390f35b610100610198565b005b61010a610258565b60405161011791906103a6565b60405180910390f35b61013a6004803603810190610135919061036a565b61026f565b60405161014791906103a6565b60405180910390f35b600080549050600090506000805550565b6001818154811061017157600080fd5b906000526020600020016000915090505481565b60005481565b6000600180549050905090565b6040518060600160405280600460ff168152602001600560ff168152602001600660ff1681525060019060036101cf92919061028a565b507fdb006daf768281e7ee057e4f96ce0b96c82c073e77b3b3318b420e9c7b8be6e160018054905060405161020491906103a6565b60405180910390a16001600061021a91906102dc565b7fdb006daf768281e7ee057e4f96ce0b96c82c073e77b3b3318b420e9c7b8be6e160018054905060405161024e91906103a6565b60405180910390a1565b60006002600061026891906102fd565b6003905090565b6002816003811061027f57600080fd5b016000915090505481565b8280548282559060005260206000209081019282156102cb579160200282015b828111156102ca578251829060ff169055916020019190600101906102aa565b5b5090506102d89190610312565b5090565b50805460008255906000526020600020908101906102fa9190610312565b50565b50600081556001016000815560010160009055565b5b8082111561032b576000816000905550600101610313565b5090565b600080fd5b6000819050919050565b61034781610334565b811461035257600080fd5b50565b6000813590506103648161033e565b92915050565b6000602082840312156103805761037f61032f565b5b600061038e84828501610355565b91505092915050565b6103a081610334565b82525050565b60006020820190506103bb6000830184610397565b9291505056fea2646970667358221220cf6443134082d0d6468305f712dc3de6d000390f9043f0ffcd4d0874818e92fa64736f6c63430008120033",
			"opcodes": "PUSH1 0x80 PUSH1 0x40 MSTORE PUSH1 0x40 MLOAD DUP1 PUSH1 0x60 ADD PUSH1 0x40 MSTORE DUP1 PUSH1 0x1 PUSH1 0xFF AND DUP2 MSTORE PUSH1 0x20 ADD PUSH1 0x2 PUSH1 0xFF AND DUP2 MSTORE PUSH1 0x20 ADD PUSH1 0x3 PUSH1 0xFF AND DUP2 MSTORE POP PUSH1 0x2 SWAP1 PUSH1 0x3 PUSH2 0x3B SWAP3 SWAP2 SWAP1 PUSH2 0x4E JUMP JUMPDEST POP CALLVALUE DUP1 ISZERO PUSH2 0x48 JUMPI PUSH1 0x0 DUP1 REVERT JUMPDEST POP PUSH2 0xB0 JUMP JUMPDEST DUP3 PUSH1 0x3 DUP2 ADD SWAP3 DUP3 ISZERO PUSH2 0x82 JUMPI SWAP2 PUSH1 0x20 MUL DUP3 ADD JUMPDEST DUP3 DUP2 GT ISZERO PUSH2 0x81 JUMPI DUP3 MLOAD DUP3 SWAP1 PUSH1 0xFF AND SWAP1 SSTORE SWAP2 PUSH1 0x20 ADD SWAP2 SWAP1 PUSH1 0x1 ADD SWAP1 PUSH2 0x61 JUMP JUMPDEST JUMPDEST POP SWAP1 POP PUSH2 0x8F SWAP2 SWAP1 PUSH2 0x93 JUMP JUMPDEST POP SWAP1 JUMP JUMPDEST JUMPDEST DUP1 DUP3 GT ISZERO PUSH2 0xAC JUMPI PUSH1 0x0 DUP2 PUSH1 0x0 SWAP1 SSTORE POP PUSH1 0x1 ADD PUSH2 0x94 JUMP JUMPDEST POP SWAP1 JUMP JUMPDEST PUSH2 0x3F7 DUP1 PUSH2 0xBF PUSH1 0x0 CODECOPY PUSH1 0x0 RETURN INVALID PUSH1 0x80 PUSH1 0x40 MSTORE CALLVALUE DUP1 ISZERO PUSH2 0x10 JUMPI PUSH1 0x0 DUP1 REVERT JUMPDEST POP PUSH1 0x4 CALLDATASIZE LT PUSH2 0x7D JUMPI PUSH1 0x0 CALLDATALOAD PUSH1 0xE0 SHR DUP1 PUSH4 0x9942EC6F GT PUSH2 0x5B JUMPI DUP1 PUSH4 0x9942EC6F EQ PUSH2 0xDA JUMPI DUP1 PUSH4 0xAAF05F3D EQ PUSH2 0xF8 JUMPI DUP1 PUSH4 0xC3F90202 EQ PUSH2 0x102 JUMPI DUP1 PUSH4 0xFFBB24D4 EQ PUSH2 0x120 JUMPI PUSH2 0x7D JUMP JUMPDEST DUP1 PUSH4 0x26121FF0 EQ PUSH2 0x82 JUMPI DUP1 PUSH4 0x49F2E575 EQ PUSH2 0x8C JUMPI DUP1 PUSH4 0x73D4A13A EQ PUSH2 0xBC JUMPI JUMPDEST PUSH1 0x0 DUP1 REVERT JUMPDEST PUSH2 0x8A PUSH2 0x150 JUMP JUMPDEST STOP JUMPDEST PUSH2 0xA6 PUSH1 0x4 DUP1 CALLDATASIZE SUB DUP2 ADD SWAP1 PUSH2 0xA1 SWAP2 SWAP1 PUSH2 0x36A JUMP JUMPDEST PUSH2 0x161 JUMP JUMPDEST PUSH1 0x40 MLOAD PUSH2 0xB3 SWAP2 SWAP1 PUSH2 0x3A6 JUMP JUMPDEST PUSH1 0x40 MLOAD DUP1 SWAP2 SUB SWAP1 RETURN JUMPDEST PUSH2 0xC4 PUSH2 0x185 JUMP JUMPDEST PUSH1 0x40 MLOAD PUSH2 0xD1 SWAP2 SWAP1 PUSH2 0x3A6 JUMP JUMPDEST PUSH1 0x40 MLOAD DUP1 SWAP2 SUB SWAP1 RETURN JUMPDEST PUSH2 0xE2 PUSH2 0x18B JUMP JUMPDEST PUSH1 0x40 MLOAD PUSH2 0xEF SWAP2 SWAP1 PUSH2 0x3A6 JUMP JUMPDEST PUSH1 0x40 MLOAD DUP1 SWAP2 SUB SWAP1 RETURN JUMPDEST PUSH2 0x100 PUSH2 0x198 JUMP JUMPDEST STOP JUMPDEST PUSH2 0x10A PUSH2 0x258 JUMP JUMPDEST PUSH1 0x40 MLOAD PUSH2 0x117 SWAP2 SWAP1 PUSH2 0x3A6 JUMP JUMPDEST PUSH1 0x40 MLOAD DUP1 SWAP2 SUB SWAP1 RETURN JUMPDEST PUSH2 0x13A PUSH1 0x4 DUP1 CALLDATASIZE SUB DUP2 ADD SWAP1 PUSH2 0x135 SWAP2 SWAP1 PUSH2 0x36A JUMP JUMPDEST PUSH2 0x26F JUMP JUMPDEST PUSH1 0x40 MLOAD PUSH2 0x147 SWAP2 SWAP1 PUSH2 0x3A6 JUMP JUMPDEST PUSH1 0x40 MLOAD DUP1 SWAP2 SUB SWAP1 RETURN JUMPDEST PUSH1 0x0 DUP1 SLOAD SWAP1 POP PUSH1 0x0 SWAP1 POP PUSH1 0x0 DUP1 SSTORE POP JUMP JUMPDEST PUSH1 0x1 DUP2 DUP2 SLOAD DUP2 LT PUSH2 0x171 JUMPI PUSH1 0x0 DUP1 REVERT JUMPDEST SWAP1 PUSH1 0x0 MSTORE PUSH1 0x20 PUSH1 0x0 KECCAK256 ADD PUSH1 0x0 SWAP2 POP SWAP1 POP SLOAD DUP2 JUMP JUMPDEST PUSH1 0x0 SLOAD DUP2 JUMP JUMPDEST PUSH1 0x0 PUSH1 0x1 DUP1 SLOAD SWAP1 POP SWAP1 POP SWAP1 JUMP JUMPDEST PUSH1 0x40 MLOAD DUP1 PUSH1 0x60 ADD PUSH1 0x40 MSTORE DUP1 PUSH1 0x4 PUSH1 0xFF AND DUP2 MSTORE PUSH1 0x20 ADD PUSH1 0x5 PUSH1 0xFF AND DUP2 MSTORE PUSH1 0x20 ADD PUSH1 0x6 PUSH1 0xFF AND DUP2 MSTORE POP PUSH1 0x1 SWAP1 PUSH1 0x3 PUSH2 0x1CF SWAP3 SWAP2 SWAP1 PUSH2 0x28A JUMP JUMPDEST POP PUSH32 0xDB006DAF768281E7EE057E4F96CE0B96C82C073E77B3B3318B420E9C7B8BE6E1 PUSH1 0x1 DUP1 SLOAD SWAP1 POP PUSH1 0x40 MLOAD PUSH2 0x204 SWAP2 SWAP1 PUSH2 0x3A6 JUMP JUMPDEST PUSH1 0x40 MLOAD DUP1 SWAP2 SUB SWAP1 LOG1 PUSH1 0x1 PUSH1 0x0 PUSH2 0x21A SWAP2 SWAP1 PUSH2 0x2DC JUMP JUMPDEST PUSH32 0xDB006DAF768281E7EE057E4F96CE0B96C82C073E77B3B3318B420E9C7B8BE6E1 PUSH1 0x1 DUP1 SLOAD SWAP1 POP PUSH1 0x40 MLOAD PUSH2 0x24E SWAP2 SWAP1 PUSH2 0x3A6 JUMP JUMPDEST PUSH1 0x40 MLOAD DUP1 SWAP2 SUB SWAP1 LOG1 JUMP JUMPDEST PUSH1 0x0 PUSH1 0x2 PUSH1 0x0 PUSH2 0x268 SWAP2 SWAP1 PUSH2 0x2FD JUMP JUMPDEST PUSH1 0x3 SWAP1 POP SWAP1 JUMP JUMPDEST PUSH1 0x2 DUP2 PUSH1 0x3 DUP2 LT PUSH2 0x27F JUMPI PUSH1 0x0 DUP1 REVERT JUMPDEST ADD PUSH1 0x0 SWAP2 POP SWAP1 POP SLOAD DUP2 JUMP JUMPDEST DUP3 DUP1 SLOAD DUP3 DUP3 SSTORE SWAP1 PUSH1 0x0 MSTORE PUSH1 0x20 PUSH1 0x0 KECCAK256 SWAP1 DUP2 ADD SWAP3 DUP3 ISZERO PUSH2 0x2CB JUMPI SWAP2 PUSH1 0x20 MUL DUP3 ADD JUMPDEST DUP3 DUP2 GT ISZERO PUSH2 0x2CA JUMPI DUP3 MLOAD DUP3 SWAP1 PUSH1 0xFF AND SWAP1 SSTORE SWAP2 PUSH1 0x20 ADD SWAP2 SWAP1 PUSH1 0x1 ADD SWAP1 PUSH2 0x2AA JUMP JUMPDEST JUMPDEST POP SWAP1 POP PUSH2 0x2D8 SWAP2 SWAP1 PUSH2 0x312 JUMP JUMPDEST POP SWAP1 JUMP JUMPDEST POP DUP1 SLOAD PUSH1 0x0 DUP3 SSTORE SWAP1 PUSH1 0x0 MSTORE PUSH1 0x20 PUSH1 0x0 KECCAK256 SWAP1 DUP2 ADD SWAP1 PUSH2 0x2FA SWAP2 SWAP1 PUSH2 0x312 JUMP JUMPDEST POP JUMP JUMPDEST POP PUSH1 0x0 DUP2 SSTORE PUSH1 0x1 ADD PUSH1 0x0 DUP2 SSTORE PUSH1 0x1 ADD PUSH1 0x0 SWAP1 SSTORE JUMP JUMPDEST JUMPDEST DUP1 DUP3 GT ISZERO PUSH2 0x32B JUMPI PUSH1 0x0 DUP2 PUSH1 0x0 SWAP1 SSTORE POP PUSH1 0x1 ADD PUSH2 0x313 JUMP JUMPDEST POP SWAP1 JUMP JUMPDEST PUSH1 0x0 DUP1 REVERT JUMPDEST PUSH1 0x0 DUP2 SWAP1 POP SWAP2 SWAP1 POP JUMP JUMPDEST PUSH2 0x347 DUP2 PUSH2 0x334 JUMP JUMPDEST DUP2 EQ PUSH2 0x352 JUMPI PUSH1 0x0 DUP1 REVERT JUMPDEST POP JUMP JUMPDEST PUSH1 0x0 DUP2 CALLDATALOAD SWAP1 POP PUSH2 0x364 DUP2 PUSH2 0x33E JUMP JUMPDEST SWAP3 SWAP2 POP POP JUMP JUMPDEST PUSH1 0x0 PUSH1 0x20 DUP3 DUP5 SUB SLT ISZERO PUSH2 0x380 JUMPI PUSH2 0x37F PUSH2 0x32F JUMP JUMPDEST JUMPDEST PUSH1 0x0 PUSH2 0x38E DUP5 DUP3 DUP6 ADD PUSH2 0x355 JUMP JUMPDEST SWAP2 POP POP SWAP3 SWAP2 POP POP JUMP JUMPDEST PUSH2 0x3A0 DUP2 PUSH2 0x334 JUMP JUMPDEST DUP3 MSTORE POP POP JUMP JUMPDEST PUSH1 0x0 PUSH1 0x20 DUP3 ADD SWAP1 POP PUSH2 0x3BB PUSH1 0x0 DUP4 ADD DUP5 PUSH2 0x397 JUMP JUMPDEST SWAP3 SWAP2 POP POP JUMP INVALID LOG2 PUSH5 0x6970667358 0x22 SLT KECCAK256 0xCF PUSH5 0x43134082D0 0xD6 CHAINID DUP4 SDIV 0xF7 SLT 0xDC RETURNDATASIZE 0xE6 0xD0 STOP CODECOPY 0xF SWAP1 NUMBER CREATE SELFDESTRUCT 0xCD 0x4D ADDMOD PUSH21 0x818E92FA64736F6C63430008120033000000000000 "
		},
		"gasEstimates": {
			"creation": {
				"codeDepositCost": "203000",
				"executionCost": "infinite",
				"totalCost": "infinite"
			},
			"external": {
				"data()": "2474",
				"dataArray(uint256)": "infinite",
				"f()": "7272",
				"f2()": "2445",
				"f3()": "infinite",
				"f4()": "15449",
				"staticArray(uint256)": "infinite"
			}
		},
		"methodIdentifiers": {
			"data()": "73d4a13a",
			"dataArray(uint256)": "49f2e575",
			"f()": "26121ff0",
			"f2()": "9942ec6f",
			"f3()": "aaf05f3d",
			"f4()": "c3f90202",
			"staticArray(uint256)": "ffbb24d4"
		}
	},
	"abi": [
		{
			"anonymous": false,
			"inputs": [
				{
					"indexed": false,
					"internalType": "uint256",
					"name": "",
					"type": "uint256"
				}
			],
			"name": "execLog",
			"type": "event"
		},
		{
			"inputs": [],
			"name": "data",
			"outputs": [
				{
					"internalType": "uint256",
					"name": "",
					"type": "uint256"
				}
			],
			"stateMutability": "view",
			"type": "function"
		},
		{
			"inputs": [
				{
					"internalType": "uint256",
					"name": "",
					"type": "uint256"
				}
			],
			"name": "dataArray",
			"outputs": [
				{
					"internalType": "uint256",
					"name": "",
					"type": "uint256"
				}
			],
			"stateMutability": "view",
			"type": "function"
		},
		{
			"inputs": [],
			"name": "f",
			"outputs": [],
			"stateMutability": "nonpayable",
			"type": "function"
		},
		{
			"inputs": [],
			"name": "f2",
			"outputs": [
				{
					"internalType": "uint256",
					"name": "",
					"type": "uint256"
				}
			],
			"stateMutability": "view",
			"type": "function"
		},
		{
			"inputs": [],
			"name": "f3",
			"outputs": [],
			"stateMutability": "nonpayable",
			"type": "function"
		},
		{
			"inputs": [],
			"name": "f4",
			"outputs": [
				{
					"internalType": "uint256",
					"name": "",
					"type": "uint256"
				}
			],
			"stateMutability": "nonpayable",
			"type": "function"
		},
		{
			"inputs": [
				{
					"internalType": "uint256",
					"name": "",
					"type": "uint256"
				}
			],
			"name": "staticArray",
			"outputs": [
				{
					"internalType": "uint256",
					"name": "",
					"type": "uint256"
				}
			],
			"stateMutability": "view",
			"type": "function"
		}
	]
}