{
	"data": {
		"bytecode": {
			"linkReferences": {},
			"object": "608060405234801561001057600080fd5b50610577806100206000396000f3fe608060405234801561001057600080fd5b506004361061002b5760003560e01c80630ba9d8ca14610030575b600080fd5b61004a6004803603810190610045919061026c565b610061565b6040516100589291906102cd565b60405180910390f35b600080600a6001541061007357600080fd5b60008054906101000a900473ffffffffffffffffffffffffffffffffffffffff1673ffffffffffffffffffffffffffffffffffffffff166338266b22846040518263ffffffff1660e01b81526004016100cc9190610305565b6020604051808303816000875af192505050801561010857506040513d601f19601f82011682018060405250810190610105919061034c565b60015b6101f157610114610386565b806308c379a0036101585750610128610419565b80610133575061019a565b60016000815480929190610146906104d8565b919050555060008092509250506101fa565b634e487b710361019a5761016a610520565b90610175575061019a565b60016000815480929190610188906104d8565b919050555060008092509250506101fa565b3d80600081146101c6576040519150601f19603f3d011682016040523d82523d6000602084013e6101cb565b606091505b50600160008154809291906101df906104d8565b919050555060008092509250506101fa565b80600192509250505b915091565b6000604051905090565b600080fd5b600073ffffffffffffffffffffffffffffffffffffffff82169050919050565b60006102398261020e565b9050919050565b6102498161022e565b811461025457600080fd5b50565b60008135905061026681610240565b92915050565b60006020828403121561028257610281610209565b5b600061029084828501610257565b91505092915050565b6000819050919050565b6102ac81610299565b82525050565b60008115159050919050565b6102c7816102b2565b82525050565b60006040820190506102e260008301856102a3565b6102ef60208301846102be565b9392505050565b6102ff8161022e565b82525050565b600060208201905061031a60008301846102f6565b92915050565b61032981610299565b811461033457600080fd5b50565b60008151905061034681610320565b92915050565b60006020828403121561036257610361610209565b5b600061037084828501610337565b91505092915050565b60008160e01c9050919050565b600060033d11156103a55760046000803e6103a2600051610379565b90505b90565b6000601f19601f8301169050919050565b7f4e487b7100000000000000000000000000000000000000000000000000000000600052604160045260246000fd5b6103f1826103a8565b810181811067ffffffffffffffff821117156104105761040f6103b9565b5b80604052505050565b600060443d106104a65761042b6101ff565b60043d036004823e80513d602482011167ffffffffffffffff821117156104535750506104a6565b808201805167ffffffffffffffff81111561047157505050506104a6565b80602083010160043d03850181111561048e5750505050506104a6565b61049d826020018501866103e8565b82955050505050505b90565b7f4e487b7100000000000000000000000000000000000000000000000000000000600052601160045260246000fd5b60006104e382610299565b91507fffffffffffffffffffffffffffffffffffffffffffffffffffffffffffffffff8203610515576105146104a9565b5b600182019050919050565b60008060233d111561053d576020600460003e6001915060005190505b909156fea2646970667358221220f3d17bc3807bdb39b1cfd9223d6d24899aa499bf94678f74ee16a2971908a54b64736f6c63430008120033",
			"opcodes": "PUSH1 0x80 PUSH1 0x40 MSTORE CALLVALUE DUP1 ISZERO PUSH2 0x10 JUMPI PUSH1 0x0 DUP1 REVERT JUMPDEST POP PUSH2 0x577 DUP1 PUSH2 0x20 PUSH1 0x0 CODECOPY PUSH1 0x0 RETURN INVALID PUSH1 0x80 PUSH1 0x40 MSTORE CALLVALUE DUP1 ISZERO PUSH2 0x10 JUMPI PUSH1 0x0 DUP1 REVERT JUMPDEST POP PUSH1 0x4 CALLDATASIZE LT PUSH2 0x2B JUMPI PUSH1 0x0 CALLDATALOAD PUSH1 0xE0 SHR DUP1 PUSH4 0xBA9D8CA EQ PUSH2 0x30 JUMPI JUMPDEST PUSH1 0x0 DUP1 REVERT JUMPDEST PUSH2 0x4A PUSH1 0x4 DUP1 CALLDATASIZE SUB DUP2 ADD SWAP1 PUSH2 0x45 SWAP2 SWAP1 PUSH2 0x26C JUMP JUMPDEST PUSH2 0x61 JUMP JUMPDEST PUSH1 0x40 MLOAD PUSH2 0x58 SWAP3 SWAP2 SWAP1 PUSH2 0x2CD JUMP JUMPDEST PUSH1 0x40 MLOAD DUP1 SWAP2 SUB SWAP1 RETURN JUMPDEST PUSH1 0x0 DUP1 PUSH1 0xA PUSH1 0x1 SLOAD LT PUSH2 0x73 JUMPI PUSH1 0x0 DUP1 REVERT JUMPDEST PUSH1 0x0 DUP1 SLOAD SWAP1 PUSH2 0x100 EXP SWAP1 DIV PUSH20 0xFFFFFFFFFFFFFFFFFFFFFFFFFFFFFFFFFFFFFFFF AND PUSH20 0xFFFFFFFFFFFFFFFFFFFFFFFFFFFFFFFFFFFFFFFF AND PUSH4 0x38266B22 DUP5 PUSH1 0x40 MLOAD DUP3 PUSH4 0xFFFFFFFF AND PUSH1 0xE0 SHL DUP2 MSTORE PUSH1 0x4 ADD PUSH2 0xCC SWAP2 SWAP1 PUSH2 0x305 JUMP JUMPDEST PUSH1 0x20 PUSH1 0x40 MLOAD DUP1 DUP4 SUB DUP2 PUSH1 0x0 DUP8 GAS CALL SWAP3 POP POP POP DUP1 ISZERO PUSH2 0x108 JUMPI POP PUSH1 0x40 MLOAD RETURNDATASIZE PUSH1 0x1F NOT PUSH1 0x1F DUP3 ADD AND DUP3 ADD DUP1 PUSH1 0x40 MSTORE POP DUP2 ADD SWAP1 PUSH2 0x105 SWAP2 SWAP1 PUSH2 0x34C JUMP JUMPDEST PUSH1 0x1 JUMPDEST PUSH2 0x1F1 JUMPI PUSH2 0x114 PUSH2 0x386 JUMP JUMPDEST DUP1 PUSH4 0x8C379A0 SUB PUSH2 0x158 JUMPI POP PUSH2 0x128 PUSH2 0x419 JUMP JUMPDEST DUP1 PUSH2 0x133 JUMPI POP PUSH2 0x19A JUMP JUMPDEST PUSH1 0x1 PUSH1 0x0 DUP2 SLOAD DUP1 SWAP3 SWAP2 SWAP1 PUSH2 0x146 SWAP1 PUSH2 0x4D8 JUMP JUMPDEST SWAP2 SWAP1 POP SSTORE POP PUSH1 0x0 DUP1 SWAP3 POP SWAP3 POP POP PUSH2 0x1FA JUMP JUMPDEST PUSH4 0x4E487B71 SUB PUSH2 0x19A JUMPI PUSH2 0x16A PUSH2 0x520 JUMP JUMPDEST SWAP1 PUSH2 0x175 JUMPI POP PUSH2 0x19A JUMP JUMPDEST PUSH1 0x1 PUSH1 0x0 DUP2 SLOAD DUP1 SWAP3 SWAP2 SWAP1 PUSH2 0x188 SWAP1 PUSH2 0x4D8 JUMP JUMPDEST SWAP2 SWAP1 POP SSTORE POP PUSH1 0x0 DUP1 SWAP3 POP SWAP3 POP POP PUSH2 0x1FA JUMP JUMPDEST RETURNDATASIZE DUP1 PUSH1 0x0 DUP2 EQ PUSH2 0x1C6 JUMPI PUSH1 0x40 MLOAD SWAP2 POP PUSH1 0x1F NOT PUSH1 0x3F RETURNDATASIZE ADD AND DUP3 ADD PUSH1 0x40 MSTORE RETURNDATASIZE DUP3 MSTORE RETURNDATASIZE PUSH1 0x0 PUSH1 0x20 DUP5 ADD RETURNDATACOPY PUSH2 0x1CB JUMP JUMPDEST PUSH1 0x60 SWAP2 POP JUMPDEST POP PUSH1 0x1 PUSH1 0x0 DUP2 SLOAD DUP1 SWAP3 SWAP2 SWAP1 PUSH2 0x1DF SWAP1 PUSH2 0x4D8 JUMP JUMPDEST SWAP2 SWAP1 POP SSTORE POP PUSH1 0x0 DUP1 SWAP3 POP SWAP3 POP POP PUSH2 0x1FA JUMP JUMPDEST DUP1 PUSH1 0x1 SWAP3 POP SWAP3 POP POP JUMPDEST SWAP2 POP SWAP2 JUMP JUMPDEST PUSH1 0x0 PUSH1 0x40 MLOAD SWAP1 POP SWAP1 JUMP JUMPDEST PUSH1 0x0 DUP1 REVERT JUMPDEST PUSH1 0x0 PUSH20 0xFFFFFFFFFFFFFFFFFFFFFFFFFFFFFFFFFFFFFFFF DUP3 AND SWAP1 POP SWAP2 SWAP1 POP JUMP JUMPDEST PUSH1 0x0 PUSH2 0x239 DUP3 PUSH2 0x20E JUMP JUMPDEST SWAP1 POP SWAP2 SWAP1 POP JUMP JUMPDEST PUSH2 0x249 DUP2 PUSH2 0x22E JUMP JUMPDEST DUP2 EQ PUSH2 0x254 JUMPI PUSH1 0x0 DUP1 REVERT JUMPDEST POP JUMP JUMPDEST PUSH1 0x0 DUP2 CALLDATALOAD SWAP1 POP PUSH2 0x266 DUP2 PUSH2 0x240 JUMP JUMPDEST SWAP3 SWAP2 POP POP JUMP JUMPDEST PUSH1 0x0 PUSH1 0x20 DUP3 DUP5 SUB SLT ISZERO PUSH2 0x282 JUMPI PUSH2 0x281 PUSH2 0x209 JUMP JUMPDEST JUMPDEST PUSH1 0x0 PUSH2 0x290 DUP5 DUP3 DUP6 ADD PUSH2 0x257 JUMP JUMPDEST SWAP2 POP POP SWAP3 SWAP2 POP POP JUMP JUMPDEST PUSH1 0x0 DUP2 SWAP1 POP SWAP2 SWAP1 POP JUMP JUMPDEST PUSH2 0x2AC DUP2 PUSH2 0x299 JUMP JUMPDEST DUP3 MSTORE POP POP JUMP JUMPDEST PUSH1 0x0 DUP2 ISZERO ISZERO SWAP1 POP SWAP2 SWAP1 POP JUMP JUMPDEST PUSH2 0x2C7 DUP2 PUSH2 0x2B2 JUMP JUMPDEST DUP3 MSTORE POP POP JUMP JUMPDEST PUSH1 0x0 PUSH1 0x40 DUP3 ADD SWAP1 POP PUSH2 0x2E2 PUSH1 0x0 DUP4 ADD DUP6 PUSH2 0x2A3 JUMP JUMPDEST PUSH2 0x2EF PUSH1 0x20 DUP4 ADD DUP5 PUSH2 0x2BE JUMP JUMPDEST SWAP4 SWAP3 POP POP POP JUMP JUMPDEST PUSH2 0x2FF DUP2 PUSH2 0x22E JUMP JUMPDEST DUP3 MSTORE POP POP JUMP JUMPDEST PUSH1 0x0 PUSH1 0x20 DUP3 ADD SWAP1 POP PUSH2 0x31A PUSH1 0x0 DUP4 ADD DUP5 PUSH2 0x2F6 JUMP JUMPDEST SWAP3 SWAP2 POP POP JUMP JUMPDEST PUSH2 0x329 DUP2 PUSH2 0x299 JUMP JUMPDEST DUP2 EQ PUSH2 0x334 JUMPI PUSH1 0x0 DUP1 REVERT JUMPDEST POP JUMP JUMPDEST PUSH1 0x0 DUP2 MLOAD SWAP1 POP PUSH2 0x346 DUP2 PUSH2 0x320 JUMP JUMPDEST SWAP3 SWAP2 POP POP JUMP JUMPDEST PUSH1 0x0 PUSH1 0x20 DUP3 DUP5 SUB SLT ISZERO PUSH2 0x362 JUMPI PUSH2 0x361 PUSH2 0x209 JUMP JUMPDEST JUMPDEST PUSH1 0x0 PUSH2 0x370 DUP5 DUP3 DUP6 ADD PUSH2 0x337 JUMP JUMPDEST SWAP2 POP POP SWAP3 SWAP2 POP POP JUMP JUMPDEST PUSH1 0x0 DUP2 PUSH1 0xE0 SHR SWAP1 POP SWAP2 SWAP1 POP JUMP JUMPDEST PUSH1 0x0 PUSH1 0x3 RETURNDATASIZE GT ISZERO PUSH2 0x3A5 JUMPI PUSH1 0x4 PUSH1 0x0 DUP1 RETURNDATACOPY PUSH2 0x3A2 PUSH1 0x0 MLOAD PUSH2 0x379 JUMP JUMPDEST SWAP1 POP JUMPDEST SWAP1 JUMP JUMPDEST PUSH1 0x0 PUSH1 0x1F NOT PUSH1 0x1F DUP4 ADD AND SWAP1 POP SWAP2 SWAP1 POP JUMP JUMPDEST PUSH32 0x4E487B7100000000000000000000000000000000000000000000000000000000 PUSH1 0x0 MSTORE PUSH1 0x41 PUSH1 0x4 MSTORE PUSH1 0x24 PUSH1 0x0 REVERT JUMPDEST PUSH2 0x3F1 DUP3 PUSH2 0x3A8 JUMP JUMPDEST DUP2 ADD DUP2 DUP2 LT PUSH8 0xFFFFFFFFFFFFFFFF DUP3 GT OR ISZERO PUSH2 0x410 JUMPI PUSH2 0x40F PUSH2 0x3B9 JUMP JUMPDEST JUMPDEST DUP1 PUSH1 0x40 MSTORE POP POP POP JUMP JUMPDEST PUSH1 0x0 PUSH1 0x44 RETURNDATASIZE LT PUSH2 0x4A6 JUMPI PUSH2 0x42B PUSH2 0x1FF JUMP JUMPDEST PUSH1 0x4 RETURNDATASIZE SUB PUSH1 0x4 DUP3 RETURNDATACOPY DUP1 MLOAD RETURNDATASIZE PUSH1 0x24 DUP3 ADD GT PUSH8 0xFFFFFFFFFFFFFFFF DUP3 GT OR ISZERO PUSH2 0x453 JUMPI POP POP PUSH2 0x4A6 JUMP JUMPDEST DUP1 DUP3 ADD DUP1 MLOAD PUSH8 0xFFFFFFFFFFFFFFFF DUP2 GT ISZERO PUSH2 0x471 JUMPI POP POP POP POP PUSH2 0x4A6 JUMP JUMPDEST DUP1 PUSH1 0x20 DUP4 ADD ADD PUSH1 0x4 RETURNDATASIZE SUB DUP6 ADD DUP2 GT ISZERO PUSH2 0x48E JUMPI POP POP POP POP POP PUSH2 0x4A6 JUMP JUMPDEST PUSH2 0x49D DUP3 PUSH1 0x20 ADD DUP6 ADD DUP7 PUSH2 0x3E8 JUMP JUMPDEST DUP3 SWAP6 POP POP POP POP POP POP JUMPDEST SWAP1 JUMP JUMPDEST PUSH32 0x4E487B7100000000000000000000000000000000000000000000000000000000 PUSH1 0x0 MSTORE PUSH1 0x11 PUSH1 0x4 MSTORE PUSH1 0x24 PUSH1 0x0 REVERT JUMPDEST PUSH1 0x0 PUSH2 0x4E3 DUP3 PUSH2 0x299 JUMP JUMPDEST SWAP2 POP PUSH32 0xFFFFFFFFFFFFFFFFFFFFFFFFFFFFFFFFFFFFFFFFFFFFFFFFFFFFFFFFFFFFFFFF DUP3 SUB PUSH2 0x515 JUMPI PUSH2 0x514 PUSH2 0x4A9 JUMP JUMPDEST JUMPDEST PUSH1 0x1 DUP3 ADD SWAP1 POP SWAP2 SWAP1 POP JUMP JUMPDEST PUSH1 0x0 DUP1 PUSH1 0x23 RETURNDATASIZE GT ISZERO PUSH2 0x53D JUMPI PUSH1 0x20 PUSH1 0x4 PUSH1 0x0 RETURNDATACOPY PUSH1 0x1 SWAP2 POP PUSH1 0x0 MLOAD SWAP1 POP JUMPDEST SWAP1 SWAP2 JUMP INVALID LOG2 PUSH5 0x6970667358 0x22 SLT KECCAK256 RETURN 0xD1 PUSH28 0xC3807BDB39B1CFD9223D6D24899AA499BF94678F74EE16A2971908A5 0x4B PUSH5 0x736F6C6343 STOP ADDMOD SLT STOP CALLER "
		},
		"gasEstimates": {
			"creation": {
				"codeDepositCost": "279800",
				"executionCost": "318",
				"totalCost": "280118"
			},
			"external": {
				"rate(address)": "infinite"
			}
		},
		"methodIdentifiers": {
			"rate(address)": "0ba9d8ca"
		}
	},
	"abi": [
		{
			"inputs": [
				{
					"internalType": "address",
					"name": "token",
					"type": "address"
				}
			],
			"name": "rate",
			"outputs": [
				{
					"internalType": "uint256",
					"name": "value",
					"type": "uint256"
				},
				{
					"internalType": "bool",
					"name": "success",
					"type": "bool"
				}
			],
			"stateMutability": "nonpayable",
			"type": "function"
		}
	]
}