{
	"data": {
		"bytecode": {
			"linkReferences": {},
			"object": "608060405234801561001057600080fd5b50610396806100206000396000f3fe608060405234801561001057600080fd5b50600436106100365760003560e01c8063a1dda3381461003b578063b0f373f914610057575b600080fd5b610055600480360381019061005091906101bd565b610061565b005b61005f6100e9565b005b6f219ab540356cbb839cbe05303d7705fa73ffffffffffffffffffffffffffffffffffffffff163373ffffffffffffffffffffffffffffffffffffffff16146100df576040517f08c379a00000000000000000000000000000000000000000000000000000000081526004016100d690610247565b60405180910390fd5b8060008190555050565b6f219ab540356cbb839cbe05303d7705fa73ffffffffffffffffffffffffffffffffffffffff1663d72d67703073ffffffffffffffffffffffffffffffffffffffff1663a1dda3386040518363ffffffff1660e01b815260040161014e929190610330565b600060405180830381600087803b15801561016857600080fd5b505af115801561017c573d6000803e3d6000fd5b50505050565b600080fd5b6000819050919050565b61019a81610187565b81146101a557600080fd5b50565b6000813590506101b781610191565b92915050565b6000602082840312156101d3576101d2610182565b5b60006101e1848285016101a8565b91505092915050565b600082825260208201905092915050565b7f4f6e6c79206f7261636c652063616e2063616c6c20746869732e000000000000600082015250565b6000610231601a836101ea565b915061023c826101fb565b602082019050919050565b6000602082019050818103600083015261026081610224565b9050919050565b600082825260208201905092915050565b7f5553440000000000000000000000000000000000000000000000000000000000600082015250565b60006102ae600383610267565b91506102b982610278565b602082019050919050565b60008160201b9050919050565b60008160401b9050919050565b60006102f963ffffffff84166102f3846102c4565b176102d1565b905092915050565b6000808291508390509250929050565b61031b8282610301565b9250905061032982826102de565b8352505050565b60006040820190508181036000830152610349816102a1565b9050610359602083018486610311565b939250505056fea26469706673582212200fa87e12c8bcd2ccaa543b99e6c8eadd5852fcb70098569cc0706fbc8d22caba64736f6c63430008120033",
			"opcodes": "PUSH1 0x80 PUSH1 0x40 MSTORE CALLVALUE DUP1 ISZERO PUSH2 0x10 JUMPI PUSH1 0x0 DUP1 REVERT JUMPDEST POP PUSH2 0x396 DUP1 PUSH2 0x20 PUSH1 0x0 CODECOPY PUSH1 0x0 RETURN INVALID PUSH1 0x80 PUSH1 0x40 MSTORE CALLVALUE DUP1 ISZERO PUSH2 0x10 JUMPI PUSH1 0x0 DUP1 REVERT JUMPDEST POP PUSH1 0x4 CALLDATASIZE LT PUSH2 0x36 JUMPI PUSH1 0x0 CALLDATALOAD PUSH1 0xE0 SHR DUP1 PUSH4 0xA1DDA338 EQ PUSH2 0x3B JUMPI DUP1 PUSH4 0xB0F373F9 EQ PUSH2 0x57 JUMPI JUMPDEST PUSH1 0x0 DUP1 REVERT JUMPDEST PUSH2 0x55 PUSH1 0x4 DUP1 CALLDATASIZE SUB DUP2 ADD SWAP1 PUSH2 0x50 SWAP2 SWAP1 PUSH2 0x1BD JUMP JUMPDEST PUSH2 0x61 JUMP JUMPDEST STOP JUMPDEST PUSH2 0x5F PUSH2 0xE9 JUMP JUMPDEST STOP JUMPDEST PUSH16 0x219AB540356CBB839CBE05303D7705FA PUSH20 0xFFFFFFFFFFFFFFFFFFFFFFFFFFFFFFFFFFFFFFFF AND CALLER PUSH20 0xFFFFFFFFFFFFFFFFFFFFFFFFFFFFFFFFFFFFFFFF AND EQ PUSH2 0xDF JUMPI PUSH1 0x40 MLOAD PUSH32 0x8C379A000000000000000000000000000000000000000000000000000000000 DUP2 MSTORE PUSH1 0x4 ADD PUSH2 0xD6 SWAP1 PUSH2 0x247 JUMP JUMPDEST PUSH1 0x40 MLOAD DUP1 SWAP2 SUB SWAP1 REVERT JUMPDEST DUP1 PUSH1 0x0 DUP2 SWAP1 SSTORE POP POP JUMP JUMPDEST PUSH16 0x219AB540356CBB839CBE05303D7705FA PUSH20 0xFFFFFFFFFFFFFFFFFFFFFFFFFFFFFFFFFFFFFFFF AND PUSH4 0xD72D6770 ADDRESS PUSH20 0xFFFFFFFFFFFFFFFFFFFFFFFFFFFFFFFFFFFFFFFF AND PUSH4 0xA1DDA338 PUSH1 0x40 MLOAD DUP4 PUSH4 0xFFFFFFFF AND PUSH1 0xE0 SHL DUP2 MSTORE PUSH1 0x4 ADD PUSH2 0x14E SWAP3 SWAP2 SWAP1 PUSH2 0x330 JUMP JUMPDEST PUSH1 0x0 PUSH1 0x40 MLOAD DUP1 DUP4 SUB DUP2 PUSH1 0x0 DUP8 DUP1 EXTCODESIZE ISZERO DUP1 ISZERO PUSH2 0x168 JUMPI PUSH1 0x0 DUP1 REVERT JUMPDEST POP GAS CALL ISZERO DUP1 ISZERO PUSH2 0x17C JUMPI RETURNDATASIZE PUSH1 0x0 DUP1 RETURNDATACOPY RETURNDATASIZE PUSH1 0x0 REVERT JUMPDEST POP POP POP POP JUMP JUMPDEST PUSH1 0x0 DUP1 REVERT JUMPDEST PUSH1 0x0 DUP2 SWAP1 POP SWAP2 SWAP1 POP JUMP JUMPDEST PUSH2 0x19A DUP2 PUSH2 0x187 JUMP JUMPDEST DUP2 EQ PUSH2 0x1A5 JUMPI PUSH1 0x0 DUP1 REVERT JUMPDEST POP JUMP JUMPDEST PUSH1 0x0 DUP2 CALLDATALOAD SWAP1 POP PUSH2 0x1B7 DUP2 PUSH2 0x191 JUMP JUMPDEST SWAP3 SWAP2 POP POP JUMP JUMPDEST PUSH1 0x0 PUSH1 0x20 DUP3 DUP5 SUB SLT ISZERO PUSH2 0x1D3 JUMPI PUSH2 0x1D2 PUSH2 0x182 JUMP JUMPDEST JUMPDEST PUSH1 0x0 PUSH2 0x1E1 DUP5 DUP3 DUP6 ADD PUSH2 0x1A8 JUMP JUMPDEST SWAP2 POP POP SWAP3 SWAP2 POP POP JUMP JUMPDEST PUSH1 0x0 DUP3 DUP3 MSTORE PUSH1 0x20 DUP3 ADD SWAP1 POP SWAP3 SWAP2 POP POP JUMP JUMPDEST PUSH32 0x4F6E6C79206F7261636C652063616E2063616C6C20746869732E000000000000 PUSH1 0x0 DUP3 ADD MSTORE POP JUMP JUMPDEST PUSH1 0x0 PUSH2 0x231 PUSH1 0x1A DUP4 PUSH2 0x1EA JUMP JUMPDEST SWAP2 POP PUSH2 0x23C DUP3 PUSH2 0x1FB JUMP JUMPDEST PUSH1 0x20 DUP3 ADD SWAP1 POP SWAP2 SWAP1 POP JUMP JUMPDEST PUSH1 0x0 PUSH1 0x20 DUP3 ADD SWAP1 POP DUP2 DUP2 SUB PUSH1 0x0 DUP4 ADD MSTORE PUSH2 0x260 DUP2 PUSH2 0x224 JUMP JUMPDEST SWAP1 POP SWAP2 SWAP1 POP JUMP JUMPDEST PUSH1 0x0 DUP3 DUP3 MSTORE PUSH1 0x20 DUP3 ADD SWAP1 POP SWAP3 SWAP2 POP POP JUMP JUMPDEST PUSH32 0x5553440000000000000000000000000000000000000000000000000000000000 PUSH1 0x0 DUP3 ADD MSTORE POP JUMP JUMPDEST PUSH1 0x0 PUSH2 0x2AE PUSH1 0x3 DUP4 PUSH2 0x267 JUMP JUMPDEST SWAP2 POP PUSH2 0x2B9 DUP3 PUSH2 0x278 JUMP JUMPDEST PUSH1 0x20 DUP3 ADD SWAP1 POP SWAP2 SWAP1 POP JUMP JUMPDEST PUSH1 0x0 DUP2 PUSH1 0x20 SHL SWAP1 POP SWAP2 SWAP1 POP JUMP JUMPDEST PUSH1 0x0 DUP2 PUSH1 0x40 SHL SWAP1 POP SWAP2 SWAP1 POP JUMP JUMPDEST PUSH1 0x0 PUSH2 0x2F9 PUSH4 0xFFFFFFFF DUP5 AND PUSH2 0x2F3 DUP5 PUSH2 0x2C4 JUMP JUMPDEST OR PUSH2 0x2D1 JUMP JUMPDEST SWAP1 POP SWAP3 SWAP2 POP POP JUMP JUMPDEST PUSH1 0x0 DUP1 DUP3 SWAP2 POP DUP4 SWAP1 POP SWAP3 POP SWAP3 SWAP1 POP JUMP JUMPDEST PUSH2 0x31B DUP3 DUP3 PUSH2 0x301 JUMP JUMPDEST SWAP3 POP SWAP1 POP PUSH2 0x329 DUP3 DUP3 PUSH2 0x2DE JUMP JUMPDEST DUP4 MSTORE POP POP POP JUMP JUMPDEST PUSH1 0x0 PUSH1 0x40 DUP3 ADD SWAP1 POP DUP2 DUP2 SUB PUSH1 0x0 DUP4 ADD MSTORE PUSH2 0x349 DUP2 PUSH2 0x2A1 JUMP JUMPDEST SWAP1 POP PUSH2 0x359 PUSH1 0x20 DUP4 ADD DUP5 DUP7 PUSH2 0x311 JUMP JUMPDEST SWAP4 SWAP3 POP POP POP JUMP INVALID LOG2 PUSH5 0x6970667358 0x22 SLT KECCAK256 0xF 0xA8 PUSH31 0x12C8BCD2CCAA543B99E6C8EADD5852FCB70098569CC0706FBC8D22CABA6473 PUSH16 0x6C634300081200330000000000000000 "
		},
		"gasEstimates": {
			"creation": {
				"codeDepositCost": "183600",
				"executionCost": "226",
				"totalCost": "183826"
			},
			"external": {
				"buySomething()": "infinite",
				"oracleResponse(uint256)": "22532"
			}
		},
		"methodIdentifiers": {
			"buySomething()": "b0f373f9",
			"oracleResponse(uint256)": "a1dda338"
		}
	},
	"abi": [
		{
			"inputs": [],
			"name": "buySomething",
			"outputs": [],
			"stateMutability": "nonpayable",
			"type": "function"
		},
		{
			"inputs": [
				{
					"internalType": "uint256",
					"name": "response",
					"type": "uint256"
				}
			],
			"name": "oracleResponse",
			"outputs": [],
			"stateMutability": "nonpayable",
			"type": "function"
		}
	]
}