{
	"data": {
		"bytecode": {
			"linkReferences": {},
			"object": "608060405234801561000f575f80fd5b506105e38061001d5f395ff3fe608060405260043610610027575f3560e01c80627743601461002b5780631cff79cd1461005b575b5f80fd5b61004560048036038101906100409190610328565b610077565b60405161005291906103ae565b60405180910390f35b610075600480360381019061007091906103f1565b61012c565b005b5f81516020830134f090505f73ffffffffffffffffffffffffffffffffffffffff168173ffffffffffffffffffffffffffffffffffffffff16036100f0576040517f08c379a00000000000000000000000000000000000000000000000000000000081526004016100e7906104a5565b60405180910390fd5b7f55ea6c6b31543d8e2ec6a72f71a79c0f4b72ed0d4757172b043d8f4f4cd848488160405161011f91906103ae565b60405180910390a1919050565b5f8273ffffffffffffffffffffffffffffffffffffffff163483604051610153919061052f565b5f6040518083038185875af1925050503d805f811461018d576040519150601f19603f3d011682016040523d82523d5f602084013e610192565b606091505b50509050806101d6576040517f08c379a00000000000000000000000000000000000000000000000000000000081526004016101cd9061058f565b60405180910390fd5b505050565b5f604051905090565b5f80fd5b5f80fd5b5f80fd5b5f80fd5b5f601f19601f8301169050919050565b7f4e487b71000000000000000000000000000000000000000000000000000000005f52604160045260245ffd5b61023a826101f4565b810181811067ffffffffffffffff8211171561025957610258610204565b5b80604052505050565b5f61026b6101db565b90506102778282610231565b919050565b5f67ffffffffffffffff82111561029657610295610204565b5b61029f826101f4565b9050602081019050919050565b828183375f83830152505050565b5f6102cc6102c78461027c565b610262565b9050828152602081018484840111156102e8576102e76101f0565b5b6102f38482856102ac565b509392505050565b5f82601f83011261030f5761030e6101ec565b5b813561031f8482602086016102ba565b91505092915050565b5f6020828403121561033d5761033c6101e4565b5b5f82013567ffffffffffffffff81111561035a576103596101e8565b5b610366848285016102fb565b91505092915050565b5f73ffffffffffffffffffffffffffffffffffffffff82169050919050565b5f6103988261036f565b9050919050565b6103a88161038e565b82525050565b5f6020820190506103c15f83018461039f565b92915050565b6103d08161038e565b81146103da575f80fd5b50565b5f813590506103eb816103c7565b92915050565b5f8060408385031215610407576104066101e4565b5b5f610414858286016103dd565b925050602083013567ffffffffffffffff811115610435576104346101e8565b5b610441858286016102fb565b9150509250929050565b5f82825260208201905092915050565b7f6465706c6f79206661696c6400000000000000000000000000000000000000005f82015250565b5f61048f600c8361044b565b915061049a8261045b565b602082019050919050565b5f6020820190508181035f8301526104bc81610483565b9050919050565b5f81519050919050565b5f81905092915050565b5f5b838110156104f45780820151818401526020810190506104d9565b5f8484015250505050565b5f610509826104c3565b61051381856104cd565b93506105238185602086016104d7565b80840191505092915050565b5f61053a82846104ff565b915081905092915050565b7f6661696c656400000000000000000000000000000000000000000000000000005f82015250565b5f61057960068361044b565b915061058482610545565b602082019050919050565b5f6020820190508181035f8301526105a68161056d565b905091905056fea264697066735822122045d99d0d41389aa9cafeea99d60b522488f3fc4480c67cc29380523beae90e0264736f6c63430008150033",
			"opcodes": "PUSH1 0x80 PUSH1 0x40 MSTORE CALLVALUE DUP1 ISZERO PUSH2 0xF JUMPI PUSH0 DUP1 REVERT JUMPDEST POP PUSH2 0x5E3 DUP1 PUSH2 0x1D PUSH0 CODECOPY PUSH0 RETURN INVALID PUSH1 0x80 PUSH1 0x40 MSTORE PUSH1 0x4 CALLDATASIZE LT PUSH2 0x27 JUMPI PUSH0 CALLDATALOAD PUSH1 0xE0 SHR DUP1 PUSH3 0x774360 EQ PUSH2 0x2B JUMPI DUP1 PUSH4 0x1CFF79CD EQ PUSH2 0x5B JUMPI JUMPDEST PUSH0 DUP1 REVERT JUMPDEST PUSH2 0x45 PUSH1 0x4 DUP1 CALLDATASIZE SUB DUP2 ADD SWAP1 PUSH2 0x40 SWAP2 SWAP1 PUSH2 0x328 JUMP JUMPDEST PUSH2 0x77 JUMP JUMPDEST PUSH1 0x40 MLOAD PUSH2 0x52 SWAP2 SWAP1 PUSH2 0x3AE JUMP JUMPDEST PUSH1 0x40 MLOAD DUP1 SWAP2 SUB SWAP1 RETURN JUMPDEST PUSH2 0x75 PUSH1 0x4 DUP1 CALLDATASIZE SUB DUP2 ADD SWAP1 PUSH2 0x70 SWAP2 SWAP1 PUSH2 0x3F1 JUMP JUMPDEST PUSH2 0x12C JUMP JUMPDEST STOP JUMPDEST PUSH0 DUP2 MLOAD PUSH1 0x20 DUP4 ADD CALLVALUE CREATE SWAP1 POP PUSH0 PUSH20 0xFFFFFFFFFFFFFFFFFFFFFFFFFFFFFFFFFFFFFFFF AND DUP2 PUSH20 0xFFFFFFFFFFFFFFFFFFFFFFFFFFFFFFFFFFFFFFFF AND SUB PUSH2 0xF0 JUMPI PUSH1 0x40 MLOAD PUSH32 0x8C379A000000000000000000000000000000000000000000000000000000000 DUP2 MSTORE PUSH1 0x4 ADD PUSH2 0xE7 SWAP1 PUSH2 0x4A5 JUMP JUMPDEST PUSH1 0x40 MLOAD DUP1 SWAP2 SUB SWAP1 REVERT JUMPDEST PUSH32 0x55EA6C6B31543D8E2EC6A72F71A79C0F4B72ED0D4757172B043D8F4F4CD84848 DUP2 PUSH1 0x40 MLOAD PUSH2 0x11F SWAP2 SWAP1 PUSH2 0x3AE JUMP JUMPDEST PUSH1 0x40 MLOAD DUP1 SWAP2 SUB SWAP1 LOG1 SWAP2 SWAP1 POP JUMP JUMPDEST PUSH0 DUP3 PUSH20 0xFFFFFFFFFFFFFFFFFFFFFFFFFFFFFFFFFFFFFFFF AND CALLVALUE DUP4 PUSH1 0x40 MLOAD PUSH2 0x153 SWAP2 SWAP1 PUSH2 0x52F JUMP JUMPDEST PUSH0 PUSH1 0x40 MLOAD DUP1 DUP4 SUB DUP2 DUP6 DUP8 GAS CALL SWAP3 POP POP POP RETURNDATASIZE DUP1 PUSH0 DUP2 EQ PUSH2 0x18D JUMPI PUSH1 0x40 MLOAD SWAP2 POP PUSH1 0x1F NOT PUSH1 0x3F RETURNDATASIZE ADD AND DUP3 ADD PUSH1 0x40 MSTORE RETURNDATASIZE DUP3 MSTORE RETURNDATASIZE PUSH0 PUSH1 0x20 DUP5 ADD RETURNDATACOPY PUSH2 0x192 JUMP JUMPDEST PUSH1 0x60 SWAP2 POP JUMPDEST POP POP SWAP1 POP DUP1 PUSH2 0x1D6 JUMPI PUSH1 0x40 MLOAD PUSH32 0x8C379A000000000000000000000000000000000000000000000000000000000 DUP2 MSTORE PUSH1 0x4 ADD PUSH2 0x1CD SWAP1 PUSH2 0x58F JUMP JUMPDEST PUSH1 0x40 MLOAD DUP1 SWAP2 SUB SWAP1 REVERT JUMPDEST POP POP POP JUMP JUMPDEST PUSH0 PUSH1 0x40 MLOAD SWAP1 POP SWAP1 JUMP JUMPDEST PUSH0 DUP1 REVERT JUMPDEST PUSH0 DUP1 REVERT JUMPDEST PUSH0 DUP1 REVERT JUMPDEST PUSH0 DUP1 REVERT JUMPDEST PUSH0 PUSH1 0x1F NOT PUSH1 0x1F DUP4 ADD AND SWAP1 POP SWAP2 SWAP1 POP JUMP JUMPDEST PUSH32 0x4E487B7100000000000000000000000000000000000000000000000000000000 PUSH0 MSTORE PUSH1 0x41 PUSH1 0x4 MSTORE PUSH1 0x24 PUSH0 REVERT JUMPDEST PUSH2 0x23A DUP3 PUSH2 0x1F4 JUMP JUMPDEST DUP2 ADD DUP2 DUP2 LT PUSH8 0xFFFFFFFFFFFFFFFF DUP3 GT OR ISZERO PUSH2 0x259 JUMPI PUSH2 0x258 PUSH2 0x204 JUMP JUMPDEST JUMPDEST DUP1 PUSH1 0x40 MSTORE POP POP POP JUMP JUMPDEST PUSH0 PUSH2 0x26B PUSH2 0x1DB JUMP JUMPDEST SWAP1 POP PUSH2 0x277 DUP3 DUP3 PUSH2 0x231 JUMP JUMPDEST SWAP2 SWAP1 POP JUMP JUMPDEST PUSH0 PUSH8 0xFFFFFFFFFFFFFFFF DUP3 GT ISZERO PUSH2 0x296 JUMPI PUSH2 0x295 PUSH2 0x204 JUMP JUMPDEST JUMPDEST PUSH2 0x29F DUP3 PUSH2 0x1F4 JUMP JUMPDEST SWAP1 POP PUSH1 0x20 DUP2 ADD SWAP1 POP SWAP2 SWAP1 POP JUMP JUMPDEST DUP3 DUP2 DUP4 CALLDATACOPY PUSH0 DUP4 DUP4 ADD MSTORE POP POP POP JUMP JUMPDEST PUSH0 PUSH2 0x2CC PUSH2 0x2C7 DUP5 PUSH2 0x27C JUMP JUMPDEST PUSH2 0x262 JUMP JUMPDEST SWAP1 POP DUP3 DUP2 MSTORE PUSH1 0x20 DUP2 ADD DUP5 DUP5 DUP5 ADD GT ISZERO PUSH2 0x2E8 JUMPI PUSH2 0x2E7 PUSH2 0x1F0 JUMP JUMPDEST JUMPDEST PUSH2 0x2F3 DUP5 DUP3 DUP6 PUSH2 0x2AC JUMP JUMPDEST POP SWAP4 SWAP3 POP POP POP JUMP JUMPDEST PUSH0 DUP3 PUSH1 0x1F DUP4 ADD SLT PUSH2 0x30F JUMPI PUSH2 0x30E PUSH2 0x1EC JUMP JUMPDEST JUMPDEST DUP2 CALLDATALOAD PUSH2 0x31F DUP5 DUP3 PUSH1 0x20 DUP7 ADD PUSH2 0x2BA JUMP JUMPDEST SWAP2 POP POP SWAP3 SWAP2 POP POP JUMP JUMPDEST PUSH0 PUSH1 0x20 DUP3 DUP5 SUB SLT ISZERO PUSH2 0x33D JUMPI PUSH2 0x33C PUSH2 0x1E4 JUMP JUMPDEST JUMPDEST PUSH0 DUP3 ADD CALLDATALOAD PUSH8 0xFFFFFFFFFFFFFFFF DUP2 GT ISZERO PUSH2 0x35A JUMPI PUSH2 0x359 PUSH2 0x1E8 JUMP JUMPDEST JUMPDEST PUSH2 0x366 DUP5 DUP3 DUP6 ADD PUSH2 0x2FB JUMP JUMPDEST SWAP2 POP POP SWAP3 SWAP2 POP POP JUMP JUMPDEST PUSH0 PUSH20 0xFFFFFFFFFFFFFFFFFFFFFFFFFFFFFFFFFFFFFFFF DUP3 AND SWAP1 POP SWAP2 SWAP1 POP JUMP JUMPDEST PUSH0 PUSH2 0x398 DUP3 PUSH2 0x36F JUMP JUMPDEST SWAP1 POP SWAP2 SWAP1 POP JUMP JUMPDEST PUSH2 0x3A8 DUP2 PUSH2 0x38E JUMP JUMPDEST DUP3 MSTORE POP POP JUMP JUMPDEST PUSH0 PUSH1 0x20 DUP3 ADD SWAP1 POP PUSH2 0x3C1 PUSH0 DUP4 ADD DUP5 PUSH2 0x39F JUMP JUMPDEST SWAP3 SWAP2 POP POP JUMP JUMPDEST PUSH2 0x3D0 DUP2 PUSH2 0x38E JUMP JUMPDEST DUP2 EQ PUSH2 0x3DA JUMPI PUSH0 DUP1 REVERT JUMPDEST POP JUMP JUMPDEST PUSH0 DUP2 CALLDATALOAD SWAP1 POP PUSH2 0x3EB DUP2 PUSH2 0x3C7 JUMP JUMPDEST SWAP3 SWAP2 POP POP JUMP JUMPDEST PUSH0 DUP1 PUSH1 0x40 DUP4 DUP6 SUB SLT ISZERO PUSH2 0x407 JUMPI PUSH2 0x406 PUSH2 0x1E4 JUMP JUMPDEST JUMPDEST PUSH0 PUSH2 0x414 DUP6 DUP3 DUP7 ADD PUSH2 0x3DD JUMP JUMPDEST SWAP3 POP POP PUSH1 0x20 DUP4 ADD CALLDATALOAD PUSH8 0xFFFFFFFFFFFFFFFF DUP2 GT ISZERO PUSH2 0x435 JUMPI PUSH2 0x434 PUSH2 0x1E8 JUMP JUMPDEST JUMPDEST PUSH2 0x441 DUP6 DUP3 DUP7 ADD PUSH2 0x2FB JUMP JUMPDEST SWAP2 POP POP SWAP3 POP SWAP3 SWAP1 POP JUMP JUMPDEST PUSH0 DUP3 DUP3 MSTORE PUSH1 0x20 DUP3 ADD SWAP1 POP SWAP3 SWAP2 POP POP JUMP JUMPDEST PUSH32 0x6465706C6F79206661696C640000000000000000000000000000000000000000 PUSH0 DUP3 ADD MSTORE POP JUMP JUMPDEST PUSH0 PUSH2 0x48F PUSH1 0xC DUP4 PUSH2 0x44B JUMP JUMPDEST SWAP2 POP PUSH2 0x49A DUP3 PUSH2 0x45B JUMP JUMPDEST PUSH1 0x20 DUP3 ADD SWAP1 POP SWAP2 SWAP1 POP JUMP JUMPDEST PUSH0 PUSH1 0x20 DUP3 ADD SWAP1 POP DUP2 DUP2 SUB PUSH0 DUP4 ADD MSTORE PUSH2 0x4BC DUP2 PUSH2 0x483 JUMP JUMPDEST SWAP1 POP SWAP2 SWAP1 POP JUMP JUMPDEST PUSH0 DUP2 MLOAD SWAP1 POP SWAP2 SWAP1 POP JUMP JUMPDEST PUSH0 DUP2 SWAP1 POP SWAP3 SWAP2 POP POP JUMP JUMPDEST PUSH0 JUMPDEST DUP4 DUP2 LT ISZERO PUSH2 0x4F4 JUMPI DUP1 DUP3 ADD MLOAD DUP2 DUP5 ADD MSTORE PUSH1 0x20 DUP2 ADD SWAP1 POP PUSH2 0x4D9 JUMP JUMPDEST PUSH0 DUP5 DUP5 ADD MSTORE POP POP POP POP JUMP JUMPDEST PUSH0 PUSH2 0x509 DUP3 PUSH2 0x4C3 JUMP JUMPDEST PUSH2 0x513 DUP2 DUP6 PUSH2 0x4CD JUMP JUMPDEST SWAP4 POP PUSH2 0x523 DUP2 DUP6 PUSH1 0x20 DUP7 ADD PUSH2 0x4D7 JUMP JUMPDEST DUP1 DUP5 ADD SWAP2 POP POP SWAP3 SWAP2 POP POP JUMP JUMPDEST PUSH0 PUSH2 0x53A DUP3 DUP5 PUSH2 0x4FF JUMP JUMPDEST SWAP2 POP DUP2 SWAP1 POP SWAP3 SWAP2 POP POP JUMP JUMPDEST PUSH32 0x6661696C65640000000000000000000000000000000000000000000000000000 PUSH0 DUP3 ADD MSTORE POP JUMP JUMPDEST PUSH0 PUSH2 0x579 PUSH1 0x6 DUP4 PUSH2 0x44B JUMP JUMPDEST SWAP2 POP PUSH2 0x584 DUP3 PUSH2 0x545 JUMP JUMPDEST PUSH1 0x20 DUP3 ADD SWAP1 POP SWAP2 SWAP1 POP JUMP JUMPDEST PUSH0 PUSH1 0x20 DUP3 ADD SWAP1 POP DUP2 DUP2 SUB PUSH0 DUP4 ADD MSTORE PUSH2 0x5A6 DUP2 PUSH2 0x56D JUMP JUMPDEST SWAP1 POP SWAP2 SWAP1 POP JUMP INVALID LOG2 PUSH5 0x6970667358 0x22 SLT KECCAK256 GASLIMIT 0xD9 SWAP14 0xD COINBASE CODESIZE SWAP11 0xA9 0xCA INVALID 0xEA SWAP10 0xD6 SIGNEXTEND MSTORE 0x24 DUP9 RETURN 0xFC PREVRANDAO DUP1 0xC6 PUSH29 0xC29380523BEAE90E0264736F6C63430008150033000000000000000000 "
		},
		"gasEstimates": {
			"creation": {
				"codeDepositCost": "301400",
				"executionCost": "341",
				"totalCost": "301741"
			},
			"external": {
				"deploy(bytes)": "infinite",
				"execute(address,bytes)": "infinite"
			}
		},
		"methodIdentifiers": {
			"deploy(bytes)": "00774360",
			"execute(address,bytes)": "1cff79cd"
		}
	},
	"abi": [
		{
			"anonymous": false,
			"inputs": [
				{
					"indexed": false,
					"internalType": "address",
					"name": "",
					"type": "address"
				}
			],
			"name": "Deploy",
			"type": "event"
		},
		{
			"inputs": [
				{
					"internalType": "bytes",
					"name": "_code",
					"type": "bytes"
				}
			],
			"name": "deploy",
			"outputs": [
				{
					"internalType": "address",
					"name": "addr",
					"type": "address"
				}
			],
			"stateMutability": "payable",
			"type": "function"
		},
		{
			"inputs": [
				{
					"internalType": "address",
					"name": "_target",
					"type": "address"
				},
				{
					"internalType": "bytes",
					"name": "_data",
					"type": "bytes"
				}
			],
			"name": "execute",
			"outputs": [],
			"stateMutability": "payable",
			"type": "function"
		}
	]
}