{
	"data": {
		"bytecode": {
			"linkReferences": {},
			"object": "6080604052600160005534801561001557600080fd5b50610b77806100256000396000f3fe6080604052600436106100705760003560e01c806375949c131161004e57806375949c13146100d85780637a927e8f146101085780637b8239fa14610131578063acd9fd651461013b57610070565b8063112a83ac146100755780632b639696146100a057806351e7e6d3146100bc575b600080fd5b34801561008157600080fd5b5061008a610164565b6040516100979190610629565b60405180910390f35b6100ba60048036038101906100b59190610675565b61016a565b005b6100d660048036038101906100d19190610675565b6101fd565b005b6100f260048036038101906100ed9190610700565b6102f0565b6040516100ff9190610629565b60405180910390f35b34801561011457600080fd5b5061012f600480360381019061012a9190610675565b6104a5565b005b6101396104d2565b005b34801561014757600080fd5b50610162600480360381019061015d9190610675565b6105b6565b005b60005481565b600081116101ad576040517f08c379a00000000000000000000000000000000000000000000000000000000081526004016101a49061078a565b60405180910390fd5b60003090508073ffffffffffffffffffffffffffffffffffffffff166108fc839081150290604051600060405180830381858888f193505050501580156101f8573d6000803e3d6000fd5b505050565b60008111610240576040517f08c379a0000000000000000000000000000000000000000000000000000000008152600401610237906107f6565b60405180910390fd5b60003073ffffffffffffffffffffffffffffffffffffffff168260405161026690610847565b60006040518083038185875af1925050503d80600081146102a3576040519150601f19603f3d011682016040523d82523d6000602084013e6102a8565b606091505b50509050806102ec576040517f08c379a00000000000000000000000000000000000000000000000000000000081526004016102e3906108a8565b60405180910390fd5b5050565b60007f5f91b0afd2c6ef8da92137ba907bccdc85ec4856a15ad39de3e0eff02be6d70e3360405161032191906108e9565b60405180910390a17f9905b744e1ac2c16b139dc8c0eca0ca4769bb0583128f9fab29c596e9db4910a346040516103589190610629565b60405180910390a1600060023461036f9190610933565b146103af576040517f08c379a00000000000000000000000000000000000000000000000000000000081526004016103a6906109b0565b60405180910390fd5b60004790507f9905b744e1ac2c16b139dc8c0eca0ca4769bb0583128f9fab29c596e9db4910a816040516103e39190610629565b60405180910390a18273ffffffffffffffffffffffffffffffffffffffff166108fc60023461041291906109ff565b9081150290604051600060405180830381858888f1935050505015801561043d573d6000803e3d6000fd5b5060023461044b91906109ff565b816104569190610a30565b471461046557610464610a64565b5b7f9905b744e1ac2c16b139dc8c0eca0ca4769bb0583128f9fab29c596e9db4910a476040516104949190610629565b60405180910390a147915050919050565b8060008190555060006064826104bb9190610a93565b9050606481106104ce576104cd610a64565b5b5050565b7f5f91b0afd2c6ef8da92137ba907bccdc85ec4856a15ad39de3e0eff02be6d70e3360405161050191906108e9565b60405180910390a17f9905b744e1ac2c16b139dc8c0eca0ca4769bb0583128f9fab29c596e9db4910a346040516105389190610629565b60405180910390a17f5f91b0afd2c6ef8da92137ba907bccdc85ec4856a15ad39de3e0eff02be6d70e3060405161056f91906108e9565b60405180910390a160004790507f9905b744e1ac2c16b139dc8c0eca0ca4769bb0583128f9fab29c596e9db4910a816040516105ab9190610629565b60405180910390a150565b8060008190555060648110610600576040517f08c379a00000000000000000000000000000000000000000000000000000000081526004016105f790610b21565b60405180910390fd5b6032811061060d57600080fd5b50565b6000819050919050565b61062381610610565b82525050565b600060208201905061063e600083018461061a565b92915050565b600080fd5b61065281610610565b811461065d57600080fd5b50565b60008135905061066f81610649565b92915050565b60006020828403121561068b5761068a610644565b5b600061069984828501610660565b91505092915050565b600073ffffffffffffffffffffffffffffffffffffffff82169050919050565b60006106cd826106a2565b9050919050565b6106dd816106c2565b81146106e857600080fd5b50565b6000813590506106fa816106d4565b92915050565b60006020828403121561071657610715610644565b5b6000610724848285016106eb565b91505092915050565b600082825260208201905092915050565b7f696e76616c6964207472616e7366657220616d6f756e74000000000000000000600082015250565b600061077460178361072d565b915061077f8261073e565b602082019050919050565b600060208201905081810360008301526107a381610767565b9050919050565b7f696e76616c69642063616c6c20616d6f756e7400000000000000000000000000600082015250565b60006107e060138361072d565b91506107eb826107aa565b602082019050919050565b6000602082019050818103600083015261080f816107d3565b9050919050565b600081905092915050565b50565b6000610831600083610816565b915061083c82610821565b600082019050919050565b600061085282610824565b9150819050919050565b7f63616c6c206661696c6564000000000000000000000000000000000000000000600082015250565b6000610892600b8361072d565b915061089d8261085c565b602082019050919050565b600060208201905081810360008301526108c181610885565b9050919050565b60006108d3826106a2565b9050919050565b6108e3816108c8565b82525050565b60006020820190506108fe60008301846108da565b92915050565b7f4e487b7100000000000000000000000000000000000000000000000000000000600052601260045260246000fd5b600061093e82610610565b915061094983610610565b92508261095957610958610904565b5b828206905092915050565b7f4576656e2076616c75652072657175697265642e000000000000000000000000600082015250565b600061099a60148361072d565b91506109a582610964565b602082019050919050565b600060208201905081810360008301526109c98161098d565b9050919050565b7f4e487b7100000000000000000000000000000000000000000000000000000000600052601160045260246000fd5b6000610a0a82610610565b9150610a1583610610565b925082610a2557610a24610904565b5b828204905092915050565b6000610a3b82610610565b9150610a4683610610565b9250828203905081811115610a5e57610a5d6109d0565b5b92915050565b7f4e487b7100000000000000000000000000000000000000000000000000000000600052600160045260246000fd5b6000610a9e82610610565b9150610aa983610610565b9250828202610ab781610610565b91508282048414831517610ace57610acd6109d0565b5b5092915050565b7f746869732061726720697320746f6f2062696700000000000000000000000000600082015250565b6000610b0b60138361072d565b9150610b1682610ad5565b602082019050919050565b60006020820190508181036000830152610b3a81610afe565b905091905056fea26469706673582212208c6c5bcf1c24a049d0d64d7d84c5c0a30d82c4681aea2c69473f1c7950a0787c64736f6c63430008120033",
			"opcodes": "PUSH1 0x80 PUSH1 0x40 MSTORE PUSH1 0x1 PUSH1 0x0 SSTORE CALLVALUE DUP1 ISZERO PUSH2 0x15 JUMPI PUSH1 0x0 DUP1 REVERT JUMPDEST POP PUSH2 0xB77 DUP1 PUSH2 0x25 PUSH1 0x0 CODECOPY PUSH1 0x0 RETURN INVALID PUSH1 0x80 PUSH1 0x40 MSTORE PUSH1 0x4 CALLDATASIZE LT PUSH2 0x70 JUMPI PUSH1 0x0 CALLDATALOAD PUSH1 0xE0 SHR DUP1 PUSH4 0x75949C13 GT PUSH2 0x4E JUMPI DUP1 PUSH4 0x75949C13 EQ PUSH2 0xD8 JUMPI DUP1 PUSH4 0x7A927E8F EQ PUSH2 0x108 JUMPI DUP1 PUSH4 0x7B8239FA EQ PUSH2 0x131 JUMPI DUP1 PUSH4 0xACD9FD65 EQ PUSH2 0x13B JUMPI PUSH2 0x70 JUMP JUMPDEST DUP1 PUSH4 0x112A83AC EQ PUSH2 0x75 JUMPI DUP1 PUSH4 0x2B639696 EQ PUSH2 0xA0 JUMPI DUP1 PUSH4 0x51E7E6D3 EQ PUSH2 0xBC JUMPI JUMPDEST PUSH1 0x0 DUP1 REVERT JUMPDEST CALLVALUE DUP1 ISZERO PUSH2 0x81 JUMPI PUSH1 0x0 DUP1 REVERT JUMPDEST POP PUSH2 0x8A PUSH2 0x164 JUMP JUMPDEST PUSH1 0x40 MLOAD PUSH2 0x97 SWAP2 SWAP1 PUSH2 0x629 JUMP JUMPDEST PUSH1 0x40 MLOAD DUP1 SWAP2 SUB SWAP1 RETURN JUMPDEST PUSH2 0xBA PUSH1 0x4 DUP1 CALLDATASIZE SUB DUP2 ADD SWAP1 PUSH2 0xB5 SWAP2 SWAP1 PUSH2 0x675 JUMP JUMPDEST PUSH2 0x16A JUMP JUMPDEST STOP JUMPDEST PUSH2 0xD6 PUSH1 0x4 DUP1 CALLDATASIZE SUB DUP2 ADD SWAP1 PUSH2 0xD1 SWAP2 SWAP1 PUSH2 0x675 JUMP JUMPDEST PUSH2 0x1FD JUMP JUMPDEST STOP JUMPDEST PUSH2 0xF2 PUSH1 0x4 DUP1 CALLDATASIZE SUB DUP2 ADD SWAP1 PUSH2 0xED SWAP2 SWAP1 PUSH2 0x700 JUMP JUMPDEST PUSH2 0x2F0 JUMP JUMPDEST PUSH1 0x40 MLOAD PUSH2 0xFF SWAP2 SWAP1 PUSH2 0x629 JUMP JUMPDEST PUSH1 0x40 MLOAD DUP1 SWAP2 SUB SWAP1 RETURN JUMPDEST CALLVALUE DUP1 ISZERO PUSH2 0x114 JUMPI PUSH1 0x0 DUP1 REVERT JUMPDEST POP PUSH2 0x12F PUSH1 0x4 DUP1 CALLDATASIZE SUB DUP2 ADD SWAP1 PUSH2 0x12A SWAP2 SWAP1 PUSH2 0x675 JUMP JUMPDEST PUSH2 0x4A5 JUMP JUMPDEST STOP JUMPDEST PUSH2 0x139 PUSH2 0x4D2 JUMP JUMPDEST STOP JUMPDEST CALLVALUE DUP1 ISZERO PUSH2 0x147 JUMPI PUSH1 0x0 DUP1 REVERT JUMPDEST POP PUSH2 0x162 PUSH1 0x4 DUP1 CALLDATASIZE SUB DUP2 ADD SWAP1 PUSH2 0x15D SWAP2 SWAP1 PUSH2 0x675 JUMP JUMPDEST PUSH2 0x5B6 JUMP JUMPDEST STOP JUMPDEST PUSH1 0x0 SLOAD DUP2 JUMP JUMPDEST PUSH1 0x0 DUP2 GT PUSH2 0x1AD JUMPI PUSH1 0x40 MLOAD PUSH32 0x8C379A000000000000000000000000000000000000000000000000000000000 DUP2 MSTORE PUSH1 0x4 ADD PUSH2 0x1A4 SWAP1 PUSH2 0x78A JUMP JUMPDEST PUSH1 0x40 MLOAD DUP1 SWAP2 SUB SWAP1 REVERT JUMPDEST PUSH1 0x0 ADDRESS SWAP1 POP DUP1 PUSH20 0xFFFFFFFFFFFFFFFFFFFFFFFFFFFFFFFFFFFFFFFF AND PUSH2 0x8FC DUP4 SWAP1 DUP2 ISZERO MUL SWAP1 PUSH1 0x40 MLOAD PUSH1 0x0 PUSH1 0x40 MLOAD DUP1 DUP4 SUB DUP2 DUP6 DUP9 DUP9 CALL SWAP4 POP POP POP POP ISZERO DUP1 ISZERO PUSH2 0x1F8 JUMPI RETURNDATASIZE PUSH1 0x0 DUP1 RETURNDATACOPY RETURNDATASIZE PUSH1 0x0 REVERT JUMPDEST POP POP POP JUMP JUMPDEST PUSH1 0x0 DUP2 GT PUSH2 0x240 JUMPI PUSH1 0x40 MLOAD PUSH32 0x8C379A000000000000000000000000000000000000000000000000000000000 DUP2 MSTORE PUSH1 0x4 ADD PUSH2 0x237 SWAP1 PUSH2 0x7F6 JUMP JUMPDEST PUSH1 0x40 MLOAD DUP1 SWAP2 SUB SWAP1 REVERT JUMPDEST PUSH1 0x0 ADDRESS PUSH20 0xFFFFFFFFFFFFFFFFFFFFFFFFFFFFFFFFFFFFFFFF AND DUP3 PUSH1 0x40 MLOAD PUSH2 0x266 SWAP1 PUSH2 0x847 JUMP JUMPDEST PUSH1 0x0 PUSH1 0x40 MLOAD DUP1 DUP4 SUB DUP2 DUP6 DUP8 GAS CALL SWAP3 POP POP POP RETURNDATASIZE DUP1 PUSH1 0x0 DUP2 EQ PUSH2 0x2A3 JUMPI PUSH1 0x40 MLOAD SWAP2 POP PUSH1 0x1F NOT PUSH1 0x3F RETURNDATASIZE ADD AND DUP3 ADD PUSH1 0x40 MSTORE RETURNDATASIZE DUP3 MSTORE RETURNDATASIZE PUSH1 0x0 PUSH1 0x20 DUP5 ADD RETURNDATACOPY PUSH2 0x2A8 JUMP JUMPDEST PUSH1 0x60 SWAP2 POP JUMPDEST POP POP SWAP1 POP DUP1 PUSH2 0x2EC JUMPI PUSH1 0x40 MLOAD PUSH32 0x8C379A000000000000000000000000000000000000000000000000000000000 DUP2 MSTORE PUSH1 0x4 ADD PUSH2 0x2E3 SWAP1 PUSH2 0x8A8 JUMP JUMPDEST PUSH1 0x40 MLOAD DUP1 SWAP2 SUB SWAP1 REVERT JUMPDEST POP POP JUMP JUMPDEST PUSH1 0x0 PUSH32 0x5F91B0AFD2C6EF8DA92137BA907BCCDC85EC4856A15AD39DE3E0EFF02BE6D70E CALLER PUSH1 0x40 MLOAD PUSH2 0x321 SWAP2 SWAP1 PUSH2 0x8E9 JUMP JUMPDEST PUSH1 0x40 MLOAD DUP1 SWAP2 SUB SWAP1 LOG1 PUSH32 0x9905B744E1AC2C16B139DC8C0ECA0CA4769BB0583128F9FAB29C596E9DB4910A CALLVALUE PUSH1 0x40 MLOAD PUSH2 0x358 SWAP2 SWAP1 PUSH2 0x629 JUMP JUMPDEST PUSH1 0x40 MLOAD DUP1 SWAP2 SUB SWAP1 LOG1 PUSH1 0x0 PUSH1 0x2 CALLVALUE PUSH2 0x36F SWAP2 SWAP1 PUSH2 0x933 JUMP JUMPDEST EQ PUSH2 0x3AF JUMPI PUSH1 0x40 MLOAD PUSH32 0x8C379A000000000000000000000000000000000000000000000000000000000 DUP2 MSTORE PUSH1 0x4 ADD PUSH2 0x3A6 SWAP1 PUSH2 0x9B0 JUMP JUMPDEST PUSH1 0x40 MLOAD DUP1 SWAP2 SUB SWAP1 REVERT JUMPDEST PUSH1 0x0 SELFBALANCE SWAP1 POP PUSH32 0x9905B744E1AC2C16B139DC8C0ECA0CA4769BB0583128F9FAB29C596E9DB4910A DUP2 PUSH1 0x40 MLOAD PUSH2 0x3E3 SWAP2 SWAP1 PUSH2 0x629 JUMP JUMPDEST PUSH1 0x40 MLOAD DUP1 SWAP2 SUB SWAP1 LOG1 DUP3 PUSH20 0xFFFFFFFFFFFFFFFFFFFFFFFFFFFFFFFFFFFFFFFF AND PUSH2 0x8FC PUSH1 0x2 CALLVALUE PUSH2 0x412 SWAP2 SWAP1 PUSH2 0x9FF JUMP JUMPDEST SWAP1 DUP2 ISZERO MUL SWAP1 PUSH1 0x40 MLOAD PUSH1 0x0 PUSH1 0x40 MLOAD DUP1 DUP4 SUB DUP2 DUP6 DUP9 DUP9 CALL SWAP4 POP POP POP POP ISZERO DUP1 ISZERO PUSH2 0x43D JUMPI RETURNDATASIZE PUSH1 0x0 DUP1 RETURNDATACOPY RETURNDATASIZE PUSH1 0x0 REVERT JUMPDEST POP PUSH1 0x2 CALLVALUE PUSH2 0x44B SWAP2 SWAP1 PUSH2 0x9FF JUMP JUMPDEST DUP2 PUSH2 0x456 SWAP2 SWAP1 PUSH2 0xA30 JUMP JUMPDEST SELFBALANCE EQ PUSH2 0x465 JUMPI PUSH2 0x464 PUSH2 0xA64 JUMP JUMPDEST JUMPDEST PUSH32 0x9905B744E1AC2C16B139DC8C0ECA0CA4769BB0583128F9FAB29C596E9DB4910A SELFBALANCE PUSH1 0x40 MLOAD PUSH2 0x494 SWAP2 SWAP1 PUSH2 0x629 JUMP JUMPDEST PUSH1 0x40 MLOAD DUP1 SWAP2 SUB SWAP1 LOG1 SELFBALANCE SWAP2 POP POP SWAP2 SWAP1 POP JUMP JUMPDEST DUP1 PUSH1 0x0 DUP2 SWAP1 SSTORE POP PUSH1 0x0 PUSH1 0x64 DUP3 PUSH2 0x4BB SWAP2 SWAP1 PUSH2 0xA93 JUMP JUMPDEST SWAP1 POP PUSH1 0x64 DUP2 LT PUSH2 0x4CE JUMPI PUSH2 0x4CD PUSH2 0xA64 JUMP JUMPDEST JUMPDEST POP POP JUMP JUMPDEST PUSH32 0x5F91B0AFD2C6EF8DA92137BA907BCCDC85EC4856A15AD39DE3E0EFF02BE6D70E CALLER PUSH1 0x40 MLOAD PUSH2 0x501 SWAP2 SWAP1 PUSH2 0x8E9 JUMP JUMPDEST PUSH1 0x40 MLOAD DUP1 SWAP2 SUB SWAP1 LOG1 PUSH32 0x9905B744E1AC2C16B139DC8C0ECA0CA4769BB0583128F9FAB29C596E9DB4910A CALLVALUE PUSH1 0x40 MLOAD PUSH2 0x538 SWAP2 SWAP1 PUSH2 0x629 JUMP JUMPDEST PUSH1 0x40 MLOAD DUP1 SWAP2 SUB SWAP1 LOG1 PUSH32 0x5F91B0AFD2C6EF8DA92137BA907BCCDC85EC4856A15AD39DE3E0EFF02BE6D70E ADDRESS PUSH1 0x40 MLOAD PUSH2 0x56F SWAP2 SWAP1 PUSH2 0x8E9 JUMP JUMPDEST PUSH1 0x40 MLOAD DUP1 SWAP2 SUB SWAP1 LOG1 PUSH1 0x0 SELFBALANCE SWAP1 POP PUSH32 0x9905B744E1AC2C16B139DC8C0ECA0CA4769BB0583128F9FAB29C596E9DB4910A DUP2 PUSH1 0x40 MLOAD PUSH2 0x5AB SWAP2 SWAP1 PUSH2 0x629 JUMP JUMPDEST PUSH1 0x40 MLOAD DUP1 SWAP2 SUB SWAP1 LOG1 POP JUMP JUMPDEST DUP1 PUSH1 0x0 DUP2 SWAP1 SSTORE POP PUSH1 0x64 DUP2 LT PUSH2 0x600 JUMPI PUSH1 0x40 MLOAD PUSH32 0x8C379A000000000000000000000000000000000000000000000000000000000 DUP2 MSTORE PUSH1 0x4 ADD PUSH2 0x5F7 SWAP1 PUSH2 0xB21 JUMP JUMPDEST PUSH1 0x40 MLOAD DUP1 SWAP2 SUB SWAP1 REVERT JUMPDEST PUSH1 0x32 DUP2 LT PUSH2 0x60D JUMPI PUSH1 0x0 DUP1 REVERT JUMPDEST POP JUMP JUMPDEST PUSH1 0x0 DUP2 SWAP1 POP SWAP2 SWAP1 POP JUMP JUMPDEST PUSH2 0x623 DUP2 PUSH2 0x610 JUMP JUMPDEST DUP3 MSTORE POP POP JUMP JUMPDEST PUSH1 0x0 PUSH1 0x20 DUP3 ADD SWAP1 POP PUSH2 0x63E PUSH1 0x0 DUP4 ADD DUP5 PUSH2 0x61A JUMP JUMPDEST SWAP3 SWAP2 POP POP JUMP JUMPDEST PUSH1 0x0 DUP1 REVERT JUMPDEST PUSH2 0x652 DUP2 PUSH2 0x610 JUMP JUMPDEST DUP2 EQ PUSH2 0x65D JUMPI PUSH1 0x0 DUP1 REVERT JUMPDEST POP JUMP JUMPDEST PUSH1 0x0 DUP2 CALLDATALOAD SWAP1 POP PUSH2 0x66F DUP2 PUSH2 0x649 JUMP JUMPDEST SWAP3 SWAP2 POP POP JUMP JUMPDEST PUSH1 0x0 PUSH1 0x20 DUP3 DUP5 SUB SLT ISZERO PUSH2 0x68B JUMPI PUSH2 0x68A PUSH2 0x644 JUMP JUMPDEST JUMPDEST PUSH1 0x0 PUSH2 0x699 DUP5 DUP3 DUP6 ADD PUSH2 0x660 JUMP JUMPDEST SWAP2 POP POP SWAP3 SWAP2 POP POP JUMP JUMPDEST PUSH1 0x0 PUSH20 0xFFFFFFFFFFFFFFFFFFFFFFFFFFFFFFFFFFFFFFFF DUP3 AND SWAP1 POP SWAP2 SWAP1 POP JUMP JUMPDEST PUSH1 0x0 PUSH2 0x6CD DUP3 PUSH2 0x6A2 JUMP JUMPDEST SWAP1 POP SWAP2 SWAP1 POP JUMP JUMPDEST PUSH2 0x6DD DUP2 PUSH2 0x6C2 JUMP JUMPDEST DUP2 EQ PUSH2 0x6E8 JUMPI PUSH1 0x0 DUP1 REVERT JUMPDEST POP JUMP JUMPDEST PUSH1 0x0 DUP2 CALLDATALOAD SWAP1 POP PUSH2 0x6FA DUP2 PUSH2 0x6D4 JUMP JUMPDEST SWAP3 SWAP2 POP POP JUMP JUMPDEST PUSH1 0x0 PUSH1 0x20 DUP3 DUP5 SUB SLT ISZERO PUSH2 0x716 JUMPI PUSH2 0x715 PUSH2 0x644 JUMP JUMPDEST JUMPDEST PUSH1 0x0 PUSH2 0x724 DUP5 DUP3 DUP6 ADD PUSH2 0x6EB JUMP JUMPDEST SWAP2 POP POP SWAP3 SWAP2 POP POP JUMP JUMPDEST PUSH1 0x0 DUP3 DUP3 MSTORE PUSH1 0x20 DUP3 ADD SWAP1 POP SWAP3 SWAP2 POP POP JUMP JUMPDEST PUSH32 0x696E76616C6964207472616E7366657220616D6F756E74000000000000000000 PUSH1 0x0 DUP3 ADD MSTORE POP JUMP JUMPDEST PUSH1 0x0 PUSH2 0x774 PUSH1 0x17 DUP4 PUSH2 0x72D JUMP JUMPDEST SWAP2 POP PUSH2 0x77F DUP3 PUSH2 0x73E JUMP JUMPDEST PUSH1 0x20 DUP3 ADD SWAP1 POP SWAP2 SWAP1 POP JUMP JUMPDEST PUSH1 0x0 PUSH1 0x20 DUP3 ADD SWAP1 POP DUP2 DUP2 SUB PUSH1 0x0 DUP4 ADD MSTORE PUSH2 0x7A3 DUP2 PUSH2 0x767 JUMP JUMPDEST SWAP1 POP SWAP2 SWAP1 POP JUMP JUMPDEST PUSH32 0x696E76616C69642063616C6C20616D6F756E7400000000000000000000000000 PUSH1 0x0 DUP3 ADD MSTORE POP JUMP JUMPDEST PUSH1 0x0 PUSH2 0x7E0 PUSH1 0x13 DUP4 PUSH2 0x72D JUMP JUMPDEST SWAP2 POP PUSH2 0x7EB DUP3 PUSH2 0x7AA JUMP JUMPDEST PUSH1 0x20 DUP3 ADD SWAP1 POP SWAP2 SWAP1 POP JUMP JUMPDEST PUSH1 0x0 PUSH1 0x20 DUP3 ADD SWAP1 POP DUP2 DUP2 SUB PUSH1 0x0 DUP4 ADD MSTORE PUSH2 0x80F DUP2 PUSH2 0x7D3 JUMP JUMPDEST SWAP1 POP SWAP2 SWAP1 POP JUMP JUMPDEST PUSH1 0x0 DUP2 SWAP1 POP SWAP3 SWAP2 POP POP JUMP JUMPDEST POP JUMP JUMPDEST PUSH1 0x0 PUSH2 0x831 PUSH1 0x0 DUP4 PUSH2 0x816 JUMP JUMPDEST SWAP2 POP PUSH2 0x83C DUP3 PUSH2 0x821 JUMP JUMPDEST PUSH1 0x0 DUP3 ADD SWAP1 POP SWAP2 SWAP1 POP JUMP JUMPDEST PUSH1 0x0 PUSH2 0x852 DUP3 PUSH2 0x824 JUMP JUMPDEST SWAP2 POP DUP2 SWAP1 POP SWAP2 SWAP1 POP JUMP JUMPDEST PUSH32 0x63616C6C206661696C6564000000000000000000000000000000000000000000 PUSH1 0x0 DUP3 ADD MSTORE POP JUMP JUMPDEST PUSH1 0x0 PUSH2 0x892 PUSH1 0xB DUP4 PUSH2 0x72D JUMP JUMPDEST SWAP2 POP PUSH2 0x89D DUP3 PUSH2 0x85C JUMP JUMPDEST PUSH1 0x20 DUP3 ADD SWAP1 POP SWAP2 SWAP1 POP JUMP JUMPDEST PUSH1 0x0 PUSH1 0x20 DUP3 ADD SWAP1 POP DUP2 DUP2 SUB PUSH1 0x0 DUP4 ADD MSTORE PUSH2 0x8C1 DUP2 PUSH2 0x885 JUMP JUMPDEST SWAP1 POP SWAP2 SWAP1 POP JUMP JUMPDEST PUSH1 0x0 PUSH2 0x8D3 DUP3 PUSH2 0x6A2 JUMP JUMPDEST SWAP1 POP SWAP2 SWAP1 POP JUMP JUMPDEST PUSH2 0x8E3 DUP2 PUSH2 0x8C8 JUMP JUMPDEST DUP3 MSTORE POP POP JUMP JUMPDEST PUSH1 0x0 PUSH1 0x20 DUP3 ADD SWAP1 POP PUSH2 0x8FE PUSH1 0x0 DUP4 ADD DUP5 PUSH2 0x8DA JUMP JUMPDEST SWAP3 SWAP2 POP POP JUMP JUMPDEST PUSH32 0x4E487B7100000000000000000000000000000000000000000000000000000000 PUSH1 0x0 MSTORE PUSH1 0x12 PUSH1 0x4 MSTORE PUSH1 0x24 PUSH1 0x0 REVERT JUMPDEST PUSH1 0x0 PUSH2 0x93E DUP3 PUSH2 0x610 JUMP JUMPDEST SWAP2 POP PUSH2 0x949 DUP4 PUSH2 0x610 JUMP JUMPDEST SWAP3 POP DUP3 PUSH2 0x959 JUMPI PUSH2 0x958 PUSH2 0x904 JUMP JUMPDEST JUMPDEST DUP3 DUP3 MOD SWAP1 POP SWAP3 SWAP2 POP POP JUMP JUMPDEST PUSH32 0x4576656E2076616C75652072657175697265642E000000000000000000000000 PUSH1 0x0 DUP3 ADD MSTORE POP JUMP JUMPDEST PUSH1 0x0 PUSH2 0x99A PUSH1 0x14 DUP4 PUSH2 0x72D JUMP JUMPDEST SWAP2 POP PUSH2 0x9A5 DUP3 PUSH2 0x964 JUMP JUMPDEST PUSH1 0x20 DUP3 ADD SWAP1 POP SWAP2 SWAP1 POP JUMP JUMPDEST PUSH1 0x0 PUSH1 0x20 DUP3 ADD SWAP1 POP DUP2 DUP2 SUB PUSH1 0x0 DUP4 ADD MSTORE PUSH2 0x9C9 DUP2 PUSH2 0x98D JUMP JUMPDEST SWAP1 POP SWAP2 SWAP1 POP JUMP JUMPDEST PUSH32 0x4E487B7100000000000000000000000000000000000000000000000000000000 PUSH1 0x0 MSTORE PUSH1 0x11 PUSH1 0x4 MSTORE PUSH1 0x24 PUSH1 0x0 REVERT JUMPDEST PUSH1 0x0 PUSH2 0xA0A DUP3 PUSH2 0x610 JUMP JUMPDEST SWAP2 POP PUSH2 0xA15 DUP4 PUSH2 0x610 JUMP JUMPDEST SWAP3 POP DUP3 PUSH2 0xA25 JUMPI PUSH2 0xA24 PUSH2 0x904 JUMP JUMPDEST JUMPDEST DUP3 DUP3 DIV SWAP1 POP SWAP3 SWAP2 POP POP JUMP JUMPDEST PUSH1 0x0 PUSH2 0xA3B DUP3 PUSH2 0x610 JUMP JUMPDEST SWAP2 POP PUSH2 0xA46 DUP4 PUSH2 0x610 JUMP JUMPDEST SWAP3 POP DUP3 DUP3 SUB SWAP1 POP DUP2 DUP2 GT ISZERO PUSH2 0xA5E JUMPI PUSH2 0xA5D PUSH2 0x9D0 JUMP JUMPDEST JUMPDEST SWAP3 SWAP2 POP POP JUMP JUMPDEST PUSH32 0x4E487B7100000000000000000000000000000000000000000000000000000000 PUSH1 0x0 MSTORE PUSH1 0x1 PUSH1 0x4 MSTORE PUSH1 0x24 PUSH1 0x0 REVERT JUMPDEST PUSH1 0x0 PUSH2 0xA9E DUP3 PUSH2 0x610 JUMP JUMPDEST SWAP2 POP PUSH2 0xAA9 DUP4 PUSH2 0x610 JUMP JUMPDEST SWAP3 POP DUP3 DUP3 MUL PUSH2 0xAB7 DUP2 PUSH2 0x610 JUMP JUMPDEST SWAP2 POP DUP3 DUP3 DIV DUP5 EQ DUP4 ISZERO OR PUSH2 0xACE JUMPI PUSH2 0xACD PUSH2 0x9D0 JUMP JUMPDEST JUMPDEST POP SWAP3 SWAP2 POP POP JUMP JUMPDEST PUSH32 0x746869732061726720697320746F6F2062696700000000000000000000000000 PUSH1 0x0 DUP3 ADD MSTORE POP JUMP JUMPDEST PUSH1 0x0 PUSH2 0xB0B PUSH1 0x13 DUP4 PUSH2 0x72D JUMP JUMPDEST SWAP2 POP PUSH2 0xB16 DUP3 PUSH2 0xAD5 JUMP JUMPDEST PUSH1 0x20 DUP3 ADD SWAP1 POP SWAP2 SWAP1 POP JUMP JUMPDEST PUSH1 0x0 PUSH1 0x20 DUP3 ADD SWAP1 POP DUP2 DUP2 SUB PUSH1 0x0 DUP4 ADD MSTORE PUSH2 0xB3A DUP2 PUSH2 0xAFE JUMP JUMPDEST SWAP1 POP SWAP2 SWAP1 POP JUMP INVALID LOG2 PUSH5 0x6970667358 0x22 SLT KECCAK256 DUP13 PUSH13 0x5BCF1C24A049D0D64D7D84C5C0 LOG3 0xD DUP3 0xC4 PUSH9 0x1AEA2C69473F1C7950 LOG0 PUSH25 0x7C64736F6C6343000812003300000000000000000000000000 "
		},
		"gasEstimates": {
			"creation": {
				"codeDepositCost": "587000",
				"executionCost": "22725",
				"totalCost": "609725"
			},
			"external": {
				"fun1(uint256)": "22896",
				"fun2(uint256)": "infinite",
				"fun3()": "infinite",
				"funCall(uint256)": "infinite",
				"funTrans(uint256)": "infinite",
				"localVar()": "2430",
				"sendHalf(address)": "infinite"
			}
		},
		"methodIdentifiers": {
			"fun1(uint256)": "acd9fd65",
			"fun2(uint256)": "7a927e8f",
			"fun3()": "7b8239fa",
			"funCall(uint256)": "51e7e6d3",
			"funTrans(uint256)": "2b639696",
			"localVar()": "112a83ac",
			"sendHalf(address)": "75949c13"
		}
	},
	"abi": [
		{
			"anonymous": false,
			"inputs": [
				{
					"indexed": false,
					"internalType": "address",
					"name": "",
					"type": "address"
				}
			],
			"name": "logAddress",
			"type": "event"
		},
		{
			"anonymous": false,
			"inputs": [
				{
					"indexed": false,
					"internalType": "uint256",
					"name": "",
					"type": "uint256"
				}
			],
			"name": "logUint",
			"type": "event"
		},
		{
			"inputs": [
				{
					"internalType": "uint256",
					"name": "arg",
					"type": "uint256"
				}
			],
			"name": "fun1",
			"outputs": [],
			"stateMutability": "nonpayable",
			"type": "function"
		},
		{
			"inputs": [
				{
					"internalType": "uint256",
					"name": "arg",
					"type": "uint256"
				}
			],
			"name": "fun2",
			"outputs": [],
			"stateMutability": "nonpayable",
			"type": "function"
		},
		{
			"inputs": [],
			"name": "fun3",
			"outputs": [],
			"stateMutability": "payable",
			"type": "function"
		},
		{
			"inputs": [
				{
					"internalType": "uint256",
					"name": "amount",
					"type": "uint256"
				}
			],
			"name": "funCall",
			"outputs": [],
			"stateMutability": "payable",
			"type": "function"
		},
		{
			"inputs": [
				{
					"internalType": "uint256",
					"name": "amount",
					"type": "uint256"
				}
			],
			"name": "funTrans",
			"outputs": [],
			"stateMutability": "payable",
			"type": "function"
		},
		{
			"inputs": [],
			"name": "localVar",
			"outputs": [
				{
					"internalType": "uint256",
					"name": "",
					"type": "uint256"
				}
			],
			"stateMutability": "view",
			"type": "function"
		},
		{
			"inputs": [
				{
					"internalType": "address payable",
					"name": "addr",
					"type": "address"
				}
			],
			"name": "sendHalf",
			"outputs": [
				{
					"internalType": "uint256",
					"name": "balance",
					"type": "uint256"
				}
			],
			"stateMutability": "payable",
			"type": "function"
		}
	]
}