{
	"data": {
		"bytecode": {
			"linkReferences": {},
			"object": "608060405260405162000b2538038062000b25833981810160405281019062000029919062000161565b335f806101000a81548173ffffffffffffffffffffffffffffffffffffffff021916908373ffffffffffffffffffffffffffffffffffffffff1602179055508160015f6101000a81548173ffffffffffffffffffffffffffffffffffffffff021916908373ffffffffffffffffffffffffffffffffffffffff1602179055508042620000b69190620001d3565b60028190555050506200020d565b5f80fd5b5f73ffffffffffffffffffffffffffffffffffffffff82169050919050565b5f620000f382620000c8565b9050919050565b6200010581620000e7565b811462000110575f80fd5b50565b5f815190506200012381620000fa565b92915050565b5f819050919050565b6200013d8162000129565b811462000148575f80fd5b50565b5f815190506200015b8162000132565b92915050565b5f80604083850312156200017a5762000179620000c4565b5b5f620001898582860162000113565b92505060206200019c858286016200014b565b9150509250929050565b7f4e487b71000000000000000000000000000000000000000000000000000000005f52601160045260245ffd5b5f620001df8262000129565b9150620001ec8362000129565b9250828201905080821115620002075762000206620001a6565b5b92915050565b61090a806200021b5f395ff3fe608060405234801561000f575f80fd5b5060043610610060575f3560e01c80630e1da6c314610064578063415ffba71461006e5780634665096d1461008a57806366d003ac146100a857806367e404ce146100c65780639714378c146100e4575b5f80fd5b61006c610100565b005b610088600480360381019061008391906105e4565b610146565b005b61009261024d565b60405161009f919061064d565b60405180910390f35b6100b0610253565b6040516100bd91906106a5565b60405180910390f35b6100ce610278565b6040516100db91906106a5565b60405180910390f35b6100fe60048036038101906100f991906106be565b61029b565b005b60025442101561010e575f80fd5b5f8054906101000a900473ffffffffffffffffffffffffffffffffffffffff1673ffffffffffffffffffffffffffffffffffffffff16ff5b60015f9054906101000a900473ffffffffffffffffffffffffffffffffffffffff1673ffffffffffffffffffffffffffffffffffffffff163373ffffffffffffffffffffffffffffffffffffffff161461019e575f80fd5b6101a88282610308565b6101b0575f80fd5b60015f9054906101000a900473ffffffffffffffffffffffffffffffffffffffff1673ffffffffffffffffffffffffffffffffffffffff166108fc8390811502906040515f60405180830381858888f19350505050158015610214573d5f803e3d5ffd5b505f8054906101000a900473ffffffffffffffffffffffffffffffffffffffff1673ffffffffffffffffffffffffffffffffffffffff16ff5b60025481565b60015f9054906101000a900473ffffffffffffffffffffffffffffffffffffffff1681565b5f8054906101000a900473ffffffffffffffffffffffffffffffffffffffff1681565b5f8054906101000a900473ffffffffffffffffffffffffffffffffffffffff1673ffffffffffffffffffffffffffffffffffffffff163373ffffffffffffffffffffffffffffffffffffffff16146102f1575f80fd5b60025481116102fe575f80fd5b8060028190555050565b5f8061033b308560405160200161032092919061079a565b6040516020818303038152906040528051906020012061039d565b90505f8054906101000a900473ffffffffffffffffffffffffffffffffffffffff1673ffffffffffffffffffffffffffffffffffffffff1661037d82856103cc565b73ffffffffffffffffffffffffffffffffffffffff161491505092915050565b5f816040516020016103af9190610842565b604051602081830303815290604052805190602001209050919050565b5f805f806103d985610436565b9250925092506001868484846040515f81526020016040526040516104019493929190610891565b6020604051602081039080840390855afa158015610421573d5f803e3d5ffd5b50505060206040510351935050505092915050565b5f805f6041845114610446575f80fd5b602084015191506040840151905060608401515f1a92509193909250565b5f604051905090565b5f80fd5b5f80fd5b5f819050919050565b61048781610475565b8114610491575f80fd5b50565b5f813590506104a28161047e565b92915050565b5f80fd5b5f80fd5b5f601f19601f8301169050919050565b7f4e487b71000000000000000000000000000000000000000000000000000000005f52604160045260245ffd5b6104f6826104b0565b810181811067ffffffffffffffff82111715610515576105146104c0565b5b80604052505050565b5f610527610464565b905061053382826104ed565b919050565b5f67ffffffffffffffff821115610552576105516104c0565b5b61055b826104b0565b9050602081019050919050565b828183375f83830152505050565b5f61058861058384610538565b61051e565b9050828152602081018484840111156105a4576105a36104ac565b5b6105af848285610568565b509392505050565b5f82601f8301126105cb576105ca6104a8565b5b81356105db848260208601610576565b91505092915050565b5f80604083850312156105fa576105f961046d565b5b5f61060785828601610494565b925050602083013567ffffffffffffffff81111561062857610627610471565b5b610634858286016105b7565b9150509250929050565b61064781610475565b82525050565b5f6020820190506106605f83018461063e565b92915050565b5f73ffffffffffffffffffffffffffffffffffffffff82169050919050565b5f61068f82610666565b9050919050565b61069f81610685565b82525050565b5f6020820190506106b85f830184610696565b92915050565b5f602082840312156106d3576106d261046d565b5b5f6106e084828501610494565b91505092915050565b5f819050919050565b5f61070c61070761070284610666565b6106e9565b610666565b9050919050565b5f61071d826106f2565b9050919050565b5f61072e82610713565b9050919050565b5f8160601b9050919050565b5f61074b82610735565b9050919050565b5f61075c82610741565b9050919050565b61077461076f82610724565b610752565b82525050565b5f819050919050565b61079461078f82610475565b61077a565b82525050565b5f6107a58285610763565b6014820191506107b58284610783565b6020820191508190509392505050565b5f81905092915050565b7f19457468657265756d205369676e6564204d6573736167653a0a3332000000005f82015250565b5f610803601c836107c5565b915061080e826107cf565b601c82019050919050565b5f819050919050565b5f819050919050565b61083c61083782610819565b610822565b82525050565b5f61084c826107f7565b9150610858828461082b565b60208201915081905092915050565b61087081610819565b82525050565b5f60ff82169050919050565b61088b81610876565b82525050565b5f6080820190506108a45f830187610867565b6108b16020830186610882565b6108be6040830185610867565b6108cb6060830184610867565b9594505050505056fea2646970667358221220bbe2d34bb5dbf5f65cebe956f96ebae6c7cabb425e920845600a583cd886443a64736f6c63430008150033",
			"opcodes": "PUSH1 0x80 PUSH1 0x40 MSTORE PUSH1 0x40 MLOAD PUSH3 0xB25 CODESIZE SUB DUP1 PUSH3 0xB25 DUP4 CODECOPY DUP2 DUP2 ADD PUSH1 0x40 MSTORE DUP2 ADD SWAP1 PUSH3 0x29 SWAP2 SWAP1 PUSH3 0x161 JUMP JUMPDEST CALLER PUSH0 DUP1 PUSH2 0x100 EXP DUP2 SLOAD DUP2 PUSH20 0xFFFFFFFFFFFFFFFFFFFFFFFFFFFFFFFFFFFFFFFF MUL NOT AND SWAP1 DUP4 PUSH20 0xFFFFFFFFFFFFFFFFFFFFFFFFFFFFFFFFFFFFFFFF AND MUL OR SWAP1 SSTORE POP DUP2 PUSH1 0x1 PUSH0 PUSH2 0x100 EXP DUP2 SLOAD DUP2 PUSH20 0xFFFFFFFFFFFFFFFFFFFFFFFFFFFFFFFFFFFFFFFF MUL NOT AND SWAP1 DUP4 PUSH20 0xFFFFFFFFFFFFFFFFFFFFFFFFFFFFFFFFFFFFFFFF AND MUL OR SWAP1 SSTORE POP DUP1 TIMESTAMP PUSH3 0xB6 SWAP2 SWAP1 PUSH3 0x1D3 JUMP JUMPDEST PUSH1 0x2 DUP2 SWAP1 SSTORE POP POP POP PUSH3 0x20D JUMP JUMPDEST PUSH0 DUP1 REVERT JUMPDEST PUSH0 PUSH20 0xFFFFFFFFFFFFFFFFFFFFFFFFFFFFFFFFFFFFFFFF DUP3 AND SWAP1 POP SWAP2 SWAP1 POP JUMP JUMPDEST PUSH0 PUSH3 0xF3 DUP3 PUSH3 0xC8 JUMP JUMPDEST SWAP1 POP SWAP2 SWAP1 POP JUMP JUMPDEST PUSH3 0x105 DUP2 PUSH3 0xE7 JUMP JUMPDEST DUP2 EQ PUSH3 0x110 JUMPI PUSH0 DUP1 REVERT JUMPDEST POP JUMP JUMPDEST PUSH0 DUP2 MLOAD SWAP1 POP PUSH3 0x123 DUP2 PUSH3 0xFA JUMP JUMPDEST SWAP3 SWAP2 POP POP JUMP JUMPDEST PUSH0 DUP2 SWAP1 POP SWAP2 SWAP1 POP JUMP JUMPDEST PUSH3 0x13D DUP2 PUSH3 0x129 JUMP JUMPDEST DUP2 EQ PUSH3 0x148 JUMPI PUSH0 DUP1 REVERT JUMPDEST POP JUMP JUMPDEST PUSH0 DUP2 MLOAD SWAP1 POP PUSH3 0x15B DUP2 PUSH3 0x132 JUMP JUMPDEST SWAP3 SWAP2 POP POP JUMP JUMPDEST PUSH0 DUP1 PUSH1 0x40 DUP4 DUP6 SUB SLT ISZERO PUSH3 0x17A JUMPI PUSH3 0x179 PUSH3 0xC4 JUMP JUMPDEST JUMPDEST PUSH0 PUSH3 0x189 DUP6 DUP3 DUP7 ADD PUSH3 0x113 JUMP JUMPDEST SWAP3 POP POP PUSH1 0x20 PUSH3 0x19C DUP6 DUP3 DUP7 ADD PUSH3 0x14B JUMP JUMPDEST SWAP2 POP POP SWAP3 POP SWAP3 SWAP1 POP JUMP JUMPDEST PUSH32 0x4E487B7100000000000000000000000000000000000000000000000000000000 PUSH0 MSTORE PUSH1 0x11 PUSH1 0x4 MSTORE PUSH1 0x24 PUSH0 REVERT JUMPDEST PUSH0 PUSH3 0x1DF DUP3 PUSH3 0x129 JUMP JUMPDEST SWAP2 POP PUSH3 0x1EC DUP4 PUSH3 0x129 JUMP JUMPDEST SWAP3 POP DUP3 DUP3 ADD SWAP1 POP DUP1 DUP3 GT ISZERO PUSH3 0x207 JUMPI PUSH3 0x206 PUSH3 0x1A6 JUMP JUMPDEST JUMPDEST SWAP3 SWAP2 POP POP JUMP JUMPDEST PUSH2 0x90A DUP1 PUSH3 0x21B PUSH0 CODECOPY PUSH0 RETURN INVALID PUSH1 0x80 PUSH1 0x40 MSTORE CALLVALUE DUP1 ISZERO PUSH2 0xF JUMPI PUSH0 DUP1 REVERT JUMPDEST POP PUSH1 0x4 CALLDATASIZE LT PUSH2 0x60 JUMPI PUSH0 CALLDATALOAD PUSH1 0xE0 SHR DUP1 PUSH4 0xE1DA6C3 EQ PUSH2 0x64 JUMPI DUP1 PUSH4 0x415FFBA7 EQ PUSH2 0x6E JUMPI DUP1 PUSH4 0x4665096D EQ PUSH2 0x8A JUMPI DUP1 PUSH4 0x66D003AC EQ PUSH2 0xA8 JUMPI DUP1 PUSH4 0x67E404CE EQ PUSH2 0xC6 JUMPI DUP1 PUSH4 0x9714378C EQ PUSH2 0xE4 JUMPI JUMPDEST PUSH0 DUP1 REVERT JUMPDEST PUSH2 0x6C PUSH2 0x100 JUMP JUMPDEST STOP JUMPDEST PUSH2 0x88 PUSH1 0x4 DUP1 CALLDATASIZE SUB DUP2 ADD SWAP1 PUSH2 0x83 SWAP2 SWAP1 PUSH2 0x5E4 JUMP JUMPDEST PUSH2 0x146 JUMP JUMPDEST STOP JUMPDEST PUSH2 0x92 PUSH2 0x24D JUMP JUMPDEST PUSH1 0x40 MLOAD PUSH2 0x9F SWAP2 SWAP1 PUSH2 0x64D JUMP JUMPDEST PUSH1 0x40 MLOAD DUP1 SWAP2 SUB SWAP1 RETURN JUMPDEST PUSH2 0xB0 PUSH2 0x253 JUMP JUMPDEST PUSH1 0x40 MLOAD PUSH2 0xBD SWAP2 SWAP1 PUSH2 0x6A5 JUMP JUMPDEST PUSH1 0x40 MLOAD DUP1 SWAP2 SUB SWAP1 RETURN JUMPDEST PUSH2 0xCE PUSH2 0x278 JUMP JUMPDEST PUSH1 0x40 MLOAD PUSH2 0xDB SWAP2 SWAP1 PUSH2 0x6A5 JUMP JUMPDEST PUSH1 0x40 MLOAD DUP1 SWAP2 SUB SWAP1 RETURN JUMPDEST PUSH2 0xFE PUSH1 0x4 DUP1 CALLDATASIZE SUB DUP2 ADD SWAP1 PUSH2 0xF9 SWAP2 SWAP1 PUSH2 0x6BE JUMP JUMPDEST PUSH2 0x29B JUMP JUMPDEST STOP JUMPDEST PUSH1 0x2 SLOAD TIMESTAMP LT ISZERO PUSH2 0x10E JUMPI PUSH0 DUP1 REVERT JUMPDEST PUSH0 DUP1 SLOAD SWAP1 PUSH2 0x100 EXP SWAP1 DIV PUSH20 0xFFFFFFFFFFFFFFFFFFFFFFFFFFFFFFFFFFFFFFFF AND PUSH20 0xFFFFFFFFFFFFFFFFFFFFFFFFFFFFFFFFFFFFFFFF AND SELFDESTRUCT JUMPDEST PUSH1 0x1 PUSH0 SWAP1 SLOAD SWAP1 PUSH2 0x100 EXP SWAP1 DIV PUSH20 0xFFFFFFFFFFFFFFFFFFFFFFFFFFFFFFFFFFFFFFFF AND PUSH20 0xFFFFFFFFFFFFFFFFFFFFFFFFFFFFFFFFFFFFFFFF AND CALLER PUSH20 0xFFFFFFFFFFFFFFFFFFFFFFFFFFFFFFFFFFFFFFFF AND EQ PUSH2 0x19E JUMPI PUSH0 DUP1 REVERT JUMPDEST PUSH2 0x1A8 DUP3 DUP3 PUSH2 0x308 JUMP JUMPDEST PUSH2 0x1B0 JUMPI PUSH0 DUP1 REVERT JUMPDEST PUSH1 0x1 PUSH0 SWAP1 SLOAD SWAP1 PUSH2 0x100 EXP SWAP1 DIV PUSH20 0xFFFFFFFFFFFFFFFFFFFFFFFFFFFFFFFFFFFFFFFF AND PUSH20 0xFFFFFFFFFFFFFFFFFFFFFFFFFFFFFFFFFFFFFFFF AND PUSH2 0x8FC DUP4 SWAP1 DUP2 ISZERO MUL SWAP1 PUSH1 0x40 MLOAD PUSH0 PUSH1 0x40 MLOAD DUP1 DUP4 SUB DUP2 DUP6 DUP9 DUP9 CALL SWAP4 POP POP POP POP ISZERO DUP1 ISZERO PUSH2 0x214 JUMPI RETURNDATASIZE PUSH0 DUP1 RETURNDATACOPY RETURNDATASIZE PUSH0 REVERT JUMPDEST POP PUSH0 DUP1 SLOAD SWAP1 PUSH2 0x100 EXP SWAP1 DIV PUSH20 0xFFFFFFFFFFFFFFFFFFFFFFFFFFFFFFFFFFFFFFFF AND PUSH20 0xFFFFFFFFFFFFFFFFFFFFFFFFFFFFFFFFFFFFFFFF AND SELFDESTRUCT JUMPDEST PUSH1 0x2 SLOAD DUP2 JUMP JUMPDEST PUSH1 0x1 PUSH0 SWAP1 SLOAD SWAP1 PUSH2 0x100 EXP SWAP1 DIV PUSH20 0xFFFFFFFFFFFFFFFFFFFFFFFFFFFFFFFFFFFFFFFF AND DUP2 JUMP JUMPDEST PUSH0 DUP1 SLOAD SWAP1 PUSH2 0x100 EXP SWAP1 DIV PUSH20 0xFFFFFFFFFFFFFFFFFFFFFFFFFFFFFFFFFFFFFFFF AND DUP2 JUMP JUMPDEST PUSH0 DUP1 SLOAD SWAP1 PUSH2 0x100 EXP SWAP1 DIV PUSH20 0xFFFFFFFFFFFFFFFFFFFFFFFFFFFFFFFFFFFFFFFF AND PUSH20 0xFFFFFFFFFFFFFFFFFFFFFFFFFFFFFFFFFFFFFFFF AND CALLER PUSH20 0xFFFFFFFFFFFFFFFFFFFFFFFFFFFFFFFFFFFFFFFF AND EQ PUSH2 0x2F1 JUMPI PUSH0 DUP1 REVERT JUMPDEST PUSH1 0x2 SLOAD DUP2 GT PUSH2 0x2FE JUMPI PUSH0 DUP1 REVERT JUMPDEST DUP1 PUSH1 0x2 DUP2 SWAP1 SSTORE POP POP JUMP JUMPDEST PUSH0 DUP1 PUSH2 0x33B ADDRESS DUP6 PUSH1 0x40 MLOAD PUSH1 0x20 ADD PUSH2 0x320 SWAP3 SWAP2 SWAP1 PUSH2 0x79A JUMP JUMPDEST PUSH1 0x40 MLOAD PUSH1 0x20 DUP2 DUP4 SUB SUB DUP2 MSTORE SWAP1 PUSH1 0x40 MSTORE DUP1 MLOAD SWAP1 PUSH1 0x20 ADD KECCAK256 PUSH2 0x39D JUMP JUMPDEST SWAP1 POP PUSH0 DUP1 SLOAD SWAP1 PUSH2 0x100 EXP SWAP1 DIV PUSH20 0xFFFFFFFFFFFFFFFFFFFFFFFFFFFFFFFFFFFFFFFF AND PUSH20 0xFFFFFFFFFFFFFFFFFFFFFFFFFFFFFFFFFFFFFFFF AND PUSH2 0x37D DUP3 DUP6 PUSH2 0x3CC JUMP JUMPDEST PUSH20 0xFFFFFFFFFFFFFFFFFFFFFFFFFFFFFFFFFFFFFFFF AND EQ SWAP2 POP POP SWAP3 SWAP2 POP POP JUMP JUMPDEST PUSH0 DUP2 PUSH1 0x40 MLOAD PUSH1 0x20 ADD PUSH2 0x3AF SWAP2 SWAP1 PUSH2 0x842 JUMP JUMPDEST PUSH1 0x40 MLOAD PUSH1 0x20 DUP2 DUP4 SUB SUB DUP2 MSTORE SWAP1 PUSH1 0x40 MSTORE DUP1 MLOAD SWAP1 PUSH1 0x20 ADD KECCAK256 SWAP1 POP SWAP2 SWAP1 POP JUMP JUMPDEST PUSH0 DUP1 PUSH0 DUP1 PUSH2 0x3D9 DUP6 PUSH2 0x436 JUMP JUMPDEST SWAP3 POP SWAP3 POP SWAP3 POP PUSH1 0x1 DUP7 DUP5 DUP5 DUP5 PUSH1 0x40 MLOAD PUSH0 DUP2 MSTORE PUSH1 0x20 ADD PUSH1 0x40 MSTORE PUSH1 0x40 MLOAD PUSH2 0x401 SWAP5 SWAP4 SWAP3 SWAP2 SWAP1 PUSH2 0x891 JUMP JUMPDEST PUSH1 0x20 PUSH1 0x40 MLOAD PUSH1 0x20 DUP2 SUB SWAP1 DUP1 DUP5 SUB SWAP1 DUP6 GAS STATICCALL ISZERO DUP1 ISZERO PUSH2 0x421 JUMPI RETURNDATASIZE PUSH0 DUP1 RETURNDATACOPY RETURNDATASIZE PUSH0 REVERT JUMPDEST POP POP POP PUSH1 0x20 PUSH1 0x40 MLOAD SUB MLOAD SWAP4 POP POP POP POP SWAP3 SWAP2 POP POP JUMP JUMPDEST PUSH0 DUP1 PUSH0 PUSH1 0x41 DUP5 MLOAD EQ PUSH2 0x446 JUMPI PUSH0 DUP1 REVERT JUMPDEST PUSH1 0x20 DUP5 ADD MLOAD SWAP2 POP PUSH1 0x40 DUP5 ADD MLOAD SWAP1 POP PUSH1 0x60 DUP5 ADD MLOAD PUSH0 BYTE SWAP3 POP SWAP2 SWAP4 SWAP1 SWAP3 POP JUMP JUMPDEST PUSH0 PUSH1 0x40 MLOAD SWAP1 POP SWAP1 JUMP JUMPDEST PUSH0 DUP1 REVERT JUMPDEST PUSH0 DUP1 REVERT JUMPDEST PUSH0 DUP2 SWAP1 POP SWAP2 SWAP1 POP JUMP JUMPDEST PUSH2 0x487 DUP2 PUSH2 0x475 JUMP JUMPDEST DUP2 EQ PUSH2 0x491 JUMPI PUSH0 DUP1 REVERT JUMPDEST POP JUMP JUMPDEST PUSH0 DUP2 CALLDATALOAD SWAP1 POP PUSH2 0x4A2 DUP2 PUSH2 0x47E JUMP JUMPDEST SWAP3 SWAP2 POP POP JUMP JUMPDEST PUSH0 DUP1 REVERT JUMPDEST PUSH0 DUP1 REVERT JUMPDEST PUSH0 PUSH1 0x1F NOT PUSH1 0x1F DUP4 ADD AND SWAP1 POP SWAP2 SWAP1 POP JUMP JUMPDEST PUSH32 0x4E487B7100000000000000000000000000000000000000000000000000000000 PUSH0 MSTORE PUSH1 0x41 PUSH1 0x4 MSTORE PUSH1 0x24 PUSH0 REVERT JUMPDEST PUSH2 0x4F6 DUP3 PUSH2 0x4B0 JUMP JUMPDEST DUP2 ADD DUP2 DUP2 LT PUSH8 0xFFFFFFFFFFFFFFFF DUP3 GT OR ISZERO PUSH2 0x515 JUMPI PUSH2 0x514 PUSH2 0x4C0 JUMP JUMPDEST JUMPDEST DUP1 PUSH1 0x40 MSTORE POP POP POP JUMP JUMPDEST PUSH0 PUSH2 0x527 PUSH2 0x464 JUMP JUMPDEST SWAP1 POP PUSH2 0x533 DUP3 DUP3 PUSH2 0x4ED JUMP JUMPDEST SWAP2 SWAP1 POP JUMP JUMPDEST PUSH0 PUSH8 0xFFFFFFFFFFFFFFFF DUP3 GT ISZERO PUSH2 0x552 JUMPI PUSH2 0x551 PUSH2 0x4C0 JUMP JUMPDEST JUMPDEST PUSH2 0x55B DUP3 PUSH2 0x4B0 JUMP JUMPDEST SWAP1 POP PUSH1 0x20 DUP2 ADD SWAP1 POP SWAP2 SWAP1 POP JUMP JUMPDEST DUP3 DUP2 DUP4 CALLDATACOPY PUSH0 DUP4 DUP4 ADD MSTORE POP POP POP JUMP JUMPDEST PUSH0 PUSH2 0x588 PUSH2 0x583 DUP5 PUSH2 0x538 JUMP JUMPDEST PUSH2 0x51E JUMP JUMPDEST SWAP1 POP DUP3 DUP2 MSTORE PUSH1 0x20 DUP2 ADD DUP5 DUP5 DUP5 ADD GT ISZERO PUSH2 0x5A4 JUMPI PUSH2 0x5A3 PUSH2 0x4AC JUMP JUMPDEST JUMPDEST PUSH2 0x5AF DUP5 DUP3 DUP6 PUSH2 0x568 JUMP JUMPDEST POP SWAP4 SWAP3 POP POP POP JUMP JUMPDEST PUSH0 DUP3 PUSH1 0x1F DUP4 ADD SLT PUSH2 0x5CB JUMPI PUSH2 0x5CA PUSH2 0x4A8 JUMP JUMPDEST JUMPDEST DUP2 CALLDATALOAD PUSH2 0x5DB DUP5 DUP3 PUSH1 0x20 DUP7 ADD PUSH2 0x576 JUMP JUMPDEST SWAP2 POP POP SWAP3 SWAP2 POP POP JUMP JUMPDEST PUSH0 DUP1 PUSH1 0x40 DUP4 DUP6 SUB SLT ISZERO PUSH2 0x5FA JUMPI PUSH2 0x5F9 PUSH2 0x46D JUMP JUMPDEST JUMPDEST PUSH0 PUSH2 0x607 DUP6 DUP3 DUP7 ADD PUSH2 0x494 JUMP JUMPDEST SWAP3 POP POP PUSH1 0x20 DUP4 ADD CALLDATALOAD PUSH8 0xFFFFFFFFFFFFFFFF DUP2 GT ISZERO PUSH2 0x628 JUMPI PUSH2 0x627 PUSH2 0x471 JUMP JUMPDEST JUMPDEST PUSH2 0x634 DUP6 DUP3 DUP7 ADD PUSH2 0x5B7 JUMP JUMPDEST SWAP2 POP POP SWAP3 POP SWAP3 SWAP1 POP JUMP JUMPDEST PUSH2 0x647 DUP2 PUSH2 0x475 JUMP JUMPDEST DUP3 MSTORE POP POP JUMP JUMPDEST PUSH0 PUSH1 0x20 DUP3 ADD SWAP1 POP PUSH2 0x660 PUSH0 DUP4 ADD DUP5 PUSH2 0x63E JUMP JUMPDEST SWAP3 SWAP2 POP POP JUMP JUMPDEST PUSH0 PUSH20 0xFFFFFFFFFFFFFFFFFFFFFFFFFFFFFFFFFFFFFFFF DUP3 AND SWAP1 POP SWAP2 SWAP1 POP JUMP JUMPDEST PUSH0 PUSH2 0x68F DUP3 PUSH2 0x666 JUMP JUMPDEST SWAP1 POP SWAP2 SWAP1 POP JUMP JUMPDEST PUSH2 0x69F DUP2 PUSH2 0x685 JUMP JUMPDEST DUP3 MSTORE POP POP JUMP JUMPDEST PUSH0 PUSH1 0x20 DUP3 ADD SWAP1 POP PUSH2 0x6B8 PUSH0 DUP4 ADD DUP5 PUSH2 0x696 JUMP JUMPDEST SWAP3 SWAP2 POP POP JUMP JUMPDEST PUSH0 PUSH1 0x20 DUP3 DUP5 SUB SLT ISZERO PUSH2 0x6D3 JUMPI PUSH2 0x6D2 PUSH2 0x46D JUMP JUMPDEST JUMPDEST PUSH0 PUSH2 0x6E0 DUP5 DUP3 DUP6 ADD PUSH2 0x494 JUMP JUMPDEST SWAP2 POP POP SWAP3 SWAP2 POP POP JUMP JUMPDEST PUSH0 DUP2 SWAP1 POP SWAP2 SWAP1 POP JUMP JUMPDEST PUSH0 PUSH2 0x70C PUSH2 0x707 PUSH2 0x702 DUP5 PUSH2 0x666 JUMP JUMPDEST PUSH2 0x6E9 JUMP JUMPDEST PUSH2 0x666 JUMP JUMPDEST SWAP1 POP SWAP2 SWAP1 POP JUMP JUMPDEST PUSH0 PUSH2 0x71D DUP3 PUSH2 0x6F2 JUMP JUMPDEST SWAP1 POP SWAP2 SWAP1 POP JUMP JUMPDEST PUSH0 PUSH2 0x72E DUP3 PUSH2 0x713 JUMP JUMPDEST SWAP1 POP SWAP2 SWAP1 POP JUMP JUMPDEST PUSH0 DUP2 PUSH1 0x60 SHL SWAP1 POP SWAP2 SWAP1 POP JUMP JUMPDEST PUSH0 PUSH2 0x74B DUP3 PUSH2 0x735 JUMP JUMPDEST SWAP1 POP SWAP2 SWAP1 POP JUMP JUMPDEST PUSH0 PUSH2 0x75C DUP3 PUSH2 0x741 JUMP JUMPDEST SWAP1 POP SWAP2 SWAP1 POP JUMP JUMPDEST PUSH2 0x774 PUSH2 0x76F DUP3 PUSH2 0x724 JUMP JUMPDEST PUSH2 0x752 JUMP JUMPDEST DUP3 MSTORE POP POP JUMP JUMPDEST PUSH0 DUP2 SWAP1 POP SWAP2 SWAP1 POP JUMP JUMPDEST PUSH2 0x794 PUSH2 0x78F DUP3 PUSH2 0x475 JUMP JUMPDEST PUSH2 0x77A JUMP JUMPDEST DUP3 MSTORE POP POP JUMP JUMPDEST PUSH0 PUSH2 0x7A5 DUP3 DUP6 PUSH2 0x763 JUMP JUMPDEST PUSH1 0x14 DUP3 ADD SWAP2 POP PUSH2 0x7B5 DUP3 DUP5 PUSH2 0x783 JUMP JUMPDEST PUSH1 0x20 DUP3 ADD SWAP2 POP DUP2 SWAP1 POP SWAP4 SWAP3 POP POP POP JUMP JUMPDEST PUSH0 DUP2 SWAP1 POP SWAP3 SWAP2 POP POP JUMP JUMPDEST PUSH32 0x19457468657265756D205369676E6564204D6573736167653A0A333200000000 PUSH0 DUP3 ADD MSTORE POP JUMP JUMPDEST PUSH0 PUSH2 0x803 PUSH1 0x1C DUP4 PUSH2 0x7C5 JUMP JUMPDEST SWAP2 POP PUSH2 0x80E DUP3 PUSH2 0x7CF JUMP JUMPDEST PUSH1 0x1C DUP3 ADD SWAP1 POP SWAP2 SWAP1 POP JUMP JUMPDEST PUSH0 DUP2 SWAP1 POP SWAP2 SWAP1 POP JUMP JUMPDEST PUSH0 DUP2 SWAP1 POP SWAP2 SWAP1 POP JUMP JUMPDEST PUSH2 0x83C PUSH2 0x837 DUP3 PUSH2 0x819 JUMP JUMPDEST PUSH2 0x822 JUMP JUMPDEST DUP3 MSTORE POP POP JUMP JUMPDEST PUSH0 PUSH2 0x84C DUP3 PUSH2 0x7F7 JUMP JUMPDEST SWAP2 POP PUSH2 0x858 DUP3 DUP5 PUSH2 0x82B JUMP JUMPDEST PUSH1 0x20 DUP3 ADD SWAP2 POP DUP2 SWAP1 POP SWAP3 SWAP2 POP POP JUMP JUMPDEST PUSH2 0x870 DUP2 PUSH2 0x819 JUMP JUMPDEST DUP3 MSTORE POP POP JUMP JUMPDEST PUSH0 PUSH1 0xFF DUP3 AND SWAP1 POP SWAP2 SWAP1 POP JUMP JUMPDEST PUSH2 0x88B DUP2 PUSH2 0x876 JUMP JUMPDEST DUP3 MSTORE POP POP JUMP JUMPDEST PUSH0 PUSH1 0x80 DUP3 ADD SWAP1 POP PUSH2 0x8A4 PUSH0 DUP4 ADD DUP8 PUSH2 0x867 JUMP JUMPDEST PUSH2 0x8B1 PUSH1 0x20 DUP4 ADD DUP7 PUSH2 0x882 JUMP JUMPDEST PUSH2 0x8BE PUSH1 0x40 DUP4 ADD DUP6 PUSH2 0x867 JUMP JUMPDEST PUSH2 0x8CB PUSH1 0x60 DUP4 ADD DUP5 PUSH2 0x867 JUMP JUMPDEST SWAP6 SWAP5 POP POP POP POP POP JUMP INVALID LOG2 PUSH5 0x6970667358 0x22 SLT KECCAK256 0xBB 0xE2 0xD3 0x4B 0xB5 0xDB CREATE2 0xF6 0x5C 0xEB 0xE9 JUMP 0xF9 PUSH15 0xBAE6C7CABB425E920845600A583CD8 DUP7 PREVRANDAO GASPRICE PUSH5 0x736F6C6343 STOP ADDMOD ISZERO STOP CALLER "
		},
		"gasEstimates": {
			"creation": {
				"codeDepositCost": "462800",
				"executionCost": "infinite",
				"totalCost": "infinite"
			},
			"external": {
				"claimTimeout()": "31978",
				"close(uint256,bytes)": "infinite",
				"expiration()": "2447",
				"extend(uint256)": "26892",
				"recipient()": "2552",
				"sender()": "2571"
			},
			"internal": {
				"isValidSignature(uint256,bytes memory)": "infinite",
				"prefixed(bytes32)": "infinite",
				"recoverSigner(bytes32,bytes memory)": "infinite",
				"splitSignature(bytes memory)": "infinite"
			}
		},
		"methodIdentifiers": {
			"claimTimeout()": "0e1da6c3",
			"close(uint256,bytes)": "415ffba7",
			"expiration()": "4665096d",
			"extend(uint256)": "9714378c",
			"recipient()": "66d003ac",
			"sender()": "67e404ce"
		}
	},
	"abi": [
		{
			"inputs": [
				{
					"internalType": "address payable",
					"name": "recipientAddress",
					"type": "address"
				},
				{
					"internalType": "uint256",
					"name": "duration",
					"type": "uint256"
				}
			],
			"stateMutability": "payable",
			"type": "constructor"
		},
		{
			"inputs": [],
			"name": "claimTimeout",
			"outputs": [],
			"stateMutability": "nonpayable",
			"type": "function"
		},
		{
			"inputs": [
				{
					"internalType": "uint256",
					"name": "amount",
					"type": "uint256"
				},
				{
					"internalType": "bytes",
					"name": "signature",
					"type": "bytes"
				}
			],
			"name": "close",
			"outputs": [],
			"stateMutability": "nonpayable",
			"type": "function"
		},
		{
			"inputs": [],
			"name": "expiration",
			"outputs": [
				{
					"internalType": "uint256",
					"name": "",
					"type": "uint256"
				}
			],
			"stateMutability": "view",
			"type": "function"
		},
		{
			"inputs": [
				{
					"internalType": "uint256",
					"name": "newExpiration",
					"type": "uint256"
				}
			],
			"name": "extend",
			"outputs": [],
			"stateMutability": "nonpayable",
			"type": "function"
		},
		{
			"inputs": [],
			"name": "recipient",
			"outputs": [
				{
					"internalType": "address payable",
					"name": "",
					"type": "address"
				}
			],
			"stateMutability": "view",
			"type": "function"
		},
		{
			"inputs": [],
			"name": "sender",
			"outputs": [
				{
					"internalType": "address payable",
					"name": "",
					"type": "address"
				}
			],
			"stateMutability": "view",
			"type": "function"
		}
	]
}