{
	"data": {
		"bytecode": {
			"linkReferences": {},
			"object": "608060405234801561000f575f80fd5b50610d1f8061001d5f395ff3fe608060405234801561000f575f80fd5b506004361061003f575f3560e01c80637379b42214610043578063ae3edb651461005f578063c3cee9c11461008f575b5f80fd5b61005d60048036038101906100589190610281565b6100bf565b005b610079600480360381019061007491906102bf565b610129565b6040516100869190610345565b60405180910390f35b6100a960048036038101906100a49190610388565b610162565b6040516100b691906103e0565b60405180910390f35b8173ffffffffffffffffffffffffffffffffffffffff1663898855ed826040518263ffffffff1660e01b81526004016100f89190610408565b5f604051808303815f87803b15801561010f575f80fd5b505af1158015610121573d5f803e3d5ffd5b505050505050565b5f81604051610137906101d2565b6101419190610408565b604051809103905ff08015801561015a573d5f803e3d5ffd5b509050919050565b5f607f60f81b838360405160200161017b929190610466565b604051602081830303815290604052805190602001205f602081106101a3576101a2610491565b5b1a60f81b7effffffffffffffffffffffffffffffffffffffffffffffffffffffffffffff191614905092915050565b61082b806104bf83390190565b5f80fd5b5f73ffffffffffffffffffffffffffffffffffffffff82169050919050565b5f61020c826101e3565b9050919050565b5f61021d82610202565b9050919050565b61022d81610213565b8114610237575f80fd5b50565b5f8135905061024881610224565b92915050565b5f819050919050565b6102608161024e565b811461026a575f80fd5b50565b5f8135905061027b81610257565b92915050565b5f8060408385031215610297576102966101df565b5b5f6102a48582860161023a565b92505060206102b58582860161026d565b9150509250929050565b5f602082840312156102d4576102d36101df565b5b5f6102e18482850161026d565b91505092915050565b5f819050919050565b5f61030d610308610303846101e3565b6102ea565b6101e3565b9050919050565b5f61031e826102f3565b9050919050565b5f61032f82610314565b9050919050565b61033f81610325565b82525050565b5f6020820190506103585f830184610336565b92915050565b61036781610202565b8114610371575f80fd5b50565b5f813590506103828161035e565b92915050565b5f806040838503121561039e5761039d6101df565b5b5f6103ab85828601610374565b92505060206103bc85828601610374565b9150509250929050565b5f8115159050919050565b6103da816103c6565b82525050565b5f6020820190506103f35f8301846103d1565b92915050565b6104028161024e565b82525050565b5f60208201905061041b5f8301846103f9565b92915050565b5f8160601b9050919050565b5f61043782610421565b9050919050565b5f6104488261042d565b9050919050565b61046061045b82610202565b61043e565b82525050565b5f610471828561044f565b601482019150610481828461044f565b6014820191508190509392505050565b7f4e487b71000000000000000000000000000000000000000000000000000000005f52603260045260245ffdfe608060405234801561000f575f80fd5b5060405161082b38038061082b8339818101604052810190610031919061012b565b7f69c1a4416562e119580e7e33e6c4009f5531b80cd0d08e393ec4feb51a72792c336040516100609190610195565b60405180910390a13360015f6101000a81548173ffffffffffffffffffffffffffffffffffffffff021916908373ffffffffffffffffffffffffffffffffffffffff160217905550335f806101000a81548173ffffffffffffffffffffffffffffffffffffffff021916908373ffffffffffffffffffffffffffffffffffffffff16021790555080600281905550506101ae565b5f80fd5b5f819050919050565b61010a816100f8565b8114610114575f80fd5b50565b5f8151905061012581610101565b92915050565b5f602082840312156101405761013f6100f4565b5b5f61014d84828501610117565b91505092915050565b5f73ffffffffffffffffffffffffffffffffffffffff82169050919050565b5f61017f82610156565b9050919050565b61018f81610175565b82525050565b5f6020820190506101a85f830184610186565b92915050565b610670806101bb5f395ff3fe608060405234801561000f575f80fd5b5060043610610055575f3560e01c806302d05d3f1461005957806306fdde03146100775780631a69523014610095578063898855ed146100b15780638da5cb5b146100cd575b5f80fd5b6100616100eb565b60405161006e9190610482565b60405180910390f35b61007f61010e565b60405161008c91906104b3565b60405180910390f35b6100af60048036038101906100aa919061050b565b610114565b005b6100cb60048036038101906100c69190610560565b6102f9565b005b6100d56103e3565b6040516100e2919061059a565b60405180910390f35b5f8054906101000a900473ffffffffffffffffffffffffffffffffffffffff1681565b60025481565b7f69c1a4416562e119580e7e33e6c4009f5531b80cd0d08e393ec4feb51a72792c33604051610143919061059a565b60405180910390a17f69c1a4416562e119580e7e33e6c4009f5531b80cd0d08e393ec4feb51a72792c5f8054906101000a900473ffffffffffffffffffffffffffffffffffffffff16604051610199919061059a565b60405180910390a160015f9054906101000a900473ffffffffffffffffffffffffffffffffffffffff1673ffffffffffffffffffffffffffffffffffffffff163373ffffffffffffffffffffffffffffffffffffffff16036102f6575f8054906101000a900473ffffffffffffffffffffffffffffffffffffffff1673ffffffffffffffffffffffffffffffffffffffff1663c3cee9c160015f9054906101000a900473ffffffffffffffffffffffffffffffffffffffff16836040518363ffffffff1660e01b81526004016102709291906105b3565b602060405180830381865afa15801561028b573d5f803e3d5ffd5b505050506040513d601f19601f820116820180604052508101906102af919061060f565b156102f5578060015f6101000a81548173ffffffffffffffffffffffffffffffffffffffff021916908373ffffffffffffffffffffffffffffffffffffffff1602179055505b5b50565b7f69c1a4416562e119580e7e33e6c4009f5531b80cd0d08e393ec4feb51a72792c33604051610328919061059a565b60405180910390a17f69c1a4416562e119580e7e33e6c4009f5531b80cd0d08e393ec4feb51a72792c5f8054906101000a900473ffffffffffffffffffffffffffffffffffffffff1660405161037e919061059a565b60405180910390a15f8054906101000a900473ffffffffffffffffffffffffffffffffffffffff1673ffffffffffffffffffffffffffffffffffffffff163373ffffffffffffffffffffffffffffffffffffffff16036103e057806002819055505b50565b60015f9054906101000a900473ffffffffffffffffffffffffffffffffffffffff1681565b5f73ffffffffffffffffffffffffffffffffffffffff82169050919050565b5f819050919050565b5f61044a61044561044084610408565b610427565b610408565b9050919050565b5f61045b82610430565b9050919050565b5f61046c82610451565b9050919050565b61047c81610462565b82525050565b5f6020820190506104955f830184610473565b92915050565b5f819050919050565b6104ad8161049b565b82525050565b5f6020820190506104c65f8301846104a4565b92915050565b5f80fd5b5f6104da82610408565b9050919050565b6104ea816104d0565b81146104f4575f80fd5b50565b5f81359050610505816104e1565b92915050565b5f602082840312156105205761051f6104cc565b5b5f61052d848285016104f7565b91505092915050565b61053f8161049b565b8114610549575f80fd5b50565b5f8135905061055a81610536565b92915050565b5f60208284031215610575576105746104cc565b5b5f6105828482850161054c565b91505092915050565b610594816104d0565b82525050565b5f6020820190506105ad5f83018461058b565b92915050565b5f6040820190506105c65f83018561058b565b6105d3602083018461058b565b9392505050565b5f8115159050919050565b6105ee816105da565b81146105f8575f80fd5b50565b5f81519050610609816105e5565b92915050565b5f60208284031215610624576106236104cc565b5b5f610631848285016105fb565b9150509291505056fea2646970667358221220647da80104308ba36e40a8b061d34d67e473a57149210207a94fef39a099ec1864736f6c63430008150033a264697066735822122032bd83784a936223fce15312b764df39691548e82a65e4e75219d0f3fdff1d4064736f6c63430008150033",
			"opcodes": "PUSH1 0x80 PUSH1 0x40 MSTORE CALLVALUE DUP1 ISZERO PUSH2 0xF JUMPI PUSH0 DUP1 REVERT JUMPDEST POP PUSH2 0xD1F DUP1 PUSH2 0x1D PUSH0 CODECOPY PUSH0 RETURN INVALID PUSH1 0x80 PUSH1 0x40 MSTORE CALLVALUE DUP1 ISZERO PUSH2 0xF JUMPI PUSH0 DUP1 REVERT JUMPDEST POP PUSH1 0x4 CALLDATASIZE LT PUSH2 0x3F JUMPI PUSH0 CALLDATALOAD PUSH1 0xE0 SHR DUP1 PUSH4 0x7379B422 EQ PUSH2 0x43 JUMPI DUP1 PUSH4 0xAE3EDB65 EQ PUSH2 0x5F JUMPI DUP1 PUSH4 0xC3CEE9C1 EQ PUSH2 0x8F JUMPI JUMPDEST PUSH0 DUP1 REVERT JUMPDEST PUSH2 0x5D PUSH1 0x4 DUP1 CALLDATASIZE SUB DUP2 ADD SWAP1 PUSH2 0x58 SWAP2 SWAP1 PUSH2 0x281 JUMP JUMPDEST PUSH2 0xBF JUMP JUMPDEST STOP JUMPDEST PUSH2 0x79 PUSH1 0x4 DUP1 CALLDATASIZE SUB DUP2 ADD SWAP1 PUSH2 0x74 SWAP2 SWAP1 PUSH2 0x2BF JUMP JUMPDEST PUSH2 0x129 JUMP JUMPDEST PUSH1 0x40 MLOAD PUSH2 0x86 SWAP2 SWAP1 PUSH2 0x345 JUMP JUMPDEST PUSH1 0x40 MLOAD DUP1 SWAP2 SUB SWAP1 RETURN JUMPDEST PUSH2 0xA9 PUSH1 0x4 DUP1 CALLDATASIZE SUB DUP2 ADD SWAP1 PUSH2 0xA4 SWAP2 SWAP1 PUSH2 0x388 JUMP JUMPDEST PUSH2 0x162 JUMP JUMPDEST PUSH1 0x40 MLOAD PUSH2 0xB6 SWAP2 SWAP1 PUSH2 0x3E0 JUMP JUMPDEST PUSH1 0x40 MLOAD DUP1 SWAP2 SUB SWAP1 RETURN JUMPDEST DUP2 PUSH20 0xFFFFFFFFFFFFFFFFFFFFFFFFFFFFFFFFFFFFFFFF AND PUSH4 0x898855ED DUP3 PUSH1 0x40 MLOAD DUP3 PUSH4 0xFFFFFFFF AND PUSH1 0xE0 SHL DUP2 MSTORE PUSH1 0x4 ADD PUSH2 0xF8 SWAP2 SWAP1 PUSH2 0x408 JUMP JUMPDEST PUSH0 PUSH1 0x40 MLOAD DUP1 DUP4 SUB DUP2 PUSH0 DUP8 DUP1 EXTCODESIZE ISZERO DUP1 ISZERO PUSH2 0x10F JUMPI PUSH0 DUP1 REVERT JUMPDEST POP GAS CALL ISZERO DUP1 ISZERO PUSH2 0x121 JUMPI RETURNDATASIZE PUSH0 DUP1 RETURNDATACOPY RETURNDATASIZE PUSH0 REVERT JUMPDEST POP POP POP POP POP POP JUMP JUMPDEST PUSH0 DUP2 PUSH1 0x40 MLOAD PUSH2 0x137 SWAP1 PUSH2 0x1D2 JUMP JUMPDEST PUSH2 0x141 SWAP2 SWAP1 PUSH2 0x408 JUMP JUMPDEST PUSH1 0x40 MLOAD DUP1 SWAP2 SUB SWAP1 PUSH0 CREATE DUP1 ISZERO DUP1 ISZERO PUSH2 0x15A JUMPI RETURNDATASIZE PUSH0 DUP1 RETURNDATACOPY RETURNDATASIZE PUSH0 REVERT JUMPDEST POP SWAP1 POP SWAP2 SWAP1 POP JUMP JUMPDEST PUSH0 PUSH1 0x7F PUSH1 0xF8 SHL DUP4 DUP4 PUSH1 0x40 MLOAD PUSH1 0x20 ADD PUSH2 0x17B SWAP3 SWAP2 SWAP1 PUSH2 0x466 JUMP JUMPDEST PUSH1 0x40 MLOAD PUSH1 0x20 DUP2 DUP4 SUB SUB DUP2 MSTORE SWAP1 PUSH1 0x40 MSTORE DUP1 MLOAD SWAP1 PUSH1 0x20 ADD KECCAK256 PUSH0 PUSH1 0x20 DUP2 LT PUSH2 0x1A3 JUMPI PUSH2 0x1A2 PUSH2 0x491 JUMP JUMPDEST JUMPDEST BYTE PUSH1 0xF8 SHL PUSH31 0xFFFFFFFFFFFFFFFFFFFFFFFFFFFFFFFFFFFFFFFFFFFFFFFFFFFFFFFFFFFFFF NOT AND EQ SWAP1 POP SWAP3 SWAP2 POP POP JUMP JUMPDEST PUSH2 0x82B DUP1 PUSH2 0x4BF DUP4 CODECOPY ADD SWAP1 JUMP JUMPDEST PUSH0 DUP1 REVERT JUMPDEST PUSH0 PUSH20 0xFFFFFFFFFFFFFFFFFFFFFFFFFFFFFFFFFFFFFFFF DUP3 AND SWAP1 POP SWAP2 SWAP1 POP JUMP JUMPDEST PUSH0 PUSH2 0x20C DUP3 PUSH2 0x1E3 JUMP JUMPDEST SWAP1 POP SWAP2 SWAP1 POP JUMP JUMPDEST PUSH0 PUSH2 0x21D DUP3 PUSH2 0x202 JUMP JUMPDEST SWAP1 POP SWAP2 SWAP1 POP JUMP JUMPDEST PUSH2 0x22D DUP2 PUSH2 0x213 JUMP JUMPDEST DUP2 EQ PUSH2 0x237 JUMPI PUSH0 DUP1 REVERT JUMPDEST POP JUMP JUMPDEST PUSH0 DUP2 CALLDATALOAD SWAP1 POP PUSH2 0x248 DUP2 PUSH2 0x224 JUMP JUMPDEST SWAP3 SWAP2 POP POP JUMP JUMPDEST PUSH0 DUP2 SWAP1 POP SWAP2 SWAP1 POP JUMP JUMPDEST PUSH2 0x260 DUP2 PUSH2 0x24E JUMP JUMPDEST DUP2 EQ PUSH2 0x26A JUMPI PUSH0 DUP1 REVERT JUMPDEST POP JUMP JUMPDEST PUSH0 DUP2 CALLDATALOAD SWAP1 POP PUSH2 0x27B DUP2 PUSH2 0x257 JUMP JUMPDEST SWAP3 SWAP2 POP POP JUMP JUMPDEST PUSH0 DUP1 PUSH1 0x40 DUP4 DUP6 SUB SLT ISZERO PUSH2 0x297 JUMPI PUSH2 0x296 PUSH2 0x1DF JUMP JUMPDEST JUMPDEST PUSH0 PUSH2 0x2A4 DUP6 DUP3 DUP7 ADD PUSH2 0x23A JUMP JUMPDEST SWAP3 POP POP PUSH1 0x20 PUSH2 0x2B5 DUP6 DUP3 DUP7 ADD PUSH2 0x26D JUMP JUMPDEST SWAP2 POP POP SWAP3 POP SWAP3 SWAP1 POP JUMP JUMPDEST PUSH0 PUSH1 0x20 DUP3 DUP5 SUB SLT ISZERO PUSH2 0x2D4 JUMPI PUSH2 0x2D3 PUSH2 0x1DF JUMP JUMPDEST JUMPDEST PUSH0 PUSH2 0x2E1 DUP5 DUP3 DUP6 ADD PUSH2 0x26D JUMP JUMPDEST SWAP2 POP POP SWAP3 SWAP2 POP POP JUMP JUMPDEST PUSH0 DUP2 SWAP1 POP SWAP2 SWAP1 POP JUMP JUMPDEST PUSH0 PUSH2 0x30D PUSH2 0x308 PUSH2 0x303 DUP5 PUSH2 0x1E3 JUMP JUMPDEST PUSH2 0x2EA JUMP JUMPDEST PUSH2 0x1E3 JUMP JUMPDEST SWAP1 POP SWAP2 SWAP1 POP JUMP JUMPDEST PUSH0 PUSH2 0x31E DUP3 PUSH2 0x2F3 JUMP JUMPDEST SWAP1 POP SWAP2 SWAP1 POP JUMP JUMPDEST PUSH0 PUSH2 0x32F DUP3 PUSH2 0x314 JUMP JUMPDEST SWAP1 POP SWAP2 SWAP1 POP JUMP JUMPDEST PUSH2 0x33F DUP2 PUSH2 0x325 JUMP JUMPDEST DUP3 MSTORE POP POP JUMP JUMPDEST PUSH0 PUSH1 0x20 DUP3 ADD SWAP1 POP PUSH2 0x358 PUSH0 DUP4 ADD DUP5 PUSH2 0x336 JUMP JUMPDEST SWAP3 SWAP2 POP POP JUMP JUMPDEST PUSH2 0x367 DUP2 PUSH2 0x202 JUMP JUMPDEST DUP2 EQ PUSH2 0x371 JUMPI PUSH0 DUP1 REVERT JUMPDEST POP JUMP JUMPDEST PUSH0 DUP2 CALLDATALOAD SWAP1 POP PUSH2 0x382 DUP2 PUSH2 0x35E JUMP JUMPDEST SWAP3 SWAP2 POP POP JUMP JUMPDEST PUSH0 DUP1 PUSH1 0x40 DUP4 DUP6 SUB SLT ISZERO PUSH2 0x39E JUMPI PUSH2 0x39D PUSH2 0x1DF JUMP JUMPDEST JUMPDEST PUSH0 PUSH2 0x3AB DUP6 DUP3 DUP7 ADD PUSH2 0x374 JUMP JUMPDEST SWAP3 POP POP PUSH1 0x20 PUSH2 0x3BC DUP6 DUP3 DUP7 ADD PUSH2 0x374 JUMP JUMPDEST SWAP2 POP POP SWAP3 POP SWAP3 SWAP1 POP JUMP JUMPDEST PUSH0 DUP2 ISZERO ISZERO SWAP1 POP SWAP2 SWAP1 POP JUMP JUMPDEST PUSH2 0x3DA DUP2 PUSH2 0x3C6 JUMP JUMPDEST DUP3 MSTORE POP POP JUMP JUMPDEST PUSH0 PUSH1 0x20 DUP3 ADD SWAP1 POP PUSH2 0x3F3 PUSH0 DUP4 ADD DUP5 PUSH2 0x3D1 JUMP JUMPDEST SWAP3 SWAP2 POP POP JUMP JUMPDEST PUSH2 0x402 DUP2 PUSH2 0x24E JUMP JUMPDEST DUP3 MSTORE POP POP JUMP JUMPDEST PUSH0 PUSH1 0x20 DUP3 ADD SWAP1 POP PUSH2 0x41B PUSH0 DUP4 ADD DUP5 PUSH2 0x3F9 JUMP JUMPDEST SWAP3 SWAP2 POP POP JUMP JUMPDEST PUSH0 DUP2 PUSH1 0x60 SHL SWAP1 POP SWAP2 SWAP1 POP JUMP JUMPDEST PUSH0 PUSH2 0x437 DUP3 PUSH2 0x421 JUMP JUMPDEST SWAP1 POP SWAP2 SWAP1 POP JUMP JUMPDEST PUSH0 PUSH2 0x448 DUP3 PUSH2 0x42D JUMP JUMPDEST SWAP1 POP SWAP2 SWAP1 POP JUMP JUMPDEST PUSH2 0x460 PUSH2 0x45B DUP3 PUSH2 0x202 JUMP JUMPDEST PUSH2 0x43E JUMP JUMPDEST DUP3 MSTORE POP POP JUMP JUMPDEST PUSH0 PUSH2 0x471 DUP3 DUP6 PUSH2 0x44F JUMP JUMPDEST PUSH1 0x14 DUP3 ADD SWAP2 POP PUSH2 0x481 DUP3 DUP5 PUSH2 0x44F JUMP JUMPDEST PUSH1 0x14 DUP3 ADD SWAP2 POP DUP2 SWAP1 POP SWAP4 SWAP3 POP POP POP JUMP JUMPDEST PUSH32 0x4E487B7100000000000000000000000000000000000000000000000000000000 PUSH0 MSTORE PUSH1 0x32 PUSH1 0x4 MSTORE PUSH1 0x24 PUSH0 REVERT INVALID PUSH1 0x80 PUSH1 0x40 MSTORE CALLVALUE DUP1 ISZERO PUSH2 0xF JUMPI PUSH0 DUP1 REVERT JUMPDEST POP PUSH1 0x40 MLOAD PUSH2 0x82B CODESIZE SUB DUP1 PUSH2 0x82B DUP4 CODECOPY DUP2 DUP2 ADD PUSH1 0x40 MSTORE DUP2 ADD SWAP1 PUSH2 0x31 SWAP2 SWAP1 PUSH2 0x12B JUMP JUMPDEST PUSH32 0x69C1A4416562E119580E7E33E6C4009F5531B80CD0D08E393EC4FEB51A72792C CALLER PUSH1 0x40 MLOAD PUSH2 0x60 SWAP2 SWAP1 PUSH2 0x195 JUMP JUMPDEST PUSH1 0x40 MLOAD DUP1 SWAP2 SUB SWAP1 LOG1 CALLER PUSH1 0x1 PUSH0 PUSH2 0x100 EXP DUP2 SLOAD DUP2 PUSH20 0xFFFFFFFFFFFFFFFFFFFFFFFFFFFFFFFFFFFFFFFF MUL NOT AND SWAP1 DUP4 PUSH20 0xFFFFFFFFFFFFFFFFFFFFFFFFFFFFFFFFFFFFFFFF AND MUL OR SWAP1 SSTORE POP CALLER PUSH0 DUP1 PUSH2 0x100 EXP DUP2 SLOAD DUP2 PUSH20 0xFFFFFFFFFFFFFFFFFFFFFFFFFFFFFFFFFFFFFFFF MUL NOT AND SWAP1 DUP4 PUSH20 0xFFFFFFFFFFFFFFFFFFFFFFFFFFFFFFFFFFFFFFFF AND MUL OR SWAP1 SSTORE POP DUP1 PUSH1 0x2 DUP2 SWAP1 SSTORE POP POP PUSH2 0x1AE JUMP JUMPDEST PUSH0 DUP1 REVERT JUMPDEST PUSH0 DUP2 SWAP1 POP SWAP2 SWAP1 POP JUMP JUMPDEST PUSH2 0x10A DUP2 PUSH2 0xF8 JUMP JUMPDEST DUP2 EQ PUSH2 0x114 JUMPI PUSH0 DUP1 REVERT JUMPDEST POP JUMP JUMPDEST PUSH0 DUP2 MLOAD SWAP1 POP PUSH2 0x125 DUP2 PUSH2 0x101 JUMP JUMPDEST SWAP3 SWAP2 POP POP JUMP JUMPDEST PUSH0 PUSH1 0x20 DUP3 DUP5 SUB SLT ISZERO PUSH2 0x140 JUMPI PUSH2 0x13F PUSH2 0xF4 JUMP JUMPDEST JUMPDEST PUSH0 PUSH2 0x14D DUP5 DUP3 DUP6 ADD PUSH2 0x117 JUMP JUMPDEST SWAP2 POP POP SWAP3 SWAP2 POP POP JUMP JUMPDEST PUSH0 PUSH20 0xFFFFFFFFFFFFFFFFFFFFFFFFFFFFFFFFFFFFFFFF DUP3 AND SWAP1 POP SWAP2 SWAP1 POP JUMP JUMPDEST PUSH0 PUSH2 0x17F DUP3 PUSH2 0x156 JUMP JUMPDEST SWAP1 POP SWAP2 SWAP1 POP JUMP JUMPDEST PUSH2 0x18F DUP2 PUSH2 0x175 JUMP JUMPDEST DUP3 MSTORE POP POP JUMP JUMPDEST PUSH0 PUSH1 0x20 DUP3 ADD SWAP1 POP PUSH2 0x1A8 PUSH0 DUP4 ADD DUP5 PUSH2 0x186 JUMP JUMPDEST SWAP3 SWAP2 POP POP JUMP JUMPDEST PUSH2 0x670 DUP1 PUSH2 0x1BB PUSH0 CODECOPY PUSH0 RETURN INVALID PUSH1 0x80 PUSH1 0x40 MSTORE CALLVALUE DUP1 ISZERO PUSH2 0xF JUMPI PUSH0 DUP1 REVERT JUMPDEST POP PUSH1 0x4 CALLDATASIZE LT PUSH2 0x55 JUMPI PUSH0 CALLDATALOAD PUSH1 0xE0 SHR DUP1 PUSH4 0x2D05D3F EQ PUSH2 0x59 JUMPI DUP1 PUSH4 0x6FDDE03 EQ PUSH2 0x77 JUMPI DUP1 PUSH4 0x1A695230 EQ PUSH2 0x95 JUMPI DUP1 PUSH4 0x898855ED EQ PUSH2 0xB1 JUMPI DUP1 PUSH4 0x8DA5CB5B EQ PUSH2 0xCD JUMPI JUMPDEST PUSH0 DUP1 REVERT JUMPDEST PUSH2 0x61 PUSH2 0xEB JUMP JUMPDEST PUSH1 0x40 MLOAD PUSH2 0x6E SWAP2 SWAP1 PUSH2 0x482 JUMP JUMPDEST PUSH1 0x40 MLOAD DUP1 SWAP2 SUB SWAP1 RETURN JUMPDEST PUSH2 0x7F PUSH2 0x10E JUMP JUMPDEST PUSH1 0x40 MLOAD PUSH2 0x8C SWAP2 SWAP1 PUSH2 0x4B3 JUMP JUMPDEST PUSH1 0x40 MLOAD DUP1 SWAP2 SUB SWAP1 RETURN JUMPDEST PUSH2 0xAF PUSH1 0x4 DUP1 CALLDATASIZE SUB DUP2 ADD SWAP1 PUSH2 0xAA SWAP2 SWAP1 PUSH2 0x50B JUMP JUMPDEST PUSH2 0x114 JUMP JUMPDEST STOP JUMPDEST PUSH2 0xCB PUSH1 0x4 DUP1 CALLDATASIZE SUB DUP2 ADD SWAP1 PUSH2 0xC6 SWAP2 SWAP1 PUSH2 0x560 JUMP JUMPDEST PUSH2 0x2F9 JUMP JUMPDEST STOP JUMPDEST PUSH2 0xD5 PUSH2 0x3E3 JUMP JUMPDEST PUSH1 0x40 MLOAD PUSH2 0xE2 SWAP2 SWAP1 PUSH2 0x59A JUMP JUMPDEST PUSH1 0x40 MLOAD DUP1 SWAP2 SUB SWAP1 RETURN JUMPDEST PUSH0 DUP1 SLOAD SWAP1 PUSH2 0x100 EXP SWAP1 DIV PUSH20 0xFFFFFFFFFFFFFFFFFFFFFFFFFFFFFFFFFFFFFFFF AND DUP2 JUMP JUMPDEST PUSH1 0x2 SLOAD DUP2 JUMP JUMPDEST PUSH32 0x69C1A4416562E119580E7E33E6C4009F5531B80CD0D08E393EC4FEB51A72792C CALLER PUSH1 0x40 MLOAD PUSH2 0x143 SWAP2 SWAP1 PUSH2 0x59A JUMP JUMPDEST PUSH1 0x40 MLOAD DUP1 SWAP2 SUB SWAP1 LOG1 PUSH32 0x69C1A4416562E119580E7E33E6C4009F5531B80CD0D08E393EC4FEB51A72792C PUSH0 DUP1 SLOAD SWAP1 PUSH2 0x100 EXP SWAP1 DIV PUSH20 0xFFFFFFFFFFFFFFFFFFFFFFFFFFFFFFFFFFFFFFFF AND PUSH1 0x40 MLOAD PUSH2 0x199 SWAP2 SWAP1 PUSH2 0x59A JUMP JUMPDEST PUSH1 0x40 MLOAD DUP1 SWAP2 SUB SWAP1 LOG1 PUSH1 0x1 PUSH0 SWAP1 SLOAD SWAP1 PUSH2 0x100 EXP SWAP1 DIV PUSH20 0xFFFFFFFFFFFFFFFFFFFFFFFFFFFFFFFFFFFFFFFF AND PUSH20 0xFFFFFFFFFFFFFFFFFFFFFFFFFFFFFFFFFFFFFFFF AND CALLER PUSH20 0xFFFFFFFFFFFFFFFFFFFFFFFFFFFFFFFFFFFFFFFF AND SUB PUSH2 0x2F6 JUMPI PUSH0 DUP1 SLOAD SWAP1 PUSH2 0x100 EXP SWAP1 DIV PUSH20 0xFFFFFFFFFFFFFFFFFFFFFFFFFFFFFFFFFFFFFFFF AND PUSH20 0xFFFFFFFFFFFFFFFFFFFFFFFFFFFFFFFFFFFFFFFF AND PUSH4 0xC3CEE9C1 PUSH1 0x1 PUSH0 SWAP1 SLOAD SWAP1 PUSH2 0x100 EXP SWAP1 DIV PUSH20 0xFFFFFFFFFFFFFFFFFFFFFFFFFFFFFFFFFFFFFFFF AND DUP4 PUSH1 0x40 MLOAD DUP4 PUSH4 0xFFFFFFFF AND PUSH1 0xE0 SHL DUP2 MSTORE PUSH1 0x4 ADD PUSH2 0x270 SWAP3 SWAP2 SWAP1 PUSH2 0x5B3 JUMP JUMPDEST PUSH1 0x20 PUSH1 0x40 MLOAD DUP1 DUP4 SUB DUP2 DUP7 GAS STATICCALL ISZERO DUP1 ISZERO PUSH2 0x28B JUMPI RETURNDATASIZE PUSH0 DUP1 RETURNDATACOPY RETURNDATASIZE PUSH0 REVERT JUMPDEST POP POP POP POP PUSH1 0x40 MLOAD RETURNDATASIZE PUSH1 0x1F NOT PUSH1 0x1F DUP3 ADD AND DUP3 ADD DUP1 PUSH1 0x40 MSTORE POP DUP2 ADD SWAP1 PUSH2 0x2AF SWAP2 SWAP1 PUSH2 0x60F JUMP JUMPDEST ISZERO PUSH2 0x2F5 JUMPI DUP1 PUSH1 0x1 PUSH0 PUSH2 0x100 EXP DUP2 SLOAD DUP2 PUSH20 0xFFFFFFFFFFFFFFFFFFFFFFFFFFFFFFFFFFFFFFFF MUL NOT AND SWAP1 DUP4 PUSH20 0xFFFFFFFFFFFFFFFFFFFFFFFFFFFFFFFFFFFFFFFF AND MUL OR SWAP1 SSTORE POP JUMPDEST JUMPDEST POP JUMP JUMPDEST PUSH32 0x69C1A4416562E119580E7E33E6C4009F5531B80CD0D08E393EC4FEB51A72792C CALLER PUSH1 0x40 MLOAD PUSH2 0x328 SWAP2 SWAP1 PUSH2 0x59A JUMP JUMPDEST PUSH1 0x40 MLOAD DUP1 SWAP2 SUB SWAP1 LOG1 PUSH32 0x69C1A4416562E119580E7E33E6C4009F5531B80CD0D08E393EC4FEB51A72792C PUSH0 DUP1 SLOAD SWAP1 PUSH2 0x100 EXP SWAP1 DIV PUSH20 0xFFFFFFFFFFFFFFFFFFFFFFFFFFFFFFFFFFFFFFFF AND PUSH1 0x40 MLOAD PUSH2 0x37E SWAP2 SWAP1 PUSH2 0x59A JUMP JUMPDEST PUSH1 0x40 MLOAD DUP1 SWAP2 SUB SWAP1 LOG1 PUSH0 DUP1 SLOAD SWAP1 PUSH2 0x100 EXP SWAP1 DIV PUSH20 0xFFFFFFFFFFFFFFFFFFFFFFFFFFFFFFFFFFFFFFFF AND PUSH20 0xFFFFFFFFFFFFFFFFFFFFFFFFFFFFFFFFFFFFFFFF AND CALLER PUSH20 0xFFFFFFFFFFFFFFFFFFFFFFFFFFFFFFFFFFFFFFFF AND SUB PUSH2 0x3E0 JUMPI DUP1 PUSH1 0x2 DUP2 SWAP1 SSTORE POP JUMPDEST POP JUMP JUMPDEST PUSH1 0x1 PUSH0 SWAP1 SLOAD SWAP1 PUSH2 0x100 EXP SWAP1 DIV PUSH20 0xFFFFFFFFFFFFFFFFFFFFFFFFFFFFFFFFFFFFFFFF AND DUP2 JUMP JUMPDEST PUSH0 PUSH20 0xFFFFFFFFFFFFFFFFFFFFFFFFFFFFFFFFFFFFFFFF DUP3 AND SWAP1 POP SWAP2 SWAP1 POP JUMP JUMPDEST PUSH0 DUP2 SWAP1 POP SWAP2 SWAP1 POP JUMP JUMPDEST PUSH0 PUSH2 0x44A PUSH2 0x445 PUSH2 0x440 DUP5 PUSH2 0x408 JUMP JUMPDEST PUSH2 0x427 JUMP JUMPDEST PUSH2 0x408 JUMP JUMPDEST SWAP1 POP SWAP2 SWAP1 POP JUMP JUMPDEST PUSH0 PUSH2 0x45B DUP3 PUSH2 0x430 JUMP JUMPDEST SWAP1 POP SWAP2 SWAP1 POP JUMP JUMPDEST PUSH0 PUSH2 0x46C DUP3 PUSH2 0x451 JUMP JUMPDEST SWAP1 POP SWAP2 SWAP1 POP JUMP JUMPDEST PUSH2 0x47C DUP2 PUSH2 0x462 JUMP JUMPDEST DUP3 MSTORE POP POP JUMP JUMPDEST PUSH0 PUSH1 0x20 DUP3 ADD SWAP1 POP PUSH2 0x495 PUSH0 DUP4 ADD DUP5 PUSH2 0x473 JUMP JUMPDEST SWAP3 SWAP2 POP POP JUMP JUMPDEST PUSH0 DUP2 SWAP1 POP SWAP2 SWAP1 POP JUMP JUMPDEST PUSH2 0x4AD DUP2 PUSH2 0x49B JUMP JUMPDEST DUP3 MSTORE POP POP JUMP JUMPDEST PUSH0 PUSH1 0x20 DUP3 ADD SWAP1 POP PUSH2 0x4C6 PUSH0 DUP4 ADD DUP5 PUSH2 0x4A4 JUMP JUMPDEST SWAP3 SWAP2 POP POP JUMP JUMPDEST PUSH0 DUP1 REVERT JUMPDEST PUSH0 PUSH2 0x4DA DUP3 PUSH2 0x408 JUMP JUMPDEST SWAP1 POP SWAP2 SWAP1 POP JUMP JUMPDEST PUSH2 0x4EA DUP2 PUSH2 0x4D0 JUMP JUMPDEST DUP2 EQ PUSH2 0x4F4 JUMPI PUSH0 DUP1 REVERT JUMPDEST POP JUMP JUMPDEST PUSH0 DUP2 CALLDATALOAD SWAP1 POP PUSH2 0x505 DUP2 PUSH2 0x4E1 JUMP JUMPDEST SWAP3 SWAP2 POP POP JUMP JUMPDEST PUSH0 PUSH1 0x20 DUP3 DUP5 SUB SLT ISZERO PUSH2 0x520 JUMPI PUSH2 0x51F PUSH2 0x4CC JUMP JUMPDEST JUMPDEST PUSH0 PUSH2 0x52D DUP5 DUP3 DUP6 ADD PUSH2 0x4F7 JUMP JUMPDEST SWAP2 POP POP SWAP3 SWAP2 POP POP JUMP JUMPDEST PUSH2 0x53F DUP2 PUSH2 0x49B JUMP JUMPDEST DUP2 EQ PUSH2 0x549 JUMPI PUSH0 DUP1 REVERT JUMPDEST POP JUMP JUMPDEST PUSH0 DUP2 CALLDATALOAD SWAP1 POP PUSH2 0x55A DUP2 PUSH2 0x536 JUMP JUMPDEST SWAP3 SWAP2 POP POP JUMP JUMPDEST PUSH0 PUSH1 0x20 DUP3 DUP5 SUB SLT ISZERO PUSH2 0x575 JUMPI PUSH2 0x574 PUSH2 0x4CC JUMP JUMPDEST JUMPDEST PUSH0 PUSH2 0x582 DUP5 DUP3 DUP6 ADD PUSH2 0x54C JUMP JUMPDEST SWAP2 POP POP SWAP3 SWAP2 POP POP JUMP JUMPDEST PUSH2 0x594 DUP2 PUSH2 0x4D0 JUMP JUMPDEST DUP3 MSTORE POP POP JUMP JUMPDEST PUSH0 PUSH1 0x20 DUP3 ADD SWAP1 POP PUSH2 0x5AD PUSH0 DUP4 ADD DUP5 PUSH2 0x58B JUMP JUMPDEST SWAP3 SWAP2 POP POP JUMP JUMPDEST PUSH0 PUSH1 0x40 DUP3 ADD SWAP1 POP PUSH2 0x5C6 PUSH0 DUP4 ADD DUP6 PUSH2 0x58B JUMP JUMPDEST PUSH2 0x5D3 PUSH1 0x20 DUP4 ADD DUP5 PUSH2 0x58B JUMP JUMPDEST SWAP4 SWAP3 POP POP POP JUMP JUMPDEST PUSH0 DUP2 ISZERO ISZERO SWAP1 POP SWAP2 SWAP1 POP JUMP JUMPDEST PUSH2 0x5EE DUP2 PUSH2 0x5DA JUMP JUMPDEST DUP2 EQ PUSH2 0x5F8 JUMPI PUSH0 DUP1 REVERT JUMPDEST POP JUMP JUMPDEST PUSH0 DUP2 MLOAD SWAP1 POP PUSH2 0x609 DUP2 PUSH2 0x5E5 JUMP JUMPDEST SWAP3 SWAP2 POP POP JUMP JUMPDEST PUSH0 PUSH1 0x20 DUP3 DUP5 SUB SLT ISZERO PUSH2 0x624 JUMPI PUSH2 0x623 PUSH2 0x4CC JUMP JUMPDEST JUMPDEST PUSH0 PUSH2 0x631 DUP5 DUP3 DUP6 ADD PUSH2 0x5FB JUMP JUMPDEST SWAP2 POP POP SWAP3 SWAP2 POP POP JUMP INVALID LOG2 PUSH5 0x6970667358 0x22 SLT KECCAK256 PUSH5 0x7DA8010430 DUP12 LOG3 PUSH15 0x40A8B061D34D67E473A57149210207 0xA9 0x4F 0xEF CODECOPY LOG0 SWAP10 0xEC XOR PUSH5 0x736F6C6343 STOP ADDMOD ISZERO STOP CALLER LOG2 PUSH5 0x6970667358 0x22 SLT KECCAK256 ORIGIN 0xBD DUP4 PUSH25 0x4A936223FCE15312B764DF39691548E82A65E4E75219D0F3FD SELFDESTRUCT SAR BLOCKHASH PUSH5 0x736F6C6343 STOP ADDMOD ISZERO STOP CALLER "
		},
		"gasEstimates": {
			"creation": {
				"codeDepositCost": "671800",
				"executionCost": "700",
				"totalCost": "672500"
			},
			"external": {
				"changeName(address,bytes32)": "infinite",
				"createToken(bytes32)": "infinite",
				"isTokenTransferOK(address,address)": "infinite"
			}
		},
		"methodIdentifiers": {
			"changeName(address,bytes32)": "7379b422",
			"createToken(bytes32)": "ae3edb65",
			"isTokenTransferOK(address,address)": "c3cee9c1"
		}
	},
	"abi": [
		{
			"inputs": [
				{
					"internalType": "contract OwnedToken",
					"name": "tokenAddress",
					"type": "address"
				},
				{
					"internalType": "bytes32",
					"name": "name",
					"type": "bytes32"
				}
			],
			"name": "changeName",
			"outputs": [],
			"stateMutability": "nonpayable",
			"type": "function"
		},
		{
			"inputs": [
				{
					"internalType": "bytes32",
					"name": "name",
					"type": "bytes32"
				}
			],
			"name": "createToken",
			"outputs": [
				{
					"internalType": "contract OwnedToken",
					"name": "tokenAddress",
					"type": "address"
				}
			],
			"stateMutability": "nonpayable",
			"type": "function"
		},
		{
			"inputs": [
				{
					"internalType": "address",
					"name": "currentOwner",
					"type": "address"
				},
				{
					"internalType": "address",
					"name": "newOwner",
					"type": "address"
				}
			],
			"name": "isTokenTransferOK",
			"outputs": [
				{
					"internalType": "bool",
					"name": "ok",
					"type": "bool"
				}
			],
			"stateMutability": "pure",
			"type": "function"
		}
	]
}